{
	"contracts/TestUSDTf.sol": {
		"DEX": {
			"abi": [
				{
					"inputs": [],
					"stateMutability": "nonpayable",
					"type": "constructor"
				},
				{
					"anonymous": false,
					"inputs": [
						{
							"indexed": false,
							"internalType": "uint256",
							"name": "amount",
							"type": "uint256"
						}
					],
					"name": "Bought",
					"type": "event"
				},
				{
					"anonymous": false,
					"inputs": [
						{
							"indexed": false,
							"internalType": "uint256",
							"name": "amount",
							"type": "uint256"
						}
					],
					"name": "Sold",
					"type": "event"
				},
				{
					"inputs": [
						{
							"internalType": "address",
							"name": "to",
							"type": "address"
						}
					],
					"name": "allowWancetoSC",
					"outputs": [],
					"stateMutability": "nonpayable",
					"type": "function"
				},
				{
					"inputs": [],
					"name": "buy",
					"outputs": [],
					"stateMutability": "payable",
					"type": "function"
				},
				{
					"inputs": [],
					"name": "checkAllowWance",
					"outputs": [
						{
							"internalType": "uint256",
							"name": "",
							"type": "uint256"
						}
					],
					"stateMutability": "view",
					"type": "function"
				},
				{
					"inputs": [
						{
							"internalType": "uint256",
							"name": "amount",
							"type": "uint256"
						}
					],
					"name": "sell",
					"outputs": [],
					"stateMutability": "nonpayable",
					"type": "function"
				},
				{
					"inputs": [],
					"name": "token",
					"outputs": [
						{
							"internalType": "contract IERC20",
							"name": "",
							"type": "address"
						}
					],
					"stateMutability": "view",
					"type": "function"
				}
			],
			"devdoc": {
				"kind": "dev",
				"methods": {},
				"version": 1
			},
			"evm": {
				"assembly": "    /* \"contracts/TestUSDTf.sol\":696:1858  contract DEX {... */\n  mstore(0x40, 0x80)\n    /* \"contracts/TestUSDTf.sol\":810:908  constructor() {... */\n  callvalue\n  dup1\n  iszero\n  tag_1\n  jumpi\n  0x00\n  dup1\n  revert\ntag_1:\n  pop\n    /* \"contracts/TestUSDTf.sol\":857:899  0xeD24FC36d5Ee211Ea25A80239Fb8C4Cfd80f12Ee */\n  0xed24fc36d5ee211ea25a80239fb8c4cfd80f12ee\n    /* \"contracts/TestUSDTf.sol\":834:839  token */\n  0x00\n  dup1\n    /* \"contracts/TestUSDTf.sol\":834:901  token = IERC20(address(0xeD24FC36d5Ee211Ea25A80239Fb8C4Cfd80f12Ee)) */\n  0x0100\n  exp\n  dup2\n  sload\n  dup2\n  0xffffffffffffffffffffffffffffffffffffffff\n  mul\n  not\n  and\n  swap1\n  dup4\n  0xffffffffffffffffffffffffffffffffffffffff\n  and\n  mul\n  or\n  swap1\n  sstore\n  pop\n    /* \"contracts/TestUSDTf.sol\":696:1858  contract DEX {... */\n  dataSize(sub_0)\n  dup1\n  dataOffset(sub_0)\n  0x00\n  codecopy\n  0x00\n  return\nstop\n\nsub_0: assembly {\n        /* \"contracts/TestUSDTf.sol\":696:1858  contract DEX {... */\n      mstore(0x40, 0x80)\n      jumpi(tag_1, lt(calldatasize, 0x04))\n      shr(0xe0, calldataload(0x00))\n      dup1\n      0xa6f2ae3a\n      eq\n      tag_2\n      jumpi\n      dup1\n      0xe4849b32\n      eq\n      tag_3\n      jumpi\n      dup1\n      0xe4beb3d6\n      eq\n      tag_4\n      jumpi\n      dup1\n      0xe9b103df\n      eq\n      tag_5\n      jumpi\n      dup1\n      0xfc0c546a\n      eq\n      tag_6\n      jumpi\n    tag_1:\n      0x00\n      dup1\n      revert\n        /* \"contracts/TestUSDTf.sol\":914:1281  function buy() payable public {... */\n    tag_2:\n      tag_7\n      tag_8\n      jump\t// in\n    tag_7:\n      stop\n        /* \"contracts/TestUSDTf.sol\":1411:1800  function sell(uint256 amount) public {... */\n    tag_3:\n      callvalue\n      dup1\n      iszero\n      tag_9\n      jumpi\n      0x00\n      dup1\n      revert\n    tag_9:\n      pop\n      tag_10\n      0x04\n      dup1\n      calldatasize\n      sub\n      dup2\n      add\n      swap1\n      tag_11\n      swap2\n      swap1\n      tag_12\n      jump\t// in\n    tag_11:\n      tag_13\n      jump\t// in\n    tag_10:\n      stop\n        /* \"contracts/TestUSDTf.sol\":1283:1405  function checkAllowWance() public view returns (uint256) { ... */\n    tag_4:\n      callvalue\n      dup1\n      iszero\n      tag_14\n      jumpi\n      0x00\n      dup1\n      revert\n    tag_14:\n      pop\n      tag_15\n      tag_16\n      jump\t// in\n    tag_15:\n      mload(0x40)\n      tag_17\n      swap2\n      swap1\n      tag_18\n      jump\t// in\n    tag_17:\n      mload(0x40)\n      dup1\n      swap2\n      sub\n      swap1\n      return\n        /* \"contracts/TestUSDTf.sol\":1803:1855  function allowWancetoSC(address to) public { ... */\n    tag_5:\n      callvalue\n      dup1\n      iszero\n      tag_19\n      jumpi\n      0x00\n      dup1\n      revert\n    tag_19:\n      pop\n      tag_20\n      0x04\n      dup1\n      calldatasize\n      sub\n      dup2\n      add\n      swap1\n      tag_21\n      swap2\n      swap1\n      tag_22\n      jump\t// in\n    tag_21:\n      tag_23\n      jump\t// in\n    tag_20:\n      stop\n        /* \"contracts/TestUSDTf.sol\":784:803  IERC20 public token */\n    tag_6:\n      callvalue\n      dup1\n      iszero\n      tag_24\n      jumpi\n      0x00\n      dup1\n      revert\n    tag_24:\n      pop\n      tag_25\n      tag_26\n      jump\t// in\n    tag_25:\n      mload(0x40)\n      tag_27\n      swap2\n      swap1\n      tag_28\n      jump\t// in\n    tag_27:\n      mload(0x40)\n      dup1\n      swap2\n      sub\n      swap1\n      return\n        /* \"contracts/TestUSDTf.sol\":914:1281  function buy() payable public {... */\n    tag_8:\n        /* \"contracts/TestUSDTf.sol\":954:973  uint256 amountTobuy */\n      0x00\n        /* \"contracts/TestUSDTf.sol\":976:985  msg.value */\n      callvalue\n        /* \"contracts/TestUSDTf.sol\":954:985  uint256 amountTobuy = msg.value */\n      swap1\n      pop\n        /* \"contracts/TestUSDTf.sol\":995:1013  uint256 dexBalance */\n      0x00\n        /* \"contracts/TestUSDTf.sol\":1016:1021  token */\n      dup1\n      0x00\n      swap1\n      sload\n      swap1\n      0x0100\n      exp\n      swap1\n      div\n      0xffffffffffffffffffffffffffffffffffffffff\n      and\n        /* \"contracts/TestUSDTf.sol\":1016:1031  token.balanceOf */\n      0xffffffffffffffffffffffffffffffffffffffff\n      and\n      0x70a08231\n        /* \"contracts/TestUSDTf.sol\":1040:1044  this */\n      address\n        /* \"contracts/TestUSDTf.sol\":1016:1046  token.balanceOf(address(this)) */\n      mload(0x40)\n      dup3\n      0xffffffff\n      and\n      0xe0\n      shl\n      dup2\n      mstore\n      0x04\n      add\n      tag_30\n      swap2\n      swap1\n      tag_31\n      jump\t// in\n    tag_30:\n      0x20\n      mload(0x40)\n      dup1\n      dup4\n      sub\n      dup2\n      dup7\n      dup1\n      extcodesize\n      iszero\n      dup1\n      iszero\n      tag_32\n      jumpi\n      0x00\n      dup1\n      revert\n    tag_32:\n      pop\n      gas\n      staticcall\n      iszero\n      dup1\n      iszero\n      tag_34\n      jumpi\n      returndatasize\n      0x00\n      dup1\n      returndatacopy\n      revert(0x00, returndatasize)\n    tag_34:\n      pop\n      pop\n      pop\n      pop\n      mload(0x40)\n      returndatasize\n      not(0x1f)\n      0x1f\n      dup3\n      add\n      and\n      dup3\n      add\n      dup1\n      0x40\n      mstore\n      pop\n      dup2\n      add\n      swap1\n      tag_35\n      swap2\n      swap1\n      tag_36\n      jump\t// in\n    tag_35:\n        /* \"contracts/TestUSDTf.sol\":995:1046  uint256 dexBalance = token.balanceOf(address(this)) */\n      swap1\n      pop\n        /* \"contracts/TestUSDTf.sol\":1078:1079  0 */\n      0x00\n        /* \"contracts/TestUSDTf.sol\":1064:1075  amountTobuy */\n      dup3\n        /* \"contracts/TestUSDTf.sol\":1064:1079  amountTobuy > 0 */\n      gt\n        /* \"contracts/TestUSDTf.sol\":1056:1111  require(amountTobuy > 0, \"You need to send some ether\") */\n      tag_37\n      jumpi\n      mload(0x40)\n      0x08c379a000000000000000000000000000000000000000000000000000000000\n      dup2\n      mstore\n      0x04\n      add\n      tag_38\n      swap1\n      tag_39\n      jump\t// in\n    tag_38:\n      mload(0x40)\n      dup1\n      swap2\n      sub\n      swap1\n      revert\n    tag_37:\n        /* \"contracts/TestUSDTf.sol\":1144:1154  dexBalance */\n      dup1\n        /* \"contracts/TestUSDTf.sol\":1129:1140  amountTobuy */\n      dup3\n        /* \"contracts/TestUSDTf.sol\":1129:1154  amountTobuy <= dexBalance */\n      gt\n      iszero\n        /* \"contracts/TestUSDTf.sol\":1121:1191  require(amountTobuy <= dexBalance, \"Not enough tokens in the reserve\") */\n      tag_40\n      jumpi\n      mload(0x40)\n      0x08c379a000000000000000000000000000000000000000000000000000000000\n      dup2\n      mstore\n      0x04\n      add\n      tag_41\n      swap1\n      tag_42\n      jump\t// in\n    tag_41:\n      mload(0x40)\n      dup1\n      swap2\n      sub\n      swap1\n      revert\n    tag_40:\n        /* \"contracts/TestUSDTf.sol\":1201:1206  token */\n      0x00\n      dup1\n      sload\n      swap1\n      0x0100\n      exp\n      swap1\n      div\n      0xffffffffffffffffffffffffffffffffffffffff\n      and\n        /* \"contracts/TestUSDTf.sol\":1201:1215  token.transfer */\n      0xffffffffffffffffffffffffffffffffffffffff\n      and\n      0xa9059cbb\n        /* \"contracts/TestUSDTf.sol\":1216:1226  msg.sender */\n      caller\n        /* \"contracts/TestUSDTf.sol\":1228:1239  amountTobuy */\n      dup5\n        /* \"contracts/TestUSDTf.sol\":1201:1240  token.transfer(msg.sender, amountTobuy) */\n      mload(0x40)\n      dup4\n      0xffffffff\n      and\n      0xe0\n      shl\n      dup2\n      mstore\n      0x04\n      add\n      tag_43\n      swap3\n      swap2\n      swap1\n      tag_44\n      jump\t// in\n    tag_43:\n      0x20\n      mload(0x40)\n      dup1\n      dup4\n      sub\n      dup2\n      0x00\n      dup8\n      dup1\n      extcodesize\n      iszero\n      dup1\n      iszero\n      tag_45\n      jumpi\n      0x00\n      dup1\n      revert\n    tag_45:\n      pop\n      gas\n      call\n      iszero\n      dup1\n      iszero\n      tag_47\n      jumpi\n      returndatasize\n      0x00\n      dup1\n      returndatacopy\n      revert(0x00, returndatasize)\n    tag_47:\n      pop\n      pop\n      pop\n      pop\n      mload(0x40)\n      returndatasize\n      not(0x1f)\n      0x1f\n      dup3\n      add\n      and\n      dup3\n      add\n      dup1\n      0x40\n      mstore\n      pop\n      dup2\n      add\n      swap1\n      tag_48\n      swap2\n      swap1\n      tag_49\n      jump\t// in\n    tag_48:\n      pop\n        /* \"contracts/TestUSDTf.sol\":1255:1274  Bought(amountTobuy) */\n      0x4e08ba899977cf7d4c2964bce71c6b9a7ef76ee5166a4c1249a1e08016e33ef1\n        /* \"contracts/TestUSDTf.sol\":1262:1273  amountTobuy */\n      dup3\n        /* \"contracts/TestUSDTf.sol\":1255:1274  Bought(amountTobuy) */\n      mload(0x40)\n      tag_50\n      swap2\n      swap1\n      tag_18\n      jump\t// in\n    tag_50:\n      mload(0x40)\n      dup1\n      swap2\n      sub\n      swap1\n      log1\n        /* \"contracts/TestUSDTf.sol\":914:1281  function buy() payable public {... */\n      pop\n      pop\n      jump\t// out\n        /* \"contracts/TestUSDTf.sol\":1411:1800  function sell(uint256 amount) public {... */\n    tag_13:\n        /* \"contracts/TestUSDTf.sol\":1475:1476  0 */\n      0x00\n        /* \"contracts/TestUSDTf.sol\":1466:1472  amount */\n      dup2\n        /* \"contracts/TestUSDTf.sol\":1466:1476  amount > 0 */\n      gt\n        /* \"contracts/TestUSDTf.sol\":1458:1518  require(amount > 0, \"You need to sell at least some tokens\") */\n      tag_52\n      jumpi\n      mload(0x40)\n      0x08c379a000000000000000000000000000000000000000000000000000000000\n      dup2\n      mstore\n      0x04\n      add\n      tag_53\n      swap1\n      tag_54\n      jump\t// in\n    tag_53:\n      mload(0x40)\n      dup1\n      swap2\n      sub\n      swap1\n      revert\n    tag_52:\n        /* \"contracts/TestUSDTf.sol\":1528:1545  uint256 allowance */\n      0x00\n        /* \"contracts/TestUSDTf.sol\":1548:1553  token */\n      dup1\n      0x00\n      swap1\n      sload\n      swap1\n      0x0100\n      exp\n      swap1\n      div\n      0xffffffffffffffffffffffffffffffffffffffff\n      and\n        /* \"contracts/TestUSDTf.sol\":1548:1563  token.allowance */\n      0xffffffffffffffffffffffffffffffffffffffff\n      and\n      0xdd62ed3e\n        /* \"contracts/TestUSDTf.sol\":1564:1574  msg.sender */\n      caller\n        /* \"contracts/TestUSDTf.sol\":1584:1588  this */\n      address\n        /* \"contracts/TestUSDTf.sol\":1548:1590  token.allowance(msg.sender, address(this)) */\n      mload(0x40)\n      dup4\n      0xffffffff\n      and\n      0xe0\n      shl\n      dup2\n      mstore\n      0x04\n      add\n      tag_55\n      swap3\n      swap2\n      swap1\n      tag_56\n      jump\t// in\n    tag_55:\n      0x20\n      mload(0x40)\n      dup1\n      dup4\n      sub\n      dup2\n      dup7\n      dup1\n      extcodesize\n      iszero\n      dup1\n      iszero\n      tag_57\n      jumpi\n      0x00\n      dup1\n      revert\n    tag_57:\n      pop\n      gas\n      staticcall\n      iszero\n      dup1\n      iszero\n      tag_59\n      jumpi\n      returndatasize\n      0x00\n      dup1\n      returndatacopy\n      revert(0x00, returndatasize)\n    tag_59:\n      pop\n      pop\n      pop\n      pop\n      mload(0x40)\n      returndatasize\n      not(0x1f)\n      0x1f\n      dup3\n      add\n      and\n      dup3\n      add\n      dup1\n      0x40\n      mstore\n      pop\n      dup2\n      add\n      swap1\n      tag_60\n      swap2\n      swap1\n      tag_36\n      jump\t// in\n    tag_60:\n        /* \"contracts/TestUSDTf.sol\":1528:1590  uint256 allowance = token.allowance(msg.sender, address(this)) */\n      swap1\n      pop\n        /* \"contracts/TestUSDTf.sol\":1621:1627  amount */\n      dup2\n        /* \"contracts/TestUSDTf.sol\":1608:1617  allowance */\n      dup2\n        /* \"contracts/TestUSDTf.sol\":1608:1627  allowance >= amount */\n      lt\n      iszero\n        /* \"contracts/TestUSDTf.sol\":1600:1657  require(allowance >= amount, \"Check the token allowance\") */\n      tag_61\n      jumpi\n      mload(0x40)\n      0x08c379a000000000000000000000000000000000000000000000000000000000\n      dup2\n      mstore\n      0x04\n      add\n      tag_62\n      swap1\n      tag_63\n      jump\t// in\n    tag_62:\n      mload(0x40)\n      dup1\n      swap2\n      sub\n      swap1\n      revert\n    tag_61:\n        /* \"contracts/TestUSDTf.sol\":1667:1672  token */\n      0x00\n      dup1\n      sload\n      swap1\n      0x0100\n      exp\n      swap1\n      div\n      0xffffffffffffffffffffffffffffffffffffffff\n      and\n        /* \"contracts/TestUSDTf.sol\":1667:1685  token.transferFrom */\n      0xffffffffffffffffffffffffffffffffffffffff\n      and\n      0x23b872dd\n        /* \"contracts/TestUSDTf.sol\":1686:1696  msg.sender */\n      caller\n        /* \"contracts/TestUSDTf.sol\":1706:1710  this */\n      address\n        /* \"contracts/TestUSDTf.sol\":1713:1719  amount */\n      dup6\n        /* \"contracts/TestUSDTf.sol\":1667:1720  token.transferFrom(msg.sender, address(this), amount) */\n      mload(0x40)\n      dup5\n      0xffffffff\n      and\n      0xe0\n      shl\n      dup2\n      mstore\n      0x04\n      add\n      tag_64\n      swap4\n      swap3\n      swap2\n      swap1\n      tag_65\n      jump\t// in\n    tag_64:\n      0x20\n      mload(0x40)\n      dup1\n      dup4\n      sub\n      dup2\n      0x00\n      dup8\n      dup1\n      extcodesize\n      iszero\n      dup1\n      iszero\n      tag_66\n      jumpi\n      0x00\n      dup1\n      revert\n    tag_66:\n      pop\n      gas\n      call\n      iszero\n      dup1\n      iszero\n      tag_68\n      jumpi\n      returndatasize\n      0x00\n      dup1\n      returndatacopy\n      revert(0x00, returndatasize)\n    tag_68:\n      pop\n      pop\n      pop\n      pop\n      mload(0x40)\n      returndatasize\n      not(0x1f)\n      0x1f\n      dup3\n      add\n      and\n      dup3\n      add\n      dup1\n      0x40\n      mstore\n      pop\n      dup2\n      add\n      swap1\n      tag_69\n      swap2\n      swap1\n      tag_49\n      jump\t// in\n    tag_69:\n      pop\n        /* \"contracts/TestUSDTf.sol\":1738:1748  msg.sender */\n      caller\n        /* \"contracts/TestUSDTf.sol\":1730:1758  payable(msg.sender).transfer */\n      0xffffffffffffffffffffffffffffffffffffffff\n      and\n        /* \"contracts/TestUSDTf.sol\":1730:1766  payable(msg.sender).transfer(amount) */\n      0x08fc\n        /* \"contracts/TestUSDTf.sol\":1759:1765  amount */\n      dup4\n        /* \"contracts/TestUSDTf.sol\":1730:1766  payable(msg.sender).transfer(amount) */\n      swap1\n      dup2\n      iszero\n      mul\n      swap1\n      mload(0x40)\n      0x00\n      mload(0x40)\n      dup1\n      dup4\n      sub\n      dup2\n      dup6\n      dup9\n      dup9\n      call\n      swap4\n      pop\n      pop\n      pop\n      pop\n      iszero\n      dup1\n      iszero\n      tag_71\n      jumpi\n      returndatasize\n      0x00\n      dup1\n      returndatacopy\n      revert(0x00, returndatasize)\n    tag_71:\n      pop\n        /* \"contracts/TestUSDTf.sol\":1781:1793  Sold(amount) */\n      0x92f64ca637d023f354075a4be751b169c1a8a9ccb6d33cdd0cb3520543995727\n        /* \"contracts/TestUSDTf.sol\":1786:1792  amount */\n      dup3\n        /* \"contracts/TestUSDTf.sol\":1781:1793  Sold(amount) */\n      mload(0x40)\n      tag_72\n      swap2\n      swap1\n      tag_18\n      jump\t// in\n    tag_72:\n      mload(0x40)\n      dup1\n      swap2\n      sub\n      swap1\n      log1\n        /* \"contracts/TestUSDTf.sol\":1411:1800  function sell(uint256 amount) public {... */\n      pop\n      pop\n      jump\t// out\n        /* \"contracts/TestUSDTf.sol\":1283:1405  function checkAllowWance() public view returns (uint256) { ... */\n    tag_16:\n        /* \"contracts/TestUSDTf.sol\":1331:1338  uint256 */\n      0x00\n        /* \"contracts/TestUSDTf.sol\":1358:1363  token */\n      dup1\n      0x00\n      swap1\n      sload\n      swap1\n      0x0100\n      exp\n      swap1\n      div\n      0xffffffffffffffffffffffffffffffffffffffff\n      and\n        /* \"contracts/TestUSDTf.sol\":1358:1373  token.allowance */\n      0xffffffffffffffffffffffffffffffffffffffff\n      and\n      0xdd62ed3e\n        /* \"contracts/TestUSDTf.sol\":1374:1384  msg.sender */\n      caller\n        /* \"contracts/TestUSDTf.sol\":1394:1398  this */\n      address\n        /* \"contracts/TestUSDTf.sol\":1358:1400  token.allowance(msg.sender, address(this)) */\n      mload(0x40)\n      dup4\n      0xffffffff\n      and\n      0xe0\n      shl\n      dup2\n      mstore\n      0x04\n      add\n      tag_74\n      swap3\n      swap2\n      swap1\n      tag_56\n      jump\t// in\n    tag_74:\n      0x20\n      mload(0x40)\n      dup1\n      dup4\n      sub\n      dup2\n      dup7\n      dup1\n      extcodesize\n      iszero\n      dup1\n      iszero\n      tag_75\n      jumpi\n      0x00\n      dup1\n      revert\n    tag_75:\n      pop\n      gas\n      staticcall\n      iszero\n      dup1\n      iszero\n      tag_77\n      jumpi\n      returndatasize\n      0x00\n      dup1\n      returndatacopy\n      revert(0x00, returndatasize)\n    tag_77:\n      pop\n      pop\n      pop\n      pop\n      mload(0x40)\n      returndatasize\n      not(0x1f)\n      0x1f\n      dup3\n      add\n      and\n      dup3\n      add\n      dup1\n      0x40\n      mstore\n      pop\n      dup2\n      add\n      swap1\n      tag_78\n      swap2\n      swap1\n      tag_36\n      jump\t// in\n    tag_78:\n        /* \"contracts/TestUSDTf.sol\":1351:1400  return token.allowance(msg.sender, address(this)) */\n      swap1\n      pop\n        /* \"contracts/TestUSDTf.sol\":1283:1405  function checkAllowWance() public view returns (uint256) { ... */\n      swap1\n      jump\t// out\n        /* \"contracts/TestUSDTf.sol\":1803:1855  function allowWancetoSC(address to) public { ... */\n    tag_23:\n      pop\n      jump\t// out\n        /* \"contracts/TestUSDTf.sol\":784:803  IERC20 public token */\n    tag_26:\n      0x00\n      dup1\n      sload\n      swap1\n      0x0100\n      exp\n      swap1\n      div\n      0xffffffffffffffffffffffffffffffffffffffff\n      and\n      dup2\n      jump\t// out\n        /* \"#utility.yul\":7:146   */\n    tag_81:\n      0x00\n        /* \"#utility.yul\":91:97   */\n      dup2\n        /* \"#utility.yul\":78:98   */\n      calldataload\n        /* \"#utility.yul\":69:98   */\n      swap1\n      pop\n        /* \"#utility.yul\":107:140   */\n      tag_83\n        /* \"#utility.yul\":134:139   */\n      dup2\n        /* \"#utility.yul\":107:140   */\n      tag_84\n      jump\t// in\n    tag_83:\n        /* \"#utility.yul\":59:146   */\n      swap3\n      swap2\n      pop\n      pop\n      jump\t// out\n        /* \"#utility.yul\":152:289   */\n    tag_85:\n      0x00\n        /* \"#utility.yul\":237:243   */\n      dup2\n        /* \"#utility.yul\":231:244   */\n      mload\n        /* \"#utility.yul\":222:244   */\n      swap1\n      pop\n        /* \"#utility.yul\":253:283   */\n      tag_87\n        /* \"#utility.yul\":277:282   */\n      dup2\n        /* \"#utility.yul\":253:283   */\n      tag_88\n      jump\t// in\n    tag_87:\n        /* \"#utility.yul\":212:289   */\n      swap3\n      swap2\n      pop\n      pop\n      jump\t// out\n        /* \"#utility.yul\":295:434   */\n    tag_89:\n      0x00\n        /* \"#utility.yul\":379:385   */\n      dup2\n        /* \"#utility.yul\":366:386   */\n      calldataload\n        /* \"#utility.yul\":357:386   */\n      swap1\n      pop\n        /* \"#utility.yul\":395:428   */\n      tag_91\n        /* \"#utility.yul\":422:427   */\n      dup2\n        /* \"#utility.yul\":395:428   */\n      tag_92\n      jump\t// in\n    tag_91:\n        /* \"#utility.yul\":347:434   */\n      swap3\n      swap2\n      pop\n      pop\n      jump\t// out\n        /* \"#utility.yul\":440:583   */\n    tag_93:\n      0x00\n        /* \"#utility.yul\":528:534   */\n      dup2\n        /* \"#utility.yul\":522:535   */\n      mload\n        /* \"#utility.yul\":513:535   */\n      swap1\n      pop\n        /* \"#utility.yul\":544:577   */\n      tag_95\n        /* \"#utility.yul\":571:576   */\n      dup2\n        /* \"#utility.yul\":544:577   */\n      tag_92\n      jump\t// in\n    tag_95:\n        /* \"#utility.yul\":503:583   */\n      swap3\n      swap2\n      pop\n      pop\n      jump\t// out\n        /* \"#utility.yul\":589:851   */\n    tag_22:\n      0x00\n        /* \"#utility.yul\":697:699   */\n      0x20\n        /* \"#utility.yul\":685:694   */\n      dup3\n        /* \"#utility.yul\":676:683   */\n      dup5\n        /* \"#utility.yul\":672:695   */\n      sub\n        /* \"#utility.yul\":668:700   */\n      slt\n        /* \"#utility.yul\":665:667   */\n      iszero\n      tag_97\n      jumpi\n        /* \"#utility.yul\":713:714   */\n      0x00\n        /* \"#utility.yul\":710:711   */\n      dup1\n        /* \"#utility.yul\":703:715   */\n      revert\n        /* \"#utility.yul\":665:667   */\n    tag_97:\n        /* \"#utility.yul\":756:757   */\n      0x00\n        /* \"#utility.yul\":781:834   */\n      tag_98\n        /* \"#utility.yul\":826:833   */\n      dup5\n        /* \"#utility.yul\":817:823   */\n      dup3\n        /* \"#utility.yul\":806:815   */\n      dup6\n        /* \"#utility.yul\":802:824   */\n      add\n        /* \"#utility.yul\":781:834   */\n      tag_81\n      jump\t// in\n    tag_98:\n        /* \"#utility.yul\":771:834   */\n      swap2\n      pop\n        /* \"#utility.yul\":727:844   */\n      pop\n        /* \"#utility.yul\":655:851   */\n      swap3\n      swap2\n      pop\n      pop\n      jump\t// out\n        /* \"#utility.yul\":857:1135   */\n    tag_49:\n      0x00\n        /* \"#utility.yul\":973:975   */\n      0x20\n        /* \"#utility.yul\":961:970   */\n      dup3\n        /* \"#utility.yul\":952:959   */\n      dup5\n        /* \"#utility.yul\":948:971   */\n      sub\n        /* \"#utility.yul\":944:976   */\n      slt\n        /* \"#utility.yul\":941:943   */\n      iszero\n      tag_100\n      jumpi\n        /* \"#utility.yul\":989:990   */\n      0x00\n        /* \"#utility.yul\":986:987   */\n      dup1\n        /* \"#utility.yul\":979:991   */\n      revert\n        /* \"#utility.yul\":941:943   */\n    tag_100:\n        /* \"#utility.yul\":1032:1033   */\n      0x00\n        /* \"#utility.yul\":1057:1118   */\n      tag_101\n        /* \"#utility.yul\":1110:1117   */\n      dup5\n        /* \"#utility.yul\":1101:1107   */\n      dup3\n        /* \"#utility.yul\":1090:1099   */\n      dup6\n        /* \"#utility.yul\":1086:1108   */\n      add\n        /* \"#utility.yul\":1057:1118   */\n      tag_85\n      jump\t// in\n    tag_101:\n        /* \"#utility.yul\":1047:1118   */\n      swap2\n      pop\n        /* \"#utility.yul\":1003:1128   */\n      pop\n        /* \"#utility.yul\":931:1135   */\n      swap3\n      swap2\n      pop\n      pop\n      jump\t// out\n        /* \"#utility.yul\":1141:1403   */\n    tag_12:\n      0x00\n        /* \"#utility.yul\":1249:1251   */\n      0x20\n        /* \"#utility.yul\":1237:1246   */\n      dup3\n        /* \"#utility.yul\":1228:1235   */\n      dup5\n        /* \"#utility.yul\":1224:1247   */\n      sub\n        /* \"#utility.yul\":1220:1252   */\n      slt\n        /* \"#utility.yul\":1217:1219   */\n      iszero\n      tag_103\n      jumpi\n        /* \"#utility.yul\":1265:1266   */\n      0x00\n        /* \"#utility.yul\":1262:1263   */\n      dup1\n        /* \"#utility.yul\":1255:1267   */\n      revert\n        /* \"#utility.yul\":1217:1219   */\n    tag_103:\n        /* \"#utility.yul\":1308:1309   */\n      0x00\n        /* \"#utility.yul\":1333:1386   */\n      tag_104\n        /* \"#utility.yul\":1378:1385   */\n      dup5\n        /* \"#utility.yul\":1369:1375   */\n      dup3\n        /* \"#utility.yul\":1358:1367   */\n      dup6\n        /* \"#utility.yul\":1354:1376   */\n      add\n        /* \"#utility.yul\":1333:1386   */\n      tag_89\n      jump\t// in\n    tag_104:\n        /* \"#utility.yul\":1323:1386   */\n      swap2\n      pop\n        /* \"#utility.yul\":1279:1396   */\n      pop\n        /* \"#utility.yul\":1207:1403   */\n      swap3\n      swap2\n      pop\n      pop\n      jump\t// out\n        /* \"#utility.yul\":1409:1693   */\n    tag_36:\n      0x00\n        /* \"#utility.yul\":1528:1530   */\n      0x20\n        /* \"#utility.yul\":1516:1525   */\n      dup3\n        /* \"#utility.yul\":1507:1514   */\n      dup5\n        /* \"#utility.yul\":1503:1526   */\n      sub\n        /* \"#utility.yul\":1499:1531   */\n      slt\n        /* \"#utility.yul\":1496:1498   */\n      iszero\n      tag_106\n      jumpi\n        /* \"#utility.yul\":1544:1545   */\n      0x00\n        /* \"#utility.yul\":1541:1542   */\n      dup1\n        /* \"#utility.yul\":1534:1546   */\n      revert\n        /* \"#utility.yul\":1496:1498   */\n    tag_106:\n        /* \"#utility.yul\":1587:1588   */\n      0x00\n        /* \"#utility.yul\":1612:1676   */\n      tag_107\n        /* \"#utility.yul\":1668:1675   */\n      dup5\n        /* \"#utility.yul\":1659:1665   */\n      dup3\n        /* \"#utility.yul\":1648:1657   */\n      dup6\n        /* \"#utility.yul\":1644:1666   */\n      add\n        /* \"#utility.yul\":1612:1676   */\n      tag_93\n      jump\t// in\n    tag_107:\n        /* \"#utility.yul\":1602:1676   */\n      swap2\n      pop\n        /* \"#utility.yul\":1558:1686   */\n      pop\n        /* \"#utility.yul\":1486:1693   */\n      swap3\n      swap2\n      pop\n      pop\n      jump\t// out\n        /* \"#utility.yul\":1699:1817   */\n    tag_108:\n        /* \"#utility.yul\":1786:1810   */\n      tag_110\n        /* \"#utility.yul\":1804:1809   */\n      dup2\n        /* \"#utility.yul\":1786:1810   */\n      tag_111\n      jump\t// in\n    tag_110:\n        /* \"#utility.yul\":1781:1784   */\n      dup3\n        /* \"#utility.yul\":1774:1811   */\n      mstore\n        /* \"#utility.yul\":1764:1817   */\n      pop\n      pop\n      jump\t// out\n        /* \"#utility.yul\":1823:1980   */\n    tag_112:\n        /* \"#utility.yul\":1923:1973   */\n      tag_114\n        /* \"#utility.yul\":1967:1972   */\n      dup2\n        /* \"#utility.yul\":1923:1973   */\n      tag_115\n      jump\t// in\n    tag_114:\n        /* \"#utility.yul\":1918:1921   */\n      dup3\n        /* \"#utility.yul\":1911:1974   */\n      mstore\n        /* \"#utility.yul\":1901:1980   */\n      pop\n      pop\n      jump\t// out\n        /* \"#utility.yul\":1986:2355   */\n    tag_116:\n      0x00\n        /* \"#utility.yul\":2149:2216   */\n      tag_118\n        /* \"#utility.yul\":2213:2215   */\n      0x25\n        /* \"#utility.yul\":2208:2211   */\n      dup4\n        /* \"#utility.yul\":2149:2216   */\n      tag_119\n      jump\t// in\n    tag_118:\n        /* \"#utility.yul\":2142:2216   */\n      swap2\n      pop\n        /* \"#utility.yul\":2246:2280   */\n      0x596f75206e65656420746f2073656c6c206174206c6561737420736f6d652074\n        /* \"#utility.yul\":2242:2243   */\n      0x00\n        /* \"#utility.yul\":2237:2240   */\n      dup4\n        /* \"#utility.yul\":2233:2244   */\n      add\n        /* \"#utility.yul\":2226:2281   */\n      mstore\n        /* \"#utility.yul\":2312:2319   */\n      0x6f6b656e73000000000000000000000000000000000000000000000000000000\n        /* \"#utility.yul\":2307:2309   */\n      0x20\n        /* \"#utility.yul\":2302:2305   */\n      dup4\n        /* \"#utility.yul\":2298:2310   */\n      add\n        /* \"#utility.yul\":2291:2320   */\n      mstore\n        /* \"#utility.yul\":2346:2348   */\n      0x40\n        /* \"#utility.yul\":2341:2344   */\n      dup3\n        /* \"#utility.yul\":2337:2349   */\n      add\n        /* \"#utility.yul\":2330:2349   */\n      swap1\n      pop\n        /* \"#utility.yul\":2132:2355   */\n      swap2\n      swap1\n      pop\n      jump\t// out\n        /* \"#utility.yul\":2361:2684   */\n    tag_120:\n      0x00\n        /* \"#utility.yul\":2524:2591   */\n      tag_122\n        /* \"#utility.yul\":2588:2590   */\n      0x19\n        /* \"#utility.yul\":2583:2586   */\n      dup4\n        /* \"#utility.yul\":2524:2591   */\n      tag_119\n      jump\t// in\n    tag_122:\n        /* \"#utility.yul\":2517:2591   */\n      swap2\n      pop\n        /* \"#utility.yul\":2621:2648   */\n      0x436865636b2074686520746f6b656e20616c6c6f77616e636500000000000000\n        /* \"#utility.yul\":2617:2618   */\n      0x00\n        /* \"#utility.yul\":2612:2615   */\n      dup4\n        /* \"#utility.yul\":2608:2619   */\n      add\n        /* \"#utility.yul\":2601:2649   */\n      mstore\n        /* \"#utility.yul\":2675:2677   */\n      0x20\n        /* \"#utility.yul\":2670:2673   */\n      dup3\n        /* \"#utility.yul\":2666:2678   */\n      add\n        /* \"#utility.yul\":2659:2678   */\n      swap1\n      pop\n        /* \"#utility.yul\":2507:2684   */\n      swap2\n      swap1\n      pop\n      jump\t// out\n        /* \"#utility.yul\":2690:3020   */\n    tag_123:\n      0x00\n        /* \"#utility.yul\":2853:2920   */\n      tag_125\n        /* \"#utility.yul\":2917:2919   */\n      0x20\n        /* \"#utility.yul\":2912:2915   */\n      dup4\n        /* \"#utility.yul\":2853:2920   */\n      tag_119\n      jump\t// in\n    tag_125:\n        /* \"#utility.yul\":2846:2920   */\n      swap2\n      pop\n        /* \"#utility.yul\":2950:2984   */\n      0x4e6f7420656e6f75676820746f6b656e7320696e207468652072657365727665\n        /* \"#utility.yul\":2946:2947   */\n      0x00\n        /* \"#utility.yul\":2941:2944   */\n      dup4\n        /* \"#utility.yul\":2937:2948   */\n      add\n        /* \"#utility.yul\":2930:2985   */\n      mstore\n        /* \"#utility.yul\":3011:3013   */\n      0x20\n        /* \"#utility.yul\":3006:3009   */\n      dup3\n        /* \"#utility.yul\":3002:3014   */\n      add\n        /* \"#utility.yul\":2995:3014   */\n      swap1\n      pop\n        /* \"#utility.yul\":2836:3020   */\n      swap2\n      swap1\n      pop\n      jump\t// out\n        /* \"#utility.yul\":3026:3351   */\n    tag_126:\n      0x00\n        /* \"#utility.yul\":3189:3256   */\n      tag_128\n        /* \"#utility.yul\":3253:3255   */\n      0x1b\n        /* \"#utility.yul\":3248:3251   */\n      dup4\n        /* \"#utility.yul\":3189:3256   */\n      tag_119\n      jump\t// in\n    tag_128:\n        /* \"#utility.yul\":3182:3256   */\n      swap2\n      pop\n        /* \"#utility.yul\":3286:3315   */\n      0x596f75206e65656420746f2073656e6420736f6d652065746865720000000000\n        /* \"#utility.yul\":3282:3283   */\n      0x00\n        /* \"#utility.yul\":3277:3280   */\n      dup4\n        /* \"#utility.yul\":3273:3284   */\n      add\n        /* \"#utility.yul\":3266:3316   */\n      mstore\n        /* \"#utility.yul\":3342:3344   */\n      0x20\n        /* \"#utility.yul\":3337:3340   */\n      dup3\n        /* \"#utility.yul\":3333:3345   */\n      add\n        /* \"#utility.yul\":3326:3345   */\n      swap1\n      pop\n        /* \"#utility.yul\":3172:3351   */\n      swap2\n      swap1\n      pop\n      jump\t// out\n        /* \"#utility.yul\":3357:3475   */\n    tag_129:\n        /* \"#utility.yul\":3444:3468   */\n      tag_131\n        /* \"#utility.yul\":3462:3467   */\n      dup2\n        /* \"#utility.yul\":3444:3468   */\n      tag_132\n      jump\t// in\n    tag_131:\n        /* \"#utility.yul\":3439:3442   */\n      dup3\n        /* \"#utility.yul\":3432:3469   */\n      mstore\n        /* \"#utility.yul\":3422:3475   */\n      pop\n      pop\n      jump\t// out\n        /* \"#utility.yul\":3481:3703   */\n    tag_31:\n      0x00\n        /* \"#utility.yul\":3612:3614   */\n      0x20\n        /* \"#utility.yul\":3601:3610   */\n      dup3\n        /* \"#utility.yul\":3597:3615   */\n      add\n        /* \"#utility.yul\":3589:3615   */\n      swap1\n      pop\n        /* \"#utility.yul\":3625:3696   */\n      tag_134\n        /* \"#utility.yul\":3693:3694   */\n      0x00\n        /* \"#utility.yul\":3682:3691   */\n      dup4\n        /* \"#utility.yul\":3678:3695   */\n      add\n        /* \"#utility.yul\":3669:3675   */\n      dup5\n        /* \"#utility.yul\":3625:3696   */\n      tag_108\n      jump\t// in\n    tag_134:\n        /* \"#utility.yul\":3579:3703   */\n      swap3\n      swap2\n      pop\n      pop\n      jump\t// out\n        /* \"#utility.yul\":3709:4041   */\n    tag_56:\n      0x00\n        /* \"#utility.yul\":3868:3870   */\n      0x40\n        /* \"#utility.yul\":3857:3866   */\n      dup3\n        /* \"#utility.yul\":3853:3871   */\n      add\n        /* \"#utility.yul\":3845:3871   */\n      swap1\n      pop\n        /* \"#utility.yul\":3881:3952   */\n      tag_136\n        /* \"#utility.yul\":3949:3950   */\n      0x00\n        /* \"#utility.yul\":3938:3947   */\n      dup4\n        /* \"#utility.yul\":3934:3951   */\n      add\n        /* \"#utility.yul\":3925:3931   */\n      dup6\n        /* \"#utility.yul\":3881:3952   */\n      tag_108\n      jump\t// in\n    tag_136:\n        /* \"#utility.yul\":3962:4034   */\n      tag_137\n        /* \"#utility.yul\":4030:4032   */\n      0x20\n        /* \"#utility.yul\":4019:4028   */\n      dup4\n        /* \"#utility.yul\":4015:4033   */\n      add\n        /* \"#utility.yul\":4006:4012   */\n      dup5\n        /* \"#utility.yul\":3962:4034   */\n      tag_108\n      jump\t// in\n    tag_137:\n        /* \"#utility.yul\":3835:4041   */\n      swap4\n      swap3\n      pop\n      pop\n      pop\n      jump\t// out\n        /* \"#utility.yul\":4047:4489   */\n    tag_65:\n      0x00\n        /* \"#utility.yul\":4234:4236   */\n      0x60\n        /* \"#utility.yul\":4223:4232   */\n      dup3\n        /* \"#utility.yul\":4219:4237   */\n      add\n        /* \"#utility.yul\":4211:4237   */\n      swap1\n      pop\n        /* \"#utility.yul\":4247:4318   */\n      tag_139\n        /* \"#utility.yul\":4315:4316   */\n      0x00\n        /* \"#utility.yul\":4304:4313   */\n      dup4\n        /* \"#utility.yul\":4300:4317   */\n      add\n        /* \"#utility.yul\":4291:4297   */\n      dup7\n        /* \"#utility.yul\":4247:4318   */\n      tag_108\n      jump\t// in\n    tag_139:\n        /* \"#utility.yul\":4328:4400   */\n      tag_140\n        /* \"#utility.yul\":4396:4398   */\n      0x20\n        /* \"#utility.yul\":4385:4394   */\n      dup4\n        /* \"#utility.yul\":4381:4399   */\n      add\n        /* \"#utility.yul\":4372:4378   */\n      dup6\n        /* \"#utility.yul\":4328:4400   */\n      tag_108\n      jump\t// in\n    tag_140:\n        /* \"#utility.yul\":4410:4482   */\n      tag_141\n        /* \"#utility.yul\":4478:4480   */\n      0x40\n        /* \"#utility.yul\":4467:4476   */\n      dup4\n        /* \"#utility.yul\":4463:4481   */\n      add\n        /* \"#utility.yul\":4454:4460   */\n      dup5\n        /* \"#utility.yul\":4410:4482   */\n      tag_129\n      jump\t// in\n    tag_141:\n        /* \"#utility.yul\":4201:4489   */\n      swap5\n      swap4\n      pop\n      pop\n      pop\n      pop\n      jump\t// out\n        /* \"#utility.yul\":4495:4827   */\n    tag_44:\n      0x00\n        /* \"#utility.yul\":4654:4656   */\n      0x40\n        /* \"#utility.yul\":4643:4652   */\n      dup3\n        /* \"#utility.yul\":4639:4657   */\n      add\n        /* \"#utility.yul\":4631:4657   */\n      swap1\n      pop\n        /* \"#utility.yul\":4667:4738   */\n      tag_143\n        /* \"#utility.yul\":4735:4736   */\n      0x00\n        /* \"#utility.yul\":4724:4733   */\n      dup4\n        /* \"#utility.yul\":4720:4737   */\n      add\n        /* \"#utility.yul\":4711:4717   */\n      dup6\n        /* \"#utility.yul\":4667:4738   */\n      tag_108\n      jump\t// in\n    tag_143:\n        /* \"#utility.yul\":4748:4820   */\n      tag_144\n        /* \"#utility.yul\":4816:4818   */\n      0x20\n        /* \"#utility.yul\":4805:4814   */\n      dup4\n        /* \"#utility.yul\":4801:4819   */\n      add\n        /* \"#utility.yul\":4792:4798   */\n      dup5\n        /* \"#utility.yul\":4748:4820   */\n      tag_129\n      jump\t// in\n    tag_144:\n        /* \"#utility.yul\":4621:4827   */\n      swap4\n      swap3\n      pop\n      pop\n      pop\n      jump\t// out\n        /* \"#utility.yul\":4833:5081   */\n    tag_28:\n      0x00\n        /* \"#utility.yul\":4977:4979   */\n      0x20\n        /* \"#utility.yul\":4966:4975   */\n      dup3\n        /* \"#utility.yul\":4962:4980   */\n      add\n        /* \"#utility.yul\":4954:4980   */\n      swap1\n      pop\n        /* \"#utility.yul\":4990:5074   */\n      tag_146\n        /* \"#utility.yul\":5071:5072   */\n      0x00\n        /* \"#utility.yul\":5060:5069   */\n      dup4\n        /* \"#utility.yul\":5056:5073   */\n      add\n        /* \"#utility.yul\":5047:5053   */\n      dup5\n        /* \"#utility.yul\":4990:5074   */\n      tag_112\n      jump\t// in\n    tag_146:\n        /* \"#utility.yul\":4944:5081   */\n      swap3\n      swap2\n      pop\n      pop\n      jump\t// out\n        /* \"#utility.yul\":5087:5506   */\n    tag_54:\n      0x00\n        /* \"#utility.yul\":5291:5293   */\n      0x20\n        /* \"#utility.yul\":5280:5289   */\n      dup3\n        /* \"#utility.yul\":5276:5294   */\n      add\n        /* \"#utility.yul\":5268:5294   */\n      swap1\n      pop\n        /* \"#utility.yul\":5340:5349   */\n      dup2\n        /* \"#utility.yul\":5334:5338   */\n      dup2\n        /* \"#utility.yul\":5330:5350   */\n      sub\n        /* \"#utility.yul\":5326:5327   */\n      0x00\n        /* \"#utility.yul\":5315:5324   */\n      dup4\n        /* \"#utility.yul\":5311:5328   */\n      add\n        /* \"#utility.yul\":5304:5351   */\n      mstore\n        /* \"#utility.yul\":5368:5499   */\n      tag_148\n        /* \"#utility.yul\":5494:5498   */\n      dup2\n        /* \"#utility.yul\":5368:5499   */\n      tag_116\n      jump\t// in\n    tag_148:\n        /* \"#utility.yul\":5360:5499   */\n      swap1\n      pop\n        /* \"#utility.yul\":5258:5506   */\n      swap2\n      swap1\n      pop\n      jump\t// out\n        /* \"#utility.yul\":5512:5931   */\n    tag_63:\n      0x00\n        /* \"#utility.yul\":5716:5718   */\n      0x20\n        /* \"#utility.yul\":5705:5714   */\n      dup3\n        /* \"#utility.yul\":5701:5719   */\n      add\n        /* \"#utility.yul\":5693:5719   */\n      swap1\n      pop\n        /* \"#utility.yul\":5765:5774   */\n      dup2\n        /* \"#utility.yul\":5759:5763   */\n      dup2\n        /* \"#utility.yul\":5755:5775   */\n      sub\n        /* \"#utility.yul\":5751:5752   */\n      0x00\n        /* \"#utility.yul\":5740:5749   */\n      dup4\n        /* \"#utility.yul\":5736:5753   */\n      add\n        /* \"#utility.yul\":5729:5776   */\n      mstore\n        /* \"#utility.yul\":5793:5924   */\n      tag_150\n        /* \"#utility.yul\":5919:5923   */\n      dup2\n        /* \"#utility.yul\":5793:5924   */\n      tag_120\n      jump\t// in\n    tag_150:\n        /* \"#utility.yul\":5785:5924   */\n      swap1\n      pop\n        /* \"#utility.yul\":5683:5931   */\n      swap2\n      swap1\n      pop\n      jump\t// out\n        /* \"#utility.yul\":5937:6356   */\n    tag_42:\n      0x00\n        /* \"#utility.yul\":6141:6143   */\n      0x20\n        /* \"#utility.yul\":6130:6139   */\n      dup3\n        /* \"#utility.yul\":6126:6144   */\n      add\n        /* \"#utility.yul\":6118:6144   */\n      swap1\n      pop\n        /* \"#utility.yul\":6190:6199   */\n      dup2\n        /* \"#utility.yul\":6184:6188   */\n      dup2\n        /* \"#utility.yul\":6180:6200   */\n      sub\n        /* \"#utility.yul\":6176:6177   */\n      0x00\n        /* \"#utility.yul\":6165:6174   */\n      dup4\n        /* \"#utility.yul\":6161:6178   */\n      add\n        /* \"#utility.yul\":6154:6201   */\n      mstore\n        /* \"#utility.yul\":6218:6349   */\n      tag_152\n        /* \"#utility.yul\":6344:6348   */\n      dup2\n        /* \"#utility.yul\":6218:6349   */\n      tag_123\n      jump\t// in\n    tag_152:\n        /* \"#utility.yul\":6210:6349   */\n      swap1\n      pop\n        /* \"#utility.yul\":6108:6356   */\n      swap2\n      swap1\n      pop\n      jump\t// out\n        /* \"#utility.yul\":6362:6781   */\n    tag_39:\n      0x00\n        /* \"#utility.yul\":6566:6568   */\n      0x20\n        /* \"#utility.yul\":6555:6564   */\n      dup3\n        /* \"#utility.yul\":6551:6569   */\n      add\n        /* \"#utility.yul\":6543:6569   */\n      swap1\n      pop\n        /* \"#utility.yul\":6615:6624   */\n      dup2\n        /* \"#utility.yul\":6609:6613   */\n      dup2\n        /* \"#utility.yul\":6605:6625   */\n      sub\n        /* \"#utility.yul\":6601:6602   */\n      0x00\n        /* \"#utility.yul\":6590:6599   */\n      dup4\n        /* \"#utility.yul\":6586:6603   */\n      add\n        /* \"#utility.yul\":6579:6626   */\n      mstore\n        /* \"#utility.yul\":6643:6774   */\n      tag_154\n        /* \"#utility.yul\":6769:6773   */\n      dup2\n        /* \"#utility.yul\":6643:6774   */\n      tag_126\n      jump\t// in\n    tag_154:\n        /* \"#utility.yul\":6635:6774   */\n      swap1\n      pop\n        /* \"#utility.yul\":6533:6781   */\n      swap2\n      swap1\n      pop\n      jump\t// out\n        /* \"#utility.yul\":6787:7009   */\n    tag_18:\n      0x00\n        /* \"#utility.yul\":6918:6920   */\n      0x20\n        /* \"#utility.yul\":6907:6916   */\n      dup3\n        /* \"#utility.yul\":6903:6921   */\n      add\n        /* \"#utility.yul\":6895:6921   */\n      swap1\n      pop\n        /* \"#utility.yul\":6931:7002   */\n      tag_156\n        /* \"#utility.yul\":6999:7000   */\n      0x00\n        /* \"#utility.yul\":6988:6997   */\n      dup4\n        /* \"#utility.yul\":6984:7001   */\n      add\n        /* \"#utility.yul\":6975:6981   */\n      dup5\n        /* \"#utility.yul\":6931:7002   */\n      tag_129\n      jump\t// in\n    tag_156:\n        /* \"#utility.yul\":6885:7009   */\n      swap3\n      swap2\n      pop\n      pop\n      jump\t// out\n        /* \"#utility.yul\":7015:7184   */\n    tag_119:\n      0x00\n        /* \"#utility.yul\":7133:7139   */\n      dup3\n        /* \"#utility.yul\":7128:7131   */\n      dup3\n        /* \"#utility.yul\":7121:7140   */\n      mstore\n        /* \"#utility.yul\":7173:7177   */\n      0x20\n        /* \"#utility.yul\":7168:7171   */\n      dup3\n        /* \"#utility.yul\":7164:7178   */\n      add\n        /* \"#utility.yul\":7149:7178   */\n      swap1\n      pop\n        /* \"#utility.yul\":7111:7184   */\n      swap3\n      swap2\n      pop\n      pop\n      jump\t// out\n        /* \"#utility.yul\":7190:7286   */\n    tag_111:\n      0x00\n        /* \"#utility.yul\":7256:7280   */\n      tag_159\n        /* \"#utility.yul\":7274:7279   */\n      dup3\n        /* \"#utility.yul\":7256:7280   */\n      tag_160\n      jump\t// in\n    tag_159:\n        /* \"#utility.yul\":7245:7280   */\n      swap1\n      pop\n        /* \"#utility.yul\":7235:7286   */\n      swap2\n      swap1\n      pop\n      jump\t// out\n        /* \"#utility.yul\":7292:7382   */\n    tag_161:\n      0x00\n        /* \"#utility.yul\":7369:7374   */\n      dup2\n        /* \"#utility.yul\":7362:7375   */\n      iszero\n        /* \"#utility.yul\":7355:7376   */\n      iszero\n        /* \"#utility.yul\":7344:7376   */\n      swap1\n      pop\n        /* \"#utility.yul\":7334:7382   */\n      swap2\n      swap1\n      pop\n      jump\t// out\n        /* \"#utility.yul\":7388:7514   */\n    tag_160:\n      0x00\n        /* \"#utility.yul\":7465:7507   */\n      0xffffffffffffffffffffffffffffffffffffffff\n        /* \"#utility.yul\":7458:7463   */\n      dup3\n        /* \"#utility.yul\":7454:7508   */\n      and\n        /* \"#utility.yul\":7443:7508   */\n      swap1\n      pop\n        /* \"#utility.yul\":7433:7514   */\n      swap2\n      swap1\n      pop\n      jump\t// out\n        /* \"#utility.yul\":7520:7597   */\n    tag_132:\n      0x00\n        /* \"#utility.yul\":7586:7591   */\n      dup2\n        /* \"#utility.yul\":7575:7591   */\n      swap1\n      pop\n        /* \"#utility.yul\":7565:7597   */\n      swap2\n      swap1\n      pop\n      jump\t// out\n        /* \"#utility.yul\":7603:7755   */\n    tag_115:\n      0x00\n        /* \"#utility.yul\":7699:7749   */\n      tag_166\n        /* \"#utility.yul\":7743:7748   */\n      dup3\n        /* \"#utility.yul\":7699:7749   */\n      tag_167\n      jump\t// in\n    tag_166:\n        /* \"#utility.yul\":7686:7749   */\n      swap1\n      pop\n        /* \"#utility.yul\":7676:7755   */\n      swap2\n      swap1\n      pop\n      jump\t// out\n        /* \"#utility.yul\":7761:7887   */\n    tag_167:\n      0x00\n        /* \"#utility.yul\":7857:7881   */\n      tag_169\n        /* \"#utility.yul\":7875:7880   */\n      dup3\n        /* \"#utility.yul\":7857:7881   */\n      tag_160\n      jump\t// in\n    tag_169:\n        /* \"#utility.yul\":7844:7881   */\n      swap1\n      pop\n        /* \"#utility.yul\":7834:7887   */\n      swap2\n      swap1\n      pop\n      jump\t// out\n        /* \"#utility.yul\":7893:8015   */\n    tag_84:\n        /* \"#utility.yul\":7966:7990   */\n      tag_171\n        /* \"#utility.yul\":7984:7989   */\n      dup2\n        /* \"#utility.yul\":7966:7990   */\n      tag_111\n      jump\t// in\n    tag_171:\n        /* \"#utility.yul\":7959:7964   */\n      dup2\n        /* \"#utility.yul\":7956:7991   */\n      eq\n        /* \"#utility.yul\":7946:7948   */\n      tag_172\n      jumpi\n        /* \"#utility.yul\":8005:8006   */\n      0x00\n        /* \"#utility.yul\":8002:8003   */\n      dup1\n        /* \"#utility.yul\":7995:8007   */\n      revert\n        /* \"#utility.yul\":7946:7948   */\n    tag_172:\n        /* \"#utility.yul\":7936:8015   */\n      pop\n      jump\t// out\n        /* \"#utility.yul\":8021:8137   */\n    tag_88:\n        /* \"#utility.yul\":8091:8112   */\n      tag_174\n        /* \"#utility.yul\":8106:8111   */\n      dup2\n        /* \"#utility.yul\":8091:8112   */\n      tag_161\n      jump\t// in\n    tag_174:\n        /* \"#utility.yul\":8084:8089   */\n      dup2\n        /* \"#utility.yul\":8081:8113   */\n      eq\n        /* \"#utility.yul\":8071:8073   */\n      tag_175\n      jumpi\n        /* \"#utility.yul\":8127:8128   */\n      0x00\n        /* \"#utility.yul\":8124:8125   */\n      dup1\n        /* \"#utility.yul\":8117:8129   */\n      revert\n        /* \"#utility.yul\":8071:8073   */\n    tag_175:\n        /* \"#utility.yul\":8061:8137   */\n      pop\n      jump\t// out\n        /* \"#utility.yul\":8143:8265   */\n    tag_92:\n        /* \"#utility.yul\":8216:8240   */\n      tag_177\n        /* \"#utility.yul\":8234:8239   */\n      dup2\n        /* \"#utility.yul\":8216:8240   */\n      tag_132\n      jump\t// in\n    tag_177:\n        /* \"#utility.yul\":8209:8214   */\n      dup2\n        /* \"#utility.yul\":8206:8241   */\n      eq\n        /* \"#utility.yul\":8196:8198   */\n      tag_178\n      jumpi\n        /* \"#utility.yul\":8255:8256   */\n      0x00\n        /* \"#utility.yul\":8252:8253   */\n      dup1\n        /* \"#utility.yul\":8245:8257   */\n      revert\n        /* \"#utility.yul\":8196:8198   */\n    tag_178:\n        /* \"#utility.yul\":8186:8265   */\n      pop\n      jump\t// out\n\n    auxdata: 0xa26469706673582212204ba05c2b6927a2bfc316ec78a34b01b35746feaebd93f271bfa16aad8686628964736f6c63430008000033\n}\n",
				"bytecode": {
					"linkReferences": {},
					"object": "608060405234801561001057600080fd5b5073ed24fc36d5ee211ea25a80239fb8c4cfd80f12ee6000806101000a81548173ffffffffffffffffffffffffffffffffffffffff021916908373ffffffffffffffffffffffffffffffffffffffff160217905550610b02806100746000396000f3fe60806040526004361061004a5760003560e01c8063a6f2ae3a1461004f578063e4849b3214610059578063e4beb3d614610082578063e9b103df146100ad578063fc0c546a146100d6575b600080fd5b610057610101565b005b34801561006557600080fd5b50610080600480360381019061007b919061070b565b610323565b005b34801561008e57600080fd5b5061009761058b565b6040516100a491906109ef565b60405180910390f35b3480156100b957600080fd5b506100d460048036038101906100cf91906106b9565b61063e565b005b3480156100e257600080fd5b506100eb610641565b6040516100f89190610954565b60405180910390f35b600034905060008060009054906101000a900473ffffffffffffffffffffffffffffffffffffffff1673ffffffffffffffffffffffffffffffffffffffff166370a08231306040518263ffffffff1660e01b815260040161016291906108b0565b60206040518083038186803b15801561017a57600080fd5b505afa15801561018e573d6000803e3d6000fd5b505050506040513d601f19601f820116820180604052508101906101b29190610734565b9050600082116101f7576040517f08c379a00000000000000000000000000000000000000000000000000000000081526004016101ee906109cf565b60405180910390fd5b8082111561023a576040517f08c379a0000000000000000000000000000000000000000000000000000000008152600401610231906109af565b60405180910390fd5b60008054906101000a900473ffffffffffffffffffffffffffffffffffffffff1673ffffffffffffffffffffffffffffffffffffffff1663a9059cbb33846040518363ffffffff1660e01b815260040161029592919061092b565b602060405180830381600087803b1580156102af57600080fd5b505af11580156102c3573d6000803e3d6000fd5b505050506040513d601f19601f820116820180604052508101906102e791906106e2565b507f4e08ba899977cf7d4c2964bce71c6b9a7ef76ee5166a4c1249a1e08016e33ef18260405161031791906109ef565b60405180910390a15050565b60008111610366576040517f08c379a000000000000000000000000000000000000000000000000000000000815260040161035d9061096f565b60405180910390fd5b60008060009054906101000a900473ffffffffffffffffffffffffffffffffffffffff1673ffffffffffffffffffffffffffffffffffffffff1663dd62ed3e33306040518363ffffffff1660e01b81526004016103c49291906108cb565b60206040518083038186803b1580156103dc57600080fd5b505afa1580156103f0573d6000803e3d6000fd5b505050506040513d601f19601f820116820180604052508101906104149190610734565b905081811015610459576040517f08c379a00000000000000000000000000000000000000000000000000000000081526004016104509061098f565b60405180910390fd5b60008054906101000a900473ffffffffffffffffffffffffffffffffffffffff1673ffffffffffffffffffffffffffffffffffffffff166323b872dd3330856040518463ffffffff1660e01b81526004016104b6939291906108f4565b602060405180830381600087803b1580156104d057600080fd5b505af11580156104e4573d6000803e3d6000fd5b505050506040513d601f19601f8201168201806040525081019061050891906106e2565b503373ffffffffffffffffffffffffffffffffffffffff166108fc839081150290604051600060405180830381858888f1935050505015801561054f573d6000803e3d6000fd5b507f92f64ca637d023f354075a4be751b169c1a8a9ccb6d33cdd0cb35205439957278260405161057f91906109ef565b60405180910390a15050565b60008060009054906101000a900473ffffffffffffffffffffffffffffffffffffffff1673ffffffffffffffffffffffffffffffffffffffff1663dd62ed3e33306040518363ffffffff1660e01b81526004016105e99291906108cb565b60206040518083038186803b15801561060157600080fd5b505afa158015610615573d6000803e3d6000fd5b505050506040513d601f19601f820116820180604052508101906106399190610734565b905090565b50565b60008054906101000a900473ffffffffffffffffffffffffffffffffffffffff1681565b60008135905061067481610a87565b92915050565b60008151905061068981610a9e565b92915050565b60008135905061069e81610ab5565b92915050565b6000815190506106b381610ab5565b92915050565b6000602082840312156106cb57600080fd5b60006106d984828501610665565b91505092915050565b6000602082840312156106f457600080fd5b60006107028482850161067a565b91505092915050565b60006020828403121561071d57600080fd5b600061072b8482850161068f565b91505092915050565b60006020828403121561074657600080fd5b6000610754848285016106a4565b91505092915050565b61076681610a1b565b82525050565b61077581610a63565b82525050565b6000610788602583610a0a565b91507f596f75206e65656420746f2073656c6c206174206c6561737420736f6d65207460008301527f6f6b656e730000000000000000000000000000000000000000000000000000006020830152604082019050919050565b60006107ee601983610a0a565b91507f436865636b2074686520746f6b656e20616c6c6f77616e6365000000000000006000830152602082019050919050565b600061082e602083610a0a565b91507f4e6f7420656e6f75676820746f6b656e7320696e2074686520726573657276656000830152602082019050919050565b600061086e601b83610a0a565b91507f596f75206e65656420746f2073656e6420736f6d6520657468657200000000006000830152602082019050919050565b6108aa81610a59565b82525050565b60006020820190506108c5600083018461075d565b92915050565b60006040820190506108e0600083018561075d565b6108ed602083018461075d565b9392505050565b6000606082019050610909600083018661075d565b610916602083018561075d565b61092360408301846108a1565b949350505050565b6000604082019050610940600083018561075d565b61094d60208301846108a1565b9392505050565b6000602082019050610969600083018461076c565b92915050565b600060208201905081810360008301526109888161077b565b9050919050565b600060208201905081810360008301526109a8816107e1565b9050919050565b600060208201905081810360008301526109c881610821565b9050919050565b600060208201905081810360008301526109e881610861565b9050919050565b6000602082019050610a0460008301846108a1565b92915050565b600082825260208201905092915050565b6000610a2682610a39565b9050919050565b60008115159050919050565b600073ffffffffffffffffffffffffffffffffffffffff82169050919050565b6000819050919050565b6000610a6e82610a75565b9050919050565b6000610a8082610a39565b9050919050565b610a9081610a1b565b8114610a9b57600080fd5b50565b610aa781610a2d565b8114610ab257600080fd5b50565b610abe81610a59565b8114610ac957600080fd5b5056fea26469706673582212204ba05c2b6927a2bfc316ec78a34b01b35746feaebd93f271bfa16aad8686628964736f6c63430008000033",
					"opcodes": "PUSH1 0x80 PUSH1 0x40 MSTORE CALLVALUE DUP1 ISZERO PUSH2 0x10 JUMPI PUSH1 0x0 DUP1 REVERT JUMPDEST POP PUSH20 0xED24FC36D5EE211EA25A80239FB8C4CFD80F12EE PUSH1 0x0 DUP1 PUSH2 0x100 EXP DUP2 SLOAD DUP2 PUSH20 0xFFFFFFFFFFFFFFFFFFFFFFFFFFFFFFFFFFFFFFFF MUL NOT AND SWAP1 DUP4 PUSH20 0xFFFFFFFFFFFFFFFFFFFFFFFFFFFFFFFFFFFFFFFF AND MUL OR SWAP1 SSTORE POP PUSH2 0xB02 DUP1 PUSH2 0x74 PUSH1 0x0 CODECOPY PUSH1 0x0 RETURN INVALID PUSH1 0x80 PUSH1 0x40 MSTORE PUSH1 0x4 CALLDATASIZE LT PUSH2 0x4A JUMPI PUSH1 0x0 CALLDATALOAD PUSH1 0xE0 SHR DUP1 PUSH4 0xA6F2AE3A EQ PUSH2 0x4F JUMPI DUP1 PUSH4 0xE4849B32 EQ PUSH2 0x59 JUMPI DUP1 PUSH4 0xE4BEB3D6 EQ PUSH2 0x82 JUMPI DUP1 PUSH4 0xE9B103DF EQ PUSH2 0xAD JUMPI DUP1 PUSH4 0xFC0C546A EQ PUSH2 0xD6 JUMPI JUMPDEST PUSH1 0x0 DUP1 REVERT JUMPDEST PUSH2 0x57 PUSH2 0x101 JUMP JUMPDEST STOP JUMPDEST CALLVALUE DUP1 ISZERO PUSH2 0x65 JUMPI PUSH1 0x0 DUP1 REVERT JUMPDEST POP PUSH2 0x80 PUSH1 0x4 DUP1 CALLDATASIZE SUB DUP2 ADD SWAP1 PUSH2 0x7B SWAP2 SWAP1 PUSH2 0x70B JUMP JUMPDEST PUSH2 0x323 JUMP JUMPDEST STOP JUMPDEST CALLVALUE DUP1 ISZERO PUSH2 0x8E JUMPI PUSH1 0x0 DUP1 REVERT JUMPDEST POP PUSH2 0x97 PUSH2 0x58B JUMP JUMPDEST PUSH1 0x40 MLOAD PUSH2 0xA4 SWAP2 SWAP1 PUSH2 0x9EF JUMP JUMPDEST PUSH1 0x40 MLOAD DUP1 SWAP2 SUB SWAP1 RETURN JUMPDEST CALLVALUE DUP1 ISZERO PUSH2 0xB9 JUMPI PUSH1 0x0 DUP1 REVERT JUMPDEST POP PUSH2 0xD4 PUSH1 0x4 DUP1 CALLDATASIZE SUB DUP2 ADD SWAP1 PUSH2 0xCF SWAP2 SWAP1 PUSH2 0x6B9 JUMP JUMPDEST PUSH2 0x63E JUMP JUMPDEST STOP JUMPDEST CALLVALUE DUP1 ISZERO PUSH2 0xE2 JUMPI PUSH1 0x0 DUP1 REVERT JUMPDEST POP PUSH2 0xEB PUSH2 0x641 JUMP JUMPDEST PUSH1 0x40 MLOAD PUSH2 0xF8 SWAP2 SWAP1 PUSH2 0x954 JUMP JUMPDEST PUSH1 0x40 MLOAD DUP1 SWAP2 SUB SWAP1 RETURN JUMPDEST PUSH1 0x0 CALLVALUE SWAP1 POP PUSH1 0x0 DUP1 PUSH1 0x0 SWAP1 SLOAD SWAP1 PUSH2 0x100 EXP SWAP1 DIV PUSH20 0xFFFFFFFFFFFFFFFFFFFFFFFFFFFFFFFFFFFFFFFF AND PUSH20 0xFFFFFFFFFFFFFFFFFFFFFFFFFFFFFFFFFFFFFFFF AND PUSH4 0x70A08231 ADDRESS PUSH1 0x40 MLOAD DUP3 PUSH4 0xFFFFFFFF AND PUSH1 0xE0 SHL DUP2 MSTORE PUSH1 0x4 ADD PUSH2 0x162 SWAP2 SWAP1 PUSH2 0x8B0 JUMP JUMPDEST PUSH1 0x20 PUSH1 0x40 MLOAD DUP1 DUP4 SUB DUP2 DUP7 DUP1 EXTCODESIZE ISZERO DUP1 ISZERO PUSH2 0x17A JUMPI PUSH1 0x0 DUP1 REVERT JUMPDEST POP GAS STATICCALL ISZERO DUP1 ISZERO PUSH2 0x18E JUMPI RETURNDATASIZE PUSH1 0x0 DUP1 RETURNDATACOPY RETURNDATASIZE PUSH1 0x0 REVERT JUMPDEST POP POP POP POP PUSH1 0x40 MLOAD RETURNDATASIZE PUSH1 0x1F NOT PUSH1 0x1F DUP3 ADD AND DUP3 ADD DUP1 PUSH1 0x40 MSTORE POP DUP2 ADD SWAP1 PUSH2 0x1B2 SWAP2 SWAP1 PUSH2 0x734 JUMP JUMPDEST SWAP1 POP PUSH1 0x0 DUP3 GT PUSH2 0x1F7 JUMPI PUSH1 0x40 MLOAD PUSH32 0x8C379A000000000000000000000000000000000000000000000000000000000 DUP2 MSTORE PUSH1 0x4 ADD PUSH2 0x1EE SWAP1 PUSH2 0x9CF JUMP JUMPDEST PUSH1 0x40 MLOAD DUP1 SWAP2 SUB SWAP1 REVERT JUMPDEST DUP1 DUP3 GT ISZERO PUSH2 0x23A JUMPI PUSH1 0x40 MLOAD PUSH32 0x8C379A000000000000000000000000000000000000000000000000000000000 DUP2 MSTORE PUSH1 0x4 ADD PUSH2 0x231 SWAP1 PUSH2 0x9AF JUMP JUMPDEST PUSH1 0x40 MLOAD DUP1 SWAP2 SUB SWAP1 REVERT JUMPDEST PUSH1 0x0 DUP1 SLOAD SWAP1 PUSH2 0x100 EXP SWAP1 DIV PUSH20 0xFFFFFFFFFFFFFFFFFFFFFFFFFFFFFFFFFFFFFFFF AND PUSH20 0xFFFFFFFFFFFFFFFFFFFFFFFFFFFFFFFFFFFFFFFF AND PUSH4 0xA9059CBB CALLER DUP5 PUSH1 0x40 MLOAD DUP4 PUSH4 0xFFFFFFFF AND PUSH1 0xE0 SHL DUP2 MSTORE PUSH1 0x4 ADD PUSH2 0x295 SWAP3 SWAP2 SWAP1 PUSH2 0x92B JUMP JUMPDEST PUSH1 0x20 PUSH1 0x40 MLOAD DUP1 DUP4 SUB DUP2 PUSH1 0x0 DUP8 DUP1 EXTCODESIZE ISZERO DUP1 ISZERO PUSH2 0x2AF JUMPI PUSH1 0x0 DUP1 REVERT JUMPDEST POP GAS CALL ISZERO DUP1 ISZERO PUSH2 0x2C3 JUMPI RETURNDATASIZE PUSH1 0x0 DUP1 RETURNDATACOPY RETURNDATASIZE PUSH1 0x0 REVERT JUMPDEST POP POP POP POP PUSH1 0x40 MLOAD RETURNDATASIZE PUSH1 0x1F NOT PUSH1 0x1F DUP3 ADD AND DUP3 ADD DUP1 PUSH1 0x40 MSTORE POP DUP2 ADD SWAP1 PUSH2 0x2E7 SWAP2 SWAP1 PUSH2 0x6E2 JUMP JUMPDEST POP PUSH32 0x4E08BA899977CF7D4C2964BCE71C6B9A7EF76EE5166A4C1249A1E08016E33EF1 DUP3 PUSH1 0x40 MLOAD PUSH2 0x317 SWAP2 SWAP1 PUSH2 0x9EF JUMP JUMPDEST PUSH1 0x40 MLOAD DUP1 SWAP2 SUB SWAP1 LOG1 POP POP JUMP JUMPDEST PUSH1 0x0 DUP2 GT PUSH2 0x366 JUMPI PUSH1 0x40 MLOAD PUSH32 0x8C379A000000000000000000000000000000000000000000000000000000000 DUP2 MSTORE PUSH1 0x4 ADD PUSH2 0x35D SWAP1 PUSH2 0x96F JUMP JUMPDEST PUSH1 0x40 MLOAD DUP1 SWAP2 SUB SWAP1 REVERT JUMPDEST PUSH1 0x0 DUP1 PUSH1 0x0 SWAP1 SLOAD SWAP1 PUSH2 0x100 EXP SWAP1 DIV PUSH20 0xFFFFFFFFFFFFFFFFFFFFFFFFFFFFFFFFFFFFFFFF AND PUSH20 0xFFFFFFFFFFFFFFFFFFFFFFFFFFFFFFFFFFFFFFFF AND PUSH4 0xDD62ED3E CALLER ADDRESS PUSH1 0x40 MLOAD DUP4 PUSH4 0xFFFFFFFF AND PUSH1 0xE0 SHL DUP2 MSTORE PUSH1 0x4 ADD PUSH2 0x3C4 SWAP3 SWAP2 SWAP1 PUSH2 0x8CB JUMP JUMPDEST PUSH1 0x20 PUSH1 0x40 MLOAD DUP1 DUP4 SUB DUP2 DUP7 DUP1 EXTCODESIZE ISZERO DUP1 ISZERO PUSH2 0x3DC JUMPI PUSH1 0x0 DUP1 REVERT JUMPDEST POP GAS STATICCALL ISZERO DUP1 ISZERO PUSH2 0x3F0 JUMPI RETURNDATASIZE PUSH1 0x0 DUP1 RETURNDATACOPY RETURNDATASIZE PUSH1 0x0 REVERT JUMPDEST POP POP POP POP PUSH1 0x40 MLOAD RETURNDATASIZE PUSH1 0x1F NOT PUSH1 0x1F DUP3 ADD AND DUP3 ADD DUP1 PUSH1 0x40 MSTORE POP DUP2 ADD SWAP1 PUSH2 0x414 SWAP2 SWAP1 PUSH2 0x734 JUMP JUMPDEST SWAP1 POP DUP2 DUP2 LT ISZERO PUSH2 0x459 JUMPI PUSH1 0x40 MLOAD PUSH32 0x8C379A000000000000000000000000000000000000000000000000000000000 DUP2 MSTORE PUSH1 0x4 ADD PUSH2 0x450 SWAP1 PUSH2 0x98F JUMP JUMPDEST PUSH1 0x40 MLOAD DUP1 SWAP2 SUB SWAP1 REVERT JUMPDEST PUSH1 0x0 DUP1 SLOAD SWAP1 PUSH2 0x100 EXP SWAP1 DIV PUSH20 0xFFFFFFFFFFFFFFFFFFFFFFFFFFFFFFFFFFFFFFFF AND PUSH20 0xFFFFFFFFFFFFFFFFFFFFFFFFFFFFFFFFFFFFFFFF AND PUSH4 0x23B872DD CALLER ADDRESS DUP6 PUSH1 0x40 MLOAD DUP5 PUSH4 0xFFFFFFFF AND PUSH1 0xE0 SHL DUP2 MSTORE PUSH1 0x4 ADD PUSH2 0x4B6 SWAP4 SWAP3 SWAP2 SWAP1 PUSH2 0x8F4 JUMP JUMPDEST PUSH1 0x20 PUSH1 0x40 MLOAD DUP1 DUP4 SUB DUP2 PUSH1 0x0 DUP8 DUP1 EXTCODESIZE ISZERO DUP1 ISZERO PUSH2 0x4D0 JUMPI PUSH1 0x0 DUP1 REVERT JUMPDEST POP GAS CALL ISZERO DUP1 ISZERO PUSH2 0x4E4 JUMPI RETURNDATASIZE PUSH1 0x0 DUP1 RETURNDATACOPY RETURNDATASIZE PUSH1 0x0 REVERT JUMPDEST POP POP POP POP PUSH1 0x40 MLOAD RETURNDATASIZE PUSH1 0x1F NOT PUSH1 0x1F DUP3 ADD AND DUP3 ADD DUP1 PUSH1 0x40 MSTORE POP DUP2 ADD SWAP1 PUSH2 0x508 SWAP2 SWAP1 PUSH2 0x6E2 JUMP JUMPDEST POP CALLER PUSH20 0xFFFFFFFFFFFFFFFFFFFFFFFFFFFFFFFFFFFFFFFF AND PUSH2 0x8FC DUP4 SWAP1 DUP2 ISZERO MUL SWAP1 PUSH1 0x40 MLOAD PUSH1 0x0 PUSH1 0x40 MLOAD DUP1 DUP4 SUB DUP2 DUP6 DUP9 DUP9 CALL SWAP4 POP POP POP POP ISZERO DUP1 ISZERO PUSH2 0x54F JUMPI RETURNDATASIZE PUSH1 0x0 DUP1 RETURNDATACOPY RETURNDATASIZE PUSH1 0x0 REVERT JUMPDEST POP PUSH32 0x92F64CA637D023F354075A4BE751B169C1A8A9CCB6D33CDD0CB3520543995727 DUP3 PUSH1 0x40 MLOAD PUSH2 0x57F SWAP2 SWAP1 PUSH2 0x9EF JUMP JUMPDEST PUSH1 0x40 MLOAD DUP1 SWAP2 SUB SWAP1 LOG1 POP POP JUMP JUMPDEST PUSH1 0x0 DUP1 PUSH1 0x0 SWAP1 SLOAD SWAP1 PUSH2 0x100 EXP SWAP1 DIV PUSH20 0xFFFFFFFFFFFFFFFFFFFFFFFFFFFFFFFFFFFFFFFF AND PUSH20 0xFFFFFFFFFFFFFFFFFFFFFFFFFFFFFFFFFFFFFFFF AND PUSH4 0xDD62ED3E CALLER ADDRESS PUSH1 0x40 MLOAD DUP4 PUSH4 0xFFFFFFFF AND PUSH1 0xE0 SHL DUP2 MSTORE PUSH1 0x4 ADD PUSH2 0x5E9 SWAP3 SWAP2 SWAP1 PUSH2 0x8CB JUMP JUMPDEST PUSH1 0x20 PUSH1 0x40 MLOAD DUP1 DUP4 SUB DUP2 DUP7 DUP1 EXTCODESIZE ISZERO DUP1 ISZERO PUSH2 0x601 JUMPI PUSH1 0x0 DUP1 REVERT JUMPDEST POP GAS STATICCALL ISZERO DUP1 ISZERO PUSH2 0x615 JUMPI RETURNDATASIZE PUSH1 0x0 DUP1 RETURNDATACOPY RETURNDATASIZE PUSH1 0x0 REVERT JUMPDEST POP POP POP POP PUSH1 0x40 MLOAD RETURNDATASIZE PUSH1 0x1F NOT PUSH1 0x1F DUP3 ADD AND DUP3 ADD DUP1 PUSH1 0x40 MSTORE POP DUP2 ADD SWAP1 PUSH2 0x639 SWAP2 SWAP1 PUSH2 0x734 JUMP JUMPDEST SWAP1 POP SWAP1 JUMP JUMPDEST POP JUMP JUMPDEST PUSH1 0x0 DUP1 SLOAD SWAP1 PUSH2 0x100 EXP SWAP1 DIV PUSH20 0xFFFFFFFFFFFFFFFFFFFFFFFFFFFFFFFFFFFFFFFF AND DUP2 JUMP JUMPDEST PUSH1 0x0 DUP2 CALLDATALOAD SWAP1 POP PUSH2 0x674 DUP2 PUSH2 0xA87 JUMP JUMPDEST SWAP3 SWAP2 POP POP JUMP JUMPDEST PUSH1 0x0 DUP2 MLOAD SWAP1 POP PUSH2 0x689 DUP2 PUSH2 0xA9E JUMP JUMPDEST SWAP3 SWAP2 POP POP JUMP JUMPDEST PUSH1 0x0 DUP2 CALLDATALOAD SWAP1 POP PUSH2 0x69E DUP2 PUSH2 0xAB5 JUMP JUMPDEST SWAP3 SWAP2 POP POP JUMP JUMPDEST PUSH1 0x0 DUP2 MLOAD SWAP1 POP PUSH2 0x6B3 DUP2 PUSH2 0xAB5 JUMP JUMPDEST SWAP3 SWAP2 POP POP JUMP JUMPDEST PUSH1 0x0 PUSH1 0x20 DUP3 DUP5 SUB SLT ISZERO PUSH2 0x6CB JUMPI PUSH1 0x0 DUP1 REVERT JUMPDEST PUSH1 0x0 PUSH2 0x6D9 DUP5 DUP3 DUP6 ADD PUSH2 0x665 JUMP JUMPDEST SWAP2 POP POP SWAP3 SWAP2 POP POP JUMP JUMPDEST PUSH1 0x0 PUSH1 0x20 DUP3 DUP5 SUB SLT ISZERO PUSH2 0x6F4 JUMPI PUSH1 0x0 DUP1 REVERT JUMPDEST PUSH1 0x0 PUSH2 0x702 DUP5 DUP3 DUP6 ADD PUSH2 0x67A JUMP JUMPDEST SWAP2 POP POP SWAP3 SWAP2 POP POP JUMP JUMPDEST PUSH1 0x0 PUSH1 0x20 DUP3 DUP5 SUB SLT ISZERO PUSH2 0x71D JUMPI PUSH1 0x0 DUP1 REVERT JUMPDEST PUSH1 0x0 PUSH2 0x72B DUP5 DUP3 DUP6 ADD PUSH2 0x68F JUMP JUMPDEST SWAP2 POP POP SWAP3 SWAP2 POP POP JUMP JUMPDEST PUSH1 0x0 PUSH1 0x20 DUP3 DUP5 SUB SLT ISZERO PUSH2 0x746 JUMPI PUSH1 0x0 DUP1 REVERT JUMPDEST PUSH1 0x0 PUSH2 0x754 DUP5 DUP3 DUP6 ADD PUSH2 0x6A4 JUMP JUMPDEST SWAP2 POP POP SWAP3 SWAP2 POP POP JUMP JUMPDEST PUSH2 0x766 DUP2 PUSH2 0xA1B JUMP JUMPDEST DUP3 MSTORE POP POP JUMP JUMPDEST PUSH2 0x775 DUP2 PUSH2 0xA63 JUMP JUMPDEST DUP3 MSTORE POP POP JUMP JUMPDEST PUSH1 0x0 PUSH2 0x788 PUSH1 0x25 DUP4 PUSH2 0xA0A JUMP JUMPDEST SWAP2 POP PUSH32 0x596F75206E65656420746F2073656C6C206174206C6561737420736F6D652074 PUSH1 0x0 DUP4 ADD MSTORE PUSH32 0x6F6B656E73000000000000000000000000000000000000000000000000000000 PUSH1 0x20 DUP4 ADD MSTORE PUSH1 0x40 DUP3 ADD SWAP1 POP SWAP2 SWAP1 POP JUMP JUMPDEST PUSH1 0x0 PUSH2 0x7EE PUSH1 0x19 DUP4 PUSH2 0xA0A JUMP JUMPDEST SWAP2 POP PUSH32 0x436865636B2074686520746F6B656E20616C6C6F77616E636500000000000000 PUSH1 0x0 DUP4 ADD MSTORE PUSH1 0x20 DUP3 ADD SWAP1 POP SWAP2 SWAP1 POP JUMP JUMPDEST PUSH1 0x0 PUSH2 0x82E PUSH1 0x20 DUP4 PUSH2 0xA0A JUMP JUMPDEST SWAP2 POP PUSH32 0x4E6F7420656E6F75676820746F6B656E7320696E207468652072657365727665 PUSH1 0x0 DUP4 ADD MSTORE PUSH1 0x20 DUP3 ADD SWAP1 POP SWAP2 SWAP1 POP JUMP JUMPDEST PUSH1 0x0 PUSH2 0x86E PUSH1 0x1B DUP4 PUSH2 0xA0A JUMP JUMPDEST SWAP2 POP PUSH32 0x596F75206E65656420746F2073656E6420736F6D652065746865720000000000 PUSH1 0x0 DUP4 ADD MSTORE PUSH1 0x20 DUP3 ADD SWAP1 POP SWAP2 SWAP1 POP JUMP JUMPDEST PUSH2 0x8AA DUP2 PUSH2 0xA59 JUMP JUMPDEST DUP3 MSTORE POP POP JUMP JUMPDEST PUSH1 0x0 PUSH1 0x20 DUP3 ADD SWAP1 POP PUSH2 0x8C5 PUSH1 0x0 DUP4 ADD DUP5 PUSH2 0x75D JUMP JUMPDEST SWAP3 SWAP2 POP POP JUMP JUMPDEST PUSH1 0x0 PUSH1 0x40 DUP3 ADD SWAP1 POP PUSH2 0x8E0 PUSH1 0x0 DUP4 ADD DUP6 PUSH2 0x75D JUMP JUMPDEST PUSH2 0x8ED PUSH1 0x20 DUP4 ADD DUP5 PUSH2 0x75D JUMP JUMPDEST SWAP4 SWAP3 POP POP POP JUMP JUMPDEST PUSH1 0x0 PUSH1 0x60 DUP3 ADD SWAP1 POP PUSH2 0x909 PUSH1 0x0 DUP4 ADD DUP7 PUSH2 0x75D JUMP JUMPDEST PUSH2 0x916 PUSH1 0x20 DUP4 ADD DUP6 PUSH2 0x75D JUMP JUMPDEST PUSH2 0x923 PUSH1 0x40 DUP4 ADD DUP5 PUSH2 0x8A1 JUMP JUMPDEST SWAP5 SWAP4 POP POP POP POP JUMP JUMPDEST PUSH1 0x0 PUSH1 0x40 DUP3 ADD SWAP1 POP PUSH2 0x940 PUSH1 0x0 DUP4 ADD DUP6 PUSH2 0x75D JUMP JUMPDEST PUSH2 0x94D PUSH1 0x20 DUP4 ADD DUP5 PUSH2 0x8A1 JUMP JUMPDEST SWAP4 SWAP3 POP POP POP JUMP JUMPDEST PUSH1 0x0 PUSH1 0x20 DUP3 ADD SWAP1 POP PUSH2 0x969 PUSH1 0x0 DUP4 ADD DUP5 PUSH2 0x76C JUMP JUMPDEST SWAP3 SWAP2 POP POP JUMP JUMPDEST PUSH1 0x0 PUSH1 0x20 DUP3 ADD SWAP1 POP DUP2 DUP2 SUB PUSH1 0x0 DUP4 ADD MSTORE PUSH2 0x988 DUP2 PUSH2 0x77B JUMP JUMPDEST SWAP1 POP SWAP2 SWAP1 POP JUMP JUMPDEST PUSH1 0x0 PUSH1 0x20 DUP3 ADD SWAP1 POP DUP2 DUP2 SUB PUSH1 0x0 DUP4 ADD MSTORE PUSH2 0x9A8 DUP2 PUSH2 0x7E1 JUMP JUMPDEST SWAP1 POP SWAP2 SWAP1 POP JUMP JUMPDEST PUSH1 0x0 PUSH1 0x20 DUP3 ADD SWAP1 POP DUP2 DUP2 SUB PUSH1 0x0 DUP4 ADD MSTORE PUSH2 0x9C8 DUP2 PUSH2 0x821 JUMP JUMPDEST SWAP1 POP SWAP2 SWAP1 POP JUMP JUMPDEST PUSH1 0x0 PUSH1 0x20 DUP3 ADD SWAP1 POP DUP2 DUP2 SUB PUSH1 0x0 DUP4 ADD MSTORE PUSH2 0x9E8 DUP2 PUSH2 0x861 JUMP JUMPDEST SWAP1 POP SWAP2 SWAP1 POP JUMP JUMPDEST PUSH1 0x0 PUSH1 0x20 DUP3 ADD SWAP1 POP PUSH2 0xA04 PUSH1 0x0 DUP4 ADD DUP5 PUSH2 0x8A1 JUMP JUMPDEST SWAP3 SWAP2 POP POP JUMP JUMPDEST PUSH1 0x0 DUP3 DUP3 MSTORE PUSH1 0x20 DUP3 ADD SWAP1 POP SWAP3 SWAP2 POP POP JUMP JUMPDEST PUSH1 0x0 PUSH2 0xA26 DUP3 PUSH2 0xA39 JUMP JUMPDEST SWAP1 POP SWAP2 SWAP1 POP JUMP JUMPDEST PUSH1 0x0 DUP2 ISZERO ISZERO SWAP1 POP SWAP2 SWAP1 POP JUMP JUMPDEST PUSH1 0x0 PUSH20 0xFFFFFFFFFFFFFFFFFFFFFFFFFFFFFFFFFFFFFFFF DUP3 AND SWAP1 POP SWAP2 SWAP1 POP JUMP JUMPDEST PUSH1 0x0 DUP2 SWAP1 POP SWAP2 SWAP1 POP JUMP JUMPDEST PUSH1 0x0 PUSH2 0xA6E DUP3 PUSH2 0xA75 JUMP JUMPDEST SWAP1 POP SWAP2 SWAP1 POP JUMP JUMPDEST PUSH1 0x0 PUSH2 0xA80 DUP3 PUSH2 0xA39 JUMP JUMPDEST SWAP1 POP SWAP2 SWAP1 POP JUMP JUMPDEST PUSH2 0xA90 DUP2 PUSH2 0xA1B JUMP JUMPDEST DUP2 EQ PUSH2 0xA9B JUMPI PUSH1 0x0 DUP1 REVERT JUMPDEST POP JUMP JUMPDEST PUSH2 0xAA7 DUP2 PUSH2 0xA2D JUMP JUMPDEST DUP2 EQ PUSH2 0xAB2 JUMPI PUSH1 0x0 DUP1 REVERT JUMPDEST POP JUMP JUMPDEST PUSH2 0xABE DUP2 PUSH2 0xA59 JUMP JUMPDEST DUP2 EQ PUSH2 0xAC9 JUMPI PUSH1 0x0 DUP1 REVERT JUMPDEST POP JUMP INVALID LOG2 PUSH5 0x6970667358 0x22 SLT KECCAK256 0x4B LOG0 0x5C 0x2B PUSH10 0x27A2BFC316EC78A34B01 0xB3 JUMPI CHAINID INVALID 0xAE 0xBD SWAP4 CALLCODE PUSH18 0xBFA16AAD8686628964736F6C634300080000 CALLER "
				},
				"gasEstimates": {
					"creation": {
						"codeDepositCost": "563600",
						"executionCost": "21467",
						"totalCost": "585067"
					},
					"external": {
						"allowWancetoSC(address)": "499",
						"buy()": "infinite",
						"checkAllowWance()": "infinite",
						"sell(uint256)": "infinite",
						"token()": "1320"
					}
				},
				"methodIdentifiers": {
					"allowWancetoSC(address)": "e9b103df",
					"buy()": "a6f2ae3a",
					"checkAllowWance()": "e4beb3d6",
					"sell(uint256)": "e4849b32",
					"token()": "fc0c546a"
				}
			},
			"storageLayout": {
				"storage": [
					{
						"astId": 79,
						"contract": "contracts/TestUSDTf.sol:DEX",
						"label": "token",
						"offset": 0,
						"slot": "0",
						"type": "t_contract(IERC20)68"
					}
				],
				"types": {
					"t_contract(IERC20)68": {
						"encoding": "inplace",
						"label": "contract IERC20",
						"numberOfBytes": "20"
					}
				}
			},
			"userdoc": {
				"kind": "user",
				"methods": {},
				"version": 1
			}
		}
	}
}