{
	"contracts/NFT_Demo/NFT.sol": {
		"SQFItem": {
			"abi": [
				{
					"anonymous": false,
					"inputs": [
						{
							"indexed": true,
							"internalType": "address",
							"name": "_owner",
							"type": "address"
						},
						{
							"indexed": true,
							"internalType": "address",
							"name": "_approved",
							"type": "address"
						},
						{
							"indexed": true,
							"internalType": "uint256",
							"name": "_tokenId",
							"type": "uint256"
						}
					],
					"name": "Approval",
					"type": "event"
				},
				{
					"anonymous": false,
					"inputs": [
						{
							"indexed": true,
							"internalType": "address",
							"name": "_owner",
							"type": "address"
						},
						{
							"indexed": true,
							"internalType": "address",
							"name": "_operator",
							"type": "address"
						},
						{
							"indexed": false,
							"internalType": "bool",
							"name": "_approved",
							"type": "bool"
						}
					],
					"name": "ApprovalForAll",
					"type": "event"
				},
				{
					"anonymous": false,
					"inputs": [
						{
							"indexed": true,
							"internalType": "address",
							"name": "previousOwner",
							"type": "address"
						},
						{
							"indexed": true,
							"internalType": "address",
							"name": "newOwner",
							"type": "address"
						}
					],
					"name": "OwnershipTransferred",
					"type": "event"
				},
				{
					"anonymous": false,
					"inputs": [
						{
							"indexed": true,
							"internalType": "address",
							"name": "_from",
							"type": "address"
						},
						{
							"indexed": true,
							"internalType": "address",
							"name": "_to",
							"type": "address"
						},
						{
							"indexed": true,
							"internalType": "uint256",
							"name": "_tokenId",
							"type": "uint256"
						}
					],
					"name": "Transfer",
					"type": "event"
				},
				{
					"inputs": [],
					"name": "admin",
					"outputs": [
						{
							"internalType": "address",
							"name": "",
							"type": "address"
						}
					],
					"stateMutability": "view",
					"type": "function"
				},
				{
					"inputs": [
						{
							"internalType": "address",
							"name": "_owner",
							"type": "address"
						}
					],
					"name": "balanceOf",
					"outputs": [
						{
							"internalType": "uint256",
							"name": "",
							"type": "uint256"
						}
					],
					"stateMutability": "view",
					"type": "function"
				},
				{
					"inputs": [
						{
							"internalType": "string",
							"name": "_tokenURI",
							"type": "string"
						}
					],
					"name": "mint",
					"outputs": [],
					"stateMutability": "nonpayable",
					"type": "function"
				},
				{
					"inputs": [],
					"name": "nextId",
					"outputs": [
						{
							"internalType": "uint256",
							"name": "",
							"type": "uint256"
						}
					],
					"stateMutability": "view",
					"type": "function"
				},
				{
					"inputs": [
						{
							"internalType": "address",
							"name": "_operator",
							"type": "address"
						},
						{
							"internalType": "address",
							"name": "_from",
							"type": "address"
						},
						{
							"internalType": "uint256",
							"name": "_tokenId",
							"type": "uint256"
						},
						{
							"internalType": "bytes",
							"name": "_data",
							"type": "bytes"
						}
					],
					"name": "onERC721Received",
					"outputs": [
						{
							"internalType": "bytes4",
							"name": "",
							"type": "bytes4"
						}
					],
					"stateMutability": "nonpayable",
					"type": "function"
				},
				{
					"inputs": [],
					"name": "owner",
					"outputs": [
						{
							"internalType": "address",
							"name": "",
							"type": "address"
						}
					],
					"stateMutability": "view",
					"type": "function"
				},
				{
					"inputs": [
						{
							"internalType": "uint256",
							"name": "_tokenId",
							"type": "uint256"
						}
					],
					"name": "ownerOf",
					"outputs": [
						{
							"internalType": "address",
							"name": "",
							"type": "address"
						}
					],
					"stateMutability": "view",
					"type": "function"
				},
				{
					"inputs": [],
					"name": "renounceOwnership",
					"outputs": [],
					"stateMutability": "nonpayable",
					"type": "function"
				},
				{
					"inputs": [
						{
							"internalType": "address",
							"name": "_from",
							"type": "address"
						},
						{
							"internalType": "address",
							"name": "_to",
							"type": "address"
						},
						{
							"internalType": "uint256",
							"name": "_tokenId",
							"type": "uint256"
						}
					],
					"name": "safeTransferFrom",
					"outputs": [],
					"stateMutability": "payable",
					"type": "function"
				},
				{
					"inputs": [
						{
							"internalType": "address",
							"name": "_from",
							"type": "address"
						},
						{
							"internalType": "address",
							"name": "_to",
							"type": "address"
						},
						{
							"internalType": "uint256",
							"name": "_tokenId",
							"type": "uint256"
						},
						{
							"internalType": "bytes",
							"name": "data",
							"type": "bytes"
						}
					],
					"name": "safeTransferFrom",
					"outputs": [],
					"stateMutability": "payable",
					"type": "function"
				},
				{
					"inputs": [
						{
							"internalType": "uint256",
							"name": "_tokenId",
							"type": "uint256"
						}
					],
					"name": "tokenURI",
					"outputs": [
						{
							"internalType": "string",
							"name": "",
							"type": "string"
						}
					],
					"stateMutability": "view",
					"type": "function"
				},
				{
					"inputs": [
						{
							"internalType": "address",
							"name": "recipient",
							"type": "address"
						},
						{
							"internalType": "uint256",
							"name": "tokenId",
							"type": "uint256"
						}
					],
					"name": "transfer",
					"outputs": [
						{
							"internalType": "bool",
							"name": "",
							"type": "bool"
						}
					],
					"stateMutability": "nonpayable",
					"type": "function"
				},
				{
					"inputs": [
						{
							"internalType": "address",
							"name": "_from",
							"type": "address"
						},
						{
							"internalType": "address",
							"name": "_to",
							"type": "address"
						},
						{
							"internalType": "uint256",
							"name": "_tokenId",
							"type": "uint256"
						}
					],
					"name": "transferFrom",
					"outputs": [],
					"stateMutability": "payable",
					"type": "function"
				},
				{
					"inputs": [
						{
							"internalType": "address",
							"name": "newOwner",
							"type": "address"
						}
					],
					"name": "transferOwnership",
					"outputs": [],
					"stateMutability": "nonpayable",
					"type": "function"
				},
				{
					"inputs": [
						{
							"internalType": "uint256",
							"name": "",
							"type": "uint256"
						}
					],
					"name": "weaponDetail",
					"outputs": [
						{
							"internalType": "string",
							"name": "tokenURI",
							"type": "string"
						}
					],
					"stateMutability": "view",
					"type": "function"
				}
			],
			"devdoc": {
				"kind": "dev",
				"methods": {
					"owner()": {
						"details": "Returns the address of the current owner."
					},
					"renounceOwnership()": {
						"details": "Leaves the contract without owner. It will not be possible to call `onlyOwner` functions anymore. Can only be called by the current owner. NOTE: Renouncing ownership will leave the contract without an owner, thereby removing any functionality that is only available to the owner."
					},
					"transferOwnership(address)": {
						"details": "Transfers ownership of the contract to a new account (`newOwner`). Can only be called by the current owner."
					}
				},
				"version": 1
			},
			"evm": {
				"assembly": "    /* \"contracts/NFT_Demo/NFT.sol\":12125:12765  contract SQFItem is ERC721(\"SQFITEM\", \"SQFI\", \"test.com\") {... */\n  mstore(0x40, 0x80)\n    /* \"contracts/NFT_Demo/NFT.sol\":12426:12427  1 */\n  0x01\n    /* \"contracts/NFT_Demo/NFT.sol\":12402:12427  uint256 public nextId = 1 */\n  0x07\n  sstore\n    /* \"contracts/NFT_Demo/NFT.sol\":12125:12765  contract SQFItem is ERC721(\"SQFITEM\", \"SQFI\", \"test.com\") {... */\n  callvalue\n  dup1\n  iszero\n  tag_1\n  jumpi\n  0x00\n  dup1\n  revert\ntag_1:\n  pop\n    /* \"contracts/NFT_Demo/NFT.sol\":8361:8566  constructor(... */\n  mload(0x40)\n  dup1\n  0x40\n  add\n  0x40\n  mstore\n  dup1\n  0x07\n  dup2\n  mstore\n  0x20\n  add\n  0x5351464954454d00000000000000000000000000000000000000000000000000\n  dup2\n  mstore\n  pop\n  mload(0x40)\n  dup1\n  0x40\n  add\n  0x40\n  mstore\n  dup1\n  0x04\n  dup2\n  mstore\n  0x20\n  add\n  0x5351464900000000000000000000000000000000000000000000000000000000\n  dup2\n  mstore\n  pop\n  mload(0x40)\n  dup1\n  0x40\n  add\n  0x40\n  mstore\n  dup1\n  0x08\n  dup2\n  mstore\n  0x20\n  add\n  0x746573742e636f6d000000000000000000000000000000000000000000000000\n  dup2\n  mstore\n  pop\n    /* \"contracts/NFT_Demo/NFT.sol\":4765:4797  _transferOwnership(_msgSender()) */\n  tag_5\n    /* \"contracts/NFT_Demo/NFT.sol\":4784:4796  _msgSender() */\n  tag_6\n    /* \"contracts/NFT_Demo/NFT.sol\":4784:4794  _msgSender */\n  shl(0x20, tag_7)\n    /* \"contracts/NFT_Demo/NFT.sol\":4784:4796  _msgSender() */\n  0x20\n  shr\n  jump\t// in\ntag_6:\n    /* \"contracts/NFT_Demo/NFT.sol\":4765:4783  _transferOwnership */\n  shl(0x20, tag_8)\n    /* \"contracts/NFT_Demo/NFT.sol\":4765:4797  _transferOwnership(_msgSender()) */\n  0x20\n  shr\n  jump\t// in\ntag_5:\n    /* \"contracts/NFT_Demo/NFT.sol\":8491:8495  name */\n  dup3\n    /* \"contracts/NFT_Demo/NFT.sol\":8483:8488  _name */\n  0x04\n    /* \"contracts/NFT_Demo/NFT.sol\":8483:8495  _name = name */\n  swap1\n  dup1\n  mload\n  swap1\n  0x20\n  add\n  swap1\n  tag_10\n  swap3\n  swap2\n  swap1\n  tag_11\n  jump\t// in\ntag_10:\n  pop\n    /* \"contracts/NFT_Demo/NFT.sol\":8515:8521  symbol */\n  dup2\n    /* \"contracts/NFT_Demo/NFT.sol\":8505:8512  _symbol */\n  0x05\n    /* \"contracts/NFT_Demo/NFT.sol\":8505:8521  _symbol = symbol */\n  swap1\n  dup1\n  mload\n  swap1\n  0x20\n  add\n  swap1\n  tag_12\n  swap3\n  swap2\n  swap1\n  tag_11\n  jump\t// in\ntag_12:\n  pop\n    /* \"contracts/NFT_Demo/NFT.sol\":8547:8559  tokenURIBase */\n  dup1\n    /* \"contracts/NFT_Demo/NFT.sol\":8531:8544  _tokenURIBase */\n  0x06\n    /* \"contracts/NFT_Demo/NFT.sol\":8531:8559  _tokenURIBase = tokenURIBase */\n  swap1\n  dup1\n  mload\n  swap1\n  0x20\n  add\n  swap1\n  tag_13\n  swap3\n  swap2\n  swap1\n  tag_11\n  jump\t// in\ntag_13:\n  pop\n    /* \"contracts/NFT_Demo/NFT.sol\":8361:8566  constructor(... */\n  pop\n  pop\n  pop\n    /* \"contracts/NFT_Demo/NFT.sol\":12125:12765  contract SQFItem is ERC721(\"SQFITEM\", \"SQFI\", \"test.com\") {... */\n  jump(tag_14)\n    /* \"contracts/NFT_Demo/NFT.sol\":99:195  function _msgSender() internal view virtual returns (address) {... */\ntag_7:\n    /* \"contracts/NFT_Demo/NFT.sol\":152:159  address */\n  0x00\n    /* \"contracts/NFT_Demo/NFT.sol\":178:188  msg.sender */\n  caller\n    /* \"contracts/NFT_Demo/NFT.sol\":171:188  return msg.sender */\n  swap1\n  pop\n    /* \"contracts/NFT_Demo/NFT.sol\":99:195  function _msgSender() internal view virtual returns (address) {... */\n  swap1\n  jump\t// out\n    /* \"contracts/NFT_Demo/NFT.sol\":6148:6335  function _transferOwnership(address newOwner) internal virtual {... */\ntag_8:\n    /* \"contracts/NFT_Demo/NFT.sol\":6221:6237  address oldOwner */\n  0x00\n    /* \"contracts/NFT_Demo/NFT.sol\":6240:6246  _owner */\n  dup1\n  0x00\n  swap1\n  sload\n  swap1\n  0x0100\n  exp\n  swap1\n  div\n  0xffffffffffffffffffffffffffffffffffffffff\n  and\n    /* \"contracts/NFT_Demo/NFT.sol\":6221:6246  address oldOwner = _owner */\n  swap1\n  pop\n    /* \"contracts/NFT_Demo/NFT.sol\":6265:6273  newOwner */\n  dup2\n    /* \"contracts/NFT_Demo/NFT.sol\":6256:6262  _owner */\n  0x00\n  dup1\n    /* \"contracts/NFT_Demo/NFT.sol\":6256:6273  _owner = newOwner */\n  0x0100\n  exp\n  dup2\n  sload\n  dup2\n  0xffffffffffffffffffffffffffffffffffffffff\n  mul\n  not\n  and\n  swap1\n  dup4\n  0xffffffffffffffffffffffffffffffffffffffff\n  and\n  mul\n  or\n  swap1\n  sstore\n  pop\n    /* \"contracts/NFT_Demo/NFT.sol\":6319:6327  newOwner */\n  dup2\n    /* \"contracts/NFT_Demo/NFT.sol\":6288:6328  OwnershipTransferred(oldOwner, newOwner) */\n  0xffffffffffffffffffffffffffffffffffffffff\n  and\n    /* \"contracts/NFT_Demo/NFT.sol\":6309:6317  oldOwner */\n  dup2\n    /* \"contracts/NFT_Demo/NFT.sol\":6288:6328  OwnershipTransferred(oldOwner, newOwner) */\n  0xffffffffffffffffffffffffffffffffffffffff\n  and\n  0x8be0079c531659141344cd1fd0a4f28419497f9722a3daafe3b4186f6b6457e0\n  mload(0x40)\n  mload(0x40)\n  dup1\n  swap2\n  sub\n  swap1\n  log3\n    /* \"contracts/NFT_Demo/NFT.sol\":6211:6335  {... */\n  pop\n    /* \"contracts/NFT_Demo/NFT.sol\":6148:6335  function _transferOwnership(address newOwner) internal virtual {... */\n  pop\n  jump\t// out\n    /* \"contracts/NFT_Demo/NFT.sol\":12125:12765  contract SQFItem is ERC721(\"SQFITEM\", \"SQFI\", \"test.com\") {... */\ntag_11:\n  dup3\n  dup1\n  sload\n  tag_17\n  swap1\n  tag_18\n  jump\t// in\ntag_17:\n  swap1\n  0x00\n  mstore\n  keccak256(0x00, 0x20)\n  swap1\n  0x1f\n  add\n  0x20\n  swap1\n  div\n  dup2\n  add\n  swap3\n  dup3\n  tag_20\n  jumpi\n  0x00\n  dup6\n  sstore\n  jump(tag_19)\ntag_20:\n  dup3\n  0x1f\n  lt\n  tag_21\n  jumpi\n  dup1\n  mload\n  not(0xff)\n  and\n  dup4\n  dup1\n  add\n  or\n  dup6\n  sstore\n  jump(tag_19)\ntag_21:\n  dup3\n  dup1\n  add\n  0x01\n  add\n  dup6\n  sstore\n  dup3\n  iszero\n  tag_19\n  jumpi\n  swap2\n  dup3\n  add\ntag_22:\n  dup3\n  dup2\n  gt\n  iszero\n  tag_23\n  jumpi\n  dup3\n  mload\n  dup3\n  sstore\n  swap2\n  0x20\n  add\n  swap2\n  swap1\n  0x01\n  add\n  swap1\n  jump(tag_22)\ntag_23:\ntag_19:\n  pop\n  swap1\n  pop\n  tag_24\n  swap2\n  swap1\n  tag_25\n  jump\t// in\ntag_24:\n  pop\n  swap1\n  jump\t// out\ntag_25:\ntag_26:\n  dup1\n  dup3\n  gt\n  iszero\n  tag_27\n  jumpi\n  0x00\n  dup2\n  0x00\n  swap1\n  sstore\n  pop\n  0x01\n  add\n  jump(tag_26)\ntag_27:\n  pop\n  swap1\n  jump\t// out\n    /* \"#utility.yul\":7:187   */\ntag_28:\n    /* \"#utility.yul\":55:132   */\n  0x4e487b7100000000000000000000000000000000000000000000000000000000\n    /* \"#utility.yul\":52:53   */\n  0x00\n    /* \"#utility.yul\":45:133   */\n  mstore\n    /* \"#utility.yul\":152:156   */\n  0x22\n    /* \"#utility.yul\":149:150   */\n  0x04\n    /* \"#utility.yul\":142:157   */\n  mstore\n    /* \"#utility.yul\":176:180   */\n  0x24\n    /* \"#utility.yul\":173:174   */\n  0x00\n    /* \"#utility.yul\":166:181   */\n  revert\n    /* \"#utility.yul\":193:513   */\ntag_18:\n    /* \"#utility.yul\":237:243   */\n  0x00\n    /* \"#utility.yul\":274:275   */\n  0x02\n    /* \"#utility.yul\":268:272   */\n  dup3\n    /* \"#utility.yul\":264:276   */\n  div\n    /* \"#utility.yul\":254:276   */\n  swap1\n  pop\n    /* \"#utility.yul\":321:322   */\n  0x01\n    /* \"#utility.yul\":315:319   */\n  dup3\n    /* \"#utility.yul\":311:323   */\n  and\n    /* \"#utility.yul\":342:360   */\n  dup1\n    /* \"#utility.yul\":332:413   */\n  tag_32\n  jumpi\n    /* \"#utility.yul\":398:402   */\n  0x7f\n    /* \"#utility.yul\":390:396   */\n  dup3\n    /* \"#utility.yul\":386:403   */\n  and\n    /* \"#utility.yul\":376:403   */\n  swap2\n  pop\n    /* \"#utility.yul\":332:413   */\ntag_32:\n    /* \"#utility.yul\":460:462   */\n  0x20\n    /* \"#utility.yul\":452:458   */\n  dup3\n    /* \"#utility.yul\":449:463   */\n  lt\n    /* \"#utility.yul\":429:447   */\n  dup2\n    /* \"#utility.yul\":426:464   */\n  sub\n    /* \"#utility.yul\":423:507   */\n  tag_33\n  jumpi\n    /* \"#utility.yul\":479:497   */\n  tag_34\n  tag_28\n  jump\t// in\ntag_34:\n    /* \"#utility.yul\":423:507   */\ntag_33:\n    /* \"#utility.yul\":244:513   */\n  pop\n    /* \"#utility.yul\":193:513   */\n  swap2\n  swap1\n  pop\n  jump\t// out\n    /* \"contracts/NFT_Demo/NFT.sol\":12125:12765  contract SQFItem is ERC721(\"SQFITEM\", \"SQFI\", \"test.com\") {... */\ntag_14:\n  dataSize(sub_0)\n  dup1\n  dataOffset(sub_0)\n  0x00\n  codecopy\n  0x00\n  return\nstop\n\nsub_0: assembly {\n        /* \"contracts/NFT_Demo/NFT.sol\":12125:12765  contract SQFItem is ERC721(\"SQFITEM\", \"SQFI\", \"test.com\") {... */\n      mstore(0x40, 0x80)\n      jumpi(tag_1, lt(calldatasize, 0x04))\n      shr(0xe0, calldataload(0x00))\n      dup1\n      0x715018a6\n      gt\n      tag_17\n      jumpi\n      dup1\n      0xc87b56dd\n      gt\n      tag_18\n      jumpi\n      dup1\n      0xc87b56dd\n      eq\n      tag_13\n      jumpi\n      dup1\n      0xd85d3d27\n      eq\n      tag_14\n      jumpi\n      dup1\n      0xf2fde38b\n      eq\n      tag_15\n      jumpi\n      dup1\n      0xf851a440\n      eq\n      tag_16\n      jumpi\n      jump(tag_1)\n    tag_18:\n      dup1\n      0x715018a6\n      eq\n      tag_9\n      jumpi\n      dup1\n      0x8da5cb5b\n      eq\n      tag_10\n      jumpi\n      dup1\n      0xa9059cbb\n      eq\n      tag_11\n      jumpi\n      dup1\n      0xb88d4fde\n      eq\n      tag_12\n      jumpi\n      jump(tag_1)\n    tag_17:\n      dup1\n      0x42842e0e\n      gt\n      tag_19\n      jumpi\n      dup1\n      0x42842e0e\n      eq\n      tag_5\n      jumpi\n      dup1\n      0x61b8ce8c\n      eq\n      tag_6\n      jumpi\n      dup1\n      0x6352211e\n      eq\n      tag_7\n      jumpi\n      dup1\n      0x70a08231\n      eq\n      tag_8\n      jumpi\n      jump(tag_1)\n    tag_19:\n      dup1\n      0x106cbf90\n      eq\n      tag_2\n      jumpi\n      dup1\n      0x150b7a02\n      eq\n      tag_3\n      jumpi\n      dup1\n      0x23b872dd\n      eq\n      tag_4\n      jumpi\n    tag_1:\n      0x00\n      dup1\n      revert\n        /* \"contracts/NFT_Demo/NFT.sol\":12460:12506  mapping(uint256 => Weapon) public weaponDetail */\n    tag_2:\n      callvalue\n      dup1\n      iszero\n      tag_20\n      jumpi\n      0x00\n      dup1\n      revert\n    tag_20:\n      pop\n      tag_21\n      0x04\n      dup1\n      calldatasize\n      sub\n      dup2\n      add\n      swap1\n      tag_22\n      swap2\n      swap1\n      tag_23\n      jump\t// in\n    tag_22:\n      tag_24\n      jump\t// in\n    tag_21:\n      mload(0x40)\n      tag_25\n      swap2\n      swap1\n      tag_26\n      jump\t// in\n    tag_25:\n      mload(0x40)\n      dup1\n      swap2\n      sub\n      swap1\n      return\n        /* \"contracts/NFT_Demo/NFT.sol\":11182:11348  function onERC721Received(... */\n    tag_3:\n      callvalue\n      dup1\n      iszero\n      tag_27\n      jumpi\n      0x00\n      dup1\n      revert\n    tag_27:\n      pop\n      tag_28\n      0x04\n      dup1\n      calldatasize\n      sub\n      dup2\n      add\n      swap1\n      tag_29\n      swap2\n      swap1\n      tag_30\n      jump\t// in\n    tag_29:\n      tag_31\n      jump\t// in\n    tag_28:\n      mload(0x40)\n      tag_32\n      swap2\n      swap1\n      tag_33\n      jump\t// in\n    tag_32:\n      mload(0x40)\n      dup1\n      swap2\n      sub\n      swap1\n      return\n        /* \"contracts/NFT_Demo/NFT.sol\":9413:9906  function transferFrom(... */\n    tag_4:\n      tag_34\n      0x04\n      dup1\n      calldatasize\n      sub\n      dup2\n      add\n      swap1\n      tag_35\n      swap2\n      swap1\n      tag_36\n      jump\t// in\n    tag_35:\n      tag_37\n      jump\t// in\n    tag_34:\n      stop\n        /* \"contracts/NFT_Demo/NFT.sol\":10128:10307  function safeTransferFrom(... */\n    tag_5:\n      tag_38\n      0x04\n      dup1\n      calldatasize\n      sub\n      dup2\n      add\n      swap1\n      tag_39\n      swap2\n      swap1\n      tag_36\n      jump\t// in\n    tag_39:\n      tag_40\n      jump\t// in\n    tag_38:\n      stop\n        /* \"contracts/NFT_Demo/NFT.sol\":12402:12427  uint256 public nextId = 1 */\n    tag_6:\n      callvalue\n      dup1\n      iszero\n      tag_41\n      jumpi\n      0x00\n      dup1\n      revert\n    tag_41:\n      pop\n      tag_42\n      tag_43\n      jump\t// in\n    tag_42:\n      mload(0x40)\n      tag_44\n      swap2\n      swap1\n      tag_45\n      jump\t// in\n    tag_44:\n      mload(0x40)\n      dup1\n      swap2\n      sub\n      swap1\n      return\n        /* \"contracts/NFT_Demo/NFT.sol\":9296:9407  function ownerOf(uint256 _tokenId) external view returns (address) {... */\n    tag_7:\n      callvalue\n      dup1\n      iszero\n      tag_46\n      jumpi\n      0x00\n      dup1\n      revert\n    tag_46:\n      pop\n      tag_47\n      0x04\n      dup1\n      calldatasize\n      sub\n      dup2\n      add\n      swap1\n      tag_48\n      swap2\n      swap1\n      tag_23\n      jump\t// in\n    tag_48:\n      tag_49\n      jump\t// in\n    tag_47:\n      mload(0x40)\n      tag_50\n      swap2\n      swap1\n      tag_51\n      jump\t// in\n    tag_50:\n      mload(0x40)\n      dup1\n      swap2\n      sub\n      swap1\n      return\n        /* \"contracts/NFT_Demo/NFT.sol\":9173:9290  function balanceOf(address _owner) external view returns (uint256) {... */\n    tag_8:\n      callvalue\n      dup1\n      iszero\n      tag_52\n      jumpi\n      0x00\n      dup1\n      revert\n    tag_52:\n      pop\n      tag_53\n      0x04\n      dup1\n      calldatasize\n      sub\n      dup2\n      add\n      swap1\n      tag_54\n      swap2\n      swap1\n      tag_55\n      jump\t// in\n    tag_54:\n      tag_56\n      jump\t// in\n    tag_53:\n      mload(0x40)\n      tag_57\n      swap2\n      swap1\n      tag_45\n      jump\t// in\n    tag_57:\n      mload(0x40)\n      dup1\n      swap2\n      sub\n      swap1\n      return\n        /* \"contracts/NFT_Demo/NFT.sol\":5512:5613  function renounceOwnership() public virtual onlyOwner {... */\n    tag_9:\n      callvalue\n      dup1\n      iszero\n      tag_58\n      jumpi\n      0x00\n      dup1\n      revert\n    tag_58:\n      pop\n      tag_59\n      tag_60\n      jump\t// in\n    tag_59:\n      stop\n        /* \"contracts/NFT_Demo/NFT.sol\":4880:4965  function owner() public view virtual returns (address) {... */\n    tag_10:\n      callvalue\n      dup1\n      iszero\n      tag_61\n      jumpi\n      0x00\n      dup1\n      revert\n    tag_61:\n      pop\n      tag_62\n      tag_63\n      jump\t// in\n    tag_62:\n      mload(0x40)\n      tag_64\n      swap2\n      swap1\n      tag_51\n      jump\t// in\n    tag_64:\n      mload(0x40)\n      dup1\n      swap2\n      sub\n      swap1\n      return\n        /* \"contracts/NFT_Demo/NFT.sol\":8957:9167  function transfer(address recipient, uint256 tokenId)... */\n    tag_11:\n      callvalue\n      dup1\n      iszero\n      tag_65\n      jumpi\n      0x00\n      dup1\n      revert\n    tag_65:\n      pop\n      tag_66\n      0x04\n      dup1\n      calldatasize\n      sub\n      dup2\n      add\n      swap1\n      tag_67\n      swap2\n      swap1\n      tag_68\n      jump\t// in\n    tag_67:\n      tag_69\n      jump\t// in\n    tag_66:\n      mload(0x40)\n      tag_70\n      swap2\n      swap1\n      tag_71\n      jump\t// in\n    tag_70:\n      mload(0x40)\n      dup1\n      swap2\n      sub\n      swap1\n      return\n        /* \"contracts/NFT_Demo/NFT.sol\":9912:10122  function safeTransferFrom(... */\n    tag_12:\n      tag_72\n      0x04\n      dup1\n      calldatasize\n      sub\n      dup2\n      add\n      swap1\n      tag_73\n      swap2\n      swap1\n      tag_30\n      jump\t// in\n    tag_73:\n      tag_74\n      jump\t// in\n    tag_72:\n      stop\n        /* \"contracts/NFT_Demo/NFT.sol\":8572:8719  function tokenURI(uint256 _tokenId) external view returns (string memory) {... */\n    tag_13:\n      callvalue\n      dup1\n      iszero\n      tag_75\n      jumpi\n      0x00\n      dup1\n      revert\n    tag_75:\n      pop\n      tag_76\n      0x04\n      dup1\n      calldatasize\n      sub\n      dup2\n      add\n      swap1\n      tag_77\n      swap2\n      swap1\n      tag_23\n      jump\t// in\n    tag_77:\n      tag_78\n      jump\t// in\n    tag_76:\n      mload(0x40)\n      tag_79\n      swap2\n      swap1\n      tag_26\n      jump\t// in\n    tag_79:\n      mload(0x40)\n      dup1\n      swap2\n      sub\n      swap1\n      return\n        /* \"contracts/NFT_Demo/NFT.sol\":12562:12763  function mint(string memory _tokenURI) public {... */\n    tag_14:\n      callvalue\n      dup1\n      iszero\n      tag_80\n      jumpi\n      0x00\n      dup1\n      revert\n    tag_80:\n      pop\n      tag_81\n      0x04\n      dup1\n      calldatasize\n      sub\n      dup2\n      add\n      swap1\n      tag_82\n      swap2\n      swap1\n      tag_83\n      jump\t// in\n    tag_82:\n      tag_84\n      jump\t// in\n    tag_81:\n      stop\n        /* \"contracts/NFT_Demo/NFT.sol\":5762:5994  function transferOwnership(address newOwner) public virtual onlyOwner {... */\n    tag_15:\n      callvalue\n      dup1\n      iszero\n      tag_85\n      jumpi\n      0x00\n      dup1\n      revert\n    tag_85:\n      pop\n      tag_86\n      0x04\n      dup1\n      calldatasize\n      sub\n      dup2\n      add\n      swap1\n      tag_87\n      swap2\n      swap1\n      tag_55\n      jump\t// in\n    tag_87:\n      tag_88\n      jump\t// in\n    tag_86:\n      stop\n        /* \"contracts/NFT_Demo/NFT.sol\":12433:12453  address public admin */\n    tag_16:\n      callvalue\n      dup1\n      iszero\n      tag_89\n      jumpi\n      0x00\n      dup1\n      revert\n    tag_89:\n      pop\n      tag_90\n      tag_91\n      jump\t// in\n    tag_90:\n      mload(0x40)\n      tag_92\n      swap2\n      swap1\n      tag_51\n      jump\t// in\n    tag_92:\n      mload(0x40)\n      dup1\n      swap2\n      sub\n      swap1\n      return\n        /* \"contracts/NFT_Demo/NFT.sol\":12460:12506  mapping(uint256 => Weapon) public weaponDetail */\n    tag_24:\n      mstore(0x20, 0x09)\n      dup1\n      0x00\n      mstore\n      keccak256(0x00, 0x40)\n      0x00\n      swap2\n      pop\n      swap1\n      pop\n      dup1\n      0x00\n      add\n      dup1\n      sload\n      tag_93\n      swap1\n      tag_94\n      jump\t// in\n    tag_93:\n      dup1\n      0x1f\n      add\n      0x20\n      dup1\n      swap2\n      div\n      mul\n      0x20\n      add\n      mload(0x40)\n      swap1\n      dup2\n      add\n      0x40\n      mstore\n      dup1\n      swap3\n      swap2\n      swap1\n      dup2\n      dup2\n      mstore\n      0x20\n      add\n      dup3\n      dup1\n      sload\n      tag_95\n      swap1\n      tag_94\n      jump\t// in\n    tag_95:\n      dup1\n      iszero\n      tag_96\n      jumpi\n      dup1\n      0x1f\n      lt\n      tag_97\n      jumpi\n      0x0100\n      dup1\n      dup4\n      sload\n      div\n      mul\n      dup4\n      mstore\n      swap2\n      0x20\n      add\n      swap2\n      jump(tag_96)\n    tag_97:\n      dup3\n      add\n      swap2\n      swap1\n      0x00\n      mstore\n      keccak256(0x00, 0x20)\n      swap1\n    tag_98:\n      dup2\n      sload\n      dup2\n      mstore\n      swap1\n      0x01\n      add\n      swap1\n      0x20\n      add\n      dup1\n      dup4\n      gt\n      tag_98\n      jumpi\n      dup3\n      swap1\n      sub\n      0x1f\n      and\n      dup3\n      add\n      swap2\n    tag_96:\n      pop\n      pop\n      pop\n      pop\n      pop\n      swap1\n      pop\n      dup2\n      jump\t// out\n        /* \"contracts/NFT_Demo/NFT.sol\":11182:11348  function onERC721Received(... */\n    tag_31:\n        /* \"contracts/NFT_Demo/NFT.sol\":11338:11344  bytes4 */\n      0x00\n        /* \"contracts/NFT_Demo/NFT.sol\":11182:11348  function onERC721Received(... */\n      swap6\n      swap5\n      pop\n      pop\n      pop\n      pop\n      pop\n      jump\t// out\n        /* \"contracts/NFT_Demo/NFT.sol\":9413:9906  function transferFrom(... */\n    tag_37:\n        /* \"contracts/NFT_Demo/NFT.sol\":9573:9578  _from */\n      dup3\n        /* \"contracts/NFT_Demo/NFT.sol\":9559:9578  msg.sender == _from */\n      0xffffffffffffffffffffffffffffffffffffffff\n      and\n        /* \"contracts/NFT_Demo/NFT.sol\":9559:9569  msg.sender */\n      caller\n        /* \"contracts/NFT_Demo/NFT.sol\":9559:9578  msg.sender == _from */\n      0xffffffffffffffffffffffffffffffffffffffff\n      and\n      eq\n        /* \"contracts/NFT_Demo/NFT.sol\":9538:9647  require(... */\n      tag_101\n      jumpi\n      mload(0x40)\n      0x08c379a000000000000000000000000000000000000000000000000000000000\n      dup2\n      mstore\n      0x04\n      add\n      tag_102\n      swap1\n      tag_103\n      jump\t// in\n    tag_102:\n      mload(0x40)\n      dup1\n      swap2\n      sub\n      swap1\n      revert\n    tag_101:\n        /* \"contracts/NFT_Demo/NFT.sol\":9687:9697  _idToOwner */\n      0x02\n        /* \"contracts/NFT_Demo/NFT.sol\":9687:9707  _idToOwner[_tokenId] */\n      0x00\n        /* \"contracts/NFT_Demo/NFT.sol\":9698:9706  _tokenId */\n      dup3\n        /* \"contracts/NFT_Demo/NFT.sol\":9687:9707  _idToOwner[_tokenId] */\n      dup2\n      mstore\n      0x20\n      add\n      swap1\n      dup2\n      mstore\n      0x20\n      add\n      0x00\n      keccak256\n      0x00\n      swap1\n      sload\n      swap1\n      0x0100\n      exp\n      swap1\n      div\n      0xffffffffffffffffffffffffffffffffffffffff\n      and\n        /* \"contracts/NFT_Demo/NFT.sol\":9678:9707  _from == _idToOwner[_tokenId] */\n      0xffffffffffffffffffffffffffffffffffffffff\n      and\n        /* \"contracts/NFT_Demo/NFT.sol\":9678:9683  _from */\n      dup4\n        /* \"contracts/NFT_Demo/NFT.sol\":9678:9707  _from == _idToOwner[_tokenId] */\n      0xffffffffffffffffffffffffffffffffffffffff\n      and\n      eq\n        /* \"contracts/NFT_Demo/NFT.sol\":9657:9776  require(... */\n      tag_104\n      jumpi\n      mload(0x40)\n      0x08c379a000000000000000000000000000000000000000000000000000000000\n      dup2\n      mstore\n      0x04\n      add\n      tag_105\n      swap1\n      tag_103\n      jump\t// in\n    tag_105:\n      mload(0x40)\n      dup1\n      swap2\n      sub\n      swap1\n      revert\n    tag_104:\n        /* \"contracts/NFT_Demo/NFT.sol\":9815:9816  1 */\n      0x01\n        /* \"contracts/NFT_Demo/NFT.sol\":9786:9804  _ownerToTokenCount */\n      dup1\n        /* \"contracts/NFT_Demo/NFT.sol\":9786:9811  _ownerToTokenCount[_from] */\n      0x00\n        /* \"contracts/NFT_Demo/NFT.sol\":9805:9810  _from */\n      dup6\n        /* \"contracts/NFT_Demo/NFT.sol\":9786:9811  _ownerToTokenCount[_from] */\n      0xffffffffffffffffffffffffffffffffffffffff\n      and\n      0xffffffffffffffffffffffffffffffffffffffff\n      and\n      dup2\n      mstore\n      0x20\n      add\n      swap1\n      dup2\n      mstore\n      0x20\n      add\n      0x00\n      keccak256\n      0x00\n        /* \"contracts/NFT_Demo/NFT.sol\":9786:9816  _ownerToTokenCount[_from] -= 1 */\n      dup3\n      dup3\n      sload\n      tag_106\n      swap2\n      swap1\n      tag_107\n      jump\t// in\n    tag_106:\n      swap3\n      pop\n      pop\n      dup2\n      swap1\n      sstore\n      pop\n        /* \"contracts/NFT_Demo/NFT.sol\":9853:9854  1 */\n      0x01\n        /* \"contracts/NFT_Demo/NFT.sol\":9826:9844  _ownerToTokenCount */\n      dup1\n        /* \"contracts/NFT_Demo/NFT.sol\":9826:9849  _ownerToTokenCount[_to] */\n      0x00\n        /* \"contracts/NFT_Demo/NFT.sol\":9845:9848  _to */\n      dup5\n        /* \"contracts/NFT_Demo/NFT.sol\":9826:9849  _ownerToTokenCount[_to] */\n      0xffffffffffffffffffffffffffffffffffffffff\n      and\n      0xffffffffffffffffffffffffffffffffffffffff\n      and\n      dup2\n      mstore\n      0x20\n      add\n      swap1\n      dup2\n      mstore\n      0x20\n      add\n      0x00\n      keccak256\n      0x00\n        /* \"contracts/NFT_Demo/NFT.sol\":9826:9854  _ownerToTokenCount[_to] += 1 */\n      dup3\n      dup3\n      sload\n      tag_108\n      swap2\n      swap1\n      tag_109\n      jump\t// in\n    tag_108:\n      swap3\n      pop\n      pop\n      dup2\n      swap1\n      sstore\n      pop\n        /* \"contracts/NFT_Demo/NFT.sol\":9890:9898  _tokenId */\n      dup1\n        /* \"contracts/NFT_Demo/NFT.sol\":9885:9888  _to */\n      dup3\n        /* \"contracts/NFT_Demo/NFT.sol\":9869:9899  Transfer(_from, _to, _tokenId) */\n      0xffffffffffffffffffffffffffffffffffffffff\n      and\n        /* \"contracts/NFT_Demo/NFT.sol\":9878:9883  _from */\n      dup5\n        /* \"contracts/NFT_Demo/NFT.sol\":9869:9899  Transfer(_from, _to, _tokenId) */\n      0xffffffffffffffffffffffffffffffffffffffff\n      and\n      0xddf252ad1be2c89b69c2b068fc378daa952ba7f163c4a11628f55a4df523b3ef\n      mload(0x40)\n      mload(0x40)\n      dup1\n      swap2\n      sub\n      swap1\n      log4\n        /* \"contracts/NFT_Demo/NFT.sol\":9413:9906  function transferFrom(... */\n      pop\n      pop\n      pop\n      jump\t// out\n        /* \"contracts/NFT_Demo/NFT.sol\":10128:10307  function safeTransferFrom(... */\n    tag_40:\n        /* \"contracts/NFT_Demo/NFT.sol\":10257:10300  _safeTransferFrom(_from, _to, _tokenId, \"\") */\n      tag_111\n        /* \"contracts/NFT_Demo/NFT.sol\":10275:10280  _from */\n      dup4\n        /* \"contracts/NFT_Demo/NFT.sol\":10282:10285  _to */\n      dup4\n        /* \"contracts/NFT_Demo/NFT.sol\":10287:10295  _tokenId */\n      dup4\n        /* \"contracts/NFT_Demo/NFT.sol\":10257:10300  _safeTransferFrom(_from, _to, _tokenId, \"\") */\n      mload(0x40)\n      dup1\n      0x20\n      add\n      0x40\n      mstore\n      dup1\n      0x00\n      dup2\n      mstore\n      pop\n        /* \"contracts/NFT_Demo/NFT.sol\":10257:10274  _safeTransferFrom */\n      tag_112\n        /* \"contracts/NFT_Demo/NFT.sol\":10257:10300  _safeTransferFrom(_from, _to, _tokenId, \"\") */\n      jump\t// in\n    tag_111:\n        /* \"contracts/NFT_Demo/NFT.sol\":10128:10307  function safeTransferFrom(... */\n      pop\n      pop\n      pop\n      jump\t// out\n        /* \"contracts/NFT_Demo/NFT.sol\":12402:12427  uint256 public nextId = 1 */\n    tag_43:\n      sload(0x07)\n      dup2\n      jump\t// out\n        /* \"contracts/NFT_Demo/NFT.sol\":9296:9407  function ownerOf(uint256 _tokenId) external view returns (address) {... */\n    tag_49:\n        /* \"contracts/NFT_Demo/NFT.sol\":9354:9361  address */\n      0x00\n        /* \"contracts/NFT_Demo/NFT.sol\":9380:9390  _idToOwner */\n      0x02\n        /* \"contracts/NFT_Demo/NFT.sol\":9380:9400  _idToOwner[_tokenId] */\n      0x00\n        /* \"contracts/NFT_Demo/NFT.sol\":9391:9399  _tokenId */\n      dup4\n        /* \"contracts/NFT_Demo/NFT.sol\":9380:9400  _idToOwner[_tokenId] */\n      dup2\n      mstore\n      0x20\n      add\n      swap1\n      dup2\n      mstore\n      0x20\n      add\n      0x00\n      keccak256\n      0x00\n      swap1\n      sload\n      swap1\n      0x0100\n      exp\n      swap1\n      div\n      0xffffffffffffffffffffffffffffffffffffffff\n      and\n        /* \"contracts/NFT_Demo/NFT.sol\":9373:9400  return _idToOwner[_tokenId] */\n      swap1\n      pop\n        /* \"contracts/NFT_Demo/NFT.sol\":9296:9407  function ownerOf(uint256 _tokenId) external view returns (address) {... */\n      swap2\n      swap1\n      pop\n      jump\t// out\n        /* \"contracts/NFT_Demo/NFT.sol\":9173:9290  function balanceOf(address _owner) external view returns (uint256) {... */\n    tag_56:\n        /* \"contracts/NFT_Demo/NFT.sol\":9231:9238  uint256 */\n      0x00\n        /* \"contracts/NFT_Demo/NFT.sol\":9257:9275  _ownerToTokenCount */\n      0x01\n        /* \"contracts/NFT_Demo/NFT.sol\":9257:9283  _ownerToTokenCount[_owner] */\n      0x00\n        /* \"contracts/NFT_Demo/NFT.sol\":9276:9282  _owner */\n      dup4\n        /* \"contracts/NFT_Demo/NFT.sol\":9257:9283  _ownerToTokenCount[_owner] */\n      0xffffffffffffffffffffffffffffffffffffffff\n      and\n      0xffffffffffffffffffffffffffffffffffffffff\n      and\n      dup2\n      mstore\n      0x20\n      add\n      swap1\n      dup2\n      mstore\n      0x20\n      add\n      0x00\n      keccak256\n      sload\n        /* \"contracts/NFT_Demo/NFT.sol\":9250:9283  return _ownerToTokenCount[_owner] */\n      swap1\n      pop\n        /* \"contracts/NFT_Demo/NFT.sol\":9173:9290  function balanceOf(address _owner) external view returns (uint256) {... */\n      swap2\n      swap1\n      pop\n      jump\t// out\n        /* \"contracts/NFT_Demo/NFT.sol\":5512:5613  function renounceOwnership() public virtual onlyOwner {... */\n    tag_60:\n        /* \"contracts/NFT_Demo/NFT.sol\":5103:5115  _msgSender() */\n      tag_116\n        /* \"contracts/NFT_Demo/NFT.sol\":5103:5113  _msgSender */\n      tag_117\n        /* \"contracts/NFT_Demo/NFT.sol\":5103:5115  _msgSender() */\n      jump\t// in\n    tag_116:\n        /* \"contracts/NFT_Demo/NFT.sol\":5092:5115  owner() == _msgSender() */\n      0xffffffffffffffffffffffffffffffffffffffff\n      and\n        /* \"contracts/NFT_Demo/NFT.sol\":5092:5099  owner() */\n      tag_118\n        /* \"contracts/NFT_Demo/NFT.sol\":5092:5097  owner */\n      tag_63\n        /* \"contracts/NFT_Demo/NFT.sol\":5092:5099  owner() */\n      jump\t// in\n    tag_118:\n        /* \"contracts/NFT_Demo/NFT.sol\":5092:5115  owner() == _msgSender() */\n      0xffffffffffffffffffffffffffffffffffffffff\n      and\n      eq\n        /* \"contracts/NFT_Demo/NFT.sol\":5084:5152  require(owner() == _msgSender(), \"Ownable: caller is not the owner\") */\n      tag_119\n      jumpi\n      mload(0x40)\n      0x08c379a000000000000000000000000000000000000000000000000000000000\n      dup2\n      mstore\n      0x04\n      add\n      tag_120\n      swap1\n      tag_121\n      jump\t// in\n    tag_120:\n      mload(0x40)\n      dup1\n      swap2\n      sub\n      swap1\n      revert\n    tag_119:\n        /* \"contracts/NFT_Demo/NFT.sol\":5576:5606  _transferOwnership(address(0)) */\n      tag_123\n        /* \"contracts/NFT_Demo/NFT.sol\":5603:5604  0 */\n      0x00\n        /* \"contracts/NFT_Demo/NFT.sol\":5576:5594  _transferOwnership */\n      tag_124\n        /* \"contracts/NFT_Demo/NFT.sol\":5576:5606  _transferOwnership(address(0)) */\n      jump\t// in\n    tag_123:\n        /* \"contracts/NFT_Demo/NFT.sol\":5512:5613  function renounceOwnership() public virtual onlyOwner {... */\n      jump\t// out\n        /* \"contracts/NFT_Demo/NFT.sol\":4880:4965  function owner() public view virtual returns (address) {... */\n    tag_63:\n        /* \"contracts/NFT_Demo/NFT.sol\":4926:4933  address */\n      0x00\n        /* \"contracts/NFT_Demo/NFT.sol\":4952:4958  _owner */\n      dup1\n      0x00\n      swap1\n      sload\n      swap1\n      0x0100\n      exp\n      swap1\n      div\n      0xffffffffffffffffffffffffffffffffffffffff\n      and\n        /* \"contracts/NFT_Demo/NFT.sol\":4945:4958  return _owner */\n      swap1\n      pop\n        /* \"contracts/NFT_Demo/NFT.sol\":4880:4965  function owner() public view virtual returns (address) {... */\n      swap1\n      jump\t// out\n        /* \"contracts/NFT_Demo/NFT.sol\":8957:9167  function transfer(address recipient, uint256 tokenId)... */\n    tag_69:\n        /* \"contracts/NFT_Demo/NFT.sol\":9076:9080  bool */\n      0x00\n        /* \"contracts/NFT_Demo/NFT.sol\":9096:9139  _transfer(_msgSender(), recipient, tokenId) */\n      tag_127\n        /* \"contracts/NFT_Demo/NFT.sol\":9106:9118  _msgSender() */\n      tag_128\n        /* \"contracts/NFT_Demo/NFT.sol\":9106:9116  _msgSender */\n      tag_117\n        /* \"contracts/NFT_Demo/NFT.sol\":9106:9118  _msgSender() */\n      jump\t// in\n    tag_128:\n        /* \"contracts/NFT_Demo/NFT.sol\":9120:9129  recipient */\n      dup5\n        /* \"contracts/NFT_Demo/NFT.sol\":9131:9138  tokenId */\n      dup5\n        /* \"contracts/NFT_Demo/NFT.sol\":9096:9105  _transfer */\n      tag_129\n        /* \"contracts/NFT_Demo/NFT.sol\":9096:9139  _transfer(_msgSender(), recipient, tokenId) */\n      jump\t// in\n    tag_127:\n        /* \"contracts/NFT_Demo/NFT.sol\":9156:9160  true */\n      0x01\n        /* \"contracts/NFT_Demo/NFT.sol\":9149:9160  return true */\n      swap1\n      pop\n        /* \"contracts/NFT_Demo/NFT.sol\":8957:9167  function transfer(address recipient, uint256 tokenId)... */\n      swap3\n      swap2\n      pop\n      pop\n      jump\t// out\n        /* \"contracts/NFT_Demo/NFT.sol\":9912:10122  function safeTransferFrom(... */\n    tag_74:\n        /* \"contracts/NFT_Demo/NFT.sol\":10070:10115  _safeTransferFrom(_from, _to, _tokenId, data) */\n      tag_131\n        /* \"contracts/NFT_Demo/NFT.sol\":10088:10093  _from */\n      dup6\n        /* \"contracts/NFT_Demo/NFT.sol\":10095:10098  _to */\n      dup6\n        /* \"contracts/NFT_Demo/NFT.sol\":10100:10108  _tokenId */\n      dup6\n        /* \"contracts/NFT_Demo/NFT.sol\":10110:10114  data */\n      dup6\n      dup6\n        /* \"contracts/NFT_Demo/NFT.sol\":10070:10115  _safeTransferFrom(_from, _to, _tokenId, data) */\n      dup1\n      dup1\n      0x1f\n      add\n      0x20\n      dup1\n      swap2\n      div\n      mul\n      0x20\n      add\n      mload(0x40)\n      swap1\n      dup2\n      add\n      0x40\n      mstore\n      dup1\n      swap4\n      swap3\n      swap2\n      swap1\n      dup2\n      dup2\n      mstore\n      0x20\n      add\n      dup4\n      dup4\n      dup1\n      dup3\n      dup5\n      calldatacopy\n      0x00\n      dup2\n      dup5\n      add\n      mstore\n      not(0x1f)\n      0x1f\n      dup3\n      add\n      and\n      swap1\n      pop\n      dup1\n      dup4\n      add\n      swap3\n      pop\n      pop\n      pop\n      pop\n      pop\n      pop\n      pop\n        /* \"contracts/NFT_Demo/NFT.sol\":10070:10087  _safeTransferFrom */\n      tag_112\n        /* \"contracts/NFT_Demo/NFT.sol\":10070:10115  _safeTransferFrom(_from, _to, _tokenId, data) */\n      jump\t// in\n    tag_131:\n        /* \"contracts/NFT_Demo/NFT.sol\":9912:10122  function safeTransferFrom(... */\n      pop\n      pop\n      pop\n      pop\n      pop\n      jump\t// out\n        /* \"contracts/NFT_Demo/NFT.sol\":8572:8719  function tokenURI(uint256 _tokenId) external view returns (string memory) {... */\n    tag_78:\n        /* \"contracts/NFT_Demo/NFT.sol\":8631:8644  string memory */\n      0x60\n        /* \"contracts/NFT_Demo/NFT.sol\":8687:8700  _tokenURIBase */\n      0x06\n        /* \"contracts/NFT_Demo/NFT.sol\":8702:8710  _tokenId */\n      dup3\n        /* \"contracts/NFT_Demo/NFT.sol\":8670:8711  abi.encodePacked(_tokenURIBase, _tokenId) */\n      add(0x20, mload(0x40))\n      tag_133\n      swap3\n      swap2\n      swap1\n      tag_134\n      jump\t// in\n    tag_133:\n      mload(0x40)\n      0x20\n      dup2\n      dup4\n      sub\n      sub\n      dup2\n      mstore\n      swap1\n      0x40\n      mstore\n        /* \"contracts/NFT_Demo/NFT.sol\":8656:8712  return string(abi.encodePacked(_tokenURIBase, _tokenId)) */\n      swap1\n      pop\n        /* \"contracts/NFT_Demo/NFT.sol\":8572:8719  function tokenURI(uint256 _tokenId) external view returns (string memory) {... */\n      swap2\n      swap1\n      pop\n      jump\t// out\n        /* \"contracts/NFT_Demo/NFT.sol\":12562:12763  function mint(string memory _tokenURI) public {... */\n    tag_84:\n        /* \"contracts/NFT_Demo/NFT.sol\":12618:12641  Weapon memory newWeapon */\n      0x00\n        /* \"contracts/NFT_Demo/NFT.sol\":12644:12661  Weapon(_tokenURI) */\n      mload(0x40)\n      dup1\n      0x20\n      add\n      0x40\n      mstore\n      dup1\n        /* \"contracts/NFT_Demo/NFT.sol\":12651:12660  _tokenURI */\n      dup4\n        /* \"contracts/NFT_Demo/NFT.sol\":12644:12661  Weapon(_tokenURI) */\n      dup2\n      mstore\n      pop\n        /* \"contracts/NFT_Demo/NFT.sol\":12618:12661  Weapon memory newWeapon = Weapon(_tokenURI) */\n      swap1\n      pop\n        /* \"contracts/NFT_Demo/NFT.sol\":12694:12703  newWeapon */\n      dup1\n        /* \"contracts/NFT_Demo/NFT.sol\":12671:12683  weaponDetail */\n      0x09\n        /* \"contracts/NFT_Demo/NFT.sol\":12671:12691  weaponDetail[nextId] */\n      0x00\n        /* \"contracts/NFT_Demo/NFT.sol\":12684:12690  nextId */\n      sload(0x07)\n        /* \"contracts/NFT_Demo/NFT.sol\":12671:12691  weaponDetail[nextId] */\n      dup2\n      mstore\n      0x20\n      add\n      swap1\n      dup2\n      mstore\n      0x20\n      add\n      0x00\n      keccak256\n        /* \"contracts/NFT_Demo/NFT.sol\":12671:12703  weaponDetail[nextId] = newWeapon */\n      0x00\n      dup3\n      add\n      mload\n      dup2\n      0x00\n      add\n      swap1\n      dup1\n      mload\n      swap1\n      0x20\n      add\n      swap1\n      tag_136\n      swap3\n      swap2\n      swap1\n      tag_137\n      jump\t// in\n    tag_136:\n      pop\n      swap1\n      pop\n      pop\n        /* \"contracts/NFT_Demo/NFT.sol\":12713:12738  _mint(msg.sender, nextId) */\n      tag_138\n        /* \"contracts/NFT_Demo/NFT.sol\":12719:12729  msg.sender */\n      caller\n        /* \"contracts/NFT_Demo/NFT.sol\":12731:12737  nextId */\n      sload(0x07)\n        /* \"contracts/NFT_Demo/NFT.sol\":12713:12718  _mint */\n      tag_139\n        /* \"contracts/NFT_Demo/NFT.sol\":12713:12738  _mint(msg.sender, nextId) */\n      jump\t// in\n    tag_138:\n        /* \"contracts/NFT_Demo/NFT.sol\":12748:12754  nextId */\n      0x07\n      0x00\n        /* \"contracts/NFT_Demo/NFT.sol\":12748:12756  nextId++ */\n      dup2\n      sload\n      dup1\n      swap3\n      swap2\n      swap1\n      tag_140\n      swap1\n      tag_141\n      jump\t// in\n    tag_140:\n      swap2\n      swap1\n      pop\n      sstore\n      pop\n        /* \"contracts/NFT_Demo/NFT.sol\":12608:12763  {... */\n      pop\n        /* \"contracts/NFT_Demo/NFT.sol\":12562:12763  function mint(string memory _tokenURI) public {... */\n      pop\n      jump\t// out\n        /* \"contracts/NFT_Demo/NFT.sol\":5762:5994  function transferOwnership(address newOwner) public virtual onlyOwner {... */\n    tag_88:\n        /* \"contracts/NFT_Demo/NFT.sol\":5103:5115  _msgSender() */\n      tag_143\n        /* \"contracts/NFT_Demo/NFT.sol\":5103:5113  _msgSender */\n      tag_117\n        /* \"contracts/NFT_Demo/NFT.sol\":5103:5115  _msgSender() */\n      jump\t// in\n    tag_143:\n        /* \"contracts/NFT_Demo/NFT.sol\":5092:5115  owner() == _msgSender() */\n      0xffffffffffffffffffffffffffffffffffffffff\n      and\n        /* \"contracts/NFT_Demo/NFT.sol\":5092:5099  owner() */\n      tag_144\n        /* \"contracts/NFT_Demo/NFT.sol\":5092:5097  owner */\n      tag_63\n        /* \"contracts/NFT_Demo/NFT.sol\":5092:5099  owner() */\n      jump\t// in\n    tag_144:\n        /* \"contracts/NFT_Demo/NFT.sol\":5092:5115  owner() == _msgSender() */\n      0xffffffffffffffffffffffffffffffffffffffff\n      and\n      eq\n        /* \"contracts/NFT_Demo/NFT.sol\":5084:5152  require(owner() == _msgSender(), \"Ownable: caller is not the owner\") */\n      tag_145\n      jumpi\n      mload(0x40)\n      0x08c379a000000000000000000000000000000000000000000000000000000000\n      dup2\n      mstore\n      0x04\n      add\n      tag_146\n      swap1\n      tag_121\n      jump\t// in\n    tag_146:\n      mload(0x40)\n      dup1\n      swap2\n      sub\n      swap1\n      revert\n    tag_145:\n        /* \"contracts/NFT_Demo/NFT.sol\":5883:5884  0 */\n      0x00\n        /* \"contracts/NFT_Demo/NFT.sol\":5863:5885  newOwner != address(0) */\n      0xffffffffffffffffffffffffffffffffffffffff\n      and\n        /* \"contracts/NFT_Demo/NFT.sol\":5863:5871  newOwner */\n      dup2\n        /* \"contracts/NFT_Demo/NFT.sol\":5863:5885  newOwner != address(0) */\n      0xffffffffffffffffffffffffffffffffffffffff\n      and\n      sub\n        /* \"contracts/NFT_Demo/NFT.sol\":5842:5949  require(... */\n      tag_148\n      jumpi\n      mload(0x40)\n      0x08c379a000000000000000000000000000000000000000000000000000000000\n      dup2\n      mstore\n      0x04\n      add\n      tag_149\n      swap1\n      tag_150\n      jump\t// in\n    tag_149:\n      mload(0x40)\n      dup1\n      swap2\n      sub\n      swap1\n      revert\n    tag_148:\n        /* \"contracts/NFT_Demo/NFT.sol\":5959:5987  _transferOwnership(newOwner) */\n      tag_151\n        /* \"contracts/NFT_Demo/NFT.sol\":5978:5986  newOwner */\n      dup2\n        /* \"contracts/NFT_Demo/NFT.sol\":5959:5977  _transferOwnership */\n      tag_124\n        /* \"contracts/NFT_Demo/NFT.sol\":5959:5987  _transferOwnership(newOwner) */\n      jump\t// in\n    tag_151:\n        /* \"contracts/NFT_Demo/NFT.sol\":5762:5994  function transferOwnership(address newOwner) public virtual onlyOwner {... */\n      pop\n      jump\t// out\n        /* \"contracts/NFT_Demo/NFT.sol\":12433:12453  address public admin */\n    tag_91:\n      0x08\n      0x00\n      swap1\n      sload\n      swap1\n      0x0100\n      exp\n      swap1\n      div\n      0xffffffffffffffffffffffffffffffffffffffff\n      and\n      dup2\n      jump\t// out\n        /* \"contracts/NFT_Demo/NFT.sol\":10313:11176  function _safeTransferFrom(... */\n    tag_112:\n        /* \"contracts/NFT_Demo/NFT.sol\":10498:10503  _from */\n      dup4\n        /* \"contracts/NFT_Demo/NFT.sol\":10484:10503  msg.sender == _from */\n      0xffffffffffffffffffffffffffffffffffffffff\n      and\n        /* \"contracts/NFT_Demo/NFT.sol\":10484:10494  msg.sender */\n      caller\n        /* \"contracts/NFT_Demo/NFT.sol\":10484:10503  msg.sender == _from */\n      0xffffffffffffffffffffffffffffffffffffffff\n      and\n      eq\n        /* \"contracts/NFT_Demo/NFT.sol\":10463:10572  require(... */\n      tag_153\n      jumpi\n      mload(0x40)\n      0x08c379a000000000000000000000000000000000000000000000000000000000\n      dup2\n      mstore\n      0x04\n      add\n      tag_154\n      swap1\n      tag_103\n      jump\t// in\n    tag_154:\n      mload(0x40)\n      dup1\n      swap2\n      sub\n      swap1\n      revert\n    tag_153:\n        /* \"contracts/NFT_Demo/NFT.sol\":10612:10622  _idToOwner */\n      0x02\n        /* \"contracts/NFT_Demo/NFT.sol\":10612:10632  _idToOwner[_tokenId] */\n      0x00\n        /* \"contracts/NFT_Demo/NFT.sol\":10623:10631  _tokenId */\n      dup4\n        /* \"contracts/NFT_Demo/NFT.sol\":10612:10632  _idToOwner[_tokenId] */\n      dup2\n      mstore\n      0x20\n      add\n      swap1\n      dup2\n      mstore\n      0x20\n      add\n      0x00\n      keccak256\n      0x00\n      swap1\n      sload\n      swap1\n      0x0100\n      exp\n      swap1\n      div\n      0xffffffffffffffffffffffffffffffffffffffff\n      and\n        /* \"contracts/NFT_Demo/NFT.sol\":10603:10632  _from == _idToOwner[_tokenId] */\n      0xffffffffffffffffffffffffffffffffffffffff\n      and\n        /* \"contracts/NFT_Demo/NFT.sol\":10603:10608  _from */\n      dup5\n        /* \"contracts/NFT_Demo/NFT.sol\":10603:10632  _from == _idToOwner[_tokenId] */\n      0xffffffffffffffffffffffffffffffffffffffff\n      and\n      eq\n        /* \"contracts/NFT_Demo/NFT.sol\":10582:10701  require(... */\n      tag_155\n      jumpi\n      mload(0x40)\n      0x08c379a000000000000000000000000000000000000000000000000000000000\n      dup2\n      mstore\n      0x04\n      add\n      tag_156\n      swap1\n      tag_103\n      jump\t// in\n    tag_156:\n      mload(0x40)\n      dup1\n      swap2\n      sub\n      swap1\n      revert\n    tag_155:\n        /* \"contracts/NFT_Demo/NFT.sol\":10740:10741  1 */\n      0x01\n        /* \"contracts/NFT_Demo/NFT.sol\":10711:10729  _ownerToTokenCount */\n      dup1\n        /* \"contracts/NFT_Demo/NFT.sol\":10711:10736  _ownerToTokenCount[_from] */\n      0x00\n        /* \"contracts/NFT_Demo/NFT.sol\":10730:10735  _from */\n      dup7\n        /* \"contracts/NFT_Demo/NFT.sol\":10711:10736  _ownerToTokenCount[_from] */\n      0xffffffffffffffffffffffffffffffffffffffff\n      and\n      0xffffffffffffffffffffffffffffffffffffffff\n      and\n      dup2\n      mstore\n      0x20\n      add\n      swap1\n      dup2\n      mstore\n      0x20\n      add\n      0x00\n      keccak256\n      0x00\n        /* \"contracts/NFT_Demo/NFT.sol\":10711:10741  _ownerToTokenCount[_from] -= 1 */\n      dup3\n      dup3\n      sload\n      tag_157\n      swap2\n      swap1\n      tag_107\n      jump\t// in\n    tag_157:\n      swap3\n      pop\n      pop\n      dup2\n      swap1\n      sstore\n      pop\n        /* \"contracts/NFT_Demo/NFT.sol\":10778:10779  1 */\n      0x01\n        /* \"contracts/NFT_Demo/NFT.sol\":10751:10769  _ownerToTokenCount */\n      dup1\n        /* \"contracts/NFT_Demo/NFT.sol\":10751:10774  _ownerToTokenCount[_to] */\n      0x00\n        /* \"contracts/NFT_Demo/NFT.sol\":10770:10773  _to */\n      dup6\n        /* \"contracts/NFT_Demo/NFT.sol\":10751:10774  _ownerToTokenCount[_to] */\n      0xffffffffffffffffffffffffffffffffffffffff\n      and\n      0xffffffffffffffffffffffffffffffffffffffff\n      and\n      dup2\n      mstore\n      0x20\n      add\n      swap1\n      dup2\n      mstore\n      0x20\n      add\n      0x00\n      keccak256\n      0x00\n        /* \"contracts/NFT_Demo/NFT.sol\":10751:10779  _ownerToTokenCount[_to] += 1 */\n      dup3\n      dup3\n      sload\n      tag_158\n      swap2\n      swap1\n      tag_109\n      jump\t// in\n    tag_158:\n      swap3\n      pop\n      pop\n      dup2\n      swap1\n      sstore\n      pop\n        /* \"contracts/NFT_Demo/NFT.sol\":10815:10823  _tokenId */\n      dup2\n        /* \"contracts/NFT_Demo/NFT.sol\":10810:10813  _to */\n      dup4\n        /* \"contracts/NFT_Demo/NFT.sol\":10794:10824  Transfer(_from, _to, _tokenId) */\n      0xffffffffffffffffffffffffffffffffffffffff\n      and\n        /* \"contracts/NFT_Demo/NFT.sol\":10803:10808  _from */\n      dup6\n        /* \"contracts/NFT_Demo/NFT.sol\":10794:10824  Transfer(_from, _to, _tokenId) */\n      0xffffffffffffffffffffffffffffffffffffffff\n      and\n      0xddf252ad1be2c89b69c2b068fc378daa952ba7f163c4a11628f55a4df523b3ef\n      mload(0x40)\n      mload(0x40)\n      dup1\n      swap2\n      sub\n      swap1\n      log4\n        /* \"contracts/NFT_Demo/NFT.sol\":10838:10854  _to.isContract() */\n      tag_159\n        /* \"contracts/NFT_Demo/NFT.sol\":10838:10841  _to */\n      dup4\n        /* \"contracts/NFT_Demo/NFT.sol\":10838:10852  _to.isContract */\n      0xffffffffffffffffffffffffffffffffffffffff\n      and\n      tag_160\n        /* \"contracts/NFT_Demo/NFT.sol\":10838:10854  _to.isContract() */\n      jump\t// in\n    tag_159:\n        /* \"contracts/NFT_Demo/NFT.sol\":10834:11170  if (_to.isContract()) {... */\n      iszero\n      tag_161\n      jumpi\n        /* \"contracts/NFT_Demo/NFT.sol\":10870:10883  bytes4 retval */\n      0x00\n        /* \"contracts/NFT_Demo/NFT.sol\":10906:10909  _to */\n      dup4\n        /* \"contracts/NFT_Demo/NFT.sol\":10886:10927  ERC721TokenReceiver(_to).onERC721Received */\n      0xffffffffffffffffffffffffffffffffffffffff\n      and\n      0x150b7a02\n        /* \"contracts/NFT_Demo/NFT.sol\":10945:10955  msg.sender */\n      caller\n        /* \"contracts/NFT_Demo/NFT.sol\":10973:10978  _from */\n      dup8\n        /* \"contracts/NFT_Demo/NFT.sol\":10996:11004  _tokenId */\n      dup7\n        /* \"contracts/NFT_Demo/NFT.sol\":11022:11027  _data */\n      dup7\n        /* \"contracts/NFT_Demo/NFT.sol\":10886:11041  ERC721TokenReceiver(_to).onERC721Received(... */\n      mload(0x40)\n      dup6\n      0xffffffff\n      and\n      0xe0\n      shl\n      dup2\n      mstore\n      0x04\n      add\n      tag_162\n      swap5\n      swap4\n      swap3\n      swap2\n      swap1\n      tag_163\n      jump\t// in\n    tag_162:\n      0x20\n      mload(0x40)\n      dup1\n      dup4\n      sub\n      dup2\n      0x00\n      dup8\n      gas\n      call\n      iszero\n      dup1\n      iszero\n      tag_165\n      jumpi\n      returndatasize\n      0x00\n      dup1\n      returndatacopy\n      revert(0x00, returndatasize)\n    tag_165:\n      pop\n      pop\n      pop\n      pop\n      mload(0x40)\n      returndatasize\n      not(0x1f)\n      0x1f\n      dup3\n      add\n      and\n      dup3\n      add\n      dup1\n      0x40\n      mstore\n      pop\n      dup2\n      add\n      swap1\n      tag_166\n      swap2\n      swap1\n      tag_167\n      jump\t// in\n    tag_166:\n        /* \"contracts/NFT_Demo/NFT.sol\":10870:11041  bytes4 retval = ERC721TokenReceiver(_to).onERC721Received(... */\n      swap1\n      pop\n        /* \"contracts/NFT_Demo/NFT.sol\":10856:11170  {... */\n      pop\n        /* \"contracts/NFT_Demo/NFT.sol\":10834:11170  if (_to.isContract()) {... */\n    tag_161:\n        /* \"contracts/NFT_Demo/NFT.sol\":10313:11176  function _safeTransferFrom(... */\n      pop\n      pop\n      pop\n      pop\n      jump\t// out\n        /* \"contracts/NFT_Demo/NFT.sol\":99:195  function _msgSender() internal view virtual returns (address) {... */\n    tag_117:\n        /* \"contracts/NFT_Demo/NFT.sol\":152:159  address */\n      0x00\n        /* \"contracts/NFT_Demo/NFT.sol\":178:188  msg.sender */\n      caller\n        /* \"contracts/NFT_Demo/NFT.sol\":171:188  return msg.sender */\n      swap1\n      pop\n        /* \"contracts/NFT_Demo/NFT.sol\":99:195  function _msgSender() internal view virtual returns (address) {... */\n      swap1\n      jump\t// out\n        /* \"contracts/NFT_Demo/NFT.sol\":6148:6335  function _transferOwnership(address newOwner) internal virtual {... */\n    tag_124:\n        /* \"contracts/NFT_Demo/NFT.sol\":6221:6237  address oldOwner */\n      0x00\n        /* \"contracts/NFT_Demo/NFT.sol\":6240:6246  _owner */\n      dup1\n      0x00\n      swap1\n      sload\n      swap1\n      0x0100\n      exp\n      swap1\n      div\n      0xffffffffffffffffffffffffffffffffffffffff\n      and\n        /* \"contracts/NFT_Demo/NFT.sol\":6221:6246  address oldOwner = _owner */\n      swap1\n      pop\n        /* \"contracts/NFT_Demo/NFT.sol\":6265:6273  newOwner */\n      dup2\n        /* \"contracts/NFT_Demo/NFT.sol\":6256:6262  _owner */\n      0x00\n      dup1\n        /* \"contracts/NFT_Demo/NFT.sol\":6256:6273  _owner = newOwner */\n      0x0100\n      exp\n      dup2\n      sload\n      dup2\n      0xffffffffffffffffffffffffffffffffffffffff\n      mul\n      not\n      and\n      swap1\n      dup4\n      0xffffffffffffffffffffffffffffffffffffffff\n      and\n      mul\n      or\n      swap1\n      sstore\n      pop\n        /* \"contracts/NFT_Demo/NFT.sol\":6319:6327  newOwner */\n      dup2\n        /* \"contracts/NFT_Demo/NFT.sol\":6288:6328  OwnershipTransferred(oldOwner, newOwner) */\n      0xffffffffffffffffffffffffffffffffffffffff\n      and\n        /* \"contracts/NFT_Demo/NFT.sol\":6309:6317  oldOwner */\n      dup2\n        /* \"contracts/NFT_Demo/NFT.sol\":6288:6328  OwnershipTransferred(oldOwner, newOwner) */\n      0xffffffffffffffffffffffffffffffffffffffff\n      and\n      0x8be0079c531659141344cd1fd0a4f28419497f9722a3daafe3b4186f6b6457e0\n      mload(0x40)\n      mload(0x40)\n      dup1\n      swap2\n      sub\n      swap1\n      log3\n        /* \"contracts/NFT_Demo/NFT.sol\":6211:6335  {... */\n      pop\n        /* \"contracts/NFT_Demo/NFT.sol\":6148:6335  function _transferOwnership(address newOwner) internal virtual {... */\n      pop\n      jump\t// out\n        /* \"contracts/NFT_Demo/NFT.sol\":11354:11872  function _transfer(... */\n    tag_129:\n        /* \"contracts/NFT_Demo/NFT.sol\":11508:11509  0 */\n      0x00\n        /* \"contracts/NFT_Demo/NFT.sol\":11490:11510  sender != address(0) */\n      0xffffffffffffffffffffffffffffffffffffffff\n      and\n        /* \"contracts/NFT_Demo/NFT.sol\":11490:11496  sender */\n      dup4\n        /* \"contracts/NFT_Demo/NFT.sol\":11490:11510  sender != address(0) */\n      0xffffffffffffffffffffffffffffffffffffffff\n      and\n      sub\n        /* \"contracts/NFT_Demo/NFT.sol\":11482:11553  require(sender != address(0), \"ERC721: transfer from the zero address\") */\n      tag_171\n      jumpi\n      mload(0x40)\n      0x08c379a000000000000000000000000000000000000000000000000000000000\n      dup2\n      mstore\n      0x04\n      add\n      tag_172\n      swap1\n      tag_173\n      jump\t// in\n    tag_172:\n      mload(0x40)\n      dup1\n      swap2\n      sub\n      swap1\n      revert\n    tag_171:\n        /* \"contracts/NFT_Demo/NFT.sol\":11605:11606  0 */\n      0x00\n        /* \"contracts/NFT_Demo/NFT.sol\":11584:11607  recipient != address(0) */\n      0xffffffffffffffffffffffffffffffffffffffff\n      and\n        /* \"contracts/NFT_Demo/NFT.sol\":11584:11593  recipient */\n      dup3\n        /* \"contracts/NFT_Demo/NFT.sol\":11584:11607  recipient != address(0) */\n      0xffffffffffffffffffffffffffffffffffffffff\n      and\n      sub\n        /* \"contracts/NFT_Demo/NFT.sol\":11563:11669  require(... */\n      tag_174\n      jumpi\n      mload(0x40)\n      0x08c379a000000000000000000000000000000000000000000000000000000000\n      dup2\n      mstore\n      0x04\n      add\n      tag_175\n      swap1\n      tag_176\n      jump\t// in\n    tag_175:\n      mload(0x40)\n      dup1\n      swap2\n      sub\n      swap1\n      revert\n    tag_174:\n        /* \"contracts/NFT_Demo/NFT.sol\":11680:11728  _beforeTokenTransfer(sender, recipient, tokenId) */\n      tag_177\n        /* \"contracts/NFT_Demo/NFT.sol\":11701:11707  sender */\n      dup4\n        /* \"contracts/NFT_Demo/NFT.sol\":11709:11718  recipient */\n      dup4\n        /* \"contracts/NFT_Demo/NFT.sol\":11720:11727  tokenId */\n      dup4\n        /* \"contracts/NFT_Demo/NFT.sol\":11680:11700  _beforeTokenTransfer */\n      tag_178\n        /* \"contracts/NFT_Demo/NFT.sol\":11680:11728  _beforeTokenTransfer(sender, recipient, tokenId) */\n      jump\t// in\n    tag_177:\n        /* \"contracts/NFT_Demo/NFT.sol\":11761:11770  recipient */\n      dup2\n        /* \"contracts/NFT_Demo/NFT.sol\":11739:11749  _idToOwner */\n      0x02\n        /* \"contracts/NFT_Demo/NFT.sol\":11739:11758  _idToOwner[tokenId] */\n      0x00\n        /* \"contracts/NFT_Demo/NFT.sol\":11750:11757  tokenId */\n      dup4\n        /* \"contracts/NFT_Demo/NFT.sol\":11739:11758  _idToOwner[tokenId] */\n      dup2\n      mstore\n      0x20\n      add\n      swap1\n      dup2\n      mstore\n      0x20\n      add\n      0x00\n      keccak256\n      0x00\n        /* \"contracts/NFT_Demo/NFT.sol\":11739:11770  _idToOwner[tokenId] = recipient */\n      0x0100\n      exp\n      dup2\n      sload\n      dup2\n      0xffffffffffffffffffffffffffffffffffffffff\n      mul\n      not\n      and\n      swap1\n      dup4\n      0xffffffffffffffffffffffffffffffffffffffff\n      and\n      mul\n      or\n      swap1\n      sstore\n      pop\n        /* \"contracts/NFT_Demo/NFT.sol\":11813:11814  1 */\n      0x01\n        /* \"contracts/NFT_Demo/NFT.sol\":11780:11798  _ownerToTokenCount */\n      dup1\n        /* \"contracts/NFT_Demo/NFT.sol\":11780:11809  _ownerToTokenCount[recipient] */\n      0x00\n        /* \"contracts/NFT_Demo/NFT.sol\":11799:11808  recipient */\n      dup5\n        /* \"contracts/NFT_Demo/NFT.sol\":11780:11809  _ownerToTokenCount[recipient] */\n      0xffffffffffffffffffffffffffffffffffffffff\n      and\n      0xffffffffffffffffffffffffffffffffffffffff\n      and\n      dup2\n      mstore\n      0x20\n      add\n      swap1\n      dup2\n      mstore\n      0x20\n      add\n      0x00\n      keccak256\n      0x00\n        /* \"contracts/NFT_Demo/NFT.sol\":11780:11814  _ownerToTokenCount[recipient] += 1 */\n      dup3\n      dup3\n      sload\n      tag_179\n      swap2\n      swap1\n      tag_109\n      jump\t// in\n    tag_179:\n      swap3\n      pop\n      pop\n      dup2\n      swap1\n      sstore\n      pop\n        /* \"contracts/NFT_Demo/NFT.sol\":11857:11864  tokenId */\n      dup1\n        /* \"contracts/NFT_Demo/NFT.sol\":11846:11855  recipient */\n      dup3\n        /* \"contracts/NFT_Demo/NFT.sol\":11829:11865  Transfer(sender, recipient, tokenId) */\n      0xffffffffffffffffffffffffffffffffffffffff\n      and\n        /* \"contracts/NFT_Demo/NFT.sol\":11838:11844  sender */\n      dup5\n        /* \"contracts/NFT_Demo/NFT.sol\":11829:11865  Transfer(sender, recipient, tokenId) */\n      0xffffffffffffffffffffffffffffffffffffffff\n      and\n      0xddf252ad1be2c89b69c2b068fc378daa952ba7f163c4a11628f55a4df523b3ef\n      mload(0x40)\n      mload(0x40)\n      dup1\n      swap2\n      sub\n      swap1\n      log4\n        /* \"contracts/NFT_Demo/NFT.sol\":11354:11872  function _transfer(... */\n      pop\n      pop\n      pop\n      jump\t// out\n        /* \"contracts/NFT_Demo/NFT.sol\":8725:8951  function _mint(address _owner, uint256 _tokenId) internal {... */\n    tag_139:\n        /* \"contracts/NFT_Demo/NFT.sol\":8833:8834  0 */\n      0x00\n        /* \"contracts/NFT_Demo/NFT.sol\":8801:8835  _idToOwner[_tokenId] == address(0) */\n      0xffffffffffffffffffffffffffffffffffffffff\n      and\n        /* \"contracts/NFT_Demo/NFT.sol\":8801:8811  _idToOwner */\n      0x02\n        /* \"contracts/NFT_Demo/NFT.sol\":8801:8821  _idToOwner[_tokenId] */\n      0x00\n        /* \"contracts/NFT_Demo/NFT.sol\":8812:8820  _tokenId */\n      dup4\n        /* \"contracts/NFT_Demo/NFT.sol\":8801:8821  _idToOwner[_tokenId] */\n      dup2\n      mstore\n      0x20\n      add\n      swap1\n      dup2\n      mstore\n      0x20\n      add\n      0x00\n      keccak256\n      0x00\n      swap1\n      sload\n      swap1\n      0x0100\n      exp\n      swap1\n      div\n      0xffffffffffffffffffffffffffffffffffffffff\n      and\n        /* \"contracts/NFT_Demo/NFT.sol\":8801:8835  _idToOwner[_tokenId] == address(0) */\n      0xffffffffffffffffffffffffffffffffffffffff\n      and\n      eq\n        /* \"contracts/NFT_Demo/NFT.sol\":8793:8864  require(_idToOwner[_tokenId] == address(0), \"this token already exist\") */\n      tag_181\n      jumpi\n      mload(0x40)\n      0x08c379a000000000000000000000000000000000000000000000000000000000\n      dup2\n      mstore\n      0x04\n      add\n      tag_182\n      swap1\n      tag_183\n      jump\t// in\n    tag_182:\n      mload(0x40)\n      dup1\n      swap2\n      sub\n      swap1\n      revert\n    tag_181:\n        /* \"contracts/NFT_Demo/NFT.sol\":8897:8903  _owner */\n      dup2\n        /* \"contracts/NFT_Demo/NFT.sol\":8874:8884  _idToOwner */\n      0x02\n        /* \"contracts/NFT_Demo/NFT.sol\":8874:8894  _idToOwner[_tokenId] */\n      0x00\n        /* \"contracts/NFT_Demo/NFT.sol\":8885:8893  _tokenId */\n      dup4\n        /* \"contracts/NFT_Demo/NFT.sol\":8874:8894  _idToOwner[_tokenId] */\n      dup2\n      mstore\n      0x20\n      add\n      swap1\n      dup2\n      mstore\n      0x20\n      add\n      0x00\n      keccak256\n      0x00\n        /* \"contracts/NFT_Demo/NFT.sol\":8874:8903  _idToOwner[_tokenId] = _owner */\n      0x0100\n      exp\n      dup2\n      sload\n      dup2\n      0xffffffffffffffffffffffffffffffffffffffff\n      mul\n      not\n      and\n      swap1\n      dup4\n      0xffffffffffffffffffffffffffffffffffffffff\n      and\n      mul\n      or\n      swap1\n      sstore\n      pop\n        /* \"contracts/NFT_Demo/NFT.sol\":8943:8944  1 */\n      0x01\n        /* \"contracts/NFT_Demo/NFT.sol\":8913:8931  _ownerToTokenCount */\n      dup1\n        /* \"contracts/NFT_Demo/NFT.sol\":8913:8939  _ownerToTokenCount[_owner] */\n      0x00\n        /* \"contracts/NFT_Demo/NFT.sol\":8932:8938  _owner */\n      dup5\n        /* \"contracts/NFT_Demo/NFT.sol\":8913:8939  _ownerToTokenCount[_owner] */\n      0xffffffffffffffffffffffffffffffffffffffff\n      and\n      0xffffffffffffffffffffffffffffffffffffffff\n      and\n      dup2\n      mstore\n      0x20\n      add\n      swap1\n      dup2\n      mstore\n      0x20\n      add\n      0x00\n      keccak256\n      0x00\n        /* \"contracts/NFT_Demo/NFT.sol\":8913:8944  _ownerToTokenCount[_owner] += 1 */\n      dup3\n      dup3\n      sload\n      tag_184\n      swap2\n      swap1\n      tag_109\n      jump\t// in\n    tag_184:\n      swap3\n      pop\n      pop\n      dup2\n      swap1\n      sstore\n      pop\n        /* \"contracts/NFT_Demo/NFT.sol\":8725:8951  function _mint(address _owner, uint256 _tokenId) internal {... */\n      pop\n      pop\n      jump\t// out\n        /* \"contracts/NFT_Demo/NFT.sol\":326:646  function isContract(address account) internal view returns (bool) {... */\n    tag_160:\n        /* \"contracts/NFT_Demo/NFT.sol\":386:390  bool */\n      0x00\n        /* \"contracts/NFT_Demo/NFT.sol\":638:639  0 */\n      dup1\n        /* \"contracts/NFT_Demo/NFT.sol\":616:623  account */\n      dup3\n        /* \"contracts/NFT_Demo/NFT.sol\":616:635  account.code.length */\n      0xffffffffffffffffffffffffffffffffffffffff\n      and\n      extcodesize\n        /* \"contracts/NFT_Demo/NFT.sol\":616:639  account.code.length > 0 */\n      gt\n        /* \"contracts/NFT_Demo/NFT.sol\":609:639  return account.code.length > 0 */\n      swap1\n      pop\n        /* \"contracts/NFT_Demo/NFT.sol\":326:646  function isContract(address account) internal view returns (bool) {... */\n      swap2\n      swap1\n      pop\n      jump\t// out\n        /* \"contracts/NFT_Demo/NFT.sol\":11878:12121  function _beforeTokenTransfer(... */\n    tag_178:\n        /* \"contracts/NFT_Demo/NFT.sol\":12052:12056  from */\n      dup3\n        /* \"contracts/NFT_Demo/NFT.sol\":12029:12056  _idToOwner[tokenId] == from */\n      0xffffffffffffffffffffffffffffffffffffffff\n      and\n        /* \"contracts/NFT_Demo/NFT.sol\":12029:12039  _idToOwner */\n      0x02\n        /* \"contracts/NFT_Demo/NFT.sol\":12029:12048  _idToOwner[tokenId] */\n      0x00\n        /* \"contracts/NFT_Demo/NFT.sol\":12040:12047  tokenId */\n      dup4\n        /* \"contracts/NFT_Demo/NFT.sol\":12029:12048  _idToOwner[tokenId] */\n      dup2\n      mstore\n      0x20\n      add\n      swap1\n      dup2\n      mstore\n      0x20\n      add\n      0x00\n      keccak256\n      0x00\n      swap1\n      sload\n      swap1\n      0x0100\n      exp\n      swap1\n      div\n      0xffffffffffffffffffffffffffffffffffffffff\n      and\n        /* \"contracts/NFT_Demo/NFT.sol\":12029:12056  _idToOwner[tokenId] == from */\n      0xffffffffffffffffffffffffffffffffffffffff\n      and\n      eq\n        /* \"contracts/NFT_Demo/NFT.sol\":12008:12114  require(... */\n      tag_187\n      jumpi\n      mload(0x40)\n      0x08c379a000000000000000000000000000000000000000000000000000000000\n      dup2\n      mstore\n      0x04\n      add\n      tag_188\n      swap1\n      tag_189\n      jump\t// in\n    tag_188:\n      mload(0x40)\n      dup1\n      swap2\n      sub\n      swap1\n      revert\n    tag_187:\n        /* \"contracts/NFT_Demo/NFT.sol\":11878:12121  function _beforeTokenTransfer(... */\n      pop\n      pop\n      pop\n      jump\t// out\n    tag_137:\n      dup3\n      dup1\n      sload\n      tag_190\n      swap1\n      tag_94\n      jump\t// in\n    tag_190:\n      swap1\n      0x00\n      mstore\n      keccak256(0x00, 0x20)\n      swap1\n      0x1f\n      add\n      0x20\n      swap1\n      div\n      dup2\n      add\n      swap3\n      dup3\n      tag_192\n      jumpi\n      0x00\n      dup6\n      sstore\n      jump(tag_191)\n    tag_192:\n      dup3\n      0x1f\n      lt\n      tag_193\n      jumpi\n      dup1\n      mload\n      not(0xff)\n      and\n      dup4\n      dup1\n      add\n      or\n      dup6\n      sstore\n      jump(tag_191)\n    tag_193:\n      dup3\n      dup1\n      add\n      0x01\n      add\n      dup6\n      sstore\n      dup3\n      iszero\n      tag_191\n      jumpi\n      swap2\n      dup3\n      add\n    tag_194:\n      dup3\n      dup2\n      gt\n      iszero\n      tag_195\n      jumpi\n      dup3\n      mload\n      dup3\n      sstore\n      swap2\n      0x20\n      add\n      swap2\n      swap1\n      0x01\n      add\n      swap1\n      jump(tag_194)\n    tag_195:\n    tag_191:\n      pop\n      swap1\n      pop\n      tag_196\n      swap2\n      swap1\n      tag_197\n      jump\t// in\n    tag_196:\n      pop\n      swap1\n      jump\t// out\n    tag_197:\n    tag_198:\n      dup1\n      dup3\n      gt\n      iszero\n      tag_199\n      jumpi\n      0x00\n      dup2\n      0x00\n      swap1\n      sstore\n      pop\n      0x01\n      add\n      jump(tag_198)\n    tag_199:\n      pop\n      swap1\n      jump\t// out\n        /* \"#utility.yul\":7:82   */\n    tag_200:\n        /* \"#utility.yul\":40:46   */\n      0x00\n        /* \"#utility.yul\":73:75   */\n      0x40\n        /* \"#utility.yul\":67:76   */\n      mload\n        /* \"#utility.yul\":57:76   */\n      swap1\n      pop\n        /* \"#utility.yul\":7:82   */\n      swap1\n      jump\t// out\n        /* \"#utility.yul\":88:205   */\n    tag_201:\n        /* \"#utility.yul\":197:198   */\n      0x00\n        /* \"#utility.yul\":194:195   */\n      dup1\n        /* \"#utility.yul\":187:199   */\n      revert\n        /* \"#utility.yul\":211:328   */\n    tag_202:\n        /* \"#utility.yul\":320:321   */\n      0x00\n        /* \"#utility.yul\":317:318   */\n      dup1\n        /* \"#utility.yul\":310:322   */\n      revert\n        /* \"#utility.yul\":334:411   */\n    tag_203:\n        /* \"#utility.yul\":371:378   */\n      0x00\n        /* \"#utility.yul\":400:405   */\n      dup2\n        /* \"#utility.yul\":389:405   */\n      swap1\n      pop\n        /* \"#utility.yul\":334:411   */\n      swap2\n      swap1\n      pop\n      jump\t// out\n        /* \"#utility.yul\":417:539   */\n    tag_204:\n        /* \"#utility.yul\":490:514   */\n      tag_265\n        /* \"#utility.yul\":508:513   */\n      dup2\n        /* \"#utility.yul\":490:514   */\n      tag_203\n      jump\t// in\n    tag_265:\n        /* \"#utility.yul\":483:488   */\n      dup2\n        /* \"#utility.yul\":480:515   */\n      eq\n        /* \"#utility.yul\":470:533   */\n      tag_266\n      jumpi\n        /* \"#utility.yul\":529:530   */\n      0x00\n        /* \"#utility.yul\":526:527   */\n      dup1\n        /* \"#utility.yul\":519:531   */\n      revert\n        /* \"#utility.yul\":470:533   */\n    tag_266:\n        /* \"#utility.yul\":417:539   */\n      pop\n      jump\t// out\n        /* \"#utility.yul\":545:684   */\n    tag_205:\n        /* \"#utility.yul\":591:596   */\n      0x00\n        /* \"#utility.yul\":629:635   */\n      dup2\n        /* \"#utility.yul\":616:636   */\n      calldataload\n        /* \"#utility.yul\":607:636   */\n      swap1\n      pop\n        /* \"#utility.yul\":645:678   */\n      tag_268\n        /* \"#utility.yul\":672:677   */\n      dup2\n        /* \"#utility.yul\":645:678   */\n      tag_204\n      jump\t// in\n    tag_268:\n        /* \"#utility.yul\":545:684   */\n      swap3\n      swap2\n      pop\n      pop\n      jump\t// out\n        /* \"#utility.yul\":690:1019   */\n    tag_23:\n        /* \"#utility.yul\":749:755   */\n      0x00\n        /* \"#utility.yul\":798:800   */\n      0x20\n        /* \"#utility.yul\":786:795   */\n      dup3\n        /* \"#utility.yul\":777:784   */\n      dup5\n        /* \"#utility.yul\":773:796   */\n      sub\n        /* \"#utility.yul\":769:801   */\n      slt\n        /* \"#utility.yul\":766:885   */\n      iszero\n      tag_270\n      jumpi\n        /* \"#utility.yul\":804:883   */\n      tag_271\n      tag_201\n      jump\t// in\n    tag_271:\n        /* \"#utility.yul\":766:885   */\n    tag_270:\n        /* \"#utility.yul\":924:925   */\n      0x00\n        /* \"#utility.yul\":949:1002   */\n      tag_272\n        /* \"#utility.yul\":994:1001   */\n      dup5\n        /* \"#utility.yul\":985:991   */\n      dup3\n        /* \"#utility.yul\":974:983   */\n      dup6\n        /* \"#utility.yul\":970:992   */\n      add\n        /* \"#utility.yul\":949:1002   */\n      tag_205\n      jump\t// in\n    tag_272:\n        /* \"#utility.yul\":939:1002   */\n      swap2\n      pop\n        /* \"#utility.yul\":895:1012   */\n      pop\n        /* \"#utility.yul\":690:1019   */\n      swap3\n      swap2\n      pop\n      pop\n      jump\t// out\n        /* \"#utility.yul\":1025:1124   */\n    tag_206:\n        /* \"#utility.yul\":1077:1083   */\n      0x00\n        /* \"#utility.yul\":1111:1116   */\n      dup2\n        /* \"#utility.yul\":1105:1117   */\n      mload\n        /* \"#utility.yul\":1095:1117   */\n      swap1\n      pop\n        /* \"#utility.yul\":1025:1124   */\n      swap2\n      swap1\n      pop\n      jump\t// out\n        /* \"#utility.yul\":1130:1299   */\n    tag_207:\n        /* \"#utility.yul\":1214:1225   */\n      0x00\n        /* \"#utility.yul\":1248:1254   */\n      dup3\n        /* \"#utility.yul\":1243:1246   */\n      dup3\n        /* \"#utility.yul\":1236:1255   */\n      mstore\n        /* \"#utility.yul\":1288:1292   */\n      0x20\n        /* \"#utility.yul\":1283:1286   */\n      dup3\n        /* \"#utility.yul\":1279:1293   */\n      add\n        /* \"#utility.yul\":1264:1293   */\n      swap1\n      pop\n        /* \"#utility.yul\":1130:1299   */\n      swap3\n      swap2\n      pop\n      pop\n      jump\t// out\n        /* \"#utility.yul\":1305:1612   */\n    tag_208:\n        /* \"#utility.yul\":1373:1374   */\n      0x00\n        /* \"#utility.yul\":1383:1496   */\n    tag_276:\n        /* \"#utility.yul\":1397:1403   */\n      dup4\n        /* \"#utility.yul\":1394:1395   */\n      dup2\n        /* \"#utility.yul\":1391:1404   */\n      lt\n        /* \"#utility.yul\":1383:1496   */\n      iszero\n      tag_278\n      jumpi\n        /* \"#utility.yul\":1482:1483   */\n      dup1\n        /* \"#utility.yul\":1477:1480   */\n      dup3\n        /* \"#utility.yul\":1473:1484   */\n      add\n        /* \"#utility.yul\":1467:1485   */\n      mload\n        /* \"#utility.yul\":1463:1464   */\n      dup2\n        /* \"#utility.yul\":1458:1461   */\n      dup5\n        /* \"#utility.yul\":1454:1465   */\n      add\n        /* \"#utility.yul\":1447:1486   */\n      mstore\n        /* \"#utility.yul\":1419:1421   */\n      0x20\n        /* \"#utility.yul\":1416:1417   */\n      dup2\n        /* \"#utility.yul\":1412:1422   */\n      add\n        /* \"#utility.yul\":1407:1422   */\n      swap1\n      pop\n        /* \"#utility.yul\":1383:1496   */\n      jump(tag_276)\n    tag_278:\n        /* \"#utility.yul\":1514:1520   */\n      dup4\n        /* \"#utility.yul\":1511:1512   */\n      dup2\n        /* \"#utility.yul\":1508:1521   */\n      gt\n        /* \"#utility.yul\":1505:1606   */\n      iszero\n      tag_279\n      jumpi\n        /* \"#utility.yul\":1594:1595   */\n      0x00\n        /* \"#utility.yul\":1585:1591   */\n      dup5\n        /* \"#utility.yul\":1580:1583   */\n      dup5\n        /* \"#utility.yul\":1576:1592   */\n      add\n        /* \"#utility.yul\":1569:1596   */\n      mstore\n        /* \"#utility.yul\":1505:1606   */\n    tag_279:\n        /* \"#utility.yul\":1354:1612   */\n      pop\n        /* \"#utility.yul\":1305:1612   */\n      pop\n      pop\n      pop\n      jump\t// out\n        /* \"#utility.yul\":1618:1720   */\n    tag_209:\n        /* \"#utility.yul\":1659:1665   */\n      0x00\n        /* \"#utility.yul\":1710:1712   */\n      0x1f\n        /* \"#utility.yul\":1706:1713   */\n      not\n        /* \"#utility.yul\":1701:1703   */\n      0x1f\n        /* \"#utility.yul\":1694:1699   */\n      dup4\n        /* \"#utility.yul\":1690:1704   */\n      add\n        /* \"#utility.yul\":1686:1714   */\n      and\n        /* \"#utility.yul\":1676:1714   */\n      swap1\n      pop\n        /* \"#utility.yul\":1618:1720   */\n      swap2\n      swap1\n      pop\n      jump\t// out\n        /* \"#utility.yul\":1726:2090   */\n    tag_210:\n        /* \"#utility.yul\":1814:1817   */\n      0x00\n        /* \"#utility.yul\":1842:1881   */\n      tag_282\n        /* \"#utility.yul\":1875:1880   */\n      dup3\n        /* \"#utility.yul\":1842:1881   */\n      tag_206\n      jump\t// in\n    tag_282:\n        /* \"#utility.yul\":1897:1968   */\n      tag_283\n        /* \"#utility.yul\":1961:1967   */\n      dup2\n        /* \"#utility.yul\":1956:1959   */\n      dup6\n        /* \"#utility.yul\":1897:1968   */\n      tag_207\n      jump\t// in\n    tag_283:\n        /* \"#utility.yul\":1890:1968   */\n      swap4\n      pop\n        /* \"#utility.yul\":1977:2029   */\n      tag_284\n        /* \"#utility.yul\":2022:2028   */\n      dup2\n        /* \"#utility.yul\":2017:2020   */\n      dup6\n        /* \"#utility.yul\":2010:2014   */\n      0x20\n        /* \"#utility.yul\":2003:2008   */\n      dup7\n        /* \"#utility.yul\":1999:2015   */\n      add\n        /* \"#utility.yul\":1977:2029   */\n      tag_208\n      jump\t// in\n    tag_284:\n        /* \"#utility.yul\":2054:2083   */\n      tag_285\n        /* \"#utility.yul\":2076:2082   */\n      dup2\n        /* \"#utility.yul\":2054:2083   */\n      tag_209\n      jump\t// in\n    tag_285:\n        /* \"#utility.yul\":2049:2052   */\n      dup5\n        /* \"#utility.yul\":2045:2084   */\n      add\n        /* \"#utility.yul\":2038:2084   */\n      swap2\n      pop\n        /* \"#utility.yul\":1818:2090   */\n      pop\n        /* \"#utility.yul\":1726:2090   */\n      swap3\n      swap2\n      pop\n      pop\n      jump\t// out\n        /* \"#utility.yul\":2096:2409   */\n    tag_26:\n        /* \"#utility.yul\":2209:2213   */\n      0x00\n        /* \"#utility.yul\":2247:2249   */\n      0x20\n        /* \"#utility.yul\":2236:2245   */\n      dup3\n        /* \"#utility.yul\":2232:2250   */\n      add\n        /* \"#utility.yul\":2224:2250   */\n      swap1\n      pop\n        /* \"#utility.yul\":2296:2305   */\n      dup2\n        /* \"#utility.yul\":2290:2294   */\n      dup2\n        /* \"#utility.yul\":2286:2306   */\n      sub\n        /* \"#utility.yul\":2282:2283   */\n      0x00\n        /* \"#utility.yul\":2271:2280   */\n      dup4\n        /* \"#utility.yul\":2267:2284   */\n      add\n        /* \"#utility.yul\":2260:2307   */\n      mstore\n        /* \"#utility.yul\":2324:2402   */\n      tag_287\n        /* \"#utility.yul\":2397:2401   */\n      dup2\n        /* \"#utility.yul\":2388:2394   */\n      dup5\n        /* \"#utility.yul\":2324:2402   */\n      tag_210\n      jump\t// in\n    tag_287:\n        /* \"#utility.yul\":2316:2402   */\n      swap1\n      pop\n        /* \"#utility.yul\":2096:2409   */\n      swap3\n      swap2\n      pop\n      pop\n      jump\t// out\n        /* \"#utility.yul\":2415:2541   */\n    tag_211:\n        /* \"#utility.yul\":2452:2459   */\n      0x00\n        /* \"#utility.yul\":2492:2534   */\n      0xffffffffffffffffffffffffffffffffffffffff\n        /* \"#utility.yul\":2485:2490   */\n      dup3\n        /* \"#utility.yul\":2481:2535   */\n      and\n        /* \"#utility.yul\":2470:2535   */\n      swap1\n      pop\n        /* \"#utility.yul\":2415:2541   */\n      swap2\n      swap1\n      pop\n      jump\t// out\n        /* \"#utility.yul\":2547:2643   */\n    tag_212:\n        /* \"#utility.yul\":2584:2591   */\n      0x00\n        /* \"#utility.yul\":2613:2637   */\n      tag_290\n        /* \"#utility.yul\":2631:2636   */\n      dup3\n        /* \"#utility.yul\":2613:2637   */\n      tag_211\n      jump\t// in\n    tag_290:\n        /* \"#utility.yul\":2602:2637   */\n      swap1\n      pop\n        /* \"#utility.yul\":2547:2643   */\n      swap2\n      swap1\n      pop\n      jump\t// out\n        /* \"#utility.yul\":2649:2771   */\n    tag_213:\n        /* \"#utility.yul\":2722:2746   */\n      tag_292\n        /* \"#utility.yul\":2740:2745   */\n      dup2\n        /* \"#utility.yul\":2722:2746   */\n      tag_212\n      jump\t// in\n    tag_292:\n        /* \"#utility.yul\":2715:2720   */\n      dup2\n        /* \"#utility.yul\":2712:2747   */\n      eq\n        /* \"#utility.yul\":2702:2765   */\n      tag_293\n      jumpi\n        /* \"#utility.yul\":2761:2762   */\n      0x00\n        /* \"#utility.yul\":2758:2759   */\n      dup1\n        /* \"#utility.yul\":2751:2763   */\n      revert\n        /* \"#utility.yul\":2702:2765   */\n    tag_293:\n        /* \"#utility.yul\":2649:2771   */\n      pop\n      jump\t// out\n        /* \"#utility.yul\":2777:2916   */\n    tag_214:\n        /* \"#utility.yul\":2823:2828   */\n      0x00\n        /* \"#utility.yul\":2861:2867   */\n      dup2\n        /* \"#utility.yul\":2848:2868   */\n      calldataload\n        /* \"#utility.yul\":2839:2868   */\n      swap1\n      pop\n        /* \"#utility.yul\":2877:2910   */\n      tag_295\n        /* \"#utility.yul\":2904:2909   */\n      dup2\n        /* \"#utility.yul\":2877:2910   */\n      tag_213\n      jump\t// in\n    tag_295:\n        /* \"#utility.yul\":2777:2916   */\n      swap3\n      swap2\n      pop\n      pop\n      jump\t// out\n        /* \"#utility.yul\":2922:3039   */\n    tag_215:\n        /* \"#utility.yul\":3031:3032   */\n      0x00\n        /* \"#utility.yul\":3028:3029   */\n      dup1\n        /* \"#utility.yul\":3021:3033   */\n      revert\n        /* \"#utility.yul\":3045:3162   */\n    tag_216:\n        /* \"#utility.yul\":3154:3155   */\n      0x00\n        /* \"#utility.yul\":3151:3152   */\n      dup1\n        /* \"#utility.yul\":3144:3156   */\n      revert\n        /* \"#utility.yul\":3168:3285   */\n    tag_217:\n        /* \"#utility.yul\":3277:3278   */\n      0x00\n        /* \"#utility.yul\":3274:3275   */\n      dup1\n        /* \"#utility.yul\":3267:3279   */\n      revert\n        /* \"#utility.yul\":3304:3856   */\n    tag_218:\n        /* \"#utility.yul\":3361:3369   */\n      0x00\n        /* \"#utility.yul\":3371:3377   */\n      dup1\n        /* \"#utility.yul\":3421:3424   */\n      dup4\n        /* \"#utility.yul\":3414:3418   */\n      0x1f\n        /* \"#utility.yul\":3406:3412   */\n      dup5\n        /* \"#utility.yul\":3402:3419   */\n      add\n        /* \"#utility.yul\":3398:3425   */\n      slt\n        /* \"#utility.yul\":3388:3510   */\n      tag_300\n      jumpi\n        /* \"#utility.yul\":3429:3508   */\n      tag_301\n      tag_215\n      jump\t// in\n    tag_301:\n        /* \"#utility.yul\":3388:3510   */\n    tag_300:\n        /* \"#utility.yul\":3542:3548   */\n      dup3\n        /* \"#utility.yul\":3529:3549   */\n      calldataload\n        /* \"#utility.yul\":3519:3549   */\n      swap1\n      pop\n        /* \"#utility.yul\":3572:3590   */\n      0xffffffffffffffff\n        /* \"#utility.yul\":3564:3570   */\n      dup2\n        /* \"#utility.yul\":3561:3591   */\n      gt\n        /* \"#utility.yul\":3558:3675   */\n      iszero\n      tag_302\n      jumpi\n        /* \"#utility.yul\":3594:3673   */\n      tag_303\n      tag_216\n      jump\t// in\n    tag_303:\n        /* \"#utility.yul\":3558:3675   */\n    tag_302:\n        /* \"#utility.yul\":3708:3712   */\n      0x20\n        /* \"#utility.yul\":3700:3706   */\n      dup4\n        /* \"#utility.yul\":3696:3713   */\n      add\n        /* \"#utility.yul\":3684:3713   */\n      swap2\n      pop\n        /* \"#utility.yul\":3762:3765   */\n      dup4\n        /* \"#utility.yul\":3754:3758   */\n      0x01\n        /* \"#utility.yul\":3746:3752   */\n      dup3\n        /* \"#utility.yul\":3742:3759   */\n      mul\n        /* \"#utility.yul\":3732:3740   */\n      dup4\n        /* \"#utility.yul\":3728:3760   */\n      add\n        /* \"#utility.yul\":3725:3766   */\n      gt\n        /* \"#utility.yul\":3722:3850   */\n      iszero\n      tag_304\n      jumpi\n        /* \"#utility.yul\":3769:3848   */\n      tag_305\n      tag_217\n      jump\t// in\n    tag_305:\n        /* \"#utility.yul\":3722:3850   */\n    tag_304:\n        /* \"#utility.yul\":3304:3856   */\n      swap3\n      pop\n      swap3\n      swap1\n      pop\n      jump\t// out\n        /* \"#utility.yul\":3862:4825   */\n    tag_30:\n        /* \"#utility.yul\":3959:3965   */\n      0x00\n        /* \"#utility.yul\":3967:3973   */\n      dup1\n        /* \"#utility.yul\":3975:3981   */\n      0x00\n        /* \"#utility.yul\":3983:3989   */\n      dup1\n        /* \"#utility.yul\":3991:3997   */\n      0x00\n        /* \"#utility.yul\":4040:4043   */\n      0x80\n        /* \"#utility.yul\":4028:4037   */\n      dup7\n        /* \"#utility.yul\":4019:4026   */\n      dup9\n        /* \"#utility.yul\":4015:4038   */\n      sub\n        /* \"#utility.yul\":4011:4044   */\n      slt\n        /* \"#utility.yul\":4008:4128   */\n      iszero\n      tag_307\n      jumpi\n        /* \"#utility.yul\":4047:4126   */\n      tag_308\n      tag_201\n      jump\t// in\n    tag_308:\n        /* \"#utility.yul\":4008:4128   */\n    tag_307:\n        /* \"#utility.yul\":4167:4168   */\n      0x00\n        /* \"#utility.yul\":4192:4245   */\n      tag_309\n        /* \"#utility.yul\":4237:4244   */\n      dup9\n        /* \"#utility.yul\":4228:4234   */\n      dup3\n        /* \"#utility.yul\":4217:4226   */\n      dup10\n        /* \"#utility.yul\":4213:4235   */\n      add\n        /* \"#utility.yul\":4192:4245   */\n      tag_214\n      jump\t// in\n    tag_309:\n        /* \"#utility.yul\":4182:4245   */\n      swap6\n      pop\n        /* \"#utility.yul\":4138:4255   */\n      pop\n        /* \"#utility.yul\":4294:4296   */\n      0x20\n        /* \"#utility.yul\":4320:4373   */\n      tag_310\n        /* \"#utility.yul\":4365:4372   */\n      dup9\n        /* \"#utility.yul\":4356:4362   */\n      dup3\n        /* \"#utility.yul\":4345:4354   */\n      dup10\n        /* \"#utility.yul\":4341:4363   */\n      add\n        /* \"#utility.yul\":4320:4373   */\n      tag_214\n      jump\t// in\n    tag_310:\n        /* \"#utility.yul\":4310:4373   */\n      swap5\n      pop\n        /* \"#utility.yul\":4265:4383   */\n      pop\n        /* \"#utility.yul\":4422:4424   */\n      0x40\n        /* \"#utility.yul\":4448:4501   */\n      tag_311\n        /* \"#utility.yul\":4493:4500   */\n      dup9\n        /* \"#utility.yul\":4484:4490   */\n      dup3\n        /* \"#utility.yul\":4473:4482   */\n      dup10\n        /* \"#utility.yul\":4469:4491   */\n      add\n        /* \"#utility.yul\":4448:4501   */\n      tag_205\n      jump\t// in\n    tag_311:\n        /* \"#utility.yul\":4438:4501   */\n      swap4\n      pop\n        /* \"#utility.yul\":4393:4511   */\n      pop\n        /* \"#utility.yul\":4578:4580   */\n      0x60\n        /* \"#utility.yul\":4567:4576   */\n      dup7\n        /* \"#utility.yul\":4563:4581   */\n      add\n        /* \"#utility.yul\":4550:4582   */\n      calldataload\n        /* \"#utility.yul\":4609:4627   */\n      0xffffffffffffffff\n        /* \"#utility.yul\":4601:4607   */\n      dup2\n        /* \"#utility.yul\":4598:4628   */\n      gt\n        /* \"#utility.yul\":4595:4712   */\n      iszero\n      tag_312\n      jumpi\n        /* \"#utility.yul\":4631:4710   */\n      tag_313\n      tag_202\n      jump\t// in\n    tag_313:\n        /* \"#utility.yul\":4595:4712   */\n    tag_312:\n        /* \"#utility.yul\":4744:4808   */\n      tag_314\n        /* \"#utility.yul\":4800:4807   */\n      dup9\n        /* \"#utility.yul\":4791:4797   */\n      dup3\n        /* \"#utility.yul\":4780:4789   */\n      dup10\n        /* \"#utility.yul\":4776:4798   */\n      add\n        /* \"#utility.yul\":4744:4808   */\n      tag_218\n      jump\t// in\n    tag_314:\n        /* \"#utility.yul\":4726:4808   */\n      swap3\n      pop\n      swap3\n      pop\n        /* \"#utility.yul\":4521:4818   */\n      pop\n        /* \"#utility.yul\":3862:4825   */\n      swap3\n      swap6\n      pop\n      swap3\n      swap6\n      swap1\n      swap4\n      pop\n      jump\t// out\n        /* \"#utility.yul\":4831:4980   */\n    tag_219:\n        /* \"#utility.yul\":4867:4874   */\n      0x00\n        /* \"#utility.yul\":4907:4973   */\n      0xffffffff00000000000000000000000000000000000000000000000000000000\n        /* \"#utility.yul\":4900:4905   */\n      dup3\n        /* \"#utility.yul\":4896:4974   */\n      and\n        /* \"#utility.yul\":4885:4974   */\n      swap1\n      pop\n        /* \"#utility.yul\":4831:4980   */\n      swap2\n      swap1\n      pop\n      jump\t// out\n        /* \"#utility.yul\":4986:5101   */\n    tag_220:\n        /* \"#utility.yul\":5071:5094   */\n      tag_317\n        /* \"#utility.yul\":5088:5093   */\n      dup2\n        /* \"#utility.yul\":5071:5094   */\n      tag_219\n      jump\t// in\n    tag_317:\n        /* \"#utility.yul\":5066:5069   */\n      dup3\n        /* \"#utility.yul\":5059:5095   */\n      mstore\n        /* \"#utility.yul\":4986:5101   */\n      pop\n      pop\n      jump\t// out\n        /* \"#utility.yul\":5107:5325   */\n    tag_33:\n        /* \"#utility.yul\":5198:5202   */\n      0x00\n        /* \"#utility.yul\":5236:5238   */\n      0x20\n        /* \"#utility.yul\":5225:5234   */\n      dup3\n        /* \"#utility.yul\":5221:5239   */\n      add\n        /* \"#utility.yul\":5213:5239   */\n      swap1\n      pop\n        /* \"#utility.yul\":5249:5318   */\n      tag_319\n        /* \"#utility.yul\":5315:5316   */\n      0x00\n        /* \"#utility.yul\":5304:5313   */\n      dup4\n        /* \"#utility.yul\":5300:5317   */\n      add\n        /* \"#utility.yul\":5291:5297   */\n      dup5\n        /* \"#utility.yul\":5249:5318   */\n      tag_220\n      jump\t// in\n    tag_319:\n        /* \"#utility.yul\":5107:5325   */\n      swap3\n      swap2\n      pop\n      pop\n      jump\t// out\n        /* \"#utility.yul\":5331:5950   */\n    tag_36:\n        /* \"#utility.yul\":5408:5414   */\n      0x00\n        /* \"#utility.yul\":5416:5422   */\n      dup1\n        /* \"#utility.yul\":5424:5430   */\n      0x00\n        /* \"#utility.yul\":5473:5475   */\n      0x60\n        /* \"#utility.yul\":5461:5470   */\n      dup5\n        /* \"#utility.yul\":5452:5459   */\n      dup7\n        /* \"#utility.yul\":5448:5471   */\n      sub\n        /* \"#utility.yul\":5444:5476   */\n      slt\n        /* \"#utility.yul\":5441:5560   */\n      iszero\n      tag_321\n      jumpi\n        /* \"#utility.yul\":5479:5558   */\n      tag_322\n      tag_201\n      jump\t// in\n    tag_322:\n        /* \"#utility.yul\":5441:5560   */\n    tag_321:\n        /* \"#utility.yul\":5599:5600   */\n      0x00\n        /* \"#utility.yul\":5624:5677   */\n      tag_323\n        /* \"#utility.yul\":5669:5676   */\n      dup7\n        /* \"#utility.yul\":5660:5666   */\n      dup3\n        /* \"#utility.yul\":5649:5658   */\n      dup8\n        /* \"#utility.yul\":5645:5667   */\n      add\n        /* \"#utility.yul\":5624:5677   */\n      tag_214\n      jump\t// in\n    tag_323:\n        /* \"#utility.yul\":5614:5677   */\n      swap4\n      pop\n        /* \"#utility.yul\":5570:5687   */\n      pop\n        /* \"#utility.yul\":5726:5728   */\n      0x20\n        /* \"#utility.yul\":5752:5805   */\n      tag_324\n        /* \"#utility.yul\":5797:5804   */\n      dup7\n        /* \"#utility.yul\":5788:5794   */\n      dup3\n        /* \"#utility.yul\":5777:5786   */\n      dup8\n        /* \"#utility.yul\":5773:5795   */\n      add\n        /* \"#utility.yul\":5752:5805   */\n      tag_214\n      jump\t// in\n    tag_324:\n        /* \"#utility.yul\":5742:5805   */\n      swap3\n      pop\n        /* \"#utility.yul\":5697:5815   */\n      pop\n        /* \"#utility.yul\":5854:5856   */\n      0x40\n        /* \"#utility.yul\":5880:5933   */\n      tag_325\n        /* \"#utility.yul\":5925:5932   */\n      dup7\n        /* \"#utility.yul\":5916:5922   */\n      dup3\n        /* \"#utility.yul\":5905:5914   */\n      dup8\n        /* \"#utility.yul\":5901:5923   */\n      add\n        /* \"#utility.yul\":5880:5933   */\n      tag_205\n      jump\t// in\n    tag_325:\n        /* \"#utility.yul\":5870:5933   */\n      swap2\n      pop\n        /* \"#utility.yul\":5825:5943   */\n      pop\n        /* \"#utility.yul\":5331:5950   */\n      swap3\n      pop\n      swap3\n      pop\n      swap3\n      jump\t// out\n        /* \"#utility.yul\":5956:6074   */\n    tag_221:\n        /* \"#utility.yul\":6043:6067   */\n      tag_327\n        /* \"#utility.yul\":6061:6066   */\n      dup2\n        /* \"#utility.yul\":6043:6067   */\n      tag_203\n      jump\t// in\n    tag_327:\n        /* \"#utility.yul\":6038:6041   */\n      dup3\n        /* \"#utility.yul\":6031:6068   */\n      mstore\n        /* \"#utility.yul\":5956:6074   */\n      pop\n      pop\n      jump\t// out\n        /* \"#utility.yul\":6080:6302   */\n    tag_45:\n        /* \"#utility.yul\":6173:6177   */\n      0x00\n        /* \"#utility.yul\":6211:6213   */\n      0x20\n        /* \"#utility.yul\":6200:6209   */\n      dup3\n        /* \"#utility.yul\":6196:6214   */\n      add\n        /* \"#utility.yul\":6188:6214   */\n      swap1\n      pop\n        /* \"#utility.yul\":6224:6295   */\n      tag_329\n        /* \"#utility.yul\":6292:6293   */\n      0x00\n        /* \"#utility.yul\":6281:6290   */\n      dup4\n        /* \"#utility.yul\":6277:6294   */\n      add\n        /* \"#utility.yul\":6268:6274   */\n      dup5\n        /* \"#utility.yul\":6224:6295   */\n      tag_221\n      jump\t// in\n    tag_329:\n        /* \"#utility.yul\":6080:6302   */\n      swap3\n      swap2\n      pop\n      pop\n      jump\t// out\n        /* \"#utility.yul\":6308:6426   */\n    tag_222:\n        /* \"#utility.yul\":6395:6419   */\n      tag_331\n        /* \"#utility.yul\":6413:6418   */\n      dup2\n        /* \"#utility.yul\":6395:6419   */\n      tag_212\n      jump\t// in\n    tag_331:\n        /* \"#utility.yul\":6390:6393   */\n      dup3\n        /* \"#utility.yul\":6383:6420   */\n      mstore\n        /* \"#utility.yul\":6308:6426   */\n      pop\n      pop\n      jump\t// out\n        /* \"#utility.yul\":6432:6654   */\n    tag_51:\n        /* \"#utility.yul\":6525:6529   */\n      0x00\n        /* \"#utility.yul\":6563:6565   */\n      0x20\n        /* \"#utility.yul\":6552:6561   */\n      dup3\n        /* \"#utility.yul\":6548:6566   */\n      add\n        /* \"#utility.yul\":6540:6566   */\n      swap1\n      pop\n        /* \"#utility.yul\":6576:6647   */\n      tag_333\n        /* \"#utility.yul\":6644:6645   */\n      0x00\n        /* \"#utility.yul\":6633:6642   */\n      dup4\n        /* \"#utility.yul\":6629:6646   */\n      add\n        /* \"#utility.yul\":6620:6626   */\n      dup5\n        /* \"#utility.yul\":6576:6647   */\n      tag_222\n      jump\t// in\n    tag_333:\n        /* \"#utility.yul\":6432:6654   */\n      swap3\n      swap2\n      pop\n      pop\n      jump\t// out\n        /* \"#utility.yul\":6660:6989   */\n    tag_55:\n        /* \"#utility.yul\":6719:6725   */\n      0x00\n        /* \"#utility.yul\":6768:6770   */\n      0x20\n        /* \"#utility.yul\":6756:6765   */\n      dup3\n        /* \"#utility.yul\":6747:6754   */\n      dup5\n        /* \"#utility.yul\":6743:6766   */\n      sub\n        /* \"#utility.yul\":6739:6771   */\n      slt\n        /* \"#utility.yul\":6736:6855   */\n      iszero\n      tag_335\n      jumpi\n        /* \"#utility.yul\":6774:6853   */\n      tag_336\n      tag_201\n      jump\t// in\n    tag_336:\n        /* \"#utility.yul\":6736:6855   */\n    tag_335:\n        /* \"#utility.yul\":6894:6895   */\n      0x00\n        /* \"#utility.yul\":6919:6972   */\n      tag_337\n        /* \"#utility.yul\":6964:6971   */\n      dup5\n        /* \"#utility.yul\":6955:6961   */\n      dup3\n        /* \"#utility.yul\":6944:6953   */\n      dup6\n        /* \"#utility.yul\":6940:6962   */\n      add\n        /* \"#utility.yul\":6919:6972   */\n      tag_214\n      jump\t// in\n    tag_337:\n        /* \"#utility.yul\":6909:6972   */\n      swap2\n      pop\n        /* \"#utility.yul\":6865:6982   */\n      pop\n        /* \"#utility.yul\":6660:6989   */\n      swap3\n      swap2\n      pop\n      pop\n      jump\t// out\n        /* \"#utility.yul\":6995:7469   */\n    tag_68:\n        /* \"#utility.yul\":7063:7069   */\n      0x00\n        /* \"#utility.yul\":7071:7077   */\n      dup1\n        /* \"#utility.yul\":7120:7122   */\n      0x40\n        /* \"#utility.yul\":7108:7117   */\n      dup4\n        /* \"#utility.yul\":7099:7106   */\n      dup6\n        /* \"#utility.yul\":7095:7118   */\n      sub\n        /* \"#utility.yul\":7091:7123   */\n      slt\n        /* \"#utility.yul\":7088:7207   */\n      iszero\n      tag_339\n      jumpi\n        /* \"#utility.yul\":7126:7205   */\n      tag_340\n      tag_201\n      jump\t// in\n    tag_340:\n        /* \"#utility.yul\":7088:7207   */\n    tag_339:\n        /* \"#utility.yul\":7246:7247   */\n      0x00\n        /* \"#utility.yul\":7271:7324   */\n      tag_341\n        /* \"#utility.yul\":7316:7323   */\n      dup6\n        /* \"#utility.yul\":7307:7313   */\n      dup3\n        /* \"#utility.yul\":7296:7305   */\n      dup7\n        /* \"#utility.yul\":7292:7314   */\n      add\n        /* \"#utility.yul\":7271:7324   */\n      tag_214\n      jump\t// in\n    tag_341:\n        /* \"#utility.yul\":7261:7324   */\n      swap3\n      pop\n        /* \"#utility.yul\":7217:7334   */\n      pop\n        /* \"#utility.yul\":7373:7375   */\n      0x20\n        /* \"#utility.yul\":7399:7452   */\n      tag_342\n        /* \"#utility.yul\":7444:7451   */\n      dup6\n        /* \"#utility.yul\":7435:7441   */\n      dup3\n        /* \"#utility.yul\":7424:7433   */\n      dup7\n        /* \"#utility.yul\":7420:7442   */\n      add\n        /* \"#utility.yul\":7399:7452   */\n      tag_205\n      jump\t// in\n    tag_342:\n        /* \"#utility.yul\":7389:7452   */\n      swap2\n      pop\n        /* \"#utility.yul\":7344:7462   */\n      pop\n        /* \"#utility.yul\":6995:7469   */\n      swap3\n      pop\n      swap3\n      swap1\n      pop\n      jump\t// out\n        /* \"#utility.yul\":7475:7565   */\n    tag_223:\n        /* \"#utility.yul\":7509:7516   */\n      0x00\n        /* \"#utility.yul\":7552:7557   */\n      dup2\n        /* \"#utility.yul\":7545:7558   */\n      iszero\n        /* \"#utility.yul\":7538:7559   */\n      iszero\n        /* \"#utility.yul\":7527:7559   */\n      swap1\n      pop\n        /* \"#utility.yul\":7475:7565   */\n      swap2\n      swap1\n      pop\n      jump\t// out\n        /* \"#utility.yul\":7571:7680   */\n    tag_224:\n        /* \"#utility.yul\":7652:7673   */\n      tag_345\n        /* \"#utility.yul\":7667:7672   */\n      dup2\n        /* \"#utility.yul\":7652:7673   */\n      tag_223\n      jump\t// in\n    tag_345:\n        /* \"#utility.yul\":7647:7650   */\n      dup3\n        /* \"#utility.yul\":7640:7674   */\n      mstore\n        /* \"#utility.yul\":7571:7680   */\n      pop\n      pop\n      jump\t// out\n        /* \"#utility.yul\":7686:7896   */\n    tag_71:\n        /* \"#utility.yul\":7773:7777   */\n      0x00\n        /* \"#utility.yul\":7811:7813   */\n      0x20\n        /* \"#utility.yul\":7800:7809   */\n      dup3\n        /* \"#utility.yul\":7796:7814   */\n      add\n        /* \"#utility.yul\":7788:7814   */\n      swap1\n      pop\n        /* \"#utility.yul\":7824:7889   */\n      tag_347\n        /* \"#utility.yul\":7886:7887   */\n      0x00\n        /* \"#utility.yul\":7875:7884   */\n      dup4\n        /* \"#utility.yul\":7871:7888   */\n      add\n        /* \"#utility.yul\":7862:7868   */\n      dup5\n        /* \"#utility.yul\":7824:7889   */\n      tag_224\n      jump\t// in\n    tag_347:\n        /* \"#utility.yul\":7686:7896   */\n      swap3\n      swap2\n      pop\n      pop\n      jump\t// out\n        /* \"#utility.yul\":7902:8019   */\n    tag_225:\n        /* \"#utility.yul\":8011:8012   */\n      0x00\n        /* \"#utility.yul\":8008:8009   */\n      dup1\n        /* \"#utility.yul\":8001:8013   */\n      revert\n        /* \"#utility.yul\":8025:8205   */\n    tag_226:\n        /* \"#utility.yul\":8073:8150   */\n      0x4e487b7100000000000000000000000000000000000000000000000000000000\n        /* \"#utility.yul\":8070:8071   */\n      0x00\n        /* \"#utility.yul\":8063:8151   */\n      mstore\n        /* \"#utility.yul\":8170:8174   */\n      0x41\n        /* \"#utility.yul\":8167:8168   */\n      0x04\n        /* \"#utility.yul\":8160:8175   */\n      mstore\n        /* \"#utility.yul\":8194:8198   */\n      0x24\n        /* \"#utility.yul\":8191:8192   */\n      0x00\n        /* \"#utility.yul\":8184:8199   */\n      revert\n        /* \"#utility.yul\":8211:8492   */\n    tag_227:\n        /* \"#utility.yul\":8294:8321   */\n      tag_351\n        /* \"#utility.yul\":8316:8320   */\n      dup3\n        /* \"#utility.yul\":8294:8321   */\n      tag_209\n      jump\t// in\n    tag_351:\n        /* \"#utility.yul\":8286:8292   */\n      dup2\n        /* \"#utility.yul\":8282:8322   */\n      add\n        /* \"#utility.yul\":8424:8430   */\n      dup2\n        /* \"#utility.yul\":8412:8422   */\n      dup2\n        /* \"#utility.yul\":8409:8431   */\n      lt\n        /* \"#utility.yul\":8388:8406   */\n      0xffffffffffffffff\n        /* \"#utility.yul\":8376:8386   */\n      dup3\n        /* \"#utility.yul\":8373:8407   */\n      gt\n        /* \"#utility.yul\":8370:8432   */\n      or\n        /* \"#utility.yul\":8367:8455   */\n      iszero\n      tag_352\n      jumpi\n        /* \"#utility.yul\":8435:8453   */\n      tag_353\n      tag_226\n      jump\t// in\n    tag_353:\n        /* \"#utility.yul\":8367:8455   */\n    tag_352:\n        /* \"#utility.yul\":8475:8485   */\n      dup1\n        /* \"#utility.yul\":8471:8473   */\n      0x40\n        /* \"#utility.yul\":8464:8486   */\n      mstore\n        /* \"#utility.yul\":8254:8492   */\n      pop\n        /* \"#utility.yul\":8211:8492   */\n      pop\n      pop\n      jump\t// out\n        /* \"#utility.yul\":8498:8627   */\n    tag_228:\n        /* \"#utility.yul\":8532:8538   */\n      0x00\n        /* \"#utility.yul\":8559:8579   */\n      tag_355\n      tag_200\n      jump\t// in\n    tag_355:\n        /* \"#utility.yul\":8549:8579   */\n      swap1\n      pop\n        /* \"#utility.yul\":8588:8621   */\n      tag_356\n        /* \"#utility.yul\":8616:8620   */\n      dup3\n        /* \"#utility.yul\":8608:8614   */\n      dup3\n        /* \"#utility.yul\":8588:8621   */\n      tag_227\n      jump\t// in\n    tag_356:\n        /* \"#utility.yul\":8498:8627   */\n      swap2\n      swap1\n      pop\n      jump\t// out\n        /* \"#utility.yul\":8633:8941   */\n    tag_229:\n        /* \"#utility.yul\":8695:8699   */\n      0x00\n        /* \"#utility.yul\":8785:8803   */\n      0xffffffffffffffff\n        /* \"#utility.yul\":8777:8783   */\n      dup3\n        /* \"#utility.yul\":8774:8804   */\n      gt\n        /* \"#utility.yul\":8771:8827   */\n      iszero\n      tag_358\n      jumpi\n        /* \"#utility.yul\":8807:8825   */\n      tag_359\n      tag_226\n      jump\t// in\n    tag_359:\n        /* \"#utility.yul\":8771:8827   */\n    tag_358:\n        /* \"#utility.yul\":8845:8874   */\n      tag_360\n        /* \"#utility.yul\":8867:8873   */\n      dup3\n        /* \"#utility.yul\":8845:8874   */\n      tag_209\n      jump\t// in\n    tag_360:\n        /* \"#utility.yul\":8837:8874   */\n      swap1\n      pop\n        /* \"#utility.yul\":8929:8933   */\n      0x20\n        /* \"#utility.yul\":8923:8927   */\n      dup2\n        /* \"#utility.yul\":8919:8934   */\n      add\n        /* \"#utility.yul\":8911:8934   */\n      swap1\n      pop\n        /* \"#utility.yul\":8633:8941   */\n      swap2\n      swap1\n      pop\n      jump\t// out\n        /* \"#utility.yul\":8947:9101   */\n    tag_230:\n        /* \"#utility.yul\":9031:9037   */\n      dup3\n        /* \"#utility.yul\":9026:9029   */\n      dup2\n        /* \"#utility.yul\":9021:9024   */\n      dup4\n        /* \"#utility.yul\":9008:9038   */\n      calldatacopy\n        /* \"#utility.yul\":9093:9094   */\n      0x00\n        /* \"#utility.yul\":9084:9090   */\n      dup4\n        /* \"#utility.yul\":9079:9082   */\n      dup4\n        /* \"#utility.yul\":9075:9091   */\n      add\n        /* \"#utility.yul\":9068:9095   */\n      mstore\n        /* \"#utility.yul\":8947:9101   */\n      pop\n      pop\n      pop\n      jump\t// out\n        /* \"#utility.yul\":9107:9519   */\n    tag_231:\n        /* \"#utility.yul\":9185:9190   */\n      0x00\n        /* \"#utility.yul\":9210:9276   */\n      tag_363\n        /* \"#utility.yul\":9226:9275   */\n      tag_364\n        /* \"#utility.yul\":9268:9274   */\n      dup5\n        /* \"#utility.yul\":9226:9275   */\n      tag_229\n      jump\t// in\n    tag_364:\n        /* \"#utility.yul\":9210:9276   */\n      tag_228\n      jump\t// in\n    tag_363:\n        /* \"#utility.yul\":9201:9276   */\n      swap1\n      pop\n        /* \"#utility.yul\":9299:9305   */\n      dup3\n        /* \"#utility.yul\":9292:9297   */\n      dup2\n        /* \"#utility.yul\":9285:9306   */\n      mstore\n        /* \"#utility.yul\":9337:9341   */\n      0x20\n        /* \"#utility.yul\":9330:9335   */\n      dup2\n        /* \"#utility.yul\":9326:9342   */\n      add\n        /* \"#utility.yul\":9375:9378   */\n      dup5\n        /* \"#utility.yul\":9366:9372   */\n      dup5\n        /* \"#utility.yul\":9361:9364   */\n      dup5\n        /* \"#utility.yul\":9357:9373   */\n      add\n        /* \"#utility.yul\":9354:9379   */\n      gt\n        /* \"#utility.yul\":9351:9463   */\n      iszero\n      tag_365\n      jumpi\n        /* \"#utility.yul\":9382:9461   */\n      tag_366\n      tag_225\n      jump\t// in\n    tag_366:\n        /* \"#utility.yul\":9351:9463   */\n    tag_365:\n        /* \"#utility.yul\":9472:9513   */\n      tag_367\n        /* \"#utility.yul\":9506:9512   */\n      dup5\n        /* \"#utility.yul\":9501:9504   */\n      dup3\n        /* \"#utility.yul\":9496:9499   */\n      dup6\n        /* \"#utility.yul\":9472:9513   */\n      tag_230\n      jump\t// in\n    tag_367:\n        /* \"#utility.yul\":9191:9519   */\n      pop\n        /* \"#utility.yul\":9107:9519   */\n      swap4\n      swap3\n      pop\n      pop\n      pop\n      jump\t// out\n        /* \"#utility.yul\":9539:9879   */\n    tag_232:\n        /* \"#utility.yul\":9595:9600   */\n      0x00\n        /* \"#utility.yul\":9644:9647   */\n      dup3\n        /* \"#utility.yul\":9637:9641   */\n      0x1f\n        /* \"#utility.yul\":9629:9635   */\n      dup4\n        /* \"#utility.yul\":9625:9642   */\n      add\n        /* \"#utility.yul\":9621:9648   */\n      slt\n        /* \"#utility.yul\":9611:9733   */\n      tag_369\n      jumpi\n        /* \"#utility.yul\":9652:9731   */\n      tag_370\n      tag_215\n      jump\t// in\n    tag_370:\n        /* \"#utility.yul\":9611:9733   */\n    tag_369:\n        /* \"#utility.yul\":9769:9775   */\n      dup2\n        /* \"#utility.yul\":9756:9776   */\n      calldataload\n        /* \"#utility.yul\":9794:9873   */\n      tag_371\n        /* \"#utility.yul\":9869:9872   */\n      dup5\n        /* \"#utility.yul\":9861:9867   */\n      dup3\n        /* \"#utility.yul\":9854:9858   */\n      0x20\n        /* \"#utility.yul\":9846:9852   */\n      dup7\n        /* \"#utility.yul\":9842:9859   */\n      add\n        /* \"#utility.yul\":9794:9873   */\n      tag_231\n      jump\t// in\n    tag_371:\n        /* \"#utility.yul\":9785:9873   */\n      swap2\n      pop\n        /* \"#utility.yul\":9601:9879   */\n      pop\n        /* \"#utility.yul\":9539:9879   */\n      swap3\n      swap2\n      pop\n      pop\n      jump\t// out\n        /* \"#utility.yul\":9885:10394   */\n    tag_83:\n        /* \"#utility.yul\":9954:9960   */\n      0x00\n        /* \"#utility.yul\":10003:10005   */\n      0x20\n        /* \"#utility.yul\":9991:10000   */\n      dup3\n        /* \"#utility.yul\":9982:9989   */\n      dup5\n        /* \"#utility.yul\":9978:10001   */\n      sub\n        /* \"#utility.yul\":9974:10006   */\n      slt\n        /* \"#utility.yul\":9971:10090   */\n      iszero\n      tag_373\n      jumpi\n        /* \"#utility.yul\":10009:10088   */\n      tag_374\n      tag_201\n      jump\t// in\n    tag_374:\n        /* \"#utility.yul\":9971:10090   */\n    tag_373:\n        /* \"#utility.yul\":10157:10158   */\n      0x00\n        /* \"#utility.yul\":10146:10155   */\n      dup3\n        /* \"#utility.yul\":10142:10159   */\n      add\n        /* \"#utility.yul\":10129:10160   */\n      calldataload\n        /* \"#utility.yul\":10187:10205   */\n      0xffffffffffffffff\n        /* \"#utility.yul\":10179:10185   */\n      dup2\n        /* \"#utility.yul\":10176:10206   */\n      gt\n        /* \"#utility.yul\":10173:10290   */\n      iszero\n      tag_375\n      jumpi\n        /* \"#utility.yul\":10209:10288   */\n      tag_376\n      tag_202\n      jump\t// in\n    tag_376:\n        /* \"#utility.yul\":10173:10290   */\n    tag_375:\n        /* \"#utility.yul\":10314:10377   */\n      tag_377\n        /* \"#utility.yul\":10369:10376   */\n      dup5\n        /* \"#utility.yul\":10360:10366   */\n      dup3\n        /* \"#utility.yul\":10349:10358   */\n      dup6\n        /* \"#utility.yul\":10345:10367   */\n      add\n        /* \"#utility.yul\":10314:10377   */\n      tag_232\n      jump\t// in\n    tag_377:\n        /* \"#utility.yul\":10304:10377   */\n      swap2\n      pop\n        /* \"#utility.yul\":10100:10387   */\n      pop\n        /* \"#utility.yul\":9885:10394   */\n      swap3\n      swap2\n      pop\n      pop\n      jump\t// out\n        /* \"#utility.yul\":10400:10580   */\n    tag_233:\n        /* \"#utility.yul\":10448:10525   */\n      0x4e487b7100000000000000000000000000000000000000000000000000000000\n        /* \"#utility.yul\":10445:10446   */\n      0x00\n        /* \"#utility.yul\":10438:10526   */\n      mstore\n        /* \"#utility.yul\":10545:10549   */\n      0x22\n        /* \"#utility.yul\":10542:10543   */\n      0x04\n        /* \"#utility.yul\":10535:10550   */\n      mstore\n        /* \"#utility.yul\":10569:10573   */\n      0x24\n        /* \"#utility.yul\":10566:10567   */\n      0x00\n        /* \"#utility.yul\":10559:10574   */\n      revert\n        /* \"#utility.yul\":10586:10906   */\n    tag_94:\n        /* \"#utility.yul\":10630:10636   */\n      0x00\n        /* \"#utility.yul\":10667:10668   */\n      0x02\n        /* \"#utility.yul\":10661:10665   */\n      dup3\n        /* \"#utility.yul\":10657:10669   */\n      div\n        /* \"#utility.yul\":10647:10669   */\n      swap1\n      pop\n        /* \"#utility.yul\":10714:10715   */\n      0x01\n        /* \"#utility.yul\":10708:10712   */\n      dup3\n        /* \"#utility.yul\":10704:10716   */\n      and\n        /* \"#utility.yul\":10735:10753   */\n      dup1\n        /* \"#utility.yul\":10725:10806   */\n      tag_380\n      jumpi\n        /* \"#utility.yul\":10791:10795   */\n      0x7f\n        /* \"#utility.yul\":10783:10789   */\n      dup3\n        /* \"#utility.yul\":10779:10796   */\n      and\n        /* \"#utility.yul\":10769:10796   */\n      swap2\n      pop\n        /* \"#utility.yul\":10725:10806   */\n    tag_380:\n        /* \"#utility.yul\":10853:10855   */\n      0x20\n        /* \"#utility.yul\":10845:10851   */\n      dup3\n        /* \"#utility.yul\":10842:10856   */\n      lt\n        /* \"#utility.yul\":10822:10840   */\n      dup2\n        /* \"#utility.yul\":10819:10857   */\n      sub\n        /* \"#utility.yul\":10816:10900   */\n      tag_381\n      jumpi\n        /* \"#utility.yul\":10872:10890   */\n      tag_382\n      tag_233\n      jump\t// in\n    tag_382:\n        /* \"#utility.yul\":10816:10900   */\n    tag_381:\n        /* \"#utility.yul\":10637:10906   */\n      pop\n        /* \"#utility.yul\":10586:10906   */\n      swap2\n      swap1\n      pop\n      jump\t// out\n        /* \"#utility.yul\":10912:11142   */\n    tag_234:\n        /* \"#utility.yul\":11052:11086   */\n      0x4552433732313a2043616e277420417574686f72697a65642074686520747261\n        /* \"#utility.yul\":11048:11049   */\n      0x00\n        /* \"#utility.yul\":11040:11046   */\n      dup3\n        /* \"#utility.yul\":11036:11050   */\n      add\n        /* \"#utility.yul\":11029:11087   */\n      mstore\n        /* \"#utility.yul\":11121:11134   */\n      0x6e7366657220746f6b656e000000000000000000000000000000000000000000\n        /* \"#utility.yul\":11116:11118   */\n      0x20\n        /* \"#utility.yul\":11108:11114   */\n      dup3\n        /* \"#utility.yul\":11104:11119   */\n      add\n        /* \"#utility.yul\":11097:11135   */\n      mstore\n        /* \"#utility.yul\":10912:11142   */\n      pop\n      jump\t// out\n        /* \"#utility.yul\":11148:11514   */\n    tag_235:\n        /* \"#utility.yul\":11290:11293   */\n      0x00\n        /* \"#utility.yul\":11311:11378   */\n      tag_385\n        /* \"#utility.yul\":11375:11377   */\n      0x2b\n        /* \"#utility.yul\":11370:11373   */\n      dup4\n        /* \"#utility.yul\":11311:11378   */\n      tag_207\n      jump\t// in\n    tag_385:\n        /* \"#utility.yul\":11304:11378   */\n      swap2\n      pop\n        /* \"#utility.yul\":11387:11480   */\n      tag_386\n        /* \"#utility.yul\":11476:11479   */\n      dup3\n        /* \"#utility.yul\":11387:11480   */\n      tag_234\n      jump\t// in\n    tag_386:\n        /* \"#utility.yul\":11505:11507   */\n      0x40\n        /* \"#utility.yul\":11500:11503   */\n      dup3\n        /* \"#utility.yul\":11496:11508   */\n      add\n        /* \"#utility.yul\":11489:11508   */\n      swap1\n      pop\n        /* \"#utility.yul\":11148:11514   */\n      swap2\n      swap1\n      pop\n      jump\t// out\n        /* \"#utility.yul\":11520:11939   */\n    tag_103:\n        /* \"#utility.yul\":11686:11690   */\n      0x00\n        /* \"#utility.yul\":11724:11726   */\n      0x20\n        /* \"#utility.yul\":11713:11722   */\n      dup3\n        /* \"#utility.yul\":11709:11727   */\n      add\n        /* \"#utility.yul\":11701:11727   */\n      swap1\n      pop\n        /* \"#utility.yul\":11773:11782   */\n      dup2\n        /* \"#utility.yul\":11767:11771   */\n      dup2\n        /* \"#utility.yul\":11763:11783   */\n      sub\n        /* \"#utility.yul\":11759:11760   */\n      0x00\n        /* \"#utility.yul\":11748:11757   */\n      dup4\n        /* \"#utility.yul\":11744:11761   */\n      add\n        /* \"#utility.yul\":11737:11784   */\n      mstore\n        /* \"#utility.yul\":11801:11932   */\n      tag_388\n        /* \"#utility.yul\":11927:11931   */\n      dup2\n        /* \"#utility.yul\":11801:11932   */\n      tag_235\n      jump\t// in\n    tag_388:\n        /* \"#utility.yul\":11793:11932   */\n      swap1\n      pop\n        /* \"#utility.yul\":11520:11939   */\n      swap2\n      swap1\n      pop\n      jump\t// out\n        /* \"#utility.yul\":11945:12125   */\n    tag_236:\n        /* \"#utility.yul\":11993:12070   */\n      0x4e487b7100000000000000000000000000000000000000000000000000000000\n        /* \"#utility.yul\":11990:11991   */\n      0x00\n        /* \"#utility.yul\":11983:12071   */\n      mstore\n        /* \"#utility.yul\":12090:12094   */\n      0x11\n        /* \"#utility.yul\":12087:12088   */\n      0x04\n        /* \"#utility.yul\":12080:12095   */\n      mstore\n        /* \"#utility.yul\":12114:12118   */\n      0x24\n        /* \"#utility.yul\":12111:12112   */\n      0x00\n        /* \"#utility.yul\":12104:12119   */\n      revert\n        /* \"#utility.yul\":12131:12322   */\n    tag_107:\n        /* \"#utility.yul\":12171:12175   */\n      0x00\n        /* \"#utility.yul\":12191:12211   */\n      tag_391\n        /* \"#utility.yul\":12209:12210   */\n      dup3\n        /* \"#utility.yul\":12191:12211   */\n      tag_203\n      jump\t// in\n    tag_391:\n        /* \"#utility.yul\":12186:12211   */\n      swap2\n      pop\n        /* \"#utility.yul\":12225:12245   */\n      tag_392\n        /* \"#utility.yul\":12243:12244   */\n      dup4\n        /* \"#utility.yul\":12225:12245   */\n      tag_203\n      jump\t// in\n    tag_392:\n        /* \"#utility.yul\":12220:12245   */\n      swap3\n      pop\n        /* \"#utility.yul\":12264:12265   */\n      dup3\n        /* \"#utility.yul\":12261:12262   */\n      dup3\n        /* \"#utility.yul\":12258:12266   */\n      lt\n        /* \"#utility.yul\":12255:12289   */\n      iszero\n      tag_393\n      jumpi\n        /* \"#utility.yul\":12269:12287   */\n      tag_394\n      tag_236\n      jump\t// in\n    tag_394:\n        /* \"#utility.yul\":12255:12289   */\n    tag_393:\n        /* \"#utility.yul\":12314:12315   */\n      dup3\n        /* \"#utility.yul\":12311:12312   */\n      dup3\n        /* \"#utility.yul\":12307:12316   */\n      sub\n        /* \"#utility.yul\":12299:12316   */\n      swap1\n      pop\n        /* \"#utility.yul\":12131:12322   */\n      swap3\n      swap2\n      pop\n      pop\n      jump\t// out\n        /* \"#utility.yul\":12328:12633   */\n    tag_109:\n        /* \"#utility.yul\":12368:12371   */\n      0x00\n        /* \"#utility.yul\":12387:12407   */\n      tag_396\n        /* \"#utility.yul\":12405:12406   */\n      dup3\n        /* \"#utility.yul\":12387:12407   */\n      tag_203\n      jump\t// in\n    tag_396:\n        /* \"#utility.yul\":12382:12407   */\n      swap2\n      pop\n        /* \"#utility.yul\":12421:12441   */\n      tag_397\n        /* \"#utility.yul\":12439:12440   */\n      dup4\n        /* \"#utility.yul\":12421:12441   */\n      tag_203\n      jump\t// in\n    tag_397:\n        /* \"#utility.yul\":12416:12441   */\n      swap3\n      pop\n        /* \"#utility.yul\":12575:12576   */\n      dup3\n        /* \"#utility.yul\":12507:12573   */\n      0xffffffffffffffffffffffffffffffffffffffffffffffffffffffffffffffff\n        /* \"#utility.yul\":12503:12577   */\n      sub\n        /* \"#utility.yul\":12500:12501   */\n      dup3\n        /* \"#utility.yul\":12497:12578   */\n      gt\n        /* \"#utility.yul\":12494:12601   */\n      iszero\n      tag_398\n      jumpi\n        /* \"#utility.yul\":12581:12599   */\n      tag_399\n      tag_236\n      jump\t// in\n    tag_399:\n        /* \"#utility.yul\":12494:12601   */\n    tag_398:\n        /* \"#utility.yul\":12625:12626   */\n      dup3\n        /* \"#utility.yul\":12622:12623   */\n      dup3\n        /* \"#utility.yul\":12618:12627   */\n      add\n        /* \"#utility.yul\":12611:12627   */\n      swap1\n      pop\n        /* \"#utility.yul\":12328:12633   */\n      swap3\n      swap2\n      pop\n      pop\n      jump\t// out\n        /* \"#utility.yul\":12639:12821   */\n    tag_237:\n        /* \"#utility.yul\":12779:12813   */\n      0x4f776e61626c653a2063616c6c6572206973206e6f7420746865206f776e6572\n        /* \"#utility.yul\":12775:12776   */\n      0x00\n        /* \"#utility.yul\":12767:12773   */\n      dup3\n        /* \"#utility.yul\":12763:12777   */\n      add\n        /* \"#utility.yul\":12756:12814   */\n      mstore\n        /* \"#utility.yul\":12639:12821   */\n      pop\n      jump\t// out\n        /* \"#utility.yul\":12827:13193   */\n    tag_238:\n        /* \"#utility.yul\":12969:12972   */\n      0x00\n        /* \"#utility.yul\":12990:13057   */\n      tag_402\n        /* \"#utility.yul\":13054:13056   */\n      0x20\n        /* \"#utility.yul\":13049:13052   */\n      dup4\n        /* \"#utility.yul\":12990:13057   */\n      tag_207\n      jump\t// in\n    tag_402:\n        /* \"#utility.yul\":12983:13057   */\n      swap2\n      pop\n        /* \"#utility.yul\":13066:13159   */\n      tag_403\n        /* \"#utility.yul\":13155:13158   */\n      dup3\n        /* \"#utility.yul\":13066:13159   */\n      tag_237\n      jump\t// in\n    tag_403:\n        /* \"#utility.yul\":13184:13186   */\n      0x20\n        /* \"#utility.yul\":13179:13182   */\n      dup3\n        /* \"#utility.yul\":13175:13187   */\n      add\n        /* \"#utility.yul\":13168:13187   */\n      swap1\n      pop\n        /* \"#utility.yul\":12827:13193   */\n      swap2\n      swap1\n      pop\n      jump\t// out\n        /* \"#utility.yul\":13199:13618   */\n    tag_121:\n        /* \"#utility.yul\":13365:13369   */\n      0x00\n        /* \"#utility.yul\":13403:13405   */\n      0x20\n        /* \"#utility.yul\":13392:13401   */\n      dup3\n        /* \"#utility.yul\":13388:13406   */\n      add\n        /* \"#utility.yul\":13380:13406   */\n      swap1\n      pop\n        /* \"#utility.yul\":13452:13461   */\n      dup2\n        /* \"#utility.yul\":13446:13450   */\n      dup2\n        /* \"#utility.yul\":13442:13462   */\n      sub\n        /* \"#utility.yul\":13438:13439   */\n      0x00\n        /* \"#utility.yul\":13427:13436   */\n      dup4\n        /* \"#utility.yul\":13423:13440   */\n      add\n        /* \"#utility.yul\":13416:13463   */\n      mstore\n        /* \"#utility.yul\":13480:13611   */\n      tag_405\n        /* \"#utility.yul\":13606:13610   */\n      dup2\n        /* \"#utility.yul\":13480:13611   */\n      tag_238\n      jump\t// in\n    tag_405:\n        /* \"#utility.yul\":13472:13611   */\n      swap1\n      pop\n        /* \"#utility.yul\":13199:13618   */\n      swap2\n      swap1\n      pop\n      jump\t// out\n        /* \"#utility.yul\":13624:13772   */\n    tag_239:\n        /* \"#utility.yul\":13726:13737   */\n      0x00\n        /* \"#utility.yul\":13763:13766   */\n      dup2\n        /* \"#utility.yul\":13748:13766   */\n      swap1\n      pop\n        /* \"#utility.yul\":13624:13772   */\n      swap3\n      swap2\n      pop\n      pop\n      jump\t// out\n        /* \"#utility.yul\":13778:13919   */\n    tag_240:\n        /* \"#utility.yul\":13827:13831   */\n      0x00\n        /* \"#utility.yul\":13850:13853   */\n      dup2\n        /* \"#utility.yul\":13842:13853   */\n      swap1\n      pop\n        /* \"#utility.yul\":13873:13876   */\n      dup2\n        /* \"#utility.yul\":13870:13871   */\n      0x00\n        /* \"#utility.yul\":13863:13877   */\n      mstore\n        /* \"#utility.yul\":13907:13911   */\n      0x20\n        /* \"#utility.yul\":13904:13905   */\n      0x00\n        /* \"#utility.yul\":13894:13912   */\n      keccak256\n        /* \"#utility.yul\":13886:13912   */\n      swap1\n      pop\n        /* \"#utility.yul\":13778:13919   */\n      swap2\n      swap1\n      pop\n      jump\t// out\n        /* \"#utility.yul\":13949:14794   */\n    tag_241:\n        /* \"#utility.yul\":14052:14055   */\n      0x00\n        /* \"#utility.yul\":14089:14094   */\n      dup2\n        /* \"#utility.yul\":14083:14095   */\n      sload\n        /* \"#utility.yul\":14118:14154   */\n      tag_409\n        /* \"#utility.yul\":14144:14153   */\n      dup2\n        /* \"#utility.yul\":14118:14154   */\n      tag_94\n      jump\t// in\n    tag_409:\n        /* \"#utility.yul\":14170:14259   */\n      tag_410\n        /* \"#utility.yul\":14252:14258   */\n      dup2\n        /* \"#utility.yul\":14247:14250   */\n      dup7\n        /* \"#utility.yul\":14170:14259   */\n      tag_239\n      jump\t// in\n    tag_410:\n        /* \"#utility.yul\":14163:14259   */\n      swap5\n      pop\n        /* \"#utility.yul\":14290:14291   */\n      0x01\n        /* \"#utility.yul\":14279:14288   */\n      dup3\n        /* \"#utility.yul\":14275:14292   */\n      and\n        /* \"#utility.yul\":14306:14307   */\n      0x00\n        /* \"#utility.yul\":14301:14438   */\n      dup2\n      eq\n      tag_412\n      jumpi\n        /* \"#utility.yul\":14452:14453   */\n      0x01\n        /* \"#utility.yul\":14447:14788   */\n      dup2\n      eq\n      tag_413\n      jumpi\n        /* \"#utility.yul\":14268:14788   */\n      jump(tag_411)\n        /* \"#utility.yul\":14301:14438   */\n    tag_412:\n        /* \"#utility.yul\":14385:14389   */\n      0xff\n        /* \"#utility.yul\":14381:14390   */\n      not\n        /* \"#utility.yul\":14370:14379   */\n      dup4\n        /* \"#utility.yul\":14366:14391   */\n      and\n        /* \"#utility.yul\":14361:14364   */\n      dup7\n        /* \"#utility.yul\":14354:14392   */\n      mstore\n        /* \"#utility.yul\":14421:14427   */\n      dup2\n        /* \"#utility.yul\":14416:14419   */\n      dup7\n        /* \"#utility.yul\":14412:14428   */\n      add\n        /* \"#utility.yul\":14405:14428   */\n      swap4\n      pop\n        /* \"#utility.yul\":14301:14438   */\n      jump(tag_411)\n        /* \"#utility.yul\":14447:14788   */\n    tag_413:\n        /* \"#utility.yul\":14514:14552   */\n      tag_414\n        /* \"#utility.yul\":14546:14551   */\n      dup6\n        /* \"#utility.yul\":14514:14552   */\n      tag_240\n      jump\t// in\n    tag_414:\n        /* \"#utility.yul\":14574:14575   */\n      0x00\n        /* \"#utility.yul\":14588:14742   */\n    tag_415:\n        /* \"#utility.yul\":14602:14608   */\n      dup4\n        /* \"#utility.yul\":14599:14600   */\n      dup2\n        /* \"#utility.yul\":14596:14609   */\n      lt\n        /* \"#utility.yul\":14588:14742   */\n      iszero\n      tag_417\n      jumpi\n        /* \"#utility.yul\":14676:14683   */\n      dup2\n        /* \"#utility.yul\":14670:14684   */\n      sload\n        /* \"#utility.yul\":14666:14667   */\n      dup2\n        /* \"#utility.yul\":14661:14664   */\n      dup10\n        /* \"#utility.yul\":14657:14668   */\n      add\n        /* \"#utility.yul\":14650:14685   */\n      mstore\n        /* \"#utility.yul\":14726:14727   */\n      0x01\n        /* \"#utility.yul\":14717:14724   */\n      dup3\n        /* \"#utility.yul\":14713:14728   */\n      add\n        /* \"#utility.yul\":14702:14728   */\n      swap2\n      pop\n        /* \"#utility.yul\":14624:14628   */\n      0x20\n        /* \"#utility.yul\":14621:14622   */\n      dup2\n        /* \"#utility.yul\":14617:14629   */\n      add\n        /* \"#utility.yul\":14612:14629   */\n      swap1\n      pop\n        /* \"#utility.yul\":14588:14742   */\n      jump(tag_415)\n    tag_417:\n        /* \"#utility.yul\":14771:14777   */\n      dup4\n        /* \"#utility.yul\":14766:14769   */\n      dup9\n        /* \"#utility.yul\":14762:14778   */\n      add\n        /* \"#utility.yul\":14755:14778   */\n      swap6\n      pop\n        /* \"#utility.yul\":14454:14788   */\n      pop\n      pop\n        /* \"#utility.yul\":14268:14788   */\n    tag_411:\n      pop\n        /* \"#utility.yul\":14056:14794   */\n      pop\n      pop\n        /* \"#utility.yul\":13949:14794   */\n      swap3\n      swap2\n      pop\n      pop\n      jump\t// out\n        /* \"#utility.yul\":14800:14879   */\n    tag_242:\n        /* \"#utility.yul\":14839:14846   */\n      0x00\n        /* \"#utility.yul\":14868:14873   */\n      dup2\n        /* \"#utility.yul\":14857:14873   */\n      swap1\n      pop\n        /* \"#utility.yul\":14800:14879   */\n      swap2\n      swap1\n      pop\n      jump\t// out\n        /* \"#utility.yul\":14885:15042   */\n    tag_243:\n        /* \"#utility.yul\":14990:15035   */\n      tag_420\n        /* \"#utility.yul\":15010:15034   */\n      tag_421\n        /* \"#utility.yul\":15028:15033   */\n      dup3\n        /* \"#utility.yul\":15010:15034   */\n      tag_203\n      jump\t// in\n    tag_421:\n        /* \"#utility.yul\":14990:15035   */\n      tag_242\n      jump\t// in\n    tag_420:\n        /* \"#utility.yul\":14985:14988   */\n      dup3\n        /* \"#utility.yul\":14978:15036   */\n      mstore\n        /* \"#utility.yul\":14885:15042   */\n      pop\n      pop\n      jump\t// out\n        /* \"#utility.yul\":15048:15458   */\n    tag_134:\n        /* \"#utility.yul\":15205:15208   */\n      0x00\n        /* \"#utility.yul\":15227:15319   */\n      tag_423\n        /* \"#utility.yul\":15315:15318   */\n      dup3\n        /* \"#utility.yul\":15306:15312   */\n      dup6\n        /* \"#utility.yul\":15227:15319   */\n      tag_241\n      jump\t// in\n    tag_423:\n        /* \"#utility.yul\":15220:15319   */\n      swap2\n      pop\n        /* \"#utility.yul\":15329:15404   */\n      tag_424\n        /* \"#utility.yul\":15400:15403   */\n      dup3\n        /* \"#utility.yul\":15391:15397   */\n      dup5\n        /* \"#utility.yul\":15329:15404   */\n      tag_243\n      jump\t// in\n    tag_424:\n        /* \"#utility.yul\":15429:15431   */\n      0x20\n        /* \"#utility.yul\":15424:15427   */\n      dup3\n        /* \"#utility.yul\":15420:15432   */\n      add\n        /* \"#utility.yul\":15413:15432   */\n      swap2\n      pop\n        /* \"#utility.yul\":15449:15452   */\n      dup2\n        /* \"#utility.yul\":15442:15452   */\n      swap1\n      pop\n        /* \"#utility.yul\":15048:15458   */\n      swap4\n      swap3\n      pop\n      pop\n      pop\n      jump\t// out\n        /* \"#utility.yul\":15464:15697   */\n    tag_141:\n        /* \"#utility.yul\":15503:15506   */\n      0x00\n        /* \"#utility.yul\":15526:15550   */\n      tag_426\n        /* \"#utility.yul\":15544:15549   */\n      dup3\n        /* \"#utility.yul\":15526:15550   */\n      tag_203\n      jump\t// in\n    tag_426:\n        /* \"#utility.yul\":15517:15550   */\n      swap2\n      pop\n        /* \"#utility.yul\":15572:15638   */\n      0xffffffffffffffffffffffffffffffffffffffffffffffffffffffffffffffff\n        /* \"#utility.yul\":15565:15570   */\n      dup3\n        /* \"#utility.yul\":15562:15639   */\n      sub\n        /* \"#utility.yul\":15559:15662   */\n      tag_427\n      jumpi\n        /* \"#utility.yul\":15642:15660   */\n      tag_428\n      tag_236\n      jump\t// in\n    tag_428:\n        /* \"#utility.yul\":15559:15662   */\n    tag_427:\n        /* \"#utility.yul\":15689:15690   */\n      0x01\n        /* \"#utility.yul\":15682:15687   */\n      dup3\n        /* \"#utility.yul\":15678:15691   */\n      add\n        /* \"#utility.yul\":15671:15691   */\n      swap1\n      pop\n        /* \"#utility.yul\":15464:15697   */\n      swap2\n      swap1\n      pop\n      jump\t// out\n        /* \"#utility.yul\":15703:15928   */\n    tag_244:\n        /* \"#utility.yul\":15843:15877   */\n      0x4f776e61626c653a206e6577206f776e657220697320746865207a65726f2061\n        /* \"#utility.yul\":15839:15840   */\n      0x00\n        /* \"#utility.yul\":15831:15837   */\n      dup3\n        /* \"#utility.yul\":15827:15841   */\n      add\n        /* \"#utility.yul\":15820:15878   */\n      mstore\n        /* \"#utility.yul\":15912:15920   */\n      0x6464726573730000000000000000000000000000000000000000000000000000\n        /* \"#utility.yul\":15907:15909   */\n      0x20\n        /* \"#utility.yul\":15899:15905   */\n      dup3\n        /* \"#utility.yul\":15895:15910   */\n      add\n        /* \"#utility.yul\":15888:15921   */\n      mstore\n        /* \"#utility.yul\":15703:15928   */\n      pop\n      jump\t// out\n        /* \"#utility.yul\":15934:16300   */\n    tag_245:\n        /* \"#utility.yul\":16076:16079   */\n      0x00\n        /* \"#utility.yul\":16097:16164   */\n      tag_431\n        /* \"#utility.yul\":16161:16163   */\n      0x26\n        /* \"#utility.yul\":16156:16159   */\n      dup4\n        /* \"#utility.yul\":16097:16164   */\n      tag_207\n      jump\t// in\n    tag_431:\n        /* \"#utility.yul\":16090:16164   */\n      swap2\n      pop\n        /* \"#utility.yul\":16173:16266   */\n      tag_432\n        /* \"#utility.yul\":16262:16265   */\n      dup3\n        /* \"#utility.yul\":16173:16266   */\n      tag_244\n      jump\t// in\n    tag_432:\n        /* \"#utility.yul\":16291:16293   */\n      0x40\n        /* \"#utility.yul\":16286:16289   */\n      dup3\n        /* \"#utility.yul\":16282:16294   */\n      add\n        /* \"#utility.yul\":16275:16294   */\n      swap1\n      pop\n        /* \"#utility.yul\":15934:16300   */\n      swap2\n      swap1\n      pop\n      jump\t// out\n        /* \"#utility.yul\":16306:16725   */\n    tag_150:\n        /* \"#utility.yul\":16472:16476   */\n      0x00\n        /* \"#utility.yul\":16510:16512   */\n      0x20\n        /* \"#utility.yul\":16499:16508   */\n      dup3\n        /* \"#utility.yul\":16495:16513   */\n      add\n        /* \"#utility.yul\":16487:16513   */\n      swap1\n      pop\n        /* \"#utility.yul\":16559:16568   */\n      dup2\n        /* \"#utility.yul\":16553:16557   */\n      dup2\n        /* \"#utility.yul\":16549:16569   */\n      sub\n        /* \"#utility.yul\":16545:16546   */\n      0x00\n        /* \"#utility.yul\":16534:16543   */\n      dup4\n        /* \"#utility.yul\":16530:16547   */\n      add\n        /* \"#utility.yul\":16523:16570   */\n      mstore\n        /* \"#utility.yul\":16587:16718   */\n      tag_434\n        /* \"#utility.yul\":16713:16717   */\n      dup2\n        /* \"#utility.yul\":16587:16718   */\n      tag_245\n      jump\t// in\n    tag_434:\n        /* \"#utility.yul\":16579:16718   */\n      swap1\n      pop\n        /* \"#utility.yul\":16306:16725   */\n      swap2\n      swap1\n      pop\n      jump\t// out\n        /* \"#utility.yul\":16731:16829   */\n    tag_246:\n        /* \"#utility.yul\":16782:16788   */\n      0x00\n        /* \"#utility.yul\":16816:16821   */\n      dup2\n        /* \"#utility.yul\":16810:16822   */\n      mload\n        /* \"#utility.yul\":16800:16822   */\n      swap1\n      pop\n        /* \"#utility.yul\":16731:16829   */\n      swap2\n      swap1\n      pop\n      jump\t// out\n        /* \"#utility.yul\":16835:17003   */\n    tag_247:\n        /* \"#utility.yul\":16918:16929   */\n      0x00\n        /* \"#utility.yul\":16952:16958   */\n      dup3\n        /* \"#utility.yul\":16947:16950   */\n      dup3\n        /* \"#utility.yul\":16940:16959   */\n      mstore\n        /* \"#utility.yul\":16992:16996   */\n      0x20\n        /* \"#utility.yul\":16987:16990   */\n      dup3\n        /* \"#utility.yul\":16983:16997   */\n      add\n        /* \"#utility.yul\":16968:16997   */\n      swap1\n      pop\n        /* \"#utility.yul\":16835:17003   */\n      swap3\n      swap2\n      pop\n      pop\n      jump\t// out\n        /* \"#utility.yul\":17009:17369   */\n    tag_248:\n        /* \"#utility.yul\":17095:17098   */\n      0x00\n        /* \"#utility.yul\":17123:17161   */\n      tag_438\n        /* \"#utility.yul\":17155:17160   */\n      dup3\n        /* \"#utility.yul\":17123:17161   */\n      tag_246\n      jump\t// in\n    tag_438:\n        /* \"#utility.yul\":17177:17247   */\n      tag_439\n        /* \"#utility.yul\":17240:17246   */\n      dup2\n        /* \"#utility.yul\":17235:17238   */\n      dup6\n        /* \"#utility.yul\":17177:17247   */\n      tag_247\n      jump\t// in\n    tag_439:\n        /* \"#utility.yul\":17170:17247   */\n      swap4\n      pop\n        /* \"#utility.yul\":17256:17308   */\n      tag_440\n        /* \"#utility.yul\":17301:17307   */\n      dup2\n        /* \"#utility.yul\":17296:17299   */\n      dup6\n        /* \"#utility.yul\":17289:17293   */\n      0x20\n        /* \"#utility.yul\":17282:17287   */\n      dup7\n        /* \"#utility.yul\":17278:17294   */\n      add\n        /* \"#utility.yul\":17256:17308   */\n      tag_208\n      jump\t// in\n    tag_440:\n        /* \"#utility.yul\":17333:17362   */\n      tag_441\n        /* \"#utility.yul\":17355:17361   */\n      dup2\n        /* \"#utility.yul\":17333:17362   */\n      tag_209\n      jump\t// in\n    tag_441:\n        /* \"#utility.yul\":17328:17331   */\n      dup5\n        /* \"#utility.yul\":17324:17363   */\n      add\n        /* \"#utility.yul\":17317:17363   */\n      swap2\n      pop\n        /* \"#utility.yul\":17099:17369   */\n      pop\n        /* \"#utility.yul\":17009:17369   */\n      swap3\n      swap2\n      pop\n      pop\n      jump\t// out\n        /* \"#utility.yul\":17375:18015   */\n    tag_163:\n        /* \"#utility.yul\":17570:17574   */\n      0x00\n        /* \"#utility.yul\":17608:17611   */\n      0x80\n        /* \"#utility.yul\":17597:17606   */\n      dup3\n        /* \"#utility.yul\":17593:17612   */\n      add\n        /* \"#utility.yul\":17585:17612   */\n      swap1\n      pop\n        /* \"#utility.yul\":17622:17693   */\n      tag_443\n        /* \"#utility.yul\":17690:17691   */\n      0x00\n        /* \"#utility.yul\":17679:17688   */\n      dup4\n        /* \"#utility.yul\":17675:17692   */\n      add\n        /* \"#utility.yul\":17666:17672   */\n      dup8\n        /* \"#utility.yul\":17622:17693   */\n      tag_222\n      jump\t// in\n    tag_443:\n        /* \"#utility.yul\":17703:17775   */\n      tag_444\n        /* \"#utility.yul\":17771:17773   */\n      0x20\n        /* \"#utility.yul\":17760:17769   */\n      dup4\n        /* \"#utility.yul\":17756:17774   */\n      add\n        /* \"#utility.yul\":17747:17753   */\n      dup7\n        /* \"#utility.yul\":17703:17775   */\n      tag_222\n      jump\t// in\n    tag_444:\n        /* \"#utility.yul\":17785:17857   */\n      tag_445\n        /* \"#utility.yul\":17853:17855   */\n      0x40\n        /* \"#utility.yul\":17842:17851   */\n      dup4\n        /* \"#utility.yul\":17838:17856   */\n      add\n        /* \"#utility.yul\":17829:17835   */\n      dup6\n        /* \"#utility.yul\":17785:17857   */\n      tag_221\n      jump\t// in\n    tag_445:\n        /* \"#utility.yul\":17904:17913   */\n      dup2\n        /* \"#utility.yul\":17898:17902   */\n      dup2\n        /* \"#utility.yul\":17894:17914   */\n      sub\n        /* \"#utility.yul\":17889:17891   */\n      0x60\n        /* \"#utility.yul\":17878:17887   */\n      dup4\n        /* \"#utility.yul\":17874:17892   */\n      add\n        /* \"#utility.yul\":17867:17915   */\n      mstore\n        /* \"#utility.yul\":17932:18008   */\n      tag_446\n        /* \"#utility.yul\":18003:18007   */\n      dup2\n        /* \"#utility.yul\":17994:18000   */\n      dup5\n        /* \"#utility.yul\":17932:18008   */\n      tag_248\n      jump\t// in\n    tag_446:\n        /* \"#utility.yul\":17924:18008   */\n      swap1\n      pop\n        /* \"#utility.yul\":17375:18015   */\n      swap6\n      swap5\n      pop\n      pop\n      pop\n      pop\n      pop\n      jump\t// out\n        /* \"#utility.yul\":18021:18141   */\n    tag_249:\n        /* \"#utility.yul\":18093:18116   */\n      tag_448\n        /* \"#utility.yul\":18110:18115   */\n      dup2\n        /* \"#utility.yul\":18093:18116   */\n      tag_219\n      jump\t// in\n    tag_448:\n        /* \"#utility.yul\":18086:18091   */\n      dup2\n        /* \"#utility.yul\":18083:18117   */\n      eq\n        /* \"#utility.yul\":18073:18135   */\n      tag_449\n      jumpi\n        /* \"#utility.yul\":18131:18132   */\n      0x00\n        /* \"#utility.yul\":18128:18129   */\n      dup1\n        /* \"#utility.yul\":18121:18133   */\n      revert\n        /* \"#utility.yul\":18073:18135   */\n    tag_449:\n        /* \"#utility.yul\":18021:18141   */\n      pop\n      jump\t// out\n        /* \"#utility.yul\":18147:18288   */\n    tag_250:\n        /* \"#utility.yul\":18203:18208   */\n      0x00\n        /* \"#utility.yul\":18234:18240   */\n      dup2\n        /* \"#utility.yul\":18228:18241   */\n      mload\n        /* \"#utility.yul\":18219:18241   */\n      swap1\n      pop\n        /* \"#utility.yul\":18250:18282   */\n      tag_451\n        /* \"#utility.yul\":18276:18281   */\n      dup2\n        /* \"#utility.yul\":18250:18282   */\n      tag_249\n      jump\t// in\n    tag_451:\n        /* \"#utility.yul\":18147:18288   */\n      swap3\n      swap2\n      pop\n      pop\n      jump\t// out\n        /* \"#utility.yul\":18294:18643   */\n    tag_167:\n        /* \"#utility.yul\":18363:18369   */\n      0x00\n        /* \"#utility.yul\":18412:18414   */\n      0x20\n        /* \"#utility.yul\":18400:18409   */\n      dup3\n        /* \"#utility.yul\":18391:18398   */\n      dup5\n        /* \"#utility.yul\":18387:18410   */\n      sub\n        /* \"#utility.yul\":18383:18415   */\n      slt\n        /* \"#utility.yul\":18380:18499   */\n      iszero\n      tag_453\n      jumpi\n        /* \"#utility.yul\":18418:18497   */\n      tag_454\n      tag_201\n      jump\t// in\n    tag_454:\n        /* \"#utility.yul\":18380:18499   */\n    tag_453:\n        /* \"#utility.yul\":18538:18539   */\n      0x00\n        /* \"#utility.yul\":18563:18626   */\n      tag_455\n        /* \"#utility.yul\":18618:18625   */\n      dup5\n        /* \"#utility.yul\":18609:18615   */\n      dup3\n        /* \"#utility.yul\":18598:18607   */\n      dup6\n        /* \"#utility.yul\":18594:18616   */\n      add\n        /* \"#utility.yul\":18563:18626   */\n      tag_250\n      jump\t// in\n    tag_455:\n        /* \"#utility.yul\":18553:18626   */\n      swap2\n      pop\n        /* \"#utility.yul\":18509:18636   */\n      pop\n        /* \"#utility.yul\":18294:18643   */\n      swap3\n      swap2\n      pop\n      pop\n      jump\t// out\n        /* \"#utility.yul\":18649:18874   */\n    tag_251:\n        /* \"#utility.yul\":18789:18823   */\n      0x4552433732313a207472616e736665722066726f6d20746865207a65726f2061\n        /* \"#utility.yul\":18785:18786   */\n      0x00\n        /* \"#utility.yul\":18777:18783   */\n      dup3\n        /* \"#utility.yul\":18773:18787   */\n      add\n        /* \"#utility.yul\":18766:18824   */\n      mstore\n        /* \"#utility.yul\":18858:18866   */\n      0x6464726573730000000000000000000000000000000000000000000000000000\n        /* \"#utility.yul\":18853:18855   */\n      0x20\n        /* \"#utility.yul\":18845:18851   */\n      dup3\n        /* \"#utility.yul\":18841:18856   */\n      add\n        /* \"#utility.yul\":18834:18867   */\n      mstore\n        /* \"#utility.yul\":18649:18874   */\n      pop\n      jump\t// out\n        /* \"#utility.yul\":18880:19246   */\n    tag_252:\n        /* \"#utility.yul\":19022:19025   */\n      0x00\n        /* \"#utility.yul\":19043:19110   */\n      tag_458\n        /* \"#utility.yul\":19107:19109   */\n      0x26\n        /* \"#utility.yul\":19102:19105   */\n      dup4\n        /* \"#utility.yul\":19043:19110   */\n      tag_207\n      jump\t// in\n    tag_458:\n        /* \"#utility.yul\":19036:19110   */\n      swap2\n      pop\n        /* \"#utility.yul\":19119:19212   */\n      tag_459\n        /* \"#utility.yul\":19208:19211   */\n      dup3\n        /* \"#utility.yul\":19119:19212   */\n      tag_251\n      jump\t// in\n    tag_459:\n        /* \"#utility.yul\":19237:19239   */\n      0x40\n        /* \"#utility.yul\":19232:19235   */\n      dup3\n        /* \"#utility.yul\":19228:19240   */\n      add\n        /* \"#utility.yul\":19221:19240   */\n      swap1\n      pop\n        /* \"#utility.yul\":18880:19246   */\n      swap2\n      swap1\n      pop\n      jump\t// out\n        /* \"#utility.yul\":19252:19671   */\n    tag_173:\n        /* \"#utility.yul\":19418:19422   */\n      0x00\n        /* \"#utility.yul\":19456:19458   */\n      0x20\n        /* \"#utility.yul\":19445:19454   */\n      dup3\n        /* \"#utility.yul\":19441:19459   */\n      add\n        /* \"#utility.yul\":19433:19459   */\n      swap1\n      pop\n        /* \"#utility.yul\":19505:19514   */\n      dup2\n        /* \"#utility.yul\":19499:19503   */\n      dup2\n        /* \"#utility.yul\":19495:19515   */\n      sub\n        /* \"#utility.yul\":19491:19492   */\n      0x00\n        /* \"#utility.yul\":19480:19489   */\n      dup4\n        /* \"#utility.yul\":19476:19493   */\n      add\n        /* \"#utility.yul\":19469:19516   */\n      mstore\n        /* \"#utility.yul\":19533:19664   */\n      tag_461\n        /* \"#utility.yul\":19659:19663   */\n      dup2\n        /* \"#utility.yul\":19533:19664   */\n      tag_252\n      jump\t// in\n    tag_461:\n        /* \"#utility.yul\":19525:19664   */\n      swap1\n      pop\n        /* \"#utility.yul\":19252:19671   */\n      swap2\n      swap1\n      pop\n      jump\t// out\n        /* \"#utility.yul\":19677:19900   */\n    tag_253:\n        /* \"#utility.yul\":19817:19851   */\n      0x4552433732313a207472616e7366657220746f20746865207a65726f20616464\n        /* \"#utility.yul\":19813:19814   */\n      0x00\n        /* \"#utility.yul\":19805:19811   */\n      dup3\n        /* \"#utility.yul\":19801:19815   */\n      add\n        /* \"#utility.yul\":19794:19852   */\n      mstore\n        /* \"#utility.yul\":19886:19892   */\n      0x7265737300000000000000000000000000000000000000000000000000000000\n        /* \"#utility.yul\":19881:19883   */\n      0x20\n        /* \"#utility.yul\":19873:19879   */\n      dup3\n        /* \"#utility.yul\":19869:19884   */\n      add\n        /* \"#utility.yul\":19862:19893   */\n      mstore\n        /* \"#utility.yul\":19677:19900   */\n      pop\n      jump\t// out\n        /* \"#utility.yul\":19906:20272   */\n    tag_254:\n        /* \"#utility.yul\":20048:20051   */\n      0x00\n        /* \"#utility.yul\":20069:20136   */\n      tag_464\n        /* \"#utility.yul\":20133:20135   */\n      0x24\n        /* \"#utility.yul\":20128:20131   */\n      dup4\n        /* \"#utility.yul\":20069:20136   */\n      tag_207\n      jump\t// in\n    tag_464:\n        /* \"#utility.yul\":20062:20136   */\n      swap2\n      pop\n        /* \"#utility.yul\":20145:20238   */\n      tag_465\n        /* \"#utility.yul\":20234:20237   */\n      dup3\n        /* \"#utility.yul\":20145:20238   */\n      tag_253\n      jump\t// in\n    tag_465:\n        /* \"#utility.yul\":20263:20265   */\n      0x40\n        /* \"#utility.yul\":20258:20261   */\n      dup3\n        /* \"#utility.yul\":20254:20266   */\n      add\n        /* \"#utility.yul\":20247:20266   */\n      swap1\n      pop\n        /* \"#utility.yul\":19906:20272   */\n      swap2\n      swap1\n      pop\n      jump\t// out\n        /* \"#utility.yul\":20278:20697   */\n    tag_176:\n        /* \"#utility.yul\":20444:20448   */\n      0x00\n        /* \"#utility.yul\":20482:20484   */\n      0x20\n        /* \"#utility.yul\":20471:20480   */\n      dup3\n        /* \"#utility.yul\":20467:20485   */\n      add\n        /* \"#utility.yul\":20459:20485   */\n      swap1\n      pop\n        /* \"#utility.yul\":20531:20540   */\n      dup2\n        /* \"#utility.yul\":20525:20529   */\n      dup2\n        /* \"#utility.yul\":20521:20541   */\n      sub\n        /* \"#utility.yul\":20517:20518   */\n      0x00\n        /* \"#utility.yul\":20506:20515   */\n      dup4\n        /* \"#utility.yul\":20502:20519   */\n      add\n        /* \"#utility.yul\":20495:20542   */\n      mstore\n        /* \"#utility.yul\":20559:20690   */\n      tag_467\n        /* \"#utility.yul\":20685:20689   */\n      dup2\n        /* \"#utility.yul\":20559:20690   */\n      tag_254\n      jump\t// in\n    tag_467:\n        /* \"#utility.yul\":20551:20690   */\n      swap1\n      pop\n        /* \"#utility.yul\":20278:20697   */\n      swap2\n      swap1\n      pop\n      jump\t// out\n        /* \"#utility.yul\":20703:20877   */\n    tag_255:\n        /* \"#utility.yul\":20843:20869   */\n      0x7468697320746f6b656e20616c72656164792065786973740000000000000000\n        /* \"#utility.yul\":20839:20840   */\n      0x00\n        /* \"#utility.yul\":20831:20837   */\n      dup3\n        /* \"#utility.yul\":20827:20841   */\n      add\n        /* \"#utility.yul\":20820:20870   */\n      mstore\n        /* \"#utility.yul\":20703:20877   */\n      pop\n      jump\t// out\n        /* \"#utility.yul\":20883:21249   */\n    tag_256:\n        /* \"#utility.yul\":21025:21028   */\n      0x00\n        /* \"#utility.yul\":21046:21113   */\n      tag_470\n        /* \"#utility.yul\":21110:21112   */\n      0x18\n        /* \"#utility.yul\":21105:21108   */\n      dup4\n        /* \"#utility.yul\":21046:21113   */\n      tag_207\n      jump\t// in\n    tag_470:\n        /* \"#utility.yul\":21039:21113   */\n      swap2\n      pop\n        /* \"#utility.yul\":21122:21215   */\n      tag_471\n        /* \"#utility.yul\":21211:21214   */\n      dup3\n        /* \"#utility.yul\":21122:21215   */\n      tag_255\n      jump\t// in\n    tag_471:\n        /* \"#utility.yul\":21240:21242   */\n      0x20\n        /* \"#utility.yul\":21235:21238   */\n      dup3\n        /* \"#utility.yul\":21231:21243   */\n      add\n        /* \"#utility.yul\":21224:21243   */\n      swap1\n      pop\n        /* \"#utility.yul\":20883:21249   */\n      swap2\n      swap1\n      pop\n      jump\t// out\n        /* \"#utility.yul\":21255:21674   */\n    tag_183:\n        /* \"#utility.yul\":21421:21425   */\n      0x00\n        /* \"#utility.yul\":21459:21461   */\n      0x20\n        /* \"#utility.yul\":21448:21457   */\n      dup3\n        /* \"#utility.yul\":21444:21462   */\n      add\n        /* \"#utility.yul\":21436:21462   */\n      swap1\n      pop\n        /* \"#utility.yul\":21508:21517   */\n      dup2\n        /* \"#utility.yul\":21502:21506   */\n      dup2\n        /* \"#utility.yul\":21498:21518   */\n      sub\n        /* \"#utility.yul\":21494:21495   */\n      0x00\n        /* \"#utility.yul\":21483:21492   */\n      dup4\n        /* \"#utility.yul\":21479:21496   */\n      add\n        /* \"#utility.yul\":21472:21519   */\n      mstore\n        /* \"#utility.yul\":21536:21667   */\n      tag_473\n        /* \"#utility.yul\":21662:21666   */\n      dup2\n        /* \"#utility.yul\":21536:21667   */\n      tag_256\n      jump\t// in\n    tag_473:\n        /* \"#utility.yul\":21528:21667   */\n      swap1\n      pop\n        /* \"#utility.yul\":21255:21674   */\n      swap2\n      swap1\n      pop\n      jump\t// out\n        /* \"#utility.yul\":21680:21862   */\n    tag_257:\n        /* \"#utility.yul\":21820:21854   */\n      0x4552433732313a207472616e73666572206e6f74206f776e657220746f6b656e\n        /* \"#utility.yul\":21816:21817   */\n      0x00\n        /* \"#utility.yul\":21808:21814   */\n      dup3\n        /* \"#utility.yul\":21804:21818   */\n      add\n        /* \"#utility.yul\":21797:21855   */\n      mstore\n        /* \"#utility.yul\":21680:21862   */\n      pop\n      jump\t// out\n        /* \"#utility.yul\":21868:22234   */\n    tag_258:\n        /* \"#utility.yul\":22010:22013   */\n      0x00\n        /* \"#utility.yul\":22031:22098   */\n      tag_476\n        /* \"#utility.yul\":22095:22097   */\n      0x20\n        /* \"#utility.yul\":22090:22093   */\n      dup4\n        /* \"#utility.yul\":22031:22098   */\n      tag_207\n      jump\t// in\n    tag_476:\n        /* \"#utility.yul\":22024:22098   */\n      swap2\n      pop\n        /* \"#utility.yul\":22107:22200   */\n      tag_477\n        /* \"#utility.yul\":22196:22199   */\n      dup3\n        /* \"#utility.yul\":22107:22200   */\n      tag_257\n      jump\t// in\n    tag_477:\n        /* \"#utility.yul\":22225:22227   */\n      0x20\n        /* \"#utility.yul\":22220:22223   */\n      dup3\n        /* \"#utility.yul\":22216:22228   */\n      add\n        /* \"#utility.yul\":22209:22228   */\n      swap1\n      pop\n        /* \"#utility.yul\":21868:22234   */\n      swap2\n      swap1\n      pop\n      jump\t// out\n        /* \"#utility.yul\":22240:22659   */\n    tag_189:\n        /* \"#utility.yul\":22406:22410   */\n      0x00\n        /* \"#utility.yul\":22444:22446   */\n      0x20\n        /* \"#utility.yul\":22433:22442   */\n      dup3\n        /* \"#utility.yul\":22429:22447   */\n      add\n        /* \"#utility.yul\":22421:22447   */\n      swap1\n      pop\n        /* \"#utility.yul\":22493:22502   */\n      dup2\n        /* \"#utility.yul\":22487:22491   */\n      dup2\n        /* \"#utility.yul\":22483:22503   */\n      sub\n        /* \"#utility.yul\":22479:22480   */\n      0x00\n        /* \"#utility.yul\":22468:22477   */\n      dup4\n        /* \"#utility.yul\":22464:22481   */\n      add\n        /* \"#utility.yul\":22457:22504   */\n      mstore\n        /* \"#utility.yul\":22521:22652   */\n      tag_479\n        /* \"#utility.yul\":22647:22651   */\n      dup2\n        /* \"#utility.yul\":22521:22652   */\n      tag_258\n      jump\t// in\n    tag_479:\n        /* \"#utility.yul\":22513:22652   */\n      swap1\n      pop\n        /* \"#utility.yul\":22240:22659   */\n      swap2\n      swap1\n      pop\n      jump\t// out\n\n    auxdata: 0xa2646970667358221220f061a89bb34a368b8aeb69968327fa9c51b58d12b18bf79113aa569507ee5f3264736f6c634300080d0033\n}\n",
				"bytecode": {
					"linkReferences": {},
					"object": "608060405260016007553480156200001657600080fd5b506040518060400160405280600781526020017f5351464954454d000000000000000000000000000000000000000000000000008152506040518060400160405280600481526020017f53514649000000000000000000000000000000000000000000000000000000008152506040518060400160405280600881526020017f746573742e636f6d000000000000000000000000000000000000000000000000815250620000d9620000cd6200012d60201b60201c565b6200013560201b60201c565b8260049080519060200190620000f1929190620001f9565b5081600590805190602001906200010a929190620001f9565b50806006908051906020019062000123929190620001f9565b505050506200030d565b600033905090565b60008060009054906101000a900473ffffffffffffffffffffffffffffffffffffffff169050816000806101000a81548173ffffffffffffffffffffffffffffffffffffffff021916908373ffffffffffffffffffffffffffffffffffffffff1602179055508173ffffffffffffffffffffffffffffffffffffffff168173ffffffffffffffffffffffffffffffffffffffff167f8be0079c531659141344cd1fd0a4f28419497f9722a3daafe3b4186f6b6457e060405160405180910390a35050565b8280546200020790620002d8565b90600052602060002090601f0160209004810192826200022b576000855562000277565b82601f106200024657805160ff191683800117855562000277565b8280016001018555821562000277579182015b828111156200027657825182559160200191906001019062000259565b5b5090506200028691906200028a565b5090565b5b80821115620002a55760008160009055506001016200028b565b5090565b7f4e487b7100000000000000000000000000000000000000000000000000000000600052602260045260246000fd5b60006002820490506001821680620002f157607f821691505b602082108103620003075762000306620002a9565b5b50919050565b611ecb806200031d6000396000f3fe6080604052600436106100e85760003560e01c8063715018a61161008a578063c87b56dd11610059578063c87b56dd146102df578063d85d3d271461031c578063f2fde38b14610345578063f851a4401461036e576100e8565b8063715018a6146102445780638da5cb5b1461025b578063a9059cbb14610286578063b88d4fde146102c3576100e8565b806342842e0e116100c657806342842e0e1461018357806361b8ce8c1461019f5780636352211e146101ca57806370a0823114610207576100e8565b8063106cbf90146100ed578063150b7a021461012a57806323b872dd14610167575b600080fd5b3480156100f957600080fd5b50610114600480360381019061010f919061127a565b610399565b6040516101219190611340565b60405180910390f35b34801561013657600080fd5b50610151600480360381019061014c9190611425565b61043f565b60405161015e91906114e8565b60405180910390f35b610181600480360381019061017c9190611503565b61044a565b005b61019d60048036038101906101989190611503565b610665565b005b3480156101ab57600080fd5b506101b4610685565b6040516101c19190611565565b60405180910390f35b3480156101d657600080fd5b506101f160048036038101906101ec919061127a565b61068b565b6040516101fe919061158f565b60405180910390f35b34801561021357600080fd5b5061022e600480360381019061022991906115aa565b6106c8565b60405161023b9190611565565b60405180910390f35b34801561025057600080fd5b50610259610711565b005b34801561026757600080fd5b50610270610799565b60405161027d919061158f565b60405180910390f35b34801561029257600080fd5b506102ad60048036038101906102a891906115d7565b6107c2565b6040516102ba9190611632565b60405180910390f35b6102dd60048036038101906102d89190611425565b6107e0565b005b3480156102eb57600080fd5b506103066004803603810190610301919061127a565b610837565b6040516103139190611340565b60405180910390f35b34801561032857600080fd5b50610343600480360381019061033e919061177d565b610863565b005b34801561035157600080fd5b5061036c600480360381019061036791906115aa565b6108d4565b005b34801561037a57600080fd5b506103836109cb565b604051610390919061158f565b60405180910390f35b60096020528060005260406000206000915090508060000180546103bc906117f5565b80601f01602080910402602001604051908101604052809291908181526020018280546103e8906117f5565b80156104355780601f1061040a57610100808354040283529160200191610435565b820191906000526020600020905b81548152906001019060200180831161041857829003601f168201915b5050505050905081565b600095945050505050565b8273ffffffffffffffffffffffffffffffffffffffff163373ffffffffffffffffffffffffffffffffffffffff16146104b8576040517f08c379a00000000000000000000000000000000000000000000000000000000081526004016104af90611898565b60405180910390fd5b6002600082815260200190815260200160002060009054906101000a900473ffffffffffffffffffffffffffffffffffffffff1673ffffffffffffffffffffffffffffffffffffffff168373ffffffffffffffffffffffffffffffffffffffff1614610559576040517f08c379a000000000000000000000000000000000000000000000000000000000815260040161055090611898565b60405180910390fd5b60018060008573ffffffffffffffffffffffffffffffffffffffff1673ffffffffffffffffffffffffffffffffffffffff16815260200190815260200160002060008282546105a891906118e7565b9250508190555060018060008473ffffffffffffffffffffffffffffffffffffffff1673ffffffffffffffffffffffffffffffffffffffff16815260200190815260200160002060008282546105fe919061191b565b92505081905550808273ffffffffffffffffffffffffffffffffffffffff168473ffffffffffffffffffffffffffffffffffffffff167fddf252ad1be2c89b69c2b068fc378daa952ba7f163c4a11628f55a4df523b3ef60405160405180910390a4505050565b610680838383604051806020016040528060008152506109f1565b505050565b60075481565b60006002600083815260200190815260200160002060009054906101000a900473ffffffffffffffffffffffffffffffffffffffff169050919050565b6000600160008373ffffffffffffffffffffffffffffffffffffffff1673ffffffffffffffffffffffffffffffffffffffff168152602001908152602001600020549050919050565b610719610cb9565b73ffffffffffffffffffffffffffffffffffffffff16610737610799565b73ffffffffffffffffffffffffffffffffffffffff161461078d576040517f08c379a0000000000000000000000000000000000000000000000000000000008152600401610784906119bd565b60405180910390fd5b6107976000610cc1565b565b60008060009054906101000a900473ffffffffffffffffffffffffffffffffffffffff16905090565b60006107d66107cf610cb9565b8484610d85565b6001905092915050565b61083085858585858080601f016020809104026020016040519081016040528093929190818152602001838380828437600081840152601f19601f820116905080830192505050505050506109f1565b5050505050565b606060068260405160200161084d929190611a9d565b6040516020818303038152906040529050919050565b600060405180602001604052808381525090508060096000600754815260200190815260200160002060008201518160000190805190602001906108a892919061118d565b509050506108b833600754610f76565b600760008154809291906108cb90611ac5565b91905055505050565b6108dc610cb9565b73ffffffffffffffffffffffffffffffffffffffff166108fa610799565b73ffffffffffffffffffffffffffffffffffffffff1614610950576040517f08c379a0000000000000000000000000000000000000000000000000000000008152600401610947906119bd565b60405180910390fd5b600073ffffffffffffffffffffffffffffffffffffffff168173ffffffffffffffffffffffffffffffffffffffff16036109bf576040517f08c379a00000000000000000000000000000000000000000000000000000000081526004016109b690611b7f565b60405180910390fd5b6109c881610cc1565b50565b600860009054906101000a900473ffffffffffffffffffffffffffffffffffffffff1681565b8373ffffffffffffffffffffffffffffffffffffffff163373ffffffffffffffffffffffffffffffffffffffff1614610a5f576040517f08c379a0000000000000000000000000000000000000000000000000000000008152600401610a5690611898565b60405180910390fd5b6002600083815260200190815260200160002060009054906101000a900473ffffffffffffffffffffffffffffffffffffffff1673ffffffffffffffffffffffffffffffffffffffff168473ffffffffffffffffffffffffffffffffffffffff1614610b00576040517f08c379a0000000000000000000000000000000000000000000000000000000008152600401610af790611898565b60405180910390fd5b60018060008673ffffffffffffffffffffffffffffffffffffffff1673ffffffffffffffffffffffffffffffffffffffff1681526020019081526020016000206000828254610b4f91906118e7565b9250508190555060018060008573ffffffffffffffffffffffffffffffffffffffff1673ffffffffffffffffffffffffffffffffffffffff1681526020019081526020016000206000828254610ba5919061191b565b92505081905550818373ffffffffffffffffffffffffffffffffffffffff168573ffffffffffffffffffffffffffffffffffffffff167fddf252ad1be2c89b69c2b068fc378daa952ba7f163c4a11628f55a4df523b3ef60405160405180910390a4610c268373ffffffffffffffffffffffffffffffffffffffff166110c4565b15610cb35760008373ffffffffffffffffffffffffffffffffffffffff1663150b7a02338786866040518563ffffffff1660e01b8152600401610c6c9493929190611bf4565b6020604051808303816000875af1158015610c8b573d6000803e3d6000fd5b505050506040513d601f19601f82011682018060405250810190610caf9190611c6c565b9050505b50505050565b600033905090565b60008060009054906101000a900473ffffffffffffffffffffffffffffffffffffffff169050816000806101000a81548173ffffffffffffffffffffffffffffffffffffffff021916908373ffffffffffffffffffffffffffffffffffffffff1602179055508173ffffffffffffffffffffffffffffffffffffffff168173ffffffffffffffffffffffffffffffffffffffff167f8be0079c531659141344cd1fd0a4f28419497f9722a3daafe3b4186f6b6457e060405160405180910390a35050565b600073ffffffffffffffffffffffffffffffffffffffff168373ffffffffffffffffffffffffffffffffffffffff1603610df4576040517f08c379a0000000000000000000000000000000000000000000000000000000008152600401610deb90611d0b565b60405180910390fd5b600073ffffffffffffffffffffffffffffffffffffffff168273ffffffffffffffffffffffffffffffffffffffff1603610e63576040517f08c379a0000000000000000000000000000000000000000000000000000000008152600401610e5a90611d9d565b60405180910390fd5b610e6e8383836110e7565b816002600083815260200190815260200160002060006101000a81548173ffffffffffffffffffffffffffffffffffffffff021916908373ffffffffffffffffffffffffffffffffffffffff16021790555060018060008473ffffffffffffffffffffffffffffffffffffffff1673ffffffffffffffffffffffffffffffffffffffff1681526020019081526020016000206000828254610f0f919061191b565b92505081905550808273ffffffffffffffffffffffffffffffffffffffff168473ffffffffffffffffffffffffffffffffffffffff167fddf252ad1be2c89b69c2b068fc378daa952ba7f163c4a11628f55a4df523b3ef60405160405180910390a4505050565b600073ffffffffffffffffffffffffffffffffffffffff166002600083815260200190815260200160002060009054906101000a900473ffffffffffffffffffffffffffffffffffffffff1673ffffffffffffffffffffffffffffffffffffffff1614611018576040517f08c379a000000000000000000000000000000000000000000000000000000000815260040161100f90611e09565b60405180910390fd5b816002600083815260200190815260200160002060006101000a81548173ffffffffffffffffffffffffffffffffffffffff021916908373ffffffffffffffffffffffffffffffffffffffff16021790555060018060008473ffffffffffffffffffffffffffffffffffffffff1673ffffffffffffffffffffffffffffffffffffffff16815260200190815260200160002060008282546110b9919061191b565b925050819055505050565b6000808273ffffffffffffffffffffffffffffffffffffffff163b119050919050565b8273ffffffffffffffffffffffffffffffffffffffff166002600083815260200190815260200160002060009054906101000a900473ffffffffffffffffffffffffffffffffffffffff1673ffffffffffffffffffffffffffffffffffffffff1614611188576040517f08c379a000000000000000000000000000000000000000000000000000000000815260040161117f90611e75565b60405180910390fd5b505050565b828054611199906117f5565b90600052602060002090601f0160209004810192826111bb5760008555611202565b82601f106111d457805160ff1916838001178555611202565b82800160010185558215611202579182015b828111156112015782518255916020019190600101906111e6565b5b50905061120f9190611213565b5090565b5b8082111561122c576000816000905550600101611214565b5090565b6000604051905090565b600080fd5b600080fd5b6000819050919050565b61125781611244565b811461126257600080fd5b50565b6000813590506112748161124e565b92915050565b6000602082840312156112905761128f61123a565b5b600061129e84828501611265565b91505092915050565b600081519050919050565b600082825260208201905092915050565b60005b838110156112e15780820151818401526020810190506112c6565b838111156112f0576000848401525b50505050565b6000601f19601f8301169050919050565b6000611312826112a7565b61131c81856112b2565b935061132c8185602086016112c3565b611335816112f6565b840191505092915050565b6000602082019050818103600083015261135a8184611307565b905092915050565b600073ffffffffffffffffffffffffffffffffffffffff82169050919050565b600061138d82611362565b9050919050565b61139d81611382565b81146113a857600080fd5b50565b6000813590506113ba81611394565b92915050565b600080fd5b600080fd5b600080fd5b60008083601f8401126113e5576113e46113c0565b5b8235905067ffffffffffffffff811115611402576114016113c5565b5b60208301915083600182028301111561141e5761141d6113ca565b5b9250929050565b6000806000806000608086880312156114415761144061123a565b5b600061144f888289016113ab565b9550506020611460888289016113ab565b945050604061147188828901611265565b935050606086013567ffffffffffffffff8111156114925761149161123f565b5b61149e888289016113cf565b92509250509295509295909350565b60007fffffffff0000000000000000000000000000000000000000000000000000000082169050919050565b6114e2816114ad565b82525050565b60006020820190506114fd60008301846114d9565b92915050565b60008060006060848603121561151c5761151b61123a565b5b600061152a868287016113ab565b935050602061153b868287016113ab565b925050604061154c86828701611265565b9150509250925092565b61155f81611244565b82525050565b600060208201905061157a6000830184611556565b92915050565b61158981611382565b82525050565b60006020820190506115a46000830184611580565b92915050565b6000602082840312156115c0576115bf61123a565b5b60006115ce848285016113ab565b91505092915050565b600080604083850312156115ee576115ed61123a565b5b60006115fc858286016113ab565b925050602061160d85828601611265565b9150509250929050565b60008115159050919050565b61162c81611617565b82525050565b60006020820190506116476000830184611623565b92915050565b600080fd5b7f4e487b7100000000000000000000000000000000000000000000000000000000600052604160045260246000fd5b61168a826112f6565b810181811067ffffffffffffffff821117156116a9576116a8611652565b5b80604052505050565b60006116bc611230565b90506116c88282611681565b919050565b600067ffffffffffffffff8211156116e8576116e7611652565b5b6116f1826112f6565b9050602081019050919050565b82818337600083830152505050565b600061172061171b846116cd565b6116b2565b90508281526020810184848401111561173c5761173b61164d565b5b6117478482856116fe565b509392505050565b600082601f830112611764576117636113c0565b5b813561177484826020860161170d565b91505092915050565b6000602082840312156117935761179261123a565b5b600082013567ffffffffffffffff8111156117b1576117b061123f565b5b6117bd8482850161174f565b91505092915050565b7f4e487b7100000000000000000000000000000000000000000000000000000000600052602260045260246000fd5b6000600282049050600182168061180d57607f821691505b6020821081036118205761181f6117c6565b5b50919050565b7f4552433732313a2043616e277420417574686f72697a6564207468652074726160008201527f6e7366657220746f6b656e000000000000000000000000000000000000000000602082015250565b6000611882602b836112b2565b915061188d82611826565b604082019050919050565b600060208201905081810360008301526118b181611875565b9050919050565b7f4e487b7100000000000000000000000000000000000000000000000000000000600052601160045260246000fd5b60006118f282611244565b91506118fd83611244565b9250828210156119105761190f6118b8565b5b828203905092915050565b600061192682611244565b915061193183611244565b9250827fffffffffffffffffffffffffffffffffffffffffffffffffffffffffffffffff03821115611966576119656118b8565b5b828201905092915050565b7f4f776e61626c653a2063616c6c6572206973206e6f7420746865206f776e6572600082015250565b60006119a76020836112b2565b91506119b282611971565b602082019050919050565b600060208201905081810360008301526119d68161199a565b9050919050565b600081905092915050565b60008190508160005260206000209050919050565b60008154611a0a816117f5565b611a1481866119dd565b94506001821660008114611a2f5760018114611a4057611a73565b60ff19831686528186019350611a73565b611a49856119e8565b60005b83811015611a6b57815481890152600182019150602081019050611a4c565b838801955050505b50505092915050565b6000819050919050565b611a97611a9282611244565b611a7c565b82525050565b6000611aa982856119fd565b9150611ab58284611a86565b6020820191508190509392505050565b6000611ad082611244565b91507fffffffffffffffffffffffffffffffffffffffffffffffffffffffffffffffff8203611b0257611b016118b8565b5b600182019050919050565b7f4f776e61626c653a206e6577206f776e657220697320746865207a65726f206160008201527f6464726573730000000000000000000000000000000000000000000000000000602082015250565b6000611b696026836112b2565b9150611b7482611b0d565b604082019050919050565b60006020820190508181036000830152611b9881611b5c565b9050919050565b600081519050919050565b600082825260208201905092915050565b6000611bc682611b9f565b611bd08185611baa565b9350611be08185602086016112c3565b611be9816112f6565b840191505092915050565b6000608082019050611c096000830187611580565b611c166020830186611580565b611c236040830185611556565b8181036060830152611c358184611bbb565b905095945050505050565b611c49816114ad565b8114611c5457600080fd5b50565b600081519050611c6681611c40565b92915050565b600060208284031215611c8257611c8161123a565b5b6000611c9084828501611c57565b91505092915050565b7f4552433732313a207472616e736665722066726f6d20746865207a65726f206160008201527f6464726573730000000000000000000000000000000000000000000000000000602082015250565b6000611cf56026836112b2565b9150611d0082611c99565b604082019050919050565b60006020820190508181036000830152611d2481611ce8565b9050919050565b7f4552433732313a207472616e7366657220746f20746865207a65726f2061646460008201527f7265737300000000000000000000000000000000000000000000000000000000602082015250565b6000611d876024836112b2565b9150611d9282611d2b565b604082019050919050565b60006020820190508181036000830152611db681611d7a565b9050919050565b7f7468697320746f6b656e20616c72656164792065786973740000000000000000600082015250565b6000611df36018836112b2565b9150611dfe82611dbd565b602082019050919050565b60006020820190508181036000830152611e2281611de6565b9050919050565b7f4552433732313a207472616e73666572206e6f74206f776e657220746f6b656e600082015250565b6000611e5f6020836112b2565b9150611e6a82611e29565b602082019050919050565b60006020820190508181036000830152611e8e81611e52565b905091905056fea2646970667358221220f061a89bb34a368b8aeb69968327fa9c51b58d12b18bf79113aa569507ee5f3264736f6c634300080d0033",
					"opcodes": "PUSH1 0x80 PUSH1 0x40 MSTORE PUSH1 0x1 PUSH1 0x7 SSTORE CALLVALUE DUP1 ISZERO PUSH3 0x16 JUMPI PUSH1 0x0 DUP1 REVERT JUMPDEST POP PUSH1 0x40 MLOAD DUP1 PUSH1 0x40 ADD PUSH1 0x40 MSTORE DUP1 PUSH1 0x7 DUP2 MSTORE PUSH1 0x20 ADD PUSH32 0x5351464954454D00000000000000000000000000000000000000000000000000 DUP2 MSTORE POP PUSH1 0x40 MLOAD DUP1 PUSH1 0x40 ADD PUSH1 0x40 MSTORE DUP1 PUSH1 0x4 DUP2 MSTORE PUSH1 0x20 ADD PUSH32 0x5351464900000000000000000000000000000000000000000000000000000000 DUP2 MSTORE POP PUSH1 0x40 MLOAD DUP1 PUSH1 0x40 ADD PUSH1 0x40 MSTORE DUP1 PUSH1 0x8 DUP2 MSTORE PUSH1 0x20 ADD PUSH32 0x746573742E636F6D000000000000000000000000000000000000000000000000 DUP2 MSTORE POP PUSH3 0xD9 PUSH3 0xCD PUSH3 0x12D PUSH1 0x20 SHL PUSH1 0x20 SHR JUMP JUMPDEST PUSH3 0x135 PUSH1 0x20 SHL PUSH1 0x20 SHR JUMP JUMPDEST DUP3 PUSH1 0x4 SWAP1 DUP1 MLOAD SWAP1 PUSH1 0x20 ADD SWAP1 PUSH3 0xF1 SWAP3 SWAP2 SWAP1 PUSH3 0x1F9 JUMP JUMPDEST POP DUP2 PUSH1 0x5 SWAP1 DUP1 MLOAD SWAP1 PUSH1 0x20 ADD SWAP1 PUSH3 0x10A SWAP3 SWAP2 SWAP1 PUSH3 0x1F9 JUMP JUMPDEST POP DUP1 PUSH1 0x6 SWAP1 DUP1 MLOAD SWAP1 PUSH1 0x20 ADD SWAP1 PUSH3 0x123 SWAP3 SWAP2 SWAP1 PUSH3 0x1F9 JUMP JUMPDEST POP POP POP POP PUSH3 0x30D JUMP JUMPDEST PUSH1 0x0 CALLER SWAP1 POP SWAP1 JUMP JUMPDEST PUSH1 0x0 DUP1 PUSH1 0x0 SWAP1 SLOAD SWAP1 PUSH2 0x100 EXP SWAP1 DIV PUSH20 0xFFFFFFFFFFFFFFFFFFFFFFFFFFFFFFFFFFFFFFFF AND SWAP1 POP DUP2 PUSH1 0x0 DUP1 PUSH2 0x100 EXP DUP2 SLOAD DUP2 PUSH20 0xFFFFFFFFFFFFFFFFFFFFFFFFFFFFFFFFFFFFFFFF MUL NOT AND SWAP1 DUP4 PUSH20 0xFFFFFFFFFFFFFFFFFFFFFFFFFFFFFFFFFFFFFFFF AND MUL OR SWAP1 SSTORE POP DUP2 PUSH20 0xFFFFFFFFFFFFFFFFFFFFFFFFFFFFFFFFFFFFFFFF AND DUP2 PUSH20 0xFFFFFFFFFFFFFFFFFFFFFFFFFFFFFFFFFFFFFFFF AND PUSH32 0x8BE0079C531659141344CD1FD0A4F28419497F9722A3DAAFE3B4186F6B6457E0 PUSH1 0x40 MLOAD PUSH1 0x40 MLOAD DUP1 SWAP2 SUB SWAP1 LOG3 POP POP JUMP JUMPDEST DUP3 DUP1 SLOAD PUSH3 0x207 SWAP1 PUSH3 0x2D8 JUMP JUMPDEST SWAP1 PUSH1 0x0 MSTORE PUSH1 0x20 PUSH1 0x0 KECCAK256 SWAP1 PUSH1 0x1F ADD PUSH1 0x20 SWAP1 DIV DUP2 ADD SWAP3 DUP3 PUSH3 0x22B JUMPI PUSH1 0x0 DUP6 SSTORE PUSH3 0x277 JUMP JUMPDEST DUP3 PUSH1 0x1F LT PUSH3 0x246 JUMPI DUP1 MLOAD PUSH1 0xFF NOT AND DUP4 DUP1 ADD OR DUP6 SSTORE PUSH3 0x277 JUMP JUMPDEST DUP3 DUP1 ADD PUSH1 0x1 ADD DUP6 SSTORE DUP3 ISZERO PUSH3 0x277 JUMPI SWAP2 DUP3 ADD JUMPDEST DUP3 DUP2 GT ISZERO PUSH3 0x276 JUMPI DUP3 MLOAD DUP3 SSTORE SWAP2 PUSH1 0x20 ADD SWAP2 SWAP1 PUSH1 0x1 ADD SWAP1 PUSH3 0x259 JUMP JUMPDEST JUMPDEST POP SWAP1 POP PUSH3 0x286 SWAP2 SWAP1 PUSH3 0x28A JUMP JUMPDEST POP SWAP1 JUMP JUMPDEST JUMPDEST DUP1 DUP3 GT ISZERO PUSH3 0x2A5 JUMPI PUSH1 0x0 DUP2 PUSH1 0x0 SWAP1 SSTORE POP PUSH1 0x1 ADD PUSH3 0x28B JUMP JUMPDEST POP SWAP1 JUMP JUMPDEST PUSH32 0x4E487B7100000000000000000000000000000000000000000000000000000000 PUSH1 0x0 MSTORE PUSH1 0x22 PUSH1 0x4 MSTORE PUSH1 0x24 PUSH1 0x0 REVERT JUMPDEST PUSH1 0x0 PUSH1 0x2 DUP3 DIV SWAP1 POP PUSH1 0x1 DUP3 AND DUP1 PUSH3 0x2F1 JUMPI PUSH1 0x7F DUP3 AND SWAP2 POP JUMPDEST PUSH1 0x20 DUP3 LT DUP2 SUB PUSH3 0x307 JUMPI PUSH3 0x306 PUSH3 0x2A9 JUMP JUMPDEST JUMPDEST POP SWAP2 SWAP1 POP JUMP JUMPDEST PUSH2 0x1ECB DUP1 PUSH3 0x31D PUSH1 0x0 CODECOPY PUSH1 0x0 RETURN INVALID PUSH1 0x80 PUSH1 0x40 MSTORE PUSH1 0x4 CALLDATASIZE LT PUSH2 0xE8 JUMPI PUSH1 0x0 CALLDATALOAD PUSH1 0xE0 SHR DUP1 PUSH4 0x715018A6 GT PUSH2 0x8A JUMPI DUP1 PUSH4 0xC87B56DD GT PUSH2 0x59 JUMPI DUP1 PUSH4 0xC87B56DD EQ PUSH2 0x2DF JUMPI DUP1 PUSH4 0xD85D3D27 EQ PUSH2 0x31C JUMPI DUP1 PUSH4 0xF2FDE38B EQ PUSH2 0x345 JUMPI DUP1 PUSH4 0xF851A440 EQ PUSH2 0x36E JUMPI PUSH2 0xE8 JUMP JUMPDEST DUP1 PUSH4 0x715018A6 EQ PUSH2 0x244 JUMPI DUP1 PUSH4 0x8DA5CB5B EQ PUSH2 0x25B JUMPI DUP1 PUSH4 0xA9059CBB EQ PUSH2 0x286 JUMPI DUP1 PUSH4 0xB88D4FDE EQ PUSH2 0x2C3 JUMPI PUSH2 0xE8 JUMP JUMPDEST DUP1 PUSH4 0x42842E0E GT PUSH2 0xC6 JUMPI DUP1 PUSH4 0x42842E0E EQ PUSH2 0x183 JUMPI DUP1 PUSH4 0x61B8CE8C EQ PUSH2 0x19F JUMPI DUP1 PUSH4 0x6352211E EQ PUSH2 0x1CA JUMPI DUP1 PUSH4 0x70A08231 EQ PUSH2 0x207 JUMPI PUSH2 0xE8 JUMP JUMPDEST DUP1 PUSH4 0x106CBF90 EQ PUSH2 0xED JUMPI DUP1 PUSH4 0x150B7A02 EQ PUSH2 0x12A JUMPI DUP1 PUSH4 0x23B872DD EQ PUSH2 0x167 JUMPI JUMPDEST PUSH1 0x0 DUP1 REVERT JUMPDEST CALLVALUE DUP1 ISZERO PUSH2 0xF9 JUMPI PUSH1 0x0 DUP1 REVERT JUMPDEST POP PUSH2 0x114 PUSH1 0x4 DUP1 CALLDATASIZE SUB DUP2 ADD SWAP1 PUSH2 0x10F SWAP2 SWAP1 PUSH2 0x127A JUMP JUMPDEST PUSH2 0x399 JUMP JUMPDEST PUSH1 0x40 MLOAD PUSH2 0x121 SWAP2 SWAP1 PUSH2 0x1340 JUMP JUMPDEST PUSH1 0x40 MLOAD DUP1 SWAP2 SUB SWAP1 RETURN JUMPDEST CALLVALUE DUP1 ISZERO PUSH2 0x136 JUMPI PUSH1 0x0 DUP1 REVERT JUMPDEST POP PUSH2 0x151 PUSH1 0x4 DUP1 CALLDATASIZE SUB DUP2 ADD SWAP1 PUSH2 0x14C SWAP2 SWAP1 PUSH2 0x1425 JUMP JUMPDEST PUSH2 0x43F JUMP JUMPDEST PUSH1 0x40 MLOAD PUSH2 0x15E SWAP2 SWAP1 PUSH2 0x14E8 JUMP JUMPDEST PUSH1 0x40 MLOAD DUP1 SWAP2 SUB SWAP1 RETURN JUMPDEST PUSH2 0x181 PUSH1 0x4 DUP1 CALLDATASIZE SUB DUP2 ADD SWAP1 PUSH2 0x17C SWAP2 SWAP1 PUSH2 0x1503 JUMP JUMPDEST PUSH2 0x44A JUMP JUMPDEST STOP JUMPDEST PUSH2 0x19D PUSH1 0x4 DUP1 CALLDATASIZE SUB DUP2 ADD SWAP1 PUSH2 0x198 SWAP2 SWAP1 PUSH2 0x1503 JUMP JUMPDEST PUSH2 0x665 JUMP JUMPDEST STOP JUMPDEST CALLVALUE DUP1 ISZERO PUSH2 0x1AB JUMPI PUSH1 0x0 DUP1 REVERT JUMPDEST POP PUSH2 0x1B4 PUSH2 0x685 JUMP JUMPDEST PUSH1 0x40 MLOAD PUSH2 0x1C1 SWAP2 SWAP1 PUSH2 0x1565 JUMP JUMPDEST PUSH1 0x40 MLOAD DUP1 SWAP2 SUB SWAP1 RETURN JUMPDEST CALLVALUE DUP1 ISZERO PUSH2 0x1D6 JUMPI PUSH1 0x0 DUP1 REVERT JUMPDEST POP PUSH2 0x1F1 PUSH1 0x4 DUP1 CALLDATASIZE SUB DUP2 ADD SWAP1 PUSH2 0x1EC SWAP2 SWAP1 PUSH2 0x127A JUMP JUMPDEST PUSH2 0x68B JUMP JUMPDEST PUSH1 0x40 MLOAD PUSH2 0x1FE SWAP2 SWAP1 PUSH2 0x158F JUMP JUMPDEST PUSH1 0x40 MLOAD DUP1 SWAP2 SUB SWAP1 RETURN JUMPDEST CALLVALUE DUP1 ISZERO PUSH2 0x213 JUMPI PUSH1 0x0 DUP1 REVERT JUMPDEST POP PUSH2 0x22E PUSH1 0x4 DUP1 CALLDATASIZE SUB DUP2 ADD SWAP1 PUSH2 0x229 SWAP2 SWAP1 PUSH2 0x15AA JUMP JUMPDEST PUSH2 0x6C8 JUMP JUMPDEST PUSH1 0x40 MLOAD PUSH2 0x23B SWAP2 SWAP1 PUSH2 0x1565 JUMP JUMPDEST PUSH1 0x40 MLOAD DUP1 SWAP2 SUB SWAP1 RETURN JUMPDEST CALLVALUE DUP1 ISZERO PUSH2 0x250 JUMPI PUSH1 0x0 DUP1 REVERT JUMPDEST POP PUSH2 0x259 PUSH2 0x711 JUMP JUMPDEST STOP JUMPDEST CALLVALUE DUP1 ISZERO PUSH2 0x267 JUMPI PUSH1 0x0 DUP1 REVERT JUMPDEST POP PUSH2 0x270 PUSH2 0x799 JUMP JUMPDEST PUSH1 0x40 MLOAD PUSH2 0x27D SWAP2 SWAP1 PUSH2 0x158F JUMP JUMPDEST PUSH1 0x40 MLOAD DUP1 SWAP2 SUB SWAP1 RETURN JUMPDEST CALLVALUE DUP1 ISZERO PUSH2 0x292 JUMPI PUSH1 0x0 DUP1 REVERT JUMPDEST POP PUSH2 0x2AD PUSH1 0x4 DUP1 CALLDATASIZE SUB DUP2 ADD SWAP1 PUSH2 0x2A8 SWAP2 SWAP1 PUSH2 0x15D7 JUMP JUMPDEST PUSH2 0x7C2 JUMP JUMPDEST PUSH1 0x40 MLOAD PUSH2 0x2BA SWAP2 SWAP1 PUSH2 0x1632 JUMP JUMPDEST PUSH1 0x40 MLOAD DUP1 SWAP2 SUB SWAP1 RETURN JUMPDEST PUSH2 0x2DD PUSH1 0x4 DUP1 CALLDATASIZE SUB DUP2 ADD SWAP1 PUSH2 0x2D8 SWAP2 SWAP1 PUSH2 0x1425 JUMP JUMPDEST PUSH2 0x7E0 JUMP JUMPDEST STOP JUMPDEST CALLVALUE DUP1 ISZERO PUSH2 0x2EB JUMPI PUSH1 0x0 DUP1 REVERT JUMPDEST POP PUSH2 0x306 PUSH1 0x4 DUP1 CALLDATASIZE SUB DUP2 ADD SWAP1 PUSH2 0x301 SWAP2 SWAP1 PUSH2 0x127A JUMP JUMPDEST PUSH2 0x837 JUMP JUMPDEST PUSH1 0x40 MLOAD PUSH2 0x313 SWAP2 SWAP1 PUSH2 0x1340 JUMP JUMPDEST PUSH1 0x40 MLOAD DUP1 SWAP2 SUB SWAP1 RETURN JUMPDEST CALLVALUE DUP1 ISZERO PUSH2 0x328 JUMPI PUSH1 0x0 DUP1 REVERT JUMPDEST POP PUSH2 0x343 PUSH1 0x4 DUP1 CALLDATASIZE SUB DUP2 ADD SWAP1 PUSH2 0x33E SWAP2 SWAP1 PUSH2 0x177D JUMP JUMPDEST PUSH2 0x863 JUMP JUMPDEST STOP JUMPDEST CALLVALUE DUP1 ISZERO PUSH2 0x351 JUMPI PUSH1 0x0 DUP1 REVERT JUMPDEST POP PUSH2 0x36C PUSH1 0x4 DUP1 CALLDATASIZE SUB DUP2 ADD SWAP1 PUSH2 0x367 SWAP2 SWAP1 PUSH2 0x15AA JUMP JUMPDEST PUSH2 0x8D4 JUMP JUMPDEST STOP JUMPDEST CALLVALUE DUP1 ISZERO PUSH2 0x37A JUMPI PUSH1 0x0 DUP1 REVERT JUMPDEST POP PUSH2 0x383 PUSH2 0x9CB JUMP JUMPDEST PUSH1 0x40 MLOAD PUSH2 0x390 SWAP2 SWAP1 PUSH2 0x158F JUMP JUMPDEST PUSH1 0x40 MLOAD DUP1 SWAP2 SUB SWAP1 RETURN JUMPDEST PUSH1 0x9 PUSH1 0x20 MSTORE DUP1 PUSH1 0x0 MSTORE PUSH1 0x40 PUSH1 0x0 KECCAK256 PUSH1 0x0 SWAP2 POP SWAP1 POP DUP1 PUSH1 0x0 ADD DUP1 SLOAD PUSH2 0x3BC SWAP1 PUSH2 0x17F5 JUMP JUMPDEST DUP1 PUSH1 0x1F ADD PUSH1 0x20 DUP1 SWAP2 DIV MUL PUSH1 0x20 ADD PUSH1 0x40 MLOAD SWAP1 DUP2 ADD PUSH1 0x40 MSTORE DUP1 SWAP3 SWAP2 SWAP1 DUP2 DUP2 MSTORE PUSH1 0x20 ADD DUP3 DUP1 SLOAD PUSH2 0x3E8 SWAP1 PUSH2 0x17F5 JUMP JUMPDEST DUP1 ISZERO PUSH2 0x435 JUMPI DUP1 PUSH1 0x1F LT PUSH2 0x40A JUMPI PUSH2 0x100 DUP1 DUP4 SLOAD DIV MUL DUP4 MSTORE SWAP2 PUSH1 0x20 ADD SWAP2 PUSH2 0x435 JUMP JUMPDEST DUP3 ADD SWAP2 SWAP1 PUSH1 0x0 MSTORE PUSH1 0x20 PUSH1 0x0 KECCAK256 SWAP1 JUMPDEST DUP2 SLOAD DUP2 MSTORE SWAP1 PUSH1 0x1 ADD SWAP1 PUSH1 0x20 ADD DUP1 DUP4 GT PUSH2 0x418 JUMPI DUP3 SWAP1 SUB PUSH1 0x1F AND DUP3 ADD SWAP2 JUMPDEST POP POP POP POP POP SWAP1 POP DUP2 JUMP JUMPDEST PUSH1 0x0 SWAP6 SWAP5 POP POP POP POP POP JUMP JUMPDEST DUP3 PUSH20 0xFFFFFFFFFFFFFFFFFFFFFFFFFFFFFFFFFFFFFFFF AND CALLER PUSH20 0xFFFFFFFFFFFFFFFFFFFFFFFFFFFFFFFFFFFFFFFF AND EQ PUSH2 0x4B8 JUMPI PUSH1 0x40 MLOAD PUSH32 0x8C379A000000000000000000000000000000000000000000000000000000000 DUP2 MSTORE PUSH1 0x4 ADD PUSH2 0x4AF SWAP1 PUSH2 0x1898 JUMP JUMPDEST PUSH1 0x40 MLOAD DUP1 SWAP2 SUB SWAP1 REVERT JUMPDEST PUSH1 0x2 PUSH1 0x0 DUP3 DUP2 MSTORE PUSH1 0x20 ADD SWAP1 DUP2 MSTORE PUSH1 0x20 ADD PUSH1 0x0 KECCAK256 PUSH1 0x0 SWAP1 SLOAD SWAP1 PUSH2 0x100 EXP SWAP1 DIV PUSH20 0xFFFFFFFFFFFFFFFFFFFFFFFFFFFFFFFFFFFFFFFF AND PUSH20 0xFFFFFFFFFFFFFFFFFFFFFFFFFFFFFFFFFFFFFFFF AND DUP4 PUSH20 0xFFFFFFFFFFFFFFFFFFFFFFFFFFFFFFFFFFFFFFFF AND EQ PUSH2 0x559 JUMPI PUSH1 0x40 MLOAD PUSH32 0x8C379A000000000000000000000000000000000000000000000000000000000 DUP2 MSTORE PUSH1 0x4 ADD PUSH2 0x550 SWAP1 PUSH2 0x1898 JUMP JUMPDEST PUSH1 0x40 MLOAD DUP1 SWAP2 SUB SWAP1 REVERT JUMPDEST PUSH1 0x1 DUP1 PUSH1 0x0 DUP6 PUSH20 0xFFFFFFFFFFFFFFFFFFFFFFFFFFFFFFFFFFFFFFFF AND PUSH20 0xFFFFFFFFFFFFFFFFFFFFFFFFFFFFFFFFFFFFFFFF AND DUP2 MSTORE PUSH1 0x20 ADD SWAP1 DUP2 MSTORE PUSH1 0x20 ADD PUSH1 0x0 KECCAK256 PUSH1 0x0 DUP3 DUP3 SLOAD PUSH2 0x5A8 SWAP2 SWAP1 PUSH2 0x18E7 JUMP JUMPDEST SWAP3 POP POP DUP2 SWAP1 SSTORE POP PUSH1 0x1 DUP1 PUSH1 0x0 DUP5 PUSH20 0xFFFFFFFFFFFFFFFFFFFFFFFFFFFFFFFFFFFFFFFF AND PUSH20 0xFFFFFFFFFFFFFFFFFFFFFFFFFFFFFFFFFFFFFFFF AND DUP2 MSTORE PUSH1 0x20 ADD SWAP1 DUP2 MSTORE PUSH1 0x20 ADD PUSH1 0x0 KECCAK256 PUSH1 0x0 DUP3 DUP3 SLOAD PUSH2 0x5FE SWAP2 SWAP1 PUSH2 0x191B JUMP JUMPDEST SWAP3 POP POP DUP2 SWAP1 SSTORE POP DUP1 DUP3 PUSH20 0xFFFFFFFFFFFFFFFFFFFFFFFFFFFFFFFFFFFFFFFF AND DUP5 PUSH20 0xFFFFFFFFFFFFFFFFFFFFFFFFFFFFFFFFFFFFFFFF AND PUSH32 0xDDF252AD1BE2C89B69C2B068FC378DAA952BA7F163C4A11628F55A4DF523B3EF PUSH1 0x40 MLOAD PUSH1 0x40 MLOAD DUP1 SWAP2 SUB SWAP1 LOG4 POP POP POP JUMP JUMPDEST PUSH2 0x680 DUP4 DUP4 DUP4 PUSH1 0x40 MLOAD DUP1 PUSH1 0x20 ADD PUSH1 0x40 MSTORE DUP1 PUSH1 0x0 DUP2 MSTORE POP PUSH2 0x9F1 JUMP JUMPDEST POP POP POP JUMP JUMPDEST PUSH1 0x7 SLOAD DUP2 JUMP JUMPDEST PUSH1 0x0 PUSH1 0x2 PUSH1 0x0 DUP4 DUP2 MSTORE PUSH1 0x20 ADD SWAP1 DUP2 MSTORE PUSH1 0x20 ADD PUSH1 0x0 KECCAK256 PUSH1 0x0 SWAP1 SLOAD SWAP1 PUSH2 0x100 EXP SWAP1 DIV PUSH20 0xFFFFFFFFFFFFFFFFFFFFFFFFFFFFFFFFFFFFFFFF AND SWAP1 POP SWAP2 SWAP1 POP JUMP JUMPDEST PUSH1 0x0 PUSH1 0x1 PUSH1 0x0 DUP4 PUSH20 0xFFFFFFFFFFFFFFFFFFFFFFFFFFFFFFFFFFFFFFFF AND PUSH20 0xFFFFFFFFFFFFFFFFFFFFFFFFFFFFFFFFFFFFFFFF AND DUP2 MSTORE PUSH1 0x20 ADD SWAP1 DUP2 MSTORE PUSH1 0x20 ADD PUSH1 0x0 KECCAK256 SLOAD SWAP1 POP SWAP2 SWAP1 POP JUMP JUMPDEST PUSH2 0x719 PUSH2 0xCB9 JUMP JUMPDEST PUSH20 0xFFFFFFFFFFFFFFFFFFFFFFFFFFFFFFFFFFFFFFFF AND PUSH2 0x737 PUSH2 0x799 JUMP JUMPDEST PUSH20 0xFFFFFFFFFFFFFFFFFFFFFFFFFFFFFFFFFFFFFFFF AND EQ PUSH2 0x78D JUMPI PUSH1 0x40 MLOAD PUSH32 0x8C379A000000000000000000000000000000000000000000000000000000000 DUP2 MSTORE PUSH1 0x4 ADD PUSH2 0x784 SWAP1 PUSH2 0x19BD JUMP JUMPDEST PUSH1 0x40 MLOAD DUP1 SWAP2 SUB SWAP1 REVERT JUMPDEST PUSH2 0x797 PUSH1 0x0 PUSH2 0xCC1 JUMP JUMPDEST JUMP JUMPDEST PUSH1 0x0 DUP1 PUSH1 0x0 SWAP1 SLOAD SWAP1 PUSH2 0x100 EXP SWAP1 DIV PUSH20 0xFFFFFFFFFFFFFFFFFFFFFFFFFFFFFFFFFFFFFFFF AND SWAP1 POP SWAP1 JUMP JUMPDEST PUSH1 0x0 PUSH2 0x7D6 PUSH2 0x7CF PUSH2 0xCB9 JUMP JUMPDEST DUP5 DUP5 PUSH2 0xD85 JUMP JUMPDEST PUSH1 0x1 SWAP1 POP SWAP3 SWAP2 POP POP JUMP JUMPDEST PUSH2 0x830 DUP6 DUP6 DUP6 DUP6 DUP6 DUP1 DUP1 PUSH1 0x1F ADD PUSH1 0x20 DUP1 SWAP2 DIV MUL PUSH1 0x20 ADD PUSH1 0x40 MLOAD SWAP1 DUP2 ADD PUSH1 0x40 MSTORE DUP1 SWAP4 SWAP3 SWAP2 SWAP1 DUP2 DUP2 MSTORE PUSH1 0x20 ADD DUP4 DUP4 DUP1 DUP3 DUP5 CALLDATACOPY PUSH1 0x0 DUP2 DUP5 ADD MSTORE PUSH1 0x1F NOT PUSH1 0x1F DUP3 ADD AND SWAP1 POP DUP1 DUP4 ADD SWAP3 POP POP POP POP POP POP POP PUSH2 0x9F1 JUMP JUMPDEST POP POP POP POP POP JUMP JUMPDEST PUSH1 0x60 PUSH1 0x6 DUP3 PUSH1 0x40 MLOAD PUSH1 0x20 ADD PUSH2 0x84D SWAP3 SWAP2 SWAP1 PUSH2 0x1A9D JUMP JUMPDEST PUSH1 0x40 MLOAD PUSH1 0x20 DUP2 DUP4 SUB SUB DUP2 MSTORE SWAP1 PUSH1 0x40 MSTORE SWAP1 POP SWAP2 SWAP1 POP JUMP JUMPDEST PUSH1 0x0 PUSH1 0x40 MLOAD DUP1 PUSH1 0x20 ADD PUSH1 0x40 MSTORE DUP1 DUP4 DUP2 MSTORE POP SWAP1 POP DUP1 PUSH1 0x9 PUSH1 0x0 PUSH1 0x7 SLOAD DUP2 MSTORE PUSH1 0x20 ADD SWAP1 DUP2 MSTORE PUSH1 0x20 ADD PUSH1 0x0 KECCAK256 PUSH1 0x0 DUP3 ADD MLOAD DUP2 PUSH1 0x0 ADD SWAP1 DUP1 MLOAD SWAP1 PUSH1 0x20 ADD SWAP1 PUSH2 0x8A8 SWAP3 SWAP2 SWAP1 PUSH2 0x118D JUMP JUMPDEST POP SWAP1 POP POP PUSH2 0x8B8 CALLER PUSH1 0x7 SLOAD PUSH2 0xF76 JUMP JUMPDEST PUSH1 0x7 PUSH1 0x0 DUP2 SLOAD DUP1 SWAP3 SWAP2 SWAP1 PUSH2 0x8CB SWAP1 PUSH2 0x1AC5 JUMP JUMPDEST SWAP2 SWAP1 POP SSTORE POP POP POP JUMP JUMPDEST PUSH2 0x8DC PUSH2 0xCB9 JUMP JUMPDEST PUSH20 0xFFFFFFFFFFFFFFFFFFFFFFFFFFFFFFFFFFFFFFFF AND PUSH2 0x8FA PUSH2 0x799 JUMP JUMPDEST PUSH20 0xFFFFFFFFFFFFFFFFFFFFFFFFFFFFFFFFFFFFFFFF AND EQ PUSH2 0x950 JUMPI PUSH1 0x40 MLOAD PUSH32 0x8C379A000000000000000000000000000000000000000000000000000000000 DUP2 MSTORE PUSH1 0x4 ADD PUSH2 0x947 SWAP1 PUSH2 0x19BD JUMP JUMPDEST PUSH1 0x40 MLOAD DUP1 SWAP2 SUB SWAP1 REVERT JUMPDEST PUSH1 0x0 PUSH20 0xFFFFFFFFFFFFFFFFFFFFFFFFFFFFFFFFFFFFFFFF AND DUP2 PUSH20 0xFFFFFFFFFFFFFFFFFFFFFFFFFFFFFFFFFFFFFFFF AND SUB PUSH2 0x9BF JUMPI PUSH1 0x40 MLOAD PUSH32 0x8C379A000000000000000000000000000000000000000000000000000000000 DUP2 MSTORE PUSH1 0x4 ADD PUSH2 0x9B6 SWAP1 PUSH2 0x1B7F JUMP JUMPDEST PUSH1 0x40 MLOAD DUP1 SWAP2 SUB SWAP1 REVERT JUMPDEST PUSH2 0x9C8 DUP2 PUSH2 0xCC1 JUMP JUMPDEST POP JUMP JUMPDEST PUSH1 0x8 PUSH1 0x0 SWAP1 SLOAD SWAP1 PUSH2 0x100 EXP SWAP1 DIV PUSH20 0xFFFFFFFFFFFFFFFFFFFFFFFFFFFFFFFFFFFFFFFF AND DUP2 JUMP JUMPDEST DUP4 PUSH20 0xFFFFFFFFFFFFFFFFFFFFFFFFFFFFFFFFFFFFFFFF AND CALLER PUSH20 0xFFFFFFFFFFFFFFFFFFFFFFFFFFFFFFFFFFFFFFFF AND EQ PUSH2 0xA5F JUMPI PUSH1 0x40 MLOAD PUSH32 0x8C379A000000000000000000000000000000000000000000000000000000000 DUP2 MSTORE PUSH1 0x4 ADD PUSH2 0xA56 SWAP1 PUSH2 0x1898 JUMP JUMPDEST PUSH1 0x40 MLOAD DUP1 SWAP2 SUB SWAP1 REVERT JUMPDEST PUSH1 0x2 PUSH1 0x0 DUP4 DUP2 MSTORE PUSH1 0x20 ADD SWAP1 DUP2 MSTORE PUSH1 0x20 ADD PUSH1 0x0 KECCAK256 PUSH1 0x0 SWAP1 SLOAD SWAP1 PUSH2 0x100 EXP SWAP1 DIV PUSH20 0xFFFFFFFFFFFFFFFFFFFFFFFFFFFFFFFFFFFFFFFF AND PUSH20 0xFFFFFFFFFFFFFFFFFFFFFFFFFFFFFFFFFFFFFFFF AND DUP5 PUSH20 0xFFFFFFFFFFFFFFFFFFFFFFFFFFFFFFFFFFFFFFFF AND EQ PUSH2 0xB00 JUMPI PUSH1 0x40 MLOAD PUSH32 0x8C379A000000000000000000000000000000000000000000000000000000000 DUP2 MSTORE PUSH1 0x4 ADD PUSH2 0xAF7 SWAP1 PUSH2 0x1898 JUMP JUMPDEST PUSH1 0x40 MLOAD DUP1 SWAP2 SUB SWAP1 REVERT JUMPDEST PUSH1 0x1 DUP1 PUSH1 0x0 DUP7 PUSH20 0xFFFFFFFFFFFFFFFFFFFFFFFFFFFFFFFFFFFFFFFF AND PUSH20 0xFFFFFFFFFFFFFFFFFFFFFFFFFFFFFFFFFFFFFFFF AND DUP2 MSTORE PUSH1 0x20 ADD SWAP1 DUP2 MSTORE PUSH1 0x20 ADD PUSH1 0x0 KECCAK256 PUSH1 0x0 DUP3 DUP3 SLOAD PUSH2 0xB4F SWAP2 SWAP1 PUSH2 0x18E7 JUMP JUMPDEST SWAP3 POP POP DUP2 SWAP1 SSTORE POP PUSH1 0x1 DUP1 PUSH1 0x0 DUP6 PUSH20 0xFFFFFFFFFFFFFFFFFFFFFFFFFFFFFFFFFFFFFFFF AND PUSH20 0xFFFFFFFFFFFFFFFFFFFFFFFFFFFFFFFFFFFFFFFF AND DUP2 MSTORE PUSH1 0x20 ADD SWAP1 DUP2 MSTORE PUSH1 0x20 ADD PUSH1 0x0 KECCAK256 PUSH1 0x0 DUP3 DUP3 SLOAD PUSH2 0xBA5 SWAP2 SWAP1 PUSH2 0x191B JUMP JUMPDEST SWAP3 POP POP DUP2 SWAP1 SSTORE POP DUP2 DUP4 PUSH20 0xFFFFFFFFFFFFFFFFFFFFFFFFFFFFFFFFFFFFFFFF AND DUP6 PUSH20 0xFFFFFFFFFFFFFFFFFFFFFFFFFFFFFFFFFFFFFFFF AND PUSH32 0xDDF252AD1BE2C89B69C2B068FC378DAA952BA7F163C4A11628F55A4DF523B3EF PUSH1 0x40 MLOAD PUSH1 0x40 MLOAD DUP1 SWAP2 SUB SWAP1 LOG4 PUSH2 0xC26 DUP4 PUSH20 0xFFFFFFFFFFFFFFFFFFFFFFFFFFFFFFFFFFFFFFFF AND PUSH2 0x10C4 JUMP JUMPDEST ISZERO PUSH2 0xCB3 JUMPI PUSH1 0x0 DUP4 PUSH20 0xFFFFFFFFFFFFFFFFFFFFFFFFFFFFFFFFFFFFFFFF AND PUSH4 0x150B7A02 CALLER DUP8 DUP7 DUP7 PUSH1 0x40 MLOAD DUP6 PUSH4 0xFFFFFFFF AND PUSH1 0xE0 SHL DUP2 MSTORE PUSH1 0x4 ADD PUSH2 0xC6C SWAP5 SWAP4 SWAP3 SWAP2 SWAP1 PUSH2 0x1BF4 JUMP JUMPDEST PUSH1 0x20 PUSH1 0x40 MLOAD DUP1 DUP4 SUB DUP2 PUSH1 0x0 DUP8 GAS CALL ISZERO DUP1 ISZERO PUSH2 0xC8B JUMPI RETURNDATASIZE PUSH1 0x0 DUP1 RETURNDATACOPY RETURNDATASIZE PUSH1 0x0 REVERT JUMPDEST POP POP POP POP PUSH1 0x40 MLOAD RETURNDATASIZE PUSH1 0x1F NOT PUSH1 0x1F DUP3 ADD AND DUP3 ADD DUP1 PUSH1 0x40 MSTORE POP DUP2 ADD SWAP1 PUSH2 0xCAF SWAP2 SWAP1 PUSH2 0x1C6C JUMP JUMPDEST SWAP1 POP POP JUMPDEST POP POP POP POP JUMP JUMPDEST PUSH1 0x0 CALLER SWAP1 POP SWAP1 JUMP JUMPDEST PUSH1 0x0 DUP1 PUSH1 0x0 SWAP1 SLOAD SWAP1 PUSH2 0x100 EXP SWAP1 DIV PUSH20 0xFFFFFFFFFFFFFFFFFFFFFFFFFFFFFFFFFFFFFFFF AND SWAP1 POP DUP2 PUSH1 0x0 DUP1 PUSH2 0x100 EXP DUP2 SLOAD DUP2 PUSH20 0xFFFFFFFFFFFFFFFFFFFFFFFFFFFFFFFFFFFFFFFF MUL NOT AND SWAP1 DUP4 PUSH20 0xFFFFFFFFFFFFFFFFFFFFFFFFFFFFFFFFFFFFFFFF AND MUL OR SWAP1 SSTORE POP DUP2 PUSH20 0xFFFFFFFFFFFFFFFFFFFFFFFFFFFFFFFFFFFFFFFF AND DUP2 PUSH20 0xFFFFFFFFFFFFFFFFFFFFFFFFFFFFFFFFFFFFFFFF AND PUSH32 0x8BE0079C531659141344CD1FD0A4F28419497F9722A3DAAFE3B4186F6B6457E0 PUSH1 0x40 MLOAD PUSH1 0x40 MLOAD DUP1 SWAP2 SUB SWAP1 LOG3 POP POP JUMP JUMPDEST PUSH1 0x0 PUSH20 0xFFFFFFFFFFFFFFFFFFFFFFFFFFFFFFFFFFFFFFFF AND DUP4 PUSH20 0xFFFFFFFFFFFFFFFFFFFFFFFFFFFFFFFFFFFFFFFF AND SUB PUSH2 0xDF4 JUMPI PUSH1 0x40 MLOAD PUSH32 0x8C379A000000000000000000000000000000000000000000000000000000000 DUP2 MSTORE PUSH1 0x4 ADD PUSH2 0xDEB SWAP1 PUSH2 0x1D0B JUMP JUMPDEST PUSH1 0x40 MLOAD DUP1 SWAP2 SUB SWAP1 REVERT JUMPDEST PUSH1 0x0 PUSH20 0xFFFFFFFFFFFFFFFFFFFFFFFFFFFFFFFFFFFFFFFF AND DUP3 PUSH20 0xFFFFFFFFFFFFFFFFFFFFFFFFFFFFFFFFFFFFFFFF AND SUB PUSH2 0xE63 JUMPI PUSH1 0x40 MLOAD PUSH32 0x8C379A000000000000000000000000000000000000000000000000000000000 DUP2 MSTORE PUSH1 0x4 ADD PUSH2 0xE5A SWAP1 PUSH2 0x1D9D JUMP JUMPDEST PUSH1 0x40 MLOAD DUP1 SWAP2 SUB SWAP1 REVERT JUMPDEST PUSH2 0xE6E DUP4 DUP4 DUP4 PUSH2 0x10E7 JUMP JUMPDEST DUP2 PUSH1 0x2 PUSH1 0x0 DUP4 DUP2 MSTORE PUSH1 0x20 ADD SWAP1 DUP2 MSTORE PUSH1 0x20 ADD PUSH1 0x0 KECCAK256 PUSH1 0x0 PUSH2 0x100 EXP DUP2 SLOAD DUP2 PUSH20 0xFFFFFFFFFFFFFFFFFFFFFFFFFFFFFFFFFFFFFFFF MUL NOT AND SWAP1 DUP4 PUSH20 0xFFFFFFFFFFFFFFFFFFFFFFFFFFFFFFFFFFFFFFFF AND MUL OR SWAP1 SSTORE POP PUSH1 0x1 DUP1 PUSH1 0x0 DUP5 PUSH20 0xFFFFFFFFFFFFFFFFFFFFFFFFFFFFFFFFFFFFFFFF AND PUSH20 0xFFFFFFFFFFFFFFFFFFFFFFFFFFFFFFFFFFFFFFFF AND DUP2 MSTORE PUSH1 0x20 ADD SWAP1 DUP2 MSTORE PUSH1 0x20 ADD PUSH1 0x0 KECCAK256 PUSH1 0x0 DUP3 DUP3 SLOAD PUSH2 0xF0F SWAP2 SWAP1 PUSH2 0x191B JUMP JUMPDEST SWAP3 POP POP DUP2 SWAP1 SSTORE POP DUP1 DUP3 PUSH20 0xFFFFFFFFFFFFFFFFFFFFFFFFFFFFFFFFFFFFFFFF AND DUP5 PUSH20 0xFFFFFFFFFFFFFFFFFFFFFFFFFFFFFFFFFFFFFFFF AND PUSH32 0xDDF252AD1BE2C89B69C2B068FC378DAA952BA7F163C4A11628F55A4DF523B3EF PUSH1 0x40 MLOAD PUSH1 0x40 MLOAD DUP1 SWAP2 SUB SWAP1 LOG4 POP POP POP JUMP JUMPDEST PUSH1 0x0 PUSH20 0xFFFFFFFFFFFFFFFFFFFFFFFFFFFFFFFFFFFFFFFF AND PUSH1 0x2 PUSH1 0x0 DUP4 DUP2 MSTORE PUSH1 0x20 ADD SWAP1 DUP2 MSTORE PUSH1 0x20 ADD PUSH1 0x0 KECCAK256 PUSH1 0x0 SWAP1 SLOAD SWAP1 PUSH2 0x100 EXP SWAP1 DIV PUSH20 0xFFFFFFFFFFFFFFFFFFFFFFFFFFFFFFFFFFFFFFFF AND PUSH20 0xFFFFFFFFFFFFFFFFFFFFFFFFFFFFFFFFFFFFFFFF AND EQ PUSH2 0x1018 JUMPI PUSH1 0x40 MLOAD PUSH32 0x8C379A000000000000000000000000000000000000000000000000000000000 DUP2 MSTORE PUSH1 0x4 ADD PUSH2 0x100F SWAP1 PUSH2 0x1E09 JUMP JUMPDEST PUSH1 0x40 MLOAD DUP1 SWAP2 SUB SWAP1 REVERT JUMPDEST DUP2 PUSH1 0x2 PUSH1 0x0 DUP4 DUP2 MSTORE PUSH1 0x20 ADD SWAP1 DUP2 MSTORE PUSH1 0x20 ADD PUSH1 0x0 KECCAK256 PUSH1 0x0 PUSH2 0x100 EXP DUP2 SLOAD DUP2 PUSH20 0xFFFFFFFFFFFFFFFFFFFFFFFFFFFFFFFFFFFFFFFF MUL NOT AND SWAP1 DUP4 PUSH20 0xFFFFFFFFFFFFFFFFFFFFFFFFFFFFFFFFFFFFFFFF AND MUL OR SWAP1 SSTORE POP PUSH1 0x1 DUP1 PUSH1 0x0 DUP5 PUSH20 0xFFFFFFFFFFFFFFFFFFFFFFFFFFFFFFFFFFFFFFFF AND PUSH20 0xFFFFFFFFFFFFFFFFFFFFFFFFFFFFFFFFFFFFFFFF AND DUP2 MSTORE PUSH1 0x20 ADD SWAP1 DUP2 MSTORE PUSH1 0x20 ADD PUSH1 0x0 KECCAK256 PUSH1 0x0 DUP3 DUP3 SLOAD PUSH2 0x10B9 SWAP2 SWAP1 PUSH2 0x191B JUMP JUMPDEST SWAP3 POP POP DUP2 SWAP1 SSTORE POP POP POP JUMP JUMPDEST PUSH1 0x0 DUP1 DUP3 PUSH20 0xFFFFFFFFFFFFFFFFFFFFFFFFFFFFFFFFFFFFFFFF AND EXTCODESIZE GT SWAP1 POP SWAP2 SWAP1 POP JUMP JUMPDEST DUP3 PUSH20 0xFFFFFFFFFFFFFFFFFFFFFFFFFFFFFFFFFFFFFFFF AND PUSH1 0x2 PUSH1 0x0 DUP4 DUP2 MSTORE PUSH1 0x20 ADD SWAP1 DUP2 MSTORE PUSH1 0x20 ADD PUSH1 0x0 KECCAK256 PUSH1 0x0 SWAP1 SLOAD SWAP1 PUSH2 0x100 EXP SWAP1 DIV PUSH20 0xFFFFFFFFFFFFFFFFFFFFFFFFFFFFFFFFFFFFFFFF AND PUSH20 0xFFFFFFFFFFFFFFFFFFFFFFFFFFFFFFFFFFFFFFFF AND EQ PUSH2 0x1188 JUMPI PUSH1 0x40 MLOAD PUSH32 0x8C379A000000000000000000000000000000000000000000000000000000000 DUP2 MSTORE PUSH1 0x4 ADD PUSH2 0x117F SWAP1 PUSH2 0x1E75 JUMP JUMPDEST PUSH1 0x40 MLOAD DUP1 SWAP2 SUB SWAP1 REVERT JUMPDEST POP POP POP JUMP JUMPDEST DUP3 DUP1 SLOAD PUSH2 0x1199 SWAP1 PUSH2 0x17F5 JUMP JUMPDEST SWAP1 PUSH1 0x0 MSTORE PUSH1 0x20 PUSH1 0x0 KECCAK256 SWAP1 PUSH1 0x1F ADD PUSH1 0x20 SWAP1 DIV DUP2 ADD SWAP3 DUP3 PUSH2 0x11BB JUMPI PUSH1 0x0 DUP6 SSTORE PUSH2 0x1202 JUMP JUMPDEST DUP3 PUSH1 0x1F LT PUSH2 0x11D4 JUMPI DUP1 MLOAD PUSH1 0xFF NOT AND DUP4 DUP1 ADD OR DUP6 SSTORE PUSH2 0x1202 JUMP JUMPDEST DUP3 DUP1 ADD PUSH1 0x1 ADD DUP6 SSTORE DUP3 ISZERO PUSH2 0x1202 JUMPI SWAP2 DUP3 ADD JUMPDEST DUP3 DUP2 GT ISZERO PUSH2 0x1201 JUMPI DUP3 MLOAD DUP3 SSTORE SWAP2 PUSH1 0x20 ADD SWAP2 SWAP1 PUSH1 0x1 ADD SWAP1 PUSH2 0x11E6 JUMP JUMPDEST JUMPDEST POP SWAP1 POP PUSH2 0x120F SWAP2 SWAP1 PUSH2 0x1213 JUMP JUMPDEST POP SWAP1 JUMP JUMPDEST JUMPDEST DUP1 DUP3 GT ISZERO PUSH2 0x122C JUMPI PUSH1 0x0 DUP2 PUSH1 0x0 SWAP1 SSTORE POP PUSH1 0x1 ADD PUSH2 0x1214 JUMP JUMPDEST POP SWAP1 JUMP JUMPDEST PUSH1 0x0 PUSH1 0x40 MLOAD SWAP1 POP SWAP1 JUMP JUMPDEST PUSH1 0x0 DUP1 REVERT JUMPDEST PUSH1 0x0 DUP1 REVERT JUMPDEST PUSH1 0x0 DUP2 SWAP1 POP SWAP2 SWAP1 POP JUMP JUMPDEST PUSH2 0x1257 DUP2 PUSH2 0x1244 JUMP JUMPDEST DUP2 EQ PUSH2 0x1262 JUMPI PUSH1 0x0 DUP1 REVERT JUMPDEST POP JUMP JUMPDEST PUSH1 0x0 DUP2 CALLDATALOAD SWAP1 POP PUSH2 0x1274 DUP2 PUSH2 0x124E JUMP JUMPDEST SWAP3 SWAP2 POP POP JUMP JUMPDEST PUSH1 0x0 PUSH1 0x20 DUP3 DUP5 SUB SLT ISZERO PUSH2 0x1290 JUMPI PUSH2 0x128F PUSH2 0x123A JUMP JUMPDEST JUMPDEST PUSH1 0x0 PUSH2 0x129E DUP5 DUP3 DUP6 ADD PUSH2 0x1265 JUMP JUMPDEST SWAP2 POP POP SWAP3 SWAP2 POP POP JUMP JUMPDEST PUSH1 0x0 DUP2 MLOAD SWAP1 POP SWAP2 SWAP1 POP JUMP JUMPDEST PUSH1 0x0 DUP3 DUP3 MSTORE PUSH1 0x20 DUP3 ADD SWAP1 POP SWAP3 SWAP2 POP POP JUMP JUMPDEST PUSH1 0x0 JUMPDEST DUP4 DUP2 LT ISZERO PUSH2 0x12E1 JUMPI DUP1 DUP3 ADD MLOAD DUP2 DUP5 ADD MSTORE PUSH1 0x20 DUP2 ADD SWAP1 POP PUSH2 0x12C6 JUMP JUMPDEST DUP4 DUP2 GT ISZERO PUSH2 0x12F0 JUMPI PUSH1 0x0 DUP5 DUP5 ADD MSTORE JUMPDEST POP POP POP POP JUMP JUMPDEST PUSH1 0x0 PUSH1 0x1F NOT PUSH1 0x1F DUP4 ADD AND SWAP1 POP SWAP2 SWAP1 POP JUMP JUMPDEST PUSH1 0x0 PUSH2 0x1312 DUP3 PUSH2 0x12A7 JUMP JUMPDEST PUSH2 0x131C DUP2 DUP6 PUSH2 0x12B2 JUMP JUMPDEST SWAP4 POP PUSH2 0x132C DUP2 DUP6 PUSH1 0x20 DUP7 ADD PUSH2 0x12C3 JUMP JUMPDEST PUSH2 0x1335 DUP2 PUSH2 0x12F6 JUMP JUMPDEST DUP5 ADD SWAP2 POP POP SWAP3 SWAP2 POP POP JUMP JUMPDEST PUSH1 0x0 PUSH1 0x20 DUP3 ADD SWAP1 POP DUP2 DUP2 SUB PUSH1 0x0 DUP4 ADD MSTORE PUSH2 0x135A DUP2 DUP5 PUSH2 0x1307 JUMP JUMPDEST SWAP1 POP SWAP3 SWAP2 POP POP JUMP JUMPDEST PUSH1 0x0 PUSH20 0xFFFFFFFFFFFFFFFFFFFFFFFFFFFFFFFFFFFFFFFF DUP3 AND SWAP1 POP SWAP2 SWAP1 POP JUMP JUMPDEST PUSH1 0x0 PUSH2 0x138D DUP3 PUSH2 0x1362 JUMP JUMPDEST SWAP1 POP SWAP2 SWAP1 POP JUMP JUMPDEST PUSH2 0x139D DUP2 PUSH2 0x1382 JUMP JUMPDEST DUP2 EQ PUSH2 0x13A8 JUMPI PUSH1 0x0 DUP1 REVERT JUMPDEST POP JUMP JUMPDEST PUSH1 0x0 DUP2 CALLDATALOAD SWAP1 POP PUSH2 0x13BA DUP2 PUSH2 0x1394 JUMP JUMPDEST SWAP3 SWAP2 POP POP JUMP JUMPDEST PUSH1 0x0 DUP1 REVERT JUMPDEST PUSH1 0x0 DUP1 REVERT JUMPDEST PUSH1 0x0 DUP1 REVERT JUMPDEST PUSH1 0x0 DUP1 DUP4 PUSH1 0x1F DUP5 ADD SLT PUSH2 0x13E5 JUMPI PUSH2 0x13E4 PUSH2 0x13C0 JUMP JUMPDEST JUMPDEST DUP3 CALLDATALOAD SWAP1 POP PUSH8 0xFFFFFFFFFFFFFFFF DUP2 GT ISZERO PUSH2 0x1402 JUMPI PUSH2 0x1401 PUSH2 0x13C5 JUMP JUMPDEST JUMPDEST PUSH1 0x20 DUP4 ADD SWAP2 POP DUP4 PUSH1 0x1 DUP3 MUL DUP4 ADD GT ISZERO PUSH2 0x141E JUMPI PUSH2 0x141D PUSH2 0x13CA JUMP JUMPDEST JUMPDEST SWAP3 POP SWAP3 SWAP1 POP JUMP JUMPDEST PUSH1 0x0 DUP1 PUSH1 0x0 DUP1 PUSH1 0x0 PUSH1 0x80 DUP7 DUP9 SUB SLT ISZERO PUSH2 0x1441 JUMPI PUSH2 0x1440 PUSH2 0x123A JUMP JUMPDEST JUMPDEST PUSH1 0x0 PUSH2 0x144F DUP9 DUP3 DUP10 ADD PUSH2 0x13AB JUMP JUMPDEST SWAP6 POP POP PUSH1 0x20 PUSH2 0x1460 DUP9 DUP3 DUP10 ADD PUSH2 0x13AB JUMP JUMPDEST SWAP5 POP POP PUSH1 0x40 PUSH2 0x1471 DUP9 DUP3 DUP10 ADD PUSH2 0x1265 JUMP JUMPDEST SWAP4 POP POP PUSH1 0x60 DUP7 ADD CALLDATALOAD PUSH8 0xFFFFFFFFFFFFFFFF DUP2 GT ISZERO PUSH2 0x1492 JUMPI PUSH2 0x1491 PUSH2 0x123F JUMP JUMPDEST JUMPDEST PUSH2 0x149E DUP9 DUP3 DUP10 ADD PUSH2 0x13CF JUMP JUMPDEST SWAP3 POP SWAP3 POP POP SWAP3 SWAP6 POP SWAP3 SWAP6 SWAP1 SWAP4 POP JUMP JUMPDEST PUSH1 0x0 PUSH32 0xFFFFFFFF00000000000000000000000000000000000000000000000000000000 DUP3 AND SWAP1 POP SWAP2 SWAP1 POP JUMP JUMPDEST PUSH2 0x14E2 DUP2 PUSH2 0x14AD JUMP JUMPDEST DUP3 MSTORE POP POP JUMP JUMPDEST PUSH1 0x0 PUSH1 0x20 DUP3 ADD SWAP1 POP PUSH2 0x14FD PUSH1 0x0 DUP4 ADD DUP5 PUSH2 0x14D9 JUMP JUMPDEST SWAP3 SWAP2 POP POP JUMP JUMPDEST PUSH1 0x0 DUP1 PUSH1 0x0 PUSH1 0x60 DUP5 DUP7 SUB SLT ISZERO PUSH2 0x151C JUMPI PUSH2 0x151B PUSH2 0x123A JUMP JUMPDEST JUMPDEST PUSH1 0x0 PUSH2 0x152A DUP7 DUP3 DUP8 ADD PUSH2 0x13AB JUMP JUMPDEST SWAP4 POP POP PUSH1 0x20 PUSH2 0x153B DUP7 DUP3 DUP8 ADD PUSH2 0x13AB JUMP JUMPDEST SWAP3 POP POP PUSH1 0x40 PUSH2 0x154C DUP7 DUP3 DUP8 ADD PUSH2 0x1265 JUMP JUMPDEST SWAP2 POP POP SWAP3 POP SWAP3 POP SWAP3 JUMP JUMPDEST PUSH2 0x155F DUP2 PUSH2 0x1244 JUMP JUMPDEST DUP3 MSTORE POP POP JUMP JUMPDEST PUSH1 0x0 PUSH1 0x20 DUP3 ADD SWAP1 POP PUSH2 0x157A PUSH1 0x0 DUP4 ADD DUP5 PUSH2 0x1556 JUMP JUMPDEST SWAP3 SWAP2 POP POP JUMP JUMPDEST PUSH2 0x1589 DUP2 PUSH2 0x1382 JUMP JUMPDEST DUP3 MSTORE POP POP JUMP JUMPDEST PUSH1 0x0 PUSH1 0x20 DUP3 ADD SWAP1 POP PUSH2 0x15A4 PUSH1 0x0 DUP4 ADD DUP5 PUSH2 0x1580 JUMP JUMPDEST SWAP3 SWAP2 POP POP JUMP JUMPDEST PUSH1 0x0 PUSH1 0x20 DUP3 DUP5 SUB SLT ISZERO PUSH2 0x15C0 JUMPI PUSH2 0x15BF PUSH2 0x123A JUMP JUMPDEST JUMPDEST PUSH1 0x0 PUSH2 0x15CE DUP5 DUP3 DUP6 ADD PUSH2 0x13AB JUMP JUMPDEST SWAP2 POP POP SWAP3 SWAP2 POP POP JUMP JUMPDEST PUSH1 0x0 DUP1 PUSH1 0x40 DUP4 DUP6 SUB SLT ISZERO PUSH2 0x15EE JUMPI PUSH2 0x15ED PUSH2 0x123A JUMP JUMPDEST JUMPDEST PUSH1 0x0 PUSH2 0x15FC DUP6 DUP3 DUP7 ADD PUSH2 0x13AB JUMP JUMPDEST SWAP3 POP POP PUSH1 0x20 PUSH2 0x160D DUP6 DUP3 DUP7 ADD PUSH2 0x1265 JUMP JUMPDEST SWAP2 POP POP SWAP3 POP SWAP3 SWAP1 POP JUMP JUMPDEST PUSH1 0x0 DUP2 ISZERO ISZERO SWAP1 POP SWAP2 SWAP1 POP JUMP JUMPDEST PUSH2 0x162C DUP2 PUSH2 0x1617 JUMP JUMPDEST DUP3 MSTORE POP POP JUMP JUMPDEST PUSH1 0x0 PUSH1 0x20 DUP3 ADD SWAP1 POP PUSH2 0x1647 PUSH1 0x0 DUP4 ADD DUP5 PUSH2 0x1623 JUMP JUMPDEST SWAP3 SWAP2 POP POP JUMP JUMPDEST PUSH1 0x0 DUP1 REVERT JUMPDEST PUSH32 0x4E487B7100000000000000000000000000000000000000000000000000000000 PUSH1 0x0 MSTORE PUSH1 0x41 PUSH1 0x4 MSTORE PUSH1 0x24 PUSH1 0x0 REVERT JUMPDEST PUSH2 0x168A DUP3 PUSH2 0x12F6 JUMP JUMPDEST DUP2 ADD DUP2 DUP2 LT PUSH8 0xFFFFFFFFFFFFFFFF DUP3 GT OR ISZERO PUSH2 0x16A9 JUMPI PUSH2 0x16A8 PUSH2 0x1652 JUMP JUMPDEST JUMPDEST DUP1 PUSH1 0x40 MSTORE POP POP POP JUMP JUMPDEST PUSH1 0x0 PUSH2 0x16BC PUSH2 0x1230 JUMP JUMPDEST SWAP1 POP PUSH2 0x16C8 DUP3 DUP3 PUSH2 0x1681 JUMP JUMPDEST SWAP2 SWAP1 POP JUMP JUMPDEST PUSH1 0x0 PUSH8 0xFFFFFFFFFFFFFFFF DUP3 GT ISZERO PUSH2 0x16E8 JUMPI PUSH2 0x16E7 PUSH2 0x1652 JUMP JUMPDEST JUMPDEST PUSH2 0x16F1 DUP3 PUSH2 0x12F6 JUMP JUMPDEST SWAP1 POP PUSH1 0x20 DUP2 ADD SWAP1 POP SWAP2 SWAP1 POP JUMP JUMPDEST DUP3 DUP2 DUP4 CALLDATACOPY PUSH1 0x0 DUP4 DUP4 ADD MSTORE POP POP POP JUMP JUMPDEST PUSH1 0x0 PUSH2 0x1720 PUSH2 0x171B DUP5 PUSH2 0x16CD JUMP JUMPDEST PUSH2 0x16B2 JUMP JUMPDEST SWAP1 POP DUP3 DUP2 MSTORE PUSH1 0x20 DUP2 ADD DUP5 DUP5 DUP5 ADD GT ISZERO PUSH2 0x173C JUMPI PUSH2 0x173B PUSH2 0x164D JUMP JUMPDEST JUMPDEST PUSH2 0x1747 DUP5 DUP3 DUP6 PUSH2 0x16FE JUMP JUMPDEST POP SWAP4 SWAP3 POP POP POP JUMP JUMPDEST PUSH1 0x0 DUP3 PUSH1 0x1F DUP4 ADD SLT PUSH2 0x1764 JUMPI PUSH2 0x1763 PUSH2 0x13C0 JUMP JUMPDEST JUMPDEST DUP2 CALLDATALOAD PUSH2 0x1774 DUP5 DUP3 PUSH1 0x20 DUP7 ADD PUSH2 0x170D JUMP JUMPDEST SWAP2 POP POP SWAP3 SWAP2 POP POP JUMP JUMPDEST PUSH1 0x0 PUSH1 0x20 DUP3 DUP5 SUB SLT ISZERO PUSH2 0x1793 JUMPI PUSH2 0x1792 PUSH2 0x123A JUMP JUMPDEST JUMPDEST PUSH1 0x0 DUP3 ADD CALLDATALOAD PUSH8 0xFFFFFFFFFFFFFFFF DUP2 GT ISZERO PUSH2 0x17B1 JUMPI PUSH2 0x17B0 PUSH2 0x123F JUMP JUMPDEST JUMPDEST PUSH2 0x17BD DUP5 DUP3 DUP6 ADD PUSH2 0x174F JUMP JUMPDEST SWAP2 POP POP SWAP3 SWAP2 POP POP JUMP JUMPDEST PUSH32 0x4E487B7100000000000000000000000000000000000000000000000000000000 PUSH1 0x0 MSTORE PUSH1 0x22 PUSH1 0x4 MSTORE PUSH1 0x24 PUSH1 0x0 REVERT JUMPDEST PUSH1 0x0 PUSH1 0x2 DUP3 DIV SWAP1 POP PUSH1 0x1 DUP3 AND DUP1 PUSH2 0x180D JUMPI PUSH1 0x7F DUP3 AND SWAP2 POP JUMPDEST PUSH1 0x20 DUP3 LT DUP2 SUB PUSH2 0x1820 JUMPI PUSH2 0x181F PUSH2 0x17C6 JUMP JUMPDEST JUMPDEST POP SWAP2 SWAP1 POP JUMP JUMPDEST PUSH32 0x4552433732313A2043616E277420417574686F72697A65642074686520747261 PUSH1 0x0 DUP3 ADD MSTORE PUSH32 0x6E7366657220746F6B656E000000000000000000000000000000000000000000 PUSH1 0x20 DUP3 ADD MSTORE POP JUMP JUMPDEST PUSH1 0x0 PUSH2 0x1882 PUSH1 0x2B DUP4 PUSH2 0x12B2 JUMP JUMPDEST SWAP2 POP PUSH2 0x188D DUP3 PUSH2 0x1826 JUMP JUMPDEST PUSH1 0x40 DUP3 ADD SWAP1 POP SWAP2 SWAP1 POP JUMP JUMPDEST PUSH1 0x0 PUSH1 0x20 DUP3 ADD SWAP1 POP DUP2 DUP2 SUB PUSH1 0x0 DUP4 ADD MSTORE PUSH2 0x18B1 DUP2 PUSH2 0x1875 JUMP JUMPDEST SWAP1 POP SWAP2 SWAP1 POP JUMP JUMPDEST PUSH32 0x4E487B7100000000000000000000000000000000000000000000000000000000 PUSH1 0x0 MSTORE PUSH1 0x11 PUSH1 0x4 MSTORE PUSH1 0x24 PUSH1 0x0 REVERT JUMPDEST PUSH1 0x0 PUSH2 0x18F2 DUP3 PUSH2 0x1244 JUMP JUMPDEST SWAP2 POP PUSH2 0x18FD DUP4 PUSH2 0x1244 JUMP JUMPDEST SWAP3 POP DUP3 DUP3 LT ISZERO PUSH2 0x1910 JUMPI PUSH2 0x190F PUSH2 0x18B8 JUMP JUMPDEST JUMPDEST DUP3 DUP3 SUB SWAP1 POP SWAP3 SWAP2 POP POP JUMP JUMPDEST PUSH1 0x0 PUSH2 0x1926 DUP3 PUSH2 0x1244 JUMP JUMPDEST SWAP2 POP PUSH2 0x1931 DUP4 PUSH2 0x1244 JUMP JUMPDEST SWAP3 POP DUP3 PUSH32 0xFFFFFFFFFFFFFFFFFFFFFFFFFFFFFFFFFFFFFFFFFFFFFFFFFFFFFFFFFFFFFFFF SUB DUP3 GT ISZERO PUSH2 0x1966 JUMPI PUSH2 0x1965 PUSH2 0x18B8 JUMP JUMPDEST JUMPDEST DUP3 DUP3 ADD SWAP1 POP SWAP3 SWAP2 POP POP JUMP JUMPDEST PUSH32 0x4F776E61626C653A2063616C6C6572206973206E6F7420746865206F776E6572 PUSH1 0x0 DUP3 ADD MSTORE POP JUMP JUMPDEST PUSH1 0x0 PUSH2 0x19A7 PUSH1 0x20 DUP4 PUSH2 0x12B2 JUMP JUMPDEST SWAP2 POP PUSH2 0x19B2 DUP3 PUSH2 0x1971 JUMP JUMPDEST PUSH1 0x20 DUP3 ADD SWAP1 POP SWAP2 SWAP1 POP JUMP JUMPDEST PUSH1 0x0 PUSH1 0x20 DUP3 ADD SWAP1 POP DUP2 DUP2 SUB PUSH1 0x0 DUP4 ADD MSTORE PUSH2 0x19D6 DUP2 PUSH2 0x199A JUMP JUMPDEST SWAP1 POP SWAP2 SWAP1 POP JUMP JUMPDEST PUSH1 0x0 DUP2 SWAP1 POP SWAP3 SWAP2 POP POP JUMP JUMPDEST PUSH1 0x0 DUP2 SWAP1 POP DUP2 PUSH1 0x0 MSTORE PUSH1 0x20 PUSH1 0x0 KECCAK256 SWAP1 POP SWAP2 SWAP1 POP JUMP JUMPDEST PUSH1 0x0 DUP2 SLOAD PUSH2 0x1A0A DUP2 PUSH2 0x17F5 JUMP JUMPDEST PUSH2 0x1A14 DUP2 DUP7 PUSH2 0x19DD JUMP JUMPDEST SWAP5 POP PUSH1 0x1 DUP3 AND PUSH1 0x0 DUP2 EQ PUSH2 0x1A2F JUMPI PUSH1 0x1 DUP2 EQ PUSH2 0x1A40 JUMPI PUSH2 0x1A73 JUMP JUMPDEST PUSH1 0xFF NOT DUP4 AND DUP7 MSTORE DUP2 DUP7 ADD SWAP4 POP PUSH2 0x1A73 JUMP JUMPDEST PUSH2 0x1A49 DUP6 PUSH2 0x19E8 JUMP JUMPDEST PUSH1 0x0 JUMPDEST DUP4 DUP2 LT ISZERO PUSH2 0x1A6B JUMPI DUP2 SLOAD DUP2 DUP10 ADD MSTORE PUSH1 0x1 DUP3 ADD SWAP2 POP PUSH1 0x20 DUP2 ADD SWAP1 POP PUSH2 0x1A4C JUMP JUMPDEST DUP4 DUP9 ADD SWAP6 POP POP POP JUMPDEST POP POP POP SWAP3 SWAP2 POP POP JUMP JUMPDEST PUSH1 0x0 DUP2 SWAP1 POP SWAP2 SWAP1 POP JUMP JUMPDEST PUSH2 0x1A97 PUSH2 0x1A92 DUP3 PUSH2 0x1244 JUMP JUMPDEST PUSH2 0x1A7C JUMP JUMPDEST DUP3 MSTORE POP POP JUMP JUMPDEST PUSH1 0x0 PUSH2 0x1AA9 DUP3 DUP6 PUSH2 0x19FD JUMP JUMPDEST SWAP2 POP PUSH2 0x1AB5 DUP3 DUP5 PUSH2 0x1A86 JUMP JUMPDEST PUSH1 0x20 DUP3 ADD SWAP2 POP DUP2 SWAP1 POP SWAP4 SWAP3 POP POP POP JUMP JUMPDEST PUSH1 0x0 PUSH2 0x1AD0 DUP3 PUSH2 0x1244 JUMP JUMPDEST SWAP2 POP PUSH32 0xFFFFFFFFFFFFFFFFFFFFFFFFFFFFFFFFFFFFFFFFFFFFFFFFFFFFFFFFFFFFFFFF DUP3 SUB PUSH2 0x1B02 JUMPI PUSH2 0x1B01 PUSH2 0x18B8 JUMP JUMPDEST JUMPDEST PUSH1 0x1 DUP3 ADD SWAP1 POP SWAP2 SWAP1 POP JUMP JUMPDEST PUSH32 0x4F776E61626C653A206E6577206F776E657220697320746865207A65726F2061 PUSH1 0x0 DUP3 ADD MSTORE PUSH32 0x6464726573730000000000000000000000000000000000000000000000000000 PUSH1 0x20 DUP3 ADD MSTORE POP JUMP JUMPDEST PUSH1 0x0 PUSH2 0x1B69 PUSH1 0x26 DUP4 PUSH2 0x12B2 JUMP JUMPDEST SWAP2 POP PUSH2 0x1B74 DUP3 PUSH2 0x1B0D JUMP JUMPDEST PUSH1 0x40 DUP3 ADD SWAP1 POP SWAP2 SWAP1 POP JUMP JUMPDEST PUSH1 0x0 PUSH1 0x20 DUP3 ADD SWAP1 POP DUP2 DUP2 SUB PUSH1 0x0 DUP4 ADD MSTORE PUSH2 0x1B98 DUP2 PUSH2 0x1B5C JUMP JUMPDEST SWAP1 POP SWAP2 SWAP1 POP JUMP JUMPDEST PUSH1 0x0 DUP2 MLOAD SWAP1 POP SWAP2 SWAP1 POP JUMP JUMPDEST PUSH1 0x0 DUP3 DUP3 MSTORE PUSH1 0x20 DUP3 ADD SWAP1 POP SWAP3 SWAP2 POP POP JUMP JUMPDEST PUSH1 0x0 PUSH2 0x1BC6 DUP3 PUSH2 0x1B9F JUMP JUMPDEST PUSH2 0x1BD0 DUP2 DUP6 PUSH2 0x1BAA JUMP JUMPDEST SWAP4 POP PUSH2 0x1BE0 DUP2 DUP6 PUSH1 0x20 DUP7 ADD PUSH2 0x12C3 JUMP JUMPDEST PUSH2 0x1BE9 DUP2 PUSH2 0x12F6 JUMP JUMPDEST DUP5 ADD SWAP2 POP POP SWAP3 SWAP2 POP POP JUMP JUMPDEST PUSH1 0x0 PUSH1 0x80 DUP3 ADD SWAP1 POP PUSH2 0x1C09 PUSH1 0x0 DUP4 ADD DUP8 PUSH2 0x1580 JUMP JUMPDEST PUSH2 0x1C16 PUSH1 0x20 DUP4 ADD DUP7 PUSH2 0x1580 JUMP JUMPDEST PUSH2 0x1C23 PUSH1 0x40 DUP4 ADD DUP6 PUSH2 0x1556 JUMP JUMPDEST DUP2 DUP2 SUB PUSH1 0x60 DUP4 ADD MSTORE PUSH2 0x1C35 DUP2 DUP5 PUSH2 0x1BBB JUMP JUMPDEST SWAP1 POP SWAP6 SWAP5 POP POP POP POP POP JUMP JUMPDEST PUSH2 0x1C49 DUP2 PUSH2 0x14AD JUMP JUMPDEST DUP2 EQ PUSH2 0x1C54 JUMPI PUSH1 0x0 DUP1 REVERT JUMPDEST POP JUMP JUMPDEST PUSH1 0x0 DUP2 MLOAD SWAP1 POP PUSH2 0x1C66 DUP2 PUSH2 0x1C40 JUMP JUMPDEST SWAP3 SWAP2 POP POP JUMP JUMPDEST PUSH1 0x0 PUSH1 0x20 DUP3 DUP5 SUB SLT ISZERO PUSH2 0x1C82 JUMPI PUSH2 0x1C81 PUSH2 0x123A JUMP JUMPDEST JUMPDEST PUSH1 0x0 PUSH2 0x1C90 DUP5 DUP3 DUP6 ADD PUSH2 0x1C57 JUMP JUMPDEST SWAP2 POP POP SWAP3 SWAP2 POP POP JUMP JUMPDEST PUSH32 0x4552433732313A207472616E736665722066726F6D20746865207A65726F2061 PUSH1 0x0 DUP3 ADD MSTORE PUSH32 0x6464726573730000000000000000000000000000000000000000000000000000 PUSH1 0x20 DUP3 ADD MSTORE POP JUMP JUMPDEST PUSH1 0x0 PUSH2 0x1CF5 PUSH1 0x26 DUP4 PUSH2 0x12B2 JUMP JUMPDEST SWAP2 POP PUSH2 0x1D00 DUP3 PUSH2 0x1C99 JUMP JUMPDEST PUSH1 0x40 DUP3 ADD SWAP1 POP SWAP2 SWAP1 POP JUMP JUMPDEST PUSH1 0x0 PUSH1 0x20 DUP3 ADD SWAP1 POP DUP2 DUP2 SUB PUSH1 0x0 DUP4 ADD MSTORE PUSH2 0x1D24 DUP2 PUSH2 0x1CE8 JUMP JUMPDEST SWAP1 POP SWAP2 SWAP1 POP JUMP JUMPDEST PUSH32 0x4552433732313A207472616E7366657220746F20746865207A65726F20616464 PUSH1 0x0 DUP3 ADD MSTORE PUSH32 0x7265737300000000000000000000000000000000000000000000000000000000 PUSH1 0x20 DUP3 ADD MSTORE POP JUMP JUMPDEST PUSH1 0x0 PUSH2 0x1D87 PUSH1 0x24 DUP4 PUSH2 0x12B2 JUMP JUMPDEST SWAP2 POP PUSH2 0x1D92 DUP3 PUSH2 0x1D2B JUMP JUMPDEST PUSH1 0x40 DUP3 ADD SWAP1 POP SWAP2 SWAP1 POP JUMP JUMPDEST PUSH1 0x0 PUSH1 0x20 DUP3 ADD SWAP1 POP DUP2 DUP2 SUB PUSH1 0x0 DUP4 ADD MSTORE PUSH2 0x1DB6 DUP2 PUSH2 0x1D7A JUMP JUMPDEST SWAP1 POP SWAP2 SWAP1 POP JUMP JUMPDEST PUSH32 0x7468697320746F6B656E20616C72656164792065786973740000000000000000 PUSH1 0x0 DUP3 ADD MSTORE POP JUMP JUMPDEST PUSH1 0x0 PUSH2 0x1DF3 PUSH1 0x18 DUP4 PUSH2 0x12B2 JUMP JUMPDEST SWAP2 POP PUSH2 0x1DFE DUP3 PUSH2 0x1DBD JUMP JUMPDEST PUSH1 0x20 DUP3 ADD SWAP1 POP SWAP2 SWAP1 POP JUMP JUMPDEST PUSH1 0x0 PUSH1 0x20 DUP3 ADD SWAP1 POP DUP2 DUP2 SUB PUSH1 0x0 DUP4 ADD MSTORE PUSH2 0x1E22 DUP2 PUSH2 0x1DE6 JUMP JUMPDEST SWAP1 POP SWAP2 SWAP1 POP JUMP JUMPDEST PUSH32 0x4552433732313A207472616E73666572206E6F74206F776E657220746F6B656E PUSH1 0x0 DUP3 ADD MSTORE POP JUMP JUMPDEST PUSH1 0x0 PUSH2 0x1E5F PUSH1 0x20 DUP4 PUSH2 0x12B2 JUMP JUMPDEST SWAP2 POP PUSH2 0x1E6A DUP3 PUSH2 0x1E29 JUMP JUMPDEST PUSH1 0x20 DUP3 ADD SWAP1 POP SWAP2 SWAP1 POP JUMP JUMPDEST PUSH1 0x0 PUSH1 0x20 DUP3 ADD SWAP1 POP DUP2 DUP2 SUB PUSH1 0x0 DUP4 ADD MSTORE PUSH2 0x1E8E DUP2 PUSH2 0x1E52 JUMP JUMPDEST SWAP1 POP SWAP2 SWAP1 POP JUMP INVALID LOG2 PUSH5 0x6970667358 0x22 SLT KECCAK256 CREATE PUSH2 0xA89B 0xB3 0x4A CALLDATASIZE DUP12 DUP11 0xEB PUSH10 0x968327FA9C51B58D12B1 DUP12 0xF7 SWAP2 SGT 0xAA JUMP SWAP6 SMOD 0xEE 0x5F ORIGIN PUSH5 0x736F6C6343 STOP ADDMOD 0xD STOP CALLER "
				},
				"gasEstimates": {
					"creation": {
						"codeDepositCost": "1576600",
						"executionCost": "infinite",
						"totalCost": "infinite"
					},
					"external": {
						"admin()": "2602",
						"balanceOf(address)": "2930",
						"mint(string)": "infinite",
						"nextId()": "2474",
						"onERC721Received(address,address,uint256,bytes)": "infinite",
						"owner()": "2567",
						"ownerOf(uint256)": "2932",
						"renounceOwnership()": "30397",
						"safeTransferFrom(address,address,uint256)": "infinite",
						"safeTransferFrom(address,address,uint256,bytes)": "infinite",
						"tokenURI(uint256)": "infinite",
						"transfer(address,uint256)": "infinite",
						"transferFrom(address,address,uint256)": "infinite",
						"transferOwnership(address)": "30786",
						"weaponDetail(uint256)": "infinite"
					}
				},
				"methodIdentifiers": {
					"admin()": "f851a440",
					"balanceOf(address)": "70a08231",
					"mint(string)": "d85d3d27",
					"nextId()": "61b8ce8c",
					"onERC721Received(address,address,uint256,bytes)": "150b7a02",
					"owner()": "8da5cb5b",
					"ownerOf(uint256)": "6352211e",
					"renounceOwnership()": "715018a6",
					"safeTransferFrom(address,address,uint256)": "42842e0e",
					"safeTransferFrom(address,address,uint256,bytes)": "b88d4fde",
					"tokenURI(uint256)": "c87b56dd",
					"transfer(address,uint256)": "a9059cbb",
					"transferFrom(address,address,uint256)": "23b872dd",
					"transferOwnership(address)": "f2fde38b",
					"weaponDetail(uint256)": "106cbf90"
				}
			},
			"storageLayout": {
				"storage": [
					{
						"astId": 305,
						"contract": "contracts/NFT_Demo/NFT.sol:SQFItem",
						"label": "_owner",
						"offset": 0,
						"slot": "0",
						"type": "t_address"
					},
					{
						"astId": 506,
						"contract": "contracts/NFT_Demo/NFT.sol:SQFItem",
						"label": "_ownerToTokenCount",
						"offset": 0,
						"slot": "1",
						"type": "t_mapping(t_address,t_uint256)"
					},
					{
						"astId": 510,
						"contract": "contracts/NFT_Demo/NFT.sol:SQFItem",
						"label": "_idToOwner",
						"offset": 0,
						"slot": "2",
						"type": "t_mapping(t_uint256,t_address)"
					},
					{
						"astId": 514,
						"contract": "contracts/NFT_Demo/NFT.sol:SQFItem",
						"label": "_tokenURIs",
						"offset": 0,
						"slot": "3",
						"type": "t_mapping(t_uint256,t_address)"
					},
					{
						"astId": 519,
						"contract": "contracts/NFT_Demo/NFT.sol:SQFItem",
						"label": "_name",
						"offset": 0,
						"slot": "4",
						"type": "t_string_storage"
					},
					{
						"astId": 521,
						"contract": "contracts/NFT_Demo/NFT.sol:SQFItem",
						"label": "_symbol",
						"offset": 0,
						"slot": "5",
						"type": "t_string_storage"
					},
					{
						"astId": 523,
						"contract": "contracts/NFT_Demo/NFT.sol:SQFItem",
						"label": "_tokenURIBase",
						"offset": 0,
						"slot": "6",
						"type": "t_string_storage"
					},
					{
						"astId": 883,
						"contract": "contracts/NFT_Demo/NFT.sol:SQFItem",
						"label": "nextId",
						"offset": 0,
						"slot": "7",
						"type": "t_uint256"
					},
					{
						"astId": 885,
						"contract": "contracts/NFT_Demo/NFT.sol:SQFItem",
						"label": "admin",
						"offset": 0,
						"slot": "8",
						"type": "t_address"
					},
					{
						"astId": 890,
						"contract": "contracts/NFT_Demo/NFT.sol:SQFItem",
						"label": "weaponDetail",
						"offset": 0,
						"slot": "9",
						"type": "t_mapping(t_uint256,t_struct(Weapon)880_storage)"
					},
					{
						"astId": 894,
						"contract": "contracts/NFT_Demo/NFT.sol:SQFItem",
						"label": "weapons",
						"offset": 0,
						"slot": "10",
						"type": "t_mapping(t_uint256,t_address)"
					}
				],
				"types": {
					"t_address": {
						"encoding": "inplace",
						"label": "address",
						"numberOfBytes": "20"
					},
					"t_mapping(t_address,t_uint256)": {
						"encoding": "mapping",
						"key": "t_address",
						"label": "mapping(address => uint256)",
						"numberOfBytes": "32",
						"value": "t_uint256"
					},
					"t_mapping(t_uint256,t_address)": {
						"encoding": "mapping",
						"key": "t_uint256",
						"label": "mapping(uint256 => address)",
						"numberOfBytes": "32",
						"value": "t_address"
					},
					"t_mapping(t_uint256,t_struct(Weapon)880_storage)": {
						"encoding": "mapping",
						"key": "t_uint256",
						"label": "mapping(uint256 => struct SQFItem.Weapon)",
						"numberOfBytes": "32",
						"value": "t_struct(Weapon)880_storage"
					},
					"t_string_storage": {
						"encoding": "bytes",
						"label": "string",
						"numberOfBytes": "32"
					},
					"t_struct(Weapon)880_storage": {
						"encoding": "inplace",
						"label": "struct SQFItem.Weapon",
						"members": [
							{
								"astId": 879,
								"contract": "contracts/NFT_Demo/NFT.sol:SQFItem",
								"label": "tokenURI",
								"offset": 0,
								"slot": "0",
								"type": "t_string_storage"
							}
						],
						"numberOfBytes": "32"
					},
					"t_uint256": {
						"encoding": "inplace",
						"label": "uint256",
						"numberOfBytes": "32"
					}
				}
			},
			"userdoc": {
				"kind": "user",
				"methods": {},
				"version": 1
			}
		}
	}
}