{
	"contracts/NFT_Demo/NFT.sol": {
		"ERC721": {
			"abi": [
				{
					"inputs": [
						{
							"internalType": "string",
							"name": "name",
							"type": "string"
						},
						{
							"internalType": "string",
							"name": "symbol",
							"type": "string"
						},
						{
							"internalType": "string",
							"name": "tokenURIBase",
							"type": "string"
						}
					],
					"stateMutability": "nonpayable",
					"type": "constructor"
				},
				{
					"anonymous": false,
					"inputs": [
						{
							"indexed": true,
							"internalType": "address",
							"name": "_owner",
							"type": "address"
						},
						{
							"indexed": true,
							"internalType": "address",
							"name": "_approved",
							"type": "address"
						},
						{
							"indexed": true,
							"internalType": "uint256",
							"name": "_tokenId",
							"type": "uint256"
						}
					],
					"name": "Approval",
					"type": "event"
				},
				{
					"anonymous": false,
					"inputs": [
						{
							"indexed": true,
							"internalType": "address",
							"name": "_owner",
							"type": "address"
						},
						{
							"indexed": true,
							"internalType": "address",
							"name": "_operator",
							"type": "address"
						},
						{
							"indexed": false,
							"internalType": "bool",
							"name": "_approved",
							"type": "bool"
						}
					],
					"name": "ApprovalForAll",
					"type": "event"
				},
				{
					"anonymous": false,
					"inputs": [
						{
							"indexed": true,
							"internalType": "address",
							"name": "previousOwner",
							"type": "address"
						},
						{
							"indexed": true,
							"internalType": "address",
							"name": "newOwner",
							"type": "address"
						}
					],
					"name": "OwnershipTransferred",
					"type": "event"
				},
				{
					"anonymous": false,
					"inputs": [
						{
							"indexed": true,
							"internalType": "address",
							"name": "_from",
							"type": "address"
						},
						{
							"indexed": true,
							"internalType": "address",
							"name": "_to",
							"type": "address"
						},
						{
							"indexed": true,
							"internalType": "uint256",
							"name": "_tokenId",
							"type": "uint256"
						}
					],
					"name": "Transfer",
					"type": "event"
				},
				{
					"inputs": [
						{
							"internalType": "address",
							"name": "_owner",
							"type": "address"
						}
					],
					"name": "balanceOf",
					"outputs": [
						{
							"internalType": "uint256",
							"name": "",
							"type": "uint256"
						}
					],
					"stateMutability": "view",
					"type": "function"
				},
				{
					"inputs": [
						{
							"internalType": "address",
							"name": "_operator",
							"type": "address"
						},
						{
							"internalType": "address",
							"name": "_from",
							"type": "address"
						},
						{
							"internalType": "uint256",
							"name": "_tokenId",
							"type": "uint256"
						},
						{
							"internalType": "bytes",
							"name": "_data",
							"type": "bytes"
						}
					],
					"name": "onERC721Received",
					"outputs": [
						{
							"internalType": "bytes4",
							"name": "",
							"type": "bytes4"
						}
					],
					"stateMutability": "nonpayable",
					"type": "function"
				},
				{
					"inputs": [],
					"name": "owner",
					"outputs": [
						{
							"internalType": "address",
							"name": "",
							"type": "address"
						}
					],
					"stateMutability": "view",
					"type": "function"
				},
				{
					"inputs": [
						{
							"internalType": "uint256",
							"name": "_tokenId",
							"type": "uint256"
						}
					],
					"name": "ownerOf",
					"outputs": [
						{
							"internalType": "address",
							"name": "",
							"type": "address"
						}
					],
					"stateMutability": "view",
					"type": "function"
				},
				{
					"inputs": [],
					"name": "renounceOwnership",
					"outputs": [],
					"stateMutability": "nonpayable",
					"type": "function"
				},
				{
					"inputs": [
						{
							"internalType": "address",
							"name": "_from",
							"type": "address"
						},
						{
							"internalType": "address",
							"name": "_to",
							"type": "address"
						},
						{
							"internalType": "uint256",
							"name": "_tokenId",
							"type": "uint256"
						}
					],
					"name": "safeTransferFrom",
					"outputs": [],
					"stateMutability": "payable",
					"type": "function"
				},
				{
					"inputs": [
						{
							"internalType": "address",
							"name": "_from",
							"type": "address"
						},
						{
							"internalType": "address",
							"name": "_to",
							"type": "address"
						},
						{
							"internalType": "uint256",
							"name": "_tokenId",
							"type": "uint256"
						},
						{
							"internalType": "bytes",
							"name": "data",
							"type": "bytes"
						}
					],
					"name": "safeTransferFrom",
					"outputs": [],
					"stateMutability": "payable",
					"type": "function"
				},
				{
					"inputs": [
						{
							"internalType": "uint256",
							"name": "_tokenId",
							"type": "uint256"
						}
					],
					"name": "tokenURI",
					"outputs": [
						{
							"internalType": "string",
							"name": "",
							"type": "string"
						}
					],
					"stateMutability": "view",
					"type": "function"
				},
				{
					"inputs": [
						{
							"internalType": "address",
							"name": "recipient",
							"type": "address"
						},
						{
							"internalType": "uint256",
							"name": "tokenId",
							"type": "uint256"
						}
					],
					"name": "transfer",
					"outputs": [
						{
							"internalType": "bool",
							"name": "",
							"type": "bool"
						}
					],
					"stateMutability": "nonpayable",
					"type": "function"
				},
				{
					"inputs": [
						{
							"internalType": "address",
							"name": "_from",
							"type": "address"
						},
						{
							"internalType": "address",
							"name": "_to",
							"type": "address"
						},
						{
							"internalType": "uint256",
							"name": "_tokenId",
							"type": "uint256"
						}
					],
					"name": "transferFrom",
					"outputs": [],
					"stateMutability": "payable",
					"type": "function"
				},
				{
					"inputs": [
						{
							"internalType": "address",
							"name": "newOwner",
							"type": "address"
						}
					],
					"name": "transferOwnership",
					"outputs": [],
					"stateMutability": "nonpayable",
					"type": "function"
				}
			],
			"devdoc": {
				"kind": "dev",
				"methods": {
					"owner()": {
						"details": "Returns the address of the current owner."
					},
					"renounceOwnership()": {
						"details": "Leaves the contract without owner. It will not be possible to call `onlyOwner` functions anymore. Can only be called by the current owner. NOTE: Renouncing ownership will leave the contract without an owner, thereby removing any functionality that is only available to the owner."
					},
					"transferOwnership(address)": {
						"details": "Transfers ownership of the contract to a new account (`newOwner`). Can only be called by the current owner."
					}
				},
				"version": 1
			},
			"evm": {
				"assembly": "    /* \"contracts/NFT_Demo/NFT.sol\":7956:12123  contract ERC721 is IERC721, Context, Ownable {... */\n  mstore(0x40, 0x80)\n    /* \"contracts/NFT_Demo/NFT.sol\":8361:8566  constructor(... */\n  callvalue\n  dup1\n  iszero\n  tag_1\n  jumpi\n  0x00\n  dup1\n  revert\ntag_1:\n  pop\n  mload(0x40)\n  sub(codesize, bytecodeSize)\n  dup1\n  bytecodeSize\n  dup4\n  codecopy\n  dup2\n  dup2\n  add\n  0x40\n  mstore\n  dup2\n  add\n  swap1\n  tag_2\n  swap2\n  swap1\n  tag_3\n  jump\t// in\ntag_2:\n    /* \"contracts/NFT_Demo/NFT.sol\":4765:4797  _transferOwnership(_msgSender()) */\n  tag_7\n    /* \"contracts/NFT_Demo/NFT.sol\":4784:4796  _msgSender() */\n  tag_8\n    /* \"contracts/NFT_Demo/NFT.sol\":4784:4794  _msgSender */\n  shl(0x20, tag_9)\n    /* \"contracts/NFT_Demo/NFT.sol\":4784:4796  _msgSender() */\n  0x20\n  shr\n  jump\t// in\ntag_8:\n    /* \"contracts/NFT_Demo/NFT.sol\":4765:4783  _transferOwnership */\n  shl(0x20, tag_10)\n    /* \"contracts/NFT_Demo/NFT.sol\":4765:4797  _transferOwnership(_msgSender()) */\n  0x20\n  shr\n  jump\t// in\ntag_7:\n    /* \"contracts/NFT_Demo/NFT.sol\":8491:8495  name */\n  dup3\n    /* \"contracts/NFT_Demo/NFT.sol\":8483:8488  _name */\n  0x04\n    /* \"contracts/NFT_Demo/NFT.sol\":8483:8495  _name = name */\n  swap1\n  dup1\n  mload\n  swap1\n  0x20\n  add\n  swap1\n  tag_12\n  swap3\n  swap2\n  swap1\n  tag_13\n  jump\t// in\ntag_12:\n  pop\n    /* \"contracts/NFT_Demo/NFT.sol\":8515:8521  symbol */\n  dup2\n    /* \"contracts/NFT_Demo/NFT.sol\":8505:8512  _symbol */\n  0x05\n    /* \"contracts/NFT_Demo/NFT.sol\":8505:8521  _symbol = symbol */\n  swap1\n  dup1\n  mload\n  swap1\n  0x20\n  add\n  swap1\n  tag_14\n  swap3\n  swap2\n  swap1\n  tag_13\n  jump\t// in\ntag_14:\n  pop\n    /* \"contracts/NFT_Demo/NFT.sol\":8547:8559  tokenURIBase */\n  dup1\n    /* \"contracts/NFT_Demo/NFT.sol\":8531:8544  _tokenURIBase */\n  0x06\n    /* \"contracts/NFT_Demo/NFT.sol\":8531:8559  _tokenURIBase = tokenURIBase */\n  swap1\n  dup1\n  mload\n  swap1\n  0x20\n  add\n  swap1\n  tag_15\n  swap3\n  swap2\n  swap1\n  tag_13\n  jump\t// in\ntag_15:\n  pop\n    /* \"contracts/NFT_Demo/NFT.sol\":8361:8566  constructor(... */\n  pop\n  pop\n  pop\n    /* \"contracts/NFT_Demo/NFT.sol\":7956:12123  contract ERC721 is IERC721, Context, Ownable {... */\n  jump(tag_16)\n    /* \"contracts/NFT_Demo/NFT.sol\":99:195  function _msgSender() internal view virtual returns (address) {... */\ntag_9:\n    /* \"contracts/NFT_Demo/NFT.sol\":152:159  address */\n  0x00\n    /* \"contracts/NFT_Demo/NFT.sol\":178:188  msg.sender */\n  caller\n    /* \"contracts/NFT_Demo/NFT.sol\":171:188  return msg.sender */\n  swap1\n  pop\n    /* \"contracts/NFT_Demo/NFT.sol\":99:195  function _msgSender() internal view virtual returns (address) {... */\n  swap1\n  jump\t// out\n    /* \"contracts/NFT_Demo/NFT.sol\":6148:6335  function _transferOwnership(address newOwner) internal virtual {... */\ntag_10:\n    /* \"contracts/NFT_Demo/NFT.sol\":6221:6237  address oldOwner */\n  0x00\n    /* \"contracts/NFT_Demo/NFT.sol\":6240:6246  _owner */\n  dup1\n  0x00\n  swap1\n  sload\n  swap1\n  0x0100\n  exp\n  swap1\n  div\n  0xffffffffffffffffffffffffffffffffffffffff\n  and\n    /* \"contracts/NFT_Demo/NFT.sol\":6221:6246  address oldOwner = _owner */\n  swap1\n  pop\n    /* \"contracts/NFT_Demo/NFT.sol\":6265:6273  newOwner */\n  dup2\n    /* \"contracts/NFT_Demo/NFT.sol\":6256:6262  _owner */\n  0x00\n  dup1\n    /* \"contracts/NFT_Demo/NFT.sol\":6256:6273  _owner = newOwner */\n  0x0100\n  exp\n  dup2\n  sload\n  dup2\n  0xffffffffffffffffffffffffffffffffffffffff\n  mul\n  not\n  and\n  swap1\n  dup4\n  0xffffffffffffffffffffffffffffffffffffffff\n  and\n  mul\n  or\n  swap1\n  sstore\n  pop\n    /* \"contracts/NFT_Demo/NFT.sol\":6319:6327  newOwner */\n  dup2\n    /* \"contracts/NFT_Demo/NFT.sol\":6288:6328  OwnershipTransferred(oldOwner, newOwner) */\n  0xffffffffffffffffffffffffffffffffffffffff\n  and\n    /* \"contracts/NFT_Demo/NFT.sol\":6309:6317  oldOwner */\n  dup2\n    /* \"contracts/NFT_Demo/NFT.sol\":6288:6328  OwnershipTransferred(oldOwner, newOwner) */\n  0xffffffffffffffffffffffffffffffffffffffff\n  and\n  0x8be0079c531659141344cd1fd0a4f28419497f9722a3daafe3b4186f6b6457e0\n  mload(0x40)\n  mload(0x40)\n  dup1\n  swap2\n  sub\n  swap1\n  log3\n    /* \"contracts/NFT_Demo/NFT.sol\":6211:6335  {... */\n  pop\n    /* \"contracts/NFT_Demo/NFT.sol\":6148:6335  function _transferOwnership(address newOwner) internal virtual {... */\n  pop\n  jump\t// out\n    /* \"contracts/NFT_Demo/NFT.sol\":7956:12123  contract ERC721 is IERC721, Context, Ownable {... */\ntag_13:\n  dup3\n  dup1\n  sload\n  tag_19\n  swap1\n  tag_20\n  jump\t// in\ntag_19:\n  swap1\n  0x00\n  mstore\n  keccak256(0x00, 0x20)\n  swap1\n  0x1f\n  add\n  0x20\n  swap1\n  div\n  dup2\n  add\n  swap3\n  dup3\n  tag_22\n  jumpi\n  0x00\n  dup6\n  sstore\n  jump(tag_21)\ntag_22:\n  dup3\n  0x1f\n  lt\n  tag_23\n  jumpi\n  dup1\n  mload\n  not(0xff)\n  and\n  dup4\n  dup1\n  add\n  or\n  dup6\n  sstore\n  jump(tag_21)\ntag_23:\n  dup3\n  dup1\n  add\n  0x01\n  add\n  dup6\n  sstore\n  dup3\n  iszero\n  tag_21\n  jumpi\n  swap2\n  dup3\n  add\ntag_24:\n  dup3\n  dup2\n  gt\n  iszero\n  tag_25\n  jumpi\n  dup3\n  mload\n  dup3\n  sstore\n  swap2\n  0x20\n  add\n  swap2\n  swap1\n  0x01\n  add\n  swap1\n  jump(tag_24)\ntag_25:\ntag_21:\n  pop\n  swap1\n  pop\n  tag_26\n  swap2\n  swap1\n  tag_27\n  jump\t// in\ntag_26:\n  pop\n  swap1\n  jump\t// out\ntag_27:\ntag_28:\n  dup1\n  dup3\n  gt\n  iszero\n  tag_29\n  jumpi\n  0x00\n  dup2\n  0x00\n  swap1\n  sstore\n  pop\n  0x01\n  add\n  jump(tag_28)\ntag_29:\n  pop\n  swap1\n  jump\t// out\n    /* \"#utility.yul\":7:82   */\ntag_30:\n    /* \"#utility.yul\":40:46   */\n  0x00\n    /* \"#utility.yul\":73:75   */\n  0x40\n    /* \"#utility.yul\":67:76   */\n  mload\n    /* \"#utility.yul\":57:76   */\n  swap1\n  pop\n    /* \"#utility.yul\":7:82   */\n  swap1\n  jump\t// out\n    /* \"#utility.yul\":88:205   */\ntag_31:\n    /* \"#utility.yul\":197:198   */\n  0x00\n    /* \"#utility.yul\":194:195   */\n  dup1\n    /* \"#utility.yul\":187:199   */\n  revert\n    /* \"#utility.yul\":211:328   */\ntag_32:\n    /* \"#utility.yul\":320:321   */\n  0x00\n    /* \"#utility.yul\":317:318   */\n  dup1\n    /* \"#utility.yul\":310:322   */\n  revert\n    /* \"#utility.yul\":334:451   */\ntag_33:\n    /* \"#utility.yul\":443:444   */\n  0x00\n    /* \"#utility.yul\":440:441   */\n  dup1\n    /* \"#utility.yul\":433:445   */\n  revert\n    /* \"#utility.yul\":457:574   */\ntag_34:\n    /* \"#utility.yul\":566:567   */\n  0x00\n    /* \"#utility.yul\":563:564   */\n  dup1\n    /* \"#utility.yul\":556:568   */\n  revert\n    /* \"#utility.yul\":580:682   */\ntag_35:\n    /* \"#utility.yul\":621:627   */\n  0x00\n    /* \"#utility.yul\":672:674   */\n  0x1f\n    /* \"#utility.yul\":668:675   */\n  not\n    /* \"#utility.yul\":663:665   */\n  0x1f\n    /* \"#utility.yul\":656:661   */\n  dup4\n    /* \"#utility.yul\":652:666   */\n  add\n    /* \"#utility.yul\":648:676   */\n  and\n    /* \"#utility.yul\":638:676   */\n  swap1\n  pop\n    /* \"#utility.yul\":580:682   */\n  swap2\n  swap1\n  pop\n  jump\t// out\n    /* \"#utility.yul\":688:868   */\ntag_36:\n    /* \"#utility.yul\":736:813   */\n  0x4e487b7100000000000000000000000000000000000000000000000000000000\n    /* \"#utility.yul\":733:734   */\n  0x00\n    /* \"#utility.yul\":726:814   */\n  mstore\n    /* \"#utility.yul\":833:837   */\n  0x41\n    /* \"#utility.yul\":830:831   */\n  0x04\n    /* \"#utility.yul\":823:838   */\n  mstore\n    /* \"#utility.yul\":857:861   */\n  0x24\n    /* \"#utility.yul\":854:855   */\n  0x00\n    /* \"#utility.yul\":847:862   */\n  revert\n    /* \"#utility.yul\":874:1155   */\ntag_37:\n    /* \"#utility.yul\":957:984   */\n  tag_53\n    /* \"#utility.yul\":979:983   */\n  dup3\n    /* \"#utility.yul\":957:984   */\n  tag_35\n  jump\t// in\ntag_53:\n    /* \"#utility.yul\":949:955   */\n  dup2\n    /* \"#utility.yul\":945:985   */\n  add\n    /* \"#utility.yul\":1087:1093   */\n  dup2\n    /* \"#utility.yul\":1075:1085   */\n  dup2\n    /* \"#utility.yul\":1072:1094   */\n  lt\n    /* \"#utility.yul\":1051:1069   */\n  0xffffffffffffffff\n    /* \"#utility.yul\":1039:1049   */\n  dup3\n    /* \"#utility.yul\":1036:1070   */\n  gt\n    /* \"#utility.yul\":1033:1095   */\n  or\n    /* \"#utility.yul\":1030:1118   */\n  iszero\n  tag_54\n  jumpi\n    /* \"#utility.yul\":1098:1116   */\n  tag_55\n  tag_36\n  jump\t// in\ntag_55:\n    /* \"#utility.yul\":1030:1118   */\ntag_54:\n    /* \"#utility.yul\":1138:1148   */\n  dup1\n    /* \"#utility.yul\":1134:1136   */\n  0x40\n    /* \"#utility.yul\":1127:1149   */\n  mstore\n    /* \"#utility.yul\":917:1155   */\n  pop\n    /* \"#utility.yul\":874:1155   */\n  pop\n  pop\n  jump\t// out\n    /* \"#utility.yul\":1161:1290   */\ntag_38:\n    /* \"#utility.yul\":1195:1201   */\n  0x00\n    /* \"#utility.yul\":1222:1242   */\n  tag_57\n  tag_30\n  jump\t// in\ntag_57:\n    /* \"#utility.yul\":1212:1242   */\n  swap1\n  pop\n    /* \"#utility.yul\":1251:1284   */\n  tag_58\n    /* \"#utility.yul\":1279:1283   */\n  dup3\n    /* \"#utility.yul\":1271:1277   */\n  dup3\n    /* \"#utility.yul\":1251:1284   */\n  tag_37\n  jump\t// in\ntag_58:\n    /* \"#utility.yul\":1161:1290   */\n  swap2\n  swap1\n  pop\n  jump\t// out\n    /* \"#utility.yul\":1296:1604   */\ntag_39:\n    /* \"#utility.yul\":1358:1362   */\n  0x00\n    /* \"#utility.yul\":1448:1466   */\n  0xffffffffffffffff\n    /* \"#utility.yul\":1440:1446   */\n  dup3\n    /* \"#utility.yul\":1437:1467   */\n  gt\n    /* \"#utility.yul\":1434:1490   */\n  iszero\n  tag_60\n  jumpi\n    /* \"#utility.yul\":1470:1488   */\n  tag_61\n  tag_36\n  jump\t// in\ntag_61:\n    /* \"#utility.yul\":1434:1490   */\ntag_60:\n    /* \"#utility.yul\":1508:1537   */\n  tag_62\n    /* \"#utility.yul\":1530:1536   */\n  dup3\n    /* \"#utility.yul\":1508:1537   */\n  tag_35\n  jump\t// in\ntag_62:\n    /* \"#utility.yul\":1500:1537   */\n  swap1\n  pop\n    /* \"#utility.yul\":1592:1596   */\n  0x20\n    /* \"#utility.yul\":1586:1590   */\n  dup2\n    /* \"#utility.yul\":1582:1597   */\n  add\n    /* \"#utility.yul\":1574:1597   */\n  swap1\n  pop\n    /* \"#utility.yul\":1296:1604   */\n  swap2\n  swap1\n  pop\n  jump\t// out\n    /* \"#utility.yul\":1610:1917   */\ntag_40:\n    /* \"#utility.yul\":1678:1679   */\n  0x00\n    /* \"#utility.yul\":1688:1801   */\ntag_64:\n    /* \"#utility.yul\":1702:1708   */\n  dup4\n    /* \"#utility.yul\":1699:1700   */\n  dup2\n    /* \"#utility.yul\":1696:1709   */\n  lt\n    /* \"#utility.yul\":1688:1801   */\n  iszero\n  tag_66\n  jumpi\n    /* \"#utility.yul\":1787:1788   */\n  dup1\n    /* \"#utility.yul\":1782:1785   */\n  dup3\n    /* \"#utility.yul\":1778:1789   */\n  add\n    /* \"#utility.yul\":1772:1790   */\n  mload\n    /* \"#utility.yul\":1768:1769   */\n  dup2\n    /* \"#utility.yul\":1763:1766   */\n  dup5\n    /* \"#utility.yul\":1759:1770   */\n  add\n    /* \"#utility.yul\":1752:1791   */\n  mstore\n    /* \"#utility.yul\":1724:1726   */\n  0x20\n    /* \"#utility.yul\":1721:1722   */\n  dup2\n    /* \"#utility.yul\":1717:1727   */\n  add\n    /* \"#utility.yul\":1712:1727   */\n  swap1\n  pop\n    /* \"#utility.yul\":1688:1801   */\n  jump(tag_64)\ntag_66:\n    /* \"#utility.yul\":1819:1825   */\n  dup4\n    /* \"#utility.yul\":1816:1817   */\n  dup2\n    /* \"#utility.yul\":1813:1826   */\n  gt\n    /* \"#utility.yul\":1810:1911   */\n  iszero\n  tag_67\n  jumpi\n    /* \"#utility.yul\":1899:1900   */\n  0x00\n    /* \"#utility.yul\":1890:1896   */\n  dup5\n    /* \"#utility.yul\":1885:1888   */\n  dup5\n    /* \"#utility.yul\":1881:1897   */\n  add\n    /* \"#utility.yul\":1874:1901   */\n  mstore\n    /* \"#utility.yul\":1810:1911   */\ntag_67:\n    /* \"#utility.yul\":1659:1917   */\n  pop\n    /* \"#utility.yul\":1610:1917   */\n  pop\n  pop\n  pop\n  jump\t// out\n    /* \"#utility.yul\":1923:2344   */\ntag_41:\n    /* \"#utility.yul\":2012:2017   */\n  0x00\n    /* \"#utility.yul\":2037:2103   */\n  tag_69\n    /* \"#utility.yul\":2053:2102   */\n  tag_70\n    /* \"#utility.yul\":2095:2101   */\n  dup5\n    /* \"#utility.yul\":2053:2102   */\n  tag_39\n  jump\t// in\ntag_70:\n    /* \"#utility.yul\":2037:2103   */\n  tag_38\n  jump\t// in\ntag_69:\n    /* \"#utility.yul\":2028:2103   */\n  swap1\n  pop\n    /* \"#utility.yul\":2126:2132   */\n  dup3\n    /* \"#utility.yul\":2119:2124   */\n  dup2\n    /* \"#utility.yul\":2112:2133   */\n  mstore\n    /* \"#utility.yul\":2164:2168   */\n  0x20\n    /* \"#utility.yul\":2157:2162   */\n  dup2\n    /* \"#utility.yul\":2153:2169   */\n  add\n    /* \"#utility.yul\":2202:2205   */\n  dup5\n    /* \"#utility.yul\":2193:2199   */\n  dup5\n    /* \"#utility.yul\":2188:2191   */\n  dup5\n    /* \"#utility.yul\":2184:2200   */\n  add\n    /* \"#utility.yul\":2181:2206   */\n  gt\n    /* \"#utility.yul\":2178:2290   */\n  iszero\n  tag_71\n  jumpi\n    /* \"#utility.yul\":2209:2288   */\n  tag_72\n  tag_34\n  jump\t// in\ntag_72:\n    /* \"#utility.yul\":2178:2290   */\ntag_71:\n    /* \"#utility.yul\":2299:2338   */\n  tag_73\n    /* \"#utility.yul\":2331:2337   */\n  dup5\n    /* \"#utility.yul\":2326:2329   */\n  dup3\n    /* \"#utility.yul\":2321:2324   */\n  dup6\n    /* \"#utility.yul\":2299:2338   */\n  tag_40\n  jump\t// in\ntag_73:\n    /* \"#utility.yul\":2018:2344   */\n  pop\n    /* \"#utility.yul\":1923:2344   */\n  swap4\n  swap3\n  pop\n  pop\n  pop\n  jump\t// out\n    /* \"#utility.yul\":2364:2719   */\ntag_42:\n    /* \"#utility.yul\":2431:2436   */\n  0x00\n    /* \"#utility.yul\":2480:2483   */\n  dup3\n    /* \"#utility.yul\":2473:2477   */\n  0x1f\n    /* \"#utility.yul\":2465:2471   */\n  dup4\n    /* \"#utility.yul\":2461:2478   */\n  add\n    /* \"#utility.yul\":2457:2484   */\n  slt\n    /* \"#utility.yul\":2447:2569   */\n  tag_75\n  jumpi\n    /* \"#utility.yul\":2488:2567   */\n  tag_76\n  tag_33\n  jump\t// in\ntag_76:\n    /* \"#utility.yul\":2447:2569   */\ntag_75:\n    /* \"#utility.yul\":2598:2604   */\n  dup2\n    /* \"#utility.yul\":2592:2605   */\n  mload\n    /* \"#utility.yul\":2623:2713   */\n  tag_77\n    /* \"#utility.yul\":2709:2712   */\n  dup5\n    /* \"#utility.yul\":2701:2707   */\n  dup3\n    /* \"#utility.yul\":2694:2698   */\n  0x20\n    /* \"#utility.yul\":2686:2692   */\n  dup7\n    /* \"#utility.yul\":2682:2699   */\n  add\n    /* \"#utility.yul\":2623:2713   */\n  tag_41\n  jump\t// in\ntag_77:\n    /* \"#utility.yul\":2614:2713   */\n  swap2\n  pop\n    /* \"#utility.yul\":2437:2719   */\n  pop\n    /* \"#utility.yul\":2364:2719   */\n  swap3\n  swap2\n  pop\n  pop\n  jump\t// out\n    /* \"#utility.yul\":2725:3907   */\ntag_3:\n    /* \"#utility.yul\":2843:2849   */\n  0x00\n    /* \"#utility.yul\":2851:2857   */\n  dup1\n    /* \"#utility.yul\":2859:2865   */\n  0x00\n    /* \"#utility.yul\":2908:2910   */\n  0x60\n    /* \"#utility.yul\":2896:2905   */\n  dup5\n    /* \"#utility.yul\":2887:2894   */\n  dup7\n    /* \"#utility.yul\":2883:2906   */\n  sub\n    /* \"#utility.yul\":2879:2911   */\n  slt\n    /* \"#utility.yul\":2876:2995   */\n  iszero\n  tag_79\n  jumpi\n    /* \"#utility.yul\":2914:2993   */\n  tag_80\n  tag_31\n  jump\t// in\ntag_80:\n    /* \"#utility.yul\":2876:2995   */\ntag_79:\n    /* \"#utility.yul\":3055:3056   */\n  0x00\n    /* \"#utility.yul\":3044:3053   */\n  dup5\n    /* \"#utility.yul\":3040:3057   */\n  add\n    /* \"#utility.yul\":3034:3058   */\n  mload\n    /* \"#utility.yul\":3085:3103   */\n  0xffffffffffffffff\n    /* \"#utility.yul\":3077:3083   */\n  dup2\n    /* \"#utility.yul\":3074:3104   */\n  gt\n    /* \"#utility.yul\":3071:3188   */\n  iszero\n  tag_81\n  jumpi\n    /* \"#utility.yul\":3107:3186   */\n  tag_82\n  tag_32\n  jump\t// in\ntag_82:\n    /* \"#utility.yul\":3071:3188   */\ntag_81:\n    /* \"#utility.yul\":3212:3286   */\n  tag_83\n    /* \"#utility.yul\":3278:3285   */\n  dup7\n    /* \"#utility.yul\":3269:3275   */\n  dup3\n    /* \"#utility.yul\":3258:3267   */\n  dup8\n    /* \"#utility.yul\":3254:3276   */\n  add\n    /* \"#utility.yul\":3212:3286   */\n  tag_42\n  jump\t// in\ntag_83:\n    /* \"#utility.yul\":3202:3286   */\n  swap4\n  pop\n    /* \"#utility.yul\":3005:3296   */\n  pop\n    /* \"#utility.yul\":3356:3358   */\n  0x20\n    /* \"#utility.yul\":3345:3354   */\n  dup5\n    /* \"#utility.yul\":3341:3359   */\n  add\n    /* \"#utility.yul\":3335:3360   */\n  mload\n    /* \"#utility.yul\":3387:3405   */\n  0xffffffffffffffff\n    /* \"#utility.yul\":3379:3385   */\n  dup2\n    /* \"#utility.yul\":3376:3406   */\n  gt\n    /* \"#utility.yul\":3373:3490   */\n  iszero\n  tag_84\n  jumpi\n    /* \"#utility.yul\":3409:3488   */\n  tag_85\n  tag_32\n  jump\t// in\ntag_85:\n    /* \"#utility.yul\":3373:3490   */\ntag_84:\n    /* \"#utility.yul\":3514:3588   */\n  tag_86\n    /* \"#utility.yul\":3580:3587   */\n  dup7\n    /* \"#utility.yul\":3571:3577   */\n  dup3\n    /* \"#utility.yul\":3560:3569   */\n  dup8\n    /* \"#utility.yul\":3556:3578   */\n  add\n    /* \"#utility.yul\":3514:3588   */\n  tag_42\n  jump\t// in\ntag_86:\n    /* \"#utility.yul\":3504:3588   */\n  swap3\n  pop\n    /* \"#utility.yul\":3306:3598   */\n  pop\n    /* \"#utility.yul\":3658:3660   */\n  0x40\n    /* \"#utility.yul\":3647:3656   */\n  dup5\n    /* \"#utility.yul\":3643:3661   */\n  add\n    /* \"#utility.yul\":3637:3662   */\n  mload\n    /* \"#utility.yul\":3689:3707   */\n  0xffffffffffffffff\n    /* \"#utility.yul\":3681:3687   */\n  dup2\n    /* \"#utility.yul\":3678:3708   */\n  gt\n    /* \"#utility.yul\":3675:3792   */\n  iszero\n  tag_87\n  jumpi\n    /* \"#utility.yul\":3711:3790   */\n  tag_88\n  tag_32\n  jump\t// in\ntag_88:\n    /* \"#utility.yul\":3675:3792   */\ntag_87:\n    /* \"#utility.yul\":3816:3890   */\n  tag_89\n    /* \"#utility.yul\":3882:3889   */\n  dup7\n    /* \"#utility.yul\":3873:3879   */\n  dup3\n    /* \"#utility.yul\":3862:3871   */\n  dup8\n    /* \"#utility.yul\":3858:3880   */\n  add\n    /* \"#utility.yul\":3816:3890   */\n  tag_42\n  jump\t// in\ntag_89:\n    /* \"#utility.yul\":3806:3890   */\n  swap2\n  pop\n    /* \"#utility.yul\":3608:3900   */\n  pop\n    /* \"#utility.yul\":2725:3907   */\n  swap3\n  pop\n  swap3\n  pop\n  swap3\n  jump\t// out\n    /* \"#utility.yul\":3913:4093   */\ntag_43:\n    /* \"#utility.yul\":3961:4038   */\n  0x4e487b7100000000000000000000000000000000000000000000000000000000\n    /* \"#utility.yul\":3958:3959   */\n  0x00\n    /* \"#utility.yul\":3951:4039   */\n  mstore\n    /* \"#utility.yul\":4058:4062   */\n  0x22\n    /* \"#utility.yul\":4055:4056   */\n  0x04\n    /* \"#utility.yul\":4048:4063   */\n  mstore\n    /* \"#utility.yul\":4082:4086   */\n  0x24\n    /* \"#utility.yul\":4079:4080   */\n  0x00\n    /* \"#utility.yul\":4072:4087   */\n  revert\n    /* \"#utility.yul\":4099:4419   */\ntag_20:\n    /* \"#utility.yul\":4143:4149   */\n  0x00\n    /* \"#utility.yul\":4180:4181   */\n  0x02\n    /* \"#utility.yul\":4174:4178   */\n  dup3\n    /* \"#utility.yul\":4170:4182   */\n  div\n    /* \"#utility.yul\":4160:4182   */\n  swap1\n  pop\n    /* \"#utility.yul\":4227:4228   */\n  0x01\n    /* \"#utility.yul\":4221:4225   */\n  dup3\n    /* \"#utility.yul\":4217:4229   */\n  and\n    /* \"#utility.yul\":4248:4266   */\n  dup1\n    /* \"#utility.yul\":4238:4319   */\n  tag_92\n  jumpi\n    /* \"#utility.yul\":4304:4308   */\n  0x7f\n    /* \"#utility.yul\":4296:4302   */\n  dup3\n    /* \"#utility.yul\":4292:4309   */\n  and\n    /* \"#utility.yul\":4282:4309   */\n  swap2\n  pop\n    /* \"#utility.yul\":4238:4319   */\ntag_92:\n    /* \"#utility.yul\":4366:4368   */\n  0x20\n    /* \"#utility.yul\":4358:4364   */\n  dup3\n    /* \"#utility.yul\":4355:4369   */\n  lt\n    /* \"#utility.yul\":4335:4353   */\n  dup2\n    /* \"#utility.yul\":4332:4370   */\n  sub\n    /* \"#utility.yul\":4329:4413   */\n  tag_93\n  jumpi\n    /* \"#utility.yul\":4385:4403   */\n  tag_94\n  tag_43\n  jump\t// in\ntag_94:\n    /* \"#utility.yul\":4329:4413   */\ntag_93:\n    /* \"#utility.yul\":4150:4419   */\n  pop\n    /* \"#utility.yul\":4099:4419   */\n  swap2\n  swap1\n  pop\n  jump\t// out\n    /* \"contracts/NFT_Demo/NFT.sol\":7956:12123  contract ERC721 is IERC721, Context, Ownable {... */\ntag_16:\n  dataSize(sub_0)\n  dup1\n  dataOffset(sub_0)\n  0x00\n  codecopy\n  0x00\n  return\nstop\n\nsub_0: assembly {\n        /* \"contracts/NFT_Demo/NFT.sol\":7956:12123  contract ERC721 is IERC721, Context, Ownable {... */\n      mstore(0x40, 0x80)\n      jumpi(tag_1, lt(calldatasize, 0x04))\n      shr(0xe0, calldataload(0x00))\n      dup1\n      0x715018a6\n      gt\n      tag_13\n      jumpi\n      dup1\n      0x715018a6\n      eq\n      tag_7\n      jumpi\n      dup1\n      0x8da5cb5b\n      eq\n      tag_8\n      jumpi\n      dup1\n      0xa9059cbb\n      eq\n      tag_9\n      jumpi\n      dup1\n      0xb88d4fde\n      eq\n      tag_10\n      jumpi\n      dup1\n      0xc87b56dd\n      eq\n      tag_11\n      jumpi\n      dup1\n      0xf2fde38b\n      eq\n      tag_12\n      jumpi\n      jump(tag_1)\n    tag_13:\n      dup1\n      0x150b7a02\n      eq\n      tag_2\n      jumpi\n      dup1\n      0x23b872dd\n      eq\n      tag_3\n      jumpi\n      dup1\n      0x42842e0e\n      eq\n      tag_4\n      jumpi\n      dup1\n      0x6352211e\n      eq\n      tag_5\n      jumpi\n      dup1\n      0x70a08231\n      eq\n      tag_6\n      jumpi\n    tag_1:\n      0x00\n      dup1\n      revert\n        /* \"contracts/NFT_Demo/NFT.sol\":11182:11348  function onERC721Received(... */\n    tag_2:\n      callvalue\n      dup1\n      iszero\n      tag_14\n      jumpi\n      0x00\n      dup1\n      revert\n    tag_14:\n      pop\n      tag_15\n      0x04\n      dup1\n      calldatasize\n      sub\n      dup2\n      add\n      swap1\n      tag_16\n      swap2\n      swap1\n      tag_17\n      jump\t// in\n    tag_16:\n      tag_18\n      jump\t// in\n    tag_15:\n      mload(0x40)\n      tag_19\n      swap2\n      swap1\n      tag_20\n      jump\t// in\n    tag_19:\n      mload(0x40)\n      dup1\n      swap2\n      sub\n      swap1\n      return\n        /* \"contracts/NFT_Demo/NFT.sol\":9413:9906  function transferFrom(... */\n    tag_3:\n      tag_21\n      0x04\n      dup1\n      calldatasize\n      sub\n      dup2\n      add\n      swap1\n      tag_22\n      swap2\n      swap1\n      tag_23\n      jump\t// in\n    tag_22:\n      tag_24\n      jump\t// in\n    tag_21:\n      stop\n        /* \"contracts/NFT_Demo/NFT.sol\":10128:10307  function safeTransferFrom(... */\n    tag_4:\n      tag_25\n      0x04\n      dup1\n      calldatasize\n      sub\n      dup2\n      add\n      swap1\n      tag_26\n      swap2\n      swap1\n      tag_23\n      jump\t// in\n    tag_26:\n      tag_27\n      jump\t// in\n    tag_25:\n      stop\n        /* \"contracts/NFT_Demo/NFT.sol\":9296:9407  function ownerOf(uint256 _tokenId) external view returns (address) {... */\n    tag_5:\n      callvalue\n      dup1\n      iszero\n      tag_28\n      jumpi\n      0x00\n      dup1\n      revert\n    tag_28:\n      pop\n      tag_29\n      0x04\n      dup1\n      calldatasize\n      sub\n      dup2\n      add\n      swap1\n      tag_30\n      swap2\n      swap1\n      tag_31\n      jump\t// in\n    tag_30:\n      tag_32\n      jump\t// in\n    tag_29:\n      mload(0x40)\n      tag_33\n      swap2\n      swap1\n      tag_34\n      jump\t// in\n    tag_33:\n      mload(0x40)\n      dup1\n      swap2\n      sub\n      swap1\n      return\n        /* \"contracts/NFT_Demo/NFT.sol\":9173:9290  function balanceOf(address _owner) external view returns (uint256) {... */\n    tag_6:\n      callvalue\n      dup1\n      iszero\n      tag_35\n      jumpi\n      0x00\n      dup1\n      revert\n    tag_35:\n      pop\n      tag_36\n      0x04\n      dup1\n      calldatasize\n      sub\n      dup2\n      add\n      swap1\n      tag_37\n      swap2\n      swap1\n      tag_38\n      jump\t// in\n    tag_37:\n      tag_39\n      jump\t// in\n    tag_36:\n      mload(0x40)\n      tag_40\n      swap2\n      swap1\n      tag_41\n      jump\t// in\n    tag_40:\n      mload(0x40)\n      dup1\n      swap2\n      sub\n      swap1\n      return\n        /* \"contracts/NFT_Demo/NFT.sol\":5512:5613  function renounceOwnership() public virtual onlyOwner {... */\n    tag_7:\n      callvalue\n      dup1\n      iszero\n      tag_42\n      jumpi\n      0x00\n      dup1\n      revert\n    tag_42:\n      pop\n      tag_43\n      tag_44\n      jump\t// in\n    tag_43:\n      stop\n        /* \"contracts/NFT_Demo/NFT.sol\":4880:4965  function owner() public view virtual returns (address) {... */\n    tag_8:\n      callvalue\n      dup1\n      iszero\n      tag_45\n      jumpi\n      0x00\n      dup1\n      revert\n    tag_45:\n      pop\n      tag_46\n      tag_47\n      jump\t// in\n    tag_46:\n      mload(0x40)\n      tag_48\n      swap2\n      swap1\n      tag_34\n      jump\t// in\n    tag_48:\n      mload(0x40)\n      dup1\n      swap2\n      sub\n      swap1\n      return\n        /* \"contracts/NFT_Demo/NFT.sol\":8957:9167  function transfer(address recipient, uint256 tokenId)... */\n    tag_9:\n      callvalue\n      dup1\n      iszero\n      tag_49\n      jumpi\n      0x00\n      dup1\n      revert\n    tag_49:\n      pop\n      tag_50\n      0x04\n      dup1\n      calldatasize\n      sub\n      dup2\n      add\n      swap1\n      tag_51\n      swap2\n      swap1\n      tag_52\n      jump\t// in\n    tag_51:\n      tag_53\n      jump\t// in\n    tag_50:\n      mload(0x40)\n      tag_54\n      swap2\n      swap1\n      tag_55\n      jump\t// in\n    tag_54:\n      mload(0x40)\n      dup1\n      swap2\n      sub\n      swap1\n      return\n        /* \"contracts/NFT_Demo/NFT.sol\":9912:10122  function safeTransferFrom(... */\n    tag_10:\n      tag_56\n      0x04\n      dup1\n      calldatasize\n      sub\n      dup2\n      add\n      swap1\n      tag_57\n      swap2\n      swap1\n      tag_17\n      jump\t// in\n    tag_57:\n      tag_58\n      jump\t// in\n    tag_56:\n      stop\n        /* \"contracts/NFT_Demo/NFT.sol\":8572:8719  function tokenURI(uint256 _tokenId) external view returns (string memory) {... */\n    tag_11:\n      callvalue\n      dup1\n      iszero\n      tag_59\n      jumpi\n      0x00\n      dup1\n      revert\n    tag_59:\n      pop\n      tag_60\n      0x04\n      dup1\n      calldatasize\n      sub\n      dup2\n      add\n      swap1\n      tag_61\n      swap2\n      swap1\n      tag_31\n      jump\t// in\n    tag_61:\n      tag_62\n      jump\t// in\n    tag_60:\n      mload(0x40)\n      tag_63\n      swap2\n      swap1\n      tag_64\n      jump\t// in\n    tag_63:\n      mload(0x40)\n      dup1\n      swap2\n      sub\n      swap1\n      return\n        /* \"contracts/NFT_Demo/NFT.sol\":5762:5994  function transferOwnership(address newOwner) public virtual onlyOwner {... */\n    tag_12:\n      callvalue\n      dup1\n      iszero\n      tag_65\n      jumpi\n      0x00\n      dup1\n      revert\n    tag_65:\n      pop\n      tag_66\n      0x04\n      dup1\n      calldatasize\n      sub\n      dup2\n      add\n      swap1\n      tag_67\n      swap2\n      swap1\n      tag_38\n      jump\t// in\n    tag_67:\n      tag_68\n      jump\t// in\n    tag_66:\n      stop\n        /* \"contracts/NFT_Demo/NFT.sol\":11182:11348  function onERC721Received(... */\n    tag_18:\n        /* \"contracts/NFT_Demo/NFT.sol\":11338:11344  bytes4 */\n      0x00\n        /* \"contracts/NFT_Demo/NFT.sol\":11182:11348  function onERC721Received(... */\n      swap6\n      swap5\n      pop\n      pop\n      pop\n      pop\n      pop\n      jump\t// out\n        /* \"contracts/NFT_Demo/NFT.sol\":9413:9906  function transferFrom(... */\n    tag_24:\n        /* \"contracts/NFT_Demo/NFT.sol\":9573:9578  _from */\n      dup3\n        /* \"contracts/NFT_Demo/NFT.sol\":9559:9578  msg.sender == _from */\n      0xffffffffffffffffffffffffffffffffffffffff\n      and\n        /* \"contracts/NFT_Demo/NFT.sol\":9559:9569  msg.sender */\n      caller\n        /* \"contracts/NFT_Demo/NFT.sol\":9559:9578  msg.sender == _from */\n      0xffffffffffffffffffffffffffffffffffffffff\n      and\n      eq\n        /* \"contracts/NFT_Demo/NFT.sol\":9538:9647  require(... */\n      tag_71\n      jumpi\n      mload(0x40)\n      0x08c379a000000000000000000000000000000000000000000000000000000000\n      dup2\n      mstore\n      0x04\n      add\n      tag_72\n      swap1\n      tag_73\n      jump\t// in\n    tag_72:\n      mload(0x40)\n      dup1\n      swap2\n      sub\n      swap1\n      revert\n    tag_71:\n        /* \"contracts/NFT_Demo/NFT.sol\":9687:9697  _idToOwner */\n      0x02\n        /* \"contracts/NFT_Demo/NFT.sol\":9687:9707  _idToOwner[_tokenId] */\n      0x00\n        /* \"contracts/NFT_Demo/NFT.sol\":9698:9706  _tokenId */\n      dup3\n        /* \"contracts/NFT_Demo/NFT.sol\":9687:9707  _idToOwner[_tokenId] */\n      dup2\n      mstore\n      0x20\n      add\n      swap1\n      dup2\n      mstore\n      0x20\n      add\n      0x00\n      keccak256\n      0x00\n      swap1\n      sload\n      swap1\n      0x0100\n      exp\n      swap1\n      div\n      0xffffffffffffffffffffffffffffffffffffffff\n      and\n        /* \"contracts/NFT_Demo/NFT.sol\":9678:9707  _from == _idToOwner[_tokenId] */\n      0xffffffffffffffffffffffffffffffffffffffff\n      and\n        /* \"contracts/NFT_Demo/NFT.sol\":9678:9683  _from */\n      dup4\n        /* \"contracts/NFT_Demo/NFT.sol\":9678:9707  _from == _idToOwner[_tokenId] */\n      0xffffffffffffffffffffffffffffffffffffffff\n      and\n      eq\n        /* \"contracts/NFT_Demo/NFT.sol\":9657:9776  require(... */\n      tag_74\n      jumpi\n      mload(0x40)\n      0x08c379a000000000000000000000000000000000000000000000000000000000\n      dup2\n      mstore\n      0x04\n      add\n      tag_75\n      swap1\n      tag_73\n      jump\t// in\n    tag_75:\n      mload(0x40)\n      dup1\n      swap2\n      sub\n      swap1\n      revert\n    tag_74:\n        /* \"contracts/NFT_Demo/NFT.sol\":9815:9816  1 */\n      0x01\n        /* \"contracts/NFT_Demo/NFT.sol\":9786:9804  _ownerToTokenCount */\n      dup1\n        /* \"contracts/NFT_Demo/NFT.sol\":9786:9811  _ownerToTokenCount[_from] */\n      0x00\n        /* \"contracts/NFT_Demo/NFT.sol\":9805:9810  _from */\n      dup6\n        /* \"contracts/NFT_Demo/NFT.sol\":9786:9811  _ownerToTokenCount[_from] */\n      0xffffffffffffffffffffffffffffffffffffffff\n      and\n      0xffffffffffffffffffffffffffffffffffffffff\n      and\n      dup2\n      mstore\n      0x20\n      add\n      swap1\n      dup2\n      mstore\n      0x20\n      add\n      0x00\n      keccak256\n      0x00\n        /* \"contracts/NFT_Demo/NFT.sol\":9786:9816  _ownerToTokenCount[_from] -= 1 */\n      dup3\n      dup3\n      sload\n      tag_76\n      swap2\n      swap1\n      tag_77\n      jump\t// in\n    tag_76:\n      swap3\n      pop\n      pop\n      dup2\n      swap1\n      sstore\n      pop\n        /* \"contracts/NFT_Demo/NFT.sol\":9853:9854  1 */\n      0x01\n        /* \"contracts/NFT_Demo/NFT.sol\":9826:9844  _ownerToTokenCount */\n      dup1\n        /* \"contracts/NFT_Demo/NFT.sol\":9826:9849  _ownerToTokenCount[_to] */\n      0x00\n        /* \"contracts/NFT_Demo/NFT.sol\":9845:9848  _to */\n      dup5\n        /* \"contracts/NFT_Demo/NFT.sol\":9826:9849  _ownerToTokenCount[_to] */\n      0xffffffffffffffffffffffffffffffffffffffff\n      and\n      0xffffffffffffffffffffffffffffffffffffffff\n      and\n      dup2\n      mstore\n      0x20\n      add\n      swap1\n      dup2\n      mstore\n      0x20\n      add\n      0x00\n      keccak256\n      0x00\n        /* \"contracts/NFT_Demo/NFT.sol\":9826:9854  _ownerToTokenCount[_to] += 1 */\n      dup3\n      dup3\n      sload\n      tag_78\n      swap2\n      swap1\n      tag_79\n      jump\t// in\n    tag_78:\n      swap3\n      pop\n      pop\n      dup2\n      swap1\n      sstore\n      pop\n        /* \"contracts/NFT_Demo/NFT.sol\":9890:9898  _tokenId */\n      dup1\n        /* \"contracts/NFT_Demo/NFT.sol\":9885:9888  _to */\n      dup3\n        /* \"contracts/NFT_Demo/NFT.sol\":9869:9899  Transfer(_from, _to, _tokenId) */\n      0xffffffffffffffffffffffffffffffffffffffff\n      and\n        /* \"contracts/NFT_Demo/NFT.sol\":9878:9883  _from */\n      dup5\n        /* \"contracts/NFT_Demo/NFT.sol\":9869:9899  Transfer(_from, _to, _tokenId) */\n      0xffffffffffffffffffffffffffffffffffffffff\n      and\n      0xddf252ad1be2c89b69c2b068fc378daa952ba7f163c4a11628f55a4df523b3ef\n      mload(0x40)\n      mload(0x40)\n      dup1\n      swap2\n      sub\n      swap1\n      log4\n        /* \"contracts/NFT_Demo/NFT.sol\":9413:9906  function transferFrom(... */\n      pop\n      pop\n      pop\n      jump\t// out\n        /* \"contracts/NFT_Demo/NFT.sol\":10128:10307  function safeTransferFrom(... */\n    tag_27:\n        /* \"contracts/NFT_Demo/NFT.sol\":10257:10300  _safeTransferFrom(_from, _to, _tokenId, \"\") */\n      tag_81\n        /* \"contracts/NFT_Demo/NFT.sol\":10275:10280  _from */\n      dup4\n        /* \"contracts/NFT_Demo/NFT.sol\":10282:10285  _to */\n      dup4\n        /* \"contracts/NFT_Demo/NFT.sol\":10287:10295  _tokenId */\n      dup4\n        /* \"contracts/NFT_Demo/NFT.sol\":10257:10300  _safeTransferFrom(_from, _to, _tokenId, \"\") */\n      mload(0x40)\n      dup1\n      0x20\n      add\n      0x40\n      mstore\n      dup1\n      0x00\n      dup2\n      mstore\n      pop\n        /* \"contracts/NFT_Demo/NFT.sol\":10257:10274  _safeTransferFrom */\n      tag_82\n        /* \"contracts/NFT_Demo/NFT.sol\":10257:10300  _safeTransferFrom(_from, _to, _tokenId, \"\") */\n      jump\t// in\n    tag_81:\n        /* \"contracts/NFT_Demo/NFT.sol\":10128:10307  function safeTransferFrom(... */\n      pop\n      pop\n      pop\n      jump\t// out\n        /* \"contracts/NFT_Demo/NFT.sol\":9296:9407  function ownerOf(uint256 _tokenId) external view returns (address) {... */\n    tag_32:\n        /* \"contracts/NFT_Demo/NFT.sol\":9354:9361  address */\n      0x00\n        /* \"contracts/NFT_Demo/NFT.sol\":9380:9390  _idToOwner */\n      0x02\n        /* \"contracts/NFT_Demo/NFT.sol\":9380:9400  _idToOwner[_tokenId] */\n      0x00\n        /* \"contracts/NFT_Demo/NFT.sol\":9391:9399  _tokenId */\n      dup4\n        /* \"contracts/NFT_Demo/NFT.sol\":9380:9400  _idToOwner[_tokenId] */\n      dup2\n      mstore\n      0x20\n      add\n      swap1\n      dup2\n      mstore\n      0x20\n      add\n      0x00\n      keccak256\n      0x00\n      swap1\n      sload\n      swap1\n      0x0100\n      exp\n      swap1\n      div\n      0xffffffffffffffffffffffffffffffffffffffff\n      and\n        /* \"contracts/NFT_Demo/NFT.sol\":9373:9400  return _idToOwner[_tokenId] */\n      swap1\n      pop\n        /* \"contracts/NFT_Demo/NFT.sol\":9296:9407  function ownerOf(uint256 _tokenId) external view returns (address) {... */\n      swap2\n      swap1\n      pop\n      jump\t// out\n        /* \"contracts/NFT_Demo/NFT.sol\":9173:9290  function balanceOf(address _owner) external view returns (uint256) {... */\n    tag_39:\n        /* \"contracts/NFT_Demo/NFT.sol\":9231:9238  uint256 */\n      0x00\n        /* \"contracts/NFT_Demo/NFT.sol\":9257:9275  _ownerToTokenCount */\n      0x01\n        /* \"contracts/NFT_Demo/NFT.sol\":9257:9283  _ownerToTokenCount[_owner] */\n      0x00\n        /* \"contracts/NFT_Demo/NFT.sol\":9276:9282  _owner */\n      dup4\n        /* \"contracts/NFT_Demo/NFT.sol\":9257:9283  _ownerToTokenCount[_owner] */\n      0xffffffffffffffffffffffffffffffffffffffff\n      and\n      0xffffffffffffffffffffffffffffffffffffffff\n      and\n      dup2\n      mstore\n      0x20\n      add\n      swap1\n      dup2\n      mstore\n      0x20\n      add\n      0x00\n      keccak256\n      sload\n        /* \"contracts/NFT_Demo/NFT.sol\":9250:9283  return _ownerToTokenCount[_owner] */\n      swap1\n      pop\n        /* \"contracts/NFT_Demo/NFT.sol\":9173:9290  function balanceOf(address _owner) external view returns (uint256) {... */\n      swap2\n      swap1\n      pop\n      jump\t// out\n        /* \"contracts/NFT_Demo/NFT.sol\":5512:5613  function renounceOwnership() public virtual onlyOwner {... */\n    tag_44:\n        /* \"contracts/NFT_Demo/NFT.sol\":5103:5115  _msgSender() */\n      tag_86\n        /* \"contracts/NFT_Demo/NFT.sol\":5103:5113  _msgSender */\n      tag_87\n        /* \"contracts/NFT_Demo/NFT.sol\":5103:5115  _msgSender() */\n      jump\t// in\n    tag_86:\n        /* \"contracts/NFT_Demo/NFT.sol\":5092:5115  owner() == _msgSender() */\n      0xffffffffffffffffffffffffffffffffffffffff\n      and\n        /* \"contracts/NFT_Demo/NFT.sol\":5092:5099  owner() */\n      tag_88\n        /* \"contracts/NFT_Demo/NFT.sol\":5092:5097  owner */\n      tag_47\n        /* \"contracts/NFT_Demo/NFT.sol\":5092:5099  owner() */\n      jump\t// in\n    tag_88:\n        /* \"contracts/NFT_Demo/NFT.sol\":5092:5115  owner() == _msgSender() */\n      0xffffffffffffffffffffffffffffffffffffffff\n      and\n      eq\n        /* \"contracts/NFT_Demo/NFT.sol\":5084:5152  require(owner() == _msgSender(), \"Ownable: caller is not the owner\") */\n      tag_89\n      jumpi\n      mload(0x40)\n      0x08c379a000000000000000000000000000000000000000000000000000000000\n      dup2\n      mstore\n      0x04\n      add\n      tag_90\n      swap1\n      tag_91\n      jump\t// in\n    tag_90:\n      mload(0x40)\n      dup1\n      swap2\n      sub\n      swap1\n      revert\n    tag_89:\n        /* \"contracts/NFT_Demo/NFT.sol\":5576:5606  _transferOwnership(address(0)) */\n      tag_93\n        /* \"contracts/NFT_Demo/NFT.sol\":5603:5604  0 */\n      0x00\n        /* \"contracts/NFT_Demo/NFT.sol\":5576:5594  _transferOwnership */\n      tag_94\n        /* \"contracts/NFT_Demo/NFT.sol\":5576:5606  _transferOwnership(address(0)) */\n      jump\t// in\n    tag_93:\n        /* \"contracts/NFT_Demo/NFT.sol\":5512:5613  function renounceOwnership() public virtual onlyOwner {... */\n      jump\t// out\n        /* \"contracts/NFT_Demo/NFT.sol\":4880:4965  function owner() public view virtual returns (address) {... */\n    tag_47:\n        /* \"contracts/NFT_Demo/NFT.sol\":4926:4933  address */\n      0x00\n        /* \"contracts/NFT_Demo/NFT.sol\":4952:4958  _owner */\n      dup1\n      0x00\n      swap1\n      sload\n      swap1\n      0x0100\n      exp\n      swap1\n      div\n      0xffffffffffffffffffffffffffffffffffffffff\n      and\n        /* \"contracts/NFT_Demo/NFT.sol\":4945:4958  return _owner */\n      swap1\n      pop\n        /* \"contracts/NFT_Demo/NFT.sol\":4880:4965  function owner() public view virtual returns (address) {... */\n      swap1\n      jump\t// out\n        /* \"contracts/NFT_Demo/NFT.sol\":8957:9167  function transfer(address recipient, uint256 tokenId)... */\n    tag_53:\n        /* \"contracts/NFT_Demo/NFT.sol\":9076:9080  bool */\n      0x00\n        /* \"contracts/NFT_Demo/NFT.sol\":9096:9139  _transfer(_msgSender(), recipient, tokenId) */\n      tag_97\n        /* \"contracts/NFT_Demo/NFT.sol\":9106:9118  _msgSender() */\n      tag_98\n        /* \"contracts/NFT_Demo/NFT.sol\":9106:9116  _msgSender */\n      tag_87\n        /* \"contracts/NFT_Demo/NFT.sol\":9106:9118  _msgSender() */\n      jump\t// in\n    tag_98:\n        /* \"contracts/NFT_Demo/NFT.sol\":9120:9129  recipient */\n      dup5\n        /* \"contracts/NFT_Demo/NFT.sol\":9131:9138  tokenId */\n      dup5\n        /* \"contracts/NFT_Demo/NFT.sol\":9096:9105  _transfer */\n      tag_99\n        /* \"contracts/NFT_Demo/NFT.sol\":9096:9139  _transfer(_msgSender(), recipient, tokenId) */\n      jump\t// in\n    tag_97:\n        /* \"contracts/NFT_Demo/NFT.sol\":9156:9160  true */\n      0x01\n        /* \"contracts/NFT_Demo/NFT.sol\":9149:9160  return true */\n      swap1\n      pop\n        /* \"contracts/NFT_Demo/NFT.sol\":8957:9167  function transfer(address recipient, uint256 tokenId)... */\n      swap3\n      swap2\n      pop\n      pop\n      jump\t// out\n        /* \"contracts/NFT_Demo/NFT.sol\":9912:10122  function safeTransferFrom(... */\n    tag_58:\n        /* \"contracts/NFT_Demo/NFT.sol\":10070:10115  _safeTransferFrom(_from, _to, _tokenId, data) */\n      tag_101\n        /* \"contracts/NFT_Demo/NFT.sol\":10088:10093  _from */\n      dup6\n        /* \"contracts/NFT_Demo/NFT.sol\":10095:10098  _to */\n      dup6\n        /* \"contracts/NFT_Demo/NFT.sol\":10100:10108  _tokenId */\n      dup6\n        /* \"contracts/NFT_Demo/NFT.sol\":10110:10114  data */\n      dup6\n      dup6\n        /* \"contracts/NFT_Demo/NFT.sol\":10070:10115  _safeTransferFrom(_from, _to, _tokenId, data) */\n      dup1\n      dup1\n      0x1f\n      add\n      0x20\n      dup1\n      swap2\n      div\n      mul\n      0x20\n      add\n      mload(0x40)\n      swap1\n      dup2\n      add\n      0x40\n      mstore\n      dup1\n      swap4\n      swap3\n      swap2\n      swap1\n      dup2\n      dup2\n      mstore\n      0x20\n      add\n      dup4\n      dup4\n      dup1\n      dup3\n      dup5\n      calldatacopy\n      0x00\n      dup2\n      dup5\n      add\n      mstore\n      not(0x1f)\n      0x1f\n      dup3\n      add\n      and\n      swap1\n      pop\n      dup1\n      dup4\n      add\n      swap3\n      pop\n      pop\n      pop\n      pop\n      pop\n      pop\n      pop\n        /* \"contracts/NFT_Demo/NFT.sol\":10070:10087  _safeTransferFrom */\n      tag_82\n        /* \"contracts/NFT_Demo/NFT.sol\":10070:10115  _safeTransferFrom(_from, _to, _tokenId, data) */\n      jump\t// in\n    tag_101:\n        /* \"contracts/NFT_Demo/NFT.sol\":9912:10122  function safeTransferFrom(... */\n      pop\n      pop\n      pop\n      pop\n      pop\n      jump\t// out\n        /* \"contracts/NFT_Demo/NFT.sol\":8572:8719  function tokenURI(uint256 _tokenId) external view returns (string memory) {... */\n    tag_62:\n        /* \"contracts/NFT_Demo/NFT.sol\":8631:8644  string memory */\n      0x60\n        /* \"contracts/NFT_Demo/NFT.sol\":8687:8700  _tokenURIBase */\n      0x06\n        /* \"contracts/NFT_Demo/NFT.sol\":8702:8710  _tokenId */\n      dup3\n        /* \"contracts/NFT_Demo/NFT.sol\":8670:8711  abi.encodePacked(_tokenURIBase, _tokenId) */\n      add(0x20, mload(0x40))\n      tag_103\n      swap3\n      swap2\n      swap1\n      tag_104\n      jump\t// in\n    tag_103:\n      mload(0x40)\n      0x20\n      dup2\n      dup4\n      sub\n      sub\n      dup2\n      mstore\n      swap1\n      0x40\n      mstore\n        /* \"contracts/NFT_Demo/NFT.sol\":8656:8712  return string(abi.encodePacked(_tokenURIBase, _tokenId)) */\n      swap1\n      pop\n        /* \"contracts/NFT_Demo/NFT.sol\":8572:8719  function tokenURI(uint256 _tokenId) external view returns (string memory) {... */\n      swap2\n      swap1\n      pop\n      jump\t// out\n        /* \"contracts/NFT_Demo/NFT.sol\":5762:5994  function transferOwnership(address newOwner) public virtual onlyOwner {... */\n    tag_68:\n        /* \"contracts/NFT_Demo/NFT.sol\":5103:5115  _msgSender() */\n      tag_106\n        /* \"contracts/NFT_Demo/NFT.sol\":5103:5113  _msgSender */\n      tag_87\n        /* \"contracts/NFT_Demo/NFT.sol\":5103:5115  _msgSender() */\n      jump\t// in\n    tag_106:\n        /* \"contracts/NFT_Demo/NFT.sol\":5092:5115  owner() == _msgSender() */\n      0xffffffffffffffffffffffffffffffffffffffff\n      and\n        /* \"contracts/NFT_Demo/NFT.sol\":5092:5099  owner() */\n      tag_107\n        /* \"contracts/NFT_Demo/NFT.sol\":5092:5097  owner */\n      tag_47\n        /* \"contracts/NFT_Demo/NFT.sol\":5092:5099  owner() */\n      jump\t// in\n    tag_107:\n        /* \"contracts/NFT_Demo/NFT.sol\":5092:5115  owner() == _msgSender() */\n      0xffffffffffffffffffffffffffffffffffffffff\n      and\n      eq\n        /* \"contracts/NFT_Demo/NFT.sol\":5084:5152  require(owner() == _msgSender(), \"Ownable: caller is not the owner\") */\n      tag_108\n      jumpi\n      mload(0x40)\n      0x08c379a000000000000000000000000000000000000000000000000000000000\n      dup2\n      mstore\n      0x04\n      add\n      tag_109\n      swap1\n      tag_91\n      jump\t// in\n    tag_109:\n      mload(0x40)\n      dup1\n      swap2\n      sub\n      swap1\n      revert\n    tag_108:\n        /* \"contracts/NFT_Demo/NFT.sol\":5883:5884  0 */\n      0x00\n        /* \"contracts/NFT_Demo/NFT.sol\":5863:5885  newOwner != address(0) */\n      0xffffffffffffffffffffffffffffffffffffffff\n      and\n        /* \"contracts/NFT_Demo/NFT.sol\":5863:5871  newOwner */\n      dup2\n        /* \"contracts/NFT_Demo/NFT.sol\":5863:5885  newOwner != address(0) */\n      0xffffffffffffffffffffffffffffffffffffffff\n      and\n      sub\n        /* \"contracts/NFT_Demo/NFT.sol\":5842:5949  require(... */\n      tag_111\n      jumpi\n      mload(0x40)\n      0x08c379a000000000000000000000000000000000000000000000000000000000\n      dup2\n      mstore\n      0x04\n      add\n      tag_112\n      swap1\n      tag_113\n      jump\t// in\n    tag_112:\n      mload(0x40)\n      dup1\n      swap2\n      sub\n      swap1\n      revert\n    tag_111:\n        /* \"contracts/NFT_Demo/NFT.sol\":5959:5987  _transferOwnership(newOwner) */\n      tag_114\n        /* \"contracts/NFT_Demo/NFT.sol\":5978:5986  newOwner */\n      dup2\n        /* \"contracts/NFT_Demo/NFT.sol\":5959:5977  _transferOwnership */\n      tag_94\n        /* \"contracts/NFT_Demo/NFT.sol\":5959:5987  _transferOwnership(newOwner) */\n      jump\t// in\n    tag_114:\n        /* \"contracts/NFT_Demo/NFT.sol\":5762:5994  function transferOwnership(address newOwner) public virtual onlyOwner {... */\n      pop\n      jump\t// out\n        /* \"contracts/NFT_Demo/NFT.sol\":10313:11176  function _safeTransferFrom(... */\n    tag_82:\n        /* \"contracts/NFT_Demo/NFT.sol\":10498:10503  _from */\n      dup4\n        /* \"contracts/NFT_Demo/NFT.sol\":10484:10503  msg.sender == _from */\n      0xffffffffffffffffffffffffffffffffffffffff\n      and\n        /* \"contracts/NFT_Demo/NFT.sol\":10484:10494  msg.sender */\n      caller\n        /* \"contracts/NFT_Demo/NFT.sol\":10484:10503  msg.sender == _from */\n      0xffffffffffffffffffffffffffffffffffffffff\n      and\n      eq\n        /* \"contracts/NFT_Demo/NFT.sol\":10463:10572  require(... */\n      tag_116\n      jumpi\n      mload(0x40)\n      0x08c379a000000000000000000000000000000000000000000000000000000000\n      dup2\n      mstore\n      0x04\n      add\n      tag_117\n      swap1\n      tag_73\n      jump\t// in\n    tag_117:\n      mload(0x40)\n      dup1\n      swap2\n      sub\n      swap1\n      revert\n    tag_116:\n        /* \"contracts/NFT_Demo/NFT.sol\":10612:10622  _idToOwner */\n      0x02\n        /* \"contracts/NFT_Demo/NFT.sol\":10612:10632  _idToOwner[_tokenId] */\n      0x00\n        /* \"contracts/NFT_Demo/NFT.sol\":10623:10631  _tokenId */\n      dup4\n        /* \"contracts/NFT_Demo/NFT.sol\":10612:10632  _idToOwner[_tokenId] */\n      dup2\n      mstore\n      0x20\n      add\n      swap1\n      dup2\n      mstore\n      0x20\n      add\n      0x00\n      keccak256\n      0x00\n      swap1\n      sload\n      swap1\n      0x0100\n      exp\n      swap1\n      div\n      0xffffffffffffffffffffffffffffffffffffffff\n      and\n        /* \"contracts/NFT_Demo/NFT.sol\":10603:10632  _from == _idToOwner[_tokenId] */\n      0xffffffffffffffffffffffffffffffffffffffff\n      and\n        /* \"contracts/NFT_Demo/NFT.sol\":10603:10608  _from */\n      dup5\n        /* \"contracts/NFT_Demo/NFT.sol\":10603:10632  _from == _idToOwner[_tokenId] */\n      0xffffffffffffffffffffffffffffffffffffffff\n      and\n      eq\n        /* \"contracts/NFT_Demo/NFT.sol\":10582:10701  require(... */\n      tag_118\n      jumpi\n      mload(0x40)\n      0x08c379a000000000000000000000000000000000000000000000000000000000\n      dup2\n      mstore\n      0x04\n      add\n      tag_119\n      swap1\n      tag_73\n      jump\t// in\n    tag_119:\n      mload(0x40)\n      dup1\n      swap2\n      sub\n      swap1\n      revert\n    tag_118:\n        /* \"contracts/NFT_Demo/NFT.sol\":10740:10741  1 */\n      0x01\n        /* \"contracts/NFT_Demo/NFT.sol\":10711:10729  _ownerToTokenCount */\n      dup1\n        /* \"contracts/NFT_Demo/NFT.sol\":10711:10736  _ownerToTokenCount[_from] */\n      0x00\n        /* \"contracts/NFT_Demo/NFT.sol\":10730:10735  _from */\n      dup7\n        /* \"contracts/NFT_Demo/NFT.sol\":10711:10736  _ownerToTokenCount[_from] */\n      0xffffffffffffffffffffffffffffffffffffffff\n      and\n      0xffffffffffffffffffffffffffffffffffffffff\n      and\n      dup2\n      mstore\n      0x20\n      add\n      swap1\n      dup2\n      mstore\n      0x20\n      add\n      0x00\n      keccak256\n      0x00\n        /* \"contracts/NFT_Demo/NFT.sol\":10711:10741  _ownerToTokenCount[_from] -= 1 */\n      dup3\n      dup3\n      sload\n      tag_120\n      swap2\n      swap1\n      tag_77\n      jump\t// in\n    tag_120:\n      swap3\n      pop\n      pop\n      dup2\n      swap1\n      sstore\n      pop\n        /* \"contracts/NFT_Demo/NFT.sol\":10778:10779  1 */\n      0x01\n        /* \"contracts/NFT_Demo/NFT.sol\":10751:10769  _ownerToTokenCount */\n      dup1\n        /* \"contracts/NFT_Demo/NFT.sol\":10751:10774  _ownerToTokenCount[_to] */\n      0x00\n        /* \"contracts/NFT_Demo/NFT.sol\":10770:10773  _to */\n      dup6\n        /* \"contracts/NFT_Demo/NFT.sol\":10751:10774  _ownerToTokenCount[_to] */\n      0xffffffffffffffffffffffffffffffffffffffff\n      and\n      0xffffffffffffffffffffffffffffffffffffffff\n      and\n      dup2\n      mstore\n      0x20\n      add\n      swap1\n      dup2\n      mstore\n      0x20\n      add\n      0x00\n      keccak256\n      0x00\n        /* \"contracts/NFT_Demo/NFT.sol\":10751:10779  _ownerToTokenCount[_to] += 1 */\n      dup3\n      dup3\n      sload\n      tag_121\n      swap2\n      swap1\n      tag_79\n      jump\t// in\n    tag_121:\n      swap3\n      pop\n      pop\n      dup2\n      swap1\n      sstore\n      pop\n        /* \"contracts/NFT_Demo/NFT.sol\":10815:10823  _tokenId */\n      dup2\n        /* \"contracts/NFT_Demo/NFT.sol\":10810:10813  _to */\n      dup4\n        /* \"contracts/NFT_Demo/NFT.sol\":10794:10824  Transfer(_from, _to, _tokenId) */\n      0xffffffffffffffffffffffffffffffffffffffff\n      and\n        /* \"contracts/NFT_Demo/NFT.sol\":10803:10808  _from */\n      dup6\n        /* \"contracts/NFT_Demo/NFT.sol\":10794:10824  Transfer(_from, _to, _tokenId) */\n      0xffffffffffffffffffffffffffffffffffffffff\n      and\n      0xddf252ad1be2c89b69c2b068fc378daa952ba7f163c4a11628f55a4df523b3ef\n      mload(0x40)\n      mload(0x40)\n      dup1\n      swap2\n      sub\n      swap1\n      log4\n        /* \"contracts/NFT_Demo/NFT.sol\":10838:10854  _to.isContract() */\n      tag_122\n        /* \"contracts/NFT_Demo/NFT.sol\":10838:10841  _to */\n      dup4\n        /* \"contracts/NFT_Demo/NFT.sol\":10838:10852  _to.isContract */\n      0xffffffffffffffffffffffffffffffffffffffff\n      and\n      tag_123\n        /* \"contracts/NFT_Demo/NFT.sol\":10838:10854  _to.isContract() */\n      jump\t// in\n    tag_122:\n        /* \"contracts/NFT_Demo/NFT.sol\":10834:11170  if (_to.isContract()) {... */\n      iszero\n      tag_124\n      jumpi\n        /* \"contracts/NFT_Demo/NFT.sol\":10870:10883  bytes4 retval */\n      0x00\n        /* \"contracts/NFT_Demo/NFT.sol\":10906:10909  _to */\n      dup4\n        /* \"contracts/NFT_Demo/NFT.sol\":10886:10927  ERC721TokenReceiver(_to).onERC721Received */\n      0xffffffffffffffffffffffffffffffffffffffff\n      and\n      0x150b7a02\n        /* \"contracts/NFT_Demo/NFT.sol\":10945:10955  msg.sender */\n      caller\n        /* \"contracts/NFT_Demo/NFT.sol\":10973:10978  _from */\n      dup8\n        /* \"contracts/NFT_Demo/NFT.sol\":10996:11004  _tokenId */\n      dup7\n        /* \"contracts/NFT_Demo/NFT.sol\":11022:11027  _data */\n      dup7\n        /* \"contracts/NFT_Demo/NFT.sol\":10886:11041  ERC721TokenReceiver(_to).onERC721Received(... */\n      mload(0x40)\n      dup6\n      0xffffffff\n      and\n      0xe0\n      shl\n      dup2\n      mstore\n      0x04\n      add\n      tag_125\n      swap5\n      swap4\n      swap3\n      swap2\n      swap1\n      tag_126\n      jump\t// in\n    tag_125:\n      0x20\n      mload(0x40)\n      dup1\n      dup4\n      sub\n      dup2\n      0x00\n      dup8\n      gas\n      call\n      iszero\n      dup1\n      iszero\n      tag_128\n      jumpi\n      returndatasize\n      0x00\n      dup1\n      returndatacopy\n      revert(0x00, returndatasize)\n    tag_128:\n      pop\n      pop\n      pop\n      pop\n      mload(0x40)\n      returndatasize\n      not(0x1f)\n      0x1f\n      dup3\n      add\n      and\n      dup3\n      add\n      dup1\n      0x40\n      mstore\n      pop\n      dup2\n      add\n      swap1\n      tag_129\n      swap2\n      swap1\n      tag_130\n      jump\t// in\n    tag_129:\n        /* \"contracts/NFT_Demo/NFT.sol\":10870:11041  bytes4 retval = ERC721TokenReceiver(_to).onERC721Received(... */\n      swap1\n      pop\n        /* \"contracts/NFT_Demo/NFT.sol\":10856:11170  {... */\n      pop\n        /* \"contracts/NFT_Demo/NFT.sol\":10834:11170  if (_to.isContract()) {... */\n    tag_124:\n        /* \"contracts/NFT_Demo/NFT.sol\":10313:11176  function _safeTransferFrom(... */\n      pop\n      pop\n      pop\n      pop\n      jump\t// out\n        /* \"contracts/NFT_Demo/NFT.sol\":99:195  function _msgSender() internal view virtual returns (address) {... */\n    tag_87:\n        /* \"contracts/NFT_Demo/NFT.sol\":152:159  address */\n      0x00\n        /* \"contracts/NFT_Demo/NFT.sol\":178:188  msg.sender */\n      caller\n        /* \"contracts/NFT_Demo/NFT.sol\":171:188  return msg.sender */\n      swap1\n      pop\n        /* \"contracts/NFT_Demo/NFT.sol\":99:195  function _msgSender() internal view virtual returns (address) {... */\n      swap1\n      jump\t// out\n        /* \"contracts/NFT_Demo/NFT.sol\":6148:6335  function _transferOwnership(address newOwner) internal virtual {... */\n    tag_94:\n        /* \"contracts/NFT_Demo/NFT.sol\":6221:6237  address oldOwner */\n      0x00\n        /* \"contracts/NFT_Demo/NFT.sol\":6240:6246  _owner */\n      dup1\n      0x00\n      swap1\n      sload\n      swap1\n      0x0100\n      exp\n      swap1\n      div\n      0xffffffffffffffffffffffffffffffffffffffff\n      and\n        /* \"contracts/NFT_Demo/NFT.sol\":6221:6246  address oldOwner = _owner */\n      swap1\n      pop\n        /* \"contracts/NFT_Demo/NFT.sol\":6265:6273  newOwner */\n      dup2\n        /* \"contracts/NFT_Demo/NFT.sol\":6256:6262  _owner */\n      0x00\n      dup1\n        /* \"contracts/NFT_Demo/NFT.sol\":6256:6273  _owner = newOwner */\n      0x0100\n      exp\n      dup2\n      sload\n      dup2\n      0xffffffffffffffffffffffffffffffffffffffff\n      mul\n      not\n      and\n      swap1\n      dup4\n      0xffffffffffffffffffffffffffffffffffffffff\n      and\n      mul\n      or\n      swap1\n      sstore\n      pop\n        /* \"contracts/NFT_Demo/NFT.sol\":6319:6327  newOwner */\n      dup2\n        /* \"contracts/NFT_Demo/NFT.sol\":6288:6328  OwnershipTransferred(oldOwner, newOwner) */\n      0xffffffffffffffffffffffffffffffffffffffff\n      and\n        /* \"contracts/NFT_Demo/NFT.sol\":6309:6317  oldOwner */\n      dup2\n        /* \"contracts/NFT_Demo/NFT.sol\":6288:6328  OwnershipTransferred(oldOwner, newOwner) */\n      0xffffffffffffffffffffffffffffffffffffffff\n      and\n      0x8be0079c531659141344cd1fd0a4f28419497f9722a3daafe3b4186f6b6457e0\n      mload(0x40)\n      mload(0x40)\n      dup1\n      swap2\n      sub\n      swap1\n      log3\n        /* \"contracts/NFT_Demo/NFT.sol\":6211:6335  {... */\n      pop\n        /* \"contracts/NFT_Demo/NFT.sol\":6148:6335  function _transferOwnership(address newOwner) internal virtual {... */\n      pop\n      jump\t// out\n        /* \"contracts/NFT_Demo/NFT.sol\":11354:11872  function _transfer(... */\n    tag_99:\n        /* \"contracts/NFT_Demo/NFT.sol\":11508:11509  0 */\n      0x00\n        /* \"contracts/NFT_Demo/NFT.sol\":11490:11510  sender != address(0) */\n      0xffffffffffffffffffffffffffffffffffffffff\n      and\n        /* \"contracts/NFT_Demo/NFT.sol\":11490:11496  sender */\n      dup4\n        /* \"contracts/NFT_Demo/NFT.sol\":11490:11510  sender != address(0) */\n      0xffffffffffffffffffffffffffffffffffffffff\n      and\n      sub\n        /* \"contracts/NFT_Demo/NFT.sol\":11482:11553  require(sender != address(0), \"ERC721: transfer from the zero address\") */\n      tag_134\n      jumpi\n      mload(0x40)\n      0x08c379a000000000000000000000000000000000000000000000000000000000\n      dup2\n      mstore\n      0x04\n      add\n      tag_135\n      swap1\n      tag_136\n      jump\t// in\n    tag_135:\n      mload(0x40)\n      dup1\n      swap2\n      sub\n      swap1\n      revert\n    tag_134:\n        /* \"contracts/NFT_Demo/NFT.sol\":11605:11606  0 */\n      0x00\n        /* \"contracts/NFT_Demo/NFT.sol\":11584:11607  recipient != address(0) */\n      0xffffffffffffffffffffffffffffffffffffffff\n      and\n        /* \"contracts/NFT_Demo/NFT.sol\":11584:11593  recipient */\n      dup3\n        /* \"contracts/NFT_Demo/NFT.sol\":11584:11607  recipient != address(0) */\n      0xffffffffffffffffffffffffffffffffffffffff\n      and\n      sub\n        /* \"contracts/NFT_Demo/NFT.sol\":11563:11669  require(... */\n      tag_137\n      jumpi\n      mload(0x40)\n      0x08c379a000000000000000000000000000000000000000000000000000000000\n      dup2\n      mstore\n      0x04\n      add\n      tag_138\n      swap1\n      tag_139\n      jump\t// in\n    tag_138:\n      mload(0x40)\n      dup1\n      swap2\n      sub\n      swap1\n      revert\n    tag_137:\n        /* \"contracts/NFT_Demo/NFT.sol\":11680:11728  _beforeTokenTransfer(sender, recipient, tokenId) */\n      tag_140\n        /* \"contracts/NFT_Demo/NFT.sol\":11701:11707  sender */\n      dup4\n        /* \"contracts/NFT_Demo/NFT.sol\":11709:11718  recipient */\n      dup4\n        /* \"contracts/NFT_Demo/NFT.sol\":11720:11727  tokenId */\n      dup4\n        /* \"contracts/NFT_Demo/NFT.sol\":11680:11700  _beforeTokenTransfer */\n      tag_141\n        /* \"contracts/NFT_Demo/NFT.sol\":11680:11728  _beforeTokenTransfer(sender, recipient, tokenId) */\n      jump\t// in\n    tag_140:\n        /* \"contracts/NFT_Demo/NFT.sol\":11761:11770  recipient */\n      dup2\n        /* \"contracts/NFT_Demo/NFT.sol\":11739:11749  _idToOwner */\n      0x02\n        /* \"contracts/NFT_Demo/NFT.sol\":11739:11758  _idToOwner[tokenId] */\n      0x00\n        /* \"contracts/NFT_Demo/NFT.sol\":11750:11757  tokenId */\n      dup4\n        /* \"contracts/NFT_Demo/NFT.sol\":11739:11758  _idToOwner[tokenId] */\n      dup2\n      mstore\n      0x20\n      add\n      swap1\n      dup2\n      mstore\n      0x20\n      add\n      0x00\n      keccak256\n      0x00\n        /* \"contracts/NFT_Demo/NFT.sol\":11739:11770  _idToOwner[tokenId] = recipient */\n      0x0100\n      exp\n      dup2\n      sload\n      dup2\n      0xffffffffffffffffffffffffffffffffffffffff\n      mul\n      not\n      and\n      swap1\n      dup4\n      0xffffffffffffffffffffffffffffffffffffffff\n      and\n      mul\n      or\n      swap1\n      sstore\n      pop\n        /* \"contracts/NFT_Demo/NFT.sol\":11813:11814  1 */\n      0x01\n        /* \"contracts/NFT_Demo/NFT.sol\":11780:11798  _ownerToTokenCount */\n      dup1\n        /* \"contracts/NFT_Demo/NFT.sol\":11780:11809  _ownerToTokenCount[recipient] */\n      0x00\n        /* \"contracts/NFT_Demo/NFT.sol\":11799:11808  recipient */\n      dup5\n        /* \"contracts/NFT_Demo/NFT.sol\":11780:11809  _ownerToTokenCount[recipient] */\n      0xffffffffffffffffffffffffffffffffffffffff\n      and\n      0xffffffffffffffffffffffffffffffffffffffff\n      and\n      dup2\n      mstore\n      0x20\n      add\n      swap1\n      dup2\n      mstore\n      0x20\n      add\n      0x00\n      keccak256\n      0x00\n        /* \"contracts/NFT_Demo/NFT.sol\":11780:11814  _ownerToTokenCount[recipient] += 1 */\n      dup3\n      dup3\n      sload\n      tag_142\n      swap2\n      swap1\n      tag_79\n      jump\t// in\n    tag_142:\n      swap3\n      pop\n      pop\n      dup2\n      swap1\n      sstore\n      pop\n        /* \"contracts/NFT_Demo/NFT.sol\":11857:11864  tokenId */\n      dup1\n        /* \"contracts/NFT_Demo/NFT.sol\":11846:11855  recipient */\n      dup3\n        /* \"contracts/NFT_Demo/NFT.sol\":11829:11865  Transfer(sender, recipient, tokenId) */\n      0xffffffffffffffffffffffffffffffffffffffff\n      and\n        /* \"contracts/NFT_Demo/NFT.sol\":11838:11844  sender */\n      dup5\n        /* \"contracts/NFT_Demo/NFT.sol\":11829:11865  Transfer(sender, recipient, tokenId) */\n      0xffffffffffffffffffffffffffffffffffffffff\n      and\n      0xddf252ad1be2c89b69c2b068fc378daa952ba7f163c4a11628f55a4df523b3ef\n      mload(0x40)\n      mload(0x40)\n      dup1\n      swap2\n      sub\n      swap1\n      log4\n        /* \"contracts/NFT_Demo/NFT.sol\":11354:11872  function _transfer(... */\n      pop\n      pop\n      pop\n      jump\t// out\n        /* \"contracts/NFT_Demo/NFT.sol\":326:646  function isContract(address account) internal view returns (bool) {... */\n    tag_123:\n        /* \"contracts/NFT_Demo/NFT.sol\":386:390  bool */\n      0x00\n        /* \"contracts/NFT_Demo/NFT.sol\":638:639  0 */\n      dup1\n        /* \"contracts/NFT_Demo/NFT.sol\":616:623  account */\n      dup3\n        /* \"contracts/NFT_Demo/NFT.sol\":616:635  account.code.length */\n      0xffffffffffffffffffffffffffffffffffffffff\n      and\n      extcodesize\n        /* \"contracts/NFT_Demo/NFT.sol\":616:639  account.code.length > 0 */\n      gt\n        /* \"contracts/NFT_Demo/NFT.sol\":609:639  return account.code.length > 0 */\n      swap1\n      pop\n        /* \"contracts/NFT_Demo/NFT.sol\":326:646  function isContract(address account) internal view returns (bool) {... */\n      swap2\n      swap1\n      pop\n      jump\t// out\n        /* \"contracts/NFT_Demo/NFT.sol\":11878:12121  function _beforeTokenTransfer(... */\n    tag_141:\n        /* \"contracts/NFT_Demo/NFT.sol\":12052:12056  from */\n      dup3\n        /* \"contracts/NFT_Demo/NFT.sol\":12029:12056  _idToOwner[tokenId] == from */\n      0xffffffffffffffffffffffffffffffffffffffff\n      and\n        /* \"contracts/NFT_Demo/NFT.sol\":12029:12039  _idToOwner */\n      0x02\n        /* \"contracts/NFT_Demo/NFT.sol\":12029:12048  _idToOwner[tokenId] */\n      0x00\n        /* \"contracts/NFT_Demo/NFT.sol\":12040:12047  tokenId */\n      dup4\n        /* \"contracts/NFT_Demo/NFT.sol\":12029:12048  _idToOwner[tokenId] */\n      dup2\n      mstore\n      0x20\n      add\n      swap1\n      dup2\n      mstore\n      0x20\n      add\n      0x00\n      keccak256\n      0x00\n      swap1\n      sload\n      swap1\n      0x0100\n      exp\n      swap1\n      div\n      0xffffffffffffffffffffffffffffffffffffffff\n      and\n        /* \"contracts/NFT_Demo/NFT.sol\":12029:12056  _idToOwner[tokenId] == from */\n      0xffffffffffffffffffffffffffffffffffffffff\n      and\n      eq\n        /* \"contracts/NFT_Demo/NFT.sol\":12008:12114  require(... */\n      tag_145\n      jumpi\n      mload(0x40)\n      0x08c379a000000000000000000000000000000000000000000000000000000000\n      dup2\n      mstore\n      0x04\n      add\n      tag_146\n      swap1\n      tag_147\n      jump\t// in\n    tag_146:\n      mload(0x40)\n      dup1\n      swap2\n      sub\n      swap1\n      revert\n    tag_145:\n        /* \"contracts/NFT_Demo/NFT.sol\":11878:12121  function _beforeTokenTransfer(... */\n      pop\n      pop\n      pop\n      jump\t// out\n        /* \"#utility.yul\":88:205   */\n    tag_149:\n        /* \"#utility.yul\":197:198   */\n      0x00\n        /* \"#utility.yul\":194:195   */\n      dup1\n        /* \"#utility.yul\":187:199   */\n      revert\n        /* \"#utility.yul\":211:328   */\n    tag_150:\n        /* \"#utility.yul\":320:321   */\n      0x00\n        /* \"#utility.yul\":317:318   */\n      dup1\n        /* \"#utility.yul\":310:322   */\n      revert\n        /* \"#utility.yul\":334:460   */\n    tag_151:\n        /* \"#utility.yul\":371:378   */\n      0x00\n        /* \"#utility.yul\":411:453   */\n      0xffffffffffffffffffffffffffffffffffffffff\n        /* \"#utility.yul\":404:409   */\n      dup3\n        /* \"#utility.yul\":400:454   */\n      and\n        /* \"#utility.yul\":389:454   */\n      swap1\n      pop\n        /* \"#utility.yul\":334:460   */\n      swap2\n      swap1\n      pop\n      jump\t// out\n        /* \"#utility.yul\":466:562   */\n    tag_152:\n        /* \"#utility.yul\":503:510   */\n      0x00\n        /* \"#utility.yul\":532:556   */\n      tag_204\n        /* \"#utility.yul\":550:555   */\n      dup3\n        /* \"#utility.yul\":532:556   */\n      tag_151\n      jump\t// in\n    tag_204:\n        /* \"#utility.yul\":521:556   */\n      swap1\n      pop\n        /* \"#utility.yul\":466:562   */\n      swap2\n      swap1\n      pop\n      jump\t// out\n        /* \"#utility.yul\":568:690   */\n    tag_153:\n        /* \"#utility.yul\":641:665   */\n      tag_206\n        /* \"#utility.yul\":659:664   */\n      dup2\n        /* \"#utility.yul\":641:665   */\n      tag_152\n      jump\t// in\n    tag_206:\n        /* \"#utility.yul\":634:639   */\n      dup2\n        /* \"#utility.yul\":631:666   */\n      eq\n        /* \"#utility.yul\":621:684   */\n      tag_207\n      jumpi\n        /* \"#utility.yul\":680:681   */\n      0x00\n        /* \"#utility.yul\":677:678   */\n      dup1\n        /* \"#utility.yul\":670:682   */\n      revert\n        /* \"#utility.yul\":621:684   */\n    tag_207:\n        /* \"#utility.yul\":568:690   */\n      pop\n      jump\t// out\n        /* \"#utility.yul\":696:835   */\n    tag_154:\n        /* \"#utility.yul\":742:747   */\n      0x00\n        /* \"#utility.yul\":780:786   */\n      dup2\n        /* \"#utility.yul\":767:787   */\n      calldataload\n        /* \"#utility.yul\":758:787   */\n      swap1\n      pop\n        /* \"#utility.yul\":796:829   */\n      tag_209\n        /* \"#utility.yul\":823:828   */\n      dup2\n        /* \"#utility.yul\":796:829   */\n      tag_153\n      jump\t// in\n    tag_209:\n        /* \"#utility.yul\":696:835   */\n      swap3\n      swap2\n      pop\n      pop\n      jump\t// out\n        /* \"#utility.yul\":841:918   */\n    tag_155:\n        /* \"#utility.yul\":878:885   */\n      0x00\n        /* \"#utility.yul\":907:912   */\n      dup2\n        /* \"#utility.yul\":896:912   */\n      swap1\n      pop\n        /* \"#utility.yul\":841:918   */\n      swap2\n      swap1\n      pop\n      jump\t// out\n        /* \"#utility.yul\":924:1046   */\n    tag_156:\n        /* \"#utility.yul\":997:1021   */\n      tag_212\n        /* \"#utility.yul\":1015:1020   */\n      dup2\n        /* \"#utility.yul\":997:1021   */\n      tag_155\n      jump\t// in\n    tag_212:\n        /* \"#utility.yul\":990:995   */\n      dup2\n        /* \"#utility.yul\":987:1022   */\n      eq\n        /* \"#utility.yul\":977:1040   */\n      tag_213\n      jumpi\n        /* \"#utility.yul\":1036:1037   */\n      0x00\n        /* \"#utility.yul\":1033:1034   */\n      dup1\n        /* \"#utility.yul\":1026:1038   */\n      revert\n        /* \"#utility.yul\":977:1040   */\n    tag_213:\n        /* \"#utility.yul\":924:1046   */\n      pop\n      jump\t// out\n        /* \"#utility.yul\":1052:1191   */\n    tag_157:\n        /* \"#utility.yul\":1098:1103   */\n      0x00\n        /* \"#utility.yul\":1136:1142   */\n      dup2\n        /* \"#utility.yul\":1123:1143   */\n      calldataload\n        /* \"#utility.yul\":1114:1143   */\n      swap1\n      pop\n        /* \"#utility.yul\":1152:1185   */\n      tag_215\n        /* \"#utility.yul\":1179:1184   */\n      dup2\n        /* \"#utility.yul\":1152:1185   */\n      tag_156\n      jump\t// in\n    tag_215:\n        /* \"#utility.yul\":1052:1191   */\n      swap3\n      swap2\n      pop\n      pop\n      jump\t// out\n        /* \"#utility.yul\":1197:1314   */\n    tag_158:\n        /* \"#utility.yul\":1306:1307   */\n      0x00\n        /* \"#utility.yul\":1303:1304   */\n      dup1\n        /* \"#utility.yul\":1296:1308   */\n      revert\n        /* \"#utility.yul\":1320:1437   */\n    tag_159:\n        /* \"#utility.yul\":1429:1430   */\n      0x00\n        /* \"#utility.yul\":1426:1427   */\n      dup1\n        /* \"#utility.yul\":1419:1431   */\n      revert\n        /* \"#utility.yul\":1443:1560   */\n    tag_160:\n        /* \"#utility.yul\":1552:1553   */\n      0x00\n        /* \"#utility.yul\":1549:1550   */\n      dup1\n        /* \"#utility.yul\":1542:1554   */\n      revert\n        /* \"#utility.yul\":1579:2131   */\n    tag_161:\n        /* \"#utility.yul\":1636:1644   */\n      0x00\n        /* \"#utility.yul\":1646:1652   */\n      dup1\n        /* \"#utility.yul\":1696:1699   */\n      dup4\n        /* \"#utility.yul\":1689:1693   */\n      0x1f\n        /* \"#utility.yul\":1681:1687   */\n      dup5\n        /* \"#utility.yul\":1677:1694   */\n      add\n        /* \"#utility.yul\":1673:1700   */\n      slt\n        /* \"#utility.yul\":1663:1785   */\n      tag_220\n      jumpi\n        /* \"#utility.yul\":1704:1783   */\n      tag_221\n      tag_158\n      jump\t// in\n    tag_221:\n        /* \"#utility.yul\":1663:1785   */\n    tag_220:\n        /* \"#utility.yul\":1817:1823   */\n      dup3\n        /* \"#utility.yul\":1804:1824   */\n      calldataload\n        /* \"#utility.yul\":1794:1824   */\n      swap1\n      pop\n        /* \"#utility.yul\":1847:1865   */\n      0xffffffffffffffff\n        /* \"#utility.yul\":1839:1845   */\n      dup2\n        /* \"#utility.yul\":1836:1866   */\n      gt\n        /* \"#utility.yul\":1833:1950   */\n      iszero\n      tag_222\n      jumpi\n        /* \"#utility.yul\":1869:1948   */\n      tag_223\n      tag_159\n      jump\t// in\n    tag_223:\n        /* \"#utility.yul\":1833:1950   */\n    tag_222:\n        /* \"#utility.yul\":1983:1987   */\n      0x20\n        /* \"#utility.yul\":1975:1981   */\n      dup4\n        /* \"#utility.yul\":1971:1988   */\n      add\n        /* \"#utility.yul\":1959:1988   */\n      swap2\n      pop\n        /* \"#utility.yul\":2037:2040   */\n      dup4\n        /* \"#utility.yul\":2029:2033   */\n      0x01\n        /* \"#utility.yul\":2021:2027   */\n      dup3\n        /* \"#utility.yul\":2017:2034   */\n      mul\n        /* \"#utility.yul\":2007:2015   */\n      dup4\n        /* \"#utility.yul\":2003:2035   */\n      add\n        /* \"#utility.yul\":2000:2041   */\n      gt\n        /* \"#utility.yul\":1997:2125   */\n      iszero\n      tag_224\n      jumpi\n        /* \"#utility.yul\":2044:2123   */\n      tag_225\n      tag_160\n      jump\t// in\n    tag_225:\n        /* \"#utility.yul\":1997:2125   */\n    tag_224:\n        /* \"#utility.yul\":1579:2131   */\n      swap3\n      pop\n      swap3\n      swap1\n      pop\n      jump\t// out\n        /* \"#utility.yul\":2137:3100   */\n    tag_17:\n        /* \"#utility.yul\":2234:2240   */\n      0x00\n        /* \"#utility.yul\":2242:2248   */\n      dup1\n        /* \"#utility.yul\":2250:2256   */\n      0x00\n        /* \"#utility.yul\":2258:2264   */\n      dup1\n        /* \"#utility.yul\":2266:2272   */\n      0x00\n        /* \"#utility.yul\":2315:2318   */\n      0x80\n        /* \"#utility.yul\":2303:2312   */\n      dup7\n        /* \"#utility.yul\":2294:2301   */\n      dup9\n        /* \"#utility.yul\":2290:2313   */\n      sub\n        /* \"#utility.yul\":2286:2319   */\n      slt\n        /* \"#utility.yul\":2283:2403   */\n      iszero\n      tag_227\n      jumpi\n        /* \"#utility.yul\":2322:2401   */\n      tag_228\n      tag_149\n      jump\t// in\n    tag_228:\n        /* \"#utility.yul\":2283:2403   */\n    tag_227:\n        /* \"#utility.yul\":2442:2443   */\n      0x00\n        /* \"#utility.yul\":2467:2520   */\n      tag_229\n        /* \"#utility.yul\":2512:2519   */\n      dup9\n        /* \"#utility.yul\":2503:2509   */\n      dup3\n        /* \"#utility.yul\":2492:2501   */\n      dup10\n        /* \"#utility.yul\":2488:2510   */\n      add\n        /* \"#utility.yul\":2467:2520   */\n      tag_154\n      jump\t// in\n    tag_229:\n        /* \"#utility.yul\":2457:2520   */\n      swap6\n      pop\n        /* \"#utility.yul\":2413:2530   */\n      pop\n        /* \"#utility.yul\":2569:2571   */\n      0x20\n        /* \"#utility.yul\":2595:2648   */\n      tag_230\n        /* \"#utility.yul\":2640:2647   */\n      dup9\n        /* \"#utility.yul\":2631:2637   */\n      dup3\n        /* \"#utility.yul\":2620:2629   */\n      dup10\n        /* \"#utility.yul\":2616:2638   */\n      add\n        /* \"#utility.yul\":2595:2648   */\n      tag_154\n      jump\t// in\n    tag_230:\n        /* \"#utility.yul\":2585:2648   */\n      swap5\n      pop\n        /* \"#utility.yul\":2540:2658   */\n      pop\n        /* \"#utility.yul\":2697:2699   */\n      0x40\n        /* \"#utility.yul\":2723:2776   */\n      tag_231\n        /* \"#utility.yul\":2768:2775   */\n      dup9\n        /* \"#utility.yul\":2759:2765   */\n      dup3\n        /* \"#utility.yul\":2748:2757   */\n      dup10\n        /* \"#utility.yul\":2744:2766   */\n      add\n        /* \"#utility.yul\":2723:2776   */\n      tag_157\n      jump\t// in\n    tag_231:\n        /* \"#utility.yul\":2713:2776   */\n      swap4\n      pop\n        /* \"#utility.yul\":2668:2786   */\n      pop\n        /* \"#utility.yul\":2853:2855   */\n      0x60\n        /* \"#utility.yul\":2842:2851   */\n      dup7\n        /* \"#utility.yul\":2838:2856   */\n      add\n        /* \"#utility.yul\":2825:2857   */\n      calldataload\n        /* \"#utility.yul\":2884:2902   */\n      0xffffffffffffffff\n        /* \"#utility.yul\":2876:2882   */\n      dup2\n        /* \"#utility.yul\":2873:2903   */\n      gt\n        /* \"#utility.yul\":2870:2987   */\n      iszero\n      tag_232\n      jumpi\n        /* \"#utility.yul\":2906:2985   */\n      tag_233\n      tag_150\n      jump\t// in\n    tag_233:\n        /* \"#utility.yul\":2870:2987   */\n    tag_232:\n        /* \"#utility.yul\":3019:3083   */\n      tag_234\n        /* \"#utility.yul\":3075:3082   */\n      dup9\n        /* \"#utility.yul\":3066:3072   */\n      dup3\n        /* \"#utility.yul\":3055:3064   */\n      dup10\n        /* \"#utility.yul\":3051:3073   */\n      add\n        /* \"#utility.yul\":3019:3083   */\n      tag_161\n      jump\t// in\n    tag_234:\n        /* \"#utility.yul\":3001:3083   */\n      swap3\n      pop\n      swap3\n      pop\n        /* \"#utility.yul\":2796:3093   */\n      pop\n        /* \"#utility.yul\":2137:3100   */\n      swap3\n      swap6\n      pop\n      swap3\n      swap6\n      swap1\n      swap4\n      pop\n      jump\t// out\n        /* \"#utility.yul\":3106:3255   */\n    tag_162:\n        /* \"#utility.yul\":3142:3149   */\n      0x00\n        /* \"#utility.yul\":3182:3248   */\n      0xffffffff00000000000000000000000000000000000000000000000000000000\n        /* \"#utility.yul\":3175:3180   */\n      dup3\n        /* \"#utility.yul\":3171:3249   */\n      and\n        /* \"#utility.yul\":3160:3249   */\n      swap1\n      pop\n        /* \"#utility.yul\":3106:3255   */\n      swap2\n      swap1\n      pop\n      jump\t// out\n        /* \"#utility.yul\":3261:3376   */\n    tag_163:\n        /* \"#utility.yul\":3346:3369   */\n      tag_237\n        /* \"#utility.yul\":3363:3368   */\n      dup2\n        /* \"#utility.yul\":3346:3369   */\n      tag_162\n      jump\t// in\n    tag_237:\n        /* \"#utility.yul\":3341:3344   */\n      dup3\n        /* \"#utility.yul\":3334:3370   */\n      mstore\n        /* \"#utility.yul\":3261:3376   */\n      pop\n      pop\n      jump\t// out\n        /* \"#utility.yul\":3382:3600   */\n    tag_20:\n        /* \"#utility.yul\":3473:3477   */\n      0x00\n        /* \"#utility.yul\":3511:3513   */\n      0x20\n        /* \"#utility.yul\":3500:3509   */\n      dup3\n        /* \"#utility.yul\":3496:3514   */\n      add\n        /* \"#utility.yul\":3488:3514   */\n      swap1\n      pop\n        /* \"#utility.yul\":3524:3593   */\n      tag_239\n        /* \"#utility.yul\":3590:3591   */\n      0x00\n        /* \"#utility.yul\":3579:3588   */\n      dup4\n        /* \"#utility.yul\":3575:3592   */\n      add\n        /* \"#utility.yul\":3566:3572   */\n      dup5\n        /* \"#utility.yul\":3524:3593   */\n      tag_163\n      jump\t// in\n    tag_239:\n        /* \"#utility.yul\":3382:3600   */\n      swap3\n      swap2\n      pop\n      pop\n      jump\t// out\n        /* \"#utility.yul\":3606:4225   */\n    tag_23:\n        /* \"#utility.yul\":3683:3689   */\n      0x00\n        /* \"#utility.yul\":3691:3697   */\n      dup1\n        /* \"#utility.yul\":3699:3705   */\n      0x00\n        /* \"#utility.yul\":3748:3750   */\n      0x60\n        /* \"#utility.yul\":3736:3745   */\n      dup5\n        /* \"#utility.yul\":3727:3734   */\n      dup7\n        /* \"#utility.yul\":3723:3746   */\n      sub\n        /* \"#utility.yul\":3719:3751   */\n      slt\n        /* \"#utility.yul\":3716:3835   */\n      iszero\n      tag_241\n      jumpi\n        /* \"#utility.yul\":3754:3833   */\n      tag_242\n      tag_149\n      jump\t// in\n    tag_242:\n        /* \"#utility.yul\":3716:3835   */\n    tag_241:\n        /* \"#utility.yul\":3874:3875   */\n      0x00\n        /* \"#utility.yul\":3899:3952   */\n      tag_243\n        /* \"#utility.yul\":3944:3951   */\n      dup7\n        /* \"#utility.yul\":3935:3941   */\n      dup3\n        /* \"#utility.yul\":3924:3933   */\n      dup8\n        /* \"#utility.yul\":3920:3942   */\n      add\n        /* \"#utility.yul\":3899:3952   */\n      tag_154\n      jump\t// in\n    tag_243:\n        /* \"#utility.yul\":3889:3952   */\n      swap4\n      pop\n        /* \"#utility.yul\":3845:3962   */\n      pop\n        /* \"#utility.yul\":4001:4003   */\n      0x20\n        /* \"#utility.yul\":4027:4080   */\n      tag_244\n        /* \"#utility.yul\":4072:4079   */\n      dup7\n        /* \"#utility.yul\":4063:4069   */\n      dup3\n        /* \"#utility.yul\":4052:4061   */\n      dup8\n        /* \"#utility.yul\":4048:4070   */\n      add\n        /* \"#utility.yul\":4027:4080   */\n      tag_154\n      jump\t// in\n    tag_244:\n        /* \"#utility.yul\":4017:4080   */\n      swap3\n      pop\n        /* \"#utility.yul\":3972:4090   */\n      pop\n        /* \"#utility.yul\":4129:4131   */\n      0x40\n        /* \"#utility.yul\":4155:4208   */\n      tag_245\n        /* \"#utility.yul\":4200:4207   */\n      dup7\n        /* \"#utility.yul\":4191:4197   */\n      dup3\n        /* \"#utility.yul\":4180:4189   */\n      dup8\n        /* \"#utility.yul\":4176:4198   */\n      add\n        /* \"#utility.yul\":4155:4208   */\n      tag_157\n      jump\t// in\n    tag_245:\n        /* \"#utility.yul\":4145:4208   */\n      swap2\n      pop\n        /* \"#utility.yul\":4100:4218   */\n      pop\n        /* \"#utility.yul\":3606:4225   */\n      swap3\n      pop\n      swap3\n      pop\n      swap3\n      jump\t// out\n        /* \"#utility.yul\":4231:4560   */\n    tag_31:\n        /* \"#utility.yul\":4290:4296   */\n      0x00\n        /* \"#utility.yul\":4339:4341   */\n      0x20\n        /* \"#utility.yul\":4327:4336   */\n      dup3\n        /* \"#utility.yul\":4318:4325   */\n      dup5\n        /* \"#utility.yul\":4314:4337   */\n      sub\n        /* \"#utility.yul\":4310:4342   */\n      slt\n        /* \"#utility.yul\":4307:4426   */\n      iszero\n      tag_247\n      jumpi\n        /* \"#utility.yul\":4345:4424   */\n      tag_248\n      tag_149\n      jump\t// in\n    tag_248:\n        /* \"#utility.yul\":4307:4426   */\n    tag_247:\n        /* \"#utility.yul\":4465:4466   */\n      0x00\n        /* \"#utility.yul\":4490:4543   */\n      tag_249\n        /* \"#utility.yul\":4535:4542   */\n      dup5\n        /* \"#utility.yul\":4526:4532   */\n      dup3\n        /* \"#utility.yul\":4515:4524   */\n      dup6\n        /* \"#utility.yul\":4511:4533   */\n      add\n        /* \"#utility.yul\":4490:4543   */\n      tag_157\n      jump\t// in\n    tag_249:\n        /* \"#utility.yul\":4480:4543   */\n      swap2\n      pop\n        /* \"#utility.yul\":4436:4553   */\n      pop\n        /* \"#utility.yul\":4231:4560   */\n      swap3\n      swap2\n      pop\n      pop\n      jump\t// out\n        /* \"#utility.yul\":4566:4684   */\n    tag_164:\n        /* \"#utility.yul\":4653:4677   */\n      tag_251\n        /* \"#utility.yul\":4671:4676   */\n      dup2\n        /* \"#utility.yul\":4653:4677   */\n      tag_152\n      jump\t// in\n    tag_251:\n        /* \"#utility.yul\":4648:4651   */\n      dup3\n        /* \"#utility.yul\":4641:4678   */\n      mstore\n        /* \"#utility.yul\":4566:4684   */\n      pop\n      pop\n      jump\t// out\n        /* \"#utility.yul\":4690:4912   */\n    tag_34:\n        /* \"#utility.yul\":4783:4787   */\n      0x00\n        /* \"#utility.yul\":4821:4823   */\n      0x20\n        /* \"#utility.yul\":4810:4819   */\n      dup3\n        /* \"#utility.yul\":4806:4824   */\n      add\n        /* \"#utility.yul\":4798:4824   */\n      swap1\n      pop\n        /* \"#utility.yul\":4834:4905   */\n      tag_253\n        /* \"#utility.yul\":4902:4903   */\n      0x00\n        /* \"#utility.yul\":4891:4900   */\n      dup4\n        /* \"#utility.yul\":4887:4904   */\n      add\n        /* \"#utility.yul\":4878:4884   */\n      dup5\n        /* \"#utility.yul\":4834:4905   */\n      tag_164\n      jump\t// in\n    tag_253:\n        /* \"#utility.yul\":4690:4912   */\n      swap3\n      swap2\n      pop\n      pop\n      jump\t// out\n        /* \"#utility.yul\":4918:5247   */\n    tag_38:\n        /* \"#utility.yul\":4977:4983   */\n      0x00\n        /* \"#utility.yul\":5026:5028   */\n      0x20\n        /* \"#utility.yul\":5014:5023   */\n      dup3\n        /* \"#utility.yul\":5005:5012   */\n      dup5\n        /* \"#utility.yul\":5001:5024   */\n      sub\n        /* \"#utility.yul\":4997:5029   */\n      slt\n        /* \"#utility.yul\":4994:5113   */\n      iszero\n      tag_255\n      jumpi\n        /* \"#utility.yul\":5032:5111   */\n      tag_256\n      tag_149\n      jump\t// in\n    tag_256:\n        /* \"#utility.yul\":4994:5113   */\n    tag_255:\n        /* \"#utility.yul\":5152:5153   */\n      0x00\n        /* \"#utility.yul\":5177:5230   */\n      tag_257\n        /* \"#utility.yul\":5222:5229   */\n      dup5\n        /* \"#utility.yul\":5213:5219   */\n      dup3\n        /* \"#utility.yul\":5202:5211   */\n      dup6\n        /* \"#utility.yul\":5198:5220   */\n      add\n        /* \"#utility.yul\":5177:5230   */\n      tag_154\n      jump\t// in\n    tag_257:\n        /* \"#utility.yul\":5167:5230   */\n      swap2\n      pop\n        /* \"#utility.yul\":5123:5240   */\n      pop\n        /* \"#utility.yul\":4918:5247   */\n      swap3\n      swap2\n      pop\n      pop\n      jump\t// out\n        /* \"#utility.yul\":5253:5371   */\n    tag_165:\n        /* \"#utility.yul\":5340:5364   */\n      tag_259\n        /* \"#utility.yul\":5358:5363   */\n      dup2\n        /* \"#utility.yul\":5340:5364   */\n      tag_155\n      jump\t// in\n    tag_259:\n        /* \"#utility.yul\":5335:5338   */\n      dup3\n        /* \"#utility.yul\":5328:5365   */\n      mstore\n        /* \"#utility.yul\":5253:5371   */\n      pop\n      pop\n      jump\t// out\n        /* \"#utility.yul\":5377:5599   */\n    tag_41:\n        /* \"#utility.yul\":5470:5474   */\n      0x00\n        /* \"#utility.yul\":5508:5510   */\n      0x20\n        /* \"#utility.yul\":5497:5506   */\n      dup3\n        /* \"#utility.yul\":5493:5511   */\n      add\n        /* \"#utility.yul\":5485:5511   */\n      swap1\n      pop\n        /* \"#utility.yul\":5521:5592   */\n      tag_261\n        /* \"#utility.yul\":5589:5590   */\n      0x00\n        /* \"#utility.yul\":5578:5587   */\n      dup4\n        /* \"#utility.yul\":5574:5591   */\n      add\n        /* \"#utility.yul\":5565:5571   */\n      dup5\n        /* \"#utility.yul\":5521:5592   */\n      tag_165\n      jump\t// in\n    tag_261:\n        /* \"#utility.yul\":5377:5599   */\n      swap3\n      swap2\n      pop\n      pop\n      jump\t// out\n        /* \"#utility.yul\":5605:6079   */\n    tag_52:\n        /* \"#utility.yul\":5673:5679   */\n      0x00\n        /* \"#utility.yul\":5681:5687   */\n      dup1\n        /* \"#utility.yul\":5730:5732   */\n      0x40\n        /* \"#utility.yul\":5718:5727   */\n      dup4\n        /* \"#utility.yul\":5709:5716   */\n      dup6\n        /* \"#utility.yul\":5705:5728   */\n      sub\n        /* \"#utility.yul\":5701:5733   */\n      slt\n        /* \"#utility.yul\":5698:5817   */\n      iszero\n      tag_263\n      jumpi\n        /* \"#utility.yul\":5736:5815   */\n      tag_264\n      tag_149\n      jump\t// in\n    tag_264:\n        /* \"#utility.yul\":5698:5817   */\n    tag_263:\n        /* \"#utility.yul\":5856:5857   */\n      0x00\n        /* \"#utility.yul\":5881:5934   */\n      tag_265\n        /* \"#utility.yul\":5926:5933   */\n      dup6\n        /* \"#utility.yul\":5917:5923   */\n      dup3\n        /* \"#utility.yul\":5906:5915   */\n      dup7\n        /* \"#utility.yul\":5902:5924   */\n      add\n        /* \"#utility.yul\":5881:5934   */\n      tag_154\n      jump\t// in\n    tag_265:\n        /* \"#utility.yul\":5871:5934   */\n      swap3\n      pop\n        /* \"#utility.yul\":5827:5944   */\n      pop\n        /* \"#utility.yul\":5983:5985   */\n      0x20\n        /* \"#utility.yul\":6009:6062   */\n      tag_266\n        /* \"#utility.yul\":6054:6061   */\n      dup6\n        /* \"#utility.yul\":6045:6051   */\n      dup3\n        /* \"#utility.yul\":6034:6043   */\n      dup7\n        /* \"#utility.yul\":6030:6052   */\n      add\n        /* \"#utility.yul\":6009:6062   */\n      tag_157\n      jump\t// in\n    tag_266:\n        /* \"#utility.yul\":5999:6062   */\n      swap2\n      pop\n        /* \"#utility.yul\":5954:6072   */\n      pop\n        /* \"#utility.yul\":5605:6079   */\n      swap3\n      pop\n      swap3\n      swap1\n      pop\n      jump\t// out\n        /* \"#utility.yul\":6085:6175   */\n    tag_166:\n        /* \"#utility.yul\":6119:6126   */\n      0x00\n        /* \"#utility.yul\":6162:6167   */\n      dup2\n        /* \"#utility.yul\":6155:6168   */\n      iszero\n        /* \"#utility.yul\":6148:6169   */\n      iszero\n        /* \"#utility.yul\":6137:6169   */\n      swap1\n      pop\n        /* \"#utility.yul\":6085:6175   */\n      swap2\n      swap1\n      pop\n      jump\t// out\n        /* \"#utility.yul\":6181:6290   */\n    tag_167:\n        /* \"#utility.yul\":6262:6283   */\n      tag_269\n        /* \"#utility.yul\":6277:6282   */\n      dup2\n        /* \"#utility.yul\":6262:6283   */\n      tag_166\n      jump\t// in\n    tag_269:\n        /* \"#utility.yul\":6257:6260   */\n      dup3\n        /* \"#utility.yul\":6250:6284   */\n      mstore\n        /* \"#utility.yul\":6181:6290   */\n      pop\n      pop\n      jump\t// out\n        /* \"#utility.yul\":6296:6506   */\n    tag_55:\n        /* \"#utility.yul\":6383:6387   */\n      0x00\n        /* \"#utility.yul\":6421:6423   */\n      0x20\n        /* \"#utility.yul\":6410:6419   */\n      dup3\n        /* \"#utility.yul\":6406:6424   */\n      add\n        /* \"#utility.yul\":6398:6424   */\n      swap1\n      pop\n        /* \"#utility.yul\":6434:6499   */\n      tag_271\n        /* \"#utility.yul\":6496:6497   */\n      0x00\n        /* \"#utility.yul\":6485:6494   */\n      dup4\n        /* \"#utility.yul\":6481:6498   */\n      add\n        /* \"#utility.yul\":6472:6478   */\n      dup5\n        /* \"#utility.yul\":6434:6499   */\n      tag_167\n      jump\t// in\n    tag_271:\n        /* \"#utility.yul\":6296:6506   */\n      swap3\n      swap2\n      pop\n      pop\n      jump\t// out\n        /* \"#utility.yul\":6512:6611   */\n    tag_168:\n        /* \"#utility.yul\":6564:6570   */\n      0x00\n        /* \"#utility.yul\":6598:6603   */\n      dup2\n        /* \"#utility.yul\":6592:6604   */\n      mload\n        /* \"#utility.yul\":6582:6604   */\n      swap1\n      pop\n        /* \"#utility.yul\":6512:6611   */\n      swap2\n      swap1\n      pop\n      jump\t// out\n        /* \"#utility.yul\":6617:6786   */\n    tag_169:\n        /* \"#utility.yul\":6701:6712   */\n      0x00\n        /* \"#utility.yul\":6735:6741   */\n      dup3\n        /* \"#utility.yul\":6730:6733   */\n      dup3\n        /* \"#utility.yul\":6723:6742   */\n      mstore\n        /* \"#utility.yul\":6775:6779   */\n      0x20\n        /* \"#utility.yul\":6770:6773   */\n      dup3\n        /* \"#utility.yul\":6766:6780   */\n      add\n        /* \"#utility.yul\":6751:6780   */\n      swap1\n      pop\n        /* \"#utility.yul\":6617:6786   */\n      swap3\n      swap2\n      pop\n      pop\n      jump\t// out\n        /* \"#utility.yul\":6792:7099   */\n    tag_170:\n        /* \"#utility.yul\":6860:6861   */\n      0x00\n        /* \"#utility.yul\":6870:6983   */\n    tag_275:\n        /* \"#utility.yul\":6884:6890   */\n      dup4\n        /* \"#utility.yul\":6881:6882   */\n      dup2\n        /* \"#utility.yul\":6878:6891   */\n      lt\n        /* \"#utility.yul\":6870:6983   */\n      iszero\n      tag_277\n      jumpi\n        /* \"#utility.yul\":6969:6970   */\n      dup1\n        /* \"#utility.yul\":6964:6967   */\n      dup3\n        /* \"#utility.yul\":6960:6971   */\n      add\n        /* \"#utility.yul\":6954:6972   */\n      mload\n        /* \"#utility.yul\":6950:6951   */\n      dup2\n        /* \"#utility.yul\":6945:6948   */\n      dup5\n        /* \"#utility.yul\":6941:6952   */\n      add\n        /* \"#utility.yul\":6934:6973   */\n      mstore\n        /* \"#utility.yul\":6906:6908   */\n      0x20\n        /* \"#utility.yul\":6903:6904   */\n      dup2\n        /* \"#utility.yul\":6899:6909   */\n      add\n        /* \"#utility.yul\":6894:6909   */\n      swap1\n      pop\n        /* \"#utility.yul\":6870:6983   */\n      jump(tag_275)\n    tag_277:\n        /* \"#utility.yul\":7001:7007   */\n      dup4\n        /* \"#utility.yul\":6998:6999   */\n      dup2\n        /* \"#utility.yul\":6995:7008   */\n      gt\n        /* \"#utility.yul\":6992:7093   */\n      iszero\n      tag_278\n      jumpi\n        /* \"#utility.yul\":7081:7082   */\n      0x00\n        /* \"#utility.yul\":7072:7078   */\n      dup5\n        /* \"#utility.yul\":7067:7070   */\n      dup5\n        /* \"#utility.yul\":7063:7079   */\n      add\n        /* \"#utility.yul\":7056:7083   */\n      mstore\n        /* \"#utility.yul\":6992:7093   */\n    tag_278:\n        /* \"#utility.yul\":6841:7099   */\n      pop\n        /* \"#utility.yul\":6792:7099   */\n      pop\n      pop\n      pop\n      jump\t// out\n        /* \"#utility.yul\":7105:7207   */\n    tag_171:\n        /* \"#utility.yul\":7146:7152   */\n      0x00\n        /* \"#utility.yul\":7197:7199   */\n      0x1f\n        /* \"#utility.yul\":7193:7200   */\n      not\n        /* \"#utility.yul\":7188:7190   */\n      0x1f\n        /* \"#utility.yul\":7181:7186   */\n      dup4\n        /* \"#utility.yul\":7177:7191   */\n      add\n        /* \"#utility.yul\":7173:7201   */\n      and\n        /* \"#utility.yul\":7163:7201   */\n      swap1\n      pop\n        /* \"#utility.yul\":7105:7207   */\n      swap2\n      swap1\n      pop\n      jump\t// out\n        /* \"#utility.yul\":7213:7577   */\n    tag_172:\n        /* \"#utility.yul\":7301:7304   */\n      0x00\n        /* \"#utility.yul\":7329:7368   */\n      tag_281\n        /* \"#utility.yul\":7362:7367   */\n      dup3\n        /* \"#utility.yul\":7329:7368   */\n      tag_168\n      jump\t// in\n    tag_281:\n        /* \"#utility.yul\":7384:7455   */\n      tag_282\n        /* \"#utility.yul\":7448:7454   */\n      dup2\n        /* \"#utility.yul\":7443:7446   */\n      dup6\n        /* \"#utility.yul\":7384:7455   */\n      tag_169\n      jump\t// in\n    tag_282:\n        /* \"#utility.yul\":7377:7455   */\n      swap4\n      pop\n        /* \"#utility.yul\":7464:7516   */\n      tag_283\n        /* \"#utility.yul\":7509:7515   */\n      dup2\n        /* \"#utility.yul\":7504:7507   */\n      dup6\n        /* \"#utility.yul\":7497:7501   */\n      0x20\n        /* \"#utility.yul\":7490:7495   */\n      dup7\n        /* \"#utility.yul\":7486:7502   */\n      add\n        /* \"#utility.yul\":7464:7516   */\n      tag_170\n      jump\t// in\n    tag_283:\n        /* \"#utility.yul\":7541:7570   */\n      tag_284\n        /* \"#utility.yul\":7563:7569   */\n      dup2\n        /* \"#utility.yul\":7541:7570   */\n      tag_171\n      jump\t// in\n    tag_284:\n        /* \"#utility.yul\":7536:7539   */\n      dup5\n        /* \"#utility.yul\":7532:7571   */\n      add\n        /* \"#utility.yul\":7525:7571   */\n      swap2\n      pop\n        /* \"#utility.yul\":7305:7577   */\n      pop\n        /* \"#utility.yul\":7213:7577   */\n      swap3\n      swap2\n      pop\n      pop\n      jump\t// out\n        /* \"#utility.yul\":7583:7896   */\n    tag_64:\n        /* \"#utility.yul\":7696:7700   */\n      0x00\n        /* \"#utility.yul\":7734:7736   */\n      0x20\n        /* \"#utility.yul\":7723:7732   */\n      dup3\n        /* \"#utility.yul\":7719:7737   */\n      add\n        /* \"#utility.yul\":7711:7737   */\n      swap1\n      pop\n        /* \"#utility.yul\":7783:7792   */\n      dup2\n        /* \"#utility.yul\":7777:7781   */\n      dup2\n        /* \"#utility.yul\":7773:7793   */\n      sub\n        /* \"#utility.yul\":7769:7770   */\n      0x00\n        /* \"#utility.yul\":7758:7767   */\n      dup4\n        /* \"#utility.yul\":7754:7771   */\n      add\n        /* \"#utility.yul\":7747:7794   */\n      mstore\n        /* \"#utility.yul\":7811:7889   */\n      tag_286\n        /* \"#utility.yul\":7884:7888   */\n      dup2\n        /* \"#utility.yul\":7875:7881   */\n      dup5\n        /* \"#utility.yul\":7811:7889   */\n      tag_172\n      jump\t// in\n    tag_286:\n        /* \"#utility.yul\":7803:7889   */\n      swap1\n      pop\n        /* \"#utility.yul\":7583:7896   */\n      swap3\n      swap2\n      pop\n      pop\n      jump\t// out\n        /* \"#utility.yul\":7902:8132   */\n    tag_173:\n        /* \"#utility.yul\":8042:8076   */\n      0x4552433732313a2043616e277420417574686f72697a65642074686520747261\n        /* \"#utility.yul\":8038:8039   */\n      0x00\n        /* \"#utility.yul\":8030:8036   */\n      dup3\n        /* \"#utility.yul\":8026:8040   */\n      add\n        /* \"#utility.yul\":8019:8077   */\n      mstore\n        /* \"#utility.yul\":8111:8124   */\n      0x6e7366657220746f6b656e000000000000000000000000000000000000000000\n        /* \"#utility.yul\":8106:8108   */\n      0x20\n        /* \"#utility.yul\":8098:8104   */\n      dup3\n        /* \"#utility.yul\":8094:8109   */\n      add\n        /* \"#utility.yul\":8087:8125   */\n      mstore\n        /* \"#utility.yul\":7902:8132   */\n      pop\n      jump\t// out\n        /* \"#utility.yul\":8138:8504   */\n    tag_174:\n        /* \"#utility.yul\":8280:8283   */\n      0x00\n        /* \"#utility.yul\":8301:8368   */\n      tag_289\n        /* \"#utility.yul\":8365:8367   */\n      0x2b\n        /* \"#utility.yul\":8360:8363   */\n      dup4\n        /* \"#utility.yul\":8301:8368   */\n      tag_169\n      jump\t// in\n    tag_289:\n        /* \"#utility.yul\":8294:8368   */\n      swap2\n      pop\n        /* \"#utility.yul\":8377:8470   */\n      tag_290\n        /* \"#utility.yul\":8466:8469   */\n      dup3\n        /* \"#utility.yul\":8377:8470   */\n      tag_173\n      jump\t// in\n    tag_290:\n        /* \"#utility.yul\":8495:8497   */\n      0x40\n        /* \"#utility.yul\":8490:8493   */\n      dup3\n        /* \"#utility.yul\":8486:8498   */\n      add\n        /* \"#utility.yul\":8479:8498   */\n      swap1\n      pop\n        /* \"#utility.yul\":8138:8504   */\n      swap2\n      swap1\n      pop\n      jump\t// out\n        /* \"#utility.yul\":8510:8929   */\n    tag_73:\n        /* \"#utility.yul\":8676:8680   */\n      0x00\n        /* \"#utility.yul\":8714:8716   */\n      0x20\n        /* \"#utility.yul\":8703:8712   */\n      dup3\n        /* \"#utility.yul\":8699:8717   */\n      add\n        /* \"#utility.yul\":8691:8717   */\n      swap1\n      pop\n        /* \"#utility.yul\":8763:8772   */\n      dup2\n        /* \"#utility.yul\":8757:8761   */\n      dup2\n        /* \"#utility.yul\":8753:8773   */\n      sub\n        /* \"#utility.yul\":8749:8750   */\n      0x00\n        /* \"#utility.yul\":8738:8747   */\n      dup4\n        /* \"#utility.yul\":8734:8751   */\n      add\n        /* \"#utility.yul\":8727:8774   */\n      mstore\n        /* \"#utility.yul\":8791:8922   */\n      tag_292\n        /* \"#utility.yul\":8917:8921   */\n      dup2\n        /* \"#utility.yul\":8791:8922   */\n      tag_174\n      jump\t// in\n    tag_292:\n        /* \"#utility.yul\":8783:8922   */\n      swap1\n      pop\n        /* \"#utility.yul\":8510:8929   */\n      swap2\n      swap1\n      pop\n      jump\t// out\n        /* \"#utility.yul\":8935:9115   */\n    tag_175:\n        /* \"#utility.yul\":8983:9060   */\n      0x4e487b7100000000000000000000000000000000000000000000000000000000\n        /* \"#utility.yul\":8980:8981   */\n      0x00\n        /* \"#utility.yul\":8973:9061   */\n      mstore\n        /* \"#utility.yul\":9080:9084   */\n      0x11\n        /* \"#utility.yul\":9077:9078   */\n      0x04\n        /* \"#utility.yul\":9070:9085   */\n      mstore\n        /* \"#utility.yul\":9104:9108   */\n      0x24\n        /* \"#utility.yul\":9101:9102   */\n      0x00\n        /* \"#utility.yul\":9094:9109   */\n      revert\n        /* \"#utility.yul\":9121:9312   */\n    tag_77:\n        /* \"#utility.yul\":9161:9165   */\n      0x00\n        /* \"#utility.yul\":9181:9201   */\n      tag_295\n        /* \"#utility.yul\":9199:9200   */\n      dup3\n        /* \"#utility.yul\":9181:9201   */\n      tag_155\n      jump\t// in\n    tag_295:\n        /* \"#utility.yul\":9176:9201   */\n      swap2\n      pop\n        /* \"#utility.yul\":9215:9235   */\n      tag_296\n        /* \"#utility.yul\":9233:9234   */\n      dup4\n        /* \"#utility.yul\":9215:9235   */\n      tag_155\n      jump\t// in\n    tag_296:\n        /* \"#utility.yul\":9210:9235   */\n      swap3\n      pop\n        /* \"#utility.yul\":9254:9255   */\n      dup3\n        /* \"#utility.yul\":9251:9252   */\n      dup3\n        /* \"#utility.yul\":9248:9256   */\n      lt\n        /* \"#utility.yul\":9245:9279   */\n      iszero\n      tag_297\n      jumpi\n        /* \"#utility.yul\":9259:9277   */\n      tag_298\n      tag_175\n      jump\t// in\n    tag_298:\n        /* \"#utility.yul\":9245:9279   */\n    tag_297:\n        /* \"#utility.yul\":9304:9305   */\n      dup3\n        /* \"#utility.yul\":9301:9302   */\n      dup3\n        /* \"#utility.yul\":9297:9306   */\n      sub\n        /* \"#utility.yul\":9289:9306   */\n      swap1\n      pop\n        /* \"#utility.yul\":9121:9312   */\n      swap3\n      swap2\n      pop\n      pop\n      jump\t// out\n        /* \"#utility.yul\":9318:9623   */\n    tag_79:\n        /* \"#utility.yul\":9358:9361   */\n      0x00\n        /* \"#utility.yul\":9377:9397   */\n      tag_300\n        /* \"#utility.yul\":9395:9396   */\n      dup3\n        /* \"#utility.yul\":9377:9397   */\n      tag_155\n      jump\t// in\n    tag_300:\n        /* \"#utility.yul\":9372:9397   */\n      swap2\n      pop\n        /* \"#utility.yul\":9411:9431   */\n      tag_301\n        /* \"#utility.yul\":9429:9430   */\n      dup4\n        /* \"#utility.yul\":9411:9431   */\n      tag_155\n      jump\t// in\n    tag_301:\n        /* \"#utility.yul\":9406:9431   */\n      swap3\n      pop\n        /* \"#utility.yul\":9565:9566   */\n      dup3\n        /* \"#utility.yul\":9497:9563   */\n      0xffffffffffffffffffffffffffffffffffffffffffffffffffffffffffffffff\n        /* \"#utility.yul\":9493:9567   */\n      sub\n        /* \"#utility.yul\":9490:9491   */\n      dup3\n        /* \"#utility.yul\":9487:9568   */\n      gt\n        /* \"#utility.yul\":9484:9591   */\n      iszero\n      tag_302\n      jumpi\n        /* \"#utility.yul\":9571:9589   */\n      tag_303\n      tag_175\n      jump\t// in\n    tag_303:\n        /* \"#utility.yul\":9484:9591   */\n    tag_302:\n        /* \"#utility.yul\":9615:9616   */\n      dup3\n        /* \"#utility.yul\":9612:9613   */\n      dup3\n        /* \"#utility.yul\":9608:9617   */\n      add\n        /* \"#utility.yul\":9601:9617   */\n      swap1\n      pop\n        /* \"#utility.yul\":9318:9623   */\n      swap3\n      swap2\n      pop\n      pop\n      jump\t// out\n        /* \"#utility.yul\":9629:9811   */\n    tag_176:\n        /* \"#utility.yul\":9769:9803   */\n      0x4f776e61626c653a2063616c6c6572206973206e6f7420746865206f776e6572\n        /* \"#utility.yul\":9765:9766   */\n      0x00\n        /* \"#utility.yul\":9757:9763   */\n      dup3\n        /* \"#utility.yul\":9753:9767   */\n      add\n        /* \"#utility.yul\":9746:9804   */\n      mstore\n        /* \"#utility.yul\":9629:9811   */\n      pop\n      jump\t// out\n        /* \"#utility.yul\":9817:10183   */\n    tag_177:\n        /* \"#utility.yul\":9959:9962   */\n      0x00\n        /* \"#utility.yul\":9980:10047   */\n      tag_306\n        /* \"#utility.yul\":10044:10046   */\n      0x20\n        /* \"#utility.yul\":10039:10042   */\n      dup4\n        /* \"#utility.yul\":9980:10047   */\n      tag_169\n      jump\t// in\n    tag_306:\n        /* \"#utility.yul\":9973:10047   */\n      swap2\n      pop\n        /* \"#utility.yul\":10056:10149   */\n      tag_307\n        /* \"#utility.yul\":10145:10148   */\n      dup3\n        /* \"#utility.yul\":10056:10149   */\n      tag_176\n      jump\t// in\n    tag_307:\n        /* \"#utility.yul\":10174:10176   */\n      0x20\n        /* \"#utility.yul\":10169:10172   */\n      dup3\n        /* \"#utility.yul\":10165:10177   */\n      add\n        /* \"#utility.yul\":10158:10177   */\n      swap1\n      pop\n        /* \"#utility.yul\":9817:10183   */\n      swap2\n      swap1\n      pop\n      jump\t// out\n        /* \"#utility.yul\":10189:10608   */\n    tag_91:\n        /* \"#utility.yul\":10355:10359   */\n      0x00\n        /* \"#utility.yul\":10393:10395   */\n      0x20\n        /* \"#utility.yul\":10382:10391   */\n      dup3\n        /* \"#utility.yul\":10378:10396   */\n      add\n        /* \"#utility.yul\":10370:10396   */\n      swap1\n      pop\n        /* \"#utility.yul\":10442:10451   */\n      dup2\n        /* \"#utility.yul\":10436:10440   */\n      dup2\n        /* \"#utility.yul\":10432:10452   */\n      sub\n        /* \"#utility.yul\":10428:10429   */\n      0x00\n        /* \"#utility.yul\":10417:10426   */\n      dup4\n        /* \"#utility.yul\":10413:10430   */\n      add\n        /* \"#utility.yul\":10406:10453   */\n      mstore\n        /* \"#utility.yul\":10470:10601   */\n      tag_309\n        /* \"#utility.yul\":10596:10600   */\n      dup2\n        /* \"#utility.yul\":10470:10601   */\n      tag_177\n      jump\t// in\n    tag_309:\n        /* \"#utility.yul\":10462:10601   */\n      swap1\n      pop\n        /* \"#utility.yul\":10189:10608   */\n      swap2\n      swap1\n      pop\n      jump\t// out\n        /* \"#utility.yul\":10614:10794   */\n    tag_178:\n        /* \"#utility.yul\":10662:10739   */\n      0x4e487b7100000000000000000000000000000000000000000000000000000000\n        /* \"#utility.yul\":10659:10660   */\n      0x00\n        /* \"#utility.yul\":10652:10740   */\n      mstore\n        /* \"#utility.yul\":10759:10763   */\n      0x22\n        /* \"#utility.yul\":10756:10757   */\n      0x04\n        /* \"#utility.yul\":10749:10764   */\n      mstore\n        /* \"#utility.yul\":10783:10787   */\n      0x24\n        /* \"#utility.yul\":10780:10781   */\n      0x00\n        /* \"#utility.yul\":10773:10788   */\n      revert\n        /* \"#utility.yul\":10800:11120   */\n    tag_179:\n        /* \"#utility.yul\":10844:10850   */\n      0x00\n        /* \"#utility.yul\":10881:10882   */\n      0x02\n        /* \"#utility.yul\":10875:10879   */\n      dup3\n        /* \"#utility.yul\":10871:10883   */\n      div\n        /* \"#utility.yul\":10861:10883   */\n      swap1\n      pop\n        /* \"#utility.yul\":10928:10929   */\n      0x01\n        /* \"#utility.yul\":10922:10926   */\n      dup3\n        /* \"#utility.yul\":10918:10930   */\n      and\n        /* \"#utility.yul\":10949:10967   */\n      dup1\n        /* \"#utility.yul\":10939:11020   */\n      tag_312\n      jumpi\n        /* \"#utility.yul\":11005:11009   */\n      0x7f\n        /* \"#utility.yul\":10997:11003   */\n      dup3\n        /* \"#utility.yul\":10993:11010   */\n      and\n        /* \"#utility.yul\":10983:11010   */\n      swap2\n      pop\n        /* \"#utility.yul\":10939:11020   */\n    tag_312:\n        /* \"#utility.yul\":11067:11069   */\n      0x20\n        /* \"#utility.yul\":11059:11065   */\n      dup3\n        /* \"#utility.yul\":11056:11070   */\n      lt\n        /* \"#utility.yul\":11036:11054   */\n      dup2\n        /* \"#utility.yul\":11033:11071   */\n      sub\n        /* \"#utility.yul\":11030:11114   */\n      tag_313\n      jumpi\n        /* \"#utility.yul\":11086:11104   */\n      tag_314\n      tag_178\n      jump\t// in\n    tag_314:\n        /* \"#utility.yul\":11030:11114   */\n    tag_313:\n        /* \"#utility.yul\":10851:11120   */\n      pop\n        /* \"#utility.yul\":10800:11120   */\n      swap2\n      swap1\n      pop\n      jump\t// out\n        /* \"#utility.yul\":11126:11274   */\n    tag_180:\n        /* \"#utility.yul\":11228:11239   */\n      0x00\n        /* \"#utility.yul\":11265:11268   */\n      dup2\n        /* \"#utility.yul\":11250:11268   */\n      swap1\n      pop\n        /* \"#utility.yul\":11126:11274   */\n      swap3\n      swap2\n      pop\n      pop\n      jump\t// out\n        /* \"#utility.yul\":11280:11421   */\n    tag_181:\n        /* \"#utility.yul\":11329:11333   */\n      0x00\n        /* \"#utility.yul\":11352:11355   */\n      dup2\n        /* \"#utility.yul\":11344:11355   */\n      swap1\n      pop\n        /* \"#utility.yul\":11375:11378   */\n      dup2\n        /* \"#utility.yul\":11372:11373   */\n      0x00\n        /* \"#utility.yul\":11365:11379   */\n      mstore\n        /* \"#utility.yul\":11409:11413   */\n      0x20\n        /* \"#utility.yul\":11406:11407   */\n      0x00\n        /* \"#utility.yul\":11396:11414   */\n      keccak256\n        /* \"#utility.yul\":11388:11414   */\n      swap1\n      pop\n        /* \"#utility.yul\":11280:11421   */\n      swap2\n      swap1\n      pop\n      jump\t// out\n        /* \"#utility.yul\":11451:12296   */\n    tag_182:\n        /* \"#utility.yul\":11554:11557   */\n      0x00\n        /* \"#utility.yul\":11591:11596   */\n      dup2\n        /* \"#utility.yul\":11585:11597   */\n      sload\n        /* \"#utility.yul\":11620:11656   */\n      tag_318\n        /* \"#utility.yul\":11646:11655   */\n      dup2\n        /* \"#utility.yul\":11620:11656   */\n      tag_179\n      jump\t// in\n    tag_318:\n        /* \"#utility.yul\":11672:11761   */\n      tag_319\n        /* \"#utility.yul\":11754:11760   */\n      dup2\n        /* \"#utility.yul\":11749:11752   */\n      dup7\n        /* \"#utility.yul\":11672:11761   */\n      tag_180\n      jump\t// in\n    tag_319:\n        /* \"#utility.yul\":11665:11761   */\n      swap5\n      pop\n        /* \"#utility.yul\":11792:11793   */\n      0x01\n        /* \"#utility.yul\":11781:11790   */\n      dup3\n        /* \"#utility.yul\":11777:11794   */\n      and\n        /* \"#utility.yul\":11808:11809   */\n      0x00\n        /* \"#utility.yul\":11803:11940   */\n      dup2\n      eq\n      tag_321\n      jumpi\n        /* \"#utility.yul\":11954:11955   */\n      0x01\n        /* \"#utility.yul\":11949:12290   */\n      dup2\n      eq\n      tag_322\n      jumpi\n        /* \"#utility.yul\":11770:12290   */\n      jump(tag_320)\n        /* \"#utility.yul\":11803:11940   */\n    tag_321:\n        /* \"#utility.yul\":11887:11891   */\n      0xff\n        /* \"#utility.yul\":11883:11892   */\n      not\n        /* \"#utility.yul\":11872:11881   */\n      dup4\n        /* \"#utility.yul\":11868:11893   */\n      and\n        /* \"#utility.yul\":11863:11866   */\n      dup7\n        /* \"#utility.yul\":11856:11894   */\n      mstore\n        /* \"#utility.yul\":11923:11929   */\n      dup2\n        /* \"#utility.yul\":11918:11921   */\n      dup7\n        /* \"#utility.yul\":11914:11930   */\n      add\n        /* \"#utility.yul\":11907:11930   */\n      swap4\n      pop\n        /* \"#utility.yul\":11803:11940   */\n      jump(tag_320)\n        /* \"#utility.yul\":11949:12290   */\n    tag_322:\n        /* \"#utility.yul\":12016:12054   */\n      tag_323\n        /* \"#utility.yul\":12048:12053   */\n      dup6\n        /* \"#utility.yul\":12016:12054   */\n      tag_181\n      jump\t// in\n    tag_323:\n        /* \"#utility.yul\":12076:12077   */\n      0x00\n        /* \"#utility.yul\":12090:12244   */\n    tag_324:\n        /* \"#utility.yul\":12104:12110   */\n      dup4\n        /* \"#utility.yul\":12101:12102   */\n      dup2\n        /* \"#utility.yul\":12098:12111   */\n      lt\n        /* \"#utility.yul\":12090:12244   */\n      iszero\n      tag_326\n      jumpi\n        /* \"#utility.yul\":12178:12185   */\n      dup2\n        /* \"#utility.yul\":12172:12186   */\n      sload\n        /* \"#utility.yul\":12168:12169   */\n      dup2\n        /* \"#utility.yul\":12163:12166   */\n      dup10\n        /* \"#utility.yul\":12159:12170   */\n      add\n        /* \"#utility.yul\":12152:12187   */\n      mstore\n        /* \"#utility.yul\":12228:12229   */\n      0x01\n        /* \"#utility.yul\":12219:12226   */\n      dup3\n        /* \"#utility.yul\":12215:12230   */\n      add\n        /* \"#utility.yul\":12204:12230   */\n      swap2\n      pop\n        /* \"#utility.yul\":12126:12130   */\n      0x20\n        /* \"#utility.yul\":12123:12124   */\n      dup2\n        /* \"#utility.yul\":12119:12131   */\n      add\n        /* \"#utility.yul\":12114:12131   */\n      swap1\n      pop\n        /* \"#utility.yul\":12090:12244   */\n      jump(tag_324)\n    tag_326:\n        /* \"#utility.yul\":12273:12279   */\n      dup4\n        /* \"#utility.yul\":12268:12271   */\n      dup9\n        /* \"#utility.yul\":12264:12280   */\n      add\n        /* \"#utility.yul\":12257:12280   */\n      swap6\n      pop\n        /* \"#utility.yul\":11956:12290   */\n      pop\n      pop\n        /* \"#utility.yul\":11770:12290   */\n    tag_320:\n      pop\n        /* \"#utility.yul\":11558:12296   */\n      pop\n      pop\n        /* \"#utility.yul\":11451:12296   */\n      swap3\n      swap2\n      pop\n      pop\n      jump\t// out\n        /* \"#utility.yul\":12302:12381   */\n    tag_183:\n        /* \"#utility.yul\":12341:12348   */\n      0x00\n        /* \"#utility.yul\":12370:12375   */\n      dup2\n        /* \"#utility.yul\":12359:12375   */\n      swap1\n      pop\n        /* \"#utility.yul\":12302:12381   */\n      swap2\n      swap1\n      pop\n      jump\t// out\n        /* \"#utility.yul\":12387:12544   */\n    tag_184:\n        /* \"#utility.yul\":12492:12537   */\n      tag_329\n        /* \"#utility.yul\":12512:12536   */\n      tag_330\n        /* \"#utility.yul\":12530:12535   */\n      dup3\n        /* \"#utility.yul\":12512:12536   */\n      tag_155\n      jump\t// in\n    tag_330:\n        /* \"#utility.yul\":12492:12537   */\n      tag_183\n      jump\t// in\n    tag_329:\n        /* \"#utility.yul\":12487:12490   */\n      dup3\n        /* \"#utility.yul\":12480:12538   */\n      mstore\n        /* \"#utility.yul\":12387:12544   */\n      pop\n      pop\n      jump\t// out\n        /* \"#utility.yul\":12550:12960   */\n    tag_104:\n        /* \"#utility.yul\":12707:12710   */\n      0x00\n        /* \"#utility.yul\":12729:12821   */\n      tag_332\n        /* \"#utility.yul\":12817:12820   */\n      dup3\n        /* \"#utility.yul\":12808:12814   */\n      dup6\n        /* \"#utility.yul\":12729:12821   */\n      tag_182\n      jump\t// in\n    tag_332:\n        /* \"#utility.yul\":12722:12821   */\n      swap2\n      pop\n        /* \"#utility.yul\":12831:12906   */\n      tag_333\n        /* \"#utility.yul\":12902:12905   */\n      dup3\n        /* \"#utility.yul\":12893:12899   */\n      dup5\n        /* \"#utility.yul\":12831:12906   */\n      tag_184\n      jump\t// in\n    tag_333:\n        /* \"#utility.yul\":12931:12933   */\n      0x20\n        /* \"#utility.yul\":12926:12929   */\n      dup3\n        /* \"#utility.yul\":12922:12934   */\n      add\n        /* \"#utility.yul\":12915:12934   */\n      swap2\n      pop\n        /* \"#utility.yul\":12951:12954   */\n      dup2\n        /* \"#utility.yul\":12944:12954   */\n      swap1\n      pop\n        /* \"#utility.yul\":12550:12960   */\n      swap4\n      swap3\n      pop\n      pop\n      pop\n      jump\t// out\n        /* \"#utility.yul\":12966:13191   */\n    tag_185:\n        /* \"#utility.yul\":13106:13140   */\n      0x4f776e61626c653a206e6577206f776e657220697320746865207a65726f2061\n        /* \"#utility.yul\":13102:13103   */\n      0x00\n        /* \"#utility.yul\":13094:13100   */\n      dup3\n        /* \"#utility.yul\":13090:13104   */\n      add\n        /* \"#utility.yul\":13083:13141   */\n      mstore\n        /* \"#utility.yul\":13175:13183   */\n      0x6464726573730000000000000000000000000000000000000000000000000000\n        /* \"#utility.yul\":13170:13172   */\n      0x20\n        /* \"#utility.yul\":13162:13168   */\n      dup3\n        /* \"#utility.yul\":13158:13173   */\n      add\n        /* \"#utility.yul\":13151:13184   */\n      mstore\n        /* \"#utility.yul\":12966:13191   */\n      pop\n      jump\t// out\n        /* \"#utility.yul\":13197:13563   */\n    tag_186:\n        /* \"#utility.yul\":13339:13342   */\n      0x00\n        /* \"#utility.yul\":13360:13427   */\n      tag_336\n        /* \"#utility.yul\":13424:13426   */\n      0x26\n        /* \"#utility.yul\":13419:13422   */\n      dup4\n        /* \"#utility.yul\":13360:13427   */\n      tag_169\n      jump\t// in\n    tag_336:\n        /* \"#utility.yul\":13353:13427   */\n      swap2\n      pop\n        /* \"#utility.yul\":13436:13529   */\n      tag_337\n        /* \"#utility.yul\":13525:13528   */\n      dup3\n        /* \"#utility.yul\":13436:13529   */\n      tag_185\n      jump\t// in\n    tag_337:\n        /* \"#utility.yul\":13554:13556   */\n      0x40\n        /* \"#utility.yul\":13549:13552   */\n      dup3\n        /* \"#utility.yul\":13545:13557   */\n      add\n        /* \"#utility.yul\":13538:13557   */\n      swap1\n      pop\n        /* \"#utility.yul\":13197:13563   */\n      swap2\n      swap1\n      pop\n      jump\t// out\n        /* \"#utility.yul\":13569:13988   */\n    tag_113:\n        /* \"#utility.yul\":13735:13739   */\n      0x00\n        /* \"#utility.yul\":13773:13775   */\n      0x20\n        /* \"#utility.yul\":13762:13771   */\n      dup3\n        /* \"#utility.yul\":13758:13776   */\n      add\n        /* \"#utility.yul\":13750:13776   */\n      swap1\n      pop\n        /* \"#utility.yul\":13822:13831   */\n      dup2\n        /* \"#utility.yul\":13816:13820   */\n      dup2\n        /* \"#utility.yul\":13812:13832   */\n      sub\n        /* \"#utility.yul\":13808:13809   */\n      0x00\n        /* \"#utility.yul\":13797:13806   */\n      dup4\n        /* \"#utility.yul\":13793:13810   */\n      add\n        /* \"#utility.yul\":13786:13833   */\n      mstore\n        /* \"#utility.yul\":13850:13981   */\n      tag_339\n        /* \"#utility.yul\":13976:13980   */\n      dup2\n        /* \"#utility.yul\":13850:13981   */\n      tag_186\n      jump\t// in\n    tag_339:\n        /* \"#utility.yul\":13842:13981   */\n      swap1\n      pop\n        /* \"#utility.yul\":13569:13988   */\n      swap2\n      swap1\n      pop\n      jump\t// out\n        /* \"#utility.yul\":13994:14092   */\n    tag_187:\n        /* \"#utility.yul\":14045:14051   */\n      0x00\n        /* \"#utility.yul\":14079:14084   */\n      dup2\n        /* \"#utility.yul\":14073:14085   */\n      mload\n        /* \"#utility.yul\":14063:14085   */\n      swap1\n      pop\n        /* \"#utility.yul\":13994:14092   */\n      swap2\n      swap1\n      pop\n      jump\t// out\n        /* \"#utility.yul\":14098:14266   */\n    tag_188:\n        /* \"#utility.yul\":14181:14192   */\n      0x00\n        /* \"#utility.yul\":14215:14221   */\n      dup3\n        /* \"#utility.yul\":14210:14213   */\n      dup3\n        /* \"#utility.yul\":14203:14222   */\n      mstore\n        /* \"#utility.yul\":14255:14259   */\n      0x20\n        /* \"#utility.yul\":14250:14253   */\n      dup3\n        /* \"#utility.yul\":14246:14260   */\n      add\n        /* \"#utility.yul\":14231:14260   */\n      swap1\n      pop\n        /* \"#utility.yul\":14098:14266   */\n      swap3\n      swap2\n      pop\n      pop\n      jump\t// out\n        /* \"#utility.yul\":14272:14632   */\n    tag_189:\n        /* \"#utility.yul\":14358:14361   */\n      0x00\n        /* \"#utility.yul\":14386:14424   */\n      tag_343\n        /* \"#utility.yul\":14418:14423   */\n      dup3\n        /* \"#utility.yul\":14386:14424   */\n      tag_187\n      jump\t// in\n    tag_343:\n        /* \"#utility.yul\":14440:14510   */\n      tag_344\n        /* \"#utility.yul\":14503:14509   */\n      dup2\n        /* \"#utility.yul\":14498:14501   */\n      dup6\n        /* \"#utility.yul\":14440:14510   */\n      tag_188\n      jump\t// in\n    tag_344:\n        /* \"#utility.yul\":14433:14510   */\n      swap4\n      pop\n        /* \"#utility.yul\":14519:14571   */\n      tag_345\n        /* \"#utility.yul\":14564:14570   */\n      dup2\n        /* \"#utility.yul\":14559:14562   */\n      dup6\n        /* \"#utility.yul\":14552:14556   */\n      0x20\n        /* \"#utility.yul\":14545:14550   */\n      dup7\n        /* \"#utility.yul\":14541:14557   */\n      add\n        /* \"#utility.yul\":14519:14571   */\n      tag_170\n      jump\t// in\n    tag_345:\n        /* \"#utility.yul\":14596:14625   */\n      tag_346\n        /* \"#utility.yul\":14618:14624   */\n      dup2\n        /* \"#utility.yul\":14596:14625   */\n      tag_171\n      jump\t// in\n    tag_346:\n        /* \"#utility.yul\":14591:14594   */\n      dup5\n        /* \"#utility.yul\":14587:14626   */\n      add\n        /* \"#utility.yul\":14580:14626   */\n      swap2\n      pop\n        /* \"#utility.yul\":14362:14632   */\n      pop\n        /* \"#utility.yul\":14272:14632   */\n      swap3\n      swap2\n      pop\n      pop\n      jump\t// out\n        /* \"#utility.yul\":14638:15278   */\n    tag_126:\n        /* \"#utility.yul\":14833:14837   */\n      0x00\n        /* \"#utility.yul\":14871:14874   */\n      0x80\n        /* \"#utility.yul\":14860:14869   */\n      dup3\n        /* \"#utility.yul\":14856:14875   */\n      add\n        /* \"#utility.yul\":14848:14875   */\n      swap1\n      pop\n        /* \"#utility.yul\":14885:14956   */\n      tag_348\n        /* \"#utility.yul\":14953:14954   */\n      0x00\n        /* \"#utility.yul\":14942:14951   */\n      dup4\n        /* \"#utility.yul\":14938:14955   */\n      add\n        /* \"#utility.yul\":14929:14935   */\n      dup8\n        /* \"#utility.yul\":14885:14956   */\n      tag_164\n      jump\t// in\n    tag_348:\n        /* \"#utility.yul\":14966:15038   */\n      tag_349\n        /* \"#utility.yul\":15034:15036   */\n      0x20\n        /* \"#utility.yul\":15023:15032   */\n      dup4\n        /* \"#utility.yul\":15019:15037   */\n      add\n        /* \"#utility.yul\":15010:15016   */\n      dup7\n        /* \"#utility.yul\":14966:15038   */\n      tag_164\n      jump\t// in\n    tag_349:\n        /* \"#utility.yul\":15048:15120   */\n      tag_350\n        /* \"#utility.yul\":15116:15118   */\n      0x40\n        /* \"#utility.yul\":15105:15114   */\n      dup4\n        /* \"#utility.yul\":15101:15119   */\n      add\n        /* \"#utility.yul\":15092:15098   */\n      dup6\n        /* \"#utility.yul\":15048:15120   */\n      tag_165\n      jump\t// in\n    tag_350:\n        /* \"#utility.yul\":15167:15176   */\n      dup2\n        /* \"#utility.yul\":15161:15165   */\n      dup2\n        /* \"#utility.yul\":15157:15177   */\n      sub\n        /* \"#utility.yul\":15152:15154   */\n      0x60\n        /* \"#utility.yul\":15141:15150   */\n      dup4\n        /* \"#utility.yul\":15137:15155   */\n      add\n        /* \"#utility.yul\":15130:15178   */\n      mstore\n        /* \"#utility.yul\":15195:15271   */\n      tag_351\n        /* \"#utility.yul\":15266:15270   */\n      dup2\n        /* \"#utility.yul\":15257:15263   */\n      dup5\n        /* \"#utility.yul\":15195:15271   */\n      tag_189\n      jump\t// in\n    tag_351:\n        /* \"#utility.yul\":15187:15271   */\n      swap1\n      pop\n        /* \"#utility.yul\":14638:15278   */\n      swap6\n      swap5\n      pop\n      pop\n      pop\n      pop\n      pop\n      jump\t// out\n        /* \"#utility.yul\":15284:15404   */\n    tag_190:\n        /* \"#utility.yul\":15356:15379   */\n      tag_353\n        /* \"#utility.yul\":15373:15378   */\n      dup2\n        /* \"#utility.yul\":15356:15379   */\n      tag_162\n      jump\t// in\n    tag_353:\n        /* \"#utility.yul\":15349:15354   */\n      dup2\n        /* \"#utility.yul\":15346:15380   */\n      eq\n        /* \"#utility.yul\":15336:15398   */\n      tag_354\n      jumpi\n        /* \"#utility.yul\":15394:15395   */\n      0x00\n        /* \"#utility.yul\":15391:15392   */\n      dup1\n        /* \"#utility.yul\":15384:15396   */\n      revert\n        /* \"#utility.yul\":15336:15398   */\n    tag_354:\n        /* \"#utility.yul\":15284:15404   */\n      pop\n      jump\t// out\n        /* \"#utility.yul\":15410:15551   */\n    tag_191:\n        /* \"#utility.yul\":15466:15471   */\n      0x00\n        /* \"#utility.yul\":15497:15503   */\n      dup2\n        /* \"#utility.yul\":15491:15504   */\n      mload\n        /* \"#utility.yul\":15482:15504   */\n      swap1\n      pop\n        /* \"#utility.yul\":15513:15545   */\n      tag_356\n        /* \"#utility.yul\":15539:15544   */\n      dup2\n        /* \"#utility.yul\":15513:15545   */\n      tag_190\n      jump\t// in\n    tag_356:\n        /* \"#utility.yul\":15410:15551   */\n      swap3\n      swap2\n      pop\n      pop\n      jump\t// out\n        /* \"#utility.yul\":15557:15906   */\n    tag_130:\n        /* \"#utility.yul\":15626:15632   */\n      0x00\n        /* \"#utility.yul\":15675:15677   */\n      0x20\n        /* \"#utility.yul\":15663:15672   */\n      dup3\n        /* \"#utility.yul\":15654:15661   */\n      dup5\n        /* \"#utility.yul\":15650:15673   */\n      sub\n        /* \"#utility.yul\":15646:15678   */\n      slt\n        /* \"#utility.yul\":15643:15762   */\n      iszero\n      tag_358\n      jumpi\n        /* \"#utility.yul\":15681:15760   */\n      tag_359\n      tag_149\n      jump\t// in\n    tag_359:\n        /* \"#utility.yul\":15643:15762   */\n    tag_358:\n        /* \"#utility.yul\":15801:15802   */\n      0x00\n        /* \"#utility.yul\":15826:15889   */\n      tag_360\n        /* \"#utility.yul\":15881:15888   */\n      dup5\n        /* \"#utility.yul\":15872:15878   */\n      dup3\n        /* \"#utility.yul\":15861:15870   */\n      dup6\n        /* \"#utility.yul\":15857:15879   */\n      add\n        /* \"#utility.yul\":15826:15889   */\n      tag_191\n      jump\t// in\n    tag_360:\n        /* \"#utility.yul\":15816:15889   */\n      swap2\n      pop\n        /* \"#utility.yul\":15772:15899   */\n      pop\n        /* \"#utility.yul\":15557:15906   */\n      swap3\n      swap2\n      pop\n      pop\n      jump\t// out\n        /* \"#utility.yul\":15912:16137   */\n    tag_192:\n        /* \"#utility.yul\":16052:16086   */\n      0x4552433732313a207472616e736665722066726f6d20746865207a65726f2061\n        /* \"#utility.yul\":16048:16049   */\n      0x00\n        /* \"#utility.yul\":16040:16046   */\n      dup3\n        /* \"#utility.yul\":16036:16050   */\n      add\n        /* \"#utility.yul\":16029:16087   */\n      mstore\n        /* \"#utility.yul\":16121:16129   */\n      0x6464726573730000000000000000000000000000000000000000000000000000\n        /* \"#utility.yul\":16116:16118   */\n      0x20\n        /* \"#utility.yul\":16108:16114   */\n      dup3\n        /* \"#utility.yul\":16104:16119   */\n      add\n        /* \"#utility.yul\":16097:16130   */\n      mstore\n        /* \"#utility.yul\":15912:16137   */\n      pop\n      jump\t// out\n        /* \"#utility.yul\":16143:16509   */\n    tag_193:\n        /* \"#utility.yul\":16285:16288   */\n      0x00\n        /* \"#utility.yul\":16306:16373   */\n      tag_363\n        /* \"#utility.yul\":16370:16372   */\n      0x26\n        /* \"#utility.yul\":16365:16368   */\n      dup4\n        /* \"#utility.yul\":16306:16373   */\n      tag_169\n      jump\t// in\n    tag_363:\n        /* \"#utility.yul\":16299:16373   */\n      swap2\n      pop\n        /* \"#utility.yul\":16382:16475   */\n      tag_364\n        /* \"#utility.yul\":16471:16474   */\n      dup3\n        /* \"#utility.yul\":16382:16475   */\n      tag_192\n      jump\t// in\n    tag_364:\n        /* \"#utility.yul\":16500:16502   */\n      0x40\n        /* \"#utility.yul\":16495:16498   */\n      dup3\n        /* \"#utility.yul\":16491:16503   */\n      add\n        /* \"#utility.yul\":16484:16503   */\n      swap1\n      pop\n        /* \"#utility.yul\":16143:16509   */\n      swap2\n      swap1\n      pop\n      jump\t// out\n        /* \"#utility.yul\":16515:16934   */\n    tag_136:\n        /* \"#utility.yul\":16681:16685   */\n      0x00\n        /* \"#utility.yul\":16719:16721   */\n      0x20\n        /* \"#utility.yul\":16708:16717   */\n      dup3\n        /* \"#utility.yul\":16704:16722   */\n      add\n        /* \"#utility.yul\":16696:16722   */\n      swap1\n      pop\n        /* \"#utility.yul\":16768:16777   */\n      dup2\n        /* \"#utility.yul\":16762:16766   */\n      dup2\n        /* \"#utility.yul\":16758:16778   */\n      sub\n        /* \"#utility.yul\":16754:16755   */\n      0x00\n        /* \"#utility.yul\":16743:16752   */\n      dup4\n        /* \"#utility.yul\":16739:16756   */\n      add\n        /* \"#utility.yul\":16732:16779   */\n      mstore\n        /* \"#utility.yul\":16796:16927   */\n      tag_366\n        /* \"#utility.yul\":16922:16926   */\n      dup2\n        /* \"#utility.yul\":16796:16927   */\n      tag_193\n      jump\t// in\n    tag_366:\n        /* \"#utility.yul\":16788:16927   */\n      swap1\n      pop\n        /* \"#utility.yul\":16515:16934   */\n      swap2\n      swap1\n      pop\n      jump\t// out\n        /* \"#utility.yul\":16940:17163   */\n    tag_194:\n        /* \"#utility.yul\":17080:17114   */\n      0x4552433732313a207472616e7366657220746f20746865207a65726f20616464\n        /* \"#utility.yul\":17076:17077   */\n      0x00\n        /* \"#utility.yul\":17068:17074   */\n      dup3\n        /* \"#utility.yul\":17064:17078   */\n      add\n        /* \"#utility.yul\":17057:17115   */\n      mstore\n        /* \"#utility.yul\":17149:17155   */\n      0x7265737300000000000000000000000000000000000000000000000000000000\n        /* \"#utility.yul\":17144:17146   */\n      0x20\n        /* \"#utility.yul\":17136:17142   */\n      dup3\n        /* \"#utility.yul\":17132:17147   */\n      add\n        /* \"#utility.yul\":17125:17156   */\n      mstore\n        /* \"#utility.yul\":16940:17163   */\n      pop\n      jump\t// out\n        /* \"#utility.yul\":17169:17535   */\n    tag_195:\n        /* \"#utility.yul\":17311:17314   */\n      0x00\n        /* \"#utility.yul\":17332:17399   */\n      tag_369\n        /* \"#utility.yul\":17396:17398   */\n      0x24\n        /* \"#utility.yul\":17391:17394   */\n      dup4\n        /* \"#utility.yul\":17332:17399   */\n      tag_169\n      jump\t// in\n    tag_369:\n        /* \"#utility.yul\":17325:17399   */\n      swap2\n      pop\n        /* \"#utility.yul\":17408:17501   */\n      tag_370\n        /* \"#utility.yul\":17497:17500   */\n      dup3\n        /* \"#utility.yul\":17408:17501   */\n      tag_194\n      jump\t// in\n    tag_370:\n        /* \"#utility.yul\":17526:17528   */\n      0x40\n        /* \"#utility.yul\":17521:17524   */\n      dup3\n        /* \"#utility.yul\":17517:17529   */\n      add\n        /* \"#utility.yul\":17510:17529   */\n      swap1\n      pop\n        /* \"#utility.yul\":17169:17535   */\n      swap2\n      swap1\n      pop\n      jump\t// out\n        /* \"#utility.yul\":17541:17960   */\n    tag_139:\n        /* \"#utility.yul\":17707:17711   */\n      0x00\n        /* \"#utility.yul\":17745:17747   */\n      0x20\n        /* \"#utility.yul\":17734:17743   */\n      dup3\n        /* \"#utility.yul\":17730:17748   */\n      add\n        /* \"#utility.yul\":17722:17748   */\n      swap1\n      pop\n        /* \"#utility.yul\":17794:17803   */\n      dup2\n        /* \"#utility.yul\":17788:17792   */\n      dup2\n        /* \"#utility.yul\":17784:17804   */\n      sub\n        /* \"#utility.yul\":17780:17781   */\n      0x00\n        /* \"#utility.yul\":17769:17778   */\n      dup4\n        /* \"#utility.yul\":17765:17782   */\n      add\n        /* \"#utility.yul\":17758:17805   */\n      mstore\n        /* \"#utility.yul\":17822:17953   */\n      tag_372\n        /* \"#utility.yul\":17948:17952   */\n      dup2\n        /* \"#utility.yul\":17822:17953   */\n      tag_195\n      jump\t// in\n    tag_372:\n        /* \"#utility.yul\":17814:17953   */\n      swap1\n      pop\n        /* \"#utility.yul\":17541:17960   */\n      swap2\n      swap1\n      pop\n      jump\t// out\n        /* \"#utility.yul\":17966:18148   */\n    tag_196:\n        /* \"#utility.yul\":18106:18140   */\n      0x4552433732313a207472616e73666572206e6f74206f776e657220746f6b656e\n        /* \"#utility.yul\":18102:18103   */\n      0x00\n        /* \"#utility.yul\":18094:18100   */\n      dup3\n        /* \"#utility.yul\":18090:18104   */\n      add\n        /* \"#utility.yul\":18083:18141   */\n      mstore\n        /* \"#utility.yul\":17966:18148   */\n      pop\n      jump\t// out\n        /* \"#utility.yul\":18154:18520   */\n    tag_197:\n        /* \"#utility.yul\":18296:18299   */\n      0x00\n        /* \"#utility.yul\":18317:18384   */\n      tag_375\n        /* \"#utility.yul\":18381:18383   */\n      0x20\n        /* \"#utility.yul\":18376:18379   */\n      dup4\n        /* \"#utility.yul\":18317:18384   */\n      tag_169\n      jump\t// in\n    tag_375:\n        /* \"#utility.yul\":18310:18384   */\n      swap2\n      pop\n        /* \"#utility.yul\":18393:18486   */\n      tag_376\n        /* \"#utility.yul\":18482:18485   */\n      dup3\n        /* \"#utility.yul\":18393:18486   */\n      tag_196\n      jump\t// in\n    tag_376:\n        /* \"#utility.yul\":18511:18513   */\n      0x20\n        /* \"#utility.yul\":18506:18509   */\n      dup3\n        /* \"#utility.yul\":18502:18514   */\n      add\n        /* \"#utility.yul\":18495:18514   */\n      swap1\n      pop\n        /* \"#utility.yul\":18154:18520   */\n      swap2\n      swap1\n      pop\n      jump\t// out\n        /* \"#utility.yul\":18526:18945   */\n    tag_147:\n        /* \"#utility.yul\":18692:18696   */\n      0x00\n        /* \"#utility.yul\":18730:18732   */\n      0x20\n        /* \"#utility.yul\":18719:18728   */\n      dup3\n        /* \"#utility.yul\":18715:18733   */\n      add\n        /* \"#utility.yul\":18707:18733   */\n      swap1\n      pop\n        /* \"#utility.yul\":18779:18788   */\n      dup2\n        /* \"#utility.yul\":18773:18777   */\n      dup2\n        /* \"#utility.yul\":18769:18789   */\n      sub\n        /* \"#utility.yul\":18765:18766   */\n      0x00\n        /* \"#utility.yul\":18754:18763   */\n      dup4\n        /* \"#utility.yul\":18750:18767   */\n      add\n        /* \"#utility.yul\":18743:18790   */\n      mstore\n        /* \"#utility.yul\":18807:18938   */\n      tag_378\n        /* \"#utility.yul\":18933:18937   */\n      dup2\n        /* \"#utility.yul\":18807:18938   */\n      tag_197\n      jump\t// in\n    tag_378:\n        /* \"#utility.yul\":18799:18938   */\n      swap1\n      pop\n        /* \"#utility.yul\":18526:18945   */\n      swap2\n      swap1\n      pop\n      jump\t// out\n\n    auxdata: 0xa2646970667358221220d19e81b9f17d45f80cffd688c0031a8728f7ead68c9a6e78b5578189f04a20b964736f6c634300080d0033\n}\n",
				"bytecode": {
					"linkReferences": {},
					"object": "60806040523480156200001157600080fd5b5060405162001d4938038062001d498339818101604052810190620000379190620003c4565b620000576200004b620000ab60201b60201c565b620000b360201b60201c565b82600490805190602001906200006f92919062000177565b5081600590805190602001906200008892919062000177565b508060069080519060200190620000a192919062000177565b50505050620004e1565b600033905090565b60008060009054906101000a900473ffffffffffffffffffffffffffffffffffffffff169050816000806101000a81548173ffffffffffffffffffffffffffffffffffffffff021916908373ffffffffffffffffffffffffffffffffffffffff1602179055508173ffffffffffffffffffffffffffffffffffffffff168173ffffffffffffffffffffffffffffffffffffffff167f8be0079c531659141344cd1fd0a4f28419497f9722a3daafe3b4186f6b6457e060405160405180910390a35050565b8280546200018590620004ac565b90600052602060002090601f016020900481019282620001a95760008555620001f5565b82601f10620001c457805160ff1916838001178555620001f5565b82800160010185558215620001f5579182015b82811115620001f4578251825591602001919060010190620001d7565b5b50905062000204919062000208565b5090565b5b808211156200022357600081600090555060010162000209565b5090565b6000604051905090565b600080fd5b600080fd5b600080fd5b600080fd5b6000601f19601f8301169050919050565b7f4e487b7100000000000000000000000000000000000000000000000000000000600052604160045260246000fd5b620002908262000245565b810181811067ffffffffffffffff82111715620002b257620002b162000256565b5b80604052505050565b6000620002c762000227565b9050620002d5828262000285565b919050565b600067ffffffffffffffff821115620002f857620002f762000256565b5b620003038262000245565b9050602081019050919050565b60005b838110156200033057808201518184015260208101905062000313565b8381111562000340576000848401525b50505050565b60006200035d6200035784620002da565b620002bb565b9050828152602081018484840111156200037c576200037b62000240565b5b6200038984828562000310565b509392505050565b600082601f830112620003a957620003a86200023b565b5b8151620003bb84826020860162000346565b91505092915050565b600080600060608486031215620003e057620003df62000231565b5b600084015167ffffffffffffffff81111562000401576200040062000236565b5b6200040f8682870162000391565b935050602084015167ffffffffffffffff81111562000433576200043262000236565b5b620004418682870162000391565b925050604084015167ffffffffffffffff81111562000465576200046462000236565b5b620004738682870162000391565b9150509250925092565b7f4e487b7100000000000000000000000000000000000000000000000000000000600052602260045260246000fd5b60006002820490506001821680620004c557607f821691505b602082108103620004db57620004da6200047d565b5b50919050565b61185880620004f16000396000f3fe60806040526004361061009c5760003560e01c8063715018a611610064578063715018a6146101905780638da5cb5b146101a7578063a9059cbb146101d2578063b88d4fde1461020f578063c87b56dd1461022b578063f2fde38b146102685761009c565b8063150b7a02146100a157806323b872dd146100de57806342842e0e146100fa5780636352211e1461011657806370a0823114610153575b600080fd5b3480156100ad57600080fd5b506100c860048036038101906100c39190610ef7565b610291565b6040516100d59190610fba565b60405180910390f35b6100f860048036038101906100f39190610fd5565b61029c565b005b610114600480360381019061010f9190610fd5565b6104b7565b005b34801561012257600080fd5b5061013d60048036038101906101389190611028565b6104d7565b60405161014a9190611064565b60405180910390f35b34801561015f57600080fd5b5061017a6004803603810190610175919061107f565b610514565b60405161018791906110bb565b60405180910390f35b34801561019c57600080fd5b506101a561055d565b005b3480156101b357600080fd5b506101bc6105e5565b6040516101c99190611064565b60405180910390f35b3480156101de57600080fd5b506101f960048036038101906101f491906110d6565b61060e565b6040516102069190611131565b60405180910390f35b61022960048036038101906102249190610ef7565b61062c565b005b34801561023757600080fd5b50610252600480360381019061024d9190611028565b610683565b60405161025f91906111e5565b60405180910390f35b34801561027457600080fd5b5061028f600480360381019061028a919061107f565b6106af565b005b600095945050505050565b8273ffffffffffffffffffffffffffffffffffffffff163373ffffffffffffffffffffffffffffffffffffffff161461030a576040517f08c379a000000000000000000000000000000000000000000000000000000000815260040161030190611279565b60405180910390fd5b6002600082815260200190815260200160002060009054906101000a900473ffffffffffffffffffffffffffffffffffffffff1673ffffffffffffffffffffffffffffffffffffffff168373ffffffffffffffffffffffffffffffffffffffff16146103ab576040517f08c379a00000000000000000000000000000000000000000000000000000000081526004016103a290611279565b60405180910390fd5b60018060008573ffffffffffffffffffffffffffffffffffffffff1673ffffffffffffffffffffffffffffffffffffffff16815260200190815260200160002060008282546103fa91906112c8565b9250508190555060018060008473ffffffffffffffffffffffffffffffffffffffff1673ffffffffffffffffffffffffffffffffffffffff168152602001908152602001600020600082825461045091906112fc565b92505081905550808273ffffffffffffffffffffffffffffffffffffffff168473ffffffffffffffffffffffffffffffffffffffff167fddf252ad1be2c89b69c2b068fc378daa952ba7f163c4a11628f55a4df523b3ef60405160405180910390a4505050565b6104d2838383604051806020016040528060008152506107a6565b505050565b60006002600083815260200190815260200160002060009054906101000a900473ffffffffffffffffffffffffffffffffffffffff169050919050565b6000600160008373ffffffffffffffffffffffffffffffffffffffff1673ffffffffffffffffffffffffffffffffffffffff168152602001908152602001600020549050919050565b610565610a6e565b73ffffffffffffffffffffffffffffffffffffffff166105836105e5565b73ffffffffffffffffffffffffffffffffffffffff16146105d9576040517f08c379a00000000000000000000000000000000000000000000000000000000081526004016105d09061139e565b60405180910390fd5b6105e36000610a76565b565b60008060009054906101000a900473ffffffffffffffffffffffffffffffffffffffff16905090565b600061062261061b610a6e565b8484610b3a565b6001905092915050565b61067c85858585858080601f016020809104026020016040519081016040528093929190818152602001838380828437600081840152601f19601f820116905080830192505050505050506107a6565b5050505050565b60606006826040516020016106999291906114de565b6040516020818303038152906040529050919050565b6106b7610a6e565b73ffffffffffffffffffffffffffffffffffffffff166106d56105e5565b73ffffffffffffffffffffffffffffffffffffffff161461072b576040517f08c379a00000000000000000000000000000000000000000000000000000000081526004016107229061139e565b60405180910390fd5b600073ffffffffffffffffffffffffffffffffffffffff168173ffffffffffffffffffffffffffffffffffffffff160361079a576040517f08c379a000000000000000000000000000000000000000000000000000000000815260040161079190611578565b60405180910390fd5b6107a381610a76565b50565b8373ffffffffffffffffffffffffffffffffffffffff163373ffffffffffffffffffffffffffffffffffffffff1614610814576040517f08c379a000000000000000000000000000000000000000000000000000000000815260040161080b90611279565b60405180910390fd5b6002600083815260200190815260200160002060009054906101000a900473ffffffffffffffffffffffffffffffffffffffff1673ffffffffffffffffffffffffffffffffffffffff168473ffffffffffffffffffffffffffffffffffffffff16146108b5576040517f08c379a00000000000000000000000000000000000000000000000000000000081526004016108ac90611279565b60405180910390fd5b60018060008673ffffffffffffffffffffffffffffffffffffffff1673ffffffffffffffffffffffffffffffffffffffff168152602001908152602001600020600082825461090491906112c8565b9250508190555060018060008573ffffffffffffffffffffffffffffffffffffffff1673ffffffffffffffffffffffffffffffffffffffff168152602001908152602001600020600082825461095a91906112fc565b92505081905550818373ffffffffffffffffffffffffffffffffffffffff168573ffffffffffffffffffffffffffffffffffffffff167fddf252ad1be2c89b69c2b068fc378daa952ba7f163c4a11628f55a4df523b3ef60405160405180910390a46109db8373ffffffffffffffffffffffffffffffffffffffff16610d2b565b15610a685760008373ffffffffffffffffffffffffffffffffffffffff1663150b7a02338786866040518563ffffffff1660e01b8152600401610a2194939291906115ed565b6020604051808303816000875af1158015610a40573d6000803e3d6000fd5b505050506040513d601f19601f82011682018060405250810190610a649190611665565b9050505b50505050565b600033905090565b60008060009054906101000a900473ffffffffffffffffffffffffffffffffffffffff169050816000806101000a81548173ffffffffffffffffffffffffffffffffffffffff021916908373ffffffffffffffffffffffffffffffffffffffff1602179055508173ffffffffffffffffffffffffffffffffffffffff168173ffffffffffffffffffffffffffffffffffffffff167f8be0079c531659141344cd1fd0a4f28419497f9722a3daafe3b4186f6b6457e060405160405180910390a35050565b600073ffffffffffffffffffffffffffffffffffffffff168373ffffffffffffffffffffffffffffffffffffffff1603610ba9576040517f08c379a0000000000000000000000000000000000000000000000000000000008152600401610ba090611704565b60405180910390fd5b600073ffffffffffffffffffffffffffffffffffffffff168273ffffffffffffffffffffffffffffffffffffffff1603610c18576040517f08c379a0000000000000000000000000000000000000000000000000000000008152600401610c0f90611796565b60405180910390fd5b610c23838383610d4e565b816002600083815260200190815260200160002060006101000a81548173ffffffffffffffffffffffffffffffffffffffff021916908373ffffffffffffffffffffffffffffffffffffffff16021790555060018060008473ffffffffffffffffffffffffffffffffffffffff1673ffffffffffffffffffffffffffffffffffffffff1681526020019081526020016000206000828254610cc491906112fc565b92505081905550808273ffffffffffffffffffffffffffffffffffffffff168473ffffffffffffffffffffffffffffffffffffffff167fddf252ad1be2c89b69c2b068fc378daa952ba7f163c4a11628f55a4df523b3ef60405160405180910390a4505050565b6000808273ffffffffffffffffffffffffffffffffffffffff163b119050919050565b8273ffffffffffffffffffffffffffffffffffffffff166002600083815260200190815260200160002060009054906101000a900473ffffffffffffffffffffffffffffffffffffffff1673ffffffffffffffffffffffffffffffffffffffff1614610def576040517f08c379a0000000000000000000000000000000000000000000000000000000008152600401610de690611802565b60405180910390fd5b505050565b600080fd5b600080fd5b600073ffffffffffffffffffffffffffffffffffffffff82169050919050565b6000610e2982610dfe565b9050919050565b610e3981610e1e565b8114610e4457600080fd5b50565b600081359050610e5681610e30565b92915050565b6000819050919050565b610e6f81610e5c565b8114610e7a57600080fd5b50565b600081359050610e8c81610e66565b92915050565b600080fd5b600080fd5b600080fd5b60008083601f840112610eb757610eb6610e92565b5b8235905067ffffffffffffffff811115610ed457610ed3610e97565b5b602083019150836001820283011115610ef057610eef610e9c565b5b9250929050565b600080600080600060808688031215610f1357610f12610df4565b5b6000610f2188828901610e47565b9550506020610f3288828901610e47565b9450506040610f4388828901610e7d565b935050606086013567ffffffffffffffff811115610f6457610f63610df9565b5b610f7088828901610ea1565b92509250509295509295909350565b60007fffffffff0000000000000000000000000000000000000000000000000000000082169050919050565b610fb481610f7f565b82525050565b6000602082019050610fcf6000830184610fab565b92915050565b600080600060608486031215610fee57610fed610df4565b5b6000610ffc86828701610e47565b935050602061100d86828701610e47565b925050604061101e86828701610e7d565b9150509250925092565b60006020828403121561103e5761103d610df4565b5b600061104c84828501610e7d565b91505092915050565b61105e81610e1e565b82525050565b60006020820190506110796000830184611055565b92915050565b60006020828403121561109557611094610df4565b5b60006110a384828501610e47565b91505092915050565b6110b581610e5c565b82525050565b60006020820190506110d060008301846110ac565b92915050565b600080604083850312156110ed576110ec610df4565b5b60006110fb85828601610e47565b925050602061110c85828601610e7d565b9150509250929050565b60008115159050919050565b61112b81611116565b82525050565b60006020820190506111466000830184611122565b92915050565b600081519050919050565b600082825260208201905092915050565b60005b8381101561118657808201518184015260208101905061116b565b83811115611195576000848401525b50505050565b6000601f19601f8301169050919050565b60006111b78261114c565b6111c18185611157565b93506111d1818560208601611168565b6111da8161119b565b840191505092915050565b600060208201905081810360008301526111ff81846111ac565b905092915050565b7f4552433732313a2043616e277420417574686f72697a6564207468652074726160008201527f6e7366657220746f6b656e000000000000000000000000000000000000000000602082015250565b6000611263602b83611157565b915061126e82611207565b604082019050919050565b6000602082019050818103600083015261129281611256565b9050919050565b7f4e487b7100000000000000000000000000000000000000000000000000000000600052601160045260246000fd5b60006112d382610e5c565b91506112de83610e5c565b9250828210156112f1576112f0611299565b5b828203905092915050565b600061130782610e5c565b915061131283610e5c565b9250827fffffffffffffffffffffffffffffffffffffffffffffffffffffffffffffffff0382111561134757611346611299565b5b828201905092915050565b7f4f776e61626c653a2063616c6c6572206973206e6f7420746865206f776e6572600082015250565b6000611388602083611157565b915061139382611352565b602082019050919050565b600060208201905081810360008301526113b78161137b565b9050919050565b7f4e487b7100000000000000000000000000000000000000000000000000000000600052602260045260246000fd5b6000600282049050600182168061140557607f821691505b602082108103611418576114176113be565b5b50919050565b600081905092915050565b60008190508160005260206000209050919050565b6000815461144b816113ed565b611455818661141e565b945060018216600081146114705760018114611481576114b4565b60ff198316865281860193506114b4565b61148a85611429565b60005b838110156114ac5781548189015260018201915060208101905061148d565b838801955050505b50505092915050565b6000819050919050565b6114d86114d382610e5c565b6114bd565b82525050565b60006114ea828561143e565b91506114f682846114c7565b6020820191508190509392505050565b7f4f776e61626c653a206e6577206f776e657220697320746865207a65726f206160008201527f6464726573730000000000000000000000000000000000000000000000000000602082015250565b6000611562602683611157565b915061156d82611506565b604082019050919050565b6000602082019050818103600083015261159181611555565b9050919050565b600081519050919050565b600082825260208201905092915050565b60006115bf82611598565b6115c981856115a3565b93506115d9818560208601611168565b6115e28161119b565b840191505092915050565b60006080820190506116026000830187611055565b61160f6020830186611055565b61161c60408301856110ac565b818103606083015261162e81846115b4565b905095945050505050565b61164281610f7f565b811461164d57600080fd5b50565b60008151905061165f81611639565b92915050565b60006020828403121561167b5761167a610df4565b5b600061168984828501611650565b91505092915050565b7f4552433732313a207472616e736665722066726f6d20746865207a65726f206160008201527f6464726573730000000000000000000000000000000000000000000000000000602082015250565b60006116ee602683611157565b91506116f982611692565b604082019050919050565b6000602082019050818103600083015261171d816116e1565b9050919050565b7f4552433732313a207472616e7366657220746f20746865207a65726f2061646460008201527f7265737300000000000000000000000000000000000000000000000000000000602082015250565b6000611780602483611157565b915061178b82611724565b604082019050919050565b600060208201905081810360008301526117af81611773565b9050919050565b7f4552433732313a207472616e73666572206e6f74206f776e657220746f6b656e600082015250565b60006117ec602083611157565b91506117f7826117b6565b602082019050919050565b6000602082019050818103600083015261181b816117df565b905091905056fea2646970667358221220d19e81b9f17d45f80cffd688c0031a8728f7ead68c9a6e78b5578189f04a20b964736f6c634300080d0033",
					"opcodes": "PUSH1 0x80 PUSH1 0x40 MSTORE CALLVALUE DUP1 ISZERO PUSH3 0x11 JUMPI PUSH1 0x0 DUP1 REVERT JUMPDEST POP PUSH1 0x40 MLOAD PUSH3 0x1D49 CODESIZE SUB DUP1 PUSH3 0x1D49 DUP4 CODECOPY DUP2 DUP2 ADD PUSH1 0x40 MSTORE DUP2 ADD SWAP1 PUSH3 0x37 SWAP2 SWAP1 PUSH3 0x3C4 JUMP JUMPDEST PUSH3 0x57 PUSH3 0x4B PUSH3 0xAB PUSH1 0x20 SHL PUSH1 0x20 SHR JUMP JUMPDEST PUSH3 0xB3 PUSH1 0x20 SHL PUSH1 0x20 SHR JUMP JUMPDEST DUP3 PUSH1 0x4 SWAP1 DUP1 MLOAD SWAP1 PUSH1 0x20 ADD SWAP1 PUSH3 0x6F SWAP3 SWAP2 SWAP1 PUSH3 0x177 JUMP JUMPDEST POP DUP2 PUSH1 0x5 SWAP1 DUP1 MLOAD SWAP1 PUSH1 0x20 ADD SWAP1 PUSH3 0x88 SWAP3 SWAP2 SWAP1 PUSH3 0x177 JUMP JUMPDEST POP DUP1 PUSH1 0x6 SWAP1 DUP1 MLOAD SWAP1 PUSH1 0x20 ADD SWAP1 PUSH3 0xA1 SWAP3 SWAP2 SWAP1 PUSH3 0x177 JUMP JUMPDEST POP POP POP POP PUSH3 0x4E1 JUMP JUMPDEST PUSH1 0x0 CALLER SWAP1 POP SWAP1 JUMP JUMPDEST PUSH1 0x0 DUP1 PUSH1 0x0 SWAP1 SLOAD SWAP1 PUSH2 0x100 EXP SWAP1 DIV PUSH20 0xFFFFFFFFFFFFFFFFFFFFFFFFFFFFFFFFFFFFFFFF AND SWAP1 POP DUP2 PUSH1 0x0 DUP1 PUSH2 0x100 EXP DUP2 SLOAD DUP2 PUSH20 0xFFFFFFFFFFFFFFFFFFFFFFFFFFFFFFFFFFFFFFFF MUL NOT AND SWAP1 DUP4 PUSH20 0xFFFFFFFFFFFFFFFFFFFFFFFFFFFFFFFFFFFFFFFF AND MUL OR SWAP1 SSTORE POP DUP2 PUSH20 0xFFFFFFFFFFFFFFFFFFFFFFFFFFFFFFFFFFFFFFFF AND DUP2 PUSH20 0xFFFFFFFFFFFFFFFFFFFFFFFFFFFFFFFFFFFFFFFF AND PUSH32 0x8BE0079C531659141344CD1FD0A4F28419497F9722A3DAAFE3B4186F6B6457E0 PUSH1 0x40 MLOAD PUSH1 0x40 MLOAD DUP1 SWAP2 SUB SWAP1 LOG3 POP POP JUMP JUMPDEST DUP3 DUP1 SLOAD PUSH3 0x185 SWAP1 PUSH3 0x4AC JUMP JUMPDEST SWAP1 PUSH1 0x0 MSTORE PUSH1 0x20 PUSH1 0x0 KECCAK256 SWAP1 PUSH1 0x1F ADD PUSH1 0x20 SWAP1 DIV DUP2 ADD SWAP3 DUP3 PUSH3 0x1A9 JUMPI PUSH1 0x0 DUP6 SSTORE PUSH3 0x1F5 JUMP JUMPDEST DUP3 PUSH1 0x1F LT PUSH3 0x1C4 JUMPI DUP1 MLOAD PUSH1 0xFF NOT AND DUP4 DUP1 ADD OR DUP6 SSTORE PUSH3 0x1F5 JUMP JUMPDEST DUP3 DUP1 ADD PUSH1 0x1 ADD DUP6 SSTORE DUP3 ISZERO PUSH3 0x1F5 JUMPI SWAP2 DUP3 ADD JUMPDEST DUP3 DUP2 GT ISZERO PUSH3 0x1F4 JUMPI DUP3 MLOAD DUP3 SSTORE SWAP2 PUSH1 0x20 ADD SWAP2 SWAP1 PUSH1 0x1 ADD SWAP1 PUSH3 0x1D7 JUMP JUMPDEST JUMPDEST POP SWAP1 POP PUSH3 0x204 SWAP2 SWAP1 PUSH3 0x208 JUMP JUMPDEST POP SWAP1 JUMP JUMPDEST JUMPDEST DUP1 DUP3 GT ISZERO PUSH3 0x223 JUMPI PUSH1 0x0 DUP2 PUSH1 0x0 SWAP1 SSTORE POP PUSH1 0x1 ADD PUSH3 0x209 JUMP JUMPDEST POP SWAP1 JUMP JUMPDEST PUSH1 0x0 PUSH1 0x40 MLOAD SWAP1 POP SWAP1 JUMP JUMPDEST PUSH1 0x0 DUP1 REVERT JUMPDEST PUSH1 0x0 DUP1 REVERT JUMPDEST PUSH1 0x0 DUP1 REVERT JUMPDEST PUSH1 0x0 DUP1 REVERT JUMPDEST PUSH1 0x0 PUSH1 0x1F NOT PUSH1 0x1F DUP4 ADD AND SWAP1 POP SWAP2 SWAP1 POP JUMP JUMPDEST PUSH32 0x4E487B7100000000000000000000000000000000000000000000000000000000 PUSH1 0x0 MSTORE PUSH1 0x41 PUSH1 0x4 MSTORE PUSH1 0x24 PUSH1 0x0 REVERT JUMPDEST PUSH3 0x290 DUP3 PUSH3 0x245 JUMP JUMPDEST DUP2 ADD DUP2 DUP2 LT PUSH8 0xFFFFFFFFFFFFFFFF DUP3 GT OR ISZERO PUSH3 0x2B2 JUMPI PUSH3 0x2B1 PUSH3 0x256 JUMP JUMPDEST JUMPDEST DUP1 PUSH1 0x40 MSTORE POP POP POP JUMP JUMPDEST PUSH1 0x0 PUSH3 0x2C7 PUSH3 0x227 JUMP JUMPDEST SWAP1 POP PUSH3 0x2D5 DUP3 DUP3 PUSH3 0x285 JUMP JUMPDEST SWAP2 SWAP1 POP JUMP JUMPDEST PUSH1 0x0 PUSH8 0xFFFFFFFFFFFFFFFF DUP3 GT ISZERO PUSH3 0x2F8 JUMPI PUSH3 0x2F7 PUSH3 0x256 JUMP JUMPDEST JUMPDEST PUSH3 0x303 DUP3 PUSH3 0x245 JUMP JUMPDEST SWAP1 POP PUSH1 0x20 DUP2 ADD SWAP1 POP SWAP2 SWAP1 POP JUMP JUMPDEST PUSH1 0x0 JUMPDEST DUP4 DUP2 LT ISZERO PUSH3 0x330 JUMPI DUP1 DUP3 ADD MLOAD DUP2 DUP5 ADD MSTORE PUSH1 0x20 DUP2 ADD SWAP1 POP PUSH3 0x313 JUMP JUMPDEST DUP4 DUP2 GT ISZERO PUSH3 0x340 JUMPI PUSH1 0x0 DUP5 DUP5 ADD MSTORE JUMPDEST POP POP POP POP JUMP JUMPDEST PUSH1 0x0 PUSH3 0x35D PUSH3 0x357 DUP5 PUSH3 0x2DA JUMP JUMPDEST PUSH3 0x2BB JUMP JUMPDEST SWAP1 POP DUP3 DUP2 MSTORE PUSH1 0x20 DUP2 ADD DUP5 DUP5 DUP5 ADD GT ISZERO PUSH3 0x37C JUMPI PUSH3 0x37B PUSH3 0x240 JUMP JUMPDEST JUMPDEST PUSH3 0x389 DUP5 DUP3 DUP6 PUSH3 0x310 JUMP JUMPDEST POP SWAP4 SWAP3 POP POP POP JUMP JUMPDEST PUSH1 0x0 DUP3 PUSH1 0x1F DUP4 ADD SLT PUSH3 0x3A9 JUMPI PUSH3 0x3A8 PUSH3 0x23B JUMP JUMPDEST JUMPDEST DUP2 MLOAD PUSH3 0x3BB DUP5 DUP3 PUSH1 0x20 DUP7 ADD PUSH3 0x346 JUMP JUMPDEST SWAP2 POP POP SWAP3 SWAP2 POP POP JUMP JUMPDEST PUSH1 0x0 DUP1 PUSH1 0x0 PUSH1 0x60 DUP5 DUP7 SUB SLT ISZERO PUSH3 0x3E0 JUMPI PUSH3 0x3DF PUSH3 0x231 JUMP JUMPDEST JUMPDEST PUSH1 0x0 DUP5 ADD MLOAD PUSH8 0xFFFFFFFFFFFFFFFF DUP2 GT ISZERO PUSH3 0x401 JUMPI PUSH3 0x400 PUSH3 0x236 JUMP JUMPDEST JUMPDEST PUSH3 0x40F DUP7 DUP3 DUP8 ADD PUSH3 0x391 JUMP JUMPDEST SWAP4 POP POP PUSH1 0x20 DUP5 ADD MLOAD PUSH8 0xFFFFFFFFFFFFFFFF DUP2 GT ISZERO PUSH3 0x433 JUMPI PUSH3 0x432 PUSH3 0x236 JUMP JUMPDEST JUMPDEST PUSH3 0x441 DUP7 DUP3 DUP8 ADD PUSH3 0x391 JUMP JUMPDEST SWAP3 POP POP PUSH1 0x40 DUP5 ADD MLOAD PUSH8 0xFFFFFFFFFFFFFFFF DUP2 GT ISZERO PUSH3 0x465 JUMPI PUSH3 0x464 PUSH3 0x236 JUMP JUMPDEST JUMPDEST PUSH3 0x473 DUP7 DUP3 DUP8 ADD PUSH3 0x391 JUMP JUMPDEST SWAP2 POP POP SWAP3 POP SWAP3 POP SWAP3 JUMP JUMPDEST PUSH32 0x4E487B7100000000000000000000000000000000000000000000000000000000 PUSH1 0x0 MSTORE PUSH1 0x22 PUSH1 0x4 MSTORE PUSH1 0x24 PUSH1 0x0 REVERT JUMPDEST PUSH1 0x0 PUSH1 0x2 DUP3 DIV SWAP1 POP PUSH1 0x1 DUP3 AND DUP1 PUSH3 0x4C5 JUMPI PUSH1 0x7F DUP3 AND SWAP2 POP JUMPDEST PUSH1 0x20 DUP3 LT DUP2 SUB PUSH3 0x4DB JUMPI PUSH3 0x4DA PUSH3 0x47D JUMP JUMPDEST JUMPDEST POP SWAP2 SWAP1 POP JUMP JUMPDEST PUSH2 0x1858 DUP1 PUSH3 0x4F1 PUSH1 0x0 CODECOPY PUSH1 0x0 RETURN INVALID PUSH1 0x80 PUSH1 0x40 MSTORE PUSH1 0x4 CALLDATASIZE LT PUSH2 0x9C JUMPI PUSH1 0x0 CALLDATALOAD PUSH1 0xE0 SHR DUP1 PUSH4 0x715018A6 GT PUSH2 0x64 JUMPI DUP1 PUSH4 0x715018A6 EQ PUSH2 0x190 JUMPI DUP1 PUSH4 0x8DA5CB5B EQ PUSH2 0x1A7 JUMPI DUP1 PUSH4 0xA9059CBB EQ PUSH2 0x1D2 JUMPI DUP1 PUSH4 0xB88D4FDE EQ PUSH2 0x20F JUMPI DUP1 PUSH4 0xC87B56DD EQ PUSH2 0x22B JUMPI DUP1 PUSH4 0xF2FDE38B EQ PUSH2 0x268 JUMPI PUSH2 0x9C JUMP JUMPDEST DUP1 PUSH4 0x150B7A02 EQ PUSH2 0xA1 JUMPI DUP1 PUSH4 0x23B872DD EQ PUSH2 0xDE JUMPI DUP1 PUSH4 0x42842E0E EQ PUSH2 0xFA JUMPI DUP1 PUSH4 0x6352211E EQ PUSH2 0x116 JUMPI DUP1 PUSH4 0x70A08231 EQ PUSH2 0x153 JUMPI JUMPDEST PUSH1 0x0 DUP1 REVERT JUMPDEST CALLVALUE DUP1 ISZERO PUSH2 0xAD JUMPI PUSH1 0x0 DUP1 REVERT JUMPDEST POP PUSH2 0xC8 PUSH1 0x4 DUP1 CALLDATASIZE SUB DUP2 ADD SWAP1 PUSH2 0xC3 SWAP2 SWAP1 PUSH2 0xEF7 JUMP JUMPDEST PUSH2 0x291 JUMP JUMPDEST PUSH1 0x40 MLOAD PUSH2 0xD5 SWAP2 SWAP1 PUSH2 0xFBA JUMP JUMPDEST PUSH1 0x40 MLOAD DUP1 SWAP2 SUB SWAP1 RETURN JUMPDEST PUSH2 0xF8 PUSH1 0x4 DUP1 CALLDATASIZE SUB DUP2 ADD SWAP1 PUSH2 0xF3 SWAP2 SWAP1 PUSH2 0xFD5 JUMP JUMPDEST PUSH2 0x29C JUMP JUMPDEST STOP JUMPDEST PUSH2 0x114 PUSH1 0x4 DUP1 CALLDATASIZE SUB DUP2 ADD SWAP1 PUSH2 0x10F SWAP2 SWAP1 PUSH2 0xFD5 JUMP JUMPDEST PUSH2 0x4B7 JUMP JUMPDEST STOP JUMPDEST CALLVALUE DUP1 ISZERO PUSH2 0x122 JUMPI PUSH1 0x0 DUP1 REVERT JUMPDEST POP PUSH2 0x13D PUSH1 0x4 DUP1 CALLDATASIZE SUB DUP2 ADD SWAP1 PUSH2 0x138 SWAP2 SWAP1 PUSH2 0x1028 JUMP JUMPDEST PUSH2 0x4D7 JUMP JUMPDEST PUSH1 0x40 MLOAD PUSH2 0x14A SWAP2 SWAP1 PUSH2 0x1064 JUMP JUMPDEST PUSH1 0x40 MLOAD DUP1 SWAP2 SUB SWAP1 RETURN JUMPDEST CALLVALUE DUP1 ISZERO PUSH2 0x15F JUMPI PUSH1 0x0 DUP1 REVERT JUMPDEST POP PUSH2 0x17A PUSH1 0x4 DUP1 CALLDATASIZE SUB DUP2 ADD SWAP1 PUSH2 0x175 SWAP2 SWAP1 PUSH2 0x107F JUMP JUMPDEST PUSH2 0x514 JUMP JUMPDEST PUSH1 0x40 MLOAD PUSH2 0x187 SWAP2 SWAP1 PUSH2 0x10BB JUMP JUMPDEST PUSH1 0x40 MLOAD DUP1 SWAP2 SUB SWAP1 RETURN JUMPDEST CALLVALUE DUP1 ISZERO PUSH2 0x19C JUMPI PUSH1 0x0 DUP1 REVERT JUMPDEST POP PUSH2 0x1A5 PUSH2 0x55D JUMP JUMPDEST STOP JUMPDEST CALLVALUE DUP1 ISZERO PUSH2 0x1B3 JUMPI PUSH1 0x0 DUP1 REVERT JUMPDEST POP PUSH2 0x1BC PUSH2 0x5E5 JUMP JUMPDEST PUSH1 0x40 MLOAD PUSH2 0x1C9 SWAP2 SWAP1 PUSH2 0x1064 JUMP JUMPDEST PUSH1 0x40 MLOAD DUP1 SWAP2 SUB SWAP1 RETURN JUMPDEST CALLVALUE DUP1 ISZERO PUSH2 0x1DE JUMPI PUSH1 0x0 DUP1 REVERT JUMPDEST POP PUSH2 0x1F9 PUSH1 0x4 DUP1 CALLDATASIZE SUB DUP2 ADD SWAP1 PUSH2 0x1F4 SWAP2 SWAP1 PUSH2 0x10D6 JUMP JUMPDEST PUSH2 0x60E JUMP JUMPDEST PUSH1 0x40 MLOAD PUSH2 0x206 SWAP2 SWAP1 PUSH2 0x1131 JUMP JUMPDEST PUSH1 0x40 MLOAD DUP1 SWAP2 SUB SWAP1 RETURN JUMPDEST PUSH2 0x229 PUSH1 0x4 DUP1 CALLDATASIZE SUB DUP2 ADD SWAP1 PUSH2 0x224 SWAP2 SWAP1 PUSH2 0xEF7 JUMP JUMPDEST PUSH2 0x62C JUMP JUMPDEST STOP JUMPDEST CALLVALUE DUP1 ISZERO PUSH2 0x237 JUMPI PUSH1 0x0 DUP1 REVERT JUMPDEST POP PUSH2 0x252 PUSH1 0x4 DUP1 CALLDATASIZE SUB DUP2 ADD SWAP1 PUSH2 0x24D SWAP2 SWAP1 PUSH2 0x1028 JUMP JUMPDEST PUSH2 0x683 JUMP JUMPDEST PUSH1 0x40 MLOAD PUSH2 0x25F SWAP2 SWAP1 PUSH2 0x11E5 JUMP JUMPDEST PUSH1 0x40 MLOAD DUP1 SWAP2 SUB SWAP1 RETURN JUMPDEST CALLVALUE DUP1 ISZERO PUSH2 0x274 JUMPI PUSH1 0x0 DUP1 REVERT JUMPDEST POP PUSH2 0x28F PUSH1 0x4 DUP1 CALLDATASIZE SUB DUP2 ADD SWAP1 PUSH2 0x28A SWAP2 SWAP1 PUSH2 0x107F JUMP JUMPDEST PUSH2 0x6AF JUMP JUMPDEST STOP JUMPDEST PUSH1 0x0 SWAP6 SWAP5 POP POP POP POP POP JUMP JUMPDEST DUP3 PUSH20 0xFFFFFFFFFFFFFFFFFFFFFFFFFFFFFFFFFFFFFFFF AND CALLER PUSH20 0xFFFFFFFFFFFFFFFFFFFFFFFFFFFFFFFFFFFFFFFF AND EQ PUSH2 0x30A JUMPI PUSH1 0x40 MLOAD PUSH32 0x8C379A000000000000000000000000000000000000000000000000000000000 DUP2 MSTORE PUSH1 0x4 ADD PUSH2 0x301 SWAP1 PUSH2 0x1279 JUMP JUMPDEST PUSH1 0x40 MLOAD DUP1 SWAP2 SUB SWAP1 REVERT JUMPDEST PUSH1 0x2 PUSH1 0x0 DUP3 DUP2 MSTORE PUSH1 0x20 ADD SWAP1 DUP2 MSTORE PUSH1 0x20 ADD PUSH1 0x0 KECCAK256 PUSH1 0x0 SWAP1 SLOAD SWAP1 PUSH2 0x100 EXP SWAP1 DIV PUSH20 0xFFFFFFFFFFFFFFFFFFFFFFFFFFFFFFFFFFFFFFFF AND PUSH20 0xFFFFFFFFFFFFFFFFFFFFFFFFFFFFFFFFFFFFFFFF AND DUP4 PUSH20 0xFFFFFFFFFFFFFFFFFFFFFFFFFFFFFFFFFFFFFFFF AND EQ PUSH2 0x3AB JUMPI PUSH1 0x40 MLOAD PUSH32 0x8C379A000000000000000000000000000000000000000000000000000000000 DUP2 MSTORE PUSH1 0x4 ADD PUSH2 0x3A2 SWAP1 PUSH2 0x1279 JUMP JUMPDEST PUSH1 0x40 MLOAD DUP1 SWAP2 SUB SWAP1 REVERT JUMPDEST PUSH1 0x1 DUP1 PUSH1 0x0 DUP6 PUSH20 0xFFFFFFFFFFFFFFFFFFFFFFFFFFFFFFFFFFFFFFFF AND PUSH20 0xFFFFFFFFFFFFFFFFFFFFFFFFFFFFFFFFFFFFFFFF AND DUP2 MSTORE PUSH1 0x20 ADD SWAP1 DUP2 MSTORE PUSH1 0x20 ADD PUSH1 0x0 KECCAK256 PUSH1 0x0 DUP3 DUP3 SLOAD PUSH2 0x3FA SWAP2 SWAP1 PUSH2 0x12C8 JUMP JUMPDEST SWAP3 POP POP DUP2 SWAP1 SSTORE POP PUSH1 0x1 DUP1 PUSH1 0x0 DUP5 PUSH20 0xFFFFFFFFFFFFFFFFFFFFFFFFFFFFFFFFFFFFFFFF AND PUSH20 0xFFFFFFFFFFFFFFFFFFFFFFFFFFFFFFFFFFFFFFFF AND DUP2 MSTORE PUSH1 0x20 ADD SWAP1 DUP2 MSTORE PUSH1 0x20 ADD PUSH1 0x0 KECCAK256 PUSH1 0x0 DUP3 DUP3 SLOAD PUSH2 0x450 SWAP2 SWAP1 PUSH2 0x12FC JUMP JUMPDEST SWAP3 POP POP DUP2 SWAP1 SSTORE POP DUP1 DUP3 PUSH20 0xFFFFFFFFFFFFFFFFFFFFFFFFFFFFFFFFFFFFFFFF AND DUP5 PUSH20 0xFFFFFFFFFFFFFFFFFFFFFFFFFFFFFFFFFFFFFFFF AND PUSH32 0xDDF252AD1BE2C89B69C2B068FC378DAA952BA7F163C4A11628F55A4DF523B3EF PUSH1 0x40 MLOAD PUSH1 0x40 MLOAD DUP1 SWAP2 SUB SWAP1 LOG4 POP POP POP JUMP JUMPDEST PUSH2 0x4D2 DUP4 DUP4 DUP4 PUSH1 0x40 MLOAD DUP1 PUSH1 0x20 ADD PUSH1 0x40 MSTORE DUP1 PUSH1 0x0 DUP2 MSTORE POP PUSH2 0x7A6 JUMP JUMPDEST POP POP POP JUMP JUMPDEST PUSH1 0x0 PUSH1 0x2 PUSH1 0x0 DUP4 DUP2 MSTORE PUSH1 0x20 ADD SWAP1 DUP2 MSTORE PUSH1 0x20 ADD PUSH1 0x0 KECCAK256 PUSH1 0x0 SWAP1 SLOAD SWAP1 PUSH2 0x100 EXP SWAP1 DIV PUSH20 0xFFFFFFFFFFFFFFFFFFFFFFFFFFFFFFFFFFFFFFFF AND SWAP1 POP SWAP2 SWAP1 POP JUMP JUMPDEST PUSH1 0x0 PUSH1 0x1 PUSH1 0x0 DUP4 PUSH20 0xFFFFFFFFFFFFFFFFFFFFFFFFFFFFFFFFFFFFFFFF AND PUSH20 0xFFFFFFFFFFFFFFFFFFFFFFFFFFFFFFFFFFFFFFFF AND DUP2 MSTORE PUSH1 0x20 ADD SWAP1 DUP2 MSTORE PUSH1 0x20 ADD PUSH1 0x0 KECCAK256 SLOAD SWAP1 POP SWAP2 SWAP1 POP JUMP JUMPDEST PUSH2 0x565 PUSH2 0xA6E JUMP JUMPDEST PUSH20 0xFFFFFFFFFFFFFFFFFFFFFFFFFFFFFFFFFFFFFFFF AND PUSH2 0x583 PUSH2 0x5E5 JUMP JUMPDEST PUSH20 0xFFFFFFFFFFFFFFFFFFFFFFFFFFFFFFFFFFFFFFFF AND EQ PUSH2 0x5D9 JUMPI PUSH1 0x40 MLOAD PUSH32 0x8C379A000000000000000000000000000000000000000000000000000000000 DUP2 MSTORE PUSH1 0x4 ADD PUSH2 0x5D0 SWAP1 PUSH2 0x139E JUMP JUMPDEST PUSH1 0x40 MLOAD DUP1 SWAP2 SUB SWAP1 REVERT JUMPDEST PUSH2 0x5E3 PUSH1 0x0 PUSH2 0xA76 JUMP JUMPDEST JUMP JUMPDEST PUSH1 0x0 DUP1 PUSH1 0x0 SWAP1 SLOAD SWAP1 PUSH2 0x100 EXP SWAP1 DIV PUSH20 0xFFFFFFFFFFFFFFFFFFFFFFFFFFFFFFFFFFFFFFFF AND SWAP1 POP SWAP1 JUMP JUMPDEST PUSH1 0x0 PUSH2 0x622 PUSH2 0x61B PUSH2 0xA6E JUMP JUMPDEST DUP5 DUP5 PUSH2 0xB3A JUMP JUMPDEST PUSH1 0x1 SWAP1 POP SWAP3 SWAP2 POP POP JUMP JUMPDEST PUSH2 0x67C DUP6 DUP6 DUP6 DUP6 DUP6 DUP1 DUP1 PUSH1 0x1F ADD PUSH1 0x20 DUP1 SWAP2 DIV MUL PUSH1 0x20 ADD PUSH1 0x40 MLOAD SWAP1 DUP2 ADD PUSH1 0x40 MSTORE DUP1 SWAP4 SWAP3 SWAP2 SWAP1 DUP2 DUP2 MSTORE PUSH1 0x20 ADD DUP4 DUP4 DUP1 DUP3 DUP5 CALLDATACOPY PUSH1 0x0 DUP2 DUP5 ADD MSTORE PUSH1 0x1F NOT PUSH1 0x1F DUP3 ADD AND SWAP1 POP DUP1 DUP4 ADD SWAP3 POP POP POP POP POP POP POP PUSH2 0x7A6 JUMP JUMPDEST POP POP POP POP POP JUMP JUMPDEST PUSH1 0x60 PUSH1 0x6 DUP3 PUSH1 0x40 MLOAD PUSH1 0x20 ADD PUSH2 0x699 SWAP3 SWAP2 SWAP1 PUSH2 0x14DE JUMP JUMPDEST PUSH1 0x40 MLOAD PUSH1 0x20 DUP2 DUP4 SUB SUB DUP2 MSTORE SWAP1 PUSH1 0x40 MSTORE SWAP1 POP SWAP2 SWAP1 POP JUMP JUMPDEST PUSH2 0x6B7 PUSH2 0xA6E JUMP JUMPDEST PUSH20 0xFFFFFFFFFFFFFFFFFFFFFFFFFFFFFFFFFFFFFFFF AND PUSH2 0x6D5 PUSH2 0x5E5 JUMP JUMPDEST PUSH20 0xFFFFFFFFFFFFFFFFFFFFFFFFFFFFFFFFFFFFFFFF AND EQ PUSH2 0x72B JUMPI PUSH1 0x40 MLOAD PUSH32 0x8C379A000000000000000000000000000000000000000000000000000000000 DUP2 MSTORE PUSH1 0x4 ADD PUSH2 0x722 SWAP1 PUSH2 0x139E JUMP JUMPDEST PUSH1 0x40 MLOAD DUP1 SWAP2 SUB SWAP1 REVERT JUMPDEST PUSH1 0x0 PUSH20 0xFFFFFFFFFFFFFFFFFFFFFFFFFFFFFFFFFFFFFFFF AND DUP2 PUSH20 0xFFFFFFFFFFFFFFFFFFFFFFFFFFFFFFFFFFFFFFFF AND SUB PUSH2 0x79A JUMPI PUSH1 0x40 MLOAD PUSH32 0x8C379A000000000000000000000000000000000000000000000000000000000 DUP2 MSTORE PUSH1 0x4 ADD PUSH2 0x791 SWAP1 PUSH2 0x1578 JUMP JUMPDEST PUSH1 0x40 MLOAD DUP1 SWAP2 SUB SWAP1 REVERT JUMPDEST PUSH2 0x7A3 DUP2 PUSH2 0xA76 JUMP JUMPDEST POP JUMP JUMPDEST DUP4 PUSH20 0xFFFFFFFFFFFFFFFFFFFFFFFFFFFFFFFFFFFFFFFF AND CALLER PUSH20 0xFFFFFFFFFFFFFFFFFFFFFFFFFFFFFFFFFFFFFFFF AND EQ PUSH2 0x814 JUMPI PUSH1 0x40 MLOAD PUSH32 0x8C379A000000000000000000000000000000000000000000000000000000000 DUP2 MSTORE PUSH1 0x4 ADD PUSH2 0x80B SWAP1 PUSH2 0x1279 JUMP JUMPDEST PUSH1 0x40 MLOAD DUP1 SWAP2 SUB SWAP1 REVERT JUMPDEST PUSH1 0x2 PUSH1 0x0 DUP4 DUP2 MSTORE PUSH1 0x20 ADD SWAP1 DUP2 MSTORE PUSH1 0x20 ADD PUSH1 0x0 KECCAK256 PUSH1 0x0 SWAP1 SLOAD SWAP1 PUSH2 0x100 EXP SWAP1 DIV PUSH20 0xFFFFFFFFFFFFFFFFFFFFFFFFFFFFFFFFFFFFFFFF AND PUSH20 0xFFFFFFFFFFFFFFFFFFFFFFFFFFFFFFFFFFFFFFFF AND DUP5 PUSH20 0xFFFFFFFFFFFFFFFFFFFFFFFFFFFFFFFFFFFFFFFF AND EQ PUSH2 0x8B5 JUMPI PUSH1 0x40 MLOAD PUSH32 0x8C379A000000000000000000000000000000000000000000000000000000000 DUP2 MSTORE PUSH1 0x4 ADD PUSH2 0x8AC SWAP1 PUSH2 0x1279 JUMP JUMPDEST PUSH1 0x40 MLOAD DUP1 SWAP2 SUB SWAP1 REVERT JUMPDEST PUSH1 0x1 DUP1 PUSH1 0x0 DUP7 PUSH20 0xFFFFFFFFFFFFFFFFFFFFFFFFFFFFFFFFFFFFFFFF AND PUSH20 0xFFFFFFFFFFFFFFFFFFFFFFFFFFFFFFFFFFFFFFFF AND DUP2 MSTORE PUSH1 0x20 ADD SWAP1 DUP2 MSTORE PUSH1 0x20 ADD PUSH1 0x0 KECCAK256 PUSH1 0x0 DUP3 DUP3 SLOAD PUSH2 0x904 SWAP2 SWAP1 PUSH2 0x12C8 JUMP JUMPDEST SWAP3 POP POP DUP2 SWAP1 SSTORE POP PUSH1 0x1 DUP1 PUSH1 0x0 DUP6 PUSH20 0xFFFFFFFFFFFFFFFFFFFFFFFFFFFFFFFFFFFFFFFF AND PUSH20 0xFFFFFFFFFFFFFFFFFFFFFFFFFFFFFFFFFFFFFFFF AND DUP2 MSTORE PUSH1 0x20 ADD SWAP1 DUP2 MSTORE PUSH1 0x20 ADD PUSH1 0x0 KECCAK256 PUSH1 0x0 DUP3 DUP3 SLOAD PUSH2 0x95A SWAP2 SWAP1 PUSH2 0x12FC JUMP JUMPDEST SWAP3 POP POP DUP2 SWAP1 SSTORE POP DUP2 DUP4 PUSH20 0xFFFFFFFFFFFFFFFFFFFFFFFFFFFFFFFFFFFFFFFF AND DUP6 PUSH20 0xFFFFFFFFFFFFFFFFFFFFFFFFFFFFFFFFFFFFFFFF AND PUSH32 0xDDF252AD1BE2C89B69C2B068FC378DAA952BA7F163C4A11628F55A4DF523B3EF PUSH1 0x40 MLOAD PUSH1 0x40 MLOAD DUP1 SWAP2 SUB SWAP1 LOG4 PUSH2 0x9DB DUP4 PUSH20 0xFFFFFFFFFFFFFFFFFFFFFFFFFFFFFFFFFFFFFFFF AND PUSH2 0xD2B JUMP JUMPDEST ISZERO PUSH2 0xA68 JUMPI PUSH1 0x0 DUP4 PUSH20 0xFFFFFFFFFFFFFFFFFFFFFFFFFFFFFFFFFFFFFFFF AND PUSH4 0x150B7A02 CALLER DUP8 DUP7 DUP7 PUSH1 0x40 MLOAD DUP6 PUSH4 0xFFFFFFFF AND PUSH1 0xE0 SHL DUP2 MSTORE PUSH1 0x4 ADD PUSH2 0xA21 SWAP5 SWAP4 SWAP3 SWAP2 SWAP1 PUSH2 0x15ED JUMP JUMPDEST PUSH1 0x20 PUSH1 0x40 MLOAD DUP1 DUP4 SUB DUP2 PUSH1 0x0 DUP8 GAS CALL ISZERO DUP1 ISZERO PUSH2 0xA40 JUMPI RETURNDATASIZE PUSH1 0x0 DUP1 RETURNDATACOPY RETURNDATASIZE PUSH1 0x0 REVERT JUMPDEST POP POP POP POP PUSH1 0x40 MLOAD RETURNDATASIZE PUSH1 0x1F NOT PUSH1 0x1F DUP3 ADD AND DUP3 ADD DUP1 PUSH1 0x40 MSTORE POP DUP2 ADD SWAP1 PUSH2 0xA64 SWAP2 SWAP1 PUSH2 0x1665 JUMP JUMPDEST SWAP1 POP POP JUMPDEST POP POP POP POP JUMP JUMPDEST PUSH1 0x0 CALLER SWAP1 POP SWAP1 JUMP JUMPDEST PUSH1 0x0 DUP1 PUSH1 0x0 SWAP1 SLOAD SWAP1 PUSH2 0x100 EXP SWAP1 DIV PUSH20 0xFFFFFFFFFFFFFFFFFFFFFFFFFFFFFFFFFFFFFFFF AND SWAP1 POP DUP2 PUSH1 0x0 DUP1 PUSH2 0x100 EXP DUP2 SLOAD DUP2 PUSH20 0xFFFFFFFFFFFFFFFFFFFFFFFFFFFFFFFFFFFFFFFF MUL NOT AND SWAP1 DUP4 PUSH20 0xFFFFFFFFFFFFFFFFFFFFFFFFFFFFFFFFFFFFFFFF AND MUL OR SWAP1 SSTORE POP DUP2 PUSH20 0xFFFFFFFFFFFFFFFFFFFFFFFFFFFFFFFFFFFFFFFF AND DUP2 PUSH20 0xFFFFFFFFFFFFFFFFFFFFFFFFFFFFFFFFFFFFFFFF AND PUSH32 0x8BE0079C531659141344CD1FD0A4F28419497F9722A3DAAFE3B4186F6B6457E0 PUSH1 0x40 MLOAD PUSH1 0x40 MLOAD DUP1 SWAP2 SUB SWAP1 LOG3 POP POP JUMP JUMPDEST PUSH1 0x0 PUSH20 0xFFFFFFFFFFFFFFFFFFFFFFFFFFFFFFFFFFFFFFFF AND DUP4 PUSH20 0xFFFFFFFFFFFFFFFFFFFFFFFFFFFFFFFFFFFFFFFF AND SUB PUSH2 0xBA9 JUMPI PUSH1 0x40 MLOAD PUSH32 0x8C379A000000000000000000000000000000000000000000000000000000000 DUP2 MSTORE PUSH1 0x4 ADD PUSH2 0xBA0 SWAP1 PUSH2 0x1704 JUMP JUMPDEST PUSH1 0x40 MLOAD DUP1 SWAP2 SUB SWAP1 REVERT JUMPDEST PUSH1 0x0 PUSH20 0xFFFFFFFFFFFFFFFFFFFFFFFFFFFFFFFFFFFFFFFF AND DUP3 PUSH20 0xFFFFFFFFFFFFFFFFFFFFFFFFFFFFFFFFFFFFFFFF AND SUB PUSH2 0xC18 JUMPI PUSH1 0x40 MLOAD PUSH32 0x8C379A000000000000000000000000000000000000000000000000000000000 DUP2 MSTORE PUSH1 0x4 ADD PUSH2 0xC0F SWAP1 PUSH2 0x1796 JUMP JUMPDEST PUSH1 0x40 MLOAD DUP1 SWAP2 SUB SWAP1 REVERT JUMPDEST PUSH2 0xC23 DUP4 DUP4 DUP4 PUSH2 0xD4E JUMP JUMPDEST DUP2 PUSH1 0x2 PUSH1 0x0 DUP4 DUP2 MSTORE PUSH1 0x20 ADD SWAP1 DUP2 MSTORE PUSH1 0x20 ADD PUSH1 0x0 KECCAK256 PUSH1 0x0 PUSH2 0x100 EXP DUP2 SLOAD DUP2 PUSH20 0xFFFFFFFFFFFFFFFFFFFFFFFFFFFFFFFFFFFFFFFF MUL NOT AND SWAP1 DUP4 PUSH20 0xFFFFFFFFFFFFFFFFFFFFFFFFFFFFFFFFFFFFFFFF AND MUL OR SWAP1 SSTORE POP PUSH1 0x1 DUP1 PUSH1 0x0 DUP5 PUSH20 0xFFFFFFFFFFFFFFFFFFFFFFFFFFFFFFFFFFFFFFFF AND PUSH20 0xFFFFFFFFFFFFFFFFFFFFFFFFFFFFFFFFFFFFFFFF AND DUP2 MSTORE PUSH1 0x20 ADD SWAP1 DUP2 MSTORE PUSH1 0x20 ADD PUSH1 0x0 KECCAK256 PUSH1 0x0 DUP3 DUP3 SLOAD PUSH2 0xCC4 SWAP2 SWAP1 PUSH2 0x12FC JUMP JUMPDEST SWAP3 POP POP DUP2 SWAP1 SSTORE POP DUP1 DUP3 PUSH20 0xFFFFFFFFFFFFFFFFFFFFFFFFFFFFFFFFFFFFFFFF AND DUP5 PUSH20 0xFFFFFFFFFFFFFFFFFFFFFFFFFFFFFFFFFFFFFFFF AND PUSH32 0xDDF252AD1BE2C89B69C2B068FC378DAA952BA7F163C4A11628F55A4DF523B3EF PUSH1 0x40 MLOAD PUSH1 0x40 MLOAD DUP1 SWAP2 SUB SWAP1 LOG4 POP POP POP JUMP JUMPDEST PUSH1 0x0 DUP1 DUP3 PUSH20 0xFFFFFFFFFFFFFFFFFFFFFFFFFFFFFFFFFFFFFFFF AND EXTCODESIZE GT SWAP1 POP SWAP2 SWAP1 POP JUMP JUMPDEST DUP3 PUSH20 0xFFFFFFFFFFFFFFFFFFFFFFFFFFFFFFFFFFFFFFFF AND PUSH1 0x2 PUSH1 0x0 DUP4 DUP2 MSTORE PUSH1 0x20 ADD SWAP1 DUP2 MSTORE PUSH1 0x20 ADD PUSH1 0x0 KECCAK256 PUSH1 0x0 SWAP1 SLOAD SWAP1 PUSH2 0x100 EXP SWAP1 DIV PUSH20 0xFFFFFFFFFFFFFFFFFFFFFFFFFFFFFFFFFFFFFFFF AND PUSH20 0xFFFFFFFFFFFFFFFFFFFFFFFFFFFFFFFFFFFFFFFF AND EQ PUSH2 0xDEF JUMPI PUSH1 0x40 MLOAD PUSH32 0x8C379A000000000000000000000000000000000000000000000000000000000 DUP2 MSTORE PUSH1 0x4 ADD PUSH2 0xDE6 SWAP1 PUSH2 0x1802 JUMP JUMPDEST PUSH1 0x40 MLOAD DUP1 SWAP2 SUB SWAP1 REVERT JUMPDEST POP POP POP JUMP JUMPDEST PUSH1 0x0 DUP1 REVERT JUMPDEST PUSH1 0x0 DUP1 REVERT JUMPDEST PUSH1 0x0 PUSH20 0xFFFFFFFFFFFFFFFFFFFFFFFFFFFFFFFFFFFFFFFF DUP3 AND SWAP1 POP SWAP2 SWAP1 POP JUMP JUMPDEST PUSH1 0x0 PUSH2 0xE29 DUP3 PUSH2 0xDFE JUMP JUMPDEST SWAP1 POP SWAP2 SWAP1 POP JUMP JUMPDEST PUSH2 0xE39 DUP2 PUSH2 0xE1E JUMP JUMPDEST DUP2 EQ PUSH2 0xE44 JUMPI PUSH1 0x0 DUP1 REVERT JUMPDEST POP JUMP JUMPDEST PUSH1 0x0 DUP2 CALLDATALOAD SWAP1 POP PUSH2 0xE56 DUP2 PUSH2 0xE30 JUMP JUMPDEST SWAP3 SWAP2 POP POP JUMP JUMPDEST PUSH1 0x0 DUP2 SWAP1 POP SWAP2 SWAP1 POP JUMP JUMPDEST PUSH2 0xE6F DUP2 PUSH2 0xE5C JUMP JUMPDEST DUP2 EQ PUSH2 0xE7A JUMPI PUSH1 0x0 DUP1 REVERT JUMPDEST POP JUMP JUMPDEST PUSH1 0x0 DUP2 CALLDATALOAD SWAP1 POP PUSH2 0xE8C DUP2 PUSH2 0xE66 JUMP JUMPDEST SWAP3 SWAP2 POP POP JUMP JUMPDEST PUSH1 0x0 DUP1 REVERT JUMPDEST PUSH1 0x0 DUP1 REVERT JUMPDEST PUSH1 0x0 DUP1 REVERT JUMPDEST PUSH1 0x0 DUP1 DUP4 PUSH1 0x1F DUP5 ADD SLT PUSH2 0xEB7 JUMPI PUSH2 0xEB6 PUSH2 0xE92 JUMP JUMPDEST JUMPDEST DUP3 CALLDATALOAD SWAP1 POP PUSH8 0xFFFFFFFFFFFFFFFF DUP2 GT ISZERO PUSH2 0xED4 JUMPI PUSH2 0xED3 PUSH2 0xE97 JUMP JUMPDEST JUMPDEST PUSH1 0x20 DUP4 ADD SWAP2 POP DUP4 PUSH1 0x1 DUP3 MUL DUP4 ADD GT ISZERO PUSH2 0xEF0 JUMPI PUSH2 0xEEF PUSH2 0xE9C JUMP JUMPDEST JUMPDEST SWAP3 POP SWAP3 SWAP1 POP JUMP JUMPDEST PUSH1 0x0 DUP1 PUSH1 0x0 DUP1 PUSH1 0x0 PUSH1 0x80 DUP7 DUP9 SUB SLT ISZERO PUSH2 0xF13 JUMPI PUSH2 0xF12 PUSH2 0xDF4 JUMP JUMPDEST JUMPDEST PUSH1 0x0 PUSH2 0xF21 DUP9 DUP3 DUP10 ADD PUSH2 0xE47 JUMP JUMPDEST SWAP6 POP POP PUSH1 0x20 PUSH2 0xF32 DUP9 DUP3 DUP10 ADD PUSH2 0xE47 JUMP JUMPDEST SWAP5 POP POP PUSH1 0x40 PUSH2 0xF43 DUP9 DUP3 DUP10 ADD PUSH2 0xE7D JUMP JUMPDEST SWAP4 POP POP PUSH1 0x60 DUP7 ADD CALLDATALOAD PUSH8 0xFFFFFFFFFFFFFFFF DUP2 GT ISZERO PUSH2 0xF64 JUMPI PUSH2 0xF63 PUSH2 0xDF9 JUMP JUMPDEST JUMPDEST PUSH2 0xF70 DUP9 DUP3 DUP10 ADD PUSH2 0xEA1 JUMP JUMPDEST SWAP3 POP SWAP3 POP POP SWAP3 SWAP6 POP SWAP3 SWAP6 SWAP1 SWAP4 POP JUMP JUMPDEST PUSH1 0x0 PUSH32 0xFFFFFFFF00000000000000000000000000000000000000000000000000000000 DUP3 AND SWAP1 POP SWAP2 SWAP1 POP JUMP JUMPDEST PUSH2 0xFB4 DUP2 PUSH2 0xF7F JUMP JUMPDEST DUP3 MSTORE POP POP JUMP JUMPDEST PUSH1 0x0 PUSH1 0x20 DUP3 ADD SWAP1 POP PUSH2 0xFCF PUSH1 0x0 DUP4 ADD DUP5 PUSH2 0xFAB JUMP JUMPDEST SWAP3 SWAP2 POP POP JUMP JUMPDEST PUSH1 0x0 DUP1 PUSH1 0x0 PUSH1 0x60 DUP5 DUP7 SUB SLT ISZERO PUSH2 0xFEE JUMPI PUSH2 0xFED PUSH2 0xDF4 JUMP JUMPDEST JUMPDEST PUSH1 0x0 PUSH2 0xFFC DUP7 DUP3 DUP8 ADD PUSH2 0xE47 JUMP JUMPDEST SWAP4 POP POP PUSH1 0x20 PUSH2 0x100D DUP7 DUP3 DUP8 ADD PUSH2 0xE47 JUMP JUMPDEST SWAP3 POP POP PUSH1 0x40 PUSH2 0x101E DUP7 DUP3 DUP8 ADD PUSH2 0xE7D JUMP JUMPDEST SWAP2 POP POP SWAP3 POP SWAP3 POP SWAP3 JUMP JUMPDEST PUSH1 0x0 PUSH1 0x20 DUP3 DUP5 SUB SLT ISZERO PUSH2 0x103E JUMPI PUSH2 0x103D PUSH2 0xDF4 JUMP JUMPDEST JUMPDEST PUSH1 0x0 PUSH2 0x104C DUP5 DUP3 DUP6 ADD PUSH2 0xE7D JUMP JUMPDEST SWAP2 POP POP SWAP3 SWAP2 POP POP JUMP JUMPDEST PUSH2 0x105E DUP2 PUSH2 0xE1E JUMP JUMPDEST DUP3 MSTORE POP POP JUMP JUMPDEST PUSH1 0x0 PUSH1 0x20 DUP3 ADD SWAP1 POP PUSH2 0x1079 PUSH1 0x0 DUP4 ADD DUP5 PUSH2 0x1055 JUMP JUMPDEST SWAP3 SWAP2 POP POP JUMP JUMPDEST PUSH1 0x0 PUSH1 0x20 DUP3 DUP5 SUB SLT ISZERO PUSH2 0x1095 JUMPI PUSH2 0x1094 PUSH2 0xDF4 JUMP JUMPDEST JUMPDEST PUSH1 0x0 PUSH2 0x10A3 DUP5 DUP3 DUP6 ADD PUSH2 0xE47 JUMP JUMPDEST SWAP2 POP POP SWAP3 SWAP2 POP POP JUMP JUMPDEST PUSH2 0x10B5 DUP2 PUSH2 0xE5C JUMP JUMPDEST DUP3 MSTORE POP POP JUMP JUMPDEST PUSH1 0x0 PUSH1 0x20 DUP3 ADD SWAP1 POP PUSH2 0x10D0 PUSH1 0x0 DUP4 ADD DUP5 PUSH2 0x10AC JUMP JUMPDEST SWAP3 SWAP2 POP POP JUMP JUMPDEST PUSH1 0x0 DUP1 PUSH1 0x40 DUP4 DUP6 SUB SLT ISZERO PUSH2 0x10ED JUMPI PUSH2 0x10EC PUSH2 0xDF4 JUMP JUMPDEST JUMPDEST PUSH1 0x0 PUSH2 0x10FB DUP6 DUP3 DUP7 ADD PUSH2 0xE47 JUMP JUMPDEST SWAP3 POP POP PUSH1 0x20 PUSH2 0x110C DUP6 DUP3 DUP7 ADD PUSH2 0xE7D JUMP JUMPDEST SWAP2 POP POP SWAP3 POP SWAP3 SWAP1 POP JUMP JUMPDEST PUSH1 0x0 DUP2 ISZERO ISZERO SWAP1 POP SWAP2 SWAP1 POP JUMP JUMPDEST PUSH2 0x112B DUP2 PUSH2 0x1116 JUMP JUMPDEST DUP3 MSTORE POP POP JUMP JUMPDEST PUSH1 0x0 PUSH1 0x20 DUP3 ADD SWAP1 POP PUSH2 0x1146 PUSH1 0x0 DUP4 ADD DUP5 PUSH2 0x1122 JUMP JUMPDEST SWAP3 SWAP2 POP POP JUMP JUMPDEST PUSH1 0x0 DUP2 MLOAD SWAP1 POP SWAP2 SWAP1 POP JUMP JUMPDEST PUSH1 0x0 DUP3 DUP3 MSTORE PUSH1 0x20 DUP3 ADD SWAP1 POP SWAP3 SWAP2 POP POP JUMP JUMPDEST PUSH1 0x0 JUMPDEST DUP4 DUP2 LT ISZERO PUSH2 0x1186 JUMPI DUP1 DUP3 ADD MLOAD DUP2 DUP5 ADD MSTORE PUSH1 0x20 DUP2 ADD SWAP1 POP PUSH2 0x116B JUMP JUMPDEST DUP4 DUP2 GT ISZERO PUSH2 0x1195 JUMPI PUSH1 0x0 DUP5 DUP5 ADD MSTORE JUMPDEST POP POP POP POP JUMP JUMPDEST PUSH1 0x0 PUSH1 0x1F NOT PUSH1 0x1F DUP4 ADD AND SWAP1 POP SWAP2 SWAP1 POP JUMP JUMPDEST PUSH1 0x0 PUSH2 0x11B7 DUP3 PUSH2 0x114C JUMP JUMPDEST PUSH2 0x11C1 DUP2 DUP6 PUSH2 0x1157 JUMP JUMPDEST SWAP4 POP PUSH2 0x11D1 DUP2 DUP6 PUSH1 0x20 DUP7 ADD PUSH2 0x1168 JUMP JUMPDEST PUSH2 0x11DA DUP2 PUSH2 0x119B JUMP JUMPDEST DUP5 ADD SWAP2 POP POP SWAP3 SWAP2 POP POP JUMP JUMPDEST PUSH1 0x0 PUSH1 0x20 DUP3 ADD SWAP1 POP DUP2 DUP2 SUB PUSH1 0x0 DUP4 ADD MSTORE PUSH2 0x11FF DUP2 DUP5 PUSH2 0x11AC JUMP JUMPDEST SWAP1 POP SWAP3 SWAP2 POP POP JUMP JUMPDEST PUSH32 0x4552433732313A2043616E277420417574686F72697A65642074686520747261 PUSH1 0x0 DUP3 ADD MSTORE PUSH32 0x6E7366657220746F6B656E000000000000000000000000000000000000000000 PUSH1 0x20 DUP3 ADD MSTORE POP JUMP JUMPDEST PUSH1 0x0 PUSH2 0x1263 PUSH1 0x2B DUP4 PUSH2 0x1157 JUMP JUMPDEST SWAP2 POP PUSH2 0x126E DUP3 PUSH2 0x1207 JUMP JUMPDEST PUSH1 0x40 DUP3 ADD SWAP1 POP SWAP2 SWAP1 POP JUMP JUMPDEST PUSH1 0x0 PUSH1 0x20 DUP3 ADD SWAP1 POP DUP2 DUP2 SUB PUSH1 0x0 DUP4 ADD MSTORE PUSH2 0x1292 DUP2 PUSH2 0x1256 JUMP JUMPDEST SWAP1 POP SWAP2 SWAP1 POP JUMP JUMPDEST PUSH32 0x4E487B7100000000000000000000000000000000000000000000000000000000 PUSH1 0x0 MSTORE PUSH1 0x11 PUSH1 0x4 MSTORE PUSH1 0x24 PUSH1 0x0 REVERT JUMPDEST PUSH1 0x0 PUSH2 0x12D3 DUP3 PUSH2 0xE5C JUMP JUMPDEST SWAP2 POP PUSH2 0x12DE DUP4 PUSH2 0xE5C JUMP JUMPDEST SWAP3 POP DUP3 DUP3 LT ISZERO PUSH2 0x12F1 JUMPI PUSH2 0x12F0 PUSH2 0x1299 JUMP JUMPDEST JUMPDEST DUP3 DUP3 SUB SWAP1 POP SWAP3 SWAP2 POP POP JUMP JUMPDEST PUSH1 0x0 PUSH2 0x1307 DUP3 PUSH2 0xE5C JUMP JUMPDEST SWAP2 POP PUSH2 0x1312 DUP4 PUSH2 0xE5C JUMP JUMPDEST SWAP3 POP DUP3 PUSH32 0xFFFFFFFFFFFFFFFFFFFFFFFFFFFFFFFFFFFFFFFFFFFFFFFFFFFFFFFFFFFFFFFF SUB DUP3 GT ISZERO PUSH2 0x1347 JUMPI PUSH2 0x1346 PUSH2 0x1299 JUMP JUMPDEST JUMPDEST DUP3 DUP3 ADD SWAP1 POP SWAP3 SWAP2 POP POP JUMP JUMPDEST PUSH32 0x4F776E61626C653A2063616C6C6572206973206E6F7420746865206F776E6572 PUSH1 0x0 DUP3 ADD MSTORE POP JUMP JUMPDEST PUSH1 0x0 PUSH2 0x1388 PUSH1 0x20 DUP4 PUSH2 0x1157 JUMP JUMPDEST SWAP2 POP PUSH2 0x1393 DUP3 PUSH2 0x1352 JUMP JUMPDEST PUSH1 0x20 DUP3 ADD SWAP1 POP SWAP2 SWAP1 POP JUMP JUMPDEST PUSH1 0x0 PUSH1 0x20 DUP3 ADD SWAP1 POP DUP2 DUP2 SUB PUSH1 0x0 DUP4 ADD MSTORE PUSH2 0x13B7 DUP2 PUSH2 0x137B JUMP JUMPDEST SWAP1 POP SWAP2 SWAP1 POP JUMP JUMPDEST PUSH32 0x4E487B7100000000000000000000000000000000000000000000000000000000 PUSH1 0x0 MSTORE PUSH1 0x22 PUSH1 0x4 MSTORE PUSH1 0x24 PUSH1 0x0 REVERT JUMPDEST PUSH1 0x0 PUSH1 0x2 DUP3 DIV SWAP1 POP PUSH1 0x1 DUP3 AND DUP1 PUSH2 0x1405 JUMPI PUSH1 0x7F DUP3 AND SWAP2 POP JUMPDEST PUSH1 0x20 DUP3 LT DUP2 SUB PUSH2 0x1418 JUMPI PUSH2 0x1417 PUSH2 0x13BE JUMP JUMPDEST JUMPDEST POP SWAP2 SWAP1 POP JUMP JUMPDEST PUSH1 0x0 DUP2 SWAP1 POP SWAP3 SWAP2 POP POP JUMP JUMPDEST PUSH1 0x0 DUP2 SWAP1 POP DUP2 PUSH1 0x0 MSTORE PUSH1 0x20 PUSH1 0x0 KECCAK256 SWAP1 POP SWAP2 SWAP1 POP JUMP JUMPDEST PUSH1 0x0 DUP2 SLOAD PUSH2 0x144B DUP2 PUSH2 0x13ED JUMP JUMPDEST PUSH2 0x1455 DUP2 DUP7 PUSH2 0x141E JUMP JUMPDEST SWAP5 POP PUSH1 0x1 DUP3 AND PUSH1 0x0 DUP2 EQ PUSH2 0x1470 JUMPI PUSH1 0x1 DUP2 EQ PUSH2 0x1481 JUMPI PUSH2 0x14B4 JUMP JUMPDEST PUSH1 0xFF NOT DUP4 AND DUP7 MSTORE DUP2 DUP7 ADD SWAP4 POP PUSH2 0x14B4 JUMP JUMPDEST PUSH2 0x148A DUP6 PUSH2 0x1429 JUMP JUMPDEST PUSH1 0x0 JUMPDEST DUP4 DUP2 LT ISZERO PUSH2 0x14AC JUMPI DUP2 SLOAD DUP2 DUP10 ADD MSTORE PUSH1 0x1 DUP3 ADD SWAP2 POP PUSH1 0x20 DUP2 ADD SWAP1 POP PUSH2 0x148D JUMP JUMPDEST DUP4 DUP9 ADD SWAP6 POP POP POP JUMPDEST POP POP POP SWAP3 SWAP2 POP POP JUMP JUMPDEST PUSH1 0x0 DUP2 SWAP1 POP SWAP2 SWAP1 POP JUMP JUMPDEST PUSH2 0x14D8 PUSH2 0x14D3 DUP3 PUSH2 0xE5C JUMP JUMPDEST PUSH2 0x14BD JUMP JUMPDEST DUP3 MSTORE POP POP JUMP JUMPDEST PUSH1 0x0 PUSH2 0x14EA DUP3 DUP6 PUSH2 0x143E JUMP JUMPDEST SWAP2 POP PUSH2 0x14F6 DUP3 DUP5 PUSH2 0x14C7 JUMP JUMPDEST PUSH1 0x20 DUP3 ADD SWAP2 POP DUP2 SWAP1 POP SWAP4 SWAP3 POP POP POP JUMP JUMPDEST PUSH32 0x4F776E61626C653A206E6577206F776E657220697320746865207A65726F2061 PUSH1 0x0 DUP3 ADD MSTORE PUSH32 0x6464726573730000000000000000000000000000000000000000000000000000 PUSH1 0x20 DUP3 ADD MSTORE POP JUMP JUMPDEST PUSH1 0x0 PUSH2 0x1562 PUSH1 0x26 DUP4 PUSH2 0x1157 JUMP JUMPDEST SWAP2 POP PUSH2 0x156D DUP3 PUSH2 0x1506 JUMP JUMPDEST PUSH1 0x40 DUP3 ADD SWAP1 POP SWAP2 SWAP1 POP JUMP JUMPDEST PUSH1 0x0 PUSH1 0x20 DUP3 ADD SWAP1 POP DUP2 DUP2 SUB PUSH1 0x0 DUP4 ADD MSTORE PUSH2 0x1591 DUP2 PUSH2 0x1555 JUMP JUMPDEST SWAP1 POP SWAP2 SWAP1 POP JUMP JUMPDEST PUSH1 0x0 DUP2 MLOAD SWAP1 POP SWAP2 SWAP1 POP JUMP JUMPDEST PUSH1 0x0 DUP3 DUP3 MSTORE PUSH1 0x20 DUP3 ADD SWAP1 POP SWAP3 SWAP2 POP POP JUMP JUMPDEST PUSH1 0x0 PUSH2 0x15BF DUP3 PUSH2 0x1598 JUMP JUMPDEST PUSH2 0x15C9 DUP2 DUP6 PUSH2 0x15A3 JUMP JUMPDEST SWAP4 POP PUSH2 0x15D9 DUP2 DUP6 PUSH1 0x20 DUP7 ADD PUSH2 0x1168 JUMP JUMPDEST PUSH2 0x15E2 DUP2 PUSH2 0x119B JUMP JUMPDEST DUP5 ADD SWAP2 POP POP SWAP3 SWAP2 POP POP JUMP JUMPDEST PUSH1 0x0 PUSH1 0x80 DUP3 ADD SWAP1 POP PUSH2 0x1602 PUSH1 0x0 DUP4 ADD DUP8 PUSH2 0x1055 JUMP JUMPDEST PUSH2 0x160F PUSH1 0x20 DUP4 ADD DUP7 PUSH2 0x1055 JUMP JUMPDEST PUSH2 0x161C PUSH1 0x40 DUP4 ADD DUP6 PUSH2 0x10AC JUMP JUMPDEST DUP2 DUP2 SUB PUSH1 0x60 DUP4 ADD MSTORE PUSH2 0x162E DUP2 DUP5 PUSH2 0x15B4 JUMP JUMPDEST SWAP1 POP SWAP6 SWAP5 POP POP POP POP POP JUMP JUMPDEST PUSH2 0x1642 DUP2 PUSH2 0xF7F JUMP JUMPDEST DUP2 EQ PUSH2 0x164D JUMPI PUSH1 0x0 DUP1 REVERT JUMPDEST POP JUMP JUMPDEST PUSH1 0x0 DUP2 MLOAD SWAP1 POP PUSH2 0x165F DUP2 PUSH2 0x1639 JUMP JUMPDEST SWAP3 SWAP2 POP POP JUMP JUMPDEST PUSH1 0x0 PUSH1 0x20 DUP3 DUP5 SUB SLT ISZERO PUSH2 0x167B JUMPI PUSH2 0x167A PUSH2 0xDF4 JUMP JUMPDEST JUMPDEST PUSH1 0x0 PUSH2 0x1689 DUP5 DUP3 DUP6 ADD PUSH2 0x1650 JUMP JUMPDEST SWAP2 POP POP SWAP3 SWAP2 POP POP JUMP JUMPDEST PUSH32 0x4552433732313A207472616E736665722066726F6D20746865207A65726F2061 PUSH1 0x0 DUP3 ADD MSTORE PUSH32 0x6464726573730000000000000000000000000000000000000000000000000000 PUSH1 0x20 DUP3 ADD MSTORE POP JUMP JUMPDEST PUSH1 0x0 PUSH2 0x16EE PUSH1 0x26 DUP4 PUSH2 0x1157 JUMP JUMPDEST SWAP2 POP PUSH2 0x16F9 DUP3 PUSH2 0x1692 JUMP JUMPDEST PUSH1 0x40 DUP3 ADD SWAP1 POP SWAP2 SWAP1 POP JUMP JUMPDEST PUSH1 0x0 PUSH1 0x20 DUP3 ADD SWAP1 POP DUP2 DUP2 SUB PUSH1 0x0 DUP4 ADD MSTORE PUSH2 0x171D DUP2 PUSH2 0x16E1 JUMP JUMPDEST SWAP1 POP SWAP2 SWAP1 POP JUMP JUMPDEST PUSH32 0x4552433732313A207472616E7366657220746F20746865207A65726F20616464 PUSH1 0x0 DUP3 ADD MSTORE PUSH32 0x7265737300000000000000000000000000000000000000000000000000000000 PUSH1 0x20 DUP3 ADD MSTORE POP JUMP JUMPDEST PUSH1 0x0 PUSH2 0x1780 PUSH1 0x24 DUP4 PUSH2 0x1157 JUMP JUMPDEST SWAP2 POP PUSH2 0x178B DUP3 PUSH2 0x1724 JUMP JUMPDEST PUSH1 0x40 DUP3 ADD SWAP1 POP SWAP2 SWAP1 POP JUMP JUMPDEST PUSH1 0x0 PUSH1 0x20 DUP3 ADD SWAP1 POP DUP2 DUP2 SUB PUSH1 0x0 DUP4 ADD MSTORE PUSH2 0x17AF DUP2 PUSH2 0x1773 JUMP JUMPDEST SWAP1 POP SWAP2 SWAP1 POP JUMP JUMPDEST PUSH32 0x4552433732313A207472616E73666572206E6F74206F776E657220746F6B656E PUSH1 0x0 DUP3 ADD MSTORE POP JUMP JUMPDEST PUSH1 0x0 PUSH2 0x17EC PUSH1 0x20 DUP4 PUSH2 0x1157 JUMP JUMPDEST SWAP2 POP PUSH2 0x17F7 DUP3 PUSH2 0x17B6 JUMP JUMPDEST PUSH1 0x20 DUP3 ADD SWAP1 POP SWAP2 SWAP1 POP JUMP JUMPDEST PUSH1 0x0 PUSH1 0x20 DUP3 ADD SWAP1 POP DUP2 DUP2 SUB PUSH1 0x0 DUP4 ADD MSTORE PUSH2 0x181B DUP2 PUSH2 0x17DF JUMP JUMPDEST SWAP1 POP SWAP2 SWAP1 POP JUMP INVALID LOG2 PUSH5 0x6970667358 0x22 SLT KECCAK256 0xD1 SWAP15 DUP2 0xB9 CALL PUSH30 0x45F80CFFD688C0031A8728F7EAD68C9A6E78B5578189F04A20B964736F6C PUSH4 0x4300080D STOP CALLER "
				},
				"gasEstimates": {
					"creation": {
						"codeDepositCost": "1246400",
						"executionCost": "infinite",
						"totalCost": "infinite"
					},
					"external": {
						"balanceOf(address)": "2930",
						"onERC721Received(address,address,uint256,bytes)": "infinite",
						"owner()": "2544",
						"ownerOf(uint256)": "2932",
						"renounceOwnership()": "30374",
						"safeTransferFrom(address,address,uint256)": "infinite",
						"safeTransferFrom(address,address,uint256,bytes)": "infinite",
						"tokenURI(uint256)": "infinite",
						"transfer(address,uint256)": "infinite",
						"transferFrom(address,address,uint256)": "infinite",
						"transferOwnership(address)": "30830"
					},
					"internal": {
						"_beforeTokenTransfer(address,address,uint256)": "infinite",
						"_mint(address,uint256)": "infinite",
						"_safeTransferFrom(address,address,uint256,bytes memory)": "infinite",
						"_transfer(address,address,uint256)": "infinite"
					}
				},
				"methodIdentifiers": {
					"balanceOf(address)": "70a08231",
					"onERC721Received(address,address,uint256,bytes)": "150b7a02",
					"owner()": "8da5cb5b",
					"ownerOf(uint256)": "6352211e",
					"renounceOwnership()": "715018a6",
					"safeTransferFrom(address,address,uint256)": "42842e0e",
					"safeTransferFrom(address,address,uint256,bytes)": "b88d4fde",
					"tokenURI(uint256)": "c87b56dd",
					"transfer(address,uint256)": "a9059cbb",
					"transferFrom(address,address,uint256)": "23b872dd",
					"transferOwnership(address)": "f2fde38b"
				}
			},
			"storageLayout": {
				"storage": [
					{
						"astId": 305,
						"contract": "contracts/NFT_Demo/NFT.sol:ERC721",
						"label": "_owner",
						"offset": 0,
						"slot": "0",
						"type": "t_address"
					},
					{
						"astId": 506,
						"contract": "contracts/NFT_Demo/NFT.sol:ERC721",
						"label": "_ownerToTokenCount",
						"offset": 0,
						"slot": "1",
						"type": "t_mapping(t_address,t_uint256)"
					},
					{
						"astId": 510,
						"contract": "contracts/NFT_Demo/NFT.sol:ERC721",
						"label": "_idToOwner",
						"offset": 0,
						"slot": "2",
						"type": "t_mapping(t_uint256,t_address)"
					},
					{
						"astId": 514,
						"contract": "contracts/NFT_Demo/NFT.sol:ERC721",
						"label": "_tokenURIs",
						"offset": 0,
						"slot": "3",
						"type": "t_mapping(t_uint256,t_address)"
					},
					{
						"astId": 519,
						"contract": "contracts/NFT_Demo/NFT.sol:ERC721",
						"label": "_name",
						"offset": 0,
						"slot": "4",
						"type": "t_string_storage"
					},
					{
						"astId": 521,
						"contract": "contracts/NFT_Demo/NFT.sol:ERC721",
						"label": "_symbol",
						"offset": 0,
						"slot": "5",
						"type": "t_string_storage"
					},
					{
						"astId": 523,
						"contract": "contracts/NFT_Demo/NFT.sol:ERC721",
						"label": "_tokenURIBase",
						"offset": 0,
						"slot": "6",
						"type": "t_string_storage"
					}
				],
				"types": {
					"t_address": {
						"encoding": "inplace",
						"label": "address",
						"numberOfBytes": "20"
					},
					"t_mapping(t_address,t_uint256)": {
						"encoding": "mapping",
						"key": "t_address",
						"label": "mapping(address => uint256)",
						"numberOfBytes": "32",
						"value": "t_uint256"
					},
					"t_mapping(t_uint256,t_address)": {
						"encoding": "mapping",
						"key": "t_uint256",
						"label": "mapping(uint256 => address)",
						"numberOfBytes": "32",
						"value": "t_address"
					},
					"t_string_storage": {
						"encoding": "bytes",
						"label": "string",
						"numberOfBytes": "32"
					},
					"t_uint256": {
						"encoding": "inplace",
						"label": "uint256",
						"numberOfBytes": "32"
					}
				}
			},
			"userdoc": {
				"kind": "user",
				"methods": {},
				"version": 1
			}
		}
	}
}