{
	"contracts/NFT_Demo/NFT.sol": {
		"ERC721": {
			"abi": [
				{
					"inputs": [
						{
							"internalType": "string",
							"name": "name_",
							"type": "string"
						},
						{
							"internalType": "string",
							"name": "symbol_",
							"type": "string"
						}
					],
					"stateMutability": "nonpayable",
					"type": "constructor"
				},
				{
					"anonymous": false,
					"inputs": [
						{
							"indexed": true,
							"internalType": "address",
							"name": "owner",
							"type": "address"
						},
						{
							"indexed": true,
							"internalType": "address",
							"name": "approved",
							"type": "address"
						},
						{
							"indexed": true,
							"internalType": "uint256",
							"name": "tokenId",
							"type": "uint256"
						}
					],
					"name": "Approval",
					"type": "event"
				},
				{
					"anonymous": false,
					"inputs": [
						{
							"indexed": true,
							"internalType": "address",
							"name": "owner",
							"type": "address"
						},
						{
							"indexed": true,
							"internalType": "address",
							"name": "operator",
							"type": "address"
						},
						{
							"indexed": false,
							"internalType": "bool",
							"name": "approved",
							"type": "bool"
						}
					],
					"name": "ApprovalForAll",
					"type": "event"
				},
				{
					"anonymous": false,
					"inputs": [
						{
							"indexed": true,
							"internalType": "uint256",
							"name": "_tokenId",
							"type": "uint256"
						}
					],
					"name": "NewItem",
					"type": "event"
				},
				{
					"anonymous": false,
					"inputs": [
						{
							"indexed": true,
							"internalType": "address",
							"name": "previousOwner",
							"type": "address"
						},
						{
							"indexed": true,
							"internalType": "address",
							"name": "newOwner",
							"type": "address"
						}
					],
					"name": "OwnershipTransferred",
					"type": "event"
				},
				{
					"anonymous": false,
					"inputs": [
						{
							"indexed": true,
							"internalType": "address",
							"name": "from",
							"type": "address"
						},
						{
							"indexed": true,
							"internalType": "address",
							"name": "to",
							"type": "address"
						},
						{
							"indexed": true,
							"internalType": "uint256",
							"name": "tokenId",
							"type": "uint256"
						}
					],
					"name": "Transfer",
					"type": "event"
				},
				{
					"inputs": [
						{
							"internalType": "address",
							"name": "to",
							"type": "address"
						},
						{
							"internalType": "uint256",
							"name": "tokenId",
							"type": "uint256"
						}
					],
					"name": "approve",
					"outputs": [],
					"stateMutability": "nonpayable",
					"type": "function"
				},
				{
					"inputs": [
						{
							"internalType": "address",
							"name": "owner",
							"type": "address"
						}
					],
					"name": "balanceOf",
					"outputs": [
						{
							"internalType": "uint256",
							"name": "",
							"type": "uint256"
						}
					],
					"stateMutability": "view",
					"type": "function"
				},
				{
					"inputs": [
						{
							"internalType": "uint256",
							"name": "tokenId",
							"type": "uint256"
						}
					],
					"name": "getApproved",
					"outputs": [
						{
							"internalType": "address",
							"name": "",
							"type": "address"
						}
					],
					"stateMutability": "view",
					"type": "function"
				},
				{
					"inputs": [],
					"name": "name",
					"outputs": [
						{
							"internalType": "string",
							"name": "",
							"type": "string"
						}
					],
					"stateMutability": "view",
					"type": "function"
				},
				{
					"inputs": [],
					"name": "owner",
					"outputs": [
						{
							"internalType": "address",
							"name": "",
							"type": "address"
						}
					],
					"stateMutability": "view",
					"type": "function"
				},
				{
					"inputs": [
						{
							"internalType": "uint256",
							"name": "tokenId",
							"type": "uint256"
						}
					],
					"name": "ownerOf",
					"outputs": [
						{
							"internalType": "address",
							"name": "",
							"type": "address"
						}
					],
					"stateMutability": "view",
					"type": "function"
				},
				{
					"inputs": [],
					"name": "renounceOwnership",
					"outputs": [],
					"stateMutability": "nonpayable",
					"type": "function"
				},
				{
					"inputs": [
						{
							"internalType": "address",
							"name": "from",
							"type": "address"
						},
						{
							"internalType": "address",
							"name": "to",
							"type": "address"
						},
						{
							"internalType": "uint256",
							"name": "tokenId",
							"type": "uint256"
						}
					],
					"name": "safeTransferFrom",
					"outputs": [],
					"stateMutability": "nonpayable",
					"type": "function"
				},
				{
					"inputs": [
						{
							"internalType": "address",
							"name": "from",
							"type": "address"
						},
						{
							"internalType": "address",
							"name": "to",
							"type": "address"
						},
						{
							"internalType": "uint256",
							"name": "tokenId",
							"type": "uint256"
						},
						{
							"internalType": "bytes",
							"name": "_data",
							"type": "bytes"
						}
					],
					"name": "safeTransferFrom",
					"outputs": [],
					"stateMutability": "nonpayable",
					"type": "function"
				},
				{
					"inputs": [],
					"name": "symbol",
					"outputs": [
						{
							"internalType": "string",
							"name": "",
							"type": "string"
						}
					],
					"stateMutability": "view",
					"type": "function"
				},
				{
					"inputs": [
						{
							"internalType": "uint256",
							"name": "tokenId",
							"type": "uint256"
						}
					],
					"name": "tokenURI",
					"outputs": [
						{
							"internalType": "string",
							"name": "",
							"type": "string"
						}
					],
					"stateMutability": "view",
					"type": "function"
				},
				{
					"inputs": [
						{
							"internalType": "address",
							"name": "from",
							"type": "address"
						},
						{
							"internalType": "address",
							"name": "to",
							"type": "address"
						},
						{
							"internalType": "uint256",
							"name": "tokenId",
							"type": "uint256"
						}
					],
					"name": "transferFrom",
					"outputs": [],
					"stateMutability": "nonpayable",
					"type": "function"
				},
				{
					"inputs": [
						{
							"internalType": "address",
							"name": "newOwner",
							"type": "address"
						}
					],
					"name": "transferOwnership",
					"outputs": [],
					"stateMutability": "nonpayable",
					"type": "function"
				}
			],
			"devdoc": {
				"kind": "dev",
				"methods": {},
				"version": 1
			},
			"evm": {
				"assembly": "    /* \"contracts/NFT_Demo/NFT.sol\":8456:18028  contract ERC721 is IERC721, Context, Ownable, IERC721Metadata {... */\n  mstore(0x40, 0x80)\n    /* \"contracts/NFT_Demo/NFT.sol\":9062:9175  constructor(string memory name_, string memory symbol_) {... */\n  callvalue\n  dup1\n  iszero\n  tag_1\n  jumpi\n  0x00\n  dup1\n  revert\ntag_1:\n  pop\n  mload(0x40)\n  sub(codesize, bytecodeSize)\n  dup1\n  bytecodeSize\n  dup4\n  codecopy\n  dup2\n  dup2\n  add\n  0x40\n  mstore\n  dup2\n  add\n  swap1\n  tag_2\n  swap2\n  swap1\n  tag_3\n  jump\t// in\ntag_2:\n    /* \"contracts/NFT_Demo/NFT.sol\":6281:6313  _transferOwnership(_msgSender()) */\n  tag_7\n    /* \"contracts/NFT_Demo/NFT.sol\":6300:6312  _msgSender() */\n  tag_8\n    /* \"contracts/NFT_Demo/NFT.sol\":6300:6310  _msgSender */\n  shl(0x20, tag_9)\n    /* \"contracts/NFT_Demo/NFT.sol\":6300:6312  _msgSender() */\n  0x20\n  shr\n  jump\t// in\ntag_8:\n    /* \"contracts/NFT_Demo/NFT.sol\":6281:6299  _transferOwnership */\n  shl(0x20, tag_10)\n    /* \"contracts/NFT_Demo/NFT.sol\":6281:6313  _transferOwnership(_msgSender()) */\n  0x20\n  shr\n  jump\t// in\ntag_7:\n    /* \"contracts/NFT_Demo/NFT.sol\":9136:9141  name_ */\n  dup2\n    /* \"contracts/NFT_Demo/NFT.sol\":9128:9133  _name */\n  0x06\n    /* \"contracts/NFT_Demo/NFT.sol\":9128:9141  _name = name_ */\n  swap1\n  dup1\n  mload\n  swap1\n  0x20\n  add\n  swap1\n  tag_12\n  swap3\n  swap2\n  swap1\n  tag_13\n  jump\t// in\ntag_12:\n  pop\n    /* \"contracts/NFT_Demo/NFT.sol\":9161:9168  symbol_ */\n  dup1\n    /* \"contracts/NFT_Demo/NFT.sol\":9151:9158  _symbol */\n  0x07\n    /* \"contracts/NFT_Demo/NFT.sol\":9151:9168  _symbol = symbol_ */\n  swap1\n  dup1\n  mload\n  swap1\n  0x20\n  add\n  swap1\n  tag_14\n  swap3\n  swap2\n  swap1\n  tag_13\n  jump\t// in\ntag_14:\n  pop\n    /* \"contracts/NFT_Demo/NFT.sol\":9062:9175  constructor(string memory name_, string memory symbol_) {... */\n  pop\n  pop\n    /* \"contracts/NFT_Demo/NFT.sol\":8456:18028  contract ERC721 is IERC721, Context, Ownable, IERC721Metadata {... */\n  jump(tag_15)\n    /* \"contracts/NFT_Demo/NFT.sol\":99:195  function _msgSender() internal view virtual returns (address) {... */\ntag_9:\n    /* \"contracts/NFT_Demo/NFT.sol\":152:159  address */\n  0x00\n    /* \"contracts/NFT_Demo/NFT.sol\":178:188  msg.sender */\n  caller\n    /* \"contracts/NFT_Demo/NFT.sol\":171:188  return msg.sender */\n  swap1\n  pop\n    /* \"contracts/NFT_Demo/NFT.sol\":99:195  function _msgSender() internal view virtual returns (address) {... */\n  swap1\n  jump\t// out\n    /* \"contracts/NFT_Demo/NFT.sol\":6885:7072  function _transferOwnership(address newOwner) internal virtual {... */\ntag_10:\n    /* \"contracts/NFT_Demo/NFT.sol\":6958:6974  address oldOwner */\n  0x00\n    /* \"contracts/NFT_Demo/NFT.sol\":6977:6983  _owner */\n  dup1\n  0x00\n  swap1\n  sload\n  swap1\n  0x0100\n  exp\n  swap1\n  div\n  0xffffffffffffffffffffffffffffffffffffffff\n  and\n    /* \"contracts/NFT_Demo/NFT.sol\":6958:6983  address oldOwner = _owner */\n  swap1\n  pop\n    /* \"contracts/NFT_Demo/NFT.sol\":7002:7010  newOwner */\n  dup2\n    /* \"contracts/NFT_Demo/NFT.sol\":6993:6999  _owner */\n  0x00\n  dup1\n    /* \"contracts/NFT_Demo/NFT.sol\":6993:7010  _owner = newOwner */\n  0x0100\n  exp\n  dup2\n  sload\n  dup2\n  0xffffffffffffffffffffffffffffffffffffffff\n  mul\n  not\n  and\n  swap1\n  dup4\n  0xffffffffffffffffffffffffffffffffffffffff\n  and\n  mul\n  or\n  swap1\n  sstore\n  pop\n    /* \"contracts/NFT_Demo/NFT.sol\":7056:7064  newOwner */\n  dup2\n    /* \"contracts/NFT_Demo/NFT.sol\":7025:7065  OwnershipTransferred(oldOwner, newOwner) */\n  0xffffffffffffffffffffffffffffffffffffffff\n  and\n    /* \"contracts/NFT_Demo/NFT.sol\":7046:7054  oldOwner */\n  dup2\n    /* \"contracts/NFT_Demo/NFT.sol\":7025:7065  OwnershipTransferred(oldOwner, newOwner) */\n  0xffffffffffffffffffffffffffffffffffffffff\n  and\n  0x8be0079c531659141344cd1fd0a4f28419497f9722a3daafe3b4186f6b6457e0\n  mload(0x40)\n  mload(0x40)\n  dup1\n  swap2\n  sub\n  swap1\n  log3\n    /* \"contracts/NFT_Demo/NFT.sol\":6948:7072  {... */\n  pop\n    /* \"contracts/NFT_Demo/NFT.sol\":6885:7072  function _transferOwnership(address newOwner) internal virtual {... */\n  pop\n  jump\t// out\n    /* \"contracts/NFT_Demo/NFT.sol\":8456:18028  contract ERC721 is IERC721, Context, Ownable, IERC721Metadata {... */\ntag_13:\n  dup3\n  dup1\n  sload\n  tag_18\n  swap1\n  tag_19\n  jump\t// in\ntag_18:\n  swap1\n  0x00\n  mstore\n  keccak256(0x00, 0x20)\n  swap1\n  0x1f\n  add\n  0x20\n  swap1\n  div\n  dup2\n  add\n  swap3\n  dup3\n  tag_21\n  jumpi\n  0x00\n  dup6\n  sstore\n  jump(tag_20)\ntag_21:\n  dup3\n  0x1f\n  lt\n  tag_22\n  jumpi\n  dup1\n  mload\n  not(0xff)\n  and\n  dup4\n  dup1\n  add\n  or\n  dup6\n  sstore\n  jump(tag_20)\ntag_22:\n  dup3\n  dup1\n  add\n  0x01\n  add\n  dup6\n  sstore\n  dup3\n  iszero\n  tag_20\n  jumpi\n  swap2\n  dup3\n  add\ntag_23:\n  dup3\n  dup2\n  gt\n  iszero\n  tag_24\n  jumpi\n  dup3\n  mload\n  dup3\n  sstore\n  swap2\n  0x20\n  add\n  swap2\n  swap1\n  0x01\n  add\n  swap1\n  jump(tag_23)\ntag_24:\ntag_20:\n  pop\n  swap1\n  pop\n  tag_25\n  swap2\n  swap1\n  tag_26\n  jump\t// in\ntag_25:\n  pop\n  swap1\n  jump\t// out\ntag_26:\ntag_27:\n  dup1\n  dup3\n  gt\n  iszero\n  tag_28\n  jumpi\n  0x00\n  dup2\n  0x00\n  swap1\n  sstore\n  pop\n  0x01\n  add\n  jump(tag_27)\ntag_28:\n  pop\n  swap1\n  jump\t// out\n    /* \"#utility.yul\":7:82   */\ntag_29:\n    /* \"#utility.yul\":40:46   */\n  0x00\n    /* \"#utility.yul\":73:75   */\n  0x40\n    /* \"#utility.yul\":67:76   */\n  mload\n    /* \"#utility.yul\":57:76   */\n  swap1\n  pop\n    /* \"#utility.yul\":7:82   */\n  swap1\n  jump\t// out\n    /* \"#utility.yul\":88:205   */\ntag_30:\n    /* \"#utility.yul\":197:198   */\n  0x00\n    /* \"#utility.yul\":194:195   */\n  dup1\n    /* \"#utility.yul\":187:199   */\n  revert\n    /* \"#utility.yul\":211:328   */\ntag_31:\n    /* \"#utility.yul\":320:321   */\n  0x00\n    /* \"#utility.yul\":317:318   */\n  dup1\n    /* \"#utility.yul\":310:322   */\n  revert\n    /* \"#utility.yul\":334:451   */\ntag_32:\n    /* \"#utility.yul\":443:444   */\n  0x00\n    /* \"#utility.yul\":440:441   */\n  dup1\n    /* \"#utility.yul\":433:445   */\n  revert\n    /* \"#utility.yul\":457:574   */\ntag_33:\n    /* \"#utility.yul\":566:567   */\n  0x00\n    /* \"#utility.yul\":563:564   */\n  dup1\n    /* \"#utility.yul\":556:568   */\n  revert\n    /* \"#utility.yul\":580:682   */\ntag_34:\n    /* \"#utility.yul\":621:627   */\n  0x00\n    /* \"#utility.yul\":672:674   */\n  0x1f\n    /* \"#utility.yul\":668:675   */\n  not\n    /* \"#utility.yul\":663:665   */\n  0x1f\n    /* \"#utility.yul\":656:661   */\n  dup4\n    /* \"#utility.yul\":652:666   */\n  add\n    /* \"#utility.yul\":648:676   */\n  and\n    /* \"#utility.yul\":638:676   */\n  swap1\n  pop\n    /* \"#utility.yul\":580:682   */\n  swap2\n  swap1\n  pop\n  jump\t// out\n    /* \"#utility.yul\":688:868   */\ntag_35:\n    /* \"#utility.yul\":736:813   */\n  0x4e487b7100000000000000000000000000000000000000000000000000000000\n    /* \"#utility.yul\":733:734   */\n  0x00\n    /* \"#utility.yul\":726:814   */\n  mstore\n    /* \"#utility.yul\":833:837   */\n  0x41\n    /* \"#utility.yul\":830:831   */\n  0x04\n    /* \"#utility.yul\":823:838   */\n  mstore\n    /* \"#utility.yul\":857:861   */\n  0x24\n    /* \"#utility.yul\":854:855   */\n  0x00\n    /* \"#utility.yul\":847:862   */\n  revert\n    /* \"#utility.yul\":874:1155   */\ntag_36:\n    /* \"#utility.yul\":957:984   */\n  tag_52\n    /* \"#utility.yul\":979:983   */\n  dup3\n    /* \"#utility.yul\":957:984   */\n  tag_34\n  jump\t// in\ntag_52:\n    /* \"#utility.yul\":949:955   */\n  dup2\n    /* \"#utility.yul\":945:985   */\n  add\n    /* \"#utility.yul\":1087:1093   */\n  dup2\n    /* \"#utility.yul\":1075:1085   */\n  dup2\n    /* \"#utility.yul\":1072:1094   */\n  lt\n    /* \"#utility.yul\":1051:1069   */\n  0xffffffffffffffff\n    /* \"#utility.yul\":1039:1049   */\n  dup3\n    /* \"#utility.yul\":1036:1070   */\n  gt\n    /* \"#utility.yul\":1033:1095   */\n  or\n    /* \"#utility.yul\":1030:1118   */\n  iszero\n  tag_53\n  jumpi\n    /* \"#utility.yul\":1098:1116   */\n  tag_54\n  tag_35\n  jump\t// in\ntag_54:\n    /* \"#utility.yul\":1030:1118   */\ntag_53:\n    /* \"#utility.yul\":1138:1148   */\n  dup1\n    /* \"#utility.yul\":1134:1136   */\n  0x40\n    /* \"#utility.yul\":1127:1149   */\n  mstore\n    /* \"#utility.yul\":917:1155   */\n  pop\n    /* \"#utility.yul\":874:1155   */\n  pop\n  pop\n  jump\t// out\n    /* \"#utility.yul\":1161:1290   */\ntag_37:\n    /* \"#utility.yul\":1195:1201   */\n  0x00\n    /* \"#utility.yul\":1222:1242   */\n  tag_56\n  tag_29\n  jump\t// in\ntag_56:\n    /* \"#utility.yul\":1212:1242   */\n  swap1\n  pop\n    /* \"#utility.yul\":1251:1284   */\n  tag_57\n    /* \"#utility.yul\":1279:1283   */\n  dup3\n    /* \"#utility.yul\":1271:1277   */\n  dup3\n    /* \"#utility.yul\":1251:1284   */\n  tag_36\n  jump\t// in\ntag_57:\n    /* \"#utility.yul\":1161:1290   */\n  swap2\n  swap1\n  pop\n  jump\t// out\n    /* \"#utility.yul\":1296:1604   */\ntag_38:\n    /* \"#utility.yul\":1358:1362   */\n  0x00\n    /* \"#utility.yul\":1448:1466   */\n  0xffffffffffffffff\n    /* \"#utility.yul\":1440:1446   */\n  dup3\n    /* \"#utility.yul\":1437:1467   */\n  gt\n    /* \"#utility.yul\":1434:1490   */\n  iszero\n  tag_59\n  jumpi\n    /* \"#utility.yul\":1470:1488   */\n  tag_60\n  tag_35\n  jump\t// in\ntag_60:\n    /* \"#utility.yul\":1434:1490   */\ntag_59:\n    /* \"#utility.yul\":1508:1537   */\n  tag_61\n    /* \"#utility.yul\":1530:1536   */\n  dup3\n    /* \"#utility.yul\":1508:1537   */\n  tag_34\n  jump\t// in\ntag_61:\n    /* \"#utility.yul\":1500:1537   */\n  swap1\n  pop\n    /* \"#utility.yul\":1592:1596   */\n  0x20\n    /* \"#utility.yul\":1586:1590   */\n  dup2\n    /* \"#utility.yul\":1582:1597   */\n  add\n    /* \"#utility.yul\":1574:1597   */\n  swap1\n  pop\n    /* \"#utility.yul\":1296:1604   */\n  swap2\n  swap1\n  pop\n  jump\t// out\n    /* \"#utility.yul\":1610:1917   */\ntag_39:\n    /* \"#utility.yul\":1678:1679   */\n  0x00\n    /* \"#utility.yul\":1688:1801   */\ntag_63:\n    /* \"#utility.yul\":1702:1708   */\n  dup4\n    /* \"#utility.yul\":1699:1700   */\n  dup2\n    /* \"#utility.yul\":1696:1709   */\n  lt\n    /* \"#utility.yul\":1688:1801   */\n  iszero\n  tag_65\n  jumpi\n    /* \"#utility.yul\":1787:1788   */\n  dup1\n    /* \"#utility.yul\":1782:1785   */\n  dup3\n    /* \"#utility.yul\":1778:1789   */\n  add\n    /* \"#utility.yul\":1772:1790   */\n  mload\n    /* \"#utility.yul\":1768:1769   */\n  dup2\n    /* \"#utility.yul\":1763:1766   */\n  dup5\n    /* \"#utility.yul\":1759:1770   */\n  add\n    /* \"#utility.yul\":1752:1791   */\n  mstore\n    /* \"#utility.yul\":1724:1726   */\n  0x20\n    /* \"#utility.yul\":1721:1722   */\n  dup2\n    /* \"#utility.yul\":1717:1727   */\n  add\n    /* \"#utility.yul\":1712:1727   */\n  swap1\n  pop\n    /* \"#utility.yul\":1688:1801   */\n  jump(tag_63)\ntag_65:\n    /* \"#utility.yul\":1819:1825   */\n  dup4\n    /* \"#utility.yul\":1816:1817   */\n  dup2\n    /* \"#utility.yul\":1813:1826   */\n  gt\n    /* \"#utility.yul\":1810:1911   */\n  iszero\n  tag_66\n  jumpi\n    /* \"#utility.yul\":1899:1900   */\n  0x00\n    /* \"#utility.yul\":1890:1896   */\n  dup5\n    /* \"#utility.yul\":1885:1888   */\n  dup5\n    /* \"#utility.yul\":1881:1897   */\n  add\n    /* \"#utility.yul\":1874:1901   */\n  mstore\n    /* \"#utility.yul\":1810:1911   */\ntag_66:\n    /* \"#utility.yul\":1659:1917   */\n  pop\n    /* \"#utility.yul\":1610:1917   */\n  pop\n  pop\n  pop\n  jump\t// out\n    /* \"#utility.yul\":1923:2344   */\ntag_40:\n    /* \"#utility.yul\":2012:2017   */\n  0x00\n    /* \"#utility.yul\":2037:2103   */\n  tag_68\n    /* \"#utility.yul\":2053:2102   */\n  tag_69\n    /* \"#utility.yul\":2095:2101   */\n  dup5\n    /* \"#utility.yul\":2053:2102   */\n  tag_38\n  jump\t// in\ntag_69:\n    /* \"#utility.yul\":2037:2103   */\n  tag_37\n  jump\t// in\ntag_68:\n    /* \"#utility.yul\":2028:2103   */\n  swap1\n  pop\n    /* \"#utility.yul\":2126:2132   */\n  dup3\n    /* \"#utility.yul\":2119:2124   */\n  dup2\n    /* \"#utility.yul\":2112:2133   */\n  mstore\n    /* \"#utility.yul\":2164:2168   */\n  0x20\n    /* \"#utility.yul\":2157:2162   */\n  dup2\n    /* \"#utility.yul\":2153:2169   */\n  add\n    /* \"#utility.yul\":2202:2205   */\n  dup5\n    /* \"#utility.yul\":2193:2199   */\n  dup5\n    /* \"#utility.yul\":2188:2191   */\n  dup5\n    /* \"#utility.yul\":2184:2200   */\n  add\n    /* \"#utility.yul\":2181:2206   */\n  gt\n    /* \"#utility.yul\":2178:2290   */\n  iszero\n  tag_70\n  jumpi\n    /* \"#utility.yul\":2209:2288   */\n  tag_71\n  tag_33\n  jump\t// in\ntag_71:\n    /* \"#utility.yul\":2178:2290   */\ntag_70:\n    /* \"#utility.yul\":2299:2338   */\n  tag_72\n    /* \"#utility.yul\":2331:2337   */\n  dup5\n    /* \"#utility.yul\":2326:2329   */\n  dup3\n    /* \"#utility.yul\":2321:2324   */\n  dup6\n    /* \"#utility.yul\":2299:2338   */\n  tag_39\n  jump\t// in\ntag_72:\n    /* \"#utility.yul\":2018:2344   */\n  pop\n    /* \"#utility.yul\":1923:2344   */\n  swap4\n  swap3\n  pop\n  pop\n  pop\n  jump\t// out\n    /* \"#utility.yul\":2364:2719   */\ntag_41:\n    /* \"#utility.yul\":2431:2436   */\n  0x00\n    /* \"#utility.yul\":2480:2483   */\n  dup3\n    /* \"#utility.yul\":2473:2477   */\n  0x1f\n    /* \"#utility.yul\":2465:2471   */\n  dup4\n    /* \"#utility.yul\":2461:2478   */\n  add\n    /* \"#utility.yul\":2457:2484   */\n  slt\n    /* \"#utility.yul\":2447:2569   */\n  tag_74\n  jumpi\n    /* \"#utility.yul\":2488:2567   */\n  tag_75\n  tag_32\n  jump\t// in\ntag_75:\n    /* \"#utility.yul\":2447:2569   */\ntag_74:\n    /* \"#utility.yul\":2598:2604   */\n  dup2\n    /* \"#utility.yul\":2592:2605   */\n  mload\n    /* \"#utility.yul\":2623:2713   */\n  tag_76\n    /* \"#utility.yul\":2709:2712   */\n  dup5\n    /* \"#utility.yul\":2701:2707   */\n  dup3\n    /* \"#utility.yul\":2694:2698   */\n  0x20\n    /* \"#utility.yul\":2686:2692   */\n  dup7\n    /* \"#utility.yul\":2682:2699   */\n  add\n    /* \"#utility.yul\":2623:2713   */\n  tag_40\n  jump\t// in\ntag_76:\n    /* \"#utility.yul\":2614:2713   */\n  swap2\n  pop\n    /* \"#utility.yul\":2437:2719   */\n  pop\n    /* \"#utility.yul\":2364:2719   */\n  swap3\n  swap2\n  pop\n  pop\n  jump\t// out\n    /* \"#utility.yul\":2725:3578   */\ntag_3:\n    /* \"#utility.yul\":2824:2830   */\n  0x00\n    /* \"#utility.yul\":2832:2838   */\n  dup1\n    /* \"#utility.yul\":2881:2883   */\n  0x40\n    /* \"#utility.yul\":2869:2878   */\n  dup4\n    /* \"#utility.yul\":2860:2867   */\n  dup6\n    /* \"#utility.yul\":2856:2879   */\n  sub\n    /* \"#utility.yul\":2852:2884   */\n  slt\n    /* \"#utility.yul\":2849:2968   */\n  iszero\n  tag_78\n  jumpi\n    /* \"#utility.yul\":2887:2966   */\n  tag_79\n  tag_30\n  jump\t// in\ntag_79:\n    /* \"#utility.yul\":2849:2968   */\ntag_78:\n    /* \"#utility.yul\":3028:3029   */\n  0x00\n    /* \"#utility.yul\":3017:3026   */\n  dup4\n    /* \"#utility.yul\":3013:3030   */\n  add\n    /* \"#utility.yul\":3007:3031   */\n  mload\n    /* \"#utility.yul\":3058:3076   */\n  0xffffffffffffffff\n    /* \"#utility.yul\":3050:3056   */\n  dup2\n    /* \"#utility.yul\":3047:3077   */\n  gt\n    /* \"#utility.yul\":3044:3161   */\n  iszero\n  tag_80\n  jumpi\n    /* \"#utility.yul\":3080:3159   */\n  tag_81\n  tag_31\n  jump\t// in\ntag_81:\n    /* \"#utility.yul\":3044:3161   */\ntag_80:\n    /* \"#utility.yul\":3185:3259   */\n  tag_82\n    /* \"#utility.yul\":3251:3258   */\n  dup6\n    /* \"#utility.yul\":3242:3248   */\n  dup3\n    /* \"#utility.yul\":3231:3240   */\n  dup7\n    /* \"#utility.yul\":3227:3249   */\n  add\n    /* \"#utility.yul\":3185:3259   */\n  tag_41\n  jump\t// in\ntag_82:\n    /* \"#utility.yul\":3175:3259   */\n  swap3\n  pop\n    /* \"#utility.yul\":2978:3269   */\n  pop\n    /* \"#utility.yul\":3329:3331   */\n  0x20\n    /* \"#utility.yul\":3318:3327   */\n  dup4\n    /* \"#utility.yul\":3314:3332   */\n  add\n    /* \"#utility.yul\":3308:3333   */\n  mload\n    /* \"#utility.yul\":3360:3378   */\n  0xffffffffffffffff\n    /* \"#utility.yul\":3352:3358   */\n  dup2\n    /* \"#utility.yul\":3349:3379   */\n  gt\n    /* \"#utility.yul\":3346:3463   */\n  iszero\n  tag_83\n  jumpi\n    /* \"#utility.yul\":3382:3461   */\n  tag_84\n  tag_31\n  jump\t// in\ntag_84:\n    /* \"#utility.yul\":3346:3463   */\ntag_83:\n    /* \"#utility.yul\":3487:3561   */\n  tag_85\n    /* \"#utility.yul\":3553:3560   */\n  dup6\n    /* \"#utility.yul\":3544:3550   */\n  dup3\n    /* \"#utility.yul\":3533:3542   */\n  dup7\n    /* \"#utility.yul\":3529:3551   */\n  add\n    /* \"#utility.yul\":3487:3561   */\n  tag_41\n  jump\t// in\ntag_85:\n    /* \"#utility.yul\":3477:3561   */\n  swap2\n  pop\n    /* \"#utility.yul\":3279:3571   */\n  pop\n    /* \"#utility.yul\":2725:3578   */\n  swap3\n  pop\n  swap3\n  swap1\n  pop\n  jump\t// out\n    /* \"#utility.yul\":3584:3764   */\ntag_42:\n    /* \"#utility.yul\":3632:3709   */\n  0x4e487b7100000000000000000000000000000000000000000000000000000000\n    /* \"#utility.yul\":3629:3630   */\n  0x00\n    /* \"#utility.yul\":3622:3710   */\n  mstore\n    /* \"#utility.yul\":3729:3733   */\n  0x22\n    /* \"#utility.yul\":3726:3727   */\n  0x04\n    /* \"#utility.yul\":3719:3734   */\n  mstore\n    /* \"#utility.yul\":3753:3757   */\n  0x24\n    /* \"#utility.yul\":3750:3751   */\n  0x00\n    /* \"#utility.yul\":3743:3758   */\n  revert\n    /* \"#utility.yul\":3770:4090   */\ntag_19:\n    /* \"#utility.yul\":3814:3820   */\n  0x00\n    /* \"#utility.yul\":3851:3852   */\n  0x02\n    /* \"#utility.yul\":3845:3849   */\n  dup3\n    /* \"#utility.yul\":3841:3853   */\n  div\n    /* \"#utility.yul\":3831:3853   */\n  swap1\n  pop\n    /* \"#utility.yul\":3898:3899   */\n  0x01\n    /* \"#utility.yul\":3892:3896   */\n  dup3\n    /* \"#utility.yul\":3888:3900   */\n  and\n    /* \"#utility.yul\":3919:3937   */\n  dup1\n    /* \"#utility.yul\":3909:3990   */\n  tag_88\n  jumpi\n    /* \"#utility.yul\":3975:3979   */\n  0x7f\n    /* \"#utility.yul\":3967:3973   */\n  dup3\n    /* \"#utility.yul\":3963:3980   */\n  and\n    /* \"#utility.yul\":3953:3980   */\n  swap2\n  pop\n    /* \"#utility.yul\":3909:3990   */\ntag_88:\n    /* \"#utility.yul\":4037:4039   */\n  0x20\n    /* \"#utility.yul\":4029:4035   */\n  dup3\n    /* \"#utility.yul\":4026:4040   */\n  lt\n    /* \"#utility.yul\":4006:4024   */\n  dup2\n    /* \"#utility.yul\":4003:4041   */\n  sub\n    /* \"#utility.yul\":4000:4084   */\n  tag_89\n  jumpi\n    /* \"#utility.yul\":4056:4074   */\n  tag_90\n  tag_42\n  jump\t// in\ntag_90:\n    /* \"#utility.yul\":4000:4084   */\ntag_89:\n    /* \"#utility.yul\":3821:4090   */\n  pop\n    /* \"#utility.yul\":3770:4090   */\n  swap2\n  swap1\n  pop\n  jump\t// out\n    /* \"contracts/NFT_Demo/NFT.sol\":8456:18028  contract ERC721 is IERC721, Context, Ownable, IERC721Metadata {... */\ntag_15:\n  dataSize(sub_0)\n  dup1\n  dataOffset(sub_0)\n  0x00\n  codecopy\n  0x00\n  return\nstop\n\nsub_0: assembly {\n        /* \"contracts/NFT_Demo/NFT.sol\":8456:18028  contract ERC721 is IERC721, Context, Ownable, IERC721Metadata {... */\n      mstore(0x40, 0x80)\n      callvalue\n      dup1\n      iszero\n      tag_1\n      jumpi\n      0x00\n      dup1\n      revert\n    tag_1:\n      pop\n      jumpi(tag_2, lt(calldatasize, 0x04))\n      shr(0xe0, calldataload(0x00))\n      dup1\n      0x70a08231\n      gt\n      tag_16\n      jumpi\n      dup1\n      0x95d89b41\n      gt\n      tag_17\n      jumpi\n      dup1\n      0x95d89b41\n      eq\n      tag_12\n      jumpi\n      dup1\n      0xb88d4fde\n      eq\n      tag_13\n      jumpi\n      dup1\n      0xc87b56dd\n      eq\n      tag_14\n      jumpi\n      dup1\n      0xf2fde38b\n      eq\n      tag_15\n      jumpi\n      jump(tag_2)\n    tag_17:\n      dup1\n      0x70a08231\n      eq\n      tag_9\n      jumpi\n      dup1\n      0x715018a6\n      eq\n      tag_10\n      jumpi\n      dup1\n      0x8da5cb5b\n      eq\n      tag_11\n      jumpi\n      jump(tag_2)\n    tag_16:\n      dup1\n      0x06fdde03\n      eq\n      tag_3\n      jumpi\n      dup1\n      0x081812fc\n      eq\n      tag_4\n      jumpi\n      dup1\n      0x095ea7b3\n      eq\n      tag_5\n      jumpi\n      dup1\n      0x23b872dd\n      eq\n      tag_6\n      jumpi\n      dup1\n      0x42842e0e\n      eq\n      tag_7\n      jumpi\n      dup1\n      0x6352211e\n      eq\n      tag_8\n      jumpi\n    tag_2:\n      0x00\n      dup1\n      revert\n        /* \"contracts/NFT_Demo/NFT.sol\":10246:10344  function name() public view virtual override returns (string memory) {... */\n    tag_3:\n      tag_18\n      tag_19\n      jump\t// in\n    tag_18:\n      mload(0x40)\n      tag_20\n      swap2\n      swap1\n      tag_21\n      jump\t// in\n    tag_20:\n      mload(0x40)\n      dup1\n      swap2\n      sub\n      swap1\n      return\n        /* \"contracts/NFT_Demo/NFT.sol\":10922:11217  function getApproved(uint256 tokenId)... */\n    tag_4:\n      tag_22\n      0x04\n      dup1\n      calldatasize\n      sub\n      dup2\n      add\n      swap1\n      tag_23\n      swap2\n      swap1\n      tag_24\n      jump\t// in\n    tag_23:\n      tag_25\n      jump\t// in\n    tag_22:\n      mload(0x40)\n      tag_26\n      swap2\n      swap1\n      tag_27\n      jump\t// in\n    tag_26:\n      mload(0x40)\n      dup1\n      swap2\n      sub\n      swap1\n      return\n        /* \"contracts/NFT_Demo/NFT.sol\":10556:10916  function approve(address to, uint256 tokenId) public virtual override {... */\n    tag_5:\n      tag_28\n      0x04\n      dup1\n      calldatasize\n      sub\n      dup2\n      add\n      swap1\n      tag_29\n      swap2\n      swap1\n      tag_30\n      jump\t// in\n    tag_29:\n      tag_31\n      jump\t// in\n    tag_28:\n      stop\n        /* \"contracts/NFT_Demo/NFT.sol\":11223:11535  function transferFrom(... */\n    tag_6:\n      tag_32\n      0x04\n      dup1\n      calldatasize\n      sub\n      dup2\n      add\n      swap1\n      tag_33\n      swap2\n      swap1\n      tag_34\n      jump\t// in\n    tag_33:\n      tag_35\n      jump\t// in\n    tag_32:\n      stop\n        /* \"contracts/NFT_Demo/NFT.sol\":11541:11720  function safeTransferFrom(... */\n    tag_7:\n      tag_36\n      0x04\n      dup1\n      calldatasize\n      sub\n      dup2\n      add\n      swap1\n      tag_37\n      swap2\n      swap1\n      tag_34\n      jump\t// in\n    tag_37:\n      tag_38\n      jump\t// in\n    tag_36:\n      stop\n        /* \"contracts/NFT_Demo/NFT.sol\":9927:10240  function ownerOf(uint256 tokenId)... */\n    tag_8:\n      tag_39\n      0x04\n      dup1\n      calldatasize\n      sub\n      dup2\n      add\n      swap1\n      tag_40\n      swap2\n      swap1\n      tag_24\n      jump\t// in\n    tag_40:\n      tag_41\n      jump\t// in\n    tag_39:\n      mload(0x40)\n      tag_42\n      swap2\n      swap1\n      tag_27\n      jump\t// in\n    tag_42:\n      mload(0x40)\n      dup1\n      swap2\n      sub\n      swap1\n      return\n        /* \"contracts/NFT_Demo/NFT.sol\":9638:9921  function balanceOf(address owner)... */\n    tag_9:\n      tag_43\n      0x04\n      dup1\n      calldatasize\n      sub\n      dup2\n      add\n      swap1\n      tag_44\n      swap2\n      swap1\n      tag_45\n      jump\t// in\n    tag_44:\n      tag_46\n      jump\t// in\n    tag_43:\n      mload(0x40)\n      tag_47\n      swap2\n      swap1\n      tag_48\n      jump\t// in\n    tag_47:\n      mload(0x40)\n      dup1\n      swap2\n      sub\n      swap1\n      return\n        /* \"contracts/NFT_Demo/NFT.sol\":6540:6641  function renounceOwnership() public virtual onlyOwner {... */\n    tag_10:\n      tag_49\n      tag_50\n      jump\t// in\n    tag_49:\n      stop\n        /* \"contracts/NFT_Demo/NFT.sol\":6326:6411  function owner() public view virtual returns (address) {... */\n    tag_11:\n      tag_51\n      tag_52\n      jump\t// in\n    tag_51:\n      mload(0x40)\n      tag_53\n      swap2\n      swap1\n      tag_27\n      jump\t// in\n    tag_53:\n      mload(0x40)\n      dup1\n      swap2\n      sub\n      swap1\n      return\n        /* \"contracts/NFT_Demo/NFT.sol\":10350:10452  function symbol() public view virtual override returns (string memory) {... */\n    tag_12:\n      tag_54\n      tag_55\n      jump\t// in\n    tag_54:\n      mload(0x40)\n      tag_56\n      swap2\n      swap1\n      tag_21\n      jump\t// in\n    tag_56:\n      mload(0x40)\n      dup1\n      swap2\n      sub\n      swap1\n      return\n        /* \"contracts/NFT_Demo/NFT.sol\":11726:12080  function safeTransferFrom(... */\n    tag_13:\n      tag_57\n      0x04\n      dup1\n      calldatasize\n      sub\n      dup2\n      add\n      swap1\n      tag_58\n      swap2\n      swap1\n      tag_59\n      jump\t// in\n    tag_58:\n      tag_60\n      jump\t// in\n    tag_57:\n      stop\n        /* \"contracts/NFT_Demo/NFT.sol\":9181:9632  function tokenURI(uint256 tokenId)... */\n    tag_14:\n      tag_61\n      0x04\n      dup1\n      calldatasize\n      sub\n      dup2\n      add\n      swap1\n      tag_62\n      swap2\n      swap1\n      tag_24\n      jump\t// in\n    tag_62:\n      tag_63\n      jump\t// in\n    tag_61:\n      mload(0x40)\n      tag_64\n      swap2\n      swap1\n      tag_21\n      jump\t// in\n    tag_64:\n      mload(0x40)\n      dup1\n      swap2\n      sub\n      swap1\n      return\n        /* \"contracts/NFT_Demo/NFT.sol\":6647:6879  function transferOwnership(address newOwner) public virtual onlyOwner {... */\n    tag_15:\n      tag_65\n      0x04\n      dup1\n      calldatasize\n      sub\n      dup2\n      add\n      swap1\n      tag_66\n      swap2\n      swap1\n      tag_45\n      jump\t// in\n    tag_66:\n      tag_67\n      jump\t// in\n    tag_65:\n      stop\n        /* \"contracts/NFT_Demo/NFT.sol\":10246:10344  function name() public view virtual override returns (string memory) {... */\n    tag_19:\n        /* \"contracts/NFT_Demo/NFT.sol\":10300:10313  string memory */\n      0x60\n        /* \"contracts/NFT_Demo/NFT.sol\":10332:10337  _name */\n      0x06\n        /* \"contracts/NFT_Demo/NFT.sol\":10325:10337  return _name */\n      dup1\n      sload\n      tag_69\n      swap1\n      tag_70\n      jump\t// in\n    tag_69:\n      dup1\n      0x1f\n      add\n      0x20\n      dup1\n      swap2\n      div\n      mul\n      0x20\n      add\n      mload(0x40)\n      swap1\n      dup2\n      add\n      0x40\n      mstore\n      dup1\n      swap3\n      swap2\n      swap1\n      dup2\n      dup2\n      mstore\n      0x20\n      add\n      dup3\n      dup1\n      sload\n      tag_71\n      swap1\n      tag_70\n      jump\t// in\n    tag_71:\n      dup1\n      iszero\n      tag_72\n      jumpi\n      dup1\n      0x1f\n      lt\n      tag_73\n      jumpi\n      0x0100\n      dup1\n      dup4\n      sload\n      div\n      mul\n      dup4\n      mstore\n      swap2\n      0x20\n      add\n      swap2\n      jump(tag_72)\n    tag_73:\n      dup3\n      add\n      swap2\n      swap1\n      0x00\n      mstore\n      keccak256(0x00, 0x20)\n      swap1\n    tag_74:\n      dup2\n      sload\n      dup2\n      mstore\n      swap1\n      0x01\n      add\n      swap1\n      0x20\n      add\n      dup1\n      dup4\n      gt\n      tag_74\n      jumpi\n      dup3\n      swap1\n      sub\n      0x1f\n      and\n      dup3\n      add\n      swap2\n    tag_72:\n      pop\n      pop\n      pop\n      pop\n      pop\n      swap1\n      pop\n        /* \"contracts/NFT_Demo/NFT.sol\":10246:10344  function name() public view virtual override returns (string memory) {... */\n      swap1\n      jump\t// out\n        /* \"contracts/NFT_Demo/NFT.sol\":10922:11217  function getApproved(uint256 tokenId)... */\n    tag_25:\n        /* \"contracts/NFT_Demo/NFT.sol\":11038:11045  address */\n      0x00\n        /* \"contracts/NFT_Demo/NFT.sol\":11082:11098  _exists(tokenId) */\n      tag_76\n        /* \"contracts/NFT_Demo/NFT.sol\":11090:11097  tokenId */\n      dup3\n        /* \"contracts/NFT_Demo/NFT.sol\":11082:11089  _exists */\n      tag_77\n        /* \"contracts/NFT_Demo/NFT.sol\":11082:11098  _exists(tokenId) */\n      jump\t// in\n    tag_76:\n        /* \"contracts/NFT_Demo/NFT.sol\":11061:11168  require(... */\n      tag_78\n      jumpi\n      mload(0x40)\n      0x08c379a000000000000000000000000000000000000000000000000000000000\n      dup2\n      mstore\n      0x04\n      add\n      tag_79\n      swap1\n      tag_80\n      jump\t// in\n    tag_79:\n      mload(0x40)\n      dup1\n      swap2\n      sub\n      swap1\n      revert\n    tag_78:\n        /* \"contracts/NFT_Demo/NFT.sol\":11186:11201  _tokenApprovals */\n      0x04\n        /* \"contracts/NFT_Demo/NFT.sol\":11186:11210  _tokenApprovals[tokenId] */\n      0x00\n        /* \"contracts/NFT_Demo/NFT.sol\":11202:11209  tokenId */\n      dup4\n        /* \"contracts/NFT_Demo/NFT.sol\":11186:11210  _tokenApprovals[tokenId] */\n      dup2\n      mstore\n      0x20\n      add\n      swap1\n      dup2\n      mstore\n      0x20\n      add\n      0x00\n      keccak256\n      0x00\n      swap1\n      sload\n      swap1\n      0x0100\n      exp\n      swap1\n      div\n      0xffffffffffffffffffffffffffffffffffffffff\n      and\n        /* \"contracts/NFT_Demo/NFT.sol\":11179:11210  return _tokenApprovals[tokenId] */\n      swap1\n      pop\n        /* \"contracts/NFT_Demo/NFT.sol\":10922:11217  function getApproved(uint256 tokenId)... */\n      swap2\n      swap1\n      pop\n      jump\t// out\n        /* \"contracts/NFT_Demo/NFT.sol\":10556:10916  function approve(address to, uint256 tokenId) public virtual override {... */\n    tag_31:\n        /* \"contracts/NFT_Demo/NFT.sol\":10636:10649  address owner */\n      0x00\n        /* \"contracts/NFT_Demo/NFT.sol\":10652:10675  ERC721.ownerOf(tokenId) */\n      tag_82\n        /* \"contracts/NFT_Demo/NFT.sol\":10667:10674  tokenId */\n      dup3\n        /* \"contracts/NFT_Demo/NFT.sol\":10652:10666  ERC721.ownerOf */\n      tag_41\n        /* \"contracts/NFT_Demo/NFT.sol\":10652:10675  ERC721.ownerOf(tokenId) */\n      jump\t// in\n    tag_82:\n        /* \"contracts/NFT_Demo/NFT.sol\":10636:10675  address owner = ERC721.ownerOf(tokenId) */\n      swap1\n      pop\n        /* \"contracts/NFT_Demo/NFT.sol\":10699:10704  owner */\n      dup1\n        /* \"contracts/NFT_Demo/NFT.sol\":10693:10704  to != owner */\n      0xffffffffffffffffffffffffffffffffffffffff\n      and\n        /* \"contracts/NFT_Demo/NFT.sol\":10693:10695  to */\n      dup4\n        /* \"contracts/NFT_Demo/NFT.sol\":10693:10704  to != owner */\n      0xffffffffffffffffffffffffffffffffffffffff\n      and\n      sub\n        /* \"contracts/NFT_Demo/NFT.sol\":10685:10742  require(to != owner, \"ERC721: approval to current owner\") */\n      tag_83\n      jumpi\n      mload(0x40)\n      0x08c379a000000000000000000000000000000000000000000000000000000000\n      dup2\n      mstore\n      0x04\n      add\n      tag_84\n      swap1\n      tag_85\n      jump\t// in\n    tag_84:\n      mload(0x40)\n      dup1\n      swap2\n      sub\n      swap1\n      revert\n    tag_83:\n        /* \"contracts/NFT_Demo/NFT.sol\":10790:10795  owner */\n      dup1\n        /* \"contracts/NFT_Demo/NFT.sol\":10774:10795  _msgSender() == owner */\n      0xffffffffffffffffffffffffffffffffffffffff\n      and\n        /* \"contracts/NFT_Demo/NFT.sol\":10774:10786  _msgSender() */\n      tag_86\n        /* \"contracts/NFT_Demo/NFT.sol\":10774:10784  _msgSender */\n      tag_87\n        /* \"contracts/NFT_Demo/NFT.sol\":10774:10786  _msgSender() */\n      jump\t// in\n    tag_86:\n        /* \"contracts/NFT_Demo/NFT.sol\":10774:10795  _msgSender() == owner */\n      0xffffffffffffffffffffffffffffffffffffffff\n      and\n      eq\n        /* \"contracts/NFT_Demo/NFT.sol\":10753:10877  require(... */\n      tag_88\n      jumpi\n      mload(0x40)\n      0x08c379a000000000000000000000000000000000000000000000000000000000\n      dup2\n      mstore\n      0x04\n      add\n      tag_89\n      swap1\n      tag_90\n      jump\t// in\n    tag_89:\n      mload(0x40)\n      dup1\n      swap2\n      sub\n      swap1\n      revert\n    tag_88:\n        /* \"contracts/NFT_Demo/NFT.sol\":10888:10909  _approve(to, tokenId) */\n      tag_91\n        /* \"contracts/NFT_Demo/NFT.sol\":10897:10899  to */\n      dup4\n        /* \"contracts/NFT_Demo/NFT.sol\":10901:10908  tokenId */\n      dup4\n        /* \"contracts/NFT_Demo/NFT.sol\":10888:10896  _approve */\n      tag_92\n        /* \"contracts/NFT_Demo/NFT.sol\":10888:10909  _approve(to, tokenId) */\n      jump\t// in\n    tag_91:\n        /* \"contracts/NFT_Demo/NFT.sol\":10626:10916  {... */\n      pop\n        /* \"contracts/NFT_Demo/NFT.sol\":10556:10916  function approve(address to, uint256 tokenId) public virtual override {... */\n      pop\n      pop\n      jump\t// out\n        /* \"contracts/NFT_Demo/NFT.sol\":11223:11535  function transferFrom(... */\n    tag_35:\n        /* \"contracts/NFT_Demo/NFT.sol\":11373:11414  _isApprovedOrOwner(_msgSender(), tokenId) */\n      tag_94\n        /* \"contracts/NFT_Demo/NFT.sol\":11392:11404  _msgSender() */\n      tag_95\n        /* \"contracts/NFT_Demo/NFT.sol\":11392:11402  _msgSender */\n      tag_87\n        /* \"contracts/NFT_Demo/NFT.sol\":11392:11404  _msgSender() */\n      jump\t// in\n    tag_95:\n        /* \"contracts/NFT_Demo/NFT.sol\":11406:11413  tokenId */\n      dup3\n        /* \"contracts/NFT_Demo/NFT.sol\":11373:11391  _isApprovedOrOwner */\n      tag_96\n        /* \"contracts/NFT_Demo/NFT.sol\":11373:11414  _isApprovedOrOwner(_msgSender(), tokenId) */\n      jump\t// in\n    tag_94:\n        /* \"contracts/NFT_Demo/NFT.sol\":11352:11489  require(... */\n      tag_97\n      jumpi\n      mload(0x40)\n      0x08c379a000000000000000000000000000000000000000000000000000000000\n      dup2\n      mstore\n      0x04\n      add\n      tag_98\n      swap1\n      tag_99\n      jump\t// in\n    tag_98:\n      mload(0x40)\n      dup1\n      swap2\n      sub\n      swap1\n      revert\n    tag_97:\n        /* \"contracts/NFT_Demo/NFT.sol\":11500:11528  _transfer(from, to, tokenId) */\n      tag_100\n        /* \"contracts/NFT_Demo/NFT.sol\":11510:11514  from */\n      dup4\n        /* \"contracts/NFT_Demo/NFT.sol\":11516:11518  to */\n      dup4\n        /* \"contracts/NFT_Demo/NFT.sol\":11520:11527  tokenId */\n      dup4\n        /* \"contracts/NFT_Demo/NFT.sol\":11500:11509  _transfer */\n      tag_101\n        /* \"contracts/NFT_Demo/NFT.sol\":11500:11528  _transfer(from, to, tokenId) */\n      jump\t// in\n    tag_100:\n        /* \"contracts/NFT_Demo/NFT.sol\":11223:11535  function transferFrom(... */\n      pop\n      pop\n      pop\n      jump\t// out\n        /* \"contracts/NFT_Demo/NFT.sol\":11541:11720  function safeTransferFrom(... */\n    tag_38:\n        /* \"contracts/NFT_Demo/NFT.sol\":11674:11713  safeTransferFrom(from, to, tokenId, \"\") */\n      tag_103\n        /* \"contracts/NFT_Demo/NFT.sol\":11691:11695  from */\n      dup4\n        /* \"contracts/NFT_Demo/NFT.sol\":11697:11699  to */\n      dup4\n        /* \"contracts/NFT_Demo/NFT.sol\":11701:11708  tokenId */\n      dup4\n        /* \"contracts/NFT_Demo/NFT.sol\":11674:11713  safeTransferFrom(from, to, tokenId, \"\") */\n      mload(0x40)\n      dup1\n      0x20\n      add\n      0x40\n      mstore\n      dup1\n      0x00\n      dup2\n      mstore\n      pop\n        /* \"contracts/NFT_Demo/NFT.sol\":11674:11690  safeTransferFrom */\n      tag_60\n        /* \"contracts/NFT_Demo/NFT.sol\":11674:11713  safeTransferFrom(from, to, tokenId, \"\") */\n      jump\t// in\n    tag_103:\n        /* \"contracts/NFT_Demo/NFT.sol\":11541:11720  function safeTransferFrom(... */\n      pop\n      pop\n      pop\n      jump\t// out\n        /* \"contracts/NFT_Demo/NFT.sol\":9927:10240  function ownerOf(uint256 tokenId)... */\n    tag_41:\n        /* \"contracts/NFT_Demo/NFT.sol\":10039:10046  address */\n      0x00\n        /* \"contracts/NFT_Demo/NFT.sol\":10062:10075  address owner */\n      dup1\n        /* \"contracts/NFT_Demo/NFT.sol\":10078:10085  _owners */\n      0x02\n        /* \"contracts/NFT_Demo/NFT.sol\":10078:10094  _owners[tokenId] */\n      0x00\n        /* \"contracts/NFT_Demo/NFT.sol\":10086:10093  tokenId */\n      dup5\n        /* \"contracts/NFT_Demo/NFT.sol\":10078:10094  _owners[tokenId] */\n      dup2\n      mstore\n      0x20\n      add\n      swap1\n      dup2\n      mstore\n      0x20\n      add\n      0x00\n      keccak256\n      0x00\n      swap1\n      sload\n      swap1\n      0x0100\n      exp\n      swap1\n      div\n      0xffffffffffffffffffffffffffffffffffffffff\n      and\n        /* \"contracts/NFT_Demo/NFT.sol\":10062:10094  address owner = _owners[tokenId] */\n      swap1\n      pop\n        /* \"contracts/NFT_Demo/NFT.sol\":10142:10143  0 */\n      0x00\n        /* \"contracts/NFT_Demo/NFT.sol\":10125:10144  owner != address(0) */\n      0xffffffffffffffffffffffffffffffffffffffff\n      and\n        /* \"contracts/NFT_Demo/NFT.sol\":10125:10130  owner */\n      dup2\n        /* \"contracts/NFT_Demo/NFT.sol\":10125:10144  owner != address(0) */\n      0xffffffffffffffffffffffffffffffffffffffff\n      and\n      sub\n        /* \"contracts/NFT_Demo/NFT.sol\":10104:10211  require(... */\n      tag_105\n      jumpi\n      mload(0x40)\n      0x08c379a000000000000000000000000000000000000000000000000000000000\n      dup2\n      mstore\n      0x04\n      add\n      tag_106\n      swap1\n      tag_107\n      jump\t// in\n    tag_106:\n      mload(0x40)\n      dup1\n      swap2\n      sub\n      swap1\n      revert\n    tag_105:\n        /* \"contracts/NFT_Demo/NFT.sol\":10228:10233  owner */\n      dup1\n        /* \"contracts/NFT_Demo/NFT.sol\":10221:10233  return owner */\n      swap2\n      pop\n      pop\n        /* \"contracts/NFT_Demo/NFT.sol\":9927:10240  function ownerOf(uint256 tokenId)... */\n      swap2\n      swap1\n      pop\n      jump\t// out\n        /* \"contracts/NFT_Demo/NFT.sol\":9638:9921  function balanceOf(address owner)... */\n    tag_46:\n        /* \"contracts/NFT_Demo/NFT.sol\":9750:9757  uint256 */\n      0x00\n        /* \"contracts/NFT_Demo/NFT.sol\":9811:9812  0 */\n      dup1\n        /* \"contracts/NFT_Demo/NFT.sol\":9794:9813  owner != address(0) */\n      0xffffffffffffffffffffffffffffffffffffffff\n      and\n        /* \"contracts/NFT_Demo/NFT.sol\":9794:9799  owner */\n      dup3\n        /* \"contracts/NFT_Demo/NFT.sol\":9794:9813  owner != address(0) */\n      0xffffffffffffffffffffffffffffffffffffffff\n      and\n      sub\n        /* \"contracts/NFT_Demo/NFT.sol\":9773:9881  require(... */\n      tag_109\n      jumpi\n      mload(0x40)\n      0x08c379a000000000000000000000000000000000000000000000000000000000\n      dup2\n      mstore\n      0x04\n      add\n      tag_110\n      swap1\n      tag_111\n      jump\t// in\n    tag_110:\n      mload(0x40)\n      dup1\n      swap2\n      sub\n      swap1\n      revert\n    tag_109:\n        /* \"contracts/NFT_Demo/NFT.sol\":9898:9907  _balances */\n      0x01\n        /* \"contracts/NFT_Demo/NFT.sol\":9898:9914  _balances[owner] */\n      0x00\n        /* \"contracts/NFT_Demo/NFT.sol\":9908:9913  owner */\n      dup4\n        /* \"contracts/NFT_Demo/NFT.sol\":9898:9914  _balances[owner] */\n      0xffffffffffffffffffffffffffffffffffffffff\n      and\n      0xffffffffffffffffffffffffffffffffffffffff\n      and\n      dup2\n      mstore\n      0x20\n      add\n      swap1\n      dup2\n      mstore\n      0x20\n      add\n      0x00\n      keccak256\n      sload\n        /* \"contracts/NFT_Demo/NFT.sol\":9891:9914  return _balances[owner] */\n      swap1\n      pop\n        /* \"contracts/NFT_Demo/NFT.sol\":9638:9921  function balanceOf(address owner)... */\n      swap2\n      swap1\n      pop\n      jump\t// out\n        /* \"contracts/NFT_Demo/NFT.sol\":6540:6641  function renounceOwnership() public virtual onlyOwner {... */\n    tag_50:\n        /* \"contracts/NFT_Demo/NFT.sol\":6467:6479  _msgSender() */\n      tag_113\n        /* \"contracts/NFT_Demo/NFT.sol\":6467:6477  _msgSender */\n      tag_87\n        /* \"contracts/NFT_Demo/NFT.sol\":6467:6479  _msgSender() */\n      jump\t// in\n    tag_113:\n        /* \"contracts/NFT_Demo/NFT.sol\":6456:6479  owner() == _msgSender() */\n      0xffffffffffffffffffffffffffffffffffffffff\n      and\n        /* \"contracts/NFT_Demo/NFT.sol\":6456:6463  owner() */\n      tag_114\n        /* \"contracts/NFT_Demo/NFT.sol\":6456:6461  owner */\n      tag_52\n        /* \"contracts/NFT_Demo/NFT.sol\":6456:6463  owner() */\n      jump\t// in\n    tag_114:\n        /* \"contracts/NFT_Demo/NFT.sol\":6456:6479  owner() == _msgSender() */\n      0xffffffffffffffffffffffffffffffffffffffff\n      and\n      eq\n        /* \"contracts/NFT_Demo/NFT.sol\":6448:6516  require(owner() == _msgSender(), \"Ownable: caller is not the owner\") */\n      tag_115\n      jumpi\n      mload(0x40)\n      0x08c379a000000000000000000000000000000000000000000000000000000000\n      dup2\n      mstore\n      0x04\n      add\n      tag_116\n      swap1\n      tag_117\n      jump\t// in\n    tag_116:\n      mload(0x40)\n      dup1\n      swap2\n      sub\n      swap1\n      revert\n    tag_115:\n        /* \"contracts/NFT_Demo/NFT.sol\":6604:6634  _transferOwnership(address(0)) */\n      tag_119\n        /* \"contracts/NFT_Demo/NFT.sol\":6631:6632  0 */\n      0x00\n        /* \"contracts/NFT_Demo/NFT.sol\":6604:6622  _transferOwnership */\n      tag_120\n        /* \"contracts/NFT_Demo/NFT.sol\":6604:6634  _transferOwnership(address(0)) */\n      jump\t// in\n    tag_119:\n        /* \"contracts/NFT_Demo/NFT.sol\":6540:6641  function renounceOwnership() public virtual onlyOwner {... */\n      jump\t// out\n        /* \"contracts/NFT_Demo/NFT.sol\":6326:6411  function owner() public view virtual returns (address) {... */\n    tag_52:\n        /* \"contracts/NFT_Demo/NFT.sol\":6372:6379  address */\n      0x00\n        /* \"contracts/NFT_Demo/NFT.sol\":6398:6404  _owner */\n      dup1\n      0x00\n      swap1\n      sload\n      swap1\n      0x0100\n      exp\n      swap1\n      div\n      0xffffffffffffffffffffffffffffffffffffffff\n      and\n        /* \"contracts/NFT_Demo/NFT.sol\":6391:6404  return _owner */\n      swap1\n      pop\n        /* \"contracts/NFT_Demo/NFT.sol\":6326:6411  function owner() public view virtual returns (address) {... */\n      swap1\n      jump\t// out\n        /* \"contracts/NFT_Demo/NFT.sol\":10350:10452  function symbol() public view virtual override returns (string memory) {... */\n    tag_55:\n        /* \"contracts/NFT_Demo/NFT.sol\":10406:10419  string memory */\n      0x60\n        /* \"contracts/NFT_Demo/NFT.sol\":10438:10445  _symbol */\n      0x07\n        /* \"contracts/NFT_Demo/NFT.sol\":10431:10445  return _symbol */\n      dup1\n      sload\n      tag_123\n      swap1\n      tag_70\n      jump\t// in\n    tag_123:\n      dup1\n      0x1f\n      add\n      0x20\n      dup1\n      swap2\n      div\n      mul\n      0x20\n      add\n      mload(0x40)\n      swap1\n      dup2\n      add\n      0x40\n      mstore\n      dup1\n      swap3\n      swap2\n      swap1\n      dup2\n      dup2\n      mstore\n      0x20\n      add\n      dup3\n      dup1\n      sload\n      tag_124\n      swap1\n      tag_70\n      jump\t// in\n    tag_124:\n      dup1\n      iszero\n      tag_125\n      jumpi\n      dup1\n      0x1f\n      lt\n      tag_126\n      jumpi\n      0x0100\n      dup1\n      dup4\n      sload\n      div\n      mul\n      dup4\n      mstore\n      swap2\n      0x20\n      add\n      swap2\n      jump(tag_125)\n    tag_126:\n      dup3\n      add\n      swap2\n      swap1\n      0x00\n      mstore\n      keccak256(0x00, 0x20)\n      swap1\n    tag_127:\n      dup2\n      sload\n      dup2\n      mstore\n      swap1\n      0x01\n      add\n      swap1\n      0x20\n      add\n      dup1\n      dup4\n      gt\n      tag_127\n      jumpi\n      dup3\n      swap1\n      sub\n      0x1f\n      and\n      dup3\n      add\n      swap2\n    tag_125:\n      pop\n      pop\n      pop\n      pop\n      pop\n      swap1\n      pop\n        /* \"contracts/NFT_Demo/NFT.sol\":10350:10452  function symbol() public view virtual override returns (string memory) {... */\n      swap1\n      jump\t// out\n        /* \"contracts/NFT_Demo/NFT.sol\":11726:12080  function safeTransferFrom(... */\n    tag_60:\n        /* \"contracts/NFT_Demo/NFT.sol\":11908:11949  _isApprovedOrOwner(_msgSender(), tokenId) */\n      tag_129\n        /* \"contracts/NFT_Demo/NFT.sol\":11927:11939  _msgSender() */\n      tag_130\n        /* \"contracts/NFT_Demo/NFT.sol\":11927:11937  _msgSender */\n      tag_87\n        /* \"contracts/NFT_Demo/NFT.sol\":11927:11939  _msgSender() */\n      jump\t// in\n    tag_130:\n        /* \"contracts/NFT_Demo/NFT.sol\":11941:11948  tokenId */\n      dup4\n        /* \"contracts/NFT_Demo/NFT.sol\":11908:11926  _isApprovedOrOwner */\n      tag_96\n        /* \"contracts/NFT_Demo/NFT.sol\":11908:11949  _isApprovedOrOwner(_msgSender(), tokenId) */\n      jump\t// in\n    tag_129:\n        /* \"contracts/NFT_Demo/NFT.sol\":11887:12024  require(... */\n      tag_131\n      jumpi\n      mload(0x40)\n      0x08c379a000000000000000000000000000000000000000000000000000000000\n      dup2\n      mstore\n      0x04\n      add\n      tag_132\n      swap1\n      tag_99\n      jump\t// in\n    tag_132:\n      mload(0x40)\n      dup1\n      swap2\n      sub\n      swap1\n      revert\n    tag_131:\n        /* \"contracts/NFT_Demo/NFT.sol\":12034:12073  _safeTransfer(from, to, tokenId, _data) */\n      tag_133\n        /* \"contracts/NFT_Demo/NFT.sol\":12048:12052  from */\n      dup5\n        /* \"contracts/NFT_Demo/NFT.sol\":12054:12056  to */\n      dup5\n        /* \"contracts/NFT_Demo/NFT.sol\":12058:12065  tokenId */\n      dup5\n        /* \"contracts/NFT_Demo/NFT.sol\":12067:12072  _data */\n      dup5\n        /* \"contracts/NFT_Demo/NFT.sol\":12034:12047  _safeTransfer */\n      tag_134\n        /* \"contracts/NFT_Demo/NFT.sol\":12034:12073  _safeTransfer(from, to, tokenId, _data) */\n      jump\t// in\n    tag_133:\n        /* \"contracts/NFT_Demo/NFT.sol\":11726:12080  function safeTransferFrom(... */\n      pop\n      pop\n      pop\n      pop\n      jump\t// out\n        /* \"contracts/NFT_Demo/NFT.sol\":9181:9632  function tokenURI(uint256 tokenId)... */\n    tag_63:\n        /* \"contracts/NFT_Demo/NFT.sol\":9294:9307  string memory */\n      0x60\n        /* \"contracts/NFT_Demo/NFT.sol\":9344:9360  _exists(tokenId) */\n      tag_136\n        /* \"contracts/NFT_Demo/NFT.sol\":9352:9359  tokenId */\n      dup3\n        /* \"contracts/NFT_Demo/NFT.sol\":9344:9351  _exists */\n      tag_77\n        /* \"contracts/NFT_Demo/NFT.sol\":9344:9360  _exists(tokenId) */\n      jump\t// in\n    tag_136:\n        /* \"contracts/NFT_Demo/NFT.sol\":9323:9433  require(... */\n      tag_137\n      jumpi\n      mload(0x40)\n      0x08c379a000000000000000000000000000000000000000000000000000000000\n      dup2\n      mstore\n      0x04\n      add\n      tag_138\n      swap1\n      tag_139\n      jump\t// in\n    tag_138:\n      mload(0x40)\n      dup1\n      swap2\n      sub\n      swap1\n      revert\n    tag_137:\n        /* \"contracts/NFT_Demo/NFT.sol\":9444:9465  string memory baseURI */\n      0x00\n        /* \"contracts/NFT_Demo/NFT.sol\":9468:9478  _baseURI() */\n      tag_140\n        /* \"contracts/NFT_Demo/NFT.sol\":9468:9476  _baseURI */\n      tag_141\n        /* \"contracts/NFT_Demo/NFT.sol\":9468:9478  _baseURI() */\n      jump\t// in\n    tag_140:\n        /* \"contracts/NFT_Demo/NFT.sol\":9444:9478  string memory baseURI = _baseURI() */\n      swap1\n      pop\n        /* \"contracts/NFT_Demo/NFT.sol\":9531:9532  0 */\n      0x00\n        /* \"contracts/NFT_Demo/NFT.sol\":9513:9520  baseURI */\n      dup2\n        /* \"contracts/NFT_Demo/NFT.sol\":9507:9528  bytes(baseURI).length */\n      mload\n        /* \"contracts/NFT_Demo/NFT.sol\":9507:9532  bytes(baseURI).length > 0 */\n      gt\n        /* \"contracts/NFT_Demo/NFT.sol\":9507:9625  bytes(baseURI).length > 0... */\n      tag_142\n      jumpi\n      mload(0x40)\n      dup1\n      0x20\n      add\n      0x40\n      mstore\n      dup1\n      0x00\n      dup2\n      mstore\n      pop\n      jump(tag_143)\n    tag_142:\n        /* \"contracts/NFT_Demo/NFT.sol\":9575:9582  baseURI */\n      dup1\n        /* \"contracts/NFT_Demo/NFT.sol\":9584:9602  tokenId.toString() */\n      tag_144\n        /* \"contracts/NFT_Demo/NFT.sol\":9584:9591  tokenId */\n      dup5\n        /* \"contracts/NFT_Demo/NFT.sol\":9584:9600  tokenId.toString */\n      tag_145\n        /* \"contracts/NFT_Demo/NFT.sol\":9584:9602  tokenId.toString() */\n      jump\t// in\n    tag_144:\n        /* \"contracts/NFT_Demo/NFT.sol\":9558:9603  abi.encodePacked(baseURI, tokenId.toString()) */\n      add(0x20, mload(0x40))\n      tag_146\n      swap3\n      swap2\n      swap1\n      tag_147\n      jump\t// in\n    tag_146:\n      mload(0x40)\n      0x20\n      dup2\n      dup4\n      sub\n      sub\n      dup2\n      mstore\n      swap1\n      0x40\n      mstore\n        /* \"contracts/NFT_Demo/NFT.sol\":9507:9625  bytes(baseURI).length > 0... */\n    tag_143:\n        /* \"contracts/NFT_Demo/NFT.sol\":9488:9625  return... */\n      swap2\n      pop\n      pop\n        /* \"contracts/NFT_Demo/NFT.sol\":9181:9632  function tokenURI(uint256 tokenId)... */\n      swap2\n      swap1\n      pop\n      jump\t// out\n        /* \"contracts/NFT_Demo/NFT.sol\":6647:6879  function transferOwnership(address newOwner) public virtual onlyOwner {... */\n    tag_67:\n        /* \"contracts/NFT_Demo/NFT.sol\":6467:6479  _msgSender() */\n      tag_149\n        /* \"contracts/NFT_Demo/NFT.sol\":6467:6477  _msgSender */\n      tag_87\n        /* \"contracts/NFT_Demo/NFT.sol\":6467:6479  _msgSender() */\n      jump\t// in\n    tag_149:\n        /* \"contracts/NFT_Demo/NFT.sol\":6456:6479  owner() == _msgSender() */\n      0xffffffffffffffffffffffffffffffffffffffff\n      and\n        /* \"contracts/NFT_Demo/NFT.sol\":6456:6463  owner() */\n      tag_150\n        /* \"contracts/NFT_Demo/NFT.sol\":6456:6461  owner */\n      tag_52\n        /* \"contracts/NFT_Demo/NFT.sol\":6456:6463  owner() */\n      jump\t// in\n    tag_150:\n        /* \"contracts/NFT_Demo/NFT.sol\":6456:6479  owner() == _msgSender() */\n      0xffffffffffffffffffffffffffffffffffffffff\n      and\n      eq\n        /* \"contracts/NFT_Demo/NFT.sol\":6448:6516  require(owner() == _msgSender(), \"Ownable: caller is not the owner\") */\n      tag_151\n      jumpi\n      mload(0x40)\n      0x08c379a000000000000000000000000000000000000000000000000000000000\n      dup2\n      mstore\n      0x04\n      add\n      tag_152\n      swap1\n      tag_117\n      jump\t// in\n    tag_152:\n      mload(0x40)\n      dup1\n      swap2\n      sub\n      swap1\n      revert\n    tag_151:\n        /* \"contracts/NFT_Demo/NFT.sol\":6768:6769  0 */\n      0x00\n        /* \"contracts/NFT_Demo/NFT.sol\":6748:6770  newOwner != address(0) */\n      0xffffffffffffffffffffffffffffffffffffffff\n      and\n        /* \"contracts/NFT_Demo/NFT.sol\":6748:6756  newOwner */\n      dup2\n        /* \"contracts/NFT_Demo/NFT.sol\":6748:6770  newOwner != address(0) */\n      0xffffffffffffffffffffffffffffffffffffffff\n      and\n      sub\n        /* \"contracts/NFT_Demo/NFT.sol\":6727:6834  require(... */\n      tag_154\n      jumpi\n      mload(0x40)\n      0x08c379a000000000000000000000000000000000000000000000000000000000\n      dup2\n      mstore\n      0x04\n      add\n      tag_155\n      swap1\n      tag_156\n      jump\t// in\n    tag_155:\n      mload(0x40)\n      dup1\n      swap2\n      sub\n      swap1\n      revert\n    tag_154:\n        /* \"contracts/NFT_Demo/NFT.sol\":6844:6872  _transferOwnership(newOwner) */\n      tag_157\n        /* \"contracts/NFT_Demo/NFT.sol\":6863:6871  newOwner */\n      dup2\n        /* \"contracts/NFT_Demo/NFT.sol\":6844:6862  _transferOwnership */\n      tag_120\n        /* \"contracts/NFT_Demo/NFT.sol\":6844:6872  _transferOwnership(newOwner) */\n      jump\t// in\n    tag_157:\n        /* \"contracts/NFT_Demo/NFT.sol\":6647:6879  function transferOwnership(address newOwner) public virtual onlyOwner {... */\n      pop\n      jump\t// out\n        /* \"contracts/NFT_Demo/NFT.sol\":12433:12558  function _exists(uint256 tokenId) internal view virtual returns (bool) {... */\n    tag_77:\n        /* \"contracts/NFT_Demo/NFT.sol\":12498:12502  bool */\n      0x00\n        /* \"contracts/NFT_Demo/NFT.sol\":12549:12550  0 */\n      dup1\n        /* \"contracts/NFT_Demo/NFT.sol\":12521:12551  _owners[tokenId] != address(0) */\n      0xffffffffffffffffffffffffffffffffffffffff\n      and\n        /* \"contracts/NFT_Demo/NFT.sol\":12521:12528  _owners */\n      0x02\n        /* \"contracts/NFT_Demo/NFT.sol\":12521:12537  _owners[tokenId] */\n      0x00\n        /* \"contracts/NFT_Demo/NFT.sol\":12529:12536  tokenId */\n      dup5\n        /* \"contracts/NFT_Demo/NFT.sol\":12521:12537  _owners[tokenId] */\n      dup2\n      mstore\n      0x20\n      add\n      swap1\n      dup2\n      mstore\n      0x20\n      add\n      0x00\n      keccak256\n      0x00\n      swap1\n      sload\n      swap1\n      0x0100\n      exp\n      swap1\n      div\n      0xffffffffffffffffffffffffffffffffffffffff\n      and\n        /* \"contracts/NFT_Demo/NFT.sol\":12521:12551  _owners[tokenId] != address(0) */\n      0xffffffffffffffffffffffffffffffffffffffff\n      and\n      eq\n      iszero\n        /* \"contracts/NFT_Demo/NFT.sol\":12514:12551  return _owners[tokenId] != address(0) */\n      swap1\n      pop\n        /* \"contracts/NFT_Demo/NFT.sol\":12433:12558  function _exists(uint256 tokenId) internal view virtual returns (bool) {... */\n      swap2\n      swap1\n      pop\n      jump\t// out\n        /* \"contracts/NFT_Demo/NFT.sol\":99:195  function _msgSender() internal view virtual returns (address) {... */\n    tag_87:\n        /* \"contracts/NFT_Demo/NFT.sol\":152:159  address */\n      0x00\n        /* \"contracts/NFT_Demo/NFT.sol\":178:188  msg.sender */\n      caller\n        /* \"contracts/NFT_Demo/NFT.sol\":171:188  return msg.sender */\n      swap1\n      pop\n        /* \"contracts/NFT_Demo/NFT.sol\":99:195  function _msgSender() internal view virtual returns (address) {... */\n      swap1\n      jump\t// out\n        /* \"contracts/NFT_Demo/NFT.sol\":15148:15319  function _approve(address to, uint256 tokenId) internal virtual {... */\n    tag_92:\n        /* \"contracts/NFT_Demo/NFT.sol\":15249:15251  to */\n      dup2\n        /* \"contracts/NFT_Demo/NFT.sol\":15222:15237  _tokenApprovals */\n      0x04\n        /* \"contracts/NFT_Demo/NFT.sol\":15222:15246  _tokenApprovals[tokenId] */\n      0x00\n        /* \"contracts/NFT_Demo/NFT.sol\":15238:15245  tokenId */\n      dup4\n        /* \"contracts/NFT_Demo/NFT.sol\":15222:15246  _tokenApprovals[tokenId] */\n      dup2\n      mstore\n      0x20\n      add\n      swap1\n      dup2\n      mstore\n      0x20\n      add\n      0x00\n      keccak256\n      0x00\n        /* \"contracts/NFT_Demo/NFT.sol\":15222:15251  _tokenApprovals[tokenId] = to */\n      0x0100\n      exp\n      dup2\n      sload\n      dup2\n      0xffffffffffffffffffffffffffffffffffffffff\n      mul\n      not\n      and\n      swap1\n      dup4\n      0xffffffffffffffffffffffffffffffffffffffff\n      and\n      mul\n      or\n      swap1\n      sstore\n      pop\n        /* \"contracts/NFT_Demo/NFT.sol\":15304:15311  tokenId */\n      dup1\n        /* \"contracts/NFT_Demo/NFT.sol\":15300:15302  to */\n      dup3\n        /* \"contracts/NFT_Demo/NFT.sol\":15266:15312  Approval(ERC721.ownerOf(tokenId), to, tokenId) */\n      0xffffffffffffffffffffffffffffffffffffffff\n      and\n        /* \"contracts/NFT_Demo/NFT.sol\":15275:15298  ERC721.ownerOf(tokenId) */\n      tag_161\n        /* \"contracts/NFT_Demo/NFT.sol\":15290:15297  tokenId */\n      dup4\n        /* \"contracts/NFT_Demo/NFT.sol\":15275:15289  ERC721.ownerOf */\n      tag_41\n        /* \"contracts/NFT_Demo/NFT.sol\":15275:15298  ERC721.ownerOf(tokenId) */\n      jump\t// in\n    tag_161:\n        /* \"contracts/NFT_Demo/NFT.sol\":15266:15312  Approval(ERC721.ownerOf(tokenId), to, tokenId) */\n      0xffffffffffffffffffffffffffffffffffffffff\n      and\n      0x8c5be1e5ebec7d5bd14f71427d1e84f3dd0314c0f7b2291e5b200ac8c7c3b925\n      mload(0x40)\n      mload(0x40)\n      dup1\n      swap2\n      sub\n      swap1\n      log4\n        /* \"contracts/NFT_Demo/NFT.sol\":15148:15319  function _approve(address to, uint256 tokenId) internal virtual {... */\n      pop\n      pop\n      jump\t// out\n        /* \"contracts/NFT_Demo/NFT.sol\":12564:12942  function _isApprovedOrOwner(address spender, uint256 tokenId)... */\n    tag_96:\n        /* \"contracts/NFT_Demo/NFT.sol\":12689:12693  bool */\n      0x00\n        /* \"contracts/NFT_Demo/NFT.sol\":12730:12746  _exists(tokenId) */\n      tag_163\n        /* \"contracts/NFT_Demo/NFT.sol\":12738:12745  tokenId */\n      dup3\n        /* \"contracts/NFT_Demo/NFT.sol\":12730:12737  _exists */\n      tag_77\n        /* \"contracts/NFT_Demo/NFT.sol\":12730:12746  _exists(tokenId) */\n      jump\t// in\n    tag_163:\n        /* \"contracts/NFT_Demo/NFT.sol\":12709:12816  require(... */\n      tag_164\n      jumpi\n      mload(0x40)\n      0x08c379a000000000000000000000000000000000000000000000000000000000\n      dup2\n      mstore\n      0x04\n      add\n      tag_165\n      swap1\n      tag_166\n      jump\t// in\n    tag_165:\n      mload(0x40)\n      dup1\n      swap2\n      sub\n      swap1\n      revert\n    tag_164:\n        /* \"contracts/NFT_Demo/NFT.sol\":12826:12839  address owner */\n      0x00\n        /* \"contracts/NFT_Demo/NFT.sol\":12842:12865  ERC721.ownerOf(tokenId) */\n      tag_167\n        /* \"contracts/NFT_Demo/NFT.sol\":12857:12864  tokenId */\n      dup4\n        /* \"contracts/NFT_Demo/NFT.sol\":12842:12856  ERC721.ownerOf */\n      tag_41\n        /* \"contracts/NFT_Demo/NFT.sol\":12842:12865  ERC721.ownerOf(tokenId) */\n      jump\t// in\n    tag_167:\n        /* \"contracts/NFT_Demo/NFT.sol\":12826:12865  address owner = ERC721.ownerOf(tokenId) */\n      swap1\n      pop\n        /* \"contracts/NFT_Demo/NFT.sol\":12894:12899  owner */\n      dup1\n        /* \"contracts/NFT_Demo/NFT.sol\":12883:12899  spender == owner */\n      0xffffffffffffffffffffffffffffffffffffffff\n      and\n        /* \"contracts/NFT_Demo/NFT.sol\":12883:12890  spender */\n      dup5\n        /* \"contracts/NFT_Demo/NFT.sol\":12883:12899  spender == owner */\n      0xffffffffffffffffffffffffffffffffffffffff\n      and\n      eq\n        /* \"contracts/NFT_Demo/NFT.sol\":12883:12934  spender == owner || getApproved(tokenId) == spender */\n      dup1\n      tag_168\n      jumpi\n      pop\n        /* \"contracts/NFT_Demo/NFT.sol\":12927:12934  spender */\n      dup4\n        /* \"contracts/NFT_Demo/NFT.sol\":12903:12934  getApproved(tokenId) == spender */\n      0xffffffffffffffffffffffffffffffffffffffff\n      and\n        /* \"contracts/NFT_Demo/NFT.sol\":12903:12923  getApproved(tokenId) */\n      tag_169\n        /* \"contracts/NFT_Demo/NFT.sol\":12915:12922  tokenId */\n      dup5\n        /* \"contracts/NFT_Demo/NFT.sol\":12903:12914  getApproved */\n      tag_25\n        /* \"contracts/NFT_Demo/NFT.sol\":12903:12923  getApproved(tokenId) */\n      jump\t// in\n    tag_169:\n        /* \"contracts/NFT_Demo/NFT.sol\":12903:12934  getApproved(tokenId) == spender */\n      0xffffffffffffffffffffffffffffffffffffffff\n      and\n      eq\n        /* \"contracts/NFT_Demo/NFT.sol\":12883:12934  spender == owner || getApproved(tokenId) == spender */\n    tag_168:\n        /* \"contracts/NFT_Demo/NFT.sol\":12875:12935  return (spender == owner || getApproved(tokenId) == spender) */\n      swap2\n      pop\n      pop\n        /* \"contracts/NFT_Demo/NFT.sol\":12564:12942  function _isApprovedOrOwner(address spender, uint256 tokenId)... */\n      swap3\n      swap2\n      pop\n      pop\n      jump\t// out\n        /* \"contracts/NFT_Demo/NFT.sol\":14503:15142  function _transfer(... */\n    tag_101:\n        /* \"contracts/NFT_Demo/NFT.sol\":14670:14674  from */\n      dup3\n        /* \"contracts/NFT_Demo/NFT.sol\":14643:14674  ERC721.ownerOf(tokenId) == from */\n      0xffffffffffffffffffffffffffffffffffffffff\n      and\n        /* \"contracts/NFT_Demo/NFT.sol\":14643:14666  ERC721.ownerOf(tokenId) */\n      tag_171\n        /* \"contracts/NFT_Demo/NFT.sol\":14658:14665  tokenId */\n      dup3\n        /* \"contracts/NFT_Demo/NFT.sol\":14643:14657  ERC721.ownerOf */\n      tag_41\n        /* \"contracts/NFT_Demo/NFT.sol\":14643:14666  ERC721.ownerOf(tokenId) */\n      jump\t// in\n    tag_171:\n        /* \"contracts/NFT_Demo/NFT.sol\":14643:14674  ERC721.ownerOf(tokenId) == from */\n      0xffffffffffffffffffffffffffffffffffffffff\n      and\n      eq\n        /* \"contracts/NFT_Demo/NFT.sol\":14622:14737  require(... */\n      tag_172\n      jumpi\n      mload(0x40)\n      0x08c379a000000000000000000000000000000000000000000000000000000000\n      dup2\n      mstore\n      0x04\n      add\n      tag_173\n      swap1\n      tag_174\n      jump\t// in\n    tag_173:\n      mload(0x40)\n      dup1\n      swap2\n      sub\n      swap1\n      revert\n    tag_172:\n        /* \"contracts/NFT_Demo/NFT.sol\":14769:14770  0 */\n      0x00\n        /* \"contracts/NFT_Demo/NFT.sol\":14755:14771  to != address(0) */\n      0xffffffffffffffffffffffffffffffffffffffff\n      and\n        /* \"contracts/NFT_Demo/NFT.sol\":14755:14757  to */\n      dup3\n        /* \"contracts/NFT_Demo/NFT.sol\":14755:14771  to != address(0) */\n      0xffffffffffffffffffffffffffffffffffffffff\n      and\n      sub\n        /* \"contracts/NFT_Demo/NFT.sol\":14747:14812  require(to != address(0), \"ERC721: transfer to the zero address\") */\n      tag_175\n      jumpi\n      mload(0x40)\n      0x08c379a000000000000000000000000000000000000000000000000000000000\n      dup2\n      mstore\n      0x04\n      add\n      tag_176\n      swap1\n      tag_177\n      jump\t// in\n    tag_176:\n      mload(0x40)\n      dup1\n      swap2\n      sub\n      swap1\n      revert\n    tag_175:\n        /* \"contracts/NFT_Demo/NFT.sol\":14823:14862  _beforeTokenTransfer(from, to, tokenId) */\n      tag_178\n        /* \"contracts/NFT_Demo/NFT.sol\":14844:14848  from */\n      dup4\n        /* \"contracts/NFT_Demo/NFT.sol\":14850:14852  to */\n      dup4\n        /* \"contracts/NFT_Demo/NFT.sol\":14854:14861  tokenId */\n      dup4\n        /* \"contracts/NFT_Demo/NFT.sol\":14823:14843  _beforeTokenTransfer */\n      tag_179\n        /* \"contracts/NFT_Demo/NFT.sol\":14823:14862  _beforeTokenTransfer(from, to, tokenId) */\n      jump\t// in\n    tag_178:\n        /* \"contracts/NFT_Demo/NFT.sol\":14924:14953  _approve(address(0), tokenId) */\n      tag_180\n        /* \"contracts/NFT_Demo/NFT.sol\":14941:14942  0 */\n      0x00\n        /* \"contracts/NFT_Demo/NFT.sol\":14945:14952  tokenId */\n      dup3\n        /* \"contracts/NFT_Demo/NFT.sol\":14924:14932  _approve */\n      tag_92\n        /* \"contracts/NFT_Demo/NFT.sol\":14924:14953  _approve(address(0), tokenId) */\n      jump\t// in\n    tag_180:\n        /* \"contracts/NFT_Demo/NFT.sol\":14983:14984  1 */\n      0x01\n        /* \"contracts/NFT_Demo/NFT.sol\":14964:14973  _balances */\n      dup1\n        /* \"contracts/NFT_Demo/NFT.sol\":14964:14979  _balances[from] */\n      0x00\n        /* \"contracts/NFT_Demo/NFT.sol\":14974:14978  from */\n      dup6\n        /* \"contracts/NFT_Demo/NFT.sol\":14964:14979  _balances[from] */\n      0xffffffffffffffffffffffffffffffffffffffff\n      and\n      0xffffffffffffffffffffffffffffffffffffffff\n      and\n      dup2\n      mstore\n      0x20\n      add\n      swap1\n      dup2\n      mstore\n      0x20\n      add\n      0x00\n      keccak256\n      0x00\n        /* \"contracts/NFT_Demo/NFT.sol\":14964:14984  _balances[from] -= 1 */\n      dup3\n      dup3\n      sload\n      tag_181\n      swap2\n      swap1\n      tag_182\n      jump\t// in\n    tag_181:\n      swap3\n      pop\n      pop\n      dup2\n      swap1\n      sstore\n      pop\n        /* \"contracts/NFT_Demo/NFT.sol\":15011:15012  1 */\n      0x01\n        /* \"contracts/NFT_Demo/NFT.sol\":14994:15003  _balances */\n      dup1\n        /* \"contracts/NFT_Demo/NFT.sol\":14994:15007  _balances[to] */\n      0x00\n        /* \"contracts/NFT_Demo/NFT.sol\":15004:15006  to */\n      dup5\n        /* \"contracts/NFT_Demo/NFT.sol\":14994:15007  _balances[to] */\n      0xffffffffffffffffffffffffffffffffffffffff\n      and\n      0xffffffffffffffffffffffffffffffffffffffff\n      and\n      dup2\n      mstore\n      0x20\n      add\n      swap1\n      dup2\n      mstore\n      0x20\n      add\n      0x00\n      keccak256\n      0x00\n        /* \"contracts/NFT_Demo/NFT.sol\":14994:15012  _balances[to] += 1 */\n      dup3\n      dup3\n      sload\n      tag_183\n      swap2\n      swap1\n      tag_184\n      jump\t// in\n    tag_183:\n      swap3\n      pop\n      pop\n      dup2\n      swap1\n      sstore\n      pop\n        /* \"contracts/NFT_Demo/NFT.sol\":15041:15043  to */\n      dup2\n        /* \"contracts/NFT_Demo/NFT.sol\":15022:15029  _owners */\n      0x02\n        /* \"contracts/NFT_Demo/NFT.sol\":15022:15038  _owners[tokenId] */\n      0x00\n        /* \"contracts/NFT_Demo/NFT.sol\":15030:15037  tokenId */\n      dup4\n        /* \"contracts/NFT_Demo/NFT.sol\":15022:15038  _owners[tokenId] */\n      dup2\n      mstore\n      0x20\n      add\n      swap1\n      dup2\n      mstore\n      0x20\n      add\n      0x00\n      keccak256\n      0x00\n        /* \"contracts/NFT_Demo/NFT.sol\":15022:15043  _owners[tokenId] = to */\n      0x0100\n      exp\n      dup2\n      sload\n      dup2\n      0xffffffffffffffffffffffffffffffffffffffff\n      mul\n      not\n      and\n      swap1\n      dup4\n      0xffffffffffffffffffffffffffffffffffffffff\n      and\n      mul\n      or\n      swap1\n      sstore\n      pop\n        /* \"contracts/NFT_Demo/NFT.sol\":15078:15085  tokenId */\n      dup1\n        /* \"contracts/NFT_Demo/NFT.sol\":15074:15076  to */\n      dup3\n        /* \"contracts/NFT_Demo/NFT.sol\":15059:15086  Transfer(from, to, tokenId) */\n      0xffffffffffffffffffffffffffffffffffffffff\n      and\n        /* \"contracts/NFT_Demo/NFT.sol\":15068:15072  from */\n      dup5\n        /* \"contracts/NFT_Demo/NFT.sol\":15059:15086  Transfer(from, to, tokenId) */\n      0xffffffffffffffffffffffffffffffffffffffff\n      and\n      0xddf252ad1be2c89b69c2b068fc378daa952ba7f163c4a11628f55a4df523b3ef\n      mload(0x40)\n      mload(0x40)\n      dup1\n      swap2\n      sub\n      swap1\n      log4\n        /* \"contracts/NFT_Demo/NFT.sol\":15097:15135  _afterTokenTransfer(from, to, tokenId) */\n      tag_185\n        /* \"contracts/NFT_Demo/NFT.sol\":15117:15121  from */\n      dup4\n        /* \"contracts/NFT_Demo/NFT.sol\":15123:15125  to */\n      dup4\n        /* \"contracts/NFT_Demo/NFT.sol\":15127:15134  tokenId */\n      dup4\n        /* \"contracts/NFT_Demo/NFT.sol\":15097:15116  _afterTokenTransfer */\n      tag_186\n        /* \"contracts/NFT_Demo/NFT.sol\":15097:15135  _afterTokenTransfer(from, to, tokenId) */\n      jump\t// in\n    tag_185:\n        /* \"contracts/NFT_Demo/NFT.sol\":14503:15142  function _transfer(... */\n      pop\n      pop\n      pop\n      jump\t// out\n        /* \"contracts/NFT_Demo/NFT.sol\":6885:7072  function _transferOwnership(address newOwner) internal virtual {... */\n    tag_120:\n        /* \"contracts/NFT_Demo/NFT.sol\":6958:6974  address oldOwner */\n      0x00\n        /* \"contracts/NFT_Demo/NFT.sol\":6977:6983  _owner */\n      dup1\n      0x00\n      swap1\n      sload\n      swap1\n      0x0100\n      exp\n      swap1\n      div\n      0xffffffffffffffffffffffffffffffffffffffff\n      and\n        /* \"contracts/NFT_Demo/NFT.sol\":6958:6983  address oldOwner = _owner */\n      swap1\n      pop\n        /* \"contracts/NFT_Demo/NFT.sol\":7002:7010  newOwner */\n      dup2\n        /* \"contracts/NFT_Demo/NFT.sol\":6993:6999  _owner */\n      0x00\n      dup1\n        /* \"contracts/NFT_Demo/NFT.sol\":6993:7010  _owner = newOwner */\n      0x0100\n      exp\n      dup2\n      sload\n      dup2\n      0xffffffffffffffffffffffffffffffffffffffff\n      mul\n      not\n      and\n      swap1\n      dup4\n      0xffffffffffffffffffffffffffffffffffffffff\n      and\n      mul\n      or\n      swap1\n      sstore\n      pop\n        /* \"contracts/NFT_Demo/NFT.sol\":7056:7064  newOwner */\n      dup2\n        /* \"contracts/NFT_Demo/NFT.sol\":7025:7065  OwnershipTransferred(oldOwner, newOwner) */\n      0xffffffffffffffffffffffffffffffffffffffff\n      and\n        /* \"contracts/NFT_Demo/NFT.sol\":7046:7054  oldOwner */\n      dup2\n        /* \"contracts/NFT_Demo/NFT.sol\":7025:7065  OwnershipTransferred(oldOwner, newOwner) */\n      0xffffffffffffffffffffffffffffffffffffffff\n      and\n      0x8be0079c531659141344cd1fd0a4f28419497f9722a3daafe3b4186f6b6457e0\n      mload(0x40)\n      mload(0x40)\n      dup1\n      swap2\n      sub\n      swap1\n      log3\n        /* \"contracts/NFT_Demo/NFT.sol\":6948:7072  {... */\n      pop\n        /* \"contracts/NFT_Demo/NFT.sol\":6885:7072  function _transferOwnership(address newOwner) internal virtual {... */\n      pop\n      jump\t// out\n        /* \"contracts/NFT_Demo/NFT.sol\":12086:12427  function _safeTransfer(... */\n    tag_134:\n        /* \"contracts/NFT_Demo/NFT.sol\":12237:12265  _transfer(from, to, tokenId) */\n      tag_189\n        /* \"contracts/NFT_Demo/NFT.sol\":12247:12251  from */\n      dup5\n        /* \"contracts/NFT_Demo/NFT.sol\":12253:12255  to */\n      dup5\n        /* \"contracts/NFT_Demo/NFT.sol\":12257:12264  tokenId */\n      dup5\n        /* \"contracts/NFT_Demo/NFT.sol\":12237:12246  _transfer */\n      tag_101\n        /* \"contracts/NFT_Demo/NFT.sol\":12237:12265  _transfer(from, to, tokenId) */\n      jump\t// in\n    tag_189:\n        /* \"contracts/NFT_Demo/NFT.sol\":12296:12344  _checkOnERC721Received(from, to, tokenId, _data) */\n      tag_190\n        /* \"contracts/NFT_Demo/NFT.sol\":12319:12323  from */\n      dup5\n        /* \"contracts/NFT_Demo/NFT.sol\":12325:12327  to */\n      dup5\n        /* \"contracts/NFT_Demo/NFT.sol\":12329:12336  tokenId */\n      dup5\n        /* \"contracts/NFT_Demo/NFT.sol\":12338:12343  _data */\n      dup5\n        /* \"contracts/NFT_Demo/NFT.sol\":12296:12318  _checkOnERC721Received */\n      tag_191\n        /* \"contracts/NFT_Demo/NFT.sol\":12296:12344  _checkOnERC721Received(from, to, tokenId, _data) */\n      jump\t// in\n    tag_190:\n        /* \"contracts/NFT_Demo/NFT.sol\":12275:12420  require(... */\n      tag_192\n      jumpi\n      mload(0x40)\n      0x08c379a000000000000000000000000000000000000000000000000000000000\n      dup2\n      mstore\n      0x04\n      add\n      tag_193\n      swap1\n      tag_194\n      jump\t// in\n    tag_193:\n      mload(0x40)\n      dup1\n      swap2\n      sub\n      swap1\n      revert\n    tag_192:\n        /* \"contracts/NFT_Demo/NFT.sol\":12086:12427  function _safeTransfer(... */\n      pop\n      pop\n      pop\n      pop\n      jump\t// out\n        /* \"contracts/NFT_Demo/NFT.sol\":10458:10550  function _baseURI() internal view virtual returns (string memory) {... */\n    tag_141:\n        /* \"contracts/NFT_Demo/NFT.sol\":10509:10522  string memory */\n      0x60\n        /* \"contracts/NFT_Demo/NFT.sol\":10534:10543  return \"\" */\n      mload(0x40)\n      dup1\n      0x20\n      add\n      0x40\n      mstore\n      dup1\n      0x00\n      dup2\n      mstore\n      pop\n      swap1\n      pop\n        /* \"contracts/NFT_Demo/NFT.sol\":10458:10550  function _baseURI() internal view virtual returns (string memory) {... */\n      swap1\n      jump\t// out\n        /* \"contracts/NFT_Demo/NFT.sol\":4744:5259  function toString(uint256 value) internal pure returns (string memory) {... */\n    tag_145:\n        /* \"contracts/NFT_Demo/NFT.sol\":4800:4813  string memory */\n      0x60\n        /* \"contracts/NFT_Demo/NFT.sol\":4838:4839  0 */\n      0x00\n        /* \"contracts/NFT_Demo/NFT.sol\":4829:4834  value */\n      dup3\n        /* \"contracts/NFT_Demo/NFT.sol\":4829:4839  value == 0 */\n      sub\n        /* \"contracts/NFT_Demo/NFT.sol\":4825:4876  if (value == 0) {... */\n      tag_197\n      jumpi\n        /* \"contracts/NFT_Demo/NFT.sol\":4855:4865  return \"0\" */\n      mload(0x40)\n      dup1\n      0x40\n      add\n      0x40\n      mstore\n      dup1\n      0x01\n      dup2\n      mstore\n      0x20\n      add\n      0x3000000000000000000000000000000000000000000000000000000000000000\n      dup2\n      mstore\n      pop\n      swap1\n      pop\n      jump(tag_196)\n        /* \"contracts/NFT_Demo/NFT.sol\":4825:4876  if (value == 0) {... */\n    tag_197:\n        /* \"contracts/NFT_Demo/NFT.sol\":4885:4897  uint256 temp */\n      0x00\n        /* \"contracts/NFT_Demo/NFT.sol\":4900:4905  value */\n      dup3\n        /* \"contracts/NFT_Demo/NFT.sol\":4885:4905  uint256 temp = value */\n      swap1\n      pop\n        /* \"contracts/NFT_Demo/NFT.sol\":4915:4929  uint256 digits */\n      0x00\n        /* \"contracts/NFT_Demo/NFT.sol\":4939:5014  while (temp != 0) {... */\n    tag_198:\n        /* \"contracts/NFT_Demo/NFT.sol\":4954:4955  0 */\n      0x00\n        /* \"contracts/NFT_Demo/NFT.sol\":4946:4950  temp */\n      dup3\n        /* \"contracts/NFT_Demo/NFT.sol\":4946:4955  temp != 0 */\n      eq\n        /* \"contracts/NFT_Demo/NFT.sol\":4939:5014  while (temp != 0) {... */\n      tag_199\n      jumpi\n        /* \"contracts/NFT_Demo/NFT.sol\":4971:4979  digits++ */\n      dup1\n      dup1\n      tag_200\n      swap1\n      tag_201\n      jump\t// in\n    tag_200:\n      swap2\n      pop\n      pop\n        /* \"contracts/NFT_Demo/NFT.sol\":5001:5003  10 */\n      0x0a\n        /* \"contracts/NFT_Demo/NFT.sol\":4993:5003  temp /= 10 */\n      dup3\n      tag_202\n      swap2\n      swap1\n      tag_203\n      jump\t// in\n    tag_202:\n      swap2\n      pop\n        /* \"contracts/NFT_Demo/NFT.sol\":4939:5014  while (temp != 0) {... */\n      jump(tag_198)\n    tag_199:\n        /* \"contracts/NFT_Demo/NFT.sol\":5023:5042  bytes memory buffer */\n      0x00\n        /* \"contracts/NFT_Demo/NFT.sol\":5055:5061  digits */\n      dup2\n        /* \"contracts/NFT_Demo/NFT.sol\":5045:5062  new bytes(digits) */\n      0xffffffffffffffff\n      dup2\n      gt\n      iszero\n      tag_204\n      jumpi\n      tag_205\n      tag_206\n      jump\t// in\n    tag_205:\n    tag_204:\n      mload(0x40)\n      swap1\n      dup1\n      dup3\n      mstore\n      dup1\n      0x1f\n      add\n      not(0x1f)\n      and\n      0x20\n      add\n      dup3\n      add\n      0x40\n      mstore\n      dup1\n      iszero\n      tag_207\n      jumpi\n      dup2\n      0x20\n      add\n      0x01\n      dup3\n      mul\n      dup1\n      calldatasize\n      dup4\n      calldatacopy\n      dup1\n      dup3\n      add\n      swap2\n      pop\n      pop\n      swap1\n      pop\n    tag_207:\n      pop\n        /* \"contracts/NFT_Demo/NFT.sol\":5023:5062  bytes memory buffer = new bytes(digits) */\n      swap1\n      pop\n        /* \"contracts/NFT_Demo/NFT.sol\":5072:5222  while (value != 0) {... */\n    tag_208:\n        /* \"contracts/NFT_Demo/NFT.sol\":5088:5089  0 */\n      0x00\n        /* \"contracts/NFT_Demo/NFT.sol\":5079:5084  value */\n      dup6\n        /* \"contracts/NFT_Demo/NFT.sol\":5079:5089  value != 0 */\n      eq\n        /* \"contracts/NFT_Demo/NFT.sol\":5072:5222  while (value != 0) {... */\n      tag_209\n      jumpi\n        /* \"contracts/NFT_Demo/NFT.sol\":5115:5116  1 */\n      0x01\n        /* \"contracts/NFT_Demo/NFT.sol\":5105:5116  digits -= 1 */\n      dup3\n      tag_210\n      swap2\n      swap1\n      tag_182\n      jump\t// in\n    tag_210:\n      swap2\n      pop\n        /* \"contracts/NFT_Demo/NFT.sol\":5181:5183  10 */\n      0x0a\n        /* \"contracts/NFT_Demo/NFT.sol\":5173:5178  value */\n      dup6\n        /* \"contracts/NFT_Demo/NFT.sol\":5173:5183  value % 10 */\n      tag_211\n      swap2\n      swap1\n      tag_212\n      jump\t// in\n    tag_211:\n        /* \"contracts/NFT_Demo/NFT.sol\":5160:5162  48 */\n      0x30\n        /* \"contracts/NFT_Demo/NFT.sol\":5160:5184  48 + uint256(value % 10) */\n      tag_213\n      swap2\n      swap1\n      tag_184\n      jump\t// in\n    tag_213:\n        /* \"contracts/NFT_Demo/NFT.sol\":5147:5186  bytes1(uint8(48 + uint256(value % 10))) */\n      0xf8\n      shl\n        /* \"contracts/NFT_Demo/NFT.sol\":5130:5136  buffer */\n      dup2\n        /* \"contracts/NFT_Demo/NFT.sol\":5137:5143  digits */\n      dup4\n        /* \"contracts/NFT_Demo/NFT.sol\":5130:5144  buffer[digits] */\n      dup2\n      mload\n      dup2\n      lt\n      tag_214\n      jumpi\n      tag_215\n      tag_216\n      jump\t// in\n    tag_215:\n    tag_214:\n      0x20\n      add\n      add\n        /* \"contracts/NFT_Demo/NFT.sol\":5130:5186  buffer[digits] = bytes1(uint8(48 + uint256(value % 10))) */\n      swap1\n      not(0xffffffffffffffffffffffffffffffffffffffffffffffffffffffffffffff)\n      and\n      swap1\n      dup2\n      0x00\n      byte\n      swap1\n      mstore8\n      pop\n        /* \"contracts/NFT_Demo/NFT.sol\":5209:5211  10 */\n      0x0a\n        /* \"contracts/NFT_Demo/NFT.sol\":5200:5211  value /= 10 */\n      dup6\n      tag_217\n      swap2\n      swap1\n      tag_203\n      jump\t// in\n    tag_217:\n      swap5\n      pop\n        /* \"contracts/NFT_Demo/NFT.sol\":5072:5222  while (value != 0) {... */\n      jump(tag_208)\n    tag_209:\n        /* \"contracts/NFT_Demo/NFT.sol\":5245:5251  buffer */\n      dup1\n        /* \"contracts/NFT_Demo/NFT.sol\":5231:5252  return string(buffer) */\n      swap4\n      pop\n      pop\n      pop\n      pop\n        /* \"contracts/NFT_Demo/NFT.sol\":4744:5259  function toString(uint256 value) internal pure returns (string memory) {... */\n    tag_196:\n      swap2\n      swap1\n      pop\n      jump\t// out\n        /* \"contracts/NFT_Demo/NFT.sol\":16594:16834  function _beforeTokenTransfer(... */\n    tag_179:\n        /* \"contracts/NFT_Demo/NFT.sol\":16765:16769  from */\n      dup3\n        /* \"contracts/NFT_Demo/NFT.sol\":16745:16769  _owners[tokenId] == from */\n      0xffffffffffffffffffffffffffffffffffffffff\n      and\n        /* \"contracts/NFT_Demo/NFT.sol\":16745:16752  _owners */\n      0x02\n        /* \"contracts/NFT_Demo/NFT.sol\":16745:16761  _owners[tokenId] */\n      0x00\n        /* \"contracts/NFT_Demo/NFT.sol\":16753:16760  tokenId */\n      dup4\n        /* \"contracts/NFT_Demo/NFT.sol\":16745:16761  _owners[tokenId] */\n      dup2\n      mstore\n      0x20\n      add\n      swap1\n      dup2\n      mstore\n      0x20\n      add\n      0x00\n      keccak256\n      0x00\n      swap1\n      sload\n      swap1\n      0x0100\n      exp\n      swap1\n      div\n      0xffffffffffffffffffffffffffffffffffffffff\n      and\n        /* \"contracts/NFT_Demo/NFT.sol\":16745:16769  _owners[tokenId] == from */\n      0xffffffffffffffffffffffffffffffffffffffff\n      and\n      eq\n        /* \"contracts/NFT_Demo/NFT.sol\":16724:16827  require(... */\n      tag_219\n      jumpi\n      mload(0x40)\n      0x08c379a000000000000000000000000000000000000000000000000000000000\n      dup2\n      mstore\n      0x04\n      add\n      tag_220\n      swap1\n      tag_221\n      jump\t// in\n    tag_220:\n      mload(0x40)\n      dup1\n      swap2\n      sub\n      swap1\n      revert\n    tag_219:\n        /* \"contracts/NFT_Demo/NFT.sol\":16594:16834  function _beforeTokenTransfer(... */\n      pop\n      pop\n      pop\n      jump\t// out\n        /* \"contracts/NFT_Demo/NFT.sol\":16840:16961  function _afterTokenTransfer(... */\n    tag_186:\n      pop\n      pop\n      pop\n      jump\t// out\n        /* \"contracts/NFT_Demo/NFT.sol\":15638:16588  function _checkOnERC721Received(... */\n    tag_191:\n        /* \"contracts/NFT_Demo/NFT.sol\":15788:15792  bool */\n      0x00\n        /* \"contracts/NFT_Demo/NFT.sol\":15808:15823  to.isContract() */\n      tag_224\n        /* \"contracts/NFT_Demo/NFT.sol\":15808:15810  to */\n      dup5\n        /* \"contracts/NFT_Demo/NFT.sol\":15808:15821  to.isContract */\n      0xffffffffffffffffffffffffffffffffffffffff\n      and\n      tag_225\n        /* \"contracts/NFT_Demo/NFT.sol\":15808:15823  to.isContract() */\n      jump\t// in\n    tag_224:\n        /* \"contracts/NFT_Demo/NFT.sol\":15804:16582  if (to.isContract()) {... */\n      iszero\n      tag_226\n      jumpi\n        /* \"contracts/NFT_Demo/NFT.sol\":15875:15877  to */\n      dup4\n        /* \"contracts/NFT_Demo/NFT.sol\":15859:15895  IERC721Receiver(to).onERC721Received */\n      0xffffffffffffffffffffffffffffffffffffffff\n      and\n      0x150b7a02\n        /* \"contracts/NFT_Demo/NFT.sol\":15917:15929  _msgSender() */\n      tag_227\n        /* \"contracts/NFT_Demo/NFT.sol\":15917:15927  _msgSender */\n      tag_87\n        /* \"contracts/NFT_Demo/NFT.sol\":15917:15929  _msgSender() */\n      jump\t// in\n    tag_227:\n        /* \"contracts/NFT_Demo/NFT.sol\":15951:15955  from */\n      dup8\n        /* \"contracts/NFT_Demo/NFT.sol\":15977:15984  tokenId */\n      dup7\n        /* \"contracts/NFT_Demo/NFT.sol\":16006:16011  _data */\n      dup7\n        /* \"contracts/NFT_Demo/NFT.sol\":15859:16029  IERC721Receiver(to).onERC721Received(... */\n      mload(0x40)\n      dup6\n      0xffffffff\n      and\n      0xe0\n      shl\n      dup2\n      mstore\n      0x04\n      add\n      tag_228\n      swap5\n      swap4\n      swap3\n      swap2\n      swap1\n      tag_229\n      jump\t// in\n    tag_228:\n      0x20\n      mload(0x40)\n      dup1\n      dup4\n      sub\n      dup2\n      0x00\n      dup8\n      gas\n      call\n      swap3\n      pop\n      pop\n      pop\n      dup1\n      iszero\n      tag_230\n      jumpi\n      pop\n      mload(0x40)\n      returndatasize\n      not(0x1f)\n      0x1f\n      dup3\n      add\n      and\n      dup3\n      add\n      dup1\n      0x40\n      mstore\n      pop\n      dup2\n      add\n      swap1\n      tag_231\n      swap2\n      swap1\n      tag_232\n      jump\t// in\n    tag_231:\n      0x01\n    tag_230:\n        /* \"contracts/NFT_Demo/NFT.sol\":15839:16530  try... */\n      tag_233\n      jumpi\n      returndatasize\n      dup1\n      0x00\n      dup2\n      eq\n      tag_238\n      jumpi\n      mload(0x40)\n      swap2\n      pop\n      and(add(returndatasize, 0x3f), not(0x1f))\n      dup3\n      add\n      0x40\n      mstore\n      returndatasize\n      dup3\n      mstore\n      returndatasize\n      0x00\n      0x20\n      dup5\n      add\n      returndatacopy\n      jump(tag_237)\n    tag_238:\n      0x60\n      swap2\n      pop\n    tag_237:\n      pop\n        /* \"contracts/NFT_Demo/NFT.sol\":16225:16226  0 */\n      0x00\n        /* \"contracts/NFT_Demo/NFT.sol\":16208:16214  reason */\n      dup2\n        /* \"contracts/NFT_Demo/NFT.sol\":16208:16221  reason.length */\n      mload\n        /* \"contracts/NFT_Demo/NFT.sol\":16208:16226  reason.length == 0 */\n      sub\n        /* \"contracts/NFT_Demo/NFT.sol\":16204:16516  if (reason.length == 0) {... */\n      tag_239\n      jumpi\n        /* \"contracts/NFT_Demo/NFT.sol\":16250:16356  revert(... */\n      mload(0x40)\n      0x08c379a000000000000000000000000000000000000000000000000000000000\n      dup2\n      mstore\n      0x04\n      add\n      tag_240\n      swap1\n      tag_194\n      jump\t// in\n    tag_240:\n      mload(0x40)\n      dup1\n      swap2\n      sub\n      swap1\n      revert\n        /* \"contracts/NFT_Demo/NFT.sol\":16204:16516  if (reason.length == 0) {... */\n    tag_239:\n        /* \"contracts/NFT_Demo/NFT.sol\":16468:16474  reason */\n      dup1\n        /* \"contracts/NFT_Demo/NFT.sol\":16462:16475  mload(reason) */\n      mload\n        /* \"contracts/NFT_Demo/NFT.sol\":16453:16459  reason */\n      dup2\n        /* \"contracts/NFT_Demo/NFT.sol\":16449:16451  32 */\n      0x20\n        /* \"contracts/NFT_Demo/NFT.sol\":16445:16460  add(32, reason) */\n      add\n        /* \"contracts/NFT_Demo/NFT.sol\":16438:16476  revert(add(32, reason), mload(reason)) */\n      revert\n        /* \"contracts/NFT_Demo/NFT.sol\":15839:16530  try... */\n    tag_233:\n        /* \"contracts/NFT_Demo/NFT.sol\":16101:16142  IERC721Receiver.onERC721Received.selector */\n      shl(0xe0, 0x150b7a02)\n        /* \"contracts/NFT_Demo/NFT.sol\":16091:16142  retval == IERC721Receiver.onERC721Received.selector */\n      not(0xffffffffffffffffffffffffffffffffffffffffffffffffffffffff)\n      and\n        /* \"contracts/NFT_Demo/NFT.sol\":16091:16097  retval */\n      dup2\n        /* \"contracts/NFT_Demo/NFT.sol\":16091:16142  retval == IERC721Receiver.onERC721Received.selector */\n      not(0xffffffffffffffffffffffffffffffffffffffffffffffffffffffff)\n      and\n      eq\n        /* \"contracts/NFT_Demo/NFT.sol\":16084:16142  return retval == IERC721Receiver.onERC721Received.selector */\n      swap2\n      pop\n      pop\n      jump(tag_223)\n        /* \"contracts/NFT_Demo/NFT.sol\":15804:16582  if (to.isContract()) {... */\n    tag_226:\n        /* \"contracts/NFT_Demo/NFT.sol\":16567:16571  true */\n      0x01\n        /* \"contracts/NFT_Demo/NFT.sol\":16560:16571  return true */\n      swap1\n      pop\n        /* \"contracts/NFT_Demo/NFT.sol\":15638:16588  function _checkOnERC721Received(... */\n    tag_223:\n      swap5\n      swap4\n      pop\n      pop\n      pop\n      pop\n      jump\t// out\n        /* \"contracts/NFT_Demo/NFT.sol\":522:842  function isContract(address account) internal view returns (bool) {... */\n    tag_225:\n        /* \"contracts/NFT_Demo/NFT.sol\":582:586  bool */\n      0x00\n        /* \"contracts/NFT_Demo/NFT.sol\":834:835  0 */\n      dup1\n        /* \"contracts/NFT_Demo/NFT.sol\":812:819  account */\n      dup3\n        /* \"contracts/NFT_Demo/NFT.sol\":812:831  account.code.length */\n      0xffffffffffffffffffffffffffffffffffffffff\n      and\n      extcodesize\n        /* \"contracts/NFT_Demo/NFT.sol\":812:835  account.code.length > 0 */\n      gt\n        /* \"contracts/NFT_Demo/NFT.sol\":805:835  return account.code.length > 0 */\n      swap1\n      pop\n        /* \"contracts/NFT_Demo/NFT.sol\":522:842  function isContract(address account) internal view returns (bool) {... */\n      swap2\n      swap1\n      pop\n      jump\t// out\n        /* \"#utility.yul\":7:106   */\n    tag_245:\n        /* \"#utility.yul\":59:65   */\n      0x00\n        /* \"#utility.yul\":93:98   */\n      dup2\n        /* \"#utility.yul\":87:99   */\n      mload\n        /* \"#utility.yul\":77:99   */\n      swap1\n      pop\n        /* \"#utility.yul\":7:106   */\n      swap2\n      swap1\n      pop\n      jump\t// out\n        /* \"#utility.yul\":112:281   */\n    tag_246:\n        /* \"#utility.yul\":196:207   */\n      0x00\n        /* \"#utility.yul\":230:236   */\n      dup3\n        /* \"#utility.yul\":225:228   */\n      dup3\n        /* \"#utility.yul\":218:237   */\n      mstore\n        /* \"#utility.yul\":270:274   */\n      0x20\n        /* \"#utility.yul\":265:268   */\n      dup3\n        /* \"#utility.yul\":261:275   */\n      add\n        /* \"#utility.yul\":246:275   */\n      swap1\n      pop\n        /* \"#utility.yul\":112:281   */\n      swap3\n      swap2\n      pop\n      pop\n      jump\t// out\n        /* \"#utility.yul\":287:594   */\n    tag_247:\n        /* \"#utility.yul\":355:356   */\n      0x00\n        /* \"#utility.yul\":365:478   */\n    tag_313:\n        /* \"#utility.yul\":379:385   */\n      dup4\n        /* \"#utility.yul\":376:377   */\n      dup2\n        /* \"#utility.yul\":373:386   */\n      lt\n        /* \"#utility.yul\":365:478   */\n      iszero\n      tag_315\n      jumpi\n        /* \"#utility.yul\":464:465   */\n      dup1\n        /* \"#utility.yul\":459:462   */\n      dup3\n        /* \"#utility.yul\":455:466   */\n      add\n        /* \"#utility.yul\":449:467   */\n      mload\n        /* \"#utility.yul\":445:446   */\n      dup2\n        /* \"#utility.yul\":440:443   */\n      dup5\n        /* \"#utility.yul\":436:447   */\n      add\n        /* \"#utility.yul\":429:468   */\n      mstore\n        /* \"#utility.yul\":401:403   */\n      0x20\n        /* \"#utility.yul\":398:399   */\n      dup2\n        /* \"#utility.yul\":394:404   */\n      add\n        /* \"#utility.yul\":389:404   */\n      swap1\n      pop\n        /* \"#utility.yul\":365:478   */\n      jump(tag_313)\n    tag_315:\n        /* \"#utility.yul\":496:502   */\n      dup4\n        /* \"#utility.yul\":493:494   */\n      dup2\n        /* \"#utility.yul\":490:503   */\n      gt\n        /* \"#utility.yul\":487:588   */\n      iszero\n      tag_316\n      jumpi\n        /* \"#utility.yul\":576:577   */\n      0x00\n        /* \"#utility.yul\":567:573   */\n      dup5\n        /* \"#utility.yul\":562:565   */\n      dup5\n        /* \"#utility.yul\":558:574   */\n      add\n        /* \"#utility.yul\":551:578   */\n      mstore\n        /* \"#utility.yul\":487:588   */\n    tag_316:\n        /* \"#utility.yul\":336:594   */\n      pop\n        /* \"#utility.yul\":287:594   */\n      pop\n      pop\n      pop\n      jump\t// out\n        /* \"#utility.yul\":600:702   */\n    tag_248:\n        /* \"#utility.yul\":641:647   */\n      0x00\n        /* \"#utility.yul\":692:694   */\n      0x1f\n        /* \"#utility.yul\":688:695   */\n      not\n        /* \"#utility.yul\":683:685   */\n      0x1f\n        /* \"#utility.yul\":676:681   */\n      dup4\n        /* \"#utility.yul\":672:686   */\n      add\n        /* \"#utility.yul\":668:696   */\n      and\n        /* \"#utility.yul\":658:696   */\n      swap1\n      pop\n        /* \"#utility.yul\":600:702   */\n      swap2\n      swap1\n      pop\n      jump\t// out\n        /* \"#utility.yul\":708:1072   */\n    tag_249:\n        /* \"#utility.yul\":796:799   */\n      0x00\n        /* \"#utility.yul\":824:863   */\n      tag_319\n        /* \"#utility.yul\":857:862   */\n      dup3\n        /* \"#utility.yul\":824:863   */\n      tag_245\n      jump\t// in\n    tag_319:\n        /* \"#utility.yul\":879:950   */\n      tag_320\n        /* \"#utility.yul\":943:949   */\n      dup2\n        /* \"#utility.yul\":938:941   */\n      dup6\n        /* \"#utility.yul\":879:950   */\n      tag_246\n      jump\t// in\n    tag_320:\n        /* \"#utility.yul\":872:950   */\n      swap4\n      pop\n        /* \"#utility.yul\":959:1011   */\n      tag_321\n        /* \"#utility.yul\":1004:1010   */\n      dup2\n        /* \"#utility.yul\":999:1002   */\n      dup6\n        /* \"#utility.yul\":992:996   */\n      0x20\n        /* \"#utility.yul\":985:990   */\n      dup7\n        /* \"#utility.yul\":981:997   */\n      add\n        /* \"#utility.yul\":959:1011   */\n      tag_247\n      jump\t// in\n    tag_321:\n        /* \"#utility.yul\":1036:1065   */\n      tag_322\n        /* \"#utility.yul\":1058:1064   */\n      dup2\n        /* \"#utility.yul\":1036:1065   */\n      tag_248\n      jump\t// in\n    tag_322:\n        /* \"#utility.yul\":1031:1034   */\n      dup5\n        /* \"#utility.yul\":1027:1066   */\n      add\n        /* \"#utility.yul\":1020:1066   */\n      swap2\n      pop\n        /* \"#utility.yul\":800:1072   */\n      pop\n        /* \"#utility.yul\":708:1072   */\n      swap3\n      swap2\n      pop\n      pop\n      jump\t// out\n        /* \"#utility.yul\":1078:1391   */\n    tag_21:\n        /* \"#utility.yul\":1191:1195   */\n      0x00\n        /* \"#utility.yul\":1229:1231   */\n      0x20\n        /* \"#utility.yul\":1218:1227   */\n      dup3\n        /* \"#utility.yul\":1214:1232   */\n      add\n        /* \"#utility.yul\":1206:1232   */\n      swap1\n      pop\n        /* \"#utility.yul\":1278:1287   */\n      dup2\n        /* \"#utility.yul\":1272:1276   */\n      dup2\n        /* \"#utility.yul\":1268:1288   */\n      sub\n        /* \"#utility.yul\":1264:1265   */\n      0x00\n        /* \"#utility.yul\":1253:1262   */\n      dup4\n        /* \"#utility.yul\":1249:1266   */\n      add\n        /* \"#utility.yul\":1242:1289   */\n      mstore\n        /* \"#utility.yul\":1306:1384   */\n      tag_324\n        /* \"#utility.yul\":1379:1383   */\n      dup2\n        /* \"#utility.yul\":1370:1376   */\n      dup5\n        /* \"#utility.yul\":1306:1384   */\n      tag_249\n      jump\t// in\n    tag_324:\n        /* \"#utility.yul\":1298:1384   */\n      swap1\n      pop\n        /* \"#utility.yul\":1078:1391   */\n      swap3\n      swap2\n      pop\n      pop\n      jump\t// out\n        /* \"#utility.yul\":1397:1472   */\n    tag_250:\n        /* \"#utility.yul\":1430:1436   */\n      0x00\n        /* \"#utility.yul\":1463:1465   */\n      0x40\n        /* \"#utility.yul\":1457:1466   */\n      mload\n        /* \"#utility.yul\":1447:1466   */\n      swap1\n      pop\n        /* \"#utility.yul\":1397:1472   */\n      swap1\n      jump\t// out\n        /* \"#utility.yul\":1478:1595   */\n    tag_251:\n        /* \"#utility.yul\":1587:1588   */\n      0x00\n        /* \"#utility.yul\":1584:1585   */\n      dup1\n        /* \"#utility.yul\":1577:1589   */\n      revert\n        /* \"#utility.yul\":1601:1718   */\n    tag_252:\n        /* \"#utility.yul\":1710:1711   */\n      0x00\n        /* \"#utility.yul\":1707:1708   */\n      dup1\n        /* \"#utility.yul\":1700:1712   */\n      revert\n        /* \"#utility.yul\":1724:1801   */\n    tag_253:\n        /* \"#utility.yul\":1761:1768   */\n      0x00\n        /* \"#utility.yul\":1790:1795   */\n      dup2\n        /* \"#utility.yul\":1779:1795   */\n      swap1\n      pop\n        /* \"#utility.yul\":1724:1801   */\n      swap2\n      swap1\n      pop\n      jump\t// out\n        /* \"#utility.yul\":1807:1929   */\n    tag_254:\n        /* \"#utility.yul\":1880:1904   */\n      tag_330\n        /* \"#utility.yul\":1898:1903   */\n      dup2\n        /* \"#utility.yul\":1880:1904   */\n      tag_253\n      jump\t// in\n    tag_330:\n        /* \"#utility.yul\":1873:1878   */\n      dup2\n        /* \"#utility.yul\":1870:1905   */\n      eq\n        /* \"#utility.yul\":1860:1923   */\n      tag_331\n      jumpi\n        /* \"#utility.yul\":1919:1920   */\n      0x00\n        /* \"#utility.yul\":1916:1917   */\n      dup1\n        /* \"#utility.yul\":1909:1921   */\n      revert\n        /* \"#utility.yul\":1860:1923   */\n    tag_331:\n        /* \"#utility.yul\":1807:1929   */\n      pop\n      jump\t// out\n        /* \"#utility.yul\":1935:2074   */\n    tag_255:\n        /* \"#utility.yul\":1981:1986   */\n      0x00\n        /* \"#utility.yul\":2019:2025   */\n      dup2\n        /* \"#utility.yul\":2006:2026   */\n      calldataload\n        /* \"#utility.yul\":1997:2026   */\n      swap1\n      pop\n        /* \"#utility.yul\":2035:2068   */\n      tag_333\n        /* \"#utility.yul\":2062:2067   */\n      dup2\n        /* \"#utility.yul\":2035:2068   */\n      tag_254\n      jump\t// in\n    tag_333:\n        /* \"#utility.yul\":1935:2074   */\n      swap3\n      swap2\n      pop\n      pop\n      jump\t// out\n        /* \"#utility.yul\":2080:2409   */\n    tag_24:\n        /* \"#utility.yul\":2139:2145   */\n      0x00\n        /* \"#utility.yul\":2188:2190   */\n      0x20\n        /* \"#utility.yul\":2176:2185   */\n      dup3\n        /* \"#utility.yul\":2167:2174   */\n      dup5\n        /* \"#utility.yul\":2163:2186   */\n      sub\n        /* \"#utility.yul\":2159:2191   */\n      slt\n        /* \"#utility.yul\":2156:2275   */\n      iszero\n      tag_335\n      jumpi\n        /* \"#utility.yul\":2194:2273   */\n      tag_336\n      tag_251\n      jump\t// in\n    tag_336:\n        /* \"#utility.yul\":2156:2275   */\n    tag_335:\n        /* \"#utility.yul\":2314:2315   */\n      0x00\n        /* \"#utility.yul\":2339:2392   */\n      tag_337\n        /* \"#utility.yul\":2384:2391   */\n      dup5\n        /* \"#utility.yul\":2375:2381   */\n      dup3\n        /* \"#utility.yul\":2364:2373   */\n      dup6\n        /* \"#utility.yul\":2360:2382   */\n      add\n        /* \"#utility.yul\":2339:2392   */\n      tag_255\n      jump\t// in\n    tag_337:\n        /* \"#utility.yul\":2329:2392   */\n      swap2\n      pop\n        /* \"#utility.yul\":2285:2402   */\n      pop\n        /* \"#utility.yul\":2080:2409   */\n      swap3\n      swap2\n      pop\n      pop\n      jump\t// out\n        /* \"#utility.yul\":2415:2541   */\n    tag_256:\n        /* \"#utility.yul\":2452:2459   */\n      0x00\n        /* \"#utility.yul\":2492:2534   */\n      0xffffffffffffffffffffffffffffffffffffffff\n        /* \"#utility.yul\":2485:2490   */\n      dup3\n        /* \"#utility.yul\":2481:2535   */\n      and\n        /* \"#utility.yul\":2470:2535   */\n      swap1\n      pop\n        /* \"#utility.yul\":2415:2541   */\n      swap2\n      swap1\n      pop\n      jump\t// out\n        /* \"#utility.yul\":2547:2643   */\n    tag_257:\n        /* \"#utility.yul\":2584:2591   */\n      0x00\n        /* \"#utility.yul\":2613:2637   */\n      tag_340\n        /* \"#utility.yul\":2631:2636   */\n      dup3\n        /* \"#utility.yul\":2613:2637   */\n      tag_256\n      jump\t// in\n    tag_340:\n        /* \"#utility.yul\":2602:2637   */\n      swap1\n      pop\n        /* \"#utility.yul\":2547:2643   */\n      swap2\n      swap1\n      pop\n      jump\t// out\n        /* \"#utility.yul\":2649:2767   */\n    tag_258:\n        /* \"#utility.yul\":2736:2760   */\n      tag_342\n        /* \"#utility.yul\":2754:2759   */\n      dup2\n        /* \"#utility.yul\":2736:2760   */\n      tag_257\n      jump\t// in\n    tag_342:\n        /* \"#utility.yul\":2731:2734   */\n      dup3\n        /* \"#utility.yul\":2724:2761   */\n      mstore\n        /* \"#utility.yul\":2649:2767   */\n      pop\n      pop\n      jump\t// out\n        /* \"#utility.yul\":2773:2995   */\n    tag_27:\n        /* \"#utility.yul\":2866:2870   */\n      0x00\n        /* \"#utility.yul\":2904:2906   */\n      0x20\n        /* \"#utility.yul\":2893:2902   */\n      dup3\n        /* \"#utility.yul\":2889:2907   */\n      add\n        /* \"#utility.yul\":2881:2907   */\n      swap1\n      pop\n        /* \"#utility.yul\":2917:2988   */\n      tag_344\n        /* \"#utility.yul\":2985:2986   */\n      0x00\n        /* \"#utility.yul\":2974:2983   */\n      dup4\n        /* \"#utility.yul\":2970:2987   */\n      add\n        /* \"#utility.yul\":2961:2967   */\n      dup5\n        /* \"#utility.yul\":2917:2988   */\n      tag_258\n      jump\t// in\n    tag_344:\n        /* \"#utility.yul\":2773:2995   */\n      swap3\n      swap2\n      pop\n      pop\n      jump\t// out\n        /* \"#utility.yul\":3001:3123   */\n    tag_259:\n        /* \"#utility.yul\":3074:3098   */\n      tag_346\n        /* \"#utility.yul\":3092:3097   */\n      dup2\n        /* \"#utility.yul\":3074:3098   */\n      tag_257\n      jump\t// in\n    tag_346:\n        /* \"#utility.yul\":3067:3072   */\n      dup2\n        /* \"#utility.yul\":3064:3099   */\n      eq\n        /* \"#utility.yul\":3054:3117   */\n      tag_347\n      jumpi\n        /* \"#utility.yul\":3113:3114   */\n      0x00\n        /* \"#utility.yul\":3110:3111   */\n      dup1\n        /* \"#utility.yul\":3103:3115   */\n      revert\n        /* \"#utility.yul\":3054:3117   */\n    tag_347:\n        /* \"#utility.yul\":3001:3123   */\n      pop\n      jump\t// out\n        /* \"#utility.yul\":3129:3268   */\n    tag_260:\n        /* \"#utility.yul\":3175:3180   */\n      0x00\n        /* \"#utility.yul\":3213:3219   */\n      dup2\n        /* \"#utility.yul\":3200:3220   */\n      calldataload\n        /* \"#utility.yul\":3191:3220   */\n      swap1\n      pop\n        /* \"#utility.yul\":3229:3262   */\n      tag_349\n        /* \"#utility.yul\":3256:3261   */\n      dup2\n        /* \"#utility.yul\":3229:3262   */\n      tag_259\n      jump\t// in\n    tag_349:\n        /* \"#utility.yul\":3129:3268   */\n      swap3\n      swap2\n      pop\n      pop\n      jump\t// out\n        /* \"#utility.yul\":3274:3748   */\n    tag_30:\n        /* \"#utility.yul\":3342:3348   */\n      0x00\n        /* \"#utility.yul\":3350:3356   */\n      dup1\n        /* \"#utility.yul\":3399:3401   */\n      0x40\n        /* \"#utility.yul\":3387:3396   */\n      dup4\n        /* \"#utility.yul\":3378:3385   */\n      dup6\n        /* \"#utility.yul\":3374:3397   */\n      sub\n        /* \"#utility.yul\":3370:3402   */\n      slt\n        /* \"#utility.yul\":3367:3486   */\n      iszero\n      tag_351\n      jumpi\n        /* \"#utility.yul\":3405:3484   */\n      tag_352\n      tag_251\n      jump\t// in\n    tag_352:\n        /* \"#utility.yul\":3367:3486   */\n    tag_351:\n        /* \"#utility.yul\":3525:3526   */\n      0x00\n        /* \"#utility.yul\":3550:3603   */\n      tag_353\n        /* \"#utility.yul\":3595:3602   */\n      dup6\n        /* \"#utility.yul\":3586:3592   */\n      dup3\n        /* \"#utility.yul\":3575:3584   */\n      dup7\n        /* \"#utility.yul\":3571:3593   */\n      add\n        /* \"#utility.yul\":3550:3603   */\n      tag_260\n      jump\t// in\n    tag_353:\n        /* \"#utility.yul\":3540:3603   */\n      swap3\n      pop\n        /* \"#utility.yul\":3496:3613   */\n      pop\n        /* \"#utility.yul\":3652:3654   */\n      0x20\n        /* \"#utility.yul\":3678:3731   */\n      tag_354\n        /* \"#utility.yul\":3723:3730   */\n      dup6\n        /* \"#utility.yul\":3714:3720   */\n      dup3\n        /* \"#utility.yul\":3703:3712   */\n      dup7\n        /* \"#utility.yul\":3699:3721   */\n      add\n        /* \"#utility.yul\":3678:3731   */\n      tag_255\n      jump\t// in\n    tag_354:\n        /* \"#utility.yul\":3668:3731   */\n      swap2\n      pop\n        /* \"#utility.yul\":3623:3741   */\n      pop\n        /* \"#utility.yul\":3274:3748   */\n      swap3\n      pop\n      swap3\n      swap1\n      pop\n      jump\t// out\n        /* \"#utility.yul\":3754:4373   */\n    tag_34:\n        /* \"#utility.yul\":3831:3837   */\n      0x00\n        /* \"#utility.yul\":3839:3845   */\n      dup1\n        /* \"#utility.yul\":3847:3853   */\n      0x00\n        /* \"#utility.yul\":3896:3898   */\n      0x60\n        /* \"#utility.yul\":3884:3893   */\n      dup5\n        /* \"#utility.yul\":3875:3882   */\n      dup7\n        /* \"#utility.yul\":3871:3894   */\n      sub\n        /* \"#utility.yul\":3867:3899   */\n      slt\n        /* \"#utility.yul\":3864:3983   */\n      iszero\n      tag_356\n      jumpi\n        /* \"#utility.yul\":3902:3981   */\n      tag_357\n      tag_251\n      jump\t// in\n    tag_357:\n        /* \"#utility.yul\":3864:3983   */\n    tag_356:\n        /* \"#utility.yul\":4022:4023   */\n      0x00\n        /* \"#utility.yul\":4047:4100   */\n      tag_358\n        /* \"#utility.yul\":4092:4099   */\n      dup7\n        /* \"#utility.yul\":4083:4089   */\n      dup3\n        /* \"#utility.yul\":4072:4081   */\n      dup8\n        /* \"#utility.yul\":4068:4090   */\n      add\n        /* \"#utility.yul\":4047:4100   */\n      tag_260\n      jump\t// in\n    tag_358:\n        /* \"#utility.yul\":4037:4100   */\n      swap4\n      pop\n        /* \"#utility.yul\":3993:4110   */\n      pop\n        /* \"#utility.yul\":4149:4151   */\n      0x20\n        /* \"#utility.yul\":4175:4228   */\n      tag_359\n        /* \"#utility.yul\":4220:4227   */\n      dup7\n        /* \"#utility.yul\":4211:4217   */\n      dup3\n        /* \"#utility.yul\":4200:4209   */\n      dup8\n        /* \"#utility.yul\":4196:4218   */\n      add\n        /* \"#utility.yul\":4175:4228   */\n      tag_260\n      jump\t// in\n    tag_359:\n        /* \"#utility.yul\":4165:4228   */\n      swap3\n      pop\n        /* \"#utility.yul\":4120:4238   */\n      pop\n        /* \"#utility.yul\":4277:4279   */\n      0x40\n        /* \"#utility.yul\":4303:4356   */\n      tag_360\n        /* \"#utility.yul\":4348:4355   */\n      dup7\n        /* \"#utility.yul\":4339:4345   */\n      dup3\n        /* \"#utility.yul\":4328:4337   */\n      dup8\n        /* \"#utility.yul\":4324:4346   */\n      add\n        /* \"#utility.yul\":4303:4356   */\n      tag_255\n      jump\t// in\n    tag_360:\n        /* \"#utility.yul\":4293:4356   */\n      swap2\n      pop\n        /* \"#utility.yul\":4248:4366   */\n      pop\n        /* \"#utility.yul\":3754:4373   */\n      swap3\n      pop\n      swap3\n      pop\n      swap3\n      jump\t// out\n        /* \"#utility.yul\":4379:4708   */\n    tag_45:\n        /* \"#utility.yul\":4438:4444   */\n      0x00\n        /* \"#utility.yul\":4487:4489   */\n      0x20\n        /* \"#utility.yul\":4475:4484   */\n      dup3\n        /* \"#utility.yul\":4466:4473   */\n      dup5\n        /* \"#utility.yul\":4462:4485   */\n      sub\n        /* \"#utility.yul\":4458:4490   */\n      slt\n        /* \"#utility.yul\":4455:4574   */\n      iszero\n      tag_362\n      jumpi\n        /* \"#utility.yul\":4493:4572   */\n      tag_363\n      tag_251\n      jump\t// in\n    tag_363:\n        /* \"#utility.yul\":4455:4574   */\n    tag_362:\n        /* \"#utility.yul\":4613:4614   */\n      0x00\n        /* \"#utility.yul\":4638:4691   */\n      tag_364\n        /* \"#utility.yul\":4683:4690   */\n      dup5\n        /* \"#utility.yul\":4674:4680   */\n      dup3\n        /* \"#utility.yul\":4663:4672   */\n      dup6\n        /* \"#utility.yul\":4659:4681   */\n      add\n        /* \"#utility.yul\":4638:4691   */\n      tag_260\n      jump\t// in\n    tag_364:\n        /* \"#utility.yul\":4628:4691   */\n      swap2\n      pop\n        /* \"#utility.yul\":4584:4701   */\n      pop\n        /* \"#utility.yul\":4379:4708   */\n      swap3\n      swap2\n      pop\n      pop\n      jump\t// out\n        /* \"#utility.yul\":4714:4832   */\n    tag_261:\n        /* \"#utility.yul\":4801:4825   */\n      tag_366\n        /* \"#utility.yul\":4819:4824   */\n      dup2\n        /* \"#utility.yul\":4801:4825   */\n      tag_253\n      jump\t// in\n    tag_366:\n        /* \"#utility.yul\":4796:4799   */\n      dup3\n        /* \"#utility.yul\":4789:4826   */\n      mstore\n        /* \"#utility.yul\":4714:4832   */\n      pop\n      pop\n      jump\t// out\n        /* \"#utility.yul\":4838:5060   */\n    tag_48:\n        /* \"#utility.yul\":4931:4935   */\n      0x00\n        /* \"#utility.yul\":4969:4971   */\n      0x20\n        /* \"#utility.yul\":4958:4967   */\n      dup3\n        /* \"#utility.yul\":4954:4972   */\n      add\n        /* \"#utility.yul\":4946:4972   */\n      swap1\n      pop\n        /* \"#utility.yul\":4982:5053   */\n      tag_368\n        /* \"#utility.yul\":5050:5051   */\n      0x00\n        /* \"#utility.yul\":5039:5048   */\n      dup4\n        /* \"#utility.yul\":5035:5052   */\n      add\n        /* \"#utility.yul\":5026:5032   */\n      dup5\n        /* \"#utility.yul\":4982:5053   */\n      tag_261\n      jump\t// in\n    tag_368:\n        /* \"#utility.yul\":4838:5060   */\n      swap3\n      swap2\n      pop\n      pop\n      jump\t// out\n        /* \"#utility.yul\":5066:5183   */\n    tag_262:\n        /* \"#utility.yul\":5175:5176   */\n      0x00\n        /* \"#utility.yul\":5172:5173   */\n      dup1\n        /* \"#utility.yul\":5165:5177   */\n      revert\n        /* \"#utility.yul\":5189:5306   */\n    tag_263:\n        /* \"#utility.yul\":5298:5299   */\n      0x00\n        /* \"#utility.yul\":5295:5296   */\n      dup1\n        /* \"#utility.yul\":5288:5300   */\n      revert\n        /* \"#utility.yul\":5312:5492   */\n    tag_206:\n        /* \"#utility.yul\":5360:5437   */\n      0x4e487b7100000000000000000000000000000000000000000000000000000000\n        /* \"#utility.yul\":5357:5358   */\n      0x00\n        /* \"#utility.yul\":5350:5438   */\n      mstore\n        /* \"#utility.yul\":5457:5461   */\n      0x41\n        /* \"#utility.yul\":5454:5455   */\n      0x04\n        /* \"#utility.yul\":5447:5462   */\n      mstore\n        /* \"#utility.yul\":5481:5485   */\n      0x24\n        /* \"#utility.yul\":5478:5479   */\n      0x00\n        /* \"#utility.yul\":5471:5486   */\n      revert\n        /* \"#utility.yul\":5498:5779   */\n    tag_264:\n        /* \"#utility.yul\":5581:5608   */\n      tag_373\n        /* \"#utility.yul\":5603:5607   */\n      dup3\n        /* \"#utility.yul\":5581:5608   */\n      tag_248\n      jump\t// in\n    tag_373:\n        /* \"#utility.yul\":5573:5579   */\n      dup2\n        /* \"#utility.yul\":5569:5609   */\n      add\n        /* \"#utility.yul\":5711:5717   */\n      dup2\n        /* \"#utility.yul\":5699:5709   */\n      dup2\n        /* \"#utility.yul\":5696:5718   */\n      lt\n        /* \"#utility.yul\":5675:5693   */\n      0xffffffffffffffff\n        /* \"#utility.yul\":5663:5673   */\n      dup3\n        /* \"#utility.yul\":5660:5694   */\n      gt\n        /* \"#utility.yul\":5657:5719   */\n      or\n        /* \"#utility.yul\":5654:5742   */\n      iszero\n      tag_374\n      jumpi\n        /* \"#utility.yul\":5722:5740   */\n      tag_375\n      tag_206\n      jump\t// in\n    tag_375:\n        /* \"#utility.yul\":5654:5742   */\n    tag_374:\n        /* \"#utility.yul\":5762:5772   */\n      dup1\n        /* \"#utility.yul\":5758:5760   */\n      0x40\n        /* \"#utility.yul\":5751:5773   */\n      mstore\n        /* \"#utility.yul\":5541:5779   */\n      pop\n        /* \"#utility.yul\":5498:5779   */\n      pop\n      pop\n      jump\t// out\n        /* \"#utility.yul\":5785:5914   */\n    tag_265:\n        /* \"#utility.yul\":5819:5825   */\n      0x00\n        /* \"#utility.yul\":5846:5866   */\n      tag_377\n      tag_250\n      jump\t// in\n    tag_377:\n        /* \"#utility.yul\":5836:5866   */\n      swap1\n      pop\n        /* \"#utility.yul\":5875:5908   */\n      tag_378\n        /* \"#utility.yul\":5903:5907   */\n      dup3\n        /* \"#utility.yul\":5895:5901   */\n      dup3\n        /* \"#utility.yul\":5875:5908   */\n      tag_264\n      jump\t// in\n    tag_378:\n        /* \"#utility.yul\":5785:5914   */\n      swap2\n      swap1\n      pop\n      jump\t// out\n        /* \"#utility.yul\":5920:6227   */\n    tag_266:\n        /* \"#utility.yul\":5981:5985   */\n      0x00\n        /* \"#utility.yul\":6071:6089   */\n      0xffffffffffffffff\n        /* \"#utility.yul\":6063:6069   */\n      dup3\n        /* \"#utility.yul\":6060:6090   */\n      gt\n        /* \"#utility.yul\":6057:6113   */\n      iszero\n      tag_380\n      jumpi\n        /* \"#utility.yul\":6093:6111   */\n      tag_381\n      tag_206\n      jump\t// in\n    tag_381:\n        /* \"#utility.yul\":6057:6113   */\n    tag_380:\n        /* \"#utility.yul\":6131:6160   */\n      tag_382\n        /* \"#utility.yul\":6153:6159   */\n      dup3\n        /* \"#utility.yul\":6131:6160   */\n      tag_248\n      jump\t// in\n    tag_382:\n        /* \"#utility.yul\":6123:6160   */\n      swap1\n      pop\n        /* \"#utility.yul\":6215:6219   */\n      0x20\n        /* \"#utility.yul\":6209:6213   */\n      dup2\n        /* \"#utility.yul\":6205:6220   */\n      add\n        /* \"#utility.yul\":6197:6220   */\n      swap1\n      pop\n        /* \"#utility.yul\":5920:6227   */\n      swap2\n      swap1\n      pop\n      jump\t// out\n        /* \"#utility.yul\":6233:6387   */\n    tag_267:\n        /* \"#utility.yul\":6317:6323   */\n      dup3\n        /* \"#utility.yul\":6312:6315   */\n      dup2\n        /* \"#utility.yul\":6307:6310   */\n      dup4\n        /* \"#utility.yul\":6294:6324   */\n      calldatacopy\n        /* \"#utility.yul\":6379:6380   */\n      0x00\n        /* \"#utility.yul\":6370:6376   */\n      dup4\n        /* \"#utility.yul\":6365:6368   */\n      dup4\n        /* \"#utility.yul\":6361:6377   */\n      add\n        /* \"#utility.yul\":6354:6381   */\n      mstore\n        /* \"#utility.yul\":6233:6387   */\n      pop\n      pop\n      pop\n      jump\t// out\n        /* \"#utility.yul\":6393:6803   */\n    tag_268:\n        /* \"#utility.yul\":6470:6475   */\n      0x00\n        /* \"#utility.yul\":6495:6560   */\n      tag_385\n        /* \"#utility.yul\":6511:6559   */\n      tag_386\n        /* \"#utility.yul\":6552:6558   */\n      dup5\n        /* \"#utility.yul\":6511:6559   */\n      tag_266\n      jump\t// in\n    tag_386:\n        /* \"#utility.yul\":6495:6560   */\n      tag_265\n      jump\t// in\n    tag_385:\n        /* \"#utility.yul\":6486:6560   */\n      swap1\n      pop\n        /* \"#utility.yul\":6583:6589   */\n      dup3\n        /* \"#utility.yul\":6576:6581   */\n      dup2\n        /* \"#utility.yul\":6569:6590   */\n      mstore\n        /* \"#utility.yul\":6621:6625   */\n      0x20\n        /* \"#utility.yul\":6614:6619   */\n      dup2\n        /* \"#utility.yul\":6610:6626   */\n      add\n        /* \"#utility.yul\":6659:6662   */\n      dup5\n        /* \"#utility.yul\":6650:6656   */\n      dup5\n        /* \"#utility.yul\":6645:6648   */\n      dup5\n        /* \"#utility.yul\":6641:6657   */\n      add\n        /* \"#utility.yul\":6638:6663   */\n      gt\n        /* \"#utility.yul\":6635:6747   */\n      iszero\n      tag_387\n      jumpi\n        /* \"#utility.yul\":6666:6745   */\n      tag_388\n      tag_263\n      jump\t// in\n    tag_388:\n        /* \"#utility.yul\":6635:6747   */\n    tag_387:\n        /* \"#utility.yul\":6756:6797   */\n      tag_389\n        /* \"#utility.yul\":6790:6796   */\n      dup5\n        /* \"#utility.yul\":6785:6788   */\n      dup3\n        /* \"#utility.yul\":6780:6783   */\n      dup6\n        /* \"#utility.yul\":6756:6797   */\n      tag_267\n      jump\t// in\n    tag_389:\n        /* \"#utility.yul\":6476:6803   */\n      pop\n        /* \"#utility.yul\":6393:6803   */\n      swap4\n      swap3\n      pop\n      pop\n      pop\n      jump\t// out\n        /* \"#utility.yul\":6822:7160   */\n    tag_269:\n        /* \"#utility.yul\":6877:6882   */\n      0x00\n        /* \"#utility.yul\":6926:6929   */\n      dup3\n        /* \"#utility.yul\":6919:6923   */\n      0x1f\n        /* \"#utility.yul\":6911:6917   */\n      dup4\n        /* \"#utility.yul\":6907:6924   */\n      add\n        /* \"#utility.yul\":6903:6930   */\n      slt\n        /* \"#utility.yul\":6893:7015   */\n      tag_391\n      jumpi\n        /* \"#utility.yul\":6934:7013   */\n      tag_392\n      tag_262\n      jump\t// in\n    tag_392:\n        /* \"#utility.yul\":6893:7015   */\n    tag_391:\n        /* \"#utility.yul\":7051:7057   */\n      dup2\n        /* \"#utility.yul\":7038:7058   */\n      calldataload\n        /* \"#utility.yul\":7076:7154   */\n      tag_393\n        /* \"#utility.yul\":7150:7153   */\n      dup5\n        /* \"#utility.yul\":7142:7148   */\n      dup3\n        /* \"#utility.yul\":7135:7139   */\n      0x20\n        /* \"#utility.yul\":7127:7133   */\n      dup7\n        /* \"#utility.yul\":7123:7140   */\n      add\n        /* \"#utility.yul\":7076:7154   */\n      tag_268\n      jump\t// in\n    tag_393:\n        /* \"#utility.yul\":7067:7154   */\n      swap2\n      pop\n        /* \"#utility.yul\":6883:7160   */\n      pop\n        /* \"#utility.yul\":6822:7160   */\n      swap3\n      swap2\n      pop\n      pop\n      jump\t// out\n        /* \"#utility.yul\":7166:8109   */\n    tag_59:\n        /* \"#utility.yul\":7261:7267   */\n      0x00\n        /* \"#utility.yul\":7269:7275   */\n      dup1\n        /* \"#utility.yul\":7277:7283   */\n      0x00\n        /* \"#utility.yul\":7285:7291   */\n      dup1\n        /* \"#utility.yul\":7334:7337   */\n      0x80\n        /* \"#utility.yul\":7322:7331   */\n      dup6\n        /* \"#utility.yul\":7313:7320   */\n      dup8\n        /* \"#utility.yul\":7309:7332   */\n      sub\n        /* \"#utility.yul\":7305:7338   */\n      slt\n        /* \"#utility.yul\":7302:7422   */\n      iszero\n      tag_395\n      jumpi\n        /* \"#utility.yul\":7341:7420   */\n      tag_396\n      tag_251\n      jump\t// in\n    tag_396:\n        /* \"#utility.yul\":7302:7422   */\n    tag_395:\n        /* \"#utility.yul\":7461:7462   */\n      0x00\n        /* \"#utility.yul\":7486:7539   */\n      tag_397\n        /* \"#utility.yul\":7531:7538   */\n      dup8\n        /* \"#utility.yul\":7522:7528   */\n      dup3\n        /* \"#utility.yul\":7511:7520   */\n      dup9\n        /* \"#utility.yul\":7507:7529   */\n      add\n        /* \"#utility.yul\":7486:7539   */\n      tag_260\n      jump\t// in\n    tag_397:\n        /* \"#utility.yul\":7476:7539   */\n      swap5\n      pop\n        /* \"#utility.yul\":7432:7549   */\n      pop\n        /* \"#utility.yul\":7588:7590   */\n      0x20\n        /* \"#utility.yul\":7614:7667   */\n      tag_398\n        /* \"#utility.yul\":7659:7666   */\n      dup8\n        /* \"#utility.yul\":7650:7656   */\n      dup3\n        /* \"#utility.yul\":7639:7648   */\n      dup9\n        /* \"#utility.yul\":7635:7657   */\n      add\n        /* \"#utility.yul\":7614:7667   */\n      tag_260\n      jump\t// in\n    tag_398:\n        /* \"#utility.yul\":7604:7667   */\n      swap4\n      pop\n        /* \"#utility.yul\":7559:7677   */\n      pop\n        /* \"#utility.yul\":7716:7718   */\n      0x40\n        /* \"#utility.yul\":7742:7795   */\n      tag_399\n        /* \"#utility.yul\":7787:7794   */\n      dup8\n        /* \"#utility.yul\":7778:7784   */\n      dup3\n        /* \"#utility.yul\":7767:7776   */\n      dup9\n        /* \"#utility.yul\":7763:7785   */\n      add\n        /* \"#utility.yul\":7742:7795   */\n      tag_255\n      jump\t// in\n    tag_399:\n        /* \"#utility.yul\":7732:7795   */\n      swap3\n      pop\n        /* \"#utility.yul\":7687:7805   */\n      pop\n        /* \"#utility.yul\":7872:7874   */\n      0x60\n        /* \"#utility.yul\":7861:7870   */\n      dup6\n        /* \"#utility.yul\":7857:7875   */\n      add\n        /* \"#utility.yul\":7844:7876   */\n      calldataload\n        /* \"#utility.yul\":7903:7921   */\n      0xffffffffffffffff\n        /* \"#utility.yul\":7895:7901   */\n      dup2\n        /* \"#utility.yul\":7892:7922   */\n      gt\n        /* \"#utility.yul\":7889:8006   */\n      iszero\n      tag_400\n      jumpi\n        /* \"#utility.yul\":7925:8004   */\n      tag_401\n      tag_252\n      jump\t// in\n    tag_401:\n        /* \"#utility.yul\":7889:8006   */\n    tag_400:\n        /* \"#utility.yul\":8030:8092   */\n      tag_402\n        /* \"#utility.yul\":8084:8091   */\n      dup8\n        /* \"#utility.yul\":8075:8081   */\n      dup3\n        /* \"#utility.yul\":8064:8073   */\n      dup9\n        /* \"#utility.yul\":8060:8082   */\n      add\n        /* \"#utility.yul\":8030:8092   */\n      tag_269\n      jump\t// in\n    tag_402:\n        /* \"#utility.yul\":8020:8092   */\n      swap2\n      pop\n        /* \"#utility.yul\":7815:8102   */\n      pop\n        /* \"#utility.yul\":7166:8109   */\n      swap3\n      swap6\n      swap2\n      swap5\n      pop\n      swap3\n      pop\n      jump\t// out\n        /* \"#utility.yul\":8115:8295   */\n    tag_270:\n        /* \"#utility.yul\":8163:8240   */\n      0x4e487b7100000000000000000000000000000000000000000000000000000000\n        /* \"#utility.yul\":8160:8161   */\n      0x00\n        /* \"#utility.yul\":8153:8241   */\n      mstore\n        /* \"#utility.yul\":8260:8264   */\n      0x22\n        /* \"#utility.yul\":8257:8258   */\n      0x04\n        /* \"#utility.yul\":8250:8265   */\n      mstore\n        /* \"#utility.yul\":8284:8288   */\n      0x24\n        /* \"#utility.yul\":8281:8282   */\n      0x00\n        /* \"#utility.yul\":8274:8289   */\n      revert\n        /* \"#utility.yul\":8301:8621   */\n    tag_70:\n        /* \"#utility.yul\":8345:8351   */\n      0x00\n        /* \"#utility.yul\":8382:8383   */\n      0x02\n        /* \"#utility.yul\":8376:8380   */\n      dup3\n        /* \"#utility.yul\":8372:8384   */\n      div\n        /* \"#utility.yul\":8362:8384   */\n      swap1\n      pop\n        /* \"#utility.yul\":8429:8430   */\n      0x01\n        /* \"#utility.yul\":8423:8427   */\n      dup3\n        /* \"#utility.yul\":8419:8431   */\n      and\n        /* \"#utility.yul\":8450:8468   */\n      dup1\n        /* \"#utility.yul\":8440:8521   */\n      tag_405\n      jumpi\n        /* \"#utility.yul\":8506:8510   */\n      0x7f\n        /* \"#utility.yul\":8498:8504   */\n      dup3\n        /* \"#utility.yul\":8494:8511   */\n      and\n        /* \"#utility.yul\":8484:8511   */\n      swap2\n      pop\n        /* \"#utility.yul\":8440:8521   */\n    tag_405:\n        /* \"#utility.yul\":8568:8570   */\n      0x20\n        /* \"#utility.yul\":8560:8566   */\n      dup3\n        /* \"#utility.yul\":8557:8571   */\n      lt\n        /* \"#utility.yul\":8537:8555   */\n      dup2\n        /* \"#utility.yul\":8534:8572   */\n      sub\n        /* \"#utility.yul\":8531:8615   */\n      tag_406\n      jumpi\n        /* \"#utility.yul\":8587:8605   */\n      tag_407\n      tag_270\n      jump\t// in\n    tag_407:\n        /* \"#utility.yul\":8531:8615   */\n    tag_406:\n        /* \"#utility.yul\":8352:8621   */\n      pop\n        /* \"#utility.yul\":8301:8621   */\n      swap2\n      swap1\n      pop\n      jump\t// out\n        /* \"#utility.yul\":8627:8858   */\n    tag_271:\n        /* \"#utility.yul\":8767:8801   */\n      0x4552433732313a20617070726f76656420717565727920666f72206e6f6e6578\n        /* \"#utility.yul\":8763:8764   */\n      0x00\n        /* \"#utility.yul\":8755:8761   */\n      dup3\n        /* \"#utility.yul\":8751:8765   */\n      add\n        /* \"#utility.yul\":8744:8802   */\n      mstore\n        /* \"#utility.yul\":8836:8850   */\n      0x697374656e7420746f6b656e0000000000000000000000000000000000000000\n        /* \"#utility.yul\":8831:8833   */\n      0x20\n        /* \"#utility.yul\":8823:8829   */\n      dup3\n        /* \"#utility.yul\":8819:8834   */\n      add\n        /* \"#utility.yul\":8812:8851   */\n      mstore\n        /* \"#utility.yul\":8627:8858   */\n      pop\n      jump\t// out\n        /* \"#utility.yul\":8864:9230   */\n    tag_272:\n        /* \"#utility.yul\":9006:9009   */\n      0x00\n        /* \"#utility.yul\":9027:9094   */\n      tag_410\n        /* \"#utility.yul\":9091:9093   */\n      0x2c\n        /* \"#utility.yul\":9086:9089   */\n      dup4\n        /* \"#utility.yul\":9027:9094   */\n      tag_246\n      jump\t// in\n    tag_410:\n        /* \"#utility.yul\":9020:9094   */\n      swap2\n      pop\n        /* \"#utility.yul\":9103:9196   */\n      tag_411\n        /* \"#utility.yul\":9192:9195   */\n      dup3\n        /* \"#utility.yul\":9103:9196   */\n      tag_271\n      jump\t// in\n    tag_411:\n        /* \"#utility.yul\":9221:9223   */\n      0x40\n        /* \"#utility.yul\":9216:9219   */\n      dup3\n        /* \"#utility.yul\":9212:9224   */\n      add\n        /* \"#utility.yul\":9205:9224   */\n      swap1\n      pop\n        /* \"#utility.yul\":8864:9230   */\n      swap2\n      swap1\n      pop\n      jump\t// out\n        /* \"#utility.yul\":9236:9655   */\n    tag_80:\n        /* \"#utility.yul\":9402:9406   */\n      0x00\n        /* \"#utility.yul\":9440:9442   */\n      0x20\n        /* \"#utility.yul\":9429:9438   */\n      dup3\n        /* \"#utility.yul\":9425:9443   */\n      add\n        /* \"#utility.yul\":9417:9443   */\n      swap1\n      pop\n        /* \"#utility.yul\":9489:9498   */\n      dup2\n        /* \"#utility.yul\":9483:9487   */\n      dup2\n        /* \"#utility.yul\":9479:9499   */\n      sub\n        /* \"#utility.yul\":9475:9476   */\n      0x00\n        /* \"#utility.yul\":9464:9473   */\n      dup4\n        /* \"#utility.yul\":9460:9477   */\n      add\n        /* \"#utility.yul\":9453:9500   */\n      mstore\n        /* \"#utility.yul\":9517:9648   */\n      tag_413\n        /* \"#utility.yul\":9643:9647   */\n      dup2\n        /* \"#utility.yul\":9517:9648   */\n      tag_272\n      jump\t// in\n    tag_413:\n        /* \"#utility.yul\":9509:9648   */\n      swap1\n      pop\n        /* \"#utility.yul\":9236:9655   */\n      swap2\n      swap1\n      pop\n      jump\t// out\n        /* \"#utility.yul\":9661:9881   */\n    tag_273:\n        /* \"#utility.yul\":9801:9835   */\n      0x4552433732313a20617070726f76616c20746f2063757272656e74206f776e65\n        /* \"#utility.yul\":9797:9798   */\n      0x00\n        /* \"#utility.yul\":9789:9795   */\n      dup3\n        /* \"#utility.yul\":9785:9799   */\n      add\n        /* \"#utility.yul\":9778:9836   */\n      mstore\n        /* \"#utility.yul\":9870:9873   */\n      0x7200000000000000000000000000000000000000000000000000000000000000\n        /* \"#utility.yul\":9865:9867   */\n      0x20\n        /* \"#utility.yul\":9857:9863   */\n      dup3\n        /* \"#utility.yul\":9853:9868   */\n      add\n        /* \"#utility.yul\":9846:9874   */\n      mstore\n        /* \"#utility.yul\":9661:9881   */\n      pop\n      jump\t// out\n        /* \"#utility.yul\":9887:10253   */\n    tag_274:\n        /* \"#utility.yul\":10029:10032   */\n      0x00\n        /* \"#utility.yul\":10050:10117   */\n      tag_416\n        /* \"#utility.yul\":10114:10116   */\n      0x21\n        /* \"#utility.yul\":10109:10112   */\n      dup4\n        /* \"#utility.yul\":10050:10117   */\n      tag_246\n      jump\t// in\n    tag_416:\n        /* \"#utility.yul\":10043:10117   */\n      swap2\n      pop\n        /* \"#utility.yul\":10126:10219   */\n      tag_417\n        /* \"#utility.yul\":10215:10218   */\n      dup3\n        /* \"#utility.yul\":10126:10219   */\n      tag_273\n      jump\t// in\n    tag_417:\n        /* \"#utility.yul\":10244:10246   */\n      0x40\n        /* \"#utility.yul\":10239:10242   */\n      dup3\n        /* \"#utility.yul\":10235:10247   */\n      add\n        /* \"#utility.yul\":10228:10247   */\n      swap1\n      pop\n        /* \"#utility.yul\":9887:10253   */\n      swap2\n      swap1\n      pop\n      jump\t// out\n        /* \"#utility.yul\":10259:10678   */\n    tag_85:\n        /* \"#utility.yul\":10425:10429   */\n      0x00\n        /* \"#utility.yul\":10463:10465   */\n      0x20\n        /* \"#utility.yul\":10452:10461   */\n      dup3\n        /* \"#utility.yul\":10448:10466   */\n      add\n        /* \"#utility.yul\":10440:10466   */\n      swap1\n      pop\n        /* \"#utility.yul\":10512:10521   */\n      dup2\n        /* \"#utility.yul\":10506:10510   */\n      dup2\n        /* \"#utility.yul\":10502:10522   */\n      sub\n        /* \"#utility.yul\":10498:10499   */\n      0x00\n        /* \"#utility.yul\":10487:10496   */\n      dup4\n        /* \"#utility.yul\":10483:10500   */\n      add\n        /* \"#utility.yul\":10476:10523   */\n      mstore\n        /* \"#utility.yul\":10540:10671   */\n      tag_419\n        /* \"#utility.yul\":10666:10670   */\n      dup2\n        /* \"#utility.yul\":10540:10671   */\n      tag_274\n      jump\t// in\n    tag_419:\n        /* \"#utility.yul\":10532:10671   */\n      swap1\n      pop\n        /* \"#utility.yul\":10259:10678   */\n      swap2\n      swap1\n      pop\n      jump\t// out\n        /* \"#utility.yul\":10684:10927   */\n    tag_275:\n        /* \"#utility.yul\":10824:10858   */\n      0x4552433732313a20617070726f76652063616c6c6572206973206e6f74206f77\n        /* \"#utility.yul\":10820:10821   */\n      0x00\n        /* \"#utility.yul\":10812:10818   */\n      dup3\n        /* \"#utility.yul\":10808:10822   */\n      add\n        /* \"#utility.yul\":10801:10859   */\n      mstore\n        /* \"#utility.yul\":10893:10919   */\n      0x6e6572206e6f7220617070726f76656420666f7220616c6c0000000000000000\n        /* \"#utility.yul\":10888:10890   */\n      0x20\n        /* \"#utility.yul\":10880:10886   */\n      dup3\n        /* \"#utility.yul\":10876:10891   */\n      add\n        /* \"#utility.yul\":10869:10920   */\n      mstore\n        /* \"#utility.yul\":10684:10927   */\n      pop\n      jump\t// out\n        /* \"#utility.yul\":10933:11299   */\n    tag_276:\n        /* \"#utility.yul\":11075:11078   */\n      0x00\n        /* \"#utility.yul\":11096:11163   */\n      tag_422\n        /* \"#utility.yul\":11160:11162   */\n      0x38\n        /* \"#utility.yul\":11155:11158   */\n      dup4\n        /* \"#utility.yul\":11096:11163   */\n      tag_246\n      jump\t// in\n    tag_422:\n        /* \"#utility.yul\":11089:11163   */\n      swap2\n      pop\n        /* \"#utility.yul\":11172:11265   */\n      tag_423\n        /* \"#utility.yul\":11261:11264   */\n      dup3\n        /* \"#utility.yul\":11172:11265   */\n      tag_275\n      jump\t// in\n    tag_423:\n        /* \"#utility.yul\":11290:11292   */\n      0x40\n        /* \"#utility.yul\":11285:11288   */\n      dup3\n        /* \"#utility.yul\":11281:11293   */\n      add\n        /* \"#utility.yul\":11274:11293   */\n      swap1\n      pop\n        /* \"#utility.yul\":10933:11299   */\n      swap2\n      swap1\n      pop\n      jump\t// out\n        /* \"#utility.yul\":11305:11724   */\n    tag_90:\n        /* \"#utility.yul\":11471:11475   */\n      0x00\n        /* \"#utility.yul\":11509:11511   */\n      0x20\n        /* \"#utility.yul\":11498:11507   */\n      dup3\n        /* \"#utility.yul\":11494:11512   */\n      add\n        /* \"#utility.yul\":11486:11512   */\n      swap1\n      pop\n        /* \"#utility.yul\":11558:11567   */\n      dup2\n        /* \"#utility.yul\":11552:11556   */\n      dup2\n        /* \"#utility.yul\":11548:11568   */\n      sub\n        /* \"#utility.yul\":11544:11545   */\n      0x00\n        /* \"#utility.yul\":11533:11542   */\n      dup4\n        /* \"#utility.yul\":11529:11546   */\n      add\n        /* \"#utility.yul\":11522:11569   */\n      mstore\n        /* \"#utility.yul\":11586:11717   */\n      tag_425\n        /* \"#utility.yul\":11712:11716   */\n      dup2\n        /* \"#utility.yul\":11586:11717   */\n      tag_276\n      jump\t// in\n    tag_425:\n        /* \"#utility.yul\":11578:11717   */\n      swap1\n      pop\n        /* \"#utility.yul\":11305:11724   */\n      swap2\n      swap1\n      pop\n      jump\t// out\n        /* \"#utility.yul\":11730:11966   */\n    tag_277:\n        /* \"#utility.yul\":11870:11904   */\n      0x4552433732313a207472616e736665722063616c6c6572206973206e6f74206f\n        /* \"#utility.yul\":11866:11867   */\n      0x00\n        /* \"#utility.yul\":11858:11864   */\n      dup3\n        /* \"#utility.yul\":11854:11868   */\n      add\n        /* \"#utility.yul\":11847:11905   */\n      mstore\n        /* \"#utility.yul\":11939:11958   */\n      0x776e6572206e6f7220617070726f766564000000000000000000000000000000\n        /* \"#utility.yul\":11934:11936   */\n      0x20\n        /* \"#utility.yul\":11926:11932   */\n      dup3\n        /* \"#utility.yul\":11922:11937   */\n      add\n        /* \"#utility.yul\":11915:11959   */\n      mstore\n        /* \"#utility.yul\":11730:11966   */\n      pop\n      jump\t// out\n        /* \"#utility.yul\":11972:12338   */\n    tag_278:\n        /* \"#utility.yul\":12114:12117   */\n      0x00\n        /* \"#utility.yul\":12135:12202   */\n      tag_428\n        /* \"#utility.yul\":12199:12201   */\n      0x31\n        /* \"#utility.yul\":12194:12197   */\n      dup4\n        /* \"#utility.yul\":12135:12202   */\n      tag_246\n      jump\t// in\n    tag_428:\n        /* \"#utility.yul\":12128:12202   */\n      swap2\n      pop\n        /* \"#utility.yul\":12211:12304   */\n      tag_429\n        /* \"#utility.yul\":12300:12303   */\n      dup3\n        /* \"#utility.yul\":12211:12304   */\n      tag_277\n      jump\t// in\n    tag_429:\n        /* \"#utility.yul\":12329:12331   */\n      0x40\n        /* \"#utility.yul\":12324:12327   */\n      dup3\n        /* \"#utility.yul\":12320:12332   */\n      add\n        /* \"#utility.yul\":12313:12332   */\n      swap1\n      pop\n        /* \"#utility.yul\":11972:12338   */\n      swap2\n      swap1\n      pop\n      jump\t// out\n        /* \"#utility.yul\":12344:12763   */\n    tag_99:\n        /* \"#utility.yul\":12510:12514   */\n      0x00\n        /* \"#utility.yul\":12548:12550   */\n      0x20\n        /* \"#utility.yul\":12537:12546   */\n      dup3\n        /* \"#utility.yul\":12533:12551   */\n      add\n        /* \"#utility.yul\":12525:12551   */\n      swap1\n      pop\n        /* \"#utility.yul\":12597:12606   */\n      dup2\n        /* \"#utility.yul\":12591:12595   */\n      dup2\n        /* \"#utility.yul\":12587:12607   */\n      sub\n        /* \"#utility.yul\":12583:12584   */\n      0x00\n        /* \"#utility.yul\":12572:12581   */\n      dup4\n        /* \"#utility.yul\":12568:12585   */\n      add\n        /* \"#utility.yul\":12561:12608   */\n      mstore\n        /* \"#utility.yul\":12625:12756   */\n      tag_431\n        /* \"#utility.yul\":12751:12755   */\n      dup2\n        /* \"#utility.yul\":12625:12756   */\n      tag_278\n      jump\t// in\n    tag_431:\n        /* \"#utility.yul\":12617:12756   */\n      swap1\n      pop\n        /* \"#utility.yul\":12344:12763   */\n      swap2\n      swap1\n      pop\n      jump\t// out\n        /* \"#utility.yul\":12769:12997   */\n    tag_279:\n        /* \"#utility.yul\":12909:12943   */\n      0x4552433732313a206f776e657220717565727920666f72206e6f6e6578697374\n        /* \"#utility.yul\":12905:12906   */\n      0x00\n        /* \"#utility.yul\":12897:12903   */\n      dup3\n        /* \"#utility.yul\":12893:12907   */\n      add\n        /* \"#utility.yul\":12886:12944   */\n      mstore\n        /* \"#utility.yul\":12978:12989   */\n      0x656e7420746f6b656e0000000000000000000000000000000000000000000000\n        /* \"#utility.yul\":12973:12975   */\n      0x20\n        /* \"#utility.yul\":12965:12971   */\n      dup3\n        /* \"#utility.yul\":12961:12976   */\n      add\n        /* \"#utility.yul\":12954:12990   */\n      mstore\n        /* \"#utility.yul\":12769:12997   */\n      pop\n      jump\t// out\n        /* \"#utility.yul\":13003:13369   */\n    tag_280:\n        /* \"#utility.yul\":13145:13148   */\n      0x00\n        /* \"#utility.yul\":13166:13233   */\n      tag_434\n        /* \"#utility.yul\":13230:13232   */\n      0x29\n        /* \"#utility.yul\":13225:13228   */\n      dup4\n        /* \"#utility.yul\":13166:13233   */\n      tag_246\n      jump\t// in\n    tag_434:\n        /* \"#utility.yul\":13159:13233   */\n      swap2\n      pop\n        /* \"#utility.yul\":13242:13335   */\n      tag_435\n        /* \"#utility.yul\":13331:13334   */\n      dup3\n        /* \"#utility.yul\":13242:13335   */\n      tag_279\n      jump\t// in\n    tag_435:\n        /* \"#utility.yul\":13360:13362   */\n      0x40\n        /* \"#utility.yul\":13355:13358   */\n      dup3\n        /* \"#utility.yul\":13351:13363   */\n      add\n        /* \"#utility.yul\":13344:13363   */\n      swap1\n      pop\n        /* \"#utility.yul\":13003:13369   */\n      swap2\n      swap1\n      pop\n      jump\t// out\n        /* \"#utility.yul\":13375:13794   */\n    tag_107:\n        /* \"#utility.yul\":13541:13545   */\n      0x00\n        /* \"#utility.yul\":13579:13581   */\n      0x20\n        /* \"#utility.yul\":13568:13577   */\n      dup3\n        /* \"#utility.yul\":13564:13582   */\n      add\n        /* \"#utility.yul\":13556:13582   */\n      swap1\n      pop\n        /* \"#utility.yul\":13628:13637   */\n      dup2\n        /* \"#utility.yul\":13622:13626   */\n      dup2\n        /* \"#utility.yul\":13618:13638   */\n      sub\n        /* \"#utility.yul\":13614:13615   */\n      0x00\n        /* \"#utility.yul\":13603:13612   */\n      dup4\n        /* \"#utility.yul\":13599:13616   */\n      add\n        /* \"#utility.yul\":13592:13639   */\n      mstore\n        /* \"#utility.yul\":13656:13787   */\n      tag_437\n        /* \"#utility.yul\":13782:13786   */\n      dup2\n        /* \"#utility.yul\":13656:13787   */\n      tag_280\n      jump\t// in\n    tag_437:\n        /* \"#utility.yul\":13648:13787   */\n      swap1\n      pop\n        /* \"#utility.yul\":13375:13794   */\n      swap2\n      swap1\n      pop\n      jump\t// out\n        /* \"#utility.yul\":13800:14029   */\n    tag_281:\n        /* \"#utility.yul\":13940:13974   */\n      0x4552433732313a2062616c616e636520717565727920666f7220746865207a65\n        /* \"#utility.yul\":13936:13937   */\n      0x00\n        /* \"#utility.yul\":13928:13934   */\n      dup3\n        /* \"#utility.yul\":13924:13938   */\n      add\n        /* \"#utility.yul\":13917:13975   */\n      mstore\n        /* \"#utility.yul\":14009:14021   */\n      0x726f206164647265737300000000000000000000000000000000000000000000\n        /* \"#utility.yul\":14004:14006   */\n      0x20\n        /* \"#utility.yul\":13996:14002   */\n      dup3\n        /* \"#utility.yul\":13992:14007   */\n      add\n        /* \"#utility.yul\":13985:14022   */\n      mstore\n        /* \"#utility.yul\":13800:14029   */\n      pop\n      jump\t// out\n        /* \"#utility.yul\":14035:14401   */\n    tag_282:\n        /* \"#utility.yul\":14177:14180   */\n      0x00\n        /* \"#utility.yul\":14198:14265   */\n      tag_440\n        /* \"#utility.yul\":14262:14264   */\n      0x2a\n        /* \"#utility.yul\":14257:14260   */\n      dup4\n        /* \"#utility.yul\":14198:14265   */\n      tag_246\n      jump\t// in\n    tag_440:\n        /* \"#utility.yul\":14191:14265   */\n      swap2\n      pop\n        /* \"#utility.yul\":14274:14367   */\n      tag_441\n        /* \"#utility.yul\":14363:14366   */\n      dup3\n        /* \"#utility.yul\":14274:14367   */\n      tag_281\n      jump\t// in\n    tag_441:\n        /* \"#utility.yul\":14392:14394   */\n      0x40\n        /* \"#utility.yul\":14387:14390   */\n      dup3\n        /* \"#utility.yul\":14383:14395   */\n      add\n        /* \"#utility.yul\":14376:14395   */\n      swap1\n      pop\n        /* \"#utility.yul\":14035:14401   */\n      swap2\n      swap1\n      pop\n      jump\t// out\n        /* \"#utility.yul\":14407:14826   */\n    tag_111:\n        /* \"#utility.yul\":14573:14577   */\n      0x00\n        /* \"#utility.yul\":14611:14613   */\n      0x20\n        /* \"#utility.yul\":14600:14609   */\n      dup3\n        /* \"#utility.yul\":14596:14614   */\n      add\n        /* \"#utility.yul\":14588:14614   */\n      swap1\n      pop\n        /* \"#utility.yul\":14660:14669   */\n      dup2\n        /* \"#utility.yul\":14654:14658   */\n      dup2\n        /* \"#utility.yul\":14650:14670   */\n      sub\n        /* \"#utility.yul\":14646:14647   */\n      0x00\n        /* \"#utility.yul\":14635:14644   */\n      dup4\n        /* \"#utility.yul\":14631:14648   */\n      add\n        /* \"#utility.yul\":14624:14671   */\n      mstore\n        /* \"#utility.yul\":14688:14819   */\n      tag_443\n        /* \"#utility.yul\":14814:14818   */\n      dup2\n        /* \"#utility.yul\":14688:14819   */\n      tag_282\n      jump\t// in\n    tag_443:\n        /* \"#utility.yul\":14680:14819   */\n      swap1\n      pop\n        /* \"#utility.yul\":14407:14826   */\n      swap2\n      swap1\n      pop\n      jump\t// out\n        /* \"#utility.yul\":14832:15014   */\n    tag_283:\n        /* \"#utility.yul\":14972:15006   */\n      0x4f776e61626c653a2063616c6c6572206973206e6f7420746865206f776e6572\n        /* \"#utility.yul\":14968:14969   */\n      0x00\n        /* \"#utility.yul\":14960:14966   */\n      dup3\n        /* \"#utility.yul\":14956:14970   */\n      add\n        /* \"#utility.yul\":14949:15007   */\n      mstore\n        /* \"#utility.yul\":14832:15014   */\n      pop\n      jump\t// out\n        /* \"#utility.yul\":15020:15386   */\n    tag_284:\n        /* \"#utility.yul\":15162:15165   */\n      0x00\n        /* \"#utility.yul\":15183:15250   */\n      tag_446\n        /* \"#utility.yul\":15247:15249   */\n      0x20\n        /* \"#utility.yul\":15242:15245   */\n      dup4\n        /* \"#utility.yul\":15183:15250   */\n      tag_246\n      jump\t// in\n    tag_446:\n        /* \"#utility.yul\":15176:15250   */\n      swap2\n      pop\n        /* \"#utility.yul\":15259:15352   */\n      tag_447\n        /* \"#utility.yul\":15348:15351   */\n      dup3\n        /* \"#utility.yul\":15259:15352   */\n      tag_283\n      jump\t// in\n    tag_447:\n        /* \"#utility.yul\":15377:15379   */\n      0x20\n        /* \"#utility.yul\":15372:15375   */\n      dup3\n        /* \"#utility.yul\":15368:15380   */\n      add\n        /* \"#utility.yul\":15361:15380   */\n      swap1\n      pop\n        /* \"#utility.yul\":15020:15386   */\n      swap2\n      swap1\n      pop\n      jump\t// out\n        /* \"#utility.yul\":15392:15811   */\n    tag_117:\n        /* \"#utility.yul\":15558:15562   */\n      0x00\n        /* \"#utility.yul\":15596:15598   */\n      0x20\n        /* \"#utility.yul\":15585:15594   */\n      dup3\n        /* \"#utility.yul\":15581:15599   */\n      add\n        /* \"#utility.yul\":15573:15599   */\n      swap1\n      pop\n        /* \"#utility.yul\":15645:15654   */\n      dup2\n        /* \"#utility.yul\":15639:15643   */\n      dup2\n        /* \"#utility.yul\":15635:15655   */\n      sub\n        /* \"#utility.yul\":15631:15632   */\n      0x00\n        /* \"#utility.yul\":15620:15629   */\n      dup4\n        /* \"#utility.yul\":15616:15633   */\n      add\n        /* \"#utility.yul\":15609:15656   */\n      mstore\n        /* \"#utility.yul\":15673:15804   */\n      tag_449\n        /* \"#utility.yul\":15799:15803   */\n      dup2\n        /* \"#utility.yul\":15673:15804   */\n      tag_284\n      jump\t// in\n    tag_449:\n        /* \"#utility.yul\":15665:15804   */\n      swap1\n      pop\n        /* \"#utility.yul\":15392:15811   */\n      swap2\n      swap1\n      pop\n      jump\t// out\n        /* \"#utility.yul\":15817:16051   */\n    tag_285:\n        /* \"#utility.yul\":15957:15991   */\n      0x4552433732314d657461646174613a2055524920717565727920666f72206e6f\n        /* \"#utility.yul\":15953:15954   */\n      0x00\n        /* \"#utility.yul\":15945:15951   */\n      dup3\n        /* \"#utility.yul\":15941:15955   */\n      add\n        /* \"#utility.yul\":15934:15992   */\n      mstore\n        /* \"#utility.yul\":16026:16043   */\n      0x6e6578697374656e7420746f6b656e0000000000000000000000000000000000\n        /* \"#utility.yul\":16021:16023   */\n      0x20\n        /* \"#utility.yul\":16013:16019   */\n      dup3\n        /* \"#utility.yul\":16009:16024   */\n      add\n        /* \"#utility.yul\":16002:16044   */\n      mstore\n        /* \"#utility.yul\":15817:16051   */\n      pop\n      jump\t// out\n        /* \"#utility.yul\":16057:16423   */\n    tag_286:\n        /* \"#utility.yul\":16199:16202   */\n      0x00\n        /* \"#utility.yul\":16220:16287   */\n      tag_452\n        /* \"#utility.yul\":16284:16286   */\n      0x2f\n        /* \"#utility.yul\":16279:16282   */\n      dup4\n        /* \"#utility.yul\":16220:16287   */\n      tag_246\n      jump\t// in\n    tag_452:\n        /* \"#utility.yul\":16213:16287   */\n      swap2\n      pop\n        /* \"#utility.yul\":16296:16389   */\n      tag_453\n        /* \"#utility.yul\":16385:16388   */\n      dup3\n        /* \"#utility.yul\":16296:16389   */\n      tag_285\n      jump\t// in\n    tag_453:\n        /* \"#utility.yul\":16414:16416   */\n      0x40\n        /* \"#utility.yul\":16409:16412   */\n      dup3\n        /* \"#utility.yul\":16405:16417   */\n      add\n        /* \"#utility.yul\":16398:16417   */\n      swap1\n      pop\n        /* \"#utility.yul\":16057:16423   */\n      swap2\n      swap1\n      pop\n      jump\t// out\n        /* \"#utility.yul\":16429:16848   */\n    tag_139:\n        /* \"#utility.yul\":16595:16599   */\n      0x00\n        /* \"#utility.yul\":16633:16635   */\n      0x20\n        /* \"#utility.yul\":16622:16631   */\n      dup3\n        /* \"#utility.yul\":16618:16636   */\n      add\n        /* \"#utility.yul\":16610:16636   */\n      swap1\n      pop\n        /* \"#utility.yul\":16682:16691   */\n      dup2\n        /* \"#utility.yul\":16676:16680   */\n      dup2\n        /* \"#utility.yul\":16672:16692   */\n      sub\n        /* \"#utility.yul\":16668:16669   */\n      0x00\n        /* \"#utility.yul\":16657:16666   */\n      dup4\n        /* \"#utility.yul\":16653:16670   */\n      add\n        /* \"#utility.yul\":16646:16693   */\n      mstore\n        /* \"#utility.yul\":16710:16841   */\n      tag_455\n        /* \"#utility.yul\":16836:16840   */\n      dup2\n        /* \"#utility.yul\":16710:16841   */\n      tag_286\n      jump\t// in\n    tag_455:\n        /* \"#utility.yul\":16702:16841   */\n      swap1\n      pop\n        /* \"#utility.yul\":16429:16848   */\n      swap2\n      swap1\n      pop\n      jump\t// out\n        /* \"#utility.yul\":16854:17002   */\n    tag_287:\n        /* \"#utility.yul\":16956:16967   */\n      0x00\n        /* \"#utility.yul\":16993:16996   */\n      dup2\n        /* \"#utility.yul\":16978:16996   */\n      swap1\n      pop\n        /* \"#utility.yul\":16854:17002   */\n      swap3\n      swap2\n      pop\n      pop\n      jump\t// out\n        /* \"#utility.yul\":17008:17385   */\n    tag_288:\n        /* \"#utility.yul\":17114:17117   */\n      0x00\n        /* \"#utility.yul\":17142:17181   */\n      tag_458\n        /* \"#utility.yul\":17175:17180   */\n      dup3\n        /* \"#utility.yul\":17142:17181   */\n      tag_245\n      jump\t// in\n    tag_458:\n        /* \"#utility.yul\":17197:17286   */\n      tag_459\n        /* \"#utility.yul\":17279:17285   */\n      dup2\n        /* \"#utility.yul\":17274:17277   */\n      dup6\n        /* \"#utility.yul\":17197:17286   */\n      tag_287\n      jump\t// in\n    tag_459:\n        /* \"#utility.yul\":17190:17286   */\n      swap4\n      pop\n        /* \"#utility.yul\":17295:17347   */\n      tag_460\n        /* \"#utility.yul\":17340:17346   */\n      dup2\n        /* \"#utility.yul\":17335:17338   */\n      dup6\n        /* \"#utility.yul\":17328:17332   */\n      0x20\n        /* \"#utility.yul\":17321:17326   */\n      dup7\n        /* \"#utility.yul\":17317:17333   */\n      add\n        /* \"#utility.yul\":17295:17347   */\n      tag_247\n      jump\t// in\n    tag_460:\n        /* \"#utility.yul\":17372:17378   */\n      dup1\n        /* \"#utility.yul\":17367:17370   */\n      dup5\n        /* \"#utility.yul\":17363:17379   */\n      add\n        /* \"#utility.yul\":17356:17379   */\n      swap2\n      pop\n        /* \"#utility.yul\":17118:17385   */\n      pop\n        /* \"#utility.yul\":17008:17385   */\n      swap3\n      swap2\n      pop\n      pop\n      jump\t// out\n        /* \"#utility.yul\":17391:17826   */\n    tag_147:\n        /* \"#utility.yul\":17571:17574   */\n      0x00\n        /* \"#utility.yul\":17593:17688   */\n      tag_462\n        /* \"#utility.yul\":17684:17687   */\n      dup3\n        /* \"#utility.yul\":17675:17681   */\n      dup6\n        /* \"#utility.yul\":17593:17688   */\n      tag_288\n      jump\t// in\n    tag_462:\n        /* \"#utility.yul\":17586:17688   */\n      swap2\n      pop\n        /* \"#utility.yul\":17705:17800   */\n      tag_463\n        /* \"#utility.yul\":17796:17799   */\n      dup3\n        /* \"#utility.yul\":17787:17793   */\n      dup5\n        /* \"#utility.yul\":17705:17800   */\n      tag_288\n      jump\t// in\n    tag_463:\n        /* \"#utility.yul\":17698:17800   */\n      swap2\n      pop\n        /* \"#utility.yul\":17817:17820   */\n      dup2\n        /* \"#utility.yul\":17810:17820   */\n      swap1\n      pop\n        /* \"#utility.yul\":17391:17826   */\n      swap4\n      swap3\n      pop\n      pop\n      pop\n      jump\t// out\n        /* \"#utility.yul\":17832:18057   */\n    tag_289:\n        /* \"#utility.yul\":17972:18006   */\n      0x4f776e61626c653a206e6577206f776e657220697320746865207a65726f2061\n        /* \"#utility.yul\":17968:17969   */\n      0x00\n        /* \"#utility.yul\":17960:17966   */\n      dup3\n        /* \"#utility.yul\":17956:17970   */\n      add\n        /* \"#utility.yul\":17949:18007   */\n      mstore\n        /* \"#utility.yul\":18041:18049   */\n      0x6464726573730000000000000000000000000000000000000000000000000000\n        /* \"#utility.yul\":18036:18038   */\n      0x20\n        /* \"#utility.yul\":18028:18034   */\n      dup3\n        /* \"#utility.yul\":18024:18039   */\n      add\n        /* \"#utility.yul\":18017:18050   */\n      mstore\n        /* \"#utility.yul\":17832:18057   */\n      pop\n      jump\t// out\n        /* \"#utility.yul\":18063:18429   */\n    tag_290:\n        /* \"#utility.yul\":18205:18208   */\n      0x00\n        /* \"#utility.yul\":18226:18293   */\n      tag_466\n        /* \"#utility.yul\":18290:18292   */\n      0x26\n        /* \"#utility.yul\":18285:18288   */\n      dup4\n        /* \"#utility.yul\":18226:18293   */\n      tag_246\n      jump\t// in\n    tag_466:\n        /* \"#utility.yul\":18219:18293   */\n      swap2\n      pop\n        /* \"#utility.yul\":18302:18395   */\n      tag_467\n        /* \"#utility.yul\":18391:18394   */\n      dup3\n        /* \"#utility.yul\":18302:18395   */\n      tag_289\n      jump\t// in\n    tag_467:\n        /* \"#utility.yul\":18420:18422   */\n      0x40\n        /* \"#utility.yul\":18415:18418   */\n      dup3\n        /* \"#utility.yul\":18411:18423   */\n      add\n        /* \"#utility.yul\":18404:18423   */\n      swap1\n      pop\n        /* \"#utility.yul\":18063:18429   */\n      swap2\n      swap1\n      pop\n      jump\t// out\n        /* \"#utility.yul\":18435:18854   */\n    tag_156:\n        /* \"#utility.yul\":18601:18605   */\n      0x00\n        /* \"#utility.yul\":18639:18641   */\n      0x20\n        /* \"#utility.yul\":18628:18637   */\n      dup3\n        /* \"#utility.yul\":18624:18642   */\n      add\n        /* \"#utility.yul\":18616:18642   */\n      swap1\n      pop\n        /* \"#utility.yul\":18688:18697   */\n      dup2\n        /* \"#utility.yul\":18682:18686   */\n      dup2\n        /* \"#utility.yul\":18678:18698   */\n      sub\n        /* \"#utility.yul\":18674:18675   */\n      0x00\n        /* \"#utility.yul\":18663:18672   */\n      dup4\n        /* \"#utility.yul\":18659:18676   */\n      add\n        /* \"#utility.yul\":18652:18699   */\n      mstore\n        /* \"#utility.yul\":18716:18847   */\n      tag_469\n        /* \"#utility.yul\":18842:18846   */\n      dup2\n        /* \"#utility.yul\":18716:18847   */\n      tag_290\n      jump\t// in\n    tag_469:\n        /* \"#utility.yul\":18708:18847   */\n      swap1\n      pop\n        /* \"#utility.yul\":18435:18854   */\n      swap2\n      swap1\n      pop\n      jump\t// out\n        /* \"#utility.yul\":18860:19091   */\n    tag_291:\n        /* \"#utility.yul\":19000:19034   */\n      0x4552433732313a206f70657261746f7220717565727920666f72206e6f6e6578\n        /* \"#utility.yul\":18996:18997   */\n      0x00\n        /* \"#utility.yul\":18988:18994   */\n      dup3\n        /* \"#utility.yul\":18984:18998   */\n      add\n        /* \"#utility.yul\":18977:19035   */\n      mstore\n        /* \"#utility.yul\":19069:19083   */\n      0x697374656e7420746f6b656e0000000000000000000000000000000000000000\n        /* \"#utility.yul\":19064:19066   */\n      0x20\n        /* \"#utility.yul\":19056:19062   */\n      dup3\n        /* \"#utility.yul\":19052:19067   */\n      add\n        /* \"#utility.yul\":19045:19084   */\n      mstore\n        /* \"#utility.yul\":18860:19091   */\n      pop\n      jump\t// out\n        /* \"#utility.yul\":19097:19463   */\n    tag_292:\n        /* \"#utility.yul\":19239:19242   */\n      0x00\n        /* \"#utility.yul\":19260:19327   */\n      tag_472\n        /* \"#utility.yul\":19324:19326   */\n      0x2c\n        /* \"#utility.yul\":19319:19322   */\n      dup4\n        /* \"#utility.yul\":19260:19327   */\n      tag_246\n      jump\t// in\n    tag_472:\n        /* \"#utility.yul\":19253:19327   */\n      swap2\n      pop\n        /* \"#utility.yul\":19336:19429   */\n      tag_473\n        /* \"#utility.yul\":19425:19428   */\n      dup3\n        /* \"#utility.yul\":19336:19429   */\n      tag_291\n      jump\t// in\n    tag_473:\n        /* \"#utility.yul\":19454:19456   */\n      0x40\n        /* \"#utility.yul\":19449:19452   */\n      dup3\n        /* \"#utility.yul\":19445:19457   */\n      add\n        /* \"#utility.yul\":19438:19457   */\n      swap1\n      pop\n        /* \"#utility.yul\":19097:19463   */\n      swap2\n      swap1\n      pop\n      jump\t// out\n        /* \"#utility.yul\":19469:19888   */\n    tag_166:\n        /* \"#utility.yul\":19635:19639   */\n      0x00\n        /* \"#utility.yul\":19673:19675   */\n      0x20\n        /* \"#utility.yul\":19662:19671   */\n      dup3\n        /* \"#utility.yul\":19658:19676   */\n      add\n        /* \"#utility.yul\":19650:19676   */\n      swap1\n      pop\n        /* \"#utility.yul\":19722:19731   */\n      dup2\n        /* \"#utility.yul\":19716:19720   */\n      dup2\n        /* \"#utility.yul\":19712:19732   */\n      sub\n        /* \"#utility.yul\":19708:19709   */\n      0x00\n        /* \"#utility.yul\":19697:19706   */\n      dup4\n        /* \"#utility.yul\":19693:19710   */\n      add\n        /* \"#utility.yul\":19686:19733   */\n      mstore\n        /* \"#utility.yul\":19750:19881   */\n      tag_475\n        /* \"#utility.yul\":19876:19880   */\n      dup2\n        /* \"#utility.yul\":19750:19881   */\n      tag_292\n      jump\t// in\n    tag_475:\n        /* \"#utility.yul\":19742:19881   */\n      swap1\n      pop\n        /* \"#utility.yul\":19469:19888   */\n      swap2\n      swap1\n      pop\n      jump\t// out\n        /* \"#utility.yul\":19894:20118   */\n    tag_293:\n        /* \"#utility.yul\":20034:20068   */\n      0x4552433732313a207472616e736665722066726f6d20696e636f727265637420\n        /* \"#utility.yul\":20030:20031   */\n      0x00\n        /* \"#utility.yul\":20022:20028   */\n      dup3\n        /* \"#utility.yul\":20018:20032   */\n      add\n        /* \"#utility.yul\":20011:20069   */\n      mstore\n        /* \"#utility.yul\":20103:20110   */\n      0x6f776e6572000000000000000000000000000000000000000000000000000000\n        /* \"#utility.yul\":20098:20100   */\n      0x20\n        /* \"#utility.yul\":20090:20096   */\n      dup3\n        /* \"#utility.yul\":20086:20101   */\n      add\n        /* \"#utility.yul\":20079:20111   */\n      mstore\n        /* \"#utility.yul\":19894:20118   */\n      pop\n      jump\t// out\n        /* \"#utility.yul\":20124:20490   */\n    tag_294:\n        /* \"#utility.yul\":20266:20269   */\n      0x00\n        /* \"#utility.yul\":20287:20354   */\n      tag_478\n        /* \"#utility.yul\":20351:20353   */\n      0x25\n        /* \"#utility.yul\":20346:20349   */\n      dup4\n        /* \"#utility.yul\":20287:20354   */\n      tag_246\n      jump\t// in\n    tag_478:\n        /* \"#utility.yul\":20280:20354   */\n      swap2\n      pop\n        /* \"#utility.yul\":20363:20456   */\n      tag_479\n        /* \"#utility.yul\":20452:20455   */\n      dup3\n        /* \"#utility.yul\":20363:20456   */\n      tag_293\n      jump\t// in\n    tag_479:\n        /* \"#utility.yul\":20481:20483   */\n      0x40\n        /* \"#utility.yul\":20476:20479   */\n      dup3\n        /* \"#utility.yul\":20472:20484   */\n      add\n        /* \"#utility.yul\":20465:20484   */\n      swap1\n      pop\n        /* \"#utility.yul\":20124:20490   */\n      swap2\n      swap1\n      pop\n      jump\t// out\n        /* \"#utility.yul\":20496:20915   */\n    tag_174:\n        /* \"#utility.yul\":20662:20666   */\n      0x00\n        /* \"#utility.yul\":20700:20702   */\n      0x20\n        /* \"#utility.yul\":20689:20698   */\n      dup3\n        /* \"#utility.yul\":20685:20703   */\n      add\n        /* \"#utility.yul\":20677:20703   */\n      swap1\n      pop\n        /* \"#utility.yul\":20749:20758   */\n      dup2\n        /* \"#utility.yul\":20743:20747   */\n      dup2\n        /* \"#utility.yul\":20739:20759   */\n      sub\n        /* \"#utility.yul\":20735:20736   */\n      0x00\n        /* \"#utility.yul\":20724:20733   */\n      dup4\n        /* \"#utility.yul\":20720:20737   */\n      add\n        /* \"#utility.yul\":20713:20760   */\n      mstore\n        /* \"#utility.yul\":20777:20908   */\n      tag_481\n        /* \"#utility.yul\":20903:20907   */\n      dup2\n        /* \"#utility.yul\":20777:20908   */\n      tag_294\n      jump\t// in\n    tag_481:\n        /* \"#utility.yul\":20769:20908   */\n      swap1\n      pop\n        /* \"#utility.yul\":20496:20915   */\n      swap2\n      swap1\n      pop\n      jump\t// out\n        /* \"#utility.yul\":20921:21144   */\n    tag_295:\n        /* \"#utility.yul\":21061:21095   */\n      0x4552433732313a207472616e7366657220746f20746865207a65726f20616464\n        /* \"#utility.yul\":21057:21058   */\n      0x00\n        /* \"#utility.yul\":21049:21055   */\n      dup3\n        /* \"#utility.yul\":21045:21059   */\n      add\n        /* \"#utility.yul\":21038:21096   */\n      mstore\n        /* \"#utility.yul\":21130:21136   */\n      0x7265737300000000000000000000000000000000000000000000000000000000\n        /* \"#utility.yul\":21125:21127   */\n      0x20\n        /* \"#utility.yul\":21117:21123   */\n      dup3\n        /* \"#utility.yul\":21113:21128   */\n      add\n        /* \"#utility.yul\":21106:21137   */\n      mstore\n        /* \"#utility.yul\":20921:21144   */\n      pop\n      jump\t// out\n        /* \"#utility.yul\":21150:21516   */\n    tag_296:\n        /* \"#utility.yul\":21292:21295   */\n      0x00\n        /* \"#utility.yul\":21313:21380   */\n      tag_484\n        /* \"#utility.yul\":21377:21379   */\n      0x24\n        /* \"#utility.yul\":21372:21375   */\n      dup4\n        /* \"#utility.yul\":21313:21380   */\n      tag_246\n      jump\t// in\n    tag_484:\n        /* \"#utility.yul\":21306:21380   */\n      swap2\n      pop\n        /* \"#utility.yul\":21389:21482   */\n      tag_485\n        /* \"#utility.yul\":21478:21481   */\n      dup3\n        /* \"#utility.yul\":21389:21482   */\n      tag_295\n      jump\t// in\n    tag_485:\n        /* \"#utility.yul\":21507:21509   */\n      0x40\n        /* \"#utility.yul\":21502:21505   */\n      dup3\n        /* \"#utility.yul\":21498:21510   */\n      add\n        /* \"#utility.yul\":21491:21510   */\n      swap1\n      pop\n        /* \"#utility.yul\":21150:21516   */\n      swap2\n      swap1\n      pop\n      jump\t// out\n        /* \"#utility.yul\":21522:21941   */\n    tag_177:\n        /* \"#utility.yul\":21688:21692   */\n      0x00\n        /* \"#utility.yul\":21726:21728   */\n      0x20\n        /* \"#utility.yul\":21715:21724   */\n      dup3\n        /* \"#utility.yul\":21711:21729   */\n      add\n        /* \"#utility.yul\":21703:21729   */\n      swap1\n      pop\n        /* \"#utility.yul\":21775:21784   */\n      dup2\n        /* \"#utility.yul\":21769:21773   */\n      dup2\n        /* \"#utility.yul\":21765:21785   */\n      sub\n        /* \"#utility.yul\":21761:21762   */\n      0x00\n        /* \"#utility.yul\":21750:21759   */\n      dup4\n        /* \"#utility.yul\":21746:21763   */\n      add\n        /* \"#utility.yul\":21739:21786   */\n      mstore\n        /* \"#utility.yul\":21803:21934   */\n      tag_487\n        /* \"#utility.yul\":21929:21933   */\n      dup2\n        /* \"#utility.yul\":21803:21934   */\n      tag_296\n      jump\t// in\n    tag_487:\n        /* \"#utility.yul\":21795:21934   */\n      swap1\n      pop\n        /* \"#utility.yul\":21522:21941   */\n      swap2\n      swap1\n      pop\n      jump\t// out\n        /* \"#utility.yul\":21947:22127   */\n    tag_297:\n        /* \"#utility.yul\":21995:22072   */\n      0x4e487b7100000000000000000000000000000000000000000000000000000000\n        /* \"#utility.yul\":21992:21993   */\n      0x00\n        /* \"#utility.yul\":21985:22073   */\n      mstore\n        /* \"#utility.yul\":22092:22096   */\n      0x11\n        /* \"#utility.yul\":22089:22090   */\n      0x04\n        /* \"#utility.yul\":22082:22097   */\n      mstore\n        /* \"#utility.yul\":22116:22120   */\n      0x24\n        /* \"#utility.yul\":22113:22114   */\n      0x00\n        /* \"#utility.yul\":22106:22121   */\n      revert\n        /* \"#utility.yul\":22133:22324   */\n    tag_182:\n        /* \"#utility.yul\":22173:22177   */\n      0x00\n        /* \"#utility.yul\":22193:22213   */\n      tag_490\n        /* \"#utility.yul\":22211:22212   */\n      dup3\n        /* \"#utility.yul\":22193:22213   */\n      tag_253\n      jump\t// in\n    tag_490:\n        /* \"#utility.yul\":22188:22213   */\n      swap2\n      pop\n        /* \"#utility.yul\":22227:22247   */\n      tag_491\n        /* \"#utility.yul\":22245:22246   */\n      dup4\n        /* \"#utility.yul\":22227:22247   */\n      tag_253\n      jump\t// in\n    tag_491:\n        /* \"#utility.yul\":22222:22247   */\n      swap3\n      pop\n        /* \"#utility.yul\":22266:22267   */\n      dup3\n        /* \"#utility.yul\":22263:22264   */\n      dup3\n        /* \"#utility.yul\":22260:22268   */\n      lt\n        /* \"#utility.yul\":22257:22291   */\n      iszero\n      tag_492\n      jumpi\n        /* \"#utility.yul\":22271:22289   */\n      tag_493\n      tag_297\n      jump\t// in\n    tag_493:\n        /* \"#utility.yul\":22257:22291   */\n    tag_492:\n        /* \"#utility.yul\":22316:22317   */\n      dup3\n        /* \"#utility.yul\":22313:22314   */\n      dup3\n        /* \"#utility.yul\":22309:22318   */\n      sub\n        /* \"#utility.yul\":22301:22318   */\n      swap1\n      pop\n        /* \"#utility.yul\":22133:22324   */\n      swap3\n      swap2\n      pop\n      pop\n      jump\t// out\n        /* \"#utility.yul\":22330:22635   */\n    tag_184:\n        /* \"#utility.yul\":22370:22373   */\n      0x00\n        /* \"#utility.yul\":22389:22409   */\n      tag_495\n        /* \"#utility.yul\":22407:22408   */\n      dup3\n        /* \"#utility.yul\":22389:22409   */\n      tag_253\n      jump\t// in\n    tag_495:\n        /* \"#utility.yul\":22384:22409   */\n      swap2\n      pop\n        /* \"#utility.yul\":22423:22443   */\n      tag_496\n        /* \"#utility.yul\":22441:22442   */\n      dup4\n        /* \"#utility.yul\":22423:22443   */\n      tag_253\n      jump\t// in\n    tag_496:\n        /* \"#utility.yul\":22418:22443   */\n      swap3\n      pop\n        /* \"#utility.yul\":22577:22578   */\n      dup3\n        /* \"#utility.yul\":22509:22575   */\n      0xffffffffffffffffffffffffffffffffffffffffffffffffffffffffffffffff\n        /* \"#utility.yul\":22505:22579   */\n      sub\n        /* \"#utility.yul\":22502:22503   */\n      dup3\n        /* \"#utility.yul\":22499:22580   */\n      gt\n        /* \"#utility.yul\":22496:22603   */\n      iszero\n      tag_497\n      jumpi\n        /* \"#utility.yul\":22583:22601   */\n      tag_498\n      tag_297\n      jump\t// in\n    tag_498:\n        /* \"#utility.yul\":22496:22603   */\n    tag_497:\n        /* \"#utility.yul\":22627:22628   */\n      dup3\n        /* \"#utility.yul\":22624:22625   */\n      dup3\n        /* \"#utility.yul\":22620:22629   */\n      add\n        /* \"#utility.yul\":22613:22629   */\n      swap1\n      pop\n        /* \"#utility.yul\":22330:22635   */\n      swap3\n      swap2\n      pop\n      pop\n      jump\t// out\n        /* \"#utility.yul\":22641:22878   */\n    tag_298:\n        /* \"#utility.yul\":22781:22815   */\n      0x4552433732313a207472616e7366657220746f206e6f6e204552433732315265\n        /* \"#utility.yul\":22777:22778   */\n      0x00\n        /* \"#utility.yul\":22769:22775   */\n      dup3\n        /* \"#utility.yul\":22765:22779   */\n      add\n        /* \"#utility.yul\":22758:22816   */\n      mstore\n        /* \"#utility.yul\":22850:22870   */\n      0x63656976657220696d706c656d656e7465720000000000000000000000000000\n        /* \"#utility.yul\":22845:22847   */\n      0x20\n        /* \"#utility.yul\":22837:22843   */\n      dup3\n        /* \"#utility.yul\":22833:22848   */\n      add\n        /* \"#utility.yul\":22826:22871   */\n      mstore\n        /* \"#utility.yul\":22641:22878   */\n      pop\n      jump\t// out\n        /* \"#utility.yul\":22884:23250   */\n    tag_299:\n        /* \"#utility.yul\":23026:23029   */\n      0x00\n        /* \"#utility.yul\":23047:23114   */\n      tag_501\n        /* \"#utility.yul\":23111:23113   */\n      0x32\n        /* \"#utility.yul\":23106:23109   */\n      dup4\n        /* \"#utility.yul\":23047:23114   */\n      tag_246\n      jump\t// in\n    tag_501:\n        /* \"#utility.yul\":23040:23114   */\n      swap2\n      pop\n        /* \"#utility.yul\":23123:23216   */\n      tag_502\n        /* \"#utility.yul\":23212:23215   */\n      dup3\n        /* \"#utility.yul\":23123:23216   */\n      tag_298\n      jump\t// in\n    tag_502:\n        /* \"#utility.yul\":23241:23243   */\n      0x40\n        /* \"#utility.yul\":23236:23239   */\n      dup3\n        /* \"#utility.yul\":23232:23244   */\n      add\n        /* \"#utility.yul\":23225:23244   */\n      swap1\n      pop\n        /* \"#utility.yul\":22884:23250   */\n      swap2\n      swap1\n      pop\n      jump\t// out\n        /* \"#utility.yul\":23256:23675   */\n    tag_194:\n        /* \"#utility.yul\":23422:23426   */\n      0x00\n        /* \"#utility.yul\":23460:23462   */\n      0x20\n        /* \"#utility.yul\":23449:23458   */\n      dup3\n        /* \"#utility.yul\":23445:23463   */\n      add\n        /* \"#utility.yul\":23437:23463   */\n      swap1\n      pop\n        /* \"#utility.yul\":23509:23518   */\n      dup2\n        /* \"#utility.yul\":23503:23507   */\n      dup2\n        /* \"#utility.yul\":23499:23519   */\n      sub\n        /* \"#utility.yul\":23495:23496   */\n      0x00\n        /* \"#utility.yul\":23484:23493   */\n      dup4\n        /* \"#utility.yul\":23480:23497   */\n      add\n        /* \"#utility.yul\":23473:23520   */\n      mstore\n        /* \"#utility.yul\":23537:23668   */\n      tag_504\n        /* \"#utility.yul\":23663:23667   */\n      dup2\n        /* \"#utility.yul\":23537:23668   */\n      tag_299\n      jump\t// in\n    tag_504:\n        /* \"#utility.yul\":23529:23668   */\n      swap1\n      pop\n        /* \"#utility.yul\":23256:23675   */\n      swap2\n      swap1\n      pop\n      jump\t// out\n        /* \"#utility.yul\":23681:23914   */\n    tag_201:\n        /* \"#utility.yul\":23720:23723   */\n      0x00\n        /* \"#utility.yul\":23743:23767   */\n      tag_506\n        /* \"#utility.yul\":23761:23766   */\n      dup3\n        /* \"#utility.yul\":23743:23767   */\n      tag_253\n      jump\t// in\n    tag_506:\n        /* \"#utility.yul\":23734:23767   */\n      swap2\n      pop\n        /* \"#utility.yul\":23789:23855   */\n      0xffffffffffffffffffffffffffffffffffffffffffffffffffffffffffffffff\n        /* \"#utility.yul\":23782:23787   */\n      dup3\n        /* \"#utility.yul\":23779:23856   */\n      sub\n        /* \"#utility.yul\":23776:23879   */\n      tag_507\n      jumpi\n        /* \"#utility.yul\":23859:23877   */\n      tag_508\n      tag_297\n      jump\t// in\n    tag_508:\n        /* \"#utility.yul\":23776:23879   */\n    tag_507:\n        /* \"#utility.yul\":23906:23907   */\n      0x01\n        /* \"#utility.yul\":23899:23904   */\n      dup3\n        /* \"#utility.yul\":23895:23908   */\n      add\n        /* \"#utility.yul\":23888:23908   */\n      swap1\n      pop\n        /* \"#utility.yul\":23681:23914   */\n      swap2\n      swap1\n      pop\n      jump\t// out\n        /* \"#utility.yul\":23920:24100   */\n    tag_300:\n        /* \"#utility.yul\":23968:24045   */\n      0x4e487b7100000000000000000000000000000000000000000000000000000000\n        /* \"#utility.yul\":23965:23966   */\n      0x00\n        /* \"#utility.yul\":23958:24046   */\n      mstore\n        /* \"#utility.yul\":24065:24069   */\n      0x12\n        /* \"#utility.yul\":24062:24063   */\n      0x04\n        /* \"#utility.yul\":24055:24070   */\n      mstore\n        /* \"#utility.yul\":24089:24093   */\n      0x24\n        /* \"#utility.yul\":24086:24087   */\n      0x00\n        /* \"#utility.yul\":24079:24094   */\n      revert\n        /* \"#utility.yul\":24106:24291   */\n    tag_203:\n        /* \"#utility.yul\":24146:24147   */\n      0x00\n        /* \"#utility.yul\":24163:24183   */\n      tag_511\n        /* \"#utility.yul\":24181:24182   */\n      dup3\n        /* \"#utility.yul\":24163:24183   */\n      tag_253\n      jump\t// in\n    tag_511:\n        /* \"#utility.yul\":24158:24183   */\n      swap2\n      pop\n        /* \"#utility.yul\":24197:24217   */\n      tag_512\n        /* \"#utility.yul\":24215:24216   */\n      dup4\n        /* \"#utility.yul\":24197:24217   */\n      tag_253\n      jump\t// in\n    tag_512:\n        /* \"#utility.yul\":24192:24217   */\n      swap3\n      pop\n        /* \"#utility.yul\":24236:24237   */\n      dup3\n        /* \"#utility.yul\":24226:24261   */\n      tag_513\n      jumpi\n        /* \"#utility.yul\":24241:24259   */\n      tag_514\n      tag_300\n      jump\t// in\n    tag_514:\n        /* \"#utility.yul\":24226:24261   */\n    tag_513:\n        /* \"#utility.yul\":24283:24284   */\n      dup3\n        /* \"#utility.yul\":24280:24281   */\n      dup3\n        /* \"#utility.yul\":24276:24285   */\n      div\n        /* \"#utility.yul\":24271:24285   */\n      swap1\n      pop\n        /* \"#utility.yul\":24106:24291   */\n      swap3\n      swap2\n      pop\n      pop\n      jump\t// out\n        /* \"#utility.yul\":24297:24473   */\n    tag_212:\n        /* \"#utility.yul\":24329:24330   */\n      0x00\n        /* \"#utility.yul\":24346:24366   */\n      tag_516\n        /* \"#utility.yul\":24364:24365   */\n      dup3\n        /* \"#utility.yul\":24346:24366   */\n      tag_253\n      jump\t// in\n    tag_516:\n        /* \"#utility.yul\":24341:24366   */\n      swap2\n      pop\n        /* \"#utility.yul\":24380:24400   */\n      tag_517\n        /* \"#utility.yul\":24398:24399   */\n      dup4\n        /* \"#utility.yul\":24380:24400   */\n      tag_253\n      jump\t// in\n    tag_517:\n        /* \"#utility.yul\":24375:24400   */\n      swap3\n      pop\n        /* \"#utility.yul\":24419:24420   */\n      dup3\n        /* \"#utility.yul\":24409:24444   */\n      tag_518\n      jumpi\n        /* \"#utility.yul\":24424:24442   */\n      tag_519\n      tag_300\n      jump\t// in\n    tag_519:\n        /* \"#utility.yul\":24409:24444   */\n    tag_518:\n        /* \"#utility.yul\":24465:24466   */\n      dup3\n        /* \"#utility.yul\":24462:24463   */\n      dup3\n        /* \"#utility.yul\":24458:24467   */\n      mod\n        /* \"#utility.yul\":24453:24467   */\n      swap1\n      pop\n        /* \"#utility.yul\":24297:24473   */\n      swap3\n      swap2\n      pop\n      pop\n      jump\t// out\n        /* \"#utility.yul\":24479:24659   */\n    tag_216:\n        /* \"#utility.yul\":24527:24604   */\n      0x4e487b7100000000000000000000000000000000000000000000000000000000\n        /* \"#utility.yul\":24524:24525   */\n      0x00\n        /* \"#utility.yul\":24517:24605   */\n      mstore\n        /* \"#utility.yul\":24624:24628   */\n      0x32\n        /* \"#utility.yul\":24621:24622   */\n      0x04\n        /* \"#utility.yul\":24614:24629   */\n      mstore\n        /* \"#utility.yul\":24648:24652   */\n      0x24\n        /* \"#utility.yul\":24645:24646   */\n      0x00\n        /* \"#utility.yul\":24638:24653   */\n      revert\n        /* \"#utility.yul\":24665:24847   */\n    tag_301:\n        /* \"#utility.yul\":24805:24839   */\n      0x4552433732313a207472616e73666572206e6f74206f776e657220746f6b656e\n        /* \"#utility.yul\":24801:24802   */\n      0x00\n        /* \"#utility.yul\":24793:24799   */\n      dup3\n        /* \"#utility.yul\":24789:24803   */\n      add\n        /* \"#utility.yul\":24782:24840   */\n      mstore\n        /* \"#utility.yul\":24665:24847   */\n      pop\n      jump\t// out\n        /* \"#utility.yul\":24853:25219   */\n    tag_302:\n        /* \"#utility.yul\":24995:24998   */\n      0x00\n        /* \"#utility.yul\":25016:25083   */\n      tag_523\n        /* \"#utility.yul\":25080:25082   */\n      0x20\n        /* \"#utility.yul\":25075:25078   */\n      dup4\n        /* \"#utility.yul\":25016:25083   */\n      tag_246\n      jump\t// in\n    tag_523:\n        /* \"#utility.yul\":25009:25083   */\n      swap2\n      pop\n        /* \"#utility.yul\":25092:25185   */\n      tag_524\n        /* \"#utility.yul\":25181:25184   */\n      dup3\n        /* \"#utility.yul\":25092:25185   */\n      tag_301\n      jump\t// in\n    tag_524:\n        /* \"#utility.yul\":25210:25212   */\n      0x20\n        /* \"#utility.yul\":25205:25208   */\n      dup3\n        /* \"#utility.yul\":25201:25213   */\n      add\n        /* \"#utility.yul\":25194:25213   */\n      swap1\n      pop\n        /* \"#utility.yul\":24853:25219   */\n      swap2\n      swap1\n      pop\n      jump\t// out\n        /* \"#utility.yul\":25225:25644   */\n    tag_221:\n        /* \"#utility.yul\":25391:25395   */\n      0x00\n        /* \"#utility.yul\":25429:25431   */\n      0x20\n        /* \"#utility.yul\":25418:25427   */\n      dup3\n        /* \"#utility.yul\":25414:25432   */\n      add\n        /* \"#utility.yul\":25406:25432   */\n      swap1\n      pop\n        /* \"#utility.yul\":25478:25487   */\n      dup2\n        /* \"#utility.yul\":25472:25476   */\n      dup2\n        /* \"#utility.yul\":25468:25488   */\n      sub\n        /* \"#utility.yul\":25464:25465   */\n      0x00\n        /* \"#utility.yul\":25453:25462   */\n      dup4\n        /* \"#utility.yul\":25449:25466   */\n      add\n        /* \"#utility.yul\":25442:25489   */\n      mstore\n        /* \"#utility.yul\":25506:25637   */\n      tag_526\n        /* \"#utility.yul\":25632:25636   */\n      dup2\n        /* \"#utility.yul\":25506:25637   */\n      tag_302\n      jump\t// in\n    tag_526:\n        /* \"#utility.yul\":25498:25637   */\n      swap1\n      pop\n        /* \"#utility.yul\":25225:25644   */\n      swap2\n      swap1\n      pop\n      jump\t// out\n        /* \"#utility.yul\":25650:25748   */\n    tag_303:\n        /* \"#utility.yul\":25701:25707   */\n      0x00\n        /* \"#utility.yul\":25735:25740   */\n      dup2\n        /* \"#utility.yul\":25729:25741   */\n      mload\n        /* \"#utility.yul\":25719:25741   */\n      swap1\n      pop\n        /* \"#utility.yul\":25650:25748   */\n      swap2\n      swap1\n      pop\n      jump\t// out\n        /* \"#utility.yul\":25754:25922   */\n    tag_304:\n        /* \"#utility.yul\":25837:25848   */\n      0x00\n        /* \"#utility.yul\":25871:25877   */\n      dup3\n        /* \"#utility.yul\":25866:25869   */\n      dup3\n        /* \"#utility.yul\":25859:25878   */\n      mstore\n        /* \"#utility.yul\":25911:25915   */\n      0x20\n        /* \"#utility.yul\":25906:25909   */\n      dup3\n        /* \"#utility.yul\":25902:25916   */\n      add\n        /* \"#utility.yul\":25887:25916   */\n      swap1\n      pop\n        /* \"#utility.yul\":25754:25922   */\n      swap3\n      swap2\n      pop\n      pop\n      jump\t// out\n        /* \"#utility.yul\":25928:26288   */\n    tag_305:\n        /* \"#utility.yul\":26014:26017   */\n      0x00\n        /* \"#utility.yul\":26042:26080   */\n      tag_530\n        /* \"#utility.yul\":26074:26079   */\n      dup3\n        /* \"#utility.yul\":26042:26080   */\n      tag_303\n      jump\t// in\n    tag_530:\n        /* \"#utility.yul\":26096:26166   */\n      tag_531\n        /* \"#utility.yul\":26159:26165   */\n      dup2\n        /* \"#utility.yul\":26154:26157   */\n      dup6\n        /* \"#utility.yul\":26096:26166   */\n      tag_304\n      jump\t// in\n    tag_531:\n        /* \"#utility.yul\":26089:26166   */\n      swap4\n      pop\n        /* \"#utility.yul\":26175:26227   */\n      tag_532\n        /* \"#utility.yul\":26220:26226   */\n      dup2\n        /* \"#utility.yul\":26215:26218   */\n      dup6\n        /* \"#utility.yul\":26208:26212   */\n      0x20\n        /* \"#utility.yul\":26201:26206   */\n      dup7\n        /* \"#utility.yul\":26197:26213   */\n      add\n        /* \"#utility.yul\":26175:26227   */\n      tag_247\n      jump\t// in\n    tag_532:\n        /* \"#utility.yul\":26252:26281   */\n      tag_533\n        /* \"#utility.yul\":26274:26280   */\n      dup2\n        /* \"#utility.yul\":26252:26281   */\n      tag_248\n      jump\t// in\n    tag_533:\n        /* \"#utility.yul\":26247:26250   */\n      dup5\n        /* \"#utility.yul\":26243:26282   */\n      add\n        /* \"#utility.yul\":26236:26282   */\n      swap2\n      pop\n        /* \"#utility.yul\":26018:26288   */\n      pop\n        /* \"#utility.yul\":25928:26288   */\n      swap3\n      swap2\n      pop\n      pop\n      jump\t// out\n        /* \"#utility.yul\":26294:26934   */\n    tag_229:\n        /* \"#utility.yul\":26489:26493   */\n      0x00\n        /* \"#utility.yul\":26527:26530   */\n      0x80\n        /* \"#utility.yul\":26516:26525   */\n      dup3\n        /* \"#utility.yul\":26512:26531   */\n      add\n        /* \"#utility.yul\":26504:26531   */\n      swap1\n      pop\n        /* \"#utility.yul\":26541:26612   */\n      tag_535\n        /* \"#utility.yul\":26609:26610   */\n      0x00\n        /* \"#utility.yul\":26598:26607   */\n      dup4\n        /* \"#utility.yul\":26594:26611   */\n      add\n        /* \"#utility.yul\":26585:26591   */\n      dup8\n        /* \"#utility.yul\":26541:26612   */\n      tag_258\n      jump\t// in\n    tag_535:\n        /* \"#utility.yul\":26622:26694   */\n      tag_536\n        /* \"#utility.yul\":26690:26692   */\n      0x20\n        /* \"#utility.yul\":26679:26688   */\n      dup4\n        /* \"#utility.yul\":26675:26693   */\n      add\n        /* \"#utility.yul\":26666:26672   */\n      dup7\n        /* \"#utility.yul\":26622:26694   */\n      tag_258\n      jump\t// in\n    tag_536:\n        /* \"#utility.yul\":26704:26776   */\n      tag_537\n        /* \"#utility.yul\":26772:26774   */\n      0x40\n        /* \"#utility.yul\":26761:26770   */\n      dup4\n        /* \"#utility.yul\":26757:26775   */\n      add\n        /* \"#utility.yul\":26748:26754   */\n      dup6\n        /* \"#utility.yul\":26704:26776   */\n      tag_261\n      jump\t// in\n    tag_537:\n        /* \"#utility.yul\":26823:26832   */\n      dup2\n        /* \"#utility.yul\":26817:26821   */\n      dup2\n        /* \"#utility.yul\":26813:26833   */\n      sub\n        /* \"#utility.yul\":26808:26810   */\n      0x60\n        /* \"#utility.yul\":26797:26806   */\n      dup4\n        /* \"#utility.yul\":26793:26811   */\n      add\n        /* \"#utility.yul\":26786:26834   */\n      mstore\n        /* \"#utility.yul\":26851:26927   */\n      tag_538\n        /* \"#utility.yul\":26922:26926   */\n      dup2\n        /* \"#utility.yul\":26913:26919   */\n      dup5\n        /* \"#utility.yul\":26851:26927   */\n      tag_305\n      jump\t// in\n    tag_538:\n        /* \"#utility.yul\":26843:26927   */\n      swap1\n      pop\n        /* \"#utility.yul\":26294:26934   */\n      swap6\n      swap5\n      pop\n      pop\n      pop\n      pop\n      pop\n      jump\t// out\n        /* \"#utility.yul\":26940:27089   */\n    tag_306:\n        /* \"#utility.yul\":26976:26983   */\n      0x00\n        /* \"#utility.yul\":27016:27082   */\n      0xffffffff00000000000000000000000000000000000000000000000000000000\n        /* \"#utility.yul\":27009:27014   */\n      dup3\n        /* \"#utility.yul\":27005:27083   */\n      and\n        /* \"#utility.yul\":26994:27083   */\n      swap1\n      pop\n        /* \"#utility.yul\":26940:27089   */\n      swap2\n      swap1\n      pop\n      jump\t// out\n        /* \"#utility.yul\":27095:27215   */\n    tag_307:\n        /* \"#utility.yul\":27167:27190   */\n      tag_541\n        /* \"#utility.yul\":27184:27189   */\n      dup2\n        /* \"#utility.yul\":27167:27190   */\n      tag_306\n      jump\t// in\n    tag_541:\n        /* \"#utility.yul\":27160:27165   */\n      dup2\n        /* \"#utility.yul\":27157:27191   */\n      eq\n        /* \"#utility.yul\":27147:27209   */\n      tag_542\n      jumpi\n        /* \"#utility.yul\":27205:27206   */\n      0x00\n        /* \"#utility.yul\":27202:27203   */\n      dup1\n        /* \"#utility.yul\":27195:27207   */\n      revert\n        /* \"#utility.yul\":27147:27209   */\n    tag_542:\n        /* \"#utility.yul\":27095:27215   */\n      pop\n      jump\t// out\n        /* \"#utility.yul\":27221:27362   */\n    tag_308:\n        /* \"#utility.yul\":27277:27282   */\n      0x00\n        /* \"#utility.yul\":27308:27314   */\n      dup2\n        /* \"#utility.yul\":27302:27315   */\n      mload\n        /* \"#utility.yul\":27293:27315   */\n      swap1\n      pop\n        /* \"#utility.yul\":27324:27356   */\n      tag_544\n        /* \"#utility.yul\":27350:27355   */\n      dup2\n        /* \"#utility.yul\":27324:27356   */\n      tag_307\n      jump\t// in\n    tag_544:\n        /* \"#utility.yul\":27221:27362   */\n      swap3\n      swap2\n      pop\n      pop\n      jump\t// out\n        /* \"#utility.yul\":27368:27717   */\n    tag_232:\n        /* \"#utility.yul\":27437:27443   */\n      0x00\n        /* \"#utility.yul\":27486:27488   */\n      0x20\n        /* \"#utility.yul\":27474:27483   */\n      dup3\n        /* \"#utility.yul\":27465:27472   */\n      dup5\n        /* \"#utility.yul\":27461:27484   */\n      sub\n        /* \"#utility.yul\":27457:27489   */\n      slt\n        /* \"#utility.yul\":27454:27573   */\n      iszero\n      tag_546\n      jumpi\n        /* \"#utility.yul\":27492:27571   */\n      tag_547\n      tag_251\n      jump\t// in\n    tag_547:\n        /* \"#utility.yul\":27454:27573   */\n    tag_546:\n        /* \"#utility.yul\":27612:27613   */\n      0x00\n        /* \"#utility.yul\":27637:27700   */\n      tag_548\n        /* \"#utility.yul\":27692:27699   */\n      dup5\n        /* \"#utility.yul\":27683:27689   */\n      dup3\n        /* \"#utility.yul\":27672:27681   */\n      dup6\n        /* \"#utility.yul\":27668:27690   */\n      add\n        /* \"#utility.yul\":27637:27700   */\n      tag_308\n      jump\t// in\n    tag_548:\n        /* \"#utility.yul\":27627:27700   */\n      swap2\n      pop\n        /* \"#utility.yul\":27583:27710   */\n      pop\n        /* \"#utility.yul\":27368:27717   */\n      swap3\n      swap2\n      pop\n      pop\n      jump\t// out\n\n    auxdata: 0xa26469706673582212200e166e5ba16e9963cc048859b3072b1a8fa4a52ee925b26d40cef39eb69d7cd964736f6c634300080d0033\n}\n",
				"bytecode": {
					"linkReferences": {},
					"object": "60806040523480156200001157600080fd5b506040516200279b3803806200279b8339818101604052810190620000379190620003aa565b620000576200004b6200009160201b60201c565b6200009960201b60201c565b81600690805190602001906200006f9291906200015d565b508060079080519060200190620000889291906200015d565b50505062000493565b600033905090565b60008060009054906101000a900473ffffffffffffffffffffffffffffffffffffffff169050816000806101000a81548173ffffffffffffffffffffffffffffffffffffffff021916908373ffffffffffffffffffffffffffffffffffffffff1602179055508173ffffffffffffffffffffffffffffffffffffffff168173ffffffffffffffffffffffffffffffffffffffff167f8be0079c531659141344cd1fd0a4f28419497f9722a3daafe3b4186f6b6457e060405160405180910390a35050565b8280546200016b906200045e565b90600052602060002090601f0160209004810192826200018f5760008555620001db565b82601f10620001aa57805160ff1916838001178555620001db565b82800160010185558215620001db579182015b82811115620001da578251825591602001919060010190620001bd565b5b509050620001ea9190620001ee565b5090565b5b8082111562000209576000816000905550600101620001ef565b5090565b6000604051905090565b600080fd5b600080fd5b600080fd5b600080fd5b6000601f19601f8301169050919050565b7f4e487b7100000000000000000000000000000000000000000000000000000000600052604160045260246000fd5b62000276826200022b565b810181811067ffffffffffffffff821117156200029857620002976200023c565b5b80604052505050565b6000620002ad6200020d565b9050620002bb82826200026b565b919050565b600067ffffffffffffffff821115620002de57620002dd6200023c565b5b620002e9826200022b565b9050602081019050919050565b60005b8381101562000316578082015181840152602081019050620002f9565b8381111562000326576000848401525b50505050565b6000620003436200033d84620002c0565b620002a1565b90508281526020810184848401111562000362576200036162000226565b5b6200036f848285620002f6565b509392505050565b600082601f8301126200038f576200038e62000221565b5b8151620003a18482602086016200032c565b91505092915050565b60008060408385031215620003c457620003c362000217565b5b600083015167ffffffffffffffff811115620003e557620003e46200021c565b5b620003f38582860162000377565b925050602083015167ffffffffffffffff8111156200041757620004166200021c565b5b620004258582860162000377565b9150509250929050565b7f4e487b7100000000000000000000000000000000000000000000000000000000600052602260045260246000fd5b600060028204905060018216806200047757607f821691505b6020821081036200048d576200048c6200042f565b5b50919050565b6122f880620004a36000396000f3fe608060405234801561001057600080fd5b50600436106100cf5760003560e01c806370a082311161008c57806395d89b411161006657806395d89b41146101fe578063b88d4fde1461021c578063c87b56dd14610238578063f2fde38b14610268576100cf565b806370a08231146101a6578063715018a6146101d65780638da5cb5b146101e0576100cf565b806306fdde03146100d4578063081812fc146100f2578063095ea7b31461012257806323b872dd1461013e57806342842e0e1461015a5780636352211e14610176575b600080fd5b6100dc610284565b6040516100e991906113a8565b60405180910390f35b61010c60048036038101906101079190611414565b610316565b6040516101199190611482565b60405180910390f35b61013c600480360381019061013791906114c9565b61039b565b005b61015860048036038101906101539190611509565b61049a565b005b610174600480360381019061016f9190611509565b6104fa565b005b610190600480360381019061018b9190611414565b61051a565b60405161019d9190611482565b60405180910390f35b6101c060048036038101906101bb919061155c565b6105cb565b6040516101cd9190611598565b60405180910390f35b6101de610682565b005b6101e861070a565b6040516101f59190611482565b60405180910390f35b610206610733565b60405161021391906113a8565b60405180910390f35b610236600480360381019061023191906116e8565b6107c5565b005b610252600480360381019061024d9190611414565b610827565b60405161025f91906113a8565b60405180910390f35b610282600480360381019061027d919061155c565b6108ce565b005b6060600680546102939061179a565b80601f01602080910402602001604051908101604052809291908181526020018280546102bf9061179a565b801561030c5780601f106102e15761010080835404028352916020019161030c565b820191906000526020600020905b8154815290600101906020018083116102ef57829003601f168201915b5050505050905090565b6000610321826109c5565b610360576040517f08c379a00000000000000000000000000000000000000000000000000000000081526004016103579061183d565b60405180910390fd5b6004600083815260200190815260200160002060009054906101000a900473ffffffffffffffffffffffffffffffffffffffff169050919050565b60006103a68261051a565b90508073ffffffffffffffffffffffffffffffffffffffff168373ffffffffffffffffffffffffffffffffffffffff1603610416576040517f08c379a000000000000000000000000000000000000000000000000000000000815260040161040d906118cf565b60405180910390fd5b8073ffffffffffffffffffffffffffffffffffffffff16610435610a31565b73ffffffffffffffffffffffffffffffffffffffff161461048b576040517f08c379a000000000000000000000000000000000000000000000000000000000815260040161048290611961565b60405180910390fd5b6104958383610a39565b505050565b6104ab6104a5610a31565b82610af2565b6104ea576040517f08c379a00000000000000000000000000000000000000000000000000000000081526004016104e1906119f3565b60405180910390fd5b6104f5838383610bbf565b505050565b610515838383604051806020016040528060008152506107c5565b505050565b6000806002600084815260200190815260200160002060009054906101000a900473ffffffffffffffffffffffffffffffffffffffff169050600073ffffffffffffffffffffffffffffffffffffffff168173ffffffffffffffffffffffffffffffffffffffff16036105c2576040517f08c379a00000000000000000000000000000000000000000000000000000000081526004016105b990611a85565b60405180910390fd5b80915050919050565b60008073ffffffffffffffffffffffffffffffffffffffff168273ffffffffffffffffffffffffffffffffffffffff160361063b576040517f08c379a000000000000000000000000000000000000000000000000000000000815260040161063290611b17565b60405180910390fd5b600160008373ffffffffffffffffffffffffffffffffffffffff1673ffffffffffffffffffffffffffffffffffffffff168152602001908152602001600020549050919050565b61068a610a31565b73ffffffffffffffffffffffffffffffffffffffff166106a861070a565b73ffffffffffffffffffffffffffffffffffffffff16146106fe576040517f08c379a00000000000000000000000000000000000000000000000000000000081526004016106f590611b83565b60405180910390fd5b6107086000610e23565b565b60008060009054906101000a900473ffffffffffffffffffffffffffffffffffffffff16905090565b6060600780546107429061179a565b80601f016020809104026020016040519081016040528092919081815260200182805461076e9061179a565b80156107bb5780601f10610790576101008083540402835291602001916107bb565b820191906000526020600020905b81548152906001019060200180831161079e57829003601f168201915b5050505050905090565b6107d66107d0610a31565b83610af2565b610815576040517f08c379a000000000000000000000000000000000000000000000000000000000815260040161080c906119f3565b60405180910390fd5b61082184848484610ee7565b50505050565b6060610832826109c5565b610871576040517f08c379a000000000000000000000000000000000000000000000000000000000815260040161086890611c15565b60405180910390fd5b600061087b610f43565b9050600081511161089b57604051806020016040528060008152506108c6565b806108a584610f5a565b6040516020016108b6929190611c71565b6040516020818303038152906040525b915050919050565b6108d6610a31565b73ffffffffffffffffffffffffffffffffffffffff166108f461070a565b73ffffffffffffffffffffffffffffffffffffffff161461094a576040517f08c379a000000000000000000000000000000000000000000000000000000000815260040161094190611b83565b60405180910390fd5b600073ffffffffffffffffffffffffffffffffffffffff168173ffffffffffffffffffffffffffffffffffffffff16036109b9576040517f08c379a00000000000000000000000000000000000000000000000000000000081526004016109b090611d07565b60405180910390fd5b6109c281610e23565b50565b60008073ffffffffffffffffffffffffffffffffffffffff166002600084815260200190815260200160002060009054906101000a900473ffffffffffffffffffffffffffffffffffffffff1673ffffffffffffffffffffffffffffffffffffffff1614159050919050565b600033905090565b816004600083815260200190815260200160002060006101000a81548173ffffffffffffffffffffffffffffffffffffffff021916908373ffffffffffffffffffffffffffffffffffffffff160217905550808273ffffffffffffffffffffffffffffffffffffffff16610aac8361051a565b73ffffffffffffffffffffffffffffffffffffffff167f8c5be1e5ebec7d5bd14f71427d1e84f3dd0314c0f7b2291e5b200ac8c7c3b92560405160405180910390a45050565b6000610afd826109c5565b610b3c576040517f08c379a0000000000000000000000000000000000000000000000000000000008152600401610b3390611d99565b60405180910390fd5b6000610b478361051a565b90508073ffffffffffffffffffffffffffffffffffffffff168473ffffffffffffffffffffffffffffffffffffffff161480610bb657508373ffffffffffffffffffffffffffffffffffffffff16610b9e84610316565b73ffffffffffffffffffffffffffffffffffffffff16145b91505092915050565b8273ffffffffffffffffffffffffffffffffffffffff16610bdf8261051a565b73ffffffffffffffffffffffffffffffffffffffff1614610c35576040517f08c379a0000000000000000000000000000000000000000000000000000000008152600401610c2c90611e2b565b60405180910390fd5b600073ffffffffffffffffffffffffffffffffffffffff168273ffffffffffffffffffffffffffffffffffffffff1603610ca4576040517f08c379a0000000000000000000000000000000000000000000000000000000008152600401610c9b90611ebd565b60405180910390fd5b610caf8383836110ba565b610cba600082610a39565b60018060008573ffffffffffffffffffffffffffffffffffffffff1673ffffffffffffffffffffffffffffffffffffffff1681526020019081526020016000206000828254610d099190611f0c565b9250508190555060018060008473ffffffffffffffffffffffffffffffffffffffff1673ffffffffffffffffffffffffffffffffffffffff1681526020019081526020016000206000828254610d5f9190611f40565b92505081905550816002600083815260200190815260200160002060006101000a81548173ffffffffffffffffffffffffffffffffffffffff021916908373ffffffffffffffffffffffffffffffffffffffff160217905550808273ffffffffffffffffffffffffffffffffffffffff168473ffffffffffffffffffffffffffffffffffffffff167fddf252ad1be2c89b69c2b068fc378daa952ba7f163c4a11628f55a4df523b3ef60405160405180910390a4610e1e838383611160565b505050565b60008060009054906101000a900473ffffffffffffffffffffffffffffffffffffffff169050816000806101000a81548173ffffffffffffffffffffffffffffffffffffffff021916908373ffffffffffffffffffffffffffffffffffffffff1602179055508173ffffffffffffffffffffffffffffffffffffffff168173ffffffffffffffffffffffffffffffffffffffff167f8be0079c531659141344cd1fd0a4f28419497f9722a3daafe3b4186f6b6457e060405160405180910390a35050565b610ef2848484610bbf565b610efe84848484611165565b610f3d576040517f08c379a0000000000000000000000000000000000000000000000000000000008152600401610f3490612008565b60405180910390fd5b50505050565b606060405180602001604052806000815250905090565b606060008203610fa1576040518060400160405280600181526020017f300000000000000000000000000000000000000000000000000000000000000081525090506110b5565b600082905060005b60008214610fd3578080610fbc90612028565b915050600a82610fcc919061209f565b9150610fa9565b60008167ffffffffffffffff811115610fef57610fee6115bd565b5b6040519080825280601f01601f1916602001820160405280156110215781602001600182028036833780820191505090505b5090505b600085146110ae5760018261103a9190611f0c565b9150600a8561104991906120d0565b60306110559190611f40565b60f81b81838151811061106b5761106a612101565b5b60200101907effffffffffffffffffffffffffffffffffffffffffffffffffffffffffffff1916908160001a905350600a856110a7919061209f565b9450611025565b8093505050505b919050565b8273ffffffffffffffffffffffffffffffffffffffff166002600083815260200190815260200160002060009054906101000a900473ffffffffffffffffffffffffffffffffffffffff1673ffffffffffffffffffffffffffffffffffffffff161461115b576040517f08c379a00000000000000000000000000000000000000000000000000000000081526004016111529061217c565b60405180910390fd5b505050565b505050565b60006111868473ffffffffffffffffffffffffffffffffffffffff166112ec565b156112df578373ffffffffffffffffffffffffffffffffffffffff1663150b7a026111af610a31565b8786866040518563ffffffff1660e01b81526004016111d194939291906121f1565b6020604051808303816000875af192505050801561120d57506040513d601f19601f8201168201806040525081019061120a9190612295565b60015b61128f573d806000811461123d576040519150601f19603f3d011682016040523d82523d6000602084013e611242565b606091505b506000815103611287576040517f08c379a000000000000000000000000000000000000000000000000000000000815260040161127e90612008565b60405180910390fd5b805181602001fd5b63150b7a0260e01b7bffffffffffffffffffffffffffffffffffffffffffffffffffffffff1916817bffffffffffffffffffffffffffffffffffffffffffffffffffffffff1916149150506112e4565b600190505b949350505050565b6000808273ffffffffffffffffffffffffffffffffffffffff163b119050919050565b600081519050919050565b600082825260208201905092915050565b60005b8381101561134957808201518184015260208101905061132e565b83811115611358576000848401525b50505050565b6000601f19601f8301169050919050565b600061137a8261130f565b611384818561131a565b935061139481856020860161132b565b61139d8161135e565b840191505092915050565b600060208201905081810360008301526113c2818461136f565b905092915050565b6000604051905090565b600080fd5b600080fd5b6000819050919050565b6113f1816113de565b81146113fc57600080fd5b50565b60008135905061140e816113e8565b92915050565b60006020828403121561142a576114296113d4565b5b6000611438848285016113ff565b91505092915050565b600073ffffffffffffffffffffffffffffffffffffffff82169050919050565b600061146c82611441565b9050919050565b61147c81611461565b82525050565b60006020820190506114976000830184611473565b92915050565b6114a681611461565b81146114b157600080fd5b50565b6000813590506114c38161149d565b92915050565b600080604083850312156114e0576114df6113d4565b5b60006114ee858286016114b4565b92505060206114ff858286016113ff565b9150509250929050565b600080600060608486031215611522576115216113d4565b5b6000611530868287016114b4565b9350506020611541868287016114b4565b9250506040611552868287016113ff565b9150509250925092565b600060208284031215611572576115716113d4565b5b6000611580848285016114b4565b91505092915050565b611592816113de565b82525050565b60006020820190506115ad6000830184611589565b92915050565b600080fd5b600080fd5b7f4e487b7100000000000000000000000000000000000000000000000000000000600052604160045260246000fd5b6115f58261135e565b810181811067ffffffffffffffff82111715611614576116136115bd565b5b80604052505050565b60006116276113ca565b905061163382826115ec565b919050565b600067ffffffffffffffff821115611653576116526115bd565b5b61165c8261135e565b9050602081019050919050565b82818337600083830152505050565b600061168b61168684611638565b61161d565b9050828152602081018484840111156116a7576116a66115b8565b5b6116b2848285611669565b509392505050565b600082601f8301126116cf576116ce6115b3565b5b81356116df848260208601611678565b91505092915050565b60008060008060808587031215611702576117016113d4565b5b6000611710878288016114b4565b9450506020611721878288016114b4565b9350506040611732878288016113ff565b925050606085013567ffffffffffffffff811115611753576117526113d9565b5b61175f878288016116ba565b91505092959194509250565b7f4e487b7100000000000000000000000000000000000000000000000000000000600052602260045260246000fd5b600060028204905060018216806117b257607f821691505b6020821081036117c5576117c461176b565b5b50919050565b7f4552433732313a20617070726f76656420717565727920666f72206e6f6e657860008201527f697374656e7420746f6b656e0000000000000000000000000000000000000000602082015250565b6000611827602c8361131a565b9150611832826117cb565b604082019050919050565b600060208201905081810360008301526118568161181a565b9050919050565b7f4552433732313a20617070726f76616c20746f2063757272656e74206f776e6560008201527f7200000000000000000000000000000000000000000000000000000000000000602082015250565b60006118b960218361131a565b91506118c48261185d565b604082019050919050565b600060208201905081810360008301526118e8816118ac565b9050919050565b7f4552433732313a20617070726f76652063616c6c6572206973206e6f74206f7760008201527f6e6572206e6f7220617070726f76656420666f7220616c6c0000000000000000602082015250565b600061194b60388361131a565b9150611956826118ef565b604082019050919050565b6000602082019050818103600083015261197a8161193e565b9050919050565b7f4552433732313a207472616e736665722063616c6c6572206973206e6f74206f60008201527f776e6572206e6f7220617070726f766564000000000000000000000000000000602082015250565b60006119dd60318361131a565b91506119e882611981565b604082019050919050565b60006020820190508181036000830152611a0c816119d0565b9050919050565b7f4552433732313a206f776e657220717565727920666f72206e6f6e657869737460008201527f656e7420746f6b656e0000000000000000000000000000000000000000000000602082015250565b6000611a6f60298361131a565b9150611a7a82611a13565b604082019050919050565b60006020820190508181036000830152611a9e81611a62565b9050919050565b7f4552433732313a2062616c616e636520717565727920666f7220746865207a6560008201527f726f206164647265737300000000000000000000000000000000000000000000602082015250565b6000611b01602a8361131a565b9150611b0c82611aa5565b604082019050919050565b60006020820190508181036000830152611b3081611af4565b9050919050565b7f4f776e61626c653a2063616c6c6572206973206e6f7420746865206f776e6572600082015250565b6000611b6d60208361131a565b9150611b7882611b37565b602082019050919050565b60006020820190508181036000830152611b9c81611b60565b9050919050565b7f4552433732314d657461646174613a2055524920717565727920666f72206e6f60008201527f6e6578697374656e7420746f6b656e0000000000000000000000000000000000602082015250565b6000611bff602f8361131a565b9150611c0a82611ba3565b604082019050919050565b60006020820190508181036000830152611c2e81611bf2565b9050919050565b600081905092915050565b6000611c4b8261130f565b611c558185611c35565b9350611c6581856020860161132b565b80840191505092915050565b6000611c7d8285611c40565b9150611c898284611c40565b91508190509392505050565b7f4f776e61626c653a206e6577206f776e657220697320746865207a65726f206160008201527f6464726573730000000000000000000000000000000000000000000000000000602082015250565b6000611cf160268361131a565b9150611cfc82611c95565b604082019050919050565b60006020820190508181036000830152611d2081611ce4565b9050919050565b7f4552433732313a206f70657261746f7220717565727920666f72206e6f6e657860008201527f697374656e7420746f6b656e0000000000000000000000000000000000000000602082015250565b6000611d83602c8361131a565b9150611d8e82611d27565b604082019050919050565b60006020820190508181036000830152611db281611d76565b9050919050565b7f4552433732313a207472616e736665722066726f6d20696e636f72726563742060008201527f6f776e6572000000000000000000000000000000000000000000000000000000602082015250565b6000611e1560258361131a565b9150611e2082611db9565b604082019050919050565b60006020820190508181036000830152611e4481611e08565b9050919050565b7f4552433732313a207472616e7366657220746f20746865207a65726f2061646460008201527f7265737300000000000000000000000000000000000000000000000000000000602082015250565b6000611ea760248361131a565b9150611eb282611e4b565b604082019050919050565b60006020820190508181036000830152611ed681611e9a565b9050919050565b7f4e487b7100000000000000000000000000000000000000000000000000000000600052601160045260246000fd5b6000611f17826113de565b9150611f22836113de565b925082821015611f3557611f34611edd565b5b828203905092915050565b6000611f4b826113de565b9150611f56836113de565b9250827fffffffffffffffffffffffffffffffffffffffffffffffffffffffffffffffff03821115611f8b57611f8a611edd565b5b828201905092915050565b7f4552433732313a207472616e7366657220746f206e6f6e20455243373231526560008201527f63656976657220696d706c656d656e7465720000000000000000000000000000602082015250565b6000611ff260328361131a565b9150611ffd82611f96565b604082019050919050565b6000602082019050818103600083015261202181611fe5565b9050919050565b6000612033826113de565b91507fffffffffffffffffffffffffffffffffffffffffffffffffffffffffffffffff820361206557612064611edd565b5b600182019050919050565b7f4e487b7100000000000000000000000000000000000000000000000000000000600052601260045260246000fd5b60006120aa826113de565b91506120b5836113de565b9250826120c5576120c4612070565b5b828204905092915050565b60006120db826113de565b91506120e6836113de565b9250826120f6576120f5612070565b5b828206905092915050565b7f4e487b7100000000000000000000000000000000000000000000000000000000600052603260045260246000fd5b7f4552433732313a207472616e73666572206e6f74206f776e657220746f6b656e600082015250565b600061216660208361131a565b915061217182612130565b602082019050919050565b6000602082019050818103600083015261219581612159565b9050919050565b600081519050919050565b600082825260208201905092915050565b60006121c38261219c565b6121cd81856121a7565b93506121dd81856020860161132b565b6121e68161135e565b840191505092915050565b60006080820190506122066000830187611473565b6122136020830186611473565b6122206040830185611589565b818103606083015261223281846121b8565b905095945050505050565b60007fffffffff0000000000000000000000000000000000000000000000000000000082169050919050565b6122728161223d565b811461227d57600080fd5b50565b60008151905061228f81612269565b92915050565b6000602082840312156122ab576122aa6113d4565b5b60006122b984828501612280565b9150509291505056fea26469706673582212200e166e5ba16e9963cc048859b3072b1a8fa4a52ee925b26d40cef39eb69d7cd964736f6c634300080d0033",
					"opcodes": "PUSH1 0x80 PUSH1 0x40 MSTORE CALLVALUE DUP1 ISZERO PUSH3 0x11 JUMPI PUSH1 0x0 DUP1 REVERT JUMPDEST POP PUSH1 0x40 MLOAD PUSH3 0x279B CODESIZE SUB DUP1 PUSH3 0x279B DUP4 CODECOPY DUP2 DUP2 ADD PUSH1 0x40 MSTORE DUP2 ADD SWAP1 PUSH3 0x37 SWAP2 SWAP1 PUSH3 0x3AA JUMP JUMPDEST PUSH3 0x57 PUSH3 0x4B PUSH3 0x91 PUSH1 0x20 SHL PUSH1 0x20 SHR JUMP JUMPDEST PUSH3 0x99 PUSH1 0x20 SHL PUSH1 0x20 SHR JUMP JUMPDEST DUP2 PUSH1 0x6 SWAP1 DUP1 MLOAD SWAP1 PUSH1 0x20 ADD SWAP1 PUSH3 0x6F SWAP3 SWAP2 SWAP1 PUSH3 0x15D JUMP JUMPDEST POP DUP1 PUSH1 0x7 SWAP1 DUP1 MLOAD SWAP1 PUSH1 0x20 ADD SWAP1 PUSH3 0x88 SWAP3 SWAP2 SWAP1 PUSH3 0x15D JUMP JUMPDEST POP POP POP PUSH3 0x493 JUMP JUMPDEST PUSH1 0x0 CALLER SWAP1 POP SWAP1 JUMP JUMPDEST PUSH1 0x0 DUP1 PUSH1 0x0 SWAP1 SLOAD SWAP1 PUSH2 0x100 EXP SWAP1 DIV PUSH20 0xFFFFFFFFFFFFFFFFFFFFFFFFFFFFFFFFFFFFFFFF AND SWAP1 POP DUP2 PUSH1 0x0 DUP1 PUSH2 0x100 EXP DUP2 SLOAD DUP2 PUSH20 0xFFFFFFFFFFFFFFFFFFFFFFFFFFFFFFFFFFFFFFFF MUL NOT AND SWAP1 DUP4 PUSH20 0xFFFFFFFFFFFFFFFFFFFFFFFFFFFFFFFFFFFFFFFF AND MUL OR SWAP1 SSTORE POP DUP2 PUSH20 0xFFFFFFFFFFFFFFFFFFFFFFFFFFFFFFFFFFFFFFFF AND DUP2 PUSH20 0xFFFFFFFFFFFFFFFFFFFFFFFFFFFFFFFFFFFFFFFF AND PUSH32 0x8BE0079C531659141344CD1FD0A4F28419497F9722A3DAAFE3B4186F6B6457E0 PUSH1 0x40 MLOAD PUSH1 0x40 MLOAD DUP1 SWAP2 SUB SWAP1 LOG3 POP POP JUMP JUMPDEST DUP3 DUP1 SLOAD PUSH3 0x16B SWAP1 PUSH3 0x45E JUMP JUMPDEST SWAP1 PUSH1 0x0 MSTORE PUSH1 0x20 PUSH1 0x0 KECCAK256 SWAP1 PUSH1 0x1F ADD PUSH1 0x20 SWAP1 DIV DUP2 ADD SWAP3 DUP3 PUSH3 0x18F JUMPI PUSH1 0x0 DUP6 SSTORE PUSH3 0x1DB JUMP JUMPDEST DUP3 PUSH1 0x1F LT PUSH3 0x1AA JUMPI DUP1 MLOAD PUSH1 0xFF NOT AND DUP4 DUP1 ADD OR DUP6 SSTORE PUSH3 0x1DB JUMP JUMPDEST DUP3 DUP1 ADD PUSH1 0x1 ADD DUP6 SSTORE DUP3 ISZERO PUSH3 0x1DB JUMPI SWAP2 DUP3 ADD JUMPDEST DUP3 DUP2 GT ISZERO PUSH3 0x1DA JUMPI DUP3 MLOAD DUP3 SSTORE SWAP2 PUSH1 0x20 ADD SWAP2 SWAP1 PUSH1 0x1 ADD SWAP1 PUSH3 0x1BD JUMP JUMPDEST JUMPDEST POP SWAP1 POP PUSH3 0x1EA SWAP2 SWAP1 PUSH3 0x1EE JUMP JUMPDEST POP SWAP1 JUMP JUMPDEST JUMPDEST DUP1 DUP3 GT ISZERO PUSH3 0x209 JUMPI PUSH1 0x0 DUP2 PUSH1 0x0 SWAP1 SSTORE POP PUSH1 0x1 ADD PUSH3 0x1EF JUMP JUMPDEST POP SWAP1 JUMP JUMPDEST PUSH1 0x0 PUSH1 0x40 MLOAD SWAP1 POP SWAP1 JUMP JUMPDEST PUSH1 0x0 DUP1 REVERT JUMPDEST PUSH1 0x0 DUP1 REVERT JUMPDEST PUSH1 0x0 DUP1 REVERT JUMPDEST PUSH1 0x0 DUP1 REVERT JUMPDEST PUSH1 0x0 PUSH1 0x1F NOT PUSH1 0x1F DUP4 ADD AND SWAP1 POP SWAP2 SWAP1 POP JUMP JUMPDEST PUSH32 0x4E487B7100000000000000000000000000000000000000000000000000000000 PUSH1 0x0 MSTORE PUSH1 0x41 PUSH1 0x4 MSTORE PUSH1 0x24 PUSH1 0x0 REVERT JUMPDEST PUSH3 0x276 DUP3 PUSH3 0x22B JUMP JUMPDEST DUP2 ADD DUP2 DUP2 LT PUSH8 0xFFFFFFFFFFFFFFFF DUP3 GT OR ISZERO PUSH3 0x298 JUMPI PUSH3 0x297 PUSH3 0x23C JUMP JUMPDEST JUMPDEST DUP1 PUSH1 0x40 MSTORE POP POP POP JUMP JUMPDEST PUSH1 0x0 PUSH3 0x2AD PUSH3 0x20D JUMP JUMPDEST SWAP1 POP PUSH3 0x2BB DUP3 DUP3 PUSH3 0x26B JUMP JUMPDEST SWAP2 SWAP1 POP JUMP JUMPDEST PUSH1 0x0 PUSH8 0xFFFFFFFFFFFFFFFF DUP3 GT ISZERO PUSH3 0x2DE JUMPI PUSH3 0x2DD PUSH3 0x23C JUMP JUMPDEST JUMPDEST PUSH3 0x2E9 DUP3 PUSH3 0x22B JUMP JUMPDEST SWAP1 POP PUSH1 0x20 DUP2 ADD SWAP1 POP SWAP2 SWAP1 POP JUMP JUMPDEST PUSH1 0x0 JUMPDEST DUP4 DUP2 LT ISZERO PUSH3 0x316 JUMPI DUP1 DUP3 ADD MLOAD DUP2 DUP5 ADD MSTORE PUSH1 0x20 DUP2 ADD SWAP1 POP PUSH3 0x2F9 JUMP JUMPDEST DUP4 DUP2 GT ISZERO PUSH3 0x326 JUMPI PUSH1 0x0 DUP5 DUP5 ADD MSTORE JUMPDEST POP POP POP POP JUMP JUMPDEST PUSH1 0x0 PUSH3 0x343 PUSH3 0x33D DUP5 PUSH3 0x2C0 JUMP JUMPDEST PUSH3 0x2A1 JUMP JUMPDEST SWAP1 POP DUP3 DUP2 MSTORE PUSH1 0x20 DUP2 ADD DUP5 DUP5 DUP5 ADD GT ISZERO PUSH3 0x362 JUMPI PUSH3 0x361 PUSH3 0x226 JUMP JUMPDEST JUMPDEST PUSH3 0x36F DUP5 DUP3 DUP6 PUSH3 0x2F6 JUMP JUMPDEST POP SWAP4 SWAP3 POP POP POP JUMP JUMPDEST PUSH1 0x0 DUP3 PUSH1 0x1F DUP4 ADD SLT PUSH3 0x38F JUMPI PUSH3 0x38E PUSH3 0x221 JUMP JUMPDEST JUMPDEST DUP2 MLOAD PUSH3 0x3A1 DUP5 DUP3 PUSH1 0x20 DUP7 ADD PUSH3 0x32C JUMP JUMPDEST SWAP2 POP POP SWAP3 SWAP2 POP POP JUMP JUMPDEST PUSH1 0x0 DUP1 PUSH1 0x40 DUP4 DUP6 SUB SLT ISZERO PUSH3 0x3C4 JUMPI PUSH3 0x3C3 PUSH3 0x217 JUMP JUMPDEST JUMPDEST PUSH1 0x0 DUP4 ADD MLOAD PUSH8 0xFFFFFFFFFFFFFFFF DUP2 GT ISZERO PUSH3 0x3E5 JUMPI PUSH3 0x3E4 PUSH3 0x21C JUMP JUMPDEST JUMPDEST PUSH3 0x3F3 DUP6 DUP3 DUP7 ADD PUSH3 0x377 JUMP JUMPDEST SWAP3 POP POP PUSH1 0x20 DUP4 ADD MLOAD PUSH8 0xFFFFFFFFFFFFFFFF DUP2 GT ISZERO PUSH3 0x417 JUMPI PUSH3 0x416 PUSH3 0x21C JUMP JUMPDEST JUMPDEST PUSH3 0x425 DUP6 DUP3 DUP7 ADD PUSH3 0x377 JUMP JUMPDEST SWAP2 POP POP SWAP3 POP SWAP3 SWAP1 POP JUMP JUMPDEST PUSH32 0x4E487B7100000000000000000000000000000000000000000000000000000000 PUSH1 0x0 MSTORE PUSH1 0x22 PUSH1 0x4 MSTORE PUSH1 0x24 PUSH1 0x0 REVERT JUMPDEST PUSH1 0x0 PUSH1 0x2 DUP3 DIV SWAP1 POP PUSH1 0x1 DUP3 AND DUP1 PUSH3 0x477 JUMPI PUSH1 0x7F DUP3 AND SWAP2 POP JUMPDEST PUSH1 0x20 DUP3 LT DUP2 SUB PUSH3 0x48D JUMPI PUSH3 0x48C PUSH3 0x42F JUMP JUMPDEST JUMPDEST POP SWAP2 SWAP1 POP JUMP JUMPDEST PUSH2 0x22F8 DUP1 PUSH3 0x4A3 PUSH1 0x0 CODECOPY PUSH1 0x0 RETURN INVALID PUSH1 0x80 PUSH1 0x40 MSTORE CALLVALUE DUP1 ISZERO PUSH2 0x10 JUMPI PUSH1 0x0 DUP1 REVERT JUMPDEST POP PUSH1 0x4 CALLDATASIZE LT PUSH2 0xCF JUMPI PUSH1 0x0 CALLDATALOAD PUSH1 0xE0 SHR DUP1 PUSH4 0x70A08231 GT PUSH2 0x8C JUMPI DUP1 PUSH4 0x95D89B41 GT PUSH2 0x66 JUMPI DUP1 PUSH4 0x95D89B41 EQ PUSH2 0x1FE JUMPI DUP1 PUSH4 0xB88D4FDE EQ PUSH2 0x21C JUMPI DUP1 PUSH4 0xC87B56DD EQ PUSH2 0x238 JUMPI DUP1 PUSH4 0xF2FDE38B EQ PUSH2 0x268 JUMPI PUSH2 0xCF JUMP JUMPDEST DUP1 PUSH4 0x70A08231 EQ PUSH2 0x1A6 JUMPI DUP1 PUSH4 0x715018A6 EQ PUSH2 0x1D6 JUMPI DUP1 PUSH4 0x8DA5CB5B EQ PUSH2 0x1E0 JUMPI PUSH2 0xCF JUMP JUMPDEST DUP1 PUSH4 0x6FDDE03 EQ PUSH2 0xD4 JUMPI DUP1 PUSH4 0x81812FC EQ PUSH2 0xF2 JUMPI DUP1 PUSH4 0x95EA7B3 EQ PUSH2 0x122 JUMPI DUP1 PUSH4 0x23B872DD EQ PUSH2 0x13E JUMPI DUP1 PUSH4 0x42842E0E EQ PUSH2 0x15A JUMPI DUP1 PUSH4 0x6352211E EQ PUSH2 0x176 JUMPI JUMPDEST PUSH1 0x0 DUP1 REVERT JUMPDEST PUSH2 0xDC PUSH2 0x284 JUMP JUMPDEST PUSH1 0x40 MLOAD PUSH2 0xE9 SWAP2 SWAP1 PUSH2 0x13A8 JUMP JUMPDEST PUSH1 0x40 MLOAD DUP1 SWAP2 SUB SWAP1 RETURN JUMPDEST PUSH2 0x10C PUSH1 0x4 DUP1 CALLDATASIZE SUB DUP2 ADD SWAP1 PUSH2 0x107 SWAP2 SWAP1 PUSH2 0x1414 JUMP JUMPDEST PUSH2 0x316 JUMP JUMPDEST PUSH1 0x40 MLOAD PUSH2 0x119 SWAP2 SWAP1 PUSH2 0x1482 JUMP JUMPDEST PUSH1 0x40 MLOAD DUP1 SWAP2 SUB SWAP1 RETURN JUMPDEST PUSH2 0x13C PUSH1 0x4 DUP1 CALLDATASIZE SUB DUP2 ADD SWAP1 PUSH2 0x137 SWAP2 SWAP1 PUSH2 0x14C9 JUMP JUMPDEST PUSH2 0x39B JUMP JUMPDEST STOP JUMPDEST PUSH2 0x158 PUSH1 0x4 DUP1 CALLDATASIZE SUB DUP2 ADD SWAP1 PUSH2 0x153 SWAP2 SWAP1 PUSH2 0x1509 JUMP JUMPDEST PUSH2 0x49A JUMP JUMPDEST STOP JUMPDEST PUSH2 0x174 PUSH1 0x4 DUP1 CALLDATASIZE SUB DUP2 ADD SWAP1 PUSH2 0x16F SWAP2 SWAP1 PUSH2 0x1509 JUMP JUMPDEST PUSH2 0x4FA JUMP JUMPDEST STOP JUMPDEST PUSH2 0x190 PUSH1 0x4 DUP1 CALLDATASIZE SUB DUP2 ADD SWAP1 PUSH2 0x18B SWAP2 SWAP1 PUSH2 0x1414 JUMP JUMPDEST PUSH2 0x51A JUMP JUMPDEST PUSH1 0x40 MLOAD PUSH2 0x19D SWAP2 SWAP1 PUSH2 0x1482 JUMP JUMPDEST PUSH1 0x40 MLOAD DUP1 SWAP2 SUB SWAP1 RETURN JUMPDEST PUSH2 0x1C0 PUSH1 0x4 DUP1 CALLDATASIZE SUB DUP2 ADD SWAP1 PUSH2 0x1BB SWAP2 SWAP1 PUSH2 0x155C JUMP JUMPDEST PUSH2 0x5CB JUMP JUMPDEST PUSH1 0x40 MLOAD PUSH2 0x1CD SWAP2 SWAP1 PUSH2 0x1598 JUMP JUMPDEST PUSH1 0x40 MLOAD DUP1 SWAP2 SUB SWAP1 RETURN JUMPDEST PUSH2 0x1DE PUSH2 0x682 JUMP JUMPDEST STOP JUMPDEST PUSH2 0x1E8 PUSH2 0x70A JUMP JUMPDEST PUSH1 0x40 MLOAD PUSH2 0x1F5 SWAP2 SWAP1 PUSH2 0x1482 JUMP JUMPDEST PUSH1 0x40 MLOAD DUP1 SWAP2 SUB SWAP1 RETURN JUMPDEST PUSH2 0x206 PUSH2 0x733 JUMP JUMPDEST PUSH1 0x40 MLOAD PUSH2 0x213 SWAP2 SWAP1 PUSH2 0x13A8 JUMP JUMPDEST PUSH1 0x40 MLOAD DUP1 SWAP2 SUB SWAP1 RETURN JUMPDEST PUSH2 0x236 PUSH1 0x4 DUP1 CALLDATASIZE SUB DUP2 ADD SWAP1 PUSH2 0x231 SWAP2 SWAP1 PUSH2 0x16E8 JUMP JUMPDEST PUSH2 0x7C5 JUMP JUMPDEST STOP JUMPDEST PUSH2 0x252 PUSH1 0x4 DUP1 CALLDATASIZE SUB DUP2 ADD SWAP1 PUSH2 0x24D SWAP2 SWAP1 PUSH2 0x1414 JUMP JUMPDEST PUSH2 0x827 JUMP JUMPDEST PUSH1 0x40 MLOAD PUSH2 0x25F SWAP2 SWAP1 PUSH2 0x13A8 JUMP JUMPDEST PUSH1 0x40 MLOAD DUP1 SWAP2 SUB SWAP1 RETURN JUMPDEST PUSH2 0x282 PUSH1 0x4 DUP1 CALLDATASIZE SUB DUP2 ADD SWAP1 PUSH2 0x27D SWAP2 SWAP1 PUSH2 0x155C JUMP JUMPDEST PUSH2 0x8CE JUMP JUMPDEST STOP JUMPDEST PUSH1 0x60 PUSH1 0x6 DUP1 SLOAD PUSH2 0x293 SWAP1 PUSH2 0x179A JUMP JUMPDEST DUP1 PUSH1 0x1F ADD PUSH1 0x20 DUP1 SWAP2 DIV MUL PUSH1 0x20 ADD PUSH1 0x40 MLOAD SWAP1 DUP2 ADD PUSH1 0x40 MSTORE DUP1 SWAP3 SWAP2 SWAP1 DUP2 DUP2 MSTORE PUSH1 0x20 ADD DUP3 DUP1 SLOAD PUSH2 0x2BF SWAP1 PUSH2 0x179A JUMP JUMPDEST DUP1 ISZERO PUSH2 0x30C JUMPI DUP1 PUSH1 0x1F LT PUSH2 0x2E1 JUMPI PUSH2 0x100 DUP1 DUP4 SLOAD DIV MUL DUP4 MSTORE SWAP2 PUSH1 0x20 ADD SWAP2 PUSH2 0x30C JUMP JUMPDEST DUP3 ADD SWAP2 SWAP1 PUSH1 0x0 MSTORE PUSH1 0x20 PUSH1 0x0 KECCAK256 SWAP1 JUMPDEST DUP2 SLOAD DUP2 MSTORE SWAP1 PUSH1 0x1 ADD SWAP1 PUSH1 0x20 ADD DUP1 DUP4 GT PUSH2 0x2EF JUMPI DUP3 SWAP1 SUB PUSH1 0x1F AND DUP3 ADD SWAP2 JUMPDEST POP POP POP POP POP SWAP1 POP SWAP1 JUMP JUMPDEST PUSH1 0x0 PUSH2 0x321 DUP3 PUSH2 0x9C5 JUMP JUMPDEST PUSH2 0x360 JUMPI PUSH1 0x40 MLOAD PUSH32 0x8C379A000000000000000000000000000000000000000000000000000000000 DUP2 MSTORE PUSH1 0x4 ADD PUSH2 0x357 SWAP1 PUSH2 0x183D JUMP JUMPDEST PUSH1 0x40 MLOAD DUP1 SWAP2 SUB SWAP1 REVERT JUMPDEST PUSH1 0x4 PUSH1 0x0 DUP4 DUP2 MSTORE PUSH1 0x20 ADD SWAP1 DUP2 MSTORE PUSH1 0x20 ADD PUSH1 0x0 KECCAK256 PUSH1 0x0 SWAP1 SLOAD SWAP1 PUSH2 0x100 EXP SWAP1 DIV PUSH20 0xFFFFFFFFFFFFFFFFFFFFFFFFFFFFFFFFFFFFFFFF AND SWAP1 POP SWAP2 SWAP1 POP JUMP JUMPDEST PUSH1 0x0 PUSH2 0x3A6 DUP3 PUSH2 0x51A JUMP JUMPDEST SWAP1 POP DUP1 PUSH20 0xFFFFFFFFFFFFFFFFFFFFFFFFFFFFFFFFFFFFFFFF AND DUP4 PUSH20 0xFFFFFFFFFFFFFFFFFFFFFFFFFFFFFFFFFFFFFFFF AND SUB PUSH2 0x416 JUMPI PUSH1 0x40 MLOAD PUSH32 0x8C379A000000000000000000000000000000000000000000000000000000000 DUP2 MSTORE PUSH1 0x4 ADD PUSH2 0x40D SWAP1 PUSH2 0x18CF JUMP JUMPDEST PUSH1 0x40 MLOAD DUP1 SWAP2 SUB SWAP1 REVERT JUMPDEST DUP1 PUSH20 0xFFFFFFFFFFFFFFFFFFFFFFFFFFFFFFFFFFFFFFFF AND PUSH2 0x435 PUSH2 0xA31 JUMP JUMPDEST PUSH20 0xFFFFFFFFFFFFFFFFFFFFFFFFFFFFFFFFFFFFFFFF AND EQ PUSH2 0x48B JUMPI PUSH1 0x40 MLOAD PUSH32 0x8C379A000000000000000000000000000000000000000000000000000000000 DUP2 MSTORE PUSH1 0x4 ADD PUSH2 0x482 SWAP1 PUSH2 0x1961 JUMP JUMPDEST PUSH1 0x40 MLOAD DUP1 SWAP2 SUB SWAP1 REVERT JUMPDEST PUSH2 0x495 DUP4 DUP4 PUSH2 0xA39 JUMP JUMPDEST POP POP POP JUMP JUMPDEST PUSH2 0x4AB PUSH2 0x4A5 PUSH2 0xA31 JUMP JUMPDEST DUP3 PUSH2 0xAF2 JUMP JUMPDEST PUSH2 0x4EA JUMPI PUSH1 0x40 MLOAD PUSH32 0x8C379A000000000000000000000000000000000000000000000000000000000 DUP2 MSTORE PUSH1 0x4 ADD PUSH2 0x4E1 SWAP1 PUSH2 0x19F3 JUMP JUMPDEST PUSH1 0x40 MLOAD DUP1 SWAP2 SUB SWAP1 REVERT JUMPDEST PUSH2 0x4F5 DUP4 DUP4 DUP4 PUSH2 0xBBF JUMP JUMPDEST POP POP POP JUMP JUMPDEST PUSH2 0x515 DUP4 DUP4 DUP4 PUSH1 0x40 MLOAD DUP1 PUSH1 0x20 ADD PUSH1 0x40 MSTORE DUP1 PUSH1 0x0 DUP2 MSTORE POP PUSH2 0x7C5 JUMP JUMPDEST POP POP POP JUMP JUMPDEST PUSH1 0x0 DUP1 PUSH1 0x2 PUSH1 0x0 DUP5 DUP2 MSTORE PUSH1 0x20 ADD SWAP1 DUP2 MSTORE PUSH1 0x20 ADD PUSH1 0x0 KECCAK256 PUSH1 0x0 SWAP1 SLOAD SWAP1 PUSH2 0x100 EXP SWAP1 DIV PUSH20 0xFFFFFFFFFFFFFFFFFFFFFFFFFFFFFFFFFFFFFFFF AND SWAP1 POP PUSH1 0x0 PUSH20 0xFFFFFFFFFFFFFFFFFFFFFFFFFFFFFFFFFFFFFFFF AND DUP2 PUSH20 0xFFFFFFFFFFFFFFFFFFFFFFFFFFFFFFFFFFFFFFFF AND SUB PUSH2 0x5C2 JUMPI PUSH1 0x40 MLOAD PUSH32 0x8C379A000000000000000000000000000000000000000000000000000000000 DUP2 MSTORE PUSH1 0x4 ADD PUSH2 0x5B9 SWAP1 PUSH2 0x1A85 JUMP JUMPDEST PUSH1 0x40 MLOAD DUP1 SWAP2 SUB SWAP1 REVERT JUMPDEST DUP1 SWAP2 POP POP SWAP2 SWAP1 POP JUMP JUMPDEST PUSH1 0x0 DUP1 PUSH20 0xFFFFFFFFFFFFFFFFFFFFFFFFFFFFFFFFFFFFFFFF AND DUP3 PUSH20 0xFFFFFFFFFFFFFFFFFFFFFFFFFFFFFFFFFFFFFFFF AND SUB PUSH2 0x63B JUMPI PUSH1 0x40 MLOAD PUSH32 0x8C379A000000000000000000000000000000000000000000000000000000000 DUP2 MSTORE PUSH1 0x4 ADD PUSH2 0x632 SWAP1 PUSH2 0x1B17 JUMP JUMPDEST PUSH1 0x40 MLOAD DUP1 SWAP2 SUB SWAP1 REVERT JUMPDEST PUSH1 0x1 PUSH1 0x0 DUP4 PUSH20 0xFFFFFFFFFFFFFFFFFFFFFFFFFFFFFFFFFFFFFFFF AND PUSH20 0xFFFFFFFFFFFFFFFFFFFFFFFFFFFFFFFFFFFFFFFF AND DUP2 MSTORE PUSH1 0x20 ADD SWAP1 DUP2 MSTORE PUSH1 0x20 ADD PUSH1 0x0 KECCAK256 SLOAD SWAP1 POP SWAP2 SWAP1 POP JUMP JUMPDEST PUSH2 0x68A PUSH2 0xA31 JUMP JUMPDEST PUSH20 0xFFFFFFFFFFFFFFFFFFFFFFFFFFFFFFFFFFFFFFFF AND PUSH2 0x6A8 PUSH2 0x70A JUMP JUMPDEST PUSH20 0xFFFFFFFFFFFFFFFFFFFFFFFFFFFFFFFFFFFFFFFF AND EQ PUSH2 0x6FE JUMPI PUSH1 0x40 MLOAD PUSH32 0x8C379A000000000000000000000000000000000000000000000000000000000 DUP2 MSTORE PUSH1 0x4 ADD PUSH2 0x6F5 SWAP1 PUSH2 0x1B83 JUMP JUMPDEST PUSH1 0x40 MLOAD DUP1 SWAP2 SUB SWAP1 REVERT JUMPDEST PUSH2 0x708 PUSH1 0x0 PUSH2 0xE23 JUMP JUMPDEST JUMP JUMPDEST PUSH1 0x0 DUP1 PUSH1 0x0 SWAP1 SLOAD SWAP1 PUSH2 0x100 EXP SWAP1 DIV PUSH20 0xFFFFFFFFFFFFFFFFFFFFFFFFFFFFFFFFFFFFFFFF AND SWAP1 POP SWAP1 JUMP JUMPDEST PUSH1 0x60 PUSH1 0x7 DUP1 SLOAD PUSH2 0x742 SWAP1 PUSH2 0x179A JUMP JUMPDEST DUP1 PUSH1 0x1F ADD PUSH1 0x20 DUP1 SWAP2 DIV MUL PUSH1 0x20 ADD PUSH1 0x40 MLOAD SWAP1 DUP2 ADD PUSH1 0x40 MSTORE DUP1 SWAP3 SWAP2 SWAP1 DUP2 DUP2 MSTORE PUSH1 0x20 ADD DUP3 DUP1 SLOAD PUSH2 0x76E SWAP1 PUSH2 0x179A JUMP JUMPDEST DUP1 ISZERO PUSH2 0x7BB JUMPI DUP1 PUSH1 0x1F LT PUSH2 0x790 JUMPI PUSH2 0x100 DUP1 DUP4 SLOAD DIV MUL DUP4 MSTORE SWAP2 PUSH1 0x20 ADD SWAP2 PUSH2 0x7BB JUMP JUMPDEST DUP3 ADD SWAP2 SWAP1 PUSH1 0x0 MSTORE PUSH1 0x20 PUSH1 0x0 KECCAK256 SWAP1 JUMPDEST DUP2 SLOAD DUP2 MSTORE SWAP1 PUSH1 0x1 ADD SWAP1 PUSH1 0x20 ADD DUP1 DUP4 GT PUSH2 0x79E JUMPI DUP3 SWAP1 SUB PUSH1 0x1F AND DUP3 ADD SWAP2 JUMPDEST POP POP POP POP POP SWAP1 POP SWAP1 JUMP JUMPDEST PUSH2 0x7D6 PUSH2 0x7D0 PUSH2 0xA31 JUMP JUMPDEST DUP4 PUSH2 0xAF2 JUMP JUMPDEST PUSH2 0x815 JUMPI PUSH1 0x40 MLOAD PUSH32 0x8C379A000000000000000000000000000000000000000000000000000000000 DUP2 MSTORE PUSH1 0x4 ADD PUSH2 0x80C SWAP1 PUSH2 0x19F3 JUMP JUMPDEST PUSH1 0x40 MLOAD DUP1 SWAP2 SUB SWAP1 REVERT JUMPDEST PUSH2 0x821 DUP5 DUP5 DUP5 DUP5 PUSH2 0xEE7 JUMP JUMPDEST POP POP POP POP JUMP JUMPDEST PUSH1 0x60 PUSH2 0x832 DUP3 PUSH2 0x9C5 JUMP JUMPDEST PUSH2 0x871 JUMPI PUSH1 0x40 MLOAD PUSH32 0x8C379A000000000000000000000000000000000000000000000000000000000 DUP2 MSTORE PUSH1 0x4 ADD PUSH2 0x868 SWAP1 PUSH2 0x1C15 JUMP JUMPDEST PUSH1 0x40 MLOAD DUP1 SWAP2 SUB SWAP1 REVERT JUMPDEST PUSH1 0x0 PUSH2 0x87B PUSH2 0xF43 JUMP JUMPDEST SWAP1 POP PUSH1 0x0 DUP2 MLOAD GT PUSH2 0x89B JUMPI PUSH1 0x40 MLOAD DUP1 PUSH1 0x20 ADD PUSH1 0x40 MSTORE DUP1 PUSH1 0x0 DUP2 MSTORE POP PUSH2 0x8C6 JUMP JUMPDEST DUP1 PUSH2 0x8A5 DUP5 PUSH2 0xF5A JUMP JUMPDEST PUSH1 0x40 MLOAD PUSH1 0x20 ADD PUSH2 0x8B6 SWAP3 SWAP2 SWAP1 PUSH2 0x1C71 JUMP JUMPDEST PUSH1 0x40 MLOAD PUSH1 0x20 DUP2 DUP4 SUB SUB DUP2 MSTORE SWAP1 PUSH1 0x40 MSTORE JUMPDEST SWAP2 POP POP SWAP2 SWAP1 POP JUMP JUMPDEST PUSH2 0x8D6 PUSH2 0xA31 JUMP JUMPDEST PUSH20 0xFFFFFFFFFFFFFFFFFFFFFFFFFFFFFFFFFFFFFFFF AND PUSH2 0x8F4 PUSH2 0x70A JUMP JUMPDEST PUSH20 0xFFFFFFFFFFFFFFFFFFFFFFFFFFFFFFFFFFFFFFFF AND EQ PUSH2 0x94A JUMPI PUSH1 0x40 MLOAD PUSH32 0x8C379A000000000000000000000000000000000000000000000000000000000 DUP2 MSTORE PUSH1 0x4 ADD PUSH2 0x941 SWAP1 PUSH2 0x1B83 JUMP JUMPDEST PUSH1 0x40 MLOAD DUP1 SWAP2 SUB SWAP1 REVERT JUMPDEST PUSH1 0x0 PUSH20 0xFFFFFFFFFFFFFFFFFFFFFFFFFFFFFFFFFFFFFFFF AND DUP2 PUSH20 0xFFFFFFFFFFFFFFFFFFFFFFFFFFFFFFFFFFFFFFFF AND SUB PUSH2 0x9B9 JUMPI PUSH1 0x40 MLOAD PUSH32 0x8C379A000000000000000000000000000000000000000000000000000000000 DUP2 MSTORE PUSH1 0x4 ADD PUSH2 0x9B0 SWAP1 PUSH2 0x1D07 JUMP JUMPDEST PUSH1 0x40 MLOAD DUP1 SWAP2 SUB SWAP1 REVERT JUMPDEST PUSH2 0x9C2 DUP2 PUSH2 0xE23 JUMP JUMPDEST POP JUMP JUMPDEST PUSH1 0x0 DUP1 PUSH20 0xFFFFFFFFFFFFFFFFFFFFFFFFFFFFFFFFFFFFFFFF AND PUSH1 0x2 PUSH1 0x0 DUP5 DUP2 MSTORE PUSH1 0x20 ADD SWAP1 DUP2 MSTORE PUSH1 0x20 ADD PUSH1 0x0 KECCAK256 PUSH1 0x0 SWAP1 SLOAD SWAP1 PUSH2 0x100 EXP SWAP1 DIV PUSH20 0xFFFFFFFFFFFFFFFFFFFFFFFFFFFFFFFFFFFFFFFF AND PUSH20 0xFFFFFFFFFFFFFFFFFFFFFFFFFFFFFFFFFFFFFFFF AND EQ ISZERO SWAP1 POP SWAP2 SWAP1 POP JUMP JUMPDEST PUSH1 0x0 CALLER SWAP1 POP SWAP1 JUMP JUMPDEST DUP2 PUSH1 0x4 PUSH1 0x0 DUP4 DUP2 MSTORE PUSH1 0x20 ADD SWAP1 DUP2 MSTORE PUSH1 0x20 ADD PUSH1 0x0 KECCAK256 PUSH1 0x0 PUSH2 0x100 EXP DUP2 SLOAD DUP2 PUSH20 0xFFFFFFFFFFFFFFFFFFFFFFFFFFFFFFFFFFFFFFFF MUL NOT AND SWAP1 DUP4 PUSH20 0xFFFFFFFFFFFFFFFFFFFFFFFFFFFFFFFFFFFFFFFF AND MUL OR SWAP1 SSTORE POP DUP1 DUP3 PUSH20 0xFFFFFFFFFFFFFFFFFFFFFFFFFFFFFFFFFFFFFFFF AND PUSH2 0xAAC DUP4 PUSH2 0x51A JUMP JUMPDEST PUSH20 0xFFFFFFFFFFFFFFFFFFFFFFFFFFFFFFFFFFFFFFFF AND PUSH32 0x8C5BE1E5EBEC7D5BD14F71427D1E84F3DD0314C0F7B2291E5B200AC8C7C3B925 PUSH1 0x40 MLOAD PUSH1 0x40 MLOAD DUP1 SWAP2 SUB SWAP1 LOG4 POP POP JUMP JUMPDEST PUSH1 0x0 PUSH2 0xAFD DUP3 PUSH2 0x9C5 JUMP JUMPDEST PUSH2 0xB3C JUMPI PUSH1 0x40 MLOAD PUSH32 0x8C379A000000000000000000000000000000000000000000000000000000000 DUP2 MSTORE PUSH1 0x4 ADD PUSH2 0xB33 SWAP1 PUSH2 0x1D99 JUMP JUMPDEST PUSH1 0x40 MLOAD DUP1 SWAP2 SUB SWAP1 REVERT JUMPDEST PUSH1 0x0 PUSH2 0xB47 DUP4 PUSH2 0x51A JUMP JUMPDEST SWAP1 POP DUP1 PUSH20 0xFFFFFFFFFFFFFFFFFFFFFFFFFFFFFFFFFFFFFFFF AND DUP5 PUSH20 0xFFFFFFFFFFFFFFFFFFFFFFFFFFFFFFFFFFFFFFFF AND EQ DUP1 PUSH2 0xBB6 JUMPI POP DUP4 PUSH20 0xFFFFFFFFFFFFFFFFFFFFFFFFFFFFFFFFFFFFFFFF AND PUSH2 0xB9E DUP5 PUSH2 0x316 JUMP JUMPDEST PUSH20 0xFFFFFFFFFFFFFFFFFFFFFFFFFFFFFFFFFFFFFFFF AND EQ JUMPDEST SWAP2 POP POP SWAP3 SWAP2 POP POP JUMP JUMPDEST DUP3 PUSH20 0xFFFFFFFFFFFFFFFFFFFFFFFFFFFFFFFFFFFFFFFF AND PUSH2 0xBDF DUP3 PUSH2 0x51A JUMP JUMPDEST PUSH20 0xFFFFFFFFFFFFFFFFFFFFFFFFFFFFFFFFFFFFFFFF AND EQ PUSH2 0xC35 JUMPI PUSH1 0x40 MLOAD PUSH32 0x8C379A000000000000000000000000000000000000000000000000000000000 DUP2 MSTORE PUSH1 0x4 ADD PUSH2 0xC2C SWAP1 PUSH2 0x1E2B JUMP JUMPDEST PUSH1 0x40 MLOAD DUP1 SWAP2 SUB SWAP1 REVERT JUMPDEST PUSH1 0x0 PUSH20 0xFFFFFFFFFFFFFFFFFFFFFFFFFFFFFFFFFFFFFFFF AND DUP3 PUSH20 0xFFFFFFFFFFFFFFFFFFFFFFFFFFFFFFFFFFFFFFFF AND SUB PUSH2 0xCA4 JUMPI PUSH1 0x40 MLOAD PUSH32 0x8C379A000000000000000000000000000000000000000000000000000000000 DUP2 MSTORE PUSH1 0x4 ADD PUSH2 0xC9B SWAP1 PUSH2 0x1EBD JUMP JUMPDEST PUSH1 0x40 MLOAD DUP1 SWAP2 SUB SWAP1 REVERT JUMPDEST PUSH2 0xCAF DUP4 DUP4 DUP4 PUSH2 0x10BA JUMP JUMPDEST PUSH2 0xCBA PUSH1 0x0 DUP3 PUSH2 0xA39 JUMP JUMPDEST PUSH1 0x1 DUP1 PUSH1 0x0 DUP6 PUSH20 0xFFFFFFFFFFFFFFFFFFFFFFFFFFFFFFFFFFFFFFFF AND PUSH20 0xFFFFFFFFFFFFFFFFFFFFFFFFFFFFFFFFFFFFFFFF AND DUP2 MSTORE PUSH1 0x20 ADD SWAP1 DUP2 MSTORE PUSH1 0x20 ADD PUSH1 0x0 KECCAK256 PUSH1 0x0 DUP3 DUP3 SLOAD PUSH2 0xD09 SWAP2 SWAP1 PUSH2 0x1F0C JUMP JUMPDEST SWAP3 POP POP DUP2 SWAP1 SSTORE POP PUSH1 0x1 DUP1 PUSH1 0x0 DUP5 PUSH20 0xFFFFFFFFFFFFFFFFFFFFFFFFFFFFFFFFFFFFFFFF AND PUSH20 0xFFFFFFFFFFFFFFFFFFFFFFFFFFFFFFFFFFFFFFFF AND DUP2 MSTORE PUSH1 0x20 ADD SWAP1 DUP2 MSTORE PUSH1 0x20 ADD PUSH1 0x0 KECCAK256 PUSH1 0x0 DUP3 DUP3 SLOAD PUSH2 0xD5F SWAP2 SWAP1 PUSH2 0x1F40 JUMP JUMPDEST SWAP3 POP POP DUP2 SWAP1 SSTORE POP DUP2 PUSH1 0x2 PUSH1 0x0 DUP4 DUP2 MSTORE PUSH1 0x20 ADD SWAP1 DUP2 MSTORE PUSH1 0x20 ADD PUSH1 0x0 KECCAK256 PUSH1 0x0 PUSH2 0x100 EXP DUP2 SLOAD DUP2 PUSH20 0xFFFFFFFFFFFFFFFFFFFFFFFFFFFFFFFFFFFFFFFF MUL NOT AND SWAP1 DUP4 PUSH20 0xFFFFFFFFFFFFFFFFFFFFFFFFFFFFFFFFFFFFFFFF AND MUL OR SWAP1 SSTORE POP DUP1 DUP3 PUSH20 0xFFFFFFFFFFFFFFFFFFFFFFFFFFFFFFFFFFFFFFFF AND DUP5 PUSH20 0xFFFFFFFFFFFFFFFFFFFFFFFFFFFFFFFFFFFFFFFF AND PUSH32 0xDDF252AD1BE2C89B69C2B068FC378DAA952BA7F163C4A11628F55A4DF523B3EF PUSH1 0x40 MLOAD PUSH1 0x40 MLOAD DUP1 SWAP2 SUB SWAP1 LOG4 PUSH2 0xE1E DUP4 DUP4 DUP4 PUSH2 0x1160 JUMP JUMPDEST POP POP POP JUMP JUMPDEST PUSH1 0x0 DUP1 PUSH1 0x0 SWAP1 SLOAD SWAP1 PUSH2 0x100 EXP SWAP1 DIV PUSH20 0xFFFFFFFFFFFFFFFFFFFFFFFFFFFFFFFFFFFFFFFF AND SWAP1 POP DUP2 PUSH1 0x0 DUP1 PUSH2 0x100 EXP DUP2 SLOAD DUP2 PUSH20 0xFFFFFFFFFFFFFFFFFFFFFFFFFFFFFFFFFFFFFFFF MUL NOT AND SWAP1 DUP4 PUSH20 0xFFFFFFFFFFFFFFFFFFFFFFFFFFFFFFFFFFFFFFFF AND MUL OR SWAP1 SSTORE POP DUP2 PUSH20 0xFFFFFFFFFFFFFFFFFFFFFFFFFFFFFFFFFFFFFFFF AND DUP2 PUSH20 0xFFFFFFFFFFFFFFFFFFFFFFFFFFFFFFFFFFFFFFFF AND PUSH32 0x8BE0079C531659141344CD1FD0A4F28419497F9722A3DAAFE3B4186F6B6457E0 PUSH1 0x40 MLOAD PUSH1 0x40 MLOAD DUP1 SWAP2 SUB SWAP1 LOG3 POP POP JUMP JUMPDEST PUSH2 0xEF2 DUP5 DUP5 DUP5 PUSH2 0xBBF JUMP JUMPDEST PUSH2 0xEFE DUP5 DUP5 DUP5 DUP5 PUSH2 0x1165 JUMP JUMPDEST PUSH2 0xF3D JUMPI PUSH1 0x40 MLOAD PUSH32 0x8C379A000000000000000000000000000000000000000000000000000000000 DUP2 MSTORE PUSH1 0x4 ADD PUSH2 0xF34 SWAP1 PUSH2 0x2008 JUMP JUMPDEST PUSH1 0x40 MLOAD DUP1 SWAP2 SUB SWAP1 REVERT JUMPDEST POP POP POP POP JUMP JUMPDEST PUSH1 0x60 PUSH1 0x40 MLOAD DUP1 PUSH1 0x20 ADD PUSH1 0x40 MSTORE DUP1 PUSH1 0x0 DUP2 MSTORE POP SWAP1 POP SWAP1 JUMP JUMPDEST PUSH1 0x60 PUSH1 0x0 DUP3 SUB PUSH2 0xFA1 JUMPI PUSH1 0x40 MLOAD DUP1 PUSH1 0x40 ADD PUSH1 0x40 MSTORE DUP1 PUSH1 0x1 DUP2 MSTORE PUSH1 0x20 ADD PUSH32 0x3000000000000000000000000000000000000000000000000000000000000000 DUP2 MSTORE POP SWAP1 POP PUSH2 0x10B5 JUMP JUMPDEST PUSH1 0x0 DUP3 SWAP1 POP PUSH1 0x0 JUMPDEST PUSH1 0x0 DUP3 EQ PUSH2 0xFD3 JUMPI DUP1 DUP1 PUSH2 0xFBC SWAP1 PUSH2 0x2028 JUMP JUMPDEST SWAP2 POP POP PUSH1 0xA DUP3 PUSH2 0xFCC SWAP2 SWAP1 PUSH2 0x209F JUMP JUMPDEST SWAP2 POP PUSH2 0xFA9 JUMP JUMPDEST PUSH1 0x0 DUP2 PUSH8 0xFFFFFFFFFFFFFFFF DUP2 GT ISZERO PUSH2 0xFEF JUMPI PUSH2 0xFEE PUSH2 0x15BD JUMP JUMPDEST JUMPDEST PUSH1 0x40 MLOAD SWAP1 DUP1 DUP3 MSTORE DUP1 PUSH1 0x1F ADD PUSH1 0x1F NOT AND PUSH1 0x20 ADD DUP3 ADD PUSH1 0x40 MSTORE DUP1 ISZERO PUSH2 0x1021 JUMPI DUP2 PUSH1 0x20 ADD PUSH1 0x1 DUP3 MUL DUP1 CALLDATASIZE DUP4 CALLDATACOPY DUP1 DUP3 ADD SWAP2 POP POP SWAP1 POP JUMPDEST POP SWAP1 POP JUMPDEST PUSH1 0x0 DUP6 EQ PUSH2 0x10AE JUMPI PUSH1 0x1 DUP3 PUSH2 0x103A SWAP2 SWAP1 PUSH2 0x1F0C JUMP JUMPDEST SWAP2 POP PUSH1 0xA DUP6 PUSH2 0x1049 SWAP2 SWAP1 PUSH2 0x20D0 JUMP JUMPDEST PUSH1 0x30 PUSH2 0x1055 SWAP2 SWAP1 PUSH2 0x1F40 JUMP JUMPDEST PUSH1 0xF8 SHL DUP2 DUP4 DUP2 MLOAD DUP2 LT PUSH2 0x106B JUMPI PUSH2 0x106A PUSH2 0x2101 JUMP JUMPDEST JUMPDEST PUSH1 0x20 ADD ADD SWAP1 PUSH31 0xFFFFFFFFFFFFFFFFFFFFFFFFFFFFFFFFFFFFFFFFFFFFFFFFFFFFFFFFFFFFFF NOT AND SWAP1 DUP2 PUSH1 0x0 BYTE SWAP1 MSTORE8 POP PUSH1 0xA DUP6 PUSH2 0x10A7 SWAP2 SWAP1 PUSH2 0x209F JUMP JUMPDEST SWAP5 POP PUSH2 0x1025 JUMP JUMPDEST DUP1 SWAP4 POP POP POP POP JUMPDEST SWAP2 SWAP1 POP JUMP JUMPDEST DUP3 PUSH20 0xFFFFFFFFFFFFFFFFFFFFFFFFFFFFFFFFFFFFFFFF AND PUSH1 0x2 PUSH1 0x0 DUP4 DUP2 MSTORE PUSH1 0x20 ADD SWAP1 DUP2 MSTORE PUSH1 0x20 ADD PUSH1 0x0 KECCAK256 PUSH1 0x0 SWAP1 SLOAD SWAP1 PUSH2 0x100 EXP SWAP1 DIV PUSH20 0xFFFFFFFFFFFFFFFFFFFFFFFFFFFFFFFFFFFFFFFF AND PUSH20 0xFFFFFFFFFFFFFFFFFFFFFFFFFFFFFFFFFFFFFFFF AND EQ PUSH2 0x115B JUMPI PUSH1 0x40 MLOAD PUSH32 0x8C379A000000000000000000000000000000000000000000000000000000000 DUP2 MSTORE PUSH1 0x4 ADD PUSH2 0x1152 SWAP1 PUSH2 0x217C JUMP JUMPDEST PUSH1 0x40 MLOAD DUP1 SWAP2 SUB SWAP1 REVERT JUMPDEST POP POP POP JUMP JUMPDEST POP POP POP JUMP JUMPDEST PUSH1 0x0 PUSH2 0x1186 DUP5 PUSH20 0xFFFFFFFFFFFFFFFFFFFFFFFFFFFFFFFFFFFFFFFF AND PUSH2 0x12EC JUMP JUMPDEST ISZERO PUSH2 0x12DF JUMPI DUP4 PUSH20 0xFFFFFFFFFFFFFFFFFFFFFFFFFFFFFFFFFFFFFFFF AND PUSH4 0x150B7A02 PUSH2 0x11AF PUSH2 0xA31 JUMP JUMPDEST DUP8 DUP7 DUP7 PUSH1 0x40 MLOAD DUP6 PUSH4 0xFFFFFFFF AND PUSH1 0xE0 SHL DUP2 MSTORE PUSH1 0x4 ADD PUSH2 0x11D1 SWAP5 SWAP4 SWAP3 SWAP2 SWAP1 PUSH2 0x21F1 JUMP JUMPDEST PUSH1 0x20 PUSH1 0x40 MLOAD DUP1 DUP4 SUB DUP2 PUSH1 0x0 DUP8 GAS CALL SWAP3 POP POP POP DUP1 ISZERO PUSH2 0x120D JUMPI POP PUSH1 0x40 MLOAD RETURNDATASIZE PUSH1 0x1F NOT PUSH1 0x1F DUP3 ADD AND DUP3 ADD DUP1 PUSH1 0x40 MSTORE POP DUP2 ADD SWAP1 PUSH2 0x120A SWAP2 SWAP1 PUSH2 0x2295 JUMP JUMPDEST PUSH1 0x1 JUMPDEST PUSH2 0x128F JUMPI RETURNDATASIZE DUP1 PUSH1 0x0 DUP2 EQ PUSH2 0x123D JUMPI PUSH1 0x40 MLOAD SWAP2 POP PUSH1 0x1F NOT PUSH1 0x3F RETURNDATASIZE ADD AND DUP3 ADD PUSH1 0x40 MSTORE RETURNDATASIZE DUP3 MSTORE RETURNDATASIZE PUSH1 0x0 PUSH1 0x20 DUP5 ADD RETURNDATACOPY PUSH2 0x1242 JUMP JUMPDEST PUSH1 0x60 SWAP2 POP JUMPDEST POP PUSH1 0x0 DUP2 MLOAD SUB PUSH2 0x1287 JUMPI PUSH1 0x40 MLOAD PUSH32 0x8C379A000000000000000000000000000000000000000000000000000000000 DUP2 MSTORE PUSH1 0x4 ADD PUSH2 0x127E SWAP1 PUSH2 0x2008 JUMP JUMPDEST PUSH1 0x40 MLOAD DUP1 SWAP2 SUB SWAP1 REVERT JUMPDEST DUP1 MLOAD DUP2 PUSH1 0x20 ADD REVERT JUMPDEST PUSH4 0x150B7A02 PUSH1 0xE0 SHL PUSH28 0xFFFFFFFFFFFFFFFFFFFFFFFFFFFFFFFFFFFFFFFFFFFFFFFFFFFFFFFF NOT AND DUP2 PUSH28 0xFFFFFFFFFFFFFFFFFFFFFFFFFFFFFFFFFFFFFFFFFFFFFFFFFFFFFFFF NOT AND EQ SWAP2 POP POP PUSH2 0x12E4 JUMP JUMPDEST PUSH1 0x1 SWAP1 POP JUMPDEST SWAP5 SWAP4 POP POP POP POP JUMP JUMPDEST PUSH1 0x0 DUP1 DUP3 PUSH20 0xFFFFFFFFFFFFFFFFFFFFFFFFFFFFFFFFFFFFFFFF AND EXTCODESIZE GT SWAP1 POP SWAP2 SWAP1 POP JUMP JUMPDEST PUSH1 0x0 DUP2 MLOAD SWAP1 POP SWAP2 SWAP1 POP JUMP JUMPDEST PUSH1 0x0 DUP3 DUP3 MSTORE PUSH1 0x20 DUP3 ADD SWAP1 POP SWAP3 SWAP2 POP POP JUMP JUMPDEST PUSH1 0x0 JUMPDEST DUP4 DUP2 LT ISZERO PUSH2 0x1349 JUMPI DUP1 DUP3 ADD MLOAD DUP2 DUP5 ADD MSTORE PUSH1 0x20 DUP2 ADD SWAP1 POP PUSH2 0x132E JUMP JUMPDEST DUP4 DUP2 GT ISZERO PUSH2 0x1358 JUMPI PUSH1 0x0 DUP5 DUP5 ADD MSTORE JUMPDEST POP POP POP POP JUMP JUMPDEST PUSH1 0x0 PUSH1 0x1F NOT PUSH1 0x1F DUP4 ADD AND SWAP1 POP SWAP2 SWAP1 POP JUMP JUMPDEST PUSH1 0x0 PUSH2 0x137A DUP3 PUSH2 0x130F JUMP JUMPDEST PUSH2 0x1384 DUP2 DUP6 PUSH2 0x131A JUMP JUMPDEST SWAP4 POP PUSH2 0x1394 DUP2 DUP6 PUSH1 0x20 DUP7 ADD PUSH2 0x132B JUMP JUMPDEST PUSH2 0x139D DUP2 PUSH2 0x135E JUMP JUMPDEST DUP5 ADD SWAP2 POP POP SWAP3 SWAP2 POP POP JUMP JUMPDEST PUSH1 0x0 PUSH1 0x20 DUP3 ADD SWAP1 POP DUP2 DUP2 SUB PUSH1 0x0 DUP4 ADD MSTORE PUSH2 0x13C2 DUP2 DUP5 PUSH2 0x136F JUMP JUMPDEST SWAP1 POP SWAP3 SWAP2 POP POP JUMP JUMPDEST PUSH1 0x0 PUSH1 0x40 MLOAD SWAP1 POP SWAP1 JUMP JUMPDEST PUSH1 0x0 DUP1 REVERT JUMPDEST PUSH1 0x0 DUP1 REVERT JUMPDEST PUSH1 0x0 DUP2 SWAP1 POP SWAP2 SWAP1 POP JUMP JUMPDEST PUSH2 0x13F1 DUP2 PUSH2 0x13DE JUMP JUMPDEST DUP2 EQ PUSH2 0x13FC JUMPI PUSH1 0x0 DUP1 REVERT JUMPDEST POP JUMP JUMPDEST PUSH1 0x0 DUP2 CALLDATALOAD SWAP1 POP PUSH2 0x140E DUP2 PUSH2 0x13E8 JUMP JUMPDEST SWAP3 SWAP2 POP POP JUMP JUMPDEST PUSH1 0x0 PUSH1 0x20 DUP3 DUP5 SUB SLT ISZERO PUSH2 0x142A JUMPI PUSH2 0x1429 PUSH2 0x13D4 JUMP JUMPDEST JUMPDEST PUSH1 0x0 PUSH2 0x1438 DUP5 DUP3 DUP6 ADD PUSH2 0x13FF JUMP JUMPDEST SWAP2 POP POP SWAP3 SWAP2 POP POP JUMP JUMPDEST PUSH1 0x0 PUSH20 0xFFFFFFFFFFFFFFFFFFFFFFFFFFFFFFFFFFFFFFFF DUP3 AND SWAP1 POP SWAP2 SWAP1 POP JUMP JUMPDEST PUSH1 0x0 PUSH2 0x146C DUP3 PUSH2 0x1441 JUMP JUMPDEST SWAP1 POP SWAP2 SWAP1 POP JUMP JUMPDEST PUSH2 0x147C DUP2 PUSH2 0x1461 JUMP JUMPDEST DUP3 MSTORE POP POP JUMP JUMPDEST PUSH1 0x0 PUSH1 0x20 DUP3 ADD SWAP1 POP PUSH2 0x1497 PUSH1 0x0 DUP4 ADD DUP5 PUSH2 0x1473 JUMP JUMPDEST SWAP3 SWAP2 POP POP JUMP JUMPDEST PUSH2 0x14A6 DUP2 PUSH2 0x1461 JUMP JUMPDEST DUP2 EQ PUSH2 0x14B1 JUMPI PUSH1 0x0 DUP1 REVERT JUMPDEST POP JUMP JUMPDEST PUSH1 0x0 DUP2 CALLDATALOAD SWAP1 POP PUSH2 0x14C3 DUP2 PUSH2 0x149D JUMP JUMPDEST SWAP3 SWAP2 POP POP JUMP JUMPDEST PUSH1 0x0 DUP1 PUSH1 0x40 DUP4 DUP6 SUB SLT ISZERO PUSH2 0x14E0 JUMPI PUSH2 0x14DF PUSH2 0x13D4 JUMP JUMPDEST JUMPDEST PUSH1 0x0 PUSH2 0x14EE DUP6 DUP3 DUP7 ADD PUSH2 0x14B4 JUMP JUMPDEST SWAP3 POP POP PUSH1 0x20 PUSH2 0x14FF DUP6 DUP3 DUP7 ADD PUSH2 0x13FF JUMP JUMPDEST SWAP2 POP POP SWAP3 POP SWAP3 SWAP1 POP JUMP JUMPDEST PUSH1 0x0 DUP1 PUSH1 0x0 PUSH1 0x60 DUP5 DUP7 SUB SLT ISZERO PUSH2 0x1522 JUMPI PUSH2 0x1521 PUSH2 0x13D4 JUMP JUMPDEST JUMPDEST PUSH1 0x0 PUSH2 0x1530 DUP7 DUP3 DUP8 ADD PUSH2 0x14B4 JUMP JUMPDEST SWAP4 POP POP PUSH1 0x20 PUSH2 0x1541 DUP7 DUP3 DUP8 ADD PUSH2 0x14B4 JUMP JUMPDEST SWAP3 POP POP PUSH1 0x40 PUSH2 0x1552 DUP7 DUP3 DUP8 ADD PUSH2 0x13FF JUMP JUMPDEST SWAP2 POP POP SWAP3 POP SWAP3 POP SWAP3 JUMP JUMPDEST PUSH1 0x0 PUSH1 0x20 DUP3 DUP5 SUB SLT ISZERO PUSH2 0x1572 JUMPI PUSH2 0x1571 PUSH2 0x13D4 JUMP JUMPDEST JUMPDEST PUSH1 0x0 PUSH2 0x1580 DUP5 DUP3 DUP6 ADD PUSH2 0x14B4 JUMP JUMPDEST SWAP2 POP POP SWAP3 SWAP2 POP POP JUMP JUMPDEST PUSH2 0x1592 DUP2 PUSH2 0x13DE JUMP JUMPDEST DUP3 MSTORE POP POP JUMP JUMPDEST PUSH1 0x0 PUSH1 0x20 DUP3 ADD SWAP1 POP PUSH2 0x15AD PUSH1 0x0 DUP4 ADD DUP5 PUSH2 0x1589 JUMP JUMPDEST SWAP3 SWAP2 POP POP JUMP JUMPDEST PUSH1 0x0 DUP1 REVERT JUMPDEST PUSH1 0x0 DUP1 REVERT JUMPDEST PUSH32 0x4E487B7100000000000000000000000000000000000000000000000000000000 PUSH1 0x0 MSTORE PUSH1 0x41 PUSH1 0x4 MSTORE PUSH1 0x24 PUSH1 0x0 REVERT JUMPDEST PUSH2 0x15F5 DUP3 PUSH2 0x135E JUMP JUMPDEST DUP2 ADD DUP2 DUP2 LT PUSH8 0xFFFFFFFFFFFFFFFF DUP3 GT OR ISZERO PUSH2 0x1614 JUMPI PUSH2 0x1613 PUSH2 0x15BD JUMP JUMPDEST JUMPDEST DUP1 PUSH1 0x40 MSTORE POP POP POP JUMP JUMPDEST PUSH1 0x0 PUSH2 0x1627 PUSH2 0x13CA JUMP JUMPDEST SWAP1 POP PUSH2 0x1633 DUP3 DUP3 PUSH2 0x15EC JUMP JUMPDEST SWAP2 SWAP1 POP JUMP JUMPDEST PUSH1 0x0 PUSH8 0xFFFFFFFFFFFFFFFF DUP3 GT ISZERO PUSH2 0x1653 JUMPI PUSH2 0x1652 PUSH2 0x15BD JUMP JUMPDEST JUMPDEST PUSH2 0x165C DUP3 PUSH2 0x135E JUMP JUMPDEST SWAP1 POP PUSH1 0x20 DUP2 ADD SWAP1 POP SWAP2 SWAP1 POP JUMP JUMPDEST DUP3 DUP2 DUP4 CALLDATACOPY PUSH1 0x0 DUP4 DUP4 ADD MSTORE POP POP POP JUMP JUMPDEST PUSH1 0x0 PUSH2 0x168B PUSH2 0x1686 DUP5 PUSH2 0x1638 JUMP JUMPDEST PUSH2 0x161D JUMP JUMPDEST SWAP1 POP DUP3 DUP2 MSTORE PUSH1 0x20 DUP2 ADD DUP5 DUP5 DUP5 ADD GT ISZERO PUSH2 0x16A7 JUMPI PUSH2 0x16A6 PUSH2 0x15B8 JUMP JUMPDEST JUMPDEST PUSH2 0x16B2 DUP5 DUP3 DUP6 PUSH2 0x1669 JUMP JUMPDEST POP SWAP4 SWAP3 POP POP POP JUMP JUMPDEST PUSH1 0x0 DUP3 PUSH1 0x1F DUP4 ADD SLT PUSH2 0x16CF JUMPI PUSH2 0x16CE PUSH2 0x15B3 JUMP JUMPDEST JUMPDEST DUP2 CALLDATALOAD PUSH2 0x16DF DUP5 DUP3 PUSH1 0x20 DUP7 ADD PUSH2 0x1678 JUMP JUMPDEST SWAP2 POP POP SWAP3 SWAP2 POP POP JUMP JUMPDEST PUSH1 0x0 DUP1 PUSH1 0x0 DUP1 PUSH1 0x80 DUP6 DUP8 SUB SLT ISZERO PUSH2 0x1702 JUMPI PUSH2 0x1701 PUSH2 0x13D4 JUMP JUMPDEST JUMPDEST PUSH1 0x0 PUSH2 0x1710 DUP8 DUP3 DUP9 ADD PUSH2 0x14B4 JUMP JUMPDEST SWAP5 POP POP PUSH1 0x20 PUSH2 0x1721 DUP8 DUP3 DUP9 ADD PUSH2 0x14B4 JUMP JUMPDEST SWAP4 POP POP PUSH1 0x40 PUSH2 0x1732 DUP8 DUP3 DUP9 ADD PUSH2 0x13FF JUMP JUMPDEST SWAP3 POP POP PUSH1 0x60 DUP6 ADD CALLDATALOAD PUSH8 0xFFFFFFFFFFFFFFFF DUP2 GT ISZERO PUSH2 0x1753 JUMPI PUSH2 0x1752 PUSH2 0x13D9 JUMP JUMPDEST JUMPDEST PUSH2 0x175F DUP8 DUP3 DUP9 ADD PUSH2 0x16BA JUMP JUMPDEST SWAP2 POP POP SWAP3 SWAP6 SWAP2 SWAP5 POP SWAP3 POP JUMP JUMPDEST PUSH32 0x4E487B7100000000000000000000000000000000000000000000000000000000 PUSH1 0x0 MSTORE PUSH1 0x22 PUSH1 0x4 MSTORE PUSH1 0x24 PUSH1 0x0 REVERT JUMPDEST PUSH1 0x0 PUSH1 0x2 DUP3 DIV SWAP1 POP PUSH1 0x1 DUP3 AND DUP1 PUSH2 0x17B2 JUMPI PUSH1 0x7F DUP3 AND SWAP2 POP JUMPDEST PUSH1 0x20 DUP3 LT DUP2 SUB PUSH2 0x17C5 JUMPI PUSH2 0x17C4 PUSH2 0x176B JUMP JUMPDEST JUMPDEST POP SWAP2 SWAP1 POP JUMP JUMPDEST PUSH32 0x4552433732313A20617070726F76656420717565727920666F72206E6F6E6578 PUSH1 0x0 DUP3 ADD MSTORE PUSH32 0x697374656E7420746F6B656E0000000000000000000000000000000000000000 PUSH1 0x20 DUP3 ADD MSTORE POP JUMP JUMPDEST PUSH1 0x0 PUSH2 0x1827 PUSH1 0x2C DUP4 PUSH2 0x131A JUMP JUMPDEST SWAP2 POP PUSH2 0x1832 DUP3 PUSH2 0x17CB JUMP JUMPDEST PUSH1 0x40 DUP3 ADD SWAP1 POP SWAP2 SWAP1 POP JUMP JUMPDEST PUSH1 0x0 PUSH1 0x20 DUP3 ADD SWAP1 POP DUP2 DUP2 SUB PUSH1 0x0 DUP4 ADD MSTORE PUSH2 0x1856 DUP2 PUSH2 0x181A JUMP JUMPDEST SWAP1 POP SWAP2 SWAP1 POP JUMP JUMPDEST PUSH32 0x4552433732313A20617070726F76616C20746F2063757272656E74206F776E65 PUSH1 0x0 DUP3 ADD MSTORE PUSH32 0x7200000000000000000000000000000000000000000000000000000000000000 PUSH1 0x20 DUP3 ADD MSTORE POP JUMP JUMPDEST PUSH1 0x0 PUSH2 0x18B9 PUSH1 0x21 DUP4 PUSH2 0x131A JUMP JUMPDEST SWAP2 POP PUSH2 0x18C4 DUP3 PUSH2 0x185D JUMP JUMPDEST PUSH1 0x40 DUP3 ADD SWAP1 POP SWAP2 SWAP1 POP JUMP JUMPDEST PUSH1 0x0 PUSH1 0x20 DUP3 ADD SWAP1 POP DUP2 DUP2 SUB PUSH1 0x0 DUP4 ADD MSTORE PUSH2 0x18E8 DUP2 PUSH2 0x18AC JUMP JUMPDEST SWAP1 POP SWAP2 SWAP1 POP JUMP JUMPDEST PUSH32 0x4552433732313A20617070726F76652063616C6C6572206973206E6F74206F77 PUSH1 0x0 DUP3 ADD MSTORE PUSH32 0x6E6572206E6F7220617070726F76656420666F7220616C6C0000000000000000 PUSH1 0x20 DUP3 ADD MSTORE POP JUMP JUMPDEST PUSH1 0x0 PUSH2 0x194B PUSH1 0x38 DUP4 PUSH2 0x131A JUMP JUMPDEST SWAP2 POP PUSH2 0x1956 DUP3 PUSH2 0x18EF JUMP JUMPDEST PUSH1 0x40 DUP3 ADD SWAP1 POP SWAP2 SWAP1 POP JUMP JUMPDEST PUSH1 0x0 PUSH1 0x20 DUP3 ADD SWAP1 POP DUP2 DUP2 SUB PUSH1 0x0 DUP4 ADD MSTORE PUSH2 0x197A DUP2 PUSH2 0x193E JUMP JUMPDEST SWAP1 POP SWAP2 SWAP1 POP JUMP JUMPDEST PUSH32 0x4552433732313A207472616E736665722063616C6C6572206973206E6F74206F PUSH1 0x0 DUP3 ADD MSTORE PUSH32 0x776E6572206E6F7220617070726F766564000000000000000000000000000000 PUSH1 0x20 DUP3 ADD MSTORE POP JUMP JUMPDEST PUSH1 0x0 PUSH2 0x19DD PUSH1 0x31 DUP4 PUSH2 0x131A JUMP JUMPDEST SWAP2 POP PUSH2 0x19E8 DUP3 PUSH2 0x1981 JUMP JUMPDEST PUSH1 0x40 DUP3 ADD SWAP1 POP SWAP2 SWAP1 POP JUMP JUMPDEST PUSH1 0x0 PUSH1 0x20 DUP3 ADD SWAP1 POP DUP2 DUP2 SUB PUSH1 0x0 DUP4 ADD MSTORE PUSH2 0x1A0C DUP2 PUSH2 0x19D0 JUMP JUMPDEST SWAP1 POP SWAP2 SWAP1 POP JUMP JUMPDEST PUSH32 0x4552433732313A206F776E657220717565727920666F72206E6F6E6578697374 PUSH1 0x0 DUP3 ADD MSTORE PUSH32 0x656E7420746F6B656E0000000000000000000000000000000000000000000000 PUSH1 0x20 DUP3 ADD MSTORE POP JUMP JUMPDEST PUSH1 0x0 PUSH2 0x1A6F PUSH1 0x29 DUP4 PUSH2 0x131A JUMP JUMPDEST SWAP2 POP PUSH2 0x1A7A DUP3 PUSH2 0x1A13 JUMP JUMPDEST PUSH1 0x40 DUP3 ADD SWAP1 POP SWAP2 SWAP1 POP JUMP JUMPDEST PUSH1 0x0 PUSH1 0x20 DUP3 ADD SWAP1 POP DUP2 DUP2 SUB PUSH1 0x0 DUP4 ADD MSTORE PUSH2 0x1A9E DUP2 PUSH2 0x1A62 JUMP JUMPDEST SWAP1 POP SWAP2 SWAP1 POP JUMP JUMPDEST PUSH32 0x4552433732313A2062616C616E636520717565727920666F7220746865207A65 PUSH1 0x0 DUP3 ADD MSTORE PUSH32 0x726F206164647265737300000000000000000000000000000000000000000000 PUSH1 0x20 DUP3 ADD MSTORE POP JUMP JUMPDEST PUSH1 0x0 PUSH2 0x1B01 PUSH1 0x2A DUP4 PUSH2 0x131A JUMP JUMPDEST SWAP2 POP PUSH2 0x1B0C DUP3 PUSH2 0x1AA5 JUMP JUMPDEST PUSH1 0x40 DUP3 ADD SWAP1 POP SWAP2 SWAP1 POP JUMP JUMPDEST PUSH1 0x0 PUSH1 0x20 DUP3 ADD SWAP1 POP DUP2 DUP2 SUB PUSH1 0x0 DUP4 ADD MSTORE PUSH2 0x1B30 DUP2 PUSH2 0x1AF4 JUMP JUMPDEST SWAP1 POP SWAP2 SWAP1 POP JUMP JUMPDEST PUSH32 0x4F776E61626C653A2063616C6C6572206973206E6F7420746865206F776E6572 PUSH1 0x0 DUP3 ADD MSTORE POP JUMP JUMPDEST PUSH1 0x0 PUSH2 0x1B6D PUSH1 0x20 DUP4 PUSH2 0x131A JUMP JUMPDEST SWAP2 POP PUSH2 0x1B78 DUP3 PUSH2 0x1B37 JUMP JUMPDEST PUSH1 0x20 DUP3 ADD SWAP1 POP SWAP2 SWAP1 POP JUMP JUMPDEST PUSH1 0x0 PUSH1 0x20 DUP3 ADD SWAP1 POP DUP2 DUP2 SUB PUSH1 0x0 DUP4 ADD MSTORE PUSH2 0x1B9C DUP2 PUSH2 0x1B60 JUMP JUMPDEST SWAP1 POP SWAP2 SWAP1 POP JUMP JUMPDEST PUSH32 0x4552433732314D657461646174613A2055524920717565727920666F72206E6F PUSH1 0x0 DUP3 ADD MSTORE PUSH32 0x6E6578697374656E7420746F6B656E0000000000000000000000000000000000 PUSH1 0x20 DUP3 ADD MSTORE POP JUMP JUMPDEST PUSH1 0x0 PUSH2 0x1BFF PUSH1 0x2F DUP4 PUSH2 0x131A JUMP JUMPDEST SWAP2 POP PUSH2 0x1C0A DUP3 PUSH2 0x1BA3 JUMP JUMPDEST PUSH1 0x40 DUP3 ADD SWAP1 POP SWAP2 SWAP1 POP JUMP JUMPDEST PUSH1 0x0 PUSH1 0x20 DUP3 ADD SWAP1 POP DUP2 DUP2 SUB PUSH1 0x0 DUP4 ADD MSTORE PUSH2 0x1C2E DUP2 PUSH2 0x1BF2 JUMP JUMPDEST SWAP1 POP SWAP2 SWAP1 POP JUMP JUMPDEST PUSH1 0x0 DUP2 SWAP1 POP SWAP3 SWAP2 POP POP JUMP JUMPDEST PUSH1 0x0 PUSH2 0x1C4B DUP3 PUSH2 0x130F JUMP JUMPDEST PUSH2 0x1C55 DUP2 DUP6 PUSH2 0x1C35 JUMP JUMPDEST SWAP4 POP PUSH2 0x1C65 DUP2 DUP6 PUSH1 0x20 DUP7 ADD PUSH2 0x132B JUMP JUMPDEST DUP1 DUP5 ADD SWAP2 POP POP SWAP3 SWAP2 POP POP JUMP JUMPDEST PUSH1 0x0 PUSH2 0x1C7D DUP3 DUP6 PUSH2 0x1C40 JUMP JUMPDEST SWAP2 POP PUSH2 0x1C89 DUP3 DUP5 PUSH2 0x1C40 JUMP JUMPDEST SWAP2 POP DUP2 SWAP1 POP SWAP4 SWAP3 POP POP POP JUMP JUMPDEST PUSH32 0x4F776E61626C653A206E6577206F776E657220697320746865207A65726F2061 PUSH1 0x0 DUP3 ADD MSTORE PUSH32 0x6464726573730000000000000000000000000000000000000000000000000000 PUSH1 0x20 DUP3 ADD MSTORE POP JUMP JUMPDEST PUSH1 0x0 PUSH2 0x1CF1 PUSH1 0x26 DUP4 PUSH2 0x131A JUMP JUMPDEST SWAP2 POP PUSH2 0x1CFC DUP3 PUSH2 0x1C95 JUMP JUMPDEST PUSH1 0x40 DUP3 ADD SWAP1 POP SWAP2 SWAP1 POP JUMP JUMPDEST PUSH1 0x0 PUSH1 0x20 DUP3 ADD SWAP1 POP DUP2 DUP2 SUB PUSH1 0x0 DUP4 ADD MSTORE PUSH2 0x1D20 DUP2 PUSH2 0x1CE4 JUMP JUMPDEST SWAP1 POP SWAP2 SWAP1 POP JUMP JUMPDEST PUSH32 0x4552433732313A206F70657261746F7220717565727920666F72206E6F6E6578 PUSH1 0x0 DUP3 ADD MSTORE PUSH32 0x697374656E7420746F6B656E0000000000000000000000000000000000000000 PUSH1 0x20 DUP3 ADD MSTORE POP JUMP JUMPDEST PUSH1 0x0 PUSH2 0x1D83 PUSH1 0x2C DUP4 PUSH2 0x131A JUMP JUMPDEST SWAP2 POP PUSH2 0x1D8E DUP3 PUSH2 0x1D27 JUMP JUMPDEST PUSH1 0x40 DUP3 ADD SWAP1 POP SWAP2 SWAP1 POP JUMP JUMPDEST PUSH1 0x0 PUSH1 0x20 DUP3 ADD SWAP1 POP DUP2 DUP2 SUB PUSH1 0x0 DUP4 ADD MSTORE PUSH2 0x1DB2 DUP2 PUSH2 0x1D76 JUMP JUMPDEST SWAP1 POP SWAP2 SWAP1 POP JUMP JUMPDEST PUSH32 0x4552433732313A207472616E736665722066726F6D20696E636F727265637420 PUSH1 0x0 DUP3 ADD MSTORE PUSH32 0x6F776E6572000000000000000000000000000000000000000000000000000000 PUSH1 0x20 DUP3 ADD MSTORE POP JUMP JUMPDEST PUSH1 0x0 PUSH2 0x1E15 PUSH1 0x25 DUP4 PUSH2 0x131A JUMP JUMPDEST SWAP2 POP PUSH2 0x1E20 DUP3 PUSH2 0x1DB9 JUMP JUMPDEST PUSH1 0x40 DUP3 ADD SWAP1 POP SWAP2 SWAP1 POP JUMP JUMPDEST PUSH1 0x0 PUSH1 0x20 DUP3 ADD SWAP1 POP DUP2 DUP2 SUB PUSH1 0x0 DUP4 ADD MSTORE PUSH2 0x1E44 DUP2 PUSH2 0x1E08 JUMP JUMPDEST SWAP1 POP SWAP2 SWAP1 POP JUMP JUMPDEST PUSH32 0x4552433732313A207472616E7366657220746F20746865207A65726F20616464 PUSH1 0x0 DUP3 ADD MSTORE PUSH32 0x7265737300000000000000000000000000000000000000000000000000000000 PUSH1 0x20 DUP3 ADD MSTORE POP JUMP JUMPDEST PUSH1 0x0 PUSH2 0x1EA7 PUSH1 0x24 DUP4 PUSH2 0x131A JUMP JUMPDEST SWAP2 POP PUSH2 0x1EB2 DUP3 PUSH2 0x1E4B JUMP JUMPDEST PUSH1 0x40 DUP3 ADD SWAP1 POP SWAP2 SWAP1 POP JUMP JUMPDEST PUSH1 0x0 PUSH1 0x20 DUP3 ADD SWAP1 POP DUP2 DUP2 SUB PUSH1 0x0 DUP4 ADD MSTORE PUSH2 0x1ED6 DUP2 PUSH2 0x1E9A JUMP JUMPDEST SWAP1 POP SWAP2 SWAP1 POP JUMP JUMPDEST PUSH32 0x4E487B7100000000000000000000000000000000000000000000000000000000 PUSH1 0x0 MSTORE PUSH1 0x11 PUSH1 0x4 MSTORE PUSH1 0x24 PUSH1 0x0 REVERT JUMPDEST PUSH1 0x0 PUSH2 0x1F17 DUP3 PUSH2 0x13DE JUMP JUMPDEST SWAP2 POP PUSH2 0x1F22 DUP4 PUSH2 0x13DE JUMP JUMPDEST SWAP3 POP DUP3 DUP3 LT ISZERO PUSH2 0x1F35 JUMPI PUSH2 0x1F34 PUSH2 0x1EDD JUMP JUMPDEST JUMPDEST DUP3 DUP3 SUB SWAP1 POP SWAP3 SWAP2 POP POP JUMP JUMPDEST PUSH1 0x0 PUSH2 0x1F4B DUP3 PUSH2 0x13DE JUMP JUMPDEST SWAP2 POP PUSH2 0x1F56 DUP4 PUSH2 0x13DE JUMP JUMPDEST SWAP3 POP DUP3 PUSH32 0xFFFFFFFFFFFFFFFFFFFFFFFFFFFFFFFFFFFFFFFFFFFFFFFFFFFFFFFFFFFFFFFF SUB DUP3 GT ISZERO PUSH2 0x1F8B JUMPI PUSH2 0x1F8A PUSH2 0x1EDD JUMP JUMPDEST JUMPDEST DUP3 DUP3 ADD SWAP1 POP SWAP3 SWAP2 POP POP JUMP JUMPDEST PUSH32 0x4552433732313A207472616E7366657220746F206E6F6E204552433732315265 PUSH1 0x0 DUP3 ADD MSTORE PUSH32 0x63656976657220696D706C656D656E7465720000000000000000000000000000 PUSH1 0x20 DUP3 ADD MSTORE POP JUMP JUMPDEST PUSH1 0x0 PUSH2 0x1FF2 PUSH1 0x32 DUP4 PUSH2 0x131A JUMP JUMPDEST SWAP2 POP PUSH2 0x1FFD DUP3 PUSH2 0x1F96 JUMP JUMPDEST PUSH1 0x40 DUP3 ADD SWAP1 POP SWAP2 SWAP1 POP JUMP JUMPDEST PUSH1 0x0 PUSH1 0x20 DUP3 ADD SWAP1 POP DUP2 DUP2 SUB PUSH1 0x0 DUP4 ADD MSTORE PUSH2 0x2021 DUP2 PUSH2 0x1FE5 JUMP JUMPDEST SWAP1 POP SWAP2 SWAP1 POP JUMP JUMPDEST PUSH1 0x0 PUSH2 0x2033 DUP3 PUSH2 0x13DE JUMP JUMPDEST SWAP2 POP PUSH32 0xFFFFFFFFFFFFFFFFFFFFFFFFFFFFFFFFFFFFFFFFFFFFFFFFFFFFFFFFFFFFFFFF DUP3 SUB PUSH2 0x2065 JUMPI PUSH2 0x2064 PUSH2 0x1EDD JUMP JUMPDEST JUMPDEST PUSH1 0x1 DUP3 ADD SWAP1 POP SWAP2 SWAP1 POP JUMP JUMPDEST PUSH32 0x4E487B7100000000000000000000000000000000000000000000000000000000 PUSH1 0x0 MSTORE PUSH1 0x12 PUSH1 0x4 MSTORE PUSH1 0x24 PUSH1 0x0 REVERT JUMPDEST PUSH1 0x0 PUSH2 0x20AA DUP3 PUSH2 0x13DE JUMP JUMPDEST SWAP2 POP PUSH2 0x20B5 DUP4 PUSH2 0x13DE JUMP JUMPDEST SWAP3 POP DUP3 PUSH2 0x20C5 JUMPI PUSH2 0x20C4 PUSH2 0x2070 JUMP JUMPDEST JUMPDEST DUP3 DUP3 DIV SWAP1 POP SWAP3 SWAP2 POP POP JUMP JUMPDEST PUSH1 0x0 PUSH2 0x20DB DUP3 PUSH2 0x13DE JUMP JUMPDEST SWAP2 POP PUSH2 0x20E6 DUP4 PUSH2 0x13DE JUMP JUMPDEST SWAP3 POP DUP3 PUSH2 0x20F6 JUMPI PUSH2 0x20F5 PUSH2 0x2070 JUMP JUMPDEST JUMPDEST DUP3 DUP3 MOD SWAP1 POP SWAP3 SWAP2 POP POP JUMP JUMPDEST PUSH32 0x4E487B7100000000000000000000000000000000000000000000000000000000 PUSH1 0x0 MSTORE PUSH1 0x32 PUSH1 0x4 MSTORE PUSH1 0x24 PUSH1 0x0 REVERT JUMPDEST PUSH32 0x4552433732313A207472616E73666572206E6F74206F776E657220746F6B656E PUSH1 0x0 DUP3 ADD MSTORE POP JUMP JUMPDEST PUSH1 0x0 PUSH2 0x2166 PUSH1 0x20 DUP4 PUSH2 0x131A JUMP JUMPDEST SWAP2 POP PUSH2 0x2171 DUP3 PUSH2 0x2130 JUMP JUMPDEST PUSH1 0x20 DUP3 ADD SWAP1 POP SWAP2 SWAP1 POP JUMP JUMPDEST PUSH1 0x0 PUSH1 0x20 DUP3 ADD SWAP1 POP DUP2 DUP2 SUB PUSH1 0x0 DUP4 ADD MSTORE PUSH2 0x2195 DUP2 PUSH2 0x2159 JUMP JUMPDEST SWAP1 POP SWAP2 SWAP1 POP JUMP JUMPDEST PUSH1 0x0 DUP2 MLOAD SWAP1 POP SWAP2 SWAP1 POP JUMP JUMPDEST PUSH1 0x0 DUP3 DUP3 MSTORE PUSH1 0x20 DUP3 ADD SWAP1 POP SWAP3 SWAP2 POP POP JUMP JUMPDEST PUSH1 0x0 PUSH2 0x21C3 DUP3 PUSH2 0x219C JUMP JUMPDEST PUSH2 0x21CD DUP2 DUP6 PUSH2 0x21A7 JUMP JUMPDEST SWAP4 POP PUSH2 0x21DD DUP2 DUP6 PUSH1 0x20 DUP7 ADD PUSH2 0x132B JUMP JUMPDEST PUSH2 0x21E6 DUP2 PUSH2 0x135E JUMP JUMPDEST DUP5 ADD SWAP2 POP POP SWAP3 SWAP2 POP POP JUMP JUMPDEST PUSH1 0x0 PUSH1 0x80 DUP3 ADD SWAP1 POP PUSH2 0x2206 PUSH1 0x0 DUP4 ADD DUP8 PUSH2 0x1473 JUMP JUMPDEST PUSH2 0x2213 PUSH1 0x20 DUP4 ADD DUP7 PUSH2 0x1473 JUMP JUMPDEST PUSH2 0x2220 PUSH1 0x40 DUP4 ADD DUP6 PUSH2 0x1589 JUMP JUMPDEST DUP2 DUP2 SUB PUSH1 0x60 DUP4 ADD MSTORE PUSH2 0x2232 DUP2 DUP5 PUSH2 0x21B8 JUMP JUMPDEST SWAP1 POP SWAP6 SWAP5 POP POP POP POP POP JUMP JUMPDEST PUSH1 0x0 PUSH32 0xFFFFFFFF00000000000000000000000000000000000000000000000000000000 DUP3 AND SWAP1 POP SWAP2 SWAP1 POP JUMP JUMPDEST PUSH2 0x2272 DUP2 PUSH2 0x223D JUMP JUMPDEST DUP2 EQ PUSH2 0x227D JUMPI PUSH1 0x0 DUP1 REVERT JUMPDEST POP JUMP JUMPDEST PUSH1 0x0 DUP2 MLOAD SWAP1 POP PUSH2 0x228F DUP2 PUSH2 0x2269 JUMP JUMPDEST SWAP3 SWAP2 POP POP JUMP JUMPDEST PUSH1 0x0 PUSH1 0x20 DUP3 DUP5 SUB SLT ISZERO PUSH2 0x22AB JUMPI PUSH2 0x22AA PUSH2 0x13D4 JUMP JUMPDEST JUMPDEST PUSH1 0x0 PUSH2 0x22B9 DUP5 DUP3 DUP6 ADD PUSH2 0x2280 JUMP JUMPDEST SWAP2 POP POP SWAP3 SWAP2 POP POP JUMP INVALID LOG2 PUSH5 0x6970667358 0x22 SLT KECCAK256 0xE AND PUSH15 0x5BA16E9963CC048859B3072B1A8FA4 0xA5 0x2E 0xE9 0x25 0xB2 PUSH14 0x40CEF39EB69D7CD964736F6C6343 STOP ADDMOD 0xD STOP CALLER "
				},
				"gasEstimates": {
					"creation": {
						"codeDepositCost": "1790400",
						"executionCost": "infinite",
						"totalCost": "infinite"
					},
					"external": {
						"approve(address,uint256)": "infinite",
						"balanceOf(address)": "2899",
						"getApproved(uint256)": "5183",
						"name()": "infinite",
						"owner()": "2589",
						"ownerOf(uint256)": "3085",
						"renounceOwnership()": "30419",
						"safeTransferFrom(address,address,uint256)": "infinite",
						"safeTransferFrom(address,address,uint256,bytes)": "infinite",
						"symbol()": "infinite",
						"tokenURI(uint256)": "3395",
						"transferFrom(address,address,uint256)": "infinite",
						"transferOwnership(address)": "30808"
					},
					"internal": {
						"_afterTokenTransfer(address,address,uint256)": "15",
						"_approve(address,uint256)": "infinite",
						"_baseURI()": "infinite",
						"_beforeTokenTransfer(address,address,uint256)": "infinite",
						"_burn(uint256)": "infinite",
						"_checkOnERC721Received(address,address,uint256,bytes memory)": "infinite",
						"_exists(uint256)": "2269",
						"_isApprovedOrOwner(address,uint256)": "infinite",
						"_mint(address,uint256)": "infinite",
						"_mintNew(uint256)": "infinite",
						"_safeMint(address,uint256)": "infinite",
						"_safeMint(address,uint256,bytes memory)": "infinite",
						"_safeTransfer(address,address,uint256,bytes memory)": "infinite",
						"_setApprovalForAll(address,address,bool)": "infinite",
						"_transfer(address,address,uint256)": "infinite"
					}
				},
				"methodIdentifiers": {
					"approve(address,uint256)": "095ea7b3",
					"balanceOf(address)": "70a08231",
					"getApproved(uint256)": "081812fc",
					"name()": "06fdde03",
					"owner()": "8da5cb5b",
					"ownerOf(uint256)": "6352211e",
					"renounceOwnership()": "715018a6",
					"safeTransferFrom(address,address,uint256)": "42842e0e",
					"safeTransferFrom(address,address,uint256,bytes)": "b88d4fde",
					"symbol()": "95d89b41",
					"tokenURI(uint256)": "c87b56dd",
					"transferFrom(address,address,uint256)": "23b872dd",
					"transferOwnership(address)": "f2fde38b"
				}
			},
			"storageLayout": {
				"storage": [
					{
						"astId": 516,
						"contract": "contracts/NFT_Demo/NFT.sol:ERC721",
						"label": "_owner",
						"offset": 0,
						"slot": "0",
						"type": "t_address"
					},
					{
						"astId": 731,
						"contract": "contracts/NFT_Demo/NFT.sol:ERC721",
						"label": "_balances",
						"offset": 0,
						"slot": "1",
						"type": "t_mapping(t_address,t_uint256)"
					},
					{
						"astId": 735,
						"contract": "contracts/NFT_Demo/NFT.sol:ERC721",
						"label": "_owners",
						"offset": 0,
						"slot": "2",
						"type": "t_mapping(t_uint256,t_address)"
					},
					{
						"astId": 739,
						"contract": "contracts/NFT_Demo/NFT.sol:ERC721",
						"label": "_tokenURIs",
						"offset": 0,
						"slot": "3",
						"type": "t_mapping(t_uint256,t_address)"
					},
					{
						"astId": 743,
						"contract": "contracts/NFT_Demo/NFT.sol:ERC721",
						"label": "_tokenApprovals",
						"offset": 0,
						"slot": "4",
						"type": "t_mapping(t_uint256,t_address)"
					},
					{
						"astId": 749,
						"contract": "contracts/NFT_Demo/NFT.sol:ERC721",
						"label": "_operatorApprovals",
						"offset": 0,
						"slot": "5",
						"type": "t_mapping(t_address,t_mapping(t_address,t_bool))"
					},
					{
						"astId": 751,
						"contract": "contracts/NFT_Demo/NFT.sol:ERC721",
						"label": "_name",
						"offset": 0,
						"slot": "6",
						"type": "t_string_storage"
					},
					{
						"astId": 753,
						"contract": "contracts/NFT_Demo/NFT.sol:ERC721",
						"label": "_symbol",
						"offset": 0,
						"slot": "7",
						"type": "t_string_storage"
					},
					{
						"astId": 755,
						"contract": "contracts/NFT_Demo/NFT.sol:ERC721",
						"label": "_tokenURIBase",
						"offset": 0,
						"slot": "8",
						"type": "t_string_storage"
					}
				],
				"types": {
					"t_address": {
						"encoding": "inplace",
						"label": "address",
						"numberOfBytes": "20"
					},
					"t_bool": {
						"encoding": "inplace",
						"label": "bool",
						"numberOfBytes": "1"
					},
					"t_mapping(t_address,t_bool)": {
						"encoding": "mapping",
						"key": "t_address",
						"label": "mapping(address => bool)",
						"numberOfBytes": "32",
						"value": "t_bool"
					},
					"t_mapping(t_address,t_mapping(t_address,t_bool))": {
						"encoding": "mapping",
						"key": "t_address",
						"label": "mapping(address => mapping(address => bool))",
						"numberOfBytes": "32",
						"value": "t_mapping(t_address,t_bool)"
					},
					"t_mapping(t_address,t_uint256)": {
						"encoding": "mapping",
						"key": "t_address",
						"label": "mapping(address => uint256)",
						"numberOfBytes": "32",
						"value": "t_uint256"
					},
					"t_mapping(t_uint256,t_address)": {
						"encoding": "mapping",
						"key": "t_uint256",
						"label": "mapping(uint256 => address)",
						"numberOfBytes": "32",
						"value": "t_address"
					},
					"t_string_storage": {
						"encoding": "bytes",
						"label": "string",
						"numberOfBytes": "32"
					},
					"t_uint256": {
						"encoding": "inplace",
						"label": "uint256",
						"numberOfBytes": "32"
					}
				}
			},
			"userdoc": {
				"kind": "user",
				"methods": {},
				"version": 1
			}
		}
	}
}