{
	"contracts/NFT_Demo/NFT.sol": {
		"SQFItem": {
			"abi": [
				{
					"inputs": [],
					"stateMutability": "nonpayable",
					"type": "constructor"
				},
				{
					"anonymous": false,
					"inputs": [
						{
							"indexed": true,
							"internalType": "address",
							"name": "owner",
							"type": "address"
						},
						{
							"indexed": true,
							"internalType": "address",
							"name": "approved",
							"type": "address"
						},
						{
							"indexed": true,
							"internalType": "uint256",
							"name": "tokenId",
							"type": "uint256"
						}
					],
					"name": "Approval",
					"type": "event"
				},
				{
					"anonymous": false,
					"inputs": [
						{
							"indexed": true,
							"internalType": "address",
							"name": "owner",
							"type": "address"
						},
						{
							"indexed": true,
							"internalType": "address",
							"name": "operator",
							"type": "address"
						},
						{
							"indexed": false,
							"internalType": "bool",
							"name": "approved",
							"type": "bool"
						}
					],
					"name": "ApprovalForAll",
					"type": "event"
				},
				{
					"anonymous": false,
					"inputs": [
						{
							"indexed": true,
							"internalType": "uint256",
							"name": "_tokenId",
							"type": "uint256"
						}
					],
					"name": "NewItem",
					"type": "event"
				},
				{
					"anonymous": false,
					"inputs": [
						{
							"indexed": true,
							"internalType": "address",
							"name": "previousOwner",
							"type": "address"
						},
						{
							"indexed": true,
							"internalType": "address",
							"name": "newOwner",
							"type": "address"
						}
					],
					"name": "OwnershipTransferred",
					"type": "event"
				},
				{
					"anonymous": false,
					"inputs": [
						{
							"indexed": true,
							"internalType": "address",
							"name": "from",
							"type": "address"
						},
						{
							"indexed": true,
							"internalType": "address",
							"name": "to",
							"type": "address"
						},
						{
							"indexed": true,
							"internalType": "uint256",
							"name": "tokenId",
							"type": "uint256"
						}
					],
					"name": "Transfer",
					"type": "event"
				},
				{
					"inputs": [
						{
							"internalType": "address",
							"name": "to",
							"type": "address"
						},
						{
							"internalType": "uint256",
							"name": "tokenId",
							"type": "uint256"
						}
					],
					"name": "approve",
					"outputs": [],
					"stateMutability": "nonpayable",
					"type": "function"
				},
				{
					"inputs": [
						{
							"internalType": "address",
							"name": "owner",
							"type": "address"
						}
					],
					"name": "balanceOf",
					"outputs": [
						{
							"internalType": "uint256",
							"name": "",
							"type": "uint256"
						}
					],
					"stateMutability": "view",
					"type": "function"
				},
				{
					"inputs": [
						{
							"internalType": "uint256",
							"name": "tokenId",
							"type": "uint256"
						}
					],
					"name": "getApproved",
					"outputs": [
						{
							"internalType": "address",
							"name": "",
							"type": "address"
						}
					],
					"stateMutability": "view",
					"type": "function"
				},
				{
					"inputs": [],
					"name": "name",
					"outputs": [
						{
							"internalType": "string",
							"name": "",
							"type": "string"
						}
					],
					"stateMutability": "view",
					"type": "function"
				},
				{
					"inputs": [
						{
							"internalType": "string",
							"name": "tokenURI_",
							"type": "string"
						}
					],
					"name": "newItem",
					"outputs": [],
					"stateMutability": "nonpayable",
					"type": "function"
				},
				{
					"inputs": [],
					"name": "nextId",
					"outputs": [
						{
							"internalType": "uint256",
							"name": "",
							"type": "uint256"
						}
					],
					"stateMutability": "view",
					"type": "function"
				},
				{
					"inputs": [],
					"name": "owner",
					"outputs": [
						{
							"internalType": "address",
							"name": "",
							"type": "address"
						}
					],
					"stateMutability": "view",
					"type": "function"
				},
				{
					"inputs": [
						{
							"internalType": "uint256",
							"name": "tokenId",
							"type": "uint256"
						}
					],
					"name": "ownerOf",
					"outputs": [
						{
							"internalType": "address",
							"name": "",
							"type": "address"
						}
					],
					"stateMutability": "view",
					"type": "function"
				},
				{
					"inputs": [],
					"name": "renounceOwnership",
					"outputs": [],
					"stateMutability": "nonpayable",
					"type": "function"
				},
				{
					"inputs": [
						{
							"internalType": "address",
							"name": "from",
							"type": "address"
						},
						{
							"internalType": "address",
							"name": "to",
							"type": "address"
						},
						{
							"internalType": "uint256",
							"name": "tokenId",
							"type": "uint256"
						}
					],
					"name": "safeTransferFrom",
					"outputs": [],
					"stateMutability": "nonpayable",
					"type": "function"
				},
				{
					"inputs": [
						{
							"internalType": "address",
							"name": "from",
							"type": "address"
						},
						{
							"internalType": "address",
							"name": "to",
							"type": "address"
						},
						{
							"internalType": "uint256",
							"name": "tokenId",
							"type": "uint256"
						},
						{
							"internalType": "bytes",
							"name": "_data",
							"type": "bytes"
						}
					],
					"name": "safeTransferFrom",
					"outputs": [],
					"stateMutability": "nonpayable",
					"type": "function"
				},
				{
					"inputs": [
						{
							"internalType": "string",
							"name": "baseURI_",
							"type": "string"
						}
					],
					"name": "setBaseURI",
					"outputs": [],
					"stateMutability": "nonpayable",
					"type": "function"
				},
				{
					"inputs": [],
					"name": "symbol",
					"outputs": [
						{
							"internalType": "string",
							"name": "",
							"type": "string"
						}
					],
					"stateMutability": "view",
					"type": "function"
				},
				{
					"inputs": [
						{
							"internalType": "uint256",
							"name": "tokenId",
							"type": "uint256"
						}
					],
					"name": "tokenURI",
					"outputs": [
						{
							"internalType": "string",
							"name": "",
							"type": "string"
						}
					],
					"stateMutability": "view",
					"type": "function"
				},
				{
					"inputs": [
						{
							"internalType": "address",
							"name": "from",
							"type": "address"
						},
						{
							"internalType": "address",
							"name": "to",
							"type": "address"
						},
						{
							"internalType": "uint256",
							"name": "tokenId",
							"type": "uint256"
						}
					],
					"name": "transferFrom",
					"outputs": [],
					"stateMutability": "nonpayable",
					"type": "function"
				},
				{
					"inputs": [
						{
							"internalType": "address",
							"name": "newOwner",
							"type": "address"
						}
					],
					"name": "transferOwnership",
					"outputs": [],
					"stateMutability": "nonpayable",
					"type": "function"
				}
			],
			"devdoc": {
				"kind": "dev",
				"methods": {},
				"version": 1
			},
			"evm": {
				"assembly": "    /* \"contracts/NFT_Demo/NFT.sol\":18030:19899  contract SQFItem is ERC721 {... */\n  mstore(0x40, 0x80)\n    /* \"contracts/NFT_Demo/NFT.sol\":18208:18209  1 */\n  0x01\n    /* \"contracts/NFT_Demo/NFT.sol\":18184:18209  uint256 public nextId = 1 */\n  0x0a\n  sstore\n    /* \"contracts/NFT_Demo/NFT.sol\":18316:18363  constructor() ERC721(\"SQFITEM\", \"SQFI\") {... */\n  callvalue\n  dup1\n  iszero\n  tag_1\n  jumpi\n  0x00\n  dup1\n  revert\ntag_1:\n  pop\n    /* \"contracts/NFT_Demo/NFT.sol\":9062:9175  constructor(string memory name_, string memory symbol_) {... */\n  mload(0x40)\n  dup1\n  0x40\n  add\n  0x40\n  mstore\n  dup1\n  0x07\n  dup2\n  mstore\n  0x20\n  add\n  0x5351464954454d00000000000000000000000000000000000000000000000000\n  dup2\n  mstore\n  pop\n  mload(0x40)\n  dup1\n  0x40\n  add\n  0x40\n  mstore\n  dup1\n  0x04\n  dup2\n  mstore\n  0x20\n  add\n  0x5351464900000000000000000000000000000000000000000000000000000000\n  dup2\n  mstore\n  pop\n    /* \"contracts/NFT_Demo/NFT.sol\":6281:6313  _transferOwnership(_msgSender()) */\n  tag_6\n    /* \"contracts/NFT_Demo/NFT.sol\":6300:6312  _msgSender() */\n  tag_7\n    /* \"contracts/NFT_Demo/NFT.sol\":6300:6310  _msgSender */\n  shl(0x20, tag_8)\n    /* \"contracts/NFT_Demo/NFT.sol\":6300:6312  _msgSender() */\n  0x20\n  shr\n  jump\t// in\ntag_7:\n    /* \"contracts/NFT_Demo/NFT.sol\":6281:6299  _transferOwnership */\n  shl(0x20, tag_9)\n    /* \"contracts/NFT_Demo/NFT.sol\":6281:6313  _transferOwnership(_msgSender()) */\n  0x20\n  shr\n  jump\t// in\ntag_6:\n    /* \"contracts/NFT_Demo/NFT.sol\":9136:9141  name_ */\n  dup2\n    /* \"contracts/NFT_Demo/NFT.sol\":9128:9133  _name */\n  0x06\n    /* \"contracts/NFT_Demo/NFT.sol\":9128:9141  _name = name_ */\n  swap1\n  dup1\n  mload\n  swap1\n  0x20\n  add\n  swap1\n  tag_11\n  swap3\n  swap2\n  swap1\n  tag_12\n  jump\t// in\ntag_11:\n  pop\n    /* \"contracts/NFT_Demo/NFT.sol\":9161:9168  symbol_ */\n  dup1\n    /* \"contracts/NFT_Demo/NFT.sol\":9151:9158  _symbol */\n  0x07\n    /* \"contracts/NFT_Demo/NFT.sol\":9151:9168  _symbol = symbol_ */\n  swap1\n  dup1\n  mload\n  swap1\n  0x20\n  add\n  swap1\n  tag_13\n  swap3\n  swap2\n  swap1\n  tag_12\n  jump\t// in\ntag_13:\n  pop\n    /* \"contracts/NFT_Demo/NFT.sol\":9062:9175  constructor(string memory name_, string memory symbol_) {... */\n  pop\n  pop\n    /* \"contracts/NFT_Demo/NFT.sol\":18030:19899  contract SQFItem is ERC721 {... */\n  jump(tag_15)\n    /* \"contracts/NFT_Demo/NFT.sol\":99:195  function _msgSender() internal view virtual returns (address) {... */\ntag_8:\n    /* \"contracts/NFT_Demo/NFT.sol\":152:159  address */\n  0x00\n    /* \"contracts/NFT_Demo/NFT.sol\":178:188  msg.sender */\n  caller\n    /* \"contracts/NFT_Demo/NFT.sol\":171:188  return msg.sender */\n  swap1\n  pop\n    /* \"contracts/NFT_Demo/NFT.sol\":99:195  function _msgSender() internal view virtual returns (address) {... */\n  swap1\n  jump\t// out\n    /* \"contracts/NFT_Demo/NFT.sol\":6885:7072  function _transferOwnership(address newOwner) internal virtual {... */\ntag_9:\n    /* \"contracts/NFT_Demo/NFT.sol\":6958:6974  address oldOwner */\n  0x00\n    /* \"contracts/NFT_Demo/NFT.sol\":6977:6983  _owner */\n  dup1\n  0x00\n  swap1\n  sload\n  swap1\n  0x0100\n  exp\n  swap1\n  div\n  0xffffffffffffffffffffffffffffffffffffffff\n  and\n    /* \"contracts/NFT_Demo/NFT.sol\":6958:6983  address oldOwner = _owner */\n  swap1\n  pop\n    /* \"contracts/NFT_Demo/NFT.sol\":7002:7010  newOwner */\n  dup2\n    /* \"contracts/NFT_Demo/NFT.sol\":6993:6999  _owner */\n  0x00\n  dup1\n    /* \"contracts/NFT_Demo/NFT.sol\":6993:7010  _owner = newOwner */\n  0x0100\n  exp\n  dup2\n  sload\n  dup2\n  0xffffffffffffffffffffffffffffffffffffffff\n  mul\n  not\n  and\n  swap1\n  dup4\n  0xffffffffffffffffffffffffffffffffffffffff\n  and\n  mul\n  or\n  swap1\n  sstore\n  pop\n    /* \"contracts/NFT_Demo/NFT.sol\":7056:7064  newOwner */\n  dup2\n    /* \"contracts/NFT_Demo/NFT.sol\":7025:7065  OwnershipTransferred(oldOwner, newOwner) */\n  0xffffffffffffffffffffffffffffffffffffffff\n  and\n    /* \"contracts/NFT_Demo/NFT.sol\":7046:7054  oldOwner */\n  dup2\n    /* \"contracts/NFT_Demo/NFT.sol\":7025:7065  OwnershipTransferred(oldOwner, newOwner) */\n  0xffffffffffffffffffffffffffffffffffffffff\n  and\n  0x8be0079c531659141344cd1fd0a4f28419497f9722a3daafe3b4186f6b6457e0\n  mload(0x40)\n  mload(0x40)\n  dup1\n  swap2\n  sub\n  swap1\n  log3\n    /* \"contracts/NFT_Demo/NFT.sol\":6948:7072  {... */\n  pop\n    /* \"contracts/NFT_Demo/NFT.sol\":6885:7072  function _transferOwnership(address newOwner) internal virtual {... */\n  pop\n  jump\t// out\n    /* \"contracts/NFT_Demo/NFT.sol\":18030:19899  contract SQFItem is ERC721 {... */\ntag_12:\n  dup3\n  dup1\n  sload\n  tag_18\n  swap1\n  tag_19\n  jump\t// in\ntag_18:\n  swap1\n  0x00\n  mstore\n  keccak256(0x00, 0x20)\n  swap1\n  0x1f\n  add\n  0x20\n  swap1\n  div\n  dup2\n  add\n  swap3\n  dup3\n  tag_21\n  jumpi\n  0x00\n  dup6\n  sstore\n  jump(tag_20)\ntag_21:\n  dup3\n  0x1f\n  lt\n  tag_22\n  jumpi\n  dup1\n  mload\n  not(0xff)\n  and\n  dup4\n  dup1\n  add\n  or\n  dup6\n  sstore\n  jump(tag_20)\ntag_22:\n  dup3\n  dup1\n  add\n  0x01\n  add\n  dup6\n  sstore\n  dup3\n  iszero\n  tag_20\n  jumpi\n  swap2\n  dup3\n  add\ntag_23:\n  dup3\n  dup2\n  gt\n  iszero\n  tag_24\n  jumpi\n  dup3\n  mload\n  dup3\n  sstore\n  swap2\n  0x20\n  add\n  swap2\n  swap1\n  0x01\n  add\n  swap1\n  jump(tag_23)\ntag_24:\ntag_20:\n  pop\n  swap1\n  pop\n  tag_25\n  swap2\n  swap1\n  tag_26\n  jump\t// in\ntag_25:\n  pop\n  swap1\n  jump\t// out\ntag_26:\ntag_27:\n  dup1\n  dup3\n  gt\n  iszero\n  tag_28\n  jumpi\n  0x00\n  dup2\n  0x00\n  swap1\n  sstore\n  pop\n  0x01\n  add\n  jump(tag_27)\ntag_28:\n  pop\n  swap1\n  jump\t// out\n    /* \"#utility.yul\":7:187   */\ntag_29:\n    /* \"#utility.yul\":55:132   */\n  0x4e487b7100000000000000000000000000000000000000000000000000000000\n    /* \"#utility.yul\":52:53   */\n  0x00\n    /* \"#utility.yul\":45:133   */\n  mstore\n    /* \"#utility.yul\":152:156   */\n  0x22\n    /* \"#utility.yul\":149:150   */\n  0x04\n    /* \"#utility.yul\":142:157   */\n  mstore\n    /* \"#utility.yul\":176:180   */\n  0x24\n    /* \"#utility.yul\":173:174   */\n  0x00\n    /* \"#utility.yul\":166:181   */\n  revert\n    /* \"#utility.yul\":193:513   */\ntag_19:\n    /* \"#utility.yul\":237:243   */\n  0x00\n    /* \"#utility.yul\":274:275   */\n  0x02\n    /* \"#utility.yul\":268:272   */\n  dup3\n    /* \"#utility.yul\":264:276   */\n  div\n    /* \"#utility.yul\":254:276   */\n  swap1\n  pop\n    /* \"#utility.yul\":321:322   */\n  0x01\n    /* \"#utility.yul\":315:319   */\n  dup3\n    /* \"#utility.yul\":311:323   */\n  and\n    /* \"#utility.yul\":342:360   */\n  dup1\n    /* \"#utility.yul\":332:413   */\n  tag_33\n  jumpi\n    /* \"#utility.yul\":398:402   */\n  0x7f\n    /* \"#utility.yul\":390:396   */\n  dup3\n    /* \"#utility.yul\":386:403   */\n  and\n    /* \"#utility.yul\":376:403   */\n  swap2\n  pop\n    /* \"#utility.yul\":332:413   */\ntag_33:\n    /* \"#utility.yul\":460:462   */\n  0x20\n    /* \"#utility.yul\":452:458   */\n  dup3\n    /* \"#utility.yul\":449:463   */\n  lt\n    /* \"#utility.yul\":429:447   */\n  dup2\n    /* \"#utility.yul\":426:464   */\n  sub\n    /* \"#utility.yul\":423:507   */\n  tag_34\n  jumpi\n    /* \"#utility.yul\":479:497   */\n  tag_35\n  tag_29\n  jump\t// in\ntag_35:\n    /* \"#utility.yul\":423:507   */\ntag_34:\n    /* \"#utility.yul\":244:513   */\n  pop\n    /* \"#utility.yul\":193:513   */\n  swap2\n  swap1\n  pop\n  jump\t// out\n    /* \"contracts/NFT_Demo/NFT.sol\":18030:19899  contract SQFItem is ERC721 {... */\ntag_15:\n  dataSize(sub_0)\n  dup1\n  dataOffset(sub_0)\n  0x00\n  codecopy\n  0x00\n  return\nstop\n\nsub_0: assembly {\n        /* \"contracts/NFT_Demo/NFT.sol\":18030:19899  contract SQFItem is ERC721 {... */\n      mstore(0x40, 0x80)\n      callvalue\n      dup1\n      iszero\n      tag_1\n      jumpi\n      0x00\n      dup1\n      revert\n    tag_1:\n      pop\n      jumpi(tag_2, lt(calldatasize, 0x04))\n      shr(0xe0, calldataload(0x00))\n      dup1\n      0x659b3c43\n      gt\n      tag_19\n      jumpi\n      dup1\n      0x95d89b41\n      gt\n      tag_20\n      jumpi\n      dup1\n      0x95d89b41\n      eq\n      tag_15\n      jumpi\n      dup1\n      0xb88d4fde\n      eq\n      tag_16\n      jumpi\n      dup1\n      0xc87b56dd\n      eq\n      tag_17\n      jumpi\n      dup1\n      0xf2fde38b\n      eq\n      tag_18\n      jumpi\n      jump(tag_2)\n    tag_20:\n      dup1\n      0x659b3c43\n      eq\n      tag_11\n      jumpi\n      dup1\n      0x70a08231\n      eq\n      tag_12\n      jumpi\n      dup1\n      0x715018a6\n      eq\n      tag_13\n      jumpi\n      dup1\n      0x8da5cb5b\n      eq\n      tag_14\n      jumpi\n      jump(tag_2)\n    tag_19:\n      dup1\n      0x42842e0e\n      gt\n      tag_21\n      jumpi\n      dup1\n      0x42842e0e\n      eq\n      tag_7\n      jumpi\n      dup1\n      0x55f804b3\n      eq\n      tag_8\n      jumpi\n      dup1\n      0x61b8ce8c\n      eq\n      tag_9\n      jumpi\n      dup1\n      0x6352211e\n      eq\n      tag_10\n      jumpi\n      jump(tag_2)\n    tag_21:\n      dup1\n      0x06fdde03\n      eq\n      tag_3\n      jumpi\n      dup1\n      0x081812fc\n      eq\n      tag_4\n      jumpi\n      dup1\n      0x095ea7b3\n      eq\n      tag_5\n      jumpi\n      dup1\n      0x23b872dd\n      eq\n      tag_6\n      jumpi\n    tag_2:\n      0x00\n      dup1\n      revert\n        /* \"contracts/NFT_Demo/NFT.sol\":10246:10344  function name() public view virtual override returns (string memory) {... */\n    tag_3:\n      tag_22\n      tag_23\n      jump\t// in\n    tag_22:\n      mload(0x40)\n      tag_24\n      swap2\n      swap1\n      tag_25\n      jump\t// in\n    tag_24:\n      mload(0x40)\n      dup1\n      swap2\n      sub\n      swap1\n      return\n        /* \"contracts/NFT_Demo/NFT.sol\":10922:11217  function getApproved(uint256 tokenId)... */\n    tag_4:\n      tag_26\n      0x04\n      dup1\n      calldatasize\n      sub\n      dup2\n      add\n      swap1\n      tag_27\n      swap2\n      swap1\n      tag_28\n      jump\t// in\n    tag_27:\n      tag_29\n      jump\t// in\n    tag_26:\n      mload(0x40)\n      tag_30\n      swap2\n      swap1\n      tag_31\n      jump\t// in\n    tag_30:\n      mload(0x40)\n      dup1\n      swap2\n      sub\n      swap1\n      return\n        /* \"contracts/NFT_Demo/NFT.sol\":10556:10916  function approve(address to, uint256 tokenId) public virtual override {... */\n    tag_5:\n      tag_32\n      0x04\n      dup1\n      calldatasize\n      sub\n      dup2\n      add\n      swap1\n      tag_33\n      swap2\n      swap1\n      tag_34\n      jump\t// in\n    tag_33:\n      tag_35\n      jump\t// in\n    tag_32:\n      stop\n        /* \"contracts/NFT_Demo/NFT.sol\":11223:11535  function transferFrom(... */\n    tag_6:\n      tag_36\n      0x04\n      dup1\n      calldatasize\n      sub\n      dup2\n      add\n      swap1\n      tag_37\n      swap2\n      swap1\n      tag_38\n      jump\t// in\n    tag_37:\n      tag_39\n      jump\t// in\n    tag_36:\n      stop\n        /* \"contracts/NFT_Demo/NFT.sol\":11541:11720  function safeTransferFrom(... */\n    tag_7:\n      tag_40\n      0x04\n      dup1\n      calldatasize\n      sub\n      dup2\n      add\n      swap1\n      tag_41\n      swap2\n      swap1\n      tag_38\n      jump\t// in\n    tag_41:\n      tag_42\n      jump\t// in\n    tag_40:\n      stop\n        /* \"contracts/NFT_Demo/NFT.sol\":18369:18476  function setBaseURI(string memory baseURI_) external onlyOwner {... */\n    tag_8:\n      tag_43\n      0x04\n      dup1\n      calldatasize\n      sub\n      dup2\n      add\n      swap1\n      tag_44\n      swap2\n      swap1\n      tag_45\n      jump\t// in\n    tag_44:\n      tag_46\n      jump\t// in\n    tag_43:\n      stop\n        /* \"contracts/NFT_Demo/NFT.sol\":18184:18209  uint256 public nextId = 1 */\n    tag_9:\n      tag_47\n      tag_48\n      jump\t// in\n    tag_47:\n      mload(0x40)\n      tag_49\n      swap2\n      swap1\n      tag_50\n      jump\t// in\n    tag_49:\n      mload(0x40)\n      dup1\n      swap2\n      sub\n      swap1\n      return\n        /* \"contracts/NFT_Demo/NFT.sol\":9927:10240  function ownerOf(uint256 tokenId)... */\n    tag_10:\n      tag_51\n      0x04\n      dup1\n      calldatasize\n      sub\n      dup2\n      add\n      swap1\n      tag_52\n      swap2\n      swap1\n      tag_28\n      jump\t// in\n    tag_52:\n      tag_53\n      jump\t// in\n    tag_51:\n      mload(0x40)\n      tag_54\n      swap2\n      swap1\n      tag_31\n      jump\t// in\n    tag_54:\n      mload(0x40)\n      dup1\n      swap2\n      sub\n      swap1\n      return\n        /* \"contracts/NFT_Demo/NFT.sol\":19736:19897  function newItem(string memory tokenURI_) external onlyOwner {... */\n    tag_11:\n      tag_55\n      0x04\n      dup1\n      calldatasize\n      sub\n      dup2\n      add\n      swap1\n      tag_56\n      swap2\n      swap1\n      tag_45\n      jump\t// in\n    tag_56:\n      tag_57\n      jump\t// in\n    tag_55:\n      stop\n        /* \"contracts/NFT_Demo/NFT.sol\":9638:9921  function balanceOf(address owner)... */\n    tag_12:\n      tag_58\n      0x04\n      dup1\n      calldatasize\n      sub\n      dup2\n      add\n      swap1\n      tag_59\n      swap2\n      swap1\n      tag_60\n      jump\t// in\n    tag_59:\n      tag_61\n      jump\t// in\n    tag_58:\n      mload(0x40)\n      tag_62\n      swap2\n      swap1\n      tag_50\n      jump\t// in\n    tag_62:\n      mload(0x40)\n      dup1\n      swap2\n      sub\n      swap1\n      return\n        /* \"contracts/NFT_Demo/NFT.sol\":6540:6641  function renounceOwnership() public virtual onlyOwner {... */\n    tag_13:\n      tag_63\n      tag_64\n      jump\t// in\n    tag_63:\n      stop\n        /* \"contracts/NFT_Demo/NFT.sol\":6326:6411  function owner() public view virtual returns (address) {... */\n    tag_14:\n      tag_65\n      tag_66\n      jump\t// in\n    tag_65:\n      mload(0x40)\n      tag_67\n      swap2\n      swap1\n      tag_31\n      jump\t// in\n    tag_67:\n      mload(0x40)\n      dup1\n      swap2\n      sub\n      swap1\n      return\n        /* \"contracts/NFT_Demo/NFT.sol\":10350:10452  function symbol() public view virtual override returns (string memory) {... */\n    tag_15:\n      tag_68\n      tag_69\n      jump\t// in\n    tag_68:\n      mload(0x40)\n      tag_70\n      swap2\n      swap1\n      tag_25\n      jump\t// in\n    tag_70:\n      mload(0x40)\n      dup1\n      swap2\n      sub\n      swap1\n      return\n        /* \"contracts/NFT_Demo/NFT.sol\":11726:12080  function safeTransferFrom(... */\n    tag_16:\n      tag_71\n      0x04\n      dup1\n      calldatasize\n      sub\n      dup2\n      add\n      swap1\n      tag_72\n      swap2\n      swap1\n      tag_73\n      jump\t// in\n    tag_72:\n      tag_74\n      jump\t// in\n    tag_71:\n      stop\n        /* \"contracts/NFT_Demo/NFT.sol\":18875:19730  function tokenURI(uint256 tokenId)... */\n    tag_17:\n      tag_75\n      0x04\n      dup1\n      calldatasize\n      sub\n      dup2\n      add\n      swap1\n      tag_76\n      swap2\n      swap1\n      tag_28\n      jump\t// in\n    tag_76:\n      tag_77\n      jump\t// in\n    tag_75:\n      mload(0x40)\n      tag_78\n      swap2\n      swap1\n      tag_25\n      jump\t// in\n    tag_78:\n      mload(0x40)\n      dup1\n      swap2\n      sub\n      swap1\n      return\n        /* \"contracts/NFT_Demo/NFT.sol\":6647:6879  function transferOwnership(address newOwner) public virtual onlyOwner {... */\n    tag_18:\n      tag_79\n      0x04\n      dup1\n      calldatasize\n      sub\n      dup2\n      add\n      swap1\n      tag_80\n      swap2\n      swap1\n      tag_60\n      jump\t// in\n    tag_80:\n      tag_81\n      jump\t// in\n    tag_79:\n      stop\n        /* \"contracts/NFT_Demo/NFT.sol\":10246:10344  function name() public view virtual override returns (string memory) {... */\n    tag_23:\n        /* \"contracts/NFT_Demo/NFT.sol\":10300:10313  string memory */\n      0x60\n        /* \"contracts/NFT_Demo/NFT.sol\":10332:10337  _name */\n      0x06\n        /* \"contracts/NFT_Demo/NFT.sol\":10325:10337  return _name */\n      dup1\n      sload\n      tag_83\n      swap1\n      tag_84\n      jump\t// in\n    tag_83:\n      dup1\n      0x1f\n      add\n      0x20\n      dup1\n      swap2\n      div\n      mul\n      0x20\n      add\n      mload(0x40)\n      swap1\n      dup2\n      add\n      0x40\n      mstore\n      dup1\n      swap3\n      swap2\n      swap1\n      dup2\n      dup2\n      mstore\n      0x20\n      add\n      dup3\n      dup1\n      sload\n      tag_85\n      swap1\n      tag_84\n      jump\t// in\n    tag_85:\n      dup1\n      iszero\n      tag_86\n      jumpi\n      dup1\n      0x1f\n      lt\n      tag_87\n      jumpi\n      0x0100\n      dup1\n      dup4\n      sload\n      div\n      mul\n      dup4\n      mstore\n      swap2\n      0x20\n      add\n      swap2\n      jump(tag_86)\n    tag_87:\n      dup3\n      add\n      swap2\n      swap1\n      0x00\n      mstore\n      keccak256(0x00, 0x20)\n      swap1\n    tag_88:\n      dup2\n      sload\n      dup2\n      mstore\n      swap1\n      0x01\n      add\n      swap1\n      0x20\n      add\n      dup1\n      dup4\n      gt\n      tag_88\n      jumpi\n      dup3\n      swap1\n      sub\n      0x1f\n      and\n      dup3\n      add\n      swap2\n    tag_86:\n      pop\n      pop\n      pop\n      pop\n      pop\n      swap1\n      pop\n        /* \"contracts/NFT_Demo/NFT.sol\":10246:10344  function name() public view virtual override returns (string memory) {... */\n      swap1\n      jump\t// out\n        /* \"contracts/NFT_Demo/NFT.sol\":10922:11217  function getApproved(uint256 tokenId)... */\n    tag_29:\n        /* \"contracts/NFT_Demo/NFT.sol\":11038:11045  address */\n      0x00\n        /* \"contracts/NFT_Demo/NFT.sol\":11082:11098  _exists(tokenId) */\n      tag_90\n        /* \"contracts/NFT_Demo/NFT.sol\":11090:11097  tokenId */\n      dup3\n        /* \"contracts/NFT_Demo/NFT.sol\":11082:11089  _exists */\n      tag_91\n        /* \"contracts/NFT_Demo/NFT.sol\":11082:11098  _exists(tokenId) */\n      jump\t// in\n    tag_90:\n        /* \"contracts/NFT_Demo/NFT.sol\":11061:11168  require(... */\n      tag_92\n      jumpi\n      mload(0x40)\n      0x08c379a000000000000000000000000000000000000000000000000000000000\n      dup2\n      mstore\n      0x04\n      add\n      tag_93\n      swap1\n      tag_94\n      jump\t// in\n    tag_93:\n      mload(0x40)\n      dup1\n      swap2\n      sub\n      swap1\n      revert\n    tag_92:\n        /* \"contracts/NFT_Demo/NFT.sol\":11186:11201  _tokenApprovals */\n      0x04\n        /* \"contracts/NFT_Demo/NFT.sol\":11186:11210  _tokenApprovals[tokenId] */\n      0x00\n        /* \"contracts/NFT_Demo/NFT.sol\":11202:11209  tokenId */\n      dup4\n        /* \"contracts/NFT_Demo/NFT.sol\":11186:11210  _tokenApprovals[tokenId] */\n      dup2\n      mstore\n      0x20\n      add\n      swap1\n      dup2\n      mstore\n      0x20\n      add\n      0x00\n      keccak256\n      0x00\n      swap1\n      sload\n      swap1\n      0x0100\n      exp\n      swap1\n      div\n      0xffffffffffffffffffffffffffffffffffffffff\n      and\n        /* \"contracts/NFT_Demo/NFT.sol\":11179:11210  return _tokenApprovals[tokenId] */\n      swap1\n      pop\n        /* \"contracts/NFT_Demo/NFT.sol\":10922:11217  function getApproved(uint256 tokenId)... */\n      swap2\n      swap1\n      pop\n      jump\t// out\n        /* \"contracts/NFT_Demo/NFT.sol\":10556:10916  function approve(address to, uint256 tokenId) public virtual override {... */\n    tag_35:\n        /* \"contracts/NFT_Demo/NFT.sol\":10636:10649  address owner */\n      0x00\n        /* \"contracts/NFT_Demo/NFT.sol\":10652:10675  ERC721.ownerOf(tokenId) */\n      tag_96\n        /* \"contracts/NFT_Demo/NFT.sol\":10667:10674  tokenId */\n      dup3\n        /* \"contracts/NFT_Demo/NFT.sol\":10652:10666  ERC721.ownerOf */\n      tag_53\n        /* \"contracts/NFT_Demo/NFT.sol\":10652:10675  ERC721.ownerOf(tokenId) */\n      jump\t// in\n    tag_96:\n        /* \"contracts/NFT_Demo/NFT.sol\":10636:10675  address owner = ERC721.ownerOf(tokenId) */\n      swap1\n      pop\n        /* \"contracts/NFT_Demo/NFT.sol\":10699:10704  owner */\n      dup1\n        /* \"contracts/NFT_Demo/NFT.sol\":10693:10704  to != owner */\n      0xffffffffffffffffffffffffffffffffffffffff\n      and\n        /* \"contracts/NFT_Demo/NFT.sol\":10693:10695  to */\n      dup4\n        /* \"contracts/NFT_Demo/NFT.sol\":10693:10704  to != owner */\n      0xffffffffffffffffffffffffffffffffffffffff\n      and\n      sub\n        /* \"contracts/NFT_Demo/NFT.sol\":10685:10742  require(to != owner, \"ERC721: approval to current owner\") */\n      tag_97\n      jumpi\n      mload(0x40)\n      0x08c379a000000000000000000000000000000000000000000000000000000000\n      dup2\n      mstore\n      0x04\n      add\n      tag_98\n      swap1\n      tag_99\n      jump\t// in\n    tag_98:\n      mload(0x40)\n      dup1\n      swap2\n      sub\n      swap1\n      revert\n    tag_97:\n        /* \"contracts/NFT_Demo/NFT.sol\":10790:10795  owner */\n      dup1\n        /* \"contracts/NFT_Demo/NFT.sol\":10774:10795  _msgSender() == owner */\n      0xffffffffffffffffffffffffffffffffffffffff\n      and\n        /* \"contracts/NFT_Demo/NFT.sol\":10774:10786  _msgSender() */\n      tag_100\n        /* \"contracts/NFT_Demo/NFT.sol\":10774:10784  _msgSender */\n      tag_101\n        /* \"contracts/NFT_Demo/NFT.sol\":10774:10786  _msgSender() */\n      jump\t// in\n    tag_100:\n        /* \"contracts/NFT_Demo/NFT.sol\":10774:10795  _msgSender() == owner */\n      0xffffffffffffffffffffffffffffffffffffffff\n      and\n      eq\n        /* \"contracts/NFT_Demo/NFT.sol\":10753:10877  require(... */\n      tag_102\n      jumpi\n      mload(0x40)\n      0x08c379a000000000000000000000000000000000000000000000000000000000\n      dup2\n      mstore\n      0x04\n      add\n      tag_103\n      swap1\n      tag_104\n      jump\t// in\n    tag_103:\n      mload(0x40)\n      dup1\n      swap2\n      sub\n      swap1\n      revert\n    tag_102:\n        /* \"contracts/NFT_Demo/NFT.sol\":10888:10909  _approve(to, tokenId) */\n      tag_105\n        /* \"contracts/NFT_Demo/NFT.sol\":10897:10899  to */\n      dup4\n        /* \"contracts/NFT_Demo/NFT.sol\":10901:10908  tokenId */\n      dup4\n        /* \"contracts/NFT_Demo/NFT.sol\":10888:10896  _approve */\n      tag_106\n        /* \"contracts/NFT_Demo/NFT.sol\":10888:10909  _approve(to, tokenId) */\n      jump\t// in\n    tag_105:\n        /* \"contracts/NFT_Demo/NFT.sol\":10626:10916  {... */\n      pop\n        /* \"contracts/NFT_Demo/NFT.sol\":10556:10916  function approve(address to, uint256 tokenId) public virtual override {... */\n      pop\n      pop\n      jump\t// out\n        /* \"contracts/NFT_Demo/NFT.sol\":11223:11535  function transferFrom(... */\n    tag_39:\n        /* \"contracts/NFT_Demo/NFT.sol\":11373:11414  _isApprovedOrOwner(_msgSender(), tokenId) */\n      tag_108\n        /* \"contracts/NFT_Demo/NFT.sol\":11392:11404  _msgSender() */\n      tag_109\n        /* \"contracts/NFT_Demo/NFT.sol\":11392:11402  _msgSender */\n      tag_101\n        /* \"contracts/NFT_Demo/NFT.sol\":11392:11404  _msgSender() */\n      jump\t// in\n    tag_109:\n        /* \"contracts/NFT_Demo/NFT.sol\":11406:11413  tokenId */\n      dup3\n        /* \"contracts/NFT_Demo/NFT.sol\":11373:11391  _isApprovedOrOwner */\n      tag_110\n        /* \"contracts/NFT_Demo/NFT.sol\":11373:11414  _isApprovedOrOwner(_msgSender(), tokenId) */\n      jump\t// in\n    tag_108:\n        /* \"contracts/NFT_Demo/NFT.sol\":11352:11489  require(... */\n      tag_111\n      jumpi\n      mload(0x40)\n      0x08c379a000000000000000000000000000000000000000000000000000000000\n      dup2\n      mstore\n      0x04\n      add\n      tag_112\n      swap1\n      tag_113\n      jump\t// in\n    tag_112:\n      mload(0x40)\n      dup1\n      swap2\n      sub\n      swap1\n      revert\n    tag_111:\n        /* \"contracts/NFT_Demo/NFT.sol\":11500:11528  _transfer(from, to, tokenId) */\n      tag_114\n        /* \"contracts/NFT_Demo/NFT.sol\":11510:11514  from */\n      dup4\n        /* \"contracts/NFT_Demo/NFT.sol\":11516:11518  to */\n      dup4\n        /* \"contracts/NFT_Demo/NFT.sol\":11520:11527  tokenId */\n      dup4\n        /* \"contracts/NFT_Demo/NFT.sol\":11500:11509  _transfer */\n      tag_115\n        /* \"contracts/NFT_Demo/NFT.sol\":11500:11528  _transfer(from, to, tokenId) */\n      jump\t// in\n    tag_114:\n        /* \"contracts/NFT_Demo/NFT.sol\":11223:11535  function transferFrom(... */\n      pop\n      pop\n      pop\n      jump\t// out\n        /* \"contracts/NFT_Demo/NFT.sol\":11541:11720  function safeTransferFrom(... */\n    tag_42:\n        /* \"contracts/NFT_Demo/NFT.sol\":11674:11713  safeTransferFrom(from, to, tokenId, \"\") */\n      tag_117\n        /* \"contracts/NFT_Demo/NFT.sol\":11691:11695  from */\n      dup4\n        /* \"contracts/NFT_Demo/NFT.sol\":11697:11699  to */\n      dup4\n        /* \"contracts/NFT_Demo/NFT.sol\":11701:11708  tokenId */\n      dup4\n        /* \"contracts/NFT_Demo/NFT.sol\":11674:11713  safeTransferFrom(from, to, tokenId, \"\") */\n      mload(0x40)\n      dup1\n      0x20\n      add\n      0x40\n      mstore\n      dup1\n      0x00\n      dup2\n      mstore\n      pop\n        /* \"contracts/NFT_Demo/NFT.sol\":11674:11690  safeTransferFrom */\n      tag_74\n        /* \"contracts/NFT_Demo/NFT.sol\":11674:11713  safeTransferFrom(from, to, tokenId, \"\") */\n      jump\t// in\n    tag_117:\n        /* \"contracts/NFT_Demo/NFT.sol\":11541:11720  function safeTransferFrom(... */\n      pop\n      pop\n      pop\n      jump\t// out\n        /* \"contracts/NFT_Demo/NFT.sol\":18369:18476  function setBaseURI(string memory baseURI_) external onlyOwner {... */\n    tag_46:\n        /* \"contracts/NFT_Demo/NFT.sol\":6467:6479  _msgSender() */\n      tag_119\n        /* \"contracts/NFT_Demo/NFT.sol\":6467:6477  _msgSender */\n      tag_101\n        /* \"contracts/NFT_Demo/NFT.sol\":6467:6479  _msgSender() */\n      jump\t// in\n    tag_119:\n        /* \"contracts/NFT_Demo/NFT.sol\":6456:6479  owner() == _msgSender() */\n      0xffffffffffffffffffffffffffffffffffffffff\n      and\n        /* \"contracts/NFT_Demo/NFT.sol\":6456:6463  owner() */\n      tag_120\n        /* \"contracts/NFT_Demo/NFT.sol\":6456:6461  owner */\n      tag_66\n        /* \"contracts/NFT_Demo/NFT.sol\":6456:6463  owner() */\n      jump\t// in\n    tag_120:\n        /* \"contracts/NFT_Demo/NFT.sol\":6456:6479  owner() == _msgSender() */\n      0xffffffffffffffffffffffffffffffffffffffff\n      and\n      eq\n        /* \"contracts/NFT_Demo/NFT.sol\":6448:6516  require(owner() == _msgSender(), \"Ownable: caller is not the owner\") */\n      tag_121\n      jumpi\n      mload(0x40)\n      0x08c379a000000000000000000000000000000000000000000000000000000000\n      dup2\n      mstore\n      0x04\n      add\n      tag_122\n      swap1\n      tag_123\n      jump\t// in\n    tag_122:\n      mload(0x40)\n      dup1\n      swap2\n      sub\n      swap1\n      revert\n    tag_121:\n        /* \"contracts/NFT_Demo/NFT.sol\":18461:18469  baseURI_ */\n      dup1\n        /* \"contracts/NFT_Demo/NFT.sol\":18442:18458  _baseURIextended */\n      0x09\n        /* \"contracts/NFT_Demo/NFT.sol\":18442:18469  _baseURIextended = baseURI_ */\n      swap1\n      dup1\n      mload\n      swap1\n      0x20\n      add\n      swap1\n      tag_125\n      swap3\n      swap2\n      swap1\n      tag_126\n      jump\t// in\n    tag_125:\n      pop\n        /* \"contracts/NFT_Demo/NFT.sol\":18369:18476  function setBaseURI(string memory baseURI_) external onlyOwner {... */\n      pop\n      jump\t// out\n        /* \"contracts/NFT_Demo/NFT.sol\":18184:18209  uint256 public nextId = 1 */\n    tag_48:\n      sload(0x0a)\n      dup2\n      jump\t// out\n        /* \"contracts/NFT_Demo/NFT.sol\":9927:10240  function ownerOf(uint256 tokenId)... */\n    tag_53:\n        /* \"contracts/NFT_Demo/NFT.sol\":10039:10046  address */\n      0x00\n        /* \"contracts/NFT_Demo/NFT.sol\":10062:10075  address owner */\n      dup1\n        /* \"contracts/NFT_Demo/NFT.sol\":10078:10085  _owners */\n      0x02\n        /* \"contracts/NFT_Demo/NFT.sol\":10078:10094  _owners[tokenId] */\n      0x00\n        /* \"contracts/NFT_Demo/NFT.sol\":10086:10093  tokenId */\n      dup5\n        /* \"contracts/NFT_Demo/NFT.sol\":10078:10094  _owners[tokenId] */\n      dup2\n      mstore\n      0x20\n      add\n      swap1\n      dup2\n      mstore\n      0x20\n      add\n      0x00\n      keccak256\n      0x00\n      swap1\n      sload\n      swap1\n      0x0100\n      exp\n      swap1\n      div\n      0xffffffffffffffffffffffffffffffffffffffff\n      and\n        /* \"contracts/NFT_Demo/NFT.sol\":10062:10094  address owner = _owners[tokenId] */\n      swap1\n      pop\n        /* \"contracts/NFT_Demo/NFT.sol\":10142:10143  0 */\n      0x00\n        /* \"contracts/NFT_Demo/NFT.sol\":10125:10144  owner != address(0) */\n      0xffffffffffffffffffffffffffffffffffffffff\n      and\n        /* \"contracts/NFT_Demo/NFT.sol\":10125:10130  owner */\n      dup2\n        /* \"contracts/NFT_Demo/NFT.sol\":10125:10144  owner != address(0) */\n      0xffffffffffffffffffffffffffffffffffffffff\n      and\n      sub\n        /* \"contracts/NFT_Demo/NFT.sol\":10104:10211  require(... */\n      tag_128\n      jumpi\n      mload(0x40)\n      0x08c379a000000000000000000000000000000000000000000000000000000000\n      dup2\n      mstore\n      0x04\n      add\n      tag_129\n      swap1\n      tag_130\n      jump\t// in\n    tag_129:\n      mload(0x40)\n      dup1\n      swap2\n      sub\n      swap1\n      revert\n    tag_128:\n        /* \"contracts/NFT_Demo/NFT.sol\":10228:10233  owner */\n      dup1\n        /* \"contracts/NFT_Demo/NFT.sol\":10221:10233  return owner */\n      swap2\n      pop\n      pop\n        /* \"contracts/NFT_Demo/NFT.sol\":9927:10240  function ownerOf(uint256 tokenId)... */\n      swap2\n      swap1\n      pop\n      jump\t// out\n        /* \"contracts/NFT_Demo/NFT.sol\":19736:19897  function newItem(string memory tokenURI_) external onlyOwner {... */\n    tag_57:\n        /* \"contracts/NFT_Demo/NFT.sol\":6467:6479  _msgSender() */\n      tag_132\n        /* \"contracts/NFT_Demo/NFT.sol\":6467:6477  _msgSender */\n      tag_101\n        /* \"contracts/NFT_Demo/NFT.sol\":6467:6479  _msgSender() */\n      jump\t// in\n    tag_132:\n        /* \"contracts/NFT_Demo/NFT.sol\":6456:6479  owner() == _msgSender() */\n      0xffffffffffffffffffffffffffffffffffffffff\n      and\n        /* \"contracts/NFT_Demo/NFT.sol\":6456:6463  owner() */\n      tag_133\n        /* \"contracts/NFT_Demo/NFT.sol\":6456:6461  owner */\n      tag_66\n        /* \"contracts/NFT_Demo/NFT.sol\":6456:6463  owner() */\n      jump\t// in\n    tag_133:\n        /* \"contracts/NFT_Demo/NFT.sol\":6456:6479  owner() == _msgSender() */\n      0xffffffffffffffffffffffffffffffffffffffff\n      and\n      eq\n        /* \"contracts/NFT_Demo/NFT.sol\":6448:6516  require(owner() == _msgSender(), \"Ownable: caller is not the owner\") */\n      tag_134\n      jumpi\n      mload(0x40)\n      0x08c379a000000000000000000000000000000000000000000000000000000000\n      dup2\n      mstore\n      0x04\n      add\n      tag_135\n      swap1\n      tag_123\n      jump\t// in\n    tag_135:\n      mload(0x40)\n      dup1\n      swap2\n      sub\n      swap1\n      revert\n    tag_134:\n        /* \"contracts/NFT_Demo/NFT.sol\":19815:19831  _mintNew(nextId) */\n      tag_137\n        /* \"contracts/NFT_Demo/NFT.sol\":19824:19830  nextId */\n      sload(0x0a)\n        /* \"contracts/NFT_Demo/NFT.sol\":19815:19823  _mintNew */\n      tag_138\n        /* \"contracts/NFT_Demo/NFT.sol\":19815:19831  _mintNew(nextId) */\n      jump\t// in\n    tag_137:\n        /* \"contracts/NFT_Demo/NFT.sol\":19841:19872  _setTokenURI(nextId, tokenURI_) */\n      tag_139\n        /* \"contracts/NFT_Demo/NFT.sol\":19854:19860  nextId */\n      sload(0x0a)\n        /* \"contracts/NFT_Demo/NFT.sol\":19862:19871  tokenURI_ */\n      dup3\n        /* \"contracts/NFT_Demo/NFT.sol\":19841:19853  _setTokenURI */\n      tag_140\n        /* \"contracts/NFT_Demo/NFT.sol\":19841:19872  _setTokenURI(nextId, tokenURI_) */\n      jump\t// in\n    tag_139:\n        /* \"contracts/NFT_Demo/NFT.sol\":19882:19888  nextId */\n      0x0a\n      0x00\n        /* \"contracts/NFT_Demo/NFT.sol\":19882:19890  nextId++ */\n      dup2\n      sload\n      dup1\n      swap3\n      swap2\n      swap1\n      tag_141\n      swap1\n      tag_142\n      jump\t// in\n    tag_141:\n      swap2\n      swap1\n      pop\n      sstore\n      pop\n        /* \"contracts/NFT_Demo/NFT.sol\":19736:19897  function newItem(string memory tokenURI_) external onlyOwner {... */\n      pop\n      jump\t// out\n        /* \"contracts/NFT_Demo/NFT.sol\":9638:9921  function balanceOf(address owner)... */\n    tag_61:\n        /* \"contracts/NFT_Demo/NFT.sol\":9750:9757  uint256 */\n      0x00\n        /* \"contracts/NFT_Demo/NFT.sol\":9811:9812  0 */\n      dup1\n        /* \"contracts/NFT_Demo/NFT.sol\":9794:9813  owner != address(0) */\n      0xffffffffffffffffffffffffffffffffffffffff\n      and\n        /* \"contracts/NFT_Demo/NFT.sol\":9794:9799  owner */\n      dup3\n        /* \"contracts/NFT_Demo/NFT.sol\":9794:9813  owner != address(0) */\n      0xffffffffffffffffffffffffffffffffffffffff\n      and\n      sub\n        /* \"contracts/NFT_Demo/NFT.sol\":9773:9881  require(... */\n      tag_144\n      jumpi\n      mload(0x40)\n      0x08c379a000000000000000000000000000000000000000000000000000000000\n      dup2\n      mstore\n      0x04\n      add\n      tag_145\n      swap1\n      tag_146\n      jump\t// in\n    tag_145:\n      mload(0x40)\n      dup1\n      swap2\n      sub\n      swap1\n      revert\n    tag_144:\n        /* \"contracts/NFT_Demo/NFT.sol\":9898:9907  _balances */\n      0x01\n        /* \"contracts/NFT_Demo/NFT.sol\":9898:9914  _balances[owner] */\n      0x00\n        /* \"contracts/NFT_Demo/NFT.sol\":9908:9913  owner */\n      dup4\n        /* \"contracts/NFT_Demo/NFT.sol\":9898:9914  _balances[owner] */\n      0xffffffffffffffffffffffffffffffffffffffff\n      and\n      0xffffffffffffffffffffffffffffffffffffffff\n      and\n      dup2\n      mstore\n      0x20\n      add\n      swap1\n      dup2\n      mstore\n      0x20\n      add\n      0x00\n      keccak256\n      sload\n        /* \"contracts/NFT_Demo/NFT.sol\":9891:9914  return _balances[owner] */\n      swap1\n      pop\n        /* \"contracts/NFT_Demo/NFT.sol\":9638:9921  function balanceOf(address owner)... */\n      swap2\n      swap1\n      pop\n      jump\t// out\n        /* \"contracts/NFT_Demo/NFT.sol\":6540:6641  function renounceOwnership() public virtual onlyOwner {... */\n    tag_64:\n        /* \"contracts/NFT_Demo/NFT.sol\":6467:6479  _msgSender() */\n      tag_148\n        /* \"contracts/NFT_Demo/NFT.sol\":6467:6477  _msgSender */\n      tag_101\n        /* \"contracts/NFT_Demo/NFT.sol\":6467:6479  _msgSender() */\n      jump\t// in\n    tag_148:\n        /* \"contracts/NFT_Demo/NFT.sol\":6456:6479  owner() == _msgSender() */\n      0xffffffffffffffffffffffffffffffffffffffff\n      and\n        /* \"contracts/NFT_Demo/NFT.sol\":6456:6463  owner() */\n      tag_149\n        /* \"contracts/NFT_Demo/NFT.sol\":6456:6461  owner */\n      tag_66\n        /* \"contracts/NFT_Demo/NFT.sol\":6456:6463  owner() */\n      jump\t// in\n    tag_149:\n        /* \"contracts/NFT_Demo/NFT.sol\":6456:6479  owner() == _msgSender() */\n      0xffffffffffffffffffffffffffffffffffffffff\n      and\n      eq\n        /* \"contracts/NFT_Demo/NFT.sol\":6448:6516  require(owner() == _msgSender(), \"Ownable: caller is not the owner\") */\n      tag_150\n      jumpi\n      mload(0x40)\n      0x08c379a000000000000000000000000000000000000000000000000000000000\n      dup2\n      mstore\n      0x04\n      add\n      tag_151\n      swap1\n      tag_123\n      jump\t// in\n    tag_151:\n      mload(0x40)\n      dup1\n      swap2\n      sub\n      swap1\n      revert\n    tag_150:\n        /* \"contracts/NFT_Demo/NFT.sol\":6604:6634  _transferOwnership(address(0)) */\n      tag_153\n        /* \"contracts/NFT_Demo/NFT.sol\":6631:6632  0 */\n      0x00\n        /* \"contracts/NFT_Demo/NFT.sol\":6604:6622  _transferOwnership */\n      tag_154\n        /* \"contracts/NFT_Demo/NFT.sol\":6604:6634  _transferOwnership(address(0)) */\n      jump\t// in\n    tag_153:\n        /* \"contracts/NFT_Demo/NFT.sol\":6540:6641  function renounceOwnership() public virtual onlyOwner {... */\n      jump\t// out\n        /* \"contracts/NFT_Demo/NFT.sol\":6326:6411  function owner() public view virtual returns (address) {... */\n    tag_66:\n        /* \"contracts/NFT_Demo/NFT.sol\":6372:6379  address */\n      0x00\n        /* \"contracts/NFT_Demo/NFT.sol\":6398:6404  _owner */\n      dup1\n      0x00\n      swap1\n      sload\n      swap1\n      0x0100\n      exp\n      swap1\n      div\n      0xffffffffffffffffffffffffffffffffffffffff\n      and\n        /* \"contracts/NFT_Demo/NFT.sol\":6391:6404  return _owner */\n      swap1\n      pop\n        /* \"contracts/NFT_Demo/NFT.sol\":6326:6411  function owner() public view virtual returns (address) {... */\n      swap1\n      jump\t// out\n        /* \"contracts/NFT_Demo/NFT.sol\":10350:10452  function symbol() public view virtual override returns (string memory) {... */\n    tag_69:\n        /* \"contracts/NFT_Demo/NFT.sol\":10406:10419  string memory */\n      0x60\n        /* \"contracts/NFT_Demo/NFT.sol\":10438:10445  _symbol */\n      0x07\n        /* \"contracts/NFT_Demo/NFT.sol\":10431:10445  return _symbol */\n      dup1\n      sload\n      tag_157\n      swap1\n      tag_84\n      jump\t// in\n    tag_157:\n      dup1\n      0x1f\n      add\n      0x20\n      dup1\n      swap2\n      div\n      mul\n      0x20\n      add\n      mload(0x40)\n      swap1\n      dup2\n      add\n      0x40\n      mstore\n      dup1\n      swap3\n      swap2\n      swap1\n      dup2\n      dup2\n      mstore\n      0x20\n      add\n      dup3\n      dup1\n      sload\n      tag_158\n      swap1\n      tag_84\n      jump\t// in\n    tag_158:\n      dup1\n      iszero\n      tag_159\n      jumpi\n      dup1\n      0x1f\n      lt\n      tag_160\n      jumpi\n      0x0100\n      dup1\n      dup4\n      sload\n      div\n      mul\n      dup4\n      mstore\n      swap2\n      0x20\n      add\n      swap2\n      jump(tag_159)\n    tag_160:\n      dup3\n      add\n      swap2\n      swap1\n      0x00\n      mstore\n      keccak256(0x00, 0x20)\n      swap1\n    tag_161:\n      dup2\n      sload\n      dup2\n      mstore\n      swap1\n      0x01\n      add\n      swap1\n      0x20\n      add\n      dup1\n      dup4\n      gt\n      tag_161\n      jumpi\n      dup3\n      swap1\n      sub\n      0x1f\n      and\n      dup3\n      add\n      swap2\n    tag_159:\n      pop\n      pop\n      pop\n      pop\n      pop\n      swap1\n      pop\n        /* \"contracts/NFT_Demo/NFT.sol\":10350:10452  function symbol() public view virtual override returns (string memory) {... */\n      swap1\n      jump\t// out\n        /* \"contracts/NFT_Demo/NFT.sol\":11726:12080  function safeTransferFrom(... */\n    tag_74:\n        /* \"contracts/NFT_Demo/NFT.sol\":11908:11949  _isApprovedOrOwner(_msgSender(), tokenId) */\n      tag_163\n        /* \"contracts/NFT_Demo/NFT.sol\":11927:11939  _msgSender() */\n      tag_164\n        /* \"contracts/NFT_Demo/NFT.sol\":11927:11937  _msgSender */\n      tag_101\n        /* \"contracts/NFT_Demo/NFT.sol\":11927:11939  _msgSender() */\n      jump\t// in\n    tag_164:\n        /* \"contracts/NFT_Demo/NFT.sol\":11941:11948  tokenId */\n      dup4\n        /* \"contracts/NFT_Demo/NFT.sol\":11908:11926  _isApprovedOrOwner */\n      tag_110\n        /* \"contracts/NFT_Demo/NFT.sol\":11908:11949  _isApprovedOrOwner(_msgSender(), tokenId) */\n      jump\t// in\n    tag_163:\n        /* \"contracts/NFT_Demo/NFT.sol\":11887:12024  require(... */\n      tag_165\n      jumpi\n      mload(0x40)\n      0x08c379a000000000000000000000000000000000000000000000000000000000\n      dup2\n      mstore\n      0x04\n      add\n      tag_166\n      swap1\n      tag_113\n      jump\t// in\n    tag_166:\n      mload(0x40)\n      dup1\n      swap2\n      sub\n      swap1\n      revert\n    tag_165:\n        /* \"contracts/NFT_Demo/NFT.sol\":12034:12073  _safeTransfer(from, to, tokenId, _data) */\n      tag_167\n        /* \"contracts/NFT_Demo/NFT.sol\":12048:12052  from */\n      dup5\n        /* \"contracts/NFT_Demo/NFT.sol\":12054:12056  to */\n      dup5\n        /* \"contracts/NFT_Demo/NFT.sol\":12058:12065  tokenId */\n      dup5\n        /* \"contracts/NFT_Demo/NFT.sol\":12067:12072  _data */\n      dup5\n        /* \"contracts/NFT_Demo/NFT.sol\":12034:12047  _safeTransfer */\n      tag_168\n        /* \"contracts/NFT_Demo/NFT.sol\":12034:12073  _safeTransfer(from, to, tokenId, _data) */\n      jump\t// in\n    tag_167:\n        /* \"contracts/NFT_Demo/NFT.sol\":11726:12080  function safeTransferFrom(... */\n      pop\n      pop\n      pop\n      pop\n      jump\t// out\n        /* \"contracts/NFT_Demo/NFT.sol\":18875:19730  function tokenURI(uint256 tokenId)... */\n    tag_77:\n        /* \"contracts/NFT_Demo/NFT.sol\":18988:19001  string memory */\n      0x60\n        /* \"contracts/NFT_Demo/NFT.sol\":19038:19054  _exists(tokenId) */\n      tag_170\n        /* \"contracts/NFT_Demo/NFT.sol\":19046:19053  tokenId */\n      dup3\n        /* \"contracts/NFT_Demo/NFT.sol\":19038:19045  _exists */\n      tag_91\n        /* \"contracts/NFT_Demo/NFT.sol\":19038:19054  _exists(tokenId) */\n      jump\t// in\n    tag_170:\n        /* \"contracts/NFT_Demo/NFT.sol\":19017:19127  require(... */\n      tag_171\n      jumpi\n      mload(0x40)\n      0x08c379a000000000000000000000000000000000000000000000000000000000\n      dup2\n      mstore\n      0x04\n      add\n      tag_172\n      swap1\n      tag_173\n      jump\t// in\n    tag_172:\n      mload(0x40)\n      dup1\n      swap2\n      sub\n      swap1\n      revert\n    tag_171:\n        /* \"contracts/NFT_Demo/NFT.sol\":19138:19161  string memory _tokenURI */\n      0x00\n        /* \"contracts/NFT_Demo/NFT.sol\":19164:19174  _tokenURIs */\n      0x0c\n        /* \"contracts/NFT_Demo/NFT.sol\":19164:19183  _tokenURIs[tokenId] */\n      0x00\n        /* \"contracts/NFT_Demo/NFT.sol\":19175:19182  tokenId */\n      dup5\n        /* \"contracts/NFT_Demo/NFT.sol\":19164:19183  _tokenURIs[tokenId] */\n      dup2\n      mstore\n      0x20\n      add\n      swap1\n      dup2\n      mstore\n      0x20\n      add\n      0x00\n      keccak256\n        /* \"contracts/NFT_Demo/NFT.sol\":19138:19183  string memory _tokenURI = _tokenURIs[tokenId] */\n      dup1\n      sload\n      tag_174\n      swap1\n      tag_84\n      jump\t// in\n    tag_174:\n      dup1\n      0x1f\n      add\n      0x20\n      dup1\n      swap2\n      div\n      mul\n      0x20\n      add\n      mload(0x40)\n      swap1\n      dup2\n      add\n      0x40\n      mstore\n      dup1\n      swap3\n      swap2\n      swap1\n      dup2\n      dup2\n      mstore\n      0x20\n      add\n      dup3\n      dup1\n      sload\n      tag_175\n      swap1\n      tag_84\n      jump\t// in\n    tag_175:\n      dup1\n      iszero\n      tag_176\n      jumpi\n      dup1\n      0x1f\n      lt\n      tag_177\n      jumpi\n      0x0100\n      dup1\n      dup4\n      sload\n      div\n      mul\n      dup4\n      mstore\n      swap2\n      0x20\n      add\n      swap2\n      jump(tag_176)\n    tag_177:\n      dup3\n      add\n      swap2\n      swap1\n      0x00\n      mstore\n      keccak256(0x00, 0x20)\n      swap1\n    tag_178:\n      dup2\n      sload\n      dup2\n      mstore\n      swap1\n      0x01\n      add\n      swap1\n      0x20\n      add\n      dup1\n      dup4\n      gt\n      tag_178\n      jumpi\n      dup3\n      swap1\n      sub\n      0x1f\n      and\n      dup3\n      add\n      swap2\n    tag_176:\n      pop\n      pop\n      pop\n      pop\n      pop\n      swap1\n      pop\n        /* \"contracts/NFT_Demo/NFT.sol\":19193:19211  string memory base */\n      0x00\n        /* \"contracts/NFT_Demo/NFT.sol\":19214:19224  _baseURI() */\n      tag_179\n        /* \"contracts/NFT_Demo/NFT.sol\":19214:19222  _baseURI */\n      tag_180\n        /* \"contracts/NFT_Demo/NFT.sol\":19214:19224  _baseURI() */\n      jump\t// in\n    tag_179:\n        /* \"contracts/NFT_Demo/NFT.sol\":19193:19224  string memory base = _baseURI() */\n      swap1\n      pop\n        /* \"contracts/NFT_Demo/NFT.sol\":19319:19320  0 */\n      0x00\n        /* \"contracts/NFT_Demo/NFT.sol\":19303:19307  base */\n      dup2\n        /* \"contracts/NFT_Demo/NFT.sol\":19297:19315  bytes(base).length */\n      mload\n        /* \"contracts/NFT_Demo/NFT.sol\":19297:19320  bytes(base).length == 0 */\n      sub\n        /* \"contracts/NFT_Demo/NFT.sol\":19293:19363  if (bytes(base).length == 0) {... */\n      tag_181\n      jumpi\n        /* \"contracts/NFT_Demo/NFT.sol\":19343:19352  _tokenURI */\n      dup2\n        /* \"contracts/NFT_Demo/NFT.sol\":19336:19352  return _tokenURI */\n      swap3\n      pop\n      pop\n      pop\n      jump(tag_169)\n        /* \"contracts/NFT_Demo/NFT.sol\":19293:19363  if (bytes(base).length == 0) {... */\n    tag_181:\n        /* \"contracts/NFT_Demo/NFT.sol\":19491:19492  0 */\n      0x00\n        /* \"contracts/NFT_Demo/NFT.sol\":19471:19480  _tokenURI */\n      dup3\n        /* \"contracts/NFT_Demo/NFT.sol\":19465:19488  bytes(_tokenURI).length */\n      mload\n        /* \"contracts/NFT_Demo/NFT.sol\":19465:19492  bytes(_tokenURI).length > 0 */\n      gt\n        /* \"contracts/NFT_Demo/NFT.sol\":19461:19567  if (bytes(_tokenURI).length > 0) {... */\n      iszero\n      tag_182\n      jumpi\n        /* \"contracts/NFT_Demo/NFT.sol\":19539:19543  base */\n      dup1\n        /* \"contracts/NFT_Demo/NFT.sol\":19545:19554  _tokenURI */\n      dup3\n        /* \"contracts/NFT_Demo/NFT.sol\":19522:19555  abi.encodePacked(base, _tokenURI) */\n      add(0x20, mload(0x40))\n      tag_183\n      swap3\n      swap2\n      swap1\n      tag_184\n      jump\t// in\n    tag_183:\n      mload(0x40)\n      0x20\n      dup2\n      dup4\n      sub\n      sub\n      dup2\n      mstore\n      swap1\n      0x40\n      mstore\n        /* \"contracts/NFT_Demo/NFT.sol\":19508:19556  return string(abi.encodePacked(base, _tokenURI)) */\n      swap3\n      pop\n      pop\n      pop\n      jump(tag_169)\n        /* \"contracts/NFT_Demo/NFT.sol\":19461:19567  if (bytes(_tokenURI).length > 0) {... */\n    tag_182:\n        /* \"contracts/NFT_Demo/NFT.sol\":19697:19701  base */\n      dup1\n        /* \"contracts/NFT_Demo/NFT.sol\":19703:19721  tokenId.toString() */\n      tag_185\n        /* \"contracts/NFT_Demo/NFT.sol\":19703:19710  tokenId */\n      dup6\n        /* \"contracts/NFT_Demo/NFT.sol\":19703:19719  tokenId.toString */\n      tag_186\n        /* \"contracts/NFT_Demo/NFT.sol\":19703:19721  tokenId.toString() */\n      jump\t// in\n    tag_185:\n        /* \"contracts/NFT_Demo/NFT.sol\":19680:19722  abi.encodePacked(base, tokenId.toString()) */\n      add(0x20, mload(0x40))\n      tag_187\n      swap3\n      swap2\n      swap1\n      tag_184\n      jump\t// in\n    tag_187:\n      mload(0x40)\n      0x20\n      dup2\n      dup4\n      sub\n      sub\n      dup2\n      mstore\n      swap1\n      0x40\n      mstore\n        /* \"contracts/NFT_Demo/NFT.sol\":19666:19723  return string(abi.encodePacked(base, tokenId.toString())) */\n      swap3\n      pop\n      pop\n      pop\n        /* \"contracts/NFT_Demo/NFT.sol\":18875:19730  function tokenURI(uint256 tokenId)... */\n    tag_169:\n      swap2\n      swap1\n      pop\n      jump\t// out\n        /* \"contracts/NFT_Demo/NFT.sol\":6647:6879  function transferOwnership(address newOwner) public virtual onlyOwner {... */\n    tag_81:\n        /* \"contracts/NFT_Demo/NFT.sol\":6467:6479  _msgSender() */\n      tag_189\n        /* \"contracts/NFT_Demo/NFT.sol\":6467:6477  _msgSender */\n      tag_101\n        /* \"contracts/NFT_Demo/NFT.sol\":6467:6479  _msgSender() */\n      jump\t// in\n    tag_189:\n        /* \"contracts/NFT_Demo/NFT.sol\":6456:6479  owner() == _msgSender() */\n      0xffffffffffffffffffffffffffffffffffffffff\n      and\n        /* \"contracts/NFT_Demo/NFT.sol\":6456:6463  owner() */\n      tag_190\n        /* \"contracts/NFT_Demo/NFT.sol\":6456:6461  owner */\n      tag_66\n        /* \"contracts/NFT_Demo/NFT.sol\":6456:6463  owner() */\n      jump\t// in\n    tag_190:\n        /* \"contracts/NFT_Demo/NFT.sol\":6456:6479  owner() == _msgSender() */\n      0xffffffffffffffffffffffffffffffffffffffff\n      and\n      eq\n        /* \"contracts/NFT_Demo/NFT.sol\":6448:6516  require(owner() == _msgSender(), \"Ownable: caller is not the owner\") */\n      tag_191\n      jumpi\n      mload(0x40)\n      0x08c379a000000000000000000000000000000000000000000000000000000000\n      dup2\n      mstore\n      0x04\n      add\n      tag_192\n      swap1\n      tag_123\n      jump\t// in\n    tag_192:\n      mload(0x40)\n      dup1\n      swap2\n      sub\n      swap1\n      revert\n    tag_191:\n        /* \"contracts/NFT_Demo/NFT.sol\":6768:6769  0 */\n      0x00\n        /* \"contracts/NFT_Demo/NFT.sol\":6748:6770  newOwner != address(0) */\n      0xffffffffffffffffffffffffffffffffffffffff\n      and\n        /* \"contracts/NFT_Demo/NFT.sol\":6748:6756  newOwner */\n      dup2\n        /* \"contracts/NFT_Demo/NFT.sol\":6748:6770  newOwner != address(0) */\n      0xffffffffffffffffffffffffffffffffffffffff\n      and\n      sub\n        /* \"contracts/NFT_Demo/NFT.sol\":6727:6834  require(... */\n      tag_194\n      jumpi\n      mload(0x40)\n      0x08c379a000000000000000000000000000000000000000000000000000000000\n      dup2\n      mstore\n      0x04\n      add\n      tag_195\n      swap1\n      tag_196\n      jump\t// in\n    tag_195:\n      mload(0x40)\n      dup1\n      swap2\n      sub\n      swap1\n      revert\n    tag_194:\n        /* \"contracts/NFT_Demo/NFT.sol\":6844:6872  _transferOwnership(newOwner) */\n      tag_197\n        /* \"contracts/NFT_Demo/NFT.sol\":6863:6871  newOwner */\n      dup2\n        /* \"contracts/NFT_Demo/NFT.sol\":6844:6862  _transferOwnership */\n      tag_154\n        /* \"contracts/NFT_Demo/NFT.sol\":6844:6872  _transferOwnership(newOwner) */\n      jump\t// in\n    tag_197:\n        /* \"contracts/NFT_Demo/NFT.sol\":6647:6879  function transferOwnership(address newOwner) public virtual onlyOwner {... */\n      pop\n      jump\t// out\n        /* \"contracts/NFT_Demo/NFT.sol\":12433:12558  function _exists(uint256 tokenId) internal view virtual returns (bool) {... */\n    tag_91:\n        /* \"contracts/NFT_Demo/NFT.sol\":12498:12502  bool */\n      0x00\n        /* \"contracts/NFT_Demo/NFT.sol\":12549:12550  0 */\n      dup1\n        /* \"contracts/NFT_Demo/NFT.sol\":12521:12551  _owners[tokenId] != address(0) */\n      0xffffffffffffffffffffffffffffffffffffffff\n      and\n        /* \"contracts/NFT_Demo/NFT.sol\":12521:12528  _owners */\n      0x02\n        /* \"contracts/NFT_Demo/NFT.sol\":12521:12537  _owners[tokenId] */\n      0x00\n        /* \"contracts/NFT_Demo/NFT.sol\":12529:12536  tokenId */\n      dup5\n        /* \"contracts/NFT_Demo/NFT.sol\":12521:12537  _owners[tokenId] */\n      dup2\n      mstore\n      0x20\n      add\n      swap1\n      dup2\n      mstore\n      0x20\n      add\n      0x00\n      keccak256\n      0x00\n      swap1\n      sload\n      swap1\n      0x0100\n      exp\n      swap1\n      div\n      0xffffffffffffffffffffffffffffffffffffffff\n      and\n        /* \"contracts/NFT_Demo/NFT.sol\":12521:12551  _owners[tokenId] != address(0) */\n      0xffffffffffffffffffffffffffffffffffffffff\n      and\n      eq\n      iszero\n        /* \"contracts/NFT_Demo/NFT.sol\":12514:12551  return _owners[tokenId] != address(0) */\n      swap1\n      pop\n        /* \"contracts/NFT_Demo/NFT.sol\":12433:12558  function _exists(uint256 tokenId) internal view virtual returns (bool) {... */\n      swap2\n      swap1\n      pop\n      jump\t// out\n        /* \"contracts/NFT_Demo/NFT.sol\":99:195  function _msgSender() internal view virtual returns (address) {... */\n    tag_101:\n        /* \"contracts/NFT_Demo/NFT.sol\":152:159  address */\n      0x00\n        /* \"contracts/NFT_Demo/NFT.sol\":178:188  msg.sender */\n      caller\n        /* \"contracts/NFT_Demo/NFT.sol\":171:188  return msg.sender */\n      swap1\n      pop\n        /* \"contracts/NFT_Demo/NFT.sol\":99:195  function _msgSender() internal view virtual returns (address) {... */\n      swap1\n      jump\t// out\n        /* \"contracts/NFT_Demo/NFT.sol\":15148:15319  function _approve(address to, uint256 tokenId) internal virtual {... */\n    tag_106:\n        /* \"contracts/NFT_Demo/NFT.sol\":15249:15251  to */\n      dup2\n        /* \"contracts/NFT_Demo/NFT.sol\":15222:15237  _tokenApprovals */\n      0x04\n        /* \"contracts/NFT_Demo/NFT.sol\":15222:15246  _tokenApprovals[tokenId] */\n      0x00\n        /* \"contracts/NFT_Demo/NFT.sol\":15238:15245  tokenId */\n      dup4\n        /* \"contracts/NFT_Demo/NFT.sol\":15222:15246  _tokenApprovals[tokenId] */\n      dup2\n      mstore\n      0x20\n      add\n      swap1\n      dup2\n      mstore\n      0x20\n      add\n      0x00\n      keccak256\n      0x00\n        /* \"contracts/NFT_Demo/NFT.sol\":15222:15251  _tokenApprovals[tokenId] = to */\n      0x0100\n      exp\n      dup2\n      sload\n      dup2\n      0xffffffffffffffffffffffffffffffffffffffff\n      mul\n      not\n      and\n      swap1\n      dup4\n      0xffffffffffffffffffffffffffffffffffffffff\n      and\n      mul\n      or\n      swap1\n      sstore\n      pop\n        /* \"contracts/NFT_Demo/NFT.sol\":15304:15311  tokenId */\n      dup1\n        /* \"contracts/NFT_Demo/NFT.sol\":15300:15302  to */\n      dup3\n        /* \"contracts/NFT_Demo/NFT.sol\":15266:15312  Approval(ERC721.ownerOf(tokenId), to, tokenId) */\n      0xffffffffffffffffffffffffffffffffffffffff\n      and\n        /* \"contracts/NFT_Demo/NFT.sol\":15275:15298  ERC721.ownerOf(tokenId) */\n      tag_201\n        /* \"contracts/NFT_Demo/NFT.sol\":15290:15297  tokenId */\n      dup4\n        /* \"contracts/NFT_Demo/NFT.sol\":15275:15289  ERC721.ownerOf */\n      tag_53\n        /* \"contracts/NFT_Demo/NFT.sol\":15275:15298  ERC721.ownerOf(tokenId) */\n      jump\t// in\n    tag_201:\n        /* \"contracts/NFT_Demo/NFT.sol\":15266:15312  Approval(ERC721.ownerOf(tokenId), to, tokenId) */\n      0xffffffffffffffffffffffffffffffffffffffff\n      and\n      0x8c5be1e5ebec7d5bd14f71427d1e84f3dd0314c0f7b2291e5b200ac8c7c3b925\n      mload(0x40)\n      mload(0x40)\n      dup1\n      swap2\n      sub\n      swap1\n      log4\n        /* \"contracts/NFT_Demo/NFT.sol\":15148:15319  function _approve(address to, uint256 tokenId) internal virtual {... */\n      pop\n      pop\n      jump\t// out\n        /* \"contracts/NFT_Demo/NFT.sol\":12564:12942  function _isApprovedOrOwner(address spender, uint256 tokenId)... */\n    tag_110:\n        /* \"contracts/NFT_Demo/NFT.sol\":12689:12693  bool */\n      0x00\n        /* \"contracts/NFT_Demo/NFT.sol\":12730:12746  _exists(tokenId) */\n      tag_203\n        /* \"contracts/NFT_Demo/NFT.sol\":12738:12745  tokenId */\n      dup3\n        /* \"contracts/NFT_Demo/NFT.sol\":12730:12737  _exists */\n      tag_91\n        /* \"contracts/NFT_Demo/NFT.sol\":12730:12746  _exists(tokenId) */\n      jump\t// in\n    tag_203:\n        /* \"contracts/NFT_Demo/NFT.sol\":12709:12816  require(... */\n      tag_204\n      jumpi\n      mload(0x40)\n      0x08c379a000000000000000000000000000000000000000000000000000000000\n      dup2\n      mstore\n      0x04\n      add\n      tag_205\n      swap1\n      tag_206\n      jump\t// in\n    tag_205:\n      mload(0x40)\n      dup1\n      swap2\n      sub\n      swap1\n      revert\n    tag_204:\n        /* \"contracts/NFT_Demo/NFT.sol\":12826:12839  address owner */\n      0x00\n        /* \"contracts/NFT_Demo/NFT.sol\":12842:12865  ERC721.ownerOf(tokenId) */\n      tag_207\n        /* \"contracts/NFT_Demo/NFT.sol\":12857:12864  tokenId */\n      dup4\n        /* \"contracts/NFT_Demo/NFT.sol\":12842:12856  ERC721.ownerOf */\n      tag_53\n        /* \"contracts/NFT_Demo/NFT.sol\":12842:12865  ERC721.ownerOf(tokenId) */\n      jump\t// in\n    tag_207:\n        /* \"contracts/NFT_Demo/NFT.sol\":12826:12865  address owner = ERC721.ownerOf(tokenId) */\n      swap1\n      pop\n        /* \"contracts/NFT_Demo/NFT.sol\":12894:12899  owner */\n      dup1\n        /* \"contracts/NFT_Demo/NFT.sol\":12883:12899  spender == owner */\n      0xffffffffffffffffffffffffffffffffffffffff\n      and\n        /* \"contracts/NFT_Demo/NFT.sol\":12883:12890  spender */\n      dup5\n        /* \"contracts/NFT_Demo/NFT.sol\":12883:12899  spender == owner */\n      0xffffffffffffffffffffffffffffffffffffffff\n      and\n      eq\n        /* \"contracts/NFT_Demo/NFT.sol\":12883:12934  spender == owner || getApproved(tokenId) == spender */\n      dup1\n      tag_208\n      jumpi\n      pop\n        /* \"contracts/NFT_Demo/NFT.sol\":12927:12934  spender */\n      dup4\n        /* \"contracts/NFT_Demo/NFT.sol\":12903:12934  getApproved(tokenId) == spender */\n      0xffffffffffffffffffffffffffffffffffffffff\n      and\n        /* \"contracts/NFT_Demo/NFT.sol\":12903:12923  getApproved(tokenId) */\n      tag_209\n        /* \"contracts/NFT_Demo/NFT.sol\":12915:12922  tokenId */\n      dup5\n        /* \"contracts/NFT_Demo/NFT.sol\":12903:12914  getApproved */\n      tag_29\n        /* \"contracts/NFT_Demo/NFT.sol\":12903:12923  getApproved(tokenId) */\n      jump\t// in\n    tag_209:\n        /* \"contracts/NFT_Demo/NFT.sol\":12903:12934  getApproved(tokenId) == spender */\n      0xffffffffffffffffffffffffffffffffffffffff\n      and\n      eq\n        /* \"contracts/NFT_Demo/NFT.sol\":12883:12934  spender == owner || getApproved(tokenId) == spender */\n    tag_208:\n        /* \"contracts/NFT_Demo/NFT.sol\":12875:12935  return (spender == owner || getApproved(tokenId) == spender) */\n      swap2\n      pop\n      pop\n        /* \"contracts/NFT_Demo/NFT.sol\":12564:12942  function _isApprovedOrOwner(address spender, uint256 tokenId)... */\n      swap3\n      swap2\n      pop\n      pop\n      jump\t// out\n        /* \"contracts/NFT_Demo/NFT.sol\":14503:15142  function _transfer(... */\n    tag_115:\n        /* \"contracts/NFT_Demo/NFT.sol\":14670:14674  from */\n      dup3\n        /* \"contracts/NFT_Demo/NFT.sol\":14643:14674  ERC721.ownerOf(tokenId) == from */\n      0xffffffffffffffffffffffffffffffffffffffff\n      and\n        /* \"contracts/NFT_Demo/NFT.sol\":14643:14666  ERC721.ownerOf(tokenId) */\n      tag_211\n        /* \"contracts/NFT_Demo/NFT.sol\":14658:14665  tokenId */\n      dup3\n        /* \"contracts/NFT_Demo/NFT.sol\":14643:14657  ERC721.ownerOf */\n      tag_53\n        /* \"contracts/NFT_Demo/NFT.sol\":14643:14666  ERC721.ownerOf(tokenId) */\n      jump\t// in\n    tag_211:\n        /* \"contracts/NFT_Demo/NFT.sol\":14643:14674  ERC721.ownerOf(tokenId) == from */\n      0xffffffffffffffffffffffffffffffffffffffff\n      and\n      eq\n        /* \"contracts/NFT_Demo/NFT.sol\":14622:14737  require(... */\n      tag_212\n      jumpi\n      mload(0x40)\n      0x08c379a000000000000000000000000000000000000000000000000000000000\n      dup2\n      mstore\n      0x04\n      add\n      tag_213\n      swap1\n      tag_214\n      jump\t// in\n    tag_213:\n      mload(0x40)\n      dup1\n      swap2\n      sub\n      swap1\n      revert\n    tag_212:\n        /* \"contracts/NFT_Demo/NFT.sol\":14769:14770  0 */\n      0x00\n        /* \"contracts/NFT_Demo/NFT.sol\":14755:14771  to != address(0) */\n      0xffffffffffffffffffffffffffffffffffffffff\n      and\n        /* \"contracts/NFT_Demo/NFT.sol\":14755:14757  to */\n      dup3\n        /* \"contracts/NFT_Demo/NFT.sol\":14755:14771  to != address(0) */\n      0xffffffffffffffffffffffffffffffffffffffff\n      and\n      sub\n        /* \"contracts/NFT_Demo/NFT.sol\":14747:14812  require(to != address(0), \"ERC721: transfer to the zero address\") */\n      tag_215\n      jumpi\n      mload(0x40)\n      0x08c379a000000000000000000000000000000000000000000000000000000000\n      dup2\n      mstore\n      0x04\n      add\n      tag_216\n      swap1\n      tag_217\n      jump\t// in\n    tag_216:\n      mload(0x40)\n      dup1\n      swap2\n      sub\n      swap1\n      revert\n    tag_215:\n        /* \"contracts/NFT_Demo/NFT.sol\":14823:14862  _beforeTokenTransfer(from, to, tokenId) */\n      tag_218\n        /* \"contracts/NFT_Demo/NFT.sol\":14844:14848  from */\n      dup4\n        /* \"contracts/NFT_Demo/NFT.sol\":14850:14852  to */\n      dup4\n        /* \"contracts/NFT_Demo/NFT.sol\":14854:14861  tokenId */\n      dup4\n        /* \"contracts/NFT_Demo/NFT.sol\":14823:14843  _beforeTokenTransfer */\n      tag_219\n        /* \"contracts/NFT_Demo/NFT.sol\":14823:14862  _beforeTokenTransfer(from, to, tokenId) */\n      jump\t// in\n    tag_218:\n        /* \"contracts/NFT_Demo/NFT.sol\":14924:14953  _approve(address(0), tokenId) */\n      tag_220\n        /* \"contracts/NFT_Demo/NFT.sol\":14941:14942  0 */\n      0x00\n        /* \"contracts/NFT_Demo/NFT.sol\":14945:14952  tokenId */\n      dup3\n        /* \"contracts/NFT_Demo/NFT.sol\":14924:14932  _approve */\n      tag_106\n        /* \"contracts/NFT_Demo/NFT.sol\":14924:14953  _approve(address(0), tokenId) */\n      jump\t// in\n    tag_220:\n        /* \"contracts/NFT_Demo/NFT.sol\":14983:14984  1 */\n      0x01\n        /* \"contracts/NFT_Demo/NFT.sol\":14964:14973  _balances */\n      dup1\n        /* \"contracts/NFT_Demo/NFT.sol\":14964:14979  _balances[from] */\n      0x00\n        /* \"contracts/NFT_Demo/NFT.sol\":14974:14978  from */\n      dup6\n        /* \"contracts/NFT_Demo/NFT.sol\":14964:14979  _balances[from] */\n      0xffffffffffffffffffffffffffffffffffffffff\n      and\n      0xffffffffffffffffffffffffffffffffffffffff\n      and\n      dup2\n      mstore\n      0x20\n      add\n      swap1\n      dup2\n      mstore\n      0x20\n      add\n      0x00\n      keccak256\n      0x00\n        /* \"contracts/NFT_Demo/NFT.sol\":14964:14984  _balances[from] -= 1 */\n      dup3\n      dup3\n      sload\n      tag_221\n      swap2\n      swap1\n      tag_222\n      jump\t// in\n    tag_221:\n      swap3\n      pop\n      pop\n      dup2\n      swap1\n      sstore\n      pop\n        /* \"contracts/NFT_Demo/NFT.sol\":15011:15012  1 */\n      0x01\n        /* \"contracts/NFT_Demo/NFT.sol\":14994:15003  _balances */\n      dup1\n        /* \"contracts/NFT_Demo/NFT.sol\":14994:15007  _balances[to] */\n      0x00\n        /* \"contracts/NFT_Demo/NFT.sol\":15004:15006  to */\n      dup5\n        /* \"contracts/NFT_Demo/NFT.sol\":14994:15007  _balances[to] */\n      0xffffffffffffffffffffffffffffffffffffffff\n      and\n      0xffffffffffffffffffffffffffffffffffffffff\n      and\n      dup2\n      mstore\n      0x20\n      add\n      swap1\n      dup2\n      mstore\n      0x20\n      add\n      0x00\n      keccak256\n      0x00\n        /* \"contracts/NFT_Demo/NFT.sol\":14994:15012  _balances[to] += 1 */\n      dup3\n      dup3\n      sload\n      tag_223\n      swap2\n      swap1\n      tag_224\n      jump\t// in\n    tag_223:\n      swap3\n      pop\n      pop\n      dup2\n      swap1\n      sstore\n      pop\n        /* \"contracts/NFT_Demo/NFT.sol\":15041:15043  to */\n      dup2\n        /* \"contracts/NFT_Demo/NFT.sol\":15022:15029  _owners */\n      0x02\n        /* \"contracts/NFT_Demo/NFT.sol\":15022:15038  _owners[tokenId] */\n      0x00\n        /* \"contracts/NFT_Demo/NFT.sol\":15030:15037  tokenId */\n      dup4\n        /* \"contracts/NFT_Demo/NFT.sol\":15022:15038  _owners[tokenId] */\n      dup2\n      mstore\n      0x20\n      add\n      swap1\n      dup2\n      mstore\n      0x20\n      add\n      0x00\n      keccak256\n      0x00\n        /* \"contracts/NFT_Demo/NFT.sol\":15022:15043  _owners[tokenId] = to */\n      0x0100\n      exp\n      dup2\n      sload\n      dup2\n      0xffffffffffffffffffffffffffffffffffffffff\n      mul\n      not\n      and\n      swap1\n      dup4\n      0xffffffffffffffffffffffffffffffffffffffff\n      and\n      mul\n      or\n      swap1\n      sstore\n      pop\n        /* \"contracts/NFT_Demo/NFT.sol\":15078:15085  tokenId */\n      dup1\n        /* \"contracts/NFT_Demo/NFT.sol\":15074:15076  to */\n      dup3\n        /* \"contracts/NFT_Demo/NFT.sol\":15059:15086  Transfer(from, to, tokenId) */\n      0xffffffffffffffffffffffffffffffffffffffff\n      and\n        /* \"contracts/NFT_Demo/NFT.sol\":15068:15072  from */\n      dup5\n        /* \"contracts/NFT_Demo/NFT.sol\":15059:15086  Transfer(from, to, tokenId) */\n      0xffffffffffffffffffffffffffffffffffffffff\n      and\n      0xddf252ad1be2c89b69c2b068fc378daa952ba7f163c4a11628f55a4df523b3ef\n      mload(0x40)\n      mload(0x40)\n      dup1\n      swap2\n      sub\n      swap1\n      log4\n        /* \"contracts/NFT_Demo/NFT.sol\":15097:15135  _afterTokenTransfer(from, to, tokenId) */\n      tag_225\n        /* \"contracts/NFT_Demo/NFT.sol\":15117:15121  from */\n      dup4\n        /* \"contracts/NFT_Demo/NFT.sol\":15123:15125  to */\n      dup4\n        /* \"contracts/NFT_Demo/NFT.sol\":15127:15134  tokenId */\n      dup4\n        /* \"contracts/NFT_Demo/NFT.sol\":15097:15116  _afterTokenTransfer */\n      tag_226\n        /* \"contracts/NFT_Demo/NFT.sol\":15097:15135  _afterTokenTransfer(from, to, tokenId) */\n      jump\t// in\n    tag_225:\n        /* \"contracts/NFT_Demo/NFT.sol\":14503:15142  function _transfer(... */\n      pop\n      pop\n      pop\n      jump\t// out\n        /* \"contracts/NFT_Demo/NFT.sol\":13814:14085  function _mintNew(uint256 tokenId) internal virtual { ... */\n    tag_138:\n        /* \"contracts/NFT_Demo/NFT.sol\":13889:13905  _exists(tokenId) */\n      tag_228\n        /* \"contracts/NFT_Demo/NFT.sol\":13897:13904  tokenId */\n      dup2\n        /* \"contracts/NFT_Demo/NFT.sol\":13889:13896  _exists */\n      tag_91\n        /* \"contracts/NFT_Demo/NFT.sol\":13889:13905  _exists(tokenId) */\n      jump\t// in\n    tag_228:\n        /* \"contracts/NFT_Demo/NFT.sol\":13888:13905  !_exists(tokenId) */\n      iszero\n        /* \"contracts/NFT_Demo/NFT.sol\":13880:13938  require(!_exists(tokenId), \"ERC721: token already minted\") */\n      tag_229\n      jumpi\n      mload(0x40)\n      0x08c379a000000000000000000000000000000000000000000000000000000000\n      dup2\n      mstore\n      0x04\n      add\n      tag_230\n      swap1\n      tag_231\n      jump\t// in\n    tag_230:\n      mload(0x40)\n      dup1\n      swap2\n      sub\n      swap1\n      revert\n    tag_229:\n        /* \"contracts/NFT_Demo/NFT.sol\":13976:13977  1 */\n      0x01\n        /* \"contracts/NFT_Demo/NFT.sol\":13951:13960  _balances */\n      dup1\n        /* \"contracts/NFT_Demo/NFT.sol\":13951:13972  _balances[msg.sender] */\n      0x00\n        /* \"contracts/NFT_Demo/NFT.sol\":13961:13971  msg.sender */\n      caller\n        /* \"contracts/NFT_Demo/NFT.sol\":13951:13972  _balances[msg.sender] */\n      0xffffffffffffffffffffffffffffffffffffffff\n      and\n      0xffffffffffffffffffffffffffffffffffffffff\n      and\n      dup2\n      mstore\n      0x20\n      add\n      swap1\n      dup2\n      mstore\n      0x20\n      add\n      0x00\n      keccak256\n      0x00\n        /* \"contracts/NFT_Demo/NFT.sol\":13951:13977  _balances[msg.sender] += 1 */\n      dup3\n      dup3\n      sload\n      tag_232\n      swap2\n      swap1\n      tag_224\n      jump\t// in\n    tag_232:\n      swap3\n      pop\n      pop\n      dup2\n      swap1\n      sstore\n      pop\n        /* \"contracts/NFT_Demo/NFT.sol\":14006:14016  msg.sender */\n      caller\n        /* \"contracts/NFT_Demo/NFT.sol\":13987:13994  _owners */\n      0x02\n        /* \"contracts/NFT_Demo/NFT.sol\":13987:14003  _owners[tokenId] */\n      0x00\n        /* \"contracts/NFT_Demo/NFT.sol\":13995:14002  tokenId */\n      dup4\n        /* \"contracts/NFT_Demo/NFT.sol\":13987:14003  _owners[tokenId] */\n      dup2\n      mstore\n      0x20\n      add\n      swap1\n      dup2\n      mstore\n      0x20\n      add\n      0x00\n      keccak256\n      0x00\n        /* \"contracts/NFT_Demo/NFT.sol\":13987:14016  _owners[tokenId] = msg.sender */\n      0x0100\n      exp\n      dup2\n      sload\n      dup2\n      0xffffffffffffffffffffffffffffffffffffffff\n      mul\n      not\n      and\n      swap1\n      dup4\n      0xffffffffffffffffffffffffffffffffffffffff\n      and\n      mul\n      or\n      swap1\n      sstore\n      pop\n        /* \"contracts/NFT_Demo/NFT.sol\":14068:14075  tokenId */\n      dup1\n        /* \"contracts/NFT_Demo/NFT.sol\":14056:14066  msg.sender */\n      caller\n        /* \"contracts/NFT_Demo/NFT.sol\":14032:14076  Transfer( this.owner(), msg.sender, tokenId) */\n      0xffffffffffffffffffffffffffffffffffffffff\n      and\n        /* \"contracts/NFT_Demo/NFT.sol\":14042:14046  this */\n      address\n        /* \"contracts/NFT_Demo/NFT.sol\":14042:14052  this.owner */\n      0xffffffffffffffffffffffffffffffffffffffff\n      and\n      0x8da5cb5b\n        /* \"contracts/NFT_Demo/NFT.sol\":14042:14054  this.owner() */\n      mload(0x40)\n      dup2\n      0xffffffff\n      and\n      0xe0\n      shl\n      dup2\n      mstore\n      0x04\n      add\n      0x20\n      mload(0x40)\n      dup1\n      dup4\n      sub\n      dup2\n      dup7\n      gas\n      staticcall\n      iszero\n      dup1\n      iszero\n      tag_234\n      jumpi\n      returndatasize\n      0x00\n      dup1\n      returndatacopy\n      revert(0x00, returndatasize)\n    tag_234:\n      pop\n      pop\n      pop\n      pop\n      mload(0x40)\n      returndatasize\n      not(0x1f)\n      0x1f\n      dup3\n      add\n      and\n      dup3\n      add\n      dup1\n      0x40\n      mstore\n      pop\n      dup2\n      add\n      swap1\n      tag_235\n      swap2\n      swap1\n      tag_236\n      jump\t// in\n    tag_235:\n        /* \"contracts/NFT_Demo/NFT.sol\":14032:14076  Transfer( this.owner(), msg.sender, tokenId) */\n      0xffffffffffffffffffffffffffffffffffffffff\n      and\n      0xddf252ad1be2c89b69c2b068fc378daa952ba7f163c4a11628f55a4df523b3ef\n      mload(0x40)\n      mload(0x40)\n      dup1\n      swap2\n      sub\n      swap1\n      log4\n        /* \"contracts/NFT_Demo/NFT.sol\":13814:14085  function _mintNew(uint256 tokenId) internal virtual { ... */\n      pop\n      jump\t// out\n        /* \"contracts/NFT_Demo/NFT.sol\":18482:18748  function _setTokenURI(uint256 tokenId, string memory _tokenURI)... */\n    tag_140:\n        /* \"contracts/NFT_Demo/NFT.sol\":18614:18630  _exists(tokenId) */\n      tag_238\n        /* \"contracts/NFT_Demo/NFT.sol\":18622:18629  tokenId */\n      dup3\n        /* \"contracts/NFT_Demo/NFT.sol\":18614:18621  _exists */\n      tag_91\n        /* \"contracts/NFT_Demo/NFT.sol\":18614:18630  _exists(tokenId) */\n      jump\t// in\n    tag_238:\n        /* \"contracts/NFT_Demo/NFT.sol\":18593:18700  require(... */\n      tag_239\n      jumpi\n      mload(0x40)\n      0x08c379a000000000000000000000000000000000000000000000000000000000\n      dup2\n      mstore\n      0x04\n      add\n      tag_240\n      swap1\n      tag_241\n      jump\t// in\n    tag_240:\n      mload(0x40)\n      dup1\n      swap2\n      sub\n      swap1\n      revert\n    tag_239:\n        /* \"contracts/NFT_Demo/NFT.sol\":18732:18741  _tokenURI */\n      dup1\n        /* \"contracts/NFT_Demo/NFT.sol\":18710:18720  _tokenURIs */\n      0x0c\n        /* \"contracts/NFT_Demo/NFT.sol\":18710:18729  _tokenURIs[tokenId] */\n      0x00\n        /* \"contracts/NFT_Demo/NFT.sol\":18721:18728  tokenId */\n      dup5\n        /* \"contracts/NFT_Demo/NFT.sol\":18710:18729  _tokenURIs[tokenId] */\n      dup2\n      mstore\n      0x20\n      add\n      swap1\n      dup2\n      mstore\n      0x20\n      add\n      0x00\n      keccak256\n        /* \"contracts/NFT_Demo/NFT.sol\":18710:18741  _tokenURIs[tokenId] = _tokenURI */\n      swap1\n      dup1\n      mload\n      swap1\n      0x20\n      add\n      swap1\n      tag_242\n      swap3\n      swap2\n      swap1\n      tag_126\n      jump\t// in\n    tag_242:\n      pop\n        /* \"contracts/NFT_Demo/NFT.sol\":18482:18748  function _setTokenURI(uint256 tokenId, string memory _tokenURI)... */\n      pop\n      pop\n      jump\t// out\n        /* \"contracts/NFT_Demo/NFT.sol\":6885:7072  function _transferOwnership(address newOwner) internal virtual {... */\n    tag_154:\n        /* \"contracts/NFT_Demo/NFT.sol\":6958:6974  address oldOwner */\n      0x00\n        /* \"contracts/NFT_Demo/NFT.sol\":6977:6983  _owner */\n      dup1\n      0x00\n      swap1\n      sload\n      swap1\n      0x0100\n      exp\n      swap1\n      div\n      0xffffffffffffffffffffffffffffffffffffffff\n      and\n        /* \"contracts/NFT_Demo/NFT.sol\":6958:6983  address oldOwner = _owner */\n      swap1\n      pop\n        /* \"contracts/NFT_Demo/NFT.sol\":7002:7010  newOwner */\n      dup2\n        /* \"contracts/NFT_Demo/NFT.sol\":6993:6999  _owner */\n      0x00\n      dup1\n        /* \"contracts/NFT_Demo/NFT.sol\":6993:7010  _owner = newOwner */\n      0x0100\n      exp\n      dup2\n      sload\n      dup2\n      0xffffffffffffffffffffffffffffffffffffffff\n      mul\n      not\n      and\n      swap1\n      dup4\n      0xffffffffffffffffffffffffffffffffffffffff\n      and\n      mul\n      or\n      swap1\n      sstore\n      pop\n        /* \"contracts/NFT_Demo/NFT.sol\":7056:7064  newOwner */\n      dup2\n        /* \"contracts/NFT_Demo/NFT.sol\":7025:7065  OwnershipTransferred(oldOwner, newOwner) */\n      0xffffffffffffffffffffffffffffffffffffffff\n      and\n        /* \"contracts/NFT_Demo/NFT.sol\":7046:7054  oldOwner */\n      dup2\n        /* \"contracts/NFT_Demo/NFT.sol\":7025:7065  OwnershipTransferred(oldOwner, newOwner) */\n      0xffffffffffffffffffffffffffffffffffffffff\n      and\n      0x8be0079c531659141344cd1fd0a4f28419497f9722a3daafe3b4186f6b6457e0\n      mload(0x40)\n      mload(0x40)\n      dup1\n      swap2\n      sub\n      swap1\n      log3\n        /* \"contracts/NFT_Demo/NFT.sol\":6948:7072  {... */\n      pop\n        /* \"contracts/NFT_Demo/NFT.sol\":6885:7072  function _transferOwnership(address newOwner) internal virtual {... */\n      pop\n      jump\t// out\n        /* \"contracts/NFT_Demo/NFT.sol\":12086:12427  function _safeTransfer(... */\n    tag_168:\n        /* \"contracts/NFT_Demo/NFT.sol\":12237:12265  _transfer(from, to, tokenId) */\n      tag_245\n        /* \"contracts/NFT_Demo/NFT.sol\":12247:12251  from */\n      dup5\n        /* \"contracts/NFT_Demo/NFT.sol\":12253:12255  to */\n      dup5\n        /* \"contracts/NFT_Demo/NFT.sol\":12257:12264  tokenId */\n      dup5\n        /* \"contracts/NFT_Demo/NFT.sol\":12237:12246  _transfer */\n      tag_115\n        /* \"contracts/NFT_Demo/NFT.sol\":12237:12265  _transfer(from, to, tokenId) */\n      jump\t// in\n    tag_245:\n        /* \"contracts/NFT_Demo/NFT.sol\":12296:12344  _checkOnERC721Received(from, to, tokenId, _data) */\n      tag_246\n        /* \"contracts/NFT_Demo/NFT.sol\":12319:12323  from */\n      dup5\n        /* \"contracts/NFT_Demo/NFT.sol\":12325:12327  to */\n      dup5\n        /* \"contracts/NFT_Demo/NFT.sol\":12329:12336  tokenId */\n      dup5\n        /* \"contracts/NFT_Demo/NFT.sol\":12338:12343  _data */\n      dup5\n        /* \"contracts/NFT_Demo/NFT.sol\":12296:12318  _checkOnERC721Received */\n      tag_247\n        /* \"contracts/NFT_Demo/NFT.sol\":12296:12344  _checkOnERC721Received(from, to, tokenId, _data) */\n      jump\t// in\n    tag_246:\n        /* \"contracts/NFT_Demo/NFT.sol\":12275:12420  require(... */\n      tag_248\n      jumpi\n      mload(0x40)\n      0x08c379a000000000000000000000000000000000000000000000000000000000\n      dup2\n      mstore\n      0x04\n      add\n      tag_249\n      swap1\n      tag_250\n      jump\t// in\n    tag_249:\n      mload(0x40)\n      dup1\n      swap2\n      sub\n      swap1\n      revert\n    tag_248:\n        /* \"contracts/NFT_Demo/NFT.sol\":12086:12427  function _safeTransfer(... */\n      pop\n      pop\n      pop\n      pop\n      jump\t// out\n        /* \"contracts/NFT_Demo/NFT.sol\":18754:18869  function _baseURI() internal view virtual override returns (string memory) {... */\n    tag_180:\n        /* \"contracts/NFT_Demo/NFT.sol\":18814:18827  string memory */\n      0x60\n        /* \"contracts/NFT_Demo/NFT.sol\":18846:18862  _baseURIextended */\n      0x09\n        /* \"contracts/NFT_Demo/NFT.sol\":18839:18862  return _baseURIextended */\n      dup1\n      sload\n      tag_252\n      swap1\n      tag_84\n      jump\t// in\n    tag_252:\n      dup1\n      0x1f\n      add\n      0x20\n      dup1\n      swap2\n      div\n      mul\n      0x20\n      add\n      mload(0x40)\n      swap1\n      dup2\n      add\n      0x40\n      mstore\n      dup1\n      swap3\n      swap2\n      swap1\n      dup2\n      dup2\n      mstore\n      0x20\n      add\n      dup3\n      dup1\n      sload\n      tag_253\n      swap1\n      tag_84\n      jump\t// in\n    tag_253:\n      dup1\n      iszero\n      tag_254\n      jumpi\n      dup1\n      0x1f\n      lt\n      tag_255\n      jumpi\n      0x0100\n      dup1\n      dup4\n      sload\n      div\n      mul\n      dup4\n      mstore\n      swap2\n      0x20\n      add\n      swap2\n      jump(tag_254)\n    tag_255:\n      dup3\n      add\n      swap2\n      swap1\n      0x00\n      mstore\n      keccak256(0x00, 0x20)\n      swap1\n    tag_256:\n      dup2\n      sload\n      dup2\n      mstore\n      swap1\n      0x01\n      add\n      swap1\n      0x20\n      add\n      dup1\n      dup4\n      gt\n      tag_256\n      jumpi\n      dup3\n      swap1\n      sub\n      0x1f\n      and\n      dup3\n      add\n      swap2\n    tag_254:\n      pop\n      pop\n      pop\n      pop\n      pop\n      swap1\n      pop\n        /* \"contracts/NFT_Demo/NFT.sol\":18754:18869  function _baseURI() internal view virtual override returns (string memory) {... */\n      swap1\n      jump\t// out\n        /* \"contracts/NFT_Demo/NFT.sol\":4744:5259  function toString(uint256 value) internal pure returns (string memory) {... */\n    tag_186:\n        /* \"contracts/NFT_Demo/NFT.sol\":4800:4813  string memory */\n      0x60\n        /* \"contracts/NFT_Demo/NFT.sol\":4838:4839  0 */\n      0x00\n        /* \"contracts/NFT_Demo/NFT.sol\":4829:4834  value */\n      dup3\n        /* \"contracts/NFT_Demo/NFT.sol\":4829:4839  value == 0 */\n      sub\n        /* \"contracts/NFT_Demo/NFT.sol\":4825:4876  if (value == 0) {... */\n      tag_258\n      jumpi\n        /* \"contracts/NFT_Demo/NFT.sol\":4855:4865  return \"0\" */\n      mload(0x40)\n      dup1\n      0x40\n      add\n      0x40\n      mstore\n      dup1\n      0x01\n      dup2\n      mstore\n      0x20\n      add\n      0x3000000000000000000000000000000000000000000000000000000000000000\n      dup2\n      mstore\n      pop\n      swap1\n      pop\n      jump(tag_257)\n        /* \"contracts/NFT_Demo/NFT.sol\":4825:4876  if (value == 0) {... */\n    tag_258:\n        /* \"contracts/NFT_Demo/NFT.sol\":4885:4897  uint256 temp */\n      0x00\n        /* \"contracts/NFT_Demo/NFT.sol\":4900:4905  value */\n      dup3\n        /* \"contracts/NFT_Demo/NFT.sol\":4885:4905  uint256 temp = value */\n      swap1\n      pop\n        /* \"contracts/NFT_Demo/NFT.sol\":4915:4929  uint256 digits */\n      0x00\n        /* \"contracts/NFT_Demo/NFT.sol\":4939:5014  while (temp != 0) {... */\n    tag_259:\n        /* \"contracts/NFT_Demo/NFT.sol\":4954:4955  0 */\n      0x00\n        /* \"contracts/NFT_Demo/NFT.sol\":4946:4950  temp */\n      dup3\n        /* \"contracts/NFT_Demo/NFT.sol\":4946:4955  temp != 0 */\n      eq\n        /* \"contracts/NFT_Demo/NFT.sol\":4939:5014  while (temp != 0) {... */\n      tag_260\n      jumpi\n        /* \"contracts/NFT_Demo/NFT.sol\":4971:4979  digits++ */\n      dup1\n      dup1\n      tag_261\n      swap1\n      tag_142\n      jump\t// in\n    tag_261:\n      swap2\n      pop\n      pop\n        /* \"contracts/NFT_Demo/NFT.sol\":5001:5003  10 */\n      0x0a\n        /* \"contracts/NFT_Demo/NFT.sol\":4993:5003  temp /= 10 */\n      dup3\n      tag_262\n      swap2\n      swap1\n      tag_263\n      jump\t// in\n    tag_262:\n      swap2\n      pop\n        /* \"contracts/NFT_Demo/NFT.sol\":4939:5014  while (temp != 0) {... */\n      jump(tag_259)\n    tag_260:\n        /* \"contracts/NFT_Demo/NFT.sol\":5023:5042  bytes memory buffer */\n      0x00\n        /* \"contracts/NFT_Demo/NFT.sol\":5055:5061  digits */\n      dup2\n        /* \"contracts/NFT_Demo/NFT.sol\":5045:5062  new bytes(digits) */\n      0xffffffffffffffff\n      dup2\n      gt\n      iszero\n      tag_264\n      jumpi\n      tag_265\n      tag_266\n      jump\t// in\n    tag_265:\n    tag_264:\n      mload(0x40)\n      swap1\n      dup1\n      dup3\n      mstore\n      dup1\n      0x1f\n      add\n      not(0x1f)\n      and\n      0x20\n      add\n      dup3\n      add\n      0x40\n      mstore\n      dup1\n      iszero\n      tag_267\n      jumpi\n      dup2\n      0x20\n      add\n      0x01\n      dup3\n      mul\n      dup1\n      calldatasize\n      dup4\n      calldatacopy\n      dup1\n      dup3\n      add\n      swap2\n      pop\n      pop\n      swap1\n      pop\n    tag_267:\n      pop\n        /* \"contracts/NFT_Demo/NFT.sol\":5023:5062  bytes memory buffer = new bytes(digits) */\n      swap1\n      pop\n        /* \"contracts/NFT_Demo/NFT.sol\":5072:5222  while (value != 0) {... */\n    tag_268:\n        /* \"contracts/NFT_Demo/NFT.sol\":5088:5089  0 */\n      0x00\n        /* \"contracts/NFT_Demo/NFT.sol\":5079:5084  value */\n      dup6\n        /* \"contracts/NFT_Demo/NFT.sol\":5079:5089  value != 0 */\n      eq\n        /* \"contracts/NFT_Demo/NFT.sol\":5072:5222  while (value != 0) {... */\n      tag_269\n      jumpi\n        /* \"contracts/NFT_Demo/NFT.sol\":5115:5116  1 */\n      0x01\n        /* \"contracts/NFT_Demo/NFT.sol\":5105:5116  digits -= 1 */\n      dup3\n      tag_270\n      swap2\n      swap1\n      tag_222\n      jump\t// in\n    tag_270:\n      swap2\n      pop\n        /* \"contracts/NFT_Demo/NFT.sol\":5181:5183  10 */\n      0x0a\n        /* \"contracts/NFT_Demo/NFT.sol\":5173:5178  value */\n      dup6\n        /* \"contracts/NFT_Demo/NFT.sol\":5173:5183  value % 10 */\n      tag_271\n      swap2\n      swap1\n      tag_272\n      jump\t// in\n    tag_271:\n        /* \"contracts/NFT_Demo/NFT.sol\":5160:5162  48 */\n      0x30\n        /* \"contracts/NFT_Demo/NFT.sol\":5160:5184  48 + uint256(value % 10) */\n      tag_273\n      swap2\n      swap1\n      tag_224\n      jump\t// in\n    tag_273:\n        /* \"contracts/NFT_Demo/NFT.sol\":5147:5186  bytes1(uint8(48 + uint256(value % 10))) */\n      0xf8\n      shl\n        /* \"contracts/NFT_Demo/NFT.sol\":5130:5136  buffer */\n      dup2\n        /* \"contracts/NFT_Demo/NFT.sol\":5137:5143  digits */\n      dup4\n        /* \"contracts/NFT_Demo/NFT.sol\":5130:5144  buffer[digits] */\n      dup2\n      mload\n      dup2\n      lt\n      tag_274\n      jumpi\n      tag_275\n      tag_276\n      jump\t// in\n    tag_275:\n    tag_274:\n      0x20\n      add\n      add\n        /* \"contracts/NFT_Demo/NFT.sol\":5130:5186  buffer[digits] = bytes1(uint8(48 + uint256(value % 10))) */\n      swap1\n      not(0xffffffffffffffffffffffffffffffffffffffffffffffffffffffffffffff)\n      and\n      swap1\n      dup2\n      0x00\n      byte\n      swap1\n      mstore8\n      pop\n        /* \"contracts/NFT_Demo/NFT.sol\":5209:5211  10 */\n      0x0a\n        /* \"contracts/NFT_Demo/NFT.sol\":5200:5211  value /= 10 */\n      dup6\n      tag_277\n      swap2\n      swap1\n      tag_263\n      jump\t// in\n    tag_277:\n      swap5\n      pop\n        /* \"contracts/NFT_Demo/NFT.sol\":5072:5222  while (value != 0) {... */\n      jump(tag_268)\n    tag_269:\n        /* \"contracts/NFT_Demo/NFT.sol\":5245:5251  buffer */\n      dup1\n        /* \"contracts/NFT_Demo/NFT.sol\":5231:5252  return string(buffer) */\n      swap4\n      pop\n      pop\n      pop\n      pop\n        /* \"contracts/NFT_Demo/NFT.sol\":4744:5259  function toString(uint256 value) internal pure returns (string memory) {... */\n    tag_257:\n      swap2\n      swap1\n      pop\n      jump\t// out\n        /* \"contracts/NFT_Demo/NFT.sol\":16594:16834  function _beforeTokenTransfer(... */\n    tag_219:\n        /* \"contracts/NFT_Demo/NFT.sol\":16765:16769  from */\n      dup3\n        /* \"contracts/NFT_Demo/NFT.sol\":16745:16769  _owners[tokenId] == from */\n      0xffffffffffffffffffffffffffffffffffffffff\n      and\n        /* \"contracts/NFT_Demo/NFT.sol\":16745:16752  _owners */\n      0x02\n        /* \"contracts/NFT_Demo/NFT.sol\":16745:16761  _owners[tokenId] */\n      0x00\n        /* \"contracts/NFT_Demo/NFT.sol\":16753:16760  tokenId */\n      dup4\n        /* \"contracts/NFT_Demo/NFT.sol\":16745:16761  _owners[tokenId] */\n      dup2\n      mstore\n      0x20\n      add\n      swap1\n      dup2\n      mstore\n      0x20\n      add\n      0x00\n      keccak256\n      0x00\n      swap1\n      sload\n      swap1\n      0x0100\n      exp\n      swap1\n      div\n      0xffffffffffffffffffffffffffffffffffffffff\n      and\n        /* \"contracts/NFT_Demo/NFT.sol\":16745:16769  _owners[tokenId] == from */\n      0xffffffffffffffffffffffffffffffffffffffff\n      and\n      eq\n        /* \"contracts/NFT_Demo/NFT.sol\":16724:16827  require(... */\n      tag_279\n      jumpi\n      mload(0x40)\n      0x08c379a000000000000000000000000000000000000000000000000000000000\n      dup2\n      mstore\n      0x04\n      add\n      tag_280\n      swap1\n      tag_281\n      jump\t// in\n    tag_280:\n      mload(0x40)\n      dup1\n      swap2\n      sub\n      swap1\n      revert\n    tag_279:\n        /* \"contracts/NFT_Demo/NFT.sol\":16594:16834  function _beforeTokenTransfer(... */\n      pop\n      pop\n      pop\n      jump\t// out\n        /* \"contracts/NFT_Demo/NFT.sol\":16840:16961  function _afterTokenTransfer(... */\n    tag_226:\n      pop\n      pop\n      pop\n      jump\t// out\n        /* \"contracts/NFT_Demo/NFT.sol\":15638:16588  function _checkOnERC721Received(... */\n    tag_247:\n        /* \"contracts/NFT_Demo/NFT.sol\":15788:15792  bool */\n      0x00\n        /* \"contracts/NFT_Demo/NFT.sol\":15808:15823  to.isContract() */\n      tag_284\n        /* \"contracts/NFT_Demo/NFT.sol\":15808:15810  to */\n      dup5\n        /* \"contracts/NFT_Demo/NFT.sol\":15808:15821  to.isContract */\n      0xffffffffffffffffffffffffffffffffffffffff\n      and\n      tag_285\n        /* \"contracts/NFT_Demo/NFT.sol\":15808:15823  to.isContract() */\n      jump\t// in\n    tag_284:\n        /* \"contracts/NFT_Demo/NFT.sol\":15804:16582  if (to.isContract()) {... */\n      iszero\n      tag_286\n      jumpi\n        /* \"contracts/NFT_Demo/NFT.sol\":15875:15877  to */\n      dup4\n        /* \"contracts/NFT_Demo/NFT.sol\":15859:15895  IERC721Receiver(to).onERC721Received */\n      0xffffffffffffffffffffffffffffffffffffffff\n      and\n      0x150b7a02\n        /* \"contracts/NFT_Demo/NFT.sol\":15917:15929  _msgSender() */\n      tag_287\n        /* \"contracts/NFT_Demo/NFT.sol\":15917:15927  _msgSender */\n      tag_101\n        /* \"contracts/NFT_Demo/NFT.sol\":15917:15929  _msgSender() */\n      jump\t// in\n    tag_287:\n        /* \"contracts/NFT_Demo/NFT.sol\":15951:15955  from */\n      dup8\n        /* \"contracts/NFT_Demo/NFT.sol\":15977:15984  tokenId */\n      dup7\n        /* \"contracts/NFT_Demo/NFT.sol\":16006:16011  _data */\n      dup7\n        /* \"contracts/NFT_Demo/NFT.sol\":15859:16029  IERC721Receiver(to).onERC721Received(... */\n      mload(0x40)\n      dup6\n      0xffffffff\n      and\n      0xe0\n      shl\n      dup2\n      mstore\n      0x04\n      add\n      tag_288\n      swap5\n      swap4\n      swap3\n      swap2\n      swap1\n      tag_289\n      jump\t// in\n    tag_288:\n      0x20\n      mload(0x40)\n      dup1\n      dup4\n      sub\n      dup2\n      0x00\n      dup8\n      gas\n      call\n      swap3\n      pop\n      pop\n      pop\n      dup1\n      iszero\n      tag_290\n      jumpi\n      pop\n      mload(0x40)\n      returndatasize\n      not(0x1f)\n      0x1f\n      dup3\n      add\n      and\n      dup3\n      add\n      dup1\n      0x40\n      mstore\n      pop\n      dup2\n      add\n      swap1\n      tag_291\n      swap2\n      swap1\n      tag_292\n      jump\t// in\n    tag_291:\n      0x01\n    tag_290:\n        /* \"contracts/NFT_Demo/NFT.sol\":15839:16530  try... */\n      tag_293\n      jumpi\n      returndatasize\n      dup1\n      0x00\n      dup2\n      eq\n      tag_298\n      jumpi\n      mload(0x40)\n      swap2\n      pop\n      and(add(returndatasize, 0x3f), not(0x1f))\n      dup3\n      add\n      0x40\n      mstore\n      returndatasize\n      dup3\n      mstore\n      returndatasize\n      0x00\n      0x20\n      dup5\n      add\n      returndatacopy\n      jump(tag_297)\n    tag_298:\n      0x60\n      swap2\n      pop\n    tag_297:\n      pop\n        /* \"contracts/NFT_Demo/NFT.sol\":16225:16226  0 */\n      0x00\n        /* \"contracts/NFT_Demo/NFT.sol\":16208:16214  reason */\n      dup2\n        /* \"contracts/NFT_Demo/NFT.sol\":16208:16221  reason.length */\n      mload\n        /* \"contracts/NFT_Demo/NFT.sol\":16208:16226  reason.length == 0 */\n      sub\n        /* \"contracts/NFT_Demo/NFT.sol\":16204:16516  if (reason.length == 0) {... */\n      tag_299\n      jumpi\n        /* \"contracts/NFT_Demo/NFT.sol\":16250:16356  revert(... */\n      mload(0x40)\n      0x08c379a000000000000000000000000000000000000000000000000000000000\n      dup2\n      mstore\n      0x04\n      add\n      tag_300\n      swap1\n      tag_250\n      jump\t// in\n    tag_300:\n      mload(0x40)\n      dup1\n      swap2\n      sub\n      swap1\n      revert\n        /* \"contracts/NFT_Demo/NFT.sol\":16204:16516  if (reason.length == 0) {... */\n    tag_299:\n        /* \"contracts/NFT_Demo/NFT.sol\":16468:16474  reason */\n      dup1\n        /* \"contracts/NFT_Demo/NFT.sol\":16462:16475  mload(reason) */\n      mload\n        /* \"contracts/NFT_Demo/NFT.sol\":16453:16459  reason */\n      dup2\n        /* \"contracts/NFT_Demo/NFT.sol\":16449:16451  32 */\n      0x20\n        /* \"contracts/NFT_Demo/NFT.sol\":16445:16460  add(32, reason) */\n      add\n        /* \"contracts/NFT_Demo/NFT.sol\":16438:16476  revert(add(32, reason), mload(reason)) */\n      revert\n        /* \"contracts/NFT_Demo/NFT.sol\":15839:16530  try... */\n    tag_293:\n        /* \"contracts/NFT_Demo/NFT.sol\":16101:16142  IERC721Receiver.onERC721Received.selector */\n      shl(0xe0, 0x150b7a02)\n        /* \"contracts/NFT_Demo/NFT.sol\":16091:16142  retval == IERC721Receiver.onERC721Received.selector */\n      not(0xffffffffffffffffffffffffffffffffffffffffffffffffffffffff)\n      and\n        /* \"contracts/NFT_Demo/NFT.sol\":16091:16097  retval */\n      dup2\n        /* \"contracts/NFT_Demo/NFT.sol\":16091:16142  retval == IERC721Receiver.onERC721Received.selector */\n      not(0xffffffffffffffffffffffffffffffffffffffffffffffffffffffff)\n      and\n      eq\n        /* \"contracts/NFT_Demo/NFT.sol\":16084:16142  return retval == IERC721Receiver.onERC721Received.selector */\n      swap2\n      pop\n      pop\n      jump(tag_283)\n        /* \"contracts/NFT_Demo/NFT.sol\":15804:16582  if (to.isContract()) {... */\n    tag_286:\n        /* \"contracts/NFT_Demo/NFT.sol\":16567:16571  true */\n      0x01\n        /* \"contracts/NFT_Demo/NFT.sol\":16560:16571  return true */\n      swap1\n      pop\n        /* \"contracts/NFT_Demo/NFT.sol\":15638:16588  function _checkOnERC721Received(... */\n    tag_283:\n      swap5\n      swap4\n      pop\n      pop\n      pop\n      pop\n      jump\t// out\n        /* \"contracts/NFT_Demo/NFT.sol\":522:842  function isContract(address account) internal view returns (bool) {... */\n    tag_285:\n        /* \"contracts/NFT_Demo/NFT.sol\":582:586  bool */\n      0x00\n        /* \"contracts/NFT_Demo/NFT.sol\":834:835  0 */\n      dup1\n        /* \"contracts/NFT_Demo/NFT.sol\":812:819  account */\n      dup3\n        /* \"contracts/NFT_Demo/NFT.sol\":812:831  account.code.length */\n      0xffffffffffffffffffffffffffffffffffffffff\n      and\n      extcodesize\n        /* \"contracts/NFT_Demo/NFT.sol\":812:835  account.code.length > 0 */\n      gt\n        /* \"contracts/NFT_Demo/NFT.sol\":805:835  return account.code.length > 0 */\n      swap1\n      pop\n        /* \"contracts/NFT_Demo/NFT.sol\":522:842  function isContract(address account) internal view returns (bool) {... */\n      swap2\n      swap1\n      pop\n      jump\t// out\n    tag_126:\n      dup3\n      dup1\n      sload\n      tag_305\n      swap1\n      tag_84\n      jump\t// in\n    tag_305:\n      swap1\n      0x00\n      mstore\n      keccak256(0x00, 0x20)\n      swap1\n      0x1f\n      add\n      0x20\n      swap1\n      div\n      dup2\n      add\n      swap3\n      dup3\n      tag_307\n      jumpi\n      0x00\n      dup6\n      sstore\n      jump(tag_306)\n    tag_307:\n      dup3\n      0x1f\n      lt\n      tag_308\n      jumpi\n      dup1\n      mload\n      not(0xff)\n      and\n      dup4\n      dup1\n      add\n      or\n      dup6\n      sstore\n      jump(tag_306)\n    tag_308:\n      dup3\n      dup1\n      add\n      0x01\n      add\n      dup6\n      sstore\n      dup3\n      iszero\n      tag_306\n      jumpi\n      swap2\n      dup3\n      add\n    tag_309:\n      dup3\n      dup2\n      gt\n      iszero\n      tag_310\n      jumpi\n      dup3\n      mload\n      dup3\n      sstore\n      swap2\n      0x20\n      add\n      swap2\n      swap1\n      0x01\n      add\n      swap1\n      jump(tag_309)\n    tag_310:\n    tag_306:\n      pop\n      swap1\n      pop\n      tag_311\n      swap2\n      swap1\n      tag_312\n      jump\t// in\n    tag_311:\n      pop\n      swap1\n      jump\t// out\n    tag_312:\n    tag_313:\n      dup1\n      dup3\n      gt\n      iszero\n      tag_314\n      jumpi\n      0x00\n      dup2\n      0x00\n      swap1\n      sstore\n      pop\n      0x01\n      add\n      jump(tag_313)\n    tag_314:\n      pop\n      swap1\n      jump\t// out\n        /* \"#utility.yul\":7:106   */\n    tag_315:\n        /* \"#utility.yul\":59:65   */\n      0x00\n        /* \"#utility.yul\":93:98   */\n      dup2\n        /* \"#utility.yul\":87:99   */\n      mload\n        /* \"#utility.yul\":77:99   */\n      swap1\n      pop\n        /* \"#utility.yul\":7:106   */\n      swap2\n      swap1\n      pop\n      jump\t// out\n        /* \"#utility.yul\":112:281   */\n    tag_316:\n        /* \"#utility.yul\":196:207   */\n      0x00\n        /* \"#utility.yul\":230:236   */\n      dup3\n        /* \"#utility.yul\":225:228   */\n      dup3\n        /* \"#utility.yul\":218:237   */\n      mstore\n        /* \"#utility.yul\":270:274   */\n      0x20\n        /* \"#utility.yul\":265:268   */\n      dup3\n        /* \"#utility.yul\":261:275   */\n      add\n        /* \"#utility.yul\":246:275   */\n      swap1\n      pop\n        /* \"#utility.yul\":112:281   */\n      swap3\n      swap2\n      pop\n      pop\n      jump\t// out\n        /* \"#utility.yul\":287:594   */\n    tag_317:\n        /* \"#utility.yul\":355:356   */\n      0x00\n        /* \"#utility.yul\":365:478   */\n    tag_391:\n        /* \"#utility.yul\":379:385   */\n      dup4\n        /* \"#utility.yul\":376:377   */\n      dup2\n        /* \"#utility.yul\":373:386   */\n      lt\n        /* \"#utility.yul\":365:478   */\n      iszero\n      tag_393\n      jumpi\n        /* \"#utility.yul\":464:465   */\n      dup1\n        /* \"#utility.yul\":459:462   */\n      dup3\n        /* \"#utility.yul\":455:466   */\n      add\n        /* \"#utility.yul\":449:467   */\n      mload\n        /* \"#utility.yul\":445:446   */\n      dup2\n        /* \"#utility.yul\":440:443   */\n      dup5\n        /* \"#utility.yul\":436:447   */\n      add\n        /* \"#utility.yul\":429:468   */\n      mstore\n        /* \"#utility.yul\":401:403   */\n      0x20\n        /* \"#utility.yul\":398:399   */\n      dup2\n        /* \"#utility.yul\":394:404   */\n      add\n        /* \"#utility.yul\":389:404   */\n      swap1\n      pop\n        /* \"#utility.yul\":365:478   */\n      jump(tag_391)\n    tag_393:\n        /* \"#utility.yul\":496:502   */\n      dup4\n        /* \"#utility.yul\":493:494   */\n      dup2\n        /* \"#utility.yul\":490:503   */\n      gt\n        /* \"#utility.yul\":487:588   */\n      iszero\n      tag_394\n      jumpi\n        /* \"#utility.yul\":576:577   */\n      0x00\n        /* \"#utility.yul\":567:573   */\n      dup5\n        /* \"#utility.yul\":562:565   */\n      dup5\n        /* \"#utility.yul\":558:574   */\n      add\n        /* \"#utility.yul\":551:578   */\n      mstore\n        /* \"#utility.yul\":487:588   */\n    tag_394:\n        /* \"#utility.yul\":336:594   */\n      pop\n        /* \"#utility.yul\":287:594   */\n      pop\n      pop\n      pop\n      jump\t// out\n        /* \"#utility.yul\":600:702   */\n    tag_318:\n        /* \"#utility.yul\":641:647   */\n      0x00\n        /* \"#utility.yul\":692:694   */\n      0x1f\n        /* \"#utility.yul\":688:695   */\n      not\n        /* \"#utility.yul\":683:685   */\n      0x1f\n        /* \"#utility.yul\":676:681   */\n      dup4\n        /* \"#utility.yul\":672:686   */\n      add\n        /* \"#utility.yul\":668:696   */\n      and\n        /* \"#utility.yul\":658:696   */\n      swap1\n      pop\n        /* \"#utility.yul\":600:702   */\n      swap2\n      swap1\n      pop\n      jump\t// out\n        /* \"#utility.yul\":708:1072   */\n    tag_319:\n        /* \"#utility.yul\":796:799   */\n      0x00\n        /* \"#utility.yul\":824:863   */\n      tag_397\n        /* \"#utility.yul\":857:862   */\n      dup3\n        /* \"#utility.yul\":824:863   */\n      tag_315\n      jump\t// in\n    tag_397:\n        /* \"#utility.yul\":879:950   */\n      tag_398\n        /* \"#utility.yul\":943:949   */\n      dup2\n        /* \"#utility.yul\":938:941   */\n      dup6\n        /* \"#utility.yul\":879:950   */\n      tag_316\n      jump\t// in\n    tag_398:\n        /* \"#utility.yul\":872:950   */\n      swap4\n      pop\n        /* \"#utility.yul\":959:1011   */\n      tag_399\n        /* \"#utility.yul\":1004:1010   */\n      dup2\n        /* \"#utility.yul\":999:1002   */\n      dup6\n        /* \"#utility.yul\":992:996   */\n      0x20\n        /* \"#utility.yul\":985:990   */\n      dup7\n        /* \"#utility.yul\":981:997   */\n      add\n        /* \"#utility.yul\":959:1011   */\n      tag_317\n      jump\t// in\n    tag_399:\n        /* \"#utility.yul\":1036:1065   */\n      tag_400\n        /* \"#utility.yul\":1058:1064   */\n      dup2\n        /* \"#utility.yul\":1036:1065   */\n      tag_318\n      jump\t// in\n    tag_400:\n        /* \"#utility.yul\":1031:1034   */\n      dup5\n        /* \"#utility.yul\":1027:1066   */\n      add\n        /* \"#utility.yul\":1020:1066   */\n      swap2\n      pop\n        /* \"#utility.yul\":800:1072   */\n      pop\n        /* \"#utility.yul\":708:1072   */\n      swap3\n      swap2\n      pop\n      pop\n      jump\t// out\n        /* \"#utility.yul\":1078:1391   */\n    tag_25:\n        /* \"#utility.yul\":1191:1195   */\n      0x00\n        /* \"#utility.yul\":1229:1231   */\n      0x20\n        /* \"#utility.yul\":1218:1227   */\n      dup3\n        /* \"#utility.yul\":1214:1232   */\n      add\n        /* \"#utility.yul\":1206:1232   */\n      swap1\n      pop\n        /* \"#utility.yul\":1278:1287   */\n      dup2\n        /* \"#utility.yul\":1272:1276   */\n      dup2\n        /* \"#utility.yul\":1268:1288   */\n      sub\n        /* \"#utility.yul\":1264:1265   */\n      0x00\n        /* \"#utility.yul\":1253:1262   */\n      dup4\n        /* \"#utility.yul\":1249:1266   */\n      add\n        /* \"#utility.yul\":1242:1289   */\n      mstore\n        /* \"#utility.yul\":1306:1384   */\n      tag_402\n        /* \"#utility.yul\":1379:1383   */\n      dup2\n        /* \"#utility.yul\":1370:1376   */\n      dup5\n        /* \"#utility.yul\":1306:1384   */\n      tag_319\n      jump\t// in\n    tag_402:\n        /* \"#utility.yul\":1298:1384   */\n      swap1\n      pop\n        /* \"#utility.yul\":1078:1391   */\n      swap3\n      swap2\n      pop\n      pop\n      jump\t// out\n        /* \"#utility.yul\":1397:1472   */\n    tag_320:\n        /* \"#utility.yul\":1430:1436   */\n      0x00\n        /* \"#utility.yul\":1463:1465   */\n      0x40\n        /* \"#utility.yul\":1457:1466   */\n      mload\n        /* \"#utility.yul\":1447:1466   */\n      swap1\n      pop\n        /* \"#utility.yul\":1397:1472   */\n      swap1\n      jump\t// out\n        /* \"#utility.yul\":1478:1595   */\n    tag_321:\n        /* \"#utility.yul\":1587:1588   */\n      0x00\n        /* \"#utility.yul\":1584:1585   */\n      dup1\n        /* \"#utility.yul\":1577:1589   */\n      revert\n        /* \"#utility.yul\":1601:1718   */\n    tag_322:\n        /* \"#utility.yul\":1710:1711   */\n      0x00\n        /* \"#utility.yul\":1707:1708   */\n      dup1\n        /* \"#utility.yul\":1700:1712   */\n      revert\n        /* \"#utility.yul\":1724:1801   */\n    tag_323:\n        /* \"#utility.yul\":1761:1768   */\n      0x00\n        /* \"#utility.yul\":1790:1795   */\n      dup2\n        /* \"#utility.yul\":1779:1795   */\n      swap1\n      pop\n        /* \"#utility.yul\":1724:1801   */\n      swap2\n      swap1\n      pop\n      jump\t// out\n        /* \"#utility.yul\":1807:1929   */\n    tag_324:\n        /* \"#utility.yul\":1880:1904   */\n      tag_408\n        /* \"#utility.yul\":1898:1903   */\n      dup2\n        /* \"#utility.yul\":1880:1904   */\n      tag_323\n      jump\t// in\n    tag_408:\n        /* \"#utility.yul\":1873:1878   */\n      dup2\n        /* \"#utility.yul\":1870:1905   */\n      eq\n        /* \"#utility.yul\":1860:1923   */\n      tag_409\n      jumpi\n        /* \"#utility.yul\":1919:1920   */\n      0x00\n        /* \"#utility.yul\":1916:1917   */\n      dup1\n        /* \"#utility.yul\":1909:1921   */\n      revert\n        /* \"#utility.yul\":1860:1923   */\n    tag_409:\n        /* \"#utility.yul\":1807:1929   */\n      pop\n      jump\t// out\n        /* \"#utility.yul\":1935:2074   */\n    tag_325:\n        /* \"#utility.yul\":1981:1986   */\n      0x00\n        /* \"#utility.yul\":2019:2025   */\n      dup2\n        /* \"#utility.yul\":2006:2026   */\n      calldataload\n        /* \"#utility.yul\":1997:2026   */\n      swap1\n      pop\n        /* \"#utility.yul\":2035:2068   */\n      tag_411\n        /* \"#utility.yul\":2062:2067   */\n      dup2\n        /* \"#utility.yul\":2035:2068   */\n      tag_324\n      jump\t// in\n    tag_411:\n        /* \"#utility.yul\":1935:2074   */\n      swap3\n      swap2\n      pop\n      pop\n      jump\t// out\n        /* \"#utility.yul\":2080:2409   */\n    tag_28:\n        /* \"#utility.yul\":2139:2145   */\n      0x00\n        /* \"#utility.yul\":2188:2190   */\n      0x20\n        /* \"#utility.yul\":2176:2185   */\n      dup3\n        /* \"#utility.yul\":2167:2174   */\n      dup5\n        /* \"#utility.yul\":2163:2186   */\n      sub\n        /* \"#utility.yul\":2159:2191   */\n      slt\n        /* \"#utility.yul\":2156:2275   */\n      iszero\n      tag_413\n      jumpi\n        /* \"#utility.yul\":2194:2273   */\n      tag_414\n      tag_321\n      jump\t// in\n    tag_414:\n        /* \"#utility.yul\":2156:2275   */\n    tag_413:\n        /* \"#utility.yul\":2314:2315   */\n      0x00\n        /* \"#utility.yul\":2339:2392   */\n      tag_415\n        /* \"#utility.yul\":2384:2391   */\n      dup5\n        /* \"#utility.yul\":2375:2381   */\n      dup3\n        /* \"#utility.yul\":2364:2373   */\n      dup6\n        /* \"#utility.yul\":2360:2382   */\n      add\n        /* \"#utility.yul\":2339:2392   */\n      tag_325\n      jump\t// in\n    tag_415:\n        /* \"#utility.yul\":2329:2392   */\n      swap2\n      pop\n        /* \"#utility.yul\":2285:2402   */\n      pop\n        /* \"#utility.yul\":2080:2409   */\n      swap3\n      swap2\n      pop\n      pop\n      jump\t// out\n        /* \"#utility.yul\":2415:2541   */\n    tag_326:\n        /* \"#utility.yul\":2452:2459   */\n      0x00\n        /* \"#utility.yul\":2492:2534   */\n      0xffffffffffffffffffffffffffffffffffffffff\n        /* \"#utility.yul\":2485:2490   */\n      dup3\n        /* \"#utility.yul\":2481:2535   */\n      and\n        /* \"#utility.yul\":2470:2535   */\n      swap1\n      pop\n        /* \"#utility.yul\":2415:2541   */\n      swap2\n      swap1\n      pop\n      jump\t// out\n        /* \"#utility.yul\":2547:2643   */\n    tag_327:\n        /* \"#utility.yul\":2584:2591   */\n      0x00\n        /* \"#utility.yul\":2613:2637   */\n      tag_418\n        /* \"#utility.yul\":2631:2636   */\n      dup3\n        /* \"#utility.yul\":2613:2637   */\n      tag_326\n      jump\t// in\n    tag_418:\n        /* \"#utility.yul\":2602:2637   */\n      swap1\n      pop\n        /* \"#utility.yul\":2547:2643   */\n      swap2\n      swap1\n      pop\n      jump\t// out\n        /* \"#utility.yul\":2649:2767   */\n    tag_328:\n        /* \"#utility.yul\":2736:2760   */\n      tag_420\n        /* \"#utility.yul\":2754:2759   */\n      dup2\n        /* \"#utility.yul\":2736:2760   */\n      tag_327\n      jump\t// in\n    tag_420:\n        /* \"#utility.yul\":2731:2734   */\n      dup3\n        /* \"#utility.yul\":2724:2761   */\n      mstore\n        /* \"#utility.yul\":2649:2767   */\n      pop\n      pop\n      jump\t// out\n        /* \"#utility.yul\":2773:2995   */\n    tag_31:\n        /* \"#utility.yul\":2866:2870   */\n      0x00\n        /* \"#utility.yul\":2904:2906   */\n      0x20\n        /* \"#utility.yul\":2893:2902   */\n      dup3\n        /* \"#utility.yul\":2889:2907   */\n      add\n        /* \"#utility.yul\":2881:2907   */\n      swap1\n      pop\n        /* \"#utility.yul\":2917:2988   */\n      tag_422\n        /* \"#utility.yul\":2985:2986   */\n      0x00\n        /* \"#utility.yul\":2974:2983   */\n      dup4\n        /* \"#utility.yul\":2970:2987   */\n      add\n        /* \"#utility.yul\":2961:2967   */\n      dup5\n        /* \"#utility.yul\":2917:2988   */\n      tag_328\n      jump\t// in\n    tag_422:\n        /* \"#utility.yul\":2773:2995   */\n      swap3\n      swap2\n      pop\n      pop\n      jump\t// out\n        /* \"#utility.yul\":3001:3123   */\n    tag_329:\n        /* \"#utility.yul\":3074:3098   */\n      tag_424\n        /* \"#utility.yul\":3092:3097   */\n      dup2\n        /* \"#utility.yul\":3074:3098   */\n      tag_327\n      jump\t// in\n    tag_424:\n        /* \"#utility.yul\":3067:3072   */\n      dup2\n        /* \"#utility.yul\":3064:3099   */\n      eq\n        /* \"#utility.yul\":3054:3117   */\n      tag_425\n      jumpi\n        /* \"#utility.yul\":3113:3114   */\n      0x00\n        /* \"#utility.yul\":3110:3111   */\n      dup1\n        /* \"#utility.yul\":3103:3115   */\n      revert\n        /* \"#utility.yul\":3054:3117   */\n    tag_425:\n        /* \"#utility.yul\":3001:3123   */\n      pop\n      jump\t// out\n        /* \"#utility.yul\":3129:3268   */\n    tag_330:\n        /* \"#utility.yul\":3175:3180   */\n      0x00\n        /* \"#utility.yul\":3213:3219   */\n      dup2\n        /* \"#utility.yul\":3200:3220   */\n      calldataload\n        /* \"#utility.yul\":3191:3220   */\n      swap1\n      pop\n        /* \"#utility.yul\":3229:3262   */\n      tag_427\n        /* \"#utility.yul\":3256:3261   */\n      dup2\n        /* \"#utility.yul\":3229:3262   */\n      tag_329\n      jump\t// in\n    tag_427:\n        /* \"#utility.yul\":3129:3268   */\n      swap3\n      swap2\n      pop\n      pop\n      jump\t// out\n        /* \"#utility.yul\":3274:3748   */\n    tag_34:\n        /* \"#utility.yul\":3342:3348   */\n      0x00\n        /* \"#utility.yul\":3350:3356   */\n      dup1\n        /* \"#utility.yul\":3399:3401   */\n      0x40\n        /* \"#utility.yul\":3387:3396   */\n      dup4\n        /* \"#utility.yul\":3378:3385   */\n      dup6\n        /* \"#utility.yul\":3374:3397   */\n      sub\n        /* \"#utility.yul\":3370:3402   */\n      slt\n        /* \"#utility.yul\":3367:3486   */\n      iszero\n      tag_429\n      jumpi\n        /* \"#utility.yul\":3405:3484   */\n      tag_430\n      tag_321\n      jump\t// in\n    tag_430:\n        /* \"#utility.yul\":3367:3486   */\n    tag_429:\n        /* \"#utility.yul\":3525:3526   */\n      0x00\n        /* \"#utility.yul\":3550:3603   */\n      tag_431\n        /* \"#utility.yul\":3595:3602   */\n      dup6\n        /* \"#utility.yul\":3586:3592   */\n      dup3\n        /* \"#utility.yul\":3575:3584   */\n      dup7\n        /* \"#utility.yul\":3571:3593   */\n      add\n        /* \"#utility.yul\":3550:3603   */\n      tag_330\n      jump\t// in\n    tag_431:\n        /* \"#utility.yul\":3540:3603   */\n      swap3\n      pop\n        /* \"#utility.yul\":3496:3613   */\n      pop\n        /* \"#utility.yul\":3652:3654   */\n      0x20\n        /* \"#utility.yul\":3678:3731   */\n      tag_432\n        /* \"#utility.yul\":3723:3730   */\n      dup6\n        /* \"#utility.yul\":3714:3720   */\n      dup3\n        /* \"#utility.yul\":3703:3712   */\n      dup7\n        /* \"#utility.yul\":3699:3721   */\n      add\n        /* \"#utility.yul\":3678:3731   */\n      tag_325\n      jump\t// in\n    tag_432:\n        /* \"#utility.yul\":3668:3731   */\n      swap2\n      pop\n        /* \"#utility.yul\":3623:3741   */\n      pop\n        /* \"#utility.yul\":3274:3748   */\n      swap3\n      pop\n      swap3\n      swap1\n      pop\n      jump\t// out\n        /* \"#utility.yul\":3754:4373   */\n    tag_38:\n        /* \"#utility.yul\":3831:3837   */\n      0x00\n        /* \"#utility.yul\":3839:3845   */\n      dup1\n        /* \"#utility.yul\":3847:3853   */\n      0x00\n        /* \"#utility.yul\":3896:3898   */\n      0x60\n        /* \"#utility.yul\":3884:3893   */\n      dup5\n        /* \"#utility.yul\":3875:3882   */\n      dup7\n        /* \"#utility.yul\":3871:3894   */\n      sub\n        /* \"#utility.yul\":3867:3899   */\n      slt\n        /* \"#utility.yul\":3864:3983   */\n      iszero\n      tag_434\n      jumpi\n        /* \"#utility.yul\":3902:3981   */\n      tag_435\n      tag_321\n      jump\t// in\n    tag_435:\n        /* \"#utility.yul\":3864:3983   */\n    tag_434:\n        /* \"#utility.yul\":4022:4023   */\n      0x00\n        /* \"#utility.yul\":4047:4100   */\n      tag_436\n        /* \"#utility.yul\":4092:4099   */\n      dup7\n        /* \"#utility.yul\":4083:4089   */\n      dup3\n        /* \"#utility.yul\":4072:4081   */\n      dup8\n        /* \"#utility.yul\":4068:4090   */\n      add\n        /* \"#utility.yul\":4047:4100   */\n      tag_330\n      jump\t// in\n    tag_436:\n        /* \"#utility.yul\":4037:4100   */\n      swap4\n      pop\n        /* \"#utility.yul\":3993:4110   */\n      pop\n        /* \"#utility.yul\":4149:4151   */\n      0x20\n        /* \"#utility.yul\":4175:4228   */\n      tag_437\n        /* \"#utility.yul\":4220:4227   */\n      dup7\n        /* \"#utility.yul\":4211:4217   */\n      dup3\n        /* \"#utility.yul\":4200:4209   */\n      dup8\n        /* \"#utility.yul\":4196:4218   */\n      add\n        /* \"#utility.yul\":4175:4228   */\n      tag_330\n      jump\t// in\n    tag_437:\n        /* \"#utility.yul\":4165:4228   */\n      swap3\n      pop\n        /* \"#utility.yul\":4120:4238   */\n      pop\n        /* \"#utility.yul\":4277:4279   */\n      0x40\n        /* \"#utility.yul\":4303:4356   */\n      tag_438\n        /* \"#utility.yul\":4348:4355   */\n      dup7\n        /* \"#utility.yul\":4339:4345   */\n      dup3\n        /* \"#utility.yul\":4328:4337   */\n      dup8\n        /* \"#utility.yul\":4324:4346   */\n      add\n        /* \"#utility.yul\":4303:4356   */\n      tag_325\n      jump\t// in\n    tag_438:\n        /* \"#utility.yul\":4293:4356   */\n      swap2\n      pop\n        /* \"#utility.yul\":4248:4366   */\n      pop\n        /* \"#utility.yul\":3754:4373   */\n      swap3\n      pop\n      swap3\n      pop\n      swap3\n      jump\t// out\n        /* \"#utility.yul\":4379:4496   */\n    tag_331:\n        /* \"#utility.yul\":4488:4489   */\n      0x00\n        /* \"#utility.yul\":4485:4486   */\n      dup1\n        /* \"#utility.yul\":4478:4490   */\n      revert\n        /* \"#utility.yul\":4502:4619   */\n    tag_332:\n        /* \"#utility.yul\":4611:4612   */\n      0x00\n        /* \"#utility.yul\":4608:4609   */\n      dup1\n        /* \"#utility.yul\":4601:4613   */\n      revert\n        /* \"#utility.yul\":4625:4805   */\n    tag_266:\n        /* \"#utility.yul\":4673:4750   */\n      0x4e487b7100000000000000000000000000000000000000000000000000000000\n        /* \"#utility.yul\":4670:4671   */\n      0x00\n        /* \"#utility.yul\":4663:4751   */\n      mstore\n        /* \"#utility.yul\":4770:4774   */\n      0x41\n        /* \"#utility.yul\":4767:4768   */\n      0x04\n        /* \"#utility.yul\":4760:4775   */\n      mstore\n        /* \"#utility.yul\":4794:4798   */\n      0x24\n        /* \"#utility.yul\":4791:4792   */\n      0x00\n        /* \"#utility.yul\":4784:4799   */\n      revert\n        /* \"#utility.yul\":4811:5092   */\n    tag_333:\n        /* \"#utility.yul\":4894:4921   */\n      tag_443\n        /* \"#utility.yul\":4916:4920   */\n      dup3\n        /* \"#utility.yul\":4894:4921   */\n      tag_318\n      jump\t// in\n    tag_443:\n        /* \"#utility.yul\":4886:4892   */\n      dup2\n        /* \"#utility.yul\":4882:4922   */\n      add\n        /* \"#utility.yul\":5024:5030   */\n      dup2\n        /* \"#utility.yul\":5012:5022   */\n      dup2\n        /* \"#utility.yul\":5009:5031   */\n      lt\n        /* \"#utility.yul\":4988:5006   */\n      0xffffffffffffffff\n        /* \"#utility.yul\":4976:4986   */\n      dup3\n        /* \"#utility.yul\":4973:5007   */\n      gt\n        /* \"#utility.yul\":4970:5032   */\n      or\n        /* \"#utility.yul\":4967:5055   */\n      iszero\n      tag_444\n      jumpi\n        /* \"#utility.yul\":5035:5053   */\n      tag_445\n      tag_266\n      jump\t// in\n    tag_445:\n        /* \"#utility.yul\":4967:5055   */\n    tag_444:\n        /* \"#utility.yul\":5075:5085   */\n      dup1\n        /* \"#utility.yul\":5071:5073   */\n      0x40\n        /* \"#utility.yul\":5064:5086   */\n      mstore\n        /* \"#utility.yul\":4854:5092   */\n      pop\n        /* \"#utility.yul\":4811:5092   */\n      pop\n      pop\n      jump\t// out\n        /* \"#utility.yul\":5098:5227   */\n    tag_334:\n        /* \"#utility.yul\":5132:5138   */\n      0x00\n        /* \"#utility.yul\":5159:5179   */\n      tag_447\n      tag_320\n      jump\t// in\n    tag_447:\n        /* \"#utility.yul\":5149:5179   */\n      swap1\n      pop\n        /* \"#utility.yul\":5188:5221   */\n      tag_448\n        /* \"#utility.yul\":5216:5220   */\n      dup3\n        /* \"#utility.yul\":5208:5214   */\n      dup3\n        /* \"#utility.yul\":5188:5221   */\n      tag_333\n      jump\t// in\n    tag_448:\n        /* \"#utility.yul\":5098:5227   */\n      swap2\n      swap1\n      pop\n      jump\t// out\n        /* \"#utility.yul\":5233:5541   */\n    tag_335:\n        /* \"#utility.yul\":5295:5299   */\n      0x00\n        /* \"#utility.yul\":5385:5403   */\n      0xffffffffffffffff\n        /* \"#utility.yul\":5377:5383   */\n      dup3\n        /* \"#utility.yul\":5374:5404   */\n      gt\n        /* \"#utility.yul\":5371:5427   */\n      iszero\n      tag_450\n      jumpi\n        /* \"#utility.yul\":5407:5425   */\n      tag_451\n      tag_266\n      jump\t// in\n    tag_451:\n        /* \"#utility.yul\":5371:5427   */\n    tag_450:\n        /* \"#utility.yul\":5445:5474   */\n      tag_452\n        /* \"#utility.yul\":5467:5473   */\n      dup3\n        /* \"#utility.yul\":5445:5474   */\n      tag_318\n      jump\t// in\n    tag_452:\n        /* \"#utility.yul\":5437:5474   */\n      swap1\n      pop\n        /* \"#utility.yul\":5529:5533   */\n      0x20\n        /* \"#utility.yul\":5523:5527   */\n      dup2\n        /* \"#utility.yul\":5519:5534   */\n      add\n        /* \"#utility.yul\":5511:5534   */\n      swap1\n      pop\n        /* \"#utility.yul\":5233:5541   */\n      swap2\n      swap1\n      pop\n      jump\t// out\n        /* \"#utility.yul\":5547:5701   */\n    tag_336:\n        /* \"#utility.yul\":5631:5637   */\n      dup3\n        /* \"#utility.yul\":5626:5629   */\n      dup2\n        /* \"#utility.yul\":5621:5624   */\n      dup4\n        /* \"#utility.yul\":5608:5638   */\n      calldatacopy\n        /* \"#utility.yul\":5693:5694   */\n      0x00\n        /* \"#utility.yul\":5684:5690   */\n      dup4\n        /* \"#utility.yul\":5679:5682   */\n      dup4\n        /* \"#utility.yul\":5675:5691   */\n      add\n        /* \"#utility.yul\":5668:5695   */\n      mstore\n        /* \"#utility.yul\":5547:5701   */\n      pop\n      pop\n      pop\n      jump\t// out\n        /* \"#utility.yul\":5707:6119   */\n    tag_337:\n        /* \"#utility.yul\":5785:5790   */\n      0x00\n        /* \"#utility.yul\":5810:5876   */\n      tag_455\n        /* \"#utility.yul\":5826:5875   */\n      tag_456\n        /* \"#utility.yul\":5868:5874   */\n      dup5\n        /* \"#utility.yul\":5826:5875   */\n      tag_335\n      jump\t// in\n    tag_456:\n        /* \"#utility.yul\":5810:5876   */\n      tag_334\n      jump\t// in\n    tag_455:\n        /* \"#utility.yul\":5801:5876   */\n      swap1\n      pop\n        /* \"#utility.yul\":5899:5905   */\n      dup3\n        /* \"#utility.yul\":5892:5897   */\n      dup2\n        /* \"#utility.yul\":5885:5906   */\n      mstore\n        /* \"#utility.yul\":5937:5941   */\n      0x20\n        /* \"#utility.yul\":5930:5935   */\n      dup2\n        /* \"#utility.yul\":5926:5942   */\n      add\n        /* \"#utility.yul\":5975:5978   */\n      dup5\n        /* \"#utility.yul\":5966:5972   */\n      dup5\n        /* \"#utility.yul\":5961:5964   */\n      dup5\n        /* \"#utility.yul\":5957:5973   */\n      add\n        /* \"#utility.yul\":5954:5979   */\n      gt\n        /* \"#utility.yul\":5951:6063   */\n      iszero\n      tag_457\n      jumpi\n        /* \"#utility.yul\":5982:6061   */\n      tag_458\n      tag_332\n      jump\t// in\n    tag_458:\n        /* \"#utility.yul\":5951:6063   */\n    tag_457:\n        /* \"#utility.yul\":6072:6113   */\n      tag_459\n        /* \"#utility.yul\":6106:6112   */\n      dup5\n        /* \"#utility.yul\":6101:6104   */\n      dup3\n        /* \"#utility.yul\":6096:6099   */\n      dup6\n        /* \"#utility.yul\":6072:6113   */\n      tag_336\n      jump\t// in\n    tag_459:\n        /* \"#utility.yul\":5791:6119   */\n      pop\n        /* \"#utility.yul\":5707:6119   */\n      swap4\n      swap3\n      pop\n      pop\n      pop\n      jump\t// out\n        /* \"#utility.yul\":6139:6479   */\n    tag_338:\n        /* \"#utility.yul\":6195:6200   */\n      0x00\n        /* \"#utility.yul\":6244:6247   */\n      dup3\n        /* \"#utility.yul\":6237:6241   */\n      0x1f\n        /* \"#utility.yul\":6229:6235   */\n      dup4\n        /* \"#utility.yul\":6225:6242   */\n      add\n        /* \"#utility.yul\":6221:6248   */\n      slt\n        /* \"#utility.yul\":6211:6333   */\n      tag_461\n      jumpi\n        /* \"#utility.yul\":6252:6331   */\n      tag_462\n      tag_331\n      jump\t// in\n    tag_462:\n        /* \"#utility.yul\":6211:6333   */\n    tag_461:\n        /* \"#utility.yul\":6369:6375   */\n      dup2\n        /* \"#utility.yul\":6356:6376   */\n      calldataload\n        /* \"#utility.yul\":6394:6473   */\n      tag_463\n        /* \"#utility.yul\":6469:6472   */\n      dup5\n        /* \"#utility.yul\":6461:6467   */\n      dup3\n        /* \"#utility.yul\":6454:6458   */\n      0x20\n        /* \"#utility.yul\":6446:6452   */\n      dup7\n        /* \"#utility.yul\":6442:6459   */\n      add\n        /* \"#utility.yul\":6394:6473   */\n      tag_337\n      jump\t// in\n    tag_463:\n        /* \"#utility.yul\":6385:6473   */\n      swap2\n      pop\n        /* \"#utility.yul\":6201:6479   */\n      pop\n        /* \"#utility.yul\":6139:6479   */\n      swap3\n      swap2\n      pop\n      pop\n      jump\t// out\n        /* \"#utility.yul\":6485:6994   */\n    tag_45:\n        /* \"#utility.yul\":6554:6560   */\n      0x00\n        /* \"#utility.yul\":6603:6605   */\n      0x20\n        /* \"#utility.yul\":6591:6600   */\n      dup3\n        /* \"#utility.yul\":6582:6589   */\n      dup5\n        /* \"#utility.yul\":6578:6601   */\n      sub\n        /* \"#utility.yul\":6574:6606   */\n      slt\n        /* \"#utility.yul\":6571:6690   */\n      iszero\n      tag_465\n      jumpi\n        /* \"#utility.yul\":6609:6688   */\n      tag_466\n      tag_321\n      jump\t// in\n    tag_466:\n        /* \"#utility.yul\":6571:6690   */\n    tag_465:\n        /* \"#utility.yul\":6757:6758   */\n      0x00\n        /* \"#utility.yul\":6746:6755   */\n      dup3\n        /* \"#utility.yul\":6742:6759   */\n      add\n        /* \"#utility.yul\":6729:6760   */\n      calldataload\n        /* \"#utility.yul\":6787:6805   */\n      0xffffffffffffffff\n        /* \"#utility.yul\":6779:6785   */\n      dup2\n        /* \"#utility.yul\":6776:6806   */\n      gt\n        /* \"#utility.yul\":6773:6890   */\n      iszero\n      tag_467\n      jumpi\n        /* \"#utility.yul\":6809:6888   */\n      tag_468\n      tag_322\n      jump\t// in\n    tag_468:\n        /* \"#utility.yul\":6773:6890   */\n    tag_467:\n        /* \"#utility.yul\":6914:6977   */\n      tag_469\n        /* \"#utility.yul\":6969:6976   */\n      dup5\n        /* \"#utility.yul\":6960:6966   */\n      dup3\n        /* \"#utility.yul\":6949:6958   */\n      dup6\n        /* \"#utility.yul\":6945:6967   */\n      add\n        /* \"#utility.yul\":6914:6977   */\n      tag_338\n      jump\t// in\n    tag_469:\n        /* \"#utility.yul\":6904:6977   */\n      swap2\n      pop\n        /* \"#utility.yul\":6700:6987   */\n      pop\n        /* \"#utility.yul\":6485:6994   */\n      swap3\n      swap2\n      pop\n      pop\n      jump\t// out\n        /* \"#utility.yul\":7000:7118   */\n    tag_339:\n        /* \"#utility.yul\":7087:7111   */\n      tag_471\n        /* \"#utility.yul\":7105:7110   */\n      dup2\n        /* \"#utility.yul\":7087:7111   */\n      tag_323\n      jump\t// in\n    tag_471:\n        /* \"#utility.yul\":7082:7085   */\n      dup3\n        /* \"#utility.yul\":7075:7112   */\n      mstore\n        /* \"#utility.yul\":7000:7118   */\n      pop\n      pop\n      jump\t// out\n        /* \"#utility.yul\":7124:7346   */\n    tag_50:\n        /* \"#utility.yul\":7217:7221   */\n      0x00\n        /* \"#utility.yul\":7255:7257   */\n      0x20\n        /* \"#utility.yul\":7244:7253   */\n      dup3\n        /* \"#utility.yul\":7240:7258   */\n      add\n        /* \"#utility.yul\":7232:7258   */\n      swap1\n      pop\n        /* \"#utility.yul\":7268:7339   */\n      tag_473\n        /* \"#utility.yul\":7336:7337   */\n      0x00\n        /* \"#utility.yul\":7325:7334   */\n      dup4\n        /* \"#utility.yul\":7321:7338   */\n      add\n        /* \"#utility.yul\":7312:7318   */\n      dup5\n        /* \"#utility.yul\":7268:7339   */\n      tag_339\n      jump\t// in\n    tag_473:\n        /* \"#utility.yul\":7124:7346   */\n      swap3\n      swap2\n      pop\n      pop\n      jump\t// out\n        /* \"#utility.yul\":7352:7681   */\n    tag_60:\n        /* \"#utility.yul\":7411:7417   */\n      0x00\n        /* \"#utility.yul\":7460:7462   */\n      0x20\n        /* \"#utility.yul\":7448:7457   */\n      dup3\n        /* \"#utility.yul\":7439:7446   */\n      dup5\n        /* \"#utility.yul\":7435:7458   */\n      sub\n        /* \"#utility.yul\":7431:7463   */\n      slt\n        /* \"#utility.yul\":7428:7547   */\n      iszero\n      tag_475\n      jumpi\n        /* \"#utility.yul\":7466:7545   */\n      tag_476\n      tag_321\n      jump\t// in\n    tag_476:\n        /* \"#utility.yul\":7428:7547   */\n    tag_475:\n        /* \"#utility.yul\":7586:7587   */\n      0x00\n        /* \"#utility.yul\":7611:7664   */\n      tag_477\n        /* \"#utility.yul\":7656:7663   */\n      dup5\n        /* \"#utility.yul\":7647:7653   */\n      dup3\n        /* \"#utility.yul\":7636:7645   */\n      dup6\n        /* \"#utility.yul\":7632:7654   */\n      add\n        /* \"#utility.yul\":7611:7664   */\n      tag_330\n      jump\t// in\n    tag_477:\n        /* \"#utility.yul\":7601:7664   */\n      swap2\n      pop\n        /* \"#utility.yul\":7557:7674   */\n      pop\n        /* \"#utility.yul\":7352:7681   */\n      swap3\n      swap2\n      pop\n      pop\n      jump\t// out\n        /* \"#utility.yul\":7687:7994   */\n    tag_340:\n        /* \"#utility.yul\":7748:7752   */\n      0x00\n        /* \"#utility.yul\":7838:7856   */\n      0xffffffffffffffff\n        /* \"#utility.yul\":7830:7836   */\n      dup3\n        /* \"#utility.yul\":7827:7857   */\n      gt\n        /* \"#utility.yul\":7824:7880   */\n      iszero\n      tag_479\n      jumpi\n        /* \"#utility.yul\":7860:7878   */\n      tag_480\n      tag_266\n      jump\t// in\n    tag_480:\n        /* \"#utility.yul\":7824:7880   */\n    tag_479:\n        /* \"#utility.yul\":7898:7927   */\n      tag_481\n        /* \"#utility.yul\":7920:7926   */\n      dup3\n        /* \"#utility.yul\":7898:7927   */\n      tag_318\n      jump\t// in\n    tag_481:\n        /* \"#utility.yul\":7890:7927   */\n      swap1\n      pop\n        /* \"#utility.yul\":7982:7986   */\n      0x20\n        /* \"#utility.yul\":7976:7980   */\n      dup2\n        /* \"#utility.yul\":7972:7987   */\n      add\n        /* \"#utility.yul\":7964:7987   */\n      swap1\n      pop\n        /* \"#utility.yul\":7687:7994   */\n      swap2\n      swap1\n      pop\n      jump\t// out\n        /* \"#utility.yul\":8000:8410   */\n    tag_341:\n        /* \"#utility.yul\":8077:8082   */\n      0x00\n        /* \"#utility.yul\":8102:8167   */\n      tag_483\n        /* \"#utility.yul\":8118:8166   */\n      tag_484\n        /* \"#utility.yul\":8159:8165   */\n      dup5\n        /* \"#utility.yul\":8118:8166   */\n      tag_340\n      jump\t// in\n    tag_484:\n        /* \"#utility.yul\":8102:8167   */\n      tag_334\n      jump\t// in\n    tag_483:\n        /* \"#utility.yul\":8093:8167   */\n      swap1\n      pop\n        /* \"#utility.yul\":8190:8196   */\n      dup3\n        /* \"#utility.yul\":8183:8188   */\n      dup2\n        /* \"#utility.yul\":8176:8197   */\n      mstore\n        /* \"#utility.yul\":8228:8232   */\n      0x20\n        /* \"#utility.yul\":8221:8226   */\n      dup2\n        /* \"#utility.yul\":8217:8233   */\n      add\n        /* \"#utility.yul\":8266:8269   */\n      dup5\n        /* \"#utility.yul\":8257:8263   */\n      dup5\n        /* \"#utility.yul\":8252:8255   */\n      dup5\n        /* \"#utility.yul\":8248:8264   */\n      add\n        /* \"#utility.yul\":8245:8270   */\n      gt\n        /* \"#utility.yul\":8242:8354   */\n      iszero\n      tag_485\n      jumpi\n        /* \"#utility.yul\":8273:8352   */\n      tag_486\n      tag_332\n      jump\t// in\n    tag_486:\n        /* \"#utility.yul\":8242:8354   */\n    tag_485:\n        /* \"#utility.yul\":8363:8404   */\n      tag_487\n        /* \"#utility.yul\":8397:8403   */\n      dup5\n        /* \"#utility.yul\":8392:8395   */\n      dup3\n        /* \"#utility.yul\":8387:8390   */\n      dup6\n        /* \"#utility.yul\":8363:8404   */\n      tag_336\n      jump\t// in\n    tag_487:\n        /* \"#utility.yul\":8083:8410   */\n      pop\n        /* \"#utility.yul\":8000:8410   */\n      swap4\n      swap3\n      pop\n      pop\n      pop\n      jump\t// out\n        /* \"#utility.yul\":8429:8767   */\n    tag_342:\n        /* \"#utility.yul\":8484:8489   */\n      0x00\n        /* \"#utility.yul\":8533:8536   */\n      dup3\n        /* \"#utility.yul\":8526:8530   */\n      0x1f\n        /* \"#utility.yul\":8518:8524   */\n      dup4\n        /* \"#utility.yul\":8514:8531   */\n      add\n        /* \"#utility.yul\":8510:8537   */\n      slt\n        /* \"#utility.yul\":8500:8622   */\n      tag_489\n      jumpi\n        /* \"#utility.yul\":8541:8620   */\n      tag_490\n      tag_331\n      jump\t// in\n    tag_490:\n        /* \"#utility.yul\":8500:8622   */\n    tag_489:\n        /* \"#utility.yul\":8658:8664   */\n      dup2\n        /* \"#utility.yul\":8645:8665   */\n      calldataload\n        /* \"#utility.yul\":8683:8761   */\n      tag_491\n        /* \"#utility.yul\":8757:8760   */\n      dup5\n        /* \"#utility.yul\":8749:8755   */\n      dup3\n        /* \"#utility.yul\":8742:8746   */\n      0x20\n        /* \"#utility.yul\":8734:8740   */\n      dup7\n        /* \"#utility.yul\":8730:8747   */\n      add\n        /* \"#utility.yul\":8683:8761   */\n      tag_341\n      jump\t// in\n    tag_491:\n        /* \"#utility.yul\":8674:8761   */\n      swap2\n      pop\n        /* \"#utility.yul\":8490:8767   */\n      pop\n        /* \"#utility.yul\":8429:8767   */\n      swap3\n      swap2\n      pop\n      pop\n      jump\t// out\n        /* \"#utility.yul\":8773:9716   */\n    tag_73:\n        /* \"#utility.yul\":8868:8874   */\n      0x00\n        /* \"#utility.yul\":8876:8882   */\n      dup1\n        /* \"#utility.yul\":8884:8890   */\n      0x00\n        /* \"#utility.yul\":8892:8898   */\n      dup1\n        /* \"#utility.yul\":8941:8944   */\n      0x80\n        /* \"#utility.yul\":8929:8938   */\n      dup6\n        /* \"#utility.yul\":8920:8927   */\n      dup8\n        /* \"#utility.yul\":8916:8939   */\n      sub\n        /* \"#utility.yul\":8912:8945   */\n      slt\n        /* \"#utility.yul\":8909:9029   */\n      iszero\n      tag_493\n      jumpi\n        /* \"#utility.yul\":8948:9027   */\n      tag_494\n      tag_321\n      jump\t// in\n    tag_494:\n        /* \"#utility.yul\":8909:9029   */\n    tag_493:\n        /* \"#utility.yul\":9068:9069   */\n      0x00\n        /* \"#utility.yul\":9093:9146   */\n      tag_495\n        /* \"#utility.yul\":9138:9145   */\n      dup8\n        /* \"#utility.yul\":9129:9135   */\n      dup3\n        /* \"#utility.yul\":9118:9127   */\n      dup9\n        /* \"#utility.yul\":9114:9136   */\n      add\n        /* \"#utility.yul\":9093:9146   */\n      tag_330\n      jump\t// in\n    tag_495:\n        /* \"#utility.yul\":9083:9146   */\n      swap5\n      pop\n        /* \"#utility.yul\":9039:9156   */\n      pop\n        /* \"#utility.yul\":9195:9197   */\n      0x20\n        /* \"#utility.yul\":9221:9274   */\n      tag_496\n        /* \"#utility.yul\":9266:9273   */\n      dup8\n        /* \"#utility.yul\":9257:9263   */\n      dup3\n        /* \"#utility.yul\":9246:9255   */\n      dup9\n        /* \"#utility.yul\":9242:9264   */\n      add\n        /* \"#utility.yul\":9221:9274   */\n      tag_330\n      jump\t// in\n    tag_496:\n        /* \"#utility.yul\":9211:9274   */\n      swap4\n      pop\n        /* \"#utility.yul\":9166:9284   */\n      pop\n        /* \"#utility.yul\":9323:9325   */\n      0x40\n        /* \"#utility.yul\":9349:9402   */\n      tag_497\n        /* \"#utility.yul\":9394:9401   */\n      dup8\n        /* \"#utility.yul\":9385:9391   */\n      dup3\n        /* \"#utility.yul\":9374:9383   */\n      dup9\n        /* \"#utility.yul\":9370:9392   */\n      add\n        /* \"#utility.yul\":9349:9402   */\n      tag_325\n      jump\t// in\n    tag_497:\n        /* \"#utility.yul\":9339:9402   */\n      swap3\n      pop\n        /* \"#utility.yul\":9294:9412   */\n      pop\n        /* \"#utility.yul\":9479:9481   */\n      0x60\n        /* \"#utility.yul\":9468:9477   */\n      dup6\n        /* \"#utility.yul\":9464:9482   */\n      add\n        /* \"#utility.yul\":9451:9483   */\n      calldataload\n        /* \"#utility.yul\":9510:9528   */\n      0xffffffffffffffff\n        /* \"#utility.yul\":9502:9508   */\n      dup2\n        /* \"#utility.yul\":9499:9529   */\n      gt\n        /* \"#utility.yul\":9496:9613   */\n      iszero\n      tag_498\n      jumpi\n        /* \"#utility.yul\":9532:9611   */\n      tag_499\n      tag_322\n      jump\t// in\n    tag_499:\n        /* \"#utility.yul\":9496:9613   */\n    tag_498:\n        /* \"#utility.yul\":9637:9699   */\n      tag_500\n        /* \"#utility.yul\":9691:9698   */\n      dup8\n        /* \"#utility.yul\":9682:9688   */\n      dup3\n        /* \"#utility.yul\":9671:9680   */\n      dup9\n        /* \"#utility.yul\":9667:9689   */\n      add\n        /* \"#utility.yul\":9637:9699   */\n      tag_342\n      jump\t// in\n    tag_500:\n        /* \"#utility.yul\":9627:9699   */\n      swap2\n      pop\n        /* \"#utility.yul\":9422:9709   */\n      pop\n        /* \"#utility.yul\":8773:9716   */\n      swap3\n      swap6\n      swap2\n      swap5\n      pop\n      swap3\n      pop\n      jump\t// out\n        /* \"#utility.yul\":9722:9902   */\n    tag_343:\n        /* \"#utility.yul\":9770:9847   */\n      0x4e487b7100000000000000000000000000000000000000000000000000000000\n        /* \"#utility.yul\":9767:9768   */\n      0x00\n        /* \"#utility.yul\":9760:9848   */\n      mstore\n        /* \"#utility.yul\":9867:9871   */\n      0x22\n        /* \"#utility.yul\":9864:9865   */\n      0x04\n        /* \"#utility.yul\":9857:9872   */\n      mstore\n        /* \"#utility.yul\":9891:9895   */\n      0x24\n        /* \"#utility.yul\":9888:9889   */\n      0x00\n        /* \"#utility.yul\":9881:9896   */\n      revert\n        /* \"#utility.yul\":9908:10228   */\n    tag_84:\n        /* \"#utility.yul\":9952:9958   */\n      0x00\n        /* \"#utility.yul\":9989:9990   */\n      0x02\n        /* \"#utility.yul\":9983:9987   */\n      dup3\n        /* \"#utility.yul\":9979:9991   */\n      div\n        /* \"#utility.yul\":9969:9991   */\n      swap1\n      pop\n        /* \"#utility.yul\":10036:10037   */\n      0x01\n        /* \"#utility.yul\":10030:10034   */\n      dup3\n        /* \"#utility.yul\":10026:10038   */\n      and\n        /* \"#utility.yul\":10057:10075   */\n      dup1\n        /* \"#utility.yul\":10047:10128   */\n      tag_503\n      jumpi\n        /* \"#utility.yul\":10113:10117   */\n      0x7f\n        /* \"#utility.yul\":10105:10111   */\n      dup3\n        /* \"#utility.yul\":10101:10118   */\n      and\n        /* \"#utility.yul\":10091:10118   */\n      swap2\n      pop\n        /* \"#utility.yul\":10047:10128   */\n    tag_503:\n        /* \"#utility.yul\":10175:10177   */\n      0x20\n        /* \"#utility.yul\":10167:10173   */\n      dup3\n        /* \"#utility.yul\":10164:10178   */\n      lt\n        /* \"#utility.yul\":10144:10162   */\n      dup2\n        /* \"#utility.yul\":10141:10179   */\n      sub\n        /* \"#utility.yul\":10138:10222   */\n      tag_504\n      jumpi\n        /* \"#utility.yul\":10194:10212   */\n      tag_505\n      tag_343\n      jump\t// in\n    tag_505:\n        /* \"#utility.yul\":10138:10222   */\n    tag_504:\n        /* \"#utility.yul\":9959:10228   */\n      pop\n        /* \"#utility.yul\":9908:10228   */\n      swap2\n      swap1\n      pop\n      jump\t// out\n        /* \"#utility.yul\":10234:10465   */\n    tag_344:\n        /* \"#utility.yul\":10374:10408   */\n      0x4552433732313a20617070726f76656420717565727920666f72206e6f6e6578\n        /* \"#utility.yul\":10370:10371   */\n      0x00\n        /* \"#utility.yul\":10362:10368   */\n      dup3\n        /* \"#utility.yul\":10358:10372   */\n      add\n        /* \"#utility.yul\":10351:10409   */\n      mstore\n        /* \"#utility.yul\":10443:10457   */\n      0x697374656e7420746f6b656e0000000000000000000000000000000000000000\n        /* \"#utility.yul\":10438:10440   */\n      0x20\n        /* \"#utility.yul\":10430:10436   */\n      dup3\n        /* \"#utility.yul\":10426:10441   */\n      add\n        /* \"#utility.yul\":10419:10458   */\n      mstore\n        /* \"#utility.yul\":10234:10465   */\n      pop\n      jump\t// out\n        /* \"#utility.yul\":10471:10837   */\n    tag_345:\n        /* \"#utility.yul\":10613:10616   */\n      0x00\n        /* \"#utility.yul\":10634:10701   */\n      tag_508\n        /* \"#utility.yul\":10698:10700   */\n      0x2c\n        /* \"#utility.yul\":10693:10696   */\n      dup4\n        /* \"#utility.yul\":10634:10701   */\n      tag_316\n      jump\t// in\n    tag_508:\n        /* \"#utility.yul\":10627:10701   */\n      swap2\n      pop\n        /* \"#utility.yul\":10710:10803   */\n      tag_509\n        /* \"#utility.yul\":10799:10802   */\n      dup3\n        /* \"#utility.yul\":10710:10803   */\n      tag_344\n      jump\t// in\n    tag_509:\n        /* \"#utility.yul\":10828:10830   */\n      0x40\n        /* \"#utility.yul\":10823:10826   */\n      dup3\n        /* \"#utility.yul\":10819:10831   */\n      add\n        /* \"#utility.yul\":10812:10831   */\n      swap1\n      pop\n        /* \"#utility.yul\":10471:10837   */\n      swap2\n      swap1\n      pop\n      jump\t// out\n        /* \"#utility.yul\":10843:11262   */\n    tag_94:\n        /* \"#utility.yul\":11009:11013   */\n      0x00\n        /* \"#utility.yul\":11047:11049   */\n      0x20\n        /* \"#utility.yul\":11036:11045   */\n      dup3\n        /* \"#utility.yul\":11032:11050   */\n      add\n        /* \"#utility.yul\":11024:11050   */\n      swap1\n      pop\n        /* \"#utility.yul\":11096:11105   */\n      dup2\n        /* \"#utility.yul\":11090:11094   */\n      dup2\n        /* \"#utility.yul\":11086:11106   */\n      sub\n        /* \"#utility.yul\":11082:11083   */\n      0x00\n        /* \"#utility.yul\":11071:11080   */\n      dup4\n        /* \"#utility.yul\":11067:11084   */\n      add\n        /* \"#utility.yul\":11060:11107   */\n      mstore\n        /* \"#utility.yul\":11124:11255   */\n      tag_511\n        /* \"#utility.yul\":11250:11254   */\n      dup2\n        /* \"#utility.yul\":11124:11255   */\n      tag_345\n      jump\t// in\n    tag_511:\n        /* \"#utility.yul\":11116:11255   */\n      swap1\n      pop\n        /* \"#utility.yul\":10843:11262   */\n      swap2\n      swap1\n      pop\n      jump\t// out\n        /* \"#utility.yul\":11268:11488   */\n    tag_346:\n        /* \"#utility.yul\":11408:11442   */\n      0x4552433732313a20617070726f76616c20746f2063757272656e74206f776e65\n        /* \"#utility.yul\":11404:11405   */\n      0x00\n        /* \"#utility.yul\":11396:11402   */\n      dup3\n        /* \"#utility.yul\":11392:11406   */\n      add\n        /* \"#utility.yul\":11385:11443   */\n      mstore\n        /* \"#utility.yul\":11477:11480   */\n      0x7200000000000000000000000000000000000000000000000000000000000000\n        /* \"#utility.yul\":11472:11474   */\n      0x20\n        /* \"#utility.yul\":11464:11470   */\n      dup3\n        /* \"#utility.yul\":11460:11475   */\n      add\n        /* \"#utility.yul\":11453:11481   */\n      mstore\n        /* \"#utility.yul\":11268:11488   */\n      pop\n      jump\t// out\n        /* \"#utility.yul\":11494:11860   */\n    tag_347:\n        /* \"#utility.yul\":11636:11639   */\n      0x00\n        /* \"#utility.yul\":11657:11724   */\n      tag_514\n        /* \"#utility.yul\":11721:11723   */\n      0x21\n        /* \"#utility.yul\":11716:11719   */\n      dup4\n        /* \"#utility.yul\":11657:11724   */\n      tag_316\n      jump\t// in\n    tag_514:\n        /* \"#utility.yul\":11650:11724   */\n      swap2\n      pop\n        /* \"#utility.yul\":11733:11826   */\n      tag_515\n        /* \"#utility.yul\":11822:11825   */\n      dup3\n        /* \"#utility.yul\":11733:11826   */\n      tag_346\n      jump\t// in\n    tag_515:\n        /* \"#utility.yul\":11851:11853   */\n      0x40\n        /* \"#utility.yul\":11846:11849   */\n      dup3\n        /* \"#utility.yul\":11842:11854   */\n      add\n        /* \"#utility.yul\":11835:11854   */\n      swap1\n      pop\n        /* \"#utility.yul\":11494:11860   */\n      swap2\n      swap1\n      pop\n      jump\t// out\n        /* \"#utility.yul\":11866:12285   */\n    tag_99:\n        /* \"#utility.yul\":12032:12036   */\n      0x00\n        /* \"#utility.yul\":12070:12072   */\n      0x20\n        /* \"#utility.yul\":12059:12068   */\n      dup3\n        /* \"#utility.yul\":12055:12073   */\n      add\n        /* \"#utility.yul\":12047:12073   */\n      swap1\n      pop\n        /* \"#utility.yul\":12119:12128   */\n      dup2\n        /* \"#utility.yul\":12113:12117   */\n      dup2\n        /* \"#utility.yul\":12109:12129   */\n      sub\n        /* \"#utility.yul\":12105:12106   */\n      0x00\n        /* \"#utility.yul\":12094:12103   */\n      dup4\n        /* \"#utility.yul\":12090:12107   */\n      add\n        /* \"#utility.yul\":12083:12130   */\n      mstore\n        /* \"#utility.yul\":12147:12278   */\n      tag_517\n        /* \"#utility.yul\":12273:12277   */\n      dup2\n        /* \"#utility.yul\":12147:12278   */\n      tag_347\n      jump\t// in\n    tag_517:\n        /* \"#utility.yul\":12139:12278   */\n      swap1\n      pop\n        /* \"#utility.yul\":11866:12285   */\n      swap2\n      swap1\n      pop\n      jump\t// out\n        /* \"#utility.yul\":12291:12534   */\n    tag_348:\n        /* \"#utility.yul\":12431:12465   */\n      0x4552433732313a20617070726f76652063616c6c6572206973206e6f74206f77\n        /* \"#utility.yul\":12427:12428   */\n      0x00\n        /* \"#utility.yul\":12419:12425   */\n      dup3\n        /* \"#utility.yul\":12415:12429   */\n      add\n        /* \"#utility.yul\":12408:12466   */\n      mstore\n        /* \"#utility.yul\":12500:12526   */\n      0x6e6572206e6f7220617070726f76656420666f7220616c6c0000000000000000\n        /* \"#utility.yul\":12495:12497   */\n      0x20\n        /* \"#utility.yul\":12487:12493   */\n      dup3\n        /* \"#utility.yul\":12483:12498   */\n      add\n        /* \"#utility.yul\":12476:12527   */\n      mstore\n        /* \"#utility.yul\":12291:12534   */\n      pop\n      jump\t// out\n        /* \"#utility.yul\":12540:12906   */\n    tag_349:\n        /* \"#utility.yul\":12682:12685   */\n      0x00\n        /* \"#utility.yul\":12703:12770   */\n      tag_520\n        /* \"#utility.yul\":12767:12769   */\n      0x38\n        /* \"#utility.yul\":12762:12765   */\n      dup4\n        /* \"#utility.yul\":12703:12770   */\n      tag_316\n      jump\t// in\n    tag_520:\n        /* \"#utility.yul\":12696:12770   */\n      swap2\n      pop\n        /* \"#utility.yul\":12779:12872   */\n      tag_521\n        /* \"#utility.yul\":12868:12871   */\n      dup3\n        /* \"#utility.yul\":12779:12872   */\n      tag_348\n      jump\t// in\n    tag_521:\n        /* \"#utility.yul\":12897:12899   */\n      0x40\n        /* \"#utility.yul\":12892:12895   */\n      dup3\n        /* \"#utility.yul\":12888:12900   */\n      add\n        /* \"#utility.yul\":12881:12900   */\n      swap1\n      pop\n        /* \"#utility.yul\":12540:12906   */\n      swap2\n      swap1\n      pop\n      jump\t// out\n        /* \"#utility.yul\":12912:13331   */\n    tag_104:\n        /* \"#utility.yul\":13078:13082   */\n      0x00\n        /* \"#utility.yul\":13116:13118   */\n      0x20\n        /* \"#utility.yul\":13105:13114   */\n      dup3\n        /* \"#utility.yul\":13101:13119   */\n      add\n        /* \"#utility.yul\":13093:13119   */\n      swap1\n      pop\n        /* \"#utility.yul\":13165:13174   */\n      dup2\n        /* \"#utility.yul\":13159:13163   */\n      dup2\n        /* \"#utility.yul\":13155:13175   */\n      sub\n        /* \"#utility.yul\":13151:13152   */\n      0x00\n        /* \"#utility.yul\":13140:13149   */\n      dup4\n        /* \"#utility.yul\":13136:13153   */\n      add\n        /* \"#utility.yul\":13129:13176   */\n      mstore\n        /* \"#utility.yul\":13193:13324   */\n      tag_523\n        /* \"#utility.yul\":13319:13323   */\n      dup2\n        /* \"#utility.yul\":13193:13324   */\n      tag_349\n      jump\t// in\n    tag_523:\n        /* \"#utility.yul\":13185:13324   */\n      swap1\n      pop\n        /* \"#utility.yul\":12912:13331   */\n      swap2\n      swap1\n      pop\n      jump\t// out\n        /* \"#utility.yul\":13337:13573   */\n    tag_350:\n        /* \"#utility.yul\":13477:13511   */\n      0x4552433732313a207472616e736665722063616c6c6572206973206e6f74206f\n        /* \"#utility.yul\":13473:13474   */\n      0x00\n        /* \"#utility.yul\":13465:13471   */\n      dup3\n        /* \"#utility.yul\":13461:13475   */\n      add\n        /* \"#utility.yul\":13454:13512   */\n      mstore\n        /* \"#utility.yul\":13546:13565   */\n      0x776e6572206e6f7220617070726f766564000000000000000000000000000000\n        /* \"#utility.yul\":13541:13543   */\n      0x20\n        /* \"#utility.yul\":13533:13539   */\n      dup3\n        /* \"#utility.yul\":13529:13544   */\n      add\n        /* \"#utility.yul\":13522:13566   */\n      mstore\n        /* \"#utility.yul\":13337:13573   */\n      pop\n      jump\t// out\n        /* \"#utility.yul\":13579:13945   */\n    tag_351:\n        /* \"#utility.yul\":13721:13724   */\n      0x00\n        /* \"#utility.yul\":13742:13809   */\n      tag_526\n        /* \"#utility.yul\":13806:13808   */\n      0x31\n        /* \"#utility.yul\":13801:13804   */\n      dup4\n        /* \"#utility.yul\":13742:13809   */\n      tag_316\n      jump\t// in\n    tag_526:\n        /* \"#utility.yul\":13735:13809   */\n      swap2\n      pop\n        /* \"#utility.yul\":13818:13911   */\n      tag_527\n        /* \"#utility.yul\":13907:13910   */\n      dup3\n        /* \"#utility.yul\":13818:13911   */\n      tag_350\n      jump\t// in\n    tag_527:\n        /* \"#utility.yul\":13936:13938   */\n      0x40\n        /* \"#utility.yul\":13931:13934   */\n      dup3\n        /* \"#utility.yul\":13927:13939   */\n      add\n        /* \"#utility.yul\":13920:13939   */\n      swap1\n      pop\n        /* \"#utility.yul\":13579:13945   */\n      swap2\n      swap1\n      pop\n      jump\t// out\n        /* \"#utility.yul\":13951:14370   */\n    tag_113:\n        /* \"#utility.yul\":14117:14121   */\n      0x00\n        /* \"#utility.yul\":14155:14157   */\n      0x20\n        /* \"#utility.yul\":14144:14153   */\n      dup3\n        /* \"#utility.yul\":14140:14158   */\n      add\n        /* \"#utility.yul\":14132:14158   */\n      swap1\n      pop\n        /* \"#utility.yul\":14204:14213   */\n      dup2\n        /* \"#utility.yul\":14198:14202   */\n      dup2\n        /* \"#utility.yul\":14194:14214   */\n      sub\n        /* \"#utility.yul\":14190:14191   */\n      0x00\n        /* \"#utility.yul\":14179:14188   */\n      dup4\n        /* \"#utility.yul\":14175:14192   */\n      add\n        /* \"#utility.yul\":14168:14215   */\n      mstore\n        /* \"#utility.yul\":14232:14363   */\n      tag_529\n        /* \"#utility.yul\":14358:14362   */\n      dup2\n        /* \"#utility.yul\":14232:14363   */\n      tag_351\n      jump\t// in\n    tag_529:\n        /* \"#utility.yul\":14224:14363   */\n      swap1\n      pop\n        /* \"#utility.yul\":13951:14370   */\n      swap2\n      swap1\n      pop\n      jump\t// out\n        /* \"#utility.yul\":14376:14558   */\n    tag_352:\n        /* \"#utility.yul\":14516:14550   */\n      0x4f776e61626c653a2063616c6c6572206973206e6f7420746865206f776e6572\n        /* \"#utility.yul\":14512:14513   */\n      0x00\n        /* \"#utility.yul\":14504:14510   */\n      dup3\n        /* \"#utility.yul\":14500:14514   */\n      add\n        /* \"#utility.yul\":14493:14551   */\n      mstore\n        /* \"#utility.yul\":14376:14558   */\n      pop\n      jump\t// out\n        /* \"#utility.yul\":14564:14930   */\n    tag_353:\n        /* \"#utility.yul\":14706:14709   */\n      0x00\n        /* \"#utility.yul\":14727:14794   */\n      tag_532\n        /* \"#utility.yul\":14791:14793   */\n      0x20\n        /* \"#utility.yul\":14786:14789   */\n      dup4\n        /* \"#utility.yul\":14727:14794   */\n      tag_316\n      jump\t// in\n    tag_532:\n        /* \"#utility.yul\":14720:14794   */\n      swap2\n      pop\n        /* \"#utility.yul\":14803:14896   */\n      tag_533\n        /* \"#utility.yul\":14892:14895   */\n      dup3\n        /* \"#utility.yul\":14803:14896   */\n      tag_352\n      jump\t// in\n    tag_533:\n        /* \"#utility.yul\":14921:14923   */\n      0x20\n        /* \"#utility.yul\":14916:14919   */\n      dup3\n        /* \"#utility.yul\":14912:14924   */\n      add\n        /* \"#utility.yul\":14905:14924   */\n      swap1\n      pop\n        /* \"#utility.yul\":14564:14930   */\n      swap2\n      swap1\n      pop\n      jump\t// out\n        /* \"#utility.yul\":14936:15355   */\n    tag_123:\n        /* \"#utility.yul\":15102:15106   */\n      0x00\n        /* \"#utility.yul\":15140:15142   */\n      0x20\n        /* \"#utility.yul\":15129:15138   */\n      dup3\n        /* \"#utility.yul\":15125:15143   */\n      add\n        /* \"#utility.yul\":15117:15143   */\n      swap1\n      pop\n        /* \"#utility.yul\":15189:15198   */\n      dup2\n        /* \"#utility.yul\":15183:15187   */\n      dup2\n        /* \"#utility.yul\":15179:15199   */\n      sub\n        /* \"#utility.yul\":15175:15176   */\n      0x00\n        /* \"#utility.yul\":15164:15173   */\n      dup4\n        /* \"#utility.yul\":15160:15177   */\n      add\n        /* \"#utility.yul\":15153:15200   */\n      mstore\n        /* \"#utility.yul\":15217:15348   */\n      tag_535\n        /* \"#utility.yul\":15343:15347   */\n      dup2\n        /* \"#utility.yul\":15217:15348   */\n      tag_353\n      jump\t// in\n    tag_535:\n        /* \"#utility.yul\":15209:15348   */\n      swap1\n      pop\n        /* \"#utility.yul\":14936:15355   */\n      swap2\n      swap1\n      pop\n      jump\t// out\n        /* \"#utility.yul\":15361:15589   */\n    tag_354:\n        /* \"#utility.yul\":15501:15535   */\n      0x4552433732313a206f776e657220717565727920666f72206e6f6e6578697374\n        /* \"#utility.yul\":15497:15498   */\n      0x00\n        /* \"#utility.yul\":15489:15495   */\n      dup3\n        /* \"#utility.yul\":15485:15499   */\n      add\n        /* \"#utility.yul\":15478:15536   */\n      mstore\n        /* \"#utility.yul\":15570:15581   */\n      0x656e7420746f6b656e0000000000000000000000000000000000000000000000\n        /* \"#utility.yul\":15565:15567   */\n      0x20\n        /* \"#utility.yul\":15557:15563   */\n      dup3\n        /* \"#utility.yul\":15553:15568   */\n      add\n        /* \"#utility.yul\":15546:15582   */\n      mstore\n        /* \"#utility.yul\":15361:15589   */\n      pop\n      jump\t// out\n        /* \"#utility.yul\":15595:15961   */\n    tag_355:\n        /* \"#utility.yul\":15737:15740   */\n      0x00\n        /* \"#utility.yul\":15758:15825   */\n      tag_538\n        /* \"#utility.yul\":15822:15824   */\n      0x29\n        /* \"#utility.yul\":15817:15820   */\n      dup4\n        /* \"#utility.yul\":15758:15825   */\n      tag_316\n      jump\t// in\n    tag_538:\n        /* \"#utility.yul\":15751:15825   */\n      swap2\n      pop\n        /* \"#utility.yul\":15834:15927   */\n      tag_539\n        /* \"#utility.yul\":15923:15926   */\n      dup3\n        /* \"#utility.yul\":15834:15927   */\n      tag_354\n      jump\t// in\n    tag_539:\n        /* \"#utility.yul\":15952:15954   */\n      0x40\n        /* \"#utility.yul\":15947:15950   */\n      dup3\n        /* \"#utility.yul\":15943:15955   */\n      add\n        /* \"#utility.yul\":15936:15955   */\n      swap1\n      pop\n        /* \"#utility.yul\":15595:15961   */\n      swap2\n      swap1\n      pop\n      jump\t// out\n        /* \"#utility.yul\":15967:16386   */\n    tag_130:\n        /* \"#utility.yul\":16133:16137   */\n      0x00\n        /* \"#utility.yul\":16171:16173   */\n      0x20\n        /* \"#utility.yul\":16160:16169   */\n      dup3\n        /* \"#utility.yul\":16156:16174   */\n      add\n        /* \"#utility.yul\":16148:16174   */\n      swap1\n      pop\n        /* \"#utility.yul\":16220:16229   */\n      dup2\n        /* \"#utility.yul\":16214:16218   */\n      dup2\n        /* \"#utility.yul\":16210:16230   */\n      sub\n        /* \"#utility.yul\":16206:16207   */\n      0x00\n        /* \"#utility.yul\":16195:16204   */\n      dup4\n        /* \"#utility.yul\":16191:16208   */\n      add\n        /* \"#utility.yul\":16184:16231   */\n      mstore\n        /* \"#utility.yul\":16248:16379   */\n      tag_541\n        /* \"#utility.yul\":16374:16378   */\n      dup2\n        /* \"#utility.yul\":16248:16379   */\n      tag_355\n      jump\t// in\n    tag_541:\n        /* \"#utility.yul\":16240:16379   */\n      swap1\n      pop\n        /* \"#utility.yul\":15967:16386   */\n      swap2\n      swap1\n      pop\n      jump\t// out\n        /* \"#utility.yul\":16392:16572   */\n    tag_356:\n        /* \"#utility.yul\":16440:16517   */\n      0x4e487b7100000000000000000000000000000000000000000000000000000000\n        /* \"#utility.yul\":16437:16438   */\n      0x00\n        /* \"#utility.yul\":16430:16518   */\n      mstore\n        /* \"#utility.yul\":16537:16541   */\n      0x11\n        /* \"#utility.yul\":16534:16535   */\n      0x04\n        /* \"#utility.yul\":16527:16542   */\n      mstore\n        /* \"#utility.yul\":16561:16565   */\n      0x24\n        /* \"#utility.yul\":16558:16559   */\n      0x00\n        /* \"#utility.yul\":16551:16566   */\n      revert\n        /* \"#utility.yul\":16578:16811   */\n    tag_142:\n        /* \"#utility.yul\":16617:16620   */\n      0x00\n        /* \"#utility.yul\":16640:16664   */\n      tag_544\n        /* \"#utility.yul\":16658:16663   */\n      dup3\n        /* \"#utility.yul\":16640:16664   */\n      tag_323\n      jump\t// in\n    tag_544:\n        /* \"#utility.yul\":16631:16664   */\n      swap2\n      pop\n        /* \"#utility.yul\":16686:16752   */\n      0xffffffffffffffffffffffffffffffffffffffffffffffffffffffffffffffff\n        /* \"#utility.yul\":16679:16684   */\n      dup3\n        /* \"#utility.yul\":16676:16753   */\n      sub\n        /* \"#utility.yul\":16673:16776   */\n      tag_545\n      jumpi\n        /* \"#utility.yul\":16756:16774   */\n      tag_546\n      tag_356\n      jump\t// in\n    tag_546:\n        /* \"#utility.yul\":16673:16776   */\n    tag_545:\n        /* \"#utility.yul\":16803:16804   */\n      0x01\n        /* \"#utility.yul\":16796:16801   */\n      dup3\n        /* \"#utility.yul\":16792:16805   */\n      add\n        /* \"#utility.yul\":16785:16805   */\n      swap1\n      pop\n        /* \"#utility.yul\":16578:16811   */\n      swap2\n      swap1\n      pop\n      jump\t// out\n        /* \"#utility.yul\":16817:17046   */\n    tag_357:\n        /* \"#utility.yul\":16957:16991   */\n      0x4552433732313a2062616c616e636520717565727920666f7220746865207a65\n        /* \"#utility.yul\":16953:16954   */\n      0x00\n        /* \"#utility.yul\":16945:16951   */\n      dup3\n        /* \"#utility.yul\":16941:16955   */\n      add\n        /* \"#utility.yul\":16934:16992   */\n      mstore\n        /* \"#utility.yul\":17026:17038   */\n      0x726f206164647265737300000000000000000000000000000000000000000000\n        /* \"#utility.yul\":17021:17023   */\n      0x20\n        /* \"#utility.yul\":17013:17019   */\n      dup3\n        /* \"#utility.yul\":17009:17024   */\n      add\n        /* \"#utility.yul\":17002:17039   */\n      mstore\n        /* \"#utility.yul\":16817:17046   */\n      pop\n      jump\t// out\n        /* \"#utility.yul\":17052:17418   */\n    tag_358:\n        /* \"#utility.yul\":17194:17197   */\n      0x00\n        /* \"#utility.yul\":17215:17282   */\n      tag_549\n        /* \"#utility.yul\":17279:17281   */\n      0x2a\n        /* \"#utility.yul\":17274:17277   */\n      dup4\n        /* \"#utility.yul\":17215:17282   */\n      tag_316\n      jump\t// in\n    tag_549:\n        /* \"#utility.yul\":17208:17282   */\n      swap2\n      pop\n        /* \"#utility.yul\":17291:17384   */\n      tag_550\n        /* \"#utility.yul\":17380:17383   */\n      dup3\n        /* \"#utility.yul\":17291:17384   */\n      tag_357\n      jump\t// in\n    tag_550:\n        /* \"#utility.yul\":17409:17411   */\n      0x40\n        /* \"#utility.yul\":17404:17407   */\n      dup3\n        /* \"#utility.yul\":17400:17412   */\n      add\n        /* \"#utility.yul\":17393:17412   */\n      swap1\n      pop\n        /* \"#utility.yul\":17052:17418   */\n      swap2\n      swap1\n      pop\n      jump\t// out\n        /* \"#utility.yul\":17424:17843   */\n    tag_146:\n        /* \"#utility.yul\":17590:17594   */\n      0x00\n        /* \"#utility.yul\":17628:17630   */\n      0x20\n        /* \"#utility.yul\":17617:17626   */\n      dup3\n        /* \"#utility.yul\":17613:17631   */\n      add\n        /* \"#utility.yul\":17605:17631   */\n      swap1\n      pop\n        /* \"#utility.yul\":17677:17686   */\n      dup2\n        /* \"#utility.yul\":17671:17675   */\n      dup2\n        /* \"#utility.yul\":17667:17687   */\n      sub\n        /* \"#utility.yul\":17663:17664   */\n      0x00\n        /* \"#utility.yul\":17652:17661   */\n      dup4\n        /* \"#utility.yul\":17648:17665   */\n      add\n        /* \"#utility.yul\":17641:17688   */\n      mstore\n        /* \"#utility.yul\":17705:17836   */\n      tag_552\n        /* \"#utility.yul\":17831:17835   */\n      dup2\n        /* \"#utility.yul\":17705:17836   */\n      tag_358\n      jump\t// in\n    tag_552:\n        /* \"#utility.yul\":17697:17836   */\n      swap1\n      pop\n        /* \"#utility.yul\":17424:17843   */\n      swap2\n      swap1\n      pop\n      jump\t// out\n        /* \"#utility.yul\":17849:18083   */\n    tag_359:\n        /* \"#utility.yul\":17989:18023   */\n      0x4552433732314d657461646174613a2055524920717565727920666f72206e6f\n        /* \"#utility.yul\":17985:17986   */\n      0x00\n        /* \"#utility.yul\":17977:17983   */\n      dup3\n        /* \"#utility.yul\":17973:17987   */\n      add\n        /* \"#utility.yul\":17966:18024   */\n      mstore\n        /* \"#utility.yul\":18058:18075   */\n      0x6e6578697374656e7420746f6b656e0000000000000000000000000000000000\n        /* \"#utility.yul\":18053:18055   */\n      0x20\n        /* \"#utility.yul\":18045:18051   */\n      dup3\n        /* \"#utility.yul\":18041:18056   */\n      add\n        /* \"#utility.yul\":18034:18076   */\n      mstore\n        /* \"#utility.yul\":17849:18083   */\n      pop\n      jump\t// out\n        /* \"#utility.yul\":18089:18455   */\n    tag_360:\n        /* \"#utility.yul\":18231:18234   */\n      0x00\n        /* \"#utility.yul\":18252:18319   */\n      tag_555\n        /* \"#utility.yul\":18316:18318   */\n      0x2f\n        /* \"#utility.yul\":18311:18314   */\n      dup4\n        /* \"#utility.yul\":18252:18319   */\n      tag_316\n      jump\t// in\n    tag_555:\n        /* \"#utility.yul\":18245:18319   */\n      swap2\n      pop\n        /* \"#utility.yul\":18328:18421   */\n      tag_556\n        /* \"#utility.yul\":18417:18420   */\n      dup3\n        /* \"#utility.yul\":18328:18421   */\n      tag_359\n      jump\t// in\n    tag_556:\n        /* \"#utility.yul\":18446:18448   */\n      0x40\n        /* \"#utility.yul\":18441:18444   */\n      dup3\n        /* \"#utility.yul\":18437:18449   */\n      add\n        /* \"#utility.yul\":18430:18449   */\n      swap1\n      pop\n        /* \"#utility.yul\":18089:18455   */\n      swap2\n      swap1\n      pop\n      jump\t// out\n        /* \"#utility.yul\":18461:18880   */\n    tag_173:\n        /* \"#utility.yul\":18627:18631   */\n      0x00\n        /* \"#utility.yul\":18665:18667   */\n      0x20\n        /* \"#utility.yul\":18654:18663   */\n      dup3\n        /* \"#utility.yul\":18650:18668   */\n      add\n        /* \"#utility.yul\":18642:18668   */\n      swap1\n      pop\n        /* \"#utility.yul\":18714:18723   */\n      dup2\n        /* \"#utility.yul\":18708:18712   */\n      dup2\n        /* \"#utility.yul\":18704:18724   */\n      sub\n        /* \"#utility.yul\":18700:18701   */\n      0x00\n        /* \"#utility.yul\":18689:18698   */\n      dup4\n        /* \"#utility.yul\":18685:18702   */\n      add\n        /* \"#utility.yul\":18678:18725   */\n      mstore\n        /* \"#utility.yul\":18742:18873   */\n      tag_558\n        /* \"#utility.yul\":18868:18872   */\n      dup2\n        /* \"#utility.yul\":18742:18873   */\n      tag_360\n      jump\t// in\n    tag_558:\n        /* \"#utility.yul\":18734:18873   */\n      swap1\n      pop\n        /* \"#utility.yul\":18461:18880   */\n      swap2\n      swap1\n      pop\n      jump\t// out\n        /* \"#utility.yul\":18886:19034   */\n    tag_361:\n        /* \"#utility.yul\":18988:18999   */\n      0x00\n        /* \"#utility.yul\":19025:19028   */\n      dup2\n        /* \"#utility.yul\":19010:19028   */\n      swap1\n      pop\n        /* \"#utility.yul\":18886:19034   */\n      swap3\n      swap2\n      pop\n      pop\n      jump\t// out\n        /* \"#utility.yul\":19040:19417   */\n    tag_362:\n        /* \"#utility.yul\":19146:19149   */\n      0x00\n        /* \"#utility.yul\":19174:19213   */\n      tag_561\n        /* \"#utility.yul\":19207:19212   */\n      dup3\n        /* \"#utility.yul\":19174:19213   */\n      tag_315\n      jump\t// in\n    tag_561:\n        /* \"#utility.yul\":19229:19318   */\n      tag_562\n        /* \"#utility.yul\":19311:19317   */\n      dup2\n        /* \"#utility.yul\":19306:19309   */\n      dup6\n        /* \"#utility.yul\":19229:19318   */\n      tag_361\n      jump\t// in\n    tag_562:\n        /* \"#utility.yul\":19222:19318   */\n      swap4\n      pop\n        /* \"#utility.yul\":19327:19379   */\n      tag_563\n        /* \"#utility.yul\":19372:19378   */\n      dup2\n        /* \"#utility.yul\":19367:19370   */\n      dup6\n        /* \"#utility.yul\":19360:19364   */\n      0x20\n        /* \"#utility.yul\":19353:19358   */\n      dup7\n        /* \"#utility.yul\":19349:19365   */\n      add\n        /* \"#utility.yul\":19327:19379   */\n      tag_317\n      jump\t// in\n    tag_563:\n        /* \"#utility.yul\":19404:19410   */\n      dup1\n        /* \"#utility.yul\":19399:19402   */\n      dup5\n        /* \"#utility.yul\":19395:19411   */\n      add\n        /* \"#utility.yul\":19388:19411   */\n      swap2\n      pop\n        /* \"#utility.yul\":19150:19417   */\n      pop\n        /* \"#utility.yul\":19040:19417   */\n      swap3\n      swap2\n      pop\n      pop\n      jump\t// out\n        /* \"#utility.yul\":19423:19858   */\n    tag_184:\n        /* \"#utility.yul\":19603:19606   */\n      0x00\n        /* \"#utility.yul\":19625:19720   */\n      tag_565\n        /* \"#utility.yul\":19716:19719   */\n      dup3\n        /* \"#utility.yul\":19707:19713   */\n      dup6\n        /* \"#utility.yul\":19625:19720   */\n      tag_362\n      jump\t// in\n    tag_565:\n        /* \"#utility.yul\":19618:19720   */\n      swap2\n      pop\n        /* \"#utility.yul\":19737:19832   */\n      tag_566\n        /* \"#utility.yul\":19828:19831   */\n      dup3\n        /* \"#utility.yul\":19819:19825   */\n      dup5\n        /* \"#utility.yul\":19737:19832   */\n      tag_362\n      jump\t// in\n    tag_566:\n        /* \"#utility.yul\":19730:19832   */\n      swap2\n      pop\n        /* \"#utility.yul\":19849:19852   */\n      dup2\n        /* \"#utility.yul\":19842:19852   */\n      swap1\n      pop\n        /* \"#utility.yul\":19423:19858   */\n      swap4\n      swap3\n      pop\n      pop\n      pop\n      jump\t// out\n        /* \"#utility.yul\":19864:20089   */\n    tag_363:\n        /* \"#utility.yul\":20004:20038   */\n      0x4f776e61626c653a206e6577206f776e657220697320746865207a65726f2061\n        /* \"#utility.yul\":20000:20001   */\n      0x00\n        /* \"#utility.yul\":19992:19998   */\n      dup3\n        /* \"#utility.yul\":19988:20002   */\n      add\n        /* \"#utility.yul\":19981:20039   */\n      mstore\n        /* \"#utility.yul\":20073:20081   */\n      0x6464726573730000000000000000000000000000000000000000000000000000\n        /* \"#utility.yul\":20068:20070   */\n      0x20\n        /* \"#utility.yul\":20060:20066   */\n      dup3\n        /* \"#utility.yul\":20056:20071   */\n      add\n        /* \"#utility.yul\":20049:20082   */\n      mstore\n        /* \"#utility.yul\":19864:20089   */\n      pop\n      jump\t// out\n        /* \"#utility.yul\":20095:20461   */\n    tag_364:\n        /* \"#utility.yul\":20237:20240   */\n      0x00\n        /* \"#utility.yul\":20258:20325   */\n      tag_569\n        /* \"#utility.yul\":20322:20324   */\n      0x26\n        /* \"#utility.yul\":20317:20320   */\n      dup4\n        /* \"#utility.yul\":20258:20325   */\n      tag_316\n      jump\t// in\n    tag_569:\n        /* \"#utility.yul\":20251:20325   */\n      swap2\n      pop\n        /* \"#utility.yul\":20334:20427   */\n      tag_570\n        /* \"#utility.yul\":20423:20426   */\n      dup3\n        /* \"#utility.yul\":20334:20427   */\n      tag_363\n      jump\t// in\n    tag_570:\n        /* \"#utility.yul\":20452:20454   */\n      0x40\n        /* \"#utility.yul\":20447:20450   */\n      dup3\n        /* \"#utility.yul\":20443:20455   */\n      add\n        /* \"#utility.yul\":20436:20455   */\n      swap1\n      pop\n        /* \"#utility.yul\":20095:20461   */\n      swap2\n      swap1\n      pop\n      jump\t// out\n        /* \"#utility.yul\":20467:20886   */\n    tag_196:\n        /* \"#utility.yul\":20633:20637   */\n      0x00\n        /* \"#utility.yul\":20671:20673   */\n      0x20\n        /* \"#utility.yul\":20660:20669   */\n      dup3\n        /* \"#utility.yul\":20656:20674   */\n      add\n        /* \"#utility.yul\":20648:20674   */\n      swap1\n      pop\n        /* \"#utility.yul\":20720:20729   */\n      dup2\n        /* \"#utility.yul\":20714:20718   */\n      dup2\n        /* \"#utility.yul\":20710:20730   */\n      sub\n        /* \"#utility.yul\":20706:20707   */\n      0x00\n        /* \"#utility.yul\":20695:20704   */\n      dup4\n        /* \"#utility.yul\":20691:20708   */\n      add\n        /* \"#utility.yul\":20684:20731   */\n      mstore\n        /* \"#utility.yul\":20748:20879   */\n      tag_572\n        /* \"#utility.yul\":20874:20878   */\n      dup2\n        /* \"#utility.yul\":20748:20879   */\n      tag_364\n      jump\t// in\n    tag_572:\n        /* \"#utility.yul\":20740:20879   */\n      swap1\n      pop\n        /* \"#utility.yul\":20467:20886   */\n      swap2\n      swap1\n      pop\n      jump\t// out\n        /* \"#utility.yul\":20892:21123   */\n    tag_365:\n        /* \"#utility.yul\":21032:21066   */\n      0x4552433732313a206f70657261746f7220717565727920666f72206e6f6e6578\n        /* \"#utility.yul\":21028:21029   */\n      0x00\n        /* \"#utility.yul\":21020:21026   */\n      dup3\n        /* \"#utility.yul\":21016:21030   */\n      add\n        /* \"#utility.yul\":21009:21067   */\n      mstore\n        /* \"#utility.yul\":21101:21115   */\n      0x697374656e7420746f6b656e0000000000000000000000000000000000000000\n        /* \"#utility.yul\":21096:21098   */\n      0x20\n        /* \"#utility.yul\":21088:21094   */\n      dup3\n        /* \"#utility.yul\":21084:21099   */\n      add\n        /* \"#utility.yul\":21077:21116   */\n      mstore\n        /* \"#utility.yul\":20892:21123   */\n      pop\n      jump\t// out\n        /* \"#utility.yul\":21129:21495   */\n    tag_366:\n        /* \"#utility.yul\":21271:21274   */\n      0x00\n        /* \"#utility.yul\":21292:21359   */\n      tag_575\n        /* \"#utility.yul\":21356:21358   */\n      0x2c\n        /* \"#utility.yul\":21351:21354   */\n      dup4\n        /* \"#utility.yul\":21292:21359   */\n      tag_316\n      jump\t// in\n    tag_575:\n        /* \"#utility.yul\":21285:21359   */\n      swap2\n      pop\n        /* \"#utility.yul\":21368:21461   */\n      tag_576\n        /* \"#utility.yul\":21457:21460   */\n      dup3\n        /* \"#utility.yul\":21368:21461   */\n      tag_365\n      jump\t// in\n    tag_576:\n        /* \"#utility.yul\":21486:21488   */\n      0x40\n        /* \"#utility.yul\":21481:21484   */\n      dup3\n        /* \"#utility.yul\":21477:21489   */\n      add\n        /* \"#utility.yul\":21470:21489   */\n      swap1\n      pop\n        /* \"#utility.yul\":21129:21495   */\n      swap2\n      swap1\n      pop\n      jump\t// out\n        /* \"#utility.yul\":21501:21920   */\n    tag_206:\n        /* \"#utility.yul\":21667:21671   */\n      0x00\n        /* \"#utility.yul\":21705:21707   */\n      0x20\n        /* \"#utility.yul\":21694:21703   */\n      dup3\n        /* \"#utility.yul\":21690:21708   */\n      add\n        /* \"#utility.yul\":21682:21708   */\n      swap1\n      pop\n        /* \"#utility.yul\":21754:21763   */\n      dup2\n        /* \"#utility.yul\":21748:21752   */\n      dup2\n        /* \"#utility.yul\":21744:21764   */\n      sub\n        /* \"#utility.yul\":21740:21741   */\n      0x00\n        /* \"#utility.yul\":21729:21738   */\n      dup4\n        /* \"#utility.yul\":21725:21742   */\n      add\n        /* \"#utility.yul\":21718:21765   */\n      mstore\n        /* \"#utility.yul\":21782:21913   */\n      tag_578\n        /* \"#utility.yul\":21908:21912   */\n      dup2\n        /* \"#utility.yul\":21782:21913   */\n      tag_366\n      jump\t// in\n    tag_578:\n        /* \"#utility.yul\":21774:21913   */\n      swap1\n      pop\n        /* \"#utility.yul\":21501:21920   */\n      swap2\n      swap1\n      pop\n      jump\t// out\n        /* \"#utility.yul\":21926:22150   */\n    tag_367:\n        /* \"#utility.yul\":22066:22100   */\n      0x4552433732313a207472616e736665722066726f6d20696e636f727265637420\n        /* \"#utility.yul\":22062:22063   */\n      0x00\n        /* \"#utility.yul\":22054:22060   */\n      dup3\n        /* \"#utility.yul\":22050:22064   */\n      add\n        /* \"#utility.yul\":22043:22101   */\n      mstore\n        /* \"#utility.yul\":22135:22142   */\n      0x6f776e6572000000000000000000000000000000000000000000000000000000\n        /* \"#utility.yul\":22130:22132   */\n      0x20\n        /* \"#utility.yul\":22122:22128   */\n      dup3\n        /* \"#utility.yul\":22118:22133   */\n      add\n        /* \"#utility.yul\":22111:22143   */\n      mstore\n        /* \"#utility.yul\":21926:22150   */\n      pop\n      jump\t// out\n        /* \"#utility.yul\":22156:22522   */\n    tag_368:\n        /* \"#utility.yul\":22298:22301   */\n      0x00\n        /* \"#utility.yul\":22319:22386   */\n      tag_581\n        /* \"#utility.yul\":22383:22385   */\n      0x25\n        /* \"#utility.yul\":22378:22381   */\n      dup4\n        /* \"#utility.yul\":22319:22386   */\n      tag_316\n      jump\t// in\n    tag_581:\n        /* \"#utility.yul\":22312:22386   */\n      swap2\n      pop\n        /* \"#utility.yul\":22395:22488   */\n      tag_582\n        /* \"#utility.yul\":22484:22487   */\n      dup3\n        /* \"#utility.yul\":22395:22488   */\n      tag_367\n      jump\t// in\n    tag_582:\n        /* \"#utility.yul\":22513:22515   */\n      0x40\n        /* \"#utility.yul\":22508:22511   */\n      dup3\n        /* \"#utility.yul\":22504:22516   */\n      add\n        /* \"#utility.yul\":22497:22516   */\n      swap1\n      pop\n        /* \"#utility.yul\":22156:22522   */\n      swap2\n      swap1\n      pop\n      jump\t// out\n        /* \"#utility.yul\":22528:22947   */\n    tag_214:\n        /* \"#utility.yul\":22694:22698   */\n      0x00\n        /* \"#utility.yul\":22732:22734   */\n      0x20\n        /* \"#utility.yul\":22721:22730   */\n      dup3\n        /* \"#utility.yul\":22717:22735   */\n      add\n        /* \"#utility.yul\":22709:22735   */\n      swap1\n      pop\n        /* \"#utility.yul\":22781:22790   */\n      dup2\n        /* \"#utility.yul\":22775:22779   */\n      dup2\n        /* \"#utility.yul\":22771:22791   */\n      sub\n        /* \"#utility.yul\":22767:22768   */\n      0x00\n        /* \"#utility.yul\":22756:22765   */\n      dup4\n        /* \"#utility.yul\":22752:22769   */\n      add\n        /* \"#utility.yul\":22745:22792   */\n      mstore\n        /* \"#utility.yul\":22809:22940   */\n      tag_584\n        /* \"#utility.yul\":22935:22939   */\n      dup2\n        /* \"#utility.yul\":22809:22940   */\n      tag_368\n      jump\t// in\n    tag_584:\n        /* \"#utility.yul\":22801:22940   */\n      swap1\n      pop\n        /* \"#utility.yul\":22528:22947   */\n      swap2\n      swap1\n      pop\n      jump\t// out\n        /* \"#utility.yul\":22953:23176   */\n    tag_369:\n        /* \"#utility.yul\":23093:23127   */\n      0x4552433732313a207472616e7366657220746f20746865207a65726f20616464\n        /* \"#utility.yul\":23089:23090   */\n      0x00\n        /* \"#utility.yul\":23081:23087   */\n      dup3\n        /* \"#utility.yul\":23077:23091   */\n      add\n        /* \"#utility.yul\":23070:23128   */\n      mstore\n        /* \"#utility.yul\":23162:23168   */\n      0x7265737300000000000000000000000000000000000000000000000000000000\n        /* \"#utility.yul\":23157:23159   */\n      0x20\n        /* \"#utility.yul\":23149:23155   */\n      dup3\n        /* \"#utility.yul\":23145:23160   */\n      add\n        /* \"#utility.yul\":23138:23169   */\n      mstore\n        /* \"#utility.yul\":22953:23176   */\n      pop\n      jump\t// out\n        /* \"#utility.yul\":23182:23548   */\n    tag_370:\n        /* \"#utility.yul\":23324:23327   */\n      0x00\n        /* \"#utility.yul\":23345:23412   */\n      tag_587\n        /* \"#utility.yul\":23409:23411   */\n      0x24\n        /* \"#utility.yul\":23404:23407   */\n      dup4\n        /* \"#utility.yul\":23345:23412   */\n      tag_316\n      jump\t// in\n    tag_587:\n        /* \"#utility.yul\":23338:23412   */\n      swap2\n      pop\n        /* \"#utility.yul\":23421:23514   */\n      tag_588\n        /* \"#utility.yul\":23510:23513   */\n      dup3\n        /* \"#utility.yul\":23421:23514   */\n      tag_369\n      jump\t// in\n    tag_588:\n        /* \"#utility.yul\":23539:23541   */\n      0x40\n        /* \"#utility.yul\":23534:23537   */\n      dup3\n        /* \"#utility.yul\":23530:23542   */\n      add\n        /* \"#utility.yul\":23523:23542   */\n      swap1\n      pop\n        /* \"#utility.yul\":23182:23548   */\n      swap2\n      swap1\n      pop\n      jump\t// out\n        /* \"#utility.yul\":23554:23973   */\n    tag_217:\n        /* \"#utility.yul\":23720:23724   */\n      0x00\n        /* \"#utility.yul\":23758:23760   */\n      0x20\n        /* \"#utility.yul\":23747:23756   */\n      dup3\n        /* \"#utility.yul\":23743:23761   */\n      add\n        /* \"#utility.yul\":23735:23761   */\n      swap1\n      pop\n        /* \"#utility.yul\":23807:23816   */\n      dup2\n        /* \"#utility.yul\":23801:23805   */\n      dup2\n        /* \"#utility.yul\":23797:23817   */\n      sub\n        /* \"#utility.yul\":23793:23794   */\n      0x00\n        /* \"#utility.yul\":23782:23791   */\n      dup4\n        /* \"#utility.yul\":23778:23795   */\n      add\n        /* \"#utility.yul\":23771:23818   */\n      mstore\n        /* \"#utility.yul\":23835:23966   */\n      tag_590\n        /* \"#utility.yul\":23961:23965   */\n      dup2\n        /* \"#utility.yul\":23835:23966   */\n      tag_370\n      jump\t// in\n    tag_590:\n        /* \"#utility.yul\":23827:23966   */\n      swap1\n      pop\n        /* \"#utility.yul\":23554:23973   */\n      swap2\n      swap1\n      pop\n      jump\t// out\n        /* \"#utility.yul\":23979:24170   */\n    tag_222:\n        /* \"#utility.yul\":24019:24023   */\n      0x00\n        /* \"#utility.yul\":24039:24059   */\n      tag_592\n        /* \"#utility.yul\":24057:24058   */\n      dup3\n        /* \"#utility.yul\":24039:24059   */\n      tag_323\n      jump\t// in\n    tag_592:\n        /* \"#utility.yul\":24034:24059   */\n      swap2\n      pop\n        /* \"#utility.yul\":24073:24093   */\n      tag_593\n        /* \"#utility.yul\":24091:24092   */\n      dup4\n        /* \"#utility.yul\":24073:24093   */\n      tag_323\n      jump\t// in\n    tag_593:\n        /* \"#utility.yul\":24068:24093   */\n      swap3\n      pop\n        /* \"#utility.yul\":24112:24113   */\n      dup3\n        /* \"#utility.yul\":24109:24110   */\n      dup3\n        /* \"#utility.yul\":24106:24114   */\n      lt\n        /* \"#utility.yul\":24103:24137   */\n      iszero\n      tag_594\n      jumpi\n        /* \"#utility.yul\":24117:24135   */\n      tag_595\n      tag_356\n      jump\t// in\n    tag_595:\n        /* \"#utility.yul\":24103:24137   */\n    tag_594:\n        /* \"#utility.yul\":24162:24163   */\n      dup3\n        /* \"#utility.yul\":24159:24160   */\n      dup3\n        /* \"#utility.yul\":24155:24164   */\n      sub\n        /* \"#utility.yul\":24147:24164   */\n      swap1\n      pop\n        /* \"#utility.yul\":23979:24170   */\n      swap3\n      swap2\n      pop\n      pop\n      jump\t// out\n        /* \"#utility.yul\":24176:24481   */\n    tag_224:\n        /* \"#utility.yul\":24216:24219   */\n      0x00\n        /* \"#utility.yul\":24235:24255   */\n      tag_597\n        /* \"#utility.yul\":24253:24254   */\n      dup3\n        /* \"#utility.yul\":24235:24255   */\n      tag_323\n      jump\t// in\n    tag_597:\n        /* \"#utility.yul\":24230:24255   */\n      swap2\n      pop\n        /* \"#utility.yul\":24269:24289   */\n      tag_598\n        /* \"#utility.yul\":24287:24288   */\n      dup4\n        /* \"#utility.yul\":24269:24289   */\n      tag_323\n      jump\t// in\n    tag_598:\n        /* \"#utility.yul\":24264:24289   */\n      swap3\n      pop\n        /* \"#utility.yul\":24423:24424   */\n      dup3\n        /* \"#utility.yul\":24355:24421   */\n      0xffffffffffffffffffffffffffffffffffffffffffffffffffffffffffffffff\n        /* \"#utility.yul\":24351:24425   */\n      sub\n        /* \"#utility.yul\":24348:24349   */\n      dup3\n        /* \"#utility.yul\":24345:24426   */\n      gt\n        /* \"#utility.yul\":24342:24449   */\n      iszero\n      tag_599\n      jumpi\n        /* \"#utility.yul\":24429:24447   */\n      tag_600\n      tag_356\n      jump\t// in\n    tag_600:\n        /* \"#utility.yul\":24342:24449   */\n    tag_599:\n        /* \"#utility.yul\":24473:24474   */\n      dup3\n        /* \"#utility.yul\":24470:24471   */\n      dup3\n        /* \"#utility.yul\":24466:24475   */\n      add\n        /* \"#utility.yul\":24459:24475   */\n      swap1\n      pop\n        /* \"#utility.yul\":24176:24481   */\n      swap3\n      swap2\n      pop\n      pop\n      jump\t// out\n        /* \"#utility.yul\":24487:24665   */\n    tag_371:\n        /* \"#utility.yul\":24627:24657   */\n      0x4552433732313a20746f6b656e20616c7265616479206d696e74656400000000\n        /* \"#utility.yul\":24623:24624   */\n      0x00\n        /* \"#utility.yul\":24615:24621   */\n      dup3\n        /* \"#utility.yul\":24611:24625   */\n      add\n        /* \"#utility.yul\":24604:24658   */\n      mstore\n        /* \"#utility.yul\":24487:24665   */\n      pop\n      jump\t// out\n        /* \"#utility.yul\":24671:25037   */\n    tag_372:\n        /* \"#utility.yul\":24813:24816   */\n      0x00\n        /* \"#utility.yul\":24834:24901   */\n      tag_603\n        /* \"#utility.yul\":24898:24900   */\n      0x1c\n        /* \"#utility.yul\":24893:24896   */\n      dup4\n        /* \"#utility.yul\":24834:24901   */\n      tag_316\n      jump\t// in\n    tag_603:\n        /* \"#utility.yul\":24827:24901   */\n      swap2\n      pop\n        /* \"#utility.yul\":24910:25003   */\n      tag_604\n        /* \"#utility.yul\":24999:25002   */\n      dup3\n        /* \"#utility.yul\":24910:25003   */\n      tag_371\n      jump\t// in\n    tag_604:\n        /* \"#utility.yul\":25028:25030   */\n      0x20\n        /* \"#utility.yul\":25023:25026   */\n      dup3\n        /* \"#utility.yul\":25019:25031   */\n      add\n        /* \"#utility.yul\":25012:25031   */\n      swap1\n      pop\n        /* \"#utility.yul\":24671:25037   */\n      swap2\n      swap1\n      pop\n      jump\t// out\n        /* \"#utility.yul\":25043:25462   */\n    tag_231:\n        /* \"#utility.yul\":25209:25213   */\n      0x00\n        /* \"#utility.yul\":25247:25249   */\n      0x20\n        /* \"#utility.yul\":25236:25245   */\n      dup3\n        /* \"#utility.yul\":25232:25250   */\n      add\n        /* \"#utility.yul\":25224:25250   */\n      swap1\n      pop\n        /* \"#utility.yul\":25296:25305   */\n      dup2\n        /* \"#utility.yul\":25290:25294   */\n      dup2\n        /* \"#utility.yul\":25286:25306   */\n      sub\n        /* \"#utility.yul\":25282:25283   */\n      0x00\n        /* \"#utility.yul\":25271:25280   */\n      dup4\n        /* \"#utility.yul\":25267:25284   */\n      add\n        /* \"#utility.yul\":25260:25307   */\n      mstore\n        /* \"#utility.yul\":25324:25455   */\n      tag_606\n        /* \"#utility.yul\":25450:25454   */\n      dup2\n        /* \"#utility.yul\":25324:25455   */\n      tag_372\n      jump\t// in\n    tag_606:\n        /* \"#utility.yul\":25316:25455   */\n      swap1\n      pop\n        /* \"#utility.yul\":25043:25462   */\n      swap2\n      swap1\n      pop\n      jump\t// out\n        /* \"#utility.yul\":25468:25611   */\n    tag_373:\n        /* \"#utility.yul\":25525:25530   */\n      0x00\n        /* \"#utility.yul\":25556:25562   */\n      dup2\n        /* \"#utility.yul\":25550:25563   */\n      mload\n        /* \"#utility.yul\":25541:25563   */\n      swap1\n      pop\n        /* \"#utility.yul\":25572:25605   */\n      tag_608\n        /* \"#utility.yul\":25599:25604   */\n      dup2\n        /* \"#utility.yul\":25572:25605   */\n      tag_329\n      jump\t// in\n    tag_608:\n        /* \"#utility.yul\":25468:25611   */\n      swap3\n      swap2\n      pop\n      pop\n      jump\t// out\n        /* \"#utility.yul\":25617:25968   */\n    tag_236:\n        /* \"#utility.yul\":25687:25693   */\n      0x00\n        /* \"#utility.yul\":25736:25738   */\n      0x20\n        /* \"#utility.yul\":25724:25733   */\n      dup3\n        /* \"#utility.yul\":25715:25722   */\n      dup5\n        /* \"#utility.yul\":25711:25734   */\n      sub\n        /* \"#utility.yul\":25707:25739   */\n      slt\n        /* \"#utility.yul\":25704:25823   */\n      iszero\n      tag_610\n      jumpi\n        /* \"#utility.yul\":25742:25821   */\n      tag_611\n      tag_321\n      jump\t// in\n    tag_611:\n        /* \"#utility.yul\":25704:25823   */\n    tag_610:\n        /* \"#utility.yul\":25862:25863   */\n      0x00\n        /* \"#utility.yul\":25887:25951   */\n      tag_612\n        /* \"#utility.yul\":25943:25950   */\n      dup5\n        /* \"#utility.yul\":25934:25940   */\n      dup3\n        /* \"#utility.yul\":25923:25932   */\n      dup6\n        /* \"#utility.yul\":25919:25941   */\n      add\n        /* \"#utility.yul\":25887:25951   */\n      tag_373\n      jump\t// in\n    tag_612:\n        /* \"#utility.yul\":25877:25951   */\n      swap2\n      pop\n        /* \"#utility.yul\":25833:25961   */\n      pop\n        /* \"#utility.yul\":25617:25968   */\n      swap3\n      swap2\n      pop\n      pop\n      jump\t// out\n        /* \"#utility.yul\":25974:26205   */\n    tag_374:\n        /* \"#utility.yul\":26114:26148   */\n      0x4552433732314d657461646174613a2055524920736574206f66206e6f6e6578\n        /* \"#utility.yul\":26110:26111   */\n      0x00\n        /* \"#utility.yul\":26102:26108   */\n      dup3\n        /* \"#utility.yul\":26098:26112   */\n      add\n        /* \"#utility.yul\":26091:26149   */\n      mstore\n        /* \"#utility.yul\":26183:26197   */\n      0x697374656e7420746f6b656e0000000000000000000000000000000000000000\n        /* \"#utility.yul\":26178:26180   */\n      0x20\n        /* \"#utility.yul\":26170:26176   */\n      dup3\n        /* \"#utility.yul\":26166:26181   */\n      add\n        /* \"#utility.yul\":26159:26198   */\n      mstore\n        /* \"#utility.yul\":25974:26205   */\n      pop\n      jump\t// out\n        /* \"#utility.yul\":26211:26577   */\n    tag_375:\n        /* \"#utility.yul\":26353:26356   */\n      0x00\n        /* \"#utility.yul\":26374:26441   */\n      tag_615\n        /* \"#utility.yul\":26438:26440   */\n      0x2c\n        /* \"#utility.yul\":26433:26436   */\n      dup4\n        /* \"#utility.yul\":26374:26441   */\n      tag_316\n      jump\t// in\n    tag_615:\n        /* \"#utility.yul\":26367:26441   */\n      swap2\n      pop\n        /* \"#utility.yul\":26450:26543   */\n      tag_616\n        /* \"#utility.yul\":26539:26542   */\n      dup3\n        /* \"#utility.yul\":26450:26543   */\n      tag_374\n      jump\t// in\n    tag_616:\n        /* \"#utility.yul\":26568:26570   */\n      0x40\n        /* \"#utility.yul\":26563:26566   */\n      dup3\n        /* \"#utility.yul\":26559:26571   */\n      add\n        /* \"#utility.yul\":26552:26571   */\n      swap1\n      pop\n        /* \"#utility.yul\":26211:26577   */\n      swap2\n      swap1\n      pop\n      jump\t// out\n        /* \"#utility.yul\":26583:27002   */\n    tag_241:\n        /* \"#utility.yul\":26749:26753   */\n      0x00\n        /* \"#utility.yul\":26787:26789   */\n      0x20\n        /* \"#utility.yul\":26776:26785   */\n      dup3\n        /* \"#utility.yul\":26772:26790   */\n      add\n        /* \"#utility.yul\":26764:26790   */\n      swap1\n      pop\n        /* \"#utility.yul\":26836:26845   */\n      dup2\n        /* \"#utility.yul\":26830:26834   */\n      dup2\n        /* \"#utility.yul\":26826:26846   */\n      sub\n        /* \"#utility.yul\":26822:26823   */\n      0x00\n        /* \"#utility.yul\":26811:26820   */\n      dup4\n        /* \"#utility.yul\":26807:26824   */\n      add\n        /* \"#utility.yul\":26800:26847   */\n      mstore\n        /* \"#utility.yul\":26864:26995   */\n      tag_618\n        /* \"#utility.yul\":26990:26994   */\n      dup2\n        /* \"#utility.yul\":26864:26995   */\n      tag_375\n      jump\t// in\n    tag_618:\n        /* \"#utility.yul\":26856:26995   */\n      swap1\n      pop\n        /* \"#utility.yul\":26583:27002   */\n      swap2\n      swap1\n      pop\n      jump\t// out\n        /* \"#utility.yul\":27008:27245   */\n    tag_376:\n        /* \"#utility.yul\":27148:27182   */\n      0x4552433732313a207472616e7366657220746f206e6f6e204552433732315265\n        /* \"#utility.yul\":27144:27145   */\n      0x00\n        /* \"#utility.yul\":27136:27142   */\n      dup3\n        /* \"#utility.yul\":27132:27146   */\n      add\n        /* \"#utility.yul\":27125:27183   */\n      mstore\n        /* \"#utility.yul\":27217:27237   */\n      0x63656976657220696d706c656d656e7465720000000000000000000000000000\n        /* \"#utility.yul\":27212:27214   */\n      0x20\n        /* \"#utility.yul\":27204:27210   */\n      dup3\n        /* \"#utility.yul\":27200:27215   */\n      add\n        /* \"#utility.yul\":27193:27238   */\n      mstore\n        /* \"#utility.yul\":27008:27245   */\n      pop\n      jump\t// out\n        /* \"#utility.yul\":27251:27617   */\n    tag_377:\n        /* \"#utility.yul\":27393:27396   */\n      0x00\n        /* \"#utility.yul\":27414:27481   */\n      tag_621\n        /* \"#utility.yul\":27478:27480   */\n      0x32\n        /* \"#utility.yul\":27473:27476   */\n      dup4\n        /* \"#utility.yul\":27414:27481   */\n      tag_316\n      jump\t// in\n    tag_621:\n        /* \"#utility.yul\":27407:27481   */\n      swap2\n      pop\n        /* \"#utility.yul\":27490:27583   */\n      tag_622\n        /* \"#utility.yul\":27579:27582   */\n      dup3\n        /* \"#utility.yul\":27490:27583   */\n      tag_376\n      jump\t// in\n    tag_622:\n        /* \"#utility.yul\":27608:27610   */\n      0x40\n        /* \"#utility.yul\":27603:27606   */\n      dup3\n        /* \"#utility.yul\":27599:27611   */\n      add\n        /* \"#utility.yul\":27592:27611   */\n      swap1\n      pop\n        /* \"#utility.yul\":27251:27617   */\n      swap2\n      swap1\n      pop\n      jump\t// out\n        /* \"#utility.yul\":27623:28042   */\n    tag_250:\n        /* \"#utility.yul\":27789:27793   */\n      0x00\n        /* \"#utility.yul\":27827:27829   */\n      0x20\n        /* \"#utility.yul\":27816:27825   */\n      dup3\n        /* \"#utility.yul\":27812:27830   */\n      add\n        /* \"#utility.yul\":27804:27830   */\n      swap1\n      pop\n        /* \"#utility.yul\":27876:27885   */\n      dup2\n        /* \"#utility.yul\":27870:27874   */\n      dup2\n        /* \"#utility.yul\":27866:27886   */\n      sub\n        /* \"#utility.yul\":27862:27863   */\n      0x00\n        /* \"#utility.yul\":27851:27860   */\n      dup4\n        /* \"#utility.yul\":27847:27864   */\n      add\n        /* \"#utility.yul\":27840:27887   */\n      mstore\n        /* \"#utility.yul\":27904:28035   */\n      tag_624\n        /* \"#utility.yul\":28030:28034   */\n      dup2\n        /* \"#utility.yul\":27904:28035   */\n      tag_377\n      jump\t// in\n    tag_624:\n        /* \"#utility.yul\":27896:28035   */\n      swap1\n      pop\n        /* \"#utility.yul\":27623:28042   */\n      swap2\n      swap1\n      pop\n      jump\t// out\n        /* \"#utility.yul\":28048:28228   */\n    tag_378:\n        /* \"#utility.yul\":28096:28173   */\n      0x4e487b7100000000000000000000000000000000000000000000000000000000\n        /* \"#utility.yul\":28093:28094   */\n      0x00\n        /* \"#utility.yul\":28086:28174   */\n      mstore\n        /* \"#utility.yul\":28193:28197   */\n      0x12\n        /* \"#utility.yul\":28190:28191   */\n      0x04\n        /* \"#utility.yul\":28183:28198   */\n      mstore\n        /* \"#utility.yul\":28217:28221   */\n      0x24\n        /* \"#utility.yul\":28214:28215   */\n      0x00\n        /* \"#utility.yul\":28207:28222   */\n      revert\n        /* \"#utility.yul\":28234:28419   */\n    tag_263:\n        /* \"#utility.yul\":28274:28275   */\n      0x00\n        /* \"#utility.yul\":28291:28311   */\n      tag_627\n        /* \"#utility.yul\":28309:28310   */\n      dup3\n        /* \"#utility.yul\":28291:28311   */\n      tag_323\n      jump\t// in\n    tag_627:\n        /* \"#utility.yul\":28286:28311   */\n      swap2\n      pop\n        /* \"#utility.yul\":28325:28345   */\n      tag_628\n        /* \"#utility.yul\":28343:28344   */\n      dup4\n        /* \"#utility.yul\":28325:28345   */\n      tag_323\n      jump\t// in\n    tag_628:\n        /* \"#utility.yul\":28320:28345   */\n      swap3\n      pop\n        /* \"#utility.yul\":28364:28365   */\n      dup3\n        /* \"#utility.yul\":28354:28389   */\n      tag_629\n      jumpi\n        /* \"#utility.yul\":28369:28387   */\n      tag_630\n      tag_378\n      jump\t// in\n    tag_630:\n        /* \"#utility.yul\":28354:28389   */\n    tag_629:\n        /* \"#utility.yul\":28411:28412   */\n      dup3\n        /* \"#utility.yul\":28408:28409   */\n      dup3\n        /* \"#utility.yul\":28404:28413   */\n      div\n        /* \"#utility.yul\":28399:28413   */\n      swap1\n      pop\n        /* \"#utility.yul\":28234:28419   */\n      swap3\n      swap2\n      pop\n      pop\n      jump\t// out\n        /* \"#utility.yul\":28425:28601   */\n    tag_272:\n        /* \"#utility.yul\":28457:28458   */\n      0x00\n        /* \"#utility.yul\":28474:28494   */\n      tag_632\n        /* \"#utility.yul\":28492:28493   */\n      dup3\n        /* \"#utility.yul\":28474:28494   */\n      tag_323\n      jump\t// in\n    tag_632:\n        /* \"#utility.yul\":28469:28494   */\n      swap2\n      pop\n        /* \"#utility.yul\":28508:28528   */\n      tag_633\n        /* \"#utility.yul\":28526:28527   */\n      dup4\n        /* \"#utility.yul\":28508:28528   */\n      tag_323\n      jump\t// in\n    tag_633:\n        /* \"#utility.yul\":28503:28528   */\n      swap3\n      pop\n        /* \"#utility.yul\":28547:28548   */\n      dup3\n        /* \"#utility.yul\":28537:28572   */\n      tag_634\n      jumpi\n        /* \"#utility.yul\":28552:28570   */\n      tag_635\n      tag_378\n      jump\t// in\n    tag_635:\n        /* \"#utility.yul\":28537:28572   */\n    tag_634:\n        /* \"#utility.yul\":28593:28594   */\n      dup3\n        /* \"#utility.yul\":28590:28591   */\n      dup3\n        /* \"#utility.yul\":28586:28595   */\n      mod\n        /* \"#utility.yul\":28581:28595   */\n      swap1\n      pop\n        /* \"#utility.yul\":28425:28601   */\n      swap3\n      swap2\n      pop\n      pop\n      jump\t// out\n        /* \"#utility.yul\":28607:28787   */\n    tag_276:\n        /* \"#utility.yul\":28655:28732   */\n      0x4e487b7100000000000000000000000000000000000000000000000000000000\n        /* \"#utility.yul\":28652:28653   */\n      0x00\n        /* \"#utility.yul\":28645:28733   */\n      mstore\n        /* \"#utility.yul\":28752:28756   */\n      0x32\n        /* \"#utility.yul\":28749:28750   */\n      0x04\n        /* \"#utility.yul\":28742:28757   */\n      mstore\n        /* \"#utility.yul\":28776:28780   */\n      0x24\n        /* \"#utility.yul\":28773:28774   */\n      0x00\n        /* \"#utility.yul\":28766:28781   */\n      revert\n        /* \"#utility.yul\":28793:28975   */\n    tag_379:\n        /* \"#utility.yul\":28933:28967   */\n      0x4552433732313a207472616e73666572206e6f74206f776e657220746f6b656e\n        /* \"#utility.yul\":28929:28930   */\n      0x00\n        /* \"#utility.yul\":28921:28927   */\n      dup3\n        /* \"#utility.yul\":28917:28931   */\n      add\n        /* \"#utility.yul\":28910:28968   */\n      mstore\n        /* \"#utility.yul\":28793:28975   */\n      pop\n      jump\t// out\n        /* \"#utility.yul\":28981:29347   */\n    tag_380:\n        /* \"#utility.yul\":29123:29126   */\n      0x00\n        /* \"#utility.yul\":29144:29211   */\n      tag_639\n        /* \"#utility.yul\":29208:29210   */\n      0x20\n        /* \"#utility.yul\":29203:29206   */\n      dup4\n        /* \"#utility.yul\":29144:29211   */\n      tag_316\n      jump\t// in\n    tag_639:\n        /* \"#utility.yul\":29137:29211   */\n      swap2\n      pop\n        /* \"#utility.yul\":29220:29313   */\n      tag_640\n        /* \"#utility.yul\":29309:29312   */\n      dup3\n        /* \"#utility.yul\":29220:29313   */\n      tag_379\n      jump\t// in\n    tag_640:\n        /* \"#utility.yul\":29338:29340   */\n      0x20\n        /* \"#utility.yul\":29333:29336   */\n      dup3\n        /* \"#utility.yul\":29329:29341   */\n      add\n        /* \"#utility.yul\":29322:29341   */\n      swap1\n      pop\n        /* \"#utility.yul\":28981:29347   */\n      swap2\n      swap1\n      pop\n      jump\t// out\n        /* \"#utility.yul\":29353:29772   */\n    tag_281:\n        /* \"#utility.yul\":29519:29523   */\n      0x00\n        /* \"#utility.yul\":29557:29559   */\n      0x20\n        /* \"#utility.yul\":29546:29555   */\n      dup3\n        /* \"#utility.yul\":29542:29560   */\n      add\n        /* \"#utility.yul\":29534:29560   */\n      swap1\n      pop\n        /* \"#utility.yul\":29606:29615   */\n      dup2\n        /* \"#utility.yul\":29600:29604   */\n      dup2\n        /* \"#utility.yul\":29596:29616   */\n      sub\n        /* \"#utility.yul\":29592:29593   */\n      0x00\n        /* \"#utility.yul\":29581:29590   */\n      dup4\n        /* \"#utility.yul\":29577:29594   */\n      add\n        /* \"#utility.yul\":29570:29617   */\n      mstore\n        /* \"#utility.yul\":29634:29765   */\n      tag_642\n        /* \"#utility.yul\":29760:29764   */\n      dup2\n        /* \"#utility.yul\":29634:29765   */\n      tag_380\n      jump\t// in\n    tag_642:\n        /* \"#utility.yul\":29626:29765   */\n      swap1\n      pop\n        /* \"#utility.yul\":29353:29772   */\n      swap2\n      swap1\n      pop\n      jump\t// out\n        /* \"#utility.yul\":29778:29876   */\n    tag_381:\n        /* \"#utility.yul\":29829:29835   */\n      0x00\n        /* \"#utility.yul\":29863:29868   */\n      dup2\n        /* \"#utility.yul\":29857:29869   */\n      mload\n        /* \"#utility.yul\":29847:29869   */\n      swap1\n      pop\n        /* \"#utility.yul\":29778:29876   */\n      swap2\n      swap1\n      pop\n      jump\t// out\n        /* \"#utility.yul\":29882:30050   */\n    tag_382:\n        /* \"#utility.yul\":29965:29976   */\n      0x00\n        /* \"#utility.yul\":29999:30005   */\n      dup3\n        /* \"#utility.yul\":29994:29997   */\n      dup3\n        /* \"#utility.yul\":29987:30006   */\n      mstore\n        /* \"#utility.yul\":30039:30043   */\n      0x20\n        /* \"#utility.yul\":30034:30037   */\n      dup3\n        /* \"#utility.yul\":30030:30044   */\n      add\n        /* \"#utility.yul\":30015:30044   */\n      swap1\n      pop\n        /* \"#utility.yul\":29882:30050   */\n      swap3\n      swap2\n      pop\n      pop\n      jump\t// out\n        /* \"#utility.yul\":30056:30416   */\n    tag_383:\n        /* \"#utility.yul\":30142:30145   */\n      0x00\n        /* \"#utility.yul\":30170:30208   */\n      tag_646\n        /* \"#utility.yul\":30202:30207   */\n      dup3\n        /* \"#utility.yul\":30170:30208   */\n      tag_381\n      jump\t// in\n    tag_646:\n        /* \"#utility.yul\":30224:30294   */\n      tag_647\n        /* \"#utility.yul\":30287:30293   */\n      dup2\n        /* \"#utility.yul\":30282:30285   */\n      dup6\n        /* \"#utility.yul\":30224:30294   */\n      tag_382\n      jump\t// in\n    tag_647:\n        /* \"#utility.yul\":30217:30294   */\n      swap4\n      pop\n        /* \"#utility.yul\":30303:30355   */\n      tag_648\n        /* \"#utility.yul\":30348:30354   */\n      dup2\n        /* \"#utility.yul\":30343:30346   */\n      dup6\n        /* \"#utility.yul\":30336:30340   */\n      0x20\n        /* \"#utility.yul\":30329:30334   */\n      dup7\n        /* \"#utility.yul\":30325:30341   */\n      add\n        /* \"#utility.yul\":30303:30355   */\n      tag_317\n      jump\t// in\n    tag_648:\n        /* \"#utility.yul\":30380:30409   */\n      tag_649\n        /* \"#utility.yul\":30402:30408   */\n      dup2\n        /* \"#utility.yul\":30380:30409   */\n      tag_318\n      jump\t// in\n    tag_649:\n        /* \"#utility.yul\":30375:30378   */\n      dup5\n        /* \"#utility.yul\":30371:30410   */\n      add\n        /* \"#utility.yul\":30364:30410   */\n      swap2\n      pop\n        /* \"#utility.yul\":30146:30416   */\n      pop\n        /* \"#utility.yul\":30056:30416   */\n      swap3\n      swap2\n      pop\n      pop\n      jump\t// out\n        /* \"#utility.yul\":30422:31062   */\n    tag_289:\n        /* \"#utility.yul\":30617:30621   */\n      0x00\n        /* \"#utility.yul\":30655:30658   */\n      0x80\n        /* \"#utility.yul\":30644:30653   */\n      dup3\n        /* \"#utility.yul\":30640:30659   */\n      add\n        /* \"#utility.yul\":30632:30659   */\n      swap1\n      pop\n        /* \"#utility.yul\":30669:30740   */\n      tag_651\n        /* \"#utility.yul\":30737:30738   */\n      0x00\n        /* \"#utility.yul\":30726:30735   */\n      dup4\n        /* \"#utility.yul\":30722:30739   */\n      add\n        /* \"#utility.yul\":30713:30719   */\n      dup8\n        /* \"#utility.yul\":30669:30740   */\n      tag_328\n      jump\t// in\n    tag_651:\n        /* \"#utility.yul\":30750:30822   */\n      tag_652\n        /* \"#utility.yul\":30818:30820   */\n      0x20\n        /* \"#utility.yul\":30807:30816   */\n      dup4\n        /* \"#utility.yul\":30803:30821   */\n      add\n        /* \"#utility.yul\":30794:30800   */\n      dup7\n        /* \"#utility.yul\":30750:30822   */\n      tag_328\n      jump\t// in\n    tag_652:\n        /* \"#utility.yul\":30832:30904   */\n      tag_653\n        /* \"#utility.yul\":30900:30902   */\n      0x40\n        /* \"#utility.yul\":30889:30898   */\n      dup4\n        /* \"#utility.yul\":30885:30903   */\n      add\n        /* \"#utility.yul\":30876:30882   */\n      dup6\n        /* \"#utility.yul\":30832:30904   */\n      tag_339\n      jump\t// in\n    tag_653:\n        /* \"#utility.yul\":30951:30960   */\n      dup2\n        /* \"#utility.yul\":30945:30949   */\n      dup2\n        /* \"#utility.yul\":30941:30961   */\n      sub\n        /* \"#utility.yul\":30936:30938   */\n      0x60\n        /* \"#utility.yul\":30925:30934   */\n      dup4\n        /* \"#utility.yul\":30921:30939   */\n      add\n        /* \"#utility.yul\":30914:30962   */\n      mstore\n        /* \"#utility.yul\":30979:31055   */\n      tag_654\n        /* \"#utility.yul\":31050:31054   */\n      dup2\n        /* \"#utility.yul\":31041:31047   */\n      dup5\n        /* \"#utility.yul\":30979:31055   */\n      tag_383\n      jump\t// in\n    tag_654:\n        /* \"#utility.yul\":30971:31055   */\n      swap1\n      pop\n        /* \"#utility.yul\":30422:31062   */\n      swap6\n      swap5\n      pop\n      pop\n      pop\n      pop\n      pop\n      jump\t// out\n        /* \"#utility.yul\":31068:31217   */\n    tag_384:\n        /* \"#utility.yul\":31104:31111   */\n      0x00\n        /* \"#utility.yul\":31144:31210   */\n      0xffffffff00000000000000000000000000000000000000000000000000000000\n        /* \"#utility.yul\":31137:31142   */\n      dup3\n        /* \"#utility.yul\":31133:31211   */\n      and\n        /* \"#utility.yul\":31122:31211   */\n      swap1\n      pop\n        /* \"#utility.yul\":31068:31217   */\n      swap2\n      swap1\n      pop\n      jump\t// out\n        /* \"#utility.yul\":31223:31343   */\n    tag_385:\n        /* \"#utility.yul\":31295:31318   */\n      tag_657\n        /* \"#utility.yul\":31312:31317   */\n      dup2\n        /* \"#utility.yul\":31295:31318   */\n      tag_384\n      jump\t// in\n    tag_657:\n        /* \"#utility.yul\":31288:31293   */\n      dup2\n        /* \"#utility.yul\":31285:31319   */\n      eq\n        /* \"#utility.yul\":31275:31337   */\n      tag_658\n      jumpi\n        /* \"#utility.yul\":31333:31334   */\n      0x00\n        /* \"#utility.yul\":31330:31331   */\n      dup1\n        /* \"#utility.yul\":31323:31335   */\n      revert\n        /* \"#utility.yul\":31275:31337   */\n    tag_658:\n        /* \"#utility.yul\":31223:31343   */\n      pop\n      jump\t// out\n        /* \"#utility.yul\":31349:31490   */\n    tag_386:\n        /* \"#utility.yul\":31405:31410   */\n      0x00\n        /* \"#utility.yul\":31436:31442   */\n      dup2\n        /* \"#utility.yul\":31430:31443   */\n      mload\n        /* \"#utility.yul\":31421:31443   */\n      swap1\n      pop\n        /* \"#utility.yul\":31452:31484   */\n      tag_660\n        /* \"#utility.yul\":31478:31483   */\n      dup2\n        /* \"#utility.yul\":31452:31484   */\n      tag_385\n      jump\t// in\n    tag_660:\n        /* \"#utility.yul\":31349:31490   */\n      swap3\n      swap2\n      pop\n      pop\n      jump\t// out\n        /* \"#utility.yul\":31496:31845   */\n    tag_292:\n        /* \"#utility.yul\":31565:31571   */\n      0x00\n        /* \"#utility.yul\":31614:31616   */\n      0x20\n        /* \"#utility.yul\":31602:31611   */\n      dup3\n        /* \"#utility.yul\":31593:31600   */\n      dup5\n        /* \"#utility.yul\":31589:31612   */\n      sub\n        /* \"#utility.yul\":31585:31617   */\n      slt\n        /* \"#utility.yul\":31582:31701   */\n      iszero\n      tag_662\n      jumpi\n        /* \"#utility.yul\":31620:31699   */\n      tag_663\n      tag_321\n      jump\t// in\n    tag_663:\n        /* \"#utility.yul\":31582:31701   */\n    tag_662:\n        /* \"#utility.yul\":31740:31741   */\n      0x00\n        /* \"#utility.yul\":31765:31828   */\n      tag_664\n        /* \"#utility.yul\":31820:31827   */\n      dup5\n        /* \"#utility.yul\":31811:31817   */\n      dup3\n        /* \"#utility.yul\":31800:31809   */\n      dup6\n        /* \"#utility.yul\":31796:31818   */\n      add\n        /* \"#utility.yul\":31765:31828   */\n      tag_386\n      jump\t// in\n    tag_664:\n        /* \"#utility.yul\":31755:31828   */\n      swap2\n      pop\n        /* \"#utility.yul\":31711:31838   */\n      pop\n        /* \"#utility.yul\":31496:31845   */\n      swap3\n      swap2\n      pop\n      pop\n      jump\t// out\n\n    auxdata: 0xa26469706673582212203a2abe374dda97532238a9a205214e8674c499ebb5eb4db27725128f84c2a69a64736f6c634300080d0033\n}\n",
				"bytecode": {
					"linkReferences": {},
					"object": "60806040526001600a553480156200001657600080fd5b506040518060400160405280600781526020017f5351464954454d000000000000000000000000000000000000000000000000008152506040518060400160405280600481526020017f5351464900000000000000000000000000000000000000000000000000000000815250620000a362000097620000dd60201b60201c565b620000e560201b60201c565b8160069080519060200190620000bb929190620001a9565b508060079080519060200190620000d4929190620001a9565b505050620002bd565b600033905090565b60008060009054906101000a900473ffffffffffffffffffffffffffffffffffffffff169050816000806101000a81548173ffffffffffffffffffffffffffffffffffffffff021916908373ffffffffffffffffffffffffffffffffffffffff1602179055508173ffffffffffffffffffffffffffffffffffffffff168173ffffffffffffffffffffffffffffffffffffffff167f8be0079c531659141344cd1fd0a4f28419497f9722a3daafe3b4186f6b6457e060405160405180910390a35050565b828054620001b79062000288565b90600052602060002090601f016020900481019282620001db576000855562000227565b82601f10620001f657805160ff191683800117855562000227565b8280016001018555821562000227579182015b828111156200022657825182559160200191906001019062000209565b5b5090506200023691906200023a565b5090565b5b80821115620002555760008160009055506001016200023b565b5090565b7f4e487b7100000000000000000000000000000000000000000000000000000000600052602260045260246000fd5b60006002820490506001821680620002a157607f821691505b602082108103620002b757620002b662000259565b5b50919050565b612b0d80620002cd6000396000f3fe608060405234801561001057600080fd5b50600436106101005760003560e01c8063659b3c431161009757806395d89b411161006657806395d89b4114610285578063b88d4fde146102a3578063c87b56dd146102bf578063f2fde38b146102ef57610100565b8063659b3c431461021157806370a082311461022d578063715018a61461025d5780638da5cb5b1461026757610100565b806342842e0e116100d357806342842e0e1461018b57806355f804b3146101a757806361b8ce8c146101c35780636352211e146101e157610100565b806306fdde0314610105578063081812fc14610123578063095ea7b31461015357806323b872dd1461016f575b600080fd5b61010d61030b565b60405161011a9190611993565b60405180910390f35b61013d600480360381019061013891906119ff565b61039d565b60405161014a9190611a6d565b60405180910390f35b61016d60048036038101906101689190611ab4565b610422565b005b61018960048036038101906101849190611af4565b610521565b005b6101a560048036038101906101a09190611af4565b610581565b005b6101c160048036038101906101bc9190611c7c565b6105a1565b005b6101cb610637565b6040516101d89190611cd4565b60405180910390f35b6101fb60048036038101906101f691906119ff565b61063d565b6040516102089190611a6d565b60405180910390f35b61022b60048036038101906102269190611c7c565b6106ee565b005b61024760048036038101906102429190611cef565b61079c565b6040516102549190611cd4565b60405180910390f35b610265610853565b005b61026f6108db565b60405161027c9190611a6d565b60405180910390f35b61028d610904565b60405161029a9190611993565b60405180910390f35b6102bd60048036038101906102b89190611dbd565b610996565b005b6102d960048036038101906102d491906119ff565b6109f8565b6040516102e69190611993565b60405180910390f35b61030960048036038101906103049190611cef565b610b6a565b005b60606006805461031a90611e6f565b80601f016020809104026020016040519081016040528092919081815260200182805461034690611e6f565b80156103935780601f1061036857610100808354040283529160200191610393565b820191906000526020600020905b81548152906001019060200180831161037657829003601f168201915b5050505050905090565b60006103a882610c61565b6103e7576040517f08c379a00000000000000000000000000000000000000000000000000000000081526004016103de90611f12565b60405180910390fd5b6004600083815260200190815260200160002060009054906101000a900473ffffffffffffffffffffffffffffffffffffffff169050919050565b600061042d8261063d565b90508073ffffffffffffffffffffffffffffffffffffffff168373ffffffffffffffffffffffffffffffffffffffff160361049d576040517f08c379a000000000000000000000000000000000000000000000000000000000815260040161049490611fa4565b60405180910390fd5b8073ffffffffffffffffffffffffffffffffffffffff166104bc610ccd565b73ffffffffffffffffffffffffffffffffffffffff1614610512576040517f08c379a000000000000000000000000000000000000000000000000000000000815260040161050990612036565b60405180910390fd5b61051c8383610cd5565b505050565b61053261052c610ccd565b82610d8e565b610571576040517f08c379a0000000000000000000000000000000000000000000000000000000008152600401610568906120c8565b60405180910390fd5b61057c838383610e5b565b505050565b61059c83838360405180602001604052806000815250610996565b505050565b6105a9610ccd565b73ffffffffffffffffffffffffffffffffffffffff166105c76108db565b73ffffffffffffffffffffffffffffffffffffffff161461061d576040517f08c379a000000000000000000000000000000000000000000000000000000000815260040161061490612134565b60405180910390fd5b8060099080519060200190610633929190611857565b5050565b600a5481565b6000806002600084815260200190815260200160002060009054906101000a900473ffffffffffffffffffffffffffffffffffffffff169050600073ffffffffffffffffffffffffffffffffffffffff168173ffffffffffffffffffffffffffffffffffffffff16036106e5576040517f08c379a00000000000000000000000000000000000000000000000000000000081526004016106dc906121c6565b60405180910390fd5b80915050919050565b6106f6610ccd565b73ffffffffffffffffffffffffffffffffffffffff166107146108db565b73ffffffffffffffffffffffffffffffffffffffff161461076a576040517f08c379a000000000000000000000000000000000000000000000000000000000815260040161076190612134565b60405180910390fd5b610775600a546110bf565b610781600a548261127c565b600a600081548092919061079490612215565b919050555050565b60008073ffffffffffffffffffffffffffffffffffffffff168273ffffffffffffffffffffffffffffffffffffffff160361080c576040517f08c379a0000000000000000000000000000000000000000000000000000000008152600401610803906122cf565b60405180910390fd5b600160008373ffffffffffffffffffffffffffffffffffffffff1673ffffffffffffffffffffffffffffffffffffffff168152602001908152602001600020549050919050565b61085b610ccd565b73ffffffffffffffffffffffffffffffffffffffff166108796108db565b73ffffffffffffffffffffffffffffffffffffffff16146108cf576040517f08c379a00000000000000000000000000000000000000000000000000000000081526004016108c690612134565b60405180910390fd5b6108d960006112f0565b565b60008060009054906101000a900473ffffffffffffffffffffffffffffffffffffffff16905090565b60606007805461091390611e6f565b80601f016020809104026020016040519081016040528092919081815260200182805461093f90611e6f565b801561098c5780601f106109615761010080835404028352916020019161098c565b820191906000526020600020905b81548152906001019060200180831161096f57829003601f168201915b5050505050905090565b6109a76109a1610ccd565b83610d8e565b6109e6576040517f08c379a00000000000000000000000000000000000000000000000000000000081526004016109dd906120c8565b60405180910390fd5b6109f2848484846113b4565b50505050565b6060610a0382610c61565b610a42576040517f08c379a0000000000000000000000000000000000000000000000000000000008152600401610a3990612361565b60405180910390fd5b6000600c60008481526020019081526020016000208054610a6290611e6f565b80601f0160208091040260200160405190810160405280929190818152602001828054610a8e90611e6f565b8015610adb5780601f10610ab057610100808354040283529160200191610adb565b820191906000526020600020905b815481529060010190602001808311610abe57829003601f168201915b505050505090506000610aec611410565b90506000815103610b01578192505050610b65565b600082511115610b36578082604051602001610b1e9291906123bd565b60405160208183030381529060405292505050610b65565b80610b40856114a2565b604051602001610b519291906123bd565b604051602081830303815290604052925050505b919050565b610b72610ccd565b73ffffffffffffffffffffffffffffffffffffffff16610b906108db565b73ffffffffffffffffffffffffffffffffffffffff1614610be6576040517f08c379a0000000000000000000000000000000000000000000000000000000008152600401610bdd90612134565b60405180910390fd5b600073ffffffffffffffffffffffffffffffffffffffff168173ffffffffffffffffffffffffffffffffffffffff1603610c55576040517f08c379a0000000000000000000000000000000000000000000000000000000008152600401610c4c90612453565b60405180910390fd5b610c5e816112f0565b50565b60008073ffffffffffffffffffffffffffffffffffffffff166002600084815260200190815260200160002060009054906101000a900473ffffffffffffffffffffffffffffffffffffffff1673ffffffffffffffffffffffffffffffffffffffff1614159050919050565b600033905090565b816004600083815260200190815260200160002060006101000a81548173ffffffffffffffffffffffffffffffffffffffff021916908373ffffffffffffffffffffffffffffffffffffffff160217905550808273ffffffffffffffffffffffffffffffffffffffff16610d488361063d565b73ffffffffffffffffffffffffffffffffffffffff167f8c5be1e5ebec7d5bd14f71427d1e84f3dd0314c0f7b2291e5b200ac8c7c3b92560405160405180910390a45050565b6000610d9982610c61565b610dd8576040517f08c379a0000000000000000000000000000000000000000000000000000000008152600401610dcf906124e5565b60405180910390fd5b6000610de38361063d565b90508073ffffffffffffffffffffffffffffffffffffffff168473ffffffffffffffffffffffffffffffffffffffff161480610e5257508373ffffffffffffffffffffffffffffffffffffffff16610e3a8461039d565b73ffffffffffffffffffffffffffffffffffffffff16145b91505092915050565b8273ffffffffffffffffffffffffffffffffffffffff16610e7b8261063d565b73ffffffffffffffffffffffffffffffffffffffff1614610ed1576040517f08c379a0000000000000000000000000000000000000000000000000000000008152600401610ec890612577565b60405180910390fd5b600073ffffffffffffffffffffffffffffffffffffffff168273ffffffffffffffffffffffffffffffffffffffff1603610f40576040517f08c379a0000000000000000000000000000000000000000000000000000000008152600401610f3790612609565b60405180910390fd5b610f4b838383611602565b610f56600082610cd5565b60018060008573ffffffffffffffffffffffffffffffffffffffff1673ffffffffffffffffffffffffffffffffffffffff1681526020019081526020016000206000828254610fa59190612629565b9250508190555060018060008473ffffffffffffffffffffffffffffffffffffffff1673ffffffffffffffffffffffffffffffffffffffff1681526020019081526020016000206000828254610ffb919061265d565b92505081905550816002600083815260200190815260200160002060006101000a81548173ffffffffffffffffffffffffffffffffffffffff021916908373ffffffffffffffffffffffffffffffffffffffff160217905550808273ffffffffffffffffffffffffffffffffffffffff168473ffffffffffffffffffffffffffffffffffffffff167fddf252ad1be2c89b69c2b068fc378daa952ba7f163c4a11628f55a4df523b3ef60405160405180910390a46110ba8383836116a8565b505050565b6110c881610c61565b15611108576040517f08c379a00000000000000000000000000000000000000000000000000000000081526004016110ff906126ff565b60405180910390fd5b60018060003373ffffffffffffffffffffffffffffffffffffffff1673ffffffffffffffffffffffffffffffffffffffff1681526020019081526020016000206000828254611157919061265d565b92505081905550336002600083815260200190815260200160002060006101000a81548173ffffffffffffffffffffffffffffffffffffffff021916908373ffffffffffffffffffffffffffffffffffffffff160217905550803373ffffffffffffffffffffffffffffffffffffffff163073ffffffffffffffffffffffffffffffffffffffff16638da5cb5b6040518163ffffffff1660e01b8152600401602060405180830381865afa158015611213573d6000803e3d6000fd5b505050506040513d601f19601f820116820180604052508101906112379190612734565b73ffffffffffffffffffffffffffffffffffffffff167fddf252ad1be2c89b69c2b068fc378daa952ba7f163c4a11628f55a4df523b3ef60405160405180910390a450565b61128582610c61565b6112c4576040517f08c379a00000000000000000000000000000000000000000000000000000000081526004016112bb906127d3565b60405180910390fd5b80600c600084815260200190815260200160002090805190602001906112eb929190611857565b505050565b60008060009054906101000a900473ffffffffffffffffffffffffffffffffffffffff169050816000806101000a81548173ffffffffffffffffffffffffffffffffffffffff021916908373ffffffffffffffffffffffffffffffffffffffff1602179055508173ffffffffffffffffffffffffffffffffffffffff168173ffffffffffffffffffffffffffffffffffffffff167f8be0079c531659141344cd1fd0a4f28419497f9722a3daafe3b4186f6b6457e060405160405180910390a35050565b6113bf848484610e5b565b6113cb848484846116ad565b61140a576040517f08c379a000000000000000000000000000000000000000000000000000000000815260040161140190612865565b60405180910390fd5b50505050565b60606009805461141f90611e6f565b80601f016020809104026020016040519081016040528092919081815260200182805461144b90611e6f565b80156114985780601f1061146d57610100808354040283529160200191611498565b820191906000526020600020905b81548152906001019060200180831161147b57829003601f168201915b5050505050905090565b6060600082036114e9576040518060400160405280600181526020017f300000000000000000000000000000000000000000000000000000000000000081525090506115fd565b600082905060005b6000821461151b57808061150490612215565b915050600a8261151491906128b4565b91506114f1565b60008167ffffffffffffffff81111561153757611536611b51565b5b6040519080825280601f01601f1916602001820160405280156115695781602001600182028036833780820191505090505b5090505b600085146115f6576001826115829190612629565b9150600a8561159191906128e5565b603061159d919061265d565b60f81b8183815181106115b3576115b2612916565b5b60200101907effffffffffffffffffffffffffffffffffffffffffffffffffffffffffffff1916908160001a905350600a856115ef91906128b4565b945061156d565b8093505050505b919050565b8273ffffffffffffffffffffffffffffffffffffffff166002600083815260200190815260200160002060009054906101000a900473ffffffffffffffffffffffffffffffffffffffff1673ffffffffffffffffffffffffffffffffffffffff16146116a3576040517f08c379a000000000000000000000000000000000000000000000000000000000815260040161169a90612991565b60405180910390fd5b505050565b505050565b60006116ce8473ffffffffffffffffffffffffffffffffffffffff16611834565b15611827578373ffffffffffffffffffffffffffffffffffffffff1663150b7a026116f7610ccd565b8786866040518563ffffffff1660e01b81526004016117199493929190612a06565b6020604051808303816000875af192505050801561175557506040513d601f19601f820116820180604052508101906117529190612aaa565b60015b6117d7573d8060008114611785576040519150601f19603f3d011682016040523d82523d6000602084013e61178a565b606091505b5060008151036117cf576040517f08c379a00000000000000000000000000000000000000000000000000000000081526004016117c690612865565b60405180910390fd5b805181602001fd5b63150b7a0260e01b7bffffffffffffffffffffffffffffffffffffffffffffffffffffffff1916817bffffffffffffffffffffffffffffffffffffffffffffffffffffffff19161491505061182c565b600190505b949350505050565b6000808273ffffffffffffffffffffffffffffffffffffffff163b119050919050565b82805461186390611e6f565b90600052602060002090601f01602090048101928261188557600085556118cc565b82601f1061189e57805160ff19168380011785556118cc565b828001600101855582156118cc579182015b828111156118cb5782518255916020019190600101906118b0565b5b5090506118d991906118dd565b5090565b5b808211156118f65760008160009055506001016118de565b5090565b600081519050919050565b600082825260208201905092915050565b60005b83811015611934578082015181840152602081019050611919565b83811115611943576000848401525b50505050565b6000601f19601f8301169050919050565b6000611965826118fa565b61196f8185611905565b935061197f818560208601611916565b61198881611949565b840191505092915050565b600060208201905081810360008301526119ad818461195a565b905092915050565b6000604051905090565b600080fd5b600080fd5b6000819050919050565b6119dc816119c9565b81146119e757600080fd5b50565b6000813590506119f9816119d3565b92915050565b600060208284031215611a1557611a146119bf565b5b6000611a23848285016119ea565b91505092915050565b600073ffffffffffffffffffffffffffffffffffffffff82169050919050565b6000611a5782611a2c565b9050919050565b611a6781611a4c565b82525050565b6000602082019050611a826000830184611a5e565b92915050565b611a9181611a4c565b8114611a9c57600080fd5b50565b600081359050611aae81611a88565b92915050565b60008060408385031215611acb57611aca6119bf565b5b6000611ad985828601611a9f565b9250506020611aea858286016119ea565b9150509250929050565b600080600060608486031215611b0d57611b0c6119bf565b5b6000611b1b86828701611a9f565b9350506020611b2c86828701611a9f565b9250506040611b3d868287016119ea565b9150509250925092565b600080fd5b600080fd5b7f4e487b7100000000000000000000000000000000000000000000000000000000600052604160045260246000fd5b611b8982611949565b810181811067ffffffffffffffff82111715611ba857611ba7611b51565b5b80604052505050565b6000611bbb6119b5565b9050611bc78282611b80565b919050565b600067ffffffffffffffff821115611be757611be6611b51565b5b611bf082611949565b9050602081019050919050565b82818337600083830152505050565b6000611c1f611c1a84611bcc565b611bb1565b905082815260208101848484011115611c3b57611c3a611b4c565b5b611c46848285611bfd565b509392505050565b600082601f830112611c6357611c62611b47565b5b8135611c73848260208601611c0c565b91505092915050565b600060208284031215611c9257611c916119bf565b5b600082013567ffffffffffffffff811115611cb057611caf6119c4565b5b611cbc84828501611c4e565b91505092915050565b611cce816119c9565b82525050565b6000602082019050611ce96000830184611cc5565b92915050565b600060208284031215611d0557611d046119bf565b5b6000611d1384828501611a9f565b91505092915050565b600067ffffffffffffffff821115611d3757611d36611b51565b5b611d4082611949565b9050602081019050919050565b6000611d60611d5b84611d1c565b611bb1565b905082815260208101848484011115611d7c57611d7b611b4c565b5b611d87848285611bfd565b509392505050565b600082601f830112611da457611da3611b47565b5b8135611db4848260208601611d4d565b91505092915050565b60008060008060808587031215611dd757611dd66119bf565b5b6000611de587828801611a9f565b9450506020611df687828801611a9f565b9350506040611e07878288016119ea565b925050606085013567ffffffffffffffff811115611e2857611e276119c4565b5b611e3487828801611d8f565b91505092959194509250565b7f4e487b7100000000000000000000000000000000000000000000000000000000600052602260045260246000fd5b60006002820490506001821680611e8757607f821691505b602082108103611e9a57611e99611e40565b5b50919050565b7f4552433732313a20617070726f76656420717565727920666f72206e6f6e657860008201527f697374656e7420746f6b656e0000000000000000000000000000000000000000602082015250565b6000611efc602c83611905565b9150611f0782611ea0565b604082019050919050565b60006020820190508181036000830152611f2b81611eef565b9050919050565b7f4552433732313a20617070726f76616c20746f2063757272656e74206f776e6560008201527f7200000000000000000000000000000000000000000000000000000000000000602082015250565b6000611f8e602183611905565b9150611f9982611f32565b604082019050919050565b60006020820190508181036000830152611fbd81611f81565b9050919050565b7f4552433732313a20617070726f76652063616c6c6572206973206e6f74206f7760008201527f6e6572206e6f7220617070726f76656420666f7220616c6c0000000000000000602082015250565b6000612020603883611905565b915061202b82611fc4565b604082019050919050565b6000602082019050818103600083015261204f81612013565b9050919050565b7f4552433732313a207472616e736665722063616c6c6572206973206e6f74206f60008201527f776e6572206e6f7220617070726f766564000000000000000000000000000000602082015250565b60006120b2603183611905565b91506120bd82612056565b604082019050919050565b600060208201905081810360008301526120e1816120a5565b9050919050565b7f4f776e61626c653a2063616c6c6572206973206e6f7420746865206f776e6572600082015250565b600061211e602083611905565b9150612129826120e8565b602082019050919050565b6000602082019050818103600083015261214d81612111565b9050919050565b7f4552433732313a206f776e657220717565727920666f72206e6f6e657869737460008201527f656e7420746f6b656e0000000000000000000000000000000000000000000000602082015250565b60006121b0602983611905565b91506121bb82612154565b604082019050919050565b600060208201905081810360008301526121df816121a3565b9050919050565b7f4e487b7100000000000000000000000000000000000000000000000000000000600052601160045260246000fd5b6000612220826119c9565b91507fffffffffffffffffffffffffffffffffffffffffffffffffffffffffffffffff8203612252576122516121e6565b5b600182019050919050565b7f4552433732313a2062616c616e636520717565727920666f7220746865207a6560008201527f726f206164647265737300000000000000000000000000000000000000000000602082015250565b60006122b9602a83611905565b91506122c48261225d565b604082019050919050565b600060208201905081810360008301526122e8816122ac565b9050919050565b7f4552433732314d657461646174613a2055524920717565727920666f72206e6f60008201527f6e6578697374656e7420746f6b656e0000000000000000000000000000000000602082015250565b600061234b602f83611905565b9150612356826122ef565b604082019050919050565b6000602082019050818103600083015261237a8161233e565b9050919050565b600081905092915050565b6000612397826118fa565b6123a18185612381565b93506123b1818560208601611916565b80840191505092915050565b60006123c9828561238c565b91506123d5828461238c565b91508190509392505050565b7f4f776e61626c653a206e6577206f776e657220697320746865207a65726f206160008201527f6464726573730000000000000000000000000000000000000000000000000000602082015250565b600061243d602683611905565b9150612448826123e1565b604082019050919050565b6000602082019050818103600083015261246c81612430565b9050919050565b7f4552433732313a206f70657261746f7220717565727920666f72206e6f6e657860008201527f697374656e7420746f6b656e0000000000000000000000000000000000000000602082015250565b60006124cf602c83611905565b91506124da82612473565b604082019050919050565b600060208201905081810360008301526124fe816124c2565b9050919050565b7f4552433732313a207472616e736665722066726f6d20696e636f72726563742060008201527f6f776e6572000000000000000000000000000000000000000000000000000000602082015250565b6000612561602583611905565b915061256c82612505565b604082019050919050565b6000602082019050818103600083015261259081612554565b9050919050565b7f4552433732313a207472616e7366657220746f20746865207a65726f2061646460008201527f7265737300000000000000000000000000000000000000000000000000000000602082015250565b60006125f3602483611905565b91506125fe82612597565b604082019050919050565b60006020820190508181036000830152612622816125e6565b9050919050565b6000612634826119c9565b915061263f836119c9565b925082821015612652576126516121e6565b5b828203905092915050565b6000612668826119c9565b9150612673836119c9565b9250827fffffffffffffffffffffffffffffffffffffffffffffffffffffffffffffffff038211156126a8576126a76121e6565b5b828201905092915050565b7f4552433732313a20746f6b656e20616c7265616479206d696e74656400000000600082015250565b60006126e9601c83611905565b91506126f4826126b3565b602082019050919050565b60006020820190508181036000830152612718816126dc565b9050919050565b60008151905061272e81611a88565b92915050565b60006020828403121561274a576127496119bf565b5b60006127588482850161271f565b91505092915050565b7f4552433732314d657461646174613a2055524920736574206f66206e6f6e657860008201527f697374656e7420746f6b656e0000000000000000000000000000000000000000602082015250565b60006127bd602c83611905565b91506127c882612761565b604082019050919050565b600060208201905081810360008301526127ec816127b0565b9050919050565b7f4552433732313a207472616e7366657220746f206e6f6e20455243373231526560008201527f63656976657220696d706c656d656e7465720000000000000000000000000000602082015250565b600061284f603283611905565b915061285a826127f3565b604082019050919050565b6000602082019050818103600083015261287e81612842565b9050919050565b7f4e487b7100000000000000000000000000000000000000000000000000000000600052601260045260246000fd5b60006128bf826119c9565b91506128ca836119c9565b9250826128da576128d9612885565b5b828204905092915050565b60006128f0826119c9565b91506128fb836119c9565b92508261290b5761290a612885565b5b828206905092915050565b7f4e487b7100000000000000000000000000000000000000000000000000000000600052603260045260246000fd5b7f4552433732313a207472616e73666572206e6f74206f776e657220746f6b656e600082015250565b600061297b602083611905565b915061298682612945565b602082019050919050565b600060208201905081810360008301526129aa8161296e565b9050919050565b600081519050919050565b600082825260208201905092915050565b60006129d8826129b1565b6129e281856129bc565b93506129f2818560208601611916565b6129fb81611949565b840191505092915050565b6000608082019050612a1b6000830187611a5e565b612a286020830186611a5e565b612a356040830185611cc5565b8181036060830152612a4781846129cd565b905095945050505050565b60007fffffffff0000000000000000000000000000000000000000000000000000000082169050919050565b612a8781612a52565b8114612a9257600080fd5b50565b600081519050612aa481612a7e565b92915050565b600060208284031215612ac057612abf6119bf565b5b6000612ace84828501612a95565b9150509291505056fea26469706673582212203a2abe374dda97532238a9a205214e8674c499ebb5eb4db27725128f84c2a69a64736f6c634300080d0033",
					"opcodes": "PUSH1 0x80 PUSH1 0x40 MSTORE PUSH1 0x1 PUSH1 0xA SSTORE CALLVALUE DUP1 ISZERO PUSH3 0x16 JUMPI PUSH1 0x0 DUP1 REVERT JUMPDEST POP PUSH1 0x40 MLOAD DUP1 PUSH1 0x40 ADD PUSH1 0x40 MSTORE DUP1 PUSH1 0x7 DUP2 MSTORE PUSH1 0x20 ADD PUSH32 0x5351464954454D00000000000000000000000000000000000000000000000000 DUP2 MSTORE POP PUSH1 0x40 MLOAD DUP1 PUSH1 0x40 ADD PUSH1 0x40 MSTORE DUP1 PUSH1 0x4 DUP2 MSTORE PUSH1 0x20 ADD PUSH32 0x5351464900000000000000000000000000000000000000000000000000000000 DUP2 MSTORE POP PUSH3 0xA3 PUSH3 0x97 PUSH3 0xDD PUSH1 0x20 SHL PUSH1 0x20 SHR JUMP JUMPDEST PUSH3 0xE5 PUSH1 0x20 SHL PUSH1 0x20 SHR JUMP JUMPDEST DUP2 PUSH1 0x6 SWAP1 DUP1 MLOAD SWAP1 PUSH1 0x20 ADD SWAP1 PUSH3 0xBB SWAP3 SWAP2 SWAP1 PUSH3 0x1A9 JUMP JUMPDEST POP DUP1 PUSH1 0x7 SWAP1 DUP1 MLOAD SWAP1 PUSH1 0x20 ADD SWAP1 PUSH3 0xD4 SWAP3 SWAP2 SWAP1 PUSH3 0x1A9 JUMP JUMPDEST POP POP POP PUSH3 0x2BD JUMP JUMPDEST PUSH1 0x0 CALLER SWAP1 POP SWAP1 JUMP JUMPDEST PUSH1 0x0 DUP1 PUSH1 0x0 SWAP1 SLOAD SWAP1 PUSH2 0x100 EXP SWAP1 DIV PUSH20 0xFFFFFFFFFFFFFFFFFFFFFFFFFFFFFFFFFFFFFFFF AND SWAP1 POP DUP2 PUSH1 0x0 DUP1 PUSH2 0x100 EXP DUP2 SLOAD DUP2 PUSH20 0xFFFFFFFFFFFFFFFFFFFFFFFFFFFFFFFFFFFFFFFF MUL NOT AND SWAP1 DUP4 PUSH20 0xFFFFFFFFFFFFFFFFFFFFFFFFFFFFFFFFFFFFFFFF AND MUL OR SWAP1 SSTORE POP DUP2 PUSH20 0xFFFFFFFFFFFFFFFFFFFFFFFFFFFFFFFFFFFFFFFF AND DUP2 PUSH20 0xFFFFFFFFFFFFFFFFFFFFFFFFFFFFFFFFFFFFFFFF AND PUSH32 0x8BE0079C531659141344CD1FD0A4F28419497F9722A3DAAFE3B4186F6B6457E0 PUSH1 0x40 MLOAD PUSH1 0x40 MLOAD DUP1 SWAP2 SUB SWAP1 LOG3 POP POP JUMP JUMPDEST DUP3 DUP1 SLOAD PUSH3 0x1B7 SWAP1 PUSH3 0x288 JUMP JUMPDEST SWAP1 PUSH1 0x0 MSTORE PUSH1 0x20 PUSH1 0x0 KECCAK256 SWAP1 PUSH1 0x1F ADD PUSH1 0x20 SWAP1 DIV DUP2 ADD SWAP3 DUP3 PUSH3 0x1DB JUMPI PUSH1 0x0 DUP6 SSTORE PUSH3 0x227 JUMP JUMPDEST DUP3 PUSH1 0x1F LT PUSH3 0x1F6 JUMPI DUP1 MLOAD PUSH1 0xFF NOT AND DUP4 DUP1 ADD OR DUP6 SSTORE PUSH3 0x227 JUMP JUMPDEST DUP3 DUP1 ADD PUSH1 0x1 ADD DUP6 SSTORE DUP3 ISZERO PUSH3 0x227 JUMPI SWAP2 DUP3 ADD JUMPDEST DUP3 DUP2 GT ISZERO PUSH3 0x226 JUMPI DUP3 MLOAD DUP3 SSTORE SWAP2 PUSH1 0x20 ADD SWAP2 SWAP1 PUSH1 0x1 ADD SWAP1 PUSH3 0x209 JUMP JUMPDEST JUMPDEST POP SWAP1 POP PUSH3 0x236 SWAP2 SWAP1 PUSH3 0x23A JUMP JUMPDEST POP SWAP1 JUMP JUMPDEST JUMPDEST DUP1 DUP3 GT ISZERO PUSH3 0x255 JUMPI PUSH1 0x0 DUP2 PUSH1 0x0 SWAP1 SSTORE POP PUSH1 0x1 ADD PUSH3 0x23B JUMP JUMPDEST POP SWAP1 JUMP JUMPDEST PUSH32 0x4E487B7100000000000000000000000000000000000000000000000000000000 PUSH1 0x0 MSTORE PUSH1 0x22 PUSH1 0x4 MSTORE PUSH1 0x24 PUSH1 0x0 REVERT JUMPDEST PUSH1 0x0 PUSH1 0x2 DUP3 DIV SWAP1 POP PUSH1 0x1 DUP3 AND DUP1 PUSH3 0x2A1 JUMPI PUSH1 0x7F DUP3 AND SWAP2 POP JUMPDEST PUSH1 0x20 DUP3 LT DUP2 SUB PUSH3 0x2B7 JUMPI PUSH3 0x2B6 PUSH3 0x259 JUMP JUMPDEST JUMPDEST POP SWAP2 SWAP1 POP JUMP JUMPDEST PUSH2 0x2B0D DUP1 PUSH3 0x2CD PUSH1 0x0 CODECOPY PUSH1 0x0 RETURN INVALID PUSH1 0x80 PUSH1 0x40 MSTORE CALLVALUE DUP1 ISZERO PUSH2 0x10 JUMPI PUSH1 0x0 DUP1 REVERT JUMPDEST POP PUSH1 0x4 CALLDATASIZE LT PUSH2 0x100 JUMPI PUSH1 0x0 CALLDATALOAD PUSH1 0xE0 SHR DUP1 PUSH4 0x659B3C43 GT PUSH2 0x97 JUMPI DUP1 PUSH4 0x95D89B41 GT PUSH2 0x66 JUMPI DUP1 PUSH4 0x95D89B41 EQ PUSH2 0x285 JUMPI DUP1 PUSH4 0xB88D4FDE EQ PUSH2 0x2A3 JUMPI DUP1 PUSH4 0xC87B56DD EQ PUSH2 0x2BF JUMPI DUP1 PUSH4 0xF2FDE38B EQ PUSH2 0x2EF JUMPI PUSH2 0x100 JUMP JUMPDEST DUP1 PUSH4 0x659B3C43 EQ PUSH2 0x211 JUMPI DUP1 PUSH4 0x70A08231 EQ PUSH2 0x22D JUMPI DUP1 PUSH4 0x715018A6 EQ PUSH2 0x25D JUMPI DUP1 PUSH4 0x8DA5CB5B EQ PUSH2 0x267 JUMPI PUSH2 0x100 JUMP JUMPDEST DUP1 PUSH4 0x42842E0E GT PUSH2 0xD3 JUMPI DUP1 PUSH4 0x42842E0E EQ PUSH2 0x18B JUMPI DUP1 PUSH4 0x55F804B3 EQ PUSH2 0x1A7 JUMPI DUP1 PUSH4 0x61B8CE8C EQ PUSH2 0x1C3 JUMPI DUP1 PUSH4 0x6352211E EQ PUSH2 0x1E1 JUMPI PUSH2 0x100 JUMP JUMPDEST DUP1 PUSH4 0x6FDDE03 EQ PUSH2 0x105 JUMPI DUP1 PUSH4 0x81812FC EQ PUSH2 0x123 JUMPI DUP1 PUSH4 0x95EA7B3 EQ PUSH2 0x153 JUMPI DUP1 PUSH4 0x23B872DD EQ PUSH2 0x16F JUMPI JUMPDEST PUSH1 0x0 DUP1 REVERT JUMPDEST PUSH2 0x10D PUSH2 0x30B JUMP JUMPDEST PUSH1 0x40 MLOAD PUSH2 0x11A SWAP2 SWAP1 PUSH2 0x1993 JUMP JUMPDEST PUSH1 0x40 MLOAD DUP1 SWAP2 SUB SWAP1 RETURN JUMPDEST PUSH2 0x13D PUSH1 0x4 DUP1 CALLDATASIZE SUB DUP2 ADD SWAP1 PUSH2 0x138 SWAP2 SWAP1 PUSH2 0x19FF JUMP JUMPDEST PUSH2 0x39D JUMP JUMPDEST PUSH1 0x40 MLOAD PUSH2 0x14A SWAP2 SWAP1 PUSH2 0x1A6D JUMP JUMPDEST PUSH1 0x40 MLOAD DUP1 SWAP2 SUB SWAP1 RETURN JUMPDEST PUSH2 0x16D PUSH1 0x4 DUP1 CALLDATASIZE SUB DUP2 ADD SWAP1 PUSH2 0x168 SWAP2 SWAP1 PUSH2 0x1AB4 JUMP JUMPDEST PUSH2 0x422 JUMP JUMPDEST STOP JUMPDEST PUSH2 0x189 PUSH1 0x4 DUP1 CALLDATASIZE SUB DUP2 ADD SWAP1 PUSH2 0x184 SWAP2 SWAP1 PUSH2 0x1AF4 JUMP JUMPDEST PUSH2 0x521 JUMP JUMPDEST STOP JUMPDEST PUSH2 0x1A5 PUSH1 0x4 DUP1 CALLDATASIZE SUB DUP2 ADD SWAP1 PUSH2 0x1A0 SWAP2 SWAP1 PUSH2 0x1AF4 JUMP JUMPDEST PUSH2 0x581 JUMP JUMPDEST STOP JUMPDEST PUSH2 0x1C1 PUSH1 0x4 DUP1 CALLDATASIZE SUB DUP2 ADD SWAP1 PUSH2 0x1BC SWAP2 SWAP1 PUSH2 0x1C7C JUMP JUMPDEST PUSH2 0x5A1 JUMP JUMPDEST STOP JUMPDEST PUSH2 0x1CB PUSH2 0x637 JUMP JUMPDEST PUSH1 0x40 MLOAD PUSH2 0x1D8 SWAP2 SWAP1 PUSH2 0x1CD4 JUMP JUMPDEST PUSH1 0x40 MLOAD DUP1 SWAP2 SUB SWAP1 RETURN JUMPDEST PUSH2 0x1FB PUSH1 0x4 DUP1 CALLDATASIZE SUB DUP2 ADD SWAP1 PUSH2 0x1F6 SWAP2 SWAP1 PUSH2 0x19FF JUMP JUMPDEST PUSH2 0x63D JUMP JUMPDEST PUSH1 0x40 MLOAD PUSH2 0x208 SWAP2 SWAP1 PUSH2 0x1A6D JUMP JUMPDEST PUSH1 0x40 MLOAD DUP1 SWAP2 SUB SWAP1 RETURN JUMPDEST PUSH2 0x22B PUSH1 0x4 DUP1 CALLDATASIZE SUB DUP2 ADD SWAP1 PUSH2 0x226 SWAP2 SWAP1 PUSH2 0x1C7C JUMP JUMPDEST PUSH2 0x6EE JUMP JUMPDEST STOP JUMPDEST PUSH2 0x247 PUSH1 0x4 DUP1 CALLDATASIZE SUB DUP2 ADD SWAP1 PUSH2 0x242 SWAP2 SWAP1 PUSH2 0x1CEF JUMP JUMPDEST PUSH2 0x79C JUMP JUMPDEST PUSH1 0x40 MLOAD PUSH2 0x254 SWAP2 SWAP1 PUSH2 0x1CD4 JUMP JUMPDEST PUSH1 0x40 MLOAD DUP1 SWAP2 SUB SWAP1 RETURN JUMPDEST PUSH2 0x265 PUSH2 0x853 JUMP JUMPDEST STOP JUMPDEST PUSH2 0x26F PUSH2 0x8DB JUMP JUMPDEST PUSH1 0x40 MLOAD PUSH2 0x27C SWAP2 SWAP1 PUSH2 0x1A6D JUMP JUMPDEST PUSH1 0x40 MLOAD DUP1 SWAP2 SUB SWAP1 RETURN JUMPDEST PUSH2 0x28D PUSH2 0x904 JUMP JUMPDEST PUSH1 0x40 MLOAD PUSH2 0x29A SWAP2 SWAP1 PUSH2 0x1993 JUMP JUMPDEST PUSH1 0x40 MLOAD DUP1 SWAP2 SUB SWAP1 RETURN JUMPDEST PUSH2 0x2BD PUSH1 0x4 DUP1 CALLDATASIZE SUB DUP2 ADD SWAP1 PUSH2 0x2B8 SWAP2 SWAP1 PUSH2 0x1DBD JUMP JUMPDEST PUSH2 0x996 JUMP JUMPDEST STOP JUMPDEST PUSH2 0x2D9 PUSH1 0x4 DUP1 CALLDATASIZE SUB DUP2 ADD SWAP1 PUSH2 0x2D4 SWAP2 SWAP1 PUSH2 0x19FF JUMP JUMPDEST PUSH2 0x9F8 JUMP JUMPDEST PUSH1 0x40 MLOAD PUSH2 0x2E6 SWAP2 SWAP1 PUSH2 0x1993 JUMP JUMPDEST PUSH1 0x40 MLOAD DUP1 SWAP2 SUB SWAP1 RETURN JUMPDEST PUSH2 0x309 PUSH1 0x4 DUP1 CALLDATASIZE SUB DUP2 ADD SWAP1 PUSH2 0x304 SWAP2 SWAP1 PUSH2 0x1CEF JUMP JUMPDEST PUSH2 0xB6A JUMP JUMPDEST STOP JUMPDEST PUSH1 0x60 PUSH1 0x6 DUP1 SLOAD PUSH2 0x31A SWAP1 PUSH2 0x1E6F JUMP JUMPDEST DUP1 PUSH1 0x1F ADD PUSH1 0x20 DUP1 SWAP2 DIV MUL PUSH1 0x20 ADD PUSH1 0x40 MLOAD SWAP1 DUP2 ADD PUSH1 0x40 MSTORE DUP1 SWAP3 SWAP2 SWAP1 DUP2 DUP2 MSTORE PUSH1 0x20 ADD DUP3 DUP1 SLOAD PUSH2 0x346 SWAP1 PUSH2 0x1E6F JUMP JUMPDEST DUP1 ISZERO PUSH2 0x393 JUMPI DUP1 PUSH1 0x1F LT PUSH2 0x368 JUMPI PUSH2 0x100 DUP1 DUP4 SLOAD DIV MUL DUP4 MSTORE SWAP2 PUSH1 0x20 ADD SWAP2 PUSH2 0x393 JUMP JUMPDEST DUP3 ADD SWAP2 SWAP1 PUSH1 0x0 MSTORE PUSH1 0x20 PUSH1 0x0 KECCAK256 SWAP1 JUMPDEST DUP2 SLOAD DUP2 MSTORE SWAP1 PUSH1 0x1 ADD SWAP1 PUSH1 0x20 ADD DUP1 DUP4 GT PUSH2 0x376 JUMPI DUP3 SWAP1 SUB PUSH1 0x1F AND DUP3 ADD SWAP2 JUMPDEST POP POP POP POP POP SWAP1 POP SWAP1 JUMP JUMPDEST PUSH1 0x0 PUSH2 0x3A8 DUP3 PUSH2 0xC61 JUMP JUMPDEST PUSH2 0x3E7 JUMPI PUSH1 0x40 MLOAD PUSH32 0x8C379A000000000000000000000000000000000000000000000000000000000 DUP2 MSTORE PUSH1 0x4 ADD PUSH2 0x3DE SWAP1 PUSH2 0x1F12 JUMP JUMPDEST PUSH1 0x40 MLOAD DUP1 SWAP2 SUB SWAP1 REVERT JUMPDEST PUSH1 0x4 PUSH1 0x0 DUP4 DUP2 MSTORE PUSH1 0x20 ADD SWAP1 DUP2 MSTORE PUSH1 0x20 ADD PUSH1 0x0 KECCAK256 PUSH1 0x0 SWAP1 SLOAD SWAP1 PUSH2 0x100 EXP SWAP1 DIV PUSH20 0xFFFFFFFFFFFFFFFFFFFFFFFFFFFFFFFFFFFFFFFF AND SWAP1 POP SWAP2 SWAP1 POP JUMP JUMPDEST PUSH1 0x0 PUSH2 0x42D DUP3 PUSH2 0x63D JUMP JUMPDEST SWAP1 POP DUP1 PUSH20 0xFFFFFFFFFFFFFFFFFFFFFFFFFFFFFFFFFFFFFFFF AND DUP4 PUSH20 0xFFFFFFFFFFFFFFFFFFFFFFFFFFFFFFFFFFFFFFFF AND SUB PUSH2 0x49D JUMPI PUSH1 0x40 MLOAD PUSH32 0x8C379A000000000000000000000000000000000000000000000000000000000 DUP2 MSTORE PUSH1 0x4 ADD PUSH2 0x494 SWAP1 PUSH2 0x1FA4 JUMP JUMPDEST PUSH1 0x40 MLOAD DUP1 SWAP2 SUB SWAP1 REVERT JUMPDEST DUP1 PUSH20 0xFFFFFFFFFFFFFFFFFFFFFFFFFFFFFFFFFFFFFFFF AND PUSH2 0x4BC PUSH2 0xCCD JUMP JUMPDEST PUSH20 0xFFFFFFFFFFFFFFFFFFFFFFFFFFFFFFFFFFFFFFFF AND EQ PUSH2 0x512 JUMPI PUSH1 0x40 MLOAD PUSH32 0x8C379A000000000000000000000000000000000000000000000000000000000 DUP2 MSTORE PUSH1 0x4 ADD PUSH2 0x509 SWAP1 PUSH2 0x2036 JUMP JUMPDEST PUSH1 0x40 MLOAD DUP1 SWAP2 SUB SWAP1 REVERT JUMPDEST PUSH2 0x51C DUP4 DUP4 PUSH2 0xCD5 JUMP JUMPDEST POP POP POP JUMP JUMPDEST PUSH2 0x532 PUSH2 0x52C PUSH2 0xCCD JUMP JUMPDEST DUP3 PUSH2 0xD8E JUMP JUMPDEST PUSH2 0x571 JUMPI PUSH1 0x40 MLOAD PUSH32 0x8C379A000000000000000000000000000000000000000000000000000000000 DUP2 MSTORE PUSH1 0x4 ADD PUSH2 0x568 SWAP1 PUSH2 0x20C8 JUMP JUMPDEST PUSH1 0x40 MLOAD DUP1 SWAP2 SUB SWAP1 REVERT JUMPDEST PUSH2 0x57C DUP4 DUP4 DUP4 PUSH2 0xE5B JUMP JUMPDEST POP POP POP JUMP JUMPDEST PUSH2 0x59C DUP4 DUP4 DUP4 PUSH1 0x40 MLOAD DUP1 PUSH1 0x20 ADD PUSH1 0x40 MSTORE DUP1 PUSH1 0x0 DUP2 MSTORE POP PUSH2 0x996 JUMP JUMPDEST POP POP POP JUMP JUMPDEST PUSH2 0x5A9 PUSH2 0xCCD JUMP JUMPDEST PUSH20 0xFFFFFFFFFFFFFFFFFFFFFFFFFFFFFFFFFFFFFFFF AND PUSH2 0x5C7 PUSH2 0x8DB JUMP JUMPDEST PUSH20 0xFFFFFFFFFFFFFFFFFFFFFFFFFFFFFFFFFFFFFFFF AND EQ PUSH2 0x61D JUMPI PUSH1 0x40 MLOAD PUSH32 0x8C379A000000000000000000000000000000000000000000000000000000000 DUP2 MSTORE PUSH1 0x4 ADD PUSH2 0x614 SWAP1 PUSH2 0x2134 JUMP JUMPDEST PUSH1 0x40 MLOAD DUP1 SWAP2 SUB SWAP1 REVERT JUMPDEST DUP1 PUSH1 0x9 SWAP1 DUP1 MLOAD SWAP1 PUSH1 0x20 ADD SWAP1 PUSH2 0x633 SWAP3 SWAP2 SWAP1 PUSH2 0x1857 JUMP JUMPDEST POP POP JUMP JUMPDEST PUSH1 0xA SLOAD DUP2 JUMP JUMPDEST PUSH1 0x0 DUP1 PUSH1 0x2 PUSH1 0x0 DUP5 DUP2 MSTORE PUSH1 0x20 ADD SWAP1 DUP2 MSTORE PUSH1 0x20 ADD PUSH1 0x0 KECCAK256 PUSH1 0x0 SWAP1 SLOAD SWAP1 PUSH2 0x100 EXP SWAP1 DIV PUSH20 0xFFFFFFFFFFFFFFFFFFFFFFFFFFFFFFFFFFFFFFFF AND SWAP1 POP PUSH1 0x0 PUSH20 0xFFFFFFFFFFFFFFFFFFFFFFFFFFFFFFFFFFFFFFFF AND DUP2 PUSH20 0xFFFFFFFFFFFFFFFFFFFFFFFFFFFFFFFFFFFFFFFF AND SUB PUSH2 0x6E5 JUMPI PUSH1 0x40 MLOAD PUSH32 0x8C379A000000000000000000000000000000000000000000000000000000000 DUP2 MSTORE PUSH1 0x4 ADD PUSH2 0x6DC SWAP1 PUSH2 0x21C6 JUMP JUMPDEST PUSH1 0x40 MLOAD DUP1 SWAP2 SUB SWAP1 REVERT JUMPDEST DUP1 SWAP2 POP POP SWAP2 SWAP1 POP JUMP JUMPDEST PUSH2 0x6F6 PUSH2 0xCCD JUMP JUMPDEST PUSH20 0xFFFFFFFFFFFFFFFFFFFFFFFFFFFFFFFFFFFFFFFF AND PUSH2 0x714 PUSH2 0x8DB JUMP JUMPDEST PUSH20 0xFFFFFFFFFFFFFFFFFFFFFFFFFFFFFFFFFFFFFFFF AND EQ PUSH2 0x76A JUMPI PUSH1 0x40 MLOAD PUSH32 0x8C379A000000000000000000000000000000000000000000000000000000000 DUP2 MSTORE PUSH1 0x4 ADD PUSH2 0x761 SWAP1 PUSH2 0x2134 JUMP JUMPDEST PUSH1 0x40 MLOAD DUP1 SWAP2 SUB SWAP1 REVERT JUMPDEST PUSH2 0x775 PUSH1 0xA SLOAD PUSH2 0x10BF JUMP JUMPDEST PUSH2 0x781 PUSH1 0xA SLOAD DUP3 PUSH2 0x127C JUMP JUMPDEST PUSH1 0xA PUSH1 0x0 DUP2 SLOAD DUP1 SWAP3 SWAP2 SWAP1 PUSH2 0x794 SWAP1 PUSH2 0x2215 JUMP JUMPDEST SWAP2 SWAP1 POP SSTORE POP POP JUMP JUMPDEST PUSH1 0x0 DUP1 PUSH20 0xFFFFFFFFFFFFFFFFFFFFFFFFFFFFFFFFFFFFFFFF AND DUP3 PUSH20 0xFFFFFFFFFFFFFFFFFFFFFFFFFFFFFFFFFFFFFFFF AND SUB PUSH2 0x80C JUMPI PUSH1 0x40 MLOAD PUSH32 0x8C379A000000000000000000000000000000000000000000000000000000000 DUP2 MSTORE PUSH1 0x4 ADD PUSH2 0x803 SWAP1 PUSH2 0x22CF JUMP JUMPDEST PUSH1 0x40 MLOAD DUP1 SWAP2 SUB SWAP1 REVERT JUMPDEST PUSH1 0x1 PUSH1 0x0 DUP4 PUSH20 0xFFFFFFFFFFFFFFFFFFFFFFFFFFFFFFFFFFFFFFFF AND PUSH20 0xFFFFFFFFFFFFFFFFFFFFFFFFFFFFFFFFFFFFFFFF AND DUP2 MSTORE PUSH1 0x20 ADD SWAP1 DUP2 MSTORE PUSH1 0x20 ADD PUSH1 0x0 KECCAK256 SLOAD SWAP1 POP SWAP2 SWAP1 POP JUMP JUMPDEST PUSH2 0x85B PUSH2 0xCCD JUMP JUMPDEST PUSH20 0xFFFFFFFFFFFFFFFFFFFFFFFFFFFFFFFFFFFFFFFF AND PUSH2 0x879 PUSH2 0x8DB JUMP JUMPDEST PUSH20 0xFFFFFFFFFFFFFFFFFFFFFFFFFFFFFFFFFFFFFFFF AND EQ PUSH2 0x8CF JUMPI PUSH1 0x40 MLOAD PUSH32 0x8C379A000000000000000000000000000000000000000000000000000000000 DUP2 MSTORE PUSH1 0x4 ADD PUSH2 0x8C6 SWAP1 PUSH2 0x2134 JUMP JUMPDEST PUSH1 0x40 MLOAD DUP1 SWAP2 SUB SWAP1 REVERT JUMPDEST PUSH2 0x8D9 PUSH1 0x0 PUSH2 0x12F0 JUMP JUMPDEST JUMP JUMPDEST PUSH1 0x0 DUP1 PUSH1 0x0 SWAP1 SLOAD SWAP1 PUSH2 0x100 EXP SWAP1 DIV PUSH20 0xFFFFFFFFFFFFFFFFFFFFFFFFFFFFFFFFFFFFFFFF AND SWAP1 POP SWAP1 JUMP JUMPDEST PUSH1 0x60 PUSH1 0x7 DUP1 SLOAD PUSH2 0x913 SWAP1 PUSH2 0x1E6F JUMP JUMPDEST DUP1 PUSH1 0x1F ADD PUSH1 0x20 DUP1 SWAP2 DIV MUL PUSH1 0x20 ADD PUSH1 0x40 MLOAD SWAP1 DUP2 ADD PUSH1 0x40 MSTORE DUP1 SWAP3 SWAP2 SWAP1 DUP2 DUP2 MSTORE PUSH1 0x20 ADD DUP3 DUP1 SLOAD PUSH2 0x93F SWAP1 PUSH2 0x1E6F JUMP JUMPDEST DUP1 ISZERO PUSH2 0x98C JUMPI DUP1 PUSH1 0x1F LT PUSH2 0x961 JUMPI PUSH2 0x100 DUP1 DUP4 SLOAD DIV MUL DUP4 MSTORE SWAP2 PUSH1 0x20 ADD SWAP2 PUSH2 0x98C JUMP JUMPDEST DUP3 ADD SWAP2 SWAP1 PUSH1 0x0 MSTORE PUSH1 0x20 PUSH1 0x0 KECCAK256 SWAP1 JUMPDEST DUP2 SLOAD DUP2 MSTORE SWAP1 PUSH1 0x1 ADD SWAP1 PUSH1 0x20 ADD DUP1 DUP4 GT PUSH2 0x96F JUMPI DUP3 SWAP1 SUB PUSH1 0x1F AND DUP3 ADD SWAP2 JUMPDEST POP POP POP POP POP SWAP1 POP SWAP1 JUMP JUMPDEST PUSH2 0x9A7 PUSH2 0x9A1 PUSH2 0xCCD JUMP JUMPDEST DUP4 PUSH2 0xD8E JUMP JUMPDEST PUSH2 0x9E6 JUMPI PUSH1 0x40 MLOAD PUSH32 0x8C379A000000000000000000000000000000000000000000000000000000000 DUP2 MSTORE PUSH1 0x4 ADD PUSH2 0x9DD SWAP1 PUSH2 0x20C8 JUMP JUMPDEST PUSH1 0x40 MLOAD DUP1 SWAP2 SUB SWAP1 REVERT JUMPDEST PUSH2 0x9F2 DUP5 DUP5 DUP5 DUP5 PUSH2 0x13B4 JUMP JUMPDEST POP POP POP POP JUMP JUMPDEST PUSH1 0x60 PUSH2 0xA03 DUP3 PUSH2 0xC61 JUMP JUMPDEST PUSH2 0xA42 JUMPI PUSH1 0x40 MLOAD PUSH32 0x8C379A000000000000000000000000000000000000000000000000000000000 DUP2 MSTORE PUSH1 0x4 ADD PUSH2 0xA39 SWAP1 PUSH2 0x2361 JUMP JUMPDEST PUSH1 0x40 MLOAD DUP1 SWAP2 SUB SWAP1 REVERT JUMPDEST PUSH1 0x0 PUSH1 0xC PUSH1 0x0 DUP5 DUP2 MSTORE PUSH1 0x20 ADD SWAP1 DUP2 MSTORE PUSH1 0x20 ADD PUSH1 0x0 KECCAK256 DUP1 SLOAD PUSH2 0xA62 SWAP1 PUSH2 0x1E6F JUMP JUMPDEST DUP1 PUSH1 0x1F ADD PUSH1 0x20 DUP1 SWAP2 DIV MUL PUSH1 0x20 ADD PUSH1 0x40 MLOAD SWAP1 DUP2 ADD PUSH1 0x40 MSTORE DUP1 SWAP3 SWAP2 SWAP1 DUP2 DUP2 MSTORE PUSH1 0x20 ADD DUP3 DUP1 SLOAD PUSH2 0xA8E SWAP1 PUSH2 0x1E6F JUMP JUMPDEST DUP1 ISZERO PUSH2 0xADB JUMPI DUP1 PUSH1 0x1F LT PUSH2 0xAB0 JUMPI PUSH2 0x100 DUP1 DUP4 SLOAD DIV MUL DUP4 MSTORE SWAP2 PUSH1 0x20 ADD SWAP2 PUSH2 0xADB JUMP JUMPDEST DUP3 ADD SWAP2 SWAP1 PUSH1 0x0 MSTORE PUSH1 0x20 PUSH1 0x0 KECCAK256 SWAP1 JUMPDEST DUP2 SLOAD DUP2 MSTORE SWAP1 PUSH1 0x1 ADD SWAP1 PUSH1 0x20 ADD DUP1 DUP4 GT PUSH2 0xABE JUMPI DUP3 SWAP1 SUB PUSH1 0x1F AND DUP3 ADD SWAP2 JUMPDEST POP POP POP POP POP SWAP1 POP PUSH1 0x0 PUSH2 0xAEC PUSH2 0x1410 JUMP JUMPDEST SWAP1 POP PUSH1 0x0 DUP2 MLOAD SUB PUSH2 0xB01 JUMPI DUP2 SWAP3 POP POP POP PUSH2 0xB65 JUMP JUMPDEST PUSH1 0x0 DUP3 MLOAD GT ISZERO PUSH2 0xB36 JUMPI DUP1 DUP3 PUSH1 0x40 MLOAD PUSH1 0x20 ADD PUSH2 0xB1E SWAP3 SWAP2 SWAP1 PUSH2 0x23BD JUMP JUMPDEST PUSH1 0x40 MLOAD PUSH1 0x20 DUP2 DUP4 SUB SUB DUP2 MSTORE SWAP1 PUSH1 0x40 MSTORE SWAP3 POP POP POP PUSH2 0xB65 JUMP JUMPDEST DUP1 PUSH2 0xB40 DUP6 PUSH2 0x14A2 JUMP JUMPDEST PUSH1 0x40 MLOAD PUSH1 0x20 ADD PUSH2 0xB51 SWAP3 SWAP2 SWAP1 PUSH2 0x23BD JUMP JUMPDEST PUSH1 0x40 MLOAD PUSH1 0x20 DUP2 DUP4 SUB SUB DUP2 MSTORE SWAP1 PUSH1 0x40 MSTORE SWAP3 POP POP POP JUMPDEST SWAP2 SWAP1 POP JUMP JUMPDEST PUSH2 0xB72 PUSH2 0xCCD JUMP JUMPDEST PUSH20 0xFFFFFFFFFFFFFFFFFFFFFFFFFFFFFFFFFFFFFFFF AND PUSH2 0xB90 PUSH2 0x8DB JUMP JUMPDEST PUSH20 0xFFFFFFFFFFFFFFFFFFFFFFFFFFFFFFFFFFFFFFFF AND EQ PUSH2 0xBE6 JUMPI PUSH1 0x40 MLOAD PUSH32 0x8C379A000000000000000000000000000000000000000000000000000000000 DUP2 MSTORE PUSH1 0x4 ADD PUSH2 0xBDD SWAP1 PUSH2 0x2134 JUMP JUMPDEST PUSH1 0x40 MLOAD DUP1 SWAP2 SUB SWAP1 REVERT JUMPDEST PUSH1 0x0 PUSH20 0xFFFFFFFFFFFFFFFFFFFFFFFFFFFFFFFFFFFFFFFF AND DUP2 PUSH20 0xFFFFFFFFFFFFFFFFFFFFFFFFFFFFFFFFFFFFFFFF AND SUB PUSH2 0xC55 JUMPI PUSH1 0x40 MLOAD PUSH32 0x8C379A000000000000000000000000000000000000000000000000000000000 DUP2 MSTORE PUSH1 0x4 ADD PUSH2 0xC4C SWAP1 PUSH2 0x2453 JUMP JUMPDEST PUSH1 0x40 MLOAD DUP1 SWAP2 SUB SWAP1 REVERT JUMPDEST PUSH2 0xC5E DUP2 PUSH2 0x12F0 JUMP JUMPDEST POP JUMP JUMPDEST PUSH1 0x0 DUP1 PUSH20 0xFFFFFFFFFFFFFFFFFFFFFFFFFFFFFFFFFFFFFFFF AND PUSH1 0x2 PUSH1 0x0 DUP5 DUP2 MSTORE PUSH1 0x20 ADD SWAP1 DUP2 MSTORE PUSH1 0x20 ADD PUSH1 0x0 KECCAK256 PUSH1 0x0 SWAP1 SLOAD SWAP1 PUSH2 0x100 EXP SWAP1 DIV PUSH20 0xFFFFFFFFFFFFFFFFFFFFFFFFFFFFFFFFFFFFFFFF AND PUSH20 0xFFFFFFFFFFFFFFFFFFFFFFFFFFFFFFFFFFFFFFFF AND EQ ISZERO SWAP1 POP SWAP2 SWAP1 POP JUMP JUMPDEST PUSH1 0x0 CALLER SWAP1 POP SWAP1 JUMP JUMPDEST DUP2 PUSH1 0x4 PUSH1 0x0 DUP4 DUP2 MSTORE PUSH1 0x20 ADD SWAP1 DUP2 MSTORE PUSH1 0x20 ADD PUSH1 0x0 KECCAK256 PUSH1 0x0 PUSH2 0x100 EXP DUP2 SLOAD DUP2 PUSH20 0xFFFFFFFFFFFFFFFFFFFFFFFFFFFFFFFFFFFFFFFF MUL NOT AND SWAP1 DUP4 PUSH20 0xFFFFFFFFFFFFFFFFFFFFFFFFFFFFFFFFFFFFFFFF AND MUL OR SWAP1 SSTORE POP DUP1 DUP3 PUSH20 0xFFFFFFFFFFFFFFFFFFFFFFFFFFFFFFFFFFFFFFFF AND PUSH2 0xD48 DUP4 PUSH2 0x63D JUMP JUMPDEST PUSH20 0xFFFFFFFFFFFFFFFFFFFFFFFFFFFFFFFFFFFFFFFF AND PUSH32 0x8C5BE1E5EBEC7D5BD14F71427D1E84F3DD0314C0F7B2291E5B200AC8C7C3B925 PUSH1 0x40 MLOAD PUSH1 0x40 MLOAD DUP1 SWAP2 SUB SWAP1 LOG4 POP POP JUMP JUMPDEST PUSH1 0x0 PUSH2 0xD99 DUP3 PUSH2 0xC61 JUMP JUMPDEST PUSH2 0xDD8 JUMPI PUSH1 0x40 MLOAD PUSH32 0x8C379A000000000000000000000000000000000000000000000000000000000 DUP2 MSTORE PUSH1 0x4 ADD PUSH2 0xDCF SWAP1 PUSH2 0x24E5 JUMP JUMPDEST PUSH1 0x40 MLOAD DUP1 SWAP2 SUB SWAP1 REVERT JUMPDEST PUSH1 0x0 PUSH2 0xDE3 DUP4 PUSH2 0x63D JUMP JUMPDEST SWAP1 POP DUP1 PUSH20 0xFFFFFFFFFFFFFFFFFFFFFFFFFFFFFFFFFFFFFFFF AND DUP5 PUSH20 0xFFFFFFFFFFFFFFFFFFFFFFFFFFFFFFFFFFFFFFFF AND EQ DUP1 PUSH2 0xE52 JUMPI POP DUP4 PUSH20 0xFFFFFFFFFFFFFFFFFFFFFFFFFFFFFFFFFFFFFFFF AND PUSH2 0xE3A DUP5 PUSH2 0x39D JUMP JUMPDEST PUSH20 0xFFFFFFFFFFFFFFFFFFFFFFFFFFFFFFFFFFFFFFFF AND EQ JUMPDEST SWAP2 POP POP SWAP3 SWAP2 POP POP JUMP JUMPDEST DUP3 PUSH20 0xFFFFFFFFFFFFFFFFFFFFFFFFFFFFFFFFFFFFFFFF AND PUSH2 0xE7B DUP3 PUSH2 0x63D JUMP JUMPDEST PUSH20 0xFFFFFFFFFFFFFFFFFFFFFFFFFFFFFFFFFFFFFFFF AND EQ PUSH2 0xED1 JUMPI PUSH1 0x40 MLOAD PUSH32 0x8C379A000000000000000000000000000000000000000000000000000000000 DUP2 MSTORE PUSH1 0x4 ADD PUSH2 0xEC8 SWAP1 PUSH2 0x2577 JUMP JUMPDEST PUSH1 0x40 MLOAD DUP1 SWAP2 SUB SWAP1 REVERT JUMPDEST PUSH1 0x0 PUSH20 0xFFFFFFFFFFFFFFFFFFFFFFFFFFFFFFFFFFFFFFFF AND DUP3 PUSH20 0xFFFFFFFFFFFFFFFFFFFFFFFFFFFFFFFFFFFFFFFF AND SUB PUSH2 0xF40 JUMPI PUSH1 0x40 MLOAD PUSH32 0x8C379A000000000000000000000000000000000000000000000000000000000 DUP2 MSTORE PUSH1 0x4 ADD PUSH2 0xF37 SWAP1 PUSH2 0x2609 JUMP JUMPDEST PUSH1 0x40 MLOAD DUP1 SWAP2 SUB SWAP1 REVERT JUMPDEST PUSH2 0xF4B DUP4 DUP4 DUP4 PUSH2 0x1602 JUMP JUMPDEST PUSH2 0xF56 PUSH1 0x0 DUP3 PUSH2 0xCD5 JUMP JUMPDEST PUSH1 0x1 DUP1 PUSH1 0x0 DUP6 PUSH20 0xFFFFFFFFFFFFFFFFFFFFFFFFFFFFFFFFFFFFFFFF AND PUSH20 0xFFFFFFFFFFFFFFFFFFFFFFFFFFFFFFFFFFFFFFFF AND DUP2 MSTORE PUSH1 0x20 ADD SWAP1 DUP2 MSTORE PUSH1 0x20 ADD PUSH1 0x0 KECCAK256 PUSH1 0x0 DUP3 DUP3 SLOAD PUSH2 0xFA5 SWAP2 SWAP1 PUSH2 0x2629 JUMP JUMPDEST SWAP3 POP POP DUP2 SWAP1 SSTORE POP PUSH1 0x1 DUP1 PUSH1 0x0 DUP5 PUSH20 0xFFFFFFFFFFFFFFFFFFFFFFFFFFFFFFFFFFFFFFFF AND PUSH20 0xFFFFFFFFFFFFFFFFFFFFFFFFFFFFFFFFFFFFFFFF AND DUP2 MSTORE PUSH1 0x20 ADD SWAP1 DUP2 MSTORE PUSH1 0x20 ADD PUSH1 0x0 KECCAK256 PUSH1 0x0 DUP3 DUP3 SLOAD PUSH2 0xFFB SWAP2 SWAP1 PUSH2 0x265D JUMP JUMPDEST SWAP3 POP POP DUP2 SWAP1 SSTORE POP DUP2 PUSH1 0x2 PUSH1 0x0 DUP4 DUP2 MSTORE PUSH1 0x20 ADD SWAP1 DUP2 MSTORE PUSH1 0x20 ADD PUSH1 0x0 KECCAK256 PUSH1 0x0 PUSH2 0x100 EXP DUP2 SLOAD DUP2 PUSH20 0xFFFFFFFFFFFFFFFFFFFFFFFFFFFFFFFFFFFFFFFF MUL NOT AND SWAP1 DUP4 PUSH20 0xFFFFFFFFFFFFFFFFFFFFFFFFFFFFFFFFFFFFFFFF AND MUL OR SWAP1 SSTORE POP DUP1 DUP3 PUSH20 0xFFFFFFFFFFFFFFFFFFFFFFFFFFFFFFFFFFFFFFFF AND DUP5 PUSH20 0xFFFFFFFFFFFFFFFFFFFFFFFFFFFFFFFFFFFFFFFF AND PUSH32 0xDDF252AD1BE2C89B69C2B068FC378DAA952BA7F163C4A11628F55A4DF523B3EF PUSH1 0x40 MLOAD PUSH1 0x40 MLOAD DUP1 SWAP2 SUB SWAP1 LOG4 PUSH2 0x10BA DUP4 DUP4 DUP4 PUSH2 0x16A8 JUMP JUMPDEST POP POP POP JUMP JUMPDEST PUSH2 0x10C8 DUP2 PUSH2 0xC61 JUMP JUMPDEST ISZERO PUSH2 0x1108 JUMPI PUSH1 0x40 MLOAD PUSH32 0x8C379A000000000000000000000000000000000000000000000000000000000 DUP2 MSTORE PUSH1 0x4 ADD PUSH2 0x10FF SWAP1 PUSH2 0x26FF JUMP JUMPDEST PUSH1 0x40 MLOAD DUP1 SWAP2 SUB SWAP1 REVERT JUMPDEST PUSH1 0x1 DUP1 PUSH1 0x0 CALLER PUSH20 0xFFFFFFFFFFFFFFFFFFFFFFFFFFFFFFFFFFFFFFFF AND PUSH20 0xFFFFFFFFFFFFFFFFFFFFFFFFFFFFFFFFFFFFFFFF AND DUP2 MSTORE PUSH1 0x20 ADD SWAP1 DUP2 MSTORE PUSH1 0x20 ADD PUSH1 0x0 KECCAK256 PUSH1 0x0 DUP3 DUP3 SLOAD PUSH2 0x1157 SWAP2 SWAP1 PUSH2 0x265D JUMP JUMPDEST SWAP3 POP POP DUP2 SWAP1 SSTORE POP CALLER PUSH1 0x2 PUSH1 0x0 DUP4 DUP2 MSTORE PUSH1 0x20 ADD SWAP1 DUP2 MSTORE PUSH1 0x20 ADD PUSH1 0x0 KECCAK256 PUSH1 0x0 PUSH2 0x100 EXP DUP2 SLOAD DUP2 PUSH20 0xFFFFFFFFFFFFFFFFFFFFFFFFFFFFFFFFFFFFFFFF MUL NOT AND SWAP1 DUP4 PUSH20 0xFFFFFFFFFFFFFFFFFFFFFFFFFFFFFFFFFFFFFFFF AND MUL OR SWAP1 SSTORE POP DUP1 CALLER PUSH20 0xFFFFFFFFFFFFFFFFFFFFFFFFFFFFFFFFFFFFFFFF AND ADDRESS PUSH20 0xFFFFFFFFFFFFFFFFFFFFFFFFFFFFFFFFFFFFFFFF AND PUSH4 0x8DA5CB5B PUSH1 0x40 MLOAD DUP2 PUSH4 0xFFFFFFFF AND PUSH1 0xE0 SHL DUP2 MSTORE PUSH1 0x4 ADD PUSH1 0x20 PUSH1 0x40 MLOAD DUP1 DUP4 SUB DUP2 DUP7 GAS STATICCALL ISZERO DUP1 ISZERO PUSH2 0x1213 JUMPI RETURNDATASIZE PUSH1 0x0 DUP1 RETURNDATACOPY RETURNDATASIZE PUSH1 0x0 REVERT JUMPDEST POP POP POP POP PUSH1 0x40 MLOAD RETURNDATASIZE PUSH1 0x1F NOT PUSH1 0x1F DUP3 ADD AND DUP3 ADD DUP1 PUSH1 0x40 MSTORE POP DUP2 ADD SWAP1 PUSH2 0x1237 SWAP2 SWAP1 PUSH2 0x2734 JUMP JUMPDEST PUSH20 0xFFFFFFFFFFFFFFFFFFFFFFFFFFFFFFFFFFFFFFFF AND PUSH32 0xDDF252AD1BE2C89B69C2B068FC378DAA952BA7F163C4A11628F55A4DF523B3EF PUSH1 0x40 MLOAD PUSH1 0x40 MLOAD DUP1 SWAP2 SUB SWAP1 LOG4 POP JUMP JUMPDEST PUSH2 0x1285 DUP3 PUSH2 0xC61 JUMP JUMPDEST PUSH2 0x12C4 JUMPI PUSH1 0x40 MLOAD PUSH32 0x8C379A000000000000000000000000000000000000000000000000000000000 DUP2 MSTORE PUSH1 0x4 ADD PUSH2 0x12BB SWAP1 PUSH2 0x27D3 JUMP JUMPDEST PUSH1 0x40 MLOAD DUP1 SWAP2 SUB SWAP1 REVERT JUMPDEST DUP1 PUSH1 0xC PUSH1 0x0 DUP5 DUP2 MSTORE PUSH1 0x20 ADD SWAP1 DUP2 MSTORE PUSH1 0x20 ADD PUSH1 0x0 KECCAK256 SWAP1 DUP1 MLOAD SWAP1 PUSH1 0x20 ADD SWAP1 PUSH2 0x12EB SWAP3 SWAP2 SWAP1 PUSH2 0x1857 JUMP JUMPDEST POP POP POP JUMP JUMPDEST PUSH1 0x0 DUP1 PUSH1 0x0 SWAP1 SLOAD SWAP1 PUSH2 0x100 EXP SWAP1 DIV PUSH20 0xFFFFFFFFFFFFFFFFFFFFFFFFFFFFFFFFFFFFFFFF AND SWAP1 POP DUP2 PUSH1 0x0 DUP1 PUSH2 0x100 EXP DUP2 SLOAD DUP2 PUSH20 0xFFFFFFFFFFFFFFFFFFFFFFFFFFFFFFFFFFFFFFFF MUL NOT AND SWAP1 DUP4 PUSH20 0xFFFFFFFFFFFFFFFFFFFFFFFFFFFFFFFFFFFFFFFF AND MUL OR SWAP1 SSTORE POP DUP2 PUSH20 0xFFFFFFFFFFFFFFFFFFFFFFFFFFFFFFFFFFFFFFFF AND DUP2 PUSH20 0xFFFFFFFFFFFFFFFFFFFFFFFFFFFFFFFFFFFFFFFF AND PUSH32 0x8BE0079C531659141344CD1FD0A4F28419497F9722A3DAAFE3B4186F6B6457E0 PUSH1 0x40 MLOAD PUSH1 0x40 MLOAD DUP1 SWAP2 SUB SWAP1 LOG3 POP POP JUMP JUMPDEST PUSH2 0x13BF DUP5 DUP5 DUP5 PUSH2 0xE5B JUMP JUMPDEST PUSH2 0x13CB DUP5 DUP5 DUP5 DUP5 PUSH2 0x16AD JUMP JUMPDEST PUSH2 0x140A JUMPI PUSH1 0x40 MLOAD PUSH32 0x8C379A000000000000000000000000000000000000000000000000000000000 DUP2 MSTORE PUSH1 0x4 ADD PUSH2 0x1401 SWAP1 PUSH2 0x2865 JUMP JUMPDEST PUSH1 0x40 MLOAD DUP1 SWAP2 SUB SWAP1 REVERT JUMPDEST POP POP POP POP JUMP JUMPDEST PUSH1 0x60 PUSH1 0x9 DUP1 SLOAD PUSH2 0x141F SWAP1 PUSH2 0x1E6F JUMP JUMPDEST DUP1 PUSH1 0x1F ADD PUSH1 0x20 DUP1 SWAP2 DIV MUL PUSH1 0x20 ADD PUSH1 0x40 MLOAD SWAP1 DUP2 ADD PUSH1 0x40 MSTORE DUP1 SWAP3 SWAP2 SWAP1 DUP2 DUP2 MSTORE PUSH1 0x20 ADD DUP3 DUP1 SLOAD PUSH2 0x144B SWAP1 PUSH2 0x1E6F JUMP JUMPDEST DUP1 ISZERO PUSH2 0x1498 JUMPI DUP1 PUSH1 0x1F LT PUSH2 0x146D JUMPI PUSH2 0x100 DUP1 DUP4 SLOAD DIV MUL DUP4 MSTORE SWAP2 PUSH1 0x20 ADD SWAP2 PUSH2 0x1498 JUMP JUMPDEST DUP3 ADD SWAP2 SWAP1 PUSH1 0x0 MSTORE PUSH1 0x20 PUSH1 0x0 KECCAK256 SWAP1 JUMPDEST DUP2 SLOAD DUP2 MSTORE SWAP1 PUSH1 0x1 ADD SWAP1 PUSH1 0x20 ADD DUP1 DUP4 GT PUSH2 0x147B JUMPI DUP3 SWAP1 SUB PUSH1 0x1F AND DUP3 ADD SWAP2 JUMPDEST POP POP POP POP POP SWAP1 POP SWAP1 JUMP JUMPDEST PUSH1 0x60 PUSH1 0x0 DUP3 SUB PUSH2 0x14E9 JUMPI PUSH1 0x40 MLOAD DUP1 PUSH1 0x40 ADD PUSH1 0x40 MSTORE DUP1 PUSH1 0x1 DUP2 MSTORE PUSH1 0x20 ADD PUSH32 0x3000000000000000000000000000000000000000000000000000000000000000 DUP2 MSTORE POP SWAP1 POP PUSH2 0x15FD JUMP JUMPDEST PUSH1 0x0 DUP3 SWAP1 POP PUSH1 0x0 JUMPDEST PUSH1 0x0 DUP3 EQ PUSH2 0x151B JUMPI DUP1 DUP1 PUSH2 0x1504 SWAP1 PUSH2 0x2215 JUMP JUMPDEST SWAP2 POP POP PUSH1 0xA DUP3 PUSH2 0x1514 SWAP2 SWAP1 PUSH2 0x28B4 JUMP JUMPDEST SWAP2 POP PUSH2 0x14F1 JUMP JUMPDEST PUSH1 0x0 DUP2 PUSH8 0xFFFFFFFFFFFFFFFF DUP2 GT ISZERO PUSH2 0x1537 JUMPI PUSH2 0x1536 PUSH2 0x1B51 JUMP JUMPDEST JUMPDEST PUSH1 0x40 MLOAD SWAP1 DUP1 DUP3 MSTORE DUP1 PUSH1 0x1F ADD PUSH1 0x1F NOT AND PUSH1 0x20 ADD DUP3 ADD PUSH1 0x40 MSTORE DUP1 ISZERO PUSH2 0x1569 JUMPI DUP2 PUSH1 0x20 ADD PUSH1 0x1 DUP3 MUL DUP1 CALLDATASIZE DUP4 CALLDATACOPY DUP1 DUP3 ADD SWAP2 POP POP SWAP1 POP JUMPDEST POP SWAP1 POP JUMPDEST PUSH1 0x0 DUP6 EQ PUSH2 0x15F6 JUMPI PUSH1 0x1 DUP3 PUSH2 0x1582 SWAP2 SWAP1 PUSH2 0x2629 JUMP JUMPDEST SWAP2 POP PUSH1 0xA DUP6 PUSH2 0x1591 SWAP2 SWAP1 PUSH2 0x28E5 JUMP JUMPDEST PUSH1 0x30 PUSH2 0x159D SWAP2 SWAP1 PUSH2 0x265D JUMP JUMPDEST PUSH1 0xF8 SHL DUP2 DUP4 DUP2 MLOAD DUP2 LT PUSH2 0x15B3 JUMPI PUSH2 0x15B2 PUSH2 0x2916 JUMP JUMPDEST JUMPDEST PUSH1 0x20 ADD ADD SWAP1 PUSH31 0xFFFFFFFFFFFFFFFFFFFFFFFFFFFFFFFFFFFFFFFFFFFFFFFFFFFFFFFFFFFFFF NOT AND SWAP1 DUP2 PUSH1 0x0 BYTE SWAP1 MSTORE8 POP PUSH1 0xA DUP6 PUSH2 0x15EF SWAP2 SWAP1 PUSH2 0x28B4 JUMP JUMPDEST SWAP5 POP PUSH2 0x156D JUMP JUMPDEST DUP1 SWAP4 POP POP POP POP JUMPDEST SWAP2 SWAP1 POP JUMP JUMPDEST DUP3 PUSH20 0xFFFFFFFFFFFFFFFFFFFFFFFFFFFFFFFFFFFFFFFF AND PUSH1 0x2 PUSH1 0x0 DUP4 DUP2 MSTORE PUSH1 0x20 ADD SWAP1 DUP2 MSTORE PUSH1 0x20 ADD PUSH1 0x0 KECCAK256 PUSH1 0x0 SWAP1 SLOAD SWAP1 PUSH2 0x100 EXP SWAP1 DIV PUSH20 0xFFFFFFFFFFFFFFFFFFFFFFFFFFFFFFFFFFFFFFFF AND PUSH20 0xFFFFFFFFFFFFFFFFFFFFFFFFFFFFFFFFFFFFFFFF AND EQ PUSH2 0x16A3 JUMPI PUSH1 0x40 MLOAD PUSH32 0x8C379A000000000000000000000000000000000000000000000000000000000 DUP2 MSTORE PUSH1 0x4 ADD PUSH2 0x169A SWAP1 PUSH2 0x2991 JUMP JUMPDEST PUSH1 0x40 MLOAD DUP1 SWAP2 SUB SWAP1 REVERT JUMPDEST POP POP POP JUMP JUMPDEST POP POP POP JUMP JUMPDEST PUSH1 0x0 PUSH2 0x16CE DUP5 PUSH20 0xFFFFFFFFFFFFFFFFFFFFFFFFFFFFFFFFFFFFFFFF AND PUSH2 0x1834 JUMP JUMPDEST ISZERO PUSH2 0x1827 JUMPI DUP4 PUSH20 0xFFFFFFFFFFFFFFFFFFFFFFFFFFFFFFFFFFFFFFFF AND PUSH4 0x150B7A02 PUSH2 0x16F7 PUSH2 0xCCD JUMP JUMPDEST DUP8 DUP7 DUP7 PUSH1 0x40 MLOAD DUP6 PUSH4 0xFFFFFFFF AND PUSH1 0xE0 SHL DUP2 MSTORE PUSH1 0x4 ADD PUSH2 0x1719 SWAP5 SWAP4 SWAP3 SWAP2 SWAP1 PUSH2 0x2A06 JUMP JUMPDEST PUSH1 0x20 PUSH1 0x40 MLOAD DUP1 DUP4 SUB DUP2 PUSH1 0x0 DUP8 GAS CALL SWAP3 POP POP POP DUP1 ISZERO PUSH2 0x1755 JUMPI POP PUSH1 0x40 MLOAD RETURNDATASIZE PUSH1 0x1F NOT PUSH1 0x1F DUP3 ADD AND DUP3 ADD DUP1 PUSH1 0x40 MSTORE POP DUP2 ADD SWAP1 PUSH2 0x1752 SWAP2 SWAP1 PUSH2 0x2AAA JUMP JUMPDEST PUSH1 0x1 JUMPDEST PUSH2 0x17D7 JUMPI RETURNDATASIZE DUP1 PUSH1 0x0 DUP2 EQ PUSH2 0x1785 JUMPI PUSH1 0x40 MLOAD SWAP2 POP PUSH1 0x1F NOT PUSH1 0x3F RETURNDATASIZE ADD AND DUP3 ADD PUSH1 0x40 MSTORE RETURNDATASIZE DUP3 MSTORE RETURNDATASIZE PUSH1 0x0 PUSH1 0x20 DUP5 ADD RETURNDATACOPY PUSH2 0x178A JUMP JUMPDEST PUSH1 0x60 SWAP2 POP JUMPDEST POP PUSH1 0x0 DUP2 MLOAD SUB PUSH2 0x17CF JUMPI PUSH1 0x40 MLOAD PUSH32 0x8C379A000000000000000000000000000000000000000000000000000000000 DUP2 MSTORE PUSH1 0x4 ADD PUSH2 0x17C6 SWAP1 PUSH2 0x2865 JUMP JUMPDEST PUSH1 0x40 MLOAD DUP1 SWAP2 SUB SWAP1 REVERT JUMPDEST DUP1 MLOAD DUP2 PUSH1 0x20 ADD REVERT JUMPDEST PUSH4 0x150B7A02 PUSH1 0xE0 SHL PUSH28 0xFFFFFFFFFFFFFFFFFFFFFFFFFFFFFFFFFFFFFFFFFFFFFFFFFFFFFFFF NOT AND DUP2 PUSH28 0xFFFFFFFFFFFFFFFFFFFFFFFFFFFFFFFFFFFFFFFFFFFFFFFFFFFFFFFF NOT AND EQ SWAP2 POP POP PUSH2 0x182C JUMP JUMPDEST PUSH1 0x1 SWAP1 POP JUMPDEST SWAP5 SWAP4 POP POP POP POP JUMP JUMPDEST PUSH1 0x0 DUP1 DUP3 PUSH20 0xFFFFFFFFFFFFFFFFFFFFFFFFFFFFFFFFFFFFFFFF AND EXTCODESIZE GT SWAP1 POP SWAP2 SWAP1 POP JUMP JUMPDEST DUP3 DUP1 SLOAD PUSH2 0x1863 SWAP1 PUSH2 0x1E6F JUMP JUMPDEST SWAP1 PUSH1 0x0 MSTORE PUSH1 0x20 PUSH1 0x0 KECCAK256 SWAP1 PUSH1 0x1F ADD PUSH1 0x20 SWAP1 DIV DUP2 ADD SWAP3 DUP3 PUSH2 0x1885 JUMPI PUSH1 0x0 DUP6 SSTORE PUSH2 0x18CC JUMP JUMPDEST DUP3 PUSH1 0x1F LT PUSH2 0x189E JUMPI DUP1 MLOAD PUSH1 0xFF NOT AND DUP4 DUP1 ADD OR DUP6 SSTORE PUSH2 0x18CC JUMP JUMPDEST DUP3 DUP1 ADD PUSH1 0x1 ADD DUP6 SSTORE DUP3 ISZERO PUSH2 0x18CC JUMPI SWAP2 DUP3 ADD JUMPDEST DUP3 DUP2 GT ISZERO PUSH2 0x18CB JUMPI DUP3 MLOAD DUP3 SSTORE SWAP2 PUSH1 0x20 ADD SWAP2 SWAP1 PUSH1 0x1 ADD SWAP1 PUSH2 0x18B0 JUMP JUMPDEST JUMPDEST POP SWAP1 POP PUSH2 0x18D9 SWAP2 SWAP1 PUSH2 0x18DD JUMP JUMPDEST POP SWAP1 JUMP JUMPDEST JUMPDEST DUP1 DUP3 GT ISZERO PUSH2 0x18F6 JUMPI PUSH1 0x0 DUP2 PUSH1 0x0 SWAP1 SSTORE POP PUSH1 0x1 ADD PUSH2 0x18DE JUMP JUMPDEST POP SWAP1 JUMP JUMPDEST PUSH1 0x0 DUP2 MLOAD SWAP1 POP SWAP2 SWAP1 POP JUMP JUMPDEST PUSH1 0x0 DUP3 DUP3 MSTORE PUSH1 0x20 DUP3 ADD SWAP1 POP SWAP3 SWAP2 POP POP JUMP JUMPDEST PUSH1 0x0 JUMPDEST DUP4 DUP2 LT ISZERO PUSH2 0x1934 JUMPI DUP1 DUP3 ADD MLOAD DUP2 DUP5 ADD MSTORE PUSH1 0x20 DUP2 ADD SWAP1 POP PUSH2 0x1919 JUMP JUMPDEST DUP4 DUP2 GT ISZERO PUSH2 0x1943 JUMPI PUSH1 0x0 DUP5 DUP5 ADD MSTORE JUMPDEST POP POP POP POP JUMP JUMPDEST PUSH1 0x0 PUSH1 0x1F NOT PUSH1 0x1F DUP4 ADD AND SWAP1 POP SWAP2 SWAP1 POP JUMP JUMPDEST PUSH1 0x0 PUSH2 0x1965 DUP3 PUSH2 0x18FA JUMP JUMPDEST PUSH2 0x196F DUP2 DUP6 PUSH2 0x1905 JUMP JUMPDEST SWAP4 POP PUSH2 0x197F DUP2 DUP6 PUSH1 0x20 DUP7 ADD PUSH2 0x1916 JUMP JUMPDEST PUSH2 0x1988 DUP2 PUSH2 0x1949 JUMP JUMPDEST DUP5 ADD SWAP2 POP POP SWAP3 SWAP2 POP POP JUMP JUMPDEST PUSH1 0x0 PUSH1 0x20 DUP3 ADD SWAP1 POP DUP2 DUP2 SUB PUSH1 0x0 DUP4 ADD MSTORE PUSH2 0x19AD DUP2 DUP5 PUSH2 0x195A JUMP JUMPDEST SWAP1 POP SWAP3 SWAP2 POP POP JUMP JUMPDEST PUSH1 0x0 PUSH1 0x40 MLOAD SWAP1 POP SWAP1 JUMP JUMPDEST PUSH1 0x0 DUP1 REVERT JUMPDEST PUSH1 0x0 DUP1 REVERT JUMPDEST PUSH1 0x0 DUP2 SWAP1 POP SWAP2 SWAP1 POP JUMP JUMPDEST PUSH2 0x19DC DUP2 PUSH2 0x19C9 JUMP JUMPDEST DUP2 EQ PUSH2 0x19E7 JUMPI PUSH1 0x0 DUP1 REVERT JUMPDEST POP JUMP JUMPDEST PUSH1 0x0 DUP2 CALLDATALOAD SWAP1 POP PUSH2 0x19F9 DUP2 PUSH2 0x19D3 JUMP JUMPDEST SWAP3 SWAP2 POP POP JUMP JUMPDEST PUSH1 0x0 PUSH1 0x20 DUP3 DUP5 SUB SLT ISZERO PUSH2 0x1A15 JUMPI PUSH2 0x1A14 PUSH2 0x19BF JUMP JUMPDEST JUMPDEST PUSH1 0x0 PUSH2 0x1A23 DUP5 DUP3 DUP6 ADD PUSH2 0x19EA JUMP JUMPDEST SWAP2 POP POP SWAP3 SWAP2 POP POP JUMP JUMPDEST PUSH1 0x0 PUSH20 0xFFFFFFFFFFFFFFFFFFFFFFFFFFFFFFFFFFFFFFFF DUP3 AND SWAP1 POP SWAP2 SWAP1 POP JUMP JUMPDEST PUSH1 0x0 PUSH2 0x1A57 DUP3 PUSH2 0x1A2C JUMP JUMPDEST SWAP1 POP SWAP2 SWAP1 POP JUMP JUMPDEST PUSH2 0x1A67 DUP2 PUSH2 0x1A4C JUMP JUMPDEST DUP3 MSTORE POP POP JUMP JUMPDEST PUSH1 0x0 PUSH1 0x20 DUP3 ADD SWAP1 POP PUSH2 0x1A82 PUSH1 0x0 DUP4 ADD DUP5 PUSH2 0x1A5E JUMP JUMPDEST SWAP3 SWAP2 POP POP JUMP JUMPDEST PUSH2 0x1A91 DUP2 PUSH2 0x1A4C JUMP JUMPDEST DUP2 EQ PUSH2 0x1A9C JUMPI PUSH1 0x0 DUP1 REVERT JUMPDEST POP JUMP JUMPDEST PUSH1 0x0 DUP2 CALLDATALOAD SWAP1 POP PUSH2 0x1AAE DUP2 PUSH2 0x1A88 JUMP JUMPDEST SWAP3 SWAP2 POP POP JUMP JUMPDEST PUSH1 0x0 DUP1 PUSH1 0x40 DUP4 DUP6 SUB SLT ISZERO PUSH2 0x1ACB JUMPI PUSH2 0x1ACA PUSH2 0x19BF JUMP JUMPDEST JUMPDEST PUSH1 0x0 PUSH2 0x1AD9 DUP6 DUP3 DUP7 ADD PUSH2 0x1A9F JUMP JUMPDEST SWAP3 POP POP PUSH1 0x20 PUSH2 0x1AEA DUP6 DUP3 DUP7 ADD PUSH2 0x19EA JUMP JUMPDEST SWAP2 POP POP SWAP3 POP SWAP3 SWAP1 POP JUMP JUMPDEST PUSH1 0x0 DUP1 PUSH1 0x0 PUSH1 0x60 DUP5 DUP7 SUB SLT ISZERO PUSH2 0x1B0D JUMPI PUSH2 0x1B0C PUSH2 0x19BF JUMP JUMPDEST JUMPDEST PUSH1 0x0 PUSH2 0x1B1B DUP7 DUP3 DUP8 ADD PUSH2 0x1A9F JUMP JUMPDEST SWAP4 POP POP PUSH1 0x20 PUSH2 0x1B2C DUP7 DUP3 DUP8 ADD PUSH2 0x1A9F JUMP JUMPDEST SWAP3 POP POP PUSH1 0x40 PUSH2 0x1B3D DUP7 DUP3 DUP8 ADD PUSH2 0x19EA JUMP JUMPDEST SWAP2 POP POP SWAP3 POP SWAP3 POP SWAP3 JUMP JUMPDEST PUSH1 0x0 DUP1 REVERT JUMPDEST PUSH1 0x0 DUP1 REVERT JUMPDEST PUSH32 0x4E487B7100000000000000000000000000000000000000000000000000000000 PUSH1 0x0 MSTORE PUSH1 0x41 PUSH1 0x4 MSTORE PUSH1 0x24 PUSH1 0x0 REVERT JUMPDEST PUSH2 0x1B89 DUP3 PUSH2 0x1949 JUMP JUMPDEST DUP2 ADD DUP2 DUP2 LT PUSH8 0xFFFFFFFFFFFFFFFF DUP3 GT OR ISZERO PUSH2 0x1BA8 JUMPI PUSH2 0x1BA7 PUSH2 0x1B51 JUMP JUMPDEST JUMPDEST DUP1 PUSH1 0x40 MSTORE POP POP POP JUMP JUMPDEST PUSH1 0x0 PUSH2 0x1BBB PUSH2 0x19B5 JUMP JUMPDEST SWAP1 POP PUSH2 0x1BC7 DUP3 DUP3 PUSH2 0x1B80 JUMP JUMPDEST SWAP2 SWAP1 POP JUMP JUMPDEST PUSH1 0x0 PUSH8 0xFFFFFFFFFFFFFFFF DUP3 GT ISZERO PUSH2 0x1BE7 JUMPI PUSH2 0x1BE6 PUSH2 0x1B51 JUMP JUMPDEST JUMPDEST PUSH2 0x1BF0 DUP3 PUSH2 0x1949 JUMP JUMPDEST SWAP1 POP PUSH1 0x20 DUP2 ADD SWAP1 POP SWAP2 SWAP1 POP JUMP JUMPDEST DUP3 DUP2 DUP4 CALLDATACOPY PUSH1 0x0 DUP4 DUP4 ADD MSTORE POP POP POP JUMP JUMPDEST PUSH1 0x0 PUSH2 0x1C1F PUSH2 0x1C1A DUP5 PUSH2 0x1BCC JUMP JUMPDEST PUSH2 0x1BB1 JUMP JUMPDEST SWAP1 POP DUP3 DUP2 MSTORE PUSH1 0x20 DUP2 ADD DUP5 DUP5 DUP5 ADD GT ISZERO PUSH2 0x1C3B JUMPI PUSH2 0x1C3A PUSH2 0x1B4C JUMP JUMPDEST JUMPDEST PUSH2 0x1C46 DUP5 DUP3 DUP6 PUSH2 0x1BFD JUMP JUMPDEST POP SWAP4 SWAP3 POP POP POP JUMP JUMPDEST PUSH1 0x0 DUP3 PUSH1 0x1F DUP4 ADD SLT PUSH2 0x1C63 JUMPI PUSH2 0x1C62 PUSH2 0x1B47 JUMP JUMPDEST JUMPDEST DUP2 CALLDATALOAD PUSH2 0x1C73 DUP5 DUP3 PUSH1 0x20 DUP7 ADD PUSH2 0x1C0C JUMP JUMPDEST SWAP2 POP POP SWAP3 SWAP2 POP POP JUMP JUMPDEST PUSH1 0x0 PUSH1 0x20 DUP3 DUP5 SUB SLT ISZERO PUSH2 0x1C92 JUMPI PUSH2 0x1C91 PUSH2 0x19BF JUMP JUMPDEST JUMPDEST PUSH1 0x0 DUP3 ADD CALLDATALOAD PUSH8 0xFFFFFFFFFFFFFFFF DUP2 GT ISZERO PUSH2 0x1CB0 JUMPI PUSH2 0x1CAF PUSH2 0x19C4 JUMP JUMPDEST JUMPDEST PUSH2 0x1CBC DUP5 DUP3 DUP6 ADD PUSH2 0x1C4E JUMP JUMPDEST SWAP2 POP POP SWAP3 SWAP2 POP POP JUMP JUMPDEST PUSH2 0x1CCE DUP2 PUSH2 0x19C9 JUMP JUMPDEST DUP3 MSTORE POP POP JUMP JUMPDEST PUSH1 0x0 PUSH1 0x20 DUP3 ADD SWAP1 POP PUSH2 0x1CE9 PUSH1 0x0 DUP4 ADD DUP5 PUSH2 0x1CC5 JUMP JUMPDEST SWAP3 SWAP2 POP POP JUMP JUMPDEST PUSH1 0x0 PUSH1 0x20 DUP3 DUP5 SUB SLT ISZERO PUSH2 0x1D05 JUMPI PUSH2 0x1D04 PUSH2 0x19BF JUMP JUMPDEST JUMPDEST PUSH1 0x0 PUSH2 0x1D13 DUP5 DUP3 DUP6 ADD PUSH2 0x1A9F JUMP JUMPDEST SWAP2 POP POP SWAP3 SWAP2 POP POP JUMP JUMPDEST PUSH1 0x0 PUSH8 0xFFFFFFFFFFFFFFFF DUP3 GT ISZERO PUSH2 0x1D37 JUMPI PUSH2 0x1D36 PUSH2 0x1B51 JUMP JUMPDEST JUMPDEST PUSH2 0x1D40 DUP3 PUSH2 0x1949 JUMP JUMPDEST SWAP1 POP PUSH1 0x20 DUP2 ADD SWAP1 POP SWAP2 SWAP1 POP JUMP JUMPDEST PUSH1 0x0 PUSH2 0x1D60 PUSH2 0x1D5B DUP5 PUSH2 0x1D1C JUMP JUMPDEST PUSH2 0x1BB1 JUMP JUMPDEST SWAP1 POP DUP3 DUP2 MSTORE PUSH1 0x20 DUP2 ADD DUP5 DUP5 DUP5 ADD GT ISZERO PUSH2 0x1D7C JUMPI PUSH2 0x1D7B PUSH2 0x1B4C JUMP JUMPDEST JUMPDEST PUSH2 0x1D87 DUP5 DUP3 DUP6 PUSH2 0x1BFD JUMP JUMPDEST POP SWAP4 SWAP3 POP POP POP JUMP JUMPDEST PUSH1 0x0 DUP3 PUSH1 0x1F DUP4 ADD SLT PUSH2 0x1DA4 JUMPI PUSH2 0x1DA3 PUSH2 0x1B47 JUMP JUMPDEST JUMPDEST DUP2 CALLDATALOAD PUSH2 0x1DB4 DUP5 DUP3 PUSH1 0x20 DUP7 ADD PUSH2 0x1D4D JUMP JUMPDEST SWAP2 POP POP SWAP3 SWAP2 POP POP JUMP JUMPDEST PUSH1 0x0 DUP1 PUSH1 0x0 DUP1 PUSH1 0x80 DUP6 DUP8 SUB SLT ISZERO PUSH2 0x1DD7 JUMPI PUSH2 0x1DD6 PUSH2 0x19BF JUMP JUMPDEST JUMPDEST PUSH1 0x0 PUSH2 0x1DE5 DUP8 DUP3 DUP9 ADD PUSH2 0x1A9F JUMP JUMPDEST SWAP5 POP POP PUSH1 0x20 PUSH2 0x1DF6 DUP8 DUP3 DUP9 ADD PUSH2 0x1A9F JUMP JUMPDEST SWAP4 POP POP PUSH1 0x40 PUSH2 0x1E07 DUP8 DUP3 DUP9 ADD PUSH2 0x19EA JUMP JUMPDEST SWAP3 POP POP PUSH1 0x60 DUP6 ADD CALLDATALOAD PUSH8 0xFFFFFFFFFFFFFFFF DUP2 GT ISZERO PUSH2 0x1E28 JUMPI PUSH2 0x1E27 PUSH2 0x19C4 JUMP JUMPDEST JUMPDEST PUSH2 0x1E34 DUP8 DUP3 DUP9 ADD PUSH2 0x1D8F JUMP JUMPDEST SWAP2 POP POP SWAP3 SWAP6 SWAP2 SWAP5 POP SWAP3 POP JUMP JUMPDEST PUSH32 0x4E487B7100000000000000000000000000000000000000000000000000000000 PUSH1 0x0 MSTORE PUSH1 0x22 PUSH1 0x4 MSTORE PUSH1 0x24 PUSH1 0x0 REVERT JUMPDEST PUSH1 0x0 PUSH1 0x2 DUP3 DIV SWAP1 POP PUSH1 0x1 DUP3 AND DUP1 PUSH2 0x1E87 JUMPI PUSH1 0x7F DUP3 AND SWAP2 POP JUMPDEST PUSH1 0x20 DUP3 LT DUP2 SUB PUSH2 0x1E9A JUMPI PUSH2 0x1E99 PUSH2 0x1E40 JUMP JUMPDEST JUMPDEST POP SWAP2 SWAP1 POP JUMP JUMPDEST PUSH32 0x4552433732313A20617070726F76656420717565727920666F72206E6F6E6578 PUSH1 0x0 DUP3 ADD MSTORE PUSH32 0x697374656E7420746F6B656E0000000000000000000000000000000000000000 PUSH1 0x20 DUP3 ADD MSTORE POP JUMP JUMPDEST PUSH1 0x0 PUSH2 0x1EFC PUSH1 0x2C DUP4 PUSH2 0x1905 JUMP JUMPDEST SWAP2 POP PUSH2 0x1F07 DUP3 PUSH2 0x1EA0 JUMP JUMPDEST PUSH1 0x40 DUP3 ADD SWAP1 POP SWAP2 SWAP1 POP JUMP JUMPDEST PUSH1 0x0 PUSH1 0x20 DUP3 ADD SWAP1 POP DUP2 DUP2 SUB PUSH1 0x0 DUP4 ADD MSTORE PUSH2 0x1F2B DUP2 PUSH2 0x1EEF JUMP JUMPDEST SWAP1 POP SWAP2 SWAP1 POP JUMP JUMPDEST PUSH32 0x4552433732313A20617070726F76616C20746F2063757272656E74206F776E65 PUSH1 0x0 DUP3 ADD MSTORE PUSH32 0x7200000000000000000000000000000000000000000000000000000000000000 PUSH1 0x20 DUP3 ADD MSTORE POP JUMP JUMPDEST PUSH1 0x0 PUSH2 0x1F8E PUSH1 0x21 DUP4 PUSH2 0x1905 JUMP JUMPDEST SWAP2 POP PUSH2 0x1F99 DUP3 PUSH2 0x1F32 JUMP JUMPDEST PUSH1 0x40 DUP3 ADD SWAP1 POP SWAP2 SWAP1 POP JUMP JUMPDEST PUSH1 0x0 PUSH1 0x20 DUP3 ADD SWAP1 POP DUP2 DUP2 SUB PUSH1 0x0 DUP4 ADD MSTORE PUSH2 0x1FBD DUP2 PUSH2 0x1F81 JUMP JUMPDEST SWAP1 POP SWAP2 SWAP1 POP JUMP JUMPDEST PUSH32 0x4552433732313A20617070726F76652063616C6C6572206973206E6F74206F77 PUSH1 0x0 DUP3 ADD MSTORE PUSH32 0x6E6572206E6F7220617070726F76656420666F7220616C6C0000000000000000 PUSH1 0x20 DUP3 ADD MSTORE POP JUMP JUMPDEST PUSH1 0x0 PUSH2 0x2020 PUSH1 0x38 DUP4 PUSH2 0x1905 JUMP JUMPDEST SWAP2 POP PUSH2 0x202B DUP3 PUSH2 0x1FC4 JUMP JUMPDEST PUSH1 0x40 DUP3 ADD SWAP1 POP SWAP2 SWAP1 POP JUMP JUMPDEST PUSH1 0x0 PUSH1 0x20 DUP3 ADD SWAP1 POP DUP2 DUP2 SUB PUSH1 0x0 DUP4 ADD MSTORE PUSH2 0x204F DUP2 PUSH2 0x2013 JUMP JUMPDEST SWAP1 POP SWAP2 SWAP1 POP JUMP JUMPDEST PUSH32 0x4552433732313A207472616E736665722063616C6C6572206973206E6F74206F PUSH1 0x0 DUP3 ADD MSTORE PUSH32 0x776E6572206E6F7220617070726F766564000000000000000000000000000000 PUSH1 0x20 DUP3 ADD MSTORE POP JUMP JUMPDEST PUSH1 0x0 PUSH2 0x20B2 PUSH1 0x31 DUP4 PUSH2 0x1905 JUMP JUMPDEST SWAP2 POP PUSH2 0x20BD DUP3 PUSH2 0x2056 JUMP JUMPDEST PUSH1 0x40 DUP3 ADD SWAP1 POP SWAP2 SWAP1 POP JUMP JUMPDEST PUSH1 0x0 PUSH1 0x20 DUP3 ADD SWAP1 POP DUP2 DUP2 SUB PUSH1 0x0 DUP4 ADD MSTORE PUSH2 0x20E1 DUP2 PUSH2 0x20A5 JUMP JUMPDEST SWAP1 POP SWAP2 SWAP1 POP JUMP JUMPDEST PUSH32 0x4F776E61626C653A2063616C6C6572206973206E6F7420746865206F776E6572 PUSH1 0x0 DUP3 ADD MSTORE POP JUMP JUMPDEST PUSH1 0x0 PUSH2 0x211E PUSH1 0x20 DUP4 PUSH2 0x1905 JUMP JUMPDEST SWAP2 POP PUSH2 0x2129 DUP3 PUSH2 0x20E8 JUMP JUMPDEST PUSH1 0x20 DUP3 ADD SWAP1 POP SWAP2 SWAP1 POP JUMP JUMPDEST PUSH1 0x0 PUSH1 0x20 DUP3 ADD SWAP1 POP DUP2 DUP2 SUB PUSH1 0x0 DUP4 ADD MSTORE PUSH2 0x214D DUP2 PUSH2 0x2111 JUMP JUMPDEST SWAP1 POP SWAP2 SWAP1 POP JUMP JUMPDEST PUSH32 0x4552433732313A206F776E657220717565727920666F72206E6F6E6578697374 PUSH1 0x0 DUP3 ADD MSTORE PUSH32 0x656E7420746F6B656E0000000000000000000000000000000000000000000000 PUSH1 0x20 DUP3 ADD MSTORE POP JUMP JUMPDEST PUSH1 0x0 PUSH2 0x21B0 PUSH1 0x29 DUP4 PUSH2 0x1905 JUMP JUMPDEST SWAP2 POP PUSH2 0x21BB DUP3 PUSH2 0x2154 JUMP JUMPDEST PUSH1 0x40 DUP3 ADD SWAP1 POP SWAP2 SWAP1 POP JUMP JUMPDEST PUSH1 0x0 PUSH1 0x20 DUP3 ADD SWAP1 POP DUP2 DUP2 SUB PUSH1 0x0 DUP4 ADD MSTORE PUSH2 0x21DF DUP2 PUSH2 0x21A3 JUMP JUMPDEST SWAP1 POP SWAP2 SWAP1 POP JUMP JUMPDEST PUSH32 0x4E487B7100000000000000000000000000000000000000000000000000000000 PUSH1 0x0 MSTORE PUSH1 0x11 PUSH1 0x4 MSTORE PUSH1 0x24 PUSH1 0x0 REVERT JUMPDEST PUSH1 0x0 PUSH2 0x2220 DUP3 PUSH2 0x19C9 JUMP JUMPDEST SWAP2 POP PUSH32 0xFFFFFFFFFFFFFFFFFFFFFFFFFFFFFFFFFFFFFFFFFFFFFFFFFFFFFFFFFFFFFFFF DUP3 SUB PUSH2 0x2252 JUMPI PUSH2 0x2251 PUSH2 0x21E6 JUMP JUMPDEST JUMPDEST PUSH1 0x1 DUP3 ADD SWAP1 POP SWAP2 SWAP1 POP JUMP JUMPDEST PUSH32 0x4552433732313A2062616C616E636520717565727920666F7220746865207A65 PUSH1 0x0 DUP3 ADD MSTORE PUSH32 0x726F206164647265737300000000000000000000000000000000000000000000 PUSH1 0x20 DUP3 ADD MSTORE POP JUMP JUMPDEST PUSH1 0x0 PUSH2 0x22B9 PUSH1 0x2A DUP4 PUSH2 0x1905 JUMP JUMPDEST SWAP2 POP PUSH2 0x22C4 DUP3 PUSH2 0x225D JUMP JUMPDEST PUSH1 0x40 DUP3 ADD SWAP1 POP SWAP2 SWAP1 POP JUMP JUMPDEST PUSH1 0x0 PUSH1 0x20 DUP3 ADD SWAP1 POP DUP2 DUP2 SUB PUSH1 0x0 DUP4 ADD MSTORE PUSH2 0x22E8 DUP2 PUSH2 0x22AC JUMP JUMPDEST SWAP1 POP SWAP2 SWAP1 POP JUMP JUMPDEST PUSH32 0x4552433732314D657461646174613A2055524920717565727920666F72206E6F PUSH1 0x0 DUP3 ADD MSTORE PUSH32 0x6E6578697374656E7420746F6B656E0000000000000000000000000000000000 PUSH1 0x20 DUP3 ADD MSTORE POP JUMP JUMPDEST PUSH1 0x0 PUSH2 0x234B PUSH1 0x2F DUP4 PUSH2 0x1905 JUMP JUMPDEST SWAP2 POP PUSH2 0x2356 DUP3 PUSH2 0x22EF JUMP JUMPDEST PUSH1 0x40 DUP3 ADD SWAP1 POP SWAP2 SWAP1 POP JUMP JUMPDEST PUSH1 0x0 PUSH1 0x20 DUP3 ADD SWAP1 POP DUP2 DUP2 SUB PUSH1 0x0 DUP4 ADD MSTORE PUSH2 0x237A DUP2 PUSH2 0x233E JUMP JUMPDEST SWAP1 POP SWAP2 SWAP1 POP JUMP JUMPDEST PUSH1 0x0 DUP2 SWAP1 POP SWAP3 SWAP2 POP POP JUMP JUMPDEST PUSH1 0x0 PUSH2 0x2397 DUP3 PUSH2 0x18FA JUMP JUMPDEST PUSH2 0x23A1 DUP2 DUP6 PUSH2 0x2381 JUMP JUMPDEST SWAP4 POP PUSH2 0x23B1 DUP2 DUP6 PUSH1 0x20 DUP7 ADD PUSH2 0x1916 JUMP JUMPDEST DUP1 DUP5 ADD SWAP2 POP POP SWAP3 SWAP2 POP POP JUMP JUMPDEST PUSH1 0x0 PUSH2 0x23C9 DUP3 DUP6 PUSH2 0x238C JUMP JUMPDEST SWAP2 POP PUSH2 0x23D5 DUP3 DUP5 PUSH2 0x238C JUMP JUMPDEST SWAP2 POP DUP2 SWAP1 POP SWAP4 SWAP3 POP POP POP JUMP JUMPDEST PUSH32 0x4F776E61626C653A206E6577206F776E657220697320746865207A65726F2061 PUSH1 0x0 DUP3 ADD MSTORE PUSH32 0x6464726573730000000000000000000000000000000000000000000000000000 PUSH1 0x20 DUP3 ADD MSTORE POP JUMP JUMPDEST PUSH1 0x0 PUSH2 0x243D PUSH1 0x26 DUP4 PUSH2 0x1905 JUMP JUMPDEST SWAP2 POP PUSH2 0x2448 DUP3 PUSH2 0x23E1 JUMP JUMPDEST PUSH1 0x40 DUP3 ADD SWAP1 POP SWAP2 SWAP1 POP JUMP JUMPDEST PUSH1 0x0 PUSH1 0x20 DUP3 ADD SWAP1 POP DUP2 DUP2 SUB PUSH1 0x0 DUP4 ADD MSTORE PUSH2 0x246C DUP2 PUSH2 0x2430 JUMP JUMPDEST SWAP1 POP SWAP2 SWAP1 POP JUMP JUMPDEST PUSH32 0x4552433732313A206F70657261746F7220717565727920666F72206E6F6E6578 PUSH1 0x0 DUP3 ADD MSTORE PUSH32 0x697374656E7420746F6B656E0000000000000000000000000000000000000000 PUSH1 0x20 DUP3 ADD MSTORE POP JUMP JUMPDEST PUSH1 0x0 PUSH2 0x24CF PUSH1 0x2C DUP4 PUSH2 0x1905 JUMP JUMPDEST SWAP2 POP PUSH2 0x24DA DUP3 PUSH2 0x2473 JUMP JUMPDEST PUSH1 0x40 DUP3 ADD SWAP1 POP SWAP2 SWAP1 POP JUMP JUMPDEST PUSH1 0x0 PUSH1 0x20 DUP3 ADD SWAP1 POP DUP2 DUP2 SUB PUSH1 0x0 DUP4 ADD MSTORE PUSH2 0x24FE DUP2 PUSH2 0x24C2 JUMP JUMPDEST SWAP1 POP SWAP2 SWAP1 POP JUMP JUMPDEST PUSH32 0x4552433732313A207472616E736665722066726F6D20696E636F727265637420 PUSH1 0x0 DUP3 ADD MSTORE PUSH32 0x6F776E6572000000000000000000000000000000000000000000000000000000 PUSH1 0x20 DUP3 ADD MSTORE POP JUMP JUMPDEST PUSH1 0x0 PUSH2 0x2561 PUSH1 0x25 DUP4 PUSH2 0x1905 JUMP JUMPDEST SWAP2 POP PUSH2 0x256C DUP3 PUSH2 0x2505 JUMP JUMPDEST PUSH1 0x40 DUP3 ADD SWAP1 POP SWAP2 SWAP1 POP JUMP JUMPDEST PUSH1 0x0 PUSH1 0x20 DUP3 ADD SWAP1 POP DUP2 DUP2 SUB PUSH1 0x0 DUP4 ADD MSTORE PUSH2 0x2590 DUP2 PUSH2 0x2554 JUMP JUMPDEST SWAP1 POP SWAP2 SWAP1 POP JUMP JUMPDEST PUSH32 0x4552433732313A207472616E7366657220746F20746865207A65726F20616464 PUSH1 0x0 DUP3 ADD MSTORE PUSH32 0x7265737300000000000000000000000000000000000000000000000000000000 PUSH1 0x20 DUP3 ADD MSTORE POP JUMP JUMPDEST PUSH1 0x0 PUSH2 0x25F3 PUSH1 0x24 DUP4 PUSH2 0x1905 JUMP JUMPDEST SWAP2 POP PUSH2 0x25FE DUP3 PUSH2 0x2597 JUMP JUMPDEST PUSH1 0x40 DUP3 ADD SWAP1 POP SWAP2 SWAP1 POP JUMP JUMPDEST PUSH1 0x0 PUSH1 0x20 DUP3 ADD SWAP1 POP DUP2 DUP2 SUB PUSH1 0x0 DUP4 ADD MSTORE PUSH2 0x2622 DUP2 PUSH2 0x25E6 JUMP JUMPDEST SWAP1 POP SWAP2 SWAP1 POP JUMP JUMPDEST PUSH1 0x0 PUSH2 0x2634 DUP3 PUSH2 0x19C9 JUMP JUMPDEST SWAP2 POP PUSH2 0x263F DUP4 PUSH2 0x19C9 JUMP JUMPDEST SWAP3 POP DUP3 DUP3 LT ISZERO PUSH2 0x2652 JUMPI PUSH2 0x2651 PUSH2 0x21E6 JUMP JUMPDEST JUMPDEST DUP3 DUP3 SUB SWAP1 POP SWAP3 SWAP2 POP POP JUMP JUMPDEST PUSH1 0x0 PUSH2 0x2668 DUP3 PUSH2 0x19C9 JUMP JUMPDEST SWAP2 POP PUSH2 0x2673 DUP4 PUSH2 0x19C9 JUMP JUMPDEST SWAP3 POP DUP3 PUSH32 0xFFFFFFFFFFFFFFFFFFFFFFFFFFFFFFFFFFFFFFFFFFFFFFFFFFFFFFFFFFFFFFFF SUB DUP3 GT ISZERO PUSH2 0x26A8 JUMPI PUSH2 0x26A7 PUSH2 0x21E6 JUMP JUMPDEST JUMPDEST DUP3 DUP3 ADD SWAP1 POP SWAP3 SWAP2 POP POP JUMP JUMPDEST PUSH32 0x4552433732313A20746F6B656E20616C7265616479206D696E74656400000000 PUSH1 0x0 DUP3 ADD MSTORE POP JUMP JUMPDEST PUSH1 0x0 PUSH2 0x26E9 PUSH1 0x1C DUP4 PUSH2 0x1905 JUMP JUMPDEST SWAP2 POP PUSH2 0x26F4 DUP3 PUSH2 0x26B3 JUMP JUMPDEST PUSH1 0x20 DUP3 ADD SWAP1 POP SWAP2 SWAP1 POP JUMP JUMPDEST PUSH1 0x0 PUSH1 0x20 DUP3 ADD SWAP1 POP DUP2 DUP2 SUB PUSH1 0x0 DUP4 ADD MSTORE PUSH2 0x2718 DUP2 PUSH2 0x26DC JUMP JUMPDEST SWAP1 POP SWAP2 SWAP1 POP JUMP JUMPDEST PUSH1 0x0 DUP2 MLOAD SWAP1 POP PUSH2 0x272E DUP2 PUSH2 0x1A88 JUMP JUMPDEST SWAP3 SWAP2 POP POP JUMP JUMPDEST PUSH1 0x0 PUSH1 0x20 DUP3 DUP5 SUB SLT ISZERO PUSH2 0x274A JUMPI PUSH2 0x2749 PUSH2 0x19BF JUMP JUMPDEST JUMPDEST PUSH1 0x0 PUSH2 0x2758 DUP5 DUP3 DUP6 ADD PUSH2 0x271F JUMP JUMPDEST SWAP2 POP POP SWAP3 SWAP2 POP POP JUMP JUMPDEST PUSH32 0x4552433732314D657461646174613A2055524920736574206F66206E6F6E6578 PUSH1 0x0 DUP3 ADD MSTORE PUSH32 0x697374656E7420746F6B656E0000000000000000000000000000000000000000 PUSH1 0x20 DUP3 ADD MSTORE POP JUMP JUMPDEST PUSH1 0x0 PUSH2 0x27BD PUSH1 0x2C DUP4 PUSH2 0x1905 JUMP JUMPDEST SWAP2 POP PUSH2 0x27C8 DUP3 PUSH2 0x2761 JUMP JUMPDEST PUSH1 0x40 DUP3 ADD SWAP1 POP SWAP2 SWAP1 POP JUMP JUMPDEST PUSH1 0x0 PUSH1 0x20 DUP3 ADD SWAP1 POP DUP2 DUP2 SUB PUSH1 0x0 DUP4 ADD MSTORE PUSH2 0x27EC DUP2 PUSH2 0x27B0 JUMP JUMPDEST SWAP1 POP SWAP2 SWAP1 POP JUMP JUMPDEST PUSH32 0x4552433732313A207472616E7366657220746F206E6F6E204552433732315265 PUSH1 0x0 DUP3 ADD MSTORE PUSH32 0x63656976657220696D706C656D656E7465720000000000000000000000000000 PUSH1 0x20 DUP3 ADD MSTORE POP JUMP JUMPDEST PUSH1 0x0 PUSH2 0x284F PUSH1 0x32 DUP4 PUSH2 0x1905 JUMP JUMPDEST SWAP2 POP PUSH2 0x285A DUP3 PUSH2 0x27F3 JUMP JUMPDEST PUSH1 0x40 DUP3 ADD SWAP1 POP SWAP2 SWAP1 POP JUMP JUMPDEST PUSH1 0x0 PUSH1 0x20 DUP3 ADD SWAP1 POP DUP2 DUP2 SUB PUSH1 0x0 DUP4 ADD MSTORE PUSH2 0x287E DUP2 PUSH2 0x2842 JUMP JUMPDEST SWAP1 POP SWAP2 SWAP1 POP JUMP JUMPDEST PUSH32 0x4E487B7100000000000000000000000000000000000000000000000000000000 PUSH1 0x0 MSTORE PUSH1 0x12 PUSH1 0x4 MSTORE PUSH1 0x24 PUSH1 0x0 REVERT JUMPDEST PUSH1 0x0 PUSH2 0x28BF DUP3 PUSH2 0x19C9 JUMP JUMPDEST SWAP2 POP PUSH2 0x28CA DUP4 PUSH2 0x19C9 JUMP JUMPDEST SWAP3 POP DUP3 PUSH2 0x28DA JUMPI PUSH2 0x28D9 PUSH2 0x2885 JUMP JUMPDEST JUMPDEST DUP3 DUP3 DIV SWAP1 POP SWAP3 SWAP2 POP POP JUMP JUMPDEST PUSH1 0x0 PUSH2 0x28F0 DUP3 PUSH2 0x19C9 JUMP JUMPDEST SWAP2 POP PUSH2 0x28FB DUP4 PUSH2 0x19C9 JUMP JUMPDEST SWAP3 POP DUP3 PUSH2 0x290B JUMPI PUSH2 0x290A PUSH2 0x2885 JUMP JUMPDEST JUMPDEST DUP3 DUP3 MOD SWAP1 POP SWAP3 SWAP2 POP POP JUMP JUMPDEST PUSH32 0x4E487B7100000000000000000000000000000000000000000000000000000000 PUSH1 0x0 MSTORE PUSH1 0x32 PUSH1 0x4 MSTORE PUSH1 0x24 PUSH1 0x0 REVERT JUMPDEST PUSH32 0x4552433732313A207472616E73666572206E6F74206F776E657220746F6B656E PUSH1 0x0 DUP3 ADD MSTORE POP JUMP JUMPDEST PUSH1 0x0 PUSH2 0x297B PUSH1 0x20 DUP4 PUSH2 0x1905 JUMP JUMPDEST SWAP2 POP PUSH2 0x2986 DUP3 PUSH2 0x2945 JUMP JUMPDEST PUSH1 0x20 DUP3 ADD SWAP1 POP SWAP2 SWAP1 POP JUMP JUMPDEST PUSH1 0x0 PUSH1 0x20 DUP3 ADD SWAP1 POP DUP2 DUP2 SUB PUSH1 0x0 DUP4 ADD MSTORE PUSH2 0x29AA DUP2 PUSH2 0x296E JUMP JUMPDEST SWAP1 POP SWAP2 SWAP1 POP JUMP JUMPDEST PUSH1 0x0 DUP2 MLOAD SWAP1 POP SWAP2 SWAP1 POP JUMP JUMPDEST PUSH1 0x0 DUP3 DUP3 MSTORE PUSH1 0x20 DUP3 ADD SWAP1 POP SWAP3 SWAP2 POP POP JUMP JUMPDEST PUSH1 0x0 PUSH2 0x29D8 DUP3 PUSH2 0x29B1 JUMP JUMPDEST PUSH2 0x29E2 DUP2 DUP6 PUSH2 0x29BC JUMP JUMPDEST SWAP4 POP PUSH2 0x29F2 DUP2 DUP6 PUSH1 0x20 DUP7 ADD PUSH2 0x1916 JUMP JUMPDEST PUSH2 0x29FB DUP2 PUSH2 0x1949 JUMP JUMPDEST DUP5 ADD SWAP2 POP POP SWAP3 SWAP2 POP POP JUMP JUMPDEST PUSH1 0x0 PUSH1 0x80 DUP3 ADD SWAP1 POP PUSH2 0x2A1B PUSH1 0x0 DUP4 ADD DUP8 PUSH2 0x1A5E JUMP JUMPDEST PUSH2 0x2A28 PUSH1 0x20 DUP4 ADD DUP7 PUSH2 0x1A5E JUMP JUMPDEST PUSH2 0x2A35 PUSH1 0x40 DUP4 ADD DUP6 PUSH2 0x1CC5 JUMP JUMPDEST DUP2 DUP2 SUB PUSH1 0x60 DUP4 ADD MSTORE PUSH2 0x2A47 DUP2 DUP5 PUSH2 0x29CD JUMP JUMPDEST SWAP1 POP SWAP6 SWAP5 POP POP POP POP POP JUMP JUMPDEST PUSH1 0x0 PUSH32 0xFFFFFFFF00000000000000000000000000000000000000000000000000000000 DUP3 AND SWAP1 POP SWAP2 SWAP1 POP JUMP JUMPDEST PUSH2 0x2A87 DUP2 PUSH2 0x2A52 JUMP JUMPDEST DUP2 EQ PUSH2 0x2A92 JUMPI PUSH1 0x0 DUP1 REVERT JUMPDEST POP JUMP JUMPDEST PUSH1 0x0 DUP2 MLOAD SWAP1 POP PUSH2 0x2AA4 DUP2 PUSH2 0x2A7E JUMP JUMPDEST SWAP3 SWAP2 POP POP JUMP JUMPDEST PUSH1 0x0 PUSH1 0x20 DUP3 DUP5 SUB SLT ISZERO PUSH2 0x2AC0 JUMPI PUSH2 0x2ABF PUSH2 0x19BF JUMP JUMPDEST JUMPDEST PUSH1 0x0 PUSH2 0x2ACE DUP5 DUP3 DUP6 ADD PUSH2 0x2A95 JUMP JUMPDEST SWAP2 POP POP SWAP3 SWAP2 POP POP JUMP INVALID LOG2 PUSH5 0x6970667358 0x22 SLT KECCAK256 GASPRICE 0x2A 0xBE CALLDATACOPY 0x4D 0xDA SWAP8 MSTORE8 0x22 CODESIZE 0xA9 LOG2 SDIV 0x21 0x4E DUP7 PUSH21 0xC499EBB5EB4DB27725128F84C2A69A64736F6C6343 STOP ADDMOD 0xD STOP CALLER "
				},
				"gasEstimates": {
					"creation": {
						"codeDepositCost": "2204200",
						"executionCost": "infinite",
						"totalCost": "infinite"
					},
					"external": {
						"approve(address,uint256)": "infinite",
						"balanceOf(address)": "2921",
						"getApproved(uint256)": "5206",
						"name()": "infinite",
						"newItem(string)": "infinite",
						"nextId()": "2496",
						"owner()": "2611",
						"ownerOf(uint256)": "3063",
						"renounceOwnership()": "30441",
						"safeTransferFrom(address,address,uint256)": "infinite",
						"safeTransferFrom(address,address,uint256,bytes)": "infinite",
						"setBaseURI(string)": "infinite",
						"symbol()": "infinite",
						"tokenURI(uint256)": "infinite",
						"transferFrom(address,address,uint256)": "infinite",
						"transferOwnership(address)": "30808"
					},
					"internal": {
						"_baseURI()": "infinite",
						"_setTokenURI(uint256,string memory)": "infinite"
					}
				},
				"methodIdentifiers": {
					"approve(address,uint256)": "095ea7b3",
					"balanceOf(address)": "70a08231",
					"getApproved(uint256)": "081812fc",
					"name()": "06fdde03",
					"newItem(string)": "659b3c43",
					"nextId()": "61b8ce8c",
					"owner()": "8da5cb5b",
					"ownerOf(uint256)": "6352211e",
					"renounceOwnership()": "715018a6",
					"safeTransferFrom(address,address,uint256)": "42842e0e",
					"safeTransferFrom(address,address,uint256,bytes)": "b88d4fde",
					"setBaseURI(string)": "55f804b3",
					"symbol()": "95d89b41",
					"tokenURI(uint256)": "c87b56dd",
					"transferFrom(address,address,uint256)": "23b872dd",
					"transferOwnership(address)": "f2fde38b"
				}
			},
			"storageLayout": {
				"storage": [
					{
						"astId": 516,
						"contract": "contracts/NFT_Demo/NFT.sol:SQFItem",
						"label": "_owner",
						"offset": 0,
						"slot": "0",
						"type": "t_address"
					},
					{
						"astId": 731,
						"contract": "contracts/NFT_Demo/NFT.sol:SQFItem",
						"label": "_balances",
						"offset": 0,
						"slot": "1",
						"type": "t_mapping(t_address,t_uint256)"
					},
					{
						"astId": 735,
						"contract": "contracts/NFT_Demo/NFT.sol:SQFItem",
						"label": "_owners",
						"offset": 0,
						"slot": "2",
						"type": "t_mapping(t_uint256,t_address)"
					},
					{
						"astId": 739,
						"contract": "contracts/NFT_Demo/NFT.sol:SQFItem",
						"label": "_tokenURIs",
						"offset": 0,
						"slot": "3",
						"type": "t_mapping(t_uint256,t_address)"
					},
					{
						"astId": 743,
						"contract": "contracts/NFT_Demo/NFT.sol:SQFItem",
						"label": "_tokenApprovals",
						"offset": 0,
						"slot": "4",
						"type": "t_mapping(t_uint256,t_address)"
					},
					{
						"astId": 749,
						"contract": "contracts/NFT_Demo/NFT.sol:SQFItem",
						"label": "_operatorApprovals",
						"offset": 0,
						"slot": "5",
						"type": "t_mapping(t_address,t_mapping(t_address,t_bool))"
					},
					{
						"astId": 751,
						"contract": "contracts/NFT_Demo/NFT.sol:SQFItem",
						"label": "_name",
						"offset": 0,
						"slot": "6",
						"type": "t_string_storage"
					},
					{
						"astId": 753,
						"contract": "contracts/NFT_Demo/NFT.sol:SQFItem",
						"label": "_symbol",
						"offset": 0,
						"slot": "7",
						"type": "t_string_storage"
					},
					{
						"astId": 755,
						"contract": "contracts/NFT_Demo/NFT.sol:SQFItem",
						"label": "_tokenURIBase",
						"offset": 0,
						"slot": "8",
						"type": "t_string_storage"
					},
					{
						"astId": 1520,
						"contract": "contracts/NFT_Demo/NFT.sol:SQFItem",
						"label": "_baseURIextended",
						"offset": 0,
						"slot": "9",
						"type": "t_string_storage"
					},
					{
						"astId": 1523,
						"contract": "contracts/NFT_Demo/NFT.sol:SQFItem",
						"label": "nextId",
						"offset": 0,
						"slot": "10",
						"type": "t_uint256"
					},
					{
						"astId": 1527,
						"contract": "contracts/NFT_Demo/NFT.sol:SQFItem",
						"label": "weapons",
						"offset": 0,
						"slot": "11",
						"type": "t_mapping(t_uint256,t_address)"
					},
					{
						"astId": 1531,
						"contract": "contracts/NFT_Demo/NFT.sol:SQFItem",
						"label": "_tokenURIs",
						"offset": 0,
						"slot": "12",
						"type": "t_mapping(t_uint256,t_string_storage)"
					}
				],
				"types": {
					"t_address": {
						"encoding": "inplace",
						"label": "address",
						"numberOfBytes": "20"
					},
					"t_bool": {
						"encoding": "inplace",
						"label": "bool",
						"numberOfBytes": "1"
					},
					"t_mapping(t_address,t_bool)": {
						"encoding": "mapping",
						"key": "t_address",
						"label": "mapping(address => bool)",
						"numberOfBytes": "32",
						"value": "t_bool"
					},
					"t_mapping(t_address,t_mapping(t_address,t_bool))": {
						"encoding": "mapping",
						"key": "t_address",
						"label": "mapping(address => mapping(address => bool))",
						"numberOfBytes": "32",
						"value": "t_mapping(t_address,t_bool)"
					},
					"t_mapping(t_address,t_uint256)": {
						"encoding": "mapping",
						"key": "t_address",
						"label": "mapping(address => uint256)",
						"numberOfBytes": "32",
						"value": "t_uint256"
					},
					"t_mapping(t_uint256,t_address)": {
						"encoding": "mapping",
						"key": "t_uint256",
						"label": "mapping(uint256 => address)",
						"numberOfBytes": "32",
						"value": "t_address"
					},
					"t_mapping(t_uint256,t_string_storage)": {
						"encoding": "mapping",
						"key": "t_uint256",
						"label": "mapping(uint256 => string)",
						"numberOfBytes": "32",
						"value": "t_string_storage"
					},
					"t_string_storage": {
						"encoding": "bytes",
						"label": "string",
						"numberOfBytes": "32"
					},
					"t_uint256": {
						"encoding": "inplace",
						"label": "uint256",
						"numberOfBytes": "32"
					}
				}
			},
			"userdoc": {
				"kind": "user",
				"methods": {},
				"version": 1
			}
		}
	}
}