{
	"contracts/NFT_Demo/NFT.sol": {
		"SQFItem": {
			"abi": [
				{
					"inputs": [],
					"stateMutability": "nonpayable",
					"type": "constructor"
				},
				{
					"anonymous": false,
					"inputs": [
						{
							"indexed": true,
							"internalType": "address",
							"name": "owner",
							"type": "address"
						},
						{
							"indexed": true,
							"internalType": "address",
							"name": "approved",
							"type": "address"
						},
						{
							"indexed": true,
							"internalType": "uint256",
							"name": "tokenId",
							"type": "uint256"
						}
					],
					"name": "Approval",
					"type": "event"
				},
				{
					"anonymous": false,
					"inputs": [
						{
							"indexed": true,
							"internalType": "address",
							"name": "owner",
							"type": "address"
						},
						{
							"indexed": true,
							"internalType": "address",
							"name": "operator",
							"type": "address"
						},
						{
							"indexed": false,
							"internalType": "bool",
							"name": "approved",
							"type": "bool"
						}
					],
					"name": "ApprovalForAll",
					"type": "event"
				},
				{
					"anonymous": false,
					"inputs": [
						{
							"indexed": true,
							"internalType": "uint256",
							"name": "_tokenId",
							"type": "uint256"
						}
					],
					"name": "NewItem",
					"type": "event"
				},
				{
					"anonymous": false,
					"inputs": [
						{
							"indexed": true,
							"internalType": "address",
							"name": "previousOwner",
							"type": "address"
						},
						{
							"indexed": true,
							"internalType": "address",
							"name": "newOwner",
							"type": "address"
						}
					],
					"name": "OwnershipTransferred",
					"type": "event"
				},
				{
					"anonymous": false,
					"inputs": [
						{
							"indexed": true,
							"internalType": "address",
							"name": "from",
							"type": "address"
						},
						{
							"indexed": true,
							"internalType": "address",
							"name": "to",
							"type": "address"
						},
						{
							"indexed": true,
							"internalType": "uint256",
							"name": "tokenId",
							"type": "uint256"
						}
					],
					"name": "Transfer",
					"type": "event"
				},
				{
					"inputs": [
						{
							"internalType": "address",
							"name": "to",
							"type": "address"
						},
						{
							"internalType": "uint256",
							"name": "tokenId",
							"type": "uint256"
						}
					],
					"name": "approve",
					"outputs": [],
					"stateMutability": "nonpayable",
					"type": "function"
				},
				{
					"inputs": [
						{
							"internalType": "address",
							"name": "owner",
							"type": "address"
						}
					],
					"name": "balanceOf",
					"outputs": [
						{
							"internalType": "uint256",
							"name": "",
							"type": "uint256"
						}
					],
					"stateMutability": "view",
					"type": "function"
				},
				{
					"inputs": [
						{
							"internalType": "uint256",
							"name": "tokenId",
							"type": "uint256"
						}
					],
					"name": "getApproved",
					"outputs": [
						{
							"internalType": "address",
							"name": "",
							"type": "address"
						}
					],
					"stateMutability": "view",
					"type": "function"
				},
				{
					"inputs": [],
					"name": "name",
					"outputs": [
						{
							"internalType": "string",
							"name": "",
							"type": "string"
						}
					],
					"stateMutability": "view",
					"type": "function"
				},
				{
					"inputs": [
						{
							"internalType": "address",
							"name": "_to",
							"type": "address"
						},
						{
							"internalType": "string",
							"name": "tokenURI_",
							"type": "string"
						}
					],
					"name": "newItem",
					"outputs": [],
					"stateMutability": "nonpayable",
					"type": "function"
				},
				{
					"inputs": [],
					"name": "nextId",
					"outputs": [
						{
							"internalType": "uint256",
							"name": "",
							"type": "uint256"
						}
					],
					"stateMutability": "view",
					"type": "function"
				},
				{
					"inputs": [],
					"name": "owner",
					"outputs": [
						{
							"internalType": "address",
							"name": "",
							"type": "address"
						}
					],
					"stateMutability": "view",
					"type": "function"
				},
				{
					"inputs": [
						{
							"internalType": "uint256",
							"name": "tokenId",
							"type": "uint256"
						}
					],
					"name": "ownerOf",
					"outputs": [
						{
							"internalType": "address",
							"name": "",
							"type": "address"
						}
					],
					"stateMutability": "view",
					"type": "function"
				},
				{
					"inputs": [],
					"name": "renounceOwnership",
					"outputs": [],
					"stateMutability": "nonpayable",
					"type": "function"
				},
				{
					"inputs": [
						{
							"internalType": "address",
							"name": "from",
							"type": "address"
						},
						{
							"internalType": "address",
							"name": "to",
							"type": "address"
						},
						{
							"internalType": "uint256",
							"name": "tokenId",
							"type": "uint256"
						}
					],
					"name": "safeTransferFrom",
					"outputs": [],
					"stateMutability": "nonpayable",
					"type": "function"
				},
				{
					"inputs": [
						{
							"internalType": "address",
							"name": "from",
							"type": "address"
						},
						{
							"internalType": "address",
							"name": "to",
							"type": "address"
						},
						{
							"internalType": "uint256",
							"name": "tokenId",
							"type": "uint256"
						},
						{
							"internalType": "bytes",
							"name": "_data",
							"type": "bytes"
						}
					],
					"name": "safeTransferFrom",
					"outputs": [],
					"stateMutability": "nonpayable",
					"type": "function"
				},
				{
					"inputs": [
						{
							"internalType": "string",
							"name": "baseURI_",
							"type": "string"
						}
					],
					"name": "setBaseURI",
					"outputs": [],
					"stateMutability": "nonpayable",
					"type": "function"
				},
				{
					"inputs": [],
					"name": "symbol",
					"outputs": [
						{
							"internalType": "string",
							"name": "",
							"type": "string"
						}
					],
					"stateMutability": "view",
					"type": "function"
				},
				{
					"inputs": [
						{
							"internalType": "uint256",
							"name": "tokenId",
							"type": "uint256"
						}
					],
					"name": "tokenURI",
					"outputs": [
						{
							"internalType": "string",
							"name": "",
							"type": "string"
						}
					],
					"stateMutability": "view",
					"type": "function"
				},
				{
					"inputs": [
						{
							"internalType": "address",
							"name": "from",
							"type": "address"
						},
						{
							"internalType": "address",
							"name": "to",
							"type": "address"
						},
						{
							"internalType": "uint256",
							"name": "tokenId",
							"type": "uint256"
						}
					],
					"name": "transferFrom",
					"outputs": [],
					"stateMutability": "nonpayable",
					"type": "function"
				},
				{
					"inputs": [
						{
							"internalType": "address",
							"name": "newOwner",
							"type": "address"
						}
					],
					"name": "transferOwnership",
					"outputs": [],
					"stateMutability": "nonpayable",
					"type": "function"
				}
			],
			"devdoc": {
				"kind": "dev",
				"methods": {},
				"version": 1
			},
			"evm": {
				"assembly": "    /* \"contracts/NFT_Demo/NFT.sol\":17820:19701  contract SQFItem is ERC721 {... */\n  mstore(0x40, 0x80)\n    /* \"contracts/NFT_Demo/NFT.sol\":17998:17999  1 */\n  0x01\n    /* \"contracts/NFT_Demo/NFT.sol\":17974:17999  uint256 public nextId = 1 */\n  0x0a\n  sstore\n    /* \"contracts/NFT_Demo/NFT.sol\":18106:18154  constructor() ERC721(\"SQFITEM\", \"SQFI\") {... */\n  callvalue\n  dup1\n  iszero\n  tag_1\n  jumpi\n  0x00\n  dup1\n  revert\ntag_1:\n  pop\n    /* \"contracts/NFT_Demo/NFT.sol\":9062:9175  constructor(string memory name_, string memory symbol_) {... */\n  mload(0x40)\n  dup1\n  0x40\n  add\n  0x40\n  mstore\n  dup1\n  0x07\n  dup2\n  mstore\n  0x20\n  add\n  0x5351464954454d00000000000000000000000000000000000000000000000000\n  dup2\n  mstore\n  pop\n  mload(0x40)\n  dup1\n  0x40\n  add\n  0x40\n  mstore\n  dup1\n  0x04\n  dup2\n  mstore\n  0x20\n  add\n  0x5351464900000000000000000000000000000000000000000000000000000000\n  dup2\n  mstore\n  pop\n    /* \"contracts/NFT_Demo/NFT.sol\":6281:6313  _transferOwnership(_msgSender()) */\n  tag_6\n    /* \"contracts/NFT_Demo/NFT.sol\":6300:6312  _msgSender() */\n  tag_7\n    /* \"contracts/NFT_Demo/NFT.sol\":6300:6310  _msgSender */\n  shl(0x20, tag_8)\n    /* \"contracts/NFT_Demo/NFT.sol\":6300:6312  _msgSender() */\n  0x20\n  shr\n  jump\t// in\ntag_7:\n    /* \"contracts/NFT_Demo/NFT.sol\":6281:6299  _transferOwnership */\n  shl(0x20, tag_9)\n    /* \"contracts/NFT_Demo/NFT.sol\":6281:6313  _transferOwnership(_msgSender()) */\n  0x20\n  shr\n  jump\t// in\ntag_6:\n    /* \"contracts/NFT_Demo/NFT.sol\":9136:9141  name_ */\n  dup2\n    /* \"contracts/NFT_Demo/NFT.sol\":9128:9133  _name */\n  0x06\n    /* \"contracts/NFT_Demo/NFT.sol\":9128:9141  _name = name_ */\n  swap1\n  dup1\n  mload\n  swap1\n  0x20\n  add\n  swap1\n  tag_11\n  swap3\n  swap2\n  swap1\n  tag_12\n  jump\t// in\ntag_11:\n  pop\n    /* \"contracts/NFT_Demo/NFT.sol\":9161:9168  symbol_ */\n  dup1\n    /* \"contracts/NFT_Demo/NFT.sol\":9151:9158  _symbol */\n  0x07\n    /* \"contracts/NFT_Demo/NFT.sol\":9151:9168  _symbol = symbol_ */\n  swap1\n  dup1\n  mload\n  swap1\n  0x20\n  add\n  swap1\n  tag_13\n  swap3\n  swap2\n  swap1\n  tag_12\n  jump\t// in\ntag_13:\n  pop\n    /* \"contracts/NFT_Demo/NFT.sol\":9062:9175  constructor(string memory name_, string memory symbol_) {... */\n  pop\n  pop\n    /* \"contracts/NFT_Demo/NFT.sol\":17820:19701  contract SQFItem is ERC721 {... */\n  jump(tag_15)\n    /* \"contracts/NFT_Demo/NFT.sol\":99:195  function _msgSender() internal view virtual returns (address) {... */\ntag_8:\n    /* \"contracts/NFT_Demo/NFT.sol\":152:159  address */\n  0x00\n    /* \"contracts/NFT_Demo/NFT.sol\":178:188  msg.sender */\n  caller\n    /* \"contracts/NFT_Demo/NFT.sol\":171:188  return msg.sender */\n  swap1\n  pop\n    /* \"contracts/NFT_Demo/NFT.sol\":99:195  function _msgSender() internal view virtual returns (address) {... */\n  swap1\n  jump\t// out\n    /* \"contracts/NFT_Demo/NFT.sol\":6885:7072  function _transferOwnership(address newOwner) internal virtual {... */\ntag_9:\n    /* \"contracts/NFT_Demo/NFT.sol\":6958:6974  address oldOwner */\n  0x00\n    /* \"contracts/NFT_Demo/NFT.sol\":6977:6983  _owner */\n  dup1\n  0x00\n  swap1\n  sload\n  swap1\n  0x0100\n  exp\n  swap1\n  div\n  0xffffffffffffffffffffffffffffffffffffffff\n  and\n    /* \"contracts/NFT_Demo/NFT.sol\":6958:6983  address oldOwner = _owner */\n  swap1\n  pop\n    /* \"contracts/NFT_Demo/NFT.sol\":7002:7010  newOwner */\n  dup2\n    /* \"contracts/NFT_Demo/NFT.sol\":6993:6999  _owner */\n  0x00\n  dup1\n    /* \"contracts/NFT_Demo/NFT.sol\":6993:7010  _owner = newOwner */\n  0x0100\n  exp\n  dup2\n  sload\n  dup2\n  0xffffffffffffffffffffffffffffffffffffffff\n  mul\n  not\n  and\n  swap1\n  dup4\n  0xffffffffffffffffffffffffffffffffffffffff\n  and\n  mul\n  or\n  swap1\n  sstore\n  pop\n    /* \"contracts/NFT_Demo/NFT.sol\":7056:7064  newOwner */\n  dup2\n    /* \"contracts/NFT_Demo/NFT.sol\":7025:7065  OwnershipTransferred(oldOwner, newOwner) */\n  0xffffffffffffffffffffffffffffffffffffffff\n  and\n    /* \"contracts/NFT_Demo/NFT.sol\":7046:7054  oldOwner */\n  dup2\n    /* \"contracts/NFT_Demo/NFT.sol\":7025:7065  OwnershipTransferred(oldOwner, newOwner) */\n  0xffffffffffffffffffffffffffffffffffffffff\n  and\n  0x8be0079c531659141344cd1fd0a4f28419497f9722a3daafe3b4186f6b6457e0\n  mload(0x40)\n  mload(0x40)\n  dup1\n  swap2\n  sub\n  swap1\n  log3\n    /* \"contracts/NFT_Demo/NFT.sol\":6948:7072  {... */\n  pop\n    /* \"contracts/NFT_Demo/NFT.sol\":6885:7072  function _transferOwnership(address newOwner) internal virtual {... */\n  pop\n  jump\t// out\n    /* \"contracts/NFT_Demo/NFT.sol\":17820:19701  contract SQFItem is ERC721 {... */\ntag_12:\n  dup3\n  dup1\n  sload\n  tag_18\n  swap1\n  tag_19\n  jump\t// in\ntag_18:\n  swap1\n  0x00\n  mstore\n  keccak256(0x00, 0x20)\n  swap1\n  0x1f\n  add\n  0x20\n  swap1\n  div\n  dup2\n  add\n  swap3\n  dup3\n  tag_21\n  jumpi\n  0x00\n  dup6\n  sstore\n  jump(tag_20)\ntag_21:\n  dup3\n  0x1f\n  lt\n  tag_22\n  jumpi\n  dup1\n  mload\n  not(0xff)\n  and\n  dup4\n  dup1\n  add\n  or\n  dup6\n  sstore\n  jump(tag_20)\ntag_22:\n  dup3\n  dup1\n  add\n  0x01\n  add\n  dup6\n  sstore\n  dup3\n  iszero\n  tag_20\n  jumpi\n  swap2\n  dup3\n  add\ntag_23:\n  dup3\n  dup2\n  gt\n  iszero\n  tag_24\n  jumpi\n  dup3\n  mload\n  dup3\n  sstore\n  swap2\n  0x20\n  add\n  swap2\n  swap1\n  0x01\n  add\n  swap1\n  jump(tag_23)\ntag_24:\ntag_20:\n  pop\n  swap1\n  pop\n  tag_25\n  swap2\n  swap1\n  tag_26\n  jump\t// in\ntag_25:\n  pop\n  swap1\n  jump\t// out\ntag_26:\ntag_27:\n  dup1\n  dup3\n  gt\n  iszero\n  tag_28\n  jumpi\n  0x00\n  dup2\n  0x00\n  swap1\n  sstore\n  pop\n  0x01\n  add\n  jump(tag_27)\ntag_28:\n  pop\n  swap1\n  jump\t// out\n    /* \"#utility.yul\":7:187   */\ntag_29:\n    /* \"#utility.yul\":55:132   */\n  0x4e487b7100000000000000000000000000000000000000000000000000000000\n    /* \"#utility.yul\":52:53   */\n  0x00\n    /* \"#utility.yul\":45:133   */\n  mstore\n    /* \"#utility.yul\":152:156   */\n  0x22\n    /* \"#utility.yul\":149:150   */\n  0x04\n    /* \"#utility.yul\":142:157   */\n  mstore\n    /* \"#utility.yul\":176:180   */\n  0x24\n    /* \"#utility.yul\":173:174   */\n  0x00\n    /* \"#utility.yul\":166:181   */\n  revert\n    /* \"#utility.yul\":193:513   */\ntag_19:\n    /* \"#utility.yul\":237:243   */\n  0x00\n    /* \"#utility.yul\":274:275   */\n  0x02\n    /* \"#utility.yul\":268:272   */\n  dup3\n    /* \"#utility.yul\":264:276   */\n  div\n    /* \"#utility.yul\":254:276   */\n  swap1\n  pop\n    /* \"#utility.yul\":321:322   */\n  0x01\n    /* \"#utility.yul\":315:319   */\n  dup3\n    /* \"#utility.yul\":311:323   */\n  and\n    /* \"#utility.yul\":342:360   */\n  dup1\n    /* \"#utility.yul\":332:413   */\n  tag_33\n  jumpi\n    /* \"#utility.yul\":398:402   */\n  0x7f\n    /* \"#utility.yul\":390:396   */\n  dup3\n    /* \"#utility.yul\":386:403   */\n  and\n    /* \"#utility.yul\":376:403   */\n  swap2\n  pop\n    /* \"#utility.yul\":332:413   */\ntag_33:\n    /* \"#utility.yul\":460:462   */\n  0x20\n    /* \"#utility.yul\":452:458   */\n  dup3\n    /* \"#utility.yul\":449:463   */\n  lt\n    /* \"#utility.yul\":429:447   */\n  dup2\n    /* \"#utility.yul\":426:464   */\n  sub\n    /* \"#utility.yul\":423:507   */\n  tag_34\n  jumpi\n    /* \"#utility.yul\":479:497   */\n  tag_35\n  tag_29\n  jump\t// in\ntag_35:\n    /* \"#utility.yul\":423:507   */\ntag_34:\n    /* \"#utility.yul\":244:513   */\n  pop\n    /* \"#utility.yul\":193:513   */\n  swap2\n  swap1\n  pop\n  jump\t// out\n    /* \"contracts/NFT_Demo/NFT.sol\":17820:19701  contract SQFItem is ERC721 {... */\ntag_15:\n  dataSize(sub_0)\n  dup1\n  dataOffset(sub_0)\n  0x00\n  codecopy\n  0x00\n  return\nstop\n\nsub_0: assembly {\n        /* \"contracts/NFT_Demo/NFT.sol\":17820:19701  contract SQFItem is ERC721 {... */\n      mstore(0x40, 0x80)\n      callvalue\n      dup1\n      iszero\n      tag_1\n      jumpi\n      0x00\n      dup1\n      revert\n    tag_1:\n      pop\n      jumpi(tag_2, lt(calldatasize, 0x04))\n      shr(0xe0, calldataload(0x00))\n      dup1\n      0x70a08231\n      gt\n      tag_19\n      jumpi\n      dup1\n      0x95d89b41\n      gt\n      tag_20\n      jumpi\n      dup1\n      0x95d89b41\n      eq\n      tag_15\n      jumpi\n      dup1\n      0xb88d4fde\n      eq\n      tag_16\n      jumpi\n      dup1\n      0xc87b56dd\n      eq\n      tag_17\n      jumpi\n      dup1\n      0xf2fde38b\n      eq\n      tag_18\n      jumpi\n      jump(tag_2)\n    tag_20:\n      dup1\n      0x70a08231\n      eq\n      tag_11\n      jumpi\n      dup1\n      0x715018a6\n      eq\n      tag_12\n      jumpi\n      dup1\n      0x89f05761\n      eq\n      tag_13\n      jumpi\n      dup1\n      0x8da5cb5b\n      eq\n      tag_14\n      jumpi\n      jump(tag_2)\n    tag_19:\n      dup1\n      0x42842e0e\n      gt\n      tag_21\n      jumpi\n      dup1\n      0x42842e0e\n      eq\n      tag_7\n      jumpi\n      dup1\n      0x55f804b3\n      eq\n      tag_8\n      jumpi\n      dup1\n      0x61b8ce8c\n      eq\n      tag_9\n      jumpi\n      dup1\n      0x6352211e\n      eq\n      tag_10\n      jumpi\n      jump(tag_2)\n    tag_21:\n      dup1\n      0x06fdde03\n      eq\n      tag_3\n      jumpi\n      dup1\n      0x081812fc\n      eq\n      tag_4\n      jumpi\n      dup1\n      0x095ea7b3\n      eq\n      tag_5\n      jumpi\n      dup1\n      0x23b872dd\n      eq\n      tag_6\n      jumpi\n    tag_2:\n      0x00\n      dup1\n      revert\n        /* \"contracts/NFT_Demo/NFT.sol\":10246:10344  function name() public view virtual override returns (string memory) {... */\n    tag_3:\n      tag_22\n      tag_23\n      jump\t// in\n    tag_22:\n      mload(0x40)\n      tag_24\n      swap2\n      swap1\n      tag_25\n      jump\t// in\n    tag_24:\n      mload(0x40)\n      dup1\n      swap2\n      sub\n      swap1\n      return\n        /* \"contracts/NFT_Demo/NFT.sol\":10922:11217  function getApproved(uint256 tokenId)... */\n    tag_4:\n      tag_26\n      0x04\n      dup1\n      calldatasize\n      sub\n      dup2\n      add\n      swap1\n      tag_27\n      swap2\n      swap1\n      tag_28\n      jump\t// in\n    tag_27:\n      tag_29\n      jump\t// in\n    tag_26:\n      mload(0x40)\n      tag_30\n      swap2\n      swap1\n      tag_31\n      jump\t// in\n    tag_30:\n      mload(0x40)\n      dup1\n      swap2\n      sub\n      swap1\n      return\n        /* \"contracts/NFT_Demo/NFT.sol\":10556:10916  function approve(address to, uint256 tokenId) public virtual override {... */\n    tag_5:\n      tag_32\n      0x04\n      dup1\n      calldatasize\n      sub\n      dup2\n      add\n      swap1\n      tag_33\n      swap2\n      swap1\n      tag_34\n      jump\t// in\n    tag_33:\n      tag_35\n      jump\t// in\n    tag_32:\n      stop\n        /* \"contracts/NFT_Demo/NFT.sol\":11223:11535  function transferFrom(... */\n    tag_6:\n      tag_36\n      0x04\n      dup1\n      calldatasize\n      sub\n      dup2\n      add\n      swap1\n      tag_37\n      swap2\n      swap1\n      tag_38\n      jump\t// in\n    tag_37:\n      tag_39\n      jump\t// in\n    tag_36:\n      stop\n        /* \"contracts/NFT_Demo/NFT.sol\":11541:11720  function safeTransferFrom(... */\n    tag_7:\n      tag_40\n      0x04\n      dup1\n      calldatasize\n      sub\n      dup2\n      add\n      swap1\n      tag_41\n      swap2\n      swap1\n      tag_38\n      jump\t// in\n    tag_41:\n      tag_42\n      jump\t// in\n    tag_40:\n      stop\n        /* \"contracts/NFT_Demo/NFT.sol\":18160:18267  function setBaseURI(string memory baseURI_) external onlyOwner {... */\n    tag_8:\n      tag_43\n      0x04\n      dup1\n      calldatasize\n      sub\n      dup2\n      add\n      swap1\n      tag_44\n      swap2\n      swap1\n      tag_45\n      jump\t// in\n    tag_44:\n      tag_46\n      jump\t// in\n    tag_43:\n      stop\n        /* \"contracts/NFT_Demo/NFT.sol\":17974:17999  uint256 public nextId = 1 */\n    tag_9:\n      tag_47\n      tag_48\n      jump\t// in\n    tag_47:\n      mload(0x40)\n      tag_49\n      swap2\n      swap1\n      tag_50\n      jump\t// in\n    tag_49:\n      mload(0x40)\n      dup1\n      swap2\n      sub\n      swap1\n      return\n        /* \"contracts/NFT_Demo/NFT.sol\":9927:10240  function ownerOf(uint256 tokenId)... */\n    tag_10:\n      tag_51\n      0x04\n      dup1\n      calldatasize\n      sub\n      dup2\n      add\n      swap1\n      tag_52\n      swap2\n      swap1\n      tag_28\n      jump\t// in\n    tag_52:\n      tag_53\n      jump\t// in\n    tag_51:\n      mload(0x40)\n      tag_54\n      swap2\n      swap1\n      tag_31\n      jump\t// in\n    tag_54:\n      mload(0x40)\n      dup1\n      swap2\n      sub\n      swap1\n      return\n        /* \"contracts/NFT_Demo/NFT.sol\":9638:9921  function balanceOf(address owner)... */\n    tag_11:\n      tag_55\n      0x04\n      dup1\n      calldatasize\n      sub\n      dup2\n      add\n      swap1\n      tag_56\n      swap2\n      swap1\n      tag_57\n      jump\t// in\n    tag_56:\n      tag_58\n      jump\t// in\n    tag_55:\n      mload(0x40)\n      tag_59\n      swap2\n      swap1\n      tag_50\n      jump\t// in\n    tag_59:\n      mload(0x40)\n      dup1\n      swap2\n      sub\n      swap1\n      return\n        /* \"contracts/NFT_Demo/NFT.sol\":6540:6641  function renounceOwnership() public virtual onlyOwner {... */\n    tag_12:\n      tag_60\n      tag_61\n      jump\t// in\n    tag_60:\n      stop\n        /* \"contracts/NFT_Demo/NFT.sol\":19527:19699  function newItem(address _to, string memory tokenURI_) external onlyOwner {... */\n    tag_13:\n      tag_62\n      0x04\n      dup1\n      calldatasize\n      sub\n      dup2\n      add\n      swap1\n      tag_63\n      swap2\n      swap1\n      tag_64\n      jump\t// in\n    tag_63:\n      tag_65\n      jump\t// in\n    tag_62:\n      stop\n        /* \"contracts/NFT_Demo/NFT.sol\":6326:6411  function owner() public view virtual returns (address) {... */\n    tag_14:\n      tag_66\n      tag_67\n      jump\t// in\n    tag_66:\n      mload(0x40)\n      tag_68\n      swap2\n      swap1\n      tag_31\n      jump\t// in\n    tag_68:\n      mload(0x40)\n      dup1\n      swap2\n      sub\n      swap1\n      return\n        /* \"contracts/NFT_Demo/NFT.sol\":10350:10452  function symbol() public view virtual override returns (string memory) {... */\n    tag_15:\n      tag_69\n      tag_70\n      jump\t// in\n    tag_69:\n      mload(0x40)\n      tag_71\n      swap2\n      swap1\n      tag_25\n      jump\t// in\n    tag_71:\n      mload(0x40)\n      dup1\n      swap2\n      sub\n      swap1\n      return\n        /* \"contracts/NFT_Demo/NFT.sol\":11726:12080  function safeTransferFrom(... */\n    tag_16:\n      tag_72\n      0x04\n      dup1\n      calldatasize\n      sub\n      dup2\n      add\n      swap1\n      tag_73\n      swap2\n      swap1\n      tag_74\n      jump\t// in\n    tag_73:\n      tag_75\n      jump\t// in\n    tag_72:\n      stop\n        /* \"contracts/NFT_Demo/NFT.sol\":18666:19521  function tokenURI(uint256 tokenId)... */\n    tag_17:\n      tag_76\n      0x04\n      dup1\n      calldatasize\n      sub\n      dup2\n      add\n      swap1\n      tag_77\n      swap2\n      swap1\n      tag_28\n      jump\t// in\n    tag_77:\n      tag_78\n      jump\t// in\n    tag_76:\n      mload(0x40)\n      tag_79\n      swap2\n      swap1\n      tag_25\n      jump\t// in\n    tag_79:\n      mload(0x40)\n      dup1\n      swap2\n      sub\n      swap1\n      return\n        /* \"contracts/NFT_Demo/NFT.sol\":6647:6879  function transferOwnership(address newOwner) public virtual onlyOwner {... */\n    tag_18:\n      tag_80\n      0x04\n      dup1\n      calldatasize\n      sub\n      dup2\n      add\n      swap1\n      tag_81\n      swap2\n      swap1\n      tag_57\n      jump\t// in\n    tag_81:\n      tag_82\n      jump\t// in\n    tag_80:\n      stop\n        /* \"contracts/NFT_Demo/NFT.sol\":10246:10344  function name() public view virtual override returns (string memory) {... */\n    tag_23:\n        /* \"contracts/NFT_Demo/NFT.sol\":10300:10313  string memory */\n      0x60\n        /* \"contracts/NFT_Demo/NFT.sol\":10332:10337  _name */\n      0x06\n        /* \"contracts/NFT_Demo/NFT.sol\":10325:10337  return _name */\n      dup1\n      sload\n      tag_84\n      swap1\n      tag_85\n      jump\t// in\n    tag_84:\n      dup1\n      0x1f\n      add\n      0x20\n      dup1\n      swap2\n      div\n      mul\n      0x20\n      add\n      mload(0x40)\n      swap1\n      dup2\n      add\n      0x40\n      mstore\n      dup1\n      swap3\n      swap2\n      swap1\n      dup2\n      dup2\n      mstore\n      0x20\n      add\n      dup3\n      dup1\n      sload\n      tag_86\n      swap1\n      tag_85\n      jump\t// in\n    tag_86:\n      dup1\n      iszero\n      tag_87\n      jumpi\n      dup1\n      0x1f\n      lt\n      tag_88\n      jumpi\n      0x0100\n      dup1\n      dup4\n      sload\n      div\n      mul\n      dup4\n      mstore\n      swap2\n      0x20\n      add\n      swap2\n      jump(tag_87)\n    tag_88:\n      dup3\n      add\n      swap2\n      swap1\n      0x00\n      mstore\n      keccak256(0x00, 0x20)\n      swap1\n    tag_89:\n      dup2\n      sload\n      dup2\n      mstore\n      swap1\n      0x01\n      add\n      swap1\n      0x20\n      add\n      dup1\n      dup4\n      gt\n      tag_89\n      jumpi\n      dup3\n      swap1\n      sub\n      0x1f\n      and\n      dup3\n      add\n      swap2\n    tag_87:\n      pop\n      pop\n      pop\n      pop\n      pop\n      swap1\n      pop\n        /* \"contracts/NFT_Demo/NFT.sol\":10246:10344  function name() public view virtual override returns (string memory) {... */\n      swap1\n      jump\t// out\n        /* \"contracts/NFT_Demo/NFT.sol\":10922:11217  function getApproved(uint256 tokenId)... */\n    tag_29:\n        /* \"contracts/NFT_Demo/NFT.sol\":11038:11045  address */\n      0x00\n        /* \"contracts/NFT_Demo/NFT.sol\":11082:11098  _exists(tokenId) */\n      tag_91\n        /* \"contracts/NFT_Demo/NFT.sol\":11090:11097  tokenId */\n      dup3\n        /* \"contracts/NFT_Demo/NFT.sol\":11082:11089  _exists */\n      tag_92\n        /* \"contracts/NFT_Demo/NFT.sol\":11082:11098  _exists(tokenId) */\n      jump\t// in\n    tag_91:\n        /* \"contracts/NFT_Demo/NFT.sol\":11061:11168  require(... */\n      tag_93\n      jumpi\n      mload(0x40)\n      0x08c379a000000000000000000000000000000000000000000000000000000000\n      dup2\n      mstore\n      0x04\n      add\n      tag_94\n      swap1\n      tag_95\n      jump\t// in\n    tag_94:\n      mload(0x40)\n      dup1\n      swap2\n      sub\n      swap1\n      revert\n    tag_93:\n        /* \"contracts/NFT_Demo/NFT.sol\":11186:11201  _tokenApprovals */\n      0x04\n        /* \"contracts/NFT_Demo/NFT.sol\":11186:11210  _tokenApprovals[tokenId] */\n      0x00\n        /* \"contracts/NFT_Demo/NFT.sol\":11202:11209  tokenId */\n      dup4\n        /* \"contracts/NFT_Demo/NFT.sol\":11186:11210  _tokenApprovals[tokenId] */\n      dup2\n      mstore\n      0x20\n      add\n      swap1\n      dup2\n      mstore\n      0x20\n      add\n      0x00\n      keccak256\n      0x00\n      swap1\n      sload\n      swap1\n      0x0100\n      exp\n      swap1\n      div\n      0xffffffffffffffffffffffffffffffffffffffff\n      and\n        /* \"contracts/NFT_Demo/NFT.sol\":11179:11210  return _tokenApprovals[tokenId] */\n      swap1\n      pop\n        /* \"contracts/NFT_Demo/NFT.sol\":10922:11217  function getApproved(uint256 tokenId)... */\n      swap2\n      swap1\n      pop\n      jump\t// out\n        /* \"contracts/NFT_Demo/NFT.sol\":10556:10916  function approve(address to, uint256 tokenId) public virtual override {... */\n    tag_35:\n        /* \"contracts/NFT_Demo/NFT.sol\":10636:10649  address owner */\n      0x00\n        /* \"contracts/NFT_Demo/NFT.sol\":10652:10675  ERC721.ownerOf(tokenId) */\n      tag_97\n        /* \"contracts/NFT_Demo/NFT.sol\":10667:10674  tokenId */\n      dup3\n        /* \"contracts/NFT_Demo/NFT.sol\":10652:10666  ERC721.ownerOf */\n      tag_53\n        /* \"contracts/NFT_Demo/NFT.sol\":10652:10675  ERC721.ownerOf(tokenId) */\n      jump\t// in\n    tag_97:\n        /* \"contracts/NFT_Demo/NFT.sol\":10636:10675  address owner = ERC721.ownerOf(tokenId) */\n      swap1\n      pop\n        /* \"contracts/NFT_Demo/NFT.sol\":10699:10704  owner */\n      dup1\n        /* \"contracts/NFT_Demo/NFT.sol\":10693:10704  to != owner */\n      0xffffffffffffffffffffffffffffffffffffffff\n      and\n        /* \"contracts/NFT_Demo/NFT.sol\":10693:10695  to */\n      dup4\n        /* \"contracts/NFT_Demo/NFT.sol\":10693:10704  to != owner */\n      0xffffffffffffffffffffffffffffffffffffffff\n      and\n      sub\n        /* \"contracts/NFT_Demo/NFT.sol\":10685:10742  require(to != owner, \"ERC721: approval to current owner\") */\n      tag_98\n      jumpi\n      mload(0x40)\n      0x08c379a000000000000000000000000000000000000000000000000000000000\n      dup2\n      mstore\n      0x04\n      add\n      tag_99\n      swap1\n      tag_100\n      jump\t// in\n    tag_99:\n      mload(0x40)\n      dup1\n      swap2\n      sub\n      swap1\n      revert\n    tag_98:\n        /* \"contracts/NFT_Demo/NFT.sol\":10790:10795  owner */\n      dup1\n        /* \"contracts/NFT_Demo/NFT.sol\":10774:10795  _msgSender() == owner */\n      0xffffffffffffffffffffffffffffffffffffffff\n      and\n        /* \"contracts/NFT_Demo/NFT.sol\":10774:10786  _msgSender() */\n      tag_101\n        /* \"contracts/NFT_Demo/NFT.sol\":10774:10784  _msgSender */\n      tag_102\n        /* \"contracts/NFT_Demo/NFT.sol\":10774:10786  _msgSender() */\n      jump\t// in\n    tag_101:\n        /* \"contracts/NFT_Demo/NFT.sol\":10774:10795  _msgSender() == owner */\n      0xffffffffffffffffffffffffffffffffffffffff\n      and\n      eq\n        /* \"contracts/NFT_Demo/NFT.sol\":10753:10877  require(... */\n      tag_103\n      jumpi\n      mload(0x40)\n      0x08c379a000000000000000000000000000000000000000000000000000000000\n      dup2\n      mstore\n      0x04\n      add\n      tag_104\n      swap1\n      tag_105\n      jump\t// in\n    tag_104:\n      mload(0x40)\n      dup1\n      swap2\n      sub\n      swap1\n      revert\n    tag_103:\n        /* \"contracts/NFT_Demo/NFT.sol\":10888:10909  _approve(to, tokenId) */\n      tag_106\n        /* \"contracts/NFT_Demo/NFT.sol\":10897:10899  to */\n      dup4\n        /* \"contracts/NFT_Demo/NFT.sol\":10901:10908  tokenId */\n      dup4\n        /* \"contracts/NFT_Demo/NFT.sol\":10888:10896  _approve */\n      tag_107\n        /* \"contracts/NFT_Demo/NFT.sol\":10888:10909  _approve(to, tokenId) */\n      jump\t// in\n    tag_106:\n        /* \"contracts/NFT_Demo/NFT.sol\":10626:10916  {... */\n      pop\n        /* \"contracts/NFT_Demo/NFT.sol\":10556:10916  function approve(address to, uint256 tokenId) public virtual override {... */\n      pop\n      pop\n      jump\t// out\n        /* \"contracts/NFT_Demo/NFT.sol\":11223:11535  function transferFrom(... */\n    tag_39:\n        /* \"contracts/NFT_Demo/NFT.sol\":11373:11414  _isApprovedOrOwner(_msgSender(), tokenId) */\n      tag_109\n        /* \"contracts/NFT_Demo/NFT.sol\":11392:11404  _msgSender() */\n      tag_110\n        /* \"contracts/NFT_Demo/NFT.sol\":11392:11402  _msgSender */\n      tag_102\n        /* \"contracts/NFT_Demo/NFT.sol\":11392:11404  _msgSender() */\n      jump\t// in\n    tag_110:\n        /* \"contracts/NFT_Demo/NFT.sol\":11406:11413  tokenId */\n      dup3\n        /* \"contracts/NFT_Demo/NFT.sol\":11373:11391  _isApprovedOrOwner */\n      tag_111\n        /* \"contracts/NFT_Demo/NFT.sol\":11373:11414  _isApprovedOrOwner(_msgSender(), tokenId) */\n      jump\t// in\n    tag_109:\n        /* \"contracts/NFT_Demo/NFT.sol\":11352:11489  require(... */\n      tag_112\n      jumpi\n      mload(0x40)\n      0x08c379a000000000000000000000000000000000000000000000000000000000\n      dup2\n      mstore\n      0x04\n      add\n      tag_113\n      swap1\n      tag_114\n      jump\t// in\n    tag_113:\n      mload(0x40)\n      dup1\n      swap2\n      sub\n      swap1\n      revert\n    tag_112:\n        /* \"contracts/NFT_Demo/NFT.sol\":11500:11528  _transfer(from, to, tokenId) */\n      tag_115\n        /* \"contracts/NFT_Demo/NFT.sol\":11510:11514  from */\n      dup4\n        /* \"contracts/NFT_Demo/NFT.sol\":11516:11518  to */\n      dup4\n        /* \"contracts/NFT_Demo/NFT.sol\":11520:11527  tokenId */\n      dup4\n        /* \"contracts/NFT_Demo/NFT.sol\":11500:11509  _transfer */\n      tag_116\n        /* \"contracts/NFT_Demo/NFT.sol\":11500:11528  _transfer(from, to, tokenId) */\n      jump\t// in\n    tag_115:\n        /* \"contracts/NFT_Demo/NFT.sol\":11223:11535  function transferFrom(... */\n      pop\n      pop\n      pop\n      jump\t// out\n        /* \"contracts/NFT_Demo/NFT.sol\":11541:11720  function safeTransferFrom(... */\n    tag_42:\n        /* \"contracts/NFT_Demo/NFT.sol\":11674:11713  safeTransferFrom(from, to, tokenId, \"\") */\n      tag_118\n        /* \"contracts/NFT_Demo/NFT.sol\":11691:11695  from */\n      dup4\n        /* \"contracts/NFT_Demo/NFT.sol\":11697:11699  to */\n      dup4\n        /* \"contracts/NFT_Demo/NFT.sol\":11701:11708  tokenId */\n      dup4\n        /* \"contracts/NFT_Demo/NFT.sol\":11674:11713  safeTransferFrom(from, to, tokenId, \"\") */\n      mload(0x40)\n      dup1\n      0x20\n      add\n      0x40\n      mstore\n      dup1\n      0x00\n      dup2\n      mstore\n      pop\n        /* \"contracts/NFT_Demo/NFT.sol\":11674:11690  safeTransferFrom */\n      tag_75\n        /* \"contracts/NFT_Demo/NFT.sol\":11674:11713  safeTransferFrom(from, to, tokenId, \"\") */\n      jump\t// in\n    tag_118:\n        /* \"contracts/NFT_Demo/NFT.sol\":11541:11720  function safeTransferFrom(... */\n      pop\n      pop\n      pop\n      jump\t// out\n        /* \"contracts/NFT_Demo/NFT.sol\":18160:18267  function setBaseURI(string memory baseURI_) external onlyOwner {... */\n    tag_46:\n        /* \"contracts/NFT_Demo/NFT.sol\":6467:6479  _msgSender() */\n      tag_120\n        /* \"contracts/NFT_Demo/NFT.sol\":6467:6477  _msgSender */\n      tag_102\n        /* \"contracts/NFT_Demo/NFT.sol\":6467:6479  _msgSender() */\n      jump\t// in\n    tag_120:\n        /* \"contracts/NFT_Demo/NFT.sol\":6456:6479  owner() == _msgSender() */\n      0xffffffffffffffffffffffffffffffffffffffff\n      and\n        /* \"contracts/NFT_Demo/NFT.sol\":6456:6463  owner() */\n      tag_121\n        /* \"contracts/NFT_Demo/NFT.sol\":6456:6461  owner */\n      tag_67\n        /* \"contracts/NFT_Demo/NFT.sol\":6456:6463  owner() */\n      jump\t// in\n    tag_121:\n        /* \"contracts/NFT_Demo/NFT.sol\":6456:6479  owner() == _msgSender() */\n      0xffffffffffffffffffffffffffffffffffffffff\n      and\n      eq\n        /* \"contracts/NFT_Demo/NFT.sol\":6448:6516  require(owner() == _msgSender(), \"Ownable: caller is not the owner\") */\n      tag_122\n      jumpi\n      mload(0x40)\n      0x08c379a000000000000000000000000000000000000000000000000000000000\n      dup2\n      mstore\n      0x04\n      add\n      tag_123\n      swap1\n      tag_124\n      jump\t// in\n    tag_123:\n      mload(0x40)\n      dup1\n      swap2\n      sub\n      swap1\n      revert\n    tag_122:\n        /* \"contracts/NFT_Demo/NFT.sol\":18252:18260  baseURI_ */\n      dup1\n        /* \"contracts/NFT_Demo/NFT.sol\":18233:18249  _baseURIextended */\n      0x09\n        /* \"contracts/NFT_Demo/NFT.sol\":18233:18260  _baseURIextended = baseURI_ */\n      swap1\n      dup1\n      mload\n      swap1\n      0x20\n      add\n      swap1\n      tag_126\n      swap3\n      swap2\n      swap1\n      tag_127\n      jump\t// in\n    tag_126:\n      pop\n        /* \"contracts/NFT_Demo/NFT.sol\":18160:18267  function setBaseURI(string memory baseURI_) external onlyOwner {... */\n      pop\n      jump\t// out\n        /* \"contracts/NFT_Demo/NFT.sol\":17974:17999  uint256 public nextId = 1 */\n    tag_48:\n      sload(0x0a)\n      dup2\n      jump\t// out\n        /* \"contracts/NFT_Demo/NFT.sol\":9927:10240  function ownerOf(uint256 tokenId)... */\n    tag_53:\n        /* \"contracts/NFT_Demo/NFT.sol\":10039:10046  address */\n      0x00\n        /* \"contracts/NFT_Demo/NFT.sol\":10062:10075  address owner */\n      dup1\n        /* \"contracts/NFT_Demo/NFT.sol\":10078:10085  _owners */\n      0x02\n        /* \"contracts/NFT_Demo/NFT.sol\":10078:10094  _owners[tokenId] */\n      0x00\n        /* \"contracts/NFT_Demo/NFT.sol\":10086:10093  tokenId */\n      dup5\n        /* \"contracts/NFT_Demo/NFT.sol\":10078:10094  _owners[tokenId] */\n      dup2\n      mstore\n      0x20\n      add\n      swap1\n      dup2\n      mstore\n      0x20\n      add\n      0x00\n      keccak256\n      0x00\n      swap1\n      sload\n      swap1\n      0x0100\n      exp\n      swap1\n      div\n      0xffffffffffffffffffffffffffffffffffffffff\n      and\n        /* \"contracts/NFT_Demo/NFT.sol\":10062:10094  address owner = _owners[tokenId] */\n      swap1\n      pop\n        /* \"contracts/NFT_Demo/NFT.sol\":10142:10143  0 */\n      0x00\n        /* \"contracts/NFT_Demo/NFT.sol\":10125:10144  owner != address(0) */\n      0xffffffffffffffffffffffffffffffffffffffff\n      and\n        /* \"contracts/NFT_Demo/NFT.sol\":10125:10130  owner */\n      dup2\n        /* \"contracts/NFT_Demo/NFT.sol\":10125:10144  owner != address(0) */\n      0xffffffffffffffffffffffffffffffffffffffff\n      and\n      sub\n        /* \"contracts/NFT_Demo/NFT.sol\":10104:10211  require(... */\n      tag_129\n      jumpi\n      mload(0x40)\n      0x08c379a000000000000000000000000000000000000000000000000000000000\n      dup2\n      mstore\n      0x04\n      add\n      tag_130\n      swap1\n      tag_131\n      jump\t// in\n    tag_130:\n      mload(0x40)\n      dup1\n      swap2\n      sub\n      swap1\n      revert\n    tag_129:\n        /* \"contracts/NFT_Demo/NFT.sol\":10228:10233  owner */\n      dup1\n        /* \"contracts/NFT_Demo/NFT.sol\":10221:10233  return owner */\n      swap2\n      pop\n      pop\n        /* \"contracts/NFT_Demo/NFT.sol\":9927:10240  function ownerOf(uint256 tokenId)... */\n      swap2\n      swap1\n      pop\n      jump\t// out\n        /* \"contracts/NFT_Demo/NFT.sol\":9638:9921  function balanceOf(address owner)... */\n    tag_58:\n        /* \"contracts/NFT_Demo/NFT.sol\":9750:9757  uint256 */\n      0x00\n        /* \"contracts/NFT_Demo/NFT.sol\":9811:9812  0 */\n      dup1\n        /* \"contracts/NFT_Demo/NFT.sol\":9794:9813  owner != address(0) */\n      0xffffffffffffffffffffffffffffffffffffffff\n      and\n        /* \"contracts/NFT_Demo/NFT.sol\":9794:9799  owner */\n      dup3\n        /* \"contracts/NFT_Demo/NFT.sol\":9794:9813  owner != address(0) */\n      0xffffffffffffffffffffffffffffffffffffffff\n      and\n      sub\n        /* \"contracts/NFT_Demo/NFT.sol\":9773:9881  require(... */\n      tag_133\n      jumpi\n      mload(0x40)\n      0x08c379a000000000000000000000000000000000000000000000000000000000\n      dup2\n      mstore\n      0x04\n      add\n      tag_134\n      swap1\n      tag_135\n      jump\t// in\n    tag_134:\n      mload(0x40)\n      dup1\n      swap2\n      sub\n      swap1\n      revert\n    tag_133:\n        /* \"contracts/NFT_Demo/NFT.sol\":9898:9907  _balances */\n      0x01\n        /* \"contracts/NFT_Demo/NFT.sol\":9898:9914  _balances[owner] */\n      0x00\n        /* \"contracts/NFT_Demo/NFT.sol\":9908:9913  owner */\n      dup4\n        /* \"contracts/NFT_Demo/NFT.sol\":9898:9914  _balances[owner] */\n      0xffffffffffffffffffffffffffffffffffffffff\n      and\n      0xffffffffffffffffffffffffffffffffffffffff\n      and\n      dup2\n      mstore\n      0x20\n      add\n      swap1\n      dup2\n      mstore\n      0x20\n      add\n      0x00\n      keccak256\n      sload\n        /* \"contracts/NFT_Demo/NFT.sol\":9891:9914  return _balances[owner] */\n      swap1\n      pop\n        /* \"contracts/NFT_Demo/NFT.sol\":9638:9921  function balanceOf(address owner)... */\n      swap2\n      swap1\n      pop\n      jump\t// out\n        /* \"contracts/NFT_Demo/NFT.sol\":6540:6641  function renounceOwnership() public virtual onlyOwner {... */\n    tag_61:\n        /* \"contracts/NFT_Demo/NFT.sol\":6467:6479  _msgSender() */\n      tag_137\n        /* \"contracts/NFT_Demo/NFT.sol\":6467:6477  _msgSender */\n      tag_102\n        /* \"contracts/NFT_Demo/NFT.sol\":6467:6479  _msgSender() */\n      jump\t// in\n    tag_137:\n        /* \"contracts/NFT_Demo/NFT.sol\":6456:6479  owner() == _msgSender() */\n      0xffffffffffffffffffffffffffffffffffffffff\n      and\n        /* \"contracts/NFT_Demo/NFT.sol\":6456:6463  owner() */\n      tag_138\n        /* \"contracts/NFT_Demo/NFT.sol\":6456:6461  owner */\n      tag_67\n        /* \"contracts/NFT_Demo/NFT.sol\":6456:6463  owner() */\n      jump\t// in\n    tag_138:\n        /* \"contracts/NFT_Demo/NFT.sol\":6456:6479  owner() == _msgSender() */\n      0xffffffffffffffffffffffffffffffffffffffff\n      and\n      eq\n        /* \"contracts/NFT_Demo/NFT.sol\":6448:6516  require(owner() == _msgSender(), \"Ownable: caller is not the owner\") */\n      tag_139\n      jumpi\n      mload(0x40)\n      0x08c379a000000000000000000000000000000000000000000000000000000000\n      dup2\n      mstore\n      0x04\n      add\n      tag_140\n      swap1\n      tag_124\n      jump\t// in\n    tag_140:\n      mload(0x40)\n      dup1\n      swap2\n      sub\n      swap1\n      revert\n    tag_139:\n        /* \"contracts/NFT_Demo/NFT.sol\":6604:6634  _transferOwnership(address(0)) */\n      tag_142\n        /* \"contracts/NFT_Demo/NFT.sol\":6631:6632  0 */\n      0x00\n        /* \"contracts/NFT_Demo/NFT.sol\":6604:6622  _transferOwnership */\n      tag_143\n        /* \"contracts/NFT_Demo/NFT.sol\":6604:6634  _transferOwnership(address(0)) */\n      jump\t// in\n    tag_142:\n        /* \"contracts/NFT_Demo/NFT.sol\":6540:6641  function renounceOwnership() public virtual onlyOwner {... */\n      jump\t// out\n        /* \"contracts/NFT_Demo/NFT.sol\":19527:19699  function newItem(address _to, string memory tokenURI_) external onlyOwner {... */\n    tag_65:\n        /* \"contracts/NFT_Demo/NFT.sol\":6467:6479  _msgSender() */\n      tag_145\n        /* \"contracts/NFT_Demo/NFT.sol\":6467:6477  _msgSender */\n      tag_102\n        /* \"contracts/NFT_Demo/NFT.sol\":6467:6479  _msgSender() */\n      jump\t// in\n    tag_145:\n        /* \"contracts/NFT_Demo/NFT.sol\":6456:6479  owner() == _msgSender() */\n      0xffffffffffffffffffffffffffffffffffffffff\n      and\n        /* \"contracts/NFT_Demo/NFT.sol\":6456:6463  owner() */\n      tag_146\n        /* \"contracts/NFT_Demo/NFT.sol\":6456:6461  owner */\n      tag_67\n        /* \"contracts/NFT_Demo/NFT.sol\":6456:6463  owner() */\n      jump\t// in\n    tag_146:\n        /* \"contracts/NFT_Demo/NFT.sol\":6456:6479  owner() == _msgSender() */\n      0xffffffffffffffffffffffffffffffffffffffff\n      and\n      eq\n        /* \"contracts/NFT_Demo/NFT.sol\":6448:6516  require(owner() == _msgSender(), \"Ownable: caller is not the owner\") */\n      tag_147\n      jumpi\n      mload(0x40)\n      0x08c379a000000000000000000000000000000000000000000000000000000000\n      dup2\n      mstore\n      0x04\n      add\n      tag_148\n      swap1\n      tag_124\n      jump\t// in\n    tag_148:\n      mload(0x40)\n      dup1\n      swap2\n      sub\n      swap1\n      revert\n    tag_147:\n        /* \"contracts/NFT_Demo/NFT.sol\":19611:19633  super._mintNew(nextId) */\n      tag_150\n        /* \"contracts/NFT_Demo/NFT.sol\":19626:19632  nextId */\n      sload(0x0a)\n        /* \"contracts/NFT_Demo/NFT.sol\":19611:19625  super._mintNew */\n      tag_151\n        /* \"contracts/NFT_Demo/NFT.sol\":19611:19633  super._mintNew(nextId) */\n      jump\t// in\n    tag_150:\n        /* \"contracts/NFT_Demo/NFT.sol\":19643:19674  _setTokenURI(nextId, tokenURI_) */\n      tag_152\n        /* \"contracts/NFT_Demo/NFT.sol\":19656:19662  nextId */\n      sload(0x0a)\n        /* \"contracts/NFT_Demo/NFT.sol\":19664:19673  tokenURI_ */\n      dup3\n        /* \"contracts/NFT_Demo/NFT.sol\":19643:19655  _setTokenURI */\n      tag_153\n        /* \"contracts/NFT_Demo/NFT.sol\":19643:19674  _setTokenURI(nextId, tokenURI_) */\n      jump\t// in\n    tag_152:\n        /* \"contracts/NFT_Demo/NFT.sol\":19684:19690  nextId */\n      0x0a\n      0x00\n        /* \"contracts/NFT_Demo/NFT.sol\":19684:19692  nextId++ */\n      dup2\n      sload\n      dup1\n      swap3\n      swap2\n      swap1\n      tag_154\n      swap1\n      tag_155\n      jump\t// in\n    tag_154:\n      swap2\n      swap1\n      pop\n      sstore\n      pop\n        /* \"contracts/NFT_Demo/NFT.sol\":19527:19699  function newItem(address _to, string memory tokenURI_) external onlyOwner {... */\n      pop\n      pop\n      jump\t// out\n        /* \"contracts/NFT_Demo/NFT.sol\":6326:6411  function owner() public view virtual returns (address) {... */\n    tag_67:\n        /* \"contracts/NFT_Demo/NFT.sol\":6372:6379  address */\n      0x00\n        /* \"contracts/NFT_Demo/NFT.sol\":6398:6404  _owner */\n      dup1\n      0x00\n      swap1\n      sload\n      swap1\n      0x0100\n      exp\n      swap1\n      div\n      0xffffffffffffffffffffffffffffffffffffffff\n      and\n        /* \"contracts/NFT_Demo/NFT.sol\":6391:6404  return _owner */\n      swap1\n      pop\n        /* \"contracts/NFT_Demo/NFT.sol\":6326:6411  function owner() public view virtual returns (address) {... */\n      swap1\n      jump\t// out\n        /* \"contracts/NFT_Demo/NFT.sol\":10350:10452  function symbol() public view virtual override returns (string memory) {... */\n    tag_70:\n        /* \"contracts/NFT_Demo/NFT.sol\":10406:10419  string memory */\n      0x60\n        /* \"contracts/NFT_Demo/NFT.sol\":10438:10445  _symbol */\n      0x07\n        /* \"contracts/NFT_Demo/NFT.sol\":10431:10445  return _symbol */\n      dup1\n      sload\n      tag_158\n      swap1\n      tag_85\n      jump\t// in\n    tag_158:\n      dup1\n      0x1f\n      add\n      0x20\n      dup1\n      swap2\n      div\n      mul\n      0x20\n      add\n      mload(0x40)\n      swap1\n      dup2\n      add\n      0x40\n      mstore\n      dup1\n      swap3\n      swap2\n      swap1\n      dup2\n      dup2\n      mstore\n      0x20\n      add\n      dup3\n      dup1\n      sload\n      tag_159\n      swap1\n      tag_85\n      jump\t// in\n    tag_159:\n      dup1\n      iszero\n      tag_160\n      jumpi\n      dup1\n      0x1f\n      lt\n      tag_161\n      jumpi\n      0x0100\n      dup1\n      dup4\n      sload\n      div\n      mul\n      dup4\n      mstore\n      swap2\n      0x20\n      add\n      swap2\n      jump(tag_160)\n    tag_161:\n      dup3\n      add\n      swap2\n      swap1\n      0x00\n      mstore\n      keccak256(0x00, 0x20)\n      swap1\n    tag_162:\n      dup2\n      sload\n      dup2\n      mstore\n      swap1\n      0x01\n      add\n      swap1\n      0x20\n      add\n      dup1\n      dup4\n      gt\n      tag_162\n      jumpi\n      dup3\n      swap1\n      sub\n      0x1f\n      and\n      dup3\n      add\n      swap2\n    tag_160:\n      pop\n      pop\n      pop\n      pop\n      pop\n      swap1\n      pop\n        /* \"contracts/NFT_Demo/NFT.sol\":10350:10452  function symbol() public view virtual override returns (string memory) {... */\n      swap1\n      jump\t// out\n        /* \"contracts/NFT_Demo/NFT.sol\":11726:12080  function safeTransferFrom(... */\n    tag_75:\n        /* \"contracts/NFT_Demo/NFT.sol\":11908:11949  _isApprovedOrOwner(_msgSender(), tokenId) */\n      tag_164\n        /* \"contracts/NFT_Demo/NFT.sol\":11927:11939  _msgSender() */\n      tag_165\n        /* \"contracts/NFT_Demo/NFT.sol\":11927:11937  _msgSender */\n      tag_102\n        /* \"contracts/NFT_Demo/NFT.sol\":11927:11939  _msgSender() */\n      jump\t// in\n    tag_165:\n        /* \"contracts/NFT_Demo/NFT.sol\":11941:11948  tokenId */\n      dup4\n        /* \"contracts/NFT_Demo/NFT.sol\":11908:11926  _isApprovedOrOwner */\n      tag_111\n        /* \"contracts/NFT_Demo/NFT.sol\":11908:11949  _isApprovedOrOwner(_msgSender(), tokenId) */\n      jump\t// in\n    tag_164:\n        /* \"contracts/NFT_Demo/NFT.sol\":11887:12024  require(... */\n      tag_166\n      jumpi\n      mload(0x40)\n      0x08c379a000000000000000000000000000000000000000000000000000000000\n      dup2\n      mstore\n      0x04\n      add\n      tag_167\n      swap1\n      tag_114\n      jump\t// in\n    tag_167:\n      mload(0x40)\n      dup1\n      swap2\n      sub\n      swap1\n      revert\n    tag_166:\n        /* \"contracts/NFT_Demo/NFT.sol\":12034:12073  _safeTransfer(from, to, tokenId, _data) */\n      tag_168\n        /* \"contracts/NFT_Demo/NFT.sol\":12048:12052  from */\n      dup5\n        /* \"contracts/NFT_Demo/NFT.sol\":12054:12056  to */\n      dup5\n        /* \"contracts/NFT_Demo/NFT.sol\":12058:12065  tokenId */\n      dup5\n        /* \"contracts/NFT_Demo/NFT.sol\":12067:12072  _data */\n      dup5\n        /* \"contracts/NFT_Demo/NFT.sol\":12034:12047  _safeTransfer */\n      tag_169\n        /* \"contracts/NFT_Demo/NFT.sol\":12034:12073  _safeTransfer(from, to, tokenId, _data) */\n      jump\t// in\n    tag_168:\n        /* \"contracts/NFT_Demo/NFT.sol\":11726:12080  function safeTransferFrom(... */\n      pop\n      pop\n      pop\n      pop\n      jump\t// out\n        /* \"contracts/NFT_Demo/NFT.sol\":18666:19521  function tokenURI(uint256 tokenId)... */\n    tag_78:\n        /* \"contracts/NFT_Demo/NFT.sol\":18779:18792  string memory */\n      0x60\n        /* \"contracts/NFT_Demo/NFT.sol\":18829:18845  _exists(tokenId) */\n      tag_171\n        /* \"contracts/NFT_Demo/NFT.sol\":18837:18844  tokenId */\n      dup3\n        /* \"contracts/NFT_Demo/NFT.sol\":18829:18836  _exists */\n      tag_92\n        /* \"contracts/NFT_Demo/NFT.sol\":18829:18845  _exists(tokenId) */\n      jump\t// in\n    tag_171:\n        /* \"contracts/NFT_Demo/NFT.sol\":18808:18918  require(... */\n      tag_172\n      jumpi\n      mload(0x40)\n      0x08c379a000000000000000000000000000000000000000000000000000000000\n      dup2\n      mstore\n      0x04\n      add\n      tag_173\n      swap1\n      tag_174\n      jump\t// in\n    tag_173:\n      mload(0x40)\n      dup1\n      swap2\n      sub\n      swap1\n      revert\n    tag_172:\n        /* \"contracts/NFT_Demo/NFT.sol\":18929:18952  string memory _tokenURI */\n      0x00\n        /* \"contracts/NFT_Demo/NFT.sol\":18955:18965  _tokenURIs */\n      0x0c\n        /* \"contracts/NFT_Demo/NFT.sol\":18955:18974  _tokenURIs[tokenId] */\n      0x00\n        /* \"contracts/NFT_Demo/NFT.sol\":18966:18973  tokenId */\n      dup5\n        /* \"contracts/NFT_Demo/NFT.sol\":18955:18974  _tokenURIs[tokenId] */\n      dup2\n      mstore\n      0x20\n      add\n      swap1\n      dup2\n      mstore\n      0x20\n      add\n      0x00\n      keccak256\n        /* \"contracts/NFT_Demo/NFT.sol\":18929:18974  string memory _tokenURI = _tokenURIs[tokenId] */\n      dup1\n      sload\n      tag_175\n      swap1\n      tag_85\n      jump\t// in\n    tag_175:\n      dup1\n      0x1f\n      add\n      0x20\n      dup1\n      swap2\n      div\n      mul\n      0x20\n      add\n      mload(0x40)\n      swap1\n      dup2\n      add\n      0x40\n      mstore\n      dup1\n      swap3\n      swap2\n      swap1\n      dup2\n      dup2\n      mstore\n      0x20\n      add\n      dup3\n      dup1\n      sload\n      tag_176\n      swap1\n      tag_85\n      jump\t// in\n    tag_176:\n      dup1\n      iszero\n      tag_177\n      jumpi\n      dup1\n      0x1f\n      lt\n      tag_178\n      jumpi\n      0x0100\n      dup1\n      dup4\n      sload\n      div\n      mul\n      dup4\n      mstore\n      swap2\n      0x20\n      add\n      swap2\n      jump(tag_177)\n    tag_178:\n      dup3\n      add\n      swap2\n      swap1\n      0x00\n      mstore\n      keccak256(0x00, 0x20)\n      swap1\n    tag_179:\n      dup2\n      sload\n      dup2\n      mstore\n      swap1\n      0x01\n      add\n      swap1\n      0x20\n      add\n      dup1\n      dup4\n      gt\n      tag_179\n      jumpi\n      dup3\n      swap1\n      sub\n      0x1f\n      and\n      dup3\n      add\n      swap2\n    tag_177:\n      pop\n      pop\n      pop\n      pop\n      pop\n      swap1\n      pop\n        /* \"contracts/NFT_Demo/NFT.sol\":18984:19002  string memory base */\n      0x00\n        /* \"contracts/NFT_Demo/NFT.sol\":19005:19015  _baseURI() */\n      tag_180\n        /* \"contracts/NFT_Demo/NFT.sol\":19005:19013  _baseURI */\n      tag_181\n        /* \"contracts/NFT_Demo/NFT.sol\":19005:19015  _baseURI() */\n      jump\t// in\n    tag_180:\n        /* \"contracts/NFT_Demo/NFT.sol\":18984:19015  string memory base = _baseURI() */\n      swap1\n      pop\n        /* \"contracts/NFT_Demo/NFT.sol\":19110:19111  0 */\n      0x00\n        /* \"contracts/NFT_Demo/NFT.sol\":19094:19098  base */\n      dup2\n        /* \"contracts/NFT_Demo/NFT.sol\":19088:19106  bytes(base).length */\n      mload\n        /* \"contracts/NFT_Demo/NFT.sol\":19088:19111  bytes(base).length == 0 */\n      sub\n        /* \"contracts/NFT_Demo/NFT.sol\":19084:19154  if (bytes(base).length == 0) {... */\n      tag_182\n      jumpi\n        /* \"contracts/NFT_Demo/NFT.sol\":19134:19143  _tokenURI */\n      dup2\n        /* \"contracts/NFT_Demo/NFT.sol\":19127:19143  return _tokenURI */\n      swap3\n      pop\n      pop\n      pop\n      jump(tag_170)\n        /* \"contracts/NFT_Demo/NFT.sol\":19084:19154  if (bytes(base).length == 0) {... */\n    tag_182:\n        /* \"contracts/NFT_Demo/NFT.sol\":19282:19283  0 */\n      0x00\n        /* \"contracts/NFT_Demo/NFT.sol\":19262:19271  _tokenURI */\n      dup3\n        /* \"contracts/NFT_Demo/NFT.sol\":19256:19279  bytes(_tokenURI).length */\n      mload\n        /* \"contracts/NFT_Demo/NFT.sol\":19256:19283  bytes(_tokenURI).length > 0 */\n      gt\n        /* \"contracts/NFT_Demo/NFT.sol\":19252:19358  if (bytes(_tokenURI).length > 0) {... */\n      iszero\n      tag_183\n      jumpi\n        /* \"contracts/NFT_Demo/NFT.sol\":19330:19334  base */\n      dup1\n        /* \"contracts/NFT_Demo/NFT.sol\":19336:19345  _tokenURI */\n      dup3\n        /* \"contracts/NFT_Demo/NFT.sol\":19313:19346  abi.encodePacked(base, _tokenURI) */\n      add(0x20, mload(0x40))\n      tag_184\n      swap3\n      swap2\n      swap1\n      tag_185\n      jump\t// in\n    tag_184:\n      mload(0x40)\n      0x20\n      dup2\n      dup4\n      sub\n      sub\n      dup2\n      mstore\n      swap1\n      0x40\n      mstore\n        /* \"contracts/NFT_Demo/NFT.sol\":19299:19347  return string(abi.encodePacked(base, _tokenURI)) */\n      swap3\n      pop\n      pop\n      pop\n      jump(tag_170)\n        /* \"contracts/NFT_Demo/NFT.sol\":19252:19358  if (bytes(_tokenURI).length > 0) {... */\n    tag_183:\n        /* \"contracts/NFT_Demo/NFT.sol\":19488:19492  base */\n      dup1\n        /* \"contracts/NFT_Demo/NFT.sol\":19494:19512  tokenId.toString() */\n      tag_186\n        /* \"contracts/NFT_Demo/NFT.sol\":19494:19501  tokenId */\n      dup6\n        /* \"contracts/NFT_Demo/NFT.sol\":19494:19510  tokenId.toString */\n      tag_187\n        /* \"contracts/NFT_Demo/NFT.sol\":19494:19512  tokenId.toString() */\n      jump\t// in\n    tag_186:\n        /* \"contracts/NFT_Demo/NFT.sol\":19471:19513  abi.encodePacked(base, tokenId.toString()) */\n      add(0x20, mload(0x40))\n      tag_188\n      swap3\n      swap2\n      swap1\n      tag_185\n      jump\t// in\n    tag_188:\n      mload(0x40)\n      0x20\n      dup2\n      dup4\n      sub\n      sub\n      dup2\n      mstore\n      swap1\n      0x40\n      mstore\n        /* \"contracts/NFT_Demo/NFT.sol\":19457:19514  return string(abi.encodePacked(base, tokenId.toString())) */\n      swap3\n      pop\n      pop\n      pop\n        /* \"contracts/NFT_Demo/NFT.sol\":18666:19521  function tokenURI(uint256 tokenId)... */\n    tag_170:\n      swap2\n      swap1\n      pop\n      jump\t// out\n        /* \"contracts/NFT_Demo/NFT.sol\":6647:6879  function transferOwnership(address newOwner) public virtual onlyOwner {... */\n    tag_82:\n        /* \"contracts/NFT_Demo/NFT.sol\":6467:6479  _msgSender() */\n      tag_190\n        /* \"contracts/NFT_Demo/NFT.sol\":6467:6477  _msgSender */\n      tag_102\n        /* \"contracts/NFT_Demo/NFT.sol\":6467:6479  _msgSender() */\n      jump\t// in\n    tag_190:\n        /* \"contracts/NFT_Demo/NFT.sol\":6456:6479  owner() == _msgSender() */\n      0xffffffffffffffffffffffffffffffffffffffff\n      and\n        /* \"contracts/NFT_Demo/NFT.sol\":6456:6463  owner() */\n      tag_191\n        /* \"contracts/NFT_Demo/NFT.sol\":6456:6461  owner */\n      tag_67\n        /* \"contracts/NFT_Demo/NFT.sol\":6456:6463  owner() */\n      jump\t// in\n    tag_191:\n        /* \"contracts/NFT_Demo/NFT.sol\":6456:6479  owner() == _msgSender() */\n      0xffffffffffffffffffffffffffffffffffffffff\n      and\n      eq\n        /* \"contracts/NFT_Demo/NFT.sol\":6448:6516  require(owner() == _msgSender(), \"Ownable: caller is not the owner\") */\n      tag_192\n      jumpi\n      mload(0x40)\n      0x08c379a000000000000000000000000000000000000000000000000000000000\n      dup2\n      mstore\n      0x04\n      add\n      tag_193\n      swap1\n      tag_124\n      jump\t// in\n    tag_193:\n      mload(0x40)\n      dup1\n      swap2\n      sub\n      swap1\n      revert\n    tag_192:\n        /* \"contracts/NFT_Demo/NFT.sol\":6768:6769  0 */\n      0x00\n        /* \"contracts/NFT_Demo/NFT.sol\":6748:6770  newOwner != address(0) */\n      0xffffffffffffffffffffffffffffffffffffffff\n      and\n        /* \"contracts/NFT_Demo/NFT.sol\":6748:6756  newOwner */\n      dup2\n        /* \"contracts/NFT_Demo/NFT.sol\":6748:6770  newOwner != address(0) */\n      0xffffffffffffffffffffffffffffffffffffffff\n      and\n      sub\n        /* \"contracts/NFT_Demo/NFT.sol\":6727:6834  require(... */\n      tag_195\n      jumpi\n      mload(0x40)\n      0x08c379a000000000000000000000000000000000000000000000000000000000\n      dup2\n      mstore\n      0x04\n      add\n      tag_196\n      swap1\n      tag_197\n      jump\t// in\n    tag_196:\n      mload(0x40)\n      dup1\n      swap2\n      sub\n      swap1\n      revert\n    tag_195:\n        /* \"contracts/NFT_Demo/NFT.sol\":6844:6872  _transferOwnership(newOwner) */\n      tag_198\n        /* \"contracts/NFT_Demo/NFT.sol\":6863:6871  newOwner */\n      dup2\n        /* \"contracts/NFT_Demo/NFT.sol\":6844:6862  _transferOwnership */\n      tag_143\n        /* \"contracts/NFT_Demo/NFT.sol\":6844:6872  _transferOwnership(newOwner) */\n      jump\t// in\n    tag_198:\n        /* \"contracts/NFT_Demo/NFT.sol\":6647:6879  function transferOwnership(address newOwner) public virtual onlyOwner {... */\n      pop\n      jump\t// out\n        /* \"contracts/NFT_Demo/NFT.sol\":12433:12558  function _exists(uint256 tokenId) internal view virtual returns (bool) {... */\n    tag_92:\n        /* \"contracts/NFT_Demo/NFT.sol\":12498:12502  bool */\n      0x00\n        /* \"contracts/NFT_Demo/NFT.sol\":12549:12550  0 */\n      dup1\n        /* \"contracts/NFT_Demo/NFT.sol\":12521:12551  _owners[tokenId] != address(0) */\n      0xffffffffffffffffffffffffffffffffffffffff\n      and\n        /* \"contracts/NFT_Demo/NFT.sol\":12521:12528  _owners */\n      0x02\n        /* \"contracts/NFT_Demo/NFT.sol\":12521:12537  _owners[tokenId] */\n      0x00\n        /* \"contracts/NFT_Demo/NFT.sol\":12529:12536  tokenId */\n      dup5\n        /* \"contracts/NFT_Demo/NFT.sol\":12521:12537  _owners[tokenId] */\n      dup2\n      mstore\n      0x20\n      add\n      swap1\n      dup2\n      mstore\n      0x20\n      add\n      0x00\n      keccak256\n      0x00\n      swap1\n      sload\n      swap1\n      0x0100\n      exp\n      swap1\n      div\n      0xffffffffffffffffffffffffffffffffffffffff\n      and\n        /* \"contracts/NFT_Demo/NFT.sol\":12521:12551  _owners[tokenId] != address(0) */\n      0xffffffffffffffffffffffffffffffffffffffff\n      and\n      eq\n      iszero\n        /* \"contracts/NFT_Demo/NFT.sol\":12514:12551  return _owners[tokenId] != address(0) */\n      swap1\n      pop\n        /* \"contracts/NFT_Demo/NFT.sol\":12433:12558  function _exists(uint256 tokenId) internal view virtual returns (bool) {... */\n      swap2\n      swap1\n      pop\n      jump\t// out\n        /* \"contracts/NFT_Demo/NFT.sol\":99:195  function _msgSender() internal view virtual returns (address) {... */\n    tag_102:\n        /* \"contracts/NFT_Demo/NFT.sol\":152:159  address */\n      0x00\n        /* \"contracts/NFT_Demo/NFT.sol\":178:188  msg.sender */\n      caller\n        /* \"contracts/NFT_Demo/NFT.sol\":171:188  return msg.sender */\n      swap1\n      pop\n        /* \"contracts/NFT_Demo/NFT.sol\":99:195  function _msgSender() internal view virtual returns (address) {... */\n      swap1\n      jump\t// out\n        /* \"contracts/NFT_Demo/NFT.sol\":14938:15109  function _approve(address to, uint256 tokenId) internal virtual {... */\n    tag_107:\n        /* \"contracts/NFT_Demo/NFT.sol\":15039:15041  to */\n      dup2\n        /* \"contracts/NFT_Demo/NFT.sol\":15012:15027  _tokenApprovals */\n      0x04\n        /* \"contracts/NFT_Demo/NFT.sol\":15012:15036  _tokenApprovals[tokenId] */\n      0x00\n        /* \"contracts/NFT_Demo/NFT.sol\":15028:15035  tokenId */\n      dup4\n        /* \"contracts/NFT_Demo/NFT.sol\":15012:15036  _tokenApprovals[tokenId] */\n      dup2\n      mstore\n      0x20\n      add\n      swap1\n      dup2\n      mstore\n      0x20\n      add\n      0x00\n      keccak256\n      0x00\n        /* \"contracts/NFT_Demo/NFT.sol\":15012:15041  _tokenApprovals[tokenId] = to */\n      0x0100\n      exp\n      dup2\n      sload\n      dup2\n      0xffffffffffffffffffffffffffffffffffffffff\n      mul\n      not\n      and\n      swap1\n      dup4\n      0xffffffffffffffffffffffffffffffffffffffff\n      and\n      mul\n      or\n      swap1\n      sstore\n      pop\n        /* \"contracts/NFT_Demo/NFT.sol\":15094:15101  tokenId */\n      dup1\n        /* \"contracts/NFT_Demo/NFT.sol\":15090:15092  to */\n      dup3\n        /* \"contracts/NFT_Demo/NFT.sol\":15056:15102  Approval(ERC721.ownerOf(tokenId), to, tokenId) */\n      0xffffffffffffffffffffffffffffffffffffffff\n      and\n        /* \"contracts/NFT_Demo/NFT.sol\":15065:15088  ERC721.ownerOf(tokenId) */\n      tag_202\n        /* \"contracts/NFT_Demo/NFT.sol\":15080:15087  tokenId */\n      dup4\n        /* \"contracts/NFT_Demo/NFT.sol\":15065:15079  ERC721.ownerOf */\n      tag_53\n        /* \"contracts/NFT_Demo/NFT.sol\":15065:15088  ERC721.ownerOf(tokenId) */\n      jump\t// in\n    tag_202:\n        /* \"contracts/NFT_Demo/NFT.sol\":15056:15102  Approval(ERC721.ownerOf(tokenId), to, tokenId) */\n      0xffffffffffffffffffffffffffffffffffffffff\n      and\n      0x8c5be1e5ebec7d5bd14f71427d1e84f3dd0314c0f7b2291e5b200ac8c7c3b925\n      mload(0x40)\n      mload(0x40)\n      dup1\n      swap2\n      sub\n      swap1\n      log4\n        /* \"contracts/NFT_Demo/NFT.sol\":14938:15109  function _approve(address to, uint256 tokenId) internal virtual {... */\n      pop\n      pop\n      jump\t// out\n        /* \"contracts/NFT_Demo/NFT.sol\":12564:12942  function _isApprovedOrOwner(address spender, uint256 tokenId)... */\n    tag_111:\n        /* \"contracts/NFT_Demo/NFT.sol\":12689:12693  bool */\n      0x00\n        /* \"contracts/NFT_Demo/NFT.sol\":12730:12746  _exists(tokenId) */\n      tag_204\n        /* \"contracts/NFT_Demo/NFT.sol\":12738:12745  tokenId */\n      dup3\n        /* \"contracts/NFT_Demo/NFT.sol\":12730:12737  _exists */\n      tag_92\n        /* \"contracts/NFT_Demo/NFT.sol\":12730:12746  _exists(tokenId) */\n      jump\t// in\n    tag_204:\n        /* \"contracts/NFT_Demo/NFT.sol\":12709:12816  require(... */\n      tag_205\n      jumpi\n      mload(0x40)\n      0x08c379a000000000000000000000000000000000000000000000000000000000\n      dup2\n      mstore\n      0x04\n      add\n      tag_206\n      swap1\n      tag_207\n      jump\t// in\n    tag_206:\n      mload(0x40)\n      dup1\n      swap2\n      sub\n      swap1\n      revert\n    tag_205:\n        /* \"contracts/NFT_Demo/NFT.sol\":12826:12839  address owner */\n      0x00\n        /* \"contracts/NFT_Demo/NFT.sol\":12842:12865  ERC721.ownerOf(tokenId) */\n      tag_208\n        /* \"contracts/NFT_Demo/NFT.sol\":12857:12864  tokenId */\n      dup4\n        /* \"contracts/NFT_Demo/NFT.sol\":12842:12856  ERC721.ownerOf */\n      tag_53\n        /* \"contracts/NFT_Demo/NFT.sol\":12842:12865  ERC721.ownerOf(tokenId) */\n      jump\t// in\n    tag_208:\n        /* \"contracts/NFT_Demo/NFT.sol\":12826:12865  address owner = ERC721.ownerOf(tokenId) */\n      swap1\n      pop\n        /* \"contracts/NFT_Demo/NFT.sol\":12894:12899  owner */\n      dup1\n        /* \"contracts/NFT_Demo/NFT.sol\":12883:12899  spender == owner */\n      0xffffffffffffffffffffffffffffffffffffffff\n      and\n        /* \"contracts/NFT_Demo/NFT.sol\":12883:12890  spender */\n      dup5\n        /* \"contracts/NFT_Demo/NFT.sol\":12883:12899  spender == owner */\n      0xffffffffffffffffffffffffffffffffffffffff\n      and\n      eq\n        /* \"contracts/NFT_Demo/NFT.sol\":12883:12934  spender == owner || getApproved(tokenId) == spender */\n      dup1\n      tag_209\n      jumpi\n      pop\n        /* \"contracts/NFT_Demo/NFT.sol\":12927:12934  spender */\n      dup4\n        /* \"contracts/NFT_Demo/NFT.sol\":12903:12934  getApproved(tokenId) == spender */\n      0xffffffffffffffffffffffffffffffffffffffff\n      and\n        /* \"contracts/NFT_Demo/NFT.sol\":12903:12923  getApproved(tokenId) */\n      tag_210\n        /* \"contracts/NFT_Demo/NFT.sol\":12915:12922  tokenId */\n      dup5\n        /* \"contracts/NFT_Demo/NFT.sol\":12903:12914  getApproved */\n      tag_29\n        /* \"contracts/NFT_Demo/NFT.sol\":12903:12923  getApproved(tokenId) */\n      jump\t// in\n    tag_210:\n        /* \"contracts/NFT_Demo/NFT.sol\":12903:12934  getApproved(tokenId) == spender */\n      0xffffffffffffffffffffffffffffffffffffffff\n      and\n      eq\n        /* \"contracts/NFT_Demo/NFT.sol\":12883:12934  spender == owner || getApproved(tokenId) == spender */\n    tag_209:\n        /* \"contracts/NFT_Demo/NFT.sol\":12875:12935  return (spender == owner || getApproved(tokenId) == spender) */\n      swap2\n      pop\n      pop\n        /* \"contracts/NFT_Demo/NFT.sol\":12564:12942  function _isApprovedOrOwner(address spender, uint256 tokenId)... */\n      swap3\n      swap2\n      pop\n      pop\n      jump\t// out\n        /* \"contracts/NFT_Demo/NFT.sol\":14293:14932  function _transfer(... */\n    tag_116:\n        /* \"contracts/NFT_Demo/NFT.sol\":14460:14464  from */\n      dup3\n        /* \"contracts/NFT_Demo/NFT.sol\":14433:14464  ERC721.ownerOf(tokenId) == from */\n      0xffffffffffffffffffffffffffffffffffffffff\n      and\n        /* \"contracts/NFT_Demo/NFT.sol\":14433:14456  ERC721.ownerOf(tokenId) */\n      tag_212\n        /* \"contracts/NFT_Demo/NFT.sol\":14448:14455  tokenId */\n      dup3\n        /* \"contracts/NFT_Demo/NFT.sol\":14433:14447  ERC721.ownerOf */\n      tag_53\n        /* \"contracts/NFT_Demo/NFT.sol\":14433:14456  ERC721.ownerOf(tokenId) */\n      jump\t// in\n    tag_212:\n        /* \"contracts/NFT_Demo/NFT.sol\":14433:14464  ERC721.ownerOf(tokenId) == from */\n      0xffffffffffffffffffffffffffffffffffffffff\n      and\n      eq\n        /* \"contracts/NFT_Demo/NFT.sol\":14412:14527  require(... */\n      tag_213\n      jumpi\n      mload(0x40)\n      0x08c379a000000000000000000000000000000000000000000000000000000000\n      dup2\n      mstore\n      0x04\n      add\n      tag_214\n      swap1\n      tag_215\n      jump\t// in\n    tag_214:\n      mload(0x40)\n      dup1\n      swap2\n      sub\n      swap1\n      revert\n    tag_213:\n        /* \"contracts/NFT_Demo/NFT.sol\":14559:14560  0 */\n      0x00\n        /* \"contracts/NFT_Demo/NFT.sol\":14545:14561  to != address(0) */\n      0xffffffffffffffffffffffffffffffffffffffff\n      and\n        /* \"contracts/NFT_Demo/NFT.sol\":14545:14547  to */\n      dup3\n        /* \"contracts/NFT_Demo/NFT.sol\":14545:14561  to != address(0) */\n      0xffffffffffffffffffffffffffffffffffffffff\n      and\n      sub\n        /* \"contracts/NFT_Demo/NFT.sol\":14537:14602  require(to != address(0), \"ERC721: transfer to the zero address\") */\n      tag_216\n      jumpi\n      mload(0x40)\n      0x08c379a000000000000000000000000000000000000000000000000000000000\n      dup2\n      mstore\n      0x04\n      add\n      tag_217\n      swap1\n      tag_218\n      jump\t// in\n    tag_217:\n      mload(0x40)\n      dup1\n      swap2\n      sub\n      swap1\n      revert\n    tag_216:\n        /* \"contracts/NFT_Demo/NFT.sol\":14613:14652  _beforeTokenTransfer(from, to, tokenId) */\n      tag_219\n        /* \"contracts/NFT_Demo/NFT.sol\":14634:14638  from */\n      dup4\n        /* \"contracts/NFT_Demo/NFT.sol\":14640:14642  to */\n      dup4\n        /* \"contracts/NFT_Demo/NFT.sol\":14644:14651  tokenId */\n      dup4\n        /* \"contracts/NFT_Demo/NFT.sol\":14613:14633  _beforeTokenTransfer */\n      tag_220\n        /* \"contracts/NFT_Demo/NFT.sol\":14613:14652  _beforeTokenTransfer(from, to, tokenId) */\n      jump\t// in\n    tag_219:\n        /* \"contracts/NFT_Demo/NFT.sol\":14714:14743  _approve(address(0), tokenId) */\n      tag_221\n        /* \"contracts/NFT_Demo/NFT.sol\":14731:14732  0 */\n      0x00\n        /* \"contracts/NFT_Demo/NFT.sol\":14735:14742  tokenId */\n      dup3\n        /* \"contracts/NFT_Demo/NFT.sol\":14714:14722  _approve */\n      tag_107\n        /* \"contracts/NFT_Demo/NFT.sol\":14714:14743  _approve(address(0), tokenId) */\n      jump\t// in\n    tag_221:\n        /* \"contracts/NFT_Demo/NFT.sol\":14773:14774  1 */\n      0x01\n        /* \"contracts/NFT_Demo/NFT.sol\":14754:14763  _balances */\n      dup1\n        /* \"contracts/NFT_Demo/NFT.sol\":14754:14769  _balances[from] */\n      0x00\n        /* \"contracts/NFT_Demo/NFT.sol\":14764:14768  from */\n      dup6\n        /* \"contracts/NFT_Demo/NFT.sol\":14754:14769  _balances[from] */\n      0xffffffffffffffffffffffffffffffffffffffff\n      and\n      0xffffffffffffffffffffffffffffffffffffffff\n      and\n      dup2\n      mstore\n      0x20\n      add\n      swap1\n      dup2\n      mstore\n      0x20\n      add\n      0x00\n      keccak256\n      0x00\n        /* \"contracts/NFT_Demo/NFT.sol\":14754:14774  _balances[from] -= 1 */\n      dup3\n      dup3\n      sload\n      tag_222\n      swap2\n      swap1\n      tag_223\n      jump\t// in\n    tag_222:\n      swap3\n      pop\n      pop\n      dup2\n      swap1\n      sstore\n      pop\n        /* \"contracts/NFT_Demo/NFT.sol\":14801:14802  1 */\n      0x01\n        /* \"contracts/NFT_Demo/NFT.sol\":14784:14793  _balances */\n      dup1\n        /* \"contracts/NFT_Demo/NFT.sol\":14784:14797  _balances[to] */\n      0x00\n        /* \"contracts/NFT_Demo/NFT.sol\":14794:14796  to */\n      dup5\n        /* \"contracts/NFT_Demo/NFT.sol\":14784:14797  _balances[to] */\n      0xffffffffffffffffffffffffffffffffffffffff\n      and\n      0xffffffffffffffffffffffffffffffffffffffff\n      and\n      dup2\n      mstore\n      0x20\n      add\n      swap1\n      dup2\n      mstore\n      0x20\n      add\n      0x00\n      keccak256\n      0x00\n        /* \"contracts/NFT_Demo/NFT.sol\":14784:14802  _balances[to] += 1 */\n      dup3\n      dup3\n      sload\n      tag_224\n      swap2\n      swap1\n      tag_225\n      jump\t// in\n    tag_224:\n      swap3\n      pop\n      pop\n      dup2\n      swap1\n      sstore\n      pop\n        /* \"contracts/NFT_Demo/NFT.sol\":14831:14833  to */\n      dup2\n        /* \"contracts/NFT_Demo/NFT.sol\":14812:14819  _owners */\n      0x02\n        /* \"contracts/NFT_Demo/NFT.sol\":14812:14828  _owners[tokenId] */\n      0x00\n        /* \"contracts/NFT_Demo/NFT.sol\":14820:14827  tokenId */\n      dup4\n        /* \"contracts/NFT_Demo/NFT.sol\":14812:14828  _owners[tokenId] */\n      dup2\n      mstore\n      0x20\n      add\n      swap1\n      dup2\n      mstore\n      0x20\n      add\n      0x00\n      keccak256\n      0x00\n        /* \"contracts/NFT_Demo/NFT.sol\":14812:14833  _owners[tokenId] = to */\n      0x0100\n      exp\n      dup2\n      sload\n      dup2\n      0xffffffffffffffffffffffffffffffffffffffff\n      mul\n      not\n      and\n      swap1\n      dup4\n      0xffffffffffffffffffffffffffffffffffffffff\n      and\n      mul\n      or\n      swap1\n      sstore\n      pop\n        /* \"contracts/NFT_Demo/NFT.sol\":14868:14875  tokenId */\n      dup1\n        /* \"contracts/NFT_Demo/NFT.sol\":14864:14866  to */\n      dup3\n        /* \"contracts/NFT_Demo/NFT.sol\":14849:14876  Transfer(from, to, tokenId) */\n      0xffffffffffffffffffffffffffffffffffffffff\n      and\n        /* \"contracts/NFT_Demo/NFT.sol\":14858:14862  from */\n      dup5\n        /* \"contracts/NFT_Demo/NFT.sol\":14849:14876  Transfer(from, to, tokenId) */\n      0xffffffffffffffffffffffffffffffffffffffff\n      and\n      0xddf252ad1be2c89b69c2b068fc378daa952ba7f163c4a11628f55a4df523b3ef\n      mload(0x40)\n      mload(0x40)\n      dup1\n      swap2\n      sub\n      swap1\n      log4\n        /* \"contracts/NFT_Demo/NFT.sol\":14887:14925  _afterTokenTransfer(from, to, tokenId) */\n      tag_226\n        /* \"contracts/NFT_Demo/NFT.sol\":14907:14911  from */\n      dup4\n        /* \"contracts/NFT_Demo/NFT.sol\":14913:14915  to */\n      dup4\n        /* \"contracts/NFT_Demo/NFT.sol\":14917:14924  tokenId */\n      dup4\n        /* \"contracts/NFT_Demo/NFT.sol\":14887:14906  _afterTokenTransfer */\n      tag_227\n        /* \"contracts/NFT_Demo/NFT.sol\":14887:14925  _afterTokenTransfer(from, to, tokenId) */\n      jump\t// in\n    tag_226:\n        /* \"contracts/NFT_Demo/NFT.sol\":14293:14932  function _transfer(... */\n      pop\n      pop\n      pop\n      jump\t// out\n        /* \"contracts/NFT_Demo/NFT.sol\":6885:7072  function _transferOwnership(address newOwner) internal virtual {... */\n    tag_143:\n        /* \"contracts/NFT_Demo/NFT.sol\":6958:6974  address oldOwner */\n      0x00\n        /* \"contracts/NFT_Demo/NFT.sol\":6977:6983  _owner */\n      dup1\n      0x00\n      swap1\n      sload\n      swap1\n      0x0100\n      exp\n      swap1\n      div\n      0xffffffffffffffffffffffffffffffffffffffff\n      and\n        /* \"contracts/NFT_Demo/NFT.sol\":6958:6983  address oldOwner = _owner */\n      swap1\n      pop\n        /* \"contracts/NFT_Demo/NFT.sol\":7002:7010  newOwner */\n      dup2\n        /* \"contracts/NFT_Demo/NFT.sol\":6993:6999  _owner */\n      0x00\n      dup1\n        /* \"contracts/NFT_Demo/NFT.sol\":6993:7010  _owner = newOwner */\n      0x0100\n      exp\n      dup2\n      sload\n      dup2\n      0xffffffffffffffffffffffffffffffffffffffff\n      mul\n      not\n      and\n      swap1\n      dup4\n      0xffffffffffffffffffffffffffffffffffffffff\n      and\n      mul\n      or\n      swap1\n      sstore\n      pop\n        /* \"contracts/NFT_Demo/NFT.sol\":7056:7064  newOwner */\n      dup2\n        /* \"contracts/NFT_Demo/NFT.sol\":7025:7065  OwnershipTransferred(oldOwner, newOwner) */\n      0xffffffffffffffffffffffffffffffffffffffff\n      and\n        /* \"contracts/NFT_Demo/NFT.sol\":7046:7054  oldOwner */\n      dup2\n        /* \"contracts/NFT_Demo/NFT.sol\":7025:7065  OwnershipTransferred(oldOwner, newOwner) */\n      0xffffffffffffffffffffffffffffffffffffffff\n      and\n      0x8be0079c531659141344cd1fd0a4f28419497f9722a3daafe3b4186f6b6457e0\n      mload(0x40)\n      mload(0x40)\n      dup1\n      swap2\n      sub\n      swap1\n      log3\n        /* \"contracts/NFT_Demo/NFT.sol\":6948:7072  {... */\n      pop\n        /* \"contracts/NFT_Demo/NFT.sol\":6885:7072  function _transferOwnership(address newOwner) internal virtual {... */\n      pop\n      jump\t// out\n        /* \"contracts/NFT_Demo/NFT.sol\":13814:13875  function _mintNew(uint256 tokenId) internal virtual { ... */\n    tag_151:\n      pop\n      jump\t// out\n        /* \"contracts/NFT_Demo/NFT.sol\":18273:18539  function _setTokenURI(uint256 tokenId, string memory _tokenURI)... */\n    tag_153:\n        /* \"contracts/NFT_Demo/NFT.sol\":18405:18421  _exists(tokenId) */\n      tag_231\n        /* \"contracts/NFT_Demo/NFT.sol\":18413:18420  tokenId */\n      dup3\n        /* \"contracts/NFT_Demo/NFT.sol\":18405:18412  _exists */\n      tag_92\n        /* \"contracts/NFT_Demo/NFT.sol\":18405:18421  _exists(tokenId) */\n      jump\t// in\n    tag_231:\n        /* \"contracts/NFT_Demo/NFT.sol\":18384:18491  require(... */\n      tag_232\n      jumpi\n      mload(0x40)\n      0x08c379a000000000000000000000000000000000000000000000000000000000\n      dup2\n      mstore\n      0x04\n      add\n      tag_233\n      swap1\n      tag_234\n      jump\t// in\n    tag_233:\n      mload(0x40)\n      dup1\n      swap2\n      sub\n      swap1\n      revert\n    tag_232:\n        /* \"contracts/NFT_Demo/NFT.sol\":18523:18532  _tokenURI */\n      dup1\n        /* \"contracts/NFT_Demo/NFT.sol\":18501:18511  _tokenURIs */\n      0x0c\n        /* \"contracts/NFT_Demo/NFT.sol\":18501:18520  _tokenURIs[tokenId] */\n      0x00\n        /* \"contracts/NFT_Demo/NFT.sol\":18512:18519  tokenId */\n      dup5\n        /* \"contracts/NFT_Demo/NFT.sol\":18501:18520  _tokenURIs[tokenId] */\n      dup2\n      mstore\n      0x20\n      add\n      swap1\n      dup2\n      mstore\n      0x20\n      add\n      0x00\n      keccak256\n        /* \"contracts/NFT_Demo/NFT.sol\":18501:18532  _tokenURIs[tokenId] = _tokenURI */\n      swap1\n      dup1\n      mload\n      swap1\n      0x20\n      add\n      swap1\n      tag_235\n      swap3\n      swap2\n      swap1\n      tag_127\n      jump\t// in\n    tag_235:\n      pop\n        /* \"contracts/NFT_Demo/NFT.sol\":18273:18539  function _setTokenURI(uint256 tokenId, string memory _tokenURI)... */\n      pop\n      pop\n      jump\t// out\n        /* \"contracts/NFT_Demo/NFT.sol\":12086:12427  function _safeTransfer(... */\n    tag_169:\n        /* \"contracts/NFT_Demo/NFT.sol\":12237:12265  _transfer(from, to, tokenId) */\n      tag_237\n        /* \"contracts/NFT_Demo/NFT.sol\":12247:12251  from */\n      dup5\n        /* \"contracts/NFT_Demo/NFT.sol\":12253:12255  to */\n      dup5\n        /* \"contracts/NFT_Demo/NFT.sol\":12257:12264  tokenId */\n      dup5\n        /* \"contracts/NFT_Demo/NFT.sol\":12237:12246  _transfer */\n      tag_116\n        /* \"contracts/NFT_Demo/NFT.sol\":12237:12265  _transfer(from, to, tokenId) */\n      jump\t// in\n    tag_237:\n        /* \"contracts/NFT_Demo/NFT.sol\":12296:12344  _checkOnERC721Received(from, to, tokenId, _data) */\n      tag_238\n        /* \"contracts/NFT_Demo/NFT.sol\":12319:12323  from */\n      dup5\n        /* \"contracts/NFT_Demo/NFT.sol\":12325:12327  to */\n      dup5\n        /* \"contracts/NFT_Demo/NFT.sol\":12329:12336  tokenId */\n      dup5\n        /* \"contracts/NFT_Demo/NFT.sol\":12338:12343  _data */\n      dup5\n        /* \"contracts/NFT_Demo/NFT.sol\":12296:12318  _checkOnERC721Received */\n      tag_239\n        /* \"contracts/NFT_Demo/NFT.sol\":12296:12344  _checkOnERC721Received(from, to, tokenId, _data) */\n      jump\t// in\n    tag_238:\n        /* \"contracts/NFT_Demo/NFT.sol\":12275:12420  require(... */\n      tag_240\n      jumpi\n      mload(0x40)\n      0x08c379a000000000000000000000000000000000000000000000000000000000\n      dup2\n      mstore\n      0x04\n      add\n      tag_241\n      swap1\n      tag_242\n      jump\t// in\n    tag_241:\n      mload(0x40)\n      dup1\n      swap2\n      sub\n      swap1\n      revert\n    tag_240:\n        /* \"contracts/NFT_Demo/NFT.sol\":12086:12427  function _safeTransfer(... */\n      pop\n      pop\n      pop\n      pop\n      jump\t// out\n        /* \"contracts/NFT_Demo/NFT.sol\":18545:18660  function _baseURI() internal view virtual override returns (string memory) {... */\n    tag_181:\n        /* \"contracts/NFT_Demo/NFT.sol\":18605:18618  string memory */\n      0x60\n        /* \"contracts/NFT_Demo/NFT.sol\":18637:18653  _baseURIextended */\n      0x09\n        /* \"contracts/NFT_Demo/NFT.sol\":18630:18653  return _baseURIextended */\n      dup1\n      sload\n      tag_244\n      swap1\n      tag_85\n      jump\t// in\n    tag_244:\n      dup1\n      0x1f\n      add\n      0x20\n      dup1\n      swap2\n      div\n      mul\n      0x20\n      add\n      mload(0x40)\n      swap1\n      dup2\n      add\n      0x40\n      mstore\n      dup1\n      swap3\n      swap2\n      swap1\n      dup2\n      dup2\n      mstore\n      0x20\n      add\n      dup3\n      dup1\n      sload\n      tag_245\n      swap1\n      tag_85\n      jump\t// in\n    tag_245:\n      dup1\n      iszero\n      tag_246\n      jumpi\n      dup1\n      0x1f\n      lt\n      tag_247\n      jumpi\n      0x0100\n      dup1\n      dup4\n      sload\n      div\n      mul\n      dup4\n      mstore\n      swap2\n      0x20\n      add\n      swap2\n      jump(tag_246)\n    tag_247:\n      dup3\n      add\n      swap2\n      swap1\n      0x00\n      mstore\n      keccak256(0x00, 0x20)\n      swap1\n    tag_248:\n      dup2\n      sload\n      dup2\n      mstore\n      swap1\n      0x01\n      add\n      swap1\n      0x20\n      add\n      dup1\n      dup4\n      gt\n      tag_248\n      jumpi\n      dup3\n      swap1\n      sub\n      0x1f\n      and\n      dup3\n      add\n      swap2\n    tag_246:\n      pop\n      pop\n      pop\n      pop\n      pop\n      swap1\n      pop\n        /* \"contracts/NFT_Demo/NFT.sol\":18545:18660  function _baseURI() internal view virtual override returns (string memory) {... */\n      swap1\n      jump\t// out\n        /* \"contracts/NFT_Demo/NFT.sol\":4744:5259  function toString(uint256 value) internal pure returns (string memory) {... */\n    tag_187:\n        /* \"contracts/NFT_Demo/NFT.sol\":4800:4813  string memory */\n      0x60\n        /* \"contracts/NFT_Demo/NFT.sol\":4838:4839  0 */\n      0x00\n        /* \"contracts/NFT_Demo/NFT.sol\":4829:4834  value */\n      dup3\n        /* \"contracts/NFT_Demo/NFT.sol\":4829:4839  value == 0 */\n      sub\n        /* \"contracts/NFT_Demo/NFT.sol\":4825:4876  if (value == 0) {... */\n      tag_250\n      jumpi\n        /* \"contracts/NFT_Demo/NFT.sol\":4855:4865  return \"0\" */\n      mload(0x40)\n      dup1\n      0x40\n      add\n      0x40\n      mstore\n      dup1\n      0x01\n      dup2\n      mstore\n      0x20\n      add\n      0x3000000000000000000000000000000000000000000000000000000000000000\n      dup2\n      mstore\n      pop\n      swap1\n      pop\n      jump(tag_249)\n        /* \"contracts/NFT_Demo/NFT.sol\":4825:4876  if (value == 0) {... */\n    tag_250:\n        /* \"contracts/NFT_Demo/NFT.sol\":4885:4897  uint256 temp */\n      0x00\n        /* \"contracts/NFT_Demo/NFT.sol\":4900:4905  value */\n      dup3\n        /* \"contracts/NFT_Demo/NFT.sol\":4885:4905  uint256 temp = value */\n      swap1\n      pop\n        /* \"contracts/NFT_Demo/NFT.sol\":4915:4929  uint256 digits */\n      0x00\n        /* \"contracts/NFT_Demo/NFT.sol\":4939:5014  while (temp != 0) {... */\n    tag_251:\n        /* \"contracts/NFT_Demo/NFT.sol\":4954:4955  0 */\n      0x00\n        /* \"contracts/NFT_Demo/NFT.sol\":4946:4950  temp */\n      dup3\n        /* \"contracts/NFT_Demo/NFT.sol\":4946:4955  temp != 0 */\n      eq\n        /* \"contracts/NFT_Demo/NFT.sol\":4939:5014  while (temp != 0) {... */\n      tag_252\n      jumpi\n        /* \"contracts/NFT_Demo/NFT.sol\":4971:4979  digits++ */\n      dup1\n      dup1\n      tag_253\n      swap1\n      tag_155\n      jump\t// in\n    tag_253:\n      swap2\n      pop\n      pop\n        /* \"contracts/NFT_Demo/NFT.sol\":5001:5003  10 */\n      0x0a\n        /* \"contracts/NFT_Demo/NFT.sol\":4993:5003  temp /= 10 */\n      dup3\n      tag_254\n      swap2\n      swap1\n      tag_255\n      jump\t// in\n    tag_254:\n      swap2\n      pop\n        /* \"contracts/NFT_Demo/NFT.sol\":4939:5014  while (temp != 0) {... */\n      jump(tag_251)\n    tag_252:\n        /* \"contracts/NFT_Demo/NFT.sol\":5023:5042  bytes memory buffer */\n      0x00\n        /* \"contracts/NFT_Demo/NFT.sol\":5055:5061  digits */\n      dup2\n        /* \"contracts/NFT_Demo/NFT.sol\":5045:5062  new bytes(digits) */\n      0xffffffffffffffff\n      dup2\n      gt\n      iszero\n      tag_256\n      jumpi\n      tag_257\n      tag_258\n      jump\t// in\n    tag_257:\n    tag_256:\n      mload(0x40)\n      swap1\n      dup1\n      dup3\n      mstore\n      dup1\n      0x1f\n      add\n      not(0x1f)\n      and\n      0x20\n      add\n      dup3\n      add\n      0x40\n      mstore\n      dup1\n      iszero\n      tag_259\n      jumpi\n      dup2\n      0x20\n      add\n      0x01\n      dup3\n      mul\n      dup1\n      calldatasize\n      dup4\n      calldatacopy\n      dup1\n      dup3\n      add\n      swap2\n      pop\n      pop\n      swap1\n      pop\n    tag_259:\n      pop\n        /* \"contracts/NFT_Demo/NFT.sol\":5023:5062  bytes memory buffer = new bytes(digits) */\n      swap1\n      pop\n        /* \"contracts/NFT_Demo/NFT.sol\":5072:5222  while (value != 0) {... */\n    tag_260:\n        /* \"contracts/NFT_Demo/NFT.sol\":5088:5089  0 */\n      0x00\n        /* \"contracts/NFT_Demo/NFT.sol\":5079:5084  value */\n      dup6\n        /* \"contracts/NFT_Demo/NFT.sol\":5079:5089  value != 0 */\n      eq\n        /* \"contracts/NFT_Demo/NFT.sol\":5072:5222  while (value != 0) {... */\n      tag_261\n      jumpi\n        /* \"contracts/NFT_Demo/NFT.sol\":5115:5116  1 */\n      0x01\n        /* \"contracts/NFT_Demo/NFT.sol\":5105:5116  digits -= 1 */\n      dup3\n      tag_262\n      swap2\n      swap1\n      tag_223\n      jump\t// in\n    tag_262:\n      swap2\n      pop\n        /* \"contracts/NFT_Demo/NFT.sol\":5181:5183  10 */\n      0x0a\n        /* \"contracts/NFT_Demo/NFT.sol\":5173:5178  value */\n      dup6\n        /* \"contracts/NFT_Demo/NFT.sol\":5173:5183  value % 10 */\n      tag_263\n      swap2\n      swap1\n      tag_264\n      jump\t// in\n    tag_263:\n        /* \"contracts/NFT_Demo/NFT.sol\":5160:5162  48 */\n      0x30\n        /* \"contracts/NFT_Demo/NFT.sol\":5160:5184  48 + uint256(value % 10) */\n      tag_265\n      swap2\n      swap1\n      tag_225\n      jump\t// in\n    tag_265:\n        /* \"contracts/NFT_Demo/NFT.sol\":5147:5186  bytes1(uint8(48 + uint256(value % 10))) */\n      0xf8\n      shl\n        /* \"contracts/NFT_Demo/NFT.sol\":5130:5136  buffer */\n      dup2\n        /* \"contracts/NFT_Demo/NFT.sol\":5137:5143  digits */\n      dup4\n        /* \"contracts/NFT_Demo/NFT.sol\":5130:5144  buffer[digits] */\n      dup2\n      mload\n      dup2\n      lt\n      tag_266\n      jumpi\n      tag_267\n      tag_268\n      jump\t// in\n    tag_267:\n    tag_266:\n      0x20\n      add\n      add\n        /* \"contracts/NFT_Demo/NFT.sol\":5130:5186  buffer[digits] = bytes1(uint8(48 + uint256(value % 10))) */\n      swap1\n      not(0xffffffffffffffffffffffffffffffffffffffffffffffffffffffffffffff)\n      and\n      swap1\n      dup2\n      0x00\n      byte\n      swap1\n      mstore8\n      pop\n        /* \"contracts/NFT_Demo/NFT.sol\":5209:5211  10 */\n      0x0a\n        /* \"contracts/NFT_Demo/NFT.sol\":5200:5211  value /= 10 */\n      dup6\n      tag_269\n      swap2\n      swap1\n      tag_255\n      jump\t// in\n    tag_269:\n      swap5\n      pop\n        /* \"contracts/NFT_Demo/NFT.sol\":5072:5222  while (value != 0) {... */\n      jump(tag_260)\n    tag_261:\n        /* \"contracts/NFT_Demo/NFT.sol\":5245:5251  buffer */\n      dup1\n        /* \"contracts/NFT_Demo/NFT.sol\":5231:5252  return string(buffer) */\n      swap4\n      pop\n      pop\n      pop\n      pop\n        /* \"contracts/NFT_Demo/NFT.sol\":4744:5259  function toString(uint256 value) internal pure returns (string memory) {... */\n    tag_249:\n      swap2\n      swap1\n      pop\n      jump\t// out\n        /* \"contracts/NFT_Demo/NFT.sol\":16384:16624  function _beforeTokenTransfer(... */\n    tag_220:\n        /* \"contracts/NFT_Demo/NFT.sol\":16555:16559  from */\n      dup3\n        /* \"contracts/NFT_Demo/NFT.sol\":16535:16559  _owners[tokenId] == from */\n      0xffffffffffffffffffffffffffffffffffffffff\n      and\n        /* \"contracts/NFT_Demo/NFT.sol\":16535:16542  _owners */\n      0x02\n        /* \"contracts/NFT_Demo/NFT.sol\":16535:16551  _owners[tokenId] */\n      0x00\n        /* \"contracts/NFT_Demo/NFT.sol\":16543:16550  tokenId */\n      dup4\n        /* \"contracts/NFT_Demo/NFT.sol\":16535:16551  _owners[tokenId] */\n      dup2\n      mstore\n      0x20\n      add\n      swap1\n      dup2\n      mstore\n      0x20\n      add\n      0x00\n      keccak256\n      0x00\n      swap1\n      sload\n      swap1\n      0x0100\n      exp\n      swap1\n      div\n      0xffffffffffffffffffffffffffffffffffffffff\n      and\n        /* \"contracts/NFT_Demo/NFT.sol\":16535:16559  _owners[tokenId] == from */\n      0xffffffffffffffffffffffffffffffffffffffff\n      and\n      eq\n        /* \"contracts/NFT_Demo/NFT.sol\":16514:16617  require(... */\n      tag_271\n      jumpi\n      mload(0x40)\n      0x08c379a000000000000000000000000000000000000000000000000000000000\n      dup2\n      mstore\n      0x04\n      add\n      tag_272\n      swap1\n      tag_273\n      jump\t// in\n    tag_272:\n      mload(0x40)\n      dup1\n      swap2\n      sub\n      swap1\n      revert\n    tag_271:\n        /* \"contracts/NFT_Demo/NFT.sol\":16384:16624  function _beforeTokenTransfer(... */\n      pop\n      pop\n      pop\n      jump\t// out\n        /* \"contracts/NFT_Demo/NFT.sol\":16630:16751  function _afterTokenTransfer(... */\n    tag_227:\n      pop\n      pop\n      pop\n      jump\t// out\n        /* \"contracts/NFT_Demo/NFT.sol\":15428:16378  function _checkOnERC721Received(... */\n    tag_239:\n        /* \"contracts/NFT_Demo/NFT.sol\":15578:15582  bool */\n      0x00\n        /* \"contracts/NFT_Demo/NFT.sol\":15598:15613  to.isContract() */\n      tag_276\n        /* \"contracts/NFT_Demo/NFT.sol\":15598:15600  to */\n      dup5\n        /* \"contracts/NFT_Demo/NFT.sol\":15598:15611  to.isContract */\n      0xffffffffffffffffffffffffffffffffffffffff\n      and\n      tag_277\n        /* \"contracts/NFT_Demo/NFT.sol\":15598:15613  to.isContract() */\n      jump\t// in\n    tag_276:\n        /* \"contracts/NFT_Demo/NFT.sol\":15594:16372  if (to.isContract()) {... */\n      iszero\n      tag_278\n      jumpi\n        /* \"contracts/NFT_Demo/NFT.sol\":15665:15667  to */\n      dup4\n        /* \"contracts/NFT_Demo/NFT.sol\":15649:15685  IERC721Receiver(to).onERC721Received */\n      0xffffffffffffffffffffffffffffffffffffffff\n      and\n      0x150b7a02\n        /* \"contracts/NFT_Demo/NFT.sol\":15707:15719  _msgSender() */\n      tag_279\n        /* \"contracts/NFT_Demo/NFT.sol\":15707:15717  _msgSender */\n      tag_102\n        /* \"contracts/NFT_Demo/NFT.sol\":15707:15719  _msgSender() */\n      jump\t// in\n    tag_279:\n        /* \"contracts/NFT_Demo/NFT.sol\":15741:15745  from */\n      dup8\n        /* \"contracts/NFT_Demo/NFT.sol\":15767:15774  tokenId */\n      dup7\n        /* \"contracts/NFT_Demo/NFT.sol\":15796:15801  _data */\n      dup7\n        /* \"contracts/NFT_Demo/NFT.sol\":15649:15819  IERC721Receiver(to).onERC721Received(... */\n      mload(0x40)\n      dup6\n      0xffffffff\n      and\n      0xe0\n      shl\n      dup2\n      mstore\n      0x04\n      add\n      tag_280\n      swap5\n      swap4\n      swap3\n      swap2\n      swap1\n      tag_281\n      jump\t// in\n    tag_280:\n      0x20\n      mload(0x40)\n      dup1\n      dup4\n      sub\n      dup2\n      0x00\n      dup8\n      gas\n      call\n      swap3\n      pop\n      pop\n      pop\n      dup1\n      iszero\n      tag_282\n      jumpi\n      pop\n      mload(0x40)\n      returndatasize\n      not(0x1f)\n      0x1f\n      dup3\n      add\n      and\n      dup3\n      add\n      dup1\n      0x40\n      mstore\n      pop\n      dup2\n      add\n      swap1\n      tag_283\n      swap2\n      swap1\n      tag_284\n      jump\t// in\n    tag_283:\n      0x01\n    tag_282:\n        /* \"contracts/NFT_Demo/NFT.sol\":15629:16320  try... */\n      tag_285\n      jumpi\n      returndatasize\n      dup1\n      0x00\n      dup2\n      eq\n      tag_290\n      jumpi\n      mload(0x40)\n      swap2\n      pop\n      and(add(returndatasize, 0x3f), not(0x1f))\n      dup3\n      add\n      0x40\n      mstore\n      returndatasize\n      dup3\n      mstore\n      returndatasize\n      0x00\n      0x20\n      dup5\n      add\n      returndatacopy\n      jump(tag_289)\n    tag_290:\n      0x60\n      swap2\n      pop\n    tag_289:\n      pop\n        /* \"contracts/NFT_Demo/NFT.sol\":16015:16016  0 */\n      0x00\n        /* \"contracts/NFT_Demo/NFT.sol\":15998:16004  reason */\n      dup2\n        /* \"contracts/NFT_Demo/NFT.sol\":15998:16011  reason.length */\n      mload\n        /* \"contracts/NFT_Demo/NFT.sol\":15998:16016  reason.length == 0 */\n      sub\n        /* \"contracts/NFT_Demo/NFT.sol\":15994:16306  if (reason.length == 0) {... */\n      tag_291\n      jumpi\n        /* \"contracts/NFT_Demo/NFT.sol\":16040:16146  revert(... */\n      mload(0x40)\n      0x08c379a000000000000000000000000000000000000000000000000000000000\n      dup2\n      mstore\n      0x04\n      add\n      tag_292\n      swap1\n      tag_242\n      jump\t// in\n    tag_292:\n      mload(0x40)\n      dup1\n      swap2\n      sub\n      swap1\n      revert\n        /* \"contracts/NFT_Demo/NFT.sol\":15994:16306  if (reason.length == 0) {... */\n    tag_291:\n        /* \"contracts/NFT_Demo/NFT.sol\":16258:16264  reason */\n      dup1\n        /* \"contracts/NFT_Demo/NFT.sol\":16252:16265  mload(reason) */\n      mload\n        /* \"contracts/NFT_Demo/NFT.sol\":16243:16249  reason */\n      dup2\n        /* \"contracts/NFT_Demo/NFT.sol\":16239:16241  32 */\n      0x20\n        /* \"contracts/NFT_Demo/NFT.sol\":16235:16250  add(32, reason) */\n      add\n        /* \"contracts/NFT_Demo/NFT.sol\":16228:16266  revert(add(32, reason), mload(reason)) */\n      revert\n        /* \"contracts/NFT_Demo/NFT.sol\":15629:16320  try... */\n    tag_285:\n        /* \"contracts/NFT_Demo/NFT.sol\":15891:15932  IERC721Receiver.onERC721Received.selector */\n      shl(0xe0, 0x150b7a02)\n        /* \"contracts/NFT_Demo/NFT.sol\":15881:15932  retval == IERC721Receiver.onERC721Received.selector */\n      not(0xffffffffffffffffffffffffffffffffffffffffffffffffffffffff)\n      and\n        /* \"contracts/NFT_Demo/NFT.sol\":15881:15887  retval */\n      dup2\n        /* \"contracts/NFT_Demo/NFT.sol\":15881:15932  retval == IERC721Receiver.onERC721Received.selector */\n      not(0xffffffffffffffffffffffffffffffffffffffffffffffffffffffff)\n      and\n      eq\n        /* \"contracts/NFT_Demo/NFT.sol\":15874:15932  return retval == IERC721Receiver.onERC721Received.selector */\n      swap2\n      pop\n      pop\n      jump(tag_275)\n        /* \"contracts/NFT_Demo/NFT.sol\":15594:16372  if (to.isContract()) {... */\n    tag_278:\n        /* \"contracts/NFT_Demo/NFT.sol\":16357:16361  true */\n      0x01\n        /* \"contracts/NFT_Demo/NFT.sol\":16350:16361  return true */\n      swap1\n      pop\n        /* \"contracts/NFT_Demo/NFT.sol\":15428:16378  function _checkOnERC721Received(... */\n    tag_275:\n      swap5\n      swap4\n      pop\n      pop\n      pop\n      pop\n      jump\t// out\n        /* \"contracts/NFT_Demo/NFT.sol\":522:842  function isContract(address account) internal view returns (bool) {... */\n    tag_277:\n        /* \"contracts/NFT_Demo/NFT.sol\":582:586  bool */\n      0x00\n        /* \"contracts/NFT_Demo/NFT.sol\":834:835  0 */\n      dup1\n        /* \"contracts/NFT_Demo/NFT.sol\":812:819  account */\n      dup3\n        /* \"contracts/NFT_Demo/NFT.sol\":812:831  account.code.length */\n      0xffffffffffffffffffffffffffffffffffffffff\n      and\n      extcodesize\n        /* \"contracts/NFT_Demo/NFT.sol\":812:835  account.code.length > 0 */\n      gt\n        /* \"contracts/NFT_Demo/NFT.sol\":805:835  return account.code.length > 0 */\n      swap1\n      pop\n        /* \"contracts/NFT_Demo/NFT.sol\":522:842  function isContract(address account) internal view returns (bool) {... */\n      swap2\n      swap1\n      pop\n      jump\t// out\n    tag_127:\n      dup3\n      dup1\n      sload\n      tag_297\n      swap1\n      tag_85\n      jump\t// in\n    tag_297:\n      swap1\n      0x00\n      mstore\n      keccak256(0x00, 0x20)\n      swap1\n      0x1f\n      add\n      0x20\n      swap1\n      div\n      dup2\n      add\n      swap3\n      dup3\n      tag_299\n      jumpi\n      0x00\n      dup6\n      sstore\n      jump(tag_298)\n    tag_299:\n      dup3\n      0x1f\n      lt\n      tag_300\n      jumpi\n      dup1\n      mload\n      not(0xff)\n      and\n      dup4\n      dup1\n      add\n      or\n      dup6\n      sstore\n      jump(tag_298)\n    tag_300:\n      dup3\n      dup1\n      add\n      0x01\n      add\n      dup6\n      sstore\n      dup3\n      iszero\n      tag_298\n      jumpi\n      swap2\n      dup3\n      add\n    tag_301:\n      dup3\n      dup2\n      gt\n      iszero\n      tag_302\n      jumpi\n      dup3\n      mload\n      dup3\n      sstore\n      swap2\n      0x20\n      add\n      swap2\n      swap1\n      0x01\n      add\n      swap1\n      jump(tag_301)\n    tag_302:\n    tag_298:\n      pop\n      swap1\n      pop\n      tag_303\n      swap2\n      swap1\n      tag_304\n      jump\t// in\n    tag_303:\n      pop\n      swap1\n      jump\t// out\n    tag_304:\n    tag_305:\n      dup1\n      dup3\n      gt\n      iszero\n      tag_306\n      jumpi\n      0x00\n      dup2\n      0x00\n      swap1\n      sstore\n      pop\n      0x01\n      add\n      jump(tag_305)\n    tag_306:\n      pop\n      swap1\n      jump\t// out\n        /* \"#utility.yul\":7:106   */\n    tag_307:\n        /* \"#utility.yul\":59:65   */\n      0x00\n        /* \"#utility.yul\":93:98   */\n      dup2\n        /* \"#utility.yul\":87:99   */\n      mload\n        /* \"#utility.yul\":77:99   */\n      swap1\n      pop\n        /* \"#utility.yul\":7:106   */\n      swap2\n      swap1\n      pop\n      jump\t// out\n        /* \"#utility.yul\":112:281   */\n    tag_308:\n        /* \"#utility.yul\":196:207   */\n      0x00\n        /* \"#utility.yul\":230:236   */\n      dup3\n        /* \"#utility.yul\":225:228   */\n      dup3\n        /* \"#utility.yul\":218:237   */\n      mstore\n        /* \"#utility.yul\":270:274   */\n      0x20\n        /* \"#utility.yul\":265:268   */\n      dup3\n        /* \"#utility.yul\":261:275   */\n      add\n        /* \"#utility.yul\":246:275   */\n      swap1\n      pop\n        /* \"#utility.yul\":112:281   */\n      swap3\n      swap2\n      pop\n      pop\n      jump\t// out\n        /* \"#utility.yul\":287:594   */\n    tag_309:\n        /* \"#utility.yul\":355:356   */\n      0x00\n        /* \"#utility.yul\":365:478   */\n    tag_380:\n        /* \"#utility.yul\":379:385   */\n      dup4\n        /* \"#utility.yul\":376:377   */\n      dup2\n        /* \"#utility.yul\":373:386   */\n      lt\n        /* \"#utility.yul\":365:478   */\n      iszero\n      tag_382\n      jumpi\n        /* \"#utility.yul\":464:465   */\n      dup1\n        /* \"#utility.yul\":459:462   */\n      dup3\n        /* \"#utility.yul\":455:466   */\n      add\n        /* \"#utility.yul\":449:467   */\n      mload\n        /* \"#utility.yul\":445:446   */\n      dup2\n        /* \"#utility.yul\":440:443   */\n      dup5\n        /* \"#utility.yul\":436:447   */\n      add\n        /* \"#utility.yul\":429:468   */\n      mstore\n        /* \"#utility.yul\":401:403   */\n      0x20\n        /* \"#utility.yul\":398:399   */\n      dup2\n        /* \"#utility.yul\":394:404   */\n      add\n        /* \"#utility.yul\":389:404   */\n      swap1\n      pop\n        /* \"#utility.yul\":365:478   */\n      jump(tag_380)\n    tag_382:\n        /* \"#utility.yul\":496:502   */\n      dup4\n        /* \"#utility.yul\":493:494   */\n      dup2\n        /* \"#utility.yul\":490:503   */\n      gt\n        /* \"#utility.yul\":487:588   */\n      iszero\n      tag_383\n      jumpi\n        /* \"#utility.yul\":576:577   */\n      0x00\n        /* \"#utility.yul\":567:573   */\n      dup5\n        /* \"#utility.yul\":562:565   */\n      dup5\n        /* \"#utility.yul\":558:574   */\n      add\n        /* \"#utility.yul\":551:578   */\n      mstore\n        /* \"#utility.yul\":487:588   */\n    tag_383:\n        /* \"#utility.yul\":336:594   */\n      pop\n        /* \"#utility.yul\":287:594   */\n      pop\n      pop\n      pop\n      jump\t// out\n        /* \"#utility.yul\":600:702   */\n    tag_310:\n        /* \"#utility.yul\":641:647   */\n      0x00\n        /* \"#utility.yul\":692:694   */\n      0x1f\n        /* \"#utility.yul\":688:695   */\n      not\n        /* \"#utility.yul\":683:685   */\n      0x1f\n        /* \"#utility.yul\":676:681   */\n      dup4\n        /* \"#utility.yul\":672:686   */\n      add\n        /* \"#utility.yul\":668:696   */\n      and\n        /* \"#utility.yul\":658:696   */\n      swap1\n      pop\n        /* \"#utility.yul\":600:702   */\n      swap2\n      swap1\n      pop\n      jump\t// out\n        /* \"#utility.yul\":708:1072   */\n    tag_311:\n        /* \"#utility.yul\":796:799   */\n      0x00\n        /* \"#utility.yul\":824:863   */\n      tag_386\n        /* \"#utility.yul\":857:862   */\n      dup3\n        /* \"#utility.yul\":824:863   */\n      tag_307\n      jump\t// in\n    tag_386:\n        /* \"#utility.yul\":879:950   */\n      tag_387\n        /* \"#utility.yul\":943:949   */\n      dup2\n        /* \"#utility.yul\":938:941   */\n      dup6\n        /* \"#utility.yul\":879:950   */\n      tag_308\n      jump\t// in\n    tag_387:\n        /* \"#utility.yul\":872:950   */\n      swap4\n      pop\n        /* \"#utility.yul\":959:1011   */\n      tag_388\n        /* \"#utility.yul\":1004:1010   */\n      dup2\n        /* \"#utility.yul\":999:1002   */\n      dup6\n        /* \"#utility.yul\":992:996   */\n      0x20\n        /* \"#utility.yul\":985:990   */\n      dup7\n        /* \"#utility.yul\":981:997   */\n      add\n        /* \"#utility.yul\":959:1011   */\n      tag_309\n      jump\t// in\n    tag_388:\n        /* \"#utility.yul\":1036:1065   */\n      tag_389\n        /* \"#utility.yul\":1058:1064   */\n      dup2\n        /* \"#utility.yul\":1036:1065   */\n      tag_310\n      jump\t// in\n    tag_389:\n        /* \"#utility.yul\":1031:1034   */\n      dup5\n        /* \"#utility.yul\":1027:1066   */\n      add\n        /* \"#utility.yul\":1020:1066   */\n      swap2\n      pop\n        /* \"#utility.yul\":800:1072   */\n      pop\n        /* \"#utility.yul\":708:1072   */\n      swap3\n      swap2\n      pop\n      pop\n      jump\t// out\n        /* \"#utility.yul\":1078:1391   */\n    tag_25:\n        /* \"#utility.yul\":1191:1195   */\n      0x00\n        /* \"#utility.yul\":1229:1231   */\n      0x20\n        /* \"#utility.yul\":1218:1227   */\n      dup3\n        /* \"#utility.yul\":1214:1232   */\n      add\n        /* \"#utility.yul\":1206:1232   */\n      swap1\n      pop\n        /* \"#utility.yul\":1278:1287   */\n      dup2\n        /* \"#utility.yul\":1272:1276   */\n      dup2\n        /* \"#utility.yul\":1268:1288   */\n      sub\n        /* \"#utility.yul\":1264:1265   */\n      0x00\n        /* \"#utility.yul\":1253:1262   */\n      dup4\n        /* \"#utility.yul\":1249:1266   */\n      add\n        /* \"#utility.yul\":1242:1289   */\n      mstore\n        /* \"#utility.yul\":1306:1384   */\n      tag_391\n        /* \"#utility.yul\":1379:1383   */\n      dup2\n        /* \"#utility.yul\":1370:1376   */\n      dup5\n        /* \"#utility.yul\":1306:1384   */\n      tag_311\n      jump\t// in\n    tag_391:\n        /* \"#utility.yul\":1298:1384   */\n      swap1\n      pop\n        /* \"#utility.yul\":1078:1391   */\n      swap3\n      swap2\n      pop\n      pop\n      jump\t// out\n        /* \"#utility.yul\":1397:1472   */\n    tag_312:\n        /* \"#utility.yul\":1430:1436   */\n      0x00\n        /* \"#utility.yul\":1463:1465   */\n      0x40\n        /* \"#utility.yul\":1457:1466   */\n      mload\n        /* \"#utility.yul\":1447:1466   */\n      swap1\n      pop\n        /* \"#utility.yul\":1397:1472   */\n      swap1\n      jump\t// out\n        /* \"#utility.yul\":1478:1595   */\n    tag_313:\n        /* \"#utility.yul\":1587:1588   */\n      0x00\n        /* \"#utility.yul\":1584:1585   */\n      dup1\n        /* \"#utility.yul\":1577:1589   */\n      revert\n        /* \"#utility.yul\":1601:1718   */\n    tag_314:\n        /* \"#utility.yul\":1710:1711   */\n      0x00\n        /* \"#utility.yul\":1707:1708   */\n      dup1\n        /* \"#utility.yul\":1700:1712   */\n      revert\n        /* \"#utility.yul\":1724:1801   */\n    tag_315:\n        /* \"#utility.yul\":1761:1768   */\n      0x00\n        /* \"#utility.yul\":1790:1795   */\n      dup2\n        /* \"#utility.yul\":1779:1795   */\n      swap1\n      pop\n        /* \"#utility.yul\":1724:1801   */\n      swap2\n      swap1\n      pop\n      jump\t// out\n        /* \"#utility.yul\":1807:1929   */\n    tag_316:\n        /* \"#utility.yul\":1880:1904   */\n      tag_397\n        /* \"#utility.yul\":1898:1903   */\n      dup2\n        /* \"#utility.yul\":1880:1904   */\n      tag_315\n      jump\t// in\n    tag_397:\n        /* \"#utility.yul\":1873:1878   */\n      dup2\n        /* \"#utility.yul\":1870:1905   */\n      eq\n        /* \"#utility.yul\":1860:1923   */\n      tag_398\n      jumpi\n        /* \"#utility.yul\":1919:1920   */\n      0x00\n        /* \"#utility.yul\":1916:1917   */\n      dup1\n        /* \"#utility.yul\":1909:1921   */\n      revert\n        /* \"#utility.yul\":1860:1923   */\n    tag_398:\n        /* \"#utility.yul\":1807:1929   */\n      pop\n      jump\t// out\n        /* \"#utility.yul\":1935:2074   */\n    tag_317:\n        /* \"#utility.yul\":1981:1986   */\n      0x00\n        /* \"#utility.yul\":2019:2025   */\n      dup2\n        /* \"#utility.yul\":2006:2026   */\n      calldataload\n        /* \"#utility.yul\":1997:2026   */\n      swap1\n      pop\n        /* \"#utility.yul\":2035:2068   */\n      tag_400\n        /* \"#utility.yul\":2062:2067   */\n      dup2\n        /* \"#utility.yul\":2035:2068   */\n      tag_316\n      jump\t// in\n    tag_400:\n        /* \"#utility.yul\":1935:2074   */\n      swap3\n      swap2\n      pop\n      pop\n      jump\t// out\n        /* \"#utility.yul\":2080:2409   */\n    tag_28:\n        /* \"#utility.yul\":2139:2145   */\n      0x00\n        /* \"#utility.yul\":2188:2190   */\n      0x20\n        /* \"#utility.yul\":2176:2185   */\n      dup3\n        /* \"#utility.yul\":2167:2174   */\n      dup5\n        /* \"#utility.yul\":2163:2186   */\n      sub\n        /* \"#utility.yul\":2159:2191   */\n      slt\n        /* \"#utility.yul\":2156:2275   */\n      iszero\n      tag_402\n      jumpi\n        /* \"#utility.yul\":2194:2273   */\n      tag_403\n      tag_313\n      jump\t// in\n    tag_403:\n        /* \"#utility.yul\":2156:2275   */\n    tag_402:\n        /* \"#utility.yul\":2314:2315   */\n      0x00\n        /* \"#utility.yul\":2339:2392   */\n      tag_404\n        /* \"#utility.yul\":2384:2391   */\n      dup5\n        /* \"#utility.yul\":2375:2381   */\n      dup3\n        /* \"#utility.yul\":2364:2373   */\n      dup6\n        /* \"#utility.yul\":2360:2382   */\n      add\n        /* \"#utility.yul\":2339:2392   */\n      tag_317\n      jump\t// in\n    tag_404:\n        /* \"#utility.yul\":2329:2392   */\n      swap2\n      pop\n        /* \"#utility.yul\":2285:2402   */\n      pop\n        /* \"#utility.yul\":2080:2409   */\n      swap3\n      swap2\n      pop\n      pop\n      jump\t// out\n        /* \"#utility.yul\":2415:2541   */\n    tag_318:\n        /* \"#utility.yul\":2452:2459   */\n      0x00\n        /* \"#utility.yul\":2492:2534   */\n      0xffffffffffffffffffffffffffffffffffffffff\n        /* \"#utility.yul\":2485:2490   */\n      dup3\n        /* \"#utility.yul\":2481:2535   */\n      and\n        /* \"#utility.yul\":2470:2535   */\n      swap1\n      pop\n        /* \"#utility.yul\":2415:2541   */\n      swap2\n      swap1\n      pop\n      jump\t// out\n        /* \"#utility.yul\":2547:2643   */\n    tag_319:\n        /* \"#utility.yul\":2584:2591   */\n      0x00\n        /* \"#utility.yul\":2613:2637   */\n      tag_407\n        /* \"#utility.yul\":2631:2636   */\n      dup3\n        /* \"#utility.yul\":2613:2637   */\n      tag_318\n      jump\t// in\n    tag_407:\n        /* \"#utility.yul\":2602:2637   */\n      swap1\n      pop\n        /* \"#utility.yul\":2547:2643   */\n      swap2\n      swap1\n      pop\n      jump\t// out\n        /* \"#utility.yul\":2649:2767   */\n    tag_320:\n        /* \"#utility.yul\":2736:2760   */\n      tag_409\n        /* \"#utility.yul\":2754:2759   */\n      dup2\n        /* \"#utility.yul\":2736:2760   */\n      tag_319\n      jump\t// in\n    tag_409:\n        /* \"#utility.yul\":2731:2734   */\n      dup3\n        /* \"#utility.yul\":2724:2761   */\n      mstore\n        /* \"#utility.yul\":2649:2767   */\n      pop\n      pop\n      jump\t// out\n        /* \"#utility.yul\":2773:2995   */\n    tag_31:\n        /* \"#utility.yul\":2866:2870   */\n      0x00\n        /* \"#utility.yul\":2904:2906   */\n      0x20\n        /* \"#utility.yul\":2893:2902   */\n      dup3\n        /* \"#utility.yul\":2889:2907   */\n      add\n        /* \"#utility.yul\":2881:2907   */\n      swap1\n      pop\n        /* \"#utility.yul\":2917:2988   */\n      tag_411\n        /* \"#utility.yul\":2985:2986   */\n      0x00\n        /* \"#utility.yul\":2974:2983   */\n      dup4\n        /* \"#utility.yul\":2970:2987   */\n      add\n        /* \"#utility.yul\":2961:2967   */\n      dup5\n        /* \"#utility.yul\":2917:2988   */\n      tag_320\n      jump\t// in\n    tag_411:\n        /* \"#utility.yul\":2773:2995   */\n      swap3\n      swap2\n      pop\n      pop\n      jump\t// out\n        /* \"#utility.yul\":3001:3123   */\n    tag_321:\n        /* \"#utility.yul\":3074:3098   */\n      tag_413\n        /* \"#utility.yul\":3092:3097   */\n      dup2\n        /* \"#utility.yul\":3074:3098   */\n      tag_319\n      jump\t// in\n    tag_413:\n        /* \"#utility.yul\":3067:3072   */\n      dup2\n        /* \"#utility.yul\":3064:3099   */\n      eq\n        /* \"#utility.yul\":3054:3117   */\n      tag_414\n      jumpi\n        /* \"#utility.yul\":3113:3114   */\n      0x00\n        /* \"#utility.yul\":3110:3111   */\n      dup1\n        /* \"#utility.yul\":3103:3115   */\n      revert\n        /* \"#utility.yul\":3054:3117   */\n    tag_414:\n        /* \"#utility.yul\":3001:3123   */\n      pop\n      jump\t// out\n        /* \"#utility.yul\":3129:3268   */\n    tag_322:\n        /* \"#utility.yul\":3175:3180   */\n      0x00\n        /* \"#utility.yul\":3213:3219   */\n      dup2\n        /* \"#utility.yul\":3200:3220   */\n      calldataload\n        /* \"#utility.yul\":3191:3220   */\n      swap1\n      pop\n        /* \"#utility.yul\":3229:3262   */\n      tag_416\n        /* \"#utility.yul\":3256:3261   */\n      dup2\n        /* \"#utility.yul\":3229:3262   */\n      tag_321\n      jump\t// in\n    tag_416:\n        /* \"#utility.yul\":3129:3268   */\n      swap3\n      swap2\n      pop\n      pop\n      jump\t// out\n        /* \"#utility.yul\":3274:3748   */\n    tag_34:\n        /* \"#utility.yul\":3342:3348   */\n      0x00\n        /* \"#utility.yul\":3350:3356   */\n      dup1\n        /* \"#utility.yul\":3399:3401   */\n      0x40\n        /* \"#utility.yul\":3387:3396   */\n      dup4\n        /* \"#utility.yul\":3378:3385   */\n      dup6\n        /* \"#utility.yul\":3374:3397   */\n      sub\n        /* \"#utility.yul\":3370:3402   */\n      slt\n        /* \"#utility.yul\":3367:3486   */\n      iszero\n      tag_418\n      jumpi\n        /* \"#utility.yul\":3405:3484   */\n      tag_419\n      tag_313\n      jump\t// in\n    tag_419:\n        /* \"#utility.yul\":3367:3486   */\n    tag_418:\n        /* \"#utility.yul\":3525:3526   */\n      0x00\n        /* \"#utility.yul\":3550:3603   */\n      tag_420\n        /* \"#utility.yul\":3595:3602   */\n      dup6\n        /* \"#utility.yul\":3586:3592   */\n      dup3\n        /* \"#utility.yul\":3575:3584   */\n      dup7\n        /* \"#utility.yul\":3571:3593   */\n      add\n        /* \"#utility.yul\":3550:3603   */\n      tag_322\n      jump\t// in\n    tag_420:\n        /* \"#utility.yul\":3540:3603   */\n      swap3\n      pop\n        /* \"#utility.yul\":3496:3613   */\n      pop\n        /* \"#utility.yul\":3652:3654   */\n      0x20\n        /* \"#utility.yul\":3678:3731   */\n      tag_421\n        /* \"#utility.yul\":3723:3730   */\n      dup6\n        /* \"#utility.yul\":3714:3720   */\n      dup3\n        /* \"#utility.yul\":3703:3712   */\n      dup7\n        /* \"#utility.yul\":3699:3721   */\n      add\n        /* \"#utility.yul\":3678:3731   */\n      tag_317\n      jump\t// in\n    tag_421:\n        /* \"#utility.yul\":3668:3731   */\n      swap2\n      pop\n        /* \"#utility.yul\":3623:3741   */\n      pop\n        /* \"#utility.yul\":3274:3748   */\n      swap3\n      pop\n      swap3\n      swap1\n      pop\n      jump\t// out\n        /* \"#utility.yul\":3754:4373   */\n    tag_38:\n        /* \"#utility.yul\":3831:3837   */\n      0x00\n        /* \"#utility.yul\":3839:3845   */\n      dup1\n        /* \"#utility.yul\":3847:3853   */\n      0x00\n        /* \"#utility.yul\":3896:3898   */\n      0x60\n        /* \"#utility.yul\":3884:3893   */\n      dup5\n        /* \"#utility.yul\":3875:3882   */\n      dup7\n        /* \"#utility.yul\":3871:3894   */\n      sub\n        /* \"#utility.yul\":3867:3899   */\n      slt\n        /* \"#utility.yul\":3864:3983   */\n      iszero\n      tag_423\n      jumpi\n        /* \"#utility.yul\":3902:3981   */\n      tag_424\n      tag_313\n      jump\t// in\n    tag_424:\n        /* \"#utility.yul\":3864:3983   */\n    tag_423:\n        /* \"#utility.yul\":4022:4023   */\n      0x00\n        /* \"#utility.yul\":4047:4100   */\n      tag_425\n        /* \"#utility.yul\":4092:4099   */\n      dup7\n        /* \"#utility.yul\":4083:4089   */\n      dup3\n        /* \"#utility.yul\":4072:4081   */\n      dup8\n        /* \"#utility.yul\":4068:4090   */\n      add\n        /* \"#utility.yul\":4047:4100   */\n      tag_322\n      jump\t// in\n    tag_425:\n        /* \"#utility.yul\":4037:4100   */\n      swap4\n      pop\n        /* \"#utility.yul\":3993:4110   */\n      pop\n        /* \"#utility.yul\":4149:4151   */\n      0x20\n        /* \"#utility.yul\":4175:4228   */\n      tag_426\n        /* \"#utility.yul\":4220:4227   */\n      dup7\n        /* \"#utility.yul\":4211:4217   */\n      dup3\n        /* \"#utility.yul\":4200:4209   */\n      dup8\n        /* \"#utility.yul\":4196:4218   */\n      add\n        /* \"#utility.yul\":4175:4228   */\n      tag_322\n      jump\t// in\n    tag_426:\n        /* \"#utility.yul\":4165:4228   */\n      swap3\n      pop\n        /* \"#utility.yul\":4120:4238   */\n      pop\n        /* \"#utility.yul\":4277:4279   */\n      0x40\n        /* \"#utility.yul\":4303:4356   */\n      tag_427\n        /* \"#utility.yul\":4348:4355   */\n      dup7\n        /* \"#utility.yul\":4339:4345   */\n      dup3\n        /* \"#utility.yul\":4328:4337   */\n      dup8\n        /* \"#utility.yul\":4324:4346   */\n      add\n        /* \"#utility.yul\":4303:4356   */\n      tag_317\n      jump\t// in\n    tag_427:\n        /* \"#utility.yul\":4293:4356   */\n      swap2\n      pop\n        /* \"#utility.yul\":4248:4366   */\n      pop\n        /* \"#utility.yul\":3754:4373   */\n      swap3\n      pop\n      swap3\n      pop\n      swap3\n      jump\t// out\n        /* \"#utility.yul\":4379:4496   */\n    tag_323:\n        /* \"#utility.yul\":4488:4489   */\n      0x00\n        /* \"#utility.yul\":4485:4486   */\n      dup1\n        /* \"#utility.yul\":4478:4490   */\n      revert\n        /* \"#utility.yul\":4502:4619   */\n    tag_324:\n        /* \"#utility.yul\":4611:4612   */\n      0x00\n        /* \"#utility.yul\":4608:4609   */\n      dup1\n        /* \"#utility.yul\":4601:4613   */\n      revert\n        /* \"#utility.yul\":4625:4805   */\n    tag_258:\n        /* \"#utility.yul\":4673:4750   */\n      0x4e487b7100000000000000000000000000000000000000000000000000000000\n        /* \"#utility.yul\":4670:4671   */\n      0x00\n        /* \"#utility.yul\":4663:4751   */\n      mstore\n        /* \"#utility.yul\":4770:4774   */\n      0x41\n        /* \"#utility.yul\":4767:4768   */\n      0x04\n        /* \"#utility.yul\":4760:4775   */\n      mstore\n        /* \"#utility.yul\":4794:4798   */\n      0x24\n        /* \"#utility.yul\":4791:4792   */\n      0x00\n        /* \"#utility.yul\":4784:4799   */\n      revert\n        /* \"#utility.yul\":4811:5092   */\n    tag_325:\n        /* \"#utility.yul\":4894:4921   */\n      tag_432\n        /* \"#utility.yul\":4916:4920   */\n      dup3\n        /* \"#utility.yul\":4894:4921   */\n      tag_310\n      jump\t// in\n    tag_432:\n        /* \"#utility.yul\":4886:4892   */\n      dup2\n        /* \"#utility.yul\":4882:4922   */\n      add\n        /* \"#utility.yul\":5024:5030   */\n      dup2\n        /* \"#utility.yul\":5012:5022   */\n      dup2\n        /* \"#utility.yul\":5009:5031   */\n      lt\n        /* \"#utility.yul\":4988:5006   */\n      0xffffffffffffffff\n        /* \"#utility.yul\":4976:4986   */\n      dup3\n        /* \"#utility.yul\":4973:5007   */\n      gt\n        /* \"#utility.yul\":4970:5032   */\n      or\n        /* \"#utility.yul\":4967:5055   */\n      iszero\n      tag_433\n      jumpi\n        /* \"#utility.yul\":5035:5053   */\n      tag_434\n      tag_258\n      jump\t// in\n    tag_434:\n        /* \"#utility.yul\":4967:5055   */\n    tag_433:\n        /* \"#utility.yul\":5075:5085   */\n      dup1\n        /* \"#utility.yul\":5071:5073   */\n      0x40\n        /* \"#utility.yul\":5064:5086   */\n      mstore\n        /* \"#utility.yul\":4854:5092   */\n      pop\n        /* \"#utility.yul\":4811:5092   */\n      pop\n      pop\n      jump\t// out\n        /* \"#utility.yul\":5098:5227   */\n    tag_326:\n        /* \"#utility.yul\":5132:5138   */\n      0x00\n        /* \"#utility.yul\":5159:5179   */\n      tag_436\n      tag_312\n      jump\t// in\n    tag_436:\n        /* \"#utility.yul\":5149:5179   */\n      swap1\n      pop\n        /* \"#utility.yul\":5188:5221   */\n      tag_437\n        /* \"#utility.yul\":5216:5220   */\n      dup3\n        /* \"#utility.yul\":5208:5214   */\n      dup3\n        /* \"#utility.yul\":5188:5221   */\n      tag_325\n      jump\t// in\n    tag_437:\n        /* \"#utility.yul\":5098:5227   */\n      swap2\n      swap1\n      pop\n      jump\t// out\n        /* \"#utility.yul\":5233:5541   */\n    tag_327:\n        /* \"#utility.yul\":5295:5299   */\n      0x00\n        /* \"#utility.yul\":5385:5403   */\n      0xffffffffffffffff\n        /* \"#utility.yul\":5377:5383   */\n      dup3\n        /* \"#utility.yul\":5374:5404   */\n      gt\n        /* \"#utility.yul\":5371:5427   */\n      iszero\n      tag_439\n      jumpi\n        /* \"#utility.yul\":5407:5425   */\n      tag_440\n      tag_258\n      jump\t// in\n    tag_440:\n        /* \"#utility.yul\":5371:5427   */\n    tag_439:\n        /* \"#utility.yul\":5445:5474   */\n      tag_441\n        /* \"#utility.yul\":5467:5473   */\n      dup3\n        /* \"#utility.yul\":5445:5474   */\n      tag_310\n      jump\t// in\n    tag_441:\n        /* \"#utility.yul\":5437:5474   */\n      swap1\n      pop\n        /* \"#utility.yul\":5529:5533   */\n      0x20\n        /* \"#utility.yul\":5523:5527   */\n      dup2\n        /* \"#utility.yul\":5519:5534   */\n      add\n        /* \"#utility.yul\":5511:5534   */\n      swap1\n      pop\n        /* \"#utility.yul\":5233:5541   */\n      swap2\n      swap1\n      pop\n      jump\t// out\n        /* \"#utility.yul\":5547:5701   */\n    tag_328:\n        /* \"#utility.yul\":5631:5637   */\n      dup3\n        /* \"#utility.yul\":5626:5629   */\n      dup2\n        /* \"#utility.yul\":5621:5624   */\n      dup4\n        /* \"#utility.yul\":5608:5638   */\n      calldatacopy\n        /* \"#utility.yul\":5693:5694   */\n      0x00\n        /* \"#utility.yul\":5684:5690   */\n      dup4\n        /* \"#utility.yul\":5679:5682   */\n      dup4\n        /* \"#utility.yul\":5675:5691   */\n      add\n        /* \"#utility.yul\":5668:5695   */\n      mstore\n        /* \"#utility.yul\":5547:5701   */\n      pop\n      pop\n      pop\n      jump\t// out\n        /* \"#utility.yul\":5707:6119   */\n    tag_329:\n        /* \"#utility.yul\":5785:5790   */\n      0x00\n        /* \"#utility.yul\":5810:5876   */\n      tag_444\n        /* \"#utility.yul\":5826:5875   */\n      tag_445\n        /* \"#utility.yul\":5868:5874   */\n      dup5\n        /* \"#utility.yul\":5826:5875   */\n      tag_327\n      jump\t// in\n    tag_445:\n        /* \"#utility.yul\":5810:5876   */\n      tag_326\n      jump\t// in\n    tag_444:\n        /* \"#utility.yul\":5801:5876   */\n      swap1\n      pop\n        /* \"#utility.yul\":5899:5905   */\n      dup3\n        /* \"#utility.yul\":5892:5897   */\n      dup2\n        /* \"#utility.yul\":5885:5906   */\n      mstore\n        /* \"#utility.yul\":5937:5941   */\n      0x20\n        /* \"#utility.yul\":5930:5935   */\n      dup2\n        /* \"#utility.yul\":5926:5942   */\n      add\n        /* \"#utility.yul\":5975:5978   */\n      dup5\n        /* \"#utility.yul\":5966:5972   */\n      dup5\n        /* \"#utility.yul\":5961:5964   */\n      dup5\n        /* \"#utility.yul\":5957:5973   */\n      add\n        /* \"#utility.yul\":5954:5979   */\n      gt\n        /* \"#utility.yul\":5951:6063   */\n      iszero\n      tag_446\n      jumpi\n        /* \"#utility.yul\":5982:6061   */\n      tag_447\n      tag_324\n      jump\t// in\n    tag_447:\n        /* \"#utility.yul\":5951:6063   */\n    tag_446:\n        /* \"#utility.yul\":6072:6113   */\n      tag_448\n        /* \"#utility.yul\":6106:6112   */\n      dup5\n        /* \"#utility.yul\":6101:6104   */\n      dup3\n        /* \"#utility.yul\":6096:6099   */\n      dup6\n        /* \"#utility.yul\":6072:6113   */\n      tag_328\n      jump\t// in\n    tag_448:\n        /* \"#utility.yul\":5791:6119   */\n      pop\n        /* \"#utility.yul\":5707:6119   */\n      swap4\n      swap3\n      pop\n      pop\n      pop\n      jump\t// out\n        /* \"#utility.yul\":6139:6479   */\n    tag_330:\n        /* \"#utility.yul\":6195:6200   */\n      0x00\n        /* \"#utility.yul\":6244:6247   */\n      dup3\n        /* \"#utility.yul\":6237:6241   */\n      0x1f\n        /* \"#utility.yul\":6229:6235   */\n      dup4\n        /* \"#utility.yul\":6225:6242   */\n      add\n        /* \"#utility.yul\":6221:6248   */\n      slt\n        /* \"#utility.yul\":6211:6333   */\n      tag_450\n      jumpi\n        /* \"#utility.yul\":6252:6331   */\n      tag_451\n      tag_323\n      jump\t// in\n    tag_451:\n        /* \"#utility.yul\":6211:6333   */\n    tag_450:\n        /* \"#utility.yul\":6369:6375   */\n      dup2\n        /* \"#utility.yul\":6356:6376   */\n      calldataload\n        /* \"#utility.yul\":6394:6473   */\n      tag_452\n        /* \"#utility.yul\":6469:6472   */\n      dup5\n        /* \"#utility.yul\":6461:6467   */\n      dup3\n        /* \"#utility.yul\":6454:6458   */\n      0x20\n        /* \"#utility.yul\":6446:6452   */\n      dup7\n        /* \"#utility.yul\":6442:6459   */\n      add\n        /* \"#utility.yul\":6394:6473   */\n      tag_329\n      jump\t// in\n    tag_452:\n        /* \"#utility.yul\":6385:6473   */\n      swap2\n      pop\n        /* \"#utility.yul\":6201:6479   */\n      pop\n        /* \"#utility.yul\":6139:6479   */\n      swap3\n      swap2\n      pop\n      pop\n      jump\t// out\n        /* \"#utility.yul\":6485:6994   */\n    tag_45:\n        /* \"#utility.yul\":6554:6560   */\n      0x00\n        /* \"#utility.yul\":6603:6605   */\n      0x20\n        /* \"#utility.yul\":6591:6600   */\n      dup3\n        /* \"#utility.yul\":6582:6589   */\n      dup5\n        /* \"#utility.yul\":6578:6601   */\n      sub\n        /* \"#utility.yul\":6574:6606   */\n      slt\n        /* \"#utility.yul\":6571:6690   */\n      iszero\n      tag_454\n      jumpi\n        /* \"#utility.yul\":6609:6688   */\n      tag_455\n      tag_313\n      jump\t// in\n    tag_455:\n        /* \"#utility.yul\":6571:6690   */\n    tag_454:\n        /* \"#utility.yul\":6757:6758   */\n      0x00\n        /* \"#utility.yul\":6746:6755   */\n      dup3\n        /* \"#utility.yul\":6742:6759   */\n      add\n        /* \"#utility.yul\":6729:6760   */\n      calldataload\n        /* \"#utility.yul\":6787:6805   */\n      0xffffffffffffffff\n        /* \"#utility.yul\":6779:6785   */\n      dup2\n        /* \"#utility.yul\":6776:6806   */\n      gt\n        /* \"#utility.yul\":6773:6890   */\n      iszero\n      tag_456\n      jumpi\n        /* \"#utility.yul\":6809:6888   */\n      tag_457\n      tag_314\n      jump\t// in\n    tag_457:\n        /* \"#utility.yul\":6773:6890   */\n    tag_456:\n        /* \"#utility.yul\":6914:6977   */\n      tag_458\n        /* \"#utility.yul\":6969:6976   */\n      dup5\n        /* \"#utility.yul\":6960:6966   */\n      dup3\n        /* \"#utility.yul\":6949:6958   */\n      dup6\n        /* \"#utility.yul\":6945:6967   */\n      add\n        /* \"#utility.yul\":6914:6977   */\n      tag_330\n      jump\t// in\n    tag_458:\n        /* \"#utility.yul\":6904:6977   */\n      swap2\n      pop\n        /* \"#utility.yul\":6700:6987   */\n      pop\n        /* \"#utility.yul\":6485:6994   */\n      swap3\n      swap2\n      pop\n      pop\n      jump\t// out\n        /* \"#utility.yul\":7000:7118   */\n    tag_331:\n        /* \"#utility.yul\":7087:7111   */\n      tag_460\n        /* \"#utility.yul\":7105:7110   */\n      dup2\n        /* \"#utility.yul\":7087:7111   */\n      tag_315\n      jump\t// in\n    tag_460:\n        /* \"#utility.yul\":7082:7085   */\n      dup3\n        /* \"#utility.yul\":7075:7112   */\n      mstore\n        /* \"#utility.yul\":7000:7118   */\n      pop\n      pop\n      jump\t// out\n        /* \"#utility.yul\":7124:7346   */\n    tag_50:\n        /* \"#utility.yul\":7217:7221   */\n      0x00\n        /* \"#utility.yul\":7255:7257   */\n      0x20\n        /* \"#utility.yul\":7244:7253   */\n      dup3\n        /* \"#utility.yul\":7240:7258   */\n      add\n        /* \"#utility.yul\":7232:7258   */\n      swap1\n      pop\n        /* \"#utility.yul\":7268:7339   */\n      tag_462\n        /* \"#utility.yul\":7336:7337   */\n      0x00\n        /* \"#utility.yul\":7325:7334   */\n      dup4\n        /* \"#utility.yul\":7321:7338   */\n      add\n        /* \"#utility.yul\":7312:7318   */\n      dup5\n        /* \"#utility.yul\":7268:7339   */\n      tag_331\n      jump\t// in\n    tag_462:\n        /* \"#utility.yul\":7124:7346   */\n      swap3\n      swap2\n      pop\n      pop\n      jump\t// out\n        /* \"#utility.yul\":7352:7681   */\n    tag_57:\n        /* \"#utility.yul\":7411:7417   */\n      0x00\n        /* \"#utility.yul\":7460:7462   */\n      0x20\n        /* \"#utility.yul\":7448:7457   */\n      dup3\n        /* \"#utility.yul\":7439:7446   */\n      dup5\n        /* \"#utility.yul\":7435:7458   */\n      sub\n        /* \"#utility.yul\":7431:7463   */\n      slt\n        /* \"#utility.yul\":7428:7547   */\n      iszero\n      tag_464\n      jumpi\n        /* \"#utility.yul\":7466:7545   */\n      tag_465\n      tag_313\n      jump\t// in\n    tag_465:\n        /* \"#utility.yul\":7428:7547   */\n    tag_464:\n        /* \"#utility.yul\":7586:7587   */\n      0x00\n        /* \"#utility.yul\":7611:7664   */\n      tag_466\n        /* \"#utility.yul\":7656:7663   */\n      dup5\n        /* \"#utility.yul\":7647:7653   */\n      dup3\n        /* \"#utility.yul\":7636:7645   */\n      dup6\n        /* \"#utility.yul\":7632:7654   */\n      add\n        /* \"#utility.yul\":7611:7664   */\n      tag_322\n      jump\t// in\n    tag_466:\n        /* \"#utility.yul\":7601:7664   */\n      swap2\n      pop\n        /* \"#utility.yul\":7557:7674   */\n      pop\n        /* \"#utility.yul\":7352:7681   */\n      swap3\n      swap2\n      pop\n      pop\n      jump\t// out\n        /* \"#utility.yul\":7687:8341   */\n    tag_64:\n        /* \"#utility.yul\":7765:7771   */\n      0x00\n        /* \"#utility.yul\":7773:7779   */\n      dup1\n        /* \"#utility.yul\":7822:7824   */\n      0x40\n        /* \"#utility.yul\":7810:7819   */\n      dup4\n        /* \"#utility.yul\":7801:7808   */\n      dup6\n        /* \"#utility.yul\":7797:7820   */\n      sub\n        /* \"#utility.yul\":7793:7825   */\n      slt\n        /* \"#utility.yul\":7790:7909   */\n      iszero\n      tag_468\n      jumpi\n        /* \"#utility.yul\":7828:7907   */\n      tag_469\n      tag_313\n      jump\t// in\n    tag_469:\n        /* \"#utility.yul\":7790:7909   */\n    tag_468:\n        /* \"#utility.yul\":7948:7949   */\n      0x00\n        /* \"#utility.yul\":7973:8026   */\n      tag_470\n        /* \"#utility.yul\":8018:8025   */\n      dup6\n        /* \"#utility.yul\":8009:8015   */\n      dup3\n        /* \"#utility.yul\":7998:8007   */\n      dup7\n        /* \"#utility.yul\":7994:8016   */\n      add\n        /* \"#utility.yul\":7973:8026   */\n      tag_322\n      jump\t// in\n    tag_470:\n        /* \"#utility.yul\":7963:8026   */\n      swap3\n      pop\n        /* \"#utility.yul\":7919:8036   */\n      pop\n        /* \"#utility.yul\":8103:8105   */\n      0x20\n        /* \"#utility.yul\":8092:8101   */\n      dup4\n        /* \"#utility.yul\":8088:8106   */\n      add\n        /* \"#utility.yul\":8075:8107   */\n      calldataload\n        /* \"#utility.yul\":8134:8152   */\n      0xffffffffffffffff\n        /* \"#utility.yul\":8126:8132   */\n      dup2\n        /* \"#utility.yul\":8123:8153   */\n      gt\n        /* \"#utility.yul\":8120:8237   */\n      iszero\n      tag_471\n      jumpi\n        /* \"#utility.yul\":8156:8235   */\n      tag_472\n      tag_314\n      jump\t// in\n    tag_472:\n        /* \"#utility.yul\":8120:8237   */\n    tag_471:\n        /* \"#utility.yul\":8261:8324   */\n      tag_473\n        /* \"#utility.yul\":8316:8323   */\n      dup6\n        /* \"#utility.yul\":8307:8313   */\n      dup3\n        /* \"#utility.yul\":8296:8305   */\n      dup7\n        /* \"#utility.yul\":8292:8314   */\n      add\n        /* \"#utility.yul\":8261:8324   */\n      tag_330\n      jump\t// in\n    tag_473:\n        /* \"#utility.yul\":8251:8324   */\n      swap2\n      pop\n        /* \"#utility.yul\":8046:8334   */\n      pop\n        /* \"#utility.yul\":7687:8341   */\n      swap3\n      pop\n      swap3\n      swap1\n      pop\n      jump\t// out\n        /* \"#utility.yul\":8347:8654   */\n    tag_332:\n        /* \"#utility.yul\":8408:8412   */\n      0x00\n        /* \"#utility.yul\":8498:8516   */\n      0xffffffffffffffff\n        /* \"#utility.yul\":8490:8496   */\n      dup3\n        /* \"#utility.yul\":8487:8517   */\n      gt\n        /* \"#utility.yul\":8484:8540   */\n      iszero\n      tag_475\n      jumpi\n        /* \"#utility.yul\":8520:8538   */\n      tag_476\n      tag_258\n      jump\t// in\n    tag_476:\n        /* \"#utility.yul\":8484:8540   */\n    tag_475:\n        /* \"#utility.yul\":8558:8587   */\n      tag_477\n        /* \"#utility.yul\":8580:8586   */\n      dup3\n        /* \"#utility.yul\":8558:8587   */\n      tag_310\n      jump\t// in\n    tag_477:\n        /* \"#utility.yul\":8550:8587   */\n      swap1\n      pop\n        /* \"#utility.yul\":8642:8646   */\n      0x20\n        /* \"#utility.yul\":8636:8640   */\n      dup2\n        /* \"#utility.yul\":8632:8647   */\n      add\n        /* \"#utility.yul\":8624:8647   */\n      swap1\n      pop\n        /* \"#utility.yul\":8347:8654   */\n      swap2\n      swap1\n      pop\n      jump\t// out\n        /* \"#utility.yul\":8660:9070   */\n    tag_333:\n        /* \"#utility.yul\":8737:8742   */\n      0x00\n        /* \"#utility.yul\":8762:8827   */\n      tag_479\n        /* \"#utility.yul\":8778:8826   */\n      tag_480\n        /* \"#utility.yul\":8819:8825   */\n      dup5\n        /* \"#utility.yul\":8778:8826   */\n      tag_332\n      jump\t// in\n    tag_480:\n        /* \"#utility.yul\":8762:8827   */\n      tag_326\n      jump\t// in\n    tag_479:\n        /* \"#utility.yul\":8753:8827   */\n      swap1\n      pop\n        /* \"#utility.yul\":8850:8856   */\n      dup3\n        /* \"#utility.yul\":8843:8848   */\n      dup2\n        /* \"#utility.yul\":8836:8857   */\n      mstore\n        /* \"#utility.yul\":8888:8892   */\n      0x20\n        /* \"#utility.yul\":8881:8886   */\n      dup2\n        /* \"#utility.yul\":8877:8893   */\n      add\n        /* \"#utility.yul\":8926:8929   */\n      dup5\n        /* \"#utility.yul\":8917:8923   */\n      dup5\n        /* \"#utility.yul\":8912:8915   */\n      dup5\n        /* \"#utility.yul\":8908:8924   */\n      add\n        /* \"#utility.yul\":8905:8930   */\n      gt\n        /* \"#utility.yul\":8902:9014   */\n      iszero\n      tag_481\n      jumpi\n        /* \"#utility.yul\":8933:9012   */\n      tag_482\n      tag_324\n      jump\t// in\n    tag_482:\n        /* \"#utility.yul\":8902:9014   */\n    tag_481:\n        /* \"#utility.yul\":9023:9064   */\n      tag_483\n        /* \"#utility.yul\":9057:9063   */\n      dup5\n        /* \"#utility.yul\":9052:9055   */\n      dup3\n        /* \"#utility.yul\":9047:9050   */\n      dup6\n        /* \"#utility.yul\":9023:9064   */\n      tag_328\n      jump\t// in\n    tag_483:\n        /* \"#utility.yul\":8743:9070   */\n      pop\n        /* \"#utility.yul\":8660:9070   */\n      swap4\n      swap3\n      pop\n      pop\n      pop\n      jump\t// out\n        /* \"#utility.yul\":9089:9427   */\n    tag_334:\n        /* \"#utility.yul\":9144:9149   */\n      0x00\n        /* \"#utility.yul\":9193:9196   */\n      dup3\n        /* \"#utility.yul\":9186:9190   */\n      0x1f\n        /* \"#utility.yul\":9178:9184   */\n      dup4\n        /* \"#utility.yul\":9174:9191   */\n      add\n        /* \"#utility.yul\":9170:9197   */\n      slt\n        /* \"#utility.yul\":9160:9282   */\n      tag_485\n      jumpi\n        /* \"#utility.yul\":9201:9280   */\n      tag_486\n      tag_323\n      jump\t// in\n    tag_486:\n        /* \"#utility.yul\":9160:9282   */\n    tag_485:\n        /* \"#utility.yul\":9318:9324   */\n      dup2\n        /* \"#utility.yul\":9305:9325   */\n      calldataload\n        /* \"#utility.yul\":9343:9421   */\n      tag_487\n        /* \"#utility.yul\":9417:9420   */\n      dup5\n        /* \"#utility.yul\":9409:9415   */\n      dup3\n        /* \"#utility.yul\":9402:9406   */\n      0x20\n        /* \"#utility.yul\":9394:9400   */\n      dup7\n        /* \"#utility.yul\":9390:9407   */\n      add\n        /* \"#utility.yul\":9343:9421   */\n      tag_333\n      jump\t// in\n    tag_487:\n        /* \"#utility.yul\":9334:9421   */\n      swap2\n      pop\n        /* \"#utility.yul\":9150:9427   */\n      pop\n        /* \"#utility.yul\":9089:9427   */\n      swap3\n      swap2\n      pop\n      pop\n      jump\t// out\n        /* \"#utility.yul\":9433:10376   */\n    tag_74:\n        /* \"#utility.yul\":9528:9534   */\n      0x00\n        /* \"#utility.yul\":9536:9542   */\n      dup1\n        /* \"#utility.yul\":9544:9550   */\n      0x00\n        /* \"#utility.yul\":9552:9558   */\n      dup1\n        /* \"#utility.yul\":9601:9604   */\n      0x80\n        /* \"#utility.yul\":9589:9598   */\n      dup6\n        /* \"#utility.yul\":9580:9587   */\n      dup8\n        /* \"#utility.yul\":9576:9599   */\n      sub\n        /* \"#utility.yul\":9572:9605   */\n      slt\n        /* \"#utility.yul\":9569:9689   */\n      iszero\n      tag_489\n      jumpi\n        /* \"#utility.yul\":9608:9687   */\n      tag_490\n      tag_313\n      jump\t// in\n    tag_490:\n        /* \"#utility.yul\":9569:9689   */\n    tag_489:\n        /* \"#utility.yul\":9728:9729   */\n      0x00\n        /* \"#utility.yul\":9753:9806   */\n      tag_491\n        /* \"#utility.yul\":9798:9805   */\n      dup8\n        /* \"#utility.yul\":9789:9795   */\n      dup3\n        /* \"#utility.yul\":9778:9787   */\n      dup9\n        /* \"#utility.yul\":9774:9796   */\n      add\n        /* \"#utility.yul\":9753:9806   */\n      tag_322\n      jump\t// in\n    tag_491:\n        /* \"#utility.yul\":9743:9806   */\n      swap5\n      pop\n        /* \"#utility.yul\":9699:9816   */\n      pop\n        /* \"#utility.yul\":9855:9857   */\n      0x20\n        /* \"#utility.yul\":9881:9934   */\n      tag_492\n        /* \"#utility.yul\":9926:9933   */\n      dup8\n        /* \"#utility.yul\":9917:9923   */\n      dup3\n        /* \"#utility.yul\":9906:9915   */\n      dup9\n        /* \"#utility.yul\":9902:9924   */\n      add\n        /* \"#utility.yul\":9881:9934   */\n      tag_322\n      jump\t// in\n    tag_492:\n        /* \"#utility.yul\":9871:9934   */\n      swap4\n      pop\n        /* \"#utility.yul\":9826:9944   */\n      pop\n        /* \"#utility.yul\":9983:9985   */\n      0x40\n        /* \"#utility.yul\":10009:10062   */\n      tag_493\n        /* \"#utility.yul\":10054:10061   */\n      dup8\n        /* \"#utility.yul\":10045:10051   */\n      dup3\n        /* \"#utility.yul\":10034:10043   */\n      dup9\n        /* \"#utility.yul\":10030:10052   */\n      add\n        /* \"#utility.yul\":10009:10062   */\n      tag_317\n      jump\t// in\n    tag_493:\n        /* \"#utility.yul\":9999:10062   */\n      swap3\n      pop\n        /* \"#utility.yul\":9954:10072   */\n      pop\n        /* \"#utility.yul\":10139:10141   */\n      0x60\n        /* \"#utility.yul\":10128:10137   */\n      dup6\n        /* \"#utility.yul\":10124:10142   */\n      add\n        /* \"#utility.yul\":10111:10143   */\n      calldataload\n        /* \"#utility.yul\":10170:10188   */\n      0xffffffffffffffff\n        /* \"#utility.yul\":10162:10168   */\n      dup2\n        /* \"#utility.yul\":10159:10189   */\n      gt\n        /* \"#utility.yul\":10156:10273   */\n      iszero\n      tag_494\n      jumpi\n        /* \"#utility.yul\":10192:10271   */\n      tag_495\n      tag_314\n      jump\t// in\n    tag_495:\n        /* \"#utility.yul\":10156:10273   */\n    tag_494:\n        /* \"#utility.yul\":10297:10359   */\n      tag_496\n        /* \"#utility.yul\":10351:10358   */\n      dup8\n        /* \"#utility.yul\":10342:10348   */\n      dup3\n        /* \"#utility.yul\":10331:10340   */\n      dup9\n        /* \"#utility.yul\":10327:10349   */\n      add\n        /* \"#utility.yul\":10297:10359   */\n      tag_334\n      jump\t// in\n    tag_496:\n        /* \"#utility.yul\":10287:10359   */\n      swap2\n      pop\n        /* \"#utility.yul\":10082:10369   */\n      pop\n        /* \"#utility.yul\":9433:10376   */\n      swap3\n      swap6\n      swap2\n      swap5\n      pop\n      swap3\n      pop\n      jump\t// out\n        /* \"#utility.yul\":10382:10562   */\n    tag_335:\n        /* \"#utility.yul\":10430:10507   */\n      0x4e487b7100000000000000000000000000000000000000000000000000000000\n        /* \"#utility.yul\":10427:10428   */\n      0x00\n        /* \"#utility.yul\":10420:10508   */\n      mstore\n        /* \"#utility.yul\":10527:10531   */\n      0x22\n        /* \"#utility.yul\":10524:10525   */\n      0x04\n        /* \"#utility.yul\":10517:10532   */\n      mstore\n        /* \"#utility.yul\":10551:10555   */\n      0x24\n        /* \"#utility.yul\":10548:10549   */\n      0x00\n        /* \"#utility.yul\":10541:10556   */\n      revert\n        /* \"#utility.yul\":10568:10888   */\n    tag_85:\n        /* \"#utility.yul\":10612:10618   */\n      0x00\n        /* \"#utility.yul\":10649:10650   */\n      0x02\n        /* \"#utility.yul\":10643:10647   */\n      dup3\n        /* \"#utility.yul\":10639:10651   */\n      div\n        /* \"#utility.yul\":10629:10651   */\n      swap1\n      pop\n        /* \"#utility.yul\":10696:10697   */\n      0x01\n        /* \"#utility.yul\":10690:10694   */\n      dup3\n        /* \"#utility.yul\":10686:10698   */\n      and\n        /* \"#utility.yul\":10717:10735   */\n      dup1\n        /* \"#utility.yul\":10707:10788   */\n      tag_499\n      jumpi\n        /* \"#utility.yul\":10773:10777   */\n      0x7f\n        /* \"#utility.yul\":10765:10771   */\n      dup3\n        /* \"#utility.yul\":10761:10778   */\n      and\n        /* \"#utility.yul\":10751:10778   */\n      swap2\n      pop\n        /* \"#utility.yul\":10707:10788   */\n    tag_499:\n        /* \"#utility.yul\":10835:10837   */\n      0x20\n        /* \"#utility.yul\":10827:10833   */\n      dup3\n        /* \"#utility.yul\":10824:10838   */\n      lt\n        /* \"#utility.yul\":10804:10822   */\n      dup2\n        /* \"#utility.yul\":10801:10839   */\n      sub\n        /* \"#utility.yul\":10798:10882   */\n      tag_500\n      jumpi\n        /* \"#utility.yul\":10854:10872   */\n      tag_501\n      tag_335\n      jump\t// in\n    tag_501:\n        /* \"#utility.yul\":10798:10882   */\n    tag_500:\n        /* \"#utility.yul\":10619:10888   */\n      pop\n        /* \"#utility.yul\":10568:10888   */\n      swap2\n      swap1\n      pop\n      jump\t// out\n        /* \"#utility.yul\":10894:11125   */\n    tag_336:\n        /* \"#utility.yul\":11034:11068   */\n      0x4552433732313a20617070726f76656420717565727920666f72206e6f6e6578\n        /* \"#utility.yul\":11030:11031   */\n      0x00\n        /* \"#utility.yul\":11022:11028   */\n      dup3\n        /* \"#utility.yul\":11018:11032   */\n      add\n        /* \"#utility.yul\":11011:11069   */\n      mstore\n        /* \"#utility.yul\":11103:11117   */\n      0x697374656e7420746f6b656e0000000000000000000000000000000000000000\n        /* \"#utility.yul\":11098:11100   */\n      0x20\n        /* \"#utility.yul\":11090:11096   */\n      dup3\n        /* \"#utility.yul\":11086:11101   */\n      add\n        /* \"#utility.yul\":11079:11118   */\n      mstore\n        /* \"#utility.yul\":10894:11125   */\n      pop\n      jump\t// out\n        /* \"#utility.yul\":11131:11497   */\n    tag_337:\n        /* \"#utility.yul\":11273:11276   */\n      0x00\n        /* \"#utility.yul\":11294:11361   */\n      tag_504\n        /* \"#utility.yul\":11358:11360   */\n      0x2c\n        /* \"#utility.yul\":11353:11356   */\n      dup4\n        /* \"#utility.yul\":11294:11361   */\n      tag_308\n      jump\t// in\n    tag_504:\n        /* \"#utility.yul\":11287:11361   */\n      swap2\n      pop\n        /* \"#utility.yul\":11370:11463   */\n      tag_505\n        /* \"#utility.yul\":11459:11462   */\n      dup3\n        /* \"#utility.yul\":11370:11463   */\n      tag_336\n      jump\t// in\n    tag_505:\n        /* \"#utility.yul\":11488:11490   */\n      0x40\n        /* \"#utility.yul\":11483:11486   */\n      dup3\n        /* \"#utility.yul\":11479:11491   */\n      add\n        /* \"#utility.yul\":11472:11491   */\n      swap1\n      pop\n        /* \"#utility.yul\":11131:11497   */\n      swap2\n      swap1\n      pop\n      jump\t// out\n        /* \"#utility.yul\":11503:11922   */\n    tag_95:\n        /* \"#utility.yul\":11669:11673   */\n      0x00\n        /* \"#utility.yul\":11707:11709   */\n      0x20\n        /* \"#utility.yul\":11696:11705   */\n      dup3\n        /* \"#utility.yul\":11692:11710   */\n      add\n        /* \"#utility.yul\":11684:11710   */\n      swap1\n      pop\n        /* \"#utility.yul\":11756:11765   */\n      dup2\n        /* \"#utility.yul\":11750:11754   */\n      dup2\n        /* \"#utility.yul\":11746:11766   */\n      sub\n        /* \"#utility.yul\":11742:11743   */\n      0x00\n        /* \"#utility.yul\":11731:11740   */\n      dup4\n        /* \"#utility.yul\":11727:11744   */\n      add\n        /* \"#utility.yul\":11720:11767   */\n      mstore\n        /* \"#utility.yul\":11784:11915   */\n      tag_507\n        /* \"#utility.yul\":11910:11914   */\n      dup2\n        /* \"#utility.yul\":11784:11915   */\n      tag_337\n      jump\t// in\n    tag_507:\n        /* \"#utility.yul\":11776:11915   */\n      swap1\n      pop\n        /* \"#utility.yul\":11503:11922   */\n      swap2\n      swap1\n      pop\n      jump\t// out\n        /* \"#utility.yul\":11928:12148   */\n    tag_338:\n        /* \"#utility.yul\":12068:12102   */\n      0x4552433732313a20617070726f76616c20746f2063757272656e74206f776e65\n        /* \"#utility.yul\":12064:12065   */\n      0x00\n        /* \"#utility.yul\":12056:12062   */\n      dup3\n        /* \"#utility.yul\":12052:12066   */\n      add\n        /* \"#utility.yul\":12045:12103   */\n      mstore\n        /* \"#utility.yul\":12137:12140   */\n      0x7200000000000000000000000000000000000000000000000000000000000000\n        /* \"#utility.yul\":12132:12134   */\n      0x20\n        /* \"#utility.yul\":12124:12130   */\n      dup3\n        /* \"#utility.yul\":12120:12135   */\n      add\n        /* \"#utility.yul\":12113:12141   */\n      mstore\n        /* \"#utility.yul\":11928:12148   */\n      pop\n      jump\t// out\n        /* \"#utility.yul\":12154:12520   */\n    tag_339:\n        /* \"#utility.yul\":12296:12299   */\n      0x00\n        /* \"#utility.yul\":12317:12384   */\n      tag_510\n        /* \"#utility.yul\":12381:12383   */\n      0x21\n        /* \"#utility.yul\":12376:12379   */\n      dup4\n        /* \"#utility.yul\":12317:12384   */\n      tag_308\n      jump\t// in\n    tag_510:\n        /* \"#utility.yul\":12310:12384   */\n      swap2\n      pop\n        /* \"#utility.yul\":12393:12486   */\n      tag_511\n        /* \"#utility.yul\":12482:12485   */\n      dup3\n        /* \"#utility.yul\":12393:12486   */\n      tag_338\n      jump\t// in\n    tag_511:\n        /* \"#utility.yul\":12511:12513   */\n      0x40\n        /* \"#utility.yul\":12506:12509   */\n      dup3\n        /* \"#utility.yul\":12502:12514   */\n      add\n        /* \"#utility.yul\":12495:12514   */\n      swap1\n      pop\n        /* \"#utility.yul\":12154:12520   */\n      swap2\n      swap1\n      pop\n      jump\t// out\n        /* \"#utility.yul\":12526:12945   */\n    tag_100:\n        /* \"#utility.yul\":12692:12696   */\n      0x00\n        /* \"#utility.yul\":12730:12732   */\n      0x20\n        /* \"#utility.yul\":12719:12728   */\n      dup3\n        /* \"#utility.yul\":12715:12733   */\n      add\n        /* \"#utility.yul\":12707:12733   */\n      swap1\n      pop\n        /* \"#utility.yul\":12779:12788   */\n      dup2\n        /* \"#utility.yul\":12773:12777   */\n      dup2\n        /* \"#utility.yul\":12769:12789   */\n      sub\n        /* \"#utility.yul\":12765:12766   */\n      0x00\n        /* \"#utility.yul\":12754:12763   */\n      dup4\n        /* \"#utility.yul\":12750:12767   */\n      add\n        /* \"#utility.yul\":12743:12790   */\n      mstore\n        /* \"#utility.yul\":12807:12938   */\n      tag_513\n        /* \"#utility.yul\":12933:12937   */\n      dup2\n        /* \"#utility.yul\":12807:12938   */\n      tag_339\n      jump\t// in\n    tag_513:\n        /* \"#utility.yul\":12799:12938   */\n      swap1\n      pop\n        /* \"#utility.yul\":12526:12945   */\n      swap2\n      swap1\n      pop\n      jump\t// out\n        /* \"#utility.yul\":12951:13194   */\n    tag_340:\n        /* \"#utility.yul\":13091:13125   */\n      0x4552433732313a20617070726f76652063616c6c6572206973206e6f74206f77\n        /* \"#utility.yul\":13087:13088   */\n      0x00\n        /* \"#utility.yul\":13079:13085   */\n      dup3\n        /* \"#utility.yul\":13075:13089   */\n      add\n        /* \"#utility.yul\":13068:13126   */\n      mstore\n        /* \"#utility.yul\":13160:13186   */\n      0x6e6572206e6f7220617070726f76656420666f7220616c6c0000000000000000\n        /* \"#utility.yul\":13155:13157   */\n      0x20\n        /* \"#utility.yul\":13147:13153   */\n      dup3\n        /* \"#utility.yul\":13143:13158   */\n      add\n        /* \"#utility.yul\":13136:13187   */\n      mstore\n        /* \"#utility.yul\":12951:13194   */\n      pop\n      jump\t// out\n        /* \"#utility.yul\":13200:13566   */\n    tag_341:\n        /* \"#utility.yul\":13342:13345   */\n      0x00\n        /* \"#utility.yul\":13363:13430   */\n      tag_516\n        /* \"#utility.yul\":13427:13429   */\n      0x38\n        /* \"#utility.yul\":13422:13425   */\n      dup4\n        /* \"#utility.yul\":13363:13430   */\n      tag_308\n      jump\t// in\n    tag_516:\n        /* \"#utility.yul\":13356:13430   */\n      swap2\n      pop\n        /* \"#utility.yul\":13439:13532   */\n      tag_517\n        /* \"#utility.yul\":13528:13531   */\n      dup3\n        /* \"#utility.yul\":13439:13532   */\n      tag_340\n      jump\t// in\n    tag_517:\n        /* \"#utility.yul\":13557:13559   */\n      0x40\n        /* \"#utility.yul\":13552:13555   */\n      dup3\n        /* \"#utility.yul\":13548:13560   */\n      add\n        /* \"#utility.yul\":13541:13560   */\n      swap1\n      pop\n        /* \"#utility.yul\":13200:13566   */\n      swap2\n      swap1\n      pop\n      jump\t// out\n        /* \"#utility.yul\":13572:13991   */\n    tag_105:\n        /* \"#utility.yul\":13738:13742   */\n      0x00\n        /* \"#utility.yul\":13776:13778   */\n      0x20\n        /* \"#utility.yul\":13765:13774   */\n      dup3\n        /* \"#utility.yul\":13761:13779   */\n      add\n        /* \"#utility.yul\":13753:13779   */\n      swap1\n      pop\n        /* \"#utility.yul\":13825:13834   */\n      dup2\n        /* \"#utility.yul\":13819:13823   */\n      dup2\n        /* \"#utility.yul\":13815:13835   */\n      sub\n        /* \"#utility.yul\":13811:13812   */\n      0x00\n        /* \"#utility.yul\":13800:13809   */\n      dup4\n        /* \"#utility.yul\":13796:13813   */\n      add\n        /* \"#utility.yul\":13789:13836   */\n      mstore\n        /* \"#utility.yul\":13853:13984   */\n      tag_519\n        /* \"#utility.yul\":13979:13983   */\n      dup2\n        /* \"#utility.yul\":13853:13984   */\n      tag_341\n      jump\t// in\n    tag_519:\n        /* \"#utility.yul\":13845:13984   */\n      swap1\n      pop\n        /* \"#utility.yul\":13572:13991   */\n      swap2\n      swap1\n      pop\n      jump\t// out\n        /* \"#utility.yul\":13997:14233   */\n    tag_342:\n        /* \"#utility.yul\":14137:14171   */\n      0x4552433732313a207472616e736665722063616c6c6572206973206e6f74206f\n        /* \"#utility.yul\":14133:14134   */\n      0x00\n        /* \"#utility.yul\":14125:14131   */\n      dup3\n        /* \"#utility.yul\":14121:14135   */\n      add\n        /* \"#utility.yul\":14114:14172   */\n      mstore\n        /* \"#utility.yul\":14206:14225   */\n      0x776e6572206e6f7220617070726f766564000000000000000000000000000000\n        /* \"#utility.yul\":14201:14203   */\n      0x20\n        /* \"#utility.yul\":14193:14199   */\n      dup3\n        /* \"#utility.yul\":14189:14204   */\n      add\n        /* \"#utility.yul\":14182:14226   */\n      mstore\n        /* \"#utility.yul\":13997:14233   */\n      pop\n      jump\t// out\n        /* \"#utility.yul\":14239:14605   */\n    tag_343:\n        /* \"#utility.yul\":14381:14384   */\n      0x00\n        /* \"#utility.yul\":14402:14469   */\n      tag_522\n        /* \"#utility.yul\":14466:14468   */\n      0x31\n        /* \"#utility.yul\":14461:14464   */\n      dup4\n        /* \"#utility.yul\":14402:14469   */\n      tag_308\n      jump\t// in\n    tag_522:\n        /* \"#utility.yul\":14395:14469   */\n      swap2\n      pop\n        /* \"#utility.yul\":14478:14571   */\n      tag_523\n        /* \"#utility.yul\":14567:14570   */\n      dup3\n        /* \"#utility.yul\":14478:14571   */\n      tag_342\n      jump\t// in\n    tag_523:\n        /* \"#utility.yul\":14596:14598   */\n      0x40\n        /* \"#utility.yul\":14591:14594   */\n      dup3\n        /* \"#utility.yul\":14587:14599   */\n      add\n        /* \"#utility.yul\":14580:14599   */\n      swap1\n      pop\n        /* \"#utility.yul\":14239:14605   */\n      swap2\n      swap1\n      pop\n      jump\t// out\n        /* \"#utility.yul\":14611:15030   */\n    tag_114:\n        /* \"#utility.yul\":14777:14781   */\n      0x00\n        /* \"#utility.yul\":14815:14817   */\n      0x20\n        /* \"#utility.yul\":14804:14813   */\n      dup3\n        /* \"#utility.yul\":14800:14818   */\n      add\n        /* \"#utility.yul\":14792:14818   */\n      swap1\n      pop\n        /* \"#utility.yul\":14864:14873   */\n      dup2\n        /* \"#utility.yul\":14858:14862   */\n      dup2\n        /* \"#utility.yul\":14854:14874   */\n      sub\n        /* \"#utility.yul\":14850:14851   */\n      0x00\n        /* \"#utility.yul\":14839:14848   */\n      dup4\n        /* \"#utility.yul\":14835:14852   */\n      add\n        /* \"#utility.yul\":14828:14875   */\n      mstore\n        /* \"#utility.yul\":14892:15023   */\n      tag_525\n        /* \"#utility.yul\":15018:15022   */\n      dup2\n        /* \"#utility.yul\":14892:15023   */\n      tag_343\n      jump\t// in\n    tag_525:\n        /* \"#utility.yul\":14884:15023   */\n      swap1\n      pop\n        /* \"#utility.yul\":14611:15030   */\n      swap2\n      swap1\n      pop\n      jump\t// out\n        /* \"#utility.yul\":15036:15218   */\n    tag_344:\n        /* \"#utility.yul\":15176:15210   */\n      0x4f776e61626c653a2063616c6c6572206973206e6f7420746865206f776e6572\n        /* \"#utility.yul\":15172:15173   */\n      0x00\n        /* \"#utility.yul\":15164:15170   */\n      dup3\n        /* \"#utility.yul\":15160:15174   */\n      add\n        /* \"#utility.yul\":15153:15211   */\n      mstore\n        /* \"#utility.yul\":15036:15218   */\n      pop\n      jump\t// out\n        /* \"#utility.yul\":15224:15590   */\n    tag_345:\n        /* \"#utility.yul\":15366:15369   */\n      0x00\n        /* \"#utility.yul\":15387:15454   */\n      tag_528\n        /* \"#utility.yul\":15451:15453   */\n      0x20\n        /* \"#utility.yul\":15446:15449   */\n      dup4\n        /* \"#utility.yul\":15387:15454   */\n      tag_308\n      jump\t// in\n    tag_528:\n        /* \"#utility.yul\":15380:15454   */\n      swap2\n      pop\n        /* \"#utility.yul\":15463:15556   */\n      tag_529\n        /* \"#utility.yul\":15552:15555   */\n      dup3\n        /* \"#utility.yul\":15463:15556   */\n      tag_344\n      jump\t// in\n    tag_529:\n        /* \"#utility.yul\":15581:15583   */\n      0x20\n        /* \"#utility.yul\":15576:15579   */\n      dup3\n        /* \"#utility.yul\":15572:15584   */\n      add\n        /* \"#utility.yul\":15565:15584   */\n      swap1\n      pop\n        /* \"#utility.yul\":15224:15590   */\n      swap2\n      swap1\n      pop\n      jump\t// out\n        /* \"#utility.yul\":15596:16015   */\n    tag_124:\n        /* \"#utility.yul\":15762:15766   */\n      0x00\n        /* \"#utility.yul\":15800:15802   */\n      0x20\n        /* \"#utility.yul\":15789:15798   */\n      dup3\n        /* \"#utility.yul\":15785:15803   */\n      add\n        /* \"#utility.yul\":15777:15803   */\n      swap1\n      pop\n        /* \"#utility.yul\":15849:15858   */\n      dup2\n        /* \"#utility.yul\":15843:15847   */\n      dup2\n        /* \"#utility.yul\":15839:15859   */\n      sub\n        /* \"#utility.yul\":15835:15836   */\n      0x00\n        /* \"#utility.yul\":15824:15833   */\n      dup4\n        /* \"#utility.yul\":15820:15837   */\n      add\n        /* \"#utility.yul\":15813:15860   */\n      mstore\n        /* \"#utility.yul\":15877:16008   */\n      tag_531\n        /* \"#utility.yul\":16003:16007   */\n      dup2\n        /* \"#utility.yul\":15877:16008   */\n      tag_345\n      jump\t// in\n    tag_531:\n        /* \"#utility.yul\":15869:16008   */\n      swap1\n      pop\n        /* \"#utility.yul\":15596:16015   */\n      swap2\n      swap1\n      pop\n      jump\t// out\n        /* \"#utility.yul\":16021:16249   */\n    tag_346:\n        /* \"#utility.yul\":16161:16195   */\n      0x4552433732313a206f776e657220717565727920666f72206e6f6e6578697374\n        /* \"#utility.yul\":16157:16158   */\n      0x00\n        /* \"#utility.yul\":16149:16155   */\n      dup3\n        /* \"#utility.yul\":16145:16159   */\n      add\n        /* \"#utility.yul\":16138:16196   */\n      mstore\n        /* \"#utility.yul\":16230:16241   */\n      0x656e7420746f6b656e0000000000000000000000000000000000000000000000\n        /* \"#utility.yul\":16225:16227   */\n      0x20\n        /* \"#utility.yul\":16217:16223   */\n      dup3\n        /* \"#utility.yul\":16213:16228   */\n      add\n        /* \"#utility.yul\":16206:16242   */\n      mstore\n        /* \"#utility.yul\":16021:16249   */\n      pop\n      jump\t// out\n        /* \"#utility.yul\":16255:16621   */\n    tag_347:\n        /* \"#utility.yul\":16397:16400   */\n      0x00\n        /* \"#utility.yul\":16418:16485   */\n      tag_534\n        /* \"#utility.yul\":16482:16484   */\n      0x29\n        /* \"#utility.yul\":16477:16480   */\n      dup4\n        /* \"#utility.yul\":16418:16485   */\n      tag_308\n      jump\t// in\n    tag_534:\n        /* \"#utility.yul\":16411:16485   */\n      swap2\n      pop\n        /* \"#utility.yul\":16494:16587   */\n      tag_535\n        /* \"#utility.yul\":16583:16586   */\n      dup3\n        /* \"#utility.yul\":16494:16587   */\n      tag_346\n      jump\t// in\n    tag_535:\n        /* \"#utility.yul\":16612:16614   */\n      0x40\n        /* \"#utility.yul\":16607:16610   */\n      dup3\n        /* \"#utility.yul\":16603:16615   */\n      add\n        /* \"#utility.yul\":16596:16615   */\n      swap1\n      pop\n        /* \"#utility.yul\":16255:16621   */\n      swap2\n      swap1\n      pop\n      jump\t// out\n        /* \"#utility.yul\":16627:17046   */\n    tag_131:\n        /* \"#utility.yul\":16793:16797   */\n      0x00\n        /* \"#utility.yul\":16831:16833   */\n      0x20\n        /* \"#utility.yul\":16820:16829   */\n      dup3\n        /* \"#utility.yul\":16816:16834   */\n      add\n        /* \"#utility.yul\":16808:16834   */\n      swap1\n      pop\n        /* \"#utility.yul\":16880:16889   */\n      dup2\n        /* \"#utility.yul\":16874:16878   */\n      dup2\n        /* \"#utility.yul\":16870:16890   */\n      sub\n        /* \"#utility.yul\":16866:16867   */\n      0x00\n        /* \"#utility.yul\":16855:16864   */\n      dup4\n        /* \"#utility.yul\":16851:16868   */\n      add\n        /* \"#utility.yul\":16844:16891   */\n      mstore\n        /* \"#utility.yul\":16908:17039   */\n      tag_537\n        /* \"#utility.yul\":17034:17038   */\n      dup2\n        /* \"#utility.yul\":16908:17039   */\n      tag_347\n      jump\t// in\n    tag_537:\n        /* \"#utility.yul\":16900:17039   */\n      swap1\n      pop\n        /* \"#utility.yul\":16627:17046   */\n      swap2\n      swap1\n      pop\n      jump\t// out\n        /* \"#utility.yul\":17052:17281   */\n    tag_348:\n        /* \"#utility.yul\":17192:17226   */\n      0x4552433732313a2062616c616e636520717565727920666f7220746865207a65\n        /* \"#utility.yul\":17188:17189   */\n      0x00\n        /* \"#utility.yul\":17180:17186   */\n      dup3\n        /* \"#utility.yul\":17176:17190   */\n      add\n        /* \"#utility.yul\":17169:17227   */\n      mstore\n        /* \"#utility.yul\":17261:17273   */\n      0x726f206164647265737300000000000000000000000000000000000000000000\n        /* \"#utility.yul\":17256:17258   */\n      0x20\n        /* \"#utility.yul\":17248:17254   */\n      dup3\n        /* \"#utility.yul\":17244:17259   */\n      add\n        /* \"#utility.yul\":17237:17274   */\n      mstore\n        /* \"#utility.yul\":17052:17281   */\n      pop\n      jump\t// out\n        /* \"#utility.yul\":17287:17653   */\n    tag_349:\n        /* \"#utility.yul\":17429:17432   */\n      0x00\n        /* \"#utility.yul\":17450:17517   */\n      tag_540\n        /* \"#utility.yul\":17514:17516   */\n      0x2a\n        /* \"#utility.yul\":17509:17512   */\n      dup4\n        /* \"#utility.yul\":17450:17517   */\n      tag_308\n      jump\t// in\n    tag_540:\n        /* \"#utility.yul\":17443:17517   */\n      swap2\n      pop\n        /* \"#utility.yul\":17526:17619   */\n      tag_541\n        /* \"#utility.yul\":17615:17618   */\n      dup3\n        /* \"#utility.yul\":17526:17619   */\n      tag_348\n      jump\t// in\n    tag_541:\n        /* \"#utility.yul\":17644:17646   */\n      0x40\n        /* \"#utility.yul\":17639:17642   */\n      dup3\n        /* \"#utility.yul\":17635:17647   */\n      add\n        /* \"#utility.yul\":17628:17647   */\n      swap1\n      pop\n        /* \"#utility.yul\":17287:17653   */\n      swap2\n      swap1\n      pop\n      jump\t// out\n        /* \"#utility.yul\":17659:18078   */\n    tag_135:\n        /* \"#utility.yul\":17825:17829   */\n      0x00\n        /* \"#utility.yul\":17863:17865   */\n      0x20\n        /* \"#utility.yul\":17852:17861   */\n      dup3\n        /* \"#utility.yul\":17848:17866   */\n      add\n        /* \"#utility.yul\":17840:17866   */\n      swap1\n      pop\n        /* \"#utility.yul\":17912:17921   */\n      dup2\n        /* \"#utility.yul\":17906:17910   */\n      dup2\n        /* \"#utility.yul\":17902:17922   */\n      sub\n        /* \"#utility.yul\":17898:17899   */\n      0x00\n        /* \"#utility.yul\":17887:17896   */\n      dup4\n        /* \"#utility.yul\":17883:17900   */\n      add\n        /* \"#utility.yul\":17876:17923   */\n      mstore\n        /* \"#utility.yul\":17940:18071   */\n      tag_543\n        /* \"#utility.yul\":18066:18070   */\n      dup2\n        /* \"#utility.yul\":17940:18071   */\n      tag_349\n      jump\t// in\n    tag_543:\n        /* \"#utility.yul\":17932:18071   */\n      swap1\n      pop\n        /* \"#utility.yul\":17659:18078   */\n      swap2\n      swap1\n      pop\n      jump\t// out\n        /* \"#utility.yul\":18084:18264   */\n    tag_350:\n        /* \"#utility.yul\":18132:18209   */\n      0x4e487b7100000000000000000000000000000000000000000000000000000000\n        /* \"#utility.yul\":18129:18130   */\n      0x00\n        /* \"#utility.yul\":18122:18210   */\n      mstore\n        /* \"#utility.yul\":18229:18233   */\n      0x11\n        /* \"#utility.yul\":18226:18227   */\n      0x04\n        /* \"#utility.yul\":18219:18234   */\n      mstore\n        /* \"#utility.yul\":18253:18257   */\n      0x24\n        /* \"#utility.yul\":18250:18251   */\n      0x00\n        /* \"#utility.yul\":18243:18258   */\n      revert\n        /* \"#utility.yul\":18270:18503   */\n    tag_155:\n        /* \"#utility.yul\":18309:18312   */\n      0x00\n        /* \"#utility.yul\":18332:18356   */\n      tag_546\n        /* \"#utility.yul\":18350:18355   */\n      dup3\n        /* \"#utility.yul\":18332:18356   */\n      tag_315\n      jump\t// in\n    tag_546:\n        /* \"#utility.yul\":18323:18356   */\n      swap2\n      pop\n        /* \"#utility.yul\":18378:18444   */\n      0xffffffffffffffffffffffffffffffffffffffffffffffffffffffffffffffff\n        /* \"#utility.yul\":18371:18376   */\n      dup3\n        /* \"#utility.yul\":18368:18445   */\n      sub\n        /* \"#utility.yul\":18365:18468   */\n      tag_547\n      jumpi\n        /* \"#utility.yul\":18448:18466   */\n      tag_548\n      tag_350\n      jump\t// in\n    tag_548:\n        /* \"#utility.yul\":18365:18468   */\n    tag_547:\n        /* \"#utility.yul\":18495:18496   */\n      0x01\n        /* \"#utility.yul\":18488:18493   */\n      dup3\n        /* \"#utility.yul\":18484:18497   */\n      add\n        /* \"#utility.yul\":18477:18497   */\n      swap1\n      pop\n        /* \"#utility.yul\":18270:18503   */\n      swap2\n      swap1\n      pop\n      jump\t// out\n        /* \"#utility.yul\":18509:18743   */\n    tag_351:\n        /* \"#utility.yul\":18649:18683   */\n      0x4552433732314d657461646174613a2055524920717565727920666f72206e6f\n        /* \"#utility.yul\":18645:18646   */\n      0x00\n        /* \"#utility.yul\":18637:18643   */\n      dup3\n        /* \"#utility.yul\":18633:18647   */\n      add\n        /* \"#utility.yul\":18626:18684   */\n      mstore\n        /* \"#utility.yul\":18718:18735   */\n      0x6e6578697374656e7420746f6b656e0000000000000000000000000000000000\n        /* \"#utility.yul\":18713:18715   */\n      0x20\n        /* \"#utility.yul\":18705:18711   */\n      dup3\n        /* \"#utility.yul\":18701:18716   */\n      add\n        /* \"#utility.yul\":18694:18736   */\n      mstore\n        /* \"#utility.yul\":18509:18743   */\n      pop\n      jump\t// out\n        /* \"#utility.yul\":18749:19115   */\n    tag_352:\n        /* \"#utility.yul\":18891:18894   */\n      0x00\n        /* \"#utility.yul\":18912:18979   */\n      tag_551\n        /* \"#utility.yul\":18976:18978   */\n      0x2f\n        /* \"#utility.yul\":18971:18974   */\n      dup4\n        /* \"#utility.yul\":18912:18979   */\n      tag_308\n      jump\t// in\n    tag_551:\n        /* \"#utility.yul\":18905:18979   */\n      swap2\n      pop\n        /* \"#utility.yul\":18988:19081   */\n      tag_552\n        /* \"#utility.yul\":19077:19080   */\n      dup3\n        /* \"#utility.yul\":18988:19081   */\n      tag_351\n      jump\t// in\n    tag_552:\n        /* \"#utility.yul\":19106:19108   */\n      0x40\n        /* \"#utility.yul\":19101:19104   */\n      dup3\n        /* \"#utility.yul\":19097:19109   */\n      add\n        /* \"#utility.yul\":19090:19109   */\n      swap1\n      pop\n        /* \"#utility.yul\":18749:19115   */\n      swap2\n      swap1\n      pop\n      jump\t// out\n        /* \"#utility.yul\":19121:19540   */\n    tag_174:\n        /* \"#utility.yul\":19287:19291   */\n      0x00\n        /* \"#utility.yul\":19325:19327   */\n      0x20\n        /* \"#utility.yul\":19314:19323   */\n      dup3\n        /* \"#utility.yul\":19310:19328   */\n      add\n        /* \"#utility.yul\":19302:19328   */\n      swap1\n      pop\n        /* \"#utility.yul\":19374:19383   */\n      dup2\n        /* \"#utility.yul\":19368:19372   */\n      dup2\n        /* \"#utility.yul\":19364:19384   */\n      sub\n        /* \"#utility.yul\":19360:19361   */\n      0x00\n        /* \"#utility.yul\":19349:19358   */\n      dup4\n        /* \"#utility.yul\":19345:19362   */\n      add\n        /* \"#utility.yul\":19338:19385   */\n      mstore\n        /* \"#utility.yul\":19402:19533   */\n      tag_554\n        /* \"#utility.yul\":19528:19532   */\n      dup2\n        /* \"#utility.yul\":19402:19533   */\n      tag_352\n      jump\t// in\n    tag_554:\n        /* \"#utility.yul\":19394:19533   */\n      swap1\n      pop\n        /* \"#utility.yul\":19121:19540   */\n      swap2\n      swap1\n      pop\n      jump\t// out\n        /* \"#utility.yul\":19546:19694   */\n    tag_353:\n        /* \"#utility.yul\":19648:19659   */\n      0x00\n        /* \"#utility.yul\":19685:19688   */\n      dup2\n        /* \"#utility.yul\":19670:19688   */\n      swap1\n      pop\n        /* \"#utility.yul\":19546:19694   */\n      swap3\n      swap2\n      pop\n      pop\n      jump\t// out\n        /* \"#utility.yul\":19700:20077   */\n    tag_354:\n        /* \"#utility.yul\":19806:19809   */\n      0x00\n        /* \"#utility.yul\":19834:19873   */\n      tag_557\n        /* \"#utility.yul\":19867:19872   */\n      dup3\n        /* \"#utility.yul\":19834:19873   */\n      tag_307\n      jump\t// in\n    tag_557:\n        /* \"#utility.yul\":19889:19978   */\n      tag_558\n        /* \"#utility.yul\":19971:19977   */\n      dup2\n        /* \"#utility.yul\":19966:19969   */\n      dup6\n        /* \"#utility.yul\":19889:19978   */\n      tag_353\n      jump\t// in\n    tag_558:\n        /* \"#utility.yul\":19882:19978   */\n      swap4\n      pop\n        /* \"#utility.yul\":19987:20039   */\n      tag_559\n        /* \"#utility.yul\":20032:20038   */\n      dup2\n        /* \"#utility.yul\":20027:20030   */\n      dup6\n        /* \"#utility.yul\":20020:20024   */\n      0x20\n        /* \"#utility.yul\":20013:20018   */\n      dup7\n        /* \"#utility.yul\":20009:20025   */\n      add\n        /* \"#utility.yul\":19987:20039   */\n      tag_309\n      jump\t// in\n    tag_559:\n        /* \"#utility.yul\":20064:20070   */\n      dup1\n        /* \"#utility.yul\":20059:20062   */\n      dup5\n        /* \"#utility.yul\":20055:20071   */\n      add\n        /* \"#utility.yul\":20048:20071   */\n      swap2\n      pop\n        /* \"#utility.yul\":19810:20077   */\n      pop\n        /* \"#utility.yul\":19700:20077   */\n      swap3\n      swap2\n      pop\n      pop\n      jump\t// out\n        /* \"#utility.yul\":20083:20518   */\n    tag_185:\n        /* \"#utility.yul\":20263:20266   */\n      0x00\n        /* \"#utility.yul\":20285:20380   */\n      tag_561\n        /* \"#utility.yul\":20376:20379   */\n      dup3\n        /* \"#utility.yul\":20367:20373   */\n      dup6\n        /* \"#utility.yul\":20285:20380   */\n      tag_354\n      jump\t// in\n    tag_561:\n        /* \"#utility.yul\":20278:20380   */\n      swap2\n      pop\n        /* \"#utility.yul\":20397:20492   */\n      tag_562\n        /* \"#utility.yul\":20488:20491   */\n      dup3\n        /* \"#utility.yul\":20479:20485   */\n      dup5\n        /* \"#utility.yul\":20397:20492   */\n      tag_354\n      jump\t// in\n    tag_562:\n        /* \"#utility.yul\":20390:20492   */\n      swap2\n      pop\n        /* \"#utility.yul\":20509:20512   */\n      dup2\n        /* \"#utility.yul\":20502:20512   */\n      swap1\n      pop\n        /* \"#utility.yul\":20083:20518   */\n      swap4\n      swap3\n      pop\n      pop\n      pop\n      jump\t// out\n        /* \"#utility.yul\":20524:20749   */\n    tag_355:\n        /* \"#utility.yul\":20664:20698   */\n      0x4f776e61626c653a206e6577206f776e657220697320746865207a65726f2061\n        /* \"#utility.yul\":20660:20661   */\n      0x00\n        /* \"#utility.yul\":20652:20658   */\n      dup3\n        /* \"#utility.yul\":20648:20662   */\n      add\n        /* \"#utility.yul\":20641:20699   */\n      mstore\n        /* \"#utility.yul\":20733:20741   */\n      0x6464726573730000000000000000000000000000000000000000000000000000\n        /* \"#utility.yul\":20728:20730   */\n      0x20\n        /* \"#utility.yul\":20720:20726   */\n      dup3\n        /* \"#utility.yul\":20716:20731   */\n      add\n        /* \"#utility.yul\":20709:20742   */\n      mstore\n        /* \"#utility.yul\":20524:20749   */\n      pop\n      jump\t// out\n        /* \"#utility.yul\":20755:21121   */\n    tag_356:\n        /* \"#utility.yul\":20897:20900   */\n      0x00\n        /* \"#utility.yul\":20918:20985   */\n      tag_565\n        /* \"#utility.yul\":20982:20984   */\n      0x26\n        /* \"#utility.yul\":20977:20980   */\n      dup4\n        /* \"#utility.yul\":20918:20985   */\n      tag_308\n      jump\t// in\n    tag_565:\n        /* \"#utility.yul\":20911:20985   */\n      swap2\n      pop\n        /* \"#utility.yul\":20994:21087   */\n      tag_566\n        /* \"#utility.yul\":21083:21086   */\n      dup3\n        /* \"#utility.yul\":20994:21087   */\n      tag_355\n      jump\t// in\n    tag_566:\n        /* \"#utility.yul\":21112:21114   */\n      0x40\n        /* \"#utility.yul\":21107:21110   */\n      dup3\n        /* \"#utility.yul\":21103:21115   */\n      add\n        /* \"#utility.yul\":21096:21115   */\n      swap1\n      pop\n        /* \"#utility.yul\":20755:21121   */\n      swap2\n      swap1\n      pop\n      jump\t// out\n        /* \"#utility.yul\":21127:21546   */\n    tag_197:\n        /* \"#utility.yul\":21293:21297   */\n      0x00\n        /* \"#utility.yul\":21331:21333   */\n      0x20\n        /* \"#utility.yul\":21320:21329   */\n      dup3\n        /* \"#utility.yul\":21316:21334   */\n      add\n        /* \"#utility.yul\":21308:21334   */\n      swap1\n      pop\n        /* \"#utility.yul\":21380:21389   */\n      dup2\n        /* \"#utility.yul\":21374:21378   */\n      dup2\n        /* \"#utility.yul\":21370:21390   */\n      sub\n        /* \"#utility.yul\":21366:21367   */\n      0x00\n        /* \"#utility.yul\":21355:21364   */\n      dup4\n        /* \"#utility.yul\":21351:21368   */\n      add\n        /* \"#utility.yul\":21344:21391   */\n      mstore\n        /* \"#utility.yul\":21408:21539   */\n      tag_568\n        /* \"#utility.yul\":21534:21538   */\n      dup2\n        /* \"#utility.yul\":21408:21539   */\n      tag_356\n      jump\t// in\n    tag_568:\n        /* \"#utility.yul\":21400:21539   */\n      swap1\n      pop\n        /* \"#utility.yul\":21127:21546   */\n      swap2\n      swap1\n      pop\n      jump\t// out\n        /* \"#utility.yul\":21552:21783   */\n    tag_357:\n        /* \"#utility.yul\":21692:21726   */\n      0x4552433732313a206f70657261746f7220717565727920666f72206e6f6e6578\n        /* \"#utility.yul\":21688:21689   */\n      0x00\n        /* \"#utility.yul\":21680:21686   */\n      dup3\n        /* \"#utility.yul\":21676:21690   */\n      add\n        /* \"#utility.yul\":21669:21727   */\n      mstore\n        /* \"#utility.yul\":21761:21775   */\n      0x697374656e7420746f6b656e0000000000000000000000000000000000000000\n        /* \"#utility.yul\":21756:21758   */\n      0x20\n        /* \"#utility.yul\":21748:21754   */\n      dup3\n        /* \"#utility.yul\":21744:21759   */\n      add\n        /* \"#utility.yul\":21737:21776   */\n      mstore\n        /* \"#utility.yul\":21552:21783   */\n      pop\n      jump\t// out\n        /* \"#utility.yul\":21789:22155   */\n    tag_358:\n        /* \"#utility.yul\":21931:21934   */\n      0x00\n        /* \"#utility.yul\":21952:22019   */\n      tag_571\n        /* \"#utility.yul\":22016:22018   */\n      0x2c\n        /* \"#utility.yul\":22011:22014   */\n      dup4\n        /* \"#utility.yul\":21952:22019   */\n      tag_308\n      jump\t// in\n    tag_571:\n        /* \"#utility.yul\":21945:22019   */\n      swap2\n      pop\n        /* \"#utility.yul\":22028:22121   */\n      tag_572\n        /* \"#utility.yul\":22117:22120   */\n      dup3\n        /* \"#utility.yul\":22028:22121   */\n      tag_357\n      jump\t// in\n    tag_572:\n        /* \"#utility.yul\":22146:22148   */\n      0x40\n        /* \"#utility.yul\":22141:22144   */\n      dup3\n        /* \"#utility.yul\":22137:22149   */\n      add\n        /* \"#utility.yul\":22130:22149   */\n      swap1\n      pop\n        /* \"#utility.yul\":21789:22155   */\n      swap2\n      swap1\n      pop\n      jump\t// out\n        /* \"#utility.yul\":22161:22580   */\n    tag_207:\n        /* \"#utility.yul\":22327:22331   */\n      0x00\n        /* \"#utility.yul\":22365:22367   */\n      0x20\n        /* \"#utility.yul\":22354:22363   */\n      dup3\n        /* \"#utility.yul\":22350:22368   */\n      add\n        /* \"#utility.yul\":22342:22368   */\n      swap1\n      pop\n        /* \"#utility.yul\":22414:22423   */\n      dup2\n        /* \"#utility.yul\":22408:22412   */\n      dup2\n        /* \"#utility.yul\":22404:22424   */\n      sub\n        /* \"#utility.yul\":22400:22401   */\n      0x00\n        /* \"#utility.yul\":22389:22398   */\n      dup4\n        /* \"#utility.yul\":22385:22402   */\n      add\n        /* \"#utility.yul\":22378:22425   */\n      mstore\n        /* \"#utility.yul\":22442:22573   */\n      tag_574\n        /* \"#utility.yul\":22568:22572   */\n      dup2\n        /* \"#utility.yul\":22442:22573   */\n      tag_358\n      jump\t// in\n    tag_574:\n        /* \"#utility.yul\":22434:22573   */\n      swap1\n      pop\n        /* \"#utility.yul\":22161:22580   */\n      swap2\n      swap1\n      pop\n      jump\t// out\n        /* \"#utility.yul\":22586:22810   */\n    tag_359:\n        /* \"#utility.yul\":22726:22760   */\n      0x4552433732313a207472616e736665722066726f6d20696e636f727265637420\n        /* \"#utility.yul\":22722:22723   */\n      0x00\n        /* \"#utility.yul\":22714:22720   */\n      dup3\n        /* \"#utility.yul\":22710:22724   */\n      add\n        /* \"#utility.yul\":22703:22761   */\n      mstore\n        /* \"#utility.yul\":22795:22802   */\n      0x6f776e6572000000000000000000000000000000000000000000000000000000\n        /* \"#utility.yul\":22790:22792   */\n      0x20\n        /* \"#utility.yul\":22782:22788   */\n      dup3\n        /* \"#utility.yul\":22778:22793   */\n      add\n        /* \"#utility.yul\":22771:22803   */\n      mstore\n        /* \"#utility.yul\":22586:22810   */\n      pop\n      jump\t// out\n        /* \"#utility.yul\":22816:23182   */\n    tag_360:\n        /* \"#utility.yul\":22958:22961   */\n      0x00\n        /* \"#utility.yul\":22979:23046   */\n      tag_577\n        /* \"#utility.yul\":23043:23045   */\n      0x25\n        /* \"#utility.yul\":23038:23041   */\n      dup4\n        /* \"#utility.yul\":22979:23046   */\n      tag_308\n      jump\t// in\n    tag_577:\n        /* \"#utility.yul\":22972:23046   */\n      swap2\n      pop\n        /* \"#utility.yul\":23055:23148   */\n      tag_578\n        /* \"#utility.yul\":23144:23147   */\n      dup3\n        /* \"#utility.yul\":23055:23148   */\n      tag_359\n      jump\t// in\n    tag_578:\n        /* \"#utility.yul\":23173:23175   */\n      0x40\n        /* \"#utility.yul\":23168:23171   */\n      dup3\n        /* \"#utility.yul\":23164:23176   */\n      add\n        /* \"#utility.yul\":23157:23176   */\n      swap1\n      pop\n        /* \"#utility.yul\":22816:23182   */\n      swap2\n      swap1\n      pop\n      jump\t// out\n        /* \"#utility.yul\":23188:23607   */\n    tag_215:\n        /* \"#utility.yul\":23354:23358   */\n      0x00\n        /* \"#utility.yul\":23392:23394   */\n      0x20\n        /* \"#utility.yul\":23381:23390   */\n      dup3\n        /* \"#utility.yul\":23377:23395   */\n      add\n        /* \"#utility.yul\":23369:23395   */\n      swap1\n      pop\n        /* \"#utility.yul\":23441:23450   */\n      dup2\n        /* \"#utility.yul\":23435:23439   */\n      dup2\n        /* \"#utility.yul\":23431:23451   */\n      sub\n        /* \"#utility.yul\":23427:23428   */\n      0x00\n        /* \"#utility.yul\":23416:23425   */\n      dup4\n        /* \"#utility.yul\":23412:23429   */\n      add\n        /* \"#utility.yul\":23405:23452   */\n      mstore\n        /* \"#utility.yul\":23469:23600   */\n      tag_580\n        /* \"#utility.yul\":23595:23599   */\n      dup2\n        /* \"#utility.yul\":23469:23600   */\n      tag_360\n      jump\t// in\n    tag_580:\n        /* \"#utility.yul\":23461:23600   */\n      swap1\n      pop\n        /* \"#utility.yul\":23188:23607   */\n      swap2\n      swap1\n      pop\n      jump\t// out\n        /* \"#utility.yul\":23613:23836   */\n    tag_361:\n        /* \"#utility.yul\":23753:23787   */\n      0x4552433732313a207472616e7366657220746f20746865207a65726f20616464\n        /* \"#utility.yul\":23749:23750   */\n      0x00\n        /* \"#utility.yul\":23741:23747   */\n      dup3\n        /* \"#utility.yul\":23737:23751   */\n      add\n        /* \"#utility.yul\":23730:23788   */\n      mstore\n        /* \"#utility.yul\":23822:23828   */\n      0x7265737300000000000000000000000000000000000000000000000000000000\n        /* \"#utility.yul\":23817:23819   */\n      0x20\n        /* \"#utility.yul\":23809:23815   */\n      dup3\n        /* \"#utility.yul\":23805:23820   */\n      add\n        /* \"#utility.yul\":23798:23829   */\n      mstore\n        /* \"#utility.yul\":23613:23836   */\n      pop\n      jump\t// out\n        /* \"#utility.yul\":23842:24208   */\n    tag_362:\n        /* \"#utility.yul\":23984:23987   */\n      0x00\n        /* \"#utility.yul\":24005:24072   */\n      tag_583\n        /* \"#utility.yul\":24069:24071   */\n      0x24\n        /* \"#utility.yul\":24064:24067   */\n      dup4\n        /* \"#utility.yul\":24005:24072   */\n      tag_308\n      jump\t// in\n    tag_583:\n        /* \"#utility.yul\":23998:24072   */\n      swap2\n      pop\n        /* \"#utility.yul\":24081:24174   */\n      tag_584\n        /* \"#utility.yul\":24170:24173   */\n      dup3\n        /* \"#utility.yul\":24081:24174   */\n      tag_361\n      jump\t// in\n    tag_584:\n        /* \"#utility.yul\":24199:24201   */\n      0x40\n        /* \"#utility.yul\":24194:24197   */\n      dup3\n        /* \"#utility.yul\":24190:24202   */\n      add\n        /* \"#utility.yul\":24183:24202   */\n      swap1\n      pop\n        /* \"#utility.yul\":23842:24208   */\n      swap2\n      swap1\n      pop\n      jump\t// out\n        /* \"#utility.yul\":24214:24633   */\n    tag_218:\n        /* \"#utility.yul\":24380:24384   */\n      0x00\n        /* \"#utility.yul\":24418:24420   */\n      0x20\n        /* \"#utility.yul\":24407:24416   */\n      dup3\n        /* \"#utility.yul\":24403:24421   */\n      add\n        /* \"#utility.yul\":24395:24421   */\n      swap1\n      pop\n        /* \"#utility.yul\":24467:24476   */\n      dup2\n        /* \"#utility.yul\":24461:24465   */\n      dup2\n        /* \"#utility.yul\":24457:24477   */\n      sub\n        /* \"#utility.yul\":24453:24454   */\n      0x00\n        /* \"#utility.yul\":24442:24451   */\n      dup4\n        /* \"#utility.yul\":24438:24455   */\n      add\n        /* \"#utility.yul\":24431:24478   */\n      mstore\n        /* \"#utility.yul\":24495:24626   */\n      tag_586\n        /* \"#utility.yul\":24621:24625   */\n      dup2\n        /* \"#utility.yul\":24495:24626   */\n      tag_362\n      jump\t// in\n    tag_586:\n        /* \"#utility.yul\":24487:24626   */\n      swap1\n      pop\n        /* \"#utility.yul\":24214:24633   */\n      swap2\n      swap1\n      pop\n      jump\t// out\n        /* \"#utility.yul\":24639:24830   */\n    tag_223:\n        /* \"#utility.yul\":24679:24683   */\n      0x00\n        /* \"#utility.yul\":24699:24719   */\n      tag_588\n        /* \"#utility.yul\":24717:24718   */\n      dup3\n        /* \"#utility.yul\":24699:24719   */\n      tag_315\n      jump\t// in\n    tag_588:\n        /* \"#utility.yul\":24694:24719   */\n      swap2\n      pop\n        /* \"#utility.yul\":24733:24753   */\n      tag_589\n        /* \"#utility.yul\":24751:24752   */\n      dup4\n        /* \"#utility.yul\":24733:24753   */\n      tag_315\n      jump\t// in\n    tag_589:\n        /* \"#utility.yul\":24728:24753   */\n      swap3\n      pop\n        /* \"#utility.yul\":24772:24773   */\n      dup3\n        /* \"#utility.yul\":24769:24770   */\n      dup3\n        /* \"#utility.yul\":24766:24774   */\n      lt\n        /* \"#utility.yul\":24763:24797   */\n      iszero\n      tag_590\n      jumpi\n        /* \"#utility.yul\":24777:24795   */\n      tag_591\n      tag_350\n      jump\t// in\n    tag_591:\n        /* \"#utility.yul\":24763:24797   */\n    tag_590:\n        /* \"#utility.yul\":24822:24823   */\n      dup3\n        /* \"#utility.yul\":24819:24820   */\n      dup3\n        /* \"#utility.yul\":24815:24824   */\n      sub\n        /* \"#utility.yul\":24807:24824   */\n      swap1\n      pop\n        /* \"#utility.yul\":24639:24830   */\n      swap3\n      swap2\n      pop\n      pop\n      jump\t// out\n        /* \"#utility.yul\":24836:25141   */\n    tag_225:\n        /* \"#utility.yul\":24876:24879   */\n      0x00\n        /* \"#utility.yul\":24895:24915   */\n      tag_593\n        /* \"#utility.yul\":24913:24914   */\n      dup3\n        /* \"#utility.yul\":24895:24915   */\n      tag_315\n      jump\t// in\n    tag_593:\n        /* \"#utility.yul\":24890:24915   */\n      swap2\n      pop\n        /* \"#utility.yul\":24929:24949   */\n      tag_594\n        /* \"#utility.yul\":24947:24948   */\n      dup4\n        /* \"#utility.yul\":24929:24949   */\n      tag_315\n      jump\t// in\n    tag_594:\n        /* \"#utility.yul\":24924:24949   */\n      swap3\n      pop\n        /* \"#utility.yul\":25083:25084   */\n      dup3\n        /* \"#utility.yul\":25015:25081   */\n      0xffffffffffffffffffffffffffffffffffffffffffffffffffffffffffffffff\n        /* \"#utility.yul\":25011:25085   */\n      sub\n        /* \"#utility.yul\":25008:25009   */\n      dup3\n        /* \"#utility.yul\":25005:25086   */\n      gt\n        /* \"#utility.yul\":25002:25109   */\n      iszero\n      tag_595\n      jumpi\n        /* \"#utility.yul\":25089:25107   */\n      tag_596\n      tag_350\n      jump\t// in\n    tag_596:\n        /* \"#utility.yul\":25002:25109   */\n    tag_595:\n        /* \"#utility.yul\":25133:25134   */\n      dup3\n        /* \"#utility.yul\":25130:25131   */\n      dup3\n        /* \"#utility.yul\":25126:25135   */\n      add\n        /* \"#utility.yul\":25119:25135   */\n      swap1\n      pop\n        /* \"#utility.yul\":24836:25141   */\n      swap3\n      swap2\n      pop\n      pop\n      jump\t// out\n        /* \"#utility.yul\":25147:25378   */\n    tag_363:\n        /* \"#utility.yul\":25287:25321   */\n      0x4552433732314d657461646174613a2055524920736574206f66206e6f6e6578\n        /* \"#utility.yul\":25283:25284   */\n      0x00\n        /* \"#utility.yul\":25275:25281   */\n      dup3\n        /* \"#utility.yul\":25271:25285   */\n      add\n        /* \"#utility.yul\":25264:25322   */\n      mstore\n        /* \"#utility.yul\":25356:25370   */\n      0x697374656e7420746f6b656e0000000000000000000000000000000000000000\n        /* \"#utility.yul\":25351:25353   */\n      0x20\n        /* \"#utility.yul\":25343:25349   */\n      dup3\n        /* \"#utility.yul\":25339:25354   */\n      add\n        /* \"#utility.yul\":25332:25371   */\n      mstore\n        /* \"#utility.yul\":25147:25378   */\n      pop\n      jump\t// out\n        /* \"#utility.yul\":25384:25750   */\n    tag_364:\n        /* \"#utility.yul\":25526:25529   */\n      0x00\n        /* \"#utility.yul\":25547:25614   */\n      tag_599\n        /* \"#utility.yul\":25611:25613   */\n      0x2c\n        /* \"#utility.yul\":25606:25609   */\n      dup4\n        /* \"#utility.yul\":25547:25614   */\n      tag_308\n      jump\t// in\n    tag_599:\n        /* \"#utility.yul\":25540:25614   */\n      swap2\n      pop\n        /* \"#utility.yul\":25623:25716   */\n      tag_600\n        /* \"#utility.yul\":25712:25715   */\n      dup3\n        /* \"#utility.yul\":25623:25716   */\n      tag_363\n      jump\t// in\n    tag_600:\n        /* \"#utility.yul\":25741:25743   */\n      0x40\n        /* \"#utility.yul\":25736:25739   */\n      dup3\n        /* \"#utility.yul\":25732:25744   */\n      add\n        /* \"#utility.yul\":25725:25744   */\n      swap1\n      pop\n        /* \"#utility.yul\":25384:25750   */\n      swap2\n      swap1\n      pop\n      jump\t// out\n        /* \"#utility.yul\":25756:26175   */\n    tag_234:\n        /* \"#utility.yul\":25922:25926   */\n      0x00\n        /* \"#utility.yul\":25960:25962   */\n      0x20\n        /* \"#utility.yul\":25949:25958   */\n      dup3\n        /* \"#utility.yul\":25945:25963   */\n      add\n        /* \"#utility.yul\":25937:25963   */\n      swap1\n      pop\n        /* \"#utility.yul\":26009:26018   */\n      dup2\n        /* \"#utility.yul\":26003:26007   */\n      dup2\n        /* \"#utility.yul\":25999:26019   */\n      sub\n        /* \"#utility.yul\":25995:25996   */\n      0x00\n        /* \"#utility.yul\":25984:25993   */\n      dup4\n        /* \"#utility.yul\":25980:25997   */\n      add\n        /* \"#utility.yul\":25973:26020   */\n      mstore\n        /* \"#utility.yul\":26037:26168   */\n      tag_602\n        /* \"#utility.yul\":26163:26167   */\n      dup2\n        /* \"#utility.yul\":26037:26168   */\n      tag_364\n      jump\t// in\n    tag_602:\n        /* \"#utility.yul\":26029:26168   */\n      swap1\n      pop\n        /* \"#utility.yul\":25756:26175   */\n      swap2\n      swap1\n      pop\n      jump\t// out\n        /* \"#utility.yul\":26181:26418   */\n    tag_365:\n        /* \"#utility.yul\":26321:26355   */\n      0x4552433732313a207472616e7366657220746f206e6f6e204552433732315265\n        /* \"#utility.yul\":26317:26318   */\n      0x00\n        /* \"#utility.yul\":26309:26315   */\n      dup3\n        /* \"#utility.yul\":26305:26319   */\n      add\n        /* \"#utility.yul\":26298:26356   */\n      mstore\n        /* \"#utility.yul\":26390:26410   */\n      0x63656976657220696d706c656d656e7465720000000000000000000000000000\n        /* \"#utility.yul\":26385:26387   */\n      0x20\n        /* \"#utility.yul\":26377:26383   */\n      dup3\n        /* \"#utility.yul\":26373:26388   */\n      add\n        /* \"#utility.yul\":26366:26411   */\n      mstore\n        /* \"#utility.yul\":26181:26418   */\n      pop\n      jump\t// out\n        /* \"#utility.yul\":26424:26790   */\n    tag_366:\n        /* \"#utility.yul\":26566:26569   */\n      0x00\n        /* \"#utility.yul\":26587:26654   */\n      tag_605\n        /* \"#utility.yul\":26651:26653   */\n      0x32\n        /* \"#utility.yul\":26646:26649   */\n      dup4\n        /* \"#utility.yul\":26587:26654   */\n      tag_308\n      jump\t// in\n    tag_605:\n        /* \"#utility.yul\":26580:26654   */\n      swap2\n      pop\n        /* \"#utility.yul\":26663:26756   */\n      tag_606\n        /* \"#utility.yul\":26752:26755   */\n      dup3\n        /* \"#utility.yul\":26663:26756   */\n      tag_365\n      jump\t// in\n    tag_606:\n        /* \"#utility.yul\":26781:26783   */\n      0x40\n        /* \"#utility.yul\":26776:26779   */\n      dup3\n        /* \"#utility.yul\":26772:26784   */\n      add\n        /* \"#utility.yul\":26765:26784   */\n      swap1\n      pop\n        /* \"#utility.yul\":26424:26790   */\n      swap2\n      swap1\n      pop\n      jump\t// out\n        /* \"#utility.yul\":26796:27215   */\n    tag_242:\n        /* \"#utility.yul\":26962:26966   */\n      0x00\n        /* \"#utility.yul\":27000:27002   */\n      0x20\n        /* \"#utility.yul\":26989:26998   */\n      dup3\n        /* \"#utility.yul\":26985:27003   */\n      add\n        /* \"#utility.yul\":26977:27003   */\n      swap1\n      pop\n        /* \"#utility.yul\":27049:27058   */\n      dup2\n        /* \"#utility.yul\":27043:27047   */\n      dup2\n        /* \"#utility.yul\":27039:27059   */\n      sub\n        /* \"#utility.yul\":27035:27036   */\n      0x00\n        /* \"#utility.yul\":27024:27033   */\n      dup4\n        /* \"#utility.yul\":27020:27037   */\n      add\n        /* \"#utility.yul\":27013:27060   */\n      mstore\n        /* \"#utility.yul\":27077:27208   */\n      tag_608\n        /* \"#utility.yul\":27203:27207   */\n      dup2\n        /* \"#utility.yul\":27077:27208   */\n      tag_366\n      jump\t// in\n    tag_608:\n        /* \"#utility.yul\":27069:27208   */\n      swap1\n      pop\n        /* \"#utility.yul\":26796:27215   */\n      swap2\n      swap1\n      pop\n      jump\t// out\n        /* \"#utility.yul\":27221:27401   */\n    tag_367:\n        /* \"#utility.yul\":27269:27346   */\n      0x4e487b7100000000000000000000000000000000000000000000000000000000\n        /* \"#utility.yul\":27266:27267   */\n      0x00\n        /* \"#utility.yul\":27259:27347   */\n      mstore\n        /* \"#utility.yul\":27366:27370   */\n      0x12\n        /* \"#utility.yul\":27363:27364   */\n      0x04\n        /* \"#utility.yul\":27356:27371   */\n      mstore\n        /* \"#utility.yul\":27390:27394   */\n      0x24\n        /* \"#utility.yul\":27387:27388   */\n      0x00\n        /* \"#utility.yul\":27380:27395   */\n      revert\n        /* \"#utility.yul\":27407:27592   */\n    tag_255:\n        /* \"#utility.yul\":27447:27448   */\n      0x00\n        /* \"#utility.yul\":27464:27484   */\n      tag_611\n        /* \"#utility.yul\":27482:27483   */\n      dup3\n        /* \"#utility.yul\":27464:27484   */\n      tag_315\n      jump\t// in\n    tag_611:\n        /* \"#utility.yul\":27459:27484   */\n      swap2\n      pop\n        /* \"#utility.yul\":27498:27518   */\n      tag_612\n        /* \"#utility.yul\":27516:27517   */\n      dup4\n        /* \"#utility.yul\":27498:27518   */\n      tag_315\n      jump\t// in\n    tag_612:\n        /* \"#utility.yul\":27493:27518   */\n      swap3\n      pop\n        /* \"#utility.yul\":27537:27538   */\n      dup3\n        /* \"#utility.yul\":27527:27562   */\n      tag_613\n      jumpi\n        /* \"#utility.yul\":27542:27560   */\n      tag_614\n      tag_367\n      jump\t// in\n    tag_614:\n        /* \"#utility.yul\":27527:27562   */\n    tag_613:\n        /* \"#utility.yul\":27584:27585   */\n      dup3\n        /* \"#utility.yul\":27581:27582   */\n      dup3\n        /* \"#utility.yul\":27577:27586   */\n      div\n        /* \"#utility.yul\":27572:27586   */\n      swap1\n      pop\n        /* \"#utility.yul\":27407:27592   */\n      swap3\n      swap2\n      pop\n      pop\n      jump\t// out\n        /* \"#utility.yul\":27598:27774   */\n    tag_264:\n        /* \"#utility.yul\":27630:27631   */\n      0x00\n        /* \"#utility.yul\":27647:27667   */\n      tag_616\n        /* \"#utility.yul\":27665:27666   */\n      dup3\n        /* \"#utility.yul\":27647:27667   */\n      tag_315\n      jump\t// in\n    tag_616:\n        /* \"#utility.yul\":27642:27667   */\n      swap2\n      pop\n        /* \"#utility.yul\":27681:27701   */\n      tag_617\n        /* \"#utility.yul\":27699:27700   */\n      dup4\n        /* \"#utility.yul\":27681:27701   */\n      tag_315\n      jump\t// in\n    tag_617:\n        /* \"#utility.yul\":27676:27701   */\n      swap3\n      pop\n        /* \"#utility.yul\":27720:27721   */\n      dup3\n        /* \"#utility.yul\":27710:27745   */\n      tag_618\n      jumpi\n        /* \"#utility.yul\":27725:27743   */\n      tag_619\n      tag_367\n      jump\t// in\n    tag_619:\n        /* \"#utility.yul\":27710:27745   */\n    tag_618:\n        /* \"#utility.yul\":27766:27767   */\n      dup3\n        /* \"#utility.yul\":27763:27764   */\n      dup3\n        /* \"#utility.yul\":27759:27768   */\n      mod\n        /* \"#utility.yul\":27754:27768   */\n      swap1\n      pop\n        /* \"#utility.yul\":27598:27774   */\n      swap3\n      swap2\n      pop\n      pop\n      jump\t// out\n        /* \"#utility.yul\":27780:27960   */\n    tag_268:\n        /* \"#utility.yul\":27828:27905   */\n      0x4e487b7100000000000000000000000000000000000000000000000000000000\n        /* \"#utility.yul\":27825:27826   */\n      0x00\n        /* \"#utility.yul\":27818:27906   */\n      mstore\n        /* \"#utility.yul\":27925:27929   */\n      0x32\n        /* \"#utility.yul\":27922:27923   */\n      0x04\n        /* \"#utility.yul\":27915:27930   */\n      mstore\n        /* \"#utility.yul\":27949:27953   */\n      0x24\n        /* \"#utility.yul\":27946:27947   */\n      0x00\n        /* \"#utility.yul\":27939:27954   */\n      revert\n        /* \"#utility.yul\":27966:28148   */\n    tag_368:\n        /* \"#utility.yul\":28106:28140   */\n      0x4552433732313a207472616e73666572206e6f74206f776e657220746f6b656e\n        /* \"#utility.yul\":28102:28103   */\n      0x00\n        /* \"#utility.yul\":28094:28100   */\n      dup3\n        /* \"#utility.yul\":28090:28104   */\n      add\n        /* \"#utility.yul\":28083:28141   */\n      mstore\n        /* \"#utility.yul\":27966:28148   */\n      pop\n      jump\t// out\n        /* \"#utility.yul\":28154:28520   */\n    tag_369:\n        /* \"#utility.yul\":28296:28299   */\n      0x00\n        /* \"#utility.yul\":28317:28384   */\n      tag_623\n        /* \"#utility.yul\":28381:28383   */\n      0x20\n        /* \"#utility.yul\":28376:28379   */\n      dup4\n        /* \"#utility.yul\":28317:28384   */\n      tag_308\n      jump\t// in\n    tag_623:\n        /* \"#utility.yul\":28310:28384   */\n      swap2\n      pop\n        /* \"#utility.yul\":28393:28486   */\n      tag_624\n        /* \"#utility.yul\":28482:28485   */\n      dup3\n        /* \"#utility.yul\":28393:28486   */\n      tag_368\n      jump\t// in\n    tag_624:\n        /* \"#utility.yul\":28511:28513   */\n      0x20\n        /* \"#utility.yul\":28506:28509   */\n      dup3\n        /* \"#utility.yul\":28502:28514   */\n      add\n        /* \"#utility.yul\":28495:28514   */\n      swap1\n      pop\n        /* \"#utility.yul\":28154:28520   */\n      swap2\n      swap1\n      pop\n      jump\t// out\n        /* \"#utility.yul\":28526:28945   */\n    tag_273:\n        /* \"#utility.yul\":28692:28696   */\n      0x00\n        /* \"#utility.yul\":28730:28732   */\n      0x20\n        /* \"#utility.yul\":28719:28728   */\n      dup3\n        /* \"#utility.yul\":28715:28733   */\n      add\n        /* \"#utility.yul\":28707:28733   */\n      swap1\n      pop\n        /* \"#utility.yul\":28779:28788   */\n      dup2\n        /* \"#utility.yul\":28773:28777   */\n      dup2\n        /* \"#utility.yul\":28769:28789   */\n      sub\n        /* \"#utility.yul\":28765:28766   */\n      0x00\n        /* \"#utility.yul\":28754:28763   */\n      dup4\n        /* \"#utility.yul\":28750:28767   */\n      add\n        /* \"#utility.yul\":28743:28790   */\n      mstore\n        /* \"#utility.yul\":28807:28938   */\n      tag_626\n        /* \"#utility.yul\":28933:28937   */\n      dup2\n        /* \"#utility.yul\":28807:28938   */\n      tag_369\n      jump\t// in\n    tag_626:\n        /* \"#utility.yul\":28799:28938   */\n      swap1\n      pop\n        /* \"#utility.yul\":28526:28945   */\n      swap2\n      swap1\n      pop\n      jump\t// out\n        /* \"#utility.yul\":28951:29049   */\n    tag_370:\n        /* \"#utility.yul\":29002:29008   */\n      0x00\n        /* \"#utility.yul\":29036:29041   */\n      dup2\n        /* \"#utility.yul\":29030:29042   */\n      mload\n        /* \"#utility.yul\":29020:29042   */\n      swap1\n      pop\n        /* \"#utility.yul\":28951:29049   */\n      swap2\n      swap1\n      pop\n      jump\t// out\n        /* \"#utility.yul\":29055:29223   */\n    tag_371:\n        /* \"#utility.yul\":29138:29149   */\n      0x00\n        /* \"#utility.yul\":29172:29178   */\n      dup3\n        /* \"#utility.yul\":29167:29170   */\n      dup3\n        /* \"#utility.yul\":29160:29179   */\n      mstore\n        /* \"#utility.yul\":29212:29216   */\n      0x20\n        /* \"#utility.yul\":29207:29210   */\n      dup3\n        /* \"#utility.yul\":29203:29217   */\n      add\n        /* \"#utility.yul\":29188:29217   */\n      swap1\n      pop\n        /* \"#utility.yul\":29055:29223   */\n      swap3\n      swap2\n      pop\n      pop\n      jump\t// out\n        /* \"#utility.yul\":29229:29589   */\n    tag_372:\n        /* \"#utility.yul\":29315:29318   */\n      0x00\n        /* \"#utility.yul\":29343:29381   */\n      tag_630\n        /* \"#utility.yul\":29375:29380   */\n      dup3\n        /* \"#utility.yul\":29343:29381   */\n      tag_370\n      jump\t// in\n    tag_630:\n        /* \"#utility.yul\":29397:29467   */\n      tag_631\n        /* \"#utility.yul\":29460:29466   */\n      dup2\n        /* \"#utility.yul\":29455:29458   */\n      dup6\n        /* \"#utility.yul\":29397:29467   */\n      tag_371\n      jump\t// in\n    tag_631:\n        /* \"#utility.yul\":29390:29467   */\n      swap4\n      pop\n        /* \"#utility.yul\":29476:29528   */\n      tag_632\n        /* \"#utility.yul\":29521:29527   */\n      dup2\n        /* \"#utility.yul\":29516:29519   */\n      dup6\n        /* \"#utility.yul\":29509:29513   */\n      0x20\n        /* \"#utility.yul\":29502:29507   */\n      dup7\n        /* \"#utility.yul\":29498:29514   */\n      add\n        /* \"#utility.yul\":29476:29528   */\n      tag_309\n      jump\t// in\n    tag_632:\n        /* \"#utility.yul\":29553:29582   */\n      tag_633\n        /* \"#utility.yul\":29575:29581   */\n      dup2\n        /* \"#utility.yul\":29553:29582   */\n      tag_310\n      jump\t// in\n    tag_633:\n        /* \"#utility.yul\":29548:29551   */\n      dup5\n        /* \"#utility.yul\":29544:29583   */\n      add\n        /* \"#utility.yul\":29537:29583   */\n      swap2\n      pop\n        /* \"#utility.yul\":29319:29589   */\n      pop\n        /* \"#utility.yul\":29229:29589   */\n      swap3\n      swap2\n      pop\n      pop\n      jump\t// out\n        /* \"#utility.yul\":29595:30235   */\n    tag_281:\n        /* \"#utility.yul\":29790:29794   */\n      0x00\n        /* \"#utility.yul\":29828:29831   */\n      0x80\n        /* \"#utility.yul\":29817:29826   */\n      dup3\n        /* \"#utility.yul\":29813:29832   */\n      add\n        /* \"#utility.yul\":29805:29832   */\n      swap1\n      pop\n        /* \"#utility.yul\":29842:29913   */\n      tag_635\n        /* \"#utility.yul\":29910:29911   */\n      0x00\n        /* \"#utility.yul\":29899:29908   */\n      dup4\n        /* \"#utility.yul\":29895:29912   */\n      add\n        /* \"#utility.yul\":29886:29892   */\n      dup8\n        /* \"#utility.yul\":29842:29913   */\n      tag_320\n      jump\t// in\n    tag_635:\n        /* \"#utility.yul\":29923:29995   */\n      tag_636\n        /* \"#utility.yul\":29991:29993   */\n      0x20\n        /* \"#utility.yul\":29980:29989   */\n      dup4\n        /* \"#utility.yul\":29976:29994   */\n      add\n        /* \"#utility.yul\":29967:29973   */\n      dup7\n        /* \"#utility.yul\":29923:29995   */\n      tag_320\n      jump\t// in\n    tag_636:\n        /* \"#utility.yul\":30005:30077   */\n      tag_637\n        /* \"#utility.yul\":30073:30075   */\n      0x40\n        /* \"#utility.yul\":30062:30071   */\n      dup4\n        /* \"#utility.yul\":30058:30076   */\n      add\n        /* \"#utility.yul\":30049:30055   */\n      dup6\n        /* \"#utility.yul\":30005:30077   */\n      tag_331\n      jump\t// in\n    tag_637:\n        /* \"#utility.yul\":30124:30133   */\n      dup2\n        /* \"#utility.yul\":30118:30122   */\n      dup2\n        /* \"#utility.yul\":30114:30134   */\n      sub\n        /* \"#utility.yul\":30109:30111   */\n      0x60\n        /* \"#utility.yul\":30098:30107   */\n      dup4\n        /* \"#utility.yul\":30094:30112   */\n      add\n        /* \"#utility.yul\":30087:30135   */\n      mstore\n        /* \"#utility.yul\":30152:30228   */\n      tag_638\n        /* \"#utility.yul\":30223:30227   */\n      dup2\n        /* \"#utility.yul\":30214:30220   */\n      dup5\n        /* \"#utility.yul\":30152:30228   */\n      tag_372\n      jump\t// in\n    tag_638:\n        /* \"#utility.yul\":30144:30228   */\n      swap1\n      pop\n        /* \"#utility.yul\":29595:30235   */\n      swap6\n      swap5\n      pop\n      pop\n      pop\n      pop\n      pop\n      jump\t// out\n        /* \"#utility.yul\":30241:30390   */\n    tag_373:\n        /* \"#utility.yul\":30277:30284   */\n      0x00\n        /* \"#utility.yul\":30317:30383   */\n      0xffffffff00000000000000000000000000000000000000000000000000000000\n        /* \"#utility.yul\":30310:30315   */\n      dup3\n        /* \"#utility.yul\":30306:30384   */\n      and\n        /* \"#utility.yul\":30295:30384   */\n      swap1\n      pop\n        /* \"#utility.yul\":30241:30390   */\n      swap2\n      swap1\n      pop\n      jump\t// out\n        /* \"#utility.yul\":30396:30516   */\n    tag_374:\n        /* \"#utility.yul\":30468:30491   */\n      tag_641\n        /* \"#utility.yul\":30485:30490   */\n      dup2\n        /* \"#utility.yul\":30468:30491   */\n      tag_373\n      jump\t// in\n    tag_641:\n        /* \"#utility.yul\":30461:30466   */\n      dup2\n        /* \"#utility.yul\":30458:30492   */\n      eq\n        /* \"#utility.yul\":30448:30510   */\n      tag_642\n      jumpi\n        /* \"#utility.yul\":30506:30507   */\n      0x00\n        /* \"#utility.yul\":30503:30504   */\n      dup1\n        /* \"#utility.yul\":30496:30508   */\n      revert\n        /* \"#utility.yul\":30448:30510   */\n    tag_642:\n        /* \"#utility.yul\":30396:30516   */\n      pop\n      jump\t// out\n        /* \"#utility.yul\":30522:30663   */\n    tag_375:\n        /* \"#utility.yul\":30578:30583   */\n      0x00\n        /* \"#utility.yul\":30609:30615   */\n      dup2\n        /* \"#utility.yul\":30603:30616   */\n      mload\n        /* \"#utility.yul\":30594:30616   */\n      swap1\n      pop\n        /* \"#utility.yul\":30625:30657   */\n      tag_644\n        /* \"#utility.yul\":30651:30656   */\n      dup2\n        /* \"#utility.yul\":30625:30657   */\n      tag_374\n      jump\t// in\n    tag_644:\n        /* \"#utility.yul\":30522:30663   */\n      swap3\n      swap2\n      pop\n      pop\n      jump\t// out\n        /* \"#utility.yul\":30669:31018   */\n    tag_284:\n        /* \"#utility.yul\":30738:30744   */\n      0x00\n        /* \"#utility.yul\":30787:30789   */\n      0x20\n        /* \"#utility.yul\":30775:30784   */\n      dup3\n        /* \"#utility.yul\":30766:30773   */\n      dup5\n        /* \"#utility.yul\":30762:30785   */\n      sub\n        /* \"#utility.yul\":30758:30790   */\n      slt\n        /* \"#utility.yul\":30755:30874   */\n      iszero\n      tag_646\n      jumpi\n        /* \"#utility.yul\":30793:30872   */\n      tag_647\n      tag_313\n      jump\t// in\n    tag_647:\n        /* \"#utility.yul\":30755:30874   */\n    tag_646:\n        /* \"#utility.yul\":30913:30914   */\n      0x00\n        /* \"#utility.yul\":30938:31001   */\n      tag_648\n        /* \"#utility.yul\":30993:31000   */\n      dup5\n        /* \"#utility.yul\":30984:30990   */\n      dup3\n        /* \"#utility.yul\":30973:30982   */\n      dup6\n        /* \"#utility.yul\":30969:30991   */\n      add\n        /* \"#utility.yul\":30938:31001   */\n      tag_375\n      jump\t// in\n    tag_648:\n        /* \"#utility.yul\":30928:31001   */\n      swap2\n      pop\n        /* \"#utility.yul\":30884:31011   */\n      pop\n        /* \"#utility.yul\":30669:31018   */\n      swap3\n      swap2\n      pop\n      pop\n      jump\t// out\n\n    auxdata: 0xa2646970667358221220091f982587de7913aa620a3f61557e95ce05b14366d014f0097367d48d9aa7fc64736f6c634300080d0033\n}\n",
				"bytecode": {
					"linkReferences": {},
					"object": "60806040526001600a553480156200001657600080fd5b506040518060400160405280600781526020017f5351464954454d000000000000000000000000000000000000000000000000008152506040518060400160405280600481526020017f5351464900000000000000000000000000000000000000000000000000000000815250620000a362000097620000dd60201b60201c565b620000e560201b60201c565b8160069080519060200190620000bb929190620001a9565b508060079080519060200190620000d4929190620001a9565b505050620002bd565b600033905090565b60008060009054906101000a900473ffffffffffffffffffffffffffffffffffffffff169050816000806101000a81548173ffffffffffffffffffffffffffffffffffffffff021916908373ffffffffffffffffffffffffffffffffffffffff1602179055508173ffffffffffffffffffffffffffffffffffffffff168173ffffffffffffffffffffffffffffffffffffffff167f8be0079c531659141344cd1fd0a4f28419497f9722a3daafe3b4186f6b6457e060405160405180910390a35050565b828054620001b79062000288565b90600052602060002090601f016020900481019282620001db576000855562000227565b82601f10620001f657805160ff191683800117855562000227565b8280016001018555821562000227579182015b828111156200022657825182559160200191906001019062000209565b5b5090506200023691906200023a565b5090565b5b80821115620002555760008160009055506001016200023b565b5090565b7f4e487b7100000000000000000000000000000000000000000000000000000000600052602260045260246000fd5b60006002820490506001821680620002a157607f821691505b602082108103620002b757620002b662000259565b5b50919050565b61290280620002cd6000396000f3fe608060405234801561001057600080fd5b50600436106101005760003560e01c806370a082311161009757806395d89b411161006657806395d89b4114610285578063b88d4fde146102a3578063c87b56dd146102bf578063f2fde38b146102ef57610100565b806370a0823114610211578063715018a61461024157806389f057611461024b5780638da5cb5b1461026757610100565b806342842e0e116100d357806342842e0e1461018b57806355f804b3146101a757806361b8ce8c146101c35780636352211e146101e157610100565b806306fdde0314610105578063081812fc14610123578063095ea7b31461015357806323b872dd1461016f575b600080fd5b61010d61030b565b60405161011a91906117da565b60405180910390f35b61013d60048036038101906101389190611846565b61039d565b60405161014a91906118b4565b60405180910390f35b61016d600480360381019061016891906118fb565b610422565b005b6101896004803603810190610184919061193b565b610521565b005b6101a560048036038101906101a0919061193b565b610581565b005b6101c160048036038101906101bc9190611ac3565b6105a1565b005b6101cb610637565b6040516101d89190611b1b565b60405180910390f35b6101fb60048036038101906101f69190611846565b61063d565b60405161020891906118b4565b60405180910390f35b61022b60048036038101906102269190611b36565b6106ee565b6040516102389190611b1b565b60405180910390f35b6102496107a5565b005b61026560048036038101906102609190611b63565b61082d565b005b61026f6108dc565b60405161027c91906118b4565b60405180910390f35b61028d610905565b60405161029a91906117da565b60405180910390f35b6102bd60048036038101906102b89190611c60565b610997565b005b6102d960048036038101906102d49190611846565b6109f9565b6040516102e691906117da565b60405180910390f35b61030960048036038101906103049190611b36565b610b6b565b005b60606006805461031a90611d12565b80601f016020809104026020016040519081016040528092919081815260200182805461034690611d12565b80156103935780601f1061036857610100808354040283529160200191610393565b820191906000526020600020905b81548152906001019060200180831161037657829003601f168201915b5050505050905090565b60006103a882610c62565b6103e7576040517f08c379a00000000000000000000000000000000000000000000000000000000081526004016103de90611db5565b60405180910390fd5b6004600083815260200190815260200160002060009054906101000a900473ffffffffffffffffffffffffffffffffffffffff169050919050565b600061042d8261063d565b90508073ffffffffffffffffffffffffffffffffffffffff168373ffffffffffffffffffffffffffffffffffffffff160361049d576040517f08c379a000000000000000000000000000000000000000000000000000000000815260040161049490611e47565b60405180910390fd5b8073ffffffffffffffffffffffffffffffffffffffff166104bc610cce565b73ffffffffffffffffffffffffffffffffffffffff1614610512576040517f08c379a000000000000000000000000000000000000000000000000000000000815260040161050990611ed9565b60405180910390fd5b61051c8383610cd6565b505050565b61053261052c610cce565b82610d8f565b610571576040517f08c379a000000000000000000000000000000000000000000000000000000000815260040161056890611f6b565b60405180910390fd5b61057c838383610e5c565b505050565b61059c83838360405180602001604052806000815250610997565b505050565b6105a9610cce565b73ffffffffffffffffffffffffffffffffffffffff166105c76108dc565b73ffffffffffffffffffffffffffffffffffffffff161461061d576040517f08c379a000000000000000000000000000000000000000000000000000000000815260040161061490611fd7565b60405180910390fd5b806009908051906020019061063392919061169e565b5050565b600a5481565b6000806002600084815260200190815260200160002060009054906101000a900473ffffffffffffffffffffffffffffffffffffffff169050600073ffffffffffffffffffffffffffffffffffffffff168173ffffffffffffffffffffffffffffffffffffffff16036106e5576040517f08c379a00000000000000000000000000000000000000000000000000000000081526004016106dc90612069565b60405180910390fd5b80915050919050565b60008073ffffffffffffffffffffffffffffffffffffffff168273ffffffffffffffffffffffffffffffffffffffff160361075e576040517f08c379a0000000000000000000000000000000000000000000000000000000008152600401610755906120fb565b60405180910390fd5b600160008373ffffffffffffffffffffffffffffffffffffffff1673ffffffffffffffffffffffffffffffffffffffff168152602001908152602001600020549050919050565b6107ad610cce565b73ffffffffffffffffffffffffffffffffffffffff166107cb6108dc565b73ffffffffffffffffffffffffffffffffffffffff1614610821576040517f08c379a000000000000000000000000000000000000000000000000000000000815260040161081890611fd7565b60405180910390fd5b61082b60006110c0565b565b610835610cce565b73ffffffffffffffffffffffffffffffffffffffff166108536108dc565b73ffffffffffffffffffffffffffffffffffffffff16146108a9576040517f08c379a00000000000000000000000000000000000000000000000000000000081526004016108a090611fd7565b60405180910390fd5b6108b4600a54611184565b6108c0600a5482611187565b600a60008154809291906108d39061214a565b91905055505050565b60008060009054906101000a900473ffffffffffffffffffffffffffffffffffffffff16905090565b60606007805461091490611d12565b80601f016020809104026020016040519081016040528092919081815260200182805461094090611d12565b801561098d5780601f106109625761010080835404028352916020019161098d565b820191906000526020600020905b81548152906001019060200180831161097057829003601f168201915b5050505050905090565b6109a86109a2610cce565b83610d8f565b6109e7576040517f08c379a00000000000000000000000000000000000000000000000000000000081526004016109de90611f6b565b60405180910390fd5b6109f3848484846111fb565b50505050565b6060610a0482610c62565b610a43576040517f08c379a0000000000000000000000000000000000000000000000000000000008152600401610a3a90612204565b60405180910390fd5b6000600c60008481526020019081526020016000208054610a6390611d12565b80601f0160208091040260200160405190810160405280929190818152602001828054610a8f90611d12565b8015610adc5780601f10610ab157610100808354040283529160200191610adc565b820191906000526020600020905b815481529060010190602001808311610abf57829003601f168201915b505050505090506000610aed611257565b90506000815103610b02578192505050610b66565b600082511115610b37578082604051602001610b1f929190612260565b60405160208183030381529060405292505050610b66565b80610b41856112e9565b604051602001610b52929190612260565b604051602081830303815290604052925050505b919050565b610b73610cce565b73ffffffffffffffffffffffffffffffffffffffff16610b916108dc565b73ffffffffffffffffffffffffffffffffffffffff1614610be7576040517f08c379a0000000000000000000000000000000000000000000000000000000008152600401610bde90611fd7565b60405180910390fd5b600073ffffffffffffffffffffffffffffffffffffffff168173ffffffffffffffffffffffffffffffffffffffff1603610c56576040517f08c379a0000000000000000000000000000000000000000000000000000000008152600401610c4d906122f6565b60405180910390fd5b610c5f816110c0565b50565b60008073ffffffffffffffffffffffffffffffffffffffff166002600084815260200190815260200160002060009054906101000a900473ffffffffffffffffffffffffffffffffffffffff1673ffffffffffffffffffffffffffffffffffffffff1614159050919050565b600033905090565b816004600083815260200190815260200160002060006101000a81548173ffffffffffffffffffffffffffffffffffffffff021916908373ffffffffffffffffffffffffffffffffffffffff160217905550808273ffffffffffffffffffffffffffffffffffffffff16610d498361063d565b73ffffffffffffffffffffffffffffffffffffffff167f8c5be1e5ebec7d5bd14f71427d1e84f3dd0314c0f7b2291e5b200ac8c7c3b92560405160405180910390a45050565b6000610d9a82610c62565b610dd9576040517f08c379a0000000000000000000000000000000000000000000000000000000008152600401610dd090612388565b60405180910390fd5b6000610de48361063d565b90508073ffffffffffffffffffffffffffffffffffffffff168473ffffffffffffffffffffffffffffffffffffffff161480610e5357508373ffffffffffffffffffffffffffffffffffffffff16610e3b8461039d565b73ffffffffffffffffffffffffffffffffffffffff16145b91505092915050565b8273ffffffffffffffffffffffffffffffffffffffff16610e7c8261063d565b73ffffffffffffffffffffffffffffffffffffffff1614610ed2576040517f08c379a0000000000000000000000000000000000000000000000000000000008152600401610ec99061241a565b60405180910390fd5b600073ffffffffffffffffffffffffffffffffffffffff168273ffffffffffffffffffffffffffffffffffffffff1603610f41576040517f08c379a0000000000000000000000000000000000000000000000000000000008152600401610f38906124ac565b60405180910390fd5b610f4c838383611449565b610f57600082610cd6565b60018060008573ffffffffffffffffffffffffffffffffffffffff1673ffffffffffffffffffffffffffffffffffffffff1681526020019081526020016000206000828254610fa691906124cc565b9250508190555060018060008473ffffffffffffffffffffffffffffffffffffffff1673ffffffffffffffffffffffffffffffffffffffff1681526020019081526020016000206000828254610ffc9190612500565b92505081905550816002600083815260200190815260200160002060006101000a81548173ffffffffffffffffffffffffffffffffffffffff021916908373ffffffffffffffffffffffffffffffffffffffff160217905550808273ffffffffffffffffffffffffffffffffffffffff168473ffffffffffffffffffffffffffffffffffffffff167fddf252ad1be2c89b69c2b068fc378daa952ba7f163c4a11628f55a4df523b3ef60405160405180910390a46110bb8383836114ef565b505050565b60008060009054906101000a900473ffffffffffffffffffffffffffffffffffffffff169050816000806101000a81548173ffffffffffffffffffffffffffffffffffffffff021916908373ffffffffffffffffffffffffffffffffffffffff1602179055508173ffffffffffffffffffffffffffffffffffffffff168173ffffffffffffffffffffffffffffffffffffffff167f8be0079c531659141344cd1fd0a4f28419497f9722a3daafe3b4186f6b6457e060405160405180910390a35050565b50565b61119082610c62565b6111cf576040517f08c379a00000000000000000000000000000000000000000000000000000000081526004016111c6906125c8565b60405180910390fd5b80600c600084815260200190815260200160002090805190602001906111f692919061169e565b505050565b611206848484610e5c565b611212848484846114f4565b611251576040517f08c379a00000000000000000000000000000000000000000000000000000000081526004016112489061265a565b60405180910390fd5b50505050565b60606009805461126690611d12565b80601f016020809104026020016040519081016040528092919081815260200182805461129290611d12565b80156112df5780601f106112b4576101008083540402835291602001916112df565b820191906000526020600020905b8154815290600101906020018083116112c257829003601f168201915b5050505050905090565b606060008203611330576040518060400160405280600181526020017f30000000000000000000000000000000000000000000000000000000000000008152509050611444565b600082905060005b6000821461136257808061134b9061214a565b915050600a8261135b91906126a9565b9150611338565b60008167ffffffffffffffff81111561137e5761137d611998565b5b6040519080825280601f01601f1916602001820160405280156113b05781602001600182028036833780820191505090505b5090505b6000851461143d576001826113c991906124cc565b9150600a856113d891906126da565b60306113e49190612500565b60f81b8183815181106113fa576113f961270b565b5b60200101907effffffffffffffffffffffffffffffffffffffffffffffffffffffffffffff1916908160001a905350600a8561143691906126a9565b94506113b4565b8093505050505b919050565b8273ffffffffffffffffffffffffffffffffffffffff166002600083815260200190815260200160002060009054906101000a900473ffffffffffffffffffffffffffffffffffffffff1673ffffffffffffffffffffffffffffffffffffffff16146114ea576040517f08c379a00000000000000000000000000000000000000000000000000000000081526004016114e190612786565b60405180910390fd5b505050565b505050565b60006115158473ffffffffffffffffffffffffffffffffffffffff1661167b565b1561166e578373ffffffffffffffffffffffffffffffffffffffff1663150b7a0261153e610cce565b8786866040518563ffffffff1660e01b815260040161156094939291906127fb565b6020604051808303816000875af192505050801561159c57506040513d601f19601f82011682018060405250810190611599919061289f565b60015b61161e573d80600081146115cc576040519150601f19603f3d011682016040523d82523d6000602084013e6115d1565b606091505b506000815103611616576040517f08c379a000000000000000000000000000000000000000000000000000000000815260040161160d9061265a565b60405180910390fd5b805181602001fd5b63150b7a0260e01b7bffffffffffffffffffffffffffffffffffffffffffffffffffffffff1916817bffffffffffffffffffffffffffffffffffffffffffffffffffffffff191614915050611673565b600190505b949350505050565b6000808273ffffffffffffffffffffffffffffffffffffffff163b119050919050565b8280546116aa90611d12565b90600052602060002090601f0160209004810192826116cc5760008555611713565b82601f106116e557805160ff1916838001178555611713565b82800160010185558215611713579182015b828111156117125782518255916020019190600101906116f7565b5b5090506117209190611724565b5090565b5b8082111561173d576000816000905550600101611725565b5090565b600081519050919050565b600082825260208201905092915050565b60005b8381101561177b578082015181840152602081019050611760565b8381111561178a576000848401525b50505050565b6000601f19601f8301169050919050565b60006117ac82611741565b6117b6818561174c565b93506117c681856020860161175d565b6117cf81611790565b840191505092915050565b600060208201905081810360008301526117f481846117a1565b905092915050565b6000604051905090565b600080fd5b600080fd5b6000819050919050565b61182381611810565b811461182e57600080fd5b50565b6000813590506118408161181a565b92915050565b60006020828403121561185c5761185b611806565b5b600061186a84828501611831565b91505092915050565b600073ffffffffffffffffffffffffffffffffffffffff82169050919050565b600061189e82611873565b9050919050565b6118ae81611893565b82525050565b60006020820190506118c960008301846118a5565b92915050565b6118d881611893565b81146118e357600080fd5b50565b6000813590506118f5816118cf565b92915050565b6000806040838503121561191257611911611806565b5b6000611920858286016118e6565b925050602061193185828601611831565b9150509250929050565b60008060006060848603121561195457611953611806565b5b6000611962868287016118e6565b9350506020611973868287016118e6565b925050604061198486828701611831565b9150509250925092565b600080fd5b600080fd5b7f4e487b7100000000000000000000000000000000000000000000000000000000600052604160045260246000fd5b6119d082611790565b810181811067ffffffffffffffff821117156119ef576119ee611998565b5b80604052505050565b6000611a026117fc565b9050611a0e82826119c7565b919050565b600067ffffffffffffffff821115611a2e57611a2d611998565b5b611a3782611790565b9050602081019050919050565b82818337600083830152505050565b6000611a66611a6184611a13565b6119f8565b905082815260208101848484011115611a8257611a81611993565b5b611a8d848285611a44565b509392505050565b600082601f830112611aaa57611aa961198e565b5b8135611aba848260208601611a53565b91505092915050565b600060208284031215611ad957611ad8611806565b5b600082013567ffffffffffffffff811115611af757611af661180b565b5b611b0384828501611a95565b91505092915050565b611b1581611810565b82525050565b6000602082019050611b306000830184611b0c565b92915050565b600060208284031215611b4c57611b4b611806565b5b6000611b5a848285016118e6565b91505092915050565b60008060408385031215611b7a57611b79611806565b5b6000611b88858286016118e6565b925050602083013567ffffffffffffffff811115611ba957611ba861180b565b5b611bb585828601611a95565b9150509250929050565b600067ffffffffffffffff821115611bda57611bd9611998565b5b611be382611790565b9050602081019050919050565b6000611c03611bfe84611bbf565b6119f8565b905082815260208101848484011115611c1f57611c1e611993565b5b611c2a848285611a44565b509392505050565b600082601f830112611c4757611c4661198e565b5b8135611c57848260208601611bf0565b91505092915050565b60008060008060808587031215611c7a57611c79611806565b5b6000611c88878288016118e6565b9450506020611c99878288016118e6565b9350506040611caa87828801611831565b925050606085013567ffffffffffffffff811115611ccb57611cca61180b565b5b611cd787828801611c32565b91505092959194509250565b7f4e487b7100000000000000000000000000000000000000000000000000000000600052602260045260246000fd5b60006002820490506001821680611d2a57607f821691505b602082108103611d3d57611d3c611ce3565b5b50919050565b7f4552433732313a20617070726f76656420717565727920666f72206e6f6e657860008201527f697374656e7420746f6b656e0000000000000000000000000000000000000000602082015250565b6000611d9f602c8361174c565b9150611daa82611d43565b604082019050919050565b60006020820190508181036000830152611dce81611d92565b9050919050565b7f4552433732313a20617070726f76616c20746f2063757272656e74206f776e6560008201527f7200000000000000000000000000000000000000000000000000000000000000602082015250565b6000611e3160218361174c565b9150611e3c82611dd5565b604082019050919050565b60006020820190508181036000830152611e6081611e24565b9050919050565b7f4552433732313a20617070726f76652063616c6c6572206973206e6f74206f7760008201527f6e6572206e6f7220617070726f76656420666f7220616c6c0000000000000000602082015250565b6000611ec360388361174c565b9150611ece82611e67565b604082019050919050565b60006020820190508181036000830152611ef281611eb6565b9050919050565b7f4552433732313a207472616e736665722063616c6c6572206973206e6f74206f60008201527f776e6572206e6f7220617070726f766564000000000000000000000000000000602082015250565b6000611f5560318361174c565b9150611f6082611ef9565b604082019050919050565b60006020820190508181036000830152611f8481611f48565b9050919050565b7f4f776e61626c653a2063616c6c6572206973206e6f7420746865206f776e6572600082015250565b6000611fc160208361174c565b9150611fcc82611f8b565b602082019050919050565b60006020820190508181036000830152611ff081611fb4565b9050919050565b7f4552433732313a206f776e657220717565727920666f72206e6f6e657869737460008201527f656e7420746f6b656e0000000000000000000000000000000000000000000000602082015250565b600061205360298361174c565b915061205e82611ff7565b604082019050919050565b6000602082019050818103600083015261208281612046565b9050919050565b7f4552433732313a2062616c616e636520717565727920666f7220746865207a6560008201527f726f206164647265737300000000000000000000000000000000000000000000602082015250565b60006120e5602a8361174c565b91506120f082612089565b604082019050919050565b60006020820190508181036000830152612114816120d8565b9050919050565b7f4e487b7100000000000000000000000000000000000000000000000000000000600052601160045260246000fd5b600061215582611810565b91507fffffffffffffffffffffffffffffffffffffffffffffffffffffffffffffffff82036121875761218661211b565b5b600182019050919050565b7f4552433732314d657461646174613a2055524920717565727920666f72206e6f60008201527f6e6578697374656e7420746f6b656e0000000000000000000000000000000000602082015250565b60006121ee602f8361174c565b91506121f982612192565b604082019050919050565b6000602082019050818103600083015261221d816121e1565b9050919050565b600081905092915050565b600061223a82611741565b6122448185612224565b935061225481856020860161175d565b80840191505092915050565b600061226c828561222f565b9150612278828461222f565b91508190509392505050565b7f4f776e61626c653a206e6577206f776e657220697320746865207a65726f206160008201527f6464726573730000000000000000000000000000000000000000000000000000602082015250565b60006122e060268361174c565b91506122eb82612284565b604082019050919050565b6000602082019050818103600083015261230f816122d3565b9050919050565b7f4552433732313a206f70657261746f7220717565727920666f72206e6f6e657860008201527f697374656e7420746f6b656e0000000000000000000000000000000000000000602082015250565b6000612372602c8361174c565b915061237d82612316565b604082019050919050565b600060208201905081810360008301526123a181612365565b9050919050565b7f4552433732313a207472616e736665722066726f6d20696e636f72726563742060008201527f6f776e6572000000000000000000000000000000000000000000000000000000602082015250565b600061240460258361174c565b915061240f826123a8565b604082019050919050565b60006020820190508181036000830152612433816123f7565b9050919050565b7f4552433732313a207472616e7366657220746f20746865207a65726f2061646460008201527f7265737300000000000000000000000000000000000000000000000000000000602082015250565b600061249660248361174c565b91506124a18261243a565b604082019050919050565b600060208201905081810360008301526124c581612489565b9050919050565b60006124d782611810565b91506124e283611810565b9250828210156124f5576124f461211b565b5b828203905092915050565b600061250b82611810565b915061251683611810565b9250827fffffffffffffffffffffffffffffffffffffffffffffffffffffffffffffffff0382111561254b5761254a61211b565b5b828201905092915050565b7f4552433732314d657461646174613a2055524920736574206f66206e6f6e657860008201527f697374656e7420746f6b656e0000000000000000000000000000000000000000602082015250565b60006125b2602c8361174c565b91506125bd82612556565b604082019050919050565b600060208201905081810360008301526125e1816125a5565b9050919050565b7f4552433732313a207472616e7366657220746f206e6f6e20455243373231526560008201527f63656976657220696d706c656d656e7465720000000000000000000000000000602082015250565b600061264460328361174c565b915061264f826125e8565b604082019050919050565b6000602082019050818103600083015261267381612637565b9050919050565b7f4e487b7100000000000000000000000000000000000000000000000000000000600052601260045260246000fd5b60006126b482611810565b91506126bf83611810565b9250826126cf576126ce61267a565b5b828204905092915050565b60006126e582611810565b91506126f083611810565b925082612700576126ff61267a565b5b828206905092915050565b7f4e487b7100000000000000000000000000000000000000000000000000000000600052603260045260246000fd5b7f4552433732313a207472616e73666572206e6f74206f776e657220746f6b656e600082015250565b600061277060208361174c565b915061277b8261273a565b602082019050919050565b6000602082019050818103600083015261279f81612763565b9050919050565b600081519050919050565b600082825260208201905092915050565b60006127cd826127a6565b6127d781856127b1565b93506127e781856020860161175d565b6127f081611790565b840191505092915050565b600060808201905061281060008301876118a5565b61281d60208301866118a5565b61282a6040830185611b0c565b818103606083015261283c81846127c2565b905095945050505050565b60007fffffffff0000000000000000000000000000000000000000000000000000000082169050919050565b61287c81612847565b811461288757600080fd5b50565b60008151905061289981612873565b92915050565b6000602082840312156128b5576128b4611806565b5b60006128c38482850161288a565b9150509291505056fea2646970667358221220091f982587de7913aa620a3f61557e95ce05b14366d014f0097367d48d9aa7fc64736f6c634300080d0033",
					"opcodes": "PUSH1 0x80 PUSH1 0x40 MSTORE PUSH1 0x1 PUSH1 0xA SSTORE CALLVALUE DUP1 ISZERO PUSH3 0x16 JUMPI PUSH1 0x0 DUP1 REVERT JUMPDEST POP PUSH1 0x40 MLOAD DUP1 PUSH1 0x40 ADD PUSH1 0x40 MSTORE DUP1 PUSH1 0x7 DUP2 MSTORE PUSH1 0x20 ADD PUSH32 0x5351464954454D00000000000000000000000000000000000000000000000000 DUP2 MSTORE POP PUSH1 0x40 MLOAD DUP1 PUSH1 0x40 ADD PUSH1 0x40 MSTORE DUP1 PUSH1 0x4 DUP2 MSTORE PUSH1 0x20 ADD PUSH32 0x5351464900000000000000000000000000000000000000000000000000000000 DUP2 MSTORE POP PUSH3 0xA3 PUSH3 0x97 PUSH3 0xDD PUSH1 0x20 SHL PUSH1 0x20 SHR JUMP JUMPDEST PUSH3 0xE5 PUSH1 0x20 SHL PUSH1 0x20 SHR JUMP JUMPDEST DUP2 PUSH1 0x6 SWAP1 DUP1 MLOAD SWAP1 PUSH1 0x20 ADD SWAP1 PUSH3 0xBB SWAP3 SWAP2 SWAP1 PUSH3 0x1A9 JUMP JUMPDEST POP DUP1 PUSH1 0x7 SWAP1 DUP1 MLOAD SWAP1 PUSH1 0x20 ADD SWAP1 PUSH3 0xD4 SWAP3 SWAP2 SWAP1 PUSH3 0x1A9 JUMP JUMPDEST POP POP POP PUSH3 0x2BD JUMP JUMPDEST PUSH1 0x0 CALLER SWAP1 POP SWAP1 JUMP JUMPDEST PUSH1 0x0 DUP1 PUSH1 0x0 SWAP1 SLOAD SWAP1 PUSH2 0x100 EXP SWAP1 DIV PUSH20 0xFFFFFFFFFFFFFFFFFFFFFFFFFFFFFFFFFFFFFFFF AND SWAP1 POP DUP2 PUSH1 0x0 DUP1 PUSH2 0x100 EXP DUP2 SLOAD DUP2 PUSH20 0xFFFFFFFFFFFFFFFFFFFFFFFFFFFFFFFFFFFFFFFF MUL NOT AND SWAP1 DUP4 PUSH20 0xFFFFFFFFFFFFFFFFFFFFFFFFFFFFFFFFFFFFFFFF AND MUL OR SWAP1 SSTORE POP DUP2 PUSH20 0xFFFFFFFFFFFFFFFFFFFFFFFFFFFFFFFFFFFFFFFF AND DUP2 PUSH20 0xFFFFFFFFFFFFFFFFFFFFFFFFFFFFFFFFFFFFFFFF AND PUSH32 0x8BE0079C531659141344CD1FD0A4F28419497F9722A3DAAFE3B4186F6B6457E0 PUSH1 0x40 MLOAD PUSH1 0x40 MLOAD DUP1 SWAP2 SUB SWAP1 LOG3 POP POP JUMP JUMPDEST DUP3 DUP1 SLOAD PUSH3 0x1B7 SWAP1 PUSH3 0x288 JUMP JUMPDEST SWAP1 PUSH1 0x0 MSTORE PUSH1 0x20 PUSH1 0x0 KECCAK256 SWAP1 PUSH1 0x1F ADD PUSH1 0x20 SWAP1 DIV DUP2 ADD SWAP3 DUP3 PUSH3 0x1DB JUMPI PUSH1 0x0 DUP6 SSTORE PUSH3 0x227 JUMP JUMPDEST DUP3 PUSH1 0x1F LT PUSH3 0x1F6 JUMPI DUP1 MLOAD PUSH1 0xFF NOT AND DUP4 DUP1 ADD OR DUP6 SSTORE PUSH3 0x227 JUMP JUMPDEST DUP3 DUP1 ADD PUSH1 0x1 ADD DUP6 SSTORE DUP3 ISZERO PUSH3 0x227 JUMPI SWAP2 DUP3 ADD JUMPDEST DUP3 DUP2 GT ISZERO PUSH3 0x226 JUMPI DUP3 MLOAD DUP3 SSTORE SWAP2 PUSH1 0x20 ADD SWAP2 SWAP1 PUSH1 0x1 ADD SWAP1 PUSH3 0x209 JUMP JUMPDEST JUMPDEST POP SWAP1 POP PUSH3 0x236 SWAP2 SWAP1 PUSH3 0x23A JUMP JUMPDEST POP SWAP1 JUMP JUMPDEST JUMPDEST DUP1 DUP3 GT ISZERO PUSH3 0x255 JUMPI PUSH1 0x0 DUP2 PUSH1 0x0 SWAP1 SSTORE POP PUSH1 0x1 ADD PUSH3 0x23B JUMP JUMPDEST POP SWAP1 JUMP JUMPDEST PUSH32 0x4E487B7100000000000000000000000000000000000000000000000000000000 PUSH1 0x0 MSTORE PUSH1 0x22 PUSH1 0x4 MSTORE PUSH1 0x24 PUSH1 0x0 REVERT JUMPDEST PUSH1 0x0 PUSH1 0x2 DUP3 DIV SWAP1 POP PUSH1 0x1 DUP3 AND DUP1 PUSH3 0x2A1 JUMPI PUSH1 0x7F DUP3 AND SWAP2 POP JUMPDEST PUSH1 0x20 DUP3 LT DUP2 SUB PUSH3 0x2B7 JUMPI PUSH3 0x2B6 PUSH3 0x259 JUMP JUMPDEST JUMPDEST POP SWAP2 SWAP1 POP JUMP JUMPDEST PUSH2 0x2902 DUP1 PUSH3 0x2CD PUSH1 0x0 CODECOPY PUSH1 0x0 RETURN INVALID PUSH1 0x80 PUSH1 0x40 MSTORE CALLVALUE DUP1 ISZERO PUSH2 0x10 JUMPI PUSH1 0x0 DUP1 REVERT JUMPDEST POP PUSH1 0x4 CALLDATASIZE LT PUSH2 0x100 JUMPI PUSH1 0x0 CALLDATALOAD PUSH1 0xE0 SHR DUP1 PUSH4 0x70A08231 GT PUSH2 0x97 JUMPI DUP1 PUSH4 0x95D89B41 GT PUSH2 0x66 JUMPI DUP1 PUSH4 0x95D89B41 EQ PUSH2 0x285 JUMPI DUP1 PUSH4 0xB88D4FDE EQ PUSH2 0x2A3 JUMPI DUP1 PUSH4 0xC87B56DD EQ PUSH2 0x2BF JUMPI DUP1 PUSH4 0xF2FDE38B EQ PUSH2 0x2EF JUMPI PUSH2 0x100 JUMP JUMPDEST DUP1 PUSH4 0x70A08231 EQ PUSH2 0x211 JUMPI DUP1 PUSH4 0x715018A6 EQ PUSH2 0x241 JUMPI DUP1 PUSH4 0x89F05761 EQ PUSH2 0x24B JUMPI DUP1 PUSH4 0x8DA5CB5B EQ PUSH2 0x267 JUMPI PUSH2 0x100 JUMP JUMPDEST DUP1 PUSH4 0x42842E0E GT PUSH2 0xD3 JUMPI DUP1 PUSH4 0x42842E0E EQ PUSH2 0x18B JUMPI DUP1 PUSH4 0x55F804B3 EQ PUSH2 0x1A7 JUMPI DUP1 PUSH4 0x61B8CE8C EQ PUSH2 0x1C3 JUMPI DUP1 PUSH4 0x6352211E EQ PUSH2 0x1E1 JUMPI PUSH2 0x100 JUMP JUMPDEST DUP1 PUSH4 0x6FDDE03 EQ PUSH2 0x105 JUMPI DUP1 PUSH4 0x81812FC EQ PUSH2 0x123 JUMPI DUP1 PUSH4 0x95EA7B3 EQ PUSH2 0x153 JUMPI DUP1 PUSH4 0x23B872DD EQ PUSH2 0x16F JUMPI JUMPDEST PUSH1 0x0 DUP1 REVERT JUMPDEST PUSH2 0x10D PUSH2 0x30B JUMP JUMPDEST PUSH1 0x40 MLOAD PUSH2 0x11A SWAP2 SWAP1 PUSH2 0x17DA JUMP JUMPDEST PUSH1 0x40 MLOAD DUP1 SWAP2 SUB SWAP1 RETURN JUMPDEST PUSH2 0x13D PUSH1 0x4 DUP1 CALLDATASIZE SUB DUP2 ADD SWAP1 PUSH2 0x138 SWAP2 SWAP1 PUSH2 0x1846 JUMP JUMPDEST PUSH2 0x39D JUMP JUMPDEST PUSH1 0x40 MLOAD PUSH2 0x14A SWAP2 SWAP1 PUSH2 0x18B4 JUMP JUMPDEST PUSH1 0x40 MLOAD DUP1 SWAP2 SUB SWAP1 RETURN JUMPDEST PUSH2 0x16D PUSH1 0x4 DUP1 CALLDATASIZE SUB DUP2 ADD SWAP1 PUSH2 0x168 SWAP2 SWAP1 PUSH2 0x18FB JUMP JUMPDEST PUSH2 0x422 JUMP JUMPDEST STOP JUMPDEST PUSH2 0x189 PUSH1 0x4 DUP1 CALLDATASIZE SUB DUP2 ADD SWAP1 PUSH2 0x184 SWAP2 SWAP1 PUSH2 0x193B JUMP JUMPDEST PUSH2 0x521 JUMP JUMPDEST STOP JUMPDEST PUSH2 0x1A5 PUSH1 0x4 DUP1 CALLDATASIZE SUB DUP2 ADD SWAP1 PUSH2 0x1A0 SWAP2 SWAP1 PUSH2 0x193B JUMP JUMPDEST PUSH2 0x581 JUMP JUMPDEST STOP JUMPDEST PUSH2 0x1C1 PUSH1 0x4 DUP1 CALLDATASIZE SUB DUP2 ADD SWAP1 PUSH2 0x1BC SWAP2 SWAP1 PUSH2 0x1AC3 JUMP JUMPDEST PUSH2 0x5A1 JUMP JUMPDEST STOP JUMPDEST PUSH2 0x1CB PUSH2 0x637 JUMP JUMPDEST PUSH1 0x40 MLOAD PUSH2 0x1D8 SWAP2 SWAP1 PUSH2 0x1B1B JUMP JUMPDEST PUSH1 0x40 MLOAD DUP1 SWAP2 SUB SWAP1 RETURN JUMPDEST PUSH2 0x1FB PUSH1 0x4 DUP1 CALLDATASIZE SUB DUP2 ADD SWAP1 PUSH2 0x1F6 SWAP2 SWAP1 PUSH2 0x1846 JUMP JUMPDEST PUSH2 0x63D JUMP JUMPDEST PUSH1 0x40 MLOAD PUSH2 0x208 SWAP2 SWAP1 PUSH2 0x18B4 JUMP JUMPDEST PUSH1 0x40 MLOAD DUP1 SWAP2 SUB SWAP1 RETURN JUMPDEST PUSH2 0x22B PUSH1 0x4 DUP1 CALLDATASIZE SUB DUP2 ADD SWAP1 PUSH2 0x226 SWAP2 SWAP1 PUSH2 0x1B36 JUMP JUMPDEST PUSH2 0x6EE JUMP JUMPDEST PUSH1 0x40 MLOAD PUSH2 0x238 SWAP2 SWAP1 PUSH2 0x1B1B JUMP JUMPDEST PUSH1 0x40 MLOAD DUP1 SWAP2 SUB SWAP1 RETURN JUMPDEST PUSH2 0x249 PUSH2 0x7A5 JUMP JUMPDEST STOP JUMPDEST PUSH2 0x265 PUSH1 0x4 DUP1 CALLDATASIZE SUB DUP2 ADD SWAP1 PUSH2 0x260 SWAP2 SWAP1 PUSH2 0x1B63 JUMP JUMPDEST PUSH2 0x82D JUMP JUMPDEST STOP JUMPDEST PUSH2 0x26F PUSH2 0x8DC JUMP JUMPDEST PUSH1 0x40 MLOAD PUSH2 0x27C SWAP2 SWAP1 PUSH2 0x18B4 JUMP JUMPDEST PUSH1 0x40 MLOAD DUP1 SWAP2 SUB SWAP1 RETURN JUMPDEST PUSH2 0x28D PUSH2 0x905 JUMP JUMPDEST PUSH1 0x40 MLOAD PUSH2 0x29A SWAP2 SWAP1 PUSH2 0x17DA JUMP JUMPDEST PUSH1 0x40 MLOAD DUP1 SWAP2 SUB SWAP1 RETURN JUMPDEST PUSH2 0x2BD PUSH1 0x4 DUP1 CALLDATASIZE SUB DUP2 ADD SWAP1 PUSH2 0x2B8 SWAP2 SWAP1 PUSH2 0x1C60 JUMP JUMPDEST PUSH2 0x997 JUMP JUMPDEST STOP JUMPDEST PUSH2 0x2D9 PUSH1 0x4 DUP1 CALLDATASIZE SUB DUP2 ADD SWAP1 PUSH2 0x2D4 SWAP2 SWAP1 PUSH2 0x1846 JUMP JUMPDEST PUSH2 0x9F9 JUMP JUMPDEST PUSH1 0x40 MLOAD PUSH2 0x2E6 SWAP2 SWAP1 PUSH2 0x17DA JUMP JUMPDEST PUSH1 0x40 MLOAD DUP1 SWAP2 SUB SWAP1 RETURN JUMPDEST PUSH2 0x309 PUSH1 0x4 DUP1 CALLDATASIZE SUB DUP2 ADD SWAP1 PUSH2 0x304 SWAP2 SWAP1 PUSH2 0x1B36 JUMP JUMPDEST PUSH2 0xB6B JUMP JUMPDEST STOP JUMPDEST PUSH1 0x60 PUSH1 0x6 DUP1 SLOAD PUSH2 0x31A SWAP1 PUSH2 0x1D12 JUMP JUMPDEST DUP1 PUSH1 0x1F ADD PUSH1 0x20 DUP1 SWAP2 DIV MUL PUSH1 0x20 ADD PUSH1 0x40 MLOAD SWAP1 DUP2 ADD PUSH1 0x40 MSTORE DUP1 SWAP3 SWAP2 SWAP1 DUP2 DUP2 MSTORE PUSH1 0x20 ADD DUP3 DUP1 SLOAD PUSH2 0x346 SWAP1 PUSH2 0x1D12 JUMP JUMPDEST DUP1 ISZERO PUSH2 0x393 JUMPI DUP1 PUSH1 0x1F LT PUSH2 0x368 JUMPI PUSH2 0x100 DUP1 DUP4 SLOAD DIV MUL DUP4 MSTORE SWAP2 PUSH1 0x20 ADD SWAP2 PUSH2 0x393 JUMP JUMPDEST DUP3 ADD SWAP2 SWAP1 PUSH1 0x0 MSTORE PUSH1 0x20 PUSH1 0x0 KECCAK256 SWAP1 JUMPDEST DUP2 SLOAD DUP2 MSTORE SWAP1 PUSH1 0x1 ADD SWAP1 PUSH1 0x20 ADD DUP1 DUP4 GT PUSH2 0x376 JUMPI DUP3 SWAP1 SUB PUSH1 0x1F AND DUP3 ADD SWAP2 JUMPDEST POP POP POP POP POP SWAP1 POP SWAP1 JUMP JUMPDEST PUSH1 0x0 PUSH2 0x3A8 DUP3 PUSH2 0xC62 JUMP JUMPDEST PUSH2 0x3E7 JUMPI PUSH1 0x40 MLOAD PUSH32 0x8C379A000000000000000000000000000000000000000000000000000000000 DUP2 MSTORE PUSH1 0x4 ADD PUSH2 0x3DE SWAP1 PUSH2 0x1DB5 JUMP JUMPDEST PUSH1 0x40 MLOAD DUP1 SWAP2 SUB SWAP1 REVERT JUMPDEST PUSH1 0x4 PUSH1 0x0 DUP4 DUP2 MSTORE PUSH1 0x20 ADD SWAP1 DUP2 MSTORE PUSH1 0x20 ADD PUSH1 0x0 KECCAK256 PUSH1 0x0 SWAP1 SLOAD SWAP1 PUSH2 0x100 EXP SWAP1 DIV PUSH20 0xFFFFFFFFFFFFFFFFFFFFFFFFFFFFFFFFFFFFFFFF AND SWAP1 POP SWAP2 SWAP1 POP JUMP JUMPDEST PUSH1 0x0 PUSH2 0x42D DUP3 PUSH2 0x63D JUMP JUMPDEST SWAP1 POP DUP1 PUSH20 0xFFFFFFFFFFFFFFFFFFFFFFFFFFFFFFFFFFFFFFFF AND DUP4 PUSH20 0xFFFFFFFFFFFFFFFFFFFFFFFFFFFFFFFFFFFFFFFF AND SUB PUSH2 0x49D JUMPI PUSH1 0x40 MLOAD PUSH32 0x8C379A000000000000000000000000000000000000000000000000000000000 DUP2 MSTORE PUSH1 0x4 ADD PUSH2 0x494 SWAP1 PUSH2 0x1E47 JUMP JUMPDEST PUSH1 0x40 MLOAD DUP1 SWAP2 SUB SWAP1 REVERT JUMPDEST DUP1 PUSH20 0xFFFFFFFFFFFFFFFFFFFFFFFFFFFFFFFFFFFFFFFF AND PUSH2 0x4BC PUSH2 0xCCE JUMP JUMPDEST PUSH20 0xFFFFFFFFFFFFFFFFFFFFFFFFFFFFFFFFFFFFFFFF AND EQ PUSH2 0x512 JUMPI PUSH1 0x40 MLOAD PUSH32 0x8C379A000000000000000000000000000000000000000000000000000000000 DUP2 MSTORE PUSH1 0x4 ADD PUSH2 0x509 SWAP1 PUSH2 0x1ED9 JUMP JUMPDEST PUSH1 0x40 MLOAD DUP1 SWAP2 SUB SWAP1 REVERT JUMPDEST PUSH2 0x51C DUP4 DUP4 PUSH2 0xCD6 JUMP JUMPDEST POP POP POP JUMP JUMPDEST PUSH2 0x532 PUSH2 0x52C PUSH2 0xCCE JUMP JUMPDEST DUP3 PUSH2 0xD8F JUMP JUMPDEST PUSH2 0x571 JUMPI PUSH1 0x40 MLOAD PUSH32 0x8C379A000000000000000000000000000000000000000000000000000000000 DUP2 MSTORE PUSH1 0x4 ADD PUSH2 0x568 SWAP1 PUSH2 0x1F6B JUMP JUMPDEST PUSH1 0x40 MLOAD DUP1 SWAP2 SUB SWAP1 REVERT JUMPDEST PUSH2 0x57C DUP4 DUP4 DUP4 PUSH2 0xE5C JUMP JUMPDEST POP POP POP JUMP JUMPDEST PUSH2 0x59C DUP4 DUP4 DUP4 PUSH1 0x40 MLOAD DUP1 PUSH1 0x20 ADD PUSH1 0x40 MSTORE DUP1 PUSH1 0x0 DUP2 MSTORE POP PUSH2 0x997 JUMP JUMPDEST POP POP POP JUMP JUMPDEST PUSH2 0x5A9 PUSH2 0xCCE JUMP JUMPDEST PUSH20 0xFFFFFFFFFFFFFFFFFFFFFFFFFFFFFFFFFFFFFFFF AND PUSH2 0x5C7 PUSH2 0x8DC JUMP JUMPDEST PUSH20 0xFFFFFFFFFFFFFFFFFFFFFFFFFFFFFFFFFFFFFFFF AND EQ PUSH2 0x61D JUMPI PUSH1 0x40 MLOAD PUSH32 0x8C379A000000000000000000000000000000000000000000000000000000000 DUP2 MSTORE PUSH1 0x4 ADD PUSH2 0x614 SWAP1 PUSH2 0x1FD7 JUMP JUMPDEST PUSH1 0x40 MLOAD DUP1 SWAP2 SUB SWAP1 REVERT JUMPDEST DUP1 PUSH1 0x9 SWAP1 DUP1 MLOAD SWAP1 PUSH1 0x20 ADD SWAP1 PUSH2 0x633 SWAP3 SWAP2 SWAP1 PUSH2 0x169E JUMP JUMPDEST POP POP JUMP JUMPDEST PUSH1 0xA SLOAD DUP2 JUMP JUMPDEST PUSH1 0x0 DUP1 PUSH1 0x2 PUSH1 0x0 DUP5 DUP2 MSTORE PUSH1 0x20 ADD SWAP1 DUP2 MSTORE PUSH1 0x20 ADD PUSH1 0x0 KECCAK256 PUSH1 0x0 SWAP1 SLOAD SWAP1 PUSH2 0x100 EXP SWAP1 DIV PUSH20 0xFFFFFFFFFFFFFFFFFFFFFFFFFFFFFFFFFFFFFFFF AND SWAP1 POP PUSH1 0x0 PUSH20 0xFFFFFFFFFFFFFFFFFFFFFFFFFFFFFFFFFFFFFFFF AND DUP2 PUSH20 0xFFFFFFFFFFFFFFFFFFFFFFFFFFFFFFFFFFFFFFFF AND SUB PUSH2 0x6E5 JUMPI PUSH1 0x40 MLOAD PUSH32 0x8C379A000000000000000000000000000000000000000000000000000000000 DUP2 MSTORE PUSH1 0x4 ADD PUSH2 0x6DC SWAP1 PUSH2 0x2069 JUMP JUMPDEST PUSH1 0x40 MLOAD DUP1 SWAP2 SUB SWAP1 REVERT JUMPDEST DUP1 SWAP2 POP POP SWAP2 SWAP1 POP JUMP JUMPDEST PUSH1 0x0 DUP1 PUSH20 0xFFFFFFFFFFFFFFFFFFFFFFFFFFFFFFFFFFFFFFFF AND DUP3 PUSH20 0xFFFFFFFFFFFFFFFFFFFFFFFFFFFFFFFFFFFFFFFF AND SUB PUSH2 0x75E JUMPI PUSH1 0x40 MLOAD PUSH32 0x8C379A000000000000000000000000000000000000000000000000000000000 DUP2 MSTORE PUSH1 0x4 ADD PUSH2 0x755 SWAP1 PUSH2 0x20FB JUMP JUMPDEST PUSH1 0x40 MLOAD DUP1 SWAP2 SUB SWAP1 REVERT JUMPDEST PUSH1 0x1 PUSH1 0x0 DUP4 PUSH20 0xFFFFFFFFFFFFFFFFFFFFFFFFFFFFFFFFFFFFFFFF AND PUSH20 0xFFFFFFFFFFFFFFFFFFFFFFFFFFFFFFFFFFFFFFFF AND DUP2 MSTORE PUSH1 0x20 ADD SWAP1 DUP2 MSTORE PUSH1 0x20 ADD PUSH1 0x0 KECCAK256 SLOAD SWAP1 POP SWAP2 SWAP1 POP JUMP JUMPDEST PUSH2 0x7AD PUSH2 0xCCE JUMP JUMPDEST PUSH20 0xFFFFFFFFFFFFFFFFFFFFFFFFFFFFFFFFFFFFFFFF AND PUSH2 0x7CB PUSH2 0x8DC JUMP JUMPDEST PUSH20 0xFFFFFFFFFFFFFFFFFFFFFFFFFFFFFFFFFFFFFFFF AND EQ PUSH2 0x821 JUMPI PUSH1 0x40 MLOAD PUSH32 0x8C379A000000000000000000000000000000000000000000000000000000000 DUP2 MSTORE PUSH1 0x4 ADD PUSH2 0x818 SWAP1 PUSH2 0x1FD7 JUMP JUMPDEST PUSH1 0x40 MLOAD DUP1 SWAP2 SUB SWAP1 REVERT JUMPDEST PUSH2 0x82B PUSH1 0x0 PUSH2 0x10C0 JUMP JUMPDEST JUMP JUMPDEST PUSH2 0x835 PUSH2 0xCCE JUMP JUMPDEST PUSH20 0xFFFFFFFFFFFFFFFFFFFFFFFFFFFFFFFFFFFFFFFF AND PUSH2 0x853 PUSH2 0x8DC JUMP JUMPDEST PUSH20 0xFFFFFFFFFFFFFFFFFFFFFFFFFFFFFFFFFFFFFFFF AND EQ PUSH2 0x8A9 JUMPI PUSH1 0x40 MLOAD PUSH32 0x8C379A000000000000000000000000000000000000000000000000000000000 DUP2 MSTORE PUSH1 0x4 ADD PUSH2 0x8A0 SWAP1 PUSH2 0x1FD7 JUMP JUMPDEST PUSH1 0x40 MLOAD DUP1 SWAP2 SUB SWAP1 REVERT JUMPDEST PUSH2 0x8B4 PUSH1 0xA SLOAD PUSH2 0x1184 JUMP JUMPDEST PUSH2 0x8C0 PUSH1 0xA SLOAD DUP3 PUSH2 0x1187 JUMP JUMPDEST PUSH1 0xA PUSH1 0x0 DUP2 SLOAD DUP1 SWAP3 SWAP2 SWAP1 PUSH2 0x8D3 SWAP1 PUSH2 0x214A JUMP JUMPDEST SWAP2 SWAP1 POP SSTORE POP POP POP JUMP JUMPDEST PUSH1 0x0 DUP1 PUSH1 0x0 SWAP1 SLOAD SWAP1 PUSH2 0x100 EXP SWAP1 DIV PUSH20 0xFFFFFFFFFFFFFFFFFFFFFFFFFFFFFFFFFFFFFFFF AND SWAP1 POP SWAP1 JUMP JUMPDEST PUSH1 0x60 PUSH1 0x7 DUP1 SLOAD PUSH2 0x914 SWAP1 PUSH2 0x1D12 JUMP JUMPDEST DUP1 PUSH1 0x1F ADD PUSH1 0x20 DUP1 SWAP2 DIV MUL PUSH1 0x20 ADD PUSH1 0x40 MLOAD SWAP1 DUP2 ADD PUSH1 0x40 MSTORE DUP1 SWAP3 SWAP2 SWAP1 DUP2 DUP2 MSTORE PUSH1 0x20 ADD DUP3 DUP1 SLOAD PUSH2 0x940 SWAP1 PUSH2 0x1D12 JUMP JUMPDEST DUP1 ISZERO PUSH2 0x98D JUMPI DUP1 PUSH1 0x1F LT PUSH2 0x962 JUMPI PUSH2 0x100 DUP1 DUP4 SLOAD DIV MUL DUP4 MSTORE SWAP2 PUSH1 0x20 ADD SWAP2 PUSH2 0x98D JUMP JUMPDEST DUP3 ADD SWAP2 SWAP1 PUSH1 0x0 MSTORE PUSH1 0x20 PUSH1 0x0 KECCAK256 SWAP1 JUMPDEST DUP2 SLOAD DUP2 MSTORE SWAP1 PUSH1 0x1 ADD SWAP1 PUSH1 0x20 ADD DUP1 DUP4 GT PUSH2 0x970 JUMPI DUP3 SWAP1 SUB PUSH1 0x1F AND DUP3 ADD SWAP2 JUMPDEST POP POP POP POP POP SWAP1 POP SWAP1 JUMP JUMPDEST PUSH2 0x9A8 PUSH2 0x9A2 PUSH2 0xCCE JUMP JUMPDEST DUP4 PUSH2 0xD8F JUMP JUMPDEST PUSH2 0x9E7 JUMPI PUSH1 0x40 MLOAD PUSH32 0x8C379A000000000000000000000000000000000000000000000000000000000 DUP2 MSTORE PUSH1 0x4 ADD PUSH2 0x9DE SWAP1 PUSH2 0x1F6B JUMP JUMPDEST PUSH1 0x40 MLOAD DUP1 SWAP2 SUB SWAP1 REVERT JUMPDEST PUSH2 0x9F3 DUP5 DUP5 DUP5 DUP5 PUSH2 0x11FB JUMP JUMPDEST POP POP POP POP JUMP JUMPDEST PUSH1 0x60 PUSH2 0xA04 DUP3 PUSH2 0xC62 JUMP JUMPDEST PUSH2 0xA43 JUMPI PUSH1 0x40 MLOAD PUSH32 0x8C379A000000000000000000000000000000000000000000000000000000000 DUP2 MSTORE PUSH1 0x4 ADD PUSH2 0xA3A SWAP1 PUSH2 0x2204 JUMP JUMPDEST PUSH1 0x40 MLOAD DUP1 SWAP2 SUB SWAP1 REVERT JUMPDEST PUSH1 0x0 PUSH1 0xC PUSH1 0x0 DUP5 DUP2 MSTORE PUSH1 0x20 ADD SWAP1 DUP2 MSTORE PUSH1 0x20 ADD PUSH1 0x0 KECCAK256 DUP1 SLOAD PUSH2 0xA63 SWAP1 PUSH2 0x1D12 JUMP JUMPDEST DUP1 PUSH1 0x1F ADD PUSH1 0x20 DUP1 SWAP2 DIV MUL PUSH1 0x20 ADD PUSH1 0x40 MLOAD SWAP1 DUP2 ADD PUSH1 0x40 MSTORE DUP1 SWAP3 SWAP2 SWAP1 DUP2 DUP2 MSTORE PUSH1 0x20 ADD DUP3 DUP1 SLOAD PUSH2 0xA8F SWAP1 PUSH2 0x1D12 JUMP JUMPDEST DUP1 ISZERO PUSH2 0xADC JUMPI DUP1 PUSH1 0x1F LT PUSH2 0xAB1 JUMPI PUSH2 0x100 DUP1 DUP4 SLOAD DIV MUL DUP4 MSTORE SWAP2 PUSH1 0x20 ADD SWAP2 PUSH2 0xADC JUMP JUMPDEST DUP3 ADD SWAP2 SWAP1 PUSH1 0x0 MSTORE PUSH1 0x20 PUSH1 0x0 KECCAK256 SWAP1 JUMPDEST DUP2 SLOAD DUP2 MSTORE SWAP1 PUSH1 0x1 ADD SWAP1 PUSH1 0x20 ADD DUP1 DUP4 GT PUSH2 0xABF JUMPI DUP3 SWAP1 SUB PUSH1 0x1F AND DUP3 ADD SWAP2 JUMPDEST POP POP POP POP POP SWAP1 POP PUSH1 0x0 PUSH2 0xAED PUSH2 0x1257 JUMP JUMPDEST SWAP1 POP PUSH1 0x0 DUP2 MLOAD SUB PUSH2 0xB02 JUMPI DUP2 SWAP3 POP POP POP PUSH2 0xB66 JUMP JUMPDEST PUSH1 0x0 DUP3 MLOAD GT ISZERO PUSH2 0xB37 JUMPI DUP1 DUP3 PUSH1 0x40 MLOAD PUSH1 0x20 ADD PUSH2 0xB1F SWAP3 SWAP2 SWAP1 PUSH2 0x2260 JUMP JUMPDEST PUSH1 0x40 MLOAD PUSH1 0x20 DUP2 DUP4 SUB SUB DUP2 MSTORE SWAP1 PUSH1 0x40 MSTORE SWAP3 POP POP POP PUSH2 0xB66 JUMP JUMPDEST DUP1 PUSH2 0xB41 DUP6 PUSH2 0x12E9 JUMP JUMPDEST PUSH1 0x40 MLOAD PUSH1 0x20 ADD PUSH2 0xB52 SWAP3 SWAP2 SWAP1 PUSH2 0x2260 JUMP JUMPDEST PUSH1 0x40 MLOAD PUSH1 0x20 DUP2 DUP4 SUB SUB DUP2 MSTORE SWAP1 PUSH1 0x40 MSTORE SWAP3 POP POP POP JUMPDEST SWAP2 SWAP1 POP JUMP JUMPDEST PUSH2 0xB73 PUSH2 0xCCE JUMP JUMPDEST PUSH20 0xFFFFFFFFFFFFFFFFFFFFFFFFFFFFFFFFFFFFFFFF AND PUSH2 0xB91 PUSH2 0x8DC JUMP JUMPDEST PUSH20 0xFFFFFFFFFFFFFFFFFFFFFFFFFFFFFFFFFFFFFFFF AND EQ PUSH2 0xBE7 JUMPI PUSH1 0x40 MLOAD PUSH32 0x8C379A000000000000000000000000000000000000000000000000000000000 DUP2 MSTORE PUSH1 0x4 ADD PUSH2 0xBDE SWAP1 PUSH2 0x1FD7 JUMP JUMPDEST PUSH1 0x40 MLOAD DUP1 SWAP2 SUB SWAP1 REVERT JUMPDEST PUSH1 0x0 PUSH20 0xFFFFFFFFFFFFFFFFFFFFFFFFFFFFFFFFFFFFFFFF AND DUP2 PUSH20 0xFFFFFFFFFFFFFFFFFFFFFFFFFFFFFFFFFFFFFFFF AND SUB PUSH2 0xC56 JUMPI PUSH1 0x40 MLOAD PUSH32 0x8C379A000000000000000000000000000000000000000000000000000000000 DUP2 MSTORE PUSH1 0x4 ADD PUSH2 0xC4D SWAP1 PUSH2 0x22F6 JUMP JUMPDEST PUSH1 0x40 MLOAD DUP1 SWAP2 SUB SWAP1 REVERT JUMPDEST PUSH2 0xC5F DUP2 PUSH2 0x10C0 JUMP JUMPDEST POP JUMP JUMPDEST PUSH1 0x0 DUP1 PUSH20 0xFFFFFFFFFFFFFFFFFFFFFFFFFFFFFFFFFFFFFFFF AND PUSH1 0x2 PUSH1 0x0 DUP5 DUP2 MSTORE PUSH1 0x20 ADD SWAP1 DUP2 MSTORE PUSH1 0x20 ADD PUSH1 0x0 KECCAK256 PUSH1 0x0 SWAP1 SLOAD SWAP1 PUSH2 0x100 EXP SWAP1 DIV PUSH20 0xFFFFFFFFFFFFFFFFFFFFFFFFFFFFFFFFFFFFFFFF AND PUSH20 0xFFFFFFFFFFFFFFFFFFFFFFFFFFFFFFFFFFFFFFFF AND EQ ISZERO SWAP1 POP SWAP2 SWAP1 POP JUMP JUMPDEST PUSH1 0x0 CALLER SWAP1 POP SWAP1 JUMP JUMPDEST DUP2 PUSH1 0x4 PUSH1 0x0 DUP4 DUP2 MSTORE PUSH1 0x20 ADD SWAP1 DUP2 MSTORE PUSH1 0x20 ADD PUSH1 0x0 KECCAK256 PUSH1 0x0 PUSH2 0x100 EXP DUP2 SLOAD DUP2 PUSH20 0xFFFFFFFFFFFFFFFFFFFFFFFFFFFFFFFFFFFFFFFF MUL NOT AND SWAP1 DUP4 PUSH20 0xFFFFFFFFFFFFFFFFFFFFFFFFFFFFFFFFFFFFFFFF AND MUL OR SWAP1 SSTORE POP DUP1 DUP3 PUSH20 0xFFFFFFFFFFFFFFFFFFFFFFFFFFFFFFFFFFFFFFFF AND PUSH2 0xD49 DUP4 PUSH2 0x63D JUMP JUMPDEST PUSH20 0xFFFFFFFFFFFFFFFFFFFFFFFFFFFFFFFFFFFFFFFF AND PUSH32 0x8C5BE1E5EBEC7D5BD14F71427D1E84F3DD0314C0F7B2291E5B200AC8C7C3B925 PUSH1 0x40 MLOAD PUSH1 0x40 MLOAD DUP1 SWAP2 SUB SWAP1 LOG4 POP POP JUMP JUMPDEST PUSH1 0x0 PUSH2 0xD9A DUP3 PUSH2 0xC62 JUMP JUMPDEST PUSH2 0xDD9 JUMPI PUSH1 0x40 MLOAD PUSH32 0x8C379A000000000000000000000000000000000000000000000000000000000 DUP2 MSTORE PUSH1 0x4 ADD PUSH2 0xDD0 SWAP1 PUSH2 0x2388 JUMP JUMPDEST PUSH1 0x40 MLOAD DUP1 SWAP2 SUB SWAP1 REVERT JUMPDEST PUSH1 0x0 PUSH2 0xDE4 DUP4 PUSH2 0x63D JUMP JUMPDEST SWAP1 POP DUP1 PUSH20 0xFFFFFFFFFFFFFFFFFFFFFFFFFFFFFFFFFFFFFFFF AND DUP5 PUSH20 0xFFFFFFFFFFFFFFFFFFFFFFFFFFFFFFFFFFFFFFFF AND EQ DUP1 PUSH2 0xE53 JUMPI POP DUP4 PUSH20 0xFFFFFFFFFFFFFFFFFFFFFFFFFFFFFFFFFFFFFFFF AND PUSH2 0xE3B DUP5 PUSH2 0x39D JUMP JUMPDEST PUSH20 0xFFFFFFFFFFFFFFFFFFFFFFFFFFFFFFFFFFFFFFFF AND EQ JUMPDEST SWAP2 POP POP SWAP3 SWAP2 POP POP JUMP JUMPDEST DUP3 PUSH20 0xFFFFFFFFFFFFFFFFFFFFFFFFFFFFFFFFFFFFFFFF AND PUSH2 0xE7C DUP3 PUSH2 0x63D JUMP JUMPDEST PUSH20 0xFFFFFFFFFFFFFFFFFFFFFFFFFFFFFFFFFFFFFFFF AND EQ PUSH2 0xED2 JUMPI PUSH1 0x40 MLOAD PUSH32 0x8C379A000000000000000000000000000000000000000000000000000000000 DUP2 MSTORE PUSH1 0x4 ADD PUSH2 0xEC9 SWAP1 PUSH2 0x241A JUMP JUMPDEST PUSH1 0x40 MLOAD DUP1 SWAP2 SUB SWAP1 REVERT JUMPDEST PUSH1 0x0 PUSH20 0xFFFFFFFFFFFFFFFFFFFFFFFFFFFFFFFFFFFFFFFF AND DUP3 PUSH20 0xFFFFFFFFFFFFFFFFFFFFFFFFFFFFFFFFFFFFFFFF AND SUB PUSH2 0xF41 JUMPI PUSH1 0x40 MLOAD PUSH32 0x8C379A000000000000000000000000000000000000000000000000000000000 DUP2 MSTORE PUSH1 0x4 ADD PUSH2 0xF38 SWAP1 PUSH2 0x24AC JUMP JUMPDEST PUSH1 0x40 MLOAD DUP1 SWAP2 SUB SWAP1 REVERT JUMPDEST PUSH2 0xF4C DUP4 DUP4 DUP4 PUSH2 0x1449 JUMP JUMPDEST PUSH2 0xF57 PUSH1 0x0 DUP3 PUSH2 0xCD6 JUMP JUMPDEST PUSH1 0x1 DUP1 PUSH1 0x0 DUP6 PUSH20 0xFFFFFFFFFFFFFFFFFFFFFFFFFFFFFFFFFFFFFFFF AND PUSH20 0xFFFFFFFFFFFFFFFFFFFFFFFFFFFFFFFFFFFFFFFF AND DUP2 MSTORE PUSH1 0x20 ADD SWAP1 DUP2 MSTORE PUSH1 0x20 ADD PUSH1 0x0 KECCAK256 PUSH1 0x0 DUP3 DUP3 SLOAD PUSH2 0xFA6 SWAP2 SWAP1 PUSH2 0x24CC JUMP JUMPDEST SWAP3 POP POP DUP2 SWAP1 SSTORE POP PUSH1 0x1 DUP1 PUSH1 0x0 DUP5 PUSH20 0xFFFFFFFFFFFFFFFFFFFFFFFFFFFFFFFFFFFFFFFF AND PUSH20 0xFFFFFFFFFFFFFFFFFFFFFFFFFFFFFFFFFFFFFFFF AND DUP2 MSTORE PUSH1 0x20 ADD SWAP1 DUP2 MSTORE PUSH1 0x20 ADD PUSH1 0x0 KECCAK256 PUSH1 0x0 DUP3 DUP3 SLOAD PUSH2 0xFFC SWAP2 SWAP1 PUSH2 0x2500 JUMP JUMPDEST SWAP3 POP POP DUP2 SWAP1 SSTORE POP DUP2 PUSH1 0x2 PUSH1 0x0 DUP4 DUP2 MSTORE PUSH1 0x20 ADD SWAP1 DUP2 MSTORE PUSH1 0x20 ADD PUSH1 0x0 KECCAK256 PUSH1 0x0 PUSH2 0x100 EXP DUP2 SLOAD DUP2 PUSH20 0xFFFFFFFFFFFFFFFFFFFFFFFFFFFFFFFFFFFFFFFF MUL NOT AND SWAP1 DUP4 PUSH20 0xFFFFFFFFFFFFFFFFFFFFFFFFFFFFFFFFFFFFFFFF AND MUL OR SWAP1 SSTORE POP DUP1 DUP3 PUSH20 0xFFFFFFFFFFFFFFFFFFFFFFFFFFFFFFFFFFFFFFFF AND DUP5 PUSH20 0xFFFFFFFFFFFFFFFFFFFFFFFFFFFFFFFFFFFFFFFF AND PUSH32 0xDDF252AD1BE2C89B69C2B068FC378DAA952BA7F163C4A11628F55A4DF523B3EF PUSH1 0x40 MLOAD PUSH1 0x40 MLOAD DUP1 SWAP2 SUB SWAP1 LOG4 PUSH2 0x10BB DUP4 DUP4 DUP4 PUSH2 0x14EF JUMP JUMPDEST POP POP POP JUMP JUMPDEST PUSH1 0x0 DUP1 PUSH1 0x0 SWAP1 SLOAD SWAP1 PUSH2 0x100 EXP SWAP1 DIV PUSH20 0xFFFFFFFFFFFFFFFFFFFFFFFFFFFFFFFFFFFFFFFF AND SWAP1 POP DUP2 PUSH1 0x0 DUP1 PUSH2 0x100 EXP DUP2 SLOAD DUP2 PUSH20 0xFFFFFFFFFFFFFFFFFFFFFFFFFFFFFFFFFFFFFFFF MUL NOT AND SWAP1 DUP4 PUSH20 0xFFFFFFFFFFFFFFFFFFFFFFFFFFFFFFFFFFFFFFFF AND MUL OR SWAP1 SSTORE POP DUP2 PUSH20 0xFFFFFFFFFFFFFFFFFFFFFFFFFFFFFFFFFFFFFFFF AND DUP2 PUSH20 0xFFFFFFFFFFFFFFFFFFFFFFFFFFFFFFFFFFFFFFFF AND PUSH32 0x8BE0079C531659141344CD1FD0A4F28419497F9722A3DAAFE3B4186F6B6457E0 PUSH1 0x40 MLOAD PUSH1 0x40 MLOAD DUP1 SWAP2 SUB SWAP1 LOG3 POP POP JUMP JUMPDEST POP JUMP JUMPDEST PUSH2 0x1190 DUP3 PUSH2 0xC62 JUMP JUMPDEST PUSH2 0x11CF JUMPI PUSH1 0x40 MLOAD PUSH32 0x8C379A000000000000000000000000000000000000000000000000000000000 DUP2 MSTORE PUSH1 0x4 ADD PUSH2 0x11C6 SWAP1 PUSH2 0x25C8 JUMP JUMPDEST PUSH1 0x40 MLOAD DUP1 SWAP2 SUB SWAP1 REVERT JUMPDEST DUP1 PUSH1 0xC PUSH1 0x0 DUP5 DUP2 MSTORE PUSH1 0x20 ADD SWAP1 DUP2 MSTORE PUSH1 0x20 ADD PUSH1 0x0 KECCAK256 SWAP1 DUP1 MLOAD SWAP1 PUSH1 0x20 ADD SWAP1 PUSH2 0x11F6 SWAP3 SWAP2 SWAP1 PUSH2 0x169E JUMP JUMPDEST POP POP POP JUMP JUMPDEST PUSH2 0x1206 DUP5 DUP5 DUP5 PUSH2 0xE5C JUMP JUMPDEST PUSH2 0x1212 DUP5 DUP5 DUP5 DUP5 PUSH2 0x14F4 JUMP JUMPDEST PUSH2 0x1251 JUMPI PUSH1 0x40 MLOAD PUSH32 0x8C379A000000000000000000000000000000000000000000000000000000000 DUP2 MSTORE PUSH1 0x4 ADD PUSH2 0x1248 SWAP1 PUSH2 0x265A JUMP JUMPDEST PUSH1 0x40 MLOAD DUP1 SWAP2 SUB SWAP1 REVERT JUMPDEST POP POP POP POP JUMP JUMPDEST PUSH1 0x60 PUSH1 0x9 DUP1 SLOAD PUSH2 0x1266 SWAP1 PUSH2 0x1D12 JUMP JUMPDEST DUP1 PUSH1 0x1F ADD PUSH1 0x20 DUP1 SWAP2 DIV MUL PUSH1 0x20 ADD PUSH1 0x40 MLOAD SWAP1 DUP2 ADD PUSH1 0x40 MSTORE DUP1 SWAP3 SWAP2 SWAP1 DUP2 DUP2 MSTORE PUSH1 0x20 ADD DUP3 DUP1 SLOAD PUSH2 0x1292 SWAP1 PUSH2 0x1D12 JUMP JUMPDEST DUP1 ISZERO PUSH2 0x12DF JUMPI DUP1 PUSH1 0x1F LT PUSH2 0x12B4 JUMPI PUSH2 0x100 DUP1 DUP4 SLOAD DIV MUL DUP4 MSTORE SWAP2 PUSH1 0x20 ADD SWAP2 PUSH2 0x12DF JUMP JUMPDEST DUP3 ADD SWAP2 SWAP1 PUSH1 0x0 MSTORE PUSH1 0x20 PUSH1 0x0 KECCAK256 SWAP1 JUMPDEST DUP2 SLOAD DUP2 MSTORE SWAP1 PUSH1 0x1 ADD SWAP1 PUSH1 0x20 ADD DUP1 DUP4 GT PUSH2 0x12C2 JUMPI DUP3 SWAP1 SUB PUSH1 0x1F AND DUP3 ADD SWAP2 JUMPDEST POP POP POP POP POP SWAP1 POP SWAP1 JUMP JUMPDEST PUSH1 0x60 PUSH1 0x0 DUP3 SUB PUSH2 0x1330 JUMPI PUSH1 0x40 MLOAD DUP1 PUSH1 0x40 ADD PUSH1 0x40 MSTORE DUP1 PUSH1 0x1 DUP2 MSTORE PUSH1 0x20 ADD PUSH32 0x3000000000000000000000000000000000000000000000000000000000000000 DUP2 MSTORE POP SWAP1 POP PUSH2 0x1444 JUMP JUMPDEST PUSH1 0x0 DUP3 SWAP1 POP PUSH1 0x0 JUMPDEST PUSH1 0x0 DUP3 EQ PUSH2 0x1362 JUMPI DUP1 DUP1 PUSH2 0x134B SWAP1 PUSH2 0x214A JUMP JUMPDEST SWAP2 POP POP PUSH1 0xA DUP3 PUSH2 0x135B SWAP2 SWAP1 PUSH2 0x26A9 JUMP JUMPDEST SWAP2 POP PUSH2 0x1338 JUMP JUMPDEST PUSH1 0x0 DUP2 PUSH8 0xFFFFFFFFFFFFFFFF DUP2 GT ISZERO PUSH2 0x137E JUMPI PUSH2 0x137D PUSH2 0x1998 JUMP JUMPDEST JUMPDEST PUSH1 0x40 MLOAD SWAP1 DUP1 DUP3 MSTORE DUP1 PUSH1 0x1F ADD PUSH1 0x1F NOT AND PUSH1 0x20 ADD DUP3 ADD PUSH1 0x40 MSTORE DUP1 ISZERO PUSH2 0x13B0 JUMPI DUP2 PUSH1 0x20 ADD PUSH1 0x1 DUP3 MUL DUP1 CALLDATASIZE DUP4 CALLDATACOPY DUP1 DUP3 ADD SWAP2 POP POP SWAP1 POP JUMPDEST POP SWAP1 POP JUMPDEST PUSH1 0x0 DUP6 EQ PUSH2 0x143D JUMPI PUSH1 0x1 DUP3 PUSH2 0x13C9 SWAP2 SWAP1 PUSH2 0x24CC JUMP JUMPDEST SWAP2 POP PUSH1 0xA DUP6 PUSH2 0x13D8 SWAP2 SWAP1 PUSH2 0x26DA JUMP JUMPDEST PUSH1 0x30 PUSH2 0x13E4 SWAP2 SWAP1 PUSH2 0x2500 JUMP JUMPDEST PUSH1 0xF8 SHL DUP2 DUP4 DUP2 MLOAD DUP2 LT PUSH2 0x13FA JUMPI PUSH2 0x13F9 PUSH2 0x270B JUMP JUMPDEST JUMPDEST PUSH1 0x20 ADD ADD SWAP1 PUSH31 0xFFFFFFFFFFFFFFFFFFFFFFFFFFFFFFFFFFFFFFFFFFFFFFFFFFFFFFFFFFFFFF NOT AND SWAP1 DUP2 PUSH1 0x0 BYTE SWAP1 MSTORE8 POP PUSH1 0xA DUP6 PUSH2 0x1436 SWAP2 SWAP1 PUSH2 0x26A9 JUMP JUMPDEST SWAP5 POP PUSH2 0x13B4 JUMP JUMPDEST DUP1 SWAP4 POP POP POP POP JUMPDEST SWAP2 SWAP1 POP JUMP JUMPDEST DUP3 PUSH20 0xFFFFFFFFFFFFFFFFFFFFFFFFFFFFFFFFFFFFFFFF AND PUSH1 0x2 PUSH1 0x0 DUP4 DUP2 MSTORE PUSH1 0x20 ADD SWAP1 DUP2 MSTORE PUSH1 0x20 ADD PUSH1 0x0 KECCAK256 PUSH1 0x0 SWAP1 SLOAD SWAP1 PUSH2 0x100 EXP SWAP1 DIV PUSH20 0xFFFFFFFFFFFFFFFFFFFFFFFFFFFFFFFFFFFFFFFF AND PUSH20 0xFFFFFFFFFFFFFFFFFFFFFFFFFFFFFFFFFFFFFFFF AND EQ PUSH2 0x14EA JUMPI PUSH1 0x40 MLOAD PUSH32 0x8C379A000000000000000000000000000000000000000000000000000000000 DUP2 MSTORE PUSH1 0x4 ADD PUSH2 0x14E1 SWAP1 PUSH2 0x2786 JUMP JUMPDEST PUSH1 0x40 MLOAD DUP1 SWAP2 SUB SWAP1 REVERT JUMPDEST POP POP POP JUMP JUMPDEST POP POP POP JUMP JUMPDEST PUSH1 0x0 PUSH2 0x1515 DUP5 PUSH20 0xFFFFFFFFFFFFFFFFFFFFFFFFFFFFFFFFFFFFFFFF AND PUSH2 0x167B JUMP JUMPDEST ISZERO PUSH2 0x166E JUMPI DUP4 PUSH20 0xFFFFFFFFFFFFFFFFFFFFFFFFFFFFFFFFFFFFFFFF AND PUSH4 0x150B7A02 PUSH2 0x153E PUSH2 0xCCE JUMP JUMPDEST DUP8 DUP7 DUP7 PUSH1 0x40 MLOAD DUP6 PUSH4 0xFFFFFFFF AND PUSH1 0xE0 SHL DUP2 MSTORE PUSH1 0x4 ADD PUSH2 0x1560 SWAP5 SWAP4 SWAP3 SWAP2 SWAP1 PUSH2 0x27FB JUMP JUMPDEST PUSH1 0x20 PUSH1 0x40 MLOAD DUP1 DUP4 SUB DUP2 PUSH1 0x0 DUP8 GAS CALL SWAP3 POP POP POP DUP1 ISZERO PUSH2 0x159C JUMPI POP PUSH1 0x40 MLOAD RETURNDATASIZE PUSH1 0x1F NOT PUSH1 0x1F DUP3 ADD AND DUP3 ADD DUP1 PUSH1 0x40 MSTORE POP DUP2 ADD SWAP1 PUSH2 0x1599 SWAP2 SWAP1 PUSH2 0x289F JUMP JUMPDEST PUSH1 0x1 JUMPDEST PUSH2 0x161E JUMPI RETURNDATASIZE DUP1 PUSH1 0x0 DUP2 EQ PUSH2 0x15CC JUMPI PUSH1 0x40 MLOAD SWAP2 POP PUSH1 0x1F NOT PUSH1 0x3F RETURNDATASIZE ADD AND DUP3 ADD PUSH1 0x40 MSTORE RETURNDATASIZE DUP3 MSTORE RETURNDATASIZE PUSH1 0x0 PUSH1 0x20 DUP5 ADD RETURNDATACOPY PUSH2 0x15D1 JUMP JUMPDEST PUSH1 0x60 SWAP2 POP JUMPDEST POP PUSH1 0x0 DUP2 MLOAD SUB PUSH2 0x1616 JUMPI PUSH1 0x40 MLOAD PUSH32 0x8C379A000000000000000000000000000000000000000000000000000000000 DUP2 MSTORE PUSH1 0x4 ADD PUSH2 0x160D SWAP1 PUSH2 0x265A JUMP JUMPDEST PUSH1 0x40 MLOAD DUP1 SWAP2 SUB SWAP1 REVERT JUMPDEST DUP1 MLOAD DUP2 PUSH1 0x20 ADD REVERT JUMPDEST PUSH4 0x150B7A02 PUSH1 0xE0 SHL PUSH28 0xFFFFFFFFFFFFFFFFFFFFFFFFFFFFFFFFFFFFFFFFFFFFFFFFFFFFFFFF NOT AND DUP2 PUSH28 0xFFFFFFFFFFFFFFFFFFFFFFFFFFFFFFFFFFFFFFFFFFFFFFFFFFFFFFFF NOT AND EQ SWAP2 POP POP PUSH2 0x1673 JUMP JUMPDEST PUSH1 0x1 SWAP1 POP JUMPDEST SWAP5 SWAP4 POP POP POP POP JUMP JUMPDEST PUSH1 0x0 DUP1 DUP3 PUSH20 0xFFFFFFFFFFFFFFFFFFFFFFFFFFFFFFFFFFFFFFFF AND EXTCODESIZE GT SWAP1 POP SWAP2 SWAP1 POP JUMP JUMPDEST DUP3 DUP1 SLOAD PUSH2 0x16AA SWAP1 PUSH2 0x1D12 JUMP JUMPDEST SWAP1 PUSH1 0x0 MSTORE PUSH1 0x20 PUSH1 0x0 KECCAK256 SWAP1 PUSH1 0x1F ADD PUSH1 0x20 SWAP1 DIV DUP2 ADD SWAP3 DUP3 PUSH2 0x16CC JUMPI PUSH1 0x0 DUP6 SSTORE PUSH2 0x1713 JUMP JUMPDEST DUP3 PUSH1 0x1F LT PUSH2 0x16E5 JUMPI DUP1 MLOAD PUSH1 0xFF NOT AND DUP4 DUP1 ADD OR DUP6 SSTORE PUSH2 0x1713 JUMP JUMPDEST DUP3 DUP1 ADD PUSH1 0x1 ADD DUP6 SSTORE DUP3 ISZERO PUSH2 0x1713 JUMPI SWAP2 DUP3 ADD JUMPDEST DUP3 DUP2 GT ISZERO PUSH2 0x1712 JUMPI DUP3 MLOAD DUP3 SSTORE SWAP2 PUSH1 0x20 ADD SWAP2 SWAP1 PUSH1 0x1 ADD SWAP1 PUSH2 0x16F7 JUMP JUMPDEST JUMPDEST POP SWAP1 POP PUSH2 0x1720 SWAP2 SWAP1 PUSH2 0x1724 JUMP JUMPDEST POP SWAP1 JUMP JUMPDEST JUMPDEST DUP1 DUP3 GT ISZERO PUSH2 0x173D JUMPI PUSH1 0x0 DUP2 PUSH1 0x0 SWAP1 SSTORE POP PUSH1 0x1 ADD PUSH2 0x1725 JUMP JUMPDEST POP SWAP1 JUMP JUMPDEST PUSH1 0x0 DUP2 MLOAD SWAP1 POP SWAP2 SWAP1 POP JUMP JUMPDEST PUSH1 0x0 DUP3 DUP3 MSTORE PUSH1 0x20 DUP3 ADD SWAP1 POP SWAP3 SWAP2 POP POP JUMP JUMPDEST PUSH1 0x0 JUMPDEST DUP4 DUP2 LT ISZERO PUSH2 0x177B JUMPI DUP1 DUP3 ADD MLOAD DUP2 DUP5 ADD MSTORE PUSH1 0x20 DUP2 ADD SWAP1 POP PUSH2 0x1760 JUMP JUMPDEST DUP4 DUP2 GT ISZERO PUSH2 0x178A JUMPI PUSH1 0x0 DUP5 DUP5 ADD MSTORE JUMPDEST POP POP POP POP JUMP JUMPDEST PUSH1 0x0 PUSH1 0x1F NOT PUSH1 0x1F DUP4 ADD AND SWAP1 POP SWAP2 SWAP1 POP JUMP JUMPDEST PUSH1 0x0 PUSH2 0x17AC DUP3 PUSH2 0x1741 JUMP JUMPDEST PUSH2 0x17B6 DUP2 DUP6 PUSH2 0x174C JUMP JUMPDEST SWAP4 POP PUSH2 0x17C6 DUP2 DUP6 PUSH1 0x20 DUP7 ADD PUSH2 0x175D JUMP JUMPDEST PUSH2 0x17CF DUP2 PUSH2 0x1790 JUMP JUMPDEST DUP5 ADD SWAP2 POP POP SWAP3 SWAP2 POP POP JUMP JUMPDEST PUSH1 0x0 PUSH1 0x20 DUP3 ADD SWAP1 POP DUP2 DUP2 SUB PUSH1 0x0 DUP4 ADD MSTORE PUSH2 0x17F4 DUP2 DUP5 PUSH2 0x17A1 JUMP JUMPDEST SWAP1 POP SWAP3 SWAP2 POP POP JUMP JUMPDEST PUSH1 0x0 PUSH1 0x40 MLOAD SWAP1 POP SWAP1 JUMP JUMPDEST PUSH1 0x0 DUP1 REVERT JUMPDEST PUSH1 0x0 DUP1 REVERT JUMPDEST PUSH1 0x0 DUP2 SWAP1 POP SWAP2 SWAP1 POP JUMP JUMPDEST PUSH2 0x1823 DUP2 PUSH2 0x1810 JUMP JUMPDEST DUP2 EQ PUSH2 0x182E JUMPI PUSH1 0x0 DUP1 REVERT JUMPDEST POP JUMP JUMPDEST PUSH1 0x0 DUP2 CALLDATALOAD SWAP1 POP PUSH2 0x1840 DUP2 PUSH2 0x181A JUMP JUMPDEST SWAP3 SWAP2 POP POP JUMP JUMPDEST PUSH1 0x0 PUSH1 0x20 DUP3 DUP5 SUB SLT ISZERO PUSH2 0x185C JUMPI PUSH2 0x185B PUSH2 0x1806 JUMP JUMPDEST JUMPDEST PUSH1 0x0 PUSH2 0x186A DUP5 DUP3 DUP6 ADD PUSH2 0x1831 JUMP JUMPDEST SWAP2 POP POP SWAP3 SWAP2 POP POP JUMP JUMPDEST PUSH1 0x0 PUSH20 0xFFFFFFFFFFFFFFFFFFFFFFFFFFFFFFFFFFFFFFFF DUP3 AND SWAP1 POP SWAP2 SWAP1 POP JUMP JUMPDEST PUSH1 0x0 PUSH2 0x189E DUP3 PUSH2 0x1873 JUMP JUMPDEST SWAP1 POP SWAP2 SWAP1 POP JUMP JUMPDEST PUSH2 0x18AE DUP2 PUSH2 0x1893 JUMP JUMPDEST DUP3 MSTORE POP POP JUMP JUMPDEST PUSH1 0x0 PUSH1 0x20 DUP3 ADD SWAP1 POP PUSH2 0x18C9 PUSH1 0x0 DUP4 ADD DUP5 PUSH2 0x18A5 JUMP JUMPDEST SWAP3 SWAP2 POP POP JUMP JUMPDEST PUSH2 0x18D8 DUP2 PUSH2 0x1893 JUMP JUMPDEST DUP2 EQ PUSH2 0x18E3 JUMPI PUSH1 0x0 DUP1 REVERT JUMPDEST POP JUMP JUMPDEST PUSH1 0x0 DUP2 CALLDATALOAD SWAP1 POP PUSH2 0x18F5 DUP2 PUSH2 0x18CF JUMP JUMPDEST SWAP3 SWAP2 POP POP JUMP JUMPDEST PUSH1 0x0 DUP1 PUSH1 0x40 DUP4 DUP6 SUB SLT ISZERO PUSH2 0x1912 JUMPI PUSH2 0x1911 PUSH2 0x1806 JUMP JUMPDEST JUMPDEST PUSH1 0x0 PUSH2 0x1920 DUP6 DUP3 DUP7 ADD PUSH2 0x18E6 JUMP JUMPDEST SWAP3 POP POP PUSH1 0x20 PUSH2 0x1931 DUP6 DUP3 DUP7 ADD PUSH2 0x1831 JUMP JUMPDEST SWAP2 POP POP SWAP3 POP SWAP3 SWAP1 POP JUMP JUMPDEST PUSH1 0x0 DUP1 PUSH1 0x0 PUSH1 0x60 DUP5 DUP7 SUB SLT ISZERO PUSH2 0x1954 JUMPI PUSH2 0x1953 PUSH2 0x1806 JUMP JUMPDEST JUMPDEST PUSH1 0x0 PUSH2 0x1962 DUP7 DUP3 DUP8 ADD PUSH2 0x18E6 JUMP JUMPDEST SWAP4 POP POP PUSH1 0x20 PUSH2 0x1973 DUP7 DUP3 DUP8 ADD PUSH2 0x18E6 JUMP JUMPDEST SWAP3 POP POP PUSH1 0x40 PUSH2 0x1984 DUP7 DUP3 DUP8 ADD PUSH2 0x1831 JUMP JUMPDEST SWAP2 POP POP SWAP3 POP SWAP3 POP SWAP3 JUMP JUMPDEST PUSH1 0x0 DUP1 REVERT JUMPDEST PUSH1 0x0 DUP1 REVERT JUMPDEST PUSH32 0x4E487B7100000000000000000000000000000000000000000000000000000000 PUSH1 0x0 MSTORE PUSH1 0x41 PUSH1 0x4 MSTORE PUSH1 0x24 PUSH1 0x0 REVERT JUMPDEST PUSH2 0x19D0 DUP3 PUSH2 0x1790 JUMP JUMPDEST DUP2 ADD DUP2 DUP2 LT PUSH8 0xFFFFFFFFFFFFFFFF DUP3 GT OR ISZERO PUSH2 0x19EF JUMPI PUSH2 0x19EE PUSH2 0x1998 JUMP JUMPDEST JUMPDEST DUP1 PUSH1 0x40 MSTORE POP POP POP JUMP JUMPDEST PUSH1 0x0 PUSH2 0x1A02 PUSH2 0x17FC JUMP JUMPDEST SWAP1 POP PUSH2 0x1A0E DUP3 DUP3 PUSH2 0x19C7 JUMP JUMPDEST SWAP2 SWAP1 POP JUMP JUMPDEST PUSH1 0x0 PUSH8 0xFFFFFFFFFFFFFFFF DUP3 GT ISZERO PUSH2 0x1A2E JUMPI PUSH2 0x1A2D PUSH2 0x1998 JUMP JUMPDEST JUMPDEST PUSH2 0x1A37 DUP3 PUSH2 0x1790 JUMP JUMPDEST SWAP1 POP PUSH1 0x20 DUP2 ADD SWAP1 POP SWAP2 SWAP1 POP JUMP JUMPDEST DUP3 DUP2 DUP4 CALLDATACOPY PUSH1 0x0 DUP4 DUP4 ADD MSTORE POP POP POP JUMP JUMPDEST PUSH1 0x0 PUSH2 0x1A66 PUSH2 0x1A61 DUP5 PUSH2 0x1A13 JUMP JUMPDEST PUSH2 0x19F8 JUMP JUMPDEST SWAP1 POP DUP3 DUP2 MSTORE PUSH1 0x20 DUP2 ADD DUP5 DUP5 DUP5 ADD GT ISZERO PUSH2 0x1A82 JUMPI PUSH2 0x1A81 PUSH2 0x1993 JUMP JUMPDEST JUMPDEST PUSH2 0x1A8D DUP5 DUP3 DUP6 PUSH2 0x1A44 JUMP JUMPDEST POP SWAP4 SWAP3 POP POP POP JUMP JUMPDEST PUSH1 0x0 DUP3 PUSH1 0x1F DUP4 ADD SLT PUSH2 0x1AAA JUMPI PUSH2 0x1AA9 PUSH2 0x198E JUMP JUMPDEST JUMPDEST DUP2 CALLDATALOAD PUSH2 0x1ABA DUP5 DUP3 PUSH1 0x20 DUP7 ADD PUSH2 0x1A53 JUMP JUMPDEST SWAP2 POP POP SWAP3 SWAP2 POP POP JUMP JUMPDEST PUSH1 0x0 PUSH1 0x20 DUP3 DUP5 SUB SLT ISZERO PUSH2 0x1AD9 JUMPI PUSH2 0x1AD8 PUSH2 0x1806 JUMP JUMPDEST JUMPDEST PUSH1 0x0 DUP3 ADD CALLDATALOAD PUSH8 0xFFFFFFFFFFFFFFFF DUP2 GT ISZERO PUSH2 0x1AF7 JUMPI PUSH2 0x1AF6 PUSH2 0x180B JUMP JUMPDEST JUMPDEST PUSH2 0x1B03 DUP5 DUP3 DUP6 ADD PUSH2 0x1A95 JUMP JUMPDEST SWAP2 POP POP SWAP3 SWAP2 POP POP JUMP JUMPDEST PUSH2 0x1B15 DUP2 PUSH2 0x1810 JUMP JUMPDEST DUP3 MSTORE POP POP JUMP JUMPDEST PUSH1 0x0 PUSH1 0x20 DUP3 ADD SWAP1 POP PUSH2 0x1B30 PUSH1 0x0 DUP4 ADD DUP5 PUSH2 0x1B0C JUMP JUMPDEST SWAP3 SWAP2 POP POP JUMP JUMPDEST PUSH1 0x0 PUSH1 0x20 DUP3 DUP5 SUB SLT ISZERO PUSH2 0x1B4C JUMPI PUSH2 0x1B4B PUSH2 0x1806 JUMP JUMPDEST JUMPDEST PUSH1 0x0 PUSH2 0x1B5A DUP5 DUP3 DUP6 ADD PUSH2 0x18E6 JUMP JUMPDEST SWAP2 POP POP SWAP3 SWAP2 POP POP JUMP JUMPDEST PUSH1 0x0 DUP1 PUSH1 0x40 DUP4 DUP6 SUB SLT ISZERO PUSH2 0x1B7A JUMPI PUSH2 0x1B79 PUSH2 0x1806 JUMP JUMPDEST JUMPDEST PUSH1 0x0 PUSH2 0x1B88 DUP6 DUP3 DUP7 ADD PUSH2 0x18E6 JUMP JUMPDEST SWAP3 POP POP PUSH1 0x20 DUP4 ADD CALLDATALOAD PUSH8 0xFFFFFFFFFFFFFFFF DUP2 GT ISZERO PUSH2 0x1BA9 JUMPI PUSH2 0x1BA8 PUSH2 0x180B JUMP JUMPDEST JUMPDEST PUSH2 0x1BB5 DUP6 DUP3 DUP7 ADD PUSH2 0x1A95 JUMP JUMPDEST SWAP2 POP POP SWAP3 POP SWAP3 SWAP1 POP JUMP JUMPDEST PUSH1 0x0 PUSH8 0xFFFFFFFFFFFFFFFF DUP3 GT ISZERO PUSH2 0x1BDA JUMPI PUSH2 0x1BD9 PUSH2 0x1998 JUMP JUMPDEST JUMPDEST PUSH2 0x1BE3 DUP3 PUSH2 0x1790 JUMP JUMPDEST SWAP1 POP PUSH1 0x20 DUP2 ADD SWAP1 POP SWAP2 SWAP1 POP JUMP JUMPDEST PUSH1 0x0 PUSH2 0x1C03 PUSH2 0x1BFE DUP5 PUSH2 0x1BBF JUMP JUMPDEST PUSH2 0x19F8 JUMP JUMPDEST SWAP1 POP DUP3 DUP2 MSTORE PUSH1 0x20 DUP2 ADD DUP5 DUP5 DUP5 ADD GT ISZERO PUSH2 0x1C1F JUMPI PUSH2 0x1C1E PUSH2 0x1993 JUMP JUMPDEST JUMPDEST PUSH2 0x1C2A DUP5 DUP3 DUP6 PUSH2 0x1A44 JUMP JUMPDEST POP SWAP4 SWAP3 POP POP POP JUMP JUMPDEST PUSH1 0x0 DUP3 PUSH1 0x1F DUP4 ADD SLT PUSH2 0x1C47 JUMPI PUSH2 0x1C46 PUSH2 0x198E JUMP JUMPDEST JUMPDEST DUP2 CALLDATALOAD PUSH2 0x1C57 DUP5 DUP3 PUSH1 0x20 DUP7 ADD PUSH2 0x1BF0 JUMP JUMPDEST SWAP2 POP POP SWAP3 SWAP2 POP POP JUMP JUMPDEST PUSH1 0x0 DUP1 PUSH1 0x0 DUP1 PUSH1 0x80 DUP6 DUP8 SUB SLT ISZERO PUSH2 0x1C7A JUMPI PUSH2 0x1C79 PUSH2 0x1806 JUMP JUMPDEST JUMPDEST PUSH1 0x0 PUSH2 0x1C88 DUP8 DUP3 DUP9 ADD PUSH2 0x18E6 JUMP JUMPDEST SWAP5 POP POP PUSH1 0x20 PUSH2 0x1C99 DUP8 DUP3 DUP9 ADD PUSH2 0x18E6 JUMP JUMPDEST SWAP4 POP POP PUSH1 0x40 PUSH2 0x1CAA DUP8 DUP3 DUP9 ADD PUSH2 0x1831 JUMP JUMPDEST SWAP3 POP POP PUSH1 0x60 DUP6 ADD CALLDATALOAD PUSH8 0xFFFFFFFFFFFFFFFF DUP2 GT ISZERO PUSH2 0x1CCB JUMPI PUSH2 0x1CCA PUSH2 0x180B JUMP JUMPDEST JUMPDEST PUSH2 0x1CD7 DUP8 DUP3 DUP9 ADD PUSH2 0x1C32 JUMP JUMPDEST SWAP2 POP POP SWAP3 SWAP6 SWAP2 SWAP5 POP SWAP3 POP JUMP JUMPDEST PUSH32 0x4E487B7100000000000000000000000000000000000000000000000000000000 PUSH1 0x0 MSTORE PUSH1 0x22 PUSH1 0x4 MSTORE PUSH1 0x24 PUSH1 0x0 REVERT JUMPDEST PUSH1 0x0 PUSH1 0x2 DUP3 DIV SWAP1 POP PUSH1 0x1 DUP3 AND DUP1 PUSH2 0x1D2A JUMPI PUSH1 0x7F DUP3 AND SWAP2 POP JUMPDEST PUSH1 0x20 DUP3 LT DUP2 SUB PUSH2 0x1D3D JUMPI PUSH2 0x1D3C PUSH2 0x1CE3 JUMP JUMPDEST JUMPDEST POP SWAP2 SWAP1 POP JUMP JUMPDEST PUSH32 0x4552433732313A20617070726F76656420717565727920666F72206E6F6E6578 PUSH1 0x0 DUP3 ADD MSTORE PUSH32 0x697374656E7420746F6B656E0000000000000000000000000000000000000000 PUSH1 0x20 DUP3 ADD MSTORE POP JUMP JUMPDEST PUSH1 0x0 PUSH2 0x1D9F PUSH1 0x2C DUP4 PUSH2 0x174C JUMP JUMPDEST SWAP2 POP PUSH2 0x1DAA DUP3 PUSH2 0x1D43 JUMP JUMPDEST PUSH1 0x40 DUP3 ADD SWAP1 POP SWAP2 SWAP1 POP JUMP JUMPDEST PUSH1 0x0 PUSH1 0x20 DUP3 ADD SWAP1 POP DUP2 DUP2 SUB PUSH1 0x0 DUP4 ADD MSTORE PUSH2 0x1DCE DUP2 PUSH2 0x1D92 JUMP JUMPDEST SWAP1 POP SWAP2 SWAP1 POP JUMP JUMPDEST PUSH32 0x4552433732313A20617070726F76616C20746F2063757272656E74206F776E65 PUSH1 0x0 DUP3 ADD MSTORE PUSH32 0x7200000000000000000000000000000000000000000000000000000000000000 PUSH1 0x20 DUP3 ADD MSTORE POP JUMP JUMPDEST PUSH1 0x0 PUSH2 0x1E31 PUSH1 0x21 DUP4 PUSH2 0x174C JUMP JUMPDEST SWAP2 POP PUSH2 0x1E3C DUP3 PUSH2 0x1DD5 JUMP JUMPDEST PUSH1 0x40 DUP3 ADD SWAP1 POP SWAP2 SWAP1 POP JUMP JUMPDEST PUSH1 0x0 PUSH1 0x20 DUP3 ADD SWAP1 POP DUP2 DUP2 SUB PUSH1 0x0 DUP4 ADD MSTORE PUSH2 0x1E60 DUP2 PUSH2 0x1E24 JUMP JUMPDEST SWAP1 POP SWAP2 SWAP1 POP JUMP JUMPDEST PUSH32 0x4552433732313A20617070726F76652063616C6C6572206973206E6F74206F77 PUSH1 0x0 DUP3 ADD MSTORE PUSH32 0x6E6572206E6F7220617070726F76656420666F7220616C6C0000000000000000 PUSH1 0x20 DUP3 ADD MSTORE POP JUMP JUMPDEST PUSH1 0x0 PUSH2 0x1EC3 PUSH1 0x38 DUP4 PUSH2 0x174C JUMP JUMPDEST SWAP2 POP PUSH2 0x1ECE DUP3 PUSH2 0x1E67 JUMP JUMPDEST PUSH1 0x40 DUP3 ADD SWAP1 POP SWAP2 SWAP1 POP JUMP JUMPDEST PUSH1 0x0 PUSH1 0x20 DUP3 ADD SWAP1 POP DUP2 DUP2 SUB PUSH1 0x0 DUP4 ADD MSTORE PUSH2 0x1EF2 DUP2 PUSH2 0x1EB6 JUMP JUMPDEST SWAP1 POP SWAP2 SWAP1 POP JUMP JUMPDEST PUSH32 0x4552433732313A207472616E736665722063616C6C6572206973206E6F74206F PUSH1 0x0 DUP3 ADD MSTORE PUSH32 0x776E6572206E6F7220617070726F766564000000000000000000000000000000 PUSH1 0x20 DUP3 ADD MSTORE POP JUMP JUMPDEST PUSH1 0x0 PUSH2 0x1F55 PUSH1 0x31 DUP4 PUSH2 0x174C JUMP JUMPDEST SWAP2 POP PUSH2 0x1F60 DUP3 PUSH2 0x1EF9 JUMP JUMPDEST PUSH1 0x40 DUP3 ADD SWAP1 POP SWAP2 SWAP1 POP JUMP JUMPDEST PUSH1 0x0 PUSH1 0x20 DUP3 ADD SWAP1 POP DUP2 DUP2 SUB PUSH1 0x0 DUP4 ADD MSTORE PUSH2 0x1F84 DUP2 PUSH2 0x1F48 JUMP JUMPDEST SWAP1 POP SWAP2 SWAP1 POP JUMP JUMPDEST PUSH32 0x4F776E61626C653A2063616C6C6572206973206E6F7420746865206F776E6572 PUSH1 0x0 DUP3 ADD MSTORE POP JUMP JUMPDEST PUSH1 0x0 PUSH2 0x1FC1 PUSH1 0x20 DUP4 PUSH2 0x174C JUMP JUMPDEST SWAP2 POP PUSH2 0x1FCC DUP3 PUSH2 0x1F8B JUMP JUMPDEST PUSH1 0x20 DUP3 ADD SWAP1 POP SWAP2 SWAP1 POP JUMP JUMPDEST PUSH1 0x0 PUSH1 0x20 DUP3 ADD SWAP1 POP DUP2 DUP2 SUB PUSH1 0x0 DUP4 ADD MSTORE PUSH2 0x1FF0 DUP2 PUSH2 0x1FB4 JUMP JUMPDEST SWAP1 POP SWAP2 SWAP1 POP JUMP JUMPDEST PUSH32 0x4552433732313A206F776E657220717565727920666F72206E6F6E6578697374 PUSH1 0x0 DUP3 ADD MSTORE PUSH32 0x656E7420746F6B656E0000000000000000000000000000000000000000000000 PUSH1 0x20 DUP3 ADD MSTORE POP JUMP JUMPDEST PUSH1 0x0 PUSH2 0x2053 PUSH1 0x29 DUP4 PUSH2 0x174C JUMP JUMPDEST SWAP2 POP PUSH2 0x205E DUP3 PUSH2 0x1FF7 JUMP JUMPDEST PUSH1 0x40 DUP3 ADD SWAP1 POP SWAP2 SWAP1 POP JUMP JUMPDEST PUSH1 0x0 PUSH1 0x20 DUP3 ADD SWAP1 POP DUP2 DUP2 SUB PUSH1 0x0 DUP4 ADD MSTORE PUSH2 0x2082 DUP2 PUSH2 0x2046 JUMP JUMPDEST SWAP1 POP SWAP2 SWAP1 POP JUMP JUMPDEST PUSH32 0x4552433732313A2062616C616E636520717565727920666F7220746865207A65 PUSH1 0x0 DUP3 ADD MSTORE PUSH32 0x726F206164647265737300000000000000000000000000000000000000000000 PUSH1 0x20 DUP3 ADD MSTORE POP JUMP JUMPDEST PUSH1 0x0 PUSH2 0x20E5 PUSH1 0x2A DUP4 PUSH2 0x174C JUMP JUMPDEST SWAP2 POP PUSH2 0x20F0 DUP3 PUSH2 0x2089 JUMP JUMPDEST PUSH1 0x40 DUP3 ADD SWAP1 POP SWAP2 SWAP1 POP JUMP JUMPDEST PUSH1 0x0 PUSH1 0x20 DUP3 ADD SWAP1 POP DUP2 DUP2 SUB PUSH1 0x0 DUP4 ADD MSTORE PUSH2 0x2114 DUP2 PUSH2 0x20D8 JUMP JUMPDEST SWAP1 POP SWAP2 SWAP1 POP JUMP JUMPDEST PUSH32 0x4E487B7100000000000000000000000000000000000000000000000000000000 PUSH1 0x0 MSTORE PUSH1 0x11 PUSH1 0x4 MSTORE PUSH1 0x24 PUSH1 0x0 REVERT JUMPDEST PUSH1 0x0 PUSH2 0x2155 DUP3 PUSH2 0x1810 JUMP JUMPDEST SWAP2 POP PUSH32 0xFFFFFFFFFFFFFFFFFFFFFFFFFFFFFFFFFFFFFFFFFFFFFFFFFFFFFFFFFFFFFFFF DUP3 SUB PUSH2 0x2187 JUMPI PUSH2 0x2186 PUSH2 0x211B JUMP JUMPDEST JUMPDEST PUSH1 0x1 DUP3 ADD SWAP1 POP SWAP2 SWAP1 POP JUMP JUMPDEST PUSH32 0x4552433732314D657461646174613A2055524920717565727920666F72206E6F PUSH1 0x0 DUP3 ADD MSTORE PUSH32 0x6E6578697374656E7420746F6B656E0000000000000000000000000000000000 PUSH1 0x20 DUP3 ADD MSTORE POP JUMP JUMPDEST PUSH1 0x0 PUSH2 0x21EE PUSH1 0x2F DUP4 PUSH2 0x174C JUMP JUMPDEST SWAP2 POP PUSH2 0x21F9 DUP3 PUSH2 0x2192 JUMP JUMPDEST PUSH1 0x40 DUP3 ADD SWAP1 POP SWAP2 SWAP1 POP JUMP JUMPDEST PUSH1 0x0 PUSH1 0x20 DUP3 ADD SWAP1 POP DUP2 DUP2 SUB PUSH1 0x0 DUP4 ADD MSTORE PUSH2 0x221D DUP2 PUSH2 0x21E1 JUMP JUMPDEST SWAP1 POP SWAP2 SWAP1 POP JUMP JUMPDEST PUSH1 0x0 DUP2 SWAP1 POP SWAP3 SWAP2 POP POP JUMP JUMPDEST PUSH1 0x0 PUSH2 0x223A DUP3 PUSH2 0x1741 JUMP JUMPDEST PUSH2 0x2244 DUP2 DUP6 PUSH2 0x2224 JUMP JUMPDEST SWAP4 POP PUSH2 0x2254 DUP2 DUP6 PUSH1 0x20 DUP7 ADD PUSH2 0x175D JUMP JUMPDEST DUP1 DUP5 ADD SWAP2 POP POP SWAP3 SWAP2 POP POP JUMP JUMPDEST PUSH1 0x0 PUSH2 0x226C DUP3 DUP6 PUSH2 0x222F JUMP JUMPDEST SWAP2 POP PUSH2 0x2278 DUP3 DUP5 PUSH2 0x222F JUMP JUMPDEST SWAP2 POP DUP2 SWAP1 POP SWAP4 SWAP3 POP POP POP JUMP JUMPDEST PUSH32 0x4F776E61626C653A206E6577206F776E657220697320746865207A65726F2061 PUSH1 0x0 DUP3 ADD MSTORE PUSH32 0x6464726573730000000000000000000000000000000000000000000000000000 PUSH1 0x20 DUP3 ADD MSTORE POP JUMP JUMPDEST PUSH1 0x0 PUSH2 0x22E0 PUSH1 0x26 DUP4 PUSH2 0x174C JUMP JUMPDEST SWAP2 POP PUSH2 0x22EB DUP3 PUSH2 0x2284 JUMP JUMPDEST PUSH1 0x40 DUP3 ADD SWAP1 POP SWAP2 SWAP1 POP JUMP JUMPDEST PUSH1 0x0 PUSH1 0x20 DUP3 ADD SWAP1 POP DUP2 DUP2 SUB PUSH1 0x0 DUP4 ADD MSTORE PUSH2 0x230F DUP2 PUSH2 0x22D3 JUMP JUMPDEST SWAP1 POP SWAP2 SWAP1 POP JUMP JUMPDEST PUSH32 0x4552433732313A206F70657261746F7220717565727920666F72206E6F6E6578 PUSH1 0x0 DUP3 ADD MSTORE PUSH32 0x697374656E7420746F6B656E0000000000000000000000000000000000000000 PUSH1 0x20 DUP3 ADD MSTORE POP JUMP JUMPDEST PUSH1 0x0 PUSH2 0x2372 PUSH1 0x2C DUP4 PUSH2 0x174C JUMP JUMPDEST SWAP2 POP PUSH2 0x237D DUP3 PUSH2 0x2316 JUMP JUMPDEST PUSH1 0x40 DUP3 ADD SWAP1 POP SWAP2 SWAP1 POP JUMP JUMPDEST PUSH1 0x0 PUSH1 0x20 DUP3 ADD SWAP1 POP DUP2 DUP2 SUB PUSH1 0x0 DUP4 ADD MSTORE PUSH2 0x23A1 DUP2 PUSH2 0x2365 JUMP JUMPDEST SWAP1 POP SWAP2 SWAP1 POP JUMP JUMPDEST PUSH32 0x4552433732313A207472616E736665722066726F6D20696E636F727265637420 PUSH1 0x0 DUP3 ADD MSTORE PUSH32 0x6F776E6572000000000000000000000000000000000000000000000000000000 PUSH1 0x20 DUP3 ADD MSTORE POP JUMP JUMPDEST PUSH1 0x0 PUSH2 0x2404 PUSH1 0x25 DUP4 PUSH2 0x174C JUMP JUMPDEST SWAP2 POP PUSH2 0x240F DUP3 PUSH2 0x23A8 JUMP JUMPDEST PUSH1 0x40 DUP3 ADD SWAP1 POP SWAP2 SWAP1 POP JUMP JUMPDEST PUSH1 0x0 PUSH1 0x20 DUP3 ADD SWAP1 POP DUP2 DUP2 SUB PUSH1 0x0 DUP4 ADD MSTORE PUSH2 0x2433 DUP2 PUSH2 0x23F7 JUMP JUMPDEST SWAP1 POP SWAP2 SWAP1 POP JUMP JUMPDEST PUSH32 0x4552433732313A207472616E7366657220746F20746865207A65726F20616464 PUSH1 0x0 DUP3 ADD MSTORE PUSH32 0x7265737300000000000000000000000000000000000000000000000000000000 PUSH1 0x20 DUP3 ADD MSTORE POP JUMP JUMPDEST PUSH1 0x0 PUSH2 0x2496 PUSH1 0x24 DUP4 PUSH2 0x174C JUMP JUMPDEST SWAP2 POP PUSH2 0x24A1 DUP3 PUSH2 0x243A JUMP JUMPDEST PUSH1 0x40 DUP3 ADD SWAP1 POP SWAP2 SWAP1 POP JUMP JUMPDEST PUSH1 0x0 PUSH1 0x20 DUP3 ADD SWAP1 POP DUP2 DUP2 SUB PUSH1 0x0 DUP4 ADD MSTORE PUSH2 0x24C5 DUP2 PUSH2 0x2489 JUMP JUMPDEST SWAP1 POP SWAP2 SWAP1 POP JUMP JUMPDEST PUSH1 0x0 PUSH2 0x24D7 DUP3 PUSH2 0x1810 JUMP JUMPDEST SWAP2 POP PUSH2 0x24E2 DUP4 PUSH2 0x1810 JUMP JUMPDEST SWAP3 POP DUP3 DUP3 LT ISZERO PUSH2 0x24F5 JUMPI PUSH2 0x24F4 PUSH2 0x211B JUMP JUMPDEST JUMPDEST DUP3 DUP3 SUB SWAP1 POP SWAP3 SWAP2 POP POP JUMP JUMPDEST PUSH1 0x0 PUSH2 0x250B DUP3 PUSH2 0x1810 JUMP JUMPDEST SWAP2 POP PUSH2 0x2516 DUP4 PUSH2 0x1810 JUMP JUMPDEST SWAP3 POP DUP3 PUSH32 0xFFFFFFFFFFFFFFFFFFFFFFFFFFFFFFFFFFFFFFFFFFFFFFFFFFFFFFFFFFFFFFFF SUB DUP3 GT ISZERO PUSH2 0x254B JUMPI PUSH2 0x254A PUSH2 0x211B JUMP JUMPDEST JUMPDEST DUP3 DUP3 ADD SWAP1 POP SWAP3 SWAP2 POP POP JUMP JUMPDEST PUSH32 0x4552433732314D657461646174613A2055524920736574206F66206E6F6E6578 PUSH1 0x0 DUP3 ADD MSTORE PUSH32 0x697374656E7420746F6B656E0000000000000000000000000000000000000000 PUSH1 0x20 DUP3 ADD MSTORE POP JUMP JUMPDEST PUSH1 0x0 PUSH2 0x25B2 PUSH1 0x2C DUP4 PUSH2 0x174C JUMP JUMPDEST SWAP2 POP PUSH2 0x25BD DUP3 PUSH2 0x2556 JUMP JUMPDEST PUSH1 0x40 DUP3 ADD SWAP1 POP SWAP2 SWAP1 POP JUMP JUMPDEST PUSH1 0x0 PUSH1 0x20 DUP3 ADD SWAP1 POP DUP2 DUP2 SUB PUSH1 0x0 DUP4 ADD MSTORE PUSH2 0x25E1 DUP2 PUSH2 0x25A5 JUMP JUMPDEST SWAP1 POP SWAP2 SWAP1 POP JUMP JUMPDEST PUSH32 0x4552433732313A207472616E7366657220746F206E6F6E204552433732315265 PUSH1 0x0 DUP3 ADD MSTORE PUSH32 0x63656976657220696D706C656D656E7465720000000000000000000000000000 PUSH1 0x20 DUP3 ADD MSTORE POP JUMP JUMPDEST PUSH1 0x0 PUSH2 0x2644 PUSH1 0x32 DUP4 PUSH2 0x174C JUMP JUMPDEST SWAP2 POP PUSH2 0x264F DUP3 PUSH2 0x25E8 JUMP JUMPDEST PUSH1 0x40 DUP3 ADD SWAP1 POP SWAP2 SWAP1 POP JUMP JUMPDEST PUSH1 0x0 PUSH1 0x20 DUP3 ADD SWAP1 POP DUP2 DUP2 SUB PUSH1 0x0 DUP4 ADD MSTORE PUSH2 0x2673 DUP2 PUSH2 0x2637 JUMP JUMPDEST SWAP1 POP SWAP2 SWAP1 POP JUMP JUMPDEST PUSH32 0x4E487B7100000000000000000000000000000000000000000000000000000000 PUSH1 0x0 MSTORE PUSH1 0x12 PUSH1 0x4 MSTORE PUSH1 0x24 PUSH1 0x0 REVERT JUMPDEST PUSH1 0x0 PUSH2 0x26B4 DUP3 PUSH2 0x1810 JUMP JUMPDEST SWAP2 POP PUSH2 0x26BF DUP4 PUSH2 0x1810 JUMP JUMPDEST SWAP3 POP DUP3 PUSH2 0x26CF JUMPI PUSH2 0x26CE PUSH2 0x267A JUMP JUMPDEST JUMPDEST DUP3 DUP3 DIV SWAP1 POP SWAP3 SWAP2 POP POP JUMP JUMPDEST PUSH1 0x0 PUSH2 0x26E5 DUP3 PUSH2 0x1810 JUMP JUMPDEST SWAP2 POP PUSH2 0x26F0 DUP4 PUSH2 0x1810 JUMP JUMPDEST SWAP3 POP DUP3 PUSH2 0x2700 JUMPI PUSH2 0x26FF PUSH2 0x267A JUMP JUMPDEST JUMPDEST DUP3 DUP3 MOD SWAP1 POP SWAP3 SWAP2 POP POP JUMP JUMPDEST PUSH32 0x4E487B7100000000000000000000000000000000000000000000000000000000 PUSH1 0x0 MSTORE PUSH1 0x32 PUSH1 0x4 MSTORE PUSH1 0x24 PUSH1 0x0 REVERT JUMPDEST PUSH32 0x4552433732313A207472616E73666572206E6F74206F776E657220746F6B656E PUSH1 0x0 DUP3 ADD MSTORE POP JUMP JUMPDEST PUSH1 0x0 PUSH2 0x2770 PUSH1 0x20 DUP4 PUSH2 0x174C JUMP JUMPDEST SWAP2 POP PUSH2 0x277B DUP3 PUSH2 0x273A JUMP JUMPDEST PUSH1 0x20 DUP3 ADD SWAP1 POP SWAP2 SWAP1 POP JUMP JUMPDEST PUSH1 0x0 PUSH1 0x20 DUP3 ADD SWAP1 POP DUP2 DUP2 SUB PUSH1 0x0 DUP4 ADD MSTORE PUSH2 0x279F DUP2 PUSH2 0x2763 JUMP JUMPDEST SWAP1 POP SWAP2 SWAP1 POP JUMP JUMPDEST PUSH1 0x0 DUP2 MLOAD SWAP1 POP SWAP2 SWAP1 POP JUMP JUMPDEST PUSH1 0x0 DUP3 DUP3 MSTORE PUSH1 0x20 DUP3 ADD SWAP1 POP SWAP3 SWAP2 POP POP JUMP JUMPDEST PUSH1 0x0 PUSH2 0x27CD DUP3 PUSH2 0x27A6 JUMP JUMPDEST PUSH2 0x27D7 DUP2 DUP6 PUSH2 0x27B1 JUMP JUMPDEST SWAP4 POP PUSH2 0x27E7 DUP2 DUP6 PUSH1 0x20 DUP7 ADD PUSH2 0x175D JUMP JUMPDEST PUSH2 0x27F0 DUP2 PUSH2 0x1790 JUMP JUMPDEST DUP5 ADD SWAP2 POP POP SWAP3 SWAP2 POP POP JUMP JUMPDEST PUSH1 0x0 PUSH1 0x80 DUP3 ADD SWAP1 POP PUSH2 0x2810 PUSH1 0x0 DUP4 ADD DUP8 PUSH2 0x18A5 JUMP JUMPDEST PUSH2 0x281D PUSH1 0x20 DUP4 ADD DUP7 PUSH2 0x18A5 JUMP JUMPDEST PUSH2 0x282A PUSH1 0x40 DUP4 ADD DUP6 PUSH2 0x1B0C JUMP JUMPDEST DUP2 DUP2 SUB PUSH1 0x60 DUP4 ADD MSTORE PUSH2 0x283C DUP2 DUP5 PUSH2 0x27C2 JUMP JUMPDEST SWAP1 POP SWAP6 SWAP5 POP POP POP POP POP JUMP JUMPDEST PUSH1 0x0 PUSH32 0xFFFFFFFF00000000000000000000000000000000000000000000000000000000 DUP3 AND SWAP1 POP SWAP2 SWAP1 POP JUMP JUMPDEST PUSH2 0x287C DUP2 PUSH2 0x2847 JUMP JUMPDEST DUP2 EQ PUSH2 0x2887 JUMPI PUSH1 0x0 DUP1 REVERT JUMPDEST POP JUMP JUMPDEST PUSH1 0x0 DUP2 MLOAD SWAP1 POP PUSH2 0x2899 DUP2 PUSH2 0x2873 JUMP JUMPDEST SWAP3 SWAP2 POP POP JUMP JUMPDEST PUSH1 0x0 PUSH1 0x20 DUP3 DUP5 SUB SLT ISZERO PUSH2 0x28B5 JUMPI PUSH2 0x28B4 PUSH2 0x1806 JUMP JUMPDEST JUMPDEST PUSH1 0x0 PUSH2 0x28C3 DUP5 DUP3 DUP6 ADD PUSH2 0x288A JUMP JUMPDEST SWAP2 POP POP SWAP3 SWAP2 POP POP JUMP INVALID LOG2 PUSH5 0x6970667358 0x22 SLT KECCAK256 MULMOD 0x1F SWAP9 0x25 DUP8 0xDE PUSH26 0x13AA620A3F61557E95CE05B14366D014F0097367D48D9AA7FC64 PUSH20 0x6F6C634300080D00330000000000000000000000 "
				},
				"gasEstimates": {
					"creation": {
						"codeDepositCost": "2099600",
						"executionCost": "infinite",
						"totalCost": "infinite"
					},
					"external": {
						"approve(address,uint256)": "infinite",
						"balanceOf(address)": "2899",
						"getApproved(uint256)": "5206",
						"name()": "infinite",
						"newItem(address,string)": "infinite",
						"nextId()": "2496",
						"owner()": "2611",
						"ownerOf(uint256)": "3063",
						"renounceOwnership()": "30419",
						"safeTransferFrom(address,address,uint256)": "infinite",
						"safeTransferFrom(address,address,uint256,bytes)": "infinite",
						"setBaseURI(string)": "infinite",
						"symbol()": "infinite",
						"tokenURI(uint256)": "infinite",
						"transferFrom(address,address,uint256)": "infinite",
						"transferOwnership(address)": "30808"
					},
					"internal": {
						"_baseURI()": "infinite",
						"_setTokenURI(uint256,string memory)": "infinite"
					}
				},
				"methodIdentifiers": {
					"approve(address,uint256)": "095ea7b3",
					"balanceOf(address)": "70a08231",
					"getApproved(uint256)": "081812fc",
					"name()": "06fdde03",
					"newItem(address,string)": "89f05761",
					"nextId()": "61b8ce8c",
					"owner()": "8da5cb5b",
					"ownerOf(uint256)": "6352211e",
					"renounceOwnership()": "715018a6",
					"safeTransferFrom(address,address,uint256)": "42842e0e",
					"safeTransferFrom(address,address,uint256,bytes)": "b88d4fde",
					"setBaseURI(string)": "55f804b3",
					"symbol()": "95d89b41",
					"tokenURI(uint256)": "c87b56dd",
					"transferFrom(address,address,uint256)": "23b872dd",
					"transferOwnership(address)": "f2fde38b"
				}
			},
			"storageLayout": {
				"storage": [
					{
						"astId": 516,
						"contract": "contracts/NFT_Demo/NFT.sol:SQFItem",
						"label": "_owner",
						"offset": 0,
						"slot": "0",
						"type": "t_address"
					},
					{
						"astId": 731,
						"contract": "contracts/NFT_Demo/NFT.sol:SQFItem",
						"label": "_balances",
						"offset": 0,
						"slot": "1",
						"type": "t_mapping(t_address,t_uint256)"
					},
					{
						"astId": 735,
						"contract": "contracts/NFT_Demo/NFT.sol:SQFItem",
						"label": "_owners",
						"offset": 0,
						"slot": "2",
						"type": "t_mapping(t_uint256,t_address)"
					},
					{
						"astId": 739,
						"contract": "contracts/NFT_Demo/NFT.sol:SQFItem",
						"label": "_tokenURIs",
						"offset": 0,
						"slot": "3",
						"type": "t_mapping(t_uint256,t_address)"
					},
					{
						"astId": 743,
						"contract": "contracts/NFT_Demo/NFT.sol:SQFItem",
						"label": "_tokenApprovals",
						"offset": 0,
						"slot": "4",
						"type": "t_mapping(t_uint256,t_address)"
					},
					{
						"astId": 749,
						"contract": "contracts/NFT_Demo/NFT.sol:SQFItem",
						"label": "_operatorApprovals",
						"offset": 0,
						"slot": "5",
						"type": "t_mapping(t_address,t_mapping(t_address,t_bool))"
					},
					{
						"astId": 751,
						"contract": "contracts/NFT_Demo/NFT.sol:SQFItem",
						"label": "_name",
						"offset": 0,
						"slot": "6",
						"type": "t_string_storage"
					},
					{
						"astId": 753,
						"contract": "contracts/NFT_Demo/NFT.sol:SQFItem",
						"label": "_symbol",
						"offset": 0,
						"slot": "7",
						"type": "t_string_storage"
					},
					{
						"astId": 755,
						"contract": "contracts/NFT_Demo/NFT.sol:SQFItem",
						"label": "_tokenURIBase",
						"offset": 0,
						"slot": "8",
						"type": "t_string_storage"
					},
					{
						"astId": 1489,
						"contract": "contracts/NFT_Demo/NFT.sol:SQFItem",
						"label": "_baseURIextended",
						"offset": 0,
						"slot": "9",
						"type": "t_string_storage"
					},
					{
						"astId": 1492,
						"contract": "contracts/NFT_Demo/NFT.sol:SQFItem",
						"label": "nextId",
						"offset": 0,
						"slot": "10",
						"type": "t_uint256"
					},
					{
						"astId": 1496,
						"contract": "contracts/NFT_Demo/NFT.sol:SQFItem",
						"label": "weapons",
						"offset": 0,
						"slot": "11",
						"type": "t_mapping(t_uint256,t_address)"
					},
					{
						"astId": 1500,
						"contract": "contracts/NFT_Demo/NFT.sol:SQFItem",
						"label": "_tokenURIs",
						"offset": 0,
						"slot": "12",
						"type": "t_mapping(t_uint256,t_string_storage)"
					}
				],
				"types": {
					"t_address": {
						"encoding": "inplace",
						"label": "address",
						"numberOfBytes": "20"
					},
					"t_bool": {
						"encoding": "inplace",
						"label": "bool",
						"numberOfBytes": "1"
					},
					"t_mapping(t_address,t_bool)": {
						"encoding": "mapping",
						"key": "t_address",
						"label": "mapping(address => bool)",
						"numberOfBytes": "32",
						"value": "t_bool"
					},
					"t_mapping(t_address,t_mapping(t_address,t_bool))": {
						"encoding": "mapping",
						"key": "t_address",
						"label": "mapping(address => mapping(address => bool))",
						"numberOfBytes": "32",
						"value": "t_mapping(t_address,t_bool)"
					},
					"t_mapping(t_address,t_uint256)": {
						"encoding": "mapping",
						"key": "t_address",
						"label": "mapping(address => uint256)",
						"numberOfBytes": "32",
						"value": "t_uint256"
					},
					"t_mapping(t_uint256,t_address)": {
						"encoding": "mapping",
						"key": "t_uint256",
						"label": "mapping(uint256 => address)",
						"numberOfBytes": "32",
						"value": "t_address"
					},
					"t_mapping(t_uint256,t_string_storage)": {
						"encoding": "mapping",
						"key": "t_uint256",
						"label": "mapping(uint256 => string)",
						"numberOfBytes": "32",
						"value": "t_string_storage"
					},
					"t_string_storage": {
						"encoding": "bytes",
						"label": "string",
						"numberOfBytes": "32"
					},
					"t_uint256": {
						"encoding": "inplace",
						"label": "uint256",
						"numberOfBytes": "32"
					}
				}
			},
			"userdoc": {
				"kind": "user",
				"methods": {},
				"version": 1
			}
		}
	}
}