{
	"contracts/NFT_Demo/NFT.sol": {
		"Token": {
			"abi": [
				{
					"inputs": [
						{
							"internalType": "string",
							"name": "name",
							"type": "string"
						},
						{
							"internalType": "string",
							"name": "symbol",
							"type": "string"
						}
					],
					"stateMutability": "nonpayable",
					"type": "constructor"
				},
				{
					"anonymous": false,
					"inputs": [
						{
							"indexed": true,
							"internalType": "address",
							"name": "owner",
							"type": "address"
						},
						{
							"indexed": true,
							"internalType": "address",
							"name": "approved",
							"type": "address"
						},
						{
							"indexed": true,
							"internalType": "uint256",
							"name": "tokenId",
							"type": "uint256"
						}
					],
					"name": "Approval",
					"type": "event"
				},
				{
					"anonymous": false,
					"inputs": [
						{
							"indexed": true,
							"internalType": "address",
							"name": "owner",
							"type": "address"
						},
						{
							"indexed": true,
							"internalType": "address",
							"name": "operator",
							"type": "address"
						},
						{
							"indexed": false,
							"internalType": "bool",
							"name": "approved",
							"type": "bool"
						}
					],
					"name": "ApprovalForAll",
					"type": "event"
				},
				{
					"anonymous": false,
					"inputs": [
						{
							"indexed": true,
							"internalType": "address",
							"name": "previousOwner",
							"type": "address"
						},
						{
							"indexed": true,
							"internalType": "address",
							"name": "newOwner",
							"type": "address"
						}
					],
					"name": "OwnershipTransferred",
					"type": "event"
				},
				{
					"anonymous": false,
					"inputs": [
						{
							"indexed": true,
							"internalType": "address",
							"name": "from",
							"type": "address"
						},
						{
							"indexed": true,
							"internalType": "address",
							"name": "to",
							"type": "address"
						},
						{
							"indexed": true,
							"internalType": "uint256",
							"name": "tokenId",
							"type": "uint256"
						}
					],
					"name": "Transfer",
					"type": "event"
				},
				{
					"inputs": [
						{
							"internalType": "address",
							"name": "to",
							"type": "address"
						},
						{
							"internalType": "uint256",
							"name": "tokenId",
							"type": "uint256"
						}
					],
					"name": "approve",
					"outputs": [],
					"stateMutability": "nonpayable",
					"type": "function"
				},
				{
					"inputs": [
						{
							"internalType": "address",
							"name": "owner",
							"type": "address"
						}
					],
					"name": "balanceOf",
					"outputs": [
						{
							"internalType": "uint256",
							"name": "",
							"type": "uint256"
						}
					],
					"stateMutability": "view",
					"type": "function"
				},
				{
					"inputs": [
						{
							"internalType": "uint256",
							"name": "tokenId",
							"type": "uint256"
						}
					],
					"name": "getApproved",
					"outputs": [
						{
							"internalType": "address",
							"name": "",
							"type": "address"
						}
					],
					"stateMutability": "view",
					"type": "function"
				},
				{
					"inputs": [
						{
							"internalType": "uint256",
							"name": "tokenId",
							"type": "uint256"
						},
						{
							"internalType": "uint8",
							"name": "damage",
							"type": "uint8"
						},
						{
							"internalType": "uint8",
							"name": "magic",
							"type": "uint8"
						},
						{
							"internalType": "uint8",
							"name": "level",
							"type": "uint8"
						}
					],
					"name": "increasePet",
					"outputs": [],
					"stateMutability": "nonpayable",
					"type": "function"
				},
				{
					"inputs": [
						{
							"internalType": "address",
							"name": "owner",
							"type": "address"
						},
						{
							"internalType": "address",
							"name": "operator",
							"type": "address"
						}
					],
					"name": "isApprovedForAll",
					"outputs": [
						{
							"internalType": "bool",
							"name": "",
							"type": "bool"
						}
					],
					"stateMutability": "view",
					"type": "function"
				},
				{
					"inputs": [
						{
							"internalType": "uint8",
							"name": "damage",
							"type": "uint8"
						},
						{
							"internalType": "uint8",
							"name": "magic",
							"type": "uint8"
						}
					],
					"name": "mint",
					"outputs": [],
					"stateMutability": "nonpayable",
					"type": "function"
				},
				{
					"inputs": [],
					"name": "name",
					"outputs": [
						{
							"internalType": "string",
							"name": "",
							"type": "string"
						}
					],
					"stateMutability": "view",
					"type": "function"
				},
				{
					"inputs": [],
					"name": "owner",
					"outputs": [
						{
							"internalType": "address",
							"name": "",
							"type": "address"
						}
					],
					"stateMutability": "view",
					"type": "function"
				},
				{
					"inputs": [
						{
							"internalType": "uint256",
							"name": "tokenId",
							"type": "uint256"
						}
					],
					"name": "ownerOf",
					"outputs": [
						{
							"internalType": "address",
							"name": "",
							"type": "address"
						}
					],
					"stateMutability": "view",
					"type": "function"
				},
				{
					"inputs": [],
					"name": "renounceOwnership",
					"outputs": [],
					"stateMutability": "nonpayable",
					"type": "function"
				},
				{
					"inputs": [
						{
							"internalType": "address",
							"name": "from",
							"type": "address"
						},
						{
							"internalType": "address",
							"name": "to",
							"type": "address"
						},
						{
							"internalType": "uint256",
							"name": "tokenId",
							"type": "uint256"
						}
					],
					"name": "safeTransferFrom",
					"outputs": [],
					"stateMutability": "nonpayable",
					"type": "function"
				},
				{
					"inputs": [
						{
							"internalType": "address",
							"name": "from",
							"type": "address"
						},
						{
							"internalType": "address",
							"name": "to",
							"type": "address"
						},
						{
							"internalType": "uint256",
							"name": "tokenId",
							"type": "uint256"
						},
						{
							"internalType": "bytes",
							"name": "_data",
							"type": "bytes"
						}
					],
					"name": "safeTransferFrom",
					"outputs": [],
					"stateMutability": "nonpayable",
					"type": "function"
				},
				{
					"inputs": [
						{
							"internalType": "address",
							"name": "operator",
							"type": "address"
						},
						{
							"internalType": "bool",
							"name": "approved",
							"type": "bool"
						}
					],
					"name": "setApprovalForAll",
					"outputs": [],
					"stateMutability": "nonpayable",
					"type": "function"
				},
				{
					"inputs": [
						{
							"internalType": "bytes4",
							"name": "interfaceId",
							"type": "bytes4"
						}
					],
					"name": "supportsInterface",
					"outputs": [
						{
							"internalType": "bool",
							"name": "",
							"type": "bool"
						}
					],
					"stateMutability": "view",
					"type": "function"
				},
				{
					"inputs": [],
					"name": "symbol",
					"outputs": [
						{
							"internalType": "string",
							"name": "",
							"type": "string"
						}
					],
					"stateMutability": "view",
					"type": "function"
				},
				{
					"inputs": [
						{
							"internalType": "uint256",
							"name": "tokenId",
							"type": "uint256"
						}
					],
					"name": "tokenURI",
					"outputs": [
						{
							"internalType": "string",
							"name": "",
							"type": "string"
						}
					],
					"stateMutability": "view",
					"type": "function"
				},
				{
					"inputs": [
						{
							"internalType": "address",
							"name": "from",
							"type": "address"
						},
						{
							"internalType": "address",
							"name": "to",
							"type": "address"
						},
						{
							"internalType": "uint256",
							"name": "tokenId",
							"type": "uint256"
						}
					],
					"name": "transferFrom",
					"outputs": [],
					"stateMutability": "nonpayable",
					"type": "function"
				},
				{
					"inputs": [
						{
							"internalType": "address",
							"name": "newOwner",
							"type": "address"
						}
					],
					"name": "transferOwnership",
					"outputs": [],
					"stateMutability": "nonpayable",
					"type": "function"
				}
			],
			"devdoc": {
				"kind": "dev",
				"methods": {
					"approve(address,uint256)": {
						"details": "See {IERC721-approve}."
					},
					"balanceOf(address)": {
						"details": "See {IERC721-balanceOf}."
					},
					"getApproved(uint256)": {
						"details": "See {IERC721-getApproved}."
					},
					"isApprovedForAll(address,address)": {
						"details": "See {IERC721-isApprovedForAll}."
					},
					"name()": {
						"details": "See {IERC721Metadata-name}."
					},
					"owner()": {
						"details": "Returns the address of the current owner."
					},
					"ownerOf(uint256)": {
						"details": "See {IERC721-ownerOf}."
					},
					"renounceOwnership()": {
						"details": "Leaves the contract without owner. It will not be possible to call `onlyOwner` functions anymore. Can only be called by the current owner. NOTE: Renouncing ownership will leave the contract without an owner, thereby removing any functionality that is only available to the owner."
					},
					"safeTransferFrom(address,address,uint256)": {
						"details": "See {IERC721-safeTransferFrom}."
					},
					"safeTransferFrom(address,address,uint256,bytes)": {
						"details": "See {IERC721-safeTransferFrom}."
					},
					"setApprovalForAll(address,bool)": {
						"details": "See {IERC721-setApprovalForAll}."
					},
					"supportsInterface(bytes4)": {
						"details": "See {IERC165-supportsInterface}."
					},
					"symbol()": {
						"details": "See {IERC721Metadata-symbol}."
					},
					"tokenURI(uint256)": {
						"details": "See {IERC721Metadata-tokenURI}."
					},
					"transferFrom(address,address,uint256)": {
						"details": "See {IERC721-transferFrom}."
					},
					"transferOwnership(address)": {
						"details": "Transfers ownership of the contract to a new account (`newOwner`). Can only be called by the current owner."
					}
				},
				"version": 1
			},
			"evm": {
				"assembly": "    /* \"contracts/NFT_Demo/NFT.sol\":172:1120  contract Token is ERC721, Ownable {... */\n  mstore(0x40, 0x80)\n    /* \"contracts/NFT_Demo/NFT.sol\":317:318  0 */\n  0x00\n    /* \"contracts/NFT_Demo/NFT.sol\":300:318  uint256 nextId = 0 */\n  0x07\n  sstore\n    /* \"contracts/NFT_Demo/NFT.sol\":417:506  constructor(string memory name, string memory symbol)... */\n  callvalue\n  dup1\n  iszero\n  tag_1\n  jumpi\n  0x00\n  dup1\n  revert\ntag_1:\n  pop\n  mload(0x40)\n  sub(codesize, bytecodeSize)\n  dup1\n  bytecodeSize\n  dup4\n  codecopy\n  dup2\n  add\n  0x40\n  dup2\n  swap1\n  mstore\n  tag_2\n  swap2\n  tag_3\n  jump\t// in\ntag_2:\n    /* \"@openzeppelin/contracts/token/ERC721/ERC721.sol\":1456:1469  _name = name_ */\n  dup2\n  mload\n    /* \"contracts/NFT_Demo/NFT.sol\":486:490  name */\n  dup3\n  swap1\n    /* \"contracts/NFT_Demo/NFT.sol\":492:498  symbol */\n  dup3\n  swap1\n    /* \"@openzeppelin/contracts/token/ERC721/ERC721.sol\":1456:1469  _name = name_ */\n  tag_8\n  swap1\n    /* \"@openzeppelin/contracts/token/ERC721/ERC721.sol\":1456:1461  _name */\n  0x00\n  swap1\n    /* \"@openzeppelin/contracts/token/ERC721/ERC721.sol\":1456:1469  _name = name_ */\n  0x20\n  dup6\n  add\n  swap1\n  tag_9\n  jump\t// in\ntag_8:\n  pop\n    /* \"@openzeppelin/contracts/token/ERC721/ERC721.sol\":1479:1496  _symbol = symbol_ */\n  dup1\n  mload\n  tag_10\n  swap1\n    /* \"@openzeppelin/contracts/token/ERC721/ERC721.sol\":1479:1486  _symbol */\n  0x01\n  swap1\n    /* \"@openzeppelin/contracts/token/ERC721/ERC721.sol\":1479:1496  _symbol = symbol_ */\n  0x20\n  dup5\n  add\n  swap1\n  tag_9\n  jump\t// in\ntag_10:\n  pop\n    /* \"@openzeppelin/contracts/token/ERC721/ERC721.sol\":1390:1503  constructor(string memory name_, string memory symbol_) {... */\n  pop\n  pop\n    /* \"@openzeppelin/contracts/access/Ownable.sol\":921:953  _transferOwnership(_msgSender()) */\n  tag_12\n    /* \"@openzeppelin/contracts/access/Ownable.sol\":940:952  _msgSender() */\n  tag_13\n    /* \"@openzeppelin/contracts/access/Ownable.sol\":940:950  _msgSender */\n  shl(0x20, tag_14)\n    /* \"@openzeppelin/contracts/access/Ownable.sol\":940:952  _msgSender() */\n  0x20\n  shr\n  jump\t// in\ntag_13:\n    /* \"@openzeppelin/contracts/access/Ownable.sol\":921:939  _transferOwnership */\n  tag_15\n    /* \"@openzeppelin/contracts/access/Ownable.sol\":921:953  _transferOwnership(_msgSender()) */\n  jump\t// in\ntag_12:\n    /* \"contracts/NFT_Demo/NFT.sol\":417:506  constructor(string memory name, string memory symbol)... */\n  pop\n  pop\n    /* \"contracts/NFT_Demo/NFT.sol\":172:1120  contract Token is ERC721, Ownable {... */\n  jump(tag_31)\n    /* \"@openzeppelin/contracts/utils/Context.sol\":640:736  function _msgSender() internal view virtual returns (address) {... */\ntag_14:\n    /* \"@openzeppelin/contracts/utils/Context.sol\":719:729  msg.sender */\n  caller\n    /* \"@openzeppelin/contracts/utils/Context.sol\":640:736  function _msgSender() internal view virtual returns (address) {... */\n  swap1\n  jump\t// out\n    /* \"@openzeppelin/contracts/access/Ownable.sol\":2270:2457  function _transferOwnership(address newOwner) internal virtual {... */\ntag_15:\n    /* \"@openzeppelin/contracts/access/Ownable.sol\":2362:2368  _owner */\n  0x06\n  dup1\n  sload\n  sub(shl(0xa0, 0x01), 0x01)\n    /* \"@openzeppelin/contracts/access/Ownable.sol\":2378:2395  _owner = newOwner */\n  dup4\n  dup2\n  and\n  not(sub(shl(0xa0, 0x01), 0x01))\n  dup4\n  and\n  dup2\n  or\n  swap1\n  swap4\n  sstore\n    /* \"@openzeppelin/contracts/access/Ownable.sol\":2410:2450  OwnershipTransferred(oldOwner, newOwner) */\n  mload(0x40)\n    /* \"@openzeppelin/contracts/access/Ownable.sol\":2362:2368  _owner */\n  swap2\n  and\n  swap2\n    /* \"@openzeppelin/contracts/access/Ownable.sol\":2378:2395  _owner = newOwner */\n  swap1\n    /* \"@openzeppelin/contracts/access/Ownable.sol\":2362:2368  _owner */\n  dup3\n  swap1\n    /* \"@openzeppelin/contracts/access/Ownable.sol\":2410:2450  OwnershipTransferred(oldOwner, newOwner) */\n  0x8be0079c531659141344cd1fd0a4f28419497f9722a3daafe3b4186f6b6457e0\n  swap1\n    /* \"@openzeppelin/contracts/access/Ownable.sol\":2343:2359  address oldOwner */\n  0x00\n  swap1\n    /* \"@openzeppelin/contracts/access/Ownable.sol\":2410:2450  OwnershipTransferred(oldOwner, newOwner) */\n  log3\n    /* \"@openzeppelin/contracts/access/Ownable.sol\":2270:2457  function _transferOwnership(address newOwner) internal virtual {... */\n  pop\n  pop\n  jump\t// out\n    /* \"contracts/NFT_Demo/NFT.sol\":172:1120  contract Token is ERC721, Ownable {... */\ntag_9:\n  dup3\n  dup1\n  sload\n  tag_20\n  swap1\n  tag_21\n  jump\t// in\ntag_20:\n  swap1\n  0x00\n  mstore\n  keccak256(0x00, 0x20)\n  swap1\n  0x1f\n  add\n  0x20\n  swap1\n  div\n  dup2\n  add\n  swap3\n  dup3\n  tag_23\n  jumpi\n  0x00\n  dup6\n  sstore\n  jump(tag_26)\ntag_23:\n  dup3\n  0x1f\n  lt\n  tag_24\n  jumpi\n  dup1\n  mload\n  not(0xff)\n  and\n  dup4\n  dup1\n  add\n  or\n  dup6\n  sstore\n  jump(tag_26)\ntag_24:\n  dup3\n  dup1\n  add\n  0x01\n  add\n  dup6\n  sstore\n  dup3\n  iszero\n  tag_26\n  jumpi\n  swap2\n  dup3\n  add\ntag_25:\n  dup3\n  dup2\n  gt\n  iszero\n  tag_26\n  jumpi\n  dup3\n  mload\n  dup3\n  sstore\n  swap2\n  0x20\n  add\n  swap2\n  swap1\n  0x01\n  add\n  swap1\n  jump(tag_25)\ntag_26:\n  pop\n  tag_27\n  swap3\n  swap2\n  pop\n  tag_28\n  jump\t// in\ntag_27:\n  pop\n  swap1\n  jump\t// out\ntag_28:\ntag_29:\n  dup1\n  dup3\n  gt\n  iszero\n  tag_27\n  jumpi\n  0x00\n  dup2\n  sstore\n  0x01\n  add\n  jump(tag_29)\n    /* \"#utility.yul\":14:895   */\ntag_32:\n  0x00\n    /* \"#utility.yul\":123:126   */\n  dup3\n    /* \"#utility.yul\":116:120   */\n  0x1f\n    /* \"#utility.yul\":108:114   */\n  dup4\n    /* \"#utility.yul\":104:121   */\n  add\n    /* \"#utility.yul\":100:127   */\n  slt\n    /* \"#utility.yul\":90:92   */\n  tag_34\n  jumpi\n    /* \"#utility.yul\":145:150   */\n  dup1\n    /* \"#utility.yul\":138:143   */\n  dup2\n    /* \"#utility.yul\":131:151   */\n  revert\n    /* \"#utility.yul\":90:92   */\ntag_34:\n    /* \"#utility.yul\":172:185   */\n  dup2\n  mload\n  sub(shl(0x40, 0x01), 0x01)\n    /* \"#utility.yul\":234:244   */\n  dup1\n  dup3\n  gt\n    /* \"#utility.yul\":231:233   */\n  iszero\n  tag_36\n  jumpi\n    /* \"#utility.yul\":247:265   */\n  tag_36\n  tag_37\n  jump\t// in\ntag_36:\n    /* \"#utility.yul\":296:298   */\n  0x40\n    /* \"#utility.yul\":290:299   */\n  mload\n    /* \"#utility.yul\":318:322   */\n  0x20\n    /* \"#utility.yul\":388:390   */\n  0x1f\n    /* \"#utility.yul\":369:382   */\n  dup5\n  add\n  not(0x1f)\n    /* \"#utility.yul\":365:392   */\n  and\n    /* \"#utility.yul\":353:393   */\n  dup3\n  add\n    /* \"#utility.yul\":349:398   */\n  dup2\n  add\n    /* \"#utility.yul\":413:431   */\n  dup4\n  dup2\n  gt\n    /* \"#utility.yul\":433:455   */\n  dup4\n  dup3\n  lt\n    /* \"#utility.yul\":410:456   */\n  or\n    /* \"#utility.yul\":407:409   */\n  iszero\n  tag_39\n  jumpi\n    /* \"#utility.yul\":459:477   */\n  tag_39\n  tag_37\n  jump\t// in\ntag_39:\n    /* \"#utility.yul\":495:497   */\n  0x40\n    /* \"#utility.yul\":488:510   */\n  mstore\n    /* \"#utility.yul\":519:537   */\n  dup4\n  dup3\n  mstore\n    /* \"#utility.yul\":556:571   */\n  dup6\n  dup5\n  add\n    /* \"#utility.yul\":552:576   */\n  dup2\n  add\n    /* \"#utility.yul\":549:582   */\n  dup8\n  lt\n    /* \"#utility.yul\":546:548   */\n  iszero\n  tag_40\n  jumpi\n    /* \"#utility.yul\":599:604   */\n  dup5\n    /* \"#utility.yul\":592:597   */\n  dup6\n    /* \"#utility.yul\":585:605   */\n  revert\n    /* \"#utility.yul\":546:548   */\ntag_40:\n    /* \"#utility.yul\":625:630   */\n  dup5\n    /* \"#utility.yul\":616:630   */\n  swap3\n  pop\n    /* \"#utility.yul\":639:772   */\ntag_41:\n    /* \"#utility.yul\":653:655   */\n  dup4\n    /* \"#utility.yul\":650:651   */\n  dup4\n    /* \"#utility.yul\":647:656   */\n  lt\n    /* \"#utility.yul\":639:772   */\n  iszero\n  tag_43\n  jumpi\n    /* \"#utility.yul\":741:755   */\n  dup6\n  dup4\n  add\n    /* \"#utility.yul\":737:760   */\n  dup2\n  add\n    /* \"#utility.yul\":731:761   */\n  mload\n    /* \"#utility.yul\":710:724   */\n  dup3\n  dup5\n  add\n    /* \"#utility.yul\":706:729   */\n  dup3\n  add\n    /* \"#utility.yul\":699:762   */\n  mstore\n    /* \"#utility.yul\":664:674   */\n  swap2\n  dup3\n  add\n  swap2\n    /* \"#utility.yul\":639:772   */\n  jump(tag_41)\ntag_43:\n    /* \"#utility.yul\":790:792   */\n  dup4\n    /* \"#utility.yul\":787:788   */\n  dup4\n    /* \"#utility.yul\":784:793   */\n  gt\n    /* \"#utility.yul\":781:783   */\n  iszero\n  tag_44\n  jumpi\n    /* \"#utility.yul\":849:854   */\n  dup5\n    /* \"#utility.yul\":844:846   */\n  dup2\n    /* \"#utility.yul\":839:841   */\n  dup6\n    /* \"#utility.yul\":831:837   */\n  dup5\n    /* \"#utility.yul\":827:842   */\n  add\n    /* \"#utility.yul\":823:847   */\n  add\n    /* \"#utility.yul\":816:855   */\n  mstore\n    /* \"#utility.yul\":781:783   */\ntag_44:\n  pop\n    /* \"#utility.yul\":883:889   */\n  swap6\n    /* \"#utility.yul\":80:895   */\n  swap5\n  pop\n  pop\n  pop\n  pop\n  pop\n  jump\t// out\n    /* \"#utility.yul\":900:1496   */\ntag_3:\n  0x00\n  dup1\n    /* \"#utility.yul\":1060:1062   */\n  0x40\n    /* \"#utility.yul\":1048:1057   */\n  dup4\n    /* \"#utility.yul\":1039:1046   */\n  dup6\n    /* \"#utility.yul\":1035:1058   */\n  sub\n    /* \"#utility.yul\":1031:1063   */\n  slt\n    /* \"#utility.yul\":1028:1030   */\n  iszero\n  tag_46\n  jumpi\n    /* \"#utility.yul\":1081:1087   */\n  dup2\n    /* \"#utility.yul\":1073:1079   */\n  dup3\n    /* \"#utility.yul\":1066:1088   */\n  revert\n    /* \"#utility.yul\":1028:1030   */\ntag_46:\n    /* \"#utility.yul\":1113:1129   */\n  dup3\n  mload\n  sub(shl(0x40, 0x01), 0x01)\n    /* \"#utility.yul\":1178:1192   */\n  dup1\n  dup3\n  gt\n    /* \"#utility.yul\":1175:1177   */\n  iszero\n  tag_47\n  jumpi\n    /* \"#utility.yul\":1210:1216   */\n  dup4\n    /* \"#utility.yul\":1202:1208   */\n  dup5\n    /* \"#utility.yul\":1195:1217   */\n  revert\n    /* \"#utility.yul\":1175:1177   */\ntag_47:\n    /* \"#utility.yul\":1238:1301   */\n  tag_48\n    /* \"#utility.yul\":1293:1300   */\n  dup7\n    /* \"#utility.yul\":1284:1290   */\n  dup4\n    /* \"#utility.yul\":1273:1282   */\n  dup8\n    /* \"#utility.yul\":1269:1291   */\n  add\n    /* \"#utility.yul\":1238:1301   */\n  tag_32\n  jump\t// in\ntag_48:\n    /* \"#utility.yul\":1228:1301   */\n  swap4\n  pop\n    /* \"#utility.yul\":1347:1349   */\n  0x20\n    /* \"#utility.yul\":1336:1345   */\n  dup6\n    /* \"#utility.yul\":1332:1350   */\n  add\n    /* \"#utility.yul\":1326:1351   */\n  mload\n    /* \"#utility.yul\":1310:1351   */\n  swap2\n  pop\n    /* \"#utility.yul\":1376:1378   */\n  dup1\n    /* \"#utility.yul\":1366:1374   */\n  dup3\n    /* \"#utility.yul\":1363:1379   */\n  gt\n    /* \"#utility.yul\":1360:1362   */\n  iszero\n  tag_49\n  jumpi\n    /* \"#utility.yul\":1397:1403   */\n  dup3\n    /* \"#utility.yul\":1389:1395   */\n  dup4\n    /* \"#utility.yul\":1382:1404   */\n  revert\n    /* \"#utility.yul\":1360:1362   */\ntag_49:\n  pop\n    /* \"#utility.yul\":1425:1490   */\n  tag_50\n    /* \"#utility.yul\":1482:1489   */\n  dup6\n    /* \"#utility.yul\":1471:1479   */\n  dup3\n    /* \"#utility.yul\":1460:1469   */\n  dup7\n    /* \"#utility.yul\":1456:1480   */\n  add\n    /* \"#utility.yul\":1425:1490   */\n  tag_32\n  jump\t// in\ntag_50:\n    /* \"#utility.yul\":1415:1490   */\n  swap2\n  pop\n  pop\n    /* \"#utility.yul\":1018:1496   */\n  swap3\n  pop\n  swap3\n  swap1\n  pop\n  jump\t// out\n    /* \"#utility.yul\":1501:1881   */\ntag_21:\n    /* \"#utility.yul\":1586:1587   */\n  0x02\n    /* \"#utility.yul\":1576:1588   */\n  dup2\n  div\n    /* \"#utility.yul\":1633:1634   */\n  0x01\n    /* \"#utility.yul\":1623:1635   */\n  dup3\n  and\n  dup1\n    /* \"#utility.yul\":1644:1646   */\n  tag_52\n  jumpi\n    /* \"#utility.yul\":1698:1702   */\n  0x7f\n    /* \"#utility.yul\":1690:1696   */\n  dup3\n    /* \"#utility.yul\":1686:1703   */\n  and\n    /* \"#utility.yul\":1676:1703   */\n  swap2\n  pop\n    /* \"#utility.yul\":1644:1646   */\ntag_52:\n    /* \"#utility.yul\":1751:1753   */\n  0x20\n    /* \"#utility.yul\":1743:1749   */\n  dup3\n    /* \"#utility.yul\":1740:1754   */\n  lt\n    /* \"#utility.yul\":1720:1738   */\n  dup2\n    /* \"#utility.yul\":1717:1755   */\n  eq\n    /* \"#utility.yul\":1714:1716   */\n  iszero\n  tag_53\n  jumpi\n    /* \"#utility.yul\":1797:1807   */\n  0x4e487b71\n    /* \"#utility.yul\":1792:1795   */\n  0xe0\n    /* \"#utility.yul\":1788:1808   */\n  shl\n    /* \"#utility.yul\":1785:1786   */\n  0x00\n    /* \"#utility.yul\":1778:1809   */\n  mstore\n    /* \"#utility.yul\":1832:1836   */\n  0x22\n    /* \"#utility.yul\":1829:1830   */\n  0x04\n    /* \"#utility.yul\":1822:1837   */\n  mstore\n    /* \"#utility.yul\":1860:1864   */\n  0x24\n    /* \"#utility.yul\":1857:1858   */\n  0x00\n    /* \"#utility.yul\":1850:1865   */\n  revert\n    /* \"#utility.yul\":1714:1716   */\ntag_53:\n  pop\n    /* \"#utility.yul\":1556:1881   */\n  swap2\n  swap1\n  pop\n  jump\t// out\n    /* \"#utility.yul\":1886:2013   */\ntag_37:\n    /* \"#utility.yul\":1947:1957   */\n  0x4e487b71\n    /* \"#utility.yul\":1942:1945   */\n  0xe0\n    /* \"#utility.yul\":1938:1958   */\n  shl\n    /* \"#utility.yul\":1935:1936   */\n  0x00\n    /* \"#utility.yul\":1928:1959   */\n  mstore\n    /* \"#utility.yul\":1978:1982   */\n  0x41\n    /* \"#utility.yul\":1975:1976   */\n  0x04\n    /* \"#utility.yul\":1968:1983   */\n  mstore\n    /* \"#utility.yul\":2002:2006   */\n  0x24\n    /* \"#utility.yul\":1999:2000   */\n  0x00\n    /* \"#utility.yul\":1992:2007   */\n  revert\n    /* \"#utility.yul\":1918:2013   */\ntag_31:\n    /* \"contracts/NFT_Demo/NFT.sol\":172:1120  contract Token is ERC721, Ownable {... */\n  dataSize(sub_0)\n  dup1\n  dataOffset(sub_0)\n  0x00\n  codecopy\n  0x00\n  return\nstop\n\nsub_0: assembly {\n        /* \"contracts/NFT_Demo/NFT.sol\":172:1120  contract Token is ERC721, Ownable {... */\n      mstore(0x40, 0x80)\n      callvalue\n      dup1\n      iszero\n      tag_1\n      jumpi\n      0x00\n      dup1\n      revert\n    tag_1:\n      pop\n      jumpi(tag_2, lt(calldatasize, 0x04))\n      shr(0xe0, calldataload(0x00))\n      dup1\n      0x70a08231\n      gt\n      tag_21\n      jumpi\n      dup1\n      0xa22cb465\n      gt\n      tag_22\n      jumpi\n      dup1\n      0xa22cb465\n      eq\n      tag_16\n      jumpi\n      dup1\n      0xb88d4fde\n      eq\n      tag_17\n      jumpi\n      dup1\n      0xc87b56dd\n      eq\n      tag_18\n      jumpi\n      dup1\n      0xe985e9c5\n      eq\n      tag_19\n      jumpi\n      dup1\n      0xf2fde38b\n      eq\n      tag_20\n      jumpi\n      jump(tag_2)\n    tag_22:\n      dup1\n      0x70a08231\n      eq\n      tag_12\n      jumpi\n      dup1\n      0x715018a6\n      eq\n      tag_13\n      jumpi\n      dup1\n      0x8da5cb5b\n      eq\n      tag_14\n      jumpi\n      dup1\n      0x95d89b41\n      eq\n      tag_15\n      jumpi\n      jump(tag_2)\n    tag_21:\n      dup1\n      0x23b872dd\n      gt\n      tag_23\n      jumpi\n      dup1\n      0x23b872dd\n      eq\n      tag_7\n      jumpi\n      dup1\n      0x27057331\n      eq\n      tag_8\n      jumpi\n      dup1\n      0x29a0eee8\n      eq\n      tag_9\n      jumpi\n      dup1\n      0x42842e0e\n      eq\n      tag_10\n      jumpi\n      dup1\n      0x6352211e\n      eq\n      tag_11\n      jumpi\n      jump(tag_2)\n    tag_23:\n      dup1\n      0x01ffc9a7\n      eq\n      tag_3\n      jumpi\n      dup1\n      0x06fdde03\n      eq\n      tag_4\n      jumpi\n      dup1\n      0x081812fc\n      eq\n      tag_5\n      jumpi\n      dup1\n      0x095ea7b3\n      eq\n      tag_6\n      jumpi\n    tag_2:\n      0x00\n      dup1\n      revert\n        /* \"@openzeppelin/contracts/token/ERC721/ERC721.sol\":1570:1870  function supportsInterface(bytes4 interfaceId) public view virtual override(ERC165, IERC165) returns (bool) {... */\n    tag_3:\n      tag_24\n      tag_25\n      calldatasize\n      0x04\n      tag_26\n      jump\t// in\n    tag_25:\n      tag_27\n      jump\t// in\n    tag_24:\n      mload(0x40)\n      tag_28\n      swap2\n      swap1\n      tag_29\n      jump\t// in\n    tag_28:\n      mload(0x40)\n      dup1\n      swap2\n      sub\n      swap1\n      return\n        /* \"@openzeppelin/contracts/token/ERC721/ERC721.sol\":2488:2586  function name() public view virtual override returns (string memory) {... */\n    tag_4:\n      tag_30\n      tag_31\n      jump\t// in\n    tag_30:\n      mload(0x40)\n      tag_28\n      swap2\n      swap1\n      tag_33\n      jump\t// in\n        /* \"@openzeppelin/contracts/token/ERC721/ERC721.sol\":3999:4216  function getApproved(uint256 tokenId) public view virtual override returns (address) {... */\n    tag_5:\n      tag_34\n      tag_35\n      calldatasize\n      0x04\n      tag_36\n      jump\t// in\n    tag_35:\n      tag_37\n      jump\t// in\n    tag_34:\n      mload(0x40)\n      tag_28\n      swap2\n      swap1\n      tag_39\n      jump\t// in\n        /* \"@openzeppelin/contracts/token/ERC721/ERC721.sol\":3537:3938  function approve(address to, uint256 tokenId) public virtual override {... */\n    tag_6:\n      tag_40\n      tag_41\n      calldatasize\n      0x04\n      tag_42\n      jump\t// in\n    tag_41:\n      tag_43\n      jump\t// in\n    tag_40:\n      stop\n        /* \"@openzeppelin/contracts/token/ERC721/ERC721.sol\":4726:5056  function transferFrom(... */\n    tag_7:\n      tag_40\n      tag_45\n      calldatasize\n      0x04\n      tag_46\n      jump\t// in\n    tag_45:\n      tag_47\n      jump\t// in\n        /* \"contracts/NFT_Demo/NFT.sol\":687:1116  function increasePet(uint256 tokenId, uint8 damage, uint8 magic, uint8 level) public { ... */\n    tag_8:\n      tag_40\n      tag_49\n      calldatasize\n      0x04\n      tag_50\n      jump\t// in\n    tag_49:\n      tag_51\n      jump\t// in\n        /* \"contracts/NFT_Demo/NFT.sol\":512:681  function mint(uint8 damage, uint8 magic) public onlyOwner {... */\n    tag_9:\n      tag_40\n      tag_53\n      calldatasize\n      0x04\n      tag_54\n      jump\t// in\n    tag_53:\n      tag_55\n      jump\t// in\n        /* \"@openzeppelin/contracts/token/ERC721/ERC721.sol\":5122:5301  function safeTransferFrom(... */\n    tag_10:\n      tag_40\n      tag_57\n      calldatasize\n      0x04\n      tag_46\n      jump\t// in\n    tag_57:\n      tag_58\n      jump\t// in\n        /* \"@openzeppelin/contracts/token/ERC721/ERC721.sol\":2191:2426  function ownerOf(uint256 tokenId) public view virtual override returns (address) {... */\n    tag_11:\n      tag_34\n      tag_60\n      calldatasize\n      0x04\n      tag_36\n      jump\t// in\n    tag_60:\n      tag_61\n      jump\t// in\n        /* \"@openzeppelin/contracts/token/ERC721/ERC721.sol\":1929:2134  function balanceOf(address owner) public view virtual override returns (uint256) {... */\n    tag_12:\n      tag_63\n      tag_64\n      calldatasize\n      0x04\n      tag_65\n      jump\t// in\n    tag_64:\n      tag_66\n      jump\t// in\n    tag_63:\n      mload(0x40)\n      tag_28\n      swap2\n      swap1\n      tag_68\n      jump\t// in\n        /* \"@openzeppelin/contracts/access/Ownable.sol\":1668:1769  function renounceOwnership() public virtual onlyOwner {... */\n    tag_13:\n      tag_40\n      tag_70\n      jump\t// in\n        /* \"@openzeppelin/contracts/access/Ownable.sol\":1036:1121  function owner() public view virtual returns (address) {... */\n    tag_14:\n      tag_34\n      tag_72\n      jump\t// in\n        /* \"@openzeppelin/contracts/token/ERC721/ERC721.sol\":2650:2752  function symbol() public view virtual override returns (string memory) {... */\n    tag_15:\n      tag_30\n      tag_75\n      jump\t// in\n        /* \"@openzeppelin/contracts/token/ERC721/ERC721.sol\":4283:4436  function setApprovalForAll(address operator, bool approved) public virtual override {... */\n    tag_16:\n      tag_40\n      tag_78\n      calldatasize\n      0x04\n      tag_79\n      jump\t// in\n    tag_78:\n      tag_80\n      jump\t// in\n        /* \"@openzeppelin/contracts/token/ERC721/ERC721.sol\":5367:5687  function safeTransferFrom(... */\n    tag_17:\n      tag_40\n      tag_82\n      calldatasize\n      0x04\n      tag_83\n      jump\t// in\n    tag_82:\n      tag_84\n      jump\t// in\n        /* \"@openzeppelin/contracts/token/ERC721/ERC721.sol\":2818:3147  function tokenURI(uint256 tokenId) public view virtual override returns (string memory) {... */\n    tag_18:\n      tag_30\n      tag_86\n      calldatasize\n      0x04\n      tag_36\n      jump\t// in\n    tag_86:\n      tag_87\n      jump\t// in\n        /* \"@openzeppelin/contracts/token/ERC721/ERC721.sol\":4502:4664  function isApprovedForAll(address owner, address operator) public view virtual override returns (bool) {... */\n    tag_19:\n      tag_24\n      tag_90\n      calldatasize\n      0x04\n      tag_91\n      jump\t// in\n    tag_90:\n      tag_92\n      jump\t// in\n        /* \"@openzeppelin/contracts/access/Ownable.sol\":1918:2116  function transferOwnership(address newOwner) public virtual onlyOwner {... */\n    tag_20:\n      tag_40\n      tag_95\n      calldatasize\n      0x04\n      tag_65\n      jump\t// in\n    tag_95:\n      tag_96\n      jump\t// in\n        /* \"@openzeppelin/contracts/token/ERC721/ERC721.sol\":1570:1870  function supportsInterface(bytes4 interfaceId) public view virtual override(ERC165, IERC165) returns (bool) {... */\n    tag_27:\n        /* \"@openzeppelin/contracts/token/ERC721/ERC721.sol\":1672:1676  bool */\n      0x00\n      not(sub(shl(0xe0, 0x01), 0x01))\n        /* \"@openzeppelin/contracts/token/ERC721/ERC721.sol\":1707:1747  interfaceId == type(IERC721).interfaceId */\n      dup3\n      and\n      shl(0xe0, 0x80ac58cd)\n      eq\n      dup1\n        /* \"@openzeppelin/contracts/token/ERC721/ERC721.sol\":1707:1811  interfaceId == type(IERC721).interfaceId ||... */\n      tag_98\n      jumpi\n      pop\n      not(sub(shl(0xe0, 0x01), 0x01))\n        /* \"@openzeppelin/contracts/token/ERC721/ERC721.sol\":1763:1811  interfaceId == type(IERC721Metadata).interfaceId */\n      dup3\n      and\n      shl(0xe0, 0x5b5e139f)\n      eq\n        /* \"@openzeppelin/contracts/token/ERC721/ERC721.sol\":1707:1811  interfaceId == type(IERC721).interfaceId ||... */\n    tag_98:\n        /* \"@openzeppelin/contracts/token/ERC721/ERC721.sol\":1707:1863  interfaceId == type(IERC721).interfaceId ||... */\n      dup1\n      tag_100\n      jumpi\n      pop\n        /* \"@openzeppelin/contracts/token/ERC721/ERC721.sol\":1827:1863  super.supportsInterface(interfaceId) */\n      tag_100\n        /* \"@openzeppelin/contracts/token/ERC721/ERC721.sol\":1851:1862  interfaceId */\n      dup3\n        /* \"@openzeppelin/contracts/token/ERC721/ERC721.sol\":1827:1850  super.supportsInterface */\n      tag_101\n        /* \"@openzeppelin/contracts/token/ERC721/ERC721.sol\":1827:1863  super.supportsInterface(interfaceId) */\n      jump\t// in\n    tag_100:\n        /* \"@openzeppelin/contracts/token/ERC721/ERC721.sol\":1688:1863  return... */\n      swap1\n      pop\n        /* \"@openzeppelin/contracts/token/ERC721/ERC721.sol\":1570:1870  function supportsInterface(bytes4 interfaceId) public view virtual override(ERC165, IERC165) returns (bool) {... */\n    tag_97:\n      swap2\n      swap1\n      pop\n      jump\t// out\n        /* \"@openzeppelin/contracts/token/ERC721/ERC721.sol\":2488:2586  function name() public view virtual override returns (string memory) {... */\n    tag_31:\n        /* \"@openzeppelin/contracts/token/ERC721/ERC721.sol\":2542:2555  string memory */\n      0x60\n        /* \"@openzeppelin/contracts/token/ERC721/ERC721.sol\":2574:2579  _name */\n      0x00\n        /* \"@openzeppelin/contracts/token/ERC721/ERC721.sol\":2567:2579  return _name */\n      dup1\n      sload\n      tag_103\n      swap1\n      tag_104\n      jump\t// in\n    tag_103:\n      dup1\n      0x1f\n      add\n      0x20\n      dup1\n      swap2\n      div\n      mul\n      0x20\n      add\n      mload(0x40)\n      swap1\n      dup2\n      add\n      0x40\n      mstore\n      dup1\n      swap3\n      swap2\n      swap1\n      dup2\n      dup2\n      mstore\n      0x20\n      add\n      dup3\n      dup1\n      sload\n      tag_105\n      swap1\n      tag_104\n      jump\t// in\n    tag_105:\n      dup1\n      iszero\n      tag_106\n      jumpi\n      dup1\n      0x1f\n      lt\n      tag_107\n      jumpi\n      0x0100\n      dup1\n      dup4\n      sload\n      div\n      mul\n      dup4\n      mstore\n      swap2\n      0x20\n      add\n      swap2\n      jump(tag_106)\n    tag_107:\n      dup3\n      add\n      swap2\n      swap1\n      0x00\n      mstore\n      keccak256(0x00, 0x20)\n      swap1\n    tag_108:\n      dup2\n      sload\n      dup2\n      mstore\n      swap1\n      0x01\n      add\n      swap1\n      0x20\n      add\n      dup1\n      dup4\n      gt\n      tag_108\n      jumpi\n      dup3\n      swap1\n      sub\n      0x1f\n      and\n      dup3\n      add\n      swap2\n    tag_106:\n      pop\n      pop\n      pop\n      pop\n      pop\n      swap1\n      pop\n        /* \"@openzeppelin/contracts/token/ERC721/ERC721.sol\":2488:2586  function name() public view virtual override returns (string memory) {... */\n      swap1\n      jump\t// out\n        /* \"@openzeppelin/contracts/token/ERC721/ERC721.sol\":3999:4216  function getApproved(uint256 tokenId) public view virtual override returns (address) {... */\n    tag_37:\n        /* \"@openzeppelin/contracts/token/ERC721/ERC721.sol\":4075:4082  address */\n      0x00\n        /* \"@openzeppelin/contracts/token/ERC721/ERC721.sol\":4102:4118  _exists(tokenId) */\n      tag_110\n        /* \"@openzeppelin/contracts/token/ERC721/ERC721.sol\":4110:4117  tokenId */\n      dup3\n        /* \"@openzeppelin/contracts/token/ERC721/ERC721.sol\":4102:4109  _exists */\n      tag_111\n        /* \"@openzeppelin/contracts/token/ERC721/ERC721.sol\":4102:4118  _exists(tokenId) */\n      jump\t// in\n    tag_110:\n        /* \"@openzeppelin/contracts/token/ERC721/ERC721.sol\":4094:4167  require(_exists(tokenId), \"ERC721: approved query for nonexistent token\") */\n      tag_112\n      jumpi\n      mload(0x40)\n      shl(0xe5, 0x461bcd)\n      dup2\n      mstore\n      0x04\n      add\n      tag_113\n      swap1\n      tag_114\n      jump\t// in\n    tag_113:\n      mload(0x40)\n      dup1\n      swap2\n      sub\n      swap1\n      revert\n    tag_112:\n      pop\n        /* \"@openzeppelin/contracts/token/ERC721/ERC721.sol\":4185:4209  _tokenApprovals[tokenId] */\n      0x00\n      swap1\n      dup2\n      mstore\n        /* \"@openzeppelin/contracts/token/ERC721/ERC721.sol\":4185:4200  _tokenApprovals */\n      0x04\n        /* \"@openzeppelin/contracts/token/ERC721/ERC721.sol\":4185:4209  _tokenApprovals[tokenId] */\n      0x20\n      mstore\n      0x40\n      swap1\n      keccak256\n      sload\n      sub(shl(0xa0, 0x01), 0x01)\n      and\n      swap1\n        /* \"@openzeppelin/contracts/token/ERC721/ERC721.sol\":3999:4216  function getApproved(uint256 tokenId) public view virtual override returns (address) {... */\n      jump\t// out\n        /* \"@openzeppelin/contracts/token/ERC721/ERC721.sol\":3537:3938  function approve(address to, uint256 tokenId) public virtual override {... */\n    tag_43:\n        /* \"@openzeppelin/contracts/token/ERC721/ERC721.sol\":3617:3630  address owner */\n      0x00\n        /* \"@openzeppelin/contracts/token/ERC721/ERC721.sol\":3633:3656  ERC721.ownerOf(tokenId) */\n      tag_116\n        /* \"@openzeppelin/contracts/token/ERC721/ERC721.sol\":3648:3655  tokenId */\n      dup3\n        /* \"@openzeppelin/contracts/token/ERC721/ERC721.sol\":3633:3647  ERC721.ownerOf */\n      tag_61\n        /* \"@openzeppelin/contracts/token/ERC721/ERC721.sol\":3633:3656  ERC721.ownerOf(tokenId) */\n      jump\t// in\n    tag_116:\n        /* \"@openzeppelin/contracts/token/ERC721/ERC721.sol\":3617:3656  address owner = ERC721.ownerOf(tokenId) */\n      swap1\n      pop\n        /* \"@openzeppelin/contracts/token/ERC721/ERC721.sol\":3680:3685  owner */\n      dup1\n      sub(shl(0xa0, 0x01), 0x01)\n        /* \"@openzeppelin/contracts/token/ERC721/ERC721.sol\":3674:3685  to != owner */\n      and\n        /* \"@openzeppelin/contracts/token/ERC721/ERC721.sol\":3674:3676  to */\n      dup4\n      sub(shl(0xa0, 0x01), 0x01)\n        /* \"@openzeppelin/contracts/token/ERC721/ERC721.sol\":3674:3685  to != owner */\n      and\n      eq\n      iszero\n        /* \"@openzeppelin/contracts/token/ERC721/ERC721.sol\":3666:3723  require(to != owner, \"ERC721: approval to current owner\") */\n      tag_117\n      jumpi\n      mload(0x40)\n      shl(0xe5, 0x461bcd)\n      dup2\n      mstore\n      0x04\n      add\n      tag_113\n      swap1\n      tag_119\n      jump\t// in\n    tag_117:\n        /* \"@openzeppelin/contracts/token/ERC721/ERC721.sol\":3771:3776  owner */\n      dup1\n      sub(shl(0xa0, 0x01), 0x01)\n        /* \"@openzeppelin/contracts/token/ERC721/ERC721.sol\":3755:3776  _msgSender() == owner */\n      and\n        /* \"@openzeppelin/contracts/token/ERC721/ERC721.sol\":3755:3767  _msgSender() */\n      tag_120\n        /* \"@openzeppelin/contracts/token/ERC721/ERC721.sol\":3755:3765  _msgSender */\n      tag_121\n        /* \"@openzeppelin/contracts/token/ERC721/ERC721.sol\":3755:3767  _msgSender() */\n      jump\t// in\n    tag_120:\n      sub(shl(0xa0, 0x01), 0x01)\n        /* \"@openzeppelin/contracts/token/ERC721/ERC721.sol\":3755:3776  _msgSender() == owner */\n      and\n      eq\n        /* \"@openzeppelin/contracts/token/ERC721/ERC721.sol\":3755:3817  _msgSender() == owner || isApprovedForAll(owner, _msgSender()) */\n      dup1\n      tag_123\n      jumpi\n      pop\n        /* \"@openzeppelin/contracts/token/ERC721/ERC721.sol\":3780:3817  isApprovedForAll(owner, _msgSender()) */\n      tag_123\n        /* \"@openzeppelin/contracts/token/ERC721/ERC721.sol\":3797:3802  owner */\n      dup2\n        /* \"@openzeppelin/contracts/token/ERC721/ERC721.sol\":3804:3816  _msgSender() */\n      tag_90\n        /* \"@openzeppelin/contracts/token/ERC721/ERC721.sol\":3804:3814  _msgSender */\n      tag_121\n        /* \"@openzeppelin/contracts/token/ERC721/ERC721.sol\":3804:3816  _msgSender() */\n      jump\t// in\n        /* \"@openzeppelin/contracts/token/ERC721/ERC721.sol\":3780:3817  isApprovedForAll(owner, _msgSender()) */\n    tag_123:\n        /* \"@openzeppelin/contracts/token/ERC721/ERC721.sol\":3734:3899  require(... */\n      tag_125\n      jumpi\n      mload(0x40)\n      shl(0xe5, 0x461bcd)\n      dup2\n      mstore\n      0x04\n      add\n      tag_113\n      swap1\n      tag_127\n      jump\t// in\n    tag_125:\n        /* \"@openzeppelin/contracts/token/ERC721/ERC721.sol\":3910:3931  _approve(to, tokenId) */\n      tag_128\n        /* \"@openzeppelin/contracts/token/ERC721/ERC721.sol\":3919:3921  to */\n      dup4\n        /* \"@openzeppelin/contracts/token/ERC721/ERC721.sol\":3923:3930  tokenId */\n      dup4\n        /* \"@openzeppelin/contracts/token/ERC721/ERC721.sol\":3910:3918  _approve */\n      tag_129\n        /* \"@openzeppelin/contracts/token/ERC721/ERC721.sol\":3910:3931  _approve(to, tokenId) */\n      jump\t// in\n    tag_128:\n        /* \"@openzeppelin/contracts/token/ERC721/ERC721.sol\":3537:3938  function approve(address to, uint256 tokenId) public virtual override {... */\n      pop\n      pop\n      pop\n      jump\t// out\n        /* \"@openzeppelin/contracts/token/ERC721/ERC721.sol\":4726:5056  function transferFrom(... */\n    tag_47:\n        /* \"@openzeppelin/contracts/token/ERC721/ERC721.sol\":4915:4956  _isApprovedOrOwner(_msgSender(), tokenId) */\n      tag_131\n        /* \"@openzeppelin/contracts/token/ERC721/ERC721.sol\":4934:4946  _msgSender() */\n      tag_132\n        /* \"@openzeppelin/contracts/token/ERC721/ERC721.sol\":4934:4944  _msgSender */\n      tag_121\n        /* \"@openzeppelin/contracts/token/ERC721/ERC721.sol\":4934:4946  _msgSender() */\n      jump\t// in\n    tag_132:\n        /* \"@openzeppelin/contracts/token/ERC721/ERC721.sol\":4948:4955  tokenId */\n      dup3\n        /* \"@openzeppelin/contracts/token/ERC721/ERC721.sol\":4915:4933  _isApprovedOrOwner */\n      tag_133\n        /* \"@openzeppelin/contracts/token/ERC721/ERC721.sol\":4915:4956  _isApprovedOrOwner(_msgSender(), tokenId) */\n      jump\t// in\n    tag_131:\n        /* \"@openzeppelin/contracts/token/ERC721/ERC721.sol\":4907:5010  require(_isApprovedOrOwner(_msgSender(), tokenId), \"ERC721: transfer caller is not owner nor approved\") */\n      tag_134\n      jumpi\n      mload(0x40)\n      shl(0xe5, 0x461bcd)\n      dup2\n      mstore\n      0x04\n      add\n      tag_113\n      swap1\n      tag_136\n      jump\t// in\n    tag_134:\n        /* \"@openzeppelin/contracts/token/ERC721/ERC721.sol\":5021:5049  _transfer(from, to, tokenId) */\n      tag_128\n        /* \"@openzeppelin/contracts/token/ERC721/ERC721.sol\":5031:5035  from */\n      dup4\n        /* \"@openzeppelin/contracts/token/ERC721/ERC721.sol\":5037:5039  to */\n      dup4\n        /* \"@openzeppelin/contracts/token/ERC721/ERC721.sol\":5041:5048  tokenId */\n      dup4\n        /* \"@openzeppelin/contracts/token/ERC721/ERC721.sol\":5021:5030  _transfer */\n      tag_138\n        /* \"@openzeppelin/contracts/token/ERC721/ERC721.sol\":5021:5049  _transfer(from, to, tokenId) */\n      jump\t// in\n        /* \"contracts/NFT_Demo/NFT.sol\":687:1116  function increasePet(uint256 tokenId, uint8 damage, uint8 magic, uint8 level) public { ... */\n    tag_51:\n        /* \"contracts/NFT_Demo/NFT.sol\":787:800  address owner */\n      0x00\n        /* \"contracts/NFT_Demo/NFT.sol\":803:819  _owners[tokenId] */\n      dup5\n      dup2\n      mstore\n        /* \"contracts/NFT_Demo/NFT.sol\":803:810  _owners */\n      0x09\n        /* \"contracts/NFT_Demo/NFT.sol\":803:819  _owners[tokenId] */\n      0x20\n      mstore\n      0x40\n      swap1\n      keccak256\n      sload\n      sub(shl(0xa0, 0x01), 0x01)\n      and\n        /* \"contracts/NFT_Demo/NFT.sol\":841:860  owner != address(0) */\n      dup1\n        /* \"contracts/NFT_Demo/NFT.sol\":833:905  require(owner != address(0),\"ERC721: owner query for nonexistent token\") */\n      tag_140\n      jumpi\n      mload(0x40)\n      shl(0xe5, 0x461bcd)\n      dup2\n      mstore\n      0x04\n      add\n      tag_113\n      swap1\n      tag_142\n      jump\t// in\n    tag_140:\n        /* \"contracts/NFT_Demo/NFT.sol\":927:937  msg.sender */\n      caller\n      sub(shl(0xa0, 0x01), 0x01)\n        /* \"contracts/NFT_Demo/NFT.sol\":927:946  msg.sender == owner */\n      dup3\n      and\n      eq\n        /* \"contracts/NFT_Demo/NFT.sol\":919:978  require(msg.sender == owner, \"ERC721: not the owner token\") */\n      tag_143\n      jumpi\n      mload(0x40)\n      shl(0xe5, 0x461bcd)\n      dup2\n      mstore\n      0x04\n      add\n      tag_113\n      swap1\n      tag_145\n      jump\t// in\n    tag_143:\n      pop\n        /* \"contracts/NFT_Demo/NFT.sol\":991:1004  _pet[tokenId] */\n      0x00\n      swap4\n      dup5\n      mstore\n        /* \"contracts/NFT_Demo/NFT.sol\":991:995  _pet */\n      0x08\n        /* \"contracts/NFT_Demo/NFT.sol\":991:1004  _pet[tokenId] */\n      0x20\n      mstore\n      0x40\n      swap1\n      swap4\n      keccak256\n        /* \"contracts/NFT_Demo/NFT.sol\":991:1020  _pet[tokenId].damage = damage */\n      dup1\n      sload\n      0xff\n        /* \"contracts/NFT_Demo/NFT.sol\":1073:1100  _pet[tokenId].level = level */\n      swap5\n      dup6\n      and\n      0x010000\n      mul\n      not(0xff0000)\n        /* \"contracts/NFT_Demo/NFT.sol\":1033:1060  _pet[tokenId].magic = magic */\n      swap4\n      dup7\n      and\n        /* \"contracts/NFT_Demo/NFT.sol\":991:1020  _pet[tokenId].damage = damage */\n      0x0100\n        /* \"contracts/NFT_Demo/NFT.sol\":1033:1060  _pet[tokenId].magic = magic */\n      mul\n      not(0xff00)\n        /* \"contracts/NFT_Demo/NFT.sol\":991:1020  _pet[tokenId].damage = damage */\n      swap6\n      swap1\n      swap7\n      and\n      not(0xff)\n      swap1\n      swap3\n      and\n      swap2\n      swap1\n      swap2\n      or\n        /* \"contracts/NFT_Demo/NFT.sol\":1033:1060  _pet[tokenId].magic = magic */\n      swap4\n      swap1\n      swap4\n      and\n      swap4\n      swap1\n      swap4\n      or\n        /* \"contracts/NFT_Demo/NFT.sol\":1073:1100  _pet[tokenId].level = level */\n      and\n      or\n      swap1\n      sstore\n        /* \"contracts/NFT_Demo/NFT.sol\":687:1116  function increasePet(uint256 tokenId, uint8 damage, uint8 magic, uint8 level) public { ... */\n      jump\t// out\n        /* \"contracts/NFT_Demo/NFT.sol\":512:681  function mint(uint8 damage, uint8 magic) public onlyOwner {... */\n    tag_55:\n        /* \"@openzeppelin/contracts/access/Ownable.sol\":1259:1271  _msgSender() */\n      tag_147\n        /* \"@openzeppelin/contracts/access/Ownable.sol\":1259:1269  _msgSender */\n      tag_121\n        /* \"@openzeppelin/contracts/access/Ownable.sol\":1259:1271  _msgSender() */\n      jump\t// in\n    tag_147:\n      sub(shl(0xa0, 0x01), 0x01)\n        /* \"@openzeppelin/contracts/access/Ownable.sol\":1248:1271  owner() == _msgSender() */\n      and\n        /* \"@openzeppelin/contracts/access/Ownable.sol\":1248:1255  owner() */\n      tag_148\n        /* \"@openzeppelin/contracts/access/Ownable.sol\":1248:1253  owner */\n      tag_72\n        /* \"@openzeppelin/contracts/access/Ownable.sol\":1248:1255  owner() */\n      jump\t// in\n    tag_148:\n      sub(shl(0xa0, 0x01), 0x01)\n        /* \"@openzeppelin/contracts/access/Ownable.sol\":1248:1271  owner() == _msgSender() */\n      and\n      eq\n        /* \"@openzeppelin/contracts/access/Ownable.sol\":1240:1308  require(owner() == _msgSender(), \"Ownable: caller is not the owner\") */\n      tag_149\n      jumpi\n      mload(0x40)\n      shl(0xe5, 0x461bcd)\n      dup2\n      mstore\n      0x04\n      add\n      tag_113\n      swap1\n      tag_151\n      jump\t// in\n    tag_149:\n        /* \"contracts/NFT_Demo/NFT.sol\":580:609  _safeMint(msg.sender, nextId) */\n      tag_153\n        /* \"contracts/NFT_Demo/NFT.sol\":590:600  msg.sender */\n      caller\n        /* \"contracts/NFT_Demo/NFT.sol\":602:608  nextId */\n      sload(0x07)\n        /* \"contracts/NFT_Demo/NFT.sol\":580:589  _safeMint */\n      tag_154\n        /* \"contracts/NFT_Demo/NFT.sol\":580:609  _safeMint(msg.sender, nextId) */\n      jump\t// in\n    tag_153:\n        /* \"contracts/NFT_Demo/NFT.sol\":634:655  Pet(damage, magic, 1) */\n      0x40\n      dup1\n      mload\n      0x60\n      dup2\n      add\n      dup3\n      mstore\n      0xff\n      dup1\n      dup6\n      and\n      dup3\n      mstore\n      dup4\n      dup2\n      and\n      0x20\n      dup1\n      dup5\n      add\n      swap2\n      dup3\n      mstore\n        /* \"contracts/NFT_Demo/NFT.sol\":653:654  1 */\n      0x01\n        /* \"contracts/NFT_Demo/NFT.sol\":634:655  Pet(damage, magic, 1) */\n      dup5\n      dup7\n      add\n      swap1\n      dup2\n      mstore\n        /* \"contracts/NFT_Demo/NFT.sol\":624:630  nextId */\n      0x07\n      dup1\n      sload\n      0x00\n        /* \"contracts/NFT_Demo/NFT.sol\":619:631  _pet[nextId] */\n      swap1\n      dup2\n      mstore\n        /* \"contracts/NFT_Demo/NFT.sol\":619:623  _pet */\n      0x08\n        /* \"contracts/NFT_Demo/NFT.sol\":619:631  _pet[nextId] */\n      swap1\n      swap4\n      mstore\n      swap6\n      dup3\n      keccak256\n        /* \"contracts/NFT_Demo/NFT.sol\":619:655  _pet[nextId] = Pet(damage, magic, 1) */\n      swap5\n      mload\n      dup6\n      sload\n      swap4\n      mload\n      swap2\n      mload\n      dup6\n      and\n      0x010000\n      mul\n      not(0xff0000)\n      swap3\n      dup7\n      and\n      0x0100\n      mul\n      not(0xff00)\n      swap3\n      swap1\n      swap7\n      and\n      not(0xff)\n      swap1\n      swap6\n      and\n      swap5\n      swap1\n      swap5\n      or\n      and\n      swap4\n      swap1\n      swap4\n      or\n      swap3\n      swap1\n      swap3\n      and\n      or\n      swap1\n      swap2\n      sstore\n        /* \"contracts/NFT_Demo/NFT.sol\":665:673  nextId++ */\n      dup2\n      sload\n      swap2\n        /* \"contracts/NFT_Demo/NFT.sol\":624:630  nextId */\n      swap1\n        /* \"contracts/NFT_Demo/NFT.sol\":665:673  nextId++ */\n      tag_155\n      dup4\n      tag_156\n      jump\t// in\n    tag_155:\n      swap2\n      swap1\n      pop\n      sstore\n      pop\n        /* \"contracts/NFT_Demo/NFT.sol\":512:681  function mint(uint8 damage, uint8 magic) public onlyOwner {... */\n      pop\n      pop\n      jump\t// out\n        /* \"@openzeppelin/contracts/token/ERC721/ERC721.sol\":5122:5301  function safeTransferFrom(... */\n    tag_58:\n        /* \"@openzeppelin/contracts/token/ERC721/ERC721.sol\":5255:5294  safeTransferFrom(from, to, tokenId, \"\") */\n      tag_128\n        /* \"@openzeppelin/contracts/token/ERC721/ERC721.sol\":5272:5276  from */\n      dup4\n        /* \"@openzeppelin/contracts/token/ERC721/ERC721.sol\":5278:5280  to */\n      dup4\n        /* \"@openzeppelin/contracts/token/ERC721/ERC721.sol\":5282:5289  tokenId */\n      dup4\n        /* \"@openzeppelin/contracts/token/ERC721/ERC721.sol\":5255:5294  safeTransferFrom(from, to, tokenId, \"\") */\n      mload(0x40)\n      dup1\n      0x20\n      add\n      0x40\n      mstore\n      dup1\n      0x00\n      dup2\n      mstore\n      pop\n        /* \"@openzeppelin/contracts/token/ERC721/ERC721.sol\":5255:5271  safeTransferFrom */\n      tag_84\n        /* \"@openzeppelin/contracts/token/ERC721/ERC721.sol\":5255:5294  safeTransferFrom(from, to, tokenId, \"\") */\n      jump\t// in\n        /* \"@openzeppelin/contracts/token/ERC721/ERC721.sol\":2191:2426  function ownerOf(uint256 tokenId) public view virtual override returns (address) {... */\n    tag_61:\n        /* \"@openzeppelin/contracts/token/ERC721/ERC721.sol\":2263:2270  address */\n      0x00\n        /* \"@openzeppelin/contracts/token/ERC721/ERC721.sol\":2298:2314  _owners[tokenId] */\n      dup2\n      dup2\n      mstore\n        /* \"@openzeppelin/contracts/token/ERC721/ERC721.sol\":2298:2305  _owners */\n      0x02\n        /* \"@openzeppelin/contracts/token/ERC721/ERC721.sol\":2298:2314  _owners[tokenId] */\n      0x20\n      mstore\n      0x40\n      dup2\n      keccak256\n      sload\n      sub(shl(0xa0, 0x01), 0x01)\n      and\n        /* \"@openzeppelin/contracts/token/ERC721/ERC721.sol\":2332:2351  owner != address(0) */\n      dup1\n        /* \"@openzeppelin/contracts/token/ERC721/ERC721.sol\":2324:2397  require(owner != address(0), \"ERC721: owner query for nonexistent token\") */\n      tag_100\n      jumpi\n      mload(0x40)\n      shl(0xe5, 0x461bcd)\n      dup2\n      mstore\n      0x04\n      add\n      tag_113\n      swap1\n      tag_142\n      jump\t// in\n        /* \"@openzeppelin/contracts/token/ERC721/ERC721.sol\":1929:2134  function balanceOf(address owner) public view virtual override returns (uint256) {... */\n    tag_66:\n        /* \"@openzeppelin/contracts/token/ERC721/ERC721.sol\":2001:2008  uint256 */\n      0x00\n      sub(shl(0xa0, 0x01), 0x01)\n        /* \"@openzeppelin/contracts/token/ERC721/ERC721.sol\":2028:2047  owner != address(0) */\n      dup3\n      and\n        /* \"@openzeppelin/contracts/token/ERC721/ERC721.sol\":2020:2094  require(owner != address(0), \"ERC721: balance query for the zero address\") */\n      tag_163\n      jumpi\n      mload(0x40)\n      shl(0xe5, 0x461bcd)\n      dup2\n      mstore\n      0x04\n      add\n      tag_113\n      swap1\n      tag_165\n      jump\t// in\n    tag_163:\n      pop\n      sub(shl(0xa0, 0x01), 0x01)\n        /* \"@openzeppelin/contracts/token/ERC721/ERC721.sol\":2111:2127  _balances[owner] */\n      and\n      0x00\n      swap1\n      dup2\n      mstore\n        /* \"@openzeppelin/contracts/token/ERC721/ERC721.sol\":2111:2120  _balances */\n      0x03\n        /* \"@openzeppelin/contracts/token/ERC721/ERC721.sol\":2111:2127  _balances[owner] */\n      0x20\n      mstore\n      0x40\n      swap1\n      keccak256\n      sload\n      swap1\n        /* \"@openzeppelin/contracts/token/ERC721/ERC721.sol\":1929:2134  function balanceOf(address owner) public view virtual override returns (uint256) {... */\n      jump\t// out\n        /* \"@openzeppelin/contracts/access/Ownable.sol\":1668:1769  function renounceOwnership() public virtual onlyOwner {... */\n    tag_70:\n        /* \"@openzeppelin/contracts/access/Ownable.sol\":1259:1271  _msgSender() */\n      tag_167\n        /* \"@openzeppelin/contracts/access/Ownable.sol\":1259:1269  _msgSender */\n      tag_121\n        /* \"@openzeppelin/contracts/access/Ownable.sol\":1259:1271  _msgSender() */\n      jump\t// in\n    tag_167:\n      sub(shl(0xa0, 0x01), 0x01)\n        /* \"@openzeppelin/contracts/access/Ownable.sol\":1248:1271  owner() == _msgSender() */\n      and\n        /* \"@openzeppelin/contracts/access/Ownable.sol\":1248:1255  owner() */\n      tag_168\n        /* \"@openzeppelin/contracts/access/Ownable.sol\":1248:1253  owner */\n      tag_72\n        /* \"@openzeppelin/contracts/access/Ownable.sol\":1248:1255  owner() */\n      jump\t// in\n    tag_168:\n      sub(shl(0xa0, 0x01), 0x01)\n        /* \"@openzeppelin/contracts/access/Ownable.sol\":1248:1271  owner() == _msgSender() */\n      and\n      eq\n        /* \"@openzeppelin/contracts/access/Ownable.sol\":1240:1308  require(owner() == _msgSender(), \"Ownable: caller is not the owner\") */\n      tag_169\n      jumpi\n      mload(0x40)\n      shl(0xe5, 0x461bcd)\n      dup2\n      mstore\n      0x04\n      add\n      tag_113\n      swap1\n      tag_151\n      jump\t// in\n    tag_169:\n        /* \"@openzeppelin/contracts/access/Ownable.sol\":1732:1762  _transferOwnership(address(0)) */\n      tag_172\n        /* \"@openzeppelin/contracts/access/Ownable.sol\":1759:1760  0 */\n      0x00\n        /* \"@openzeppelin/contracts/access/Ownable.sol\":1732:1750  _transferOwnership */\n      tag_173\n        /* \"@openzeppelin/contracts/access/Ownable.sol\":1732:1762  _transferOwnership(address(0)) */\n      jump\t// in\n    tag_172:\n        /* \"@openzeppelin/contracts/access/Ownable.sol\":1668:1769  function renounceOwnership() public virtual onlyOwner {... */\n      jump\t// out\n        /* \"@openzeppelin/contracts/access/Ownable.sol\":1036:1121  function owner() public view virtual returns (address) {... */\n    tag_72:\n        /* \"@openzeppelin/contracts/access/Ownable.sol\":1108:1114  _owner */\n      and(sub(shl(0xa0, 0x01), 0x01), sload(0x06))\n        /* \"@openzeppelin/contracts/access/Ownable.sol\":1036:1121  function owner() public view virtual returns (address) {... */\n      swap1\n      jump\t// out\n        /* \"@openzeppelin/contracts/token/ERC721/ERC721.sol\":2650:2752  function symbol() public view virtual override returns (string memory) {... */\n    tag_75:\n        /* \"@openzeppelin/contracts/token/ERC721/ERC721.sol\":2706:2719  string memory */\n      0x60\n        /* \"@openzeppelin/contracts/token/ERC721/ERC721.sol\":2738:2745  _symbol */\n      0x01\n        /* \"@openzeppelin/contracts/token/ERC721/ERC721.sol\":2731:2745  return _symbol */\n      dup1\n      sload\n      tag_103\n      swap1\n      tag_104\n      jump\t// in\n        /* \"@openzeppelin/contracts/token/ERC721/ERC721.sol\":4283:4436  function setApprovalForAll(address operator, bool approved) public virtual override {... */\n    tag_80:\n        /* \"@openzeppelin/contracts/token/ERC721/ERC721.sol\":4377:4429  _setApprovalForAll(_msgSender(), operator, approved) */\n      tag_182\n        /* \"@openzeppelin/contracts/token/ERC721/ERC721.sol\":4396:4408  _msgSender() */\n      tag_183\n        /* \"@openzeppelin/contracts/token/ERC721/ERC721.sol\":4396:4406  _msgSender */\n      tag_121\n        /* \"@openzeppelin/contracts/token/ERC721/ERC721.sol\":4396:4408  _msgSender() */\n      jump\t// in\n    tag_183:\n        /* \"@openzeppelin/contracts/token/ERC721/ERC721.sol\":4410:4418  operator */\n      dup4\n        /* \"@openzeppelin/contracts/token/ERC721/ERC721.sol\":4420:4428  approved */\n      dup4\n        /* \"@openzeppelin/contracts/token/ERC721/ERC721.sol\":4377:4395  _setApprovalForAll */\n      tag_184\n        /* \"@openzeppelin/contracts/token/ERC721/ERC721.sol\":4377:4429  _setApprovalForAll(_msgSender(), operator, approved) */\n      jump\t// in\n    tag_182:\n        /* \"@openzeppelin/contracts/token/ERC721/ERC721.sol\":4283:4436  function setApprovalForAll(address operator, bool approved) public virtual override {... */\n      pop\n      pop\n      jump\t// out\n        /* \"@openzeppelin/contracts/token/ERC721/ERC721.sol\":5367:5687  function safeTransferFrom(... */\n    tag_84:\n        /* \"@openzeppelin/contracts/token/ERC721/ERC721.sol\":5536:5577  _isApprovedOrOwner(_msgSender(), tokenId) */\n      tag_186\n        /* \"@openzeppelin/contracts/token/ERC721/ERC721.sol\":5555:5567  _msgSender() */\n      tag_187\n        /* \"@openzeppelin/contracts/token/ERC721/ERC721.sol\":5555:5565  _msgSender */\n      tag_121\n        /* \"@openzeppelin/contracts/token/ERC721/ERC721.sol\":5555:5567  _msgSender() */\n      jump\t// in\n    tag_187:\n        /* \"@openzeppelin/contracts/token/ERC721/ERC721.sol\":5569:5576  tokenId */\n      dup4\n        /* \"@openzeppelin/contracts/token/ERC721/ERC721.sol\":5536:5554  _isApprovedOrOwner */\n      tag_133\n        /* \"@openzeppelin/contracts/token/ERC721/ERC721.sol\":5536:5577  _isApprovedOrOwner(_msgSender(), tokenId) */\n      jump\t// in\n    tag_186:\n        /* \"@openzeppelin/contracts/token/ERC721/ERC721.sol\":5528:5631  require(_isApprovedOrOwner(_msgSender(), tokenId), \"ERC721: transfer caller is not owner nor approved\") */\n      tag_188\n      jumpi\n      mload(0x40)\n      shl(0xe5, 0x461bcd)\n      dup2\n      mstore\n      0x04\n      add\n      tag_113\n      swap1\n      tag_136\n      jump\t// in\n    tag_188:\n        /* \"@openzeppelin/contracts/token/ERC721/ERC721.sol\":5641:5680  _safeTransfer(from, to, tokenId, _data) */\n      tag_190\n        /* \"@openzeppelin/contracts/token/ERC721/ERC721.sol\":5655:5659  from */\n      dup5\n        /* \"@openzeppelin/contracts/token/ERC721/ERC721.sol\":5661:5663  to */\n      dup5\n        /* \"@openzeppelin/contracts/token/ERC721/ERC721.sol\":5665:5672  tokenId */\n      dup5\n        /* \"@openzeppelin/contracts/token/ERC721/ERC721.sol\":5674:5679  _data */\n      dup5\n        /* \"@openzeppelin/contracts/token/ERC721/ERC721.sol\":5641:5654  _safeTransfer */\n      tag_191\n        /* \"@openzeppelin/contracts/token/ERC721/ERC721.sol\":5641:5680  _safeTransfer(from, to, tokenId, _data) */\n      jump\t// in\n    tag_190:\n        /* \"@openzeppelin/contracts/token/ERC721/ERC721.sol\":5367:5687  function safeTransferFrom(... */\n      pop\n      pop\n      pop\n      pop\n      jump\t// out\n        /* \"@openzeppelin/contracts/token/ERC721/ERC721.sol\":2818:3147  function tokenURI(uint256 tokenId) public view virtual override returns (string memory) {... */\n    tag_87:\n        /* \"@openzeppelin/contracts/token/ERC721/ERC721.sol\":2891:2904  string memory */\n      0x60\n        /* \"@openzeppelin/contracts/token/ERC721/ERC721.sol\":2924:2940  _exists(tokenId) */\n      tag_193\n        /* \"@openzeppelin/contracts/token/ERC721/ERC721.sol\":2932:2939  tokenId */\n      dup3\n        /* \"@openzeppelin/contracts/token/ERC721/ERC721.sol\":2924:2931  _exists */\n      tag_111\n        /* \"@openzeppelin/contracts/token/ERC721/ERC721.sol\":2924:2940  _exists(tokenId) */\n      jump\t// in\n    tag_193:\n        /* \"@openzeppelin/contracts/token/ERC721/ERC721.sol\":2916:2992  require(_exists(tokenId), \"ERC721Metadata: URI query for nonexistent token\") */\n      tag_194\n      jumpi\n      mload(0x40)\n      shl(0xe5, 0x461bcd)\n      dup2\n      mstore\n      0x04\n      add\n      tag_113\n      swap1\n      tag_196\n      jump\t// in\n    tag_194:\n        /* \"@openzeppelin/contracts/token/ERC721/ERC721.sol\":3003:3024  string memory baseURI */\n      0x00\n        /* \"@openzeppelin/contracts/token/ERC721/ERC721.sol\":3027:3037  _baseURI() */\n      tag_197\n        /* \"@openzeppelin/contracts/token/ERC721/ERC721.sol\":3027:3035  _baseURI */\n      tag_198\n        /* \"@openzeppelin/contracts/token/ERC721/ERC721.sol\":3027:3037  _baseURI() */\n      jump\t// in\n    tag_197:\n        /* \"@openzeppelin/contracts/token/ERC721/ERC721.sol\":3003:3037  string memory baseURI = _baseURI() */\n      swap1\n      pop\n        /* \"@openzeppelin/contracts/token/ERC721/ERC721.sol\":3078:3079  0 */\n      0x00\n        /* \"@openzeppelin/contracts/token/ERC721/ERC721.sol\":3060:3067  baseURI */\n      dup2\n        /* \"@openzeppelin/contracts/token/ERC721/ERC721.sol\":3054:3075  bytes(baseURI).length */\n      mload\n        /* \"@openzeppelin/contracts/token/ERC721/ERC721.sol\":3054:3079  bytes(baseURI).length > 0 */\n      gt\n        /* \"@openzeppelin/contracts/token/ERC721/ERC721.sol\":3054:3140  bytes(baseURI).length > 0 ? string(abi.encodePacked(baseURI, tokenId.toString())) : \"\" */\n      tag_199\n      jumpi\n      mload(0x40)\n      dup1\n      0x20\n      add\n      0x40\n      mstore\n      dup1\n      0x00\n      dup2\n      mstore\n      pop\n      jump(tag_200)\n    tag_199:\n        /* \"@openzeppelin/contracts/token/ERC721/ERC721.sol\":3106:3113  baseURI */\n      dup1\n        /* \"@openzeppelin/contracts/token/ERC721/ERC721.sol\":3115:3133  tokenId.toString() */\n      tag_201\n        /* \"@openzeppelin/contracts/token/ERC721/ERC721.sol\":3115:3122  tokenId */\n      dup5\n        /* \"@openzeppelin/contracts/token/ERC721/ERC721.sol\":3115:3131  tokenId.toString */\n      tag_202\n        /* \"@openzeppelin/contracts/token/ERC721/ERC721.sol\":3115:3133  tokenId.toString() */\n      jump\t// in\n    tag_201:\n        /* \"@openzeppelin/contracts/token/ERC721/ERC721.sol\":3089:3134  abi.encodePacked(baseURI, tokenId.toString()) */\n      add(0x20, mload(0x40))\n      tag_203\n      swap3\n      swap2\n      swap1\n      tag_204\n      jump\t// in\n    tag_203:\n      mload(0x40)\n      0x20\n      dup2\n      dup4\n      sub\n      sub\n      dup2\n      mstore\n      swap1\n      0x40\n      mstore\n        /* \"@openzeppelin/contracts/token/ERC721/ERC721.sol\":3054:3140  bytes(baseURI).length > 0 ? string(abi.encodePacked(baseURI, tokenId.toString())) : \"\" */\n    tag_200:\n        /* \"@openzeppelin/contracts/token/ERC721/ERC721.sol\":3047:3140  return bytes(baseURI).length > 0 ? string(abi.encodePacked(baseURI, tokenId.toString())) : \"\" */\n      swap4\n        /* \"@openzeppelin/contracts/token/ERC721/ERC721.sol\":2818:3147  function tokenURI(uint256 tokenId) public view virtual override returns (string memory) {... */\n      swap3\n      pop\n      pop\n      pop\n      jump\t// out\n        /* \"@openzeppelin/contracts/token/ERC721/ERC721.sol\":4502:4664  function isApprovedForAll(address owner, address operator) public view virtual override returns (bool) {... */\n    tag_92:\n      sub(shl(0xa0, 0x01), 0x01)\n        /* \"@openzeppelin/contracts/token/ERC721/ERC721.sol\":4622:4647  _operatorApprovals[owner] */\n      swap2\n      dup3\n      and\n        /* \"@openzeppelin/contracts/token/ERC721/ERC721.sol\":4599:4603  bool */\n      0x00\n        /* \"@openzeppelin/contracts/token/ERC721/ERC721.sol\":4622:4647  _operatorApprovals[owner] */\n      swap1\n      dup2\n      mstore\n        /* \"@openzeppelin/contracts/token/ERC721/ERC721.sol\":4622:4640  _operatorApprovals */\n      0x05\n        /* \"@openzeppelin/contracts/token/ERC721/ERC721.sol\":4622:4647  _operatorApprovals[owner] */\n      0x20\n      swap1\n      dup2\n      mstore\n      0x40\n      dup1\n      dup4\n      keccak256\n        /* \"@openzeppelin/contracts/token/ERC721/ERC721.sol\":4622:4657  _operatorApprovals[owner][operator] */\n      swap4\n      swap1\n      swap5\n      and\n      dup3\n      mstore\n      swap2\n      swap1\n      swap2\n      mstore\n      keccak256\n      sload\n      0xff\n      and\n      swap1\n        /* \"@openzeppelin/contracts/token/ERC721/ERC721.sol\":4502:4664  function isApprovedForAll(address owner, address operator) public view virtual override returns (bool) {... */\n      jump\t// out\n        /* \"@openzeppelin/contracts/access/Ownable.sol\":1918:2116  function transferOwnership(address newOwner) public virtual onlyOwner {... */\n    tag_96:\n        /* \"@openzeppelin/contracts/access/Ownable.sol\":1259:1271  _msgSender() */\n      tag_207\n        /* \"@openzeppelin/contracts/access/Ownable.sol\":1259:1269  _msgSender */\n      tag_121\n        /* \"@openzeppelin/contracts/access/Ownable.sol\":1259:1271  _msgSender() */\n      jump\t// in\n    tag_207:\n      sub(shl(0xa0, 0x01), 0x01)\n        /* \"@openzeppelin/contracts/access/Ownable.sol\":1248:1271  owner() == _msgSender() */\n      and\n        /* \"@openzeppelin/contracts/access/Ownable.sol\":1248:1255  owner() */\n      tag_208\n        /* \"@openzeppelin/contracts/access/Ownable.sol\":1248:1253  owner */\n      tag_72\n        /* \"@openzeppelin/contracts/access/Ownable.sol\":1248:1255  owner() */\n      jump\t// in\n    tag_208:\n      sub(shl(0xa0, 0x01), 0x01)\n        /* \"@openzeppelin/contracts/access/Ownable.sol\":1248:1271  owner() == _msgSender() */\n      and\n      eq\n        /* \"@openzeppelin/contracts/access/Ownable.sol\":1240:1308  require(owner() == _msgSender(), \"Ownable: caller is not the owner\") */\n      tag_209\n      jumpi\n      mload(0x40)\n      shl(0xe5, 0x461bcd)\n      dup2\n      mstore\n      0x04\n      add\n      tag_113\n      swap1\n      tag_151\n      jump\t// in\n    tag_209:\n      sub(shl(0xa0, 0x01), 0x01)\n        /* \"@openzeppelin/contracts/access/Ownable.sol\":2006:2028  newOwner != address(0) */\n      dup2\n      and\n        /* \"@openzeppelin/contracts/access/Ownable.sol\":1998:2071  require(newOwner != address(0), \"Ownable: new owner is the zero address\") */\n      tag_212\n      jumpi\n      mload(0x40)\n      shl(0xe5, 0x461bcd)\n      dup2\n      mstore\n      0x04\n      add\n      tag_113\n      swap1\n      tag_214\n      jump\t// in\n    tag_212:\n        /* \"@openzeppelin/contracts/access/Ownable.sol\":2081:2109  _transferOwnership(newOwner) */\n      tag_215\n        /* \"@openzeppelin/contracts/access/Ownable.sol\":2100:2108  newOwner */\n      dup2\n        /* \"@openzeppelin/contracts/access/Ownable.sol\":2081:2099  _transferOwnership */\n      tag_173\n        /* \"@openzeppelin/contracts/access/Ownable.sol\":2081:2109  _transferOwnership(newOwner) */\n      jump\t// in\n    tag_215:\n        /* \"@openzeppelin/contracts/access/Ownable.sol\":1918:2116  function transferOwnership(address newOwner) public virtual onlyOwner {... */\n      pop\n      jump\t// out\n        /* \"@openzeppelin/contracts/utils/introspection/ERC165.sol\":829:984  function supportsInterface(bytes4 interfaceId) public view virtual override returns (bool) {... */\n    tag_101:\n      not(sub(shl(0xe0, 0x01), 0x01))\n        /* \"@openzeppelin/contracts/utils/introspection/ERC165.sol\":937:977  interfaceId == type(IERC165).interfaceId */\n      dup2\n      and\n      shl(0xe0, 0x01ffc9a7)\n      eq\n        /* \"@openzeppelin/contracts/utils/introspection/ERC165.sol\":829:984  function supportsInterface(bytes4 interfaceId) public view virtual override returns (bool) {... */\n      swap2\n      swap1\n      pop\n      jump\t// out\n        /* \"@openzeppelin/contracts/token/ERC721/ERC721.sol\":7159:7284  function _exists(uint256 tokenId) internal view virtual returns (bool) {... */\n    tag_111:\n        /* \"@openzeppelin/contracts/token/ERC721/ERC721.sol\":7224:7228  bool */\n      0x00\n        /* \"@openzeppelin/contracts/token/ERC721/ERC721.sol\":7247:7263  _owners[tokenId] */\n      swap1\n      dup2\n      mstore\n        /* \"@openzeppelin/contracts/token/ERC721/ERC721.sol\":7247:7254  _owners */\n      0x02\n        /* \"@openzeppelin/contracts/token/ERC721/ERC721.sol\":7247:7263  _owners[tokenId] */\n      0x20\n      mstore\n      0x40\n      swap1\n      keccak256\n      sload\n      sub(shl(0xa0, 0x01), 0x01)\n      and\n        /* \"@openzeppelin/contracts/token/ERC721/ERC721.sol\":7247:7277  _owners[tokenId] != address(0) */\n      iszero\n      iszero\n      swap1\n        /* \"@openzeppelin/contracts/token/ERC721/ERC721.sol\":7159:7284  function _exists(uint256 tokenId) internal view virtual returns (bool) {... */\n      jump\t// out\n        /* \"@openzeppelin/contracts/utils/Context.sol\":640:736  function _msgSender() internal view virtual returns (address) {... */\n    tag_121:\n        /* \"@openzeppelin/contracts/utils/Context.sol\":719:729  msg.sender */\n      caller\n        /* \"@openzeppelin/contracts/utils/Context.sol\":640:736  function _msgSender() internal view virtual returns (address) {... */\n      swap1\n      jump\t// out\n        /* \"@openzeppelin/contracts/token/ERC721/ERC721.sol\":11168:11339  function _approve(address to, uint256 tokenId) internal virtual {... */\n    tag_129:\n        /* \"@openzeppelin/contracts/token/ERC721/ERC721.sol\":11242:11266  _tokenApprovals[tokenId] */\n      0x00\n      dup2\n      dup2\n      mstore\n        /* \"@openzeppelin/contracts/token/ERC721/ERC721.sol\":11242:11257  _tokenApprovals */\n      0x04\n        /* \"@openzeppelin/contracts/token/ERC721/ERC721.sol\":11242:11266  _tokenApprovals[tokenId] */\n      0x20\n      mstore\n      0x40\n      swap1\n      keccak256\n        /* \"@openzeppelin/contracts/token/ERC721/ERC721.sol\":11242:11271  _tokenApprovals[tokenId] = to */\n      dup1\n      sload\n      not(sub(shl(0xa0, 0x01), 0x01))\n      and\n      sub(shl(0xa0, 0x01), 0x01)\n      dup5\n      and\n      swap1\n      dup2\n      or\n      swap1\n      swap2\n      sstore\n        /* \"@openzeppelin/contracts/token/ERC721/ERC721.sol\":11242:11266  _tokenApprovals[tokenId] */\n      dup2\n      swap1\n        /* \"@openzeppelin/contracts/token/ERC721/ERC721.sol\":11295:11318  ERC721.ownerOf(tokenId) */\n      tag_220\n        /* \"@openzeppelin/contracts/token/ERC721/ERC721.sol\":11242:11266  _tokenApprovals[tokenId] */\n      dup3\n        /* \"@openzeppelin/contracts/token/ERC721/ERC721.sol\":11295:11309  ERC721.ownerOf */\n      tag_61\n        /* \"@openzeppelin/contracts/token/ERC721/ERC721.sol\":11295:11318  ERC721.ownerOf(tokenId) */\n      jump\t// in\n    tag_220:\n      sub(shl(0xa0, 0x01), 0x01)\n        /* \"@openzeppelin/contracts/token/ERC721/ERC721.sol\":11286:11332  Approval(ERC721.ownerOf(tokenId), to, tokenId) */\n      and\n      0x8c5be1e5ebec7d5bd14f71427d1e84f3dd0314c0f7b2291e5b200ac8c7c3b925\n      mload(0x40)\n      mload(0x40)\n      dup1\n      swap2\n      sub\n      swap1\n      log4\n        /* \"@openzeppelin/contracts/token/ERC721/ERC721.sol\":11168:11339  function _approve(address to, uint256 tokenId) internal virtual {... */\n      pop\n      pop\n      jump\t// out\n        /* \"@openzeppelin/contracts/token/ERC721/ERC721.sol\":7442:7786  function _isApprovedOrOwner(address spender, uint256 tokenId) internal view virtual returns (bool) {... */\n    tag_133:\n        /* \"@openzeppelin/contracts/token/ERC721/ERC721.sol\":7535:7539  bool */\n      0x00\n        /* \"@openzeppelin/contracts/token/ERC721/ERC721.sol\":7559:7575  _exists(tokenId) */\n      tag_222\n        /* \"@openzeppelin/contracts/token/ERC721/ERC721.sol\":7567:7574  tokenId */\n      dup3\n        /* \"@openzeppelin/contracts/token/ERC721/ERC721.sol\":7559:7566  _exists */\n      tag_111\n        /* \"@openzeppelin/contracts/token/ERC721/ERC721.sol\":7559:7575  _exists(tokenId) */\n      jump\t// in\n    tag_222:\n        /* \"@openzeppelin/contracts/token/ERC721/ERC721.sol\":7551:7624  require(_exists(tokenId), \"ERC721: operator query for nonexistent token\") */\n      tag_223\n      jumpi\n      mload(0x40)\n      shl(0xe5, 0x461bcd)\n      dup2\n      mstore\n      0x04\n      add\n      tag_113\n      swap1\n      tag_225\n      jump\t// in\n    tag_223:\n        /* \"@openzeppelin/contracts/token/ERC721/ERC721.sol\":7634:7647  address owner */\n      0x00\n        /* \"@openzeppelin/contracts/token/ERC721/ERC721.sol\":7650:7673  ERC721.ownerOf(tokenId) */\n      tag_226\n        /* \"@openzeppelin/contracts/token/ERC721/ERC721.sol\":7665:7672  tokenId */\n      dup4\n        /* \"@openzeppelin/contracts/token/ERC721/ERC721.sol\":7650:7664  ERC721.ownerOf */\n      tag_61\n        /* \"@openzeppelin/contracts/token/ERC721/ERC721.sol\":7650:7673  ERC721.ownerOf(tokenId) */\n      jump\t// in\n    tag_226:\n        /* \"@openzeppelin/contracts/token/ERC721/ERC721.sol\":7634:7673  address owner = ERC721.ownerOf(tokenId) */\n      swap1\n      pop\n        /* \"@openzeppelin/contracts/token/ERC721/ERC721.sol\":7702:7707  owner */\n      dup1\n      sub(shl(0xa0, 0x01), 0x01)\n        /* \"@openzeppelin/contracts/token/ERC721/ERC721.sol\":7691:7707  spender == owner */\n      and\n        /* \"@openzeppelin/contracts/token/ERC721/ERC721.sol\":7691:7698  spender */\n      dup5\n      sub(shl(0xa0, 0x01), 0x01)\n        /* \"@openzeppelin/contracts/token/ERC721/ERC721.sol\":7691:7707  spender == owner */\n      and\n      eq\n        /* \"@openzeppelin/contracts/token/ERC721/ERC721.sol\":7691:7742  spender == owner || getApproved(tokenId) == spender */\n      dup1\n      tag_227\n      jumpi\n      pop\n        /* \"@openzeppelin/contracts/token/ERC721/ERC721.sol\":7735:7742  spender */\n      dup4\n      sub(shl(0xa0, 0x01), 0x01)\n        /* \"@openzeppelin/contracts/token/ERC721/ERC721.sol\":7711:7742  getApproved(tokenId) == spender */\n      and\n        /* \"@openzeppelin/contracts/token/ERC721/ERC721.sol\":7711:7731  getApproved(tokenId) */\n      tag_228\n        /* \"@openzeppelin/contracts/token/ERC721/ERC721.sol\":7723:7730  tokenId */\n      dup5\n        /* \"@openzeppelin/contracts/token/ERC721/ERC721.sol\":7711:7722  getApproved */\n      tag_37\n        /* \"@openzeppelin/contracts/token/ERC721/ERC721.sol\":7711:7731  getApproved(tokenId) */\n      jump\t// in\n    tag_228:\n      sub(shl(0xa0, 0x01), 0x01)\n        /* \"@openzeppelin/contracts/token/ERC721/ERC721.sol\":7711:7742  getApproved(tokenId) == spender */\n      and\n      eq\n        /* \"@openzeppelin/contracts/token/ERC721/ERC721.sol\":7691:7742  spender == owner || getApproved(tokenId) == spender */\n    tag_227:\n        /* \"@openzeppelin/contracts/token/ERC721/ERC721.sol\":7691:7778  spender == owner || getApproved(tokenId) == spender || isApprovedForAll(owner, spender) */\n      dup1\n      tag_230\n      jumpi\n      pop\n        /* \"@openzeppelin/contracts/token/ERC721/ERC721.sol\":7746:7778  isApprovedForAll(owner, spender) */\n      tag_230\n        /* \"@openzeppelin/contracts/token/ERC721/ERC721.sol\":7763:7768  owner */\n      dup2\n        /* \"@openzeppelin/contracts/token/ERC721/ERC721.sol\":7770:7777  spender */\n      dup6\n        /* \"@openzeppelin/contracts/token/ERC721/ERC721.sol\":7746:7762  isApprovedForAll */\n      tag_92\n        /* \"@openzeppelin/contracts/token/ERC721/ERC721.sol\":7746:7778  isApprovedForAll(owner, spender) */\n      jump\t// in\n    tag_230:\n        /* \"@openzeppelin/contracts/token/ERC721/ERC721.sol\":7683:7779  return (spender == owner || getApproved(tokenId) == spender || isApprovedForAll(owner, spender)) */\n      swap5\n        /* \"@openzeppelin/contracts/token/ERC721/ERC721.sol\":7442:7786  function _isApprovedOrOwner(address spender, uint256 tokenId) internal view virtual returns (bool) {... */\n      swap4\n      pop\n      pop\n      pop\n      pop\n      jump\t// out\n        /* \"@openzeppelin/contracts/token/ERC721/ERC721.sol\":10452:11057  function _transfer(... */\n    tag_138:\n        /* \"@openzeppelin/contracts/token/ERC721/ERC721.sol\":10606:10610  from */\n      dup3\n      sub(shl(0xa0, 0x01), 0x01)\n        /* \"@openzeppelin/contracts/token/ERC721/ERC721.sol\":10579:10610  ERC721.ownerOf(tokenId) == from */\n      and\n        /* \"@openzeppelin/contracts/token/ERC721/ERC721.sol\":10579:10602  ERC721.ownerOf(tokenId) */\n      tag_232\n        /* \"@openzeppelin/contracts/token/ERC721/ERC721.sol\":10594:10601  tokenId */\n      dup3\n        /* \"@openzeppelin/contracts/token/ERC721/ERC721.sol\":10579:10593  ERC721.ownerOf */\n      tag_61\n        /* \"@openzeppelin/contracts/token/ERC721/ERC721.sol\":10579:10602  ERC721.ownerOf(tokenId) */\n      jump\t// in\n    tag_232:\n      sub(shl(0xa0, 0x01), 0x01)\n        /* \"@openzeppelin/contracts/token/ERC721/ERC721.sol\":10579:10610  ERC721.ownerOf(tokenId) == from */\n      and\n      eq\n        /* \"@openzeppelin/contracts/token/ERC721/ERC721.sol\":10571:10652  require(ERC721.ownerOf(tokenId) == from, \"ERC721: transfer from incorrect owner\") */\n      tag_233\n      jumpi\n      mload(0x40)\n      shl(0xe5, 0x461bcd)\n      dup2\n      mstore\n      0x04\n      add\n      tag_113\n      swap1\n      tag_235\n      jump\t// in\n    tag_233:\n      sub(shl(0xa0, 0x01), 0x01)\n        /* \"@openzeppelin/contracts/token/ERC721/ERC721.sol\":10670:10686  to != address(0) */\n      dup3\n      and\n        /* \"@openzeppelin/contracts/token/ERC721/ERC721.sol\":10662:10727  require(to != address(0), \"ERC721: transfer to the zero address\") */\n      tag_236\n      jumpi\n      mload(0x40)\n      shl(0xe5, 0x461bcd)\n      dup2\n      mstore\n      0x04\n      add\n      tag_113\n      swap1\n      tag_238\n      jump\t// in\n    tag_236:\n        /* \"@openzeppelin/contracts/token/ERC721/ERC721.sol\":10738:10777  _beforeTokenTransfer(from, to, tokenId) */\n      tag_239\n        /* \"@openzeppelin/contracts/token/ERC721/ERC721.sol\":10759:10763  from */\n      dup4\n        /* \"@openzeppelin/contracts/token/ERC721/ERC721.sol\":10765:10767  to */\n      dup4\n        /* \"@openzeppelin/contracts/token/ERC721/ERC721.sol\":10769:10776  tokenId */\n      dup4\n        /* \"@openzeppelin/contracts/token/ERC721/ERC721.sol\":10738:10758  _beforeTokenTransfer */\n      tag_128\n        /* \"@openzeppelin/contracts/token/ERC721/ERC721.sol\":10738:10777  _beforeTokenTransfer(from, to, tokenId) */\n      jump\t// in\n    tag_239:\n        /* \"@openzeppelin/contracts/token/ERC721/ERC721.sol\":10839:10868  _approve(address(0), tokenId) */\n      tag_241\n        /* \"@openzeppelin/contracts/token/ERC721/ERC721.sol\":10856:10857  0 */\n      0x00\n        /* \"@openzeppelin/contracts/token/ERC721/ERC721.sol\":10860:10867  tokenId */\n      dup3\n        /* \"@openzeppelin/contracts/token/ERC721/ERC721.sol\":10839:10847  _approve */\n      tag_129\n        /* \"@openzeppelin/contracts/token/ERC721/ERC721.sol\":10839:10868  _approve(address(0), tokenId) */\n      jump\t// in\n    tag_241:\n      sub(shl(0xa0, 0x01), 0x01)\n        /* \"@openzeppelin/contracts/token/ERC721/ERC721.sol\":10879:10894  _balances[from] */\n      dup4\n      and\n      0x00\n      swap1\n      dup2\n      mstore\n        /* \"@openzeppelin/contracts/token/ERC721/ERC721.sol\":10879:10888  _balances */\n      0x03\n        /* \"@openzeppelin/contracts/token/ERC721/ERC721.sol\":10879:10894  _balances[from] */\n      0x20\n      mstore\n      0x40\n      dup2\n      keccak256\n        /* \"@openzeppelin/contracts/token/ERC721/ERC721.sol\":10879:10899  _balances[from] -= 1 */\n      dup1\n      sload\n        /* \"@openzeppelin/contracts/token/ERC721/ERC721.sol\":10898:10899  1 */\n      0x01\n      swap3\n        /* \"@openzeppelin/contracts/token/ERC721/ERC721.sol\":10879:10894  _balances[from] */\n      swap1\n        /* \"@openzeppelin/contracts/token/ERC721/ERC721.sol\":10879:10899  _balances[from] -= 1 */\n      tag_242\n      swap1\n        /* \"@openzeppelin/contracts/token/ERC721/ERC721.sol\":10898:10899  1 */\n      dup5\n      swap1\n        /* \"@openzeppelin/contracts/token/ERC721/ERC721.sol\":10879:10899  _balances[from] -= 1 */\n      tag_243\n      jump\t// in\n    tag_242:\n      swap1\n      swap2\n      sstore\n      pop\n      pop\n      sub(shl(0xa0, 0x01), 0x01)\n        /* \"@openzeppelin/contracts/token/ERC721/ERC721.sol\":10909:10922  _balances[to] */\n      dup3\n      and\n      0x00\n      swap1\n      dup2\n      mstore\n        /* \"@openzeppelin/contracts/token/ERC721/ERC721.sol\":10909:10918  _balances */\n      0x03\n        /* \"@openzeppelin/contracts/token/ERC721/ERC721.sol\":10909:10922  _balances[to] */\n      0x20\n      mstore\n      0x40\n      dup2\n      keccak256\n        /* \"@openzeppelin/contracts/token/ERC721/ERC721.sol\":10909:10927  _balances[to] += 1 */\n      dup1\n      sload\n        /* \"@openzeppelin/contracts/token/ERC721/ERC721.sol\":10926:10927  1 */\n      0x01\n      swap3\n        /* \"@openzeppelin/contracts/token/ERC721/ERC721.sol\":10909:10922  _balances[to] */\n      swap1\n        /* \"@openzeppelin/contracts/token/ERC721/ERC721.sol\":10909:10927  _balances[to] += 1 */\n      tag_244\n      swap1\n        /* \"@openzeppelin/contracts/token/ERC721/ERC721.sol\":10926:10927  1 */\n      dup5\n      swap1\n        /* \"@openzeppelin/contracts/token/ERC721/ERC721.sol\":10909:10927  _balances[to] += 1 */\n      tag_245\n      jump\t// in\n    tag_244:\n      swap1\n      swap2\n      sstore\n      pop\n      pop\n        /* \"@openzeppelin/contracts/token/ERC721/ERC721.sol\":10937:10953  _owners[tokenId] */\n      0x00\n      dup2\n      dup2\n      mstore\n        /* \"@openzeppelin/contracts/token/ERC721/ERC721.sol\":10937:10944  _owners */\n      0x02\n        /* \"@openzeppelin/contracts/token/ERC721/ERC721.sol\":10937:10953  _owners[tokenId] */\n      0x20\n      mstore\n      0x40\n      dup1\n      dup3\n      keccak256\n        /* \"@openzeppelin/contracts/token/ERC721/ERC721.sol\":10937:10958  _owners[tokenId] = to */\n      dup1\n      sload\n      not(sub(shl(0xa0, 0x01), 0x01))\n      and\n      sub(shl(0xa0, 0x01), 0x01)\n      dup7\n      dup2\n      and\n      swap2\n      dup3\n      or\n      swap1\n      swap3\n      sstore\n        /* \"@openzeppelin/contracts/token/ERC721/ERC721.sol\":10974:11001  Transfer(from, to, tokenId) */\n      swap2\n      mload\n        /* \"@openzeppelin/contracts/token/ERC721/ERC721.sol\":10937:10953  _owners[tokenId] */\n      dup5\n      swap4\n        /* \"@openzeppelin/contracts/token/ERC721/ERC721.sol\":10974:11001  Transfer(from, to, tokenId) */\n      swap2\n      dup8\n      and\n      swap2\n      0xddf252ad1be2c89b69c2b068fc378daa952ba7f163c4a11628f55a4df523b3ef\n      swap2\n      log4\n        /* \"@openzeppelin/contracts/token/ERC721/ERC721.sol\":11012:11050  _afterTokenTransfer(from, to, tokenId) */\n      tag_128\n        /* \"@openzeppelin/contracts/token/ERC721/ERC721.sol\":11032:11036  from */\n      dup4\n        /* \"@openzeppelin/contracts/token/ERC721/ERC721.sol\":11038:11040  to */\n      dup4\n        /* \"@openzeppelin/contracts/token/ERC721/ERC721.sol\":11042:11049  tokenId */\n      dup4\n        /* \"@openzeppelin/contracts/token/ERC721/ERC721.sol\":11012:11031  _afterTokenTransfer */\n      tag_128\n        /* \"@openzeppelin/contracts/token/ERC721/ERC721.sol\":11012:11050  _afterTokenTransfer(from, to, tokenId) */\n      jump\t// in\n        /* \"@openzeppelin/contracts/token/ERC721/ERC721.sol\":8116:8224  function _safeMint(address to, uint256 tokenId) internal virtual {... */\n    tag_154:\n        /* \"@openzeppelin/contracts/token/ERC721/ERC721.sol\":8191:8217  _safeMint(to, tokenId, \"\") */\n      tag_182\n        /* \"@openzeppelin/contracts/token/ERC721/ERC721.sol\":8201:8203  to */\n      dup3\n        /* \"@openzeppelin/contracts/token/ERC721/ERC721.sol\":8205:8212  tokenId */\n      dup3\n        /* \"@openzeppelin/contracts/token/ERC721/ERC721.sol\":8191:8217  _safeMint(to, tokenId, \"\") */\n      mload(0x40)\n      dup1\n      0x20\n      add\n      0x40\n      mstore\n      dup1\n      0x00\n      dup2\n      mstore\n      pop\n        /* \"@openzeppelin/contracts/token/ERC721/ERC721.sol\":8191:8200  _safeMint */\n      tag_250\n        /* \"@openzeppelin/contracts/token/ERC721/ERC721.sol\":8191:8217  _safeMint(to, tokenId, \"\") */\n      jump\t// in\n        /* \"@openzeppelin/contracts/access/Ownable.sol\":2270:2457  function _transferOwnership(address newOwner) internal virtual {... */\n    tag_173:\n        /* \"@openzeppelin/contracts/access/Ownable.sol\":2362:2368  _owner */\n      0x06\n      dup1\n      sload\n      sub(shl(0xa0, 0x01), 0x01)\n        /* \"@openzeppelin/contracts/access/Ownable.sol\":2378:2395  _owner = newOwner */\n      dup4\n      dup2\n      and\n      not(sub(shl(0xa0, 0x01), 0x01))\n      dup4\n      and\n      dup2\n      or\n      swap1\n      swap4\n      sstore\n        /* \"@openzeppelin/contracts/access/Ownable.sol\":2410:2450  OwnershipTransferred(oldOwner, newOwner) */\n      mload(0x40)\n        /* \"@openzeppelin/contracts/access/Ownable.sol\":2362:2368  _owner */\n      swap2\n      and\n      swap2\n        /* \"@openzeppelin/contracts/access/Ownable.sol\":2378:2395  _owner = newOwner */\n      swap1\n        /* \"@openzeppelin/contracts/access/Ownable.sol\":2362:2368  _owner */\n      dup3\n      swap1\n        /* \"@openzeppelin/contracts/access/Ownable.sol\":2410:2450  OwnershipTransferred(oldOwner, newOwner) */\n      0x8be0079c531659141344cd1fd0a4f28419497f9722a3daafe3b4186f6b6457e0\n      swap1\n        /* \"@openzeppelin/contracts/access/Ownable.sol\":2343:2359  address oldOwner */\n      0x00\n      swap1\n        /* \"@openzeppelin/contracts/access/Ownable.sol\":2410:2450  OwnershipTransferred(oldOwner, newOwner) */\n      log3\n        /* \"@openzeppelin/contracts/access/Ownable.sol\":2270:2457  function _transferOwnership(address newOwner) internal virtual {... */\n      pop\n      pop\n      jump\t// out\n        /* \"@openzeppelin/contracts/token/ERC721/ERC721.sol\":11474:11781  function _setApprovalForAll(... */\n    tag_184:\n        /* \"@openzeppelin/contracts/token/ERC721/ERC721.sol\":11624:11632  operator */\n      dup2\n      sub(shl(0xa0, 0x01), 0x01)\n        /* \"@openzeppelin/contracts/token/ERC721/ERC721.sol\":11615:11632  owner != operator */\n      and\n        /* \"@openzeppelin/contracts/token/ERC721/ERC721.sol\":11615:11620  owner */\n      dup4\n      sub(shl(0xa0, 0x01), 0x01)\n        /* \"@openzeppelin/contracts/token/ERC721/ERC721.sol\":11615:11632  owner != operator */\n      and\n      eq\n      iszero\n        /* \"@openzeppelin/contracts/token/ERC721/ERC721.sol\":11607:11662  require(owner != operator, \"ERC721: approve to caller\") */\n      tag_253\n      jumpi\n      mload(0x40)\n      shl(0xe5, 0x461bcd)\n      dup2\n      mstore\n      0x04\n      add\n      tag_113\n      swap1\n      tag_255\n      jump\t// in\n    tag_253:\n      sub(shl(0xa0, 0x01), 0x01)\n        /* \"@openzeppelin/contracts/token/ERC721/ERC721.sol\":11672:11697  _operatorApprovals[owner] */\n      dup4\n      dup2\n      and\n      0x00\n      dup2\n      dup2\n      mstore\n        /* \"@openzeppelin/contracts/token/ERC721/ERC721.sol\":11672:11690  _operatorApprovals */\n      0x05\n        /* \"@openzeppelin/contracts/token/ERC721/ERC721.sol\":11672:11697  _operatorApprovals[owner] */\n      0x20\n      swap1\n      dup2\n      mstore\n      0x40\n      dup1\n      dup4\n      keccak256\n        /* \"@openzeppelin/contracts/token/ERC721/ERC721.sol\":11672:11707  _operatorApprovals[owner][operator] */\n      swap5\n      dup8\n      and\n      dup1\n      dup5\n      mstore\n      swap5\n      swap1\n      swap2\n      mstore\n      swap1\n      dup2\n      swap1\n      keccak256\n        /* \"@openzeppelin/contracts/token/ERC721/ERC721.sol\":11672:11718  _operatorApprovals[owner][operator] = approved */\n      dup1\n      sload\n      not(0xff)\n      and\n      dup6\n      iszero\n      iszero\n      or\n      swap1\n      sstore\n        /* \"@openzeppelin/contracts/token/ERC721/ERC721.sol\":11733:11774  ApprovalForAll(owner, operator, approved) */\n      mload\n      0x17307eab39ab6107e8899845ad3d59bd9653f200f220920489ca2b5937696c31\n      swap1\n      tag_256\n      swap1\n        /* \"@openzeppelin/contracts/token/ERC721/ERC721.sol\":11672:11718  _operatorApprovals[owner][operator] = approved */\n      dup6\n      swap1\n        /* \"@openzeppelin/contracts/token/ERC721/ERC721.sol\":11733:11774  ApprovalForAll(owner, operator, approved) */\n      tag_29\n      jump\t// in\n    tag_256:\n      mload(0x40)\n      dup1\n      swap2\n      sub\n      swap1\n      log3\n        /* \"@openzeppelin/contracts/token/ERC721/ERC721.sol\":11474:11781  function _setApprovalForAll(... */\n      pop\n      pop\n      pop\n      jump\t// out\n        /* \"@openzeppelin/contracts/token/ERC721/ERC721.sol\":6549:6856  function _safeTransfer(... */\n    tag_191:\n        /* \"@openzeppelin/contracts/token/ERC721/ERC721.sol\":6700:6728  _transfer(from, to, tokenId) */\n      tag_258\n        /* \"@openzeppelin/contracts/token/ERC721/ERC721.sol\":6710:6714  from */\n      dup5\n        /* \"@openzeppelin/contracts/token/ERC721/ERC721.sol\":6716:6718  to */\n      dup5\n        /* \"@openzeppelin/contracts/token/ERC721/ERC721.sol\":6720:6727  tokenId */\n      dup5\n        /* \"@openzeppelin/contracts/token/ERC721/ERC721.sol\":6700:6709  _transfer */\n      tag_138\n        /* \"@openzeppelin/contracts/token/ERC721/ERC721.sol\":6700:6728  _transfer(from, to, tokenId) */\n      jump\t// in\n    tag_258:\n        /* \"@openzeppelin/contracts/token/ERC721/ERC721.sol\":6746:6794  _checkOnERC721Received(from, to, tokenId, _data) */\n      tag_259\n        /* \"@openzeppelin/contracts/token/ERC721/ERC721.sol\":6769:6773  from */\n      dup5\n        /* \"@openzeppelin/contracts/token/ERC721/ERC721.sol\":6775:6777  to */\n      dup5\n        /* \"@openzeppelin/contracts/token/ERC721/ERC721.sol\":6779:6786  tokenId */\n      dup5\n        /* \"@openzeppelin/contracts/token/ERC721/ERC721.sol\":6788:6793  _data */\n      dup5\n        /* \"@openzeppelin/contracts/token/ERC721/ERC721.sol\":6746:6768  _checkOnERC721Received */\n      tag_260\n        /* \"@openzeppelin/contracts/token/ERC721/ERC721.sol\":6746:6794  _checkOnERC721Received(from, to, tokenId, _data) */\n      jump\t// in\n    tag_259:\n        /* \"@openzeppelin/contracts/token/ERC721/ERC721.sol\":6738:6849  require(_checkOnERC721Received(from, to, tokenId, _data), \"ERC721: transfer to non ERC721Receiver implementer\") */\n      tag_190\n      jumpi\n      mload(0x40)\n      shl(0xe5, 0x461bcd)\n      dup2\n      mstore\n      0x04\n      add\n      tag_113\n      swap1\n      tag_263\n      jump\t// in\n        /* \"@openzeppelin/contracts/token/ERC721/ERC721.sol\":3388:3480  function _baseURI() internal view virtual returns (string memory) {... */\n    tag_198:\n        /* \"@openzeppelin/contracts/token/ERC721/ERC721.sol\":3464:3473  return \"\" */\n      0x40\n      dup1\n      mload\n      0x20\n      dup2\n      add\n      swap1\n      swap2\n      mstore\n      0x00\n      dup2\n      mstore\n        /* \"@openzeppelin/contracts/token/ERC721/ERC721.sol\":3388:3480  function _baseURI() internal view virtual returns (string memory) {... */\n      swap1\n      jump\t// out\n        /* \"@openzeppelin/contracts/utils/Strings.sol\":328:1031  function toString(uint256 value) internal pure returns (string memory) {... */\n    tag_202:\n        /* \"@openzeppelin/contracts/utils/Strings.sol\":384:397  string memory */\n      0x60\n        /* \"@openzeppelin/contracts/utils/Strings.sol\":601:611  value == 0 */\n      dup2\n        /* \"@openzeppelin/contracts/utils/Strings.sol\":597:648  if (value == 0) {... */\n      tag_266\n      jumpi\n      pop\n        /* \"@openzeppelin/contracts/utils/Strings.sol\":627:637  return \"0\" */\n      0x40\n      dup1\n      mload\n      dup1\n      dup3\n      add\n      swap1\n      swap2\n      mstore\n      0x01\n      dup2\n      mstore\n      shl(0xfc, 0x03)\n      0x20\n      dup3\n      add\n      mstore\n      jump(tag_97)\n        /* \"@openzeppelin/contracts/utils/Strings.sol\":597:648  if (value == 0) {... */\n    tag_266:\n        /* \"@openzeppelin/contracts/utils/Strings.sol\":672:677  value */\n      dup2\n        /* \"@openzeppelin/contracts/utils/Strings.sol\":657:669  uint256 temp */\n      0x00\n        /* \"@openzeppelin/contracts/utils/Strings.sol\":711:786  while (temp != 0) {... */\n    tag_267:\n        /* \"@openzeppelin/contracts/utils/Strings.sol\":718:727  temp != 0 */\n      dup2\n      iszero\n        /* \"@openzeppelin/contracts/utils/Strings.sol\":711:786  while (temp != 0) {... */\n      tag_268\n      jumpi\n        /* \"@openzeppelin/contracts/utils/Strings.sol\":743:751  digits++ */\n      dup1\n      tag_269\n      dup2\n      tag_156\n      jump\t// in\n    tag_269:\n      swap2\n      pop\n        /* \"@openzeppelin/contracts/utils/Strings.sol\":765:775  temp /= 10 */\n      tag_270\n      swap1\n      pop\n        /* \"@openzeppelin/contracts/utils/Strings.sol\":773:775  10 */\n      0x0a\n        /* \"@openzeppelin/contracts/utils/Strings.sol\":765:775  temp /= 10 */\n      dup4\n      tag_271\n      jump\t// in\n    tag_270:\n      swap2\n      pop\n        /* \"@openzeppelin/contracts/utils/Strings.sol\":711:786  while (temp != 0) {... */\n      jump(tag_267)\n    tag_268:\n        /* \"@openzeppelin/contracts/utils/Strings.sol\":795:814  bytes memory buffer */\n      0x00\n        /* \"@openzeppelin/contracts/utils/Strings.sol\":827:833  digits */\n      dup2\n        /* \"@openzeppelin/contracts/utils/Strings.sol\":817:834  new bytes(digits) */\n      0xffffffffffffffff\n      dup2\n      gt\n      iszero\n      tag_272\n      jumpi\n      mstore(0x00, shl(0xe0, 0x4e487b71))\n      mstore(0x04, 0x41)\n      revert(0x00, 0x24)\n    tag_272:\n      mload(0x40)\n      swap1\n      dup1\n      dup3\n      mstore\n      dup1\n      0x1f\n      add\n      not(0x1f)\n      and\n      0x20\n      add\n      dup3\n      add\n      0x40\n      mstore\n      dup1\n      iszero\n      tag_273\n      jumpi\n      0x20\n      dup3\n      add\n      dup2\n      dup1\n      calldatasize\n      dup4\n      calldatacopy\n      add\n      swap1\n      pop\n    tag_273:\n      pop\n        /* \"@openzeppelin/contracts/utils/Strings.sol\":795:834  bytes memory buffer = new bytes(digits) */\n      swap1\n      pop\n        /* \"@openzeppelin/contracts/utils/Strings.sol\":844:994  while (value != 0) {... */\n    tag_274:\n        /* \"@openzeppelin/contracts/utils/Strings.sol\":851:861  value != 0 */\n      dup5\n      iszero\n        /* \"@openzeppelin/contracts/utils/Strings.sol\":844:994  while (value != 0) {... */\n      tag_230\n      jumpi\n        /* \"@openzeppelin/contracts/utils/Strings.sol\":877:888  digits -= 1 */\n      tag_276\n        /* \"@openzeppelin/contracts/utils/Strings.sol\":887:888  1 */\n      0x01\n        /* \"@openzeppelin/contracts/utils/Strings.sol\":877:888  digits -= 1 */\n      dup4\n      tag_243\n      jump\t// in\n    tag_276:\n      swap2\n      pop\n        /* \"@openzeppelin/contracts/utils/Strings.sol\":945:955  value % 10 */\n      tag_277\n        /* \"@openzeppelin/contracts/utils/Strings.sol\":953:955  10 */\n      0x0a\n        /* \"@openzeppelin/contracts/utils/Strings.sol\":945:950  value */\n      dup7\n        /* \"@openzeppelin/contracts/utils/Strings.sol\":945:955  value % 10 */\n      tag_278\n      jump\t// in\n    tag_277:\n        /* \"@openzeppelin/contracts/utils/Strings.sol\":932:956  48 + uint256(value % 10) */\n      tag_279\n      swap1\n        /* \"@openzeppelin/contracts/utils/Strings.sol\":932:934  48 */\n      0x30\n        /* \"@openzeppelin/contracts/utils/Strings.sol\":932:956  48 + uint256(value % 10) */\n      tag_245\n      jump\t// in\n    tag_279:\n        /* \"@openzeppelin/contracts/utils/Strings.sol\":919:958  bytes1(uint8(48 + uint256(value % 10))) */\n      0xf8\n      shl\n        /* \"@openzeppelin/contracts/utils/Strings.sol\":902:908  buffer */\n      dup2\n        /* \"@openzeppelin/contracts/utils/Strings.sol\":909:915  digits */\n      dup4\n        /* \"@openzeppelin/contracts/utils/Strings.sol\":902:916  buffer[digits] */\n      dup2\n      mload\n      dup2\n      lt\n      tag_280\n      jumpi\n      mstore(0x00, shl(0xe0, 0x4e487b71))\n      mstore(0x04, 0x32)\n      revert(0x00, 0x24)\n    tag_280:\n      0x20\n      add\n      add\n        /* \"@openzeppelin/contracts/utils/Strings.sol\":902:958  buffer[digits] = bytes1(uint8(48 + uint256(value % 10))) */\n      swap1\n      not(sub(shl(0xf8, 0x01), 0x01))\n      and\n      swap1\n      dup2\n      0x00\n      byte\n      swap1\n      mstore8\n      pop\n        /* \"@openzeppelin/contracts/utils/Strings.sol\":972:983  value /= 10 */\n      tag_281\n        /* \"@openzeppelin/contracts/utils/Strings.sol\":981:983  10 */\n      0x0a\n        /* \"@openzeppelin/contracts/utils/Strings.sol\":972:983  value /= 10 */\n      dup7\n      tag_271\n      jump\t// in\n    tag_281:\n      swap5\n      pop\n        /* \"@openzeppelin/contracts/utils/Strings.sol\":844:994  while (value != 0) {... */\n      jump(tag_274)\n        /* \"@openzeppelin/contracts/token/ERC721/ERC721.sol\":8445:8756  function _safeMint(... */\n    tag_250:\n        /* \"@openzeppelin/contracts/token/ERC721/ERC721.sol\":8570:8588  _mint(to, tokenId) */\n      tag_285\n        /* \"@openzeppelin/contracts/token/ERC721/ERC721.sol\":8576:8578  to */\n      dup4\n        /* \"@openzeppelin/contracts/token/ERC721/ERC721.sol\":8580:8587  tokenId */\n      dup4\n        /* \"@openzeppelin/contracts/token/ERC721/ERC721.sol\":8570:8575  _mint */\n      tag_286\n        /* \"@openzeppelin/contracts/token/ERC721/ERC721.sol\":8570:8588  _mint(to, tokenId) */\n      jump\t// in\n    tag_285:\n        /* \"@openzeppelin/contracts/token/ERC721/ERC721.sol\":8619:8673  _checkOnERC721Received(address(0), to, tokenId, _data) */\n      tag_287\n        /* \"@openzeppelin/contracts/token/ERC721/ERC721.sol\":8650:8651  0 */\n      0x00\n        /* \"@openzeppelin/contracts/token/ERC721/ERC721.sol\":8654:8656  to */\n      dup5\n        /* \"@openzeppelin/contracts/token/ERC721/ERC721.sol\":8658:8665  tokenId */\n      dup5\n        /* \"@openzeppelin/contracts/token/ERC721/ERC721.sol\":8667:8672  _data */\n      dup5\n        /* \"@openzeppelin/contracts/token/ERC721/ERC721.sol\":8619:8641  _checkOnERC721Received */\n      tag_260\n        /* \"@openzeppelin/contracts/token/ERC721/ERC721.sol\":8619:8673  _checkOnERC721Received(address(0), to, tokenId, _data) */\n      jump\t// in\n    tag_287:\n        /* \"@openzeppelin/contracts/token/ERC721/ERC721.sol\":8598:8749  require(... */\n      tag_128\n      jumpi\n      mload(0x40)\n      shl(0xe5, 0x461bcd)\n      dup2\n      mstore\n      0x04\n      add\n      tag_113\n      swap1\n      tag_263\n      jump\t// in\n        /* \"@openzeppelin/contracts/token/ERC721/ERC721.sol\":12334:13112  function _checkOnERC721Received(... */\n    tag_260:\n        /* \"@openzeppelin/contracts/token/ERC721/ERC721.sol\":12484:12488  bool */\n      0x00\n        /* \"@openzeppelin/contracts/token/ERC721/ERC721.sol\":12504:12519  to.isContract() */\n      tag_291\n        /* \"@openzeppelin/contracts/token/ERC721/ERC721.sol\":12504:12506  to */\n      dup5\n      sub(shl(0xa0, 0x01), 0x01)\n        /* \"@openzeppelin/contracts/token/ERC721/ERC721.sol\":12504:12517  to.isContract */\n      and\n      tag_292\n        /* \"@openzeppelin/contracts/token/ERC721/ERC721.sol\":12504:12519  to.isContract() */\n      jump\t// in\n    tag_291:\n        /* \"@openzeppelin/contracts/token/ERC721/ERC721.sol\":12500:13106  if (to.isContract()) {... */\n      iszero\n      tag_293\n      jumpi\n        /* \"@openzeppelin/contracts/token/ERC721/ERC721.sol\":12555:12557  to */\n      dup4\n      sub(shl(0xa0, 0x01), 0x01)\n        /* \"@openzeppelin/contracts/token/ERC721/ERC721.sol\":12539:12575  IERC721Receiver(to).onERC721Received */\n      and\n      0x150b7a02\n        /* \"@openzeppelin/contracts/token/ERC721/ERC721.sol\":12576:12588  _msgSender() */\n      tag_294\n        /* \"@openzeppelin/contracts/token/ERC721/ERC721.sol\":12576:12586  _msgSender */\n      tag_121\n        /* \"@openzeppelin/contracts/token/ERC721/ERC721.sol\":12576:12588  _msgSender() */\n      jump\t// in\n    tag_294:\n        /* \"@openzeppelin/contracts/token/ERC721/ERC721.sol\":12590:12594  from */\n      dup8\n        /* \"@openzeppelin/contracts/token/ERC721/ERC721.sol\":12596:12603  tokenId */\n      dup7\n        /* \"@openzeppelin/contracts/token/ERC721/ERC721.sol\":12605:12610  _data */\n      dup7\n        /* \"@openzeppelin/contracts/token/ERC721/ERC721.sol\":12539:12611  IERC721Receiver(to).onERC721Received(_msgSender(), from, tokenId, _data) */\n      mload(0x40)\n      dup6\n      0xffffffff\n      and\n      0xe0\n      shl\n      dup2\n      mstore\n      0x04\n      add\n      tag_295\n      swap5\n      swap4\n      swap3\n      swap2\n      swap1\n      tag_296\n      jump\t// in\n    tag_295:\n      0x20\n      mload(0x40)\n      dup1\n      dup4\n      sub\n      dup2\n      0x00\n      dup8\n      dup1\n      extcodesize\n      iszero\n      dup1\n      iszero\n      tag_297\n      jumpi\n      0x00\n      dup1\n      revert\n    tag_297:\n      pop\n      gas\n      call\n      swap3\n      pop\n      pop\n      pop\n      dup1\n      iszero\n      tag_298\n      jumpi\n      pop\n      0x40\n      dup1\n      mload\n      0x1f\n      returndatasize\n      swap1\n      dup2\n      add\n      not(0x1f)\n      and\n      dup3\n      add\n      swap1\n      swap3\n      mstore\n      tag_299\n      swap2\n      dup2\n      add\n      swap1\n      tag_300\n      jump\t// in\n    tag_299:\n      0x01\n    tag_298:\n        /* \"@openzeppelin/contracts/token/ERC721/ERC721.sol\":12535:13054  try IERC721Receiver(to).onERC721Received(_msgSender(), from, tokenId, _data) returns (bytes4 retval) {... */\n      tag_301\n      jumpi\n      returndatasize\n      dup1\n      dup1\n      iszero\n      tag_305\n      jumpi\n      mload(0x40)\n      swap2\n      pop\n      and(add(returndatasize, 0x3f), not(0x1f))\n      dup3\n      add\n      0x40\n      mstore\n      returndatasize\n      dup3\n      mstore\n      returndatasize\n      0x00\n      0x20\n      dup5\n      add\n      returndatacopy\n      jump(tag_304)\n    tag_305:\n      0x60\n      swap2\n      pop\n    tag_304:\n      pop\n        /* \"@openzeppelin/contracts/token/ERC721/ERC721.sol\":12778:12791  reason.length */\n      dup1\n      mload\n        /* \"@openzeppelin/contracts/token/ERC721/ERC721.sol\":12774:13040  if (reason.length == 0) {... */\n      tag_306\n      jumpi\n        /* \"@openzeppelin/contracts/token/ERC721/ERC721.sol\":12820:12880  revert(\"ERC721: transfer to non ERC721Receiver implementer\") */\n      mload(0x40)\n      shl(0xe5, 0x461bcd)\n      dup2\n      mstore\n      0x04\n      add\n      tag_113\n      swap1\n      tag_263\n      jump\t// in\n        /* \"@openzeppelin/contracts/token/ERC721/ERC721.sol\":12774:13040  if (reason.length == 0) {... */\n    tag_306:\n        /* \"@openzeppelin/contracts/token/ERC721/ERC721.sol\":12992:12998  reason */\n      dup1\n        /* \"@openzeppelin/contracts/token/ERC721/ERC721.sol\":12986:12999  mload(reason) */\n      mload\n        /* \"@openzeppelin/contracts/token/ERC721/ERC721.sol\":12977:12983  reason */\n      dup2\n        /* \"@openzeppelin/contracts/token/ERC721/ERC721.sol\":12973:12975  32 */\n      0x20\n        /* \"@openzeppelin/contracts/token/ERC721/ERC721.sol\":12969:12984  add(32, reason) */\n      add\n        /* \"@openzeppelin/contracts/token/ERC721/ERC721.sol\":12962:13000  revert(add(32, reason), mload(reason)) */\n      revert\n        /* \"@openzeppelin/contracts/token/ERC721/ERC721.sol\":12535:13054  try IERC721Receiver(to).onERC721Received(_msgSender(), from, tokenId, _data) returns (bytes4 retval) {... */\n    tag_301:\n      not(sub(shl(0xe0, 0x01), 0x01))\n        /* \"@openzeppelin/contracts/token/ERC721/ERC721.sol\":12661:12712  retval == IERC721Receiver.onERC721Received.selector */\n      and\n      shl(0xe1, 0x0a85bd01)\n      eq\n      swap1\n      pop\n        /* \"@openzeppelin/contracts/token/ERC721/ERC721.sol\":12654:12712  return retval == IERC721Receiver.onERC721Received.selector */\n      jump(tag_230)\n        /* \"@openzeppelin/contracts/token/ERC721/ERC721.sol\":12500:13106  if (to.isContract()) {... */\n    tag_293:\n      pop\n        /* \"@openzeppelin/contracts/token/ERC721/ERC721.sol\":13091:13095  true */\n      0x01\n        /* \"@openzeppelin/contracts/token/ERC721/ERC721.sol\":12334:13112  function _checkOnERC721Received(... */\n      swap5\n      swap4\n      pop\n      pop\n      pop\n      pop\n      jump\t// out\n        /* \"@openzeppelin/contracts/token/ERC721/ERC721.sol\":9078:9505  function _mint(address to, uint256 tokenId) internal virtual {... */\n    tag_286:\n      sub(shl(0xa0, 0x01), 0x01)\n        /* \"@openzeppelin/contracts/token/ERC721/ERC721.sol\":9157:9173  to != address(0) */\n      dup3\n      and\n        /* \"@openzeppelin/contracts/token/ERC721/ERC721.sol\":9149:9210  require(to != address(0), \"ERC721: mint to the zero address\") */\n      tag_312\n      jumpi\n      mload(0x40)\n      shl(0xe5, 0x461bcd)\n      dup2\n      mstore\n      0x04\n      add\n      tag_113\n      swap1\n      tag_314\n      jump\t// in\n    tag_312:\n        /* \"@openzeppelin/contracts/token/ERC721/ERC721.sol\":9229:9245  _exists(tokenId) */\n      tag_315\n        /* \"@openzeppelin/contracts/token/ERC721/ERC721.sol\":9237:9244  tokenId */\n      dup2\n        /* \"@openzeppelin/contracts/token/ERC721/ERC721.sol\":9229:9236  _exists */\n      tag_111\n        /* \"@openzeppelin/contracts/token/ERC721/ERC721.sol\":9229:9245  _exists(tokenId) */\n      jump\t// in\n    tag_315:\n        /* \"@openzeppelin/contracts/token/ERC721/ERC721.sol\":9228:9245  !_exists(tokenId) */\n      iszero\n        /* \"@openzeppelin/contracts/token/ERC721/ERC721.sol\":9220:9278  require(!_exists(tokenId), \"ERC721: token already minted\") */\n      tag_316\n      jumpi\n      mload(0x40)\n      shl(0xe5, 0x461bcd)\n      dup2\n      mstore\n      0x04\n      add\n      tag_113\n      swap1\n      tag_318\n      jump\t// in\n    tag_316:\n        /* \"@openzeppelin/contracts/token/ERC721/ERC721.sol\":9289:9334  _beforeTokenTransfer(address(0), to, tokenId) */\n      tag_319\n        /* \"@openzeppelin/contracts/token/ERC721/ERC721.sol\":9318:9319  0 */\n      0x00\n        /* \"@openzeppelin/contracts/token/ERC721/ERC721.sol\":9322:9324  to */\n      dup4\n        /* \"@openzeppelin/contracts/token/ERC721/ERC721.sol\":9326:9333  tokenId */\n      dup4\n        /* \"@openzeppelin/contracts/token/ERC721/ERC721.sol\":9289:9309  _beforeTokenTransfer */\n      tag_128\n        /* \"@openzeppelin/contracts/token/ERC721/ERC721.sol\":9289:9334  _beforeTokenTransfer(address(0), to, tokenId) */\n      jump\t// in\n    tag_319:\n      sub(shl(0xa0, 0x01), 0x01)\n        /* \"@openzeppelin/contracts/token/ERC721/ERC721.sol\":9345:9358  _balances[to] */\n      dup3\n      and\n      0x00\n      swap1\n      dup2\n      mstore\n        /* \"@openzeppelin/contracts/token/ERC721/ERC721.sol\":9345:9354  _balances */\n      0x03\n        /* \"@openzeppelin/contracts/token/ERC721/ERC721.sol\":9345:9358  _balances[to] */\n      0x20\n      mstore\n      0x40\n      dup2\n      keccak256\n        /* \"@openzeppelin/contracts/token/ERC721/ERC721.sol\":9345:9363  _balances[to] += 1 */\n      dup1\n      sload\n        /* \"@openzeppelin/contracts/token/ERC721/ERC721.sol\":9362:9363  1 */\n      0x01\n      swap3\n        /* \"@openzeppelin/contracts/token/ERC721/ERC721.sol\":9345:9358  _balances[to] */\n      swap1\n        /* \"@openzeppelin/contracts/token/ERC721/ERC721.sol\":9345:9363  _balances[to] += 1 */\n      tag_320\n      swap1\n        /* \"@openzeppelin/contracts/token/ERC721/ERC721.sol\":9362:9363  1 */\n      dup5\n      swap1\n        /* \"@openzeppelin/contracts/token/ERC721/ERC721.sol\":9345:9363  _balances[to] += 1 */\n      tag_245\n      jump\t// in\n    tag_320:\n      swap1\n      swap2\n      sstore\n      pop\n      pop\n        /* \"@openzeppelin/contracts/token/ERC721/ERC721.sol\":9373:9389  _owners[tokenId] */\n      0x00\n      dup2\n      dup2\n      mstore\n        /* \"@openzeppelin/contracts/token/ERC721/ERC721.sol\":9373:9380  _owners */\n      0x02\n        /* \"@openzeppelin/contracts/token/ERC721/ERC721.sol\":9373:9389  _owners[tokenId] */\n      0x20\n      mstore\n      0x40\n      dup1\n      dup3\n      keccak256\n        /* \"@openzeppelin/contracts/token/ERC721/ERC721.sol\":9373:9394  _owners[tokenId] = to */\n      dup1\n      sload\n      not(sub(shl(0xa0, 0x01), 0x01))\n      and\n      sub(shl(0xa0, 0x01), 0x01)\n      dup7\n      and\n      swap1\n      dup2\n      or\n      swap1\n      swap2\n      sstore\n        /* \"@openzeppelin/contracts/token/ERC721/ERC721.sol\":9410:9443  Transfer(address(0), to, tokenId) */\n      swap1\n      mload\n        /* \"@openzeppelin/contracts/token/ERC721/ERC721.sol\":9373:9389  _owners[tokenId] */\n      dup4\n      swap3\n      swap1\n        /* \"@openzeppelin/contracts/token/ERC721/ERC721.sol\":9410:9443  Transfer(address(0), to, tokenId) */\n      0xddf252ad1be2c89b69c2b068fc378daa952ba7f163c4a11628f55a4df523b3ef\n      swap1\n        /* \"@openzeppelin/contracts/token/ERC721/ERC721.sol\":9373:9389  _owners[tokenId] */\n      dup3\n      swap1\n        /* \"@openzeppelin/contracts/token/ERC721/ERC721.sol\":9410:9443  Transfer(address(0), to, tokenId) */\n      log4\n        /* \"@openzeppelin/contracts/token/ERC721/ERC721.sol\":9454:9498  _afterTokenTransfer(address(0), to, tokenId) */\n      tag_182\n        /* \"@openzeppelin/contracts/token/ERC721/ERC721.sol\":9482:9483  0 */\n      0x00\n        /* \"@openzeppelin/contracts/token/ERC721/ERC721.sol\":9486:9488  to */\n      dup4\n        /* \"@openzeppelin/contracts/token/ERC721/ERC721.sol\":9490:9497  tokenId */\n      dup4\n        /* \"@openzeppelin/contracts/token/ERC721/ERC721.sol\":9454:9473  _afterTokenTransfer */\n      tag_128\n        /* \"@openzeppelin/contracts/token/ERC721/ERC721.sol\":9454:9498  _afterTokenTransfer(address(0), to, tokenId) */\n      jump\t// in\n        /* \"@openzeppelin/contracts/utils/Address.sol\":1175:1495  function isContract(address account) internal view returns (bool) {... */\n    tag_292:\n        /* \"@openzeppelin/contracts/utils/Address.sol\":1235:1239  bool */\n      0x00\n        /* \"@openzeppelin/contracts/utils/Address.sol\":1487:1488  0 */\n      dup1\n        /* \"@openzeppelin/contracts/utils/Address.sol\":1465:1472  account */\n      dup3\n      sub(shl(0xa0, 0x01), 0x01)\n        /* \"@openzeppelin/contracts/utils/Address.sol\":1465:1477  account.code */\n      and\n      dup1\n      extcodesize\n      dup1\n      0x20\n      add\n      mload(0x40)\n      swap1\n      dup2\n      add\n      0x40\n      mstore\n      dup2\n      dup2\n      mstore\n      0x00\n      swap1\n      dup1\n      0x20\n      add\n      swap1\n      swap4\n      extcodecopy\n        /* \"@openzeppelin/contracts/utils/Address.sol\":1465:1484  account.code.length */\n      mload\n        /* \"@openzeppelin/contracts/utils/Address.sol\":1465:1488  account.code.length > 0 */\n      gt\n      swap3\n        /* \"@openzeppelin/contracts/utils/Address.sol\":1175:1495  function isContract(address account) internal view returns (bool) {... */\n      swap2\n      pop\n      pop\n      jump\t// out\n        /* \"#utility.yul\":14:189   */\n    tag_324:\n        /* \"#utility.yul\":84:104   */\n      dup1\n      calldataload\n      sub(shl(0xa0, 0x01), 0x01)\n        /* \"#utility.yul\":133:164   */\n      dup2\n      and\n        /* \"#utility.yul\":123:165   */\n      dup2\n      eq\n        /* \"#utility.yul\":113:115   */\n      tag_97\n      jumpi\n        /* \"#utility.yul\":179:180   */\n      0x00\n        /* \"#utility.yul\":176:177   */\n      dup1\n        /* \"#utility.yul\":169:181   */\n      revert\n        /* \"#utility.yul\":194:352   */\n    tag_327:\n        /* \"#utility.yul\":262:282   */\n      dup1\n      calldataload\n        /* \"#utility.yul\":322:326   */\n      0xff\n        /* \"#utility.yul\":311:327   */\n      dup2\n      and\n        /* \"#utility.yul\":301:328   */\n      dup2\n      eq\n        /* \"#utility.yul\":291:293   */\n      tag_97\n      jumpi\n        /* \"#utility.yul\":342:343   */\n      0x00\n        /* \"#utility.yul\":339:340   */\n      dup1\n        /* \"#utility.yul\":332:344   */\n      revert\n        /* \"#utility.yul\":357:555   */\n    tag_65:\n      0x00\n        /* \"#utility.yul\":469:471   */\n      0x20\n        /* \"#utility.yul\":457:466   */\n      dup3\n        /* \"#utility.yul\":448:455   */\n      dup5\n        /* \"#utility.yul\":444:467   */\n      sub\n        /* \"#utility.yul\":440:472   */\n      slt\n        /* \"#utility.yul\":437:439   */\n      iszero\n      tag_331\n      jumpi\n        /* \"#utility.yul\":490:496   */\n      dup1\n        /* \"#utility.yul\":482:488   */\n      dup2\n        /* \"#utility.yul\":475:497   */\n      revert\n        /* \"#utility.yul\":437:439   */\n    tag_331:\n        /* \"#utility.yul\":518:549   */\n      tag_200\n        /* \"#utility.yul\":539:548   */\n      dup3\n        /* \"#utility.yul\":518:549   */\n      tag_324\n      jump\t// in\n        /* \"#utility.yul\":560:834   */\n    tag_91:\n      0x00\n      dup1\n        /* \"#utility.yul\":689:691   */\n      0x40\n        /* \"#utility.yul\":677:686   */\n      dup4\n        /* \"#utility.yul\":668:675   */\n      dup6\n        /* \"#utility.yul\":664:687   */\n      sub\n        /* \"#utility.yul\":660:692   */\n      slt\n        /* \"#utility.yul\":657:659   */\n      iszero\n      tag_334\n      jumpi\n        /* \"#utility.yul\":710:716   */\n      dup1\n        /* \"#utility.yul\":702:708   */\n      dup2\n        /* \"#utility.yul\":695:717   */\n      revert\n        /* \"#utility.yul\":657:659   */\n    tag_334:\n        /* \"#utility.yul\":738:769   */\n      tag_335\n        /* \"#utility.yul\":759:768   */\n      dup4\n        /* \"#utility.yul\":738:769   */\n      tag_324\n      jump\t// in\n    tag_335:\n        /* \"#utility.yul\":728:769   */\n      swap2\n      pop\n        /* \"#utility.yul\":788:828   */\n      tag_336\n        /* \"#utility.yul\":824:826   */\n      0x20\n        /* \"#utility.yul\":813:822   */\n      dup5\n        /* \"#utility.yul\":809:827   */\n      add\n        /* \"#utility.yul\":788:828   */\n      tag_324\n      jump\t// in\n    tag_336:\n        /* \"#utility.yul\":778:828   */\n      swap1\n      pop\n        /* \"#utility.yul\":647:834   */\n      swap3\n      pop\n      swap3\n      swap1\n      pop\n      jump\t// out\n        /* \"#utility.yul\":839:1181   */\n    tag_46:\n      0x00\n      dup1\n      0x00\n        /* \"#utility.yul\":985:987   */\n      0x60\n        /* \"#utility.yul\":973:982   */\n      dup5\n        /* \"#utility.yul\":964:971   */\n      dup7\n        /* \"#utility.yul\":960:983   */\n      sub\n        /* \"#utility.yul\":956:988   */\n      slt\n        /* \"#utility.yul\":953:955   */\n      iszero\n      tag_338\n      jumpi\n        /* \"#utility.yul\":1006:1012   */\n      dup1\n        /* \"#utility.yul\":998:1004   */\n      dup2\n        /* \"#utility.yul\":991:1013   */\n      revert\n        /* \"#utility.yul\":953:955   */\n    tag_338:\n        /* \"#utility.yul\":1034:1065   */\n      tag_339\n        /* \"#utility.yul\":1055:1064   */\n      dup5\n        /* \"#utility.yul\":1034:1065   */\n      tag_324\n      jump\t// in\n    tag_339:\n        /* \"#utility.yul\":1024:1065   */\n      swap3\n      pop\n        /* \"#utility.yul\":1084:1124   */\n      tag_340\n        /* \"#utility.yul\":1120:1122   */\n      0x20\n        /* \"#utility.yul\":1109:1118   */\n      dup6\n        /* \"#utility.yul\":1105:1123   */\n      add\n        /* \"#utility.yul\":1084:1124   */\n      tag_324\n      jump\t// in\n    tag_340:\n        /* \"#utility.yul\":1074:1124   */\n      swap2\n      pop\n        /* \"#utility.yul\":1171:1173   */\n      0x40\n        /* \"#utility.yul\":1160:1169   */\n      dup5\n        /* \"#utility.yul\":1156:1174   */\n      add\n        /* \"#utility.yul\":1143:1175   */\n      calldataload\n        /* \"#utility.yul\":1133:1175   */\n      swap1\n      pop\n        /* \"#utility.yul\":943:1181   */\n      swap3\n      pop\n      swap3\n      pop\n      swap3\n      jump\t// out\n        /* \"#utility.yul\":1186:2364   */\n    tag_83:\n      0x00\n      dup1\n      0x00\n      dup1\n        /* \"#utility.yul\":1358:1361   */\n      0x80\n        /* \"#utility.yul\":1346:1355   */\n      dup6\n        /* \"#utility.yul\":1337:1344   */\n      dup8\n        /* \"#utility.yul\":1333:1356   */\n      sub\n        /* \"#utility.yul\":1329:1362   */\n      slt\n        /* \"#utility.yul\":1326:1328   */\n      iszero\n      tag_342\n      jumpi\n        /* \"#utility.yul\":1380:1386   */\n      dup1\n        /* \"#utility.yul\":1372:1378   */\n      dup2\n        /* \"#utility.yul\":1365:1387   */\n      revert\n        /* \"#utility.yul\":1326:1328   */\n    tag_342:\n        /* \"#utility.yul\":1408:1439   */\n      tag_343\n        /* \"#utility.yul\":1429:1438   */\n      dup6\n        /* \"#utility.yul\":1408:1439   */\n      tag_324\n      jump\t// in\n    tag_343:\n        /* \"#utility.yul\":1398:1439   */\n      swap4\n      pop\n        /* \"#utility.yul\":1458:1460   */\n      0x20\n        /* \"#utility.yul\":1479:1519   */\n      tag_344\n        /* \"#utility.yul\":1515:1517   */\n      dup2\n        /* \"#utility.yul\":1504:1513   */\n      dup8\n        /* \"#utility.yul\":1500:1518   */\n      add\n        /* \"#utility.yul\":1479:1519   */\n      tag_324\n      jump\t// in\n    tag_344:\n        /* \"#utility.yul\":1469:1519   */\n      swap4\n      pop\n        /* \"#utility.yul\":1566:1568   */\n      0x40\n        /* \"#utility.yul\":1555:1564   */\n      dup7\n        /* \"#utility.yul\":1551:1569   */\n      add\n        /* \"#utility.yul\":1538:1570   */\n      calldataload\n        /* \"#utility.yul\":1528:1570   */\n      swap3\n      pop\n        /* \"#utility.yul\":1621:1623   */\n      0x60\n        /* \"#utility.yul\":1610:1619   */\n      dup7\n        /* \"#utility.yul\":1606:1624   */\n      add\n        /* \"#utility.yul\":1593:1625   */\n      calldataload\n        /* \"#utility.yul\":1644:1662   */\n      0xffffffffffffffff\n        /* \"#utility.yul\":1685:1687   */\n      dup1\n        /* \"#utility.yul\":1677:1683   */\n      dup3\n        /* \"#utility.yul\":1674:1688   */\n      gt\n        /* \"#utility.yul\":1671:1673   */\n      iszero\n      tag_345\n      jumpi\n        /* \"#utility.yul\":1706:1712   */\n      dup4\n        /* \"#utility.yul\":1698:1704   */\n      dup5\n        /* \"#utility.yul\":1691:1713   */\n      revert\n        /* \"#utility.yul\":1671:1673   */\n    tag_345:\n        /* \"#utility.yul\":1749:1755   */\n      dup2\n        /* \"#utility.yul\":1738:1747   */\n      dup9\n        /* \"#utility.yul\":1734:1756   */\n      add\n        /* \"#utility.yul\":1724:1756   */\n      swap2\n      pop\n        /* \"#utility.yul\":1794:1801   */\n      dup9\n        /* \"#utility.yul\":1787:1791   */\n      0x1f\n        /* \"#utility.yul\":1783:1785   */\n      dup4\n        /* \"#utility.yul\":1779:1792   */\n      add\n        /* \"#utility.yul\":1775:1802   */\n      slt\n        /* \"#utility.yul\":1765:1767   */\n      tag_346\n      jumpi\n        /* \"#utility.yul\":1821:1827   */\n      dup4\n        /* \"#utility.yul\":1813:1819   */\n      dup5\n        /* \"#utility.yul\":1806:1828   */\n      revert\n        /* \"#utility.yul\":1765:1767   */\n    tag_346:\n        /* \"#utility.yul\":1862:1864   */\n      dup2\n        /* \"#utility.yul\":1849:1865   */\n      calldataload\n        /* \"#utility.yul\":1884:1886   */\n      dup2\n        /* \"#utility.yul\":1880:1882   */\n      dup2\n        /* \"#utility.yul\":1877:1887   */\n      gt\n        /* \"#utility.yul\":1874:1876   */\n      iszero\n      tag_348\n      jumpi\n        /* \"#utility.yul\":1890:1908   */\n      tag_348\n      tag_349\n      jump\t// in\n    tag_348:\n        /* \"#utility.yul\":1939:1941   */\n      0x40\n        /* \"#utility.yul\":1933:1942   */\n      mload\n        /* \"#utility.yul\":2008:2010   */\n      0x1f\n        /* \"#utility.yul\":1989:2002   */\n      dup3\n      add\n      not(0x1f)\n        /* \"#utility.yul\":1985:2012   */\n      and\n        /* \"#utility.yul\":1973:2013   */\n      dup2\n      add\n        /* \"#utility.yul\":1969:2018   */\n      dup6\n      add\n        /* \"#utility.yul\":2033:2051   */\n      dup4\n      dup2\n      gt\n        /* \"#utility.yul\":2053:2075   */\n      dup3\n      dup3\n      lt\n        /* \"#utility.yul\":2030:2076   */\n      or\n        /* \"#utility.yul\":2027:2029   */\n      iszero\n      tag_351\n      jumpi\n        /* \"#utility.yul\":2079:2097   */\n      tag_351\n      tag_349\n      jump\t// in\n    tag_351:\n        /* \"#utility.yul\":2115:2117   */\n      0x40\n        /* \"#utility.yul\":2108:2130   */\n      mstore\n        /* \"#utility.yul\":2139:2157   */\n      dup2\n      dup2\n      mstore\n        /* \"#utility.yul\":2176:2187   */\n      dup4\n      dup3\n      add\n        /* \"#utility.yul\":2172:2192   */\n      dup6\n      add\n        /* \"#utility.yul\":2169:2202   */\n      dup12\n      lt\n        /* \"#utility.yul\":2166:2168   */\n      iszero\n      tag_352\n      jumpi\n        /* \"#utility.yul\":2220:2226   */\n      dup6\n        /* \"#utility.yul\":2212:2218   */\n      dup7\n        /* \"#utility.yul\":2205:2227   */\n      revert\n        /* \"#utility.yul\":2166:2168   */\n    tag_352:\n        /* \"#utility.yul\":2281:2283   */\n      dup2\n        /* \"#utility.yul\":2276:2278   */\n      dup6\n        /* \"#utility.yul\":2272:2274   */\n      dup6\n        /* \"#utility.yul\":2268:2279   */\n      add\n        /* \"#utility.yul\":2263:2265   */\n      dup7\n        /* \"#utility.yul\":2255:2261   */\n      dup4\n        /* \"#utility.yul\":2251:2266   */\n      add\n        /* \"#utility.yul\":2238:2284   */\n      calldatacopy\n        /* \"#utility.yul\":2304:2319   */\n      swap1\n      dup2\n      add\n        /* \"#utility.yul\":2300:2324   */\n      swap1\n      swap4\n      add\n        /* \"#utility.yul\":2293:2333   */\n      swap4\n      swap1\n      swap4\n      mstore\n      pop\n        /* \"#utility.yul\":1316:2364   */\n      swap4\n      swap7\n      swap3\n      swap6\n      pop\n      swap1\n      swap4\n      pop\n      pop\n      jump\t// out\n        /* \"#utility.yul\":2369:2738   */\n    tag_79:\n      0x00\n      dup1\n        /* \"#utility.yul\":2495:2497   */\n      0x40\n        /* \"#utility.yul\":2483:2492   */\n      dup4\n        /* \"#utility.yul\":2474:2481   */\n      dup6\n        /* \"#utility.yul\":2470:2493   */\n      sub\n        /* \"#utility.yul\":2466:2498   */\n      slt\n        /* \"#utility.yul\":2463:2465   */\n      iszero\n      tag_354\n      jumpi\n        /* \"#utility.yul\":2516:2522   */\n      dup2\n        /* \"#utility.yul\":2508:2514   */\n      dup3\n        /* \"#utility.yul\":2501:2523   */\n      revert\n        /* \"#utility.yul\":2463:2465   */\n    tag_354:\n        /* \"#utility.yul\":2544:2575   */\n      tag_355\n        /* \"#utility.yul\":2565:2574   */\n      dup4\n        /* \"#utility.yul\":2544:2575   */\n      tag_324\n      jump\t// in\n    tag_355:\n        /* \"#utility.yul\":2534:2575   */\n      swap2\n      pop\n        /* \"#utility.yul\":2625:2627   */\n      0x20\n        /* \"#utility.yul\":2614:2623   */\n      dup4\n        /* \"#utility.yul\":2610:2628   */\n      add\n        /* \"#utility.yul\":2597:2629   */\n      calldataload\n        /* \"#utility.yul\":2672:2677   */\n      dup1\n        /* \"#utility.yul\":2665:2678   */\n      iszero\n        /* \"#utility.yul\":2658:2679   */\n      iszero\n        /* \"#utility.yul\":2651:2656   */\n      dup2\n        /* \"#utility.yul\":2648:2680   */\n      eq\n        /* \"#utility.yul\":2638:2640   */\n      tag_356\n      jumpi\n        /* \"#utility.yul\":2699:2705   */\n      dup2\n        /* \"#utility.yul\":2691:2697   */\n      dup3\n        /* \"#utility.yul\":2684:2706   */\n      revert\n        /* \"#utility.yul\":2638:2640   */\n    tag_356:\n        /* \"#utility.yul\":2727:2732   */\n      dup1\n        /* \"#utility.yul\":2717:2732   */\n      swap2\n      pop\n      pop\n        /* \"#utility.yul\":2453:2738   */\n      swap3\n      pop\n      swap3\n      swap1\n      pop\n      jump\t// out\n        /* \"#utility.yul\":2743:3009   */\n    tag_42:\n      0x00\n      dup1\n        /* \"#utility.yul\":2872:2874   */\n      0x40\n        /* \"#utility.yul\":2860:2869   */\n      dup4\n        /* \"#utility.yul\":2851:2858   */\n      dup6\n        /* \"#utility.yul\":2847:2870   */\n      sub\n        /* \"#utility.yul\":2843:2875   */\n      slt\n        /* \"#utility.yul\":2840:2842   */\n      iszero\n      tag_358\n      jumpi\n        /* \"#utility.yul\":2893:2899   */\n      dup2\n        /* \"#utility.yul\":2885:2891   */\n      dup3\n        /* \"#utility.yul\":2878:2900   */\n      revert\n        /* \"#utility.yul\":2840:2842   */\n    tag_358:\n        /* \"#utility.yul\":2921:2952   */\n      tag_359\n        /* \"#utility.yul\":2942:2951   */\n      dup4\n        /* \"#utility.yul\":2921:2952   */\n      tag_324\n      jump\t// in\n    tag_359:\n        /* \"#utility.yul\":2911:2952   */\n      swap5\n        /* \"#utility.yul\":2999:3001   */\n      0x20\n        /* \"#utility.yul\":2984:3002   */\n      swap4\n      swap1\n      swap4\n      add\n        /* \"#utility.yul\":2971:3003   */\n      calldataload\n      swap4\n      pop\n      pop\n      pop\n        /* \"#utility.yul\":2830:3009   */\n      jump\t// out\n        /* \"#utility.yul\":3014:3271   */\n    tag_26:\n      0x00\n        /* \"#utility.yul\":3125:3127   */\n      0x20\n        /* \"#utility.yul\":3113:3122   */\n      dup3\n        /* \"#utility.yul\":3104:3111   */\n      dup5\n        /* \"#utility.yul\":3100:3123   */\n      sub\n        /* \"#utility.yul\":3096:3128   */\n      slt\n        /* \"#utility.yul\":3093:3095   */\n      iszero\n      tag_361\n      jumpi\n        /* \"#utility.yul\":3146:3152   */\n      dup1\n        /* \"#utility.yul\":3138:3144   */\n      dup2\n        /* \"#utility.yul\":3131:3153   */\n      revert\n        /* \"#utility.yul\":3093:3095   */\n    tag_361:\n        /* \"#utility.yul\":3190:3199   */\n      dup2\n        /* \"#utility.yul\":3177:3200   */\n      calldataload\n        /* \"#utility.yul\":3209:3241   */\n      tag_200\n        /* \"#utility.yul\":3235:3240   */\n      dup2\n        /* \"#utility.yul\":3209:3241   */\n      tag_363\n      jump\t// in\n        /* \"#utility.yul\":3276:3537   */\n    tag_300:\n      0x00\n        /* \"#utility.yul\":3398:3400   */\n      0x20\n        /* \"#utility.yul\":3386:3395   */\n      dup3\n        /* \"#utility.yul\":3377:3384   */\n      dup5\n        /* \"#utility.yul\":3373:3396   */\n      sub\n        /* \"#utility.yul\":3369:3401   */\n      slt\n        /* \"#utility.yul\":3366:3368   */\n      iszero\n      tag_365\n      jumpi\n        /* \"#utility.yul\":3419:3425   */\n      dup1\n        /* \"#utility.yul\":3411:3417   */\n      dup2\n        /* \"#utility.yul\":3404:3426   */\n      revert\n        /* \"#utility.yul\":3366:3368   */\n    tag_365:\n        /* \"#utility.yul\":3456:3465   */\n      dup2\n        /* \"#utility.yul\":3450:3466   */\n      mload\n        /* \"#utility.yul\":3475:3507   */\n      tag_200\n        /* \"#utility.yul\":3501:3506   */\n      dup2\n        /* \"#utility.yul\":3475:3507   */\n      tag_363\n      jump\t// in\n        /* \"#utility.yul\":3542:3732   */\n    tag_36:\n      0x00\n        /* \"#utility.yul\":3654:3656   */\n      0x20\n        /* \"#utility.yul\":3642:3651   */\n      dup3\n        /* \"#utility.yul\":3633:3640   */\n      dup5\n        /* \"#utility.yul\":3629:3652   */\n      sub\n        /* \"#utility.yul\":3625:3657   */\n      slt\n        /* \"#utility.yul\":3622:3624   */\n      iszero\n      tag_368\n      jumpi\n        /* \"#utility.yul\":3675:3681   */\n      dup1\n        /* \"#utility.yul\":3667:3673   */\n      dup2\n        /* \"#utility.yul\":3660:3682   */\n      revert\n        /* \"#utility.yul\":3622:3624   */\n    tag_368:\n      pop\n        /* \"#utility.yul\":3703:3726   */\n      calldataload\n      swap2\n        /* \"#utility.yul\":3612:3732   */\n      swap1\n      pop\n      jump\t// out\n        /* \"#utility.yul\":3737:4144   */\n    tag_50:\n      0x00\n      dup1\n      0x00\n      dup1\n        /* \"#utility.yul\":3894:3897   */\n      0x80\n        /* \"#utility.yul\":3882:3891   */\n      dup6\n        /* \"#utility.yul\":3873:3880   */\n      dup8\n        /* \"#utility.yul\":3869:3892   */\n      sub\n        /* \"#utility.yul\":3865:3898   */\n      slt\n        /* \"#utility.yul\":3862:3864   */\n      iszero\n      tag_370\n      jumpi\n        /* \"#utility.yul\":3916:3922   */\n      dup4\n        /* \"#utility.yul\":3908:3914   */\n      dup5\n        /* \"#utility.yul\":3901:3923   */\n      revert\n        /* \"#utility.yul\":3862:3864   */\n    tag_370:\n        /* \"#utility.yul\":3957:3966   */\n      dup5\n        /* \"#utility.yul\":3944:3967   */\n      calldataload\n        /* \"#utility.yul\":3934:3967   */\n      swap4\n      pop\n        /* \"#utility.yul\":3986:4024   */\n      tag_371\n        /* \"#utility.yul\":4020:4022   */\n      0x20\n        /* \"#utility.yul\":4009:4018   */\n      dup7\n        /* \"#utility.yul\":4005:4023   */\n      add\n        /* \"#utility.yul\":3986:4024   */\n      tag_327\n      jump\t// in\n    tag_371:\n        /* \"#utility.yul\":3976:4024   */\n      swap3\n      pop\n        /* \"#utility.yul\":4043:4081   */\n      tag_372\n        /* \"#utility.yul\":4077:4079   */\n      0x40\n        /* \"#utility.yul\":4066:4075   */\n      dup7\n        /* \"#utility.yul\":4062:4080   */\n      add\n        /* \"#utility.yul\":4043:4081   */\n      tag_327\n      jump\t// in\n    tag_372:\n        /* \"#utility.yul\":4033:4081   */\n      swap2\n      pop\n        /* \"#utility.yul\":4100:4138   */\n      tag_373\n        /* \"#utility.yul\":4134:4136   */\n      0x60\n        /* \"#utility.yul\":4123:4132   */\n      dup7\n        /* \"#utility.yul\":4119:4137   */\n      add\n        /* \"#utility.yul\":4100:4138   */\n      tag_327\n      jump\t// in\n    tag_373:\n        /* \"#utility.yul\":4090:4138   */\n      swap1\n      pop\n        /* \"#utility.yul\":3852:4144   */\n      swap3\n      swap6\n      swap2\n      swap5\n      pop\n      swap3\n      pop\n      jump\t// out\n        /* \"#utility.yul\":4149:4415   */\n    tag_54:\n      0x00\n      dup1\n        /* \"#utility.yul\":4274:4276   */\n      0x40\n        /* \"#utility.yul\":4262:4271   */\n      dup4\n        /* \"#utility.yul\":4253:4260   */\n      dup6\n        /* \"#utility.yul\":4249:4272   */\n      sub\n        /* \"#utility.yul\":4245:4277   */\n      slt\n        /* \"#utility.yul\":4242:4244   */\n      iszero\n      tag_375\n      jumpi\n        /* \"#utility.yul\":4295:4301   */\n      dup2\n        /* \"#utility.yul\":4287:4293   */\n      dup3\n        /* \"#utility.yul\":4280:4302   */\n      revert\n        /* \"#utility.yul\":4242:4244   */\n    tag_375:\n        /* \"#utility.yul\":4323:4352   */\n      tag_376\n        /* \"#utility.yul\":4342:4351   */\n      dup4\n        /* \"#utility.yul\":4323:4352   */\n      tag_327\n      jump\t// in\n    tag_376:\n        /* \"#utility.yul\":4313:4352   */\n      swap2\n      pop\n        /* \"#utility.yul\":4371:4409   */\n      tag_336\n        /* \"#utility.yul\":4405:4407   */\n      0x20\n        /* \"#utility.yul\":4394:4403   */\n      dup5\n        /* \"#utility.yul\":4390:4408   */\n      add\n        /* \"#utility.yul\":4371:4409   */\n      tag_327\n      jump\t// in\n        /* \"#utility.yul\":4420:4679   */\n    tag_378:\n      0x00\n        /* \"#utility.yul\":4501:4506   */\n      dup2\n        /* \"#utility.yul\":4495:4507   */\n      mload\n        /* \"#utility.yul\":4528:4534   */\n      dup1\n        /* \"#utility.yul\":4523:4526   */\n      dup5\n        /* \"#utility.yul\":4516:4535   */\n      mstore\n        /* \"#utility.yul\":4544:4607   */\n      tag_380\n        /* \"#utility.yul\":4600:4606   */\n      dup2\n        /* \"#utility.yul\":4593:4597   */\n      0x20\n        /* \"#utility.yul\":4588:4591   */\n      dup7\n        /* \"#utility.yul\":4584:4598   */\n      add\n        /* \"#utility.yul\":4577:4581   */\n      0x20\n        /* \"#utility.yul\":4570:4575   */\n      dup7\n        /* \"#utility.yul\":4566:4582   */\n      add\n        /* \"#utility.yul\":4544:4607   */\n      tag_381\n      jump\t// in\n    tag_380:\n        /* \"#utility.yul\":4661:4663   */\n      0x1f\n        /* \"#utility.yul\":4640:4655   */\n      add\n      not(0x1f)\n        /* \"#utility.yul\":4636:4665   */\n      and\n        /* \"#utility.yul\":4627:4666   */\n      swap3\n      swap1\n      swap3\n      add\n        /* \"#utility.yul\":4668:4672   */\n      0x20\n        /* \"#utility.yul\":4623:4673   */\n      add\n      swap3\n        /* \"#utility.yul\":4471:4679   */\n      swap2\n      pop\n      pop\n      jump\t// out\n        /* \"#utility.yul\":4684:5154   */\n    tag_204:\n      0x00\n        /* \"#utility.yul\":4901:4907   */\n      dup4\n        /* \"#utility.yul\":4895:4908   */\n      mload\n        /* \"#utility.yul\":4917:4970   */\n      tag_383\n        /* \"#utility.yul\":4963:4969   */\n      dup2\n        /* \"#utility.yul\":4958:4961   */\n      dup5\n        /* \"#utility.yul\":4951:4955   */\n      0x20\n        /* \"#utility.yul\":4943:4949   */\n      dup9\n        /* \"#utility.yul\":4939:4956   */\n      add\n        /* \"#utility.yul\":4917:4970   */\n      tag_381\n      jump\t// in\n    tag_383:\n        /* \"#utility.yul\":5033:5046   */\n      dup4\n      mload\n        /* \"#utility.yul\":4992:5008   */\n      swap1\n      dup4\n      add\n      swap1\n        /* \"#utility.yul\":5055:5112   */\n      tag_384\n        /* \"#utility.yul\":5033:5046   */\n      dup2\n        /* \"#utility.yul\":4992:5008   */\n      dup4\n        /* \"#utility.yul\":5089:5093   */\n      0x20\n        /* \"#utility.yul\":5077:5094   */\n      dup9\n      add\n        /* \"#utility.yul\":5055:5112   */\n      tag_381\n      jump\t// in\n    tag_384:\n        /* \"#utility.yul\":5128:5148   */\n      add\n      swap5\n        /* \"#utility.yul\":4871:5154   */\n      swap4\n      pop\n      pop\n      pop\n      pop\n      jump\t// out\n        /* \"#utility.yul\":5159:5362   */\n    tag_39:\n      sub(shl(0xa0, 0x01), 0x01)\n        /* \"#utility.yul\":5323:5355   */\n      swap2\n      swap1\n      swap2\n      and\n        /* \"#utility.yul\":5305:5356   */\n      dup2\n      mstore\n        /* \"#utility.yul\":5293:5295   */\n      0x20\n        /* \"#utility.yul\":5278:5296   */\n      add\n      swap1\n        /* \"#utility.yul\":5260:5362   */\n      jump\t// out\n        /* \"#utility.yul\":5367:5857   */\n    tag_296:\n      sub(shl(0xa0, 0x01), 0x01)\n        /* \"#utility.yul\":5636:5651   */\n      dup6\n      dup2\n      and\n        /* \"#utility.yul\":5618:5652   */\n      dup3\n      mstore\n        /* \"#utility.yul\":5688:5703   */\n      dup5\n      and\n        /* \"#utility.yul\":5683:5685   */\n      0x20\n        /* \"#utility.yul\":5668:5686   */\n      dup3\n      add\n        /* \"#utility.yul\":5661:5704   */\n      mstore\n        /* \"#utility.yul\":5735:5737   */\n      0x40\n        /* \"#utility.yul\":5720:5738   */\n      dup2\n      add\n        /* \"#utility.yul\":5713:5747   */\n      dup4\n      swap1\n      mstore\n        /* \"#utility.yul\":5783:5786   */\n      0x80\n        /* \"#utility.yul\":5778:5780   */\n      0x60\n        /* \"#utility.yul\":5763:5781   */\n      dup3\n      add\n        /* \"#utility.yul\":5756:5787   */\n      dup2\n      swap1\n      mstore\n        /* \"#utility.yul\":5367:5857   */\n      0x00\n      swap1\n        /* \"#utility.yul\":5804:5851   */\n      tag_387\n      swap1\n        /* \"#utility.yul\":5831:5850   */\n      dup4\n      add\n        /* \"#utility.yul\":5823:5829   */\n      dup5\n        /* \"#utility.yul\":5804:5851   */\n      tag_378\n      jump\t// in\n    tag_387:\n        /* \"#utility.yul\":5796:5851   */\n      swap7\n        /* \"#utility.yul\":5570:5857   */\n      swap6\n      pop\n      pop\n      pop\n      pop\n      pop\n      pop\n      jump\t// out\n        /* \"#utility.yul\":5862:6049   */\n    tag_29:\n        /* \"#utility.yul\":6027:6041   */\n      swap1\n      iszero\n        /* \"#utility.yul\":6020:6042   */\n      iszero\n        /* \"#utility.yul\":6002:6043   */\n      dup2\n      mstore\n        /* \"#utility.yul\":5990:5992   */\n      0x20\n        /* \"#utility.yul\":5975:5993   */\n      add\n      swap1\n        /* \"#utility.yul\":5957:6049   */\n      jump\t// out\n        /* \"#utility.yul\":6054:6275   */\n    tag_33:\n      0x00\n        /* \"#utility.yul\":6203:6205   */\n      0x20\n        /* \"#utility.yul\":6192:6201   */\n      dup3\n        /* \"#utility.yul\":6185:6206   */\n      mstore\n        /* \"#utility.yul\":6223:6269   */\n      tag_200\n        /* \"#utility.yul\":6265:6267   */\n      0x20\n        /* \"#utility.yul\":6254:6263   */\n      dup4\n        /* \"#utility.yul\":6250:6268   */\n      add\n        /* \"#utility.yul\":6242:6248   */\n      dup5\n        /* \"#utility.yul\":6223:6269   */\n      tag_378\n      jump\t// in\n        /* \"#utility.yul\":6280:6694   */\n    tag_263:\n        /* \"#utility.yul\":6482:6484   */\n      0x20\n        /* \"#utility.yul\":6464:6485   */\n      dup1\n      dup3\n      mstore\n        /* \"#utility.yul\":6521:6523   */\n      0x32\n        /* \"#utility.yul\":6501:6519   */\n      swap1\n      dup3\n      add\n        /* \"#utility.yul\":6494:6524   */\n      mstore\n        /* \"#utility.yul\":6560:6594   */\n      0x4552433732313a207472616e7366657220746f206e6f6e204552433732315265\n        /* \"#utility.yul\":6555:6557   */\n      0x40\n        /* \"#utility.yul\":6540:6558   */\n      dup3\n      add\n        /* \"#utility.yul\":6533:6595   */\n      mstore\n      shl(0x71, 0x31b2b4bb32b91034b6b83632b6b2b73a32b9)\n        /* \"#utility.yul\":6626:6628   */\n      0x60\n        /* \"#utility.yul\":6611:6629   */\n      dup3\n      add\n        /* \"#utility.yul\":6604:6652   */\n      mstore\n        /* \"#utility.yul\":6684:6687   */\n      0x80\n        /* \"#utility.yul\":6669:6688   */\n      add\n      swap1\n        /* \"#utility.yul\":6454:6694   */\n      jump\t// out\n        /* \"#utility.yul\":6699:7101   */\n    tag_214:\n        /* \"#utility.yul\":6901:6903   */\n      0x20\n        /* \"#utility.yul\":6883:6904   */\n      dup1\n      dup3\n      mstore\n        /* \"#utility.yul\":6940:6942   */\n      0x26\n        /* \"#utility.yul\":6920:6938   */\n      swap1\n      dup3\n      add\n        /* \"#utility.yul\":6913:6943   */\n      mstore\n        /* \"#utility.yul\":6979:7013   */\n      0x4f776e61626c653a206e6577206f776e657220697320746865207a65726f2061\n        /* \"#utility.yul\":6974:6976   */\n      0x40\n        /* \"#utility.yul\":6959:6977   */\n      dup3\n      add\n        /* \"#utility.yul\":6952:7014   */\n      mstore\n      shl(0xd0, 0x646472657373)\n        /* \"#utility.yul\":7045:7047   */\n      0x60\n        /* \"#utility.yul\":7030:7048   */\n      dup3\n      add\n        /* \"#utility.yul\":7023:7059   */\n      mstore\n        /* \"#utility.yul\":7091:7094   */\n      0x80\n        /* \"#utility.yul\":7076:7095   */\n      add\n      swap1\n        /* \"#utility.yul\":6873:7101   */\n      jump\t// out\n        /* \"#utility.yul\":7106:7507   */\n    tag_235:\n        /* \"#utility.yul\":7308:7310   */\n      0x20\n        /* \"#utility.yul\":7290:7311   */\n      dup1\n      dup3\n      mstore\n        /* \"#utility.yul\":7347:7349   */\n      0x25\n        /* \"#utility.yul\":7327:7345   */\n      swap1\n      dup3\n      add\n        /* \"#utility.yul\":7320:7350   */\n      mstore\n        /* \"#utility.yul\":7386:7420   */\n      0x4552433732313a207472616e736665722066726f6d20696e636f727265637420\n        /* \"#utility.yul\":7381:7383   */\n      0x40\n        /* \"#utility.yul\":7366:7384   */\n      dup3\n      add\n        /* \"#utility.yul\":7359:7421   */\n      mstore\n      shl(0xd9, 0x37bbb732b9)\n        /* \"#utility.yul\":7452:7454   */\n      0x60\n        /* \"#utility.yul\":7437:7455   */\n      dup3\n      add\n        /* \"#utility.yul\":7430:7465   */\n      mstore\n        /* \"#utility.yul\":7497:7500   */\n      0x80\n        /* \"#utility.yul\":7482:7501   */\n      add\n      swap1\n        /* \"#utility.yul\":7280:7507   */\n      jump\t// out\n        /* \"#utility.yul\":7512:7864   */\n    tag_318:\n        /* \"#utility.yul\":7714:7716   */\n      0x20\n        /* \"#utility.yul\":7696:7717   */\n      dup1\n      dup3\n      mstore\n        /* \"#utility.yul\":7753:7755   */\n      0x1c\n        /* \"#utility.yul\":7733:7751   */\n      swap1\n      dup3\n      add\n        /* \"#utility.yul\":7726:7756   */\n      mstore\n        /* \"#utility.yul\":7792:7822   */\n      0x4552433732313a20746f6b656e20616c7265616479206d696e74656400000000\n        /* \"#utility.yul\":7787:7789   */\n      0x40\n        /* \"#utility.yul\":7772:7790   */\n      dup3\n      add\n        /* \"#utility.yul\":7765:7823   */\n      mstore\n        /* \"#utility.yul\":7855:7857   */\n      0x60\n        /* \"#utility.yul\":7840:7858   */\n      add\n      swap1\n        /* \"#utility.yul\":7686:7864   */\n      jump\t// out\n        /* \"#utility.yul\":7869:8269   */\n    tag_238:\n        /* \"#utility.yul\":8071:8073   */\n      0x20\n        /* \"#utility.yul\":8053:8074   */\n      dup1\n      dup3\n      mstore\n        /* \"#utility.yul\":8110:8112   */\n      0x24\n        /* \"#utility.yul\":8090:8108   */\n      swap1\n      dup3\n      add\n        /* \"#utility.yul\":8083:8113   */\n      mstore\n        /* \"#utility.yul\":8149:8183   */\n      0x4552433732313a207472616e7366657220746f20746865207a65726f20616464\n        /* \"#utility.yul\":8144:8146   */\n      0x40\n        /* \"#utility.yul\":8129:8147   */\n      dup3\n      add\n        /* \"#utility.yul\":8122:8184   */\n      mstore\n      shl(0xe0, 0x72657373)\n        /* \"#utility.yul\":8215:8217   */\n      0x60\n        /* \"#utility.yul\":8200:8218   */\n      dup3\n      add\n        /* \"#utility.yul\":8193:8227   */\n      mstore\n        /* \"#utility.yul\":8259:8262   */\n      0x80\n        /* \"#utility.yul\":8244:8263   */\n      add\n      swap1\n        /* \"#utility.yul\":8043:8269   */\n      jump\t// out\n        /* \"#utility.yul\":8274:8623   */\n    tag_255:\n        /* \"#utility.yul\":8476:8478   */\n      0x20\n        /* \"#utility.yul\":8458:8479   */\n      dup1\n      dup3\n      mstore\n        /* \"#utility.yul\":8515:8517   */\n      0x19\n        /* \"#utility.yul\":8495:8513   */\n      swap1\n      dup3\n      add\n        /* \"#utility.yul\":8488:8518   */\n      mstore\n        /* \"#utility.yul\":8554:8581   */\n      0x4552433732313a20617070726f766520746f2063616c6c657200000000000000\n        /* \"#utility.yul\":8549:8551   */\n      0x40\n        /* \"#utility.yul\":8534:8552   */\n      dup3\n      add\n        /* \"#utility.yul\":8527:8582   */\n      mstore\n        /* \"#utility.yul\":8614:8616   */\n      0x60\n        /* \"#utility.yul\":8599:8617   */\n      add\n      swap1\n        /* \"#utility.yul\":8448:8623   */\n      jump\t// out\n        /* \"#utility.yul\":8628:9036   */\n    tag_225:\n        /* \"#utility.yul\":8830:8832   */\n      0x20\n        /* \"#utility.yul\":8812:8833   */\n      dup1\n      dup3\n      mstore\n        /* \"#utility.yul\":8869:8871   */\n      0x2c\n        /* \"#utility.yul\":8849:8867   */\n      swap1\n      dup3\n      add\n        /* \"#utility.yul\":8842:8872   */\n      mstore\n        /* \"#utility.yul\":8908:8942   */\n      0x4552433732313a206f70657261746f7220717565727920666f72206e6f6e6578\n        /* \"#utility.yul\":8903:8905   */\n      0x40\n        /* \"#utility.yul\":8888:8906   */\n      dup3\n      add\n        /* \"#utility.yul\":8881:8943   */\n      mstore\n      shl(0xa1, 0x34b9ba32b73a103a37b5b2b7)\n        /* \"#utility.yul\":8974:8976   */\n      0x60\n        /* \"#utility.yul\":8959:8977   */\n      dup3\n      add\n        /* \"#utility.yul\":8952:8994   */\n      mstore\n        /* \"#utility.yul\":9026:9029   */\n      0x80\n        /* \"#utility.yul\":9011:9030   */\n      add\n      swap1\n        /* \"#utility.yul\":8802:9036   */\n      jump\t// out\n        /* \"#utility.yul\":9041:9461   */\n    tag_127:\n        /* \"#utility.yul\":9243:9245   */\n      0x20\n        /* \"#utility.yul\":9225:9246   */\n      dup1\n      dup3\n      mstore\n        /* \"#utility.yul\":9282:9284   */\n      0x38\n        /* \"#utility.yul\":9262:9280   */\n      swap1\n      dup3\n      add\n        /* \"#utility.yul\":9255:9285   */\n      mstore\n        /* \"#utility.yul\":9321:9355   */\n      0x4552433732313a20617070726f76652063616c6c6572206973206e6f74206f77\n        /* \"#utility.yul\":9316:9318   */\n      0x40\n        /* \"#utility.yul\":9301:9319   */\n      dup3\n      add\n        /* \"#utility.yul\":9294:9356   */\n      mstore\n        /* \"#utility.yul\":9392:9418   */\n      0x6e6572206e6f7220617070726f76656420666f7220616c6c0000000000000000\n        /* \"#utility.yul\":9387:9389   */\n      0x60\n        /* \"#utility.yul\":9372:9390   */\n      dup3\n      add\n        /* \"#utility.yul\":9365:9419   */\n      mstore\n        /* \"#utility.yul\":9451:9454   */\n      0x80\n        /* \"#utility.yul\":9436:9455   */\n      add\n      swap1\n        /* \"#utility.yul\":9215:9461   */\n      jump\t// out\n        /* \"#utility.yul\":9466:9872   */\n    tag_165:\n        /* \"#utility.yul\":9668:9670   */\n      0x20\n        /* \"#utility.yul\":9650:9671   */\n      dup1\n      dup3\n      mstore\n        /* \"#utility.yul\":9707:9709   */\n      0x2a\n        /* \"#utility.yul\":9687:9705   */\n      swap1\n      dup3\n      add\n        /* \"#utility.yul\":9680:9710   */\n      mstore\n        /* \"#utility.yul\":9746:9780   */\n      0x4552433732313a2062616c616e636520717565727920666f7220746865207a65\n        /* \"#utility.yul\":9741:9743   */\n      0x40\n        /* \"#utility.yul\":9726:9744   */\n      dup3\n      add\n        /* \"#utility.yul\":9719:9781   */\n      mstore\n      shl(0xb0, 0x726f2061646472657373)\n        /* \"#utility.yul\":9812:9814   */\n      0x60\n        /* \"#utility.yul\":9797:9815   */\n      dup3\n      add\n        /* \"#utility.yul\":9790:9830   */\n      mstore\n        /* \"#utility.yul\":9862:9865   */\n      0x80\n        /* \"#utility.yul\":9847:9866   */\n      add\n      swap1\n        /* \"#utility.yul\":9640:9872   */\n      jump\t// out\n        /* \"#utility.yul\":9877:10282   */\n    tag_142:\n        /* \"#utility.yul\":10079:10081   */\n      0x20\n        /* \"#utility.yul\":10061:10082   */\n      dup1\n      dup3\n      mstore\n        /* \"#utility.yul\":10118:10120   */\n      0x29\n        /* \"#utility.yul\":10098:10116   */\n      swap1\n      dup3\n      add\n        /* \"#utility.yul\":10091:10121   */\n      mstore\n        /* \"#utility.yul\":10157:10191   */\n      0x4552433732313a206f776e657220717565727920666f72206e6f6e6578697374\n        /* \"#utility.yul\":10152:10154   */\n      0x40\n        /* \"#utility.yul\":10137:10155   */\n      dup3\n      add\n        /* \"#utility.yul\":10130:10192   */\n      mstore\n      shl(0xb9, 0x32b73a103a37b5b2b7)\n        /* \"#utility.yul\":10223:10225   */\n      0x60\n        /* \"#utility.yul\":10208:10226   */\n      dup3\n      add\n        /* \"#utility.yul\":10201:10240   */\n      mstore\n        /* \"#utility.yul\":10272:10275   */\n      0x80\n        /* \"#utility.yul\":10257:10276   */\n      add\n      swap1\n        /* \"#utility.yul\":10051:10282   */\n      jump\t// out\n        /* \"#utility.yul\":10287:10643   */\n    tag_314:\n        /* \"#utility.yul\":10489:10491   */\n      0x20\n        /* \"#utility.yul\":10471:10492   */\n      dup1\n      dup3\n      mstore\n        /* \"#utility.yul\":10508:10526   */\n      dup2\n      dup2\n      add\n        /* \"#utility.yul\":10501:10531   */\n      mstore\n        /* \"#utility.yul\":10567:10601   */\n      0x4552433732313a206d696e7420746f20746865207a65726f2061646472657373\n        /* \"#utility.yul\":10562:10564   */\n      0x40\n        /* \"#utility.yul\":10547:10565   */\n      dup3\n      add\n        /* \"#utility.yul\":10540:10602   */\n      mstore\n        /* \"#utility.yul\":10634:10636   */\n      0x60\n        /* \"#utility.yul\":10619:10637   */\n      add\n      swap1\n        /* \"#utility.yul\":10461:10643   */\n      jump\t// out\n        /* \"#utility.yul\":10648:11056   */\n    tag_114:\n        /* \"#utility.yul\":10850:10852   */\n      0x20\n        /* \"#utility.yul\":10832:10853   */\n      dup1\n      dup3\n      mstore\n        /* \"#utility.yul\":10889:10891   */\n      0x2c\n        /* \"#utility.yul\":10869:10887   */\n      swap1\n      dup3\n      add\n        /* \"#utility.yul\":10862:10892   */\n      mstore\n        /* \"#utility.yul\":10928:10962   */\n      0x4552433732313a20617070726f76656420717565727920666f72206e6f6e6578\n        /* \"#utility.yul\":10923:10925   */\n      0x40\n        /* \"#utility.yul\":10908:10926   */\n      dup3\n      add\n        /* \"#utility.yul\":10901:10963   */\n      mstore\n      shl(0xa1, 0x34b9ba32b73a103a37b5b2b7)\n        /* \"#utility.yul\":10994:10996   */\n      0x60\n        /* \"#utility.yul\":10979:10997   */\n      dup3\n      add\n        /* \"#utility.yul\":10972:11014   */\n      mstore\n        /* \"#utility.yul\":11046:11049   */\n      0x80\n        /* \"#utility.yul\":11031:11050   */\n      add\n      swap1\n        /* \"#utility.yul\":10822:11056   */\n      jump\t// out\n        /* \"#utility.yul\":11061:11417   */\n    tag_151:\n        /* \"#utility.yul\":11263:11265   */\n      0x20\n        /* \"#utility.yul\":11245:11266   */\n      dup1\n      dup3\n      mstore\n        /* \"#utility.yul\":11282:11300   */\n      dup2\n      dup2\n      add\n        /* \"#utility.yul\":11275:11305   */\n      mstore\n        /* \"#utility.yul\":11341:11375   */\n      0x4f776e61626c653a2063616c6c6572206973206e6f7420746865206f776e6572\n        /* \"#utility.yul\":11336:11338   */\n      0x40\n        /* \"#utility.yul\":11321:11339   */\n      dup3\n      add\n        /* \"#utility.yul\":11314:11376   */\n      mstore\n        /* \"#utility.yul\":11408:11410   */\n      0x60\n        /* \"#utility.yul\":11393:11411   */\n      add\n      swap1\n        /* \"#utility.yul\":11235:11417   */\n      jump\t// out\n        /* \"#utility.yul\":11422:11773   */\n    tag_145:\n        /* \"#utility.yul\":11624:11626   */\n      0x20\n        /* \"#utility.yul\":11606:11627   */\n      dup1\n      dup3\n      mstore\n        /* \"#utility.yul\":11663:11665   */\n      0x1b\n        /* \"#utility.yul\":11643:11661   */\n      swap1\n      dup3\n      add\n        /* \"#utility.yul\":11636:11666   */\n      mstore\n        /* \"#utility.yul\":11702:11731   */\n      0x4552433732313a206e6f7420746865206f776e657220746f6b656e0000000000\n        /* \"#utility.yul\":11697:11699   */\n      0x40\n        /* \"#utility.yul\":11682:11700   */\n      dup3\n      add\n        /* \"#utility.yul\":11675:11732   */\n      mstore\n        /* \"#utility.yul\":11764:11766   */\n      0x60\n        /* \"#utility.yul\":11749:11767   */\n      add\n      swap1\n        /* \"#utility.yul\":11596:11773   */\n      jump\t// out\n        /* \"#utility.yul\":11778:12189   */\n    tag_196:\n        /* \"#utility.yul\":11980:11982   */\n      0x20\n        /* \"#utility.yul\":11962:11983   */\n      dup1\n      dup3\n      mstore\n        /* \"#utility.yul\":12019:12021   */\n      0x2f\n        /* \"#utility.yul\":11999:12017   */\n      swap1\n      dup3\n      add\n        /* \"#utility.yul\":11992:12022   */\n      mstore\n        /* \"#utility.yul\":12058:12092   */\n      0x4552433732314d657461646174613a2055524920717565727920666f72206e6f\n        /* \"#utility.yul\":12053:12055   */\n      0x40\n        /* \"#utility.yul\":12038:12056   */\n      dup3\n      add\n        /* \"#utility.yul\":12031:12093   */\n      mstore\n      shl(0x89, 0x3732bc34b9ba32b73a103a37b5b2b7)\n        /* \"#utility.yul\":12124:12126   */\n      0x60\n        /* \"#utility.yul\":12109:12127   */\n      dup3\n      add\n        /* \"#utility.yul\":12102:12147   */\n      mstore\n        /* \"#utility.yul\":12179:12182   */\n      0x80\n        /* \"#utility.yul\":12164:12183   */\n      add\n      swap1\n        /* \"#utility.yul\":11952:12189   */\n      jump\t// out\n        /* \"#utility.yul\":12194:12591   */\n    tag_119:\n        /* \"#utility.yul\":12396:12398   */\n      0x20\n        /* \"#utility.yul\":12378:12399   */\n      dup1\n      dup3\n      mstore\n        /* \"#utility.yul\":12435:12437   */\n      0x21\n        /* \"#utility.yul\":12415:12433   */\n      swap1\n      dup3\n      add\n        /* \"#utility.yul\":12408:12438   */\n      mstore\n        /* \"#utility.yul\":12474:12508   */\n      0x4552433732313a20617070726f76616c20746f2063757272656e74206f776e65\n        /* \"#utility.yul\":12469:12471   */\n      0x40\n        /* \"#utility.yul\":12454:12472   */\n      dup3\n      add\n        /* \"#utility.yul\":12447:12509   */\n      mstore\n      shl(0xf9, 0x39)\n        /* \"#utility.yul\":12540:12542   */\n      0x60\n        /* \"#utility.yul\":12525:12543   */\n      dup3\n      add\n        /* \"#utility.yul\":12518:12549   */\n      mstore\n        /* \"#utility.yul\":12581:12584   */\n      0x80\n        /* \"#utility.yul\":12566:12585   */\n      add\n      swap1\n        /* \"#utility.yul\":12368:12591   */\n      jump\t// out\n        /* \"#utility.yul\":12596:13009   */\n    tag_136:\n        /* \"#utility.yul\":12798:12800   */\n      0x20\n        /* \"#utility.yul\":12780:12801   */\n      dup1\n      dup3\n      mstore\n        /* \"#utility.yul\":12837:12839   */\n      0x31\n        /* \"#utility.yul\":12817:12835   */\n      swap1\n      dup3\n      add\n        /* \"#utility.yul\":12810:12840   */\n      mstore\n        /* \"#utility.yul\":12876:12910   */\n      0x4552433732313a207472616e736665722063616c6c6572206973206e6f74206f\n        /* \"#utility.yul\":12871:12873   */\n      0x40\n        /* \"#utility.yul\":12856:12874   */\n      dup3\n      add\n        /* \"#utility.yul\":12849:12911   */\n      mstore\n      shl(0x7a, 0x1ddb995c881b9bdc88185c1c1c9bdd9959)\n        /* \"#utility.yul\":12942:12944   */\n      0x60\n        /* \"#utility.yul\":12927:12945   */\n      dup3\n      add\n        /* \"#utility.yul\":12920:12967   */\n      mstore\n        /* \"#utility.yul\":12999:13002   */\n      0x80\n        /* \"#utility.yul\":12984:13003   */\n      add\n      swap1\n        /* \"#utility.yul\":12770:13009   */\n      jump\t// out\n        /* \"#utility.yul\":13014:13191   */\n    tag_68:\n        /* \"#utility.yul\":13160:13185   */\n      swap1\n      dup2\n      mstore\n        /* \"#utility.yul\":13148:13150   */\n      0x20\n        /* \"#utility.yul\":13133:13151   */\n      add\n      swap1\n        /* \"#utility.yul\":13115:13191   */\n      jump\t// out\n        /* \"#utility.yul\":13196:13324   */\n    tag_245:\n      0x00\n        /* \"#utility.yul\":13267:13268   */\n      dup3\n        /* \"#utility.yul\":13263:13269   */\n      not\n        /* \"#utility.yul\":13260:13261   */\n      dup3\n        /* \"#utility.yul\":13257:13270   */\n      gt\n        /* \"#utility.yul\":13254:13256   */\n      iszero\n      tag_411\n      jumpi\n        /* \"#utility.yul\":13273:13291   */\n      tag_411\n      tag_412\n      jump\t// in\n    tag_411:\n      pop\n        /* \"#utility.yul\":13309:13318   */\n      add\n      swap1\n        /* \"#utility.yul\":13244:13324   */\n      jump\t// out\n        /* \"#utility.yul\":13329:13449   */\n    tag_271:\n      0x00\n        /* \"#utility.yul\":13395:13396   */\n      dup3\n        /* \"#utility.yul\":13385:13387   */\n      tag_415\n      jumpi\n        /* \"#utility.yul\":13400:13418   */\n      tag_415\n      tag_416\n      jump\t// in\n    tag_415:\n      pop\n        /* \"#utility.yul\":13434:13443   */\n      div\n      swap1\n        /* \"#utility.yul\":13375:13449   */\n      jump\t// out\n        /* \"#utility.yul\":13454:13579   */\n    tag_243:\n      0x00\n        /* \"#utility.yul\":13522:13523   */\n      dup3\n        /* \"#utility.yul\":13519:13520   */\n      dup3\n        /* \"#utility.yul\":13516:13524   */\n      lt\n        /* \"#utility.yul\":13513:13515   */\n      iszero\n      tag_419\n      jumpi\n        /* \"#utility.yul\":13527:13545   */\n      tag_419\n      tag_412\n      jump\t// in\n    tag_419:\n      pop\n        /* \"#utility.yul\":13564:13573   */\n      sub\n      swap1\n        /* \"#utility.yul\":13503:13579   */\n      jump\t// out\n        /* \"#utility.yul\":13584:13842   */\n    tag_381:\n        /* \"#utility.yul\":13656:13657   */\n      0x00\n        /* \"#utility.yul\":13666:13779   */\n    tag_421:\n        /* \"#utility.yul\":13680:13686   */\n      dup4\n        /* \"#utility.yul\":13677:13678   */\n      dup2\n        /* \"#utility.yul\":13674:13687   */\n      lt\n        /* \"#utility.yul\":13666:13779   */\n      iszero\n      tag_423\n      jumpi\n        /* \"#utility.yul\":13756:13767   */\n      dup2\n      dup2\n      add\n        /* \"#utility.yul\":13750:13768   */\n      mload\n        /* \"#utility.yul\":13737:13748   */\n      dup4\n      dup3\n      add\n        /* \"#utility.yul\":13730:13769   */\n      mstore\n        /* \"#utility.yul\":13702:13704   */\n      0x20\n        /* \"#utility.yul\":13695:13705   */\n      add\n        /* \"#utility.yul\":13666:13779   */\n      jump(tag_421)\n    tag_423:\n        /* \"#utility.yul\":13797:13803   */\n      dup4\n        /* \"#utility.yul\":13794:13795   */\n      dup2\n        /* \"#utility.yul\":13791:13804   */\n      gt\n        /* \"#utility.yul\":13788:13790   */\n      iszero\n      tag_190\n      jumpi\n      pop\n      pop\n        /* \"#utility.yul\":13832:13833   */\n      0x00\n        /* \"#utility.yul\":13814:13830   */\n      swap2\n      add\n        /* \"#utility.yul\":13807:13834   */\n      mstore\n        /* \"#utility.yul\":13637:13842   */\n      jump\t// out\n        /* \"#utility.yul\":13847:14227   */\n    tag_104:\n        /* \"#utility.yul\":13932:13933   */\n      0x02\n        /* \"#utility.yul\":13922:13934   */\n      dup2\n      div\n        /* \"#utility.yul\":13979:13980   */\n      0x01\n        /* \"#utility.yul\":13969:13981   */\n      dup3\n      and\n      dup1\n        /* \"#utility.yul\":13990:13992   */\n      tag_426\n      jumpi\n        /* \"#utility.yul\":14044:14048   */\n      0x7f\n        /* \"#utility.yul\":14036:14042   */\n      dup3\n        /* \"#utility.yul\":14032:14049   */\n      and\n        /* \"#utility.yul\":14022:14049   */\n      swap2\n      pop\n        /* \"#utility.yul\":13990:13992   */\n    tag_426:\n        /* \"#utility.yul\":14097:14099   */\n      0x20\n        /* \"#utility.yul\":14089:14095   */\n      dup3\n        /* \"#utility.yul\":14086:14100   */\n      lt\n        /* \"#utility.yul\":14066:14084   */\n      dup2\n        /* \"#utility.yul\":14063:14101   */\n      eq\n        /* \"#utility.yul\":14060:14062   */\n      iszero\n      tag_427\n      jumpi\n        /* \"#utility.yul\":14143:14153   */\n      0x4e487b71\n        /* \"#utility.yul\":14138:14141   */\n      0xe0\n        /* \"#utility.yul\":14134:14154   */\n      shl\n        /* \"#utility.yul\":14131:14132   */\n      0x00\n        /* \"#utility.yul\":14124:14155   */\n      mstore\n        /* \"#utility.yul\":14178:14182   */\n      0x22\n        /* \"#utility.yul\":14175:14176   */\n      0x04\n        /* \"#utility.yul\":14168:14183   */\n      mstore\n        /* \"#utility.yul\":14206:14210   */\n      0x24\n        /* \"#utility.yul\":14203:14204   */\n      0x00\n        /* \"#utility.yul\":14196:14211   */\n      revert\n        /* \"#utility.yul\":14060:14062   */\n    tag_427:\n      pop\n        /* \"#utility.yul\":13902:14227   */\n      swap2\n      swap1\n      pop\n      jump\t// out\n        /* \"#utility.yul\":14232:14367   */\n    tag_156:\n      0x00\n      not(0x00)\n        /* \"#utility.yul\":14292:14309   */\n      dup3\n      eq\n        /* \"#utility.yul\":14289:14291   */\n      iszero\n      tag_430\n      jumpi\n        /* \"#utility.yul\":14312:14330   */\n      tag_430\n      tag_412\n      jump\t// in\n    tag_430:\n      pop\n        /* \"#utility.yul\":14359:14360   */\n      0x01\n        /* \"#utility.yul\":14348:14361   */\n      add\n      swap1\n        /* \"#utility.yul\":14279:14367   */\n      jump\t// out\n        /* \"#utility.yul\":14372:14484   */\n    tag_278:\n      0x00\n        /* \"#utility.yul\":14430:14431   */\n      dup3\n        /* \"#utility.yul\":14420:14422   */\n      tag_433\n      jumpi\n        /* \"#utility.yul\":14435:14453   */\n      tag_433\n      tag_416\n      jump\t// in\n    tag_433:\n      pop\n        /* \"#utility.yul\":14469:14478   */\n      mod\n      swap1\n        /* \"#utility.yul\":14410:14484   */\n      jump\t// out\n        /* \"#utility.yul\":14489:14616   */\n    tag_412:\n        /* \"#utility.yul\":14550:14560   */\n      0x4e487b71\n        /* \"#utility.yul\":14545:14548   */\n      0xe0\n        /* \"#utility.yul\":14541:14561   */\n      shl\n        /* \"#utility.yul\":14538:14539   */\n      0x00\n        /* \"#utility.yul\":14531:14562   */\n      mstore\n        /* \"#utility.yul\":14581:14585   */\n      0x11\n        /* \"#utility.yul\":14578:14579   */\n      0x04\n        /* \"#utility.yul\":14571:14586   */\n      mstore\n        /* \"#utility.yul\":14605:14609   */\n      0x24\n        /* \"#utility.yul\":14602:14603   */\n      0x00\n        /* \"#utility.yul\":14595:14610   */\n      revert\n        /* \"#utility.yul\":14621:14748   */\n    tag_416:\n        /* \"#utility.yul\":14682:14692   */\n      0x4e487b71\n        /* \"#utility.yul\":14677:14680   */\n      0xe0\n        /* \"#utility.yul\":14673:14693   */\n      shl\n        /* \"#utility.yul\":14670:14671   */\n      0x00\n        /* \"#utility.yul\":14663:14694   */\n      mstore\n        /* \"#utility.yul\":14713:14717   */\n      0x12\n        /* \"#utility.yul\":14710:14711   */\n      0x04\n        /* \"#utility.yul\":14703:14718   */\n      mstore\n        /* \"#utility.yul\":14737:14741   */\n      0x24\n        /* \"#utility.yul\":14734:14735   */\n      0x00\n        /* \"#utility.yul\":14727:14742   */\n      revert\n        /* \"#utility.yul\":14753:14880   */\n    tag_349:\n        /* \"#utility.yul\":14814:14824   */\n      0x4e487b71\n        /* \"#utility.yul\":14809:14812   */\n      0xe0\n        /* \"#utility.yul\":14805:14825   */\n      shl\n        /* \"#utility.yul\":14802:14803   */\n      0x00\n        /* \"#utility.yul\":14795:14826   */\n      mstore\n        /* \"#utility.yul\":14845:14849   */\n      0x41\n        /* \"#utility.yul\":14842:14843   */\n      0x04\n        /* \"#utility.yul\":14835:14850   */\n      mstore\n        /* \"#utility.yul\":14869:14873   */\n      0x24\n        /* \"#utility.yul\":14866:14867   */\n      0x00\n        /* \"#utility.yul\":14859:14874   */\n      revert\n        /* \"#utility.yul\":14885:15018   */\n    tag_363:\n      not(sub(shl(0xe0, 0x01), 0x01))\n        /* \"#utility.yul\":14961:14993   */\n      dup2\n      and\n        /* \"#utility.yul\":14951:14994   */\n      dup2\n      eq\n        /* \"#utility.yul\":14941:14943   */\n      tag_215\n      jumpi\n        /* \"#utility.yul\":15008:15009   */\n      0x00\n        /* \"#utility.yul\":15005:15006   */\n      dup1\n        /* \"#utility.yul\":14998:15010   */\n      revert\n\n    auxdata: 0xa2646970667358221220bf6a4e038c958b6da74353aa1fd8fc5aeca629bc8c8d0e6f2c127077fbcdf33664736f6c63430008000033\n}\n",
				"bytecode": {
					"linkReferences": {},
					"object": "608060405260006007553480156200001657600080fd5b5060405162001c0c38038062001c0c833981016040819052620000399162000234565b81518290829062000052906000906020850190620000e3565b50805162000068906001906020840190620000e3565b505050620000856200007f6200008d60201b60201c565b62000091565b5050620002ee565b3390565b600680546001600160a01b038381166001600160a01b0319831681179093556040519116919082907f8be0079c531659141344cd1fd0a4f28419497f9722a3daafe3b4186f6b6457e090600090a35050565b828054620000f1906200029b565b90600052602060002090601f01602090048101928262000115576000855562000160565b82601f106200013057805160ff191683800117855562000160565b8280016001018555821562000160579182015b828111156200016057825182559160200191906001019062000143565b506200016e92915062000172565b5090565b5b808211156200016e576000815560010162000173565b600082601f8301126200019a578081fd5b81516001600160401b0380821115620001b757620001b7620002d8565b6040516020601f8401601f1916820181018381118382101715620001df57620001df620002d8565b6040528382528584018101871015620001f6578485fd5b8492505b83831015620002195785830181015182840182015291820191620001fa565b838311156200022a57848185840101525b5095945050505050565b6000806040838503121562000247578182fd5b82516001600160401b03808211156200025e578384fd5b6200026c8683870162000189565b9350602085015191508082111562000282578283fd5b50620002918582860162000189565b9150509250929050565b600281046001821680620002b057607f821691505b60208210811415620002d257634e487b7160e01b600052602260045260246000fd5b50919050565b634e487b7160e01b600052604160045260246000fd5b61190e80620002fe6000396000f3fe608060405234801561001057600080fd5b50600436106101165760003560e01c806370a08231116100a2578063a22cb46511610071578063a22cb46514610225578063b88d4fde14610238578063c87b56dd1461024b578063e985e9c51461025e578063f2fde38b1461027157610116565b806370a08231146101ed578063715018a61461020d5780638da5cb5b1461021557806395d89b411461021d57610116565b806323b872dd116100e957806323b872dd1461018e57806327057331146101a157806329a0eee8146101b457806342842e0e146101c75780636352211e146101da57610116565b806301ffc9a71461011b57806306fdde0314610144578063081812fc14610159578063095ea7b314610179575b600080fd5b61012e610129366004611176565b610284565b60405161013b91906112e7565b60405180910390f35b61014c6102cc565b60405161013b91906112f2565b61016c6101673660046111ae565b61035e565b60405161013b9190611296565b61018c61018736600461114d565b6103aa565b005b61018c61019c36600461100c565b610442565b61018c6101af3660046111c6565b61047a565b61018c6101c2366004611212565b61051f565b61018c6101d536600461100c565b6105ef565b61016c6101e83660046111ae565b61060a565b6102006101fb366004610fc0565b61063f565b60405161013b919061179e565b61018c610683565b61016c6106ce565b61014c6106dd565b61018c610233366004611113565b6106ec565b61018c610246366004611047565b610702565b61014c6102593660046111ae565b610741565b61012e61026c366004610fda565b6107c4565b61018c61027f366004610fc0565b6107f2565b60006001600160e01b031982166380ac58cd60e01b14806102b557506001600160e01b03198216635b5e139f60e01b145b806102c457506102c482610863565b90505b919050565b6060600080546102db90611816565b80601f016020809104026020016040519081016040528092919081815260200182805461030790611816565b80156103545780601f1061032957610100808354040283529160200191610354565b820191906000526020600020905b81548152906001019060200180831161033757829003601f168201915b5050505050905090565b60006103698261087c565b61038e5760405162461bcd60e51b815260040161038590611605565b60405180910390fd5b506000908152600460205260409020546001600160a01b031690565b60006103b58261060a565b9050806001600160a01b0316836001600160a01b031614156103e95760405162461bcd60e51b81526004016103859061170c565b806001600160a01b03166103fb610899565b6001600160a01b0316148061041757506104178161026c610899565b6104335760405162461bcd60e51b8152600401610385906114e0565b61043d838361089d565b505050565b61045361044d610899565b8261090b565b61046f5760405162461bcd60e51b81526004016103859061174d565b61043d838383610990565b6000848152600960205260409020546001600160a01b0316806104af5760405162461bcd60e51b815260040161038590611587565b336001600160a01b038216146104d75760405162461bcd60e51b815260040161038590611686565b50600093845260086020526040909320805460ff948516620100000262ff0000199386166101000261ff00199590961660ff1990921691909117939093169390931716179055565b610527610899565b6001600160a01b03166105386106ce565b6001600160a01b03161461055e5760405162461bcd60e51b815260040161038590611651565b61056a33600754610ac3565b6040805160608101825260ff808516825283811660208084019182526001848601908152600780546000908152600890935295822094518554935191518516620100000262ff0000199286166101000261ff00199290961660ff199095169490941716939093179290921617909155815491906105e683611851565b91905055505050565b61043d83838360405180602001604052806000815250610702565b6000818152600260205260408120546001600160a01b0316806102c45760405162461bcd60e51b815260040161038590611587565b60006001600160a01b0382166106675760405162461bcd60e51b81526004016103859061153d565b506001600160a01b031660009081526003602052604090205490565b61068b610899565b6001600160a01b031661069c6106ce565b6001600160a01b0316146106c25760405162461bcd60e51b815260040161038590611651565b6106cc6000610add565b565b6006546001600160a01b031690565b6060600180546102db90611816565b6106fe6106f7610899565b8383610b2f565b5050565b61071361070d610899565b8361090b565b61072f5760405162461bcd60e51b81526004016103859061174d565b61073b84848484610bd2565b50505050565b606061074c8261087c565b6107685760405162461bcd60e51b8152600401610385906116bd565b6000610772610c05565b9050600081511161079257604051806020016040528060008152506107bd565b8061079c84610c17565b6040516020016107ad929190611267565b6040516020818303038152906040525b9392505050565b6001600160a01b03918216600090815260056020908152604080832093909416825291909152205460ff1690565b6107fa610899565b6001600160a01b031661080b6106ce565b6001600160a01b0316146108315760405162461bcd60e51b815260040161038590611651565b6001600160a01b0381166108575760405162461bcd60e51b815260040161038590611357565b61086081610add565b50565b6001600160e01b031981166301ffc9a760e01b14919050565b6000908152600260205260409020546001600160a01b0316151590565b3390565b600081815260046020526040902080546001600160a01b0319166001600160a01b03841690811790915581906108d28261060a565b6001600160a01b03167f8c5be1e5ebec7d5bd14f71427d1e84f3dd0314c0f7b2291e5b200ac8c7c3b92560405160405180910390a45050565b60006109168261087c565b6109325760405162461bcd60e51b815260040161038590611494565b600061093d8361060a565b9050806001600160a01b0316846001600160a01b031614806109785750836001600160a01b031661096d8461035e565b6001600160a01b0316145b80610988575061098881856107c4565b949350505050565b826001600160a01b03166109a38261060a565b6001600160a01b0316146109c95760405162461bcd60e51b81526004016103859061139d565b6001600160a01b0382166109ef5760405162461bcd60e51b815260040161038590611419565b6109fa83838361043d565b610a0560008261089d565b6001600160a01b0383166000908152600360205260408120805460019290610a2e9084906117d3565b90915550506001600160a01b0382166000908152600360205260408120805460019290610a5c9084906117a7565b909155505060008181526002602052604080822080546001600160a01b0319166001600160a01b0386811691821790925591518493918716917fddf252ad1be2c89b69c2b068fc378daa952ba7f163c4a11628f55a4df523b3ef91a461043d83838361043d565b6106fe828260405180602001604052806000815250610d32565b600680546001600160a01b038381166001600160a01b0319831681179093556040519116919082907f8be0079c531659141344cd1fd0a4f28419497f9722a3daafe3b4186f6b6457e090600090a35050565b816001600160a01b0316836001600160a01b03161415610b615760405162461bcd60e51b81526004016103859061145d565b6001600160a01b0383811660008181526005602090815260408083209487168084529490915290819020805460ff1916851515179055517f17307eab39ab6107e8899845ad3d59bd9653f200f220920489ca2b5937696c3190610bc59085906112e7565b60405180910390a3505050565b610bdd848484610990565b610be984848484610d65565b61073b5760405162461bcd60e51b815260040161038590611305565b60408051602081019091526000815290565b606081610c3c57506040805180820190915260018152600360fc1b60208201526102c7565b8160005b8115610c665780610c5081611851565b9150610c5f9050600a836117bf565b9150610c40565b60008167ffffffffffffffff811115610c8f57634e487b7160e01b600052604160045260246000fd5b6040519080825280601f01601f191660200182016040528015610cb9576020820181803683370190505b5090505b841561098857610cce6001836117d3565b9150610cdb600a8661186c565b610ce69060306117a7565b60f81b818381518110610d0957634e487b7160e01b600052603260045260246000fd5b60200101906001600160f81b031916908160001a905350610d2b600a866117bf565b9450610cbd565b610d3c8383610e80565b610d496000848484610d65565b61043d5760405162461bcd60e51b815260040161038590611305565b6000610d79846001600160a01b0316610f67565b15610e7557836001600160a01b031663150b7a02610d95610899565b8786866040518563ffffffff1660e01b8152600401610db794939291906112aa565b602060405180830381600087803b158015610dd157600080fd5b505af1925050508015610e01575060408051601f3d908101601f19168201909252610dfe91810190611192565b60015b610e5b573d808015610e2f576040519150601f19603f3d011682016040523d82523d6000602084013e610e34565b606091505b508051610e535760405162461bcd60e51b815260040161038590611305565b805181602001fd5b6001600160e01b031916630a85bd0160e11b149050610988565b506001949350505050565b6001600160a01b038216610ea65760405162461bcd60e51b8152600401610385906115d0565b610eaf8161087c565b15610ecc5760405162461bcd60e51b8152600401610385906113e2565b610ed86000838361043d565b6001600160a01b0382166000908152600360205260408120805460019290610f019084906117a7565b909155505060008181526002602052604080822080546001600160a01b0319166001600160a01b03861690811790915590518392907fddf252ad1be2c89b69c2b068fc378daa952ba7f163c4a11628f55a4df523b3ef908290a46106fe6000838361043d565b600080826001600160a01b0316803b806020016040519081016040528181526000908060200190933c511192915050565b80356001600160a01b03811681146102c757600080fd5b803560ff811681146102c757600080fd5b600060208284031215610fd1578081fd5b6107bd82610f98565b60008060408385031215610fec578081fd5b610ff583610f98565b915061100360208401610f98565b90509250929050565b600080600060608486031215611020578081fd5b61102984610f98565b925061103760208501610f98565b9150604084013590509250925092565b6000806000806080858703121561105c578081fd5b61106585610f98565b93506020611074818701610f98565b935060408601359250606086013567ffffffffffffffff80821115611097578384fd5b818801915088601f8301126110aa578384fd5b8135818111156110bc576110bc6118ac565b604051601f8201601f19168101850183811182821017156110df576110df6118ac565b60405281815283820185018b10156110f5578586fd5b81858501868301379081019093019390935250939692955090935050565b60008060408385031215611125578182fd5b61112e83610f98565b915060208301358015158114611142578182fd5b809150509250929050565b6000806040838503121561115f578182fd5b61116883610f98565b946020939093013593505050565b600060208284031215611187578081fd5b81356107bd816118c2565b6000602082840312156111a3578081fd5b81516107bd816118c2565b6000602082840312156111bf578081fd5b5035919050565b600080600080608085870312156111db578384fd5b843593506111eb60208601610faf565b92506111f960408601610faf565b915061120760608601610faf565b905092959194509250565b60008060408385031215611224578182fd5b61122d83610faf565b915061100360208401610faf565b600081518084526112538160208601602086016117ea565b601f01601f19169290920160200192915050565b600083516112798184602088016117ea565b83519083019061128d8183602088016117ea565b01949350505050565b6001600160a01b0391909116815260200190565b6001600160a01b03858116825284166020820152604081018390526080606082018190526000906112dd9083018461123b565b9695505050505050565b901515815260200190565b6000602082526107bd602083018461123b565b60208082526032908201527f4552433732313a207472616e7366657220746f206e6f6e20455243373231526560408201527131b2b4bb32b91034b6b83632b6b2b73a32b960711b606082015260800190565b60208082526026908201527f4f776e61626c653a206e6577206f776e657220697320746865207a65726f206160408201526564647265737360d01b606082015260800190565b60208082526025908201527f4552433732313a207472616e736665722066726f6d20696e636f72726563742060408201526437bbb732b960d91b606082015260800190565b6020808252601c908201527f4552433732313a20746f6b656e20616c7265616479206d696e74656400000000604082015260600190565b60208082526024908201527f4552433732313a207472616e7366657220746f20746865207a65726f206164646040820152637265737360e01b606082015260800190565b60208082526019908201527f4552433732313a20617070726f766520746f2063616c6c657200000000000000604082015260600190565b6020808252602c908201527f4552433732313a206f70657261746f7220717565727920666f72206e6f6e657860408201526b34b9ba32b73a103a37b5b2b760a11b606082015260800190565b60208082526038908201527f4552433732313a20617070726f76652063616c6c6572206973206e6f74206f7760408201527f6e6572206e6f7220617070726f76656420666f7220616c6c0000000000000000606082015260800190565b6020808252602a908201527f4552433732313a2062616c616e636520717565727920666f7220746865207a65604082015269726f206164647265737360b01b606082015260800190565b60208082526029908201527f4552433732313a206f776e657220717565727920666f72206e6f6e657869737460408201526832b73a103a37b5b2b760b91b606082015260800190565b6020808252818101527f4552433732313a206d696e7420746f20746865207a65726f2061646472657373604082015260600190565b6020808252602c908201527f4552433732313a20617070726f76656420717565727920666f72206e6f6e657860408201526b34b9ba32b73a103a37b5b2b760a11b606082015260800190565b6020808252818101527f4f776e61626c653a2063616c6c6572206973206e6f7420746865206f776e6572604082015260600190565b6020808252601b908201527f4552433732313a206e6f7420746865206f776e657220746f6b656e0000000000604082015260600190565b6020808252602f908201527f4552433732314d657461646174613a2055524920717565727920666f72206e6f60408201526e3732bc34b9ba32b73a103a37b5b2b760891b606082015260800190565b60208082526021908201527f4552433732313a20617070726f76616c20746f2063757272656e74206f776e656040820152603960f91b606082015260800190565b60208082526031908201527f4552433732313a207472616e736665722063616c6c6572206973206e6f74206f6040820152701ddb995c881b9bdc88185c1c1c9bdd9959607a1b606082015260800190565b90815260200190565b600082198211156117ba576117ba611880565b500190565b6000826117ce576117ce611896565b500490565b6000828210156117e5576117e5611880565b500390565b60005b838110156118055781810151838201526020016117ed565b8381111561073b5750506000910152565b60028104600182168061182a57607f821691505b6020821081141561184b57634e487b7160e01b600052602260045260246000fd5b50919050565b600060001982141561186557611865611880565b5060010190565b60008261187b5761187b611896565b500690565b634e487b7160e01b600052601160045260246000fd5b634e487b7160e01b600052601260045260246000fd5b634e487b7160e01b600052604160045260246000fd5b6001600160e01b03198116811461086057600080fdfea2646970667358221220bf6a4e038c958b6da74353aa1fd8fc5aeca629bc8c8d0e6f2c127077fbcdf33664736f6c63430008000033",
					"opcodes": "PUSH1 0x80 PUSH1 0x40 MSTORE PUSH1 0x0 PUSH1 0x7 SSTORE CALLVALUE DUP1 ISZERO PUSH3 0x16 JUMPI PUSH1 0x0 DUP1 REVERT JUMPDEST POP PUSH1 0x40 MLOAD PUSH3 0x1C0C CODESIZE SUB DUP1 PUSH3 0x1C0C DUP4 CODECOPY DUP2 ADD PUSH1 0x40 DUP2 SWAP1 MSTORE PUSH3 0x39 SWAP2 PUSH3 0x234 JUMP JUMPDEST DUP2 MLOAD DUP3 SWAP1 DUP3 SWAP1 PUSH3 0x52 SWAP1 PUSH1 0x0 SWAP1 PUSH1 0x20 DUP6 ADD SWAP1 PUSH3 0xE3 JUMP JUMPDEST POP DUP1 MLOAD PUSH3 0x68 SWAP1 PUSH1 0x1 SWAP1 PUSH1 0x20 DUP5 ADD SWAP1 PUSH3 0xE3 JUMP JUMPDEST POP POP POP PUSH3 0x85 PUSH3 0x7F PUSH3 0x8D PUSH1 0x20 SHL PUSH1 0x20 SHR JUMP JUMPDEST PUSH3 0x91 JUMP JUMPDEST POP POP PUSH3 0x2EE JUMP JUMPDEST CALLER SWAP1 JUMP JUMPDEST PUSH1 0x6 DUP1 SLOAD PUSH1 0x1 PUSH1 0x1 PUSH1 0xA0 SHL SUB DUP4 DUP2 AND PUSH1 0x1 PUSH1 0x1 PUSH1 0xA0 SHL SUB NOT DUP4 AND DUP2 OR SWAP1 SWAP4 SSTORE PUSH1 0x40 MLOAD SWAP2 AND SWAP2 SWAP1 DUP3 SWAP1 PUSH32 0x8BE0079C531659141344CD1FD0A4F28419497F9722A3DAAFE3B4186F6B6457E0 SWAP1 PUSH1 0x0 SWAP1 LOG3 POP POP JUMP JUMPDEST DUP3 DUP1 SLOAD PUSH3 0xF1 SWAP1 PUSH3 0x29B JUMP JUMPDEST SWAP1 PUSH1 0x0 MSTORE PUSH1 0x20 PUSH1 0x0 KECCAK256 SWAP1 PUSH1 0x1F ADD PUSH1 0x20 SWAP1 DIV DUP2 ADD SWAP3 DUP3 PUSH3 0x115 JUMPI PUSH1 0x0 DUP6 SSTORE PUSH3 0x160 JUMP JUMPDEST DUP3 PUSH1 0x1F LT PUSH3 0x130 JUMPI DUP1 MLOAD PUSH1 0xFF NOT AND DUP4 DUP1 ADD OR DUP6 SSTORE PUSH3 0x160 JUMP JUMPDEST DUP3 DUP1 ADD PUSH1 0x1 ADD DUP6 SSTORE DUP3 ISZERO PUSH3 0x160 JUMPI SWAP2 DUP3 ADD JUMPDEST DUP3 DUP2 GT ISZERO PUSH3 0x160 JUMPI DUP3 MLOAD DUP3 SSTORE SWAP2 PUSH1 0x20 ADD SWAP2 SWAP1 PUSH1 0x1 ADD SWAP1 PUSH3 0x143 JUMP JUMPDEST POP PUSH3 0x16E SWAP3 SWAP2 POP PUSH3 0x172 JUMP JUMPDEST POP SWAP1 JUMP JUMPDEST JUMPDEST DUP1 DUP3 GT ISZERO PUSH3 0x16E JUMPI PUSH1 0x0 DUP2 SSTORE PUSH1 0x1 ADD PUSH3 0x173 JUMP JUMPDEST PUSH1 0x0 DUP3 PUSH1 0x1F DUP4 ADD SLT PUSH3 0x19A JUMPI DUP1 DUP2 REVERT JUMPDEST DUP2 MLOAD PUSH1 0x1 PUSH1 0x1 PUSH1 0x40 SHL SUB DUP1 DUP3 GT ISZERO PUSH3 0x1B7 JUMPI PUSH3 0x1B7 PUSH3 0x2D8 JUMP JUMPDEST PUSH1 0x40 MLOAD PUSH1 0x20 PUSH1 0x1F DUP5 ADD PUSH1 0x1F NOT AND DUP3 ADD DUP2 ADD DUP4 DUP2 GT DUP4 DUP3 LT OR ISZERO PUSH3 0x1DF JUMPI PUSH3 0x1DF PUSH3 0x2D8 JUMP JUMPDEST PUSH1 0x40 MSTORE DUP4 DUP3 MSTORE DUP6 DUP5 ADD DUP2 ADD DUP8 LT ISZERO PUSH3 0x1F6 JUMPI DUP5 DUP6 REVERT JUMPDEST DUP5 SWAP3 POP JUMPDEST DUP4 DUP4 LT ISZERO PUSH3 0x219 JUMPI DUP6 DUP4 ADD DUP2 ADD MLOAD DUP3 DUP5 ADD DUP3 ADD MSTORE SWAP2 DUP3 ADD SWAP2 PUSH3 0x1FA JUMP JUMPDEST DUP4 DUP4 GT ISZERO PUSH3 0x22A JUMPI DUP5 DUP2 DUP6 DUP5 ADD ADD MSTORE JUMPDEST POP SWAP6 SWAP5 POP POP POP POP POP JUMP JUMPDEST PUSH1 0x0 DUP1 PUSH1 0x40 DUP4 DUP6 SUB SLT ISZERO PUSH3 0x247 JUMPI DUP2 DUP3 REVERT JUMPDEST DUP3 MLOAD PUSH1 0x1 PUSH1 0x1 PUSH1 0x40 SHL SUB DUP1 DUP3 GT ISZERO PUSH3 0x25E JUMPI DUP4 DUP5 REVERT JUMPDEST PUSH3 0x26C DUP7 DUP4 DUP8 ADD PUSH3 0x189 JUMP JUMPDEST SWAP4 POP PUSH1 0x20 DUP6 ADD MLOAD SWAP2 POP DUP1 DUP3 GT ISZERO PUSH3 0x282 JUMPI DUP3 DUP4 REVERT JUMPDEST POP PUSH3 0x291 DUP6 DUP3 DUP7 ADD PUSH3 0x189 JUMP JUMPDEST SWAP2 POP POP SWAP3 POP SWAP3 SWAP1 POP JUMP JUMPDEST PUSH1 0x2 DUP2 DIV PUSH1 0x1 DUP3 AND DUP1 PUSH3 0x2B0 JUMPI PUSH1 0x7F DUP3 AND SWAP2 POP JUMPDEST PUSH1 0x20 DUP3 LT DUP2 EQ ISZERO PUSH3 0x2D2 JUMPI PUSH4 0x4E487B71 PUSH1 0xE0 SHL PUSH1 0x0 MSTORE PUSH1 0x22 PUSH1 0x4 MSTORE PUSH1 0x24 PUSH1 0x0 REVERT JUMPDEST POP SWAP2 SWAP1 POP JUMP JUMPDEST PUSH4 0x4E487B71 PUSH1 0xE0 SHL PUSH1 0x0 MSTORE PUSH1 0x41 PUSH1 0x4 MSTORE PUSH1 0x24 PUSH1 0x0 REVERT JUMPDEST PUSH2 0x190E DUP1 PUSH3 0x2FE PUSH1 0x0 CODECOPY PUSH1 0x0 RETURN INVALID PUSH1 0x80 PUSH1 0x40 MSTORE CALLVALUE DUP1 ISZERO PUSH2 0x10 JUMPI PUSH1 0x0 DUP1 REVERT JUMPDEST POP PUSH1 0x4 CALLDATASIZE LT PUSH2 0x116 JUMPI PUSH1 0x0 CALLDATALOAD PUSH1 0xE0 SHR DUP1 PUSH4 0x70A08231 GT PUSH2 0xA2 JUMPI DUP1 PUSH4 0xA22CB465 GT PUSH2 0x71 JUMPI DUP1 PUSH4 0xA22CB465 EQ PUSH2 0x225 JUMPI DUP1 PUSH4 0xB88D4FDE EQ PUSH2 0x238 JUMPI DUP1 PUSH4 0xC87B56DD EQ PUSH2 0x24B JUMPI DUP1 PUSH4 0xE985E9C5 EQ PUSH2 0x25E JUMPI DUP1 PUSH4 0xF2FDE38B EQ PUSH2 0x271 JUMPI PUSH2 0x116 JUMP JUMPDEST DUP1 PUSH4 0x70A08231 EQ PUSH2 0x1ED JUMPI DUP1 PUSH4 0x715018A6 EQ PUSH2 0x20D JUMPI DUP1 PUSH4 0x8DA5CB5B EQ PUSH2 0x215 JUMPI DUP1 PUSH4 0x95D89B41 EQ PUSH2 0x21D JUMPI PUSH2 0x116 JUMP JUMPDEST DUP1 PUSH4 0x23B872DD GT PUSH2 0xE9 JUMPI DUP1 PUSH4 0x23B872DD EQ PUSH2 0x18E JUMPI DUP1 PUSH4 0x27057331 EQ PUSH2 0x1A1 JUMPI DUP1 PUSH4 0x29A0EEE8 EQ PUSH2 0x1B4 JUMPI DUP1 PUSH4 0x42842E0E EQ PUSH2 0x1C7 JUMPI DUP1 PUSH4 0x6352211E EQ PUSH2 0x1DA JUMPI PUSH2 0x116 JUMP JUMPDEST DUP1 PUSH4 0x1FFC9A7 EQ PUSH2 0x11B JUMPI DUP1 PUSH4 0x6FDDE03 EQ PUSH2 0x144 JUMPI DUP1 PUSH4 0x81812FC EQ PUSH2 0x159 JUMPI DUP1 PUSH4 0x95EA7B3 EQ PUSH2 0x179 JUMPI JUMPDEST PUSH1 0x0 DUP1 REVERT JUMPDEST PUSH2 0x12E PUSH2 0x129 CALLDATASIZE PUSH1 0x4 PUSH2 0x1176 JUMP JUMPDEST PUSH2 0x284 JUMP JUMPDEST PUSH1 0x40 MLOAD PUSH2 0x13B SWAP2 SWAP1 PUSH2 0x12E7 JUMP JUMPDEST PUSH1 0x40 MLOAD DUP1 SWAP2 SUB SWAP1 RETURN JUMPDEST PUSH2 0x14C PUSH2 0x2CC JUMP JUMPDEST PUSH1 0x40 MLOAD PUSH2 0x13B SWAP2 SWAP1 PUSH2 0x12F2 JUMP JUMPDEST PUSH2 0x16C PUSH2 0x167 CALLDATASIZE PUSH1 0x4 PUSH2 0x11AE JUMP JUMPDEST PUSH2 0x35E JUMP JUMPDEST PUSH1 0x40 MLOAD PUSH2 0x13B SWAP2 SWAP1 PUSH2 0x1296 JUMP JUMPDEST PUSH2 0x18C PUSH2 0x187 CALLDATASIZE PUSH1 0x4 PUSH2 0x114D JUMP JUMPDEST PUSH2 0x3AA JUMP JUMPDEST STOP JUMPDEST PUSH2 0x18C PUSH2 0x19C CALLDATASIZE PUSH1 0x4 PUSH2 0x100C JUMP JUMPDEST PUSH2 0x442 JUMP JUMPDEST PUSH2 0x18C PUSH2 0x1AF CALLDATASIZE PUSH1 0x4 PUSH2 0x11C6 JUMP JUMPDEST PUSH2 0x47A JUMP JUMPDEST PUSH2 0x18C PUSH2 0x1C2 CALLDATASIZE PUSH1 0x4 PUSH2 0x1212 JUMP JUMPDEST PUSH2 0x51F JUMP JUMPDEST PUSH2 0x18C PUSH2 0x1D5 CALLDATASIZE PUSH1 0x4 PUSH2 0x100C JUMP JUMPDEST PUSH2 0x5EF JUMP JUMPDEST PUSH2 0x16C PUSH2 0x1E8 CALLDATASIZE PUSH1 0x4 PUSH2 0x11AE JUMP JUMPDEST PUSH2 0x60A JUMP JUMPDEST PUSH2 0x200 PUSH2 0x1FB CALLDATASIZE PUSH1 0x4 PUSH2 0xFC0 JUMP JUMPDEST PUSH2 0x63F JUMP JUMPDEST PUSH1 0x40 MLOAD PUSH2 0x13B SWAP2 SWAP1 PUSH2 0x179E JUMP JUMPDEST PUSH2 0x18C PUSH2 0x683 JUMP JUMPDEST PUSH2 0x16C PUSH2 0x6CE JUMP JUMPDEST PUSH2 0x14C PUSH2 0x6DD JUMP JUMPDEST PUSH2 0x18C PUSH2 0x233 CALLDATASIZE PUSH1 0x4 PUSH2 0x1113 JUMP JUMPDEST PUSH2 0x6EC JUMP JUMPDEST PUSH2 0x18C PUSH2 0x246 CALLDATASIZE PUSH1 0x4 PUSH2 0x1047 JUMP JUMPDEST PUSH2 0x702 JUMP JUMPDEST PUSH2 0x14C PUSH2 0x259 CALLDATASIZE PUSH1 0x4 PUSH2 0x11AE JUMP JUMPDEST PUSH2 0x741 JUMP JUMPDEST PUSH2 0x12E PUSH2 0x26C CALLDATASIZE PUSH1 0x4 PUSH2 0xFDA JUMP JUMPDEST PUSH2 0x7C4 JUMP JUMPDEST PUSH2 0x18C PUSH2 0x27F CALLDATASIZE PUSH1 0x4 PUSH2 0xFC0 JUMP JUMPDEST PUSH2 0x7F2 JUMP JUMPDEST PUSH1 0x0 PUSH1 0x1 PUSH1 0x1 PUSH1 0xE0 SHL SUB NOT DUP3 AND PUSH4 0x80AC58CD PUSH1 0xE0 SHL EQ DUP1 PUSH2 0x2B5 JUMPI POP PUSH1 0x1 PUSH1 0x1 PUSH1 0xE0 SHL SUB NOT DUP3 AND PUSH4 0x5B5E139F PUSH1 0xE0 SHL EQ JUMPDEST DUP1 PUSH2 0x2C4 JUMPI POP PUSH2 0x2C4 DUP3 PUSH2 0x863 JUMP JUMPDEST SWAP1 POP JUMPDEST SWAP2 SWAP1 POP JUMP JUMPDEST PUSH1 0x60 PUSH1 0x0 DUP1 SLOAD PUSH2 0x2DB SWAP1 PUSH2 0x1816 JUMP JUMPDEST DUP1 PUSH1 0x1F ADD PUSH1 0x20 DUP1 SWAP2 DIV MUL PUSH1 0x20 ADD PUSH1 0x40 MLOAD SWAP1 DUP2 ADD PUSH1 0x40 MSTORE DUP1 SWAP3 SWAP2 SWAP1 DUP2 DUP2 MSTORE PUSH1 0x20 ADD DUP3 DUP1 SLOAD PUSH2 0x307 SWAP1 PUSH2 0x1816 JUMP JUMPDEST DUP1 ISZERO PUSH2 0x354 JUMPI DUP1 PUSH1 0x1F LT PUSH2 0x329 JUMPI PUSH2 0x100 DUP1 DUP4 SLOAD DIV MUL DUP4 MSTORE SWAP2 PUSH1 0x20 ADD SWAP2 PUSH2 0x354 JUMP JUMPDEST DUP3 ADD SWAP2 SWAP1 PUSH1 0x0 MSTORE PUSH1 0x20 PUSH1 0x0 KECCAK256 SWAP1 JUMPDEST DUP2 SLOAD DUP2 MSTORE SWAP1 PUSH1 0x1 ADD SWAP1 PUSH1 0x20 ADD DUP1 DUP4 GT PUSH2 0x337 JUMPI DUP3 SWAP1 SUB PUSH1 0x1F AND DUP3 ADD SWAP2 JUMPDEST POP POP POP POP POP SWAP1 POP SWAP1 JUMP JUMPDEST PUSH1 0x0 PUSH2 0x369 DUP3 PUSH2 0x87C JUMP JUMPDEST PUSH2 0x38E JUMPI PUSH1 0x40 MLOAD PUSH3 0x461BCD PUSH1 0xE5 SHL DUP2 MSTORE PUSH1 0x4 ADD PUSH2 0x385 SWAP1 PUSH2 0x1605 JUMP JUMPDEST PUSH1 0x40 MLOAD DUP1 SWAP2 SUB SWAP1 REVERT JUMPDEST POP PUSH1 0x0 SWAP1 DUP2 MSTORE PUSH1 0x4 PUSH1 0x20 MSTORE PUSH1 0x40 SWAP1 KECCAK256 SLOAD PUSH1 0x1 PUSH1 0x1 PUSH1 0xA0 SHL SUB AND SWAP1 JUMP JUMPDEST PUSH1 0x0 PUSH2 0x3B5 DUP3 PUSH2 0x60A JUMP JUMPDEST SWAP1 POP DUP1 PUSH1 0x1 PUSH1 0x1 PUSH1 0xA0 SHL SUB AND DUP4 PUSH1 0x1 PUSH1 0x1 PUSH1 0xA0 SHL SUB AND EQ ISZERO PUSH2 0x3E9 JUMPI PUSH1 0x40 MLOAD PUSH3 0x461BCD PUSH1 0xE5 SHL DUP2 MSTORE PUSH1 0x4 ADD PUSH2 0x385 SWAP1 PUSH2 0x170C JUMP JUMPDEST DUP1 PUSH1 0x1 PUSH1 0x1 PUSH1 0xA0 SHL SUB AND PUSH2 0x3FB PUSH2 0x899 JUMP JUMPDEST PUSH1 0x1 PUSH1 0x1 PUSH1 0xA0 SHL SUB AND EQ DUP1 PUSH2 0x417 JUMPI POP PUSH2 0x417 DUP2 PUSH2 0x26C PUSH2 0x899 JUMP JUMPDEST PUSH2 0x433 JUMPI PUSH1 0x40 MLOAD PUSH3 0x461BCD PUSH1 0xE5 SHL DUP2 MSTORE PUSH1 0x4 ADD PUSH2 0x385 SWAP1 PUSH2 0x14E0 JUMP JUMPDEST PUSH2 0x43D DUP4 DUP4 PUSH2 0x89D JUMP JUMPDEST POP POP POP JUMP JUMPDEST PUSH2 0x453 PUSH2 0x44D PUSH2 0x899 JUMP JUMPDEST DUP3 PUSH2 0x90B JUMP JUMPDEST PUSH2 0x46F JUMPI PUSH1 0x40 MLOAD PUSH3 0x461BCD PUSH1 0xE5 SHL DUP2 MSTORE PUSH1 0x4 ADD PUSH2 0x385 SWAP1 PUSH2 0x174D JUMP JUMPDEST PUSH2 0x43D DUP4 DUP4 DUP4 PUSH2 0x990 JUMP JUMPDEST PUSH1 0x0 DUP5 DUP2 MSTORE PUSH1 0x9 PUSH1 0x20 MSTORE PUSH1 0x40 SWAP1 KECCAK256 SLOAD PUSH1 0x1 PUSH1 0x1 PUSH1 0xA0 SHL SUB AND DUP1 PUSH2 0x4AF JUMPI PUSH1 0x40 MLOAD PUSH3 0x461BCD PUSH1 0xE5 SHL DUP2 MSTORE PUSH1 0x4 ADD PUSH2 0x385 SWAP1 PUSH2 0x1587 JUMP JUMPDEST CALLER PUSH1 0x1 PUSH1 0x1 PUSH1 0xA0 SHL SUB DUP3 AND EQ PUSH2 0x4D7 JUMPI PUSH1 0x40 MLOAD PUSH3 0x461BCD PUSH1 0xE5 SHL DUP2 MSTORE PUSH1 0x4 ADD PUSH2 0x385 SWAP1 PUSH2 0x1686 JUMP JUMPDEST POP PUSH1 0x0 SWAP4 DUP5 MSTORE PUSH1 0x8 PUSH1 0x20 MSTORE PUSH1 0x40 SWAP1 SWAP4 KECCAK256 DUP1 SLOAD PUSH1 0xFF SWAP5 DUP6 AND PUSH3 0x10000 MUL PUSH3 0xFF0000 NOT SWAP4 DUP7 AND PUSH2 0x100 MUL PUSH2 0xFF00 NOT SWAP6 SWAP1 SWAP7 AND PUSH1 0xFF NOT SWAP1 SWAP3 AND SWAP2 SWAP1 SWAP2 OR SWAP4 SWAP1 SWAP4 AND SWAP4 SWAP1 SWAP4 OR AND OR SWAP1 SSTORE JUMP JUMPDEST PUSH2 0x527 PUSH2 0x899 JUMP JUMPDEST PUSH1 0x1 PUSH1 0x1 PUSH1 0xA0 SHL SUB AND PUSH2 0x538 PUSH2 0x6CE JUMP JUMPDEST PUSH1 0x1 PUSH1 0x1 PUSH1 0xA0 SHL SUB AND EQ PUSH2 0x55E JUMPI PUSH1 0x40 MLOAD PUSH3 0x461BCD PUSH1 0xE5 SHL DUP2 MSTORE PUSH1 0x4 ADD PUSH2 0x385 SWAP1 PUSH2 0x1651 JUMP JUMPDEST PUSH2 0x56A CALLER PUSH1 0x7 SLOAD PUSH2 0xAC3 JUMP JUMPDEST PUSH1 0x40 DUP1 MLOAD PUSH1 0x60 DUP2 ADD DUP3 MSTORE PUSH1 0xFF DUP1 DUP6 AND DUP3 MSTORE DUP4 DUP2 AND PUSH1 0x20 DUP1 DUP5 ADD SWAP2 DUP3 MSTORE PUSH1 0x1 DUP5 DUP7 ADD SWAP1 DUP2 MSTORE PUSH1 0x7 DUP1 SLOAD PUSH1 0x0 SWAP1 DUP2 MSTORE PUSH1 0x8 SWAP1 SWAP4 MSTORE SWAP6 DUP3 KECCAK256 SWAP5 MLOAD DUP6 SLOAD SWAP4 MLOAD SWAP2 MLOAD DUP6 AND PUSH3 0x10000 MUL PUSH3 0xFF0000 NOT SWAP3 DUP7 AND PUSH2 0x100 MUL PUSH2 0xFF00 NOT SWAP3 SWAP1 SWAP7 AND PUSH1 0xFF NOT SWAP1 SWAP6 AND SWAP5 SWAP1 SWAP5 OR AND SWAP4 SWAP1 SWAP4 OR SWAP3 SWAP1 SWAP3 AND OR SWAP1 SWAP2 SSTORE DUP2 SLOAD SWAP2 SWAP1 PUSH2 0x5E6 DUP4 PUSH2 0x1851 JUMP JUMPDEST SWAP2 SWAP1 POP SSTORE POP POP POP JUMP JUMPDEST PUSH2 0x43D DUP4 DUP4 DUP4 PUSH1 0x40 MLOAD DUP1 PUSH1 0x20 ADD PUSH1 0x40 MSTORE DUP1 PUSH1 0x0 DUP2 MSTORE POP PUSH2 0x702 JUMP JUMPDEST PUSH1 0x0 DUP2 DUP2 MSTORE PUSH1 0x2 PUSH1 0x20 MSTORE PUSH1 0x40 DUP2 KECCAK256 SLOAD PUSH1 0x1 PUSH1 0x1 PUSH1 0xA0 SHL SUB AND DUP1 PUSH2 0x2C4 JUMPI PUSH1 0x40 MLOAD PUSH3 0x461BCD PUSH1 0xE5 SHL DUP2 MSTORE PUSH1 0x4 ADD PUSH2 0x385 SWAP1 PUSH2 0x1587 JUMP JUMPDEST PUSH1 0x0 PUSH1 0x1 PUSH1 0x1 PUSH1 0xA0 SHL SUB DUP3 AND PUSH2 0x667 JUMPI PUSH1 0x40 MLOAD PUSH3 0x461BCD PUSH1 0xE5 SHL DUP2 MSTORE PUSH1 0x4 ADD PUSH2 0x385 SWAP1 PUSH2 0x153D JUMP JUMPDEST POP PUSH1 0x1 PUSH1 0x1 PUSH1 0xA0 SHL SUB AND PUSH1 0x0 SWAP1 DUP2 MSTORE PUSH1 0x3 PUSH1 0x20 MSTORE PUSH1 0x40 SWAP1 KECCAK256 SLOAD SWAP1 JUMP JUMPDEST PUSH2 0x68B PUSH2 0x899 JUMP JUMPDEST PUSH1 0x1 PUSH1 0x1 PUSH1 0xA0 SHL SUB AND PUSH2 0x69C PUSH2 0x6CE JUMP JUMPDEST PUSH1 0x1 PUSH1 0x1 PUSH1 0xA0 SHL SUB AND EQ PUSH2 0x6C2 JUMPI PUSH1 0x40 MLOAD PUSH3 0x461BCD PUSH1 0xE5 SHL DUP2 MSTORE PUSH1 0x4 ADD PUSH2 0x385 SWAP1 PUSH2 0x1651 JUMP JUMPDEST PUSH2 0x6CC PUSH1 0x0 PUSH2 0xADD JUMP JUMPDEST JUMP JUMPDEST PUSH1 0x6 SLOAD PUSH1 0x1 PUSH1 0x1 PUSH1 0xA0 SHL SUB AND SWAP1 JUMP JUMPDEST PUSH1 0x60 PUSH1 0x1 DUP1 SLOAD PUSH2 0x2DB SWAP1 PUSH2 0x1816 JUMP JUMPDEST PUSH2 0x6FE PUSH2 0x6F7 PUSH2 0x899 JUMP JUMPDEST DUP4 DUP4 PUSH2 0xB2F JUMP JUMPDEST POP POP JUMP JUMPDEST PUSH2 0x713 PUSH2 0x70D PUSH2 0x899 JUMP JUMPDEST DUP4 PUSH2 0x90B JUMP JUMPDEST PUSH2 0x72F JUMPI PUSH1 0x40 MLOAD PUSH3 0x461BCD PUSH1 0xE5 SHL DUP2 MSTORE PUSH1 0x4 ADD PUSH2 0x385 SWAP1 PUSH2 0x174D JUMP JUMPDEST PUSH2 0x73B DUP5 DUP5 DUP5 DUP5 PUSH2 0xBD2 JUMP JUMPDEST POP POP POP POP JUMP JUMPDEST PUSH1 0x60 PUSH2 0x74C DUP3 PUSH2 0x87C JUMP JUMPDEST PUSH2 0x768 JUMPI PUSH1 0x40 MLOAD PUSH3 0x461BCD PUSH1 0xE5 SHL DUP2 MSTORE PUSH1 0x4 ADD PUSH2 0x385 SWAP1 PUSH2 0x16BD JUMP JUMPDEST PUSH1 0x0 PUSH2 0x772 PUSH2 0xC05 JUMP JUMPDEST SWAP1 POP PUSH1 0x0 DUP2 MLOAD GT PUSH2 0x792 JUMPI PUSH1 0x40 MLOAD DUP1 PUSH1 0x20 ADD PUSH1 0x40 MSTORE DUP1 PUSH1 0x0 DUP2 MSTORE POP PUSH2 0x7BD JUMP JUMPDEST DUP1 PUSH2 0x79C DUP5 PUSH2 0xC17 JUMP JUMPDEST PUSH1 0x40 MLOAD PUSH1 0x20 ADD PUSH2 0x7AD SWAP3 SWAP2 SWAP1 PUSH2 0x1267 JUMP JUMPDEST PUSH1 0x40 MLOAD PUSH1 0x20 DUP2 DUP4 SUB SUB DUP2 MSTORE SWAP1 PUSH1 0x40 MSTORE JUMPDEST SWAP4 SWAP3 POP POP POP JUMP JUMPDEST PUSH1 0x1 PUSH1 0x1 PUSH1 0xA0 SHL SUB SWAP2 DUP3 AND PUSH1 0x0 SWAP1 DUP2 MSTORE PUSH1 0x5 PUSH1 0x20 SWAP1 DUP2 MSTORE PUSH1 0x40 DUP1 DUP4 KECCAK256 SWAP4 SWAP1 SWAP5 AND DUP3 MSTORE SWAP2 SWAP1 SWAP2 MSTORE KECCAK256 SLOAD PUSH1 0xFF AND SWAP1 JUMP JUMPDEST PUSH2 0x7FA PUSH2 0x899 JUMP JUMPDEST PUSH1 0x1 PUSH1 0x1 PUSH1 0xA0 SHL SUB AND PUSH2 0x80B PUSH2 0x6CE JUMP JUMPDEST PUSH1 0x1 PUSH1 0x1 PUSH1 0xA0 SHL SUB AND EQ PUSH2 0x831 JUMPI PUSH1 0x40 MLOAD PUSH3 0x461BCD PUSH1 0xE5 SHL DUP2 MSTORE PUSH1 0x4 ADD PUSH2 0x385 SWAP1 PUSH2 0x1651 JUMP JUMPDEST PUSH1 0x1 PUSH1 0x1 PUSH1 0xA0 SHL SUB DUP2 AND PUSH2 0x857 JUMPI PUSH1 0x40 MLOAD PUSH3 0x461BCD PUSH1 0xE5 SHL DUP2 MSTORE PUSH1 0x4 ADD PUSH2 0x385 SWAP1 PUSH2 0x1357 JUMP JUMPDEST PUSH2 0x860 DUP2 PUSH2 0xADD JUMP JUMPDEST POP JUMP JUMPDEST PUSH1 0x1 PUSH1 0x1 PUSH1 0xE0 SHL SUB NOT DUP2 AND PUSH4 0x1FFC9A7 PUSH1 0xE0 SHL EQ SWAP2 SWAP1 POP JUMP JUMPDEST PUSH1 0x0 SWAP1 DUP2 MSTORE PUSH1 0x2 PUSH1 0x20 MSTORE PUSH1 0x40 SWAP1 KECCAK256 SLOAD PUSH1 0x1 PUSH1 0x1 PUSH1 0xA0 SHL SUB AND ISZERO ISZERO SWAP1 JUMP JUMPDEST CALLER SWAP1 JUMP JUMPDEST PUSH1 0x0 DUP2 DUP2 MSTORE PUSH1 0x4 PUSH1 0x20 MSTORE PUSH1 0x40 SWAP1 KECCAK256 DUP1 SLOAD PUSH1 0x1 PUSH1 0x1 PUSH1 0xA0 SHL SUB NOT AND PUSH1 0x1 PUSH1 0x1 PUSH1 0xA0 SHL SUB DUP5 AND SWAP1 DUP2 OR SWAP1 SWAP2 SSTORE DUP2 SWAP1 PUSH2 0x8D2 DUP3 PUSH2 0x60A JUMP JUMPDEST PUSH1 0x1 PUSH1 0x1 PUSH1 0xA0 SHL SUB AND PUSH32 0x8C5BE1E5EBEC7D5BD14F71427D1E84F3DD0314C0F7B2291E5B200AC8C7C3B925 PUSH1 0x40 MLOAD PUSH1 0x40 MLOAD DUP1 SWAP2 SUB SWAP1 LOG4 POP POP JUMP JUMPDEST PUSH1 0x0 PUSH2 0x916 DUP3 PUSH2 0x87C JUMP JUMPDEST PUSH2 0x932 JUMPI PUSH1 0x40 MLOAD PUSH3 0x461BCD PUSH1 0xE5 SHL DUP2 MSTORE PUSH1 0x4 ADD PUSH2 0x385 SWAP1 PUSH2 0x1494 JUMP JUMPDEST PUSH1 0x0 PUSH2 0x93D DUP4 PUSH2 0x60A JUMP JUMPDEST SWAP1 POP DUP1 PUSH1 0x1 PUSH1 0x1 PUSH1 0xA0 SHL SUB AND DUP5 PUSH1 0x1 PUSH1 0x1 PUSH1 0xA0 SHL SUB AND EQ DUP1 PUSH2 0x978 JUMPI POP DUP4 PUSH1 0x1 PUSH1 0x1 PUSH1 0xA0 SHL SUB AND PUSH2 0x96D DUP5 PUSH2 0x35E JUMP JUMPDEST PUSH1 0x1 PUSH1 0x1 PUSH1 0xA0 SHL SUB AND EQ JUMPDEST DUP1 PUSH2 0x988 JUMPI POP PUSH2 0x988 DUP2 DUP6 PUSH2 0x7C4 JUMP JUMPDEST SWAP5 SWAP4 POP POP POP POP JUMP JUMPDEST DUP3 PUSH1 0x1 PUSH1 0x1 PUSH1 0xA0 SHL SUB AND PUSH2 0x9A3 DUP3 PUSH2 0x60A JUMP JUMPDEST PUSH1 0x1 PUSH1 0x1 PUSH1 0xA0 SHL SUB AND EQ PUSH2 0x9C9 JUMPI PUSH1 0x40 MLOAD PUSH3 0x461BCD PUSH1 0xE5 SHL DUP2 MSTORE PUSH1 0x4 ADD PUSH2 0x385 SWAP1 PUSH2 0x139D JUMP JUMPDEST PUSH1 0x1 PUSH1 0x1 PUSH1 0xA0 SHL SUB DUP3 AND PUSH2 0x9EF JUMPI PUSH1 0x40 MLOAD PUSH3 0x461BCD PUSH1 0xE5 SHL DUP2 MSTORE PUSH1 0x4 ADD PUSH2 0x385 SWAP1 PUSH2 0x1419 JUMP JUMPDEST PUSH2 0x9FA DUP4 DUP4 DUP4 PUSH2 0x43D JUMP JUMPDEST PUSH2 0xA05 PUSH1 0x0 DUP3 PUSH2 0x89D JUMP JUMPDEST PUSH1 0x1 PUSH1 0x1 PUSH1 0xA0 SHL SUB DUP4 AND PUSH1 0x0 SWAP1 DUP2 MSTORE PUSH1 0x3 PUSH1 0x20 MSTORE PUSH1 0x40 DUP2 KECCAK256 DUP1 SLOAD PUSH1 0x1 SWAP3 SWAP1 PUSH2 0xA2E SWAP1 DUP5 SWAP1 PUSH2 0x17D3 JUMP JUMPDEST SWAP1 SWAP2 SSTORE POP POP PUSH1 0x1 PUSH1 0x1 PUSH1 0xA0 SHL SUB DUP3 AND PUSH1 0x0 SWAP1 DUP2 MSTORE PUSH1 0x3 PUSH1 0x20 MSTORE PUSH1 0x40 DUP2 KECCAK256 DUP1 SLOAD PUSH1 0x1 SWAP3 SWAP1 PUSH2 0xA5C SWAP1 DUP5 SWAP1 PUSH2 0x17A7 JUMP JUMPDEST SWAP1 SWAP2 SSTORE POP POP PUSH1 0x0 DUP2 DUP2 MSTORE PUSH1 0x2 PUSH1 0x20 MSTORE PUSH1 0x40 DUP1 DUP3 KECCAK256 DUP1 SLOAD PUSH1 0x1 PUSH1 0x1 PUSH1 0xA0 SHL SUB NOT AND PUSH1 0x1 PUSH1 0x1 PUSH1 0xA0 SHL SUB DUP7 DUP2 AND SWAP2 DUP3 OR SWAP1 SWAP3 SSTORE SWAP2 MLOAD DUP5 SWAP4 SWAP2 DUP8 AND SWAP2 PUSH32 0xDDF252AD1BE2C89B69C2B068FC378DAA952BA7F163C4A11628F55A4DF523B3EF SWAP2 LOG4 PUSH2 0x43D DUP4 DUP4 DUP4 PUSH2 0x43D JUMP JUMPDEST PUSH2 0x6FE DUP3 DUP3 PUSH1 0x40 MLOAD DUP1 PUSH1 0x20 ADD PUSH1 0x40 MSTORE DUP1 PUSH1 0x0 DUP2 MSTORE POP PUSH2 0xD32 JUMP JUMPDEST PUSH1 0x6 DUP1 SLOAD PUSH1 0x1 PUSH1 0x1 PUSH1 0xA0 SHL SUB DUP4 DUP2 AND PUSH1 0x1 PUSH1 0x1 PUSH1 0xA0 SHL SUB NOT DUP4 AND DUP2 OR SWAP1 SWAP4 SSTORE PUSH1 0x40 MLOAD SWAP2 AND SWAP2 SWAP1 DUP3 SWAP1 PUSH32 0x8BE0079C531659141344CD1FD0A4F28419497F9722A3DAAFE3B4186F6B6457E0 SWAP1 PUSH1 0x0 SWAP1 LOG3 POP POP JUMP JUMPDEST DUP2 PUSH1 0x1 PUSH1 0x1 PUSH1 0xA0 SHL SUB AND DUP4 PUSH1 0x1 PUSH1 0x1 PUSH1 0xA0 SHL SUB AND EQ ISZERO PUSH2 0xB61 JUMPI PUSH1 0x40 MLOAD PUSH3 0x461BCD PUSH1 0xE5 SHL DUP2 MSTORE PUSH1 0x4 ADD PUSH2 0x385 SWAP1 PUSH2 0x145D JUMP JUMPDEST PUSH1 0x1 PUSH1 0x1 PUSH1 0xA0 SHL SUB DUP4 DUP2 AND PUSH1 0x0 DUP2 DUP2 MSTORE PUSH1 0x5 PUSH1 0x20 SWAP1 DUP2 MSTORE PUSH1 0x40 DUP1 DUP4 KECCAK256 SWAP5 DUP8 AND DUP1 DUP5 MSTORE SWAP5 SWAP1 SWAP2 MSTORE SWAP1 DUP2 SWAP1 KECCAK256 DUP1 SLOAD PUSH1 0xFF NOT AND DUP6 ISZERO ISZERO OR SWAP1 SSTORE MLOAD PUSH32 0x17307EAB39AB6107E8899845AD3D59BD9653F200F220920489CA2B5937696C31 SWAP1 PUSH2 0xBC5 SWAP1 DUP6 SWAP1 PUSH2 0x12E7 JUMP JUMPDEST PUSH1 0x40 MLOAD DUP1 SWAP2 SUB SWAP1 LOG3 POP POP POP JUMP JUMPDEST PUSH2 0xBDD DUP5 DUP5 DUP5 PUSH2 0x990 JUMP JUMPDEST PUSH2 0xBE9 DUP5 DUP5 DUP5 DUP5 PUSH2 0xD65 JUMP JUMPDEST PUSH2 0x73B JUMPI PUSH1 0x40 MLOAD PUSH3 0x461BCD PUSH1 0xE5 SHL DUP2 MSTORE PUSH1 0x4 ADD PUSH2 0x385 SWAP1 PUSH2 0x1305 JUMP JUMPDEST PUSH1 0x40 DUP1 MLOAD PUSH1 0x20 DUP2 ADD SWAP1 SWAP2 MSTORE PUSH1 0x0 DUP2 MSTORE SWAP1 JUMP JUMPDEST PUSH1 0x60 DUP2 PUSH2 0xC3C JUMPI POP PUSH1 0x40 DUP1 MLOAD DUP1 DUP3 ADD SWAP1 SWAP2 MSTORE PUSH1 0x1 DUP2 MSTORE PUSH1 0x3 PUSH1 0xFC SHL PUSH1 0x20 DUP3 ADD MSTORE PUSH2 0x2C7 JUMP JUMPDEST DUP2 PUSH1 0x0 JUMPDEST DUP2 ISZERO PUSH2 0xC66 JUMPI DUP1 PUSH2 0xC50 DUP2 PUSH2 0x1851 JUMP JUMPDEST SWAP2 POP PUSH2 0xC5F SWAP1 POP PUSH1 0xA DUP4 PUSH2 0x17BF JUMP JUMPDEST SWAP2 POP PUSH2 0xC40 JUMP JUMPDEST PUSH1 0x0 DUP2 PUSH8 0xFFFFFFFFFFFFFFFF DUP2 GT ISZERO PUSH2 0xC8F JUMPI PUSH4 0x4E487B71 PUSH1 0xE0 SHL PUSH1 0x0 MSTORE PUSH1 0x41 PUSH1 0x4 MSTORE PUSH1 0x24 PUSH1 0x0 REVERT JUMPDEST PUSH1 0x40 MLOAD SWAP1 DUP1 DUP3 MSTORE DUP1 PUSH1 0x1F ADD PUSH1 0x1F NOT AND PUSH1 0x20 ADD DUP3 ADD PUSH1 0x40 MSTORE DUP1 ISZERO PUSH2 0xCB9 JUMPI PUSH1 0x20 DUP3 ADD DUP2 DUP1 CALLDATASIZE DUP4 CALLDATACOPY ADD SWAP1 POP JUMPDEST POP SWAP1 POP JUMPDEST DUP5 ISZERO PUSH2 0x988 JUMPI PUSH2 0xCCE PUSH1 0x1 DUP4 PUSH2 0x17D3 JUMP JUMPDEST SWAP2 POP PUSH2 0xCDB PUSH1 0xA DUP7 PUSH2 0x186C JUMP JUMPDEST PUSH2 0xCE6 SWAP1 PUSH1 0x30 PUSH2 0x17A7 JUMP JUMPDEST PUSH1 0xF8 SHL DUP2 DUP4 DUP2 MLOAD DUP2 LT PUSH2 0xD09 JUMPI PUSH4 0x4E487B71 PUSH1 0xE0 SHL PUSH1 0x0 MSTORE PUSH1 0x32 PUSH1 0x4 MSTORE PUSH1 0x24 PUSH1 0x0 REVERT JUMPDEST PUSH1 0x20 ADD ADD SWAP1 PUSH1 0x1 PUSH1 0x1 PUSH1 0xF8 SHL SUB NOT AND SWAP1 DUP2 PUSH1 0x0 BYTE SWAP1 MSTORE8 POP PUSH2 0xD2B PUSH1 0xA DUP7 PUSH2 0x17BF JUMP JUMPDEST SWAP5 POP PUSH2 0xCBD JUMP JUMPDEST PUSH2 0xD3C DUP4 DUP4 PUSH2 0xE80 JUMP JUMPDEST PUSH2 0xD49 PUSH1 0x0 DUP5 DUP5 DUP5 PUSH2 0xD65 JUMP JUMPDEST PUSH2 0x43D JUMPI PUSH1 0x40 MLOAD PUSH3 0x461BCD PUSH1 0xE5 SHL DUP2 MSTORE PUSH1 0x4 ADD PUSH2 0x385 SWAP1 PUSH2 0x1305 JUMP JUMPDEST PUSH1 0x0 PUSH2 0xD79 DUP5 PUSH1 0x1 PUSH1 0x1 PUSH1 0xA0 SHL SUB AND PUSH2 0xF67 JUMP JUMPDEST ISZERO PUSH2 0xE75 JUMPI DUP4 PUSH1 0x1 PUSH1 0x1 PUSH1 0xA0 SHL SUB AND PUSH4 0x150B7A02 PUSH2 0xD95 PUSH2 0x899 JUMP JUMPDEST DUP8 DUP7 DUP7 PUSH1 0x40 MLOAD DUP6 PUSH4 0xFFFFFFFF AND PUSH1 0xE0 SHL DUP2 MSTORE PUSH1 0x4 ADD PUSH2 0xDB7 SWAP5 SWAP4 SWAP3 SWAP2 SWAP1 PUSH2 0x12AA JUMP JUMPDEST PUSH1 0x20 PUSH1 0x40 MLOAD DUP1 DUP4 SUB DUP2 PUSH1 0x0 DUP8 DUP1 EXTCODESIZE ISZERO DUP1 ISZERO PUSH2 0xDD1 JUMPI PUSH1 0x0 DUP1 REVERT JUMPDEST POP GAS CALL SWAP3 POP POP POP DUP1 ISZERO PUSH2 0xE01 JUMPI POP PUSH1 0x40 DUP1 MLOAD PUSH1 0x1F RETURNDATASIZE SWAP1 DUP2 ADD PUSH1 0x1F NOT AND DUP3 ADD SWAP1 SWAP3 MSTORE PUSH2 0xDFE SWAP2 DUP2 ADD SWAP1 PUSH2 0x1192 JUMP JUMPDEST PUSH1 0x1 JUMPDEST PUSH2 0xE5B JUMPI RETURNDATASIZE DUP1 DUP1 ISZERO PUSH2 0xE2F JUMPI PUSH1 0x40 MLOAD SWAP2 POP PUSH1 0x1F NOT PUSH1 0x3F RETURNDATASIZE ADD AND DUP3 ADD PUSH1 0x40 MSTORE RETURNDATASIZE DUP3 MSTORE RETURNDATASIZE PUSH1 0x0 PUSH1 0x20 DUP5 ADD RETURNDATACOPY PUSH2 0xE34 JUMP JUMPDEST PUSH1 0x60 SWAP2 POP JUMPDEST POP DUP1 MLOAD PUSH2 0xE53 JUMPI PUSH1 0x40 MLOAD PUSH3 0x461BCD PUSH1 0xE5 SHL DUP2 MSTORE PUSH1 0x4 ADD PUSH2 0x385 SWAP1 PUSH2 0x1305 JUMP JUMPDEST DUP1 MLOAD DUP2 PUSH1 0x20 ADD REVERT JUMPDEST PUSH1 0x1 PUSH1 0x1 PUSH1 0xE0 SHL SUB NOT AND PUSH4 0xA85BD01 PUSH1 0xE1 SHL EQ SWAP1 POP PUSH2 0x988 JUMP JUMPDEST POP PUSH1 0x1 SWAP5 SWAP4 POP POP POP POP JUMP JUMPDEST PUSH1 0x1 PUSH1 0x1 PUSH1 0xA0 SHL SUB DUP3 AND PUSH2 0xEA6 JUMPI PUSH1 0x40 MLOAD PUSH3 0x461BCD PUSH1 0xE5 SHL DUP2 MSTORE PUSH1 0x4 ADD PUSH2 0x385 SWAP1 PUSH2 0x15D0 JUMP JUMPDEST PUSH2 0xEAF DUP2 PUSH2 0x87C JUMP JUMPDEST ISZERO PUSH2 0xECC JUMPI PUSH1 0x40 MLOAD PUSH3 0x461BCD PUSH1 0xE5 SHL DUP2 MSTORE PUSH1 0x4 ADD PUSH2 0x385 SWAP1 PUSH2 0x13E2 JUMP JUMPDEST PUSH2 0xED8 PUSH1 0x0 DUP4 DUP4 PUSH2 0x43D JUMP JUMPDEST PUSH1 0x1 PUSH1 0x1 PUSH1 0xA0 SHL SUB DUP3 AND PUSH1 0x0 SWAP1 DUP2 MSTORE PUSH1 0x3 PUSH1 0x20 MSTORE PUSH1 0x40 DUP2 KECCAK256 DUP1 SLOAD PUSH1 0x1 SWAP3 SWAP1 PUSH2 0xF01 SWAP1 DUP5 SWAP1 PUSH2 0x17A7 JUMP JUMPDEST SWAP1 SWAP2 SSTORE POP POP PUSH1 0x0 DUP2 DUP2 MSTORE PUSH1 0x2 PUSH1 0x20 MSTORE PUSH1 0x40 DUP1 DUP3 KECCAK256 DUP1 SLOAD PUSH1 0x1 PUSH1 0x1 PUSH1 0xA0 SHL SUB NOT AND PUSH1 0x1 PUSH1 0x1 PUSH1 0xA0 SHL SUB DUP7 AND SWAP1 DUP2 OR SWAP1 SWAP2 SSTORE SWAP1 MLOAD DUP4 SWAP3 SWAP1 PUSH32 0xDDF252AD1BE2C89B69C2B068FC378DAA952BA7F163C4A11628F55A4DF523B3EF SWAP1 DUP3 SWAP1 LOG4 PUSH2 0x6FE PUSH1 0x0 DUP4 DUP4 PUSH2 0x43D JUMP JUMPDEST PUSH1 0x0 DUP1 DUP3 PUSH1 0x1 PUSH1 0x1 PUSH1 0xA0 SHL SUB AND DUP1 EXTCODESIZE DUP1 PUSH1 0x20 ADD PUSH1 0x40 MLOAD SWAP1 DUP2 ADD PUSH1 0x40 MSTORE DUP2 DUP2 MSTORE PUSH1 0x0 SWAP1 DUP1 PUSH1 0x20 ADD SWAP1 SWAP4 EXTCODECOPY MLOAD GT SWAP3 SWAP2 POP POP JUMP JUMPDEST DUP1 CALLDATALOAD PUSH1 0x1 PUSH1 0x1 PUSH1 0xA0 SHL SUB DUP2 AND DUP2 EQ PUSH2 0x2C7 JUMPI PUSH1 0x0 DUP1 REVERT JUMPDEST DUP1 CALLDATALOAD PUSH1 0xFF DUP2 AND DUP2 EQ PUSH2 0x2C7 JUMPI PUSH1 0x0 DUP1 REVERT JUMPDEST PUSH1 0x0 PUSH1 0x20 DUP3 DUP5 SUB SLT ISZERO PUSH2 0xFD1 JUMPI DUP1 DUP2 REVERT JUMPDEST PUSH2 0x7BD DUP3 PUSH2 0xF98 JUMP JUMPDEST PUSH1 0x0 DUP1 PUSH1 0x40 DUP4 DUP6 SUB SLT ISZERO PUSH2 0xFEC JUMPI DUP1 DUP2 REVERT JUMPDEST PUSH2 0xFF5 DUP4 PUSH2 0xF98 JUMP JUMPDEST SWAP2 POP PUSH2 0x1003 PUSH1 0x20 DUP5 ADD PUSH2 0xF98 JUMP JUMPDEST SWAP1 POP SWAP3 POP SWAP3 SWAP1 POP JUMP JUMPDEST PUSH1 0x0 DUP1 PUSH1 0x0 PUSH1 0x60 DUP5 DUP7 SUB SLT ISZERO PUSH2 0x1020 JUMPI DUP1 DUP2 REVERT JUMPDEST PUSH2 0x1029 DUP5 PUSH2 0xF98 JUMP JUMPDEST SWAP3 POP PUSH2 0x1037 PUSH1 0x20 DUP6 ADD PUSH2 0xF98 JUMP JUMPDEST SWAP2 POP PUSH1 0x40 DUP5 ADD CALLDATALOAD SWAP1 POP SWAP3 POP SWAP3 POP SWAP3 JUMP JUMPDEST PUSH1 0x0 DUP1 PUSH1 0x0 DUP1 PUSH1 0x80 DUP6 DUP8 SUB SLT ISZERO PUSH2 0x105C JUMPI DUP1 DUP2 REVERT JUMPDEST PUSH2 0x1065 DUP6 PUSH2 0xF98 JUMP JUMPDEST SWAP4 POP PUSH1 0x20 PUSH2 0x1074 DUP2 DUP8 ADD PUSH2 0xF98 JUMP JUMPDEST SWAP4 POP PUSH1 0x40 DUP7 ADD CALLDATALOAD SWAP3 POP PUSH1 0x60 DUP7 ADD CALLDATALOAD PUSH8 0xFFFFFFFFFFFFFFFF DUP1 DUP3 GT ISZERO PUSH2 0x1097 JUMPI DUP4 DUP5 REVERT JUMPDEST DUP2 DUP9 ADD SWAP2 POP DUP9 PUSH1 0x1F DUP4 ADD SLT PUSH2 0x10AA JUMPI DUP4 DUP5 REVERT JUMPDEST DUP2 CALLDATALOAD DUP2 DUP2 GT ISZERO PUSH2 0x10BC JUMPI PUSH2 0x10BC PUSH2 0x18AC JUMP JUMPDEST PUSH1 0x40 MLOAD PUSH1 0x1F DUP3 ADD PUSH1 0x1F NOT AND DUP2 ADD DUP6 ADD DUP4 DUP2 GT DUP3 DUP3 LT OR ISZERO PUSH2 0x10DF JUMPI PUSH2 0x10DF PUSH2 0x18AC JUMP JUMPDEST PUSH1 0x40 MSTORE DUP2 DUP2 MSTORE DUP4 DUP3 ADD DUP6 ADD DUP12 LT ISZERO PUSH2 0x10F5 JUMPI DUP6 DUP7 REVERT JUMPDEST DUP2 DUP6 DUP6 ADD DUP7 DUP4 ADD CALLDATACOPY SWAP1 DUP2 ADD SWAP1 SWAP4 ADD SWAP4 SWAP1 SWAP4 MSTORE POP SWAP4 SWAP7 SWAP3 SWAP6 POP SWAP1 SWAP4 POP POP JUMP JUMPDEST PUSH1 0x0 DUP1 PUSH1 0x40 DUP4 DUP6 SUB SLT ISZERO PUSH2 0x1125 JUMPI DUP2 DUP3 REVERT JUMPDEST PUSH2 0x112E DUP4 PUSH2 0xF98 JUMP JUMPDEST SWAP2 POP PUSH1 0x20 DUP4 ADD CALLDATALOAD DUP1 ISZERO ISZERO DUP2 EQ PUSH2 0x1142 JUMPI DUP2 DUP3 REVERT JUMPDEST DUP1 SWAP2 POP POP SWAP3 POP SWAP3 SWAP1 POP JUMP JUMPDEST PUSH1 0x0 DUP1 PUSH1 0x40 DUP4 DUP6 SUB SLT ISZERO PUSH2 0x115F JUMPI DUP2 DUP3 REVERT JUMPDEST PUSH2 0x1168 DUP4 PUSH2 0xF98 JUMP JUMPDEST SWAP5 PUSH1 0x20 SWAP4 SWAP1 SWAP4 ADD CALLDATALOAD SWAP4 POP POP POP JUMP JUMPDEST PUSH1 0x0 PUSH1 0x20 DUP3 DUP5 SUB SLT ISZERO PUSH2 0x1187 JUMPI DUP1 DUP2 REVERT JUMPDEST DUP2 CALLDATALOAD PUSH2 0x7BD DUP2 PUSH2 0x18C2 JUMP JUMPDEST PUSH1 0x0 PUSH1 0x20 DUP3 DUP5 SUB SLT ISZERO PUSH2 0x11A3 JUMPI DUP1 DUP2 REVERT JUMPDEST DUP2 MLOAD PUSH2 0x7BD DUP2 PUSH2 0x18C2 JUMP JUMPDEST PUSH1 0x0 PUSH1 0x20 DUP3 DUP5 SUB SLT ISZERO PUSH2 0x11BF JUMPI DUP1 DUP2 REVERT JUMPDEST POP CALLDATALOAD SWAP2 SWAP1 POP JUMP JUMPDEST PUSH1 0x0 DUP1 PUSH1 0x0 DUP1 PUSH1 0x80 DUP6 DUP8 SUB SLT ISZERO PUSH2 0x11DB JUMPI DUP4 DUP5 REVERT JUMPDEST DUP5 CALLDATALOAD SWAP4 POP PUSH2 0x11EB PUSH1 0x20 DUP7 ADD PUSH2 0xFAF JUMP JUMPDEST SWAP3 POP PUSH2 0x11F9 PUSH1 0x40 DUP7 ADD PUSH2 0xFAF JUMP JUMPDEST SWAP2 POP PUSH2 0x1207 PUSH1 0x60 DUP7 ADD PUSH2 0xFAF JUMP JUMPDEST SWAP1 POP SWAP3 SWAP6 SWAP2 SWAP5 POP SWAP3 POP JUMP JUMPDEST PUSH1 0x0 DUP1 PUSH1 0x40 DUP4 DUP6 SUB SLT ISZERO PUSH2 0x1224 JUMPI DUP2 DUP3 REVERT JUMPDEST PUSH2 0x122D DUP4 PUSH2 0xFAF JUMP JUMPDEST SWAP2 POP PUSH2 0x1003 PUSH1 0x20 DUP5 ADD PUSH2 0xFAF JUMP JUMPDEST PUSH1 0x0 DUP2 MLOAD DUP1 DUP5 MSTORE PUSH2 0x1253 DUP2 PUSH1 0x20 DUP7 ADD PUSH1 0x20 DUP7 ADD PUSH2 0x17EA JUMP JUMPDEST PUSH1 0x1F ADD PUSH1 0x1F NOT AND SWAP3 SWAP1 SWAP3 ADD PUSH1 0x20 ADD SWAP3 SWAP2 POP POP JUMP JUMPDEST PUSH1 0x0 DUP4 MLOAD PUSH2 0x1279 DUP2 DUP5 PUSH1 0x20 DUP9 ADD PUSH2 0x17EA JUMP JUMPDEST DUP4 MLOAD SWAP1 DUP4 ADD SWAP1 PUSH2 0x128D DUP2 DUP4 PUSH1 0x20 DUP9 ADD PUSH2 0x17EA JUMP JUMPDEST ADD SWAP5 SWAP4 POP POP POP POP JUMP JUMPDEST PUSH1 0x1 PUSH1 0x1 PUSH1 0xA0 SHL SUB SWAP2 SWAP1 SWAP2 AND DUP2 MSTORE PUSH1 0x20 ADD SWAP1 JUMP JUMPDEST PUSH1 0x1 PUSH1 0x1 PUSH1 0xA0 SHL SUB DUP6 DUP2 AND DUP3 MSTORE DUP5 AND PUSH1 0x20 DUP3 ADD MSTORE PUSH1 0x40 DUP2 ADD DUP4 SWAP1 MSTORE PUSH1 0x80 PUSH1 0x60 DUP3 ADD DUP2 SWAP1 MSTORE PUSH1 0x0 SWAP1 PUSH2 0x12DD SWAP1 DUP4 ADD DUP5 PUSH2 0x123B JUMP JUMPDEST SWAP7 SWAP6 POP POP POP POP POP POP JUMP JUMPDEST SWAP1 ISZERO ISZERO DUP2 MSTORE PUSH1 0x20 ADD SWAP1 JUMP JUMPDEST PUSH1 0x0 PUSH1 0x20 DUP3 MSTORE PUSH2 0x7BD PUSH1 0x20 DUP4 ADD DUP5 PUSH2 0x123B JUMP JUMPDEST PUSH1 0x20 DUP1 DUP3 MSTORE PUSH1 0x32 SWAP1 DUP3 ADD MSTORE PUSH32 0x4552433732313A207472616E7366657220746F206E6F6E204552433732315265 PUSH1 0x40 DUP3 ADD MSTORE PUSH18 0x31B2B4BB32B91034B6B83632B6B2B73A32B9 PUSH1 0x71 SHL PUSH1 0x60 DUP3 ADD MSTORE PUSH1 0x80 ADD SWAP1 JUMP JUMPDEST PUSH1 0x20 DUP1 DUP3 MSTORE PUSH1 0x26 SWAP1 DUP3 ADD MSTORE PUSH32 0x4F776E61626C653A206E6577206F776E657220697320746865207A65726F2061 PUSH1 0x40 DUP3 ADD MSTORE PUSH6 0x646472657373 PUSH1 0xD0 SHL PUSH1 0x60 DUP3 ADD MSTORE PUSH1 0x80 ADD SWAP1 JUMP JUMPDEST PUSH1 0x20 DUP1 DUP3 MSTORE PUSH1 0x25 SWAP1 DUP3 ADD MSTORE PUSH32 0x4552433732313A207472616E736665722066726F6D20696E636F727265637420 PUSH1 0x40 DUP3 ADD MSTORE PUSH5 0x37BBB732B9 PUSH1 0xD9 SHL PUSH1 0x60 DUP3 ADD MSTORE PUSH1 0x80 ADD SWAP1 JUMP JUMPDEST PUSH1 0x20 DUP1 DUP3 MSTORE PUSH1 0x1C SWAP1 DUP3 ADD MSTORE PUSH32 0x4552433732313A20746F6B656E20616C7265616479206D696E74656400000000 PUSH1 0x40 DUP3 ADD MSTORE PUSH1 0x60 ADD SWAP1 JUMP JUMPDEST PUSH1 0x20 DUP1 DUP3 MSTORE PUSH1 0x24 SWAP1 DUP3 ADD MSTORE PUSH32 0x4552433732313A207472616E7366657220746F20746865207A65726F20616464 PUSH1 0x40 DUP3 ADD MSTORE PUSH4 0x72657373 PUSH1 0xE0 SHL PUSH1 0x60 DUP3 ADD MSTORE PUSH1 0x80 ADD SWAP1 JUMP JUMPDEST PUSH1 0x20 DUP1 DUP3 MSTORE PUSH1 0x19 SWAP1 DUP3 ADD MSTORE PUSH32 0x4552433732313A20617070726F766520746F2063616C6C657200000000000000 PUSH1 0x40 DUP3 ADD MSTORE PUSH1 0x60 ADD SWAP1 JUMP JUMPDEST PUSH1 0x20 DUP1 DUP3 MSTORE PUSH1 0x2C SWAP1 DUP3 ADD MSTORE PUSH32 0x4552433732313A206F70657261746F7220717565727920666F72206E6F6E6578 PUSH1 0x40 DUP3 ADD MSTORE PUSH12 0x34B9BA32B73A103A37B5B2B7 PUSH1 0xA1 SHL PUSH1 0x60 DUP3 ADD MSTORE PUSH1 0x80 ADD SWAP1 JUMP JUMPDEST PUSH1 0x20 DUP1 DUP3 MSTORE PUSH1 0x38 SWAP1 DUP3 ADD MSTORE PUSH32 0x4552433732313A20617070726F76652063616C6C6572206973206E6F74206F77 PUSH1 0x40 DUP3 ADD MSTORE PUSH32 0x6E6572206E6F7220617070726F76656420666F7220616C6C0000000000000000 PUSH1 0x60 DUP3 ADD MSTORE PUSH1 0x80 ADD SWAP1 JUMP JUMPDEST PUSH1 0x20 DUP1 DUP3 MSTORE PUSH1 0x2A SWAP1 DUP3 ADD MSTORE PUSH32 0x4552433732313A2062616C616E636520717565727920666F7220746865207A65 PUSH1 0x40 DUP3 ADD MSTORE PUSH10 0x726F2061646472657373 PUSH1 0xB0 SHL PUSH1 0x60 DUP3 ADD MSTORE PUSH1 0x80 ADD SWAP1 JUMP JUMPDEST PUSH1 0x20 DUP1 DUP3 MSTORE PUSH1 0x29 SWAP1 DUP3 ADD MSTORE PUSH32 0x4552433732313A206F776E657220717565727920666F72206E6F6E6578697374 PUSH1 0x40 DUP3 ADD MSTORE PUSH9 0x32B73A103A37B5B2B7 PUSH1 0xB9 SHL PUSH1 0x60 DUP3 ADD MSTORE PUSH1 0x80 ADD SWAP1 JUMP JUMPDEST PUSH1 0x20 DUP1 DUP3 MSTORE DUP2 DUP2 ADD MSTORE PUSH32 0x4552433732313A206D696E7420746F20746865207A65726F2061646472657373 PUSH1 0x40 DUP3 ADD MSTORE PUSH1 0x60 ADD SWAP1 JUMP JUMPDEST PUSH1 0x20 DUP1 DUP3 MSTORE PUSH1 0x2C SWAP1 DUP3 ADD MSTORE PUSH32 0x4552433732313A20617070726F76656420717565727920666F72206E6F6E6578 PUSH1 0x40 DUP3 ADD MSTORE PUSH12 0x34B9BA32B73A103A37B5B2B7 PUSH1 0xA1 SHL PUSH1 0x60 DUP3 ADD MSTORE PUSH1 0x80 ADD SWAP1 JUMP JUMPDEST PUSH1 0x20 DUP1 DUP3 MSTORE DUP2 DUP2 ADD MSTORE PUSH32 0x4F776E61626C653A2063616C6C6572206973206E6F7420746865206F776E6572 PUSH1 0x40 DUP3 ADD MSTORE PUSH1 0x60 ADD SWAP1 JUMP JUMPDEST PUSH1 0x20 DUP1 DUP3 MSTORE PUSH1 0x1B SWAP1 DUP3 ADD MSTORE PUSH32 0x4552433732313A206E6F7420746865206F776E657220746F6B656E0000000000 PUSH1 0x40 DUP3 ADD MSTORE PUSH1 0x60 ADD SWAP1 JUMP JUMPDEST PUSH1 0x20 DUP1 DUP3 MSTORE PUSH1 0x2F SWAP1 DUP3 ADD MSTORE PUSH32 0x4552433732314D657461646174613A2055524920717565727920666F72206E6F PUSH1 0x40 DUP3 ADD MSTORE PUSH15 0x3732BC34B9BA32B73A103A37B5B2B7 PUSH1 0x89 SHL PUSH1 0x60 DUP3 ADD MSTORE PUSH1 0x80 ADD SWAP1 JUMP JUMPDEST PUSH1 0x20 DUP1 DUP3 MSTORE PUSH1 0x21 SWAP1 DUP3 ADD MSTORE PUSH32 0x4552433732313A20617070726F76616C20746F2063757272656E74206F776E65 PUSH1 0x40 DUP3 ADD MSTORE PUSH1 0x39 PUSH1 0xF9 SHL PUSH1 0x60 DUP3 ADD MSTORE PUSH1 0x80 ADD SWAP1 JUMP JUMPDEST PUSH1 0x20 DUP1 DUP3 MSTORE PUSH1 0x31 SWAP1 DUP3 ADD MSTORE PUSH32 0x4552433732313A207472616E736665722063616C6C6572206973206E6F74206F PUSH1 0x40 DUP3 ADD MSTORE PUSH17 0x1DDB995C881B9BDC88185C1C1C9BDD9959 PUSH1 0x7A SHL PUSH1 0x60 DUP3 ADD MSTORE PUSH1 0x80 ADD SWAP1 JUMP JUMPDEST SWAP1 DUP2 MSTORE PUSH1 0x20 ADD SWAP1 JUMP JUMPDEST PUSH1 0x0 DUP3 NOT DUP3 GT ISZERO PUSH2 0x17BA JUMPI PUSH2 0x17BA PUSH2 0x1880 JUMP JUMPDEST POP ADD SWAP1 JUMP JUMPDEST PUSH1 0x0 DUP3 PUSH2 0x17CE JUMPI PUSH2 0x17CE PUSH2 0x1896 JUMP JUMPDEST POP DIV SWAP1 JUMP JUMPDEST PUSH1 0x0 DUP3 DUP3 LT ISZERO PUSH2 0x17E5 JUMPI PUSH2 0x17E5 PUSH2 0x1880 JUMP JUMPDEST POP SUB SWAP1 JUMP JUMPDEST PUSH1 0x0 JUMPDEST DUP4 DUP2 LT ISZERO PUSH2 0x1805 JUMPI DUP2 DUP2 ADD MLOAD DUP4 DUP3 ADD MSTORE PUSH1 0x20 ADD PUSH2 0x17ED JUMP JUMPDEST DUP4 DUP2 GT ISZERO PUSH2 0x73B JUMPI POP POP PUSH1 0x0 SWAP2 ADD MSTORE JUMP JUMPDEST PUSH1 0x2 DUP2 DIV PUSH1 0x1 DUP3 AND DUP1 PUSH2 0x182A JUMPI PUSH1 0x7F DUP3 AND SWAP2 POP JUMPDEST PUSH1 0x20 DUP3 LT DUP2 EQ ISZERO PUSH2 0x184B JUMPI PUSH4 0x4E487B71 PUSH1 0xE0 SHL PUSH1 0x0 MSTORE PUSH1 0x22 PUSH1 0x4 MSTORE PUSH1 0x24 PUSH1 0x0 REVERT JUMPDEST POP SWAP2 SWAP1 POP JUMP JUMPDEST PUSH1 0x0 PUSH1 0x0 NOT DUP3 EQ ISZERO PUSH2 0x1865 JUMPI PUSH2 0x1865 PUSH2 0x1880 JUMP JUMPDEST POP PUSH1 0x1 ADD SWAP1 JUMP JUMPDEST PUSH1 0x0 DUP3 PUSH2 0x187B JUMPI PUSH2 0x187B PUSH2 0x1896 JUMP JUMPDEST POP MOD SWAP1 JUMP JUMPDEST PUSH4 0x4E487B71 PUSH1 0xE0 SHL PUSH1 0x0 MSTORE PUSH1 0x11 PUSH1 0x4 MSTORE PUSH1 0x24 PUSH1 0x0 REVERT JUMPDEST PUSH4 0x4E487B71 PUSH1 0xE0 SHL PUSH1 0x0 MSTORE PUSH1 0x12 PUSH1 0x4 MSTORE PUSH1 0x24 PUSH1 0x0 REVERT JUMPDEST PUSH4 0x4E487B71 PUSH1 0xE0 SHL PUSH1 0x0 MSTORE PUSH1 0x41 PUSH1 0x4 MSTORE PUSH1 0x24 PUSH1 0x0 REVERT JUMPDEST PUSH1 0x1 PUSH1 0x1 PUSH1 0xE0 SHL SUB NOT DUP2 AND DUP2 EQ PUSH2 0x860 JUMPI PUSH1 0x0 DUP1 REVERT INVALID LOG2 PUSH5 0x6970667358 0x22 SLT KECCAK256 0xBF PUSH11 0x4E038C958B6DA74353AA1F 0xD8 0xFC GAS 0xEC 0xA6 0x29 0xBC DUP13 DUP14 0xE PUSH16 0x2C127077FBCDF33664736F6C63430008 STOP STOP CALLER "
				},
				"gasEstimates": {
					"creation": {
						"codeDepositCost": "1282800",
						"executionCost": "infinite",
						"totalCost": "infinite"
					},
					"external": {
						"approve(address,uint256)": "infinite",
						"balanceOf(address)": "1333",
						"getApproved(uint256)": "2223",
						"increasePet(uint256,uint8,uint8,uint8)": "infinite",
						"isApprovedForAll(address,address)": "infinite",
						"mint(uint8,uint8)": "infinite",
						"name()": "infinite",
						"owner()": "1137",
						"ownerOf(uint256)": "1388",
						"renounceOwnership()": "23552",
						"safeTransferFrom(address,address,uint256)": "infinite",
						"safeTransferFrom(address,address,uint256,bytes)": "infinite",
						"setApprovalForAll(address,bool)": "23371",
						"supportsInterface(bytes4)": "604",
						"symbol()": "infinite",
						"tokenURI(uint256)": "infinite",
						"transferFrom(address,address,uint256)": "infinite",
						"transferOwnership(address)": "23812"
					}
				},
				"methodIdentifiers": {
					"approve(address,uint256)": "095ea7b3",
					"balanceOf(address)": "70a08231",
					"getApproved(uint256)": "081812fc",
					"increasePet(uint256,uint8,uint8,uint8)": "27057331",
					"isApprovedForAll(address,address)": "e985e9c5",
					"mint(uint8,uint8)": "29a0eee8",
					"name()": "06fdde03",
					"owner()": "8da5cb5b",
					"ownerOf(uint256)": "6352211e",
					"renounceOwnership()": "715018a6",
					"safeTransferFrom(address,address,uint256)": "42842e0e",
					"safeTransferFrom(address,address,uint256,bytes)": "b88d4fde",
					"setApprovalForAll(address,bool)": "a22cb465",
					"supportsInterface(bytes4)": "01ffc9a7",
					"symbol()": "95d89b41",
					"tokenURI(uint256)": "c87b56dd",
					"transferFrom(address,address,uint256)": "23b872dd",
					"transferOwnership(address)": "f2fde38b"
				}
			},
			"storageLayout": {
				"storage": [
					{
						"astId": 130,
						"contract": "contracts/NFT_Demo/NFT.sol:Token",
						"label": "_name",
						"offset": 0,
						"slot": "0",
						"type": "t_string_storage"
					},
					{
						"astId": 132,
						"contract": "contracts/NFT_Demo/NFT.sol:Token",
						"label": "_symbol",
						"offset": 0,
						"slot": "1",
						"type": "t_string_storage"
					},
					{
						"astId": 136,
						"contract": "contracts/NFT_Demo/NFT.sol:Token",
						"label": "_owners",
						"offset": 0,
						"slot": "2",
						"type": "t_mapping(t_uint256,t_address)"
					},
					{
						"astId": 140,
						"contract": "contracts/NFT_Demo/NFT.sol:Token",
						"label": "_balances",
						"offset": 0,
						"slot": "3",
						"type": "t_mapping(t_address,t_uint256)"
					},
					{
						"astId": 144,
						"contract": "contracts/NFT_Demo/NFT.sol:Token",
						"label": "_tokenApprovals",
						"offset": 0,
						"slot": "4",
						"type": "t_mapping(t_uint256,t_address)"
					},
					{
						"astId": 150,
						"contract": "contracts/NFT_Demo/NFT.sol:Token",
						"label": "_operatorApprovals",
						"offset": 0,
						"slot": "5",
						"type": "t_mapping(t_address,t_mapping(t_address,t_bool))"
					},
					{
						"astId": 7,
						"contract": "contracts/NFT_Demo/NFT.sol:Token",
						"label": "_owner",
						"offset": 0,
						"slot": "6",
						"type": "t_address"
					},
					{
						"astId": 1705,
						"contract": "contracts/NFT_Demo/NFT.sol:Token",
						"label": "nextId",
						"offset": 0,
						"slot": "7",
						"type": "t_uint256"
					},
					{
						"astId": 1710,
						"contract": "contracts/NFT_Demo/NFT.sol:Token",
						"label": "_pet",
						"offset": 0,
						"slot": "8",
						"type": "t_mapping(t_uint256,t_struct(Pet)1702_storage)"
					},
					{
						"astId": 1714,
						"contract": "contracts/NFT_Demo/NFT.sol:Token",
						"label": "_owners",
						"offset": 0,
						"slot": "9",
						"type": "t_mapping(t_uint256,t_address)"
					}
				],
				"types": {
					"t_address": {
						"encoding": "inplace",
						"label": "address",
						"numberOfBytes": "20"
					},
					"t_bool": {
						"encoding": "inplace",
						"label": "bool",
						"numberOfBytes": "1"
					},
					"t_mapping(t_address,t_bool)": {
						"encoding": "mapping",
						"key": "t_address",
						"label": "mapping(address => bool)",
						"numberOfBytes": "32",
						"value": "t_bool"
					},
					"t_mapping(t_address,t_mapping(t_address,t_bool))": {
						"encoding": "mapping",
						"key": "t_address",
						"label": "mapping(address => mapping(address => bool))",
						"numberOfBytes": "32",
						"value": "t_mapping(t_address,t_bool)"
					},
					"t_mapping(t_address,t_uint256)": {
						"encoding": "mapping",
						"key": "t_address",
						"label": "mapping(address => uint256)",
						"numberOfBytes": "32",
						"value": "t_uint256"
					},
					"t_mapping(t_uint256,t_address)": {
						"encoding": "mapping",
						"key": "t_uint256",
						"label": "mapping(uint256 => address)",
						"numberOfBytes": "32",
						"value": "t_address"
					},
					"t_mapping(t_uint256,t_struct(Pet)1702_storage)": {
						"encoding": "mapping",
						"key": "t_uint256",
						"label": "mapping(uint256 => struct Token.Pet)",
						"numberOfBytes": "32",
						"value": "t_struct(Pet)1702_storage"
					},
					"t_string_storage": {
						"encoding": "bytes",
						"label": "string",
						"numberOfBytes": "32"
					},
					"t_struct(Pet)1702_storage": {
						"encoding": "inplace",
						"label": "struct Token.Pet",
						"members": [
							{
								"astId": 1697,
								"contract": "contracts/NFT_Demo/NFT.sol:Token",
								"label": "damage",
								"offset": 0,
								"slot": "0",
								"type": "t_uint8"
							},
							{
								"astId": 1699,
								"contract": "contracts/NFT_Demo/NFT.sol:Token",
								"label": "magic",
								"offset": 1,
								"slot": "0",
								"type": "t_uint8"
							},
							{
								"astId": 1701,
								"contract": "contracts/NFT_Demo/NFT.sol:Token",
								"label": "level",
								"offset": 2,
								"slot": "0",
								"type": "t_uint8"
							}
						],
						"numberOfBytes": "32"
					},
					"t_uint256": {
						"encoding": "inplace",
						"label": "uint256",
						"numberOfBytes": "32"
					},
					"t_uint8": {
						"encoding": "inplace",
						"label": "uint8",
						"numberOfBytes": "1"
					}
				}
			},
			"userdoc": {
				"kind": "user",
				"methods": {},
				"version": 1
			}
		}
	}
}