{
	"contracts/NFT_Demo/NFT.sol": {
		"SQFItem": {
			"abi": [
				{
					"inputs": [],
					"stateMutability": "nonpayable",
					"type": "constructor"
				},
				{
					"anonymous": false,
					"inputs": [
						{
							"indexed": true,
							"internalType": "address",
							"name": "owner",
							"type": "address"
						},
						{
							"indexed": true,
							"internalType": "address",
							"name": "approved",
							"type": "address"
						},
						{
							"indexed": true,
							"internalType": "uint256",
							"name": "tokenId",
							"type": "uint256"
						}
					],
					"name": "Approval",
					"type": "event"
				},
				{
					"anonymous": false,
					"inputs": [
						{
							"indexed": true,
							"internalType": "address",
							"name": "owner",
							"type": "address"
						},
						{
							"indexed": true,
							"internalType": "address",
							"name": "operator",
							"type": "address"
						},
						{
							"indexed": false,
							"internalType": "bool",
							"name": "approved",
							"type": "bool"
						}
					],
					"name": "ApprovalForAll",
					"type": "event"
				},
				{
					"anonymous": false,
					"inputs": [
						{
							"indexed": true,
							"internalType": "uint256",
							"name": "_tokenId",
							"type": "uint256"
						}
					],
					"name": "NewItem",
					"type": "event"
				},
				{
					"anonymous": false,
					"inputs": [
						{
							"indexed": true,
							"internalType": "address",
							"name": "previousOwner",
							"type": "address"
						},
						{
							"indexed": true,
							"internalType": "address",
							"name": "newOwner",
							"type": "address"
						}
					],
					"name": "OwnershipTransferred",
					"type": "event"
				},
				{
					"anonymous": false,
					"inputs": [
						{
							"indexed": true,
							"internalType": "address",
							"name": "from",
							"type": "address"
						},
						{
							"indexed": true,
							"internalType": "address",
							"name": "to",
							"type": "address"
						},
						{
							"indexed": true,
							"internalType": "uint256",
							"name": "tokenId",
							"type": "uint256"
						}
					],
					"name": "Transfer",
					"type": "event"
				},
				{
					"inputs": [
						{
							"internalType": "address",
							"name": "to",
							"type": "address"
						},
						{
							"internalType": "uint256",
							"name": "tokenId",
							"type": "uint256"
						}
					],
					"name": "approve",
					"outputs": [],
					"stateMutability": "nonpayable",
					"type": "function"
				},
				{
					"inputs": [
						{
							"internalType": "address",
							"name": "owner",
							"type": "address"
						}
					],
					"name": "balanceOf",
					"outputs": [
						{
							"internalType": "uint256",
							"name": "",
							"type": "uint256"
						}
					],
					"stateMutability": "view",
					"type": "function"
				},
				{
					"inputs": [
						{
							"internalType": "uint256",
							"name": "tokenId",
							"type": "uint256"
						}
					],
					"name": "getApproved",
					"outputs": [
						{
							"internalType": "address",
							"name": "",
							"type": "address"
						}
					],
					"stateMutability": "view",
					"type": "function"
				},
				{
					"inputs": [],
					"name": "name",
					"outputs": [
						{
							"internalType": "string",
							"name": "",
							"type": "string"
						}
					],
					"stateMutability": "view",
					"type": "function"
				},
				{
					"inputs": [
						{
							"internalType": "address",
							"name": "_to",
							"type": "address"
						},
						{
							"internalType": "string",
							"name": "tokenURI_",
							"type": "string"
						}
					],
					"name": "newItem",
					"outputs": [],
					"stateMutability": "nonpayable",
					"type": "function"
				},
				{
					"inputs": [],
					"name": "nextId",
					"outputs": [
						{
							"internalType": "uint256",
							"name": "",
							"type": "uint256"
						}
					],
					"stateMutability": "view",
					"type": "function"
				},
				{
					"inputs": [],
					"name": "owner",
					"outputs": [
						{
							"internalType": "address",
							"name": "",
							"type": "address"
						}
					],
					"stateMutability": "view",
					"type": "function"
				},
				{
					"inputs": [
						{
							"internalType": "uint256",
							"name": "tokenId",
							"type": "uint256"
						}
					],
					"name": "ownerOf",
					"outputs": [
						{
							"internalType": "address",
							"name": "",
							"type": "address"
						}
					],
					"stateMutability": "view",
					"type": "function"
				},
				{
					"inputs": [],
					"name": "renounceOwnership",
					"outputs": [],
					"stateMutability": "nonpayable",
					"type": "function"
				},
				{
					"inputs": [
						{
							"internalType": "address",
							"name": "from",
							"type": "address"
						},
						{
							"internalType": "address",
							"name": "to",
							"type": "address"
						},
						{
							"internalType": "uint256",
							"name": "tokenId",
							"type": "uint256"
						}
					],
					"name": "safeTransferFrom",
					"outputs": [],
					"stateMutability": "nonpayable",
					"type": "function"
				},
				{
					"inputs": [
						{
							"internalType": "address",
							"name": "from",
							"type": "address"
						},
						{
							"internalType": "address",
							"name": "to",
							"type": "address"
						},
						{
							"internalType": "uint256",
							"name": "tokenId",
							"type": "uint256"
						},
						{
							"internalType": "bytes",
							"name": "_data",
							"type": "bytes"
						}
					],
					"name": "safeTransferFrom",
					"outputs": [],
					"stateMutability": "nonpayable",
					"type": "function"
				},
				{
					"inputs": [
						{
							"internalType": "string",
							"name": "baseURI_",
							"type": "string"
						}
					],
					"name": "setBaseURI",
					"outputs": [],
					"stateMutability": "nonpayable",
					"type": "function"
				},
				{
					"inputs": [],
					"name": "symbol",
					"outputs": [
						{
							"internalType": "string",
							"name": "",
							"type": "string"
						}
					],
					"stateMutability": "view",
					"type": "function"
				},
				{
					"inputs": [
						{
							"internalType": "uint256",
							"name": "tokenId",
							"type": "uint256"
						}
					],
					"name": "tokenURI",
					"outputs": [
						{
							"internalType": "string",
							"name": "",
							"type": "string"
						}
					],
					"stateMutability": "view",
					"type": "function"
				},
				{
					"inputs": [
						{
							"internalType": "address",
							"name": "from",
							"type": "address"
						},
						{
							"internalType": "address",
							"name": "to",
							"type": "address"
						},
						{
							"internalType": "uint256",
							"name": "tokenId",
							"type": "uint256"
						}
					],
					"name": "transferFrom",
					"outputs": [],
					"stateMutability": "nonpayable",
					"type": "function"
				},
				{
					"inputs": [
						{
							"internalType": "address",
							"name": "newOwner",
							"type": "address"
						}
					],
					"name": "transferOwnership",
					"outputs": [],
					"stateMutability": "nonpayable",
					"type": "function"
				}
			],
			"devdoc": {
				"kind": "dev",
				"methods": {},
				"version": 1
			},
			"evm": {
				"assembly": "    /* \"contracts/NFT_Demo/NFT.sol\":17756:19639  contract SQFItem is ERC721 {... */\n  mstore(0x40, 0x80)\n    /* \"contracts/NFT_Demo/NFT.sol\":17934:17935  1 */\n  0x01\n    /* \"contracts/NFT_Demo/NFT.sol\":17910:17935  uint256 public nextId = 1 */\n  0x0a\n  sstore\n    /* \"contracts/NFT_Demo/NFT.sol\":18042:18090  constructor() ERC721(\"SQFITEM\", \"SQFI\") {... */\n  callvalue\n  dup1\n  iszero\n  tag_1\n  jumpi\n  0x00\n  dup1\n  revert\ntag_1:\n  pop\n    /* \"contracts/NFT_Demo/NFT.sol\":9062:9175  constructor(string memory name_, string memory symbol_) {... */\n  mload(0x40)\n  dup1\n  0x40\n  add\n  0x40\n  mstore\n  dup1\n  0x07\n  dup2\n  mstore\n  0x20\n  add\n  0x5351464954454d00000000000000000000000000000000000000000000000000\n  dup2\n  mstore\n  pop\n  mload(0x40)\n  dup1\n  0x40\n  add\n  0x40\n  mstore\n  dup1\n  0x04\n  dup2\n  mstore\n  0x20\n  add\n  0x5351464900000000000000000000000000000000000000000000000000000000\n  dup2\n  mstore\n  pop\n    /* \"contracts/NFT_Demo/NFT.sol\":6281:6313  _transferOwnership(_msgSender()) */\n  tag_6\n    /* \"contracts/NFT_Demo/NFT.sol\":6300:6312  _msgSender() */\n  tag_7\n    /* \"contracts/NFT_Demo/NFT.sol\":6300:6310  _msgSender */\n  shl(0x20, tag_8)\n    /* \"contracts/NFT_Demo/NFT.sol\":6300:6312  _msgSender() */\n  0x20\n  shr\n  jump\t// in\ntag_7:\n    /* \"contracts/NFT_Demo/NFT.sol\":6281:6299  _transferOwnership */\n  shl(0x20, tag_9)\n    /* \"contracts/NFT_Demo/NFT.sol\":6281:6313  _transferOwnership(_msgSender()) */\n  0x20\n  shr\n  jump\t// in\ntag_6:\n    /* \"contracts/NFT_Demo/NFT.sol\":9136:9141  name_ */\n  dup2\n    /* \"contracts/NFT_Demo/NFT.sol\":9128:9133  _name */\n  0x06\n    /* \"contracts/NFT_Demo/NFT.sol\":9128:9141  _name = name_ */\n  swap1\n  dup1\n  mload\n  swap1\n  0x20\n  add\n  swap1\n  tag_11\n  swap3\n  swap2\n  swap1\n  tag_12\n  jump\t// in\ntag_11:\n  pop\n    /* \"contracts/NFT_Demo/NFT.sol\":9161:9168  symbol_ */\n  dup1\n    /* \"contracts/NFT_Demo/NFT.sol\":9151:9158  _symbol */\n  0x07\n    /* \"contracts/NFT_Demo/NFT.sol\":9151:9168  _symbol = symbol_ */\n  swap1\n  dup1\n  mload\n  swap1\n  0x20\n  add\n  swap1\n  tag_13\n  swap3\n  swap2\n  swap1\n  tag_12\n  jump\t// in\ntag_13:\n  pop\n    /* \"contracts/NFT_Demo/NFT.sol\":9062:9175  constructor(string memory name_, string memory symbol_) {... */\n  pop\n  pop\n    /* \"contracts/NFT_Demo/NFT.sol\":17756:19639  contract SQFItem is ERC721 {... */\n  jump(tag_15)\n    /* \"contracts/NFT_Demo/NFT.sol\":99:195  function _msgSender() internal view virtual returns (address) {... */\ntag_8:\n    /* \"contracts/NFT_Demo/NFT.sol\":152:159  address */\n  0x00\n    /* \"contracts/NFT_Demo/NFT.sol\":178:188  msg.sender */\n  caller\n    /* \"contracts/NFT_Demo/NFT.sol\":171:188  return msg.sender */\n  swap1\n  pop\n    /* \"contracts/NFT_Demo/NFT.sol\":99:195  function _msgSender() internal view virtual returns (address) {... */\n  swap1\n  jump\t// out\n    /* \"contracts/NFT_Demo/NFT.sol\":6885:7072  function _transferOwnership(address newOwner) internal virtual {... */\ntag_9:\n    /* \"contracts/NFT_Demo/NFT.sol\":6958:6974  address oldOwner */\n  0x00\n    /* \"contracts/NFT_Demo/NFT.sol\":6977:6983  _owner */\n  dup1\n  0x00\n  swap1\n  sload\n  swap1\n  0x0100\n  exp\n  swap1\n  div\n  0xffffffffffffffffffffffffffffffffffffffff\n  and\n    /* \"contracts/NFT_Demo/NFT.sol\":6958:6983  address oldOwner = _owner */\n  swap1\n  pop\n    /* \"contracts/NFT_Demo/NFT.sol\":7002:7010  newOwner */\n  dup2\n    /* \"contracts/NFT_Demo/NFT.sol\":6993:6999  _owner */\n  0x00\n  dup1\n    /* \"contracts/NFT_Demo/NFT.sol\":6993:7010  _owner = newOwner */\n  0x0100\n  exp\n  dup2\n  sload\n  dup2\n  0xffffffffffffffffffffffffffffffffffffffff\n  mul\n  not\n  and\n  swap1\n  dup4\n  0xffffffffffffffffffffffffffffffffffffffff\n  and\n  mul\n  or\n  swap1\n  sstore\n  pop\n    /* \"contracts/NFT_Demo/NFT.sol\":7056:7064  newOwner */\n  dup2\n    /* \"contracts/NFT_Demo/NFT.sol\":7025:7065  OwnershipTransferred(oldOwner, newOwner) */\n  0xffffffffffffffffffffffffffffffffffffffff\n  and\n    /* \"contracts/NFT_Demo/NFT.sol\":7046:7054  oldOwner */\n  dup2\n    /* \"contracts/NFT_Demo/NFT.sol\":7025:7065  OwnershipTransferred(oldOwner, newOwner) */\n  0xffffffffffffffffffffffffffffffffffffffff\n  and\n  0x8be0079c531659141344cd1fd0a4f28419497f9722a3daafe3b4186f6b6457e0\n  mload(0x40)\n  mload(0x40)\n  dup1\n  swap2\n  sub\n  swap1\n  log3\n    /* \"contracts/NFT_Demo/NFT.sol\":6948:7072  {... */\n  pop\n    /* \"contracts/NFT_Demo/NFT.sol\":6885:7072  function _transferOwnership(address newOwner) internal virtual {... */\n  pop\n  jump\t// out\n    /* \"contracts/NFT_Demo/NFT.sol\":17756:19639  contract SQFItem is ERC721 {... */\ntag_12:\n  dup3\n  dup1\n  sload\n  tag_18\n  swap1\n  tag_19\n  jump\t// in\ntag_18:\n  swap1\n  0x00\n  mstore\n  keccak256(0x00, 0x20)\n  swap1\n  0x1f\n  add\n  0x20\n  swap1\n  div\n  dup2\n  add\n  swap3\n  dup3\n  tag_21\n  jumpi\n  0x00\n  dup6\n  sstore\n  jump(tag_20)\ntag_21:\n  dup3\n  0x1f\n  lt\n  tag_22\n  jumpi\n  dup1\n  mload\n  not(0xff)\n  and\n  dup4\n  dup1\n  add\n  or\n  dup6\n  sstore\n  jump(tag_20)\ntag_22:\n  dup3\n  dup1\n  add\n  0x01\n  add\n  dup6\n  sstore\n  dup3\n  iszero\n  tag_20\n  jumpi\n  swap2\n  dup3\n  add\ntag_23:\n  dup3\n  dup2\n  gt\n  iszero\n  tag_24\n  jumpi\n  dup3\n  mload\n  dup3\n  sstore\n  swap2\n  0x20\n  add\n  swap2\n  swap1\n  0x01\n  add\n  swap1\n  jump(tag_23)\ntag_24:\ntag_20:\n  pop\n  swap1\n  pop\n  tag_25\n  swap2\n  swap1\n  tag_26\n  jump\t// in\ntag_25:\n  pop\n  swap1\n  jump\t// out\ntag_26:\ntag_27:\n  dup1\n  dup3\n  gt\n  iszero\n  tag_28\n  jumpi\n  0x00\n  dup2\n  0x00\n  swap1\n  sstore\n  pop\n  0x01\n  add\n  jump(tag_27)\ntag_28:\n  pop\n  swap1\n  jump\t// out\n    /* \"#utility.yul\":7:187   */\ntag_29:\n    /* \"#utility.yul\":55:132   */\n  0x4e487b7100000000000000000000000000000000000000000000000000000000\n    /* \"#utility.yul\":52:53   */\n  0x00\n    /* \"#utility.yul\":45:133   */\n  mstore\n    /* \"#utility.yul\":152:156   */\n  0x22\n    /* \"#utility.yul\":149:150   */\n  0x04\n    /* \"#utility.yul\":142:157   */\n  mstore\n    /* \"#utility.yul\":176:180   */\n  0x24\n    /* \"#utility.yul\":173:174   */\n  0x00\n    /* \"#utility.yul\":166:181   */\n  revert\n    /* \"#utility.yul\":193:513   */\ntag_19:\n    /* \"#utility.yul\":237:243   */\n  0x00\n    /* \"#utility.yul\":274:275   */\n  0x02\n    /* \"#utility.yul\":268:272   */\n  dup3\n    /* \"#utility.yul\":264:276   */\n  div\n    /* \"#utility.yul\":254:276   */\n  swap1\n  pop\n    /* \"#utility.yul\":321:322   */\n  0x01\n    /* \"#utility.yul\":315:319   */\n  dup3\n    /* \"#utility.yul\":311:323   */\n  and\n    /* \"#utility.yul\":342:360   */\n  dup1\n    /* \"#utility.yul\":332:413   */\n  tag_33\n  jumpi\n    /* \"#utility.yul\":398:402   */\n  0x7f\n    /* \"#utility.yul\":390:396   */\n  dup3\n    /* \"#utility.yul\":386:403   */\n  and\n    /* \"#utility.yul\":376:403   */\n  swap2\n  pop\n    /* \"#utility.yul\":332:413   */\ntag_33:\n    /* \"#utility.yul\":460:462   */\n  0x20\n    /* \"#utility.yul\":452:458   */\n  dup3\n    /* \"#utility.yul\":449:463   */\n  lt\n    /* \"#utility.yul\":429:447   */\n  dup2\n    /* \"#utility.yul\":426:464   */\n  sub\n    /* \"#utility.yul\":423:507   */\n  tag_34\n  jumpi\n    /* \"#utility.yul\":479:497   */\n  tag_35\n  tag_29\n  jump\t// in\ntag_35:\n    /* \"#utility.yul\":423:507   */\ntag_34:\n    /* \"#utility.yul\":244:513   */\n  pop\n    /* \"#utility.yul\":193:513   */\n  swap2\n  swap1\n  pop\n  jump\t// out\n    /* \"contracts/NFT_Demo/NFT.sol\":17756:19639  contract SQFItem is ERC721 {... */\ntag_15:\n  dataSize(sub_0)\n  dup1\n  dataOffset(sub_0)\n  0x00\n  codecopy\n  0x00\n  return\nstop\n\nsub_0: assembly {\n        /* \"contracts/NFT_Demo/NFT.sol\":17756:19639  contract SQFItem is ERC721 {... */\n      mstore(0x40, 0x80)\n      callvalue\n      dup1\n      iszero\n      tag_1\n      jumpi\n      0x00\n      dup1\n      revert\n    tag_1:\n      pop\n      jumpi(tag_2, lt(calldatasize, 0x04))\n      shr(0xe0, calldataload(0x00))\n      dup1\n      0x70a08231\n      gt\n      tag_19\n      jumpi\n      dup1\n      0x95d89b41\n      gt\n      tag_20\n      jumpi\n      dup1\n      0x95d89b41\n      eq\n      tag_15\n      jumpi\n      dup1\n      0xb88d4fde\n      eq\n      tag_16\n      jumpi\n      dup1\n      0xc87b56dd\n      eq\n      tag_17\n      jumpi\n      dup1\n      0xf2fde38b\n      eq\n      tag_18\n      jumpi\n      jump(tag_2)\n    tag_20:\n      dup1\n      0x70a08231\n      eq\n      tag_11\n      jumpi\n      dup1\n      0x715018a6\n      eq\n      tag_12\n      jumpi\n      dup1\n      0x89f05761\n      eq\n      tag_13\n      jumpi\n      dup1\n      0x8da5cb5b\n      eq\n      tag_14\n      jumpi\n      jump(tag_2)\n    tag_19:\n      dup1\n      0x42842e0e\n      gt\n      tag_21\n      jumpi\n      dup1\n      0x42842e0e\n      eq\n      tag_7\n      jumpi\n      dup1\n      0x55f804b3\n      eq\n      tag_8\n      jumpi\n      dup1\n      0x61b8ce8c\n      eq\n      tag_9\n      jumpi\n      dup1\n      0x6352211e\n      eq\n      tag_10\n      jumpi\n      jump(tag_2)\n    tag_21:\n      dup1\n      0x06fdde03\n      eq\n      tag_3\n      jumpi\n      dup1\n      0x081812fc\n      eq\n      tag_4\n      jumpi\n      dup1\n      0x095ea7b3\n      eq\n      tag_5\n      jumpi\n      dup1\n      0x23b872dd\n      eq\n      tag_6\n      jumpi\n    tag_2:\n      0x00\n      dup1\n      revert\n        /* \"contracts/NFT_Demo/NFT.sol\":10246:10344  function name() public view virtual override returns (string memory) {... */\n    tag_3:\n      tag_22\n      tag_23\n      jump\t// in\n    tag_22:\n      mload(0x40)\n      tag_24\n      swap2\n      swap1\n      tag_25\n      jump\t// in\n    tag_24:\n      mload(0x40)\n      dup1\n      swap2\n      sub\n      swap1\n      return\n        /* \"contracts/NFT_Demo/NFT.sol\":10922:11217  function getApproved(uint256 tokenId)... */\n    tag_4:\n      tag_26\n      0x04\n      dup1\n      calldatasize\n      sub\n      dup2\n      add\n      swap1\n      tag_27\n      swap2\n      swap1\n      tag_28\n      jump\t// in\n    tag_27:\n      tag_29\n      jump\t// in\n    tag_26:\n      mload(0x40)\n      tag_30\n      swap2\n      swap1\n      tag_31\n      jump\t// in\n    tag_30:\n      mload(0x40)\n      dup1\n      swap2\n      sub\n      swap1\n      return\n        /* \"contracts/NFT_Demo/NFT.sol\":10556:10916  function approve(address to, uint256 tokenId) public virtual override {... */\n    tag_5:\n      tag_32\n      0x04\n      dup1\n      calldatasize\n      sub\n      dup2\n      add\n      swap1\n      tag_33\n      swap2\n      swap1\n      tag_34\n      jump\t// in\n    tag_33:\n      tag_35\n      jump\t// in\n    tag_32:\n      stop\n        /* \"contracts/NFT_Demo/NFT.sol\":11223:11535  function transferFrom(... */\n    tag_6:\n      tag_36\n      0x04\n      dup1\n      calldatasize\n      sub\n      dup2\n      add\n      swap1\n      tag_37\n      swap2\n      swap1\n      tag_38\n      jump\t// in\n    tag_37:\n      tag_39\n      jump\t// in\n    tag_36:\n      stop\n        /* \"contracts/NFT_Demo/NFT.sol\":11541:11720  function safeTransferFrom(... */\n    tag_7:\n      tag_40\n      0x04\n      dup1\n      calldatasize\n      sub\n      dup2\n      add\n      swap1\n      tag_41\n      swap2\n      swap1\n      tag_38\n      jump\t// in\n    tag_41:\n      tag_42\n      jump\t// in\n    tag_40:\n      stop\n        /* \"contracts/NFT_Demo/NFT.sol\":18096:18203  function setBaseURI(string memory baseURI_) external onlyOwner {... */\n    tag_8:\n      tag_43\n      0x04\n      dup1\n      calldatasize\n      sub\n      dup2\n      add\n      swap1\n      tag_44\n      swap2\n      swap1\n      tag_45\n      jump\t// in\n    tag_44:\n      tag_46\n      jump\t// in\n    tag_43:\n      stop\n        /* \"contracts/NFT_Demo/NFT.sol\":17910:17935  uint256 public nextId = 1 */\n    tag_9:\n      tag_47\n      tag_48\n      jump\t// in\n    tag_47:\n      mload(0x40)\n      tag_49\n      swap2\n      swap1\n      tag_50\n      jump\t// in\n    tag_49:\n      mload(0x40)\n      dup1\n      swap2\n      sub\n      swap1\n      return\n        /* \"contracts/NFT_Demo/NFT.sol\":9927:10240  function ownerOf(uint256 tokenId)... */\n    tag_10:\n      tag_51\n      0x04\n      dup1\n      calldatasize\n      sub\n      dup2\n      add\n      swap1\n      tag_52\n      swap2\n      swap1\n      tag_28\n      jump\t// in\n    tag_52:\n      tag_53\n      jump\t// in\n    tag_51:\n      mload(0x40)\n      tag_54\n      swap2\n      swap1\n      tag_31\n      jump\t// in\n    tag_54:\n      mload(0x40)\n      dup1\n      swap2\n      sub\n      swap1\n      return\n        /* \"contracts/NFT_Demo/NFT.sol\":9638:9921  function balanceOf(address owner)... */\n    tag_11:\n      tag_55\n      0x04\n      dup1\n      calldatasize\n      sub\n      dup2\n      add\n      swap1\n      tag_56\n      swap2\n      swap1\n      tag_57\n      jump\t// in\n    tag_56:\n      tag_58\n      jump\t// in\n    tag_55:\n      mload(0x40)\n      tag_59\n      swap2\n      swap1\n      tag_50\n      jump\t// in\n    tag_59:\n      mload(0x40)\n      dup1\n      swap2\n      sub\n      swap1\n      return\n        /* \"contracts/NFT_Demo/NFT.sol\":6540:6641  function renounceOwnership() public virtual onlyOwner {... */\n    tag_12:\n      tag_60\n      tag_61\n      jump\t// in\n    tag_60:\n      stop\n        /* \"contracts/NFT_Demo/NFT.sol\":19463:19637  function newItem(address _to, string memory tokenURI_) external onlyOwner {... */\n    tag_13:\n      tag_62\n      0x04\n      dup1\n      calldatasize\n      sub\n      dup2\n      add\n      swap1\n      tag_63\n      swap2\n      swap1\n      tag_64\n      jump\t// in\n    tag_63:\n      tag_65\n      jump\t// in\n    tag_62:\n      stop\n        /* \"contracts/NFT_Demo/NFT.sol\":6326:6411  function owner() public view virtual returns (address) {... */\n    tag_14:\n      tag_66\n      tag_67\n      jump\t// in\n    tag_66:\n      mload(0x40)\n      tag_68\n      swap2\n      swap1\n      tag_31\n      jump\t// in\n    tag_68:\n      mload(0x40)\n      dup1\n      swap2\n      sub\n      swap1\n      return\n        /* \"contracts/NFT_Demo/NFT.sol\":10350:10452  function symbol() public view virtual override returns (string memory) {... */\n    tag_15:\n      tag_69\n      tag_70\n      jump\t// in\n    tag_69:\n      mload(0x40)\n      tag_71\n      swap2\n      swap1\n      tag_25\n      jump\t// in\n    tag_71:\n      mload(0x40)\n      dup1\n      swap2\n      sub\n      swap1\n      return\n        /* \"contracts/NFT_Demo/NFT.sol\":11726:12080  function safeTransferFrom(... */\n    tag_16:\n      tag_72\n      0x04\n      dup1\n      calldatasize\n      sub\n      dup2\n      add\n      swap1\n      tag_73\n      swap2\n      swap1\n      tag_74\n      jump\t// in\n    tag_73:\n      tag_75\n      jump\t// in\n    tag_72:\n      stop\n        /* \"contracts/NFT_Demo/NFT.sol\":18602:19457  function tokenURI(uint256 tokenId)... */\n    tag_17:\n      tag_76\n      0x04\n      dup1\n      calldatasize\n      sub\n      dup2\n      add\n      swap1\n      tag_77\n      swap2\n      swap1\n      tag_28\n      jump\t// in\n    tag_77:\n      tag_78\n      jump\t// in\n    tag_76:\n      mload(0x40)\n      tag_79\n      swap2\n      swap1\n      tag_25\n      jump\t// in\n    tag_79:\n      mload(0x40)\n      dup1\n      swap2\n      sub\n      swap1\n      return\n        /* \"contracts/NFT_Demo/NFT.sol\":6647:6879  function transferOwnership(address newOwner) public virtual onlyOwner {... */\n    tag_18:\n      tag_80\n      0x04\n      dup1\n      calldatasize\n      sub\n      dup2\n      add\n      swap1\n      tag_81\n      swap2\n      swap1\n      tag_57\n      jump\t// in\n    tag_81:\n      tag_82\n      jump\t// in\n    tag_80:\n      stop\n        /* \"contracts/NFT_Demo/NFT.sol\":10246:10344  function name() public view virtual override returns (string memory) {... */\n    tag_23:\n        /* \"contracts/NFT_Demo/NFT.sol\":10300:10313  string memory */\n      0x60\n        /* \"contracts/NFT_Demo/NFT.sol\":10332:10337  _name */\n      0x06\n        /* \"contracts/NFT_Demo/NFT.sol\":10325:10337  return _name */\n      dup1\n      sload\n      tag_84\n      swap1\n      tag_85\n      jump\t// in\n    tag_84:\n      dup1\n      0x1f\n      add\n      0x20\n      dup1\n      swap2\n      div\n      mul\n      0x20\n      add\n      mload(0x40)\n      swap1\n      dup2\n      add\n      0x40\n      mstore\n      dup1\n      swap3\n      swap2\n      swap1\n      dup2\n      dup2\n      mstore\n      0x20\n      add\n      dup3\n      dup1\n      sload\n      tag_86\n      swap1\n      tag_85\n      jump\t// in\n    tag_86:\n      dup1\n      iszero\n      tag_87\n      jumpi\n      dup1\n      0x1f\n      lt\n      tag_88\n      jumpi\n      0x0100\n      dup1\n      dup4\n      sload\n      div\n      mul\n      dup4\n      mstore\n      swap2\n      0x20\n      add\n      swap2\n      jump(tag_87)\n    tag_88:\n      dup3\n      add\n      swap2\n      swap1\n      0x00\n      mstore\n      keccak256(0x00, 0x20)\n      swap1\n    tag_89:\n      dup2\n      sload\n      dup2\n      mstore\n      swap1\n      0x01\n      add\n      swap1\n      0x20\n      add\n      dup1\n      dup4\n      gt\n      tag_89\n      jumpi\n      dup3\n      swap1\n      sub\n      0x1f\n      and\n      dup3\n      add\n      swap2\n    tag_87:\n      pop\n      pop\n      pop\n      pop\n      pop\n      swap1\n      pop\n        /* \"contracts/NFT_Demo/NFT.sol\":10246:10344  function name() public view virtual override returns (string memory) {... */\n      swap1\n      jump\t// out\n        /* \"contracts/NFT_Demo/NFT.sol\":10922:11217  function getApproved(uint256 tokenId)... */\n    tag_29:\n        /* \"contracts/NFT_Demo/NFT.sol\":11038:11045  address */\n      0x00\n        /* \"contracts/NFT_Demo/NFT.sol\":11082:11098  _exists(tokenId) */\n      tag_91\n        /* \"contracts/NFT_Demo/NFT.sol\":11090:11097  tokenId */\n      dup3\n        /* \"contracts/NFT_Demo/NFT.sol\":11082:11089  _exists */\n      tag_92\n        /* \"contracts/NFT_Demo/NFT.sol\":11082:11098  _exists(tokenId) */\n      jump\t// in\n    tag_91:\n        /* \"contracts/NFT_Demo/NFT.sol\":11061:11168  require(... */\n      tag_93\n      jumpi\n      mload(0x40)\n      0x08c379a000000000000000000000000000000000000000000000000000000000\n      dup2\n      mstore\n      0x04\n      add\n      tag_94\n      swap1\n      tag_95\n      jump\t// in\n    tag_94:\n      mload(0x40)\n      dup1\n      swap2\n      sub\n      swap1\n      revert\n    tag_93:\n        /* \"contracts/NFT_Demo/NFT.sol\":11186:11201  _tokenApprovals */\n      0x04\n        /* \"contracts/NFT_Demo/NFT.sol\":11186:11210  _tokenApprovals[tokenId] */\n      0x00\n        /* \"contracts/NFT_Demo/NFT.sol\":11202:11209  tokenId */\n      dup4\n        /* \"contracts/NFT_Demo/NFT.sol\":11186:11210  _tokenApprovals[tokenId] */\n      dup2\n      mstore\n      0x20\n      add\n      swap1\n      dup2\n      mstore\n      0x20\n      add\n      0x00\n      keccak256\n      0x00\n      swap1\n      sload\n      swap1\n      0x0100\n      exp\n      swap1\n      div\n      0xffffffffffffffffffffffffffffffffffffffff\n      and\n        /* \"contracts/NFT_Demo/NFT.sol\":11179:11210  return _tokenApprovals[tokenId] */\n      swap1\n      pop\n        /* \"contracts/NFT_Demo/NFT.sol\":10922:11217  function getApproved(uint256 tokenId)... */\n      swap2\n      swap1\n      pop\n      jump\t// out\n        /* \"contracts/NFT_Demo/NFT.sol\":10556:10916  function approve(address to, uint256 tokenId) public virtual override {... */\n    tag_35:\n        /* \"contracts/NFT_Demo/NFT.sol\":10636:10649  address owner */\n      0x00\n        /* \"contracts/NFT_Demo/NFT.sol\":10652:10675  ERC721.ownerOf(tokenId) */\n      tag_97\n        /* \"contracts/NFT_Demo/NFT.sol\":10667:10674  tokenId */\n      dup3\n        /* \"contracts/NFT_Demo/NFT.sol\":10652:10666  ERC721.ownerOf */\n      tag_53\n        /* \"contracts/NFT_Demo/NFT.sol\":10652:10675  ERC721.ownerOf(tokenId) */\n      jump\t// in\n    tag_97:\n        /* \"contracts/NFT_Demo/NFT.sol\":10636:10675  address owner = ERC721.ownerOf(tokenId) */\n      swap1\n      pop\n        /* \"contracts/NFT_Demo/NFT.sol\":10699:10704  owner */\n      dup1\n        /* \"contracts/NFT_Demo/NFT.sol\":10693:10704  to != owner */\n      0xffffffffffffffffffffffffffffffffffffffff\n      and\n        /* \"contracts/NFT_Demo/NFT.sol\":10693:10695  to */\n      dup4\n        /* \"contracts/NFT_Demo/NFT.sol\":10693:10704  to != owner */\n      0xffffffffffffffffffffffffffffffffffffffff\n      and\n      sub\n        /* \"contracts/NFT_Demo/NFT.sol\":10685:10742  require(to != owner, \"ERC721: approval to current owner\") */\n      tag_98\n      jumpi\n      mload(0x40)\n      0x08c379a000000000000000000000000000000000000000000000000000000000\n      dup2\n      mstore\n      0x04\n      add\n      tag_99\n      swap1\n      tag_100\n      jump\t// in\n    tag_99:\n      mload(0x40)\n      dup1\n      swap2\n      sub\n      swap1\n      revert\n    tag_98:\n        /* \"contracts/NFT_Demo/NFT.sol\":10790:10795  owner */\n      dup1\n        /* \"contracts/NFT_Demo/NFT.sol\":10774:10795  _msgSender() == owner */\n      0xffffffffffffffffffffffffffffffffffffffff\n      and\n        /* \"contracts/NFT_Demo/NFT.sol\":10774:10786  _msgSender() */\n      tag_101\n        /* \"contracts/NFT_Demo/NFT.sol\":10774:10784  _msgSender */\n      tag_102\n        /* \"contracts/NFT_Demo/NFT.sol\":10774:10786  _msgSender() */\n      jump\t// in\n    tag_101:\n        /* \"contracts/NFT_Demo/NFT.sol\":10774:10795  _msgSender() == owner */\n      0xffffffffffffffffffffffffffffffffffffffff\n      and\n      eq\n        /* \"contracts/NFT_Demo/NFT.sol\":10753:10877  require(... */\n      tag_103\n      jumpi\n      mload(0x40)\n      0x08c379a000000000000000000000000000000000000000000000000000000000\n      dup2\n      mstore\n      0x04\n      add\n      tag_104\n      swap1\n      tag_105\n      jump\t// in\n    tag_104:\n      mload(0x40)\n      dup1\n      swap2\n      sub\n      swap1\n      revert\n    tag_103:\n        /* \"contracts/NFT_Demo/NFT.sol\":10888:10909  _approve(to, tokenId) */\n      tag_106\n        /* \"contracts/NFT_Demo/NFT.sol\":10897:10899  to */\n      dup4\n        /* \"contracts/NFT_Demo/NFT.sol\":10901:10908  tokenId */\n      dup4\n        /* \"contracts/NFT_Demo/NFT.sol\":10888:10896  _approve */\n      tag_107\n        /* \"contracts/NFT_Demo/NFT.sol\":10888:10909  _approve(to, tokenId) */\n      jump\t// in\n    tag_106:\n        /* \"contracts/NFT_Demo/NFT.sol\":10626:10916  {... */\n      pop\n        /* \"contracts/NFT_Demo/NFT.sol\":10556:10916  function approve(address to, uint256 tokenId) public virtual override {... */\n      pop\n      pop\n      jump\t// out\n        /* \"contracts/NFT_Demo/NFT.sol\":11223:11535  function transferFrom(... */\n    tag_39:\n        /* \"contracts/NFT_Demo/NFT.sol\":11373:11414  _isApprovedOrOwner(_msgSender(), tokenId) */\n      tag_109\n        /* \"contracts/NFT_Demo/NFT.sol\":11392:11404  _msgSender() */\n      tag_110\n        /* \"contracts/NFT_Demo/NFT.sol\":11392:11402  _msgSender */\n      tag_102\n        /* \"contracts/NFT_Demo/NFT.sol\":11392:11404  _msgSender() */\n      jump\t// in\n    tag_110:\n        /* \"contracts/NFT_Demo/NFT.sol\":11406:11413  tokenId */\n      dup3\n        /* \"contracts/NFT_Demo/NFT.sol\":11373:11391  _isApprovedOrOwner */\n      tag_111\n        /* \"contracts/NFT_Demo/NFT.sol\":11373:11414  _isApprovedOrOwner(_msgSender(), tokenId) */\n      jump\t// in\n    tag_109:\n        /* \"contracts/NFT_Demo/NFT.sol\":11352:11489  require(... */\n      tag_112\n      jumpi\n      mload(0x40)\n      0x08c379a000000000000000000000000000000000000000000000000000000000\n      dup2\n      mstore\n      0x04\n      add\n      tag_113\n      swap1\n      tag_114\n      jump\t// in\n    tag_113:\n      mload(0x40)\n      dup1\n      swap2\n      sub\n      swap1\n      revert\n    tag_112:\n        /* \"contracts/NFT_Demo/NFT.sol\":11500:11528  _transfer(from, to, tokenId) */\n      tag_115\n        /* \"contracts/NFT_Demo/NFT.sol\":11510:11514  from */\n      dup4\n        /* \"contracts/NFT_Demo/NFT.sol\":11516:11518  to */\n      dup4\n        /* \"contracts/NFT_Demo/NFT.sol\":11520:11527  tokenId */\n      dup4\n        /* \"contracts/NFT_Demo/NFT.sol\":11500:11509  _transfer */\n      tag_116\n        /* \"contracts/NFT_Demo/NFT.sol\":11500:11528  _transfer(from, to, tokenId) */\n      jump\t// in\n    tag_115:\n        /* \"contracts/NFT_Demo/NFT.sol\":11223:11535  function transferFrom(... */\n      pop\n      pop\n      pop\n      jump\t// out\n        /* \"contracts/NFT_Demo/NFT.sol\":11541:11720  function safeTransferFrom(... */\n    tag_42:\n        /* \"contracts/NFT_Demo/NFT.sol\":11674:11713  safeTransferFrom(from, to, tokenId, \"\") */\n      tag_118\n        /* \"contracts/NFT_Demo/NFT.sol\":11691:11695  from */\n      dup4\n        /* \"contracts/NFT_Demo/NFT.sol\":11697:11699  to */\n      dup4\n        /* \"contracts/NFT_Demo/NFT.sol\":11701:11708  tokenId */\n      dup4\n        /* \"contracts/NFT_Demo/NFT.sol\":11674:11713  safeTransferFrom(from, to, tokenId, \"\") */\n      mload(0x40)\n      dup1\n      0x20\n      add\n      0x40\n      mstore\n      dup1\n      0x00\n      dup2\n      mstore\n      pop\n        /* \"contracts/NFT_Demo/NFT.sol\":11674:11690  safeTransferFrom */\n      tag_75\n        /* \"contracts/NFT_Demo/NFT.sol\":11674:11713  safeTransferFrom(from, to, tokenId, \"\") */\n      jump\t// in\n    tag_118:\n        /* \"contracts/NFT_Demo/NFT.sol\":11541:11720  function safeTransferFrom(... */\n      pop\n      pop\n      pop\n      jump\t// out\n        /* \"contracts/NFT_Demo/NFT.sol\":18096:18203  function setBaseURI(string memory baseURI_) external onlyOwner {... */\n    tag_46:\n        /* \"contracts/NFT_Demo/NFT.sol\":6467:6479  _msgSender() */\n      tag_120\n        /* \"contracts/NFT_Demo/NFT.sol\":6467:6477  _msgSender */\n      tag_102\n        /* \"contracts/NFT_Demo/NFT.sol\":6467:6479  _msgSender() */\n      jump\t// in\n    tag_120:\n        /* \"contracts/NFT_Demo/NFT.sol\":6456:6479  owner() == _msgSender() */\n      0xffffffffffffffffffffffffffffffffffffffff\n      and\n        /* \"contracts/NFT_Demo/NFT.sol\":6456:6463  owner() */\n      tag_121\n        /* \"contracts/NFT_Demo/NFT.sol\":6456:6461  owner */\n      tag_67\n        /* \"contracts/NFT_Demo/NFT.sol\":6456:6463  owner() */\n      jump\t// in\n    tag_121:\n        /* \"contracts/NFT_Demo/NFT.sol\":6456:6479  owner() == _msgSender() */\n      0xffffffffffffffffffffffffffffffffffffffff\n      and\n      eq\n        /* \"contracts/NFT_Demo/NFT.sol\":6448:6516  require(owner() == _msgSender(), \"Ownable: caller is not the owner\") */\n      tag_122\n      jumpi\n      mload(0x40)\n      0x08c379a000000000000000000000000000000000000000000000000000000000\n      dup2\n      mstore\n      0x04\n      add\n      tag_123\n      swap1\n      tag_124\n      jump\t// in\n    tag_123:\n      mload(0x40)\n      dup1\n      swap2\n      sub\n      swap1\n      revert\n    tag_122:\n        /* \"contracts/NFT_Demo/NFT.sol\":18188:18196  baseURI_ */\n      dup1\n        /* \"contracts/NFT_Demo/NFT.sol\":18169:18185  _baseURIextended */\n      0x09\n        /* \"contracts/NFT_Demo/NFT.sol\":18169:18196  _baseURIextended = baseURI_ */\n      swap1\n      dup1\n      mload\n      swap1\n      0x20\n      add\n      swap1\n      tag_126\n      swap3\n      swap2\n      swap1\n      tag_127\n      jump\t// in\n    tag_126:\n      pop\n        /* \"contracts/NFT_Demo/NFT.sol\":18096:18203  function setBaseURI(string memory baseURI_) external onlyOwner {... */\n      pop\n      jump\t// out\n        /* \"contracts/NFT_Demo/NFT.sol\":17910:17935  uint256 public nextId = 1 */\n    tag_48:\n      sload(0x0a)\n      dup2\n      jump\t// out\n        /* \"contracts/NFT_Demo/NFT.sol\":9927:10240  function ownerOf(uint256 tokenId)... */\n    tag_53:\n        /* \"contracts/NFT_Demo/NFT.sol\":10039:10046  address */\n      0x00\n        /* \"contracts/NFT_Demo/NFT.sol\":10062:10075  address owner */\n      dup1\n        /* \"contracts/NFT_Demo/NFT.sol\":10078:10085  _owners */\n      0x02\n        /* \"contracts/NFT_Demo/NFT.sol\":10078:10094  _owners[tokenId] */\n      0x00\n        /* \"contracts/NFT_Demo/NFT.sol\":10086:10093  tokenId */\n      dup5\n        /* \"contracts/NFT_Demo/NFT.sol\":10078:10094  _owners[tokenId] */\n      dup2\n      mstore\n      0x20\n      add\n      swap1\n      dup2\n      mstore\n      0x20\n      add\n      0x00\n      keccak256\n      0x00\n      swap1\n      sload\n      swap1\n      0x0100\n      exp\n      swap1\n      div\n      0xffffffffffffffffffffffffffffffffffffffff\n      and\n        /* \"contracts/NFT_Demo/NFT.sol\":10062:10094  address owner = _owners[tokenId] */\n      swap1\n      pop\n        /* \"contracts/NFT_Demo/NFT.sol\":10142:10143  0 */\n      0x00\n        /* \"contracts/NFT_Demo/NFT.sol\":10125:10144  owner != address(0) */\n      0xffffffffffffffffffffffffffffffffffffffff\n      and\n        /* \"contracts/NFT_Demo/NFT.sol\":10125:10130  owner */\n      dup2\n        /* \"contracts/NFT_Demo/NFT.sol\":10125:10144  owner != address(0) */\n      0xffffffffffffffffffffffffffffffffffffffff\n      and\n      sub\n        /* \"contracts/NFT_Demo/NFT.sol\":10104:10211  require(... */\n      tag_129\n      jumpi\n      mload(0x40)\n      0x08c379a000000000000000000000000000000000000000000000000000000000\n      dup2\n      mstore\n      0x04\n      add\n      tag_130\n      swap1\n      tag_131\n      jump\t// in\n    tag_130:\n      mload(0x40)\n      dup1\n      swap2\n      sub\n      swap1\n      revert\n    tag_129:\n        /* \"contracts/NFT_Demo/NFT.sol\":10228:10233  owner */\n      dup1\n        /* \"contracts/NFT_Demo/NFT.sol\":10221:10233  return owner */\n      swap2\n      pop\n      pop\n        /* \"contracts/NFT_Demo/NFT.sol\":9927:10240  function ownerOf(uint256 tokenId)... */\n      swap2\n      swap1\n      pop\n      jump\t// out\n        /* \"contracts/NFT_Demo/NFT.sol\":9638:9921  function balanceOf(address owner)... */\n    tag_58:\n        /* \"contracts/NFT_Demo/NFT.sol\":9750:9757  uint256 */\n      0x00\n        /* \"contracts/NFT_Demo/NFT.sol\":9811:9812  0 */\n      dup1\n        /* \"contracts/NFT_Demo/NFT.sol\":9794:9813  owner != address(0) */\n      0xffffffffffffffffffffffffffffffffffffffff\n      and\n        /* \"contracts/NFT_Demo/NFT.sol\":9794:9799  owner */\n      dup3\n        /* \"contracts/NFT_Demo/NFT.sol\":9794:9813  owner != address(0) */\n      0xffffffffffffffffffffffffffffffffffffffff\n      and\n      sub\n        /* \"contracts/NFT_Demo/NFT.sol\":9773:9881  require(... */\n      tag_133\n      jumpi\n      mload(0x40)\n      0x08c379a000000000000000000000000000000000000000000000000000000000\n      dup2\n      mstore\n      0x04\n      add\n      tag_134\n      swap1\n      tag_135\n      jump\t// in\n    tag_134:\n      mload(0x40)\n      dup1\n      swap2\n      sub\n      swap1\n      revert\n    tag_133:\n        /* \"contracts/NFT_Demo/NFT.sol\":9898:9907  _balances */\n      0x01\n        /* \"contracts/NFT_Demo/NFT.sol\":9898:9914  _balances[owner] */\n      0x00\n        /* \"contracts/NFT_Demo/NFT.sol\":9908:9913  owner */\n      dup4\n        /* \"contracts/NFT_Demo/NFT.sol\":9898:9914  _balances[owner] */\n      0xffffffffffffffffffffffffffffffffffffffff\n      and\n      0xffffffffffffffffffffffffffffffffffffffff\n      and\n      dup2\n      mstore\n      0x20\n      add\n      swap1\n      dup2\n      mstore\n      0x20\n      add\n      0x00\n      keccak256\n      sload\n        /* \"contracts/NFT_Demo/NFT.sol\":9891:9914  return _balances[owner] */\n      swap1\n      pop\n        /* \"contracts/NFT_Demo/NFT.sol\":9638:9921  function balanceOf(address owner)... */\n      swap2\n      swap1\n      pop\n      jump\t// out\n        /* \"contracts/NFT_Demo/NFT.sol\":6540:6641  function renounceOwnership() public virtual onlyOwner {... */\n    tag_61:\n        /* \"contracts/NFT_Demo/NFT.sol\":6467:6479  _msgSender() */\n      tag_137\n        /* \"contracts/NFT_Demo/NFT.sol\":6467:6477  _msgSender */\n      tag_102\n        /* \"contracts/NFT_Demo/NFT.sol\":6467:6479  _msgSender() */\n      jump\t// in\n    tag_137:\n        /* \"contracts/NFT_Demo/NFT.sol\":6456:6479  owner() == _msgSender() */\n      0xffffffffffffffffffffffffffffffffffffffff\n      and\n        /* \"contracts/NFT_Demo/NFT.sol\":6456:6463  owner() */\n      tag_138\n        /* \"contracts/NFT_Demo/NFT.sol\":6456:6461  owner */\n      tag_67\n        /* \"contracts/NFT_Demo/NFT.sol\":6456:6463  owner() */\n      jump\t// in\n    tag_138:\n        /* \"contracts/NFT_Demo/NFT.sol\":6456:6479  owner() == _msgSender() */\n      0xffffffffffffffffffffffffffffffffffffffff\n      and\n      eq\n        /* \"contracts/NFT_Demo/NFT.sol\":6448:6516  require(owner() == _msgSender(), \"Ownable: caller is not the owner\") */\n      tag_139\n      jumpi\n      mload(0x40)\n      0x08c379a000000000000000000000000000000000000000000000000000000000\n      dup2\n      mstore\n      0x04\n      add\n      tag_140\n      swap1\n      tag_124\n      jump\t// in\n    tag_140:\n      mload(0x40)\n      dup1\n      swap2\n      sub\n      swap1\n      revert\n    tag_139:\n        /* \"contracts/NFT_Demo/NFT.sol\":6604:6634  _transferOwnership(address(0)) */\n      tag_142\n        /* \"contracts/NFT_Demo/NFT.sol\":6631:6632  0 */\n      0x00\n        /* \"contracts/NFT_Demo/NFT.sol\":6604:6622  _transferOwnership */\n      tag_143\n        /* \"contracts/NFT_Demo/NFT.sol\":6604:6634  _transferOwnership(address(0)) */\n      jump\t// in\n    tag_142:\n        /* \"contracts/NFT_Demo/NFT.sol\":6540:6641  function renounceOwnership() public virtual onlyOwner {... */\n      jump\t// out\n        /* \"contracts/NFT_Demo/NFT.sol\":19463:19637  function newItem(address _to, string memory tokenURI_) external onlyOwner {... */\n    tag_65:\n        /* \"contracts/NFT_Demo/NFT.sol\":6467:6479  _msgSender() */\n      tag_145\n        /* \"contracts/NFT_Demo/NFT.sol\":6467:6477  _msgSender */\n      tag_102\n        /* \"contracts/NFT_Demo/NFT.sol\":6467:6479  _msgSender() */\n      jump\t// in\n    tag_145:\n        /* \"contracts/NFT_Demo/NFT.sol\":6456:6479  owner() == _msgSender() */\n      0xffffffffffffffffffffffffffffffffffffffff\n      and\n        /* \"contracts/NFT_Demo/NFT.sol\":6456:6463  owner() */\n      tag_146\n        /* \"contracts/NFT_Demo/NFT.sol\":6456:6461  owner */\n      tag_67\n        /* \"contracts/NFT_Demo/NFT.sol\":6456:6463  owner() */\n      jump\t// in\n    tag_146:\n        /* \"contracts/NFT_Demo/NFT.sol\":6456:6479  owner() == _msgSender() */\n      0xffffffffffffffffffffffffffffffffffffffff\n      and\n      eq\n        /* \"contracts/NFT_Demo/NFT.sol\":6448:6516  require(owner() == _msgSender(), \"Ownable: caller is not the owner\") */\n      tag_147\n      jumpi\n      mload(0x40)\n      0x08c379a000000000000000000000000000000000000000000000000000000000\n      dup2\n      mstore\n      0x04\n      add\n      tag_148\n      swap1\n      tag_124\n      jump\t// in\n    tag_148:\n      mload(0x40)\n      dup1\n      swap2\n      sub\n      swap1\n      revert\n    tag_147:\n        /* \"contracts/NFT_Demo/NFT.sol\":19547:19571  super._mint(_to, nextId) */\n      tag_150\n        /* \"contracts/NFT_Demo/NFT.sol\":19559:19562  _to */\n      dup3\n        /* \"contracts/NFT_Demo/NFT.sol\":19564:19570  nextId */\n      sload(0x0a)\n        /* \"contracts/NFT_Demo/NFT.sol\":19547:19558  super._mint */\n      tag_151\n        /* \"contracts/NFT_Demo/NFT.sol\":19547:19571  super._mint(_to, nextId) */\n      jump\t// in\n    tag_150:\n        /* \"contracts/NFT_Demo/NFT.sol\":19581:19612  _setTokenURI(nextId, tokenURI_) */\n      tag_152\n        /* \"contracts/NFT_Demo/NFT.sol\":19594:19600  nextId */\n      sload(0x0a)\n        /* \"contracts/NFT_Demo/NFT.sol\":19602:19611  tokenURI_ */\n      dup3\n        /* \"contracts/NFT_Demo/NFT.sol\":19581:19593  _setTokenURI */\n      tag_153\n        /* \"contracts/NFT_Demo/NFT.sol\":19581:19612  _setTokenURI(nextId, tokenURI_) */\n      jump\t// in\n    tag_152:\n        /* \"contracts/NFT_Demo/NFT.sol\":19622:19628  nextId */\n      0x0a\n      0x00\n        /* \"contracts/NFT_Demo/NFT.sol\":19622:19630  nextId++ */\n      dup2\n      sload\n      dup1\n      swap3\n      swap2\n      swap1\n      tag_154\n      swap1\n      tag_155\n      jump\t// in\n    tag_154:\n      swap2\n      swap1\n      pop\n      sstore\n      pop\n        /* \"contracts/NFT_Demo/NFT.sol\":19463:19637  function newItem(address _to, string memory tokenURI_) external onlyOwner {... */\n      pop\n      pop\n      jump\t// out\n        /* \"contracts/NFT_Demo/NFT.sol\":6326:6411  function owner() public view virtual returns (address) {... */\n    tag_67:\n        /* \"contracts/NFT_Demo/NFT.sol\":6372:6379  address */\n      0x00\n        /* \"contracts/NFT_Demo/NFT.sol\":6398:6404  _owner */\n      dup1\n      0x00\n      swap1\n      sload\n      swap1\n      0x0100\n      exp\n      swap1\n      div\n      0xffffffffffffffffffffffffffffffffffffffff\n      and\n        /* \"contracts/NFT_Demo/NFT.sol\":6391:6404  return _owner */\n      swap1\n      pop\n        /* \"contracts/NFT_Demo/NFT.sol\":6326:6411  function owner() public view virtual returns (address) {... */\n      swap1\n      jump\t// out\n        /* \"contracts/NFT_Demo/NFT.sol\":10350:10452  function symbol() public view virtual override returns (string memory) {... */\n    tag_70:\n        /* \"contracts/NFT_Demo/NFT.sol\":10406:10419  string memory */\n      0x60\n        /* \"contracts/NFT_Demo/NFT.sol\":10438:10445  _symbol */\n      0x07\n        /* \"contracts/NFT_Demo/NFT.sol\":10431:10445  return _symbol */\n      dup1\n      sload\n      tag_158\n      swap1\n      tag_85\n      jump\t// in\n    tag_158:\n      dup1\n      0x1f\n      add\n      0x20\n      dup1\n      swap2\n      div\n      mul\n      0x20\n      add\n      mload(0x40)\n      swap1\n      dup2\n      add\n      0x40\n      mstore\n      dup1\n      swap3\n      swap2\n      swap1\n      dup2\n      dup2\n      mstore\n      0x20\n      add\n      dup3\n      dup1\n      sload\n      tag_159\n      swap1\n      tag_85\n      jump\t// in\n    tag_159:\n      dup1\n      iszero\n      tag_160\n      jumpi\n      dup1\n      0x1f\n      lt\n      tag_161\n      jumpi\n      0x0100\n      dup1\n      dup4\n      sload\n      div\n      mul\n      dup4\n      mstore\n      swap2\n      0x20\n      add\n      swap2\n      jump(tag_160)\n    tag_161:\n      dup3\n      add\n      swap2\n      swap1\n      0x00\n      mstore\n      keccak256(0x00, 0x20)\n      swap1\n    tag_162:\n      dup2\n      sload\n      dup2\n      mstore\n      swap1\n      0x01\n      add\n      swap1\n      0x20\n      add\n      dup1\n      dup4\n      gt\n      tag_162\n      jumpi\n      dup3\n      swap1\n      sub\n      0x1f\n      and\n      dup3\n      add\n      swap2\n    tag_160:\n      pop\n      pop\n      pop\n      pop\n      pop\n      swap1\n      pop\n        /* \"contracts/NFT_Demo/NFT.sol\":10350:10452  function symbol() public view virtual override returns (string memory) {... */\n      swap1\n      jump\t// out\n        /* \"contracts/NFT_Demo/NFT.sol\":11726:12080  function safeTransferFrom(... */\n    tag_75:\n        /* \"contracts/NFT_Demo/NFT.sol\":11908:11949  _isApprovedOrOwner(_msgSender(), tokenId) */\n      tag_164\n        /* \"contracts/NFT_Demo/NFT.sol\":11927:11939  _msgSender() */\n      tag_165\n        /* \"contracts/NFT_Demo/NFT.sol\":11927:11937  _msgSender */\n      tag_102\n        /* \"contracts/NFT_Demo/NFT.sol\":11927:11939  _msgSender() */\n      jump\t// in\n    tag_165:\n        /* \"contracts/NFT_Demo/NFT.sol\":11941:11948  tokenId */\n      dup4\n        /* \"contracts/NFT_Demo/NFT.sol\":11908:11926  _isApprovedOrOwner */\n      tag_111\n        /* \"contracts/NFT_Demo/NFT.sol\":11908:11949  _isApprovedOrOwner(_msgSender(), tokenId) */\n      jump\t// in\n    tag_164:\n        /* \"contracts/NFT_Demo/NFT.sol\":11887:12024  require(... */\n      tag_166\n      jumpi\n      mload(0x40)\n      0x08c379a000000000000000000000000000000000000000000000000000000000\n      dup2\n      mstore\n      0x04\n      add\n      tag_167\n      swap1\n      tag_114\n      jump\t// in\n    tag_167:\n      mload(0x40)\n      dup1\n      swap2\n      sub\n      swap1\n      revert\n    tag_166:\n        /* \"contracts/NFT_Demo/NFT.sol\":12034:12073  _safeTransfer(from, to, tokenId, _data) */\n      tag_168\n        /* \"contracts/NFT_Demo/NFT.sol\":12048:12052  from */\n      dup5\n        /* \"contracts/NFT_Demo/NFT.sol\":12054:12056  to */\n      dup5\n        /* \"contracts/NFT_Demo/NFT.sol\":12058:12065  tokenId */\n      dup5\n        /* \"contracts/NFT_Demo/NFT.sol\":12067:12072  _data */\n      dup5\n        /* \"contracts/NFT_Demo/NFT.sol\":12034:12047  _safeTransfer */\n      tag_169\n        /* \"contracts/NFT_Demo/NFT.sol\":12034:12073  _safeTransfer(from, to, tokenId, _data) */\n      jump\t// in\n    tag_168:\n        /* \"contracts/NFT_Demo/NFT.sol\":11726:12080  function safeTransferFrom(... */\n      pop\n      pop\n      pop\n      pop\n      jump\t// out\n        /* \"contracts/NFT_Demo/NFT.sol\":18602:19457  function tokenURI(uint256 tokenId)... */\n    tag_78:\n        /* \"contracts/NFT_Demo/NFT.sol\":18715:18728  string memory */\n      0x60\n        /* \"contracts/NFT_Demo/NFT.sol\":18765:18781  _exists(tokenId) */\n      tag_171\n        /* \"contracts/NFT_Demo/NFT.sol\":18773:18780  tokenId */\n      dup3\n        /* \"contracts/NFT_Demo/NFT.sol\":18765:18772  _exists */\n      tag_92\n        /* \"contracts/NFT_Demo/NFT.sol\":18765:18781  _exists(tokenId) */\n      jump\t// in\n    tag_171:\n        /* \"contracts/NFT_Demo/NFT.sol\":18744:18854  require(... */\n      tag_172\n      jumpi\n      mload(0x40)\n      0x08c379a000000000000000000000000000000000000000000000000000000000\n      dup2\n      mstore\n      0x04\n      add\n      tag_173\n      swap1\n      tag_174\n      jump\t// in\n    tag_173:\n      mload(0x40)\n      dup1\n      swap2\n      sub\n      swap1\n      revert\n    tag_172:\n        /* \"contracts/NFT_Demo/NFT.sol\":18865:18888  string memory _tokenURI */\n      0x00\n        /* \"contracts/NFT_Demo/NFT.sol\":18891:18901  _tokenURIs */\n      0x0c\n        /* \"contracts/NFT_Demo/NFT.sol\":18891:18910  _tokenURIs[tokenId] */\n      0x00\n        /* \"contracts/NFT_Demo/NFT.sol\":18902:18909  tokenId */\n      dup5\n        /* \"contracts/NFT_Demo/NFT.sol\":18891:18910  _tokenURIs[tokenId] */\n      dup2\n      mstore\n      0x20\n      add\n      swap1\n      dup2\n      mstore\n      0x20\n      add\n      0x00\n      keccak256\n        /* \"contracts/NFT_Demo/NFT.sol\":18865:18910  string memory _tokenURI = _tokenURIs[tokenId] */\n      dup1\n      sload\n      tag_175\n      swap1\n      tag_85\n      jump\t// in\n    tag_175:\n      dup1\n      0x1f\n      add\n      0x20\n      dup1\n      swap2\n      div\n      mul\n      0x20\n      add\n      mload(0x40)\n      swap1\n      dup2\n      add\n      0x40\n      mstore\n      dup1\n      swap3\n      swap2\n      swap1\n      dup2\n      dup2\n      mstore\n      0x20\n      add\n      dup3\n      dup1\n      sload\n      tag_176\n      swap1\n      tag_85\n      jump\t// in\n    tag_176:\n      dup1\n      iszero\n      tag_177\n      jumpi\n      dup1\n      0x1f\n      lt\n      tag_178\n      jumpi\n      0x0100\n      dup1\n      dup4\n      sload\n      div\n      mul\n      dup4\n      mstore\n      swap2\n      0x20\n      add\n      swap2\n      jump(tag_177)\n    tag_178:\n      dup3\n      add\n      swap2\n      swap1\n      0x00\n      mstore\n      keccak256(0x00, 0x20)\n      swap1\n    tag_179:\n      dup2\n      sload\n      dup2\n      mstore\n      swap1\n      0x01\n      add\n      swap1\n      0x20\n      add\n      dup1\n      dup4\n      gt\n      tag_179\n      jumpi\n      dup3\n      swap1\n      sub\n      0x1f\n      and\n      dup3\n      add\n      swap2\n    tag_177:\n      pop\n      pop\n      pop\n      pop\n      pop\n      swap1\n      pop\n        /* \"contracts/NFT_Demo/NFT.sol\":18920:18938  string memory base */\n      0x00\n        /* \"contracts/NFT_Demo/NFT.sol\":18941:18951  _baseURI() */\n      tag_180\n        /* \"contracts/NFT_Demo/NFT.sol\":18941:18949  _baseURI */\n      tag_181\n        /* \"contracts/NFT_Demo/NFT.sol\":18941:18951  _baseURI() */\n      jump\t// in\n    tag_180:\n        /* \"contracts/NFT_Demo/NFT.sol\":18920:18951  string memory base = _baseURI() */\n      swap1\n      pop\n        /* \"contracts/NFT_Demo/NFT.sol\":19046:19047  0 */\n      0x00\n        /* \"contracts/NFT_Demo/NFT.sol\":19030:19034  base */\n      dup2\n        /* \"contracts/NFT_Demo/NFT.sol\":19024:19042  bytes(base).length */\n      mload\n        /* \"contracts/NFT_Demo/NFT.sol\":19024:19047  bytes(base).length == 0 */\n      sub\n        /* \"contracts/NFT_Demo/NFT.sol\":19020:19090  if (bytes(base).length == 0) {... */\n      tag_182\n      jumpi\n        /* \"contracts/NFT_Demo/NFT.sol\":19070:19079  _tokenURI */\n      dup2\n        /* \"contracts/NFT_Demo/NFT.sol\":19063:19079  return _tokenURI */\n      swap3\n      pop\n      pop\n      pop\n      jump(tag_170)\n        /* \"contracts/NFT_Demo/NFT.sol\":19020:19090  if (bytes(base).length == 0) {... */\n    tag_182:\n        /* \"contracts/NFT_Demo/NFT.sol\":19218:19219  0 */\n      0x00\n        /* \"contracts/NFT_Demo/NFT.sol\":19198:19207  _tokenURI */\n      dup3\n        /* \"contracts/NFT_Demo/NFT.sol\":19192:19215  bytes(_tokenURI).length */\n      mload\n        /* \"contracts/NFT_Demo/NFT.sol\":19192:19219  bytes(_tokenURI).length > 0 */\n      gt\n        /* \"contracts/NFT_Demo/NFT.sol\":19188:19294  if (bytes(_tokenURI).length > 0) {... */\n      iszero\n      tag_183\n      jumpi\n        /* \"contracts/NFT_Demo/NFT.sol\":19266:19270  base */\n      dup1\n        /* \"contracts/NFT_Demo/NFT.sol\":19272:19281  _tokenURI */\n      dup3\n        /* \"contracts/NFT_Demo/NFT.sol\":19249:19282  abi.encodePacked(base, _tokenURI) */\n      add(0x20, mload(0x40))\n      tag_184\n      swap3\n      swap2\n      swap1\n      tag_185\n      jump\t// in\n    tag_184:\n      mload(0x40)\n      0x20\n      dup2\n      dup4\n      sub\n      sub\n      dup2\n      mstore\n      swap1\n      0x40\n      mstore\n        /* \"contracts/NFT_Demo/NFT.sol\":19235:19283  return string(abi.encodePacked(base, _tokenURI)) */\n      swap3\n      pop\n      pop\n      pop\n      jump(tag_170)\n        /* \"contracts/NFT_Demo/NFT.sol\":19188:19294  if (bytes(_tokenURI).length > 0) {... */\n    tag_183:\n        /* \"contracts/NFT_Demo/NFT.sol\":19424:19428  base */\n      dup1\n        /* \"contracts/NFT_Demo/NFT.sol\":19430:19448  tokenId.toString() */\n      tag_186\n        /* \"contracts/NFT_Demo/NFT.sol\":19430:19437  tokenId */\n      dup6\n        /* \"contracts/NFT_Demo/NFT.sol\":19430:19446  tokenId.toString */\n      tag_187\n        /* \"contracts/NFT_Demo/NFT.sol\":19430:19448  tokenId.toString() */\n      jump\t// in\n    tag_186:\n        /* \"contracts/NFT_Demo/NFT.sol\":19407:19449  abi.encodePacked(base, tokenId.toString()) */\n      add(0x20, mload(0x40))\n      tag_188\n      swap3\n      swap2\n      swap1\n      tag_185\n      jump\t// in\n    tag_188:\n      mload(0x40)\n      0x20\n      dup2\n      dup4\n      sub\n      sub\n      dup2\n      mstore\n      swap1\n      0x40\n      mstore\n        /* \"contracts/NFT_Demo/NFT.sol\":19393:19450  return string(abi.encodePacked(base, tokenId.toString())) */\n      swap3\n      pop\n      pop\n      pop\n        /* \"contracts/NFT_Demo/NFT.sol\":18602:19457  function tokenURI(uint256 tokenId)... */\n    tag_170:\n      swap2\n      swap1\n      pop\n      jump\t// out\n        /* \"contracts/NFT_Demo/NFT.sol\":6647:6879  function transferOwnership(address newOwner) public virtual onlyOwner {... */\n    tag_82:\n        /* \"contracts/NFT_Demo/NFT.sol\":6467:6479  _msgSender() */\n      tag_190\n        /* \"contracts/NFT_Demo/NFT.sol\":6467:6477  _msgSender */\n      tag_102\n        /* \"contracts/NFT_Demo/NFT.sol\":6467:6479  _msgSender() */\n      jump\t// in\n    tag_190:\n        /* \"contracts/NFT_Demo/NFT.sol\":6456:6479  owner() == _msgSender() */\n      0xffffffffffffffffffffffffffffffffffffffff\n      and\n        /* \"contracts/NFT_Demo/NFT.sol\":6456:6463  owner() */\n      tag_191\n        /* \"contracts/NFT_Demo/NFT.sol\":6456:6461  owner */\n      tag_67\n        /* \"contracts/NFT_Demo/NFT.sol\":6456:6463  owner() */\n      jump\t// in\n    tag_191:\n        /* \"contracts/NFT_Demo/NFT.sol\":6456:6479  owner() == _msgSender() */\n      0xffffffffffffffffffffffffffffffffffffffff\n      and\n      eq\n        /* \"contracts/NFT_Demo/NFT.sol\":6448:6516  require(owner() == _msgSender(), \"Ownable: caller is not the owner\") */\n      tag_192\n      jumpi\n      mload(0x40)\n      0x08c379a000000000000000000000000000000000000000000000000000000000\n      dup2\n      mstore\n      0x04\n      add\n      tag_193\n      swap1\n      tag_124\n      jump\t// in\n    tag_193:\n      mload(0x40)\n      dup1\n      swap2\n      sub\n      swap1\n      revert\n    tag_192:\n        /* \"contracts/NFT_Demo/NFT.sol\":6768:6769  0 */\n      0x00\n        /* \"contracts/NFT_Demo/NFT.sol\":6748:6770  newOwner != address(0) */\n      0xffffffffffffffffffffffffffffffffffffffff\n      and\n        /* \"contracts/NFT_Demo/NFT.sol\":6748:6756  newOwner */\n      dup2\n        /* \"contracts/NFT_Demo/NFT.sol\":6748:6770  newOwner != address(0) */\n      0xffffffffffffffffffffffffffffffffffffffff\n      and\n      sub\n        /* \"contracts/NFT_Demo/NFT.sol\":6727:6834  require(... */\n      tag_195\n      jumpi\n      mload(0x40)\n      0x08c379a000000000000000000000000000000000000000000000000000000000\n      dup2\n      mstore\n      0x04\n      add\n      tag_196\n      swap1\n      tag_197\n      jump\t// in\n    tag_196:\n      mload(0x40)\n      dup1\n      swap2\n      sub\n      swap1\n      revert\n    tag_195:\n        /* \"contracts/NFT_Demo/NFT.sol\":6844:6872  _transferOwnership(newOwner) */\n      tag_198\n        /* \"contracts/NFT_Demo/NFT.sol\":6863:6871  newOwner */\n      dup2\n        /* \"contracts/NFT_Demo/NFT.sol\":6844:6862  _transferOwnership */\n      tag_143\n        /* \"contracts/NFT_Demo/NFT.sol\":6844:6872  _transferOwnership(newOwner) */\n      jump\t// in\n    tag_198:\n        /* \"contracts/NFT_Demo/NFT.sol\":6647:6879  function transferOwnership(address newOwner) public virtual onlyOwner {... */\n      pop\n      jump\t// out\n        /* \"contracts/NFT_Demo/NFT.sol\":12433:12558  function _exists(uint256 tokenId) internal view virtual returns (bool) {... */\n    tag_92:\n        /* \"contracts/NFT_Demo/NFT.sol\":12498:12502  bool */\n      0x00\n        /* \"contracts/NFT_Demo/NFT.sol\":12549:12550  0 */\n      dup1\n        /* \"contracts/NFT_Demo/NFT.sol\":12521:12551  _owners[tokenId] != address(0) */\n      0xffffffffffffffffffffffffffffffffffffffff\n      and\n        /* \"contracts/NFT_Demo/NFT.sol\":12521:12528  _owners */\n      0x02\n        /* \"contracts/NFT_Demo/NFT.sol\":12521:12537  _owners[tokenId] */\n      0x00\n        /* \"contracts/NFT_Demo/NFT.sol\":12529:12536  tokenId */\n      dup5\n        /* \"contracts/NFT_Demo/NFT.sol\":12521:12537  _owners[tokenId] */\n      dup2\n      mstore\n      0x20\n      add\n      swap1\n      dup2\n      mstore\n      0x20\n      add\n      0x00\n      keccak256\n      0x00\n      swap1\n      sload\n      swap1\n      0x0100\n      exp\n      swap1\n      div\n      0xffffffffffffffffffffffffffffffffffffffff\n      and\n        /* \"contracts/NFT_Demo/NFT.sol\":12521:12551  _owners[tokenId] != address(0) */\n      0xffffffffffffffffffffffffffffffffffffffff\n      and\n      eq\n      iszero\n        /* \"contracts/NFT_Demo/NFT.sol\":12514:12551  return _owners[tokenId] != address(0) */\n      swap1\n      pop\n        /* \"contracts/NFT_Demo/NFT.sol\":12433:12558  function _exists(uint256 tokenId) internal view virtual returns (bool) {... */\n      swap2\n      swap1\n      pop\n      jump\t// out\n        /* \"contracts/NFT_Demo/NFT.sol\":99:195  function _msgSender() internal view virtual returns (address) {... */\n    tag_102:\n        /* \"contracts/NFT_Demo/NFT.sol\":152:159  address */\n      0x00\n        /* \"contracts/NFT_Demo/NFT.sol\":178:188  msg.sender */\n      caller\n        /* \"contracts/NFT_Demo/NFT.sol\":171:188  return msg.sender */\n      swap1\n      pop\n        /* \"contracts/NFT_Demo/NFT.sol\":99:195  function _msgSender() internal view virtual returns (address) {... */\n      swap1\n      jump\t// out\n        /* \"contracts/NFT_Demo/NFT.sol\":14874:15045  function _approve(address to, uint256 tokenId) internal virtual {... */\n    tag_107:\n        /* \"contracts/NFT_Demo/NFT.sol\":14975:14977  to */\n      dup2\n        /* \"contracts/NFT_Demo/NFT.sol\":14948:14963  _tokenApprovals */\n      0x04\n        /* \"contracts/NFT_Demo/NFT.sol\":14948:14972  _tokenApprovals[tokenId] */\n      0x00\n        /* \"contracts/NFT_Demo/NFT.sol\":14964:14971  tokenId */\n      dup4\n        /* \"contracts/NFT_Demo/NFT.sol\":14948:14972  _tokenApprovals[tokenId] */\n      dup2\n      mstore\n      0x20\n      add\n      swap1\n      dup2\n      mstore\n      0x20\n      add\n      0x00\n      keccak256\n      0x00\n        /* \"contracts/NFT_Demo/NFT.sol\":14948:14977  _tokenApprovals[tokenId] = to */\n      0x0100\n      exp\n      dup2\n      sload\n      dup2\n      0xffffffffffffffffffffffffffffffffffffffff\n      mul\n      not\n      and\n      swap1\n      dup4\n      0xffffffffffffffffffffffffffffffffffffffff\n      and\n      mul\n      or\n      swap1\n      sstore\n      pop\n        /* \"contracts/NFT_Demo/NFT.sol\":15030:15037  tokenId */\n      dup1\n        /* \"contracts/NFT_Demo/NFT.sol\":15026:15028  to */\n      dup3\n        /* \"contracts/NFT_Demo/NFT.sol\":14992:15038  Approval(ERC721.ownerOf(tokenId), to, tokenId) */\n      0xffffffffffffffffffffffffffffffffffffffff\n      and\n        /* \"contracts/NFT_Demo/NFT.sol\":15001:15024  ERC721.ownerOf(tokenId) */\n      tag_202\n        /* \"contracts/NFT_Demo/NFT.sol\":15016:15023  tokenId */\n      dup4\n        /* \"contracts/NFT_Demo/NFT.sol\":15001:15015  ERC721.ownerOf */\n      tag_53\n        /* \"contracts/NFT_Demo/NFT.sol\":15001:15024  ERC721.ownerOf(tokenId) */\n      jump\t// in\n    tag_202:\n        /* \"contracts/NFT_Demo/NFT.sol\":14992:15038  Approval(ERC721.ownerOf(tokenId), to, tokenId) */\n      0xffffffffffffffffffffffffffffffffffffffff\n      and\n      0x8c5be1e5ebec7d5bd14f71427d1e84f3dd0314c0f7b2291e5b200ac8c7c3b925\n      mload(0x40)\n      mload(0x40)\n      dup1\n      swap2\n      sub\n      swap1\n      log4\n        /* \"contracts/NFT_Demo/NFT.sol\":14874:15045  function _approve(address to, uint256 tokenId) internal virtual {... */\n      pop\n      pop\n      jump\t// out\n        /* \"contracts/NFT_Demo/NFT.sol\":12564:12942  function _isApprovedOrOwner(address spender, uint256 tokenId)... */\n    tag_111:\n        /* \"contracts/NFT_Demo/NFT.sol\":12689:12693  bool */\n      0x00\n        /* \"contracts/NFT_Demo/NFT.sol\":12730:12746  _exists(tokenId) */\n      tag_204\n        /* \"contracts/NFT_Demo/NFT.sol\":12738:12745  tokenId */\n      dup3\n        /* \"contracts/NFT_Demo/NFT.sol\":12730:12737  _exists */\n      tag_92\n        /* \"contracts/NFT_Demo/NFT.sol\":12730:12746  _exists(tokenId) */\n      jump\t// in\n    tag_204:\n        /* \"contracts/NFT_Demo/NFT.sol\":12709:12816  require(... */\n      tag_205\n      jumpi\n      mload(0x40)\n      0x08c379a000000000000000000000000000000000000000000000000000000000\n      dup2\n      mstore\n      0x04\n      add\n      tag_206\n      swap1\n      tag_207\n      jump\t// in\n    tag_206:\n      mload(0x40)\n      dup1\n      swap2\n      sub\n      swap1\n      revert\n    tag_205:\n        /* \"contracts/NFT_Demo/NFT.sol\":12826:12839  address owner */\n      0x00\n        /* \"contracts/NFT_Demo/NFT.sol\":12842:12865  ERC721.ownerOf(tokenId) */\n      tag_208\n        /* \"contracts/NFT_Demo/NFT.sol\":12857:12864  tokenId */\n      dup4\n        /* \"contracts/NFT_Demo/NFT.sol\":12842:12856  ERC721.ownerOf */\n      tag_53\n        /* \"contracts/NFT_Demo/NFT.sol\":12842:12865  ERC721.ownerOf(tokenId) */\n      jump\t// in\n    tag_208:\n        /* \"contracts/NFT_Demo/NFT.sol\":12826:12865  address owner = ERC721.ownerOf(tokenId) */\n      swap1\n      pop\n        /* \"contracts/NFT_Demo/NFT.sol\":12894:12899  owner */\n      dup1\n        /* \"contracts/NFT_Demo/NFT.sol\":12883:12899  spender == owner */\n      0xffffffffffffffffffffffffffffffffffffffff\n      and\n        /* \"contracts/NFT_Demo/NFT.sol\":12883:12890  spender */\n      dup5\n        /* \"contracts/NFT_Demo/NFT.sol\":12883:12899  spender == owner */\n      0xffffffffffffffffffffffffffffffffffffffff\n      and\n      eq\n        /* \"contracts/NFT_Demo/NFT.sol\":12883:12934  spender == owner || getApproved(tokenId) == spender */\n      dup1\n      tag_209\n      jumpi\n      pop\n        /* \"contracts/NFT_Demo/NFT.sol\":12927:12934  spender */\n      dup4\n        /* \"contracts/NFT_Demo/NFT.sol\":12903:12934  getApproved(tokenId) == spender */\n      0xffffffffffffffffffffffffffffffffffffffff\n      and\n        /* \"contracts/NFT_Demo/NFT.sol\":12903:12923  getApproved(tokenId) */\n      tag_210\n        /* \"contracts/NFT_Demo/NFT.sol\":12915:12922  tokenId */\n      dup5\n        /* \"contracts/NFT_Demo/NFT.sol\":12903:12914  getApproved */\n      tag_29\n        /* \"contracts/NFT_Demo/NFT.sol\":12903:12923  getApproved(tokenId) */\n      jump\t// in\n    tag_210:\n        /* \"contracts/NFT_Demo/NFT.sol\":12903:12934  getApproved(tokenId) == spender */\n      0xffffffffffffffffffffffffffffffffffffffff\n      and\n      eq\n        /* \"contracts/NFT_Demo/NFT.sol\":12883:12934  spender == owner || getApproved(tokenId) == spender */\n    tag_209:\n        /* \"contracts/NFT_Demo/NFT.sol\":12875:12935  return (spender == owner || getApproved(tokenId) == spender) */\n      swap2\n      pop\n      pop\n        /* \"contracts/NFT_Demo/NFT.sol\":12564:12942  function _isApprovedOrOwner(address spender, uint256 tokenId)... */\n      swap3\n      swap2\n      pop\n      pop\n      jump\t// out\n        /* \"contracts/NFT_Demo/NFT.sol\":14229:14868  function _transfer(... */\n    tag_116:\n        /* \"contracts/NFT_Demo/NFT.sol\":14396:14400  from */\n      dup3\n        /* \"contracts/NFT_Demo/NFT.sol\":14369:14400  ERC721.ownerOf(tokenId) == from */\n      0xffffffffffffffffffffffffffffffffffffffff\n      and\n        /* \"contracts/NFT_Demo/NFT.sol\":14369:14392  ERC721.ownerOf(tokenId) */\n      tag_212\n        /* \"contracts/NFT_Demo/NFT.sol\":14384:14391  tokenId */\n      dup3\n        /* \"contracts/NFT_Demo/NFT.sol\":14369:14383  ERC721.ownerOf */\n      tag_53\n        /* \"contracts/NFT_Demo/NFT.sol\":14369:14392  ERC721.ownerOf(tokenId) */\n      jump\t// in\n    tag_212:\n        /* \"contracts/NFT_Demo/NFT.sol\":14369:14400  ERC721.ownerOf(tokenId) == from */\n      0xffffffffffffffffffffffffffffffffffffffff\n      and\n      eq\n        /* \"contracts/NFT_Demo/NFT.sol\":14348:14463  require(... */\n      tag_213\n      jumpi\n      mload(0x40)\n      0x08c379a000000000000000000000000000000000000000000000000000000000\n      dup2\n      mstore\n      0x04\n      add\n      tag_214\n      swap1\n      tag_215\n      jump\t// in\n    tag_214:\n      mload(0x40)\n      dup1\n      swap2\n      sub\n      swap1\n      revert\n    tag_213:\n        /* \"contracts/NFT_Demo/NFT.sol\":14495:14496  0 */\n      0x00\n        /* \"contracts/NFT_Demo/NFT.sol\":14481:14497  to != address(0) */\n      0xffffffffffffffffffffffffffffffffffffffff\n      and\n        /* \"contracts/NFT_Demo/NFT.sol\":14481:14483  to */\n      dup3\n        /* \"contracts/NFT_Demo/NFT.sol\":14481:14497  to != address(0) */\n      0xffffffffffffffffffffffffffffffffffffffff\n      and\n      sub\n        /* \"contracts/NFT_Demo/NFT.sol\":14473:14538  require(to != address(0), \"ERC721: transfer to the zero address\") */\n      tag_216\n      jumpi\n      mload(0x40)\n      0x08c379a000000000000000000000000000000000000000000000000000000000\n      dup2\n      mstore\n      0x04\n      add\n      tag_217\n      swap1\n      tag_218\n      jump\t// in\n    tag_217:\n      mload(0x40)\n      dup1\n      swap2\n      sub\n      swap1\n      revert\n    tag_216:\n        /* \"contracts/NFT_Demo/NFT.sol\":14549:14588  _beforeTokenTransfer(from, to, tokenId) */\n      tag_219\n        /* \"contracts/NFT_Demo/NFT.sol\":14570:14574  from */\n      dup4\n        /* \"contracts/NFT_Demo/NFT.sol\":14576:14578  to */\n      dup4\n        /* \"contracts/NFT_Demo/NFT.sol\":14580:14587  tokenId */\n      dup4\n        /* \"contracts/NFT_Demo/NFT.sol\":14549:14569  _beforeTokenTransfer */\n      tag_220\n        /* \"contracts/NFT_Demo/NFT.sol\":14549:14588  _beforeTokenTransfer(from, to, tokenId) */\n      jump\t// in\n    tag_219:\n        /* \"contracts/NFT_Demo/NFT.sol\":14650:14679  _approve(address(0), tokenId) */\n      tag_221\n        /* \"contracts/NFT_Demo/NFT.sol\":14667:14668  0 */\n      0x00\n        /* \"contracts/NFT_Demo/NFT.sol\":14671:14678  tokenId */\n      dup3\n        /* \"contracts/NFT_Demo/NFT.sol\":14650:14658  _approve */\n      tag_107\n        /* \"contracts/NFT_Demo/NFT.sol\":14650:14679  _approve(address(0), tokenId) */\n      jump\t// in\n    tag_221:\n        /* \"contracts/NFT_Demo/NFT.sol\":14709:14710  1 */\n      0x01\n        /* \"contracts/NFT_Demo/NFT.sol\":14690:14699  _balances */\n      dup1\n        /* \"contracts/NFT_Demo/NFT.sol\":14690:14705  _balances[from] */\n      0x00\n        /* \"contracts/NFT_Demo/NFT.sol\":14700:14704  from */\n      dup6\n        /* \"contracts/NFT_Demo/NFT.sol\":14690:14705  _balances[from] */\n      0xffffffffffffffffffffffffffffffffffffffff\n      and\n      0xffffffffffffffffffffffffffffffffffffffff\n      and\n      dup2\n      mstore\n      0x20\n      add\n      swap1\n      dup2\n      mstore\n      0x20\n      add\n      0x00\n      keccak256\n      0x00\n        /* \"contracts/NFT_Demo/NFT.sol\":14690:14710  _balances[from] -= 1 */\n      dup3\n      dup3\n      sload\n      tag_222\n      swap2\n      swap1\n      tag_223\n      jump\t// in\n    tag_222:\n      swap3\n      pop\n      pop\n      dup2\n      swap1\n      sstore\n      pop\n        /* \"contracts/NFT_Demo/NFT.sol\":14737:14738  1 */\n      0x01\n        /* \"contracts/NFT_Demo/NFT.sol\":14720:14729  _balances */\n      dup1\n        /* \"contracts/NFT_Demo/NFT.sol\":14720:14733  _balances[to] */\n      0x00\n        /* \"contracts/NFT_Demo/NFT.sol\":14730:14732  to */\n      dup5\n        /* \"contracts/NFT_Demo/NFT.sol\":14720:14733  _balances[to] */\n      0xffffffffffffffffffffffffffffffffffffffff\n      and\n      0xffffffffffffffffffffffffffffffffffffffff\n      and\n      dup2\n      mstore\n      0x20\n      add\n      swap1\n      dup2\n      mstore\n      0x20\n      add\n      0x00\n      keccak256\n      0x00\n        /* \"contracts/NFT_Demo/NFT.sol\":14720:14738  _balances[to] += 1 */\n      dup3\n      dup3\n      sload\n      tag_224\n      swap2\n      swap1\n      tag_225\n      jump\t// in\n    tag_224:\n      swap3\n      pop\n      pop\n      dup2\n      swap1\n      sstore\n      pop\n        /* \"contracts/NFT_Demo/NFT.sol\":14767:14769  to */\n      dup2\n        /* \"contracts/NFT_Demo/NFT.sol\":14748:14755  _owners */\n      0x02\n        /* \"contracts/NFT_Demo/NFT.sol\":14748:14764  _owners[tokenId] */\n      0x00\n        /* \"contracts/NFT_Demo/NFT.sol\":14756:14763  tokenId */\n      dup4\n        /* \"contracts/NFT_Demo/NFT.sol\":14748:14764  _owners[tokenId] */\n      dup2\n      mstore\n      0x20\n      add\n      swap1\n      dup2\n      mstore\n      0x20\n      add\n      0x00\n      keccak256\n      0x00\n        /* \"contracts/NFT_Demo/NFT.sol\":14748:14769  _owners[tokenId] = to */\n      0x0100\n      exp\n      dup2\n      sload\n      dup2\n      0xffffffffffffffffffffffffffffffffffffffff\n      mul\n      not\n      and\n      swap1\n      dup4\n      0xffffffffffffffffffffffffffffffffffffffff\n      and\n      mul\n      or\n      swap1\n      sstore\n      pop\n        /* \"contracts/NFT_Demo/NFT.sol\":14804:14811  tokenId */\n      dup1\n        /* \"contracts/NFT_Demo/NFT.sol\":14800:14802  to */\n      dup3\n        /* \"contracts/NFT_Demo/NFT.sol\":14785:14812  Transfer(from, to, tokenId) */\n      0xffffffffffffffffffffffffffffffffffffffff\n      and\n        /* \"contracts/NFT_Demo/NFT.sol\":14794:14798  from */\n      dup5\n        /* \"contracts/NFT_Demo/NFT.sol\":14785:14812  Transfer(from, to, tokenId) */\n      0xffffffffffffffffffffffffffffffffffffffff\n      and\n      0xddf252ad1be2c89b69c2b068fc378daa952ba7f163c4a11628f55a4df523b3ef\n      mload(0x40)\n      mload(0x40)\n      dup1\n      swap2\n      sub\n      swap1\n      log4\n        /* \"contracts/NFT_Demo/NFT.sol\":14823:14861  _afterTokenTransfer(from, to, tokenId) */\n      tag_226\n        /* \"contracts/NFT_Demo/NFT.sol\":14843:14847  from */\n      dup4\n        /* \"contracts/NFT_Demo/NFT.sol\":14849:14851  to */\n      dup4\n        /* \"contracts/NFT_Demo/NFT.sol\":14853:14860  tokenId */\n      dup4\n        /* \"contracts/NFT_Demo/NFT.sol\":14823:14842  _afterTokenTransfer */\n      tag_227\n        /* \"contracts/NFT_Demo/NFT.sol\":14823:14861  _afterTokenTransfer(from, to, tokenId) */\n      jump\t// in\n    tag_226:\n        /* \"contracts/NFT_Demo/NFT.sol\":14229:14868  function _transfer(... */\n      pop\n      pop\n      pop\n      jump\t// out\n        /* \"contracts/NFT_Demo/NFT.sol\":6885:7072  function _transferOwnership(address newOwner) internal virtual {... */\n    tag_143:\n        /* \"contracts/NFT_Demo/NFT.sol\":6958:6974  address oldOwner */\n      0x00\n        /* \"contracts/NFT_Demo/NFT.sol\":6977:6983  _owner */\n      dup1\n      0x00\n      swap1\n      sload\n      swap1\n      0x0100\n      exp\n      swap1\n      div\n      0xffffffffffffffffffffffffffffffffffffffff\n      and\n        /* \"contracts/NFT_Demo/NFT.sol\":6958:6983  address oldOwner = _owner */\n      swap1\n      pop\n        /* \"contracts/NFT_Demo/NFT.sol\":7002:7010  newOwner */\n      dup2\n        /* \"contracts/NFT_Demo/NFT.sol\":6993:6999  _owner */\n      0x00\n      dup1\n        /* \"contracts/NFT_Demo/NFT.sol\":6993:7010  _owner = newOwner */\n      0x0100\n      exp\n      dup2\n      sload\n      dup2\n      0xffffffffffffffffffffffffffffffffffffffff\n      mul\n      not\n      and\n      swap1\n      dup4\n      0xffffffffffffffffffffffffffffffffffffffff\n      and\n      mul\n      or\n      swap1\n      sstore\n      pop\n        /* \"contracts/NFT_Demo/NFT.sol\":7056:7064  newOwner */\n      dup2\n        /* \"contracts/NFT_Demo/NFT.sol\":7025:7065  OwnershipTransferred(oldOwner, newOwner) */\n      0xffffffffffffffffffffffffffffffffffffffff\n      and\n        /* \"contracts/NFT_Demo/NFT.sol\":7046:7054  oldOwner */\n      dup2\n        /* \"contracts/NFT_Demo/NFT.sol\":7025:7065  OwnershipTransferred(oldOwner, newOwner) */\n      0xffffffffffffffffffffffffffffffffffffffff\n      and\n      0x8be0079c531659141344cd1fd0a4f28419497f9722a3daafe3b4186f6b6457e0\n      mload(0x40)\n      mload(0x40)\n      dup1\n      swap2\n      sub\n      swap1\n      log3\n        /* \"contracts/NFT_Demo/NFT.sol\":6948:7072  {... */\n      pop\n        /* \"contracts/NFT_Demo/NFT.sol\":6885:7072  function _transferOwnership(address newOwner) internal virtual {... */\n      pop\n      jump\t// out\n        /* \"contracts/NFT_Demo/NFT.sol\":13379:13811  function _mint(address to, uint256 tokenId) internal virtual {... */\n    tag_151:\n        /* \"contracts/NFT_Demo/NFT.sol\":13472:13473  0 */\n      0x00\n        /* \"contracts/NFT_Demo/NFT.sol\":13458:13474  to != address(0) */\n      0xffffffffffffffffffffffffffffffffffffffff\n      and\n        /* \"contracts/NFT_Demo/NFT.sol\":13458:13460  to */\n      dup3\n        /* \"contracts/NFT_Demo/NFT.sol\":13458:13474  to != address(0) */\n      0xffffffffffffffffffffffffffffffffffffffff\n      and\n      sub\n        /* \"contracts/NFT_Demo/NFT.sol\":13450:13511  require(to != address(0), \"ERC721: mint to the zero address\") */\n      tag_230\n      jumpi\n      mload(0x40)\n      0x08c379a000000000000000000000000000000000000000000000000000000000\n      dup2\n      mstore\n      0x04\n      add\n      tag_231\n      swap1\n      tag_232\n      jump\t// in\n    tag_231:\n      mload(0x40)\n      dup1\n      swap2\n      sub\n      swap1\n      revert\n    tag_230:\n        /* \"contracts/NFT_Demo/NFT.sol\":13530:13546  _exists(tokenId) */\n      tag_233\n        /* \"contracts/NFT_Demo/NFT.sol\":13538:13545  tokenId */\n      dup2\n        /* \"contracts/NFT_Demo/NFT.sol\":13530:13537  _exists */\n      tag_92\n        /* \"contracts/NFT_Demo/NFT.sol\":13530:13546  _exists(tokenId) */\n      jump\t// in\n    tag_233:\n        /* \"contracts/NFT_Demo/NFT.sol\":13529:13546  !_exists(tokenId) */\n      iszero\n        /* \"contracts/NFT_Demo/NFT.sol\":13521:13579  require(!_exists(tokenId), \"ERC721: token already minted\") */\n      tag_234\n      jumpi\n      mload(0x40)\n      0x08c379a000000000000000000000000000000000000000000000000000000000\n      dup2\n      mstore\n      0x04\n      add\n      tag_235\n      swap1\n      tag_236\n      jump\t// in\n    tag_235:\n      mload(0x40)\n      dup1\n      swap2\n      sub\n      swap1\n      revert\n    tag_234:\n        /* \"contracts/NFT_Demo/NFT.sol\":13665:13666  1 */\n      0x01\n        /* \"contracts/NFT_Demo/NFT.sol\":13648:13657  _balances */\n      dup1\n        /* \"contracts/NFT_Demo/NFT.sol\":13648:13661  _balances[to] */\n      0x00\n        /* \"contracts/NFT_Demo/NFT.sol\":13658:13660  to */\n      dup5\n        /* \"contracts/NFT_Demo/NFT.sol\":13648:13661  _balances[to] */\n      0xffffffffffffffffffffffffffffffffffffffff\n      and\n      0xffffffffffffffffffffffffffffffffffffffff\n      and\n      dup2\n      mstore\n      0x20\n      add\n      swap1\n      dup2\n      mstore\n      0x20\n      add\n      0x00\n      keccak256\n      0x00\n        /* \"contracts/NFT_Demo/NFT.sol\":13648:13666  _balances[to] += 1 */\n      dup3\n      dup3\n      sload\n      tag_237\n      swap2\n      swap1\n      tag_225\n      jump\t// in\n    tag_237:\n      swap3\n      pop\n      pop\n      dup2\n      swap1\n      sstore\n      pop\n        /* \"contracts/NFT_Demo/NFT.sol\":13695:13697  to */\n      dup2\n        /* \"contracts/NFT_Demo/NFT.sol\":13676:13683  _owners */\n      0x02\n        /* \"contracts/NFT_Demo/NFT.sol\":13676:13692  _owners[tokenId] */\n      0x00\n        /* \"contracts/NFT_Demo/NFT.sol\":13684:13691  tokenId */\n      dup4\n        /* \"contracts/NFT_Demo/NFT.sol\":13676:13692  _owners[tokenId] */\n      dup2\n      mstore\n      0x20\n      add\n      swap1\n      dup2\n      mstore\n      0x20\n      add\n      0x00\n      keccak256\n      0x00\n        /* \"contracts/NFT_Demo/NFT.sol\":13676:13697  _owners[tokenId] = to */\n      0x0100\n      exp\n      dup2\n      sload\n      dup2\n      0xffffffffffffffffffffffffffffffffffffffff\n      mul\n      not\n      and\n      swap1\n      dup4\n      0xffffffffffffffffffffffffffffffffffffffff\n      and\n      mul\n      or\n      swap1\n      sstore\n      pop\n        /* \"contracts/NFT_Demo/NFT.sol\":13738:13745  tokenId */\n      dup1\n        /* \"contracts/NFT_Demo/NFT.sol\":13734:13736  to */\n      dup3\n        /* \"contracts/NFT_Demo/NFT.sol\":13713:13746  Transfer(address(0), to, tokenId) */\n      0xffffffffffffffffffffffffffffffffffffffff\n      and\n        /* \"contracts/NFT_Demo/NFT.sol\":13730:13731  0 */\n      0x00\n        /* \"contracts/NFT_Demo/NFT.sol\":13713:13746  Transfer(address(0), to, tokenId) */\n      0xffffffffffffffffffffffffffffffffffffffff\n      and\n      0xddf252ad1be2c89b69c2b068fc378daa952ba7f163c4a11628f55a4df523b3ef\n      mload(0x40)\n      mload(0x40)\n      dup1\n      swap2\n      sub\n      swap1\n      log4\n        /* \"contracts/NFT_Demo/NFT.sol\":13379:13811  function _mint(address to, uint256 tokenId) internal virtual {... */\n      pop\n      pop\n      jump\t// out\n        /* \"contracts/NFT_Demo/NFT.sol\":18209:18475  function _setTokenURI(uint256 tokenId, string memory _tokenURI)... */\n    tag_153:\n        /* \"contracts/NFT_Demo/NFT.sol\":18341:18357  _exists(tokenId) */\n      tag_239\n        /* \"contracts/NFT_Demo/NFT.sol\":18349:18356  tokenId */\n      dup3\n        /* \"contracts/NFT_Demo/NFT.sol\":18341:18348  _exists */\n      tag_92\n        /* \"contracts/NFT_Demo/NFT.sol\":18341:18357  _exists(tokenId) */\n      jump\t// in\n    tag_239:\n        /* \"contracts/NFT_Demo/NFT.sol\":18320:18427  require(... */\n      tag_240\n      jumpi\n      mload(0x40)\n      0x08c379a000000000000000000000000000000000000000000000000000000000\n      dup2\n      mstore\n      0x04\n      add\n      tag_241\n      swap1\n      tag_242\n      jump\t// in\n    tag_241:\n      mload(0x40)\n      dup1\n      swap2\n      sub\n      swap1\n      revert\n    tag_240:\n        /* \"contracts/NFT_Demo/NFT.sol\":18459:18468  _tokenURI */\n      dup1\n        /* \"contracts/NFT_Demo/NFT.sol\":18437:18447  _tokenURIs */\n      0x0c\n        /* \"contracts/NFT_Demo/NFT.sol\":18437:18456  _tokenURIs[tokenId] */\n      0x00\n        /* \"contracts/NFT_Demo/NFT.sol\":18448:18455  tokenId */\n      dup5\n        /* \"contracts/NFT_Demo/NFT.sol\":18437:18456  _tokenURIs[tokenId] */\n      dup2\n      mstore\n      0x20\n      add\n      swap1\n      dup2\n      mstore\n      0x20\n      add\n      0x00\n      keccak256\n        /* \"contracts/NFT_Demo/NFT.sol\":18437:18468  _tokenURIs[tokenId] = _tokenURI */\n      swap1\n      dup1\n      mload\n      swap1\n      0x20\n      add\n      swap1\n      tag_243\n      swap3\n      swap2\n      swap1\n      tag_127\n      jump\t// in\n    tag_243:\n      pop\n        /* \"contracts/NFT_Demo/NFT.sol\":18209:18475  function _setTokenURI(uint256 tokenId, string memory _tokenURI)... */\n      pop\n      pop\n      jump\t// out\n        /* \"contracts/NFT_Demo/NFT.sol\":12086:12427  function _safeTransfer(... */\n    tag_169:\n        /* \"contracts/NFT_Demo/NFT.sol\":12237:12265  _transfer(from, to, tokenId) */\n      tag_245\n        /* \"contracts/NFT_Demo/NFT.sol\":12247:12251  from */\n      dup5\n        /* \"contracts/NFT_Demo/NFT.sol\":12253:12255  to */\n      dup5\n        /* \"contracts/NFT_Demo/NFT.sol\":12257:12264  tokenId */\n      dup5\n        /* \"contracts/NFT_Demo/NFT.sol\":12237:12246  _transfer */\n      tag_116\n        /* \"contracts/NFT_Demo/NFT.sol\":12237:12265  _transfer(from, to, tokenId) */\n      jump\t// in\n    tag_245:\n        /* \"contracts/NFT_Demo/NFT.sol\":12296:12344  _checkOnERC721Received(from, to, tokenId, _data) */\n      tag_246\n        /* \"contracts/NFT_Demo/NFT.sol\":12319:12323  from */\n      dup5\n        /* \"contracts/NFT_Demo/NFT.sol\":12325:12327  to */\n      dup5\n        /* \"contracts/NFT_Demo/NFT.sol\":12329:12336  tokenId */\n      dup5\n        /* \"contracts/NFT_Demo/NFT.sol\":12338:12343  _data */\n      dup5\n        /* \"contracts/NFT_Demo/NFT.sol\":12296:12318  _checkOnERC721Received */\n      tag_247\n        /* \"contracts/NFT_Demo/NFT.sol\":12296:12344  _checkOnERC721Received(from, to, tokenId, _data) */\n      jump\t// in\n    tag_246:\n        /* \"contracts/NFT_Demo/NFT.sol\":12275:12420  require(... */\n      tag_248\n      jumpi\n      mload(0x40)\n      0x08c379a000000000000000000000000000000000000000000000000000000000\n      dup2\n      mstore\n      0x04\n      add\n      tag_249\n      swap1\n      tag_250\n      jump\t// in\n    tag_249:\n      mload(0x40)\n      dup1\n      swap2\n      sub\n      swap1\n      revert\n    tag_248:\n        /* \"contracts/NFT_Demo/NFT.sol\":12086:12427  function _safeTransfer(... */\n      pop\n      pop\n      pop\n      pop\n      jump\t// out\n        /* \"contracts/NFT_Demo/NFT.sol\":18481:18596  function _baseURI() internal view virtual override returns (string memory) {... */\n    tag_181:\n        /* \"contracts/NFT_Demo/NFT.sol\":18541:18554  string memory */\n      0x60\n        /* \"contracts/NFT_Demo/NFT.sol\":18573:18589  _baseURIextended */\n      0x09\n        /* \"contracts/NFT_Demo/NFT.sol\":18566:18589  return _baseURIextended */\n      dup1\n      sload\n      tag_252\n      swap1\n      tag_85\n      jump\t// in\n    tag_252:\n      dup1\n      0x1f\n      add\n      0x20\n      dup1\n      swap2\n      div\n      mul\n      0x20\n      add\n      mload(0x40)\n      swap1\n      dup2\n      add\n      0x40\n      mstore\n      dup1\n      swap3\n      swap2\n      swap1\n      dup2\n      dup2\n      mstore\n      0x20\n      add\n      dup3\n      dup1\n      sload\n      tag_253\n      swap1\n      tag_85\n      jump\t// in\n    tag_253:\n      dup1\n      iszero\n      tag_254\n      jumpi\n      dup1\n      0x1f\n      lt\n      tag_255\n      jumpi\n      0x0100\n      dup1\n      dup4\n      sload\n      div\n      mul\n      dup4\n      mstore\n      swap2\n      0x20\n      add\n      swap2\n      jump(tag_254)\n    tag_255:\n      dup3\n      add\n      swap2\n      swap1\n      0x00\n      mstore\n      keccak256(0x00, 0x20)\n      swap1\n    tag_256:\n      dup2\n      sload\n      dup2\n      mstore\n      swap1\n      0x01\n      add\n      swap1\n      0x20\n      add\n      dup1\n      dup4\n      gt\n      tag_256\n      jumpi\n      dup3\n      swap1\n      sub\n      0x1f\n      and\n      dup3\n      add\n      swap2\n    tag_254:\n      pop\n      pop\n      pop\n      pop\n      pop\n      swap1\n      pop\n        /* \"contracts/NFT_Demo/NFT.sol\":18481:18596  function _baseURI() internal view virtual override returns (string memory) {... */\n      swap1\n      jump\t// out\n        /* \"contracts/NFT_Demo/NFT.sol\":4744:5259  function toString(uint256 value) internal pure returns (string memory) {... */\n    tag_187:\n        /* \"contracts/NFT_Demo/NFT.sol\":4800:4813  string memory */\n      0x60\n        /* \"contracts/NFT_Demo/NFT.sol\":4838:4839  0 */\n      0x00\n        /* \"contracts/NFT_Demo/NFT.sol\":4829:4834  value */\n      dup3\n        /* \"contracts/NFT_Demo/NFT.sol\":4829:4839  value == 0 */\n      sub\n        /* \"contracts/NFT_Demo/NFT.sol\":4825:4876  if (value == 0) {... */\n      tag_258\n      jumpi\n        /* \"contracts/NFT_Demo/NFT.sol\":4855:4865  return \"0\" */\n      mload(0x40)\n      dup1\n      0x40\n      add\n      0x40\n      mstore\n      dup1\n      0x01\n      dup2\n      mstore\n      0x20\n      add\n      0x3000000000000000000000000000000000000000000000000000000000000000\n      dup2\n      mstore\n      pop\n      swap1\n      pop\n      jump(tag_257)\n        /* \"contracts/NFT_Demo/NFT.sol\":4825:4876  if (value == 0) {... */\n    tag_258:\n        /* \"contracts/NFT_Demo/NFT.sol\":4885:4897  uint256 temp */\n      0x00\n        /* \"contracts/NFT_Demo/NFT.sol\":4900:4905  value */\n      dup3\n        /* \"contracts/NFT_Demo/NFT.sol\":4885:4905  uint256 temp = value */\n      swap1\n      pop\n        /* \"contracts/NFT_Demo/NFT.sol\":4915:4929  uint256 digits */\n      0x00\n        /* \"contracts/NFT_Demo/NFT.sol\":4939:5014  while (temp != 0) {... */\n    tag_259:\n        /* \"contracts/NFT_Demo/NFT.sol\":4954:4955  0 */\n      0x00\n        /* \"contracts/NFT_Demo/NFT.sol\":4946:4950  temp */\n      dup3\n        /* \"contracts/NFT_Demo/NFT.sol\":4946:4955  temp != 0 */\n      eq\n        /* \"contracts/NFT_Demo/NFT.sol\":4939:5014  while (temp != 0) {... */\n      tag_260\n      jumpi\n        /* \"contracts/NFT_Demo/NFT.sol\":4971:4979  digits++ */\n      dup1\n      dup1\n      tag_261\n      swap1\n      tag_155\n      jump\t// in\n    tag_261:\n      swap2\n      pop\n      pop\n        /* \"contracts/NFT_Demo/NFT.sol\":5001:5003  10 */\n      0x0a\n        /* \"contracts/NFT_Demo/NFT.sol\":4993:5003  temp /= 10 */\n      dup3\n      tag_262\n      swap2\n      swap1\n      tag_263\n      jump\t// in\n    tag_262:\n      swap2\n      pop\n        /* \"contracts/NFT_Demo/NFT.sol\":4939:5014  while (temp != 0) {... */\n      jump(tag_259)\n    tag_260:\n        /* \"contracts/NFT_Demo/NFT.sol\":5023:5042  bytes memory buffer */\n      0x00\n        /* \"contracts/NFT_Demo/NFT.sol\":5055:5061  digits */\n      dup2\n        /* \"contracts/NFT_Demo/NFT.sol\":5045:5062  new bytes(digits) */\n      0xffffffffffffffff\n      dup2\n      gt\n      iszero\n      tag_264\n      jumpi\n      tag_265\n      tag_266\n      jump\t// in\n    tag_265:\n    tag_264:\n      mload(0x40)\n      swap1\n      dup1\n      dup3\n      mstore\n      dup1\n      0x1f\n      add\n      not(0x1f)\n      and\n      0x20\n      add\n      dup3\n      add\n      0x40\n      mstore\n      dup1\n      iszero\n      tag_267\n      jumpi\n      dup2\n      0x20\n      add\n      0x01\n      dup3\n      mul\n      dup1\n      calldatasize\n      dup4\n      calldatacopy\n      dup1\n      dup3\n      add\n      swap2\n      pop\n      pop\n      swap1\n      pop\n    tag_267:\n      pop\n        /* \"contracts/NFT_Demo/NFT.sol\":5023:5062  bytes memory buffer = new bytes(digits) */\n      swap1\n      pop\n        /* \"contracts/NFT_Demo/NFT.sol\":5072:5222  while (value != 0) {... */\n    tag_268:\n        /* \"contracts/NFT_Demo/NFT.sol\":5088:5089  0 */\n      0x00\n        /* \"contracts/NFT_Demo/NFT.sol\":5079:5084  value */\n      dup6\n        /* \"contracts/NFT_Demo/NFT.sol\":5079:5089  value != 0 */\n      eq\n        /* \"contracts/NFT_Demo/NFT.sol\":5072:5222  while (value != 0) {... */\n      tag_269\n      jumpi\n        /* \"contracts/NFT_Demo/NFT.sol\":5115:5116  1 */\n      0x01\n        /* \"contracts/NFT_Demo/NFT.sol\":5105:5116  digits -= 1 */\n      dup3\n      tag_270\n      swap2\n      swap1\n      tag_223\n      jump\t// in\n    tag_270:\n      swap2\n      pop\n        /* \"contracts/NFT_Demo/NFT.sol\":5181:5183  10 */\n      0x0a\n        /* \"contracts/NFT_Demo/NFT.sol\":5173:5178  value */\n      dup6\n        /* \"contracts/NFT_Demo/NFT.sol\":5173:5183  value % 10 */\n      tag_271\n      swap2\n      swap1\n      tag_272\n      jump\t// in\n    tag_271:\n        /* \"contracts/NFT_Demo/NFT.sol\":5160:5162  48 */\n      0x30\n        /* \"contracts/NFT_Demo/NFT.sol\":5160:5184  48 + uint256(value % 10) */\n      tag_273\n      swap2\n      swap1\n      tag_225\n      jump\t// in\n    tag_273:\n        /* \"contracts/NFT_Demo/NFT.sol\":5147:5186  bytes1(uint8(48 + uint256(value % 10))) */\n      0xf8\n      shl\n        /* \"contracts/NFT_Demo/NFT.sol\":5130:5136  buffer */\n      dup2\n        /* \"contracts/NFT_Demo/NFT.sol\":5137:5143  digits */\n      dup4\n        /* \"contracts/NFT_Demo/NFT.sol\":5130:5144  buffer[digits] */\n      dup2\n      mload\n      dup2\n      lt\n      tag_274\n      jumpi\n      tag_275\n      tag_276\n      jump\t// in\n    tag_275:\n    tag_274:\n      0x20\n      add\n      add\n        /* \"contracts/NFT_Demo/NFT.sol\":5130:5186  buffer[digits] = bytes1(uint8(48 + uint256(value % 10))) */\n      swap1\n      not(0xffffffffffffffffffffffffffffffffffffffffffffffffffffffffffffff)\n      and\n      swap1\n      dup2\n      0x00\n      byte\n      swap1\n      mstore8\n      pop\n        /* \"contracts/NFT_Demo/NFT.sol\":5209:5211  10 */\n      0x0a\n        /* \"contracts/NFT_Demo/NFT.sol\":5200:5211  value /= 10 */\n      dup6\n      tag_277\n      swap2\n      swap1\n      tag_263\n      jump\t// in\n    tag_277:\n      swap5\n      pop\n        /* \"contracts/NFT_Demo/NFT.sol\":5072:5222  while (value != 0) {... */\n      jump(tag_268)\n    tag_269:\n        /* \"contracts/NFT_Demo/NFT.sol\":5245:5251  buffer */\n      dup1\n        /* \"contracts/NFT_Demo/NFT.sol\":5231:5252  return string(buffer) */\n      swap4\n      pop\n      pop\n      pop\n      pop\n        /* \"contracts/NFT_Demo/NFT.sol\":4744:5259  function toString(uint256 value) internal pure returns (string memory) {... */\n    tag_257:\n      swap2\n      swap1\n      pop\n      jump\t// out\n        /* \"contracts/NFT_Demo/NFT.sol\":16320:16560  function _beforeTokenTransfer(... */\n    tag_220:\n        /* \"contracts/NFT_Demo/NFT.sol\":16491:16495  from */\n      dup3\n        /* \"contracts/NFT_Demo/NFT.sol\":16471:16495  _owners[tokenId] == from */\n      0xffffffffffffffffffffffffffffffffffffffff\n      and\n        /* \"contracts/NFT_Demo/NFT.sol\":16471:16478  _owners */\n      0x02\n        /* \"contracts/NFT_Demo/NFT.sol\":16471:16487  _owners[tokenId] */\n      0x00\n        /* \"contracts/NFT_Demo/NFT.sol\":16479:16486  tokenId */\n      dup4\n        /* \"contracts/NFT_Demo/NFT.sol\":16471:16487  _owners[tokenId] */\n      dup2\n      mstore\n      0x20\n      add\n      swap1\n      dup2\n      mstore\n      0x20\n      add\n      0x00\n      keccak256\n      0x00\n      swap1\n      sload\n      swap1\n      0x0100\n      exp\n      swap1\n      div\n      0xffffffffffffffffffffffffffffffffffffffff\n      and\n        /* \"contracts/NFT_Demo/NFT.sol\":16471:16495  _owners[tokenId] == from */\n      0xffffffffffffffffffffffffffffffffffffffff\n      and\n      eq\n        /* \"contracts/NFT_Demo/NFT.sol\":16450:16553  require(... */\n      tag_279\n      jumpi\n      mload(0x40)\n      0x08c379a000000000000000000000000000000000000000000000000000000000\n      dup2\n      mstore\n      0x04\n      add\n      tag_280\n      swap1\n      tag_281\n      jump\t// in\n    tag_280:\n      mload(0x40)\n      dup1\n      swap2\n      sub\n      swap1\n      revert\n    tag_279:\n        /* \"contracts/NFT_Demo/NFT.sol\":16320:16560  function _beforeTokenTransfer(... */\n      pop\n      pop\n      pop\n      jump\t// out\n        /* \"contracts/NFT_Demo/NFT.sol\":16566:16687  function _afterTokenTransfer(... */\n    tag_227:\n      pop\n      pop\n      pop\n      jump\t// out\n        /* \"contracts/NFT_Demo/NFT.sol\":15364:16314  function _checkOnERC721Received(... */\n    tag_247:\n        /* \"contracts/NFT_Demo/NFT.sol\":15514:15518  bool */\n      0x00\n        /* \"contracts/NFT_Demo/NFT.sol\":15534:15549  to.isContract() */\n      tag_284\n        /* \"contracts/NFT_Demo/NFT.sol\":15534:15536  to */\n      dup5\n        /* \"contracts/NFT_Demo/NFT.sol\":15534:15547  to.isContract */\n      0xffffffffffffffffffffffffffffffffffffffff\n      and\n      tag_285\n        /* \"contracts/NFT_Demo/NFT.sol\":15534:15549  to.isContract() */\n      jump\t// in\n    tag_284:\n        /* \"contracts/NFT_Demo/NFT.sol\":15530:16308  if (to.isContract()) {... */\n      iszero\n      tag_286\n      jumpi\n        /* \"contracts/NFT_Demo/NFT.sol\":15601:15603  to */\n      dup4\n        /* \"contracts/NFT_Demo/NFT.sol\":15585:15621  IERC721Receiver(to).onERC721Received */\n      0xffffffffffffffffffffffffffffffffffffffff\n      and\n      0x150b7a02\n        /* \"contracts/NFT_Demo/NFT.sol\":15643:15655  _msgSender() */\n      tag_287\n        /* \"contracts/NFT_Demo/NFT.sol\":15643:15653  _msgSender */\n      tag_102\n        /* \"contracts/NFT_Demo/NFT.sol\":15643:15655  _msgSender() */\n      jump\t// in\n    tag_287:\n        /* \"contracts/NFT_Demo/NFT.sol\":15677:15681  from */\n      dup8\n        /* \"contracts/NFT_Demo/NFT.sol\":15703:15710  tokenId */\n      dup7\n        /* \"contracts/NFT_Demo/NFT.sol\":15732:15737  _data */\n      dup7\n        /* \"contracts/NFT_Demo/NFT.sol\":15585:15755  IERC721Receiver(to).onERC721Received(... */\n      mload(0x40)\n      dup6\n      0xffffffff\n      and\n      0xe0\n      shl\n      dup2\n      mstore\n      0x04\n      add\n      tag_288\n      swap5\n      swap4\n      swap3\n      swap2\n      swap1\n      tag_289\n      jump\t// in\n    tag_288:\n      0x20\n      mload(0x40)\n      dup1\n      dup4\n      sub\n      dup2\n      0x00\n      dup8\n      gas\n      call\n      swap3\n      pop\n      pop\n      pop\n      dup1\n      iszero\n      tag_290\n      jumpi\n      pop\n      mload(0x40)\n      returndatasize\n      not(0x1f)\n      0x1f\n      dup3\n      add\n      and\n      dup3\n      add\n      dup1\n      0x40\n      mstore\n      pop\n      dup2\n      add\n      swap1\n      tag_291\n      swap2\n      swap1\n      tag_292\n      jump\t// in\n    tag_291:\n      0x01\n    tag_290:\n        /* \"contracts/NFT_Demo/NFT.sol\":15565:16256  try... */\n      tag_293\n      jumpi\n      returndatasize\n      dup1\n      0x00\n      dup2\n      eq\n      tag_298\n      jumpi\n      mload(0x40)\n      swap2\n      pop\n      and(add(returndatasize, 0x3f), not(0x1f))\n      dup3\n      add\n      0x40\n      mstore\n      returndatasize\n      dup3\n      mstore\n      returndatasize\n      0x00\n      0x20\n      dup5\n      add\n      returndatacopy\n      jump(tag_297)\n    tag_298:\n      0x60\n      swap2\n      pop\n    tag_297:\n      pop\n        /* \"contracts/NFT_Demo/NFT.sol\":15951:15952  0 */\n      0x00\n        /* \"contracts/NFT_Demo/NFT.sol\":15934:15940  reason */\n      dup2\n        /* \"contracts/NFT_Demo/NFT.sol\":15934:15947  reason.length */\n      mload\n        /* \"contracts/NFT_Demo/NFT.sol\":15934:15952  reason.length == 0 */\n      sub\n        /* \"contracts/NFT_Demo/NFT.sol\":15930:16242  if (reason.length == 0) {... */\n      tag_299\n      jumpi\n        /* \"contracts/NFT_Demo/NFT.sol\":15976:16082  revert(... */\n      mload(0x40)\n      0x08c379a000000000000000000000000000000000000000000000000000000000\n      dup2\n      mstore\n      0x04\n      add\n      tag_300\n      swap1\n      tag_250\n      jump\t// in\n    tag_300:\n      mload(0x40)\n      dup1\n      swap2\n      sub\n      swap1\n      revert\n        /* \"contracts/NFT_Demo/NFT.sol\":15930:16242  if (reason.length == 0) {... */\n    tag_299:\n        /* \"contracts/NFT_Demo/NFT.sol\":16194:16200  reason */\n      dup1\n        /* \"contracts/NFT_Demo/NFT.sol\":16188:16201  mload(reason) */\n      mload\n        /* \"contracts/NFT_Demo/NFT.sol\":16179:16185  reason */\n      dup2\n        /* \"contracts/NFT_Demo/NFT.sol\":16175:16177  32 */\n      0x20\n        /* \"contracts/NFT_Demo/NFT.sol\":16171:16186  add(32, reason) */\n      add\n        /* \"contracts/NFT_Demo/NFT.sol\":16164:16202  revert(add(32, reason), mload(reason)) */\n      revert\n        /* \"contracts/NFT_Demo/NFT.sol\":15565:16256  try... */\n    tag_293:\n        /* \"contracts/NFT_Demo/NFT.sol\":15827:15868  IERC721Receiver.onERC721Received.selector */\n      shl(0xe0, 0x150b7a02)\n        /* \"contracts/NFT_Demo/NFT.sol\":15817:15868  retval == IERC721Receiver.onERC721Received.selector */\n      not(0xffffffffffffffffffffffffffffffffffffffffffffffffffffffff)\n      and\n        /* \"contracts/NFT_Demo/NFT.sol\":15817:15823  retval */\n      dup2\n        /* \"contracts/NFT_Demo/NFT.sol\":15817:15868  retval == IERC721Receiver.onERC721Received.selector */\n      not(0xffffffffffffffffffffffffffffffffffffffffffffffffffffffff)\n      and\n      eq\n        /* \"contracts/NFT_Demo/NFT.sol\":15810:15868  return retval == IERC721Receiver.onERC721Received.selector */\n      swap2\n      pop\n      pop\n      jump(tag_283)\n        /* \"contracts/NFT_Demo/NFT.sol\":15530:16308  if (to.isContract()) {... */\n    tag_286:\n        /* \"contracts/NFT_Demo/NFT.sol\":16293:16297  true */\n      0x01\n        /* \"contracts/NFT_Demo/NFT.sol\":16286:16297  return true */\n      swap1\n      pop\n        /* \"contracts/NFT_Demo/NFT.sol\":15364:16314  function _checkOnERC721Received(... */\n    tag_283:\n      swap5\n      swap4\n      pop\n      pop\n      pop\n      pop\n      jump\t// out\n        /* \"contracts/NFT_Demo/NFT.sol\":522:842  function isContract(address account) internal view returns (bool) {... */\n    tag_285:\n        /* \"contracts/NFT_Demo/NFT.sol\":582:586  bool */\n      0x00\n        /* \"contracts/NFT_Demo/NFT.sol\":834:835  0 */\n      dup1\n        /* \"contracts/NFT_Demo/NFT.sol\":812:819  account */\n      dup3\n        /* \"contracts/NFT_Demo/NFT.sol\":812:831  account.code.length */\n      0xffffffffffffffffffffffffffffffffffffffff\n      and\n      extcodesize\n        /* \"contracts/NFT_Demo/NFT.sol\":812:835  account.code.length > 0 */\n      gt\n        /* \"contracts/NFT_Demo/NFT.sol\":805:835  return account.code.length > 0 */\n      swap1\n      pop\n        /* \"contracts/NFT_Demo/NFT.sol\":522:842  function isContract(address account) internal view returns (bool) {... */\n      swap2\n      swap1\n      pop\n      jump\t// out\n    tag_127:\n      dup3\n      dup1\n      sload\n      tag_305\n      swap1\n      tag_85\n      jump\t// in\n    tag_305:\n      swap1\n      0x00\n      mstore\n      keccak256(0x00, 0x20)\n      swap1\n      0x1f\n      add\n      0x20\n      swap1\n      div\n      dup2\n      add\n      swap3\n      dup3\n      tag_307\n      jumpi\n      0x00\n      dup6\n      sstore\n      jump(tag_306)\n    tag_307:\n      dup3\n      0x1f\n      lt\n      tag_308\n      jumpi\n      dup1\n      mload\n      not(0xff)\n      and\n      dup4\n      dup1\n      add\n      or\n      dup6\n      sstore\n      jump(tag_306)\n    tag_308:\n      dup3\n      dup1\n      add\n      0x01\n      add\n      dup6\n      sstore\n      dup3\n      iszero\n      tag_306\n      jumpi\n      swap2\n      dup3\n      add\n    tag_309:\n      dup3\n      dup2\n      gt\n      iszero\n      tag_310\n      jumpi\n      dup3\n      mload\n      dup3\n      sstore\n      swap2\n      0x20\n      add\n      swap2\n      swap1\n      0x01\n      add\n      swap1\n      jump(tag_309)\n    tag_310:\n    tag_306:\n      pop\n      swap1\n      pop\n      tag_311\n      swap2\n      swap1\n      tag_312\n      jump\t// in\n    tag_311:\n      pop\n      swap1\n      jump\t// out\n    tag_312:\n    tag_313:\n      dup1\n      dup3\n      gt\n      iszero\n      tag_314\n      jumpi\n      0x00\n      dup2\n      0x00\n      swap1\n      sstore\n      pop\n      0x01\n      add\n      jump(tag_313)\n    tag_314:\n      pop\n      swap1\n      jump\t// out\n        /* \"#utility.yul\":7:106   */\n    tag_315:\n        /* \"#utility.yul\":59:65   */\n      0x00\n        /* \"#utility.yul\":93:98   */\n      dup2\n        /* \"#utility.yul\":87:99   */\n      mload\n        /* \"#utility.yul\":77:99   */\n      swap1\n      pop\n        /* \"#utility.yul\":7:106   */\n      swap2\n      swap1\n      pop\n      jump\t// out\n        /* \"#utility.yul\":112:281   */\n    tag_316:\n        /* \"#utility.yul\":196:207   */\n      0x00\n        /* \"#utility.yul\":230:236   */\n      dup3\n        /* \"#utility.yul\":225:228   */\n      dup3\n        /* \"#utility.yul\":218:237   */\n      mstore\n        /* \"#utility.yul\":270:274   */\n      0x20\n        /* \"#utility.yul\":265:268   */\n      dup3\n        /* \"#utility.yul\":261:275   */\n      add\n        /* \"#utility.yul\":246:275   */\n      swap1\n      pop\n        /* \"#utility.yul\":112:281   */\n      swap3\n      swap2\n      pop\n      pop\n      jump\t// out\n        /* \"#utility.yul\":287:594   */\n    tag_317:\n        /* \"#utility.yul\":355:356   */\n      0x00\n        /* \"#utility.yul\":365:478   */\n    tag_392:\n        /* \"#utility.yul\":379:385   */\n      dup4\n        /* \"#utility.yul\":376:377   */\n      dup2\n        /* \"#utility.yul\":373:386   */\n      lt\n        /* \"#utility.yul\":365:478   */\n      iszero\n      tag_394\n      jumpi\n        /* \"#utility.yul\":464:465   */\n      dup1\n        /* \"#utility.yul\":459:462   */\n      dup3\n        /* \"#utility.yul\":455:466   */\n      add\n        /* \"#utility.yul\":449:467   */\n      mload\n        /* \"#utility.yul\":445:446   */\n      dup2\n        /* \"#utility.yul\":440:443   */\n      dup5\n        /* \"#utility.yul\":436:447   */\n      add\n        /* \"#utility.yul\":429:468   */\n      mstore\n        /* \"#utility.yul\":401:403   */\n      0x20\n        /* \"#utility.yul\":398:399   */\n      dup2\n        /* \"#utility.yul\":394:404   */\n      add\n        /* \"#utility.yul\":389:404   */\n      swap1\n      pop\n        /* \"#utility.yul\":365:478   */\n      jump(tag_392)\n    tag_394:\n        /* \"#utility.yul\":496:502   */\n      dup4\n        /* \"#utility.yul\":493:494   */\n      dup2\n        /* \"#utility.yul\":490:503   */\n      gt\n        /* \"#utility.yul\":487:588   */\n      iszero\n      tag_395\n      jumpi\n        /* \"#utility.yul\":576:577   */\n      0x00\n        /* \"#utility.yul\":567:573   */\n      dup5\n        /* \"#utility.yul\":562:565   */\n      dup5\n        /* \"#utility.yul\":558:574   */\n      add\n        /* \"#utility.yul\":551:578   */\n      mstore\n        /* \"#utility.yul\":487:588   */\n    tag_395:\n        /* \"#utility.yul\":336:594   */\n      pop\n        /* \"#utility.yul\":287:594   */\n      pop\n      pop\n      pop\n      jump\t// out\n        /* \"#utility.yul\":600:702   */\n    tag_318:\n        /* \"#utility.yul\":641:647   */\n      0x00\n        /* \"#utility.yul\":692:694   */\n      0x1f\n        /* \"#utility.yul\":688:695   */\n      not\n        /* \"#utility.yul\":683:685   */\n      0x1f\n        /* \"#utility.yul\":676:681   */\n      dup4\n        /* \"#utility.yul\":672:686   */\n      add\n        /* \"#utility.yul\":668:696   */\n      and\n        /* \"#utility.yul\":658:696   */\n      swap1\n      pop\n        /* \"#utility.yul\":600:702   */\n      swap2\n      swap1\n      pop\n      jump\t// out\n        /* \"#utility.yul\":708:1072   */\n    tag_319:\n        /* \"#utility.yul\":796:799   */\n      0x00\n        /* \"#utility.yul\":824:863   */\n      tag_398\n        /* \"#utility.yul\":857:862   */\n      dup3\n        /* \"#utility.yul\":824:863   */\n      tag_315\n      jump\t// in\n    tag_398:\n        /* \"#utility.yul\":879:950   */\n      tag_399\n        /* \"#utility.yul\":943:949   */\n      dup2\n        /* \"#utility.yul\":938:941   */\n      dup6\n        /* \"#utility.yul\":879:950   */\n      tag_316\n      jump\t// in\n    tag_399:\n        /* \"#utility.yul\":872:950   */\n      swap4\n      pop\n        /* \"#utility.yul\":959:1011   */\n      tag_400\n        /* \"#utility.yul\":1004:1010   */\n      dup2\n        /* \"#utility.yul\":999:1002   */\n      dup6\n        /* \"#utility.yul\":992:996   */\n      0x20\n        /* \"#utility.yul\":985:990   */\n      dup7\n        /* \"#utility.yul\":981:997   */\n      add\n        /* \"#utility.yul\":959:1011   */\n      tag_317\n      jump\t// in\n    tag_400:\n        /* \"#utility.yul\":1036:1065   */\n      tag_401\n        /* \"#utility.yul\":1058:1064   */\n      dup2\n        /* \"#utility.yul\":1036:1065   */\n      tag_318\n      jump\t// in\n    tag_401:\n        /* \"#utility.yul\":1031:1034   */\n      dup5\n        /* \"#utility.yul\":1027:1066   */\n      add\n        /* \"#utility.yul\":1020:1066   */\n      swap2\n      pop\n        /* \"#utility.yul\":800:1072   */\n      pop\n        /* \"#utility.yul\":708:1072   */\n      swap3\n      swap2\n      pop\n      pop\n      jump\t// out\n        /* \"#utility.yul\":1078:1391   */\n    tag_25:\n        /* \"#utility.yul\":1191:1195   */\n      0x00\n        /* \"#utility.yul\":1229:1231   */\n      0x20\n        /* \"#utility.yul\":1218:1227   */\n      dup3\n        /* \"#utility.yul\":1214:1232   */\n      add\n        /* \"#utility.yul\":1206:1232   */\n      swap1\n      pop\n        /* \"#utility.yul\":1278:1287   */\n      dup2\n        /* \"#utility.yul\":1272:1276   */\n      dup2\n        /* \"#utility.yul\":1268:1288   */\n      sub\n        /* \"#utility.yul\":1264:1265   */\n      0x00\n        /* \"#utility.yul\":1253:1262   */\n      dup4\n        /* \"#utility.yul\":1249:1266   */\n      add\n        /* \"#utility.yul\":1242:1289   */\n      mstore\n        /* \"#utility.yul\":1306:1384   */\n      tag_403\n        /* \"#utility.yul\":1379:1383   */\n      dup2\n        /* \"#utility.yul\":1370:1376   */\n      dup5\n        /* \"#utility.yul\":1306:1384   */\n      tag_319\n      jump\t// in\n    tag_403:\n        /* \"#utility.yul\":1298:1384   */\n      swap1\n      pop\n        /* \"#utility.yul\":1078:1391   */\n      swap3\n      swap2\n      pop\n      pop\n      jump\t// out\n        /* \"#utility.yul\":1397:1472   */\n    tag_320:\n        /* \"#utility.yul\":1430:1436   */\n      0x00\n        /* \"#utility.yul\":1463:1465   */\n      0x40\n        /* \"#utility.yul\":1457:1466   */\n      mload\n        /* \"#utility.yul\":1447:1466   */\n      swap1\n      pop\n        /* \"#utility.yul\":1397:1472   */\n      swap1\n      jump\t// out\n        /* \"#utility.yul\":1478:1595   */\n    tag_321:\n        /* \"#utility.yul\":1587:1588   */\n      0x00\n        /* \"#utility.yul\":1584:1585   */\n      dup1\n        /* \"#utility.yul\":1577:1589   */\n      revert\n        /* \"#utility.yul\":1601:1718   */\n    tag_322:\n        /* \"#utility.yul\":1710:1711   */\n      0x00\n        /* \"#utility.yul\":1707:1708   */\n      dup1\n        /* \"#utility.yul\":1700:1712   */\n      revert\n        /* \"#utility.yul\":1724:1801   */\n    tag_323:\n        /* \"#utility.yul\":1761:1768   */\n      0x00\n        /* \"#utility.yul\":1790:1795   */\n      dup2\n        /* \"#utility.yul\":1779:1795   */\n      swap1\n      pop\n        /* \"#utility.yul\":1724:1801   */\n      swap2\n      swap1\n      pop\n      jump\t// out\n        /* \"#utility.yul\":1807:1929   */\n    tag_324:\n        /* \"#utility.yul\":1880:1904   */\n      tag_409\n        /* \"#utility.yul\":1898:1903   */\n      dup2\n        /* \"#utility.yul\":1880:1904   */\n      tag_323\n      jump\t// in\n    tag_409:\n        /* \"#utility.yul\":1873:1878   */\n      dup2\n        /* \"#utility.yul\":1870:1905   */\n      eq\n        /* \"#utility.yul\":1860:1923   */\n      tag_410\n      jumpi\n        /* \"#utility.yul\":1919:1920   */\n      0x00\n        /* \"#utility.yul\":1916:1917   */\n      dup1\n        /* \"#utility.yul\":1909:1921   */\n      revert\n        /* \"#utility.yul\":1860:1923   */\n    tag_410:\n        /* \"#utility.yul\":1807:1929   */\n      pop\n      jump\t// out\n        /* \"#utility.yul\":1935:2074   */\n    tag_325:\n        /* \"#utility.yul\":1981:1986   */\n      0x00\n        /* \"#utility.yul\":2019:2025   */\n      dup2\n        /* \"#utility.yul\":2006:2026   */\n      calldataload\n        /* \"#utility.yul\":1997:2026   */\n      swap1\n      pop\n        /* \"#utility.yul\":2035:2068   */\n      tag_412\n        /* \"#utility.yul\":2062:2067   */\n      dup2\n        /* \"#utility.yul\":2035:2068   */\n      tag_324\n      jump\t// in\n    tag_412:\n        /* \"#utility.yul\":1935:2074   */\n      swap3\n      swap2\n      pop\n      pop\n      jump\t// out\n        /* \"#utility.yul\":2080:2409   */\n    tag_28:\n        /* \"#utility.yul\":2139:2145   */\n      0x00\n        /* \"#utility.yul\":2188:2190   */\n      0x20\n        /* \"#utility.yul\":2176:2185   */\n      dup3\n        /* \"#utility.yul\":2167:2174   */\n      dup5\n        /* \"#utility.yul\":2163:2186   */\n      sub\n        /* \"#utility.yul\":2159:2191   */\n      slt\n        /* \"#utility.yul\":2156:2275   */\n      iszero\n      tag_414\n      jumpi\n        /* \"#utility.yul\":2194:2273   */\n      tag_415\n      tag_321\n      jump\t// in\n    tag_415:\n        /* \"#utility.yul\":2156:2275   */\n    tag_414:\n        /* \"#utility.yul\":2314:2315   */\n      0x00\n        /* \"#utility.yul\":2339:2392   */\n      tag_416\n        /* \"#utility.yul\":2384:2391   */\n      dup5\n        /* \"#utility.yul\":2375:2381   */\n      dup3\n        /* \"#utility.yul\":2364:2373   */\n      dup6\n        /* \"#utility.yul\":2360:2382   */\n      add\n        /* \"#utility.yul\":2339:2392   */\n      tag_325\n      jump\t// in\n    tag_416:\n        /* \"#utility.yul\":2329:2392   */\n      swap2\n      pop\n        /* \"#utility.yul\":2285:2402   */\n      pop\n        /* \"#utility.yul\":2080:2409   */\n      swap3\n      swap2\n      pop\n      pop\n      jump\t// out\n        /* \"#utility.yul\":2415:2541   */\n    tag_326:\n        /* \"#utility.yul\":2452:2459   */\n      0x00\n        /* \"#utility.yul\":2492:2534   */\n      0xffffffffffffffffffffffffffffffffffffffff\n        /* \"#utility.yul\":2485:2490   */\n      dup3\n        /* \"#utility.yul\":2481:2535   */\n      and\n        /* \"#utility.yul\":2470:2535   */\n      swap1\n      pop\n        /* \"#utility.yul\":2415:2541   */\n      swap2\n      swap1\n      pop\n      jump\t// out\n        /* \"#utility.yul\":2547:2643   */\n    tag_327:\n        /* \"#utility.yul\":2584:2591   */\n      0x00\n        /* \"#utility.yul\":2613:2637   */\n      tag_419\n        /* \"#utility.yul\":2631:2636   */\n      dup3\n        /* \"#utility.yul\":2613:2637   */\n      tag_326\n      jump\t// in\n    tag_419:\n        /* \"#utility.yul\":2602:2637   */\n      swap1\n      pop\n        /* \"#utility.yul\":2547:2643   */\n      swap2\n      swap1\n      pop\n      jump\t// out\n        /* \"#utility.yul\":2649:2767   */\n    tag_328:\n        /* \"#utility.yul\":2736:2760   */\n      tag_421\n        /* \"#utility.yul\":2754:2759   */\n      dup2\n        /* \"#utility.yul\":2736:2760   */\n      tag_327\n      jump\t// in\n    tag_421:\n        /* \"#utility.yul\":2731:2734   */\n      dup3\n        /* \"#utility.yul\":2724:2761   */\n      mstore\n        /* \"#utility.yul\":2649:2767   */\n      pop\n      pop\n      jump\t// out\n        /* \"#utility.yul\":2773:2995   */\n    tag_31:\n        /* \"#utility.yul\":2866:2870   */\n      0x00\n        /* \"#utility.yul\":2904:2906   */\n      0x20\n        /* \"#utility.yul\":2893:2902   */\n      dup3\n        /* \"#utility.yul\":2889:2907   */\n      add\n        /* \"#utility.yul\":2881:2907   */\n      swap1\n      pop\n        /* \"#utility.yul\":2917:2988   */\n      tag_423\n        /* \"#utility.yul\":2985:2986   */\n      0x00\n        /* \"#utility.yul\":2974:2983   */\n      dup4\n        /* \"#utility.yul\":2970:2987   */\n      add\n        /* \"#utility.yul\":2961:2967   */\n      dup5\n        /* \"#utility.yul\":2917:2988   */\n      tag_328\n      jump\t// in\n    tag_423:\n        /* \"#utility.yul\":2773:2995   */\n      swap3\n      swap2\n      pop\n      pop\n      jump\t// out\n        /* \"#utility.yul\":3001:3123   */\n    tag_329:\n        /* \"#utility.yul\":3074:3098   */\n      tag_425\n        /* \"#utility.yul\":3092:3097   */\n      dup2\n        /* \"#utility.yul\":3074:3098   */\n      tag_327\n      jump\t// in\n    tag_425:\n        /* \"#utility.yul\":3067:3072   */\n      dup2\n        /* \"#utility.yul\":3064:3099   */\n      eq\n        /* \"#utility.yul\":3054:3117   */\n      tag_426\n      jumpi\n        /* \"#utility.yul\":3113:3114   */\n      0x00\n        /* \"#utility.yul\":3110:3111   */\n      dup1\n        /* \"#utility.yul\":3103:3115   */\n      revert\n        /* \"#utility.yul\":3054:3117   */\n    tag_426:\n        /* \"#utility.yul\":3001:3123   */\n      pop\n      jump\t// out\n        /* \"#utility.yul\":3129:3268   */\n    tag_330:\n        /* \"#utility.yul\":3175:3180   */\n      0x00\n        /* \"#utility.yul\":3213:3219   */\n      dup2\n        /* \"#utility.yul\":3200:3220   */\n      calldataload\n        /* \"#utility.yul\":3191:3220   */\n      swap1\n      pop\n        /* \"#utility.yul\":3229:3262   */\n      tag_428\n        /* \"#utility.yul\":3256:3261   */\n      dup2\n        /* \"#utility.yul\":3229:3262   */\n      tag_329\n      jump\t// in\n    tag_428:\n        /* \"#utility.yul\":3129:3268   */\n      swap3\n      swap2\n      pop\n      pop\n      jump\t// out\n        /* \"#utility.yul\":3274:3748   */\n    tag_34:\n        /* \"#utility.yul\":3342:3348   */\n      0x00\n        /* \"#utility.yul\":3350:3356   */\n      dup1\n        /* \"#utility.yul\":3399:3401   */\n      0x40\n        /* \"#utility.yul\":3387:3396   */\n      dup4\n        /* \"#utility.yul\":3378:3385   */\n      dup6\n        /* \"#utility.yul\":3374:3397   */\n      sub\n        /* \"#utility.yul\":3370:3402   */\n      slt\n        /* \"#utility.yul\":3367:3486   */\n      iszero\n      tag_430\n      jumpi\n        /* \"#utility.yul\":3405:3484   */\n      tag_431\n      tag_321\n      jump\t// in\n    tag_431:\n        /* \"#utility.yul\":3367:3486   */\n    tag_430:\n        /* \"#utility.yul\":3525:3526   */\n      0x00\n        /* \"#utility.yul\":3550:3603   */\n      tag_432\n        /* \"#utility.yul\":3595:3602   */\n      dup6\n        /* \"#utility.yul\":3586:3592   */\n      dup3\n        /* \"#utility.yul\":3575:3584   */\n      dup7\n        /* \"#utility.yul\":3571:3593   */\n      add\n        /* \"#utility.yul\":3550:3603   */\n      tag_330\n      jump\t// in\n    tag_432:\n        /* \"#utility.yul\":3540:3603   */\n      swap3\n      pop\n        /* \"#utility.yul\":3496:3613   */\n      pop\n        /* \"#utility.yul\":3652:3654   */\n      0x20\n        /* \"#utility.yul\":3678:3731   */\n      tag_433\n        /* \"#utility.yul\":3723:3730   */\n      dup6\n        /* \"#utility.yul\":3714:3720   */\n      dup3\n        /* \"#utility.yul\":3703:3712   */\n      dup7\n        /* \"#utility.yul\":3699:3721   */\n      add\n        /* \"#utility.yul\":3678:3731   */\n      tag_325\n      jump\t// in\n    tag_433:\n        /* \"#utility.yul\":3668:3731   */\n      swap2\n      pop\n        /* \"#utility.yul\":3623:3741   */\n      pop\n        /* \"#utility.yul\":3274:3748   */\n      swap3\n      pop\n      swap3\n      swap1\n      pop\n      jump\t// out\n        /* \"#utility.yul\":3754:4373   */\n    tag_38:\n        /* \"#utility.yul\":3831:3837   */\n      0x00\n        /* \"#utility.yul\":3839:3845   */\n      dup1\n        /* \"#utility.yul\":3847:3853   */\n      0x00\n        /* \"#utility.yul\":3896:3898   */\n      0x60\n        /* \"#utility.yul\":3884:3893   */\n      dup5\n        /* \"#utility.yul\":3875:3882   */\n      dup7\n        /* \"#utility.yul\":3871:3894   */\n      sub\n        /* \"#utility.yul\":3867:3899   */\n      slt\n        /* \"#utility.yul\":3864:3983   */\n      iszero\n      tag_435\n      jumpi\n        /* \"#utility.yul\":3902:3981   */\n      tag_436\n      tag_321\n      jump\t// in\n    tag_436:\n        /* \"#utility.yul\":3864:3983   */\n    tag_435:\n        /* \"#utility.yul\":4022:4023   */\n      0x00\n        /* \"#utility.yul\":4047:4100   */\n      tag_437\n        /* \"#utility.yul\":4092:4099   */\n      dup7\n        /* \"#utility.yul\":4083:4089   */\n      dup3\n        /* \"#utility.yul\":4072:4081   */\n      dup8\n        /* \"#utility.yul\":4068:4090   */\n      add\n        /* \"#utility.yul\":4047:4100   */\n      tag_330\n      jump\t// in\n    tag_437:\n        /* \"#utility.yul\":4037:4100   */\n      swap4\n      pop\n        /* \"#utility.yul\":3993:4110   */\n      pop\n        /* \"#utility.yul\":4149:4151   */\n      0x20\n        /* \"#utility.yul\":4175:4228   */\n      tag_438\n        /* \"#utility.yul\":4220:4227   */\n      dup7\n        /* \"#utility.yul\":4211:4217   */\n      dup3\n        /* \"#utility.yul\":4200:4209   */\n      dup8\n        /* \"#utility.yul\":4196:4218   */\n      add\n        /* \"#utility.yul\":4175:4228   */\n      tag_330\n      jump\t// in\n    tag_438:\n        /* \"#utility.yul\":4165:4228   */\n      swap3\n      pop\n        /* \"#utility.yul\":4120:4238   */\n      pop\n        /* \"#utility.yul\":4277:4279   */\n      0x40\n        /* \"#utility.yul\":4303:4356   */\n      tag_439\n        /* \"#utility.yul\":4348:4355   */\n      dup7\n        /* \"#utility.yul\":4339:4345   */\n      dup3\n        /* \"#utility.yul\":4328:4337   */\n      dup8\n        /* \"#utility.yul\":4324:4346   */\n      add\n        /* \"#utility.yul\":4303:4356   */\n      tag_325\n      jump\t// in\n    tag_439:\n        /* \"#utility.yul\":4293:4356   */\n      swap2\n      pop\n        /* \"#utility.yul\":4248:4366   */\n      pop\n        /* \"#utility.yul\":3754:4373   */\n      swap3\n      pop\n      swap3\n      pop\n      swap3\n      jump\t// out\n        /* \"#utility.yul\":4379:4496   */\n    tag_331:\n        /* \"#utility.yul\":4488:4489   */\n      0x00\n        /* \"#utility.yul\":4485:4486   */\n      dup1\n        /* \"#utility.yul\":4478:4490   */\n      revert\n        /* \"#utility.yul\":4502:4619   */\n    tag_332:\n        /* \"#utility.yul\":4611:4612   */\n      0x00\n        /* \"#utility.yul\":4608:4609   */\n      dup1\n        /* \"#utility.yul\":4601:4613   */\n      revert\n        /* \"#utility.yul\":4625:4805   */\n    tag_266:\n        /* \"#utility.yul\":4673:4750   */\n      0x4e487b7100000000000000000000000000000000000000000000000000000000\n        /* \"#utility.yul\":4670:4671   */\n      0x00\n        /* \"#utility.yul\":4663:4751   */\n      mstore\n        /* \"#utility.yul\":4770:4774   */\n      0x41\n        /* \"#utility.yul\":4767:4768   */\n      0x04\n        /* \"#utility.yul\":4760:4775   */\n      mstore\n        /* \"#utility.yul\":4794:4798   */\n      0x24\n        /* \"#utility.yul\":4791:4792   */\n      0x00\n        /* \"#utility.yul\":4784:4799   */\n      revert\n        /* \"#utility.yul\":4811:5092   */\n    tag_333:\n        /* \"#utility.yul\":4894:4921   */\n      tag_444\n        /* \"#utility.yul\":4916:4920   */\n      dup3\n        /* \"#utility.yul\":4894:4921   */\n      tag_318\n      jump\t// in\n    tag_444:\n        /* \"#utility.yul\":4886:4892   */\n      dup2\n        /* \"#utility.yul\":4882:4922   */\n      add\n        /* \"#utility.yul\":5024:5030   */\n      dup2\n        /* \"#utility.yul\":5012:5022   */\n      dup2\n        /* \"#utility.yul\":5009:5031   */\n      lt\n        /* \"#utility.yul\":4988:5006   */\n      0xffffffffffffffff\n        /* \"#utility.yul\":4976:4986   */\n      dup3\n        /* \"#utility.yul\":4973:5007   */\n      gt\n        /* \"#utility.yul\":4970:5032   */\n      or\n        /* \"#utility.yul\":4967:5055   */\n      iszero\n      tag_445\n      jumpi\n        /* \"#utility.yul\":5035:5053   */\n      tag_446\n      tag_266\n      jump\t// in\n    tag_446:\n        /* \"#utility.yul\":4967:5055   */\n    tag_445:\n        /* \"#utility.yul\":5075:5085   */\n      dup1\n        /* \"#utility.yul\":5071:5073   */\n      0x40\n        /* \"#utility.yul\":5064:5086   */\n      mstore\n        /* \"#utility.yul\":4854:5092   */\n      pop\n        /* \"#utility.yul\":4811:5092   */\n      pop\n      pop\n      jump\t// out\n        /* \"#utility.yul\":5098:5227   */\n    tag_334:\n        /* \"#utility.yul\":5132:5138   */\n      0x00\n        /* \"#utility.yul\":5159:5179   */\n      tag_448\n      tag_320\n      jump\t// in\n    tag_448:\n        /* \"#utility.yul\":5149:5179   */\n      swap1\n      pop\n        /* \"#utility.yul\":5188:5221   */\n      tag_449\n        /* \"#utility.yul\":5216:5220   */\n      dup3\n        /* \"#utility.yul\":5208:5214   */\n      dup3\n        /* \"#utility.yul\":5188:5221   */\n      tag_333\n      jump\t// in\n    tag_449:\n        /* \"#utility.yul\":5098:5227   */\n      swap2\n      swap1\n      pop\n      jump\t// out\n        /* \"#utility.yul\":5233:5541   */\n    tag_335:\n        /* \"#utility.yul\":5295:5299   */\n      0x00\n        /* \"#utility.yul\":5385:5403   */\n      0xffffffffffffffff\n        /* \"#utility.yul\":5377:5383   */\n      dup3\n        /* \"#utility.yul\":5374:5404   */\n      gt\n        /* \"#utility.yul\":5371:5427   */\n      iszero\n      tag_451\n      jumpi\n        /* \"#utility.yul\":5407:5425   */\n      tag_452\n      tag_266\n      jump\t// in\n    tag_452:\n        /* \"#utility.yul\":5371:5427   */\n    tag_451:\n        /* \"#utility.yul\":5445:5474   */\n      tag_453\n        /* \"#utility.yul\":5467:5473   */\n      dup3\n        /* \"#utility.yul\":5445:5474   */\n      tag_318\n      jump\t// in\n    tag_453:\n        /* \"#utility.yul\":5437:5474   */\n      swap1\n      pop\n        /* \"#utility.yul\":5529:5533   */\n      0x20\n        /* \"#utility.yul\":5523:5527   */\n      dup2\n        /* \"#utility.yul\":5519:5534   */\n      add\n        /* \"#utility.yul\":5511:5534   */\n      swap1\n      pop\n        /* \"#utility.yul\":5233:5541   */\n      swap2\n      swap1\n      pop\n      jump\t// out\n        /* \"#utility.yul\":5547:5701   */\n    tag_336:\n        /* \"#utility.yul\":5631:5637   */\n      dup3\n        /* \"#utility.yul\":5626:5629   */\n      dup2\n        /* \"#utility.yul\":5621:5624   */\n      dup4\n        /* \"#utility.yul\":5608:5638   */\n      calldatacopy\n        /* \"#utility.yul\":5693:5694   */\n      0x00\n        /* \"#utility.yul\":5684:5690   */\n      dup4\n        /* \"#utility.yul\":5679:5682   */\n      dup4\n        /* \"#utility.yul\":5675:5691   */\n      add\n        /* \"#utility.yul\":5668:5695   */\n      mstore\n        /* \"#utility.yul\":5547:5701   */\n      pop\n      pop\n      pop\n      jump\t// out\n        /* \"#utility.yul\":5707:6119   */\n    tag_337:\n        /* \"#utility.yul\":5785:5790   */\n      0x00\n        /* \"#utility.yul\":5810:5876   */\n      tag_456\n        /* \"#utility.yul\":5826:5875   */\n      tag_457\n        /* \"#utility.yul\":5868:5874   */\n      dup5\n        /* \"#utility.yul\":5826:5875   */\n      tag_335\n      jump\t// in\n    tag_457:\n        /* \"#utility.yul\":5810:5876   */\n      tag_334\n      jump\t// in\n    tag_456:\n        /* \"#utility.yul\":5801:5876   */\n      swap1\n      pop\n        /* \"#utility.yul\":5899:5905   */\n      dup3\n        /* \"#utility.yul\":5892:5897   */\n      dup2\n        /* \"#utility.yul\":5885:5906   */\n      mstore\n        /* \"#utility.yul\":5937:5941   */\n      0x20\n        /* \"#utility.yul\":5930:5935   */\n      dup2\n        /* \"#utility.yul\":5926:5942   */\n      add\n        /* \"#utility.yul\":5975:5978   */\n      dup5\n        /* \"#utility.yul\":5966:5972   */\n      dup5\n        /* \"#utility.yul\":5961:5964   */\n      dup5\n        /* \"#utility.yul\":5957:5973   */\n      add\n        /* \"#utility.yul\":5954:5979   */\n      gt\n        /* \"#utility.yul\":5951:6063   */\n      iszero\n      tag_458\n      jumpi\n        /* \"#utility.yul\":5982:6061   */\n      tag_459\n      tag_332\n      jump\t// in\n    tag_459:\n        /* \"#utility.yul\":5951:6063   */\n    tag_458:\n        /* \"#utility.yul\":6072:6113   */\n      tag_460\n        /* \"#utility.yul\":6106:6112   */\n      dup5\n        /* \"#utility.yul\":6101:6104   */\n      dup3\n        /* \"#utility.yul\":6096:6099   */\n      dup6\n        /* \"#utility.yul\":6072:6113   */\n      tag_336\n      jump\t// in\n    tag_460:\n        /* \"#utility.yul\":5791:6119   */\n      pop\n        /* \"#utility.yul\":5707:6119   */\n      swap4\n      swap3\n      pop\n      pop\n      pop\n      jump\t// out\n        /* \"#utility.yul\":6139:6479   */\n    tag_338:\n        /* \"#utility.yul\":6195:6200   */\n      0x00\n        /* \"#utility.yul\":6244:6247   */\n      dup3\n        /* \"#utility.yul\":6237:6241   */\n      0x1f\n        /* \"#utility.yul\":6229:6235   */\n      dup4\n        /* \"#utility.yul\":6225:6242   */\n      add\n        /* \"#utility.yul\":6221:6248   */\n      slt\n        /* \"#utility.yul\":6211:6333   */\n      tag_462\n      jumpi\n        /* \"#utility.yul\":6252:6331   */\n      tag_463\n      tag_331\n      jump\t// in\n    tag_463:\n        /* \"#utility.yul\":6211:6333   */\n    tag_462:\n        /* \"#utility.yul\":6369:6375   */\n      dup2\n        /* \"#utility.yul\":6356:6376   */\n      calldataload\n        /* \"#utility.yul\":6394:6473   */\n      tag_464\n        /* \"#utility.yul\":6469:6472   */\n      dup5\n        /* \"#utility.yul\":6461:6467   */\n      dup3\n        /* \"#utility.yul\":6454:6458   */\n      0x20\n        /* \"#utility.yul\":6446:6452   */\n      dup7\n        /* \"#utility.yul\":6442:6459   */\n      add\n        /* \"#utility.yul\":6394:6473   */\n      tag_337\n      jump\t// in\n    tag_464:\n        /* \"#utility.yul\":6385:6473   */\n      swap2\n      pop\n        /* \"#utility.yul\":6201:6479   */\n      pop\n        /* \"#utility.yul\":6139:6479   */\n      swap3\n      swap2\n      pop\n      pop\n      jump\t// out\n        /* \"#utility.yul\":6485:6994   */\n    tag_45:\n        /* \"#utility.yul\":6554:6560   */\n      0x00\n        /* \"#utility.yul\":6603:6605   */\n      0x20\n        /* \"#utility.yul\":6591:6600   */\n      dup3\n        /* \"#utility.yul\":6582:6589   */\n      dup5\n        /* \"#utility.yul\":6578:6601   */\n      sub\n        /* \"#utility.yul\":6574:6606   */\n      slt\n        /* \"#utility.yul\":6571:6690   */\n      iszero\n      tag_466\n      jumpi\n        /* \"#utility.yul\":6609:6688   */\n      tag_467\n      tag_321\n      jump\t// in\n    tag_467:\n        /* \"#utility.yul\":6571:6690   */\n    tag_466:\n        /* \"#utility.yul\":6757:6758   */\n      0x00\n        /* \"#utility.yul\":6746:6755   */\n      dup3\n        /* \"#utility.yul\":6742:6759   */\n      add\n        /* \"#utility.yul\":6729:6760   */\n      calldataload\n        /* \"#utility.yul\":6787:6805   */\n      0xffffffffffffffff\n        /* \"#utility.yul\":6779:6785   */\n      dup2\n        /* \"#utility.yul\":6776:6806   */\n      gt\n        /* \"#utility.yul\":6773:6890   */\n      iszero\n      tag_468\n      jumpi\n        /* \"#utility.yul\":6809:6888   */\n      tag_469\n      tag_322\n      jump\t// in\n    tag_469:\n        /* \"#utility.yul\":6773:6890   */\n    tag_468:\n        /* \"#utility.yul\":6914:6977   */\n      tag_470\n        /* \"#utility.yul\":6969:6976   */\n      dup5\n        /* \"#utility.yul\":6960:6966   */\n      dup3\n        /* \"#utility.yul\":6949:6958   */\n      dup6\n        /* \"#utility.yul\":6945:6967   */\n      add\n        /* \"#utility.yul\":6914:6977   */\n      tag_338\n      jump\t// in\n    tag_470:\n        /* \"#utility.yul\":6904:6977   */\n      swap2\n      pop\n        /* \"#utility.yul\":6700:6987   */\n      pop\n        /* \"#utility.yul\":6485:6994   */\n      swap3\n      swap2\n      pop\n      pop\n      jump\t// out\n        /* \"#utility.yul\":7000:7118   */\n    tag_339:\n        /* \"#utility.yul\":7087:7111   */\n      tag_472\n        /* \"#utility.yul\":7105:7110   */\n      dup2\n        /* \"#utility.yul\":7087:7111   */\n      tag_323\n      jump\t// in\n    tag_472:\n        /* \"#utility.yul\":7082:7085   */\n      dup3\n        /* \"#utility.yul\":7075:7112   */\n      mstore\n        /* \"#utility.yul\":7000:7118   */\n      pop\n      pop\n      jump\t// out\n        /* \"#utility.yul\":7124:7346   */\n    tag_50:\n        /* \"#utility.yul\":7217:7221   */\n      0x00\n        /* \"#utility.yul\":7255:7257   */\n      0x20\n        /* \"#utility.yul\":7244:7253   */\n      dup3\n        /* \"#utility.yul\":7240:7258   */\n      add\n        /* \"#utility.yul\":7232:7258   */\n      swap1\n      pop\n        /* \"#utility.yul\":7268:7339   */\n      tag_474\n        /* \"#utility.yul\":7336:7337   */\n      0x00\n        /* \"#utility.yul\":7325:7334   */\n      dup4\n        /* \"#utility.yul\":7321:7338   */\n      add\n        /* \"#utility.yul\":7312:7318   */\n      dup5\n        /* \"#utility.yul\":7268:7339   */\n      tag_339\n      jump\t// in\n    tag_474:\n        /* \"#utility.yul\":7124:7346   */\n      swap3\n      swap2\n      pop\n      pop\n      jump\t// out\n        /* \"#utility.yul\":7352:7681   */\n    tag_57:\n        /* \"#utility.yul\":7411:7417   */\n      0x00\n        /* \"#utility.yul\":7460:7462   */\n      0x20\n        /* \"#utility.yul\":7448:7457   */\n      dup3\n        /* \"#utility.yul\":7439:7446   */\n      dup5\n        /* \"#utility.yul\":7435:7458   */\n      sub\n        /* \"#utility.yul\":7431:7463   */\n      slt\n        /* \"#utility.yul\":7428:7547   */\n      iszero\n      tag_476\n      jumpi\n        /* \"#utility.yul\":7466:7545   */\n      tag_477\n      tag_321\n      jump\t// in\n    tag_477:\n        /* \"#utility.yul\":7428:7547   */\n    tag_476:\n        /* \"#utility.yul\":7586:7587   */\n      0x00\n        /* \"#utility.yul\":7611:7664   */\n      tag_478\n        /* \"#utility.yul\":7656:7663   */\n      dup5\n        /* \"#utility.yul\":7647:7653   */\n      dup3\n        /* \"#utility.yul\":7636:7645   */\n      dup6\n        /* \"#utility.yul\":7632:7654   */\n      add\n        /* \"#utility.yul\":7611:7664   */\n      tag_330\n      jump\t// in\n    tag_478:\n        /* \"#utility.yul\":7601:7664   */\n      swap2\n      pop\n        /* \"#utility.yul\":7557:7674   */\n      pop\n        /* \"#utility.yul\":7352:7681   */\n      swap3\n      swap2\n      pop\n      pop\n      jump\t// out\n        /* \"#utility.yul\":7687:8341   */\n    tag_64:\n        /* \"#utility.yul\":7765:7771   */\n      0x00\n        /* \"#utility.yul\":7773:7779   */\n      dup1\n        /* \"#utility.yul\":7822:7824   */\n      0x40\n        /* \"#utility.yul\":7810:7819   */\n      dup4\n        /* \"#utility.yul\":7801:7808   */\n      dup6\n        /* \"#utility.yul\":7797:7820   */\n      sub\n        /* \"#utility.yul\":7793:7825   */\n      slt\n        /* \"#utility.yul\":7790:7909   */\n      iszero\n      tag_480\n      jumpi\n        /* \"#utility.yul\":7828:7907   */\n      tag_481\n      tag_321\n      jump\t// in\n    tag_481:\n        /* \"#utility.yul\":7790:7909   */\n    tag_480:\n        /* \"#utility.yul\":7948:7949   */\n      0x00\n        /* \"#utility.yul\":7973:8026   */\n      tag_482\n        /* \"#utility.yul\":8018:8025   */\n      dup6\n        /* \"#utility.yul\":8009:8015   */\n      dup3\n        /* \"#utility.yul\":7998:8007   */\n      dup7\n        /* \"#utility.yul\":7994:8016   */\n      add\n        /* \"#utility.yul\":7973:8026   */\n      tag_330\n      jump\t// in\n    tag_482:\n        /* \"#utility.yul\":7963:8026   */\n      swap3\n      pop\n        /* \"#utility.yul\":7919:8036   */\n      pop\n        /* \"#utility.yul\":8103:8105   */\n      0x20\n        /* \"#utility.yul\":8092:8101   */\n      dup4\n        /* \"#utility.yul\":8088:8106   */\n      add\n        /* \"#utility.yul\":8075:8107   */\n      calldataload\n        /* \"#utility.yul\":8134:8152   */\n      0xffffffffffffffff\n        /* \"#utility.yul\":8126:8132   */\n      dup2\n        /* \"#utility.yul\":8123:8153   */\n      gt\n        /* \"#utility.yul\":8120:8237   */\n      iszero\n      tag_483\n      jumpi\n        /* \"#utility.yul\":8156:8235   */\n      tag_484\n      tag_322\n      jump\t// in\n    tag_484:\n        /* \"#utility.yul\":8120:8237   */\n    tag_483:\n        /* \"#utility.yul\":8261:8324   */\n      tag_485\n        /* \"#utility.yul\":8316:8323   */\n      dup6\n        /* \"#utility.yul\":8307:8313   */\n      dup3\n        /* \"#utility.yul\":8296:8305   */\n      dup7\n        /* \"#utility.yul\":8292:8314   */\n      add\n        /* \"#utility.yul\":8261:8324   */\n      tag_338\n      jump\t// in\n    tag_485:\n        /* \"#utility.yul\":8251:8324   */\n      swap2\n      pop\n        /* \"#utility.yul\":8046:8334   */\n      pop\n        /* \"#utility.yul\":7687:8341   */\n      swap3\n      pop\n      swap3\n      swap1\n      pop\n      jump\t// out\n        /* \"#utility.yul\":8347:8654   */\n    tag_340:\n        /* \"#utility.yul\":8408:8412   */\n      0x00\n        /* \"#utility.yul\":8498:8516   */\n      0xffffffffffffffff\n        /* \"#utility.yul\":8490:8496   */\n      dup3\n        /* \"#utility.yul\":8487:8517   */\n      gt\n        /* \"#utility.yul\":8484:8540   */\n      iszero\n      tag_487\n      jumpi\n        /* \"#utility.yul\":8520:8538   */\n      tag_488\n      tag_266\n      jump\t// in\n    tag_488:\n        /* \"#utility.yul\":8484:8540   */\n    tag_487:\n        /* \"#utility.yul\":8558:8587   */\n      tag_489\n        /* \"#utility.yul\":8580:8586   */\n      dup3\n        /* \"#utility.yul\":8558:8587   */\n      tag_318\n      jump\t// in\n    tag_489:\n        /* \"#utility.yul\":8550:8587   */\n      swap1\n      pop\n        /* \"#utility.yul\":8642:8646   */\n      0x20\n        /* \"#utility.yul\":8636:8640   */\n      dup2\n        /* \"#utility.yul\":8632:8647   */\n      add\n        /* \"#utility.yul\":8624:8647   */\n      swap1\n      pop\n        /* \"#utility.yul\":8347:8654   */\n      swap2\n      swap1\n      pop\n      jump\t// out\n        /* \"#utility.yul\":8660:9070   */\n    tag_341:\n        /* \"#utility.yul\":8737:8742   */\n      0x00\n        /* \"#utility.yul\":8762:8827   */\n      tag_491\n        /* \"#utility.yul\":8778:8826   */\n      tag_492\n        /* \"#utility.yul\":8819:8825   */\n      dup5\n        /* \"#utility.yul\":8778:8826   */\n      tag_340\n      jump\t// in\n    tag_492:\n        /* \"#utility.yul\":8762:8827   */\n      tag_334\n      jump\t// in\n    tag_491:\n        /* \"#utility.yul\":8753:8827   */\n      swap1\n      pop\n        /* \"#utility.yul\":8850:8856   */\n      dup3\n        /* \"#utility.yul\":8843:8848   */\n      dup2\n        /* \"#utility.yul\":8836:8857   */\n      mstore\n        /* \"#utility.yul\":8888:8892   */\n      0x20\n        /* \"#utility.yul\":8881:8886   */\n      dup2\n        /* \"#utility.yul\":8877:8893   */\n      add\n        /* \"#utility.yul\":8926:8929   */\n      dup5\n        /* \"#utility.yul\":8917:8923   */\n      dup5\n        /* \"#utility.yul\":8912:8915   */\n      dup5\n        /* \"#utility.yul\":8908:8924   */\n      add\n        /* \"#utility.yul\":8905:8930   */\n      gt\n        /* \"#utility.yul\":8902:9014   */\n      iszero\n      tag_493\n      jumpi\n        /* \"#utility.yul\":8933:9012   */\n      tag_494\n      tag_332\n      jump\t// in\n    tag_494:\n        /* \"#utility.yul\":8902:9014   */\n    tag_493:\n        /* \"#utility.yul\":9023:9064   */\n      tag_495\n        /* \"#utility.yul\":9057:9063   */\n      dup5\n        /* \"#utility.yul\":9052:9055   */\n      dup3\n        /* \"#utility.yul\":9047:9050   */\n      dup6\n        /* \"#utility.yul\":9023:9064   */\n      tag_336\n      jump\t// in\n    tag_495:\n        /* \"#utility.yul\":8743:9070   */\n      pop\n        /* \"#utility.yul\":8660:9070   */\n      swap4\n      swap3\n      pop\n      pop\n      pop\n      jump\t// out\n        /* \"#utility.yul\":9089:9427   */\n    tag_342:\n        /* \"#utility.yul\":9144:9149   */\n      0x00\n        /* \"#utility.yul\":9193:9196   */\n      dup3\n        /* \"#utility.yul\":9186:9190   */\n      0x1f\n        /* \"#utility.yul\":9178:9184   */\n      dup4\n        /* \"#utility.yul\":9174:9191   */\n      add\n        /* \"#utility.yul\":9170:9197   */\n      slt\n        /* \"#utility.yul\":9160:9282   */\n      tag_497\n      jumpi\n        /* \"#utility.yul\":9201:9280   */\n      tag_498\n      tag_331\n      jump\t// in\n    tag_498:\n        /* \"#utility.yul\":9160:9282   */\n    tag_497:\n        /* \"#utility.yul\":9318:9324   */\n      dup2\n        /* \"#utility.yul\":9305:9325   */\n      calldataload\n        /* \"#utility.yul\":9343:9421   */\n      tag_499\n        /* \"#utility.yul\":9417:9420   */\n      dup5\n        /* \"#utility.yul\":9409:9415   */\n      dup3\n        /* \"#utility.yul\":9402:9406   */\n      0x20\n        /* \"#utility.yul\":9394:9400   */\n      dup7\n        /* \"#utility.yul\":9390:9407   */\n      add\n        /* \"#utility.yul\":9343:9421   */\n      tag_341\n      jump\t// in\n    tag_499:\n        /* \"#utility.yul\":9334:9421   */\n      swap2\n      pop\n        /* \"#utility.yul\":9150:9427   */\n      pop\n        /* \"#utility.yul\":9089:9427   */\n      swap3\n      swap2\n      pop\n      pop\n      jump\t// out\n        /* \"#utility.yul\":9433:10376   */\n    tag_74:\n        /* \"#utility.yul\":9528:9534   */\n      0x00\n        /* \"#utility.yul\":9536:9542   */\n      dup1\n        /* \"#utility.yul\":9544:9550   */\n      0x00\n        /* \"#utility.yul\":9552:9558   */\n      dup1\n        /* \"#utility.yul\":9601:9604   */\n      0x80\n        /* \"#utility.yul\":9589:9598   */\n      dup6\n        /* \"#utility.yul\":9580:9587   */\n      dup8\n        /* \"#utility.yul\":9576:9599   */\n      sub\n        /* \"#utility.yul\":9572:9605   */\n      slt\n        /* \"#utility.yul\":9569:9689   */\n      iszero\n      tag_501\n      jumpi\n        /* \"#utility.yul\":9608:9687   */\n      tag_502\n      tag_321\n      jump\t// in\n    tag_502:\n        /* \"#utility.yul\":9569:9689   */\n    tag_501:\n        /* \"#utility.yul\":9728:9729   */\n      0x00\n        /* \"#utility.yul\":9753:9806   */\n      tag_503\n        /* \"#utility.yul\":9798:9805   */\n      dup8\n        /* \"#utility.yul\":9789:9795   */\n      dup3\n        /* \"#utility.yul\":9778:9787   */\n      dup9\n        /* \"#utility.yul\":9774:9796   */\n      add\n        /* \"#utility.yul\":9753:9806   */\n      tag_330\n      jump\t// in\n    tag_503:\n        /* \"#utility.yul\":9743:9806   */\n      swap5\n      pop\n        /* \"#utility.yul\":9699:9816   */\n      pop\n        /* \"#utility.yul\":9855:9857   */\n      0x20\n        /* \"#utility.yul\":9881:9934   */\n      tag_504\n        /* \"#utility.yul\":9926:9933   */\n      dup8\n        /* \"#utility.yul\":9917:9923   */\n      dup3\n        /* \"#utility.yul\":9906:9915   */\n      dup9\n        /* \"#utility.yul\":9902:9924   */\n      add\n        /* \"#utility.yul\":9881:9934   */\n      tag_330\n      jump\t// in\n    tag_504:\n        /* \"#utility.yul\":9871:9934   */\n      swap4\n      pop\n        /* \"#utility.yul\":9826:9944   */\n      pop\n        /* \"#utility.yul\":9983:9985   */\n      0x40\n        /* \"#utility.yul\":10009:10062   */\n      tag_505\n        /* \"#utility.yul\":10054:10061   */\n      dup8\n        /* \"#utility.yul\":10045:10051   */\n      dup3\n        /* \"#utility.yul\":10034:10043   */\n      dup9\n        /* \"#utility.yul\":10030:10052   */\n      add\n        /* \"#utility.yul\":10009:10062   */\n      tag_325\n      jump\t// in\n    tag_505:\n        /* \"#utility.yul\":9999:10062   */\n      swap3\n      pop\n        /* \"#utility.yul\":9954:10072   */\n      pop\n        /* \"#utility.yul\":10139:10141   */\n      0x60\n        /* \"#utility.yul\":10128:10137   */\n      dup6\n        /* \"#utility.yul\":10124:10142   */\n      add\n        /* \"#utility.yul\":10111:10143   */\n      calldataload\n        /* \"#utility.yul\":10170:10188   */\n      0xffffffffffffffff\n        /* \"#utility.yul\":10162:10168   */\n      dup2\n        /* \"#utility.yul\":10159:10189   */\n      gt\n        /* \"#utility.yul\":10156:10273   */\n      iszero\n      tag_506\n      jumpi\n        /* \"#utility.yul\":10192:10271   */\n      tag_507\n      tag_322\n      jump\t// in\n    tag_507:\n        /* \"#utility.yul\":10156:10273   */\n    tag_506:\n        /* \"#utility.yul\":10297:10359   */\n      tag_508\n        /* \"#utility.yul\":10351:10358   */\n      dup8\n        /* \"#utility.yul\":10342:10348   */\n      dup3\n        /* \"#utility.yul\":10331:10340   */\n      dup9\n        /* \"#utility.yul\":10327:10349   */\n      add\n        /* \"#utility.yul\":10297:10359   */\n      tag_342\n      jump\t// in\n    tag_508:\n        /* \"#utility.yul\":10287:10359   */\n      swap2\n      pop\n        /* \"#utility.yul\":10082:10369   */\n      pop\n        /* \"#utility.yul\":9433:10376   */\n      swap3\n      swap6\n      swap2\n      swap5\n      pop\n      swap3\n      pop\n      jump\t// out\n        /* \"#utility.yul\":10382:10562   */\n    tag_343:\n        /* \"#utility.yul\":10430:10507   */\n      0x4e487b7100000000000000000000000000000000000000000000000000000000\n        /* \"#utility.yul\":10427:10428   */\n      0x00\n        /* \"#utility.yul\":10420:10508   */\n      mstore\n        /* \"#utility.yul\":10527:10531   */\n      0x22\n        /* \"#utility.yul\":10524:10525   */\n      0x04\n        /* \"#utility.yul\":10517:10532   */\n      mstore\n        /* \"#utility.yul\":10551:10555   */\n      0x24\n        /* \"#utility.yul\":10548:10549   */\n      0x00\n        /* \"#utility.yul\":10541:10556   */\n      revert\n        /* \"#utility.yul\":10568:10888   */\n    tag_85:\n        /* \"#utility.yul\":10612:10618   */\n      0x00\n        /* \"#utility.yul\":10649:10650   */\n      0x02\n        /* \"#utility.yul\":10643:10647   */\n      dup3\n        /* \"#utility.yul\":10639:10651   */\n      div\n        /* \"#utility.yul\":10629:10651   */\n      swap1\n      pop\n        /* \"#utility.yul\":10696:10697   */\n      0x01\n        /* \"#utility.yul\":10690:10694   */\n      dup3\n        /* \"#utility.yul\":10686:10698   */\n      and\n        /* \"#utility.yul\":10717:10735   */\n      dup1\n        /* \"#utility.yul\":10707:10788   */\n      tag_511\n      jumpi\n        /* \"#utility.yul\":10773:10777   */\n      0x7f\n        /* \"#utility.yul\":10765:10771   */\n      dup3\n        /* \"#utility.yul\":10761:10778   */\n      and\n        /* \"#utility.yul\":10751:10778   */\n      swap2\n      pop\n        /* \"#utility.yul\":10707:10788   */\n    tag_511:\n        /* \"#utility.yul\":10835:10837   */\n      0x20\n        /* \"#utility.yul\":10827:10833   */\n      dup3\n        /* \"#utility.yul\":10824:10838   */\n      lt\n        /* \"#utility.yul\":10804:10822   */\n      dup2\n        /* \"#utility.yul\":10801:10839   */\n      sub\n        /* \"#utility.yul\":10798:10882   */\n      tag_512\n      jumpi\n        /* \"#utility.yul\":10854:10872   */\n      tag_513\n      tag_343\n      jump\t// in\n    tag_513:\n        /* \"#utility.yul\":10798:10882   */\n    tag_512:\n        /* \"#utility.yul\":10619:10888   */\n      pop\n        /* \"#utility.yul\":10568:10888   */\n      swap2\n      swap1\n      pop\n      jump\t// out\n        /* \"#utility.yul\":10894:11125   */\n    tag_344:\n        /* \"#utility.yul\":11034:11068   */\n      0x4552433732313a20617070726f76656420717565727920666f72206e6f6e6578\n        /* \"#utility.yul\":11030:11031   */\n      0x00\n        /* \"#utility.yul\":11022:11028   */\n      dup3\n        /* \"#utility.yul\":11018:11032   */\n      add\n        /* \"#utility.yul\":11011:11069   */\n      mstore\n        /* \"#utility.yul\":11103:11117   */\n      0x697374656e7420746f6b656e0000000000000000000000000000000000000000\n        /* \"#utility.yul\":11098:11100   */\n      0x20\n        /* \"#utility.yul\":11090:11096   */\n      dup3\n        /* \"#utility.yul\":11086:11101   */\n      add\n        /* \"#utility.yul\":11079:11118   */\n      mstore\n        /* \"#utility.yul\":10894:11125   */\n      pop\n      jump\t// out\n        /* \"#utility.yul\":11131:11497   */\n    tag_345:\n        /* \"#utility.yul\":11273:11276   */\n      0x00\n        /* \"#utility.yul\":11294:11361   */\n      tag_516\n        /* \"#utility.yul\":11358:11360   */\n      0x2c\n        /* \"#utility.yul\":11353:11356   */\n      dup4\n        /* \"#utility.yul\":11294:11361   */\n      tag_316\n      jump\t// in\n    tag_516:\n        /* \"#utility.yul\":11287:11361   */\n      swap2\n      pop\n        /* \"#utility.yul\":11370:11463   */\n      tag_517\n        /* \"#utility.yul\":11459:11462   */\n      dup3\n        /* \"#utility.yul\":11370:11463   */\n      tag_344\n      jump\t// in\n    tag_517:\n        /* \"#utility.yul\":11488:11490   */\n      0x40\n        /* \"#utility.yul\":11483:11486   */\n      dup3\n        /* \"#utility.yul\":11479:11491   */\n      add\n        /* \"#utility.yul\":11472:11491   */\n      swap1\n      pop\n        /* \"#utility.yul\":11131:11497   */\n      swap2\n      swap1\n      pop\n      jump\t// out\n        /* \"#utility.yul\":11503:11922   */\n    tag_95:\n        /* \"#utility.yul\":11669:11673   */\n      0x00\n        /* \"#utility.yul\":11707:11709   */\n      0x20\n        /* \"#utility.yul\":11696:11705   */\n      dup3\n        /* \"#utility.yul\":11692:11710   */\n      add\n        /* \"#utility.yul\":11684:11710   */\n      swap1\n      pop\n        /* \"#utility.yul\":11756:11765   */\n      dup2\n        /* \"#utility.yul\":11750:11754   */\n      dup2\n        /* \"#utility.yul\":11746:11766   */\n      sub\n        /* \"#utility.yul\":11742:11743   */\n      0x00\n        /* \"#utility.yul\":11731:11740   */\n      dup4\n        /* \"#utility.yul\":11727:11744   */\n      add\n        /* \"#utility.yul\":11720:11767   */\n      mstore\n        /* \"#utility.yul\":11784:11915   */\n      tag_519\n        /* \"#utility.yul\":11910:11914   */\n      dup2\n        /* \"#utility.yul\":11784:11915   */\n      tag_345\n      jump\t// in\n    tag_519:\n        /* \"#utility.yul\":11776:11915   */\n      swap1\n      pop\n        /* \"#utility.yul\":11503:11922   */\n      swap2\n      swap1\n      pop\n      jump\t// out\n        /* \"#utility.yul\":11928:12148   */\n    tag_346:\n        /* \"#utility.yul\":12068:12102   */\n      0x4552433732313a20617070726f76616c20746f2063757272656e74206f776e65\n        /* \"#utility.yul\":12064:12065   */\n      0x00\n        /* \"#utility.yul\":12056:12062   */\n      dup3\n        /* \"#utility.yul\":12052:12066   */\n      add\n        /* \"#utility.yul\":12045:12103   */\n      mstore\n        /* \"#utility.yul\":12137:12140   */\n      0x7200000000000000000000000000000000000000000000000000000000000000\n        /* \"#utility.yul\":12132:12134   */\n      0x20\n        /* \"#utility.yul\":12124:12130   */\n      dup3\n        /* \"#utility.yul\":12120:12135   */\n      add\n        /* \"#utility.yul\":12113:12141   */\n      mstore\n        /* \"#utility.yul\":11928:12148   */\n      pop\n      jump\t// out\n        /* \"#utility.yul\":12154:12520   */\n    tag_347:\n        /* \"#utility.yul\":12296:12299   */\n      0x00\n        /* \"#utility.yul\":12317:12384   */\n      tag_522\n        /* \"#utility.yul\":12381:12383   */\n      0x21\n        /* \"#utility.yul\":12376:12379   */\n      dup4\n        /* \"#utility.yul\":12317:12384   */\n      tag_316\n      jump\t// in\n    tag_522:\n        /* \"#utility.yul\":12310:12384   */\n      swap2\n      pop\n        /* \"#utility.yul\":12393:12486   */\n      tag_523\n        /* \"#utility.yul\":12482:12485   */\n      dup3\n        /* \"#utility.yul\":12393:12486   */\n      tag_346\n      jump\t// in\n    tag_523:\n        /* \"#utility.yul\":12511:12513   */\n      0x40\n        /* \"#utility.yul\":12506:12509   */\n      dup3\n        /* \"#utility.yul\":12502:12514   */\n      add\n        /* \"#utility.yul\":12495:12514   */\n      swap1\n      pop\n        /* \"#utility.yul\":12154:12520   */\n      swap2\n      swap1\n      pop\n      jump\t// out\n        /* \"#utility.yul\":12526:12945   */\n    tag_100:\n        /* \"#utility.yul\":12692:12696   */\n      0x00\n        /* \"#utility.yul\":12730:12732   */\n      0x20\n        /* \"#utility.yul\":12719:12728   */\n      dup3\n        /* \"#utility.yul\":12715:12733   */\n      add\n        /* \"#utility.yul\":12707:12733   */\n      swap1\n      pop\n        /* \"#utility.yul\":12779:12788   */\n      dup2\n        /* \"#utility.yul\":12773:12777   */\n      dup2\n        /* \"#utility.yul\":12769:12789   */\n      sub\n        /* \"#utility.yul\":12765:12766   */\n      0x00\n        /* \"#utility.yul\":12754:12763   */\n      dup4\n        /* \"#utility.yul\":12750:12767   */\n      add\n        /* \"#utility.yul\":12743:12790   */\n      mstore\n        /* \"#utility.yul\":12807:12938   */\n      tag_525\n        /* \"#utility.yul\":12933:12937   */\n      dup2\n        /* \"#utility.yul\":12807:12938   */\n      tag_347\n      jump\t// in\n    tag_525:\n        /* \"#utility.yul\":12799:12938   */\n      swap1\n      pop\n        /* \"#utility.yul\":12526:12945   */\n      swap2\n      swap1\n      pop\n      jump\t// out\n        /* \"#utility.yul\":12951:13194   */\n    tag_348:\n        /* \"#utility.yul\":13091:13125   */\n      0x4552433732313a20617070726f76652063616c6c6572206973206e6f74206f77\n        /* \"#utility.yul\":13087:13088   */\n      0x00\n        /* \"#utility.yul\":13079:13085   */\n      dup3\n        /* \"#utility.yul\":13075:13089   */\n      add\n        /* \"#utility.yul\":13068:13126   */\n      mstore\n        /* \"#utility.yul\":13160:13186   */\n      0x6e6572206e6f7220617070726f76656420666f7220616c6c0000000000000000\n        /* \"#utility.yul\":13155:13157   */\n      0x20\n        /* \"#utility.yul\":13147:13153   */\n      dup3\n        /* \"#utility.yul\":13143:13158   */\n      add\n        /* \"#utility.yul\":13136:13187   */\n      mstore\n        /* \"#utility.yul\":12951:13194   */\n      pop\n      jump\t// out\n        /* \"#utility.yul\":13200:13566   */\n    tag_349:\n        /* \"#utility.yul\":13342:13345   */\n      0x00\n        /* \"#utility.yul\":13363:13430   */\n      tag_528\n        /* \"#utility.yul\":13427:13429   */\n      0x38\n        /* \"#utility.yul\":13422:13425   */\n      dup4\n        /* \"#utility.yul\":13363:13430   */\n      tag_316\n      jump\t// in\n    tag_528:\n        /* \"#utility.yul\":13356:13430   */\n      swap2\n      pop\n        /* \"#utility.yul\":13439:13532   */\n      tag_529\n        /* \"#utility.yul\":13528:13531   */\n      dup3\n        /* \"#utility.yul\":13439:13532   */\n      tag_348\n      jump\t// in\n    tag_529:\n        /* \"#utility.yul\":13557:13559   */\n      0x40\n        /* \"#utility.yul\":13552:13555   */\n      dup3\n        /* \"#utility.yul\":13548:13560   */\n      add\n        /* \"#utility.yul\":13541:13560   */\n      swap1\n      pop\n        /* \"#utility.yul\":13200:13566   */\n      swap2\n      swap1\n      pop\n      jump\t// out\n        /* \"#utility.yul\":13572:13991   */\n    tag_105:\n        /* \"#utility.yul\":13738:13742   */\n      0x00\n        /* \"#utility.yul\":13776:13778   */\n      0x20\n        /* \"#utility.yul\":13765:13774   */\n      dup3\n        /* \"#utility.yul\":13761:13779   */\n      add\n        /* \"#utility.yul\":13753:13779   */\n      swap1\n      pop\n        /* \"#utility.yul\":13825:13834   */\n      dup2\n        /* \"#utility.yul\":13819:13823   */\n      dup2\n        /* \"#utility.yul\":13815:13835   */\n      sub\n        /* \"#utility.yul\":13811:13812   */\n      0x00\n        /* \"#utility.yul\":13800:13809   */\n      dup4\n        /* \"#utility.yul\":13796:13813   */\n      add\n        /* \"#utility.yul\":13789:13836   */\n      mstore\n        /* \"#utility.yul\":13853:13984   */\n      tag_531\n        /* \"#utility.yul\":13979:13983   */\n      dup2\n        /* \"#utility.yul\":13853:13984   */\n      tag_349\n      jump\t// in\n    tag_531:\n        /* \"#utility.yul\":13845:13984   */\n      swap1\n      pop\n        /* \"#utility.yul\":13572:13991   */\n      swap2\n      swap1\n      pop\n      jump\t// out\n        /* \"#utility.yul\":13997:14233   */\n    tag_350:\n        /* \"#utility.yul\":14137:14171   */\n      0x4552433732313a207472616e736665722063616c6c6572206973206e6f74206f\n        /* \"#utility.yul\":14133:14134   */\n      0x00\n        /* \"#utility.yul\":14125:14131   */\n      dup3\n        /* \"#utility.yul\":14121:14135   */\n      add\n        /* \"#utility.yul\":14114:14172   */\n      mstore\n        /* \"#utility.yul\":14206:14225   */\n      0x776e6572206e6f7220617070726f766564000000000000000000000000000000\n        /* \"#utility.yul\":14201:14203   */\n      0x20\n        /* \"#utility.yul\":14193:14199   */\n      dup3\n        /* \"#utility.yul\":14189:14204   */\n      add\n        /* \"#utility.yul\":14182:14226   */\n      mstore\n        /* \"#utility.yul\":13997:14233   */\n      pop\n      jump\t// out\n        /* \"#utility.yul\":14239:14605   */\n    tag_351:\n        /* \"#utility.yul\":14381:14384   */\n      0x00\n        /* \"#utility.yul\":14402:14469   */\n      tag_534\n        /* \"#utility.yul\":14466:14468   */\n      0x31\n        /* \"#utility.yul\":14461:14464   */\n      dup4\n        /* \"#utility.yul\":14402:14469   */\n      tag_316\n      jump\t// in\n    tag_534:\n        /* \"#utility.yul\":14395:14469   */\n      swap2\n      pop\n        /* \"#utility.yul\":14478:14571   */\n      tag_535\n        /* \"#utility.yul\":14567:14570   */\n      dup3\n        /* \"#utility.yul\":14478:14571   */\n      tag_350\n      jump\t// in\n    tag_535:\n        /* \"#utility.yul\":14596:14598   */\n      0x40\n        /* \"#utility.yul\":14591:14594   */\n      dup3\n        /* \"#utility.yul\":14587:14599   */\n      add\n        /* \"#utility.yul\":14580:14599   */\n      swap1\n      pop\n        /* \"#utility.yul\":14239:14605   */\n      swap2\n      swap1\n      pop\n      jump\t// out\n        /* \"#utility.yul\":14611:15030   */\n    tag_114:\n        /* \"#utility.yul\":14777:14781   */\n      0x00\n        /* \"#utility.yul\":14815:14817   */\n      0x20\n        /* \"#utility.yul\":14804:14813   */\n      dup3\n        /* \"#utility.yul\":14800:14818   */\n      add\n        /* \"#utility.yul\":14792:14818   */\n      swap1\n      pop\n        /* \"#utility.yul\":14864:14873   */\n      dup2\n        /* \"#utility.yul\":14858:14862   */\n      dup2\n        /* \"#utility.yul\":14854:14874   */\n      sub\n        /* \"#utility.yul\":14850:14851   */\n      0x00\n        /* \"#utility.yul\":14839:14848   */\n      dup4\n        /* \"#utility.yul\":14835:14852   */\n      add\n        /* \"#utility.yul\":14828:14875   */\n      mstore\n        /* \"#utility.yul\":14892:15023   */\n      tag_537\n        /* \"#utility.yul\":15018:15022   */\n      dup2\n        /* \"#utility.yul\":14892:15023   */\n      tag_351\n      jump\t// in\n    tag_537:\n        /* \"#utility.yul\":14884:15023   */\n      swap1\n      pop\n        /* \"#utility.yul\":14611:15030   */\n      swap2\n      swap1\n      pop\n      jump\t// out\n        /* \"#utility.yul\":15036:15218   */\n    tag_352:\n        /* \"#utility.yul\":15176:15210   */\n      0x4f776e61626c653a2063616c6c6572206973206e6f7420746865206f776e6572\n        /* \"#utility.yul\":15172:15173   */\n      0x00\n        /* \"#utility.yul\":15164:15170   */\n      dup3\n        /* \"#utility.yul\":15160:15174   */\n      add\n        /* \"#utility.yul\":15153:15211   */\n      mstore\n        /* \"#utility.yul\":15036:15218   */\n      pop\n      jump\t// out\n        /* \"#utility.yul\":15224:15590   */\n    tag_353:\n        /* \"#utility.yul\":15366:15369   */\n      0x00\n        /* \"#utility.yul\":15387:15454   */\n      tag_540\n        /* \"#utility.yul\":15451:15453   */\n      0x20\n        /* \"#utility.yul\":15446:15449   */\n      dup4\n        /* \"#utility.yul\":15387:15454   */\n      tag_316\n      jump\t// in\n    tag_540:\n        /* \"#utility.yul\":15380:15454   */\n      swap2\n      pop\n        /* \"#utility.yul\":15463:15556   */\n      tag_541\n        /* \"#utility.yul\":15552:15555   */\n      dup3\n        /* \"#utility.yul\":15463:15556   */\n      tag_352\n      jump\t// in\n    tag_541:\n        /* \"#utility.yul\":15581:15583   */\n      0x20\n        /* \"#utility.yul\":15576:15579   */\n      dup3\n        /* \"#utility.yul\":15572:15584   */\n      add\n        /* \"#utility.yul\":15565:15584   */\n      swap1\n      pop\n        /* \"#utility.yul\":15224:15590   */\n      swap2\n      swap1\n      pop\n      jump\t// out\n        /* \"#utility.yul\":15596:16015   */\n    tag_124:\n        /* \"#utility.yul\":15762:15766   */\n      0x00\n        /* \"#utility.yul\":15800:15802   */\n      0x20\n        /* \"#utility.yul\":15789:15798   */\n      dup3\n        /* \"#utility.yul\":15785:15803   */\n      add\n        /* \"#utility.yul\":15777:15803   */\n      swap1\n      pop\n        /* \"#utility.yul\":15849:15858   */\n      dup2\n        /* \"#utility.yul\":15843:15847   */\n      dup2\n        /* \"#utility.yul\":15839:15859   */\n      sub\n        /* \"#utility.yul\":15835:15836   */\n      0x00\n        /* \"#utility.yul\":15824:15833   */\n      dup4\n        /* \"#utility.yul\":15820:15837   */\n      add\n        /* \"#utility.yul\":15813:15860   */\n      mstore\n        /* \"#utility.yul\":15877:16008   */\n      tag_543\n        /* \"#utility.yul\":16003:16007   */\n      dup2\n        /* \"#utility.yul\":15877:16008   */\n      tag_353\n      jump\t// in\n    tag_543:\n        /* \"#utility.yul\":15869:16008   */\n      swap1\n      pop\n        /* \"#utility.yul\":15596:16015   */\n      swap2\n      swap1\n      pop\n      jump\t// out\n        /* \"#utility.yul\":16021:16249   */\n    tag_354:\n        /* \"#utility.yul\":16161:16195   */\n      0x4552433732313a206f776e657220717565727920666f72206e6f6e6578697374\n        /* \"#utility.yul\":16157:16158   */\n      0x00\n        /* \"#utility.yul\":16149:16155   */\n      dup3\n        /* \"#utility.yul\":16145:16159   */\n      add\n        /* \"#utility.yul\":16138:16196   */\n      mstore\n        /* \"#utility.yul\":16230:16241   */\n      0x656e7420746f6b656e0000000000000000000000000000000000000000000000\n        /* \"#utility.yul\":16225:16227   */\n      0x20\n        /* \"#utility.yul\":16217:16223   */\n      dup3\n        /* \"#utility.yul\":16213:16228   */\n      add\n        /* \"#utility.yul\":16206:16242   */\n      mstore\n        /* \"#utility.yul\":16021:16249   */\n      pop\n      jump\t// out\n        /* \"#utility.yul\":16255:16621   */\n    tag_355:\n        /* \"#utility.yul\":16397:16400   */\n      0x00\n        /* \"#utility.yul\":16418:16485   */\n      tag_546\n        /* \"#utility.yul\":16482:16484   */\n      0x29\n        /* \"#utility.yul\":16477:16480   */\n      dup4\n        /* \"#utility.yul\":16418:16485   */\n      tag_316\n      jump\t// in\n    tag_546:\n        /* \"#utility.yul\":16411:16485   */\n      swap2\n      pop\n        /* \"#utility.yul\":16494:16587   */\n      tag_547\n        /* \"#utility.yul\":16583:16586   */\n      dup3\n        /* \"#utility.yul\":16494:16587   */\n      tag_354\n      jump\t// in\n    tag_547:\n        /* \"#utility.yul\":16612:16614   */\n      0x40\n        /* \"#utility.yul\":16607:16610   */\n      dup3\n        /* \"#utility.yul\":16603:16615   */\n      add\n        /* \"#utility.yul\":16596:16615   */\n      swap1\n      pop\n        /* \"#utility.yul\":16255:16621   */\n      swap2\n      swap1\n      pop\n      jump\t// out\n        /* \"#utility.yul\":16627:17046   */\n    tag_131:\n        /* \"#utility.yul\":16793:16797   */\n      0x00\n        /* \"#utility.yul\":16831:16833   */\n      0x20\n        /* \"#utility.yul\":16820:16829   */\n      dup3\n        /* \"#utility.yul\":16816:16834   */\n      add\n        /* \"#utility.yul\":16808:16834   */\n      swap1\n      pop\n        /* \"#utility.yul\":16880:16889   */\n      dup2\n        /* \"#utility.yul\":16874:16878   */\n      dup2\n        /* \"#utility.yul\":16870:16890   */\n      sub\n        /* \"#utility.yul\":16866:16867   */\n      0x00\n        /* \"#utility.yul\":16855:16864   */\n      dup4\n        /* \"#utility.yul\":16851:16868   */\n      add\n        /* \"#utility.yul\":16844:16891   */\n      mstore\n        /* \"#utility.yul\":16908:17039   */\n      tag_549\n        /* \"#utility.yul\":17034:17038   */\n      dup2\n        /* \"#utility.yul\":16908:17039   */\n      tag_355\n      jump\t// in\n    tag_549:\n        /* \"#utility.yul\":16900:17039   */\n      swap1\n      pop\n        /* \"#utility.yul\":16627:17046   */\n      swap2\n      swap1\n      pop\n      jump\t// out\n        /* \"#utility.yul\":17052:17281   */\n    tag_356:\n        /* \"#utility.yul\":17192:17226   */\n      0x4552433732313a2062616c616e636520717565727920666f7220746865207a65\n        /* \"#utility.yul\":17188:17189   */\n      0x00\n        /* \"#utility.yul\":17180:17186   */\n      dup3\n        /* \"#utility.yul\":17176:17190   */\n      add\n        /* \"#utility.yul\":17169:17227   */\n      mstore\n        /* \"#utility.yul\":17261:17273   */\n      0x726f206164647265737300000000000000000000000000000000000000000000\n        /* \"#utility.yul\":17256:17258   */\n      0x20\n        /* \"#utility.yul\":17248:17254   */\n      dup3\n        /* \"#utility.yul\":17244:17259   */\n      add\n        /* \"#utility.yul\":17237:17274   */\n      mstore\n        /* \"#utility.yul\":17052:17281   */\n      pop\n      jump\t// out\n        /* \"#utility.yul\":17287:17653   */\n    tag_357:\n        /* \"#utility.yul\":17429:17432   */\n      0x00\n        /* \"#utility.yul\":17450:17517   */\n      tag_552\n        /* \"#utility.yul\":17514:17516   */\n      0x2a\n        /* \"#utility.yul\":17509:17512   */\n      dup4\n        /* \"#utility.yul\":17450:17517   */\n      tag_316\n      jump\t// in\n    tag_552:\n        /* \"#utility.yul\":17443:17517   */\n      swap2\n      pop\n        /* \"#utility.yul\":17526:17619   */\n      tag_553\n        /* \"#utility.yul\":17615:17618   */\n      dup3\n        /* \"#utility.yul\":17526:17619   */\n      tag_356\n      jump\t// in\n    tag_553:\n        /* \"#utility.yul\":17644:17646   */\n      0x40\n        /* \"#utility.yul\":17639:17642   */\n      dup3\n        /* \"#utility.yul\":17635:17647   */\n      add\n        /* \"#utility.yul\":17628:17647   */\n      swap1\n      pop\n        /* \"#utility.yul\":17287:17653   */\n      swap2\n      swap1\n      pop\n      jump\t// out\n        /* \"#utility.yul\":17659:18078   */\n    tag_135:\n        /* \"#utility.yul\":17825:17829   */\n      0x00\n        /* \"#utility.yul\":17863:17865   */\n      0x20\n        /* \"#utility.yul\":17852:17861   */\n      dup3\n        /* \"#utility.yul\":17848:17866   */\n      add\n        /* \"#utility.yul\":17840:17866   */\n      swap1\n      pop\n        /* \"#utility.yul\":17912:17921   */\n      dup2\n        /* \"#utility.yul\":17906:17910   */\n      dup2\n        /* \"#utility.yul\":17902:17922   */\n      sub\n        /* \"#utility.yul\":17898:17899   */\n      0x00\n        /* \"#utility.yul\":17887:17896   */\n      dup4\n        /* \"#utility.yul\":17883:17900   */\n      add\n        /* \"#utility.yul\":17876:17923   */\n      mstore\n        /* \"#utility.yul\":17940:18071   */\n      tag_555\n        /* \"#utility.yul\":18066:18070   */\n      dup2\n        /* \"#utility.yul\":17940:18071   */\n      tag_357\n      jump\t// in\n    tag_555:\n        /* \"#utility.yul\":17932:18071   */\n      swap1\n      pop\n        /* \"#utility.yul\":17659:18078   */\n      swap2\n      swap1\n      pop\n      jump\t// out\n        /* \"#utility.yul\":18084:18264   */\n    tag_358:\n        /* \"#utility.yul\":18132:18209   */\n      0x4e487b7100000000000000000000000000000000000000000000000000000000\n        /* \"#utility.yul\":18129:18130   */\n      0x00\n        /* \"#utility.yul\":18122:18210   */\n      mstore\n        /* \"#utility.yul\":18229:18233   */\n      0x11\n        /* \"#utility.yul\":18226:18227   */\n      0x04\n        /* \"#utility.yul\":18219:18234   */\n      mstore\n        /* \"#utility.yul\":18253:18257   */\n      0x24\n        /* \"#utility.yul\":18250:18251   */\n      0x00\n        /* \"#utility.yul\":18243:18258   */\n      revert\n        /* \"#utility.yul\":18270:18503   */\n    tag_155:\n        /* \"#utility.yul\":18309:18312   */\n      0x00\n        /* \"#utility.yul\":18332:18356   */\n      tag_558\n        /* \"#utility.yul\":18350:18355   */\n      dup3\n        /* \"#utility.yul\":18332:18356   */\n      tag_323\n      jump\t// in\n    tag_558:\n        /* \"#utility.yul\":18323:18356   */\n      swap2\n      pop\n        /* \"#utility.yul\":18378:18444   */\n      0xffffffffffffffffffffffffffffffffffffffffffffffffffffffffffffffff\n        /* \"#utility.yul\":18371:18376   */\n      dup3\n        /* \"#utility.yul\":18368:18445   */\n      sub\n        /* \"#utility.yul\":18365:18468   */\n      tag_559\n      jumpi\n        /* \"#utility.yul\":18448:18466   */\n      tag_560\n      tag_358\n      jump\t// in\n    tag_560:\n        /* \"#utility.yul\":18365:18468   */\n    tag_559:\n        /* \"#utility.yul\":18495:18496   */\n      0x01\n        /* \"#utility.yul\":18488:18493   */\n      dup3\n        /* \"#utility.yul\":18484:18497   */\n      add\n        /* \"#utility.yul\":18477:18497   */\n      swap1\n      pop\n        /* \"#utility.yul\":18270:18503   */\n      swap2\n      swap1\n      pop\n      jump\t// out\n        /* \"#utility.yul\":18509:18743   */\n    tag_359:\n        /* \"#utility.yul\":18649:18683   */\n      0x4552433732314d657461646174613a2055524920717565727920666f72206e6f\n        /* \"#utility.yul\":18645:18646   */\n      0x00\n        /* \"#utility.yul\":18637:18643   */\n      dup3\n        /* \"#utility.yul\":18633:18647   */\n      add\n        /* \"#utility.yul\":18626:18684   */\n      mstore\n        /* \"#utility.yul\":18718:18735   */\n      0x6e6578697374656e7420746f6b656e0000000000000000000000000000000000\n        /* \"#utility.yul\":18713:18715   */\n      0x20\n        /* \"#utility.yul\":18705:18711   */\n      dup3\n        /* \"#utility.yul\":18701:18716   */\n      add\n        /* \"#utility.yul\":18694:18736   */\n      mstore\n        /* \"#utility.yul\":18509:18743   */\n      pop\n      jump\t// out\n        /* \"#utility.yul\":18749:19115   */\n    tag_360:\n        /* \"#utility.yul\":18891:18894   */\n      0x00\n        /* \"#utility.yul\":18912:18979   */\n      tag_563\n        /* \"#utility.yul\":18976:18978   */\n      0x2f\n        /* \"#utility.yul\":18971:18974   */\n      dup4\n        /* \"#utility.yul\":18912:18979   */\n      tag_316\n      jump\t// in\n    tag_563:\n        /* \"#utility.yul\":18905:18979   */\n      swap2\n      pop\n        /* \"#utility.yul\":18988:19081   */\n      tag_564\n        /* \"#utility.yul\":19077:19080   */\n      dup3\n        /* \"#utility.yul\":18988:19081   */\n      tag_359\n      jump\t// in\n    tag_564:\n        /* \"#utility.yul\":19106:19108   */\n      0x40\n        /* \"#utility.yul\":19101:19104   */\n      dup3\n        /* \"#utility.yul\":19097:19109   */\n      add\n        /* \"#utility.yul\":19090:19109   */\n      swap1\n      pop\n        /* \"#utility.yul\":18749:19115   */\n      swap2\n      swap1\n      pop\n      jump\t// out\n        /* \"#utility.yul\":19121:19540   */\n    tag_174:\n        /* \"#utility.yul\":19287:19291   */\n      0x00\n        /* \"#utility.yul\":19325:19327   */\n      0x20\n        /* \"#utility.yul\":19314:19323   */\n      dup3\n        /* \"#utility.yul\":19310:19328   */\n      add\n        /* \"#utility.yul\":19302:19328   */\n      swap1\n      pop\n        /* \"#utility.yul\":19374:19383   */\n      dup2\n        /* \"#utility.yul\":19368:19372   */\n      dup2\n        /* \"#utility.yul\":19364:19384   */\n      sub\n        /* \"#utility.yul\":19360:19361   */\n      0x00\n        /* \"#utility.yul\":19349:19358   */\n      dup4\n        /* \"#utility.yul\":19345:19362   */\n      add\n        /* \"#utility.yul\":19338:19385   */\n      mstore\n        /* \"#utility.yul\":19402:19533   */\n      tag_566\n        /* \"#utility.yul\":19528:19532   */\n      dup2\n        /* \"#utility.yul\":19402:19533   */\n      tag_360\n      jump\t// in\n    tag_566:\n        /* \"#utility.yul\":19394:19533   */\n      swap1\n      pop\n        /* \"#utility.yul\":19121:19540   */\n      swap2\n      swap1\n      pop\n      jump\t// out\n        /* \"#utility.yul\":19546:19694   */\n    tag_361:\n        /* \"#utility.yul\":19648:19659   */\n      0x00\n        /* \"#utility.yul\":19685:19688   */\n      dup2\n        /* \"#utility.yul\":19670:19688   */\n      swap1\n      pop\n        /* \"#utility.yul\":19546:19694   */\n      swap3\n      swap2\n      pop\n      pop\n      jump\t// out\n        /* \"#utility.yul\":19700:20077   */\n    tag_362:\n        /* \"#utility.yul\":19806:19809   */\n      0x00\n        /* \"#utility.yul\":19834:19873   */\n      tag_569\n        /* \"#utility.yul\":19867:19872   */\n      dup3\n        /* \"#utility.yul\":19834:19873   */\n      tag_315\n      jump\t// in\n    tag_569:\n        /* \"#utility.yul\":19889:19978   */\n      tag_570\n        /* \"#utility.yul\":19971:19977   */\n      dup2\n        /* \"#utility.yul\":19966:19969   */\n      dup6\n        /* \"#utility.yul\":19889:19978   */\n      tag_361\n      jump\t// in\n    tag_570:\n        /* \"#utility.yul\":19882:19978   */\n      swap4\n      pop\n        /* \"#utility.yul\":19987:20039   */\n      tag_571\n        /* \"#utility.yul\":20032:20038   */\n      dup2\n        /* \"#utility.yul\":20027:20030   */\n      dup6\n        /* \"#utility.yul\":20020:20024   */\n      0x20\n        /* \"#utility.yul\":20013:20018   */\n      dup7\n        /* \"#utility.yul\":20009:20025   */\n      add\n        /* \"#utility.yul\":19987:20039   */\n      tag_317\n      jump\t// in\n    tag_571:\n        /* \"#utility.yul\":20064:20070   */\n      dup1\n        /* \"#utility.yul\":20059:20062   */\n      dup5\n        /* \"#utility.yul\":20055:20071   */\n      add\n        /* \"#utility.yul\":20048:20071   */\n      swap2\n      pop\n        /* \"#utility.yul\":19810:20077   */\n      pop\n        /* \"#utility.yul\":19700:20077   */\n      swap3\n      swap2\n      pop\n      pop\n      jump\t// out\n        /* \"#utility.yul\":20083:20518   */\n    tag_185:\n        /* \"#utility.yul\":20263:20266   */\n      0x00\n        /* \"#utility.yul\":20285:20380   */\n      tag_573\n        /* \"#utility.yul\":20376:20379   */\n      dup3\n        /* \"#utility.yul\":20367:20373   */\n      dup6\n        /* \"#utility.yul\":20285:20380   */\n      tag_362\n      jump\t// in\n    tag_573:\n        /* \"#utility.yul\":20278:20380   */\n      swap2\n      pop\n        /* \"#utility.yul\":20397:20492   */\n      tag_574\n        /* \"#utility.yul\":20488:20491   */\n      dup3\n        /* \"#utility.yul\":20479:20485   */\n      dup5\n        /* \"#utility.yul\":20397:20492   */\n      tag_362\n      jump\t// in\n    tag_574:\n        /* \"#utility.yul\":20390:20492   */\n      swap2\n      pop\n        /* \"#utility.yul\":20509:20512   */\n      dup2\n        /* \"#utility.yul\":20502:20512   */\n      swap1\n      pop\n        /* \"#utility.yul\":20083:20518   */\n      swap4\n      swap3\n      pop\n      pop\n      pop\n      jump\t// out\n        /* \"#utility.yul\":20524:20749   */\n    tag_363:\n        /* \"#utility.yul\":20664:20698   */\n      0x4f776e61626c653a206e6577206f776e657220697320746865207a65726f2061\n        /* \"#utility.yul\":20660:20661   */\n      0x00\n        /* \"#utility.yul\":20652:20658   */\n      dup3\n        /* \"#utility.yul\":20648:20662   */\n      add\n        /* \"#utility.yul\":20641:20699   */\n      mstore\n        /* \"#utility.yul\":20733:20741   */\n      0x6464726573730000000000000000000000000000000000000000000000000000\n        /* \"#utility.yul\":20728:20730   */\n      0x20\n        /* \"#utility.yul\":20720:20726   */\n      dup3\n        /* \"#utility.yul\":20716:20731   */\n      add\n        /* \"#utility.yul\":20709:20742   */\n      mstore\n        /* \"#utility.yul\":20524:20749   */\n      pop\n      jump\t// out\n        /* \"#utility.yul\":20755:21121   */\n    tag_364:\n        /* \"#utility.yul\":20897:20900   */\n      0x00\n        /* \"#utility.yul\":20918:20985   */\n      tag_577\n        /* \"#utility.yul\":20982:20984   */\n      0x26\n        /* \"#utility.yul\":20977:20980   */\n      dup4\n        /* \"#utility.yul\":20918:20985   */\n      tag_316\n      jump\t// in\n    tag_577:\n        /* \"#utility.yul\":20911:20985   */\n      swap2\n      pop\n        /* \"#utility.yul\":20994:21087   */\n      tag_578\n        /* \"#utility.yul\":21083:21086   */\n      dup3\n        /* \"#utility.yul\":20994:21087   */\n      tag_363\n      jump\t// in\n    tag_578:\n        /* \"#utility.yul\":21112:21114   */\n      0x40\n        /* \"#utility.yul\":21107:21110   */\n      dup3\n        /* \"#utility.yul\":21103:21115   */\n      add\n        /* \"#utility.yul\":21096:21115   */\n      swap1\n      pop\n        /* \"#utility.yul\":20755:21121   */\n      swap2\n      swap1\n      pop\n      jump\t// out\n        /* \"#utility.yul\":21127:21546   */\n    tag_197:\n        /* \"#utility.yul\":21293:21297   */\n      0x00\n        /* \"#utility.yul\":21331:21333   */\n      0x20\n        /* \"#utility.yul\":21320:21329   */\n      dup3\n        /* \"#utility.yul\":21316:21334   */\n      add\n        /* \"#utility.yul\":21308:21334   */\n      swap1\n      pop\n        /* \"#utility.yul\":21380:21389   */\n      dup2\n        /* \"#utility.yul\":21374:21378   */\n      dup2\n        /* \"#utility.yul\":21370:21390   */\n      sub\n        /* \"#utility.yul\":21366:21367   */\n      0x00\n        /* \"#utility.yul\":21355:21364   */\n      dup4\n        /* \"#utility.yul\":21351:21368   */\n      add\n        /* \"#utility.yul\":21344:21391   */\n      mstore\n        /* \"#utility.yul\":21408:21539   */\n      tag_580\n        /* \"#utility.yul\":21534:21538   */\n      dup2\n        /* \"#utility.yul\":21408:21539   */\n      tag_364\n      jump\t// in\n    tag_580:\n        /* \"#utility.yul\":21400:21539   */\n      swap1\n      pop\n        /* \"#utility.yul\":21127:21546   */\n      swap2\n      swap1\n      pop\n      jump\t// out\n        /* \"#utility.yul\":21552:21783   */\n    tag_365:\n        /* \"#utility.yul\":21692:21726   */\n      0x4552433732313a206f70657261746f7220717565727920666f72206e6f6e6578\n        /* \"#utility.yul\":21688:21689   */\n      0x00\n        /* \"#utility.yul\":21680:21686   */\n      dup3\n        /* \"#utility.yul\":21676:21690   */\n      add\n        /* \"#utility.yul\":21669:21727   */\n      mstore\n        /* \"#utility.yul\":21761:21775   */\n      0x697374656e7420746f6b656e0000000000000000000000000000000000000000\n        /* \"#utility.yul\":21756:21758   */\n      0x20\n        /* \"#utility.yul\":21748:21754   */\n      dup3\n        /* \"#utility.yul\":21744:21759   */\n      add\n        /* \"#utility.yul\":21737:21776   */\n      mstore\n        /* \"#utility.yul\":21552:21783   */\n      pop\n      jump\t// out\n        /* \"#utility.yul\":21789:22155   */\n    tag_366:\n        /* \"#utility.yul\":21931:21934   */\n      0x00\n        /* \"#utility.yul\":21952:22019   */\n      tag_583\n        /* \"#utility.yul\":22016:22018   */\n      0x2c\n        /* \"#utility.yul\":22011:22014   */\n      dup4\n        /* \"#utility.yul\":21952:22019   */\n      tag_316\n      jump\t// in\n    tag_583:\n        /* \"#utility.yul\":21945:22019   */\n      swap2\n      pop\n        /* \"#utility.yul\":22028:22121   */\n      tag_584\n        /* \"#utility.yul\":22117:22120   */\n      dup3\n        /* \"#utility.yul\":22028:22121   */\n      tag_365\n      jump\t// in\n    tag_584:\n        /* \"#utility.yul\":22146:22148   */\n      0x40\n        /* \"#utility.yul\":22141:22144   */\n      dup3\n        /* \"#utility.yul\":22137:22149   */\n      add\n        /* \"#utility.yul\":22130:22149   */\n      swap1\n      pop\n        /* \"#utility.yul\":21789:22155   */\n      swap2\n      swap1\n      pop\n      jump\t// out\n        /* \"#utility.yul\":22161:22580   */\n    tag_207:\n        /* \"#utility.yul\":22327:22331   */\n      0x00\n        /* \"#utility.yul\":22365:22367   */\n      0x20\n        /* \"#utility.yul\":22354:22363   */\n      dup3\n        /* \"#utility.yul\":22350:22368   */\n      add\n        /* \"#utility.yul\":22342:22368   */\n      swap1\n      pop\n        /* \"#utility.yul\":22414:22423   */\n      dup2\n        /* \"#utility.yul\":22408:22412   */\n      dup2\n        /* \"#utility.yul\":22404:22424   */\n      sub\n        /* \"#utility.yul\":22400:22401   */\n      0x00\n        /* \"#utility.yul\":22389:22398   */\n      dup4\n        /* \"#utility.yul\":22385:22402   */\n      add\n        /* \"#utility.yul\":22378:22425   */\n      mstore\n        /* \"#utility.yul\":22442:22573   */\n      tag_586\n        /* \"#utility.yul\":22568:22572   */\n      dup2\n        /* \"#utility.yul\":22442:22573   */\n      tag_366\n      jump\t// in\n    tag_586:\n        /* \"#utility.yul\":22434:22573   */\n      swap1\n      pop\n        /* \"#utility.yul\":22161:22580   */\n      swap2\n      swap1\n      pop\n      jump\t// out\n        /* \"#utility.yul\":22586:22810   */\n    tag_367:\n        /* \"#utility.yul\":22726:22760   */\n      0x4552433732313a207472616e736665722066726f6d20696e636f727265637420\n        /* \"#utility.yul\":22722:22723   */\n      0x00\n        /* \"#utility.yul\":22714:22720   */\n      dup3\n        /* \"#utility.yul\":22710:22724   */\n      add\n        /* \"#utility.yul\":22703:22761   */\n      mstore\n        /* \"#utility.yul\":22795:22802   */\n      0x6f776e6572000000000000000000000000000000000000000000000000000000\n        /* \"#utility.yul\":22790:22792   */\n      0x20\n        /* \"#utility.yul\":22782:22788   */\n      dup3\n        /* \"#utility.yul\":22778:22793   */\n      add\n        /* \"#utility.yul\":22771:22803   */\n      mstore\n        /* \"#utility.yul\":22586:22810   */\n      pop\n      jump\t// out\n        /* \"#utility.yul\":22816:23182   */\n    tag_368:\n        /* \"#utility.yul\":22958:22961   */\n      0x00\n        /* \"#utility.yul\":22979:23046   */\n      tag_589\n        /* \"#utility.yul\":23043:23045   */\n      0x25\n        /* \"#utility.yul\":23038:23041   */\n      dup4\n        /* \"#utility.yul\":22979:23046   */\n      tag_316\n      jump\t// in\n    tag_589:\n        /* \"#utility.yul\":22972:23046   */\n      swap2\n      pop\n        /* \"#utility.yul\":23055:23148   */\n      tag_590\n        /* \"#utility.yul\":23144:23147   */\n      dup3\n        /* \"#utility.yul\":23055:23148   */\n      tag_367\n      jump\t// in\n    tag_590:\n        /* \"#utility.yul\":23173:23175   */\n      0x40\n        /* \"#utility.yul\":23168:23171   */\n      dup3\n        /* \"#utility.yul\":23164:23176   */\n      add\n        /* \"#utility.yul\":23157:23176   */\n      swap1\n      pop\n        /* \"#utility.yul\":22816:23182   */\n      swap2\n      swap1\n      pop\n      jump\t// out\n        /* \"#utility.yul\":23188:23607   */\n    tag_215:\n        /* \"#utility.yul\":23354:23358   */\n      0x00\n        /* \"#utility.yul\":23392:23394   */\n      0x20\n        /* \"#utility.yul\":23381:23390   */\n      dup3\n        /* \"#utility.yul\":23377:23395   */\n      add\n        /* \"#utility.yul\":23369:23395   */\n      swap1\n      pop\n        /* \"#utility.yul\":23441:23450   */\n      dup2\n        /* \"#utility.yul\":23435:23439   */\n      dup2\n        /* \"#utility.yul\":23431:23451   */\n      sub\n        /* \"#utility.yul\":23427:23428   */\n      0x00\n        /* \"#utility.yul\":23416:23425   */\n      dup4\n        /* \"#utility.yul\":23412:23429   */\n      add\n        /* \"#utility.yul\":23405:23452   */\n      mstore\n        /* \"#utility.yul\":23469:23600   */\n      tag_592\n        /* \"#utility.yul\":23595:23599   */\n      dup2\n        /* \"#utility.yul\":23469:23600   */\n      tag_368\n      jump\t// in\n    tag_592:\n        /* \"#utility.yul\":23461:23600   */\n      swap1\n      pop\n        /* \"#utility.yul\":23188:23607   */\n      swap2\n      swap1\n      pop\n      jump\t// out\n        /* \"#utility.yul\":23613:23836   */\n    tag_369:\n        /* \"#utility.yul\":23753:23787   */\n      0x4552433732313a207472616e7366657220746f20746865207a65726f20616464\n        /* \"#utility.yul\":23749:23750   */\n      0x00\n        /* \"#utility.yul\":23741:23747   */\n      dup3\n        /* \"#utility.yul\":23737:23751   */\n      add\n        /* \"#utility.yul\":23730:23788   */\n      mstore\n        /* \"#utility.yul\":23822:23828   */\n      0x7265737300000000000000000000000000000000000000000000000000000000\n        /* \"#utility.yul\":23817:23819   */\n      0x20\n        /* \"#utility.yul\":23809:23815   */\n      dup3\n        /* \"#utility.yul\":23805:23820   */\n      add\n        /* \"#utility.yul\":23798:23829   */\n      mstore\n        /* \"#utility.yul\":23613:23836   */\n      pop\n      jump\t// out\n        /* \"#utility.yul\":23842:24208   */\n    tag_370:\n        /* \"#utility.yul\":23984:23987   */\n      0x00\n        /* \"#utility.yul\":24005:24072   */\n      tag_595\n        /* \"#utility.yul\":24069:24071   */\n      0x24\n        /* \"#utility.yul\":24064:24067   */\n      dup4\n        /* \"#utility.yul\":24005:24072   */\n      tag_316\n      jump\t// in\n    tag_595:\n        /* \"#utility.yul\":23998:24072   */\n      swap2\n      pop\n        /* \"#utility.yul\":24081:24174   */\n      tag_596\n        /* \"#utility.yul\":24170:24173   */\n      dup3\n        /* \"#utility.yul\":24081:24174   */\n      tag_369\n      jump\t// in\n    tag_596:\n        /* \"#utility.yul\":24199:24201   */\n      0x40\n        /* \"#utility.yul\":24194:24197   */\n      dup3\n        /* \"#utility.yul\":24190:24202   */\n      add\n        /* \"#utility.yul\":24183:24202   */\n      swap1\n      pop\n        /* \"#utility.yul\":23842:24208   */\n      swap2\n      swap1\n      pop\n      jump\t// out\n        /* \"#utility.yul\":24214:24633   */\n    tag_218:\n        /* \"#utility.yul\":24380:24384   */\n      0x00\n        /* \"#utility.yul\":24418:24420   */\n      0x20\n        /* \"#utility.yul\":24407:24416   */\n      dup3\n        /* \"#utility.yul\":24403:24421   */\n      add\n        /* \"#utility.yul\":24395:24421   */\n      swap1\n      pop\n        /* \"#utility.yul\":24467:24476   */\n      dup2\n        /* \"#utility.yul\":24461:24465   */\n      dup2\n        /* \"#utility.yul\":24457:24477   */\n      sub\n        /* \"#utility.yul\":24453:24454   */\n      0x00\n        /* \"#utility.yul\":24442:24451   */\n      dup4\n        /* \"#utility.yul\":24438:24455   */\n      add\n        /* \"#utility.yul\":24431:24478   */\n      mstore\n        /* \"#utility.yul\":24495:24626   */\n      tag_598\n        /* \"#utility.yul\":24621:24625   */\n      dup2\n        /* \"#utility.yul\":24495:24626   */\n      tag_370\n      jump\t// in\n    tag_598:\n        /* \"#utility.yul\":24487:24626   */\n      swap1\n      pop\n        /* \"#utility.yul\":24214:24633   */\n      swap2\n      swap1\n      pop\n      jump\t// out\n        /* \"#utility.yul\":24639:24830   */\n    tag_223:\n        /* \"#utility.yul\":24679:24683   */\n      0x00\n        /* \"#utility.yul\":24699:24719   */\n      tag_600\n        /* \"#utility.yul\":24717:24718   */\n      dup3\n        /* \"#utility.yul\":24699:24719   */\n      tag_323\n      jump\t// in\n    tag_600:\n        /* \"#utility.yul\":24694:24719   */\n      swap2\n      pop\n        /* \"#utility.yul\":24733:24753   */\n      tag_601\n        /* \"#utility.yul\":24751:24752   */\n      dup4\n        /* \"#utility.yul\":24733:24753   */\n      tag_323\n      jump\t// in\n    tag_601:\n        /* \"#utility.yul\":24728:24753   */\n      swap3\n      pop\n        /* \"#utility.yul\":24772:24773   */\n      dup3\n        /* \"#utility.yul\":24769:24770   */\n      dup3\n        /* \"#utility.yul\":24766:24774   */\n      lt\n        /* \"#utility.yul\":24763:24797   */\n      iszero\n      tag_602\n      jumpi\n        /* \"#utility.yul\":24777:24795   */\n      tag_603\n      tag_358\n      jump\t// in\n    tag_603:\n        /* \"#utility.yul\":24763:24797   */\n    tag_602:\n        /* \"#utility.yul\":24822:24823   */\n      dup3\n        /* \"#utility.yul\":24819:24820   */\n      dup3\n        /* \"#utility.yul\":24815:24824   */\n      sub\n        /* \"#utility.yul\":24807:24824   */\n      swap1\n      pop\n        /* \"#utility.yul\":24639:24830   */\n      swap3\n      swap2\n      pop\n      pop\n      jump\t// out\n        /* \"#utility.yul\":24836:25141   */\n    tag_225:\n        /* \"#utility.yul\":24876:24879   */\n      0x00\n        /* \"#utility.yul\":24895:24915   */\n      tag_605\n        /* \"#utility.yul\":24913:24914   */\n      dup3\n        /* \"#utility.yul\":24895:24915   */\n      tag_323\n      jump\t// in\n    tag_605:\n        /* \"#utility.yul\":24890:24915   */\n      swap2\n      pop\n        /* \"#utility.yul\":24929:24949   */\n      tag_606\n        /* \"#utility.yul\":24947:24948   */\n      dup4\n        /* \"#utility.yul\":24929:24949   */\n      tag_323\n      jump\t// in\n    tag_606:\n        /* \"#utility.yul\":24924:24949   */\n      swap3\n      pop\n        /* \"#utility.yul\":25083:25084   */\n      dup3\n        /* \"#utility.yul\":25015:25081   */\n      0xffffffffffffffffffffffffffffffffffffffffffffffffffffffffffffffff\n        /* \"#utility.yul\":25011:25085   */\n      sub\n        /* \"#utility.yul\":25008:25009   */\n      dup3\n        /* \"#utility.yul\":25005:25086   */\n      gt\n        /* \"#utility.yul\":25002:25109   */\n      iszero\n      tag_607\n      jumpi\n        /* \"#utility.yul\":25089:25107   */\n      tag_608\n      tag_358\n      jump\t// in\n    tag_608:\n        /* \"#utility.yul\":25002:25109   */\n    tag_607:\n        /* \"#utility.yul\":25133:25134   */\n      dup3\n        /* \"#utility.yul\":25130:25131   */\n      dup3\n        /* \"#utility.yul\":25126:25135   */\n      add\n        /* \"#utility.yul\":25119:25135   */\n      swap1\n      pop\n        /* \"#utility.yul\":24836:25141   */\n      swap3\n      swap2\n      pop\n      pop\n      jump\t// out\n        /* \"#utility.yul\":25147:25329   */\n    tag_371:\n        /* \"#utility.yul\":25287:25321   */\n      0x4552433732313a206d696e7420746f20746865207a65726f2061646472657373\n        /* \"#utility.yul\":25283:25284   */\n      0x00\n        /* \"#utility.yul\":25275:25281   */\n      dup3\n        /* \"#utility.yul\":25271:25285   */\n      add\n        /* \"#utility.yul\":25264:25322   */\n      mstore\n        /* \"#utility.yul\":25147:25329   */\n      pop\n      jump\t// out\n        /* \"#utility.yul\":25335:25701   */\n    tag_372:\n        /* \"#utility.yul\":25477:25480   */\n      0x00\n        /* \"#utility.yul\":25498:25565   */\n      tag_611\n        /* \"#utility.yul\":25562:25564   */\n      0x20\n        /* \"#utility.yul\":25557:25560   */\n      dup4\n        /* \"#utility.yul\":25498:25565   */\n      tag_316\n      jump\t// in\n    tag_611:\n        /* \"#utility.yul\":25491:25565   */\n      swap2\n      pop\n        /* \"#utility.yul\":25574:25667   */\n      tag_612\n        /* \"#utility.yul\":25663:25666   */\n      dup3\n        /* \"#utility.yul\":25574:25667   */\n      tag_371\n      jump\t// in\n    tag_612:\n        /* \"#utility.yul\":25692:25694   */\n      0x20\n        /* \"#utility.yul\":25687:25690   */\n      dup3\n        /* \"#utility.yul\":25683:25695   */\n      add\n        /* \"#utility.yul\":25676:25695   */\n      swap1\n      pop\n        /* \"#utility.yul\":25335:25701   */\n      swap2\n      swap1\n      pop\n      jump\t// out\n        /* \"#utility.yul\":25707:26126   */\n    tag_232:\n        /* \"#utility.yul\":25873:25877   */\n      0x00\n        /* \"#utility.yul\":25911:25913   */\n      0x20\n        /* \"#utility.yul\":25900:25909   */\n      dup3\n        /* \"#utility.yul\":25896:25914   */\n      add\n        /* \"#utility.yul\":25888:25914   */\n      swap1\n      pop\n        /* \"#utility.yul\":25960:25969   */\n      dup2\n        /* \"#utility.yul\":25954:25958   */\n      dup2\n        /* \"#utility.yul\":25950:25970   */\n      sub\n        /* \"#utility.yul\":25946:25947   */\n      0x00\n        /* \"#utility.yul\":25935:25944   */\n      dup4\n        /* \"#utility.yul\":25931:25948   */\n      add\n        /* \"#utility.yul\":25924:25971   */\n      mstore\n        /* \"#utility.yul\":25988:26119   */\n      tag_614\n        /* \"#utility.yul\":26114:26118   */\n      dup2\n        /* \"#utility.yul\":25988:26119   */\n      tag_372\n      jump\t// in\n    tag_614:\n        /* \"#utility.yul\":25980:26119   */\n      swap1\n      pop\n        /* \"#utility.yul\":25707:26126   */\n      swap2\n      swap1\n      pop\n      jump\t// out\n        /* \"#utility.yul\":26132:26310   */\n    tag_373:\n        /* \"#utility.yul\":26272:26302   */\n      0x4552433732313a20746f6b656e20616c7265616479206d696e74656400000000\n        /* \"#utility.yul\":26268:26269   */\n      0x00\n        /* \"#utility.yul\":26260:26266   */\n      dup3\n        /* \"#utility.yul\":26256:26270   */\n      add\n        /* \"#utility.yul\":26249:26303   */\n      mstore\n        /* \"#utility.yul\":26132:26310   */\n      pop\n      jump\t// out\n        /* \"#utility.yul\":26316:26682   */\n    tag_374:\n        /* \"#utility.yul\":26458:26461   */\n      0x00\n        /* \"#utility.yul\":26479:26546   */\n      tag_617\n        /* \"#utility.yul\":26543:26545   */\n      0x1c\n        /* \"#utility.yul\":26538:26541   */\n      dup4\n        /* \"#utility.yul\":26479:26546   */\n      tag_316\n      jump\t// in\n    tag_617:\n        /* \"#utility.yul\":26472:26546   */\n      swap2\n      pop\n        /* \"#utility.yul\":26555:26648   */\n      tag_618\n        /* \"#utility.yul\":26644:26647   */\n      dup3\n        /* \"#utility.yul\":26555:26648   */\n      tag_373\n      jump\t// in\n    tag_618:\n        /* \"#utility.yul\":26673:26675   */\n      0x20\n        /* \"#utility.yul\":26668:26671   */\n      dup3\n        /* \"#utility.yul\":26664:26676   */\n      add\n        /* \"#utility.yul\":26657:26676   */\n      swap1\n      pop\n        /* \"#utility.yul\":26316:26682   */\n      swap2\n      swap1\n      pop\n      jump\t// out\n        /* \"#utility.yul\":26688:27107   */\n    tag_236:\n        /* \"#utility.yul\":26854:26858   */\n      0x00\n        /* \"#utility.yul\":26892:26894   */\n      0x20\n        /* \"#utility.yul\":26881:26890   */\n      dup3\n        /* \"#utility.yul\":26877:26895   */\n      add\n        /* \"#utility.yul\":26869:26895   */\n      swap1\n      pop\n        /* \"#utility.yul\":26941:26950   */\n      dup2\n        /* \"#utility.yul\":26935:26939   */\n      dup2\n        /* \"#utility.yul\":26931:26951   */\n      sub\n        /* \"#utility.yul\":26927:26928   */\n      0x00\n        /* \"#utility.yul\":26916:26925   */\n      dup4\n        /* \"#utility.yul\":26912:26929   */\n      add\n        /* \"#utility.yul\":26905:26952   */\n      mstore\n        /* \"#utility.yul\":26969:27100   */\n      tag_620\n        /* \"#utility.yul\":27095:27099   */\n      dup2\n        /* \"#utility.yul\":26969:27100   */\n      tag_374\n      jump\t// in\n    tag_620:\n        /* \"#utility.yul\":26961:27100   */\n      swap1\n      pop\n        /* \"#utility.yul\":26688:27107   */\n      swap2\n      swap1\n      pop\n      jump\t// out\n        /* \"#utility.yul\":27113:27344   */\n    tag_375:\n        /* \"#utility.yul\":27253:27287   */\n      0x4552433732314d657461646174613a2055524920736574206f66206e6f6e6578\n        /* \"#utility.yul\":27249:27250   */\n      0x00\n        /* \"#utility.yul\":27241:27247   */\n      dup3\n        /* \"#utility.yul\":27237:27251   */\n      add\n        /* \"#utility.yul\":27230:27288   */\n      mstore\n        /* \"#utility.yul\":27322:27336   */\n      0x697374656e7420746f6b656e0000000000000000000000000000000000000000\n        /* \"#utility.yul\":27317:27319   */\n      0x20\n        /* \"#utility.yul\":27309:27315   */\n      dup3\n        /* \"#utility.yul\":27305:27320   */\n      add\n        /* \"#utility.yul\":27298:27337   */\n      mstore\n        /* \"#utility.yul\":27113:27344   */\n      pop\n      jump\t// out\n        /* \"#utility.yul\":27350:27716   */\n    tag_376:\n        /* \"#utility.yul\":27492:27495   */\n      0x00\n        /* \"#utility.yul\":27513:27580   */\n      tag_623\n        /* \"#utility.yul\":27577:27579   */\n      0x2c\n        /* \"#utility.yul\":27572:27575   */\n      dup4\n        /* \"#utility.yul\":27513:27580   */\n      tag_316\n      jump\t// in\n    tag_623:\n        /* \"#utility.yul\":27506:27580   */\n      swap2\n      pop\n        /* \"#utility.yul\":27589:27682   */\n      tag_624\n        /* \"#utility.yul\":27678:27681   */\n      dup3\n        /* \"#utility.yul\":27589:27682   */\n      tag_375\n      jump\t// in\n    tag_624:\n        /* \"#utility.yul\":27707:27709   */\n      0x40\n        /* \"#utility.yul\":27702:27705   */\n      dup3\n        /* \"#utility.yul\":27698:27710   */\n      add\n        /* \"#utility.yul\":27691:27710   */\n      swap1\n      pop\n        /* \"#utility.yul\":27350:27716   */\n      swap2\n      swap1\n      pop\n      jump\t// out\n        /* \"#utility.yul\":27722:28141   */\n    tag_242:\n        /* \"#utility.yul\":27888:27892   */\n      0x00\n        /* \"#utility.yul\":27926:27928   */\n      0x20\n        /* \"#utility.yul\":27915:27924   */\n      dup3\n        /* \"#utility.yul\":27911:27929   */\n      add\n        /* \"#utility.yul\":27903:27929   */\n      swap1\n      pop\n        /* \"#utility.yul\":27975:27984   */\n      dup2\n        /* \"#utility.yul\":27969:27973   */\n      dup2\n        /* \"#utility.yul\":27965:27985   */\n      sub\n        /* \"#utility.yul\":27961:27962   */\n      0x00\n        /* \"#utility.yul\":27950:27959   */\n      dup4\n        /* \"#utility.yul\":27946:27963   */\n      add\n        /* \"#utility.yul\":27939:27986   */\n      mstore\n        /* \"#utility.yul\":28003:28134   */\n      tag_626\n        /* \"#utility.yul\":28129:28133   */\n      dup2\n        /* \"#utility.yul\":28003:28134   */\n      tag_376\n      jump\t// in\n    tag_626:\n        /* \"#utility.yul\":27995:28134   */\n      swap1\n      pop\n        /* \"#utility.yul\":27722:28141   */\n      swap2\n      swap1\n      pop\n      jump\t// out\n        /* \"#utility.yul\":28147:28384   */\n    tag_377:\n        /* \"#utility.yul\":28287:28321   */\n      0x4552433732313a207472616e7366657220746f206e6f6e204552433732315265\n        /* \"#utility.yul\":28283:28284   */\n      0x00\n        /* \"#utility.yul\":28275:28281   */\n      dup3\n        /* \"#utility.yul\":28271:28285   */\n      add\n        /* \"#utility.yul\":28264:28322   */\n      mstore\n        /* \"#utility.yul\":28356:28376   */\n      0x63656976657220696d706c656d656e7465720000000000000000000000000000\n        /* \"#utility.yul\":28351:28353   */\n      0x20\n        /* \"#utility.yul\":28343:28349   */\n      dup3\n        /* \"#utility.yul\":28339:28354   */\n      add\n        /* \"#utility.yul\":28332:28377   */\n      mstore\n        /* \"#utility.yul\":28147:28384   */\n      pop\n      jump\t// out\n        /* \"#utility.yul\":28390:28756   */\n    tag_378:\n        /* \"#utility.yul\":28532:28535   */\n      0x00\n        /* \"#utility.yul\":28553:28620   */\n      tag_629\n        /* \"#utility.yul\":28617:28619   */\n      0x32\n        /* \"#utility.yul\":28612:28615   */\n      dup4\n        /* \"#utility.yul\":28553:28620   */\n      tag_316\n      jump\t// in\n    tag_629:\n        /* \"#utility.yul\":28546:28620   */\n      swap2\n      pop\n        /* \"#utility.yul\":28629:28722   */\n      tag_630\n        /* \"#utility.yul\":28718:28721   */\n      dup3\n        /* \"#utility.yul\":28629:28722   */\n      tag_377\n      jump\t// in\n    tag_630:\n        /* \"#utility.yul\":28747:28749   */\n      0x40\n        /* \"#utility.yul\":28742:28745   */\n      dup3\n        /* \"#utility.yul\":28738:28750   */\n      add\n        /* \"#utility.yul\":28731:28750   */\n      swap1\n      pop\n        /* \"#utility.yul\":28390:28756   */\n      swap2\n      swap1\n      pop\n      jump\t// out\n        /* \"#utility.yul\":28762:29181   */\n    tag_250:\n        /* \"#utility.yul\":28928:28932   */\n      0x00\n        /* \"#utility.yul\":28966:28968   */\n      0x20\n        /* \"#utility.yul\":28955:28964   */\n      dup3\n        /* \"#utility.yul\":28951:28969   */\n      add\n        /* \"#utility.yul\":28943:28969   */\n      swap1\n      pop\n        /* \"#utility.yul\":29015:29024   */\n      dup2\n        /* \"#utility.yul\":29009:29013   */\n      dup2\n        /* \"#utility.yul\":29005:29025   */\n      sub\n        /* \"#utility.yul\":29001:29002   */\n      0x00\n        /* \"#utility.yul\":28990:28999   */\n      dup4\n        /* \"#utility.yul\":28986:29003   */\n      add\n        /* \"#utility.yul\":28979:29026   */\n      mstore\n        /* \"#utility.yul\":29043:29174   */\n      tag_632\n        /* \"#utility.yul\":29169:29173   */\n      dup2\n        /* \"#utility.yul\":29043:29174   */\n      tag_378\n      jump\t// in\n    tag_632:\n        /* \"#utility.yul\":29035:29174   */\n      swap1\n      pop\n        /* \"#utility.yul\":28762:29181   */\n      swap2\n      swap1\n      pop\n      jump\t// out\n        /* \"#utility.yul\":29187:29367   */\n    tag_379:\n        /* \"#utility.yul\":29235:29312   */\n      0x4e487b7100000000000000000000000000000000000000000000000000000000\n        /* \"#utility.yul\":29232:29233   */\n      0x00\n        /* \"#utility.yul\":29225:29313   */\n      mstore\n        /* \"#utility.yul\":29332:29336   */\n      0x12\n        /* \"#utility.yul\":29329:29330   */\n      0x04\n        /* \"#utility.yul\":29322:29337   */\n      mstore\n        /* \"#utility.yul\":29356:29360   */\n      0x24\n        /* \"#utility.yul\":29353:29354   */\n      0x00\n        /* \"#utility.yul\":29346:29361   */\n      revert\n        /* \"#utility.yul\":29373:29558   */\n    tag_263:\n        /* \"#utility.yul\":29413:29414   */\n      0x00\n        /* \"#utility.yul\":29430:29450   */\n      tag_635\n        /* \"#utility.yul\":29448:29449   */\n      dup3\n        /* \"#utility.yul\":29430:29450   */\n      tag_323\n      jump\t// in\n    tag_635:\n        /* \"#utility.yul\":29425:29450   */\n      swap2\n      pop\n        /* \"#utility.yul\":29464:29484   */\n      tag_636\n        /* \"#utility.yul\":29482:29483   */\n      dup4\n        /* \"#utility.yul\":29464:29484   */\n      tag_323\n      jump\t// in\n    tag_636:\n        /* \"#utility.yul\":29459:29484   */\n      swap3\n      pop\n        /* \"#utility.yul\":29503:29504   */\n      dup3\n        /* \"#utility.yul\":29493:29528   */\n      tag_637\n      jumpi\n        /* \"#utility.yul\":29508:29526   */\n      tag_638\n      tag_379\n      jump\t// in\n    tag_638:\n        /* \"#utility.yul\":29493:29528   */\n    tag_637:\n        /* \"#utility.yul\":29550:29551   */\n      dup3\n        /* \"#utility.yul\":29547:29548   */\n      dup3\n        /* \"#utility.yul\":29543:29552   */\n      div\n        /* \"#utility.yul\":29538:29552   */\n      swap1\n      pop\n        /* \"#utility.yul\":29373:29558   */\n      swap3\n      swap2\n      pop\n      pop\n      jump\t// out\n        /* \"#utility.yul\":29564:29740   */\n    tag_272:\n        /* \"#utility.yul\":29596:29597   */\n      0x00\n        /* \"#utility.yul\":29613:29633   */\n      tag_640\n        /* \"#utility.yul\":29631:29632   */\n      dup3\n        /* \"#utility.yul\":29613:29633   */\n      tag_323\n      jump\t// in\n    tag_640:\n        /* \"#utility.yul\":29608:29633   */\n      swap2\n      pop\n        /* \"#utility.yul\":29647:29667   */\n      tag_641\n        /* \"#utility.yul\":29665:29666   */\n      dup4\n        /* \"#utility.yul\":29647:29667   */\n      tag_323\n      jump\t// in\n    tag_641:\n        /* \"#utility.yul\":29642:29667   */\n      swap3\n      pop\n        /* \"#utility.yul\":29686:29687   */\n      dup3\n        /* \"#utility.yul\":29676:29711   */\n      tag_642\n      jumpi\n        /* \"#utility.yul\":29691:29709   */\n      tag_643\n      tag_379\n      jump\t// in\n    tag_643:\n        /* \"#utility.yul\":29676:29711   */\n    tag_642:\n        /* \"#utility.yul\":29732:29733   */\n      dup3\n        /* \"#utility.yul\":29729:29730   */\n      dup3\n        /* \"#utility.yul\":29725:29734   */\n      mod\n        /* \"#utility.yul\":29720:29734   */\n      swap1\n      pop\n        /* \"#utility.yul\":29564:29740   */\n      swap3\n      swap2\n      pop\n      pop\n      jump\t// out\n        /* \"#utility.yul\":29746:29926   */\n    tag_276:\n        /* \"#utility.yul\":29794:29871   */\n      0x4e487b7100000000000000000000000000000000000000000000000000000000\n        /* \"#utility.yul\":29791:29792   */\n      0x00\n        /* \"#utility.yul\":29784:29872   */\n      mstore\n        /* \"#utility.yul\":29891:29895   */\n      0x32\n        /* \"#utility.yul\":29888:29889   */\n      0x04\n        /* \"#utility.yul\":29881:29896   */\n      mstore\n        /* \"#utility.yul\":29915:29919   */\n      0x24\n        /* \"#utility.yul\":29912:29913   */\n      0x00\n        /* \"#utility.yul\":29905:29920   */\n      revert\n        /* \"#utility.yul\":29932:30114   */\n    tag_380:\n        /* \"#utility.yul\":30072:30106   */\n      0x4552433732313a207472616e73666572206e6f74206f776e657220746f6b656e\n        /* \"#utility.yul\":30068:30069   */\n      0x00\n        /* \"#utility.yul\":30060:30066   */\n      dup3\n        /* \"#utility.yul\":30056:30070   */\n      add\n        /* \"#utility.yul\":30049:30107   */\n      mstore\n        /* \"#utility.yul\":29932:30114   */\n      pop\n      jump\t// out\n        /* \"#utility.yul\":30120:30486   */\n    tag_381:\n        /* \"#utility.yul\":30262:30265   */\n      0x00\n        /* \"#utility.yul\":30283:30350   */\n      tag_647\n        /* \"#utility.yul\":30347:30349   */\n      0x20\n        /* \"#utility.yul\":30342:30345   */\n      dup4\n        /* \"#utility.yul\":30283:30350   */\n      tag_316\n      jump\t// in\n    tag_647:\n        /* \"#utility.yul\":30276:30350   */\n      swap2\n      pop\n        /* \"#utility.yul\":30359:30452   */\n      tag_648\n        /* \"#utility.yul\":30448:30451   */\n      dup3\n        /* \"#utility.yul\":30359:30452   */\n      tag_380\n      jump\t// in\n    tag_648:\n        /* \"#utility.yul\":30477:30479   */\n      0x20\n        /* \"#utility.yul\":30472:30475   */\n      dup3\n        /* \"#utility.yul\":30468:30480   */\n      add\n        /* \"#utility.yul\":30461:30480   */\n      swap1\n      pop\n        /* \"#utility.yul\":30120:30486   */\n      swap2\n      swap1\n      pop\n      jump\t// out\n        /* \"#utility.yul\":30492:30911   */\n    tag_281:\n        /* \"#utility.yul\":30658:30662   */\n      0x00\n        /* \"#utility.yul\":30696:30698   */\n      0x20\n        /* \"#utility.yul\":30685:30694   */\n      dup3\n        /* \"#utility.yul\":30681:30699   */\n      add\n        /* \"#utility.yul\":30673:30699   */\n      swap1\n      pop\n        /* \"#utility.yul\":30745:30754   */\n      dup2\n        /* \"#utility.yul\":30739:30743   */\n      dup2\n        /* \"#utility.yul\":30735:30755   */\n      sub\n        /* \"#utility.yul\":30731:30732   */\n      0x00\n        /* \"#utility.yul\":30720:30729   */\n      dup4\n        /* \"#utility.yul\":30716:30733   */\n      add\n        /* \"#utility.yul\":30709:30756   */\n      mstore\n        /* \"#utility.yul\":30773:30904   */\n      tag_650\n        /* \"#utility.yul\":30899:30903   */\n      dup2\n        /* \"#utility.yul\":30773:30904   */\n      tag_381\n      jump\t// in\n    tag_650:\n        /* \"#utility.yul\":30765:30904   */\n      swap1\n      pop\n        /* \"#utility.yul\":30492:30911   */\n      swap2\n      swap1\n      pop\n      jump\t// out\n        /* \"#utility.yul\":30917:31015   */\n    tag_382:\n        /* \"#utility.yul\":30968:30974   */\n      0x00\n        /* \"#utility.yul\":31002:31007   */\n      dup2\n        /* \"#utility.yul\":30996:31008   */\n      mload\n        /* \"#utility.yul\":30986:31008   */\n      swap1\n      pop\n        /* \"#utility.yul\":30917:31015   */\n      swap2\n      swap1\n      pop\n      jump\t// out\n        /* \"#utility.yul\":31021:31189   */\n    tag_383:\n        /* \"#utility.yul\":31104:31115   */\n      0x00\n        /* \"#utility.yul\":31138:31144   */\n      dup3\n        /* \"#utility.yul\":31133:31136   */\n      dup3\n        /* \"#utility.yul\":31126:31145   */\n      mstore\n        /* \"#utility.yul\":31178:31182   */\n      0x20\n        /* \"#utility.yul\":31173:31176   */\n      dup3\n        /* \"#utility.yul\":31169:31183   */\n      add\n        /* \"#utility.yul\":31154:31183   */\n      swap1\n      pop\n        /* \"#utility.yul\":31021:31189   */\n      swap3\n      swap2\n      pop\n      pop\n      jump\t// out\n        /* \"#utility.yul\":31195:31555   */\n    tag_384:\n        /* \"#utility.yul\":31281:31284   */\n      0x00\n        /* \"#utility.yul\":31309:31347   */\n      tag_654\n        /* \"#utility.yul\":31341:31346   */\n      dup3\n        /* \"#utility.yul\":31309:31347   */\n      tag_382\n      jump\t// in\n    tag_654:\n        /* \"#utility.yul\":31363:31433   */\n      tag_655\n        /* \"#utility.yul\":31426:31432   */\n      dup2\n        /* \"#utility.yul\":31421:31424   */\n      dup6\n        /* \"#utility.yul\":31363:31433   */\n      tag_383\n      jump\t// in\n    tag_655:\n        /* \"#utility.yul\":31356:31433   */\n      swap4\n      pop\n        /* \"#utility.yul\":31442:31494   */\n      tag_656\n        /* \"#utility.yul\":31487:31493   */\n      dup2\n        /* \"#utility.yul\":31482:31485   */\n      dup6\n        /* \"#utility.yul\":31475:31479   */\n      0x20\n        /* \"#utility.yul\":31468:31473   */\n      dup7\n        /* \"#utility.yul\":31464:31480   */\n      add\n        /* \"#utility.yul\":31442:31494   */\n      tag_317\n      jump\t// in\n    tag_656:\n        /* \"#utility.yul\":31519:31548   */\n      tag_657\n        /* \"#utility.yul\":31541:31547   */\n      dup2\n        /* \"#utility.yul\":31519:31548   */\n      tag_318\n      jump\t// in\n    tag_657:\n        /* \"#utility.yul\":31514:31517   */\n      dup5\n        /* \"#utility.yul\":31510:31549   */\n      add\n        /* \"#utility.yul\":31503:31549   */\n      swap2\n      pop\n        /* \"#utility.yul\":31285:31555   */\n      pop\n        /* \"#utility.yul\":31195:31555   */\n      swap3\n      swap2\n      pop\n      pop\n      jump\t// out\n        /* \"#utility.yul\":31561:32201   */\n    tag_289:\n        /* \"#utility.yul\":31756:31760   */\n      0x00\n        /* \"#utility.yul\":31794:31797   */\n      0x80\n        /* \"#utility.yul\":31783:31792   */\n      dup3\n        /* \"#utility.yul\":31779:31798   */\n      add\n        /* \"#utility.yul\":31771:31798   */\n      swap1\n      pop\n        /* \"#utility.yul\":31808:31879   */\n      tag_659\n        /* \"#utility.yul\":31876:31877   */\n      0x00\n        /* \"#utility.yul\":31865:31874   */\n      dup4\n        /* \"#utility.yul\":31861:31878   */\n      add\n        /* \"#utility.yul\":31852:31858   */\n      dup8\n        /* \"#utility.yul\":31808:31879   */\n      tag_328\n      jump\t// in\n    tag_659:\n        /* \"#utility.yul\":31889:31961   */\n      tag_660\n        /* \"#utility.yul\":31957:31959   */\n      0x20\n        /* \"#utility.yul\":31946:31955   */\n      dup4\n        /* \"#utility.yul\":31942:31960   */\n      add\n        /* \"#utility.yul\":31933:31939   */\n      dup7\n        /* \"#utility.yul\":31889:31961   */\n      tag_328\n      jump\t// in\n    tag_660:\n        /* \"#utility.yul\":31971:32043   */\n      tag_661\n        /* \"#utility.yul\":32039:32041   */\n      0x40\n        /* \"#utility.yul\":32028:32037   */\n      dup4\n        /* \"#utility.yul\":32024:32042   */\n      add\n        /* \"#utility.yul\":32015:32021   */\n      dup6\n        /* \"#utility.yul\":31971:32043   */\n      tag_339\n      jump\t// in\n    tag_661:\n        /* \"#utility.yul\":32090:32099   */\n      dup2\n        /* \"#utility.yul\":32084:32088   */\n      dup2\n        /* \"#utility.yul\":32080:32100   */\n      sub\n        /* \"#utility.yul\":32075:32077   */\n      0x60\n        /* \"#utility.yul\":32064:32073   */\n      dup4\n        /* \"#utility.yul\":32060:32078   */\n      add\n        /* \"#utility.yul\":32053:32101   */\n      mstore\n        /* \"#utility.yul\":32118:32194   */\n      tag_662\n        /* \"#utility.yul\":32189:32193   */\n      dup2\n        /* \"#utility.yul\":32180:32186   */\n      dup5\n        /* \"#utility.yul\":32118:32194   */\n      tag_384\n      jump\t// in\n    tag_662:\n        /* \"#utility.yul\":32110:32194   */\n      swap1\n      pop\n        /* \"#utility.yul\":31561:32201   */\n      swap6\n      swap5\n      pop\n      pop\n      pop\n      pop\n      pop\n      jump\t// out\n        /* \"#utility.yul\":32207:32356   */\n    tag_385:\n        /* \"#utility.yul\":32243:32250   */\n      0x00\n        /* \"#utility.yul\":32283:32349   */\n      0xffffffff00000000000000000000000000000000000000000000000000000000\n        /* \"#utility.yul\":32276:32281   */\n      dup3\n        /* \"#utility.yul\":32272:32350   */\n      and\n        /* \"#utility.yul\":32261:32350   */\n      swap1\n      pop\n        /* \"#utility.yul\":32207:32356   */\n      swap2\n      swap1\n      pop\n      jump\t// out\n        /* \"#utility.yul\":32362:32482   */\n    tag_386:\n        /* \"#utility.yul\":32434:32457   */\n      tag_665\n        /* \"#utility.yul\":32451:32456   */\n      dup2\n        /* \"#utility.yul\":32434:32457   */\n      tag_385\n      jump\t// in\n    tag_665:\n        /* \"#utility.yul\":32427:32432   */\n      dup2\n        /* \"#utility.yul\":32424:32458   */\n      eq\n        /* \"#utility.yul\":32414:32476   */\n      tag_666\n      jumpi\n        /* \"#utility.yul\":32472:32473   */\n      0x00\n        /* \"#utility.yul\":32469:32470   */\n      dup1\n        /* \"#utility.yul\":32462:32474   */\n      revert\n        /* \"#utility.yul\":32414:32476   */\n    tag_666:\n        /* \"#utility.yul\":32362:32482   */\n      pop\n      jump\t// out\n        /* \"#utility.yul\":32488:32629   */\n    tag_387:\n        /* \"#utility.yul\":32544:32549   */\n      0x00\n        /* \"#utility.yul\":32575:32581   */\n      dup2\n        /* \"#utility.yul\":32569:32582   */\n      mload\n        /* \"#utility.yul\":32560:32582   */\n      swap1\n      pop\n        /* \"#utility.yul\":32591:32623   */\n      tag_668\n        /* \"#utility.yul\":32617:32622   */\n      dup2\n        /* \"#utility.yul\":32591:32623   */\n      tag_386\n      jump\t// in\n    tag_668:\n        /* \"#utility.yul\":32488:32629   */\n      swap3\n      swap2\n      pop\n      pop\n      jump\t// out\n        /* \"#utility.yul\":32635:32984   */\n    tag_292:\n        /* \"#utility.yul\":32704:32710   */\n      0x00\n        /* \"#utility.yul\":32753:32755   */\n      0x20\n        /* \"#utility.yul\":32741:32750   */\n      dup3\n        /* \"#utility.yul\":32732:32739   */\n      dup5\n        /* \"#utility.yul\":32728:32751   */\n      sub\n        /* \"#utility.yul\":32724:32756   */\n      slt\n        /* \"#utility.yul\":32721:32840   */\n      iszero\n      tag_670\n      jumpi\n        /* \"#utility.yul\":32759:32838   */\n      tag_671\n      tag_321\n      jump\t// in\n    tag_671:\n        /* \"#utility.yul\":32721:32840   */\n    tag_670:\n        /* \"#utility.yul\":32879:32880   */\n      0x00\n        /* \"#utility.yul\":32904:32967   */\n      tag_672\n        /* \"#utility.yul\":32959:32966   */\n      dup5\n        /* \"#utility.yul\":32950:32956   */\n      dup3\n        /* \"#utility.yul\":32939:32948   */\n      dup6\n        /* \"#utility.yul\":32935:32957   */\n      add\n        /* \"#utility.yul\":32904:32967   */\n      tag_387\n      jump\t// in\n    tag_672:\n        /* \"#utility.yul\":32894:32967   */\n      swap2\n      pop\n        /* \"#utility.yul\":32850:32977   */\n      pop\n        /* \"#utility.yul\":32635:32984   */\n      swap3\n      swap2\n      pop\n      pop\n      jump\t// out\n\n    auxdata: 0xa264697066735822122098712787a6969a4f2381538cfe4c911bd9adfa5a7a18ed515d47b7b31d2eafbf64736f6c634300080d0033\n}\n",
				"bytecode": {
					"linkReferences": {},
					"object": "60806040526001600a553480156200001657600080fd5b506040518060400160405280600781526020017f5351464954454d000000000000000000000000000000000000000000000000008152506040518060400160405280600481526020017f5351464900000000000000000000000000000000000000000000000000000000815250620000a362000097620000dd60201b60201c565b620000e560201b60201c565b8160069080519060200190620000bb929190620001a9565b508060079080519060200190620000d4929190620001a9565b505050620002bd565b600033905090565b60008060009054906101000a900473ffffffffffffffffffffffffffffffffffffffff169050816000806101000a81548173ffffffffffffffffffffffffffffffffffffffff021916908373ffffffffffffffffffffffffffffffffffffffff1602179055508173ffffffffffffffffffffffffffffffffffffffff168173ffffffffffffffffffffffffffffffffffffffff167f8be0079c531659141344cd1fd0a4f28419497f9722a3daafe3b4186f6b6457e060405160405180910390a35050565b828054620001b79062000288565b90600052602060002090601f016020900481019282620001db576000855562000227565b82601f10620001f657805160ff191683800117855562000227565b8280016001018555821562000227579182015b828111156200022657825182559160200191906001019062000209565b5b5090506200023691906200023a565b5090565b5b80821115620002555760008160009055506001016200023b565b5090565b7f4e487b7100000000000000000000000000000000000000000000000000000000600052602260045260246000fd5b60006002820490506001821680620002a157607f821691505b602082108103620002b757620002b662000259565b5b50919050565b612b9880620002cd6000396000f3fe608060405234801561001057600080fd5b50600436106101005760003560e01c806370a082311161009757806395d89b411161006657806395d89b4114610285578063b88d4fde146102a3578063c87b56dd146102bf578063f2fde38b146102ef57610100565b806370a0823114610211578063715018a61461024157806389f057611461024b5780638da5cb5b1461026757610100565b806342842e0e116100d357806342842e0e1461018b57806355f804b3146101a757806361b8ce8c146101c35780636352211e146101e157610100565b806306fdde0314610105578063081812fc14610123578063095ea7b31461015357806323b872dd1461016f575b600080fd5b61010d61030b565b60405161011a9190611998565b60405180910390f35b61013d60048036038101906101389190611a04565b61039d565b60405161014a9190611a72565b60405180910390f35b61016d60048036038101906101689190611ab9565b610422565b005b61018960048036038101906101849190611af9565b610521565b005b6101a560048036038101906101a09190611af9565b610581565b005b6101c160048036038101906101bc9190611c81565b6105a1565b005b6101cb610637565b6040516101d89190611cd9565b60405180910390f35b6101fb60048036038101906101f69190611a04565b61063d565b6040516102089190611a72565b60405180910390f35b61022b60048036038101906102269190611cf4565b6106ee565b6040516102389190611cd9565b60405180910390f35b6102496107a5565b005b61026560048036038101906102609190611d21565b61082d565b005b61026f6108dd565b60405161027c9190611a72565b60405180910390f35b61028d610906565b60405161029a9190611998565b60405180910390f35b6102bd60048036038101906102b89190611e1e565b610998565b005b6102d960048036038101906102d49190611a04565b6109fa565b6040516102e69190611998565b60405180910390f35b61030960048036038101906103049190611cf4565b610b6c565b005b60606006805461031a90611ed0565b80601f016020809104026020016040519081016040528092919081815260200182805461034690611ed0565b80156103935780601f1061036857610100808354040283529160200191610393565b820191906000526020600020905b81548152906001019060200180831161037657829003601f168201915b5050505050905090565b60006103a882610c63565b6103e7576040517f08c379a00000000000000000000000000000000000000000000000000000000081526004016103de90611f73565b60405180910390fd5b6004600083815260200190815260200160002060009054906101000a900473ffffffffffffffffffffffffffffffffffffffff169050919050565b600061042d8261063d565b90508073ffffffffffffffffffffffffffffffffffffffff168373ffffffffffffffffffffffffffffffffffffffff160361049d576040517f08c379a000000000000000000000000000000000000000000000000000000000815260040161049490612005565b60405180910390fd5b8073ffffffffffffffffffffffffffffffffffffffff166104bc610ccf565b73ffffffffffffffffffffffffffffffffffffffff1614610512576040517f08c379a000000000000000000000000000000000000000000000000000000000815260040161050990612097565b60405180910390fd5b61051c8383610cd7565b505050565b61053261052c610ccf565b82610d90565b610571576040517f08c379a000000000000000000000000000000000000000000000000000000000815260040161056890612129565b60405180910390fd5b61057c838383610e5d565b505050565b61059c83838360405180602001604052806000815250610998565b505050565b6105a9610ccf565b73ffffffffffffffffffffffffffffffffffffffff166105c76108dd565b73ffffffffffffffffffffffffffffffffffffffff161461061d576040517f08c379a000000000000000000000000000000000000000000000000000000000815260040161061490612195565b60405180910390fd5b806009908051906020019061063392919061185c565b5050565b600a5481565b6000806002600084815260200190815260200160002060009054906101000a900473ffffffffffffffffffffffffffffffffffffffff169050600073ffffffffffffffffffffffffffffffffffffffff168173ffffffffffffffffffffffffffffffffffffffff16036106e5576040517f08c379a00000000000000000000000000000000000000000000000000000000081526004016106dc90612227565b60405180910390fd5b80915050919050565b60008073ffffffffffffffffffffffffffffffffffffffff168273ffffffffffffffffffffffffffffffffffffffff160361075e576040517f08c379a0000000000000000000000000000000000000000000000000000000008152600401610755906122b9565b60405180910390fd5b600160008373ffffffffffffffffffffffffffffffffffffffff1673ffffffffffffffffffffffffffffffffffffffff168152602001908152602001600020549050919050565b6107ad610ccf565b73ffffffffffffffffffffffffffffffffffffffff166107cb6108dd565b73ffffffffffffffffffffffffffffffffffffffff1614610821576040517f08c379a000000000000000000000000000000000000000000000000000000000815260040161081890612195565b60405180910390fd5b61082b60006110c1565b565b610835610ccf565b73ffffffffffffffffffffffffffffffffffffffff166108536108dd565b73ffffffffffffffffffffffffffffffffffffffff16146108a9576040517f08c379a00000000000000000000000000000000000000000000000000000000081526004016108a090612195565b60405180910390fd5b6108b582600a54611185565b6108c1600a5482611345565b600a60008154809291906108d490612308565b91905055505050565b60008060009054906101000a900473ffffffffffffffffffffffffffffffffffffffff16905090565b60606007805461091590611ed0565b80601f016020809104026020016040519081016040528092919081815260200182805461094190611ed0565b801561098e5780601f106109635761010080835404028352916020019161098e565b820191906000526020600020905b81548152906001019060200180831161097157829003601f168201915b5050505050905090565b6109a96109a3610ccf565b83610d90565b6109e8576040517f08c379a00000000000000000000000000000000000000000000000000000000081526004016109df90612129565b60405180910390fd5b6109f4848484846113b9565b50505050565b6060610a0582610c63565b610a44576040517f08c379a0000000000000000000000000000000000000000000000000000000008152600401610a3b906123c2565b60405180910390fd5b6000600c60008481526020019081526020016000208054610a6490611ed0565b80601f0160208091040260200160405190810160405280929190818152602001828054610a9090611ed0565b8015610add5780601f10610ab257610100808354040283529160200191610add565b820191906000526020600020905b815481529060010190602001808311610ac057829003601f168201915b505050505090506000610aee611415565b90506000815103610b03578192505050610b67565b600082511115610b38578082604051602001610b2092919061241e565b60405160208183030381529060405292505050610b67565b80610b42856114a7565b604051602001610b5392919061241e565b604051602081830303815290604052925050505b919050565b610b74610ccf565b73ffffffffffffffffffffffffffffffffffffffff16610b926108dd565b73ffffffffffffffffffffffffffffffffffffffff1614610be8576040517f08c379a0000000000000000000000000000000000000000000000000000000008152600401610bdf90612195565b60405180910390fd5b600073ffffffffffffffffffffffffffffffffffffffff168173ffffffffffffffffffffffffffffffffffffffff1603610c57576040517f08c379a0000000000000000000000000000000000000000000000000000000008152600401610c4e906124b4565b60405180910390fd5b610c60816110c1565b50565b60008073ffffffffffffffffffffffffffffffffffffffff166002600084815260200190815260200160002060009054906101000a900473ffffffffffffffffffffffffffffffffffffffff1673ffffffffffffffffffffffffffffffffffffffff1614159050919050565b600033905090565b816004600083815260200190815260200160002060006101000a81548173ffffffffffffffffffffffffffffffffffffffff021916908373ffffffffffffffffffffffffffffffffffffffff160217905550808273ffffffffffffffffffffffffffffffffffffffff16610d4a8361063d565b73ffffffffffffffffffffffffffffffffffffffff167f8c5be1e5ebec7d5bd14f71427d1e84f3dd0314c0f7b2291e5b200ac8c7c3b92560405160405180910390a45050565b6000610d9b82610c63565b610dda576040517f08c379a0000000000000000000000000000000000000000000000000000000008152600401610dd190612546565b60405180910390fd5b6000610de58361063d565b90508073ffffffffffffffffffffffffffffffffffffffff168473ffffffffffffffffffffffffffffffffffffffff161480610e5457508373ffffffffffffffffffffffffffffffffffffffff16610e3c8461039d565b73ffffffffffffffffffffffffffffffffffffffff16145b91505092915050565b8273ffffffffffffffffffffffffffffffffffffffff16610e7d8261063d565b73ffffffffffffffffffffffffffffffffffffffff1614610ed3576040517f08c379a0000000000000000000000000000000000000000000000000000000008152600401610eca906125d8565b60405180910390fd5b600073ffffffffffffffffffffffffffffffffffffffff168273ffffffffffffffffffffffffffffffffffffffff1603610f42576040517f08c379a0000000000000000000000000000000000000000000000000000000008152600401610f399061266a565b60405180910390fd5b610f4d838383611607565b610f58600082610cd7565b60018060008573ffffffffffffffffffffffffffffffffffffffff1673ffffffffffffffffffffffffffffffffffffffff1681526020019081526020016000206000828254610fa7919061268a565b9250508190555060018060008473ffffffffffffffffffffffffffffffffffffffff1673ffffffffffffffffffffffffffffffffffffffff1681526020019081526020016000206000828254610ffd91906126be565b92505081905550816002600083815260200190815260200160002060006101000a81548173ffffffffffffffffffffffffffffffffffffffff021916908373ffffffffffffffffffffffffffffffffffffffff160217905550808273ffffffffffffffffffffffffffffffffffffffff168473ffffffffffffffffffffffffffffffffffffffff167fddf252ad1be2c89b69c2b068fc378daa952ba7f163c4a11628f55a4df523b3ef60405160405180910390a46110bc8383836116ad565b505050565b60008060009054906101000a900473ffffffffffffffffffffffffffffffffffffffff169050816000806101000a81548173ffffffffffffffffffffffffffffffffffffffff021916908373ffffffffffffffffffffffffffffffffffffffff1602179055508173ffffffffffffffffffffffffffffffffffffffff168173ffffffffffffffffffffffffffffffffffffffff167f8be0079c531659141344cd1fd0a4f28419497f9722a3daafe3b4186f6b6457e060405160405180910390a35050565b600073ffffffffffffffffffffffffffffffffffffffff168273ffffffffffffffffffffffffffffffffffffffff16036111f4576040517f08c379a00000000000000000000000000000000000000000000000000000000081526004016111eb90612760565b60405180910390fd5b6111fd81610c63565b1561123d576040517f08c379a0000000000000000000000000000000000000000000000000000000008152600401611234906127cc565b60405180910390fd5b60018060008473ffffffffffffffffffffffffffffffffffffffff1673ffffffffffffffffffffffffffffffffffffffff168152602001908152602001600020600082825461128c91906126be565b92505081905550816002600083815260200190815260200160002060006101000a81548173ffffffffffffffffffffffffffffffffffffffff021916908373ffffffffffffffffffffffffffffffffffffffff160217905550808273ffffffffffffffffffffffffffffffffffffffff16600073ffffffffffffffffffffffffffffffffffffffff167fddf252ad1be2c89b69c2b068fc378daa952ba7f163c4a11628f55a4df523b3ef60405160405180910390a45050565b61134e82610c63565b61138d576040517f08c379a00000000000000000000000000000000000000000000000000000000081526004016113849061285e565b60405180910390fd5b80600c600084815260200190815260200160002090805190602001906113b492919061185c565b505050565b6113c4848484610e5d565b6113d0848484846116b2565b61140f576040517f08c379a0000000000000000000000000000000000000000000000000000000008152600401611406906128f0565b60405180910390fd5b50505050565b60606009805461142490611ed0565b80601f016020809104026020016040519081016040528092919081815260200182805461145090611ed0565b801561149d5780601f106114725761010080835404028352916020019161149d565b820191906000526020600020905b81548152906001019060200180831161148057829003601f168201915b5050505050905090565b6060600082036114ee576040518060400160405280600181526020017f30000000000000000000000000000000000000000000000000000000000000008152509050611602565b600082905060005b6000821461152057808061150990612308565b915050600a82611519919061293f565b91506114f6565b60008167ffffffffffffffff81111561153c5761153b611b56565b5b6040519080825280601f01601f19166020018201604052801561156e5781602001600182028036833780820191505090505b5090505b600085146115fb57600182611587919061268a565b9150600a856115969190612970565b60306115a291906126be565b60f81b8183815181106115b8576115b76129a1565b5b60200101907effffffffffffffffffffffffffffffffffffffffffffffffffffffffffffff1916908160001a905350600a856115f4919061293f565b9450611572565b8093505050505b919050565b8273ffffffffffffffffffffffffffffffffffffffff166002600083815260200190815260200160002060009054906101000a900473ffffffffffffffffffffffffffffffffffffffff1673ffffffffffffffffffffffffffffffffffffffff16146116a8576040517f08c379a000000000000000000000000000000000000000000000000000000000815260040161169f90612a1c565b60405180910390fd5b505050565b505050565b60006116d38473ffffffffffffffffffffffffffffffffffffffff16611839565b1561182c578373ffffffffffffffffffffffffffffffffffffffff1663150b7a026116fc610ccf565b8786866040518563ffffffff1660e01b815260040161171e9493929190612a91565b6020604051808303816000875af192505050801561175a57506040513d601f19601f820116820180604052508101906117579190612b35565b60015b6117dc573d806000811461178a576040519150601f19603f3d011682016040523d82523d6000602084013e61178f565b606091505b5060008151036117d4576040517f08c379a00000000000000000000000000000000000000000000000000000000081526004016117cb906128f0565b60405180910390fd5b805181602001fd5b63150b7a0260e01b7bffffffffffffffffffffffffffffffffffffffffffffffffffffffff1916817bffffffffffffffffffffffffffffffffffffffffffffffffffffffff191614915050611831565b600190505b949350505050565b6000808273ffffffffffffffffffffffffffffffffffffffff163b119050919050565b82805461186890611ed0565b90600052602060002090601f01602090048101928261188a57600085556118d1565b82601f106118a357805160ff19168380011785556118d1565b828001600101855582156118d1579182015b828111156118d05782518255916020019190600101906118b5565b5b5090506118de91906118e2565b5090565b5b808211156118fb5760008160009055506001016118e3565b5090565b600081519050919050565b600082825260208201905092915050565b60005b8381101561193957808201518184015260208101905061191e565b83811115611948576000848401525b50505050565b6000601f19601f8301169050919050565b600061196a826118ff565b611974818561190a565b935061198481856020860161191b565b61198d8161194e565b840191505092915050565b600060208201905081810360008301526119b2818461195f565b905092915050565b6000604051905090565b600080fd5b600080fd5b6000819050919050565b6119e1816119ce565b81146119ec57600080fd5b50565b6000813590506119fe816119d8565b92915050565b600060208284031215611a1a57611a196119c4565b5b6000611a28848285016119ef565b91505092915050565b600073ffffffffffffffffffffffffffffffffffffffff82169050919050565b6000611a5c82611a31565b9050919050565b611a6c81611a51565b82525050565b6000602082019050611a876000830184611a63565b92915050565b611a9681611a51565b8114611aa157600080fd5b50565b600081359050611ab381611a8d565b92915050565b60008060408385031215611ad057611acf6119c4565b5b6000611ade85828601611aa4565b9250506020611aef858286016119ef565b9150509250929050565b600080600060608486031215611b1257611b116119c4565b5b6000611b2086828701611aa4565b9350506020611b3186828701611aa4565b9250506040611b42868287016119ef565b9150509250925092565b600080fd5b600080fd5b7f4e487b7100000000000000000000000000000000000000000000000000000000600052604160045260246000fd5b611b8e8261194e565b810181811067ffffffffffffffff82111715611bad57611bac611b56565b5b80604052505050565b6000611bc06119ba565b9050611bcc8282611b85565b919050565b600067ffffffffffffffff821115611bec57611beb611b56565b5b611bf58261194e565b9050602081019050919050565b82818337600083830152505050565b6000611c24611c1f84611bd1565b611bb6565b905082815260208101848484011115611c4057611c3f611b51565b5b611c4b848285611c02565b509392505050565b600082601f830112611c6857611c67611b4c565b5b8135611c78848260208601611c11565b91505092915050565b600060208284031215611c9757611c966119c4565b5b600082013567ffffffffffffffff811115611cb557611cb46119c9565b5b611cc184828501611c53565b91505092915050565b611cd3816119ce565b82525050565b6000602082019050611cee6000830184611cca565b92915050565b600060208284031215611d0a57611d096119c4565b5b6000611d1884828501611aa4565b91505092915050565b60008060408385031215611d3857611d376119c4565b5b6000611d4685828601611aa4565b925050602083013567ffffffffffffffff811115611d6757611d666119c9565b5b611d7385828601611c53565b9150509250929050565b600067ffffffffffffffff821115611d9857611d97611b56565b5b611da18261194e565b9050602081019050919050565b6000611dc1611dbc84611d7d565b611bb6565b905082815260208101848484011115611ddd57611ddc611b51565b5b611de8848285611c02565b509392505050565b600082601f830112611e0557611e04611b4c565b5b8135611e15848260208601611dae565b91505092915050565b60008060008060808587031215611e3857611e376119c4565b5b6000611e4687828801611aa4565b9450506020611e5787828801611aa4565b9350506040611e68878288016119ef565b925050606085013567ffffffffffffffff811115611e8957611e886119c9565b5b611e9587828801611df0565b91505092959194509250565b7f4e487b7100000000000000000000000000000000000000000000000000000000600052602260045260246000fd5b60006002820490506001821680611ee857607f821691505b602082108103611efb57611efa611ea1565b5b50919050565b7f4552433732313a20617070726f76656420717565727920666f72206e6f6e657860008201527f697374656e7420746f6b656e0000000000000000000000000000000000000000602082015250565b6000611f5d602c8361190a565b9150611f6882611f01565b604082019050919050565b60006020820190508181036000830152611f8c81611f50565b9050919050565b7f4552433732313a20617070726f76616c20746f2063757272656e74206f776e6560008201527f7200000000000000000000000000000000000000000000000000000000000000602082015250565b6000611fef60218361190a565b9150611ffa82611f93565b604082019050919050565b6000602082019050818103600083015261201e81611fe2565b9050919050565b7f4552433732313a20617070726f76652063616c6c6572206973206e6f74206f7760008201527f6e6572206e6f7220617070726f76656420666f7220616c6c0000000000000000602082015250565b600061208160388361190a565b915061208c82612025565b604082019050919050565b600060208201905081810360008301526120b081612074565b9050919050565b7f4552433732313a207472616e736665722063616c6c6572206973206e6f74206f60008201527f776e6572206e6f7220617070726f766564000000000000000000000000000000602082015250565b600061211360318361190a565b915061211e826120b7565b604082019050919050565b6000602082019050818103600083015261214281612106565b9050919050565b7f4f776e61626c653a2063616c6c6572206973206e6f7420746865206f776e6572600082015250565b600061217f60208361190a565b915061218a82612149565b602082019050919050565b600060208201905081810360008301526121ae81612172565b9050919050565b7f4552433732313a206f776e657220717565727920666f72206e6f6e657869737460008201527f656e7420746f6b656e0000000000000000000000000000000000000000000000602082015250565b600061221160298361190a565b915061221c826121b5565b604082019050919050565b6000602082019050818103600083015261224081612204565b9050919050565b7f4552433732313a2062616c616e636520717565727920666f7220746865207a6560008201527f726f206164647265737300000000000000000000000000000000000000000000602082015250565b60006122a3602a8361190a565b91506122ae82612247565b604082019050919050565b600060208201905081810360008301526122d281612296565b9050919050565b7f4e487b7100000000000000000000000000000000000000000000000000000000600052601160045260246000fd5b6000612313826119ce565b91507fffffffffffffffffffffffffffffffffffffffffffffffffffffffffffffffff8203612345576123446122d9565b5b600182019050919050565b7f4552433732314d657461646174613a2055524920717565727920666f72206e6f60008201527f6e6578697374656e7420746f6b656e0000000000000000000000000000000000602082015250565b60006123ac602f8361190a565b91506123b782612350565b604082019050919050565b600060208201905081810360008301526123db8161239f565b9050919050565b600081905092915050565b60006123f8826118ff565b61240281856123e2565b935061241281856020860161191b565b80840191505092915050565b600061242a82856123ed565b915061243682846123ed565b91508190509392505050565b7f4f776e61626c653a206e6577206f776e657220697320746865207a65726f206160008201527f6464726573730000000000000000000000000000000000000000000000000000602082015250565b600061249e60268361190a565b91506124a982612442565b604082019050919050565b600060208201905081810360008301526124cd81612491565b9050919050565b7f4552433732313a206f70657261746f7220717565727920666f72206e6f6e657860008201527f697374656e7420746f6b656e0000000000000000000000000000000000000000602082015250565b6000612530602c8361190a565b915061253b826124d4565b604082019050919050565b6000602082019050818103600083015261255f81612523565b9050919050565b7f4552433732313a207472616e736665722066726f6d20696e636f72726563742060008201527f6f776e6572000000000000000000000000000000000000000000000000000000602082015250565b60006125c260258361190a565b91506125cd82612566565b604082019050919050565b600060208201905081810360008301526125f1816125b5565b9050919050565b7f4552433732313a207472616e7366657220746f20746865207a65726f2061646460008201527f7265737300000000000000000000000000000000000000000000000000000000602082015250565b600061265460248361190a565b915061265f826125f8565b604082019050919050565b6000602082019050818103600083015261268381612647565b9050919050565b6000612695826119ce565b91506126a0836119ce565b9250828210156126b3576126b26122d9565b5b828203905092915050565b60006126c9826119ce565b91506126d4836119ce565b9250827fffffffffffffffffffffffffffffffffffffffffffffffffffffffffffffffff03821115612709576127086122d9565b5b828201905092915050565b7f4552433732313a206d696e7420746f20746865207a65726f2061646472657373600082015250565b600061274a60208361190a565b915061275582612714565b602082019050919050565b600060208201905081810360008301526127798161273d565b9050919050565b7f4552433732313a20746f6b656e20616c7265616479206d696e74656400000000600082015250565b60006127b6601c8361190a565b91506127c182612780565b602082019050919050565b600060208201905081810360008301526127e5816127a9565b9050919050565b7f4552433732314d657461646174613a2055524920736574206f66206e6f6e657860008201527f697374656e7420746f6b656e0000000000000000000000000000000000000000602082015250565b6000612848602c8361190a565b9150612853826127ec565b604082019050919050565b600060208201905081810360008301526128778161283b565b9050919050565b7f4552433732313a207472616e7366657220746f206e6f6e20455243373231526560008201527f63656976657220696d706c656d656e7465720000000000000000000000000000602082015250565b60006128da60328361190a565b91506128e58261287e565b604082019050919050565b60006020820190508181036000830152612909816128cd565b9050919050565b7f4e487b7100000000000000000000000000000000000000000000000000000000600052601260045260246000fd5b600061294a826119ce565b9150612955836119ce565b92508261296557612964612910565b5b828204905092915050565b600061297b826119ce565b9150612986836119ce565b92508261299657612995612910565b5b828206905092915050565b7f4e487b7100000000000000000000000000000000000000000000000000000000600052603260045260246000fd5b7f4552433732313a207472616e73666572206e6f74206f776e657220746f6b656e600082015250565b6000612a0660208361190a565b9150612a11826129d0565b602082019050919050565b60006020820190508181036000830152612a35816129f9565b9050919050565b600081519050919050565b600082825260208201905092915050565b6000612a6382612a3c565b612a6d8185612a47565b9350612a7d81856020860161191b565b612a868161194e565b840191505092915050565b6000608082019050612aa66000830187611a63565b612ab36020830186611a63565b612ac06040830185611cca565b8181036060830152612ad28184612a58565b905095945050505050565b60007fffffffff0000000000000000000000000000000000000000000000000000000082169050919050565b612b1281612add565b8114612b1d57600080fd5b50565b600081519050612b2f81612b09565b92915050565b600060208284031215612b4b57612b4a6119c4565b5b6000612b5984828501612b20565b9150509291505056fea264697066735822122098712787a6969a4f2381538cfe4c911bd9adfa5a7a18ed515d47b7b31d2eafbf64736f6c634300080d0033",
					"opcodes": "PUSH1 0x80 PUSH1 0x40 MSTORE PUSH1 0x1 PUSH1 0xA SSTORE CALLVALUE DUP1 ISZERO PUSH3 0x16 JUMPI PUSH1 0x0 DUP1 REVERT JUMPDEST POP PUSH1 0x40 MLOAD DUP1 PUSH1 0x40 ADD PUSH1 0x40 MSTORE DUP1 PUSH1 0x7 DUP2 MSTORE PUSH1 0x20 ADD PUSH32 0x5351464954454D00000000000000000000000000000000000000000000000000 DUP2 MSTORE POP PUSH1 0x40 MLOAD DUP1 PUSH1 0x40 ADD PUSH1 0x40 MSTORE DUP1 PUSH1 0x4 DUP2 MSTORE PUSH1 0x20 ADD PUSH32 0x5351464900000000000000000000000000000000000000000000000000000000 DUP2 MSTORE POP PUSH3 0xA3 PUSH3 0x97 PUSH3 0xDD PUSH1 0x20 SHL PUSH1 0x20 SHR JUMP JUMPDEST PUSH3 0xE5 PUSH1 0x20 SHL PUSH1 0x20 SHR JUMP JUMPDEST DUP2 PUSH1 0x6 SWAP1 DUP1 MLOAD SWAP1 PUSH1 0x20 ADD SWAP1 PUSH3 0xBB SWAP3 SWAP2 SWAP1 PUSH3 0x1A9 JUMP JUMPDEST POP DUP1 PUSH1 0x7 SWAP1 DUP1 MLOAD SWAP1 PUSH1 0x20 ADD SWAP1 PUSH3 0xD4 SWAP3 SWAP2 SWAP1 PUSH3 0x1A9 JUMP JUMPDEST POP POP POP PUSH3 0x2BD JUMP JUMPDEST PUSH1 0x0 CALLER SWAP1 POP SWAP1 JUMP JUMPDEST PUSH1 0x0 DUP1 PUSH1 0x0 SWAP1 SLOAD SWAP1 PUSH2 0x100 EXP SWAP1 DIV PUSH20 0xFFFFFFFFFFFFFFFFFFFFFFFFFFFFFFFFFFFFFFFF AND SWAP1 POP DUP2 PUSH1 0x0 DUP1 PUSH2 0x100 EXP DUP2 SLOAD DUP2 PUSH20 0xFFFFFFFFFFFFFFFFFFFFFFFFFFFFFFFFFFFFFFFF MUL NOT AND SWAP1 DUP4 PUSH20 0xFFFFFFFFFFFFFFFFFFFFFFFFFFFFFFFFFFFFFFFF AND MUL OR SWAP1 SSTORE POP DUP2 PUSH20 0xFFFFFFFFFFFFFFFFFFFFFFFFFFFFFFFFFFFFFFFF AND DUP2 PUSH20 0xFFFFFFFFFFFFFFFFFFFFFFFFFFFFFFFFFFFFFFFF AND PUSH32 0x8BE0079C531659141344CD1FD0A4F28419497F9722A3DAAFE3B4186F6B6457E0 PUSH1 0x40 MLOAD PUSH1 0x40 MLOAD DUP1 SWAP2 SUB SWAP1 LOG3 POP POP JUMP JUMPDEST DUP3 DUP1 SLOAD PUSH3 0x1B7 SWAP1 PUSH3 0x288 JUMP JUMPDEST SWAP1 PUSH1 0x0 MSTORE PUSH1 0x20 PUSH1 0x0 KECCAK256 SWAP1 PUSH1 0x1F ADD PUSH1 0x20 SWAP1 DIV DUP2 ADD SWAP3 DUP3 PUSH3 0x1DB JUMPI PUSH1 0x0 DUP6 SSTORE PUSH3 0x227 JUMP JUMPDEST DUP3 PUSH1 0x1F LT PUSH3 0x1F6 JUMPI DUP1 MLOAD PUSH1 0xFF NOT AND DUP4 DUP1 ADD OR DUP6 SSTORE PUSH3 0x227 JUMP JUMPDEST DUP3 DUP1 ADD PUSH1 0x1 ADD DUP6 SSTORE DUP3 ISZERO PUSH3 0x227 JUMPI SWAP2 DUP3 ADD JUMPDEST DUP3 DUP2 GT ISZERO PUSH3 0x226 JUMPI DUP3 MLOAD DUP3 SSTORE SWAP2 PUSH1 0x20 ADD SWAP2 SWAP1 PUSH1 0x1 ADD SWAP1 PUSH3 0x209 JUMP JUMPDEST JUMPDEST POP SWAP1 POP PUSH3 0x236 SWAP2 SWAP1 PUSH3 0x23A JUMP JUMPDEST POP SWAP1 JUMP JUMPDEST JUMPDEST DUP1 DUP3 GT ISZERO PUSH3 0x255 JUMPI PUSH1 0x0 DUP2 PUSH1 0x0 SWAP1 SSTORE POP PUSH1 0x1 ADD PUSH3 0x23B JUMP JUMPDEST POP SWAP1 JUMP JUMPDEST PUSH32 0x4E487B7100000000000000000000000000000000000000000000000000000000 PUSH1 0x0 MSTORE PUSH1 0x22 PUSH1 0x4 MSTORE PUSH1 0x24 PUSH1 0x0 REVERT JUMPDEST PUSH1 0x0 PUSH1 0x2 DUP3 DIV SWAP1 POP PUSH1 0x1 DUP3 AND DUP1 PUSH3 0x2A1 JUMPI PUSH1 0x7F DUP3 AND SWAP2 POP JUMPDEST PUSH1 0x20 DUP3 LT DUP2 SUB PUSH3 0x2B7 JUMPI PUSH3 0x2B6 PUSH3 0x259 JUMP JUMPDEST JUMPDEST POP SWAP2 SWAP1 POP JUMP JUMPDEST PUSH2 0x2B98 DUP1 PUSH3 0x2CD PUSH1 0x0 CODECOPY PUSH1 0x0 RETURN INVALID PUSH1 0x80 PUSH1 0x40 MSTORE CALLVALUE DUP1 ISZERO PUSH2 0x10 JUMPI PUSH1 0x0 DUP1 REVERT JUMPDEST POP PUSH1 0x4 CALLDATASIZE LT PUSH2 0x100 JUMPI PUSH1 0x0 CALLDATALOAD PUSH1 0xE0 SHR DUP1 PUSH4 0x70A08231 GT PUSH2 0x97 JUMPI DUP1 PUSH4 0x95D89B41 GT PUSH2 0x66 JUMPI DUP1 PUSH4 0x95D89B41 EQ PUSH2 0x285 JUMPI DUP1 PUSH4 0xB88D4FDE EQ PUSH2 0x2A3 JUMPI DUP1 PUSH4 0xC87B56DD EQ PUSH2 0x2BF JUMPI DUP1 PUSH4 0xF2FDE38B EQ PUSH2 0x2EF JUMPI PUSH2 0x100 JUMP JUMPDEST DUP1 PUSH4 0x70A08231 EQ PUSH2 0x211 JUMPI DUP1 PUSH4 0x715018A6 EQ PUSH2 0x241 JUMPI DUP1 PUSH4 0x89F05761 EQ PUSH2 0x24B JUMPI DUP1 PUSH4 0x8DA5CB5B EQ PUSH2 0x267 JUMPI PUSH2 0x100 JUMP JUMPDEST DUP1 PUSH4 0x42842E0E GT PUSH2 0xD3 JUMPI DUP1 PUSH4 0x42842E0E EQ PUSH2 0x18B JUMPI DUP1 PUSH4 0x55F804B3 EQ PUSH2 0x1A7 JUMPI DUP1 PUSH4 0x61B8CE8C EQ PUSH2 0x1C3 JUMPI DUP1 PUSH4 0x6352211E EQ PUSH2 0x1E1 JUMPI PUSH2 0x100 JUMP JUMPDEST DUP1 PUSH4 0x6FDDE03 EQ PUSH2 0x105 JUMPI DUP1 PUSH4 0x81812FC EQ PUSH2 0x123 JUMPI DUP1 PUSH4 0x95EA7B3 EQ PUSH2 0x153 JUMPI DUP1 PUSH4 0x23B872DD EQ PUSH2 0x16F JUMPI JUMPDEST PUSH1 0x0 DUP1 REVERT JUMPDEST PUSH2 0x10D PUSH2 0x30B JUMP JUMPDEST PUSH1 0x40 MLOAD PUSH2 0x11A SWAP2 SWAP1 PUSH2 0x1998 JUMP JUMPDEST PUSH1 0x40 MLOAD DUP1 SWAP2 SUB SWAP1 RETURN JUMPDEST PUSH2 0x13D PUSH1 0x4 DUP1 CALLDATASIZE SUB DUP2 ADD SWAP1 PUSH2 0x138 SWAP2 SWAP1 PUSH2 0x1A04 JUMP JUMPDEST PUSH2 0x39D JUMP JUMPDEST PUSH1 0x40 MLOAD PUSH2 0x14A SWAP2 SWAP1 PUSH2 0x1A72 JUMP JUMPDEST PUSH1 0x40 MLOAD DUP1 SWAP2 SUB SWAP1 RETURN JUMPDEST PUSH2 0x16D PUSH1 0x4 DUP1 CALLDATASIZE SUB DUP2 ADD SWAP1 PUSH2 0x168 SWAP2 SWAP1 PUSH2 0x1AB9 JUMP JUMPDEST PUSH2 0x422 JUMP JUMPDEST STOP JUMPDEST PUSH2 0x189 PUSH1 0x4 DUP1 CALLDATASIZE SUB DUP2 ADD SWAP1 PUSH2 0x184 SWAP2 SWAP1 PUSH2 0x1AF9 JUMP JUMPDEST PUSH2 0x521 JUMP JUMPDEST STOP JUMPDEST PUSH2 0x1A5 PUSH1 0x4 DUP1 CALLDATASIZE SUB DUP2 ADD SWAP1 PUSH2 0x1A0 SWAP2 SWAP1 PUSH2 0x1AF9 JUMP JUMPDEST PUSH2 0x581 JUMP JUMPDEST STOP JUMPDEST PUSH2 0x1C1 PUSH1 0x4 DUP1 CALLDATASIZE SUB DUP2 ADD SWAP1 PUSH2 0x1BC SWAP2 SWAP1 PUSH2 0x1C81 JUMP JUMPDEST PUSH2 0x5A1 JUMP JUMPDEST STOP JUMPDEST PUSH2 0x1CB PUSH2 0x637 JUMP JUMPDEST PUSH1 0x40 MLOAD PUSH2 0x1D8 SWAP2 SWAP1 PUSH2 0x1CD9 JUMP JUMPDEST PUSH1 0x40 MLOAD DUP1 SWAP2 SUB SWAP1 RETURN JUMPDEST PUSH2 0x1FB PUSH1 0x4 DUP1 CALLDATASIZE SUB DUP2 ADD SWAP1 PUSH2 0x1F6 SWAP2 SWAP1 PUSH2 0x1A04 JUMP JUMPDEST PUSH2 0x63D JUMP JUMPDEST PUSH1 0x40 MLOAD PUSH2 0x208 SWAP2 SWAP1 PUSH2 0x1A72 JUMP JUMPDEST PUSH1 0x40 MLOAD DUP1 SWAP2 SUB SWAP1 RETURN JUMPDEST PUSH2 0x22B PUSH1 0x4 DUP1 CALLDATASIZE SUB DUP2 ADD SWAP1 PUSH2 0x226 SWAP2 SWAP1 PUSH2 0x1CF4 JUMP JUMPDEST PUSH2 0x6EE JUMP JUMPDEST PUSH1 0x40 MLOAD PUSH2 0x238 SWAP2 SWAP1 PUSH2 0x1CD9 JUMP JUMPDEST PUSH1 0x40 MLOAD DUP1 SWAP2 SUB SWAP1 RETURN JUMPDEST PUSH2 0x249 PUSH2 0x7A5 JUMP JUMPDEST STOP JUMPDEST PUSH2 0x265 PUSH1 0x4 DUP1 CALLDATASIZE SUB DUP2 ADD SWAP1 PUSH2 0x260 SWAP2 SWAP1 PUSH2 0x1D21 JUMP JUMPDEST PUSH2 0x82D JUMP JUMPDEST STOP JUMPDEST PUSH2 0x26F PUSH2 0x8DD JUMP JUMPDEST PUSH1 0x40 MLOAD PUSH2 0x27C SWAP2 SWAP1 PUSH2 0x1A72 JUMP JUMPDEST PUSH1 0x40 MLOAD DUP1 SWAP2 SUB SWAP1 RETURN JUMPDEST PUSH2 0x28D PUSH2 0x906 JUMP JUMPDEST PUSH1 0x40 MLOAD PUSH2 0x29A SWAP2 SWAP1 PUSH2 0x1998 JUMP JUMPDEST PUSH1 0x40 MLOAD DUP1 SWAP2 SUB SWAP1 RETURN JUMPDEST PUSH2 0x2BD PUSH1 0x4 DUP1 CALLDATASIZE SUB DUP2 ADD SWAP1 PUSH2 0x2B8 SWAP2 SWAP1 PUSH2 0x1E1E JUMP JUMPDEST PUSH2 0x998 JUMP JUMPDEST STOP JUMPDEST PUSH2 0x2D9 PUSH1 0x4 DUP1 CALLDATASIZE SUB DUP2 ADD SWAP1 PUSH2 0x2D4 SWAP2 SWAP1 PUSH2 0x1A04 JUMP JUMPDEST PUSH2 0x9FA JUMP JUMPDEST PUSH1 0x40 MLOAD PUSH2 0x2E6 SWAP2 SWAP1 PUSH2 0x1998 JUMP JUMPDEST PUSH1 0x40 MLOAD DUP1 SWAP2 SUB SWAP1 RETURN JUMPDEST PUSH2 0x309 PUSH1 0x4 DUP1 CALLDATASIZE SUB DUP2 ADD SWAP1 PUSH2 0x304 SWAP2 SWAP1 PUSH2 0x1CF4 JUMP JUMPDEST PUSH2 0xB6C JUMP JUMPDEST STOP JUMPDEST PUSH1 0x60 PUSH1 0x6 DUP1 SLOAD PUSH2 0x31A SWAP1 PUSH2 0x1ED0 JUMP JUMPDEST DUP1 PUSH1 0x1F ADD PUSH1 0x20 DUP1 SWAP2 DIV MUL PUSH1 0x20 ADD PUSH1 0x40 MLOAD SWAP1 DUP2 ADD PUSH1 0x40 MSTORE DUP1 SWAP3 SWAP2 SWAP1 DUP2 DUP2 MSTORE PUSH1 0x20 ADD DUP3 DUP1 SLOAD PUSH2 0x346 SWAP1 PUSH2 0x1ED0 JUMP JUMPDEST DUP1 ISZERO PUSH2 0x393 JUMPI DUP1 PUSH1 0x1F LT PUSH2 0x368 JUMPI PUSH2 0x100 DUP1 DUP4 SLOAD DIV MUL DUP4 MSTORE SWAP2 PUSH1 0x20 ADD SWAP2 PUSH2 0x393 JUMP JUMPDEST DUP3 ADD SWAP2 SWAP1 PUSH1 0x0 MSTORE PUSH1 0x20 PUSH1 0x0 KECCAK256 SWAP1 JUMPDEST DUP2 SLOAD DUP2 MSTORE SWAP1 PUSH1 0x1 ADD SWAP1 PUSH1 0x20 ADD DUP1 DUP4 GT PUSH2 0x376 JUMPI DUP3 SWAP1 SUB PUSH1 0x1F AND DUP3 ADD SWAP2 JUMPDEST POP POP POP POP POP SWAP1 POP SWAP1 JUMP JUMPDEST PUSH1 0x0 PUSH2 0x3A8 DUP3 PUSH2 0xC63 JUMP JUMPDEST PUSH2 0x3E7 JUMPI PUSH1 0x40 MLOAD PUSH32 0x8C379A000000000000000000000000000000000000000000000000000000000 DUP2 MSTORE PUSH1 0x4 ADD PUSH2 0x3DE SWAP1 PUSH2 0x1F73 JUMP JUMPDEST PUSH1 0x40 MLOAD DUP1 SWAP2 SUB SWAP1 REVERT JUMPDEST PUSH1 0x4 PUSH1 0x0 DUP4 DUP2 MSTORE PUSH1 0x20 ADD SWAP1 DUP2 MSTORE PUSH1 0x20 ADD PUSH1 0x0 KECCAK256 PUSH1 0x0 SWAP1 SLOAD SWAP1 PUSH2 0x100 EXP SWAP1 DIV PUSH20 0xFFFFFFFFFFFFFFFFFFFFFFFFFFFFFFFFFFFFFFFF AND SWAP1 POP SWAP2 SWAP1 POP JUMP JUMPDEST PUSH1 0x0 PUSH2 0x42D DUP3 PUSH2 0x63D JUMP JUMPDEST SWAP1 POP DUP1 PUSH20 0xFFFFFFFFFFFFFFFFFFFFFFFFFFFFFFFFFFFFFFFF AND DUP4 PUSH20 0xFFFFFFFFFFFFFFFFFFFFFFFFFFFFFFFFFFFFFFFF AND SUB PUSH2 0x49D JUMPI PUSH1 0x40 MLOAD PUSH32 0x8C379A000000000000000000000000000000000000000000000000000000000 DUP2 MSTORE PUSH1 0x4 ADD PUSH2 0x494 SWAP1 PUSH2 0x2005 JUMP JUMPDEST PUSH1 0x40 MLOAD DUP1 SWAP2 SUB SWAP1 REVERT JUMPDEST DUP1 PUSH20 0xFFFFFFFFFFFFFFFFFFFFFFFFFFFFFFFFFFFFFFFF AND PUSH2 0x4BC PUSH2 0xCCF JUMP JUMPDEST PUSH20 0xFFFFFFFFFFFFFFFFFFFFFFFFFFFFFFFFFFFFFFFF AND EQ PUSH2 0x512 JUMPI PUSH1 0x40 MLOAD PUSH32 0x8C379A000000000000000000000000000000000000000000000000000000000 DUP2 MSTORE PUSH1 0x4 ADD PUSH2 0x509 SWAP1 PUSH2 0x2097 JUMP JUMPDEST PUSH1 0x40 MLOAD DUP1 SWAP2 SUB SWAP1 REVERT JUMPDEST PUSH2 0x51C DUP4 DUP4 PUSH2 0xCD7 JUMP JUMPDEST POP POP POP JUMP JUMPDEST PUSH2 0x532 PUSH2 0x52C PUSH2 0xCCF JUMP JUMPDEST DUP3 PUSH2 0xD90 JUMP JUMPDEST PUSH2 0x571 JUMPI PUSH1 0x40 MLOAD PUSH32 0x8C379A000000000000000000000000000000000000000000000000000000000 DUP2 MSTORE PUSH1 0x4 ADD PUSH2 0x568 SWAP1 PUSH2 0x2129 JUMP JUMPDEST PUSH1 0x40 MLOAD DUP1 SWAP2 SUB SWAP1 REVERT JUMPDEST PUSH2 0x57C DUP4 DUP4 DUP4 PUSH2 0xE5D JUMP JUMPDEST POP POP POP JUMP JUMPDEST PUSH2 0x59C DUP4 DUP4 DUP4 PUSH1 0x40 MLOAD DUP1 PUSH1 0x20 ADD PUSH1 0x40 MSTORE DUP1 PUSH1 0x0 DUP2 MSTORE POP PUSH2 0x998 JUMP JUMPDEST POP POP POP JUMP JUMPDEST PUSH2 0x5A9 PUSH2 0xCCF JUMP JUMPDEST PUSH20 0xFFFFFFFFFFFFFFFFFFFFFFFFFFFFFFFFFFFFFFFF AND PUSH2 0x5C7 PUSH2 0x8DD JUMP JUMPDEST PUSH20 0xFFFFFFFFFFFFFFFFFFFFFFFFFFFFFFFFFFFFFFFF AND EQ PUSH2 0x61D JUMPI PUSH1 0x40 MLOAD PUSH32 0x8C379A000000000000000000000000000000000000000000000000000000000 DUP2 MSTORE PUSH1 0x4 ADD PUSH2 0x614 SWAP1 PUSH2 0x2195 JUMP JUMPDEST PUSH1 0x40 MLOAD DUP1 SWAP2 SUB SWAP1 REVERT JUMPDEST DUP1 PUSH1 0x9 SWAP1 DUP1 MLOAD SWAP1 PUSH1 0x20 ADD SWAP1 PUSH2 0x633 SWAP3 SWAP2 SWAP1 PUSH2 0x185C JUMP JUMPDEST POP POP JUMP JUMPDEST PUSH1 0xA SLOAD DUP2 JUMP JUMPDEST PUSH1 0x0 DUP1 PUSH1 0x2 PUSH1 0x0 DUP5 DUP2 MSTORE PUSH1 0x20 ADD SWAP1 DUP2 MSTORE PUSH1 0x20 ADD PUSH1 0x0 KECCAK256 PUSH1 0x0 SWAP1 SLOAD SWAP1 PUSH2 0x100 EXP SWAP1 DIV PUSH20 0xFFFFFFFFFFFFFFFFFFFFFFFFFFFFFFFFFFFFFFFF AND SWAP1 POP PUSH1 0x0 PUSH20 0xFFFFFFFFFFFFFFFFFFFFFFFFFFFFFFFFFFFFFFFF AND DUP2 PUSH20 0xFFFFFFFFFFFFFFFFFFFFFFFFFFFFFFFFFFFFFFFF AND SUB PUSH2 0x6E5 JUMPI PUSH1 0x40 MLOAD PUSH32 0x8C379A000000000000000000000000000000000000000000000000000000000 DUP2 MSTORE PUSH1 0x4 ADD PUSH2 0x6DC SWAP1 PUSH2 0x2227 JUMP JUMPDEST PUSH1 0x40 MLOAD DUP1 SWAP2 SUB SWAP1 REVERT JUMPDEST DUP1 SWAP2 POP POP SWAP2 SWAP1 POP JUMP JUMPDEST PUSH1 0x0 DUP1 PUSH20 0xFFFFFFFFFFFFFFFFFFFFFFFFFFFFFFFFFFFFFFFF AND DUP3 PUSH20 0xFFFFFFFFFFFFFFFFFFFFFFFFFFFFFFFFFFFFFFFF AND SUB PUSH2 0x75E JUMPI PUSH1 0x40 MLOAD PUSH32 0x8C379A000000000000000000000000000000000000000000000000000000000 DUP2 MSTORE PUSH1 0x4 ADD PUSH2 0x755 SWAP1 PUSH2 0x22B9 JUMP JUMPDEST PUSH1 0x40 MLOAD DUP1 SWAP2 SUB SWAP1 REVERT JUMPDEST PUSH1 0x1 PUSH1 0x0 DUP4 PUSH20 0xFFFFFFFFFFFFFFFFFFFFFFFFFFFFFFFFFFFFFFFF AND PUSH20 0xFFFFFFFFFFFFFFFFFFFFFFFFFFFFFFFFFFFFFFFF AND DUP2 MSTORE PUSH1 0x20 ADD SWAP1 DUP2 MSTORE PUSH1 0x20 ADD PUSH1 0x0 KECCAK256 SLOAD SWAP1 POP SWAP2 SWAP1 POP JUMP JUMPDEST PUSH2 0x7AD PUSH2 0xCCF JUMP JUMPDEST PUSH20 0xFFFFFFFFFFFFFFFFFFFFFFFFFFFFFFFFFFFFFFFF AND PUSH2 0x7CB PUSH2 0x8DD JUMP JUMPDEST PUSH20 0xFFFFFFFFFFFFFFFFFFFFFFFFFFFFFFFFFFFFFFFF AND EQ PUSH2 0x821 JUMPI PUSH1 0x40 MLOAD PUSH32 0x8C379A000000000000000000000000000000000000000000000000000000000 DUP2 MSTORE PUSH1 0x4 ADD PUSH2 0x818 SWAP1 PUSH2 0x2195 JUMP JUMPDEST PUSH1 0x40 MLOAD DUP1 SWAP2 SUB SWAP1 REVERT JUMPDEST PUSH2 0x82B PUSH1 0x0 PUSH2 0x10C1 JUMP JUMPDEST JUMP JUMPDEST PUSH2 0x835 PUSH2 0xCCF JUMP JUMPDEST PUSH20 0xFFFFFFFFFFFFFFFFFFFFFFFFFFFFFFFFFFFFFFFF AND PUSH2 0x853 PUSH2 0x8DD JUMP JUMPDEST PUSH20 0xFFFFFFFFFFFFFFFFFFFFFFFFFFFFFFFFFFFFFFFF AND EQ PUSH2 0x8A9 JUMPI PUSH1 0x40 MLOAD PUSH32 0x8C379A000000000000000000000000000000000000000000000000000000000 DUP2 MSTORE PUSH1 0x4 ADD PUSH2 0x8A0 SWAP1 PUSH2 0x2195 JUMP JUMPDEST PUSH1 0x40 MLOAD DUP1 SWAP2 SUB SWAP1 REVERT JUMPDEST PUSH2 0x8B5 DUP3 PUSH1 0xA SLOAD PUSH2 0x1185 JUMP JUMPDEST PUSH2 0x8C1 PUSH1 0xA SLOAD DUP3 PUSH2 0x1345 JUMP JUMPDEST PUSH1 0xA PUSH1 0x0 DUP2 SLOAD DUP1 SWAP3 SWAP2 SWAP1 PUSH2 0x8D4 SWAP1 PUSH2 0x2308 JUMP JUMPDEST SWAP2 SWAP1 POP SSTORE POP POP POP JUMP JUMPDEST PUSH1 0x0 DUP1 PUSH1 0x0 SWAP1 SLOAD SWAP1 PUSH2 0x100 EXP SWAP1 DIV PUSH20 0xFFFFFFFFFFFFFFFFFFFFFFFFFFFFFFFFFFFFFFFF AND SWAP1 POP SWAP1 JUMP JUMPDEST PUSH1 0x60 PUSH1 0x7 DUP1 SLOAD PUSH2 0x915 SWAP1 PUSH2 0x1ED0 JUMP JUMPDEST DUP1 PUSH1 0x1F ADD PUSH1 0x20 DUP1 SWAP2 DIV MUL PUSH1 0x20 ADD PUSH1 0x40 MLOAD SWAP1 DUP2 ADD PUSH1 0x40 MSTORE DUP1 SWAP3 SWAP2 SWAP1 DUP2 DUP2 MSTORE PUSH1 0x20 ADD DUP3 DUP1 SLOAD PUSH2 0x941 SWAP1 PUSH2 0x1ED0 JUMP JUMPDEST DUP1 ISZERO PUSH2 0x98E JUMPI DUP1 PUSH1 0x1F LT PUSH2 0x963 JUMPI PUSH2 0x100 DUP1 DUP4 SLOAD DIV MUL DUP4 MSTORE SWAP2 PUSH1 0x20 ADD SWAP2 PUSH2 0x98E JUMP JUMPDEST DUP3 ADD SWAP2 SWAP1 PUSH1 0x0 MSTORE PUSH1 0x20 PUSH1 0x0 KECCAK256 SWAP1 JUMPDEST DUP2 SLOAD DUP2 MSTORE SWAP1 PUSH1 0x1 ADD SWAP1 PUSH1 0x20 ADD DUP1 DUP4 GT PUSH2 0x971 JUMPI DUP3 SWAP1 SUB PUSH1 0x1F AND DUP3 ADD SWAP2 JUMPDEST POP POP POP POP POP SWAP1 POP SWAP1 JUMP JUMPDEST PUSH2 0x9A9 PUSH2 0x9A3 PUSH2 0xCCF JUMP JUMPDEST DUP4 PUSH2 0xD90 JUMP JUMPDEST PUSH2 0x9E8 JUMPI PUSH1 0x40 MLOAD PUSH32 0x8C379A000000000000000000000000000000000000000000000000000000000 DUP2 MSTORE PUSH1 0x4 ADD PUSH2 0x9DF SWAP1 PUSH2 0x2129 JUMP JUMPDEST PUSH1 0x40 MLOAD DUP1 SWAP2 SUB SWAP1 REVERT JUMPDEST PUSH2 0x9F4 DUP5 DUP5 DUP5 DUP5 PUSH2 0x13B9 JUMP JUMPDEST POP POP POP POP JUMP JUMPDEST PUSH1 0x60 PUSH2 0xA05 DUP3 PUSH2 0xC63 JUMP JUMPDEST PUSH2 0xA44 JUMPI PUSH1 0x40 MLOAD PUSH32 0x8C379A000000000000000000000000000000000000000000000000000000000 DUP2 MSTORE PUSH1 0x4 ADD PUSH2 0xA3B SWAP1 PUSH2 0x23C2 JUMP JUMPDEST PUSH1 0x40 MLOAD DUP1 SWAP2 SUB SWAP1 REVERT JUMPDEST PUSH1 0x0 PUSH1 0xC PUSH1 0x0 DUP5 DUP2 MSTORE PUSH1 0x20 ADD SWAP1 DUP2 MSTORE PUSH1 0x20 ADD PUSH1 0x0 KECCAK256 DUP1 SLOAD PUSH2 0xA64 SWAP1 PUSH2 0x1ED0 JUMP JUMPDEST DUP1 PUSH1 0x1F ADD PUSH1 0x20 DUP1 SWAP2 DIV MUL PUSH1 0x20 ADD PUSH1 0x40 MLOAD SWAP1 DUP2 ADD PUSH1 0x40 MSTORE DUP1 SWAP3 SWAP2 SWAP1 DUP2 DUP2 MSTORE PUSH1 0x20 ADD DUP3 DUP1 SLOAD PUSH2 0xA90 SWAP1 PUSH2 0x1ED0 JUMP JUMPDEST DUP1 ISZERO PUSH2 0xADD JUMPI DUP1 PUSH1 0x1F LT PUSH2 0xAB2 JUMPI PUSH2 0x100 DUP1 DUP4 SLOAD DIV MUL DUP4 MSTORE SWAP2 PUSH1 0x20 ADD SWAP2 PUSH2 0xADD JUMP JUMPDEST DUP3 ADD SWAP2 SWAP1 PUSH1 0x0 MSTORE PUSH1 0x20 PUSH1 0x0 KECCAK256 SWAP1 JUMPDEST DUP2 SLOAD DUP2 MSTORE SWAP1 PUSH1 0x1 ADD SWAP1 PUSH1 0x20 ADD DUP1 DUP4 GT PUSH2 0xAC0 JUMPI DUP3 SWAP1 SUB PUSH1 0x1F AND DUP3 ADD SWAP2 JUMPDEST POP POP POP POP POP SWAP1 POP PUSH1 0x0 PUSH2 0xAEE PUSH2 0x1415 JUMP JUMPDEST SWAP1 POP PUSH1 0x0 DUP2 MLOAD SUB PUSH2 0xB03 JUMPI DUP2 SWAP3 POP POP POP PUSH2 0xB67 JUMP JUMPDEST PUSH1 0x0 DUP3 MLOAD GT ISZERO PUSH2 0xB38 JUMPI DUP1 DUP3 PUSH1 0x40 MLOAD PUSH1 0x20 ADD PUSH2 0xB20 SWAP3 SWAP2 SWAP1 PUSH2 0x241E JUMP JUMPDEST PUSH1 0x40 MLOAD PUSH1 0x20 DUP2 DUP4 SUB SUB DUP2 MSTORE SWAP1 PUSH1 0x40 MSTORE SWAP3 POP POP POP PUSH2 0xB67 JUMP JUMPDEST DUP1 PUSH2 0xB42 DUP6 PUSH2 0x14A7 JUMP JUMPDEST PUSH1 0x40 MLOAD PUSH1 0x20 ADD PUSH2 0xB53 SWAP3 SWAP2 SWAP1 PUSH2 0x241E JUMP JUMPDEST PUSH1 0x40 MLOAD PUSH1 0x20 DUP2 DUP4 SUB SUB DUP2 MSTORE SWAP1 PUSH1 0x40 MSTORE SWAP3 POP POP POP JUMPDEST SWAP2 SWAP1 POP JUMP JUMPDEST PUSH2 0xB74 PUSH2 0xCCF JUMP JUMPDEST PUSH20 0xFFFFFFFFFFFFFFFFFFFFFFFFFFFFFFFFFFFFFFFF AND PUSH2 0xB92 PUSH2 0x8DD JUMP JUMPDEST PUSH20 0xFFFFFFFFFFFFFFFFFFFFFFFFFFFFFFFFFFFFFFFF AND EQ PUSH2 0xBE8 JUMPI PUSH1 0x40 MLOAD PUSH32 0x8C379A000000000000000000000000000000000000000000000000000000000 DUP2 MSTORE PUSH1 0x4 ADD PUSH2 0xBDF SWAP1 PUSH2 0x2195 JUMP JUMPDEST PUSH1 0x40 MLOAD DUP1 SWAP2 SUB SWAP1 REVERT JUMPDEST PUSH1 0x0 PUSH20 0xFFFFFFFFFFFFFFFFFFFFFFFFFFFFFFFFFFFFFFFF AND DUP2 PUSH20 0xFFFFFFFFFFFFFFFFFFFFFFFFFFFFFFFFFFFFFFFF AND SUB PUSH2 0xC57 JUMPI PUSH1 0x40 MLOAD PUSH32 0x8C379A000000000000000000000000000000000000000000000000000000000 DUP2 MSTORE PUSH1 0x4 ADD PUSH2 0xC4E SWAP1 PUSH2 0x24B4 JUMP JUMPDEST PUSH1 0x40 MLOAD DUP1 SWAP2 SUB SWAP1 REVERT JUMPDEST PUSH2 0xC60 DUP2 PUSH2 0x10C1 JUMP JUMPDEST POP JUMP JUMPDEST PUSH1 0x0 DUP1 PUSH20 0xFFFFFFFFFFFFFFFFFFFFFFFFFFFFFFFFFFFFFFFF AND PUSH1 0x2 PUSH1 0x0 DUP5 DUP2 MSTORE PUSH1 0x20 ADD SWAP1 DUP2 MSTORE PUSH1 0x20 ADD PUSH1 0x0 KECCAK256 PUSH1 0x0 SWAP1 SLOAD SWAP1 PUSH2 0x100 EXP SWAP1 DIV PUSH20 0xFFFFFFFFFFFFFFFFFFFFFFFFFFFFFFFFFFFFFFFF AND PUSH20 0xFFFFFFFFFFFFFFFFFFFFFFFFFFFFFFFFFFFFFFFF AND EQ ISZERO SWAP1 POP SWAP2 SWAP1 POP JUMP JUMPDEST PUSH1 0x0 CALLER SWAP1 POP SWAP1 JUMP JUMPDEST DUP2 PUSH1 0x4 PUSH1 0x0 DUP4 DUP2 MSTORE PUSH1 0x20 ADD SWAP1 DUP2 MSTORE PUSH1 0x20 ADD PUSH1 0x0 KECCAK256 PUSH1 0x0 PUSH2 0x100 EXP DUP2 SLOAD DUP2 PUSH20 0xFFFFFFFFFFFFFFFFFFFFFFFFFFFFFFFFFFFFFFFF MUL NOT AND SWAP1 DUP4 PUSH20 0xFFFFFFFFFFFFFFFFFFFFFFFFFFFFFFFFFFFFFFFF AND MUL OR SWAP1 SSTORE POP DUP1 DUP3 PUSH20 0xFFFFFFFFFFFFFFFFFFFFFFFFFFFFFFFFFFFFFFFF AND PUSH2 0xD4A DUP4 PUSH2 0x63D JUMP JUMPDEST PUSH20 0xFFFFFFFFFFFFFFFFFFFFFFFFFFFFFFFFFFFFFFFF AND PUSH32 0x8C5BE1E5EBEC7D5BD14F71427D1E84F3DD0314C0F7B2291E5B200AC8C7C3B925 PUSH1 0x40 MLOAD PUSH1 0x40 MLOAD DUP1 SWAP2 SUB SWAP1 LOG4 POP POP JUMP JUMPDEST PUSH1 0x0 PUSH2 0xD9B DUP3 PUSH2 0xC63 JUMP JUMPDEST PUSH2 0xDDA JUMPI PUSH1 0x40 MLOAD PUSH32 0x8C379A000000000000000000000000000000000000000000000000000000000 DUP2 MSTORE PUSH1 0x4 ADD PUSH2 0xDD1 SWAP1 PUSH2 0x2546 JUMP JUMPDEST PUSH1 0x40 MLOAD DUP1 SWAP2 SUB SWAP1 REVERT JUMPDEST PUSH1 0x0 PUSH2 0xDE5 DUP4 PUSH2 0x63D JUMP JUMPDEST SWAP1 POP DUP1 PUSH20 0xFFFFFFFFFFFFFFFFFFFFFFFFFFFFFFFFFFFFFFFF AND DUP5 PUSH20 0xFFFFFFFFFFFFFFFFFFFFFFFFFFFFFFFFFFFFFFFF AND EQ DUP1 PUSH2 0xE54 JUMPI POP DUP4 PUSH20 0xFFFFFFFFFFFFFFFFFFFFFFFFFFFFFFFFFFFFFFFF AND PUSH2 0xE3C DUP5 PUSH2 0x39D JUMP JUMPDEST PUSH20 0xFFFFFFFFFFFFFFFFFFFFFFFFFFFFFFFFFFFFFFFF AND EQ JUMPDEST SWAP2 POP POP SWAP3 SWAP2 POP POP JUMP JUMPDEST DUP3 PUSH20 0xFFFFFFFFFFFFFFFFFFFFFFFFFFFFFFFFFFFFFFFF AND PUSH2 0xE7D DUP3 PUSH2 0x63D JUMP JUMPDEST PUSH20 0xFFFFFFFFFFFFFFFFFFFFFFFFFFFFFFFFFFFFFFFF AND EQ PUSH2 0xED3 JUMPI PUSH1 0x40 MLOAD PUSH32 0x8C379A000000000000000000000000000000000000000000000000000000000 DUP2 MSTORE PUSH1 0x4 ADD PUSH2 0xECA SWAP1 PUSH2 0x25D8 JUMP JUMPDEST PUSH1 0x40 MLOAD DUP1 SWAP2 SUB SWAP1 REVERT JUMPDEST PUSH1 0x0 PUSH20 0xFFFFFFFFFFFFFFFFFFFFFFFFFFFFFFFFFFFFFFFF AND DUP3 PUSH20 0xFFFFFFFFFFFFFFFFFFFFFFFFFFFFFFFFFFFFFFFF AND SUB PUSH2 0xF42 JUMPI PUSH1 0x40 MLOAD PUSH32 0x8C379A000000000000000000000000000000000000000000000000000000000 DUP2 MSTORE PUSH1 0x4 ADD PUSH2 0xF39 SWAP1 PUSH2 0x266A JUMP JUMPDEST PUSH1 0x40 MLOAD DUP1 SWAP2 SUB SWAP1 REVERT JUMPDEST PUSH2 0xF4D DUP4 DUP4 DUP4 PUSH2 0x1607 JUMP JUMPDEST PUSH2 0xF58 PUSH1 0x0 DUP3 PUSH2 0xCD7 JUMP JUMPDEST PUSH1 0x1 DUP1 PUSH1 0x0 DUP6 PUSH20 0xFFFFFFFFFFFFFFFFFFFFFFFFFFFFFFFFFFFFFFFF AND PUSH20 0xFFFFFFFFFFFFFFFFFFFFFFFFFFFFFFFFFFFFFFFF AND DUP2 MSTORE PUSH1 0x20 ADD SWAP1 DUP2 MSTORE PUSH1 0x20 ADD PUSH1 0x0 KECCAK256 PUSH1 0x0 DUP3 DUP3 SLOAD PUSH2 0xFA7 SWAP2 SWAP1 PUSH2 0x268A JUMP JUMPDEST SWAP3 POP POP DUP2 SWAP1 SSTORE POP PUSH1 0x1 DUP1 PUSH1 0x0 DUP5 PUSH20 0xFFFFFFFFFFFFFFFFFFFFFFFFFFFFFFFFFFFFFFFF AND PUSH20 0xFFFFFFFFFFFFFFFFFFFFFFFFFFFFFFFFFFFFFFFF AND DUP2 MSTORE PUSH1 0x20 ADD SWAP1 DUP2 MSTORE PUSH1 0x20 ADD PUSH1 0x0 KECCAK256 PUSH1 0x0 DUP3 DUP3 SLOAD PUSH2 0xFFD SWAP2 SWAP1 PUSH2 0x26BE JUMP JUMPDEST SWAP3 POP POP DUP2 SWAP1 SSTORE POP DUP2 PUSH1 0x2 PUSH1 0x0 DUP4 DUP2 MSTORE PUSH1 0x20 ADD SWAP1 DUP2 MSTORE PUSH1 0x20 ADD PUSH1 0x0 KECCAK256 PUSH1 0x0 PUSH2 0x100 EXP DUP2 SLOAD DUP2 PUSH20 0xFFFFFFFFFFFFFFFFFFFFFFFFFFFFFFFFFFFFFFFF MUL NOT AND SWAP1 DUP4 PUSH20 0xFFFFFFFFFFFFFFFFFFFFFFFFFFFFFFFFFFFFFFFF AND MUL OR SWAP1 SSTORE POP DUP1 DUP3 PUSH20 0xFFFFFFFFFFFFFFFFFFFFFFFFFFFFFFFFFFFFFFFF AND DUP5 PUSH20 0xFFFFFFFFFFFFFFFFFFFFFFFFFFFFFFFFFFFFFFFF AND PUSH32 0xDDF252AD1BE2C89B69C2B068FC378DAA952BA7F163C4A11628F55A4DF523B3EF PUSH1 0x40 MLOAD PUSH1 0x40 MLOAD DUP1 SWAP2 SUB SWAP1 LOG4 PUSH2 0x10BC DUP4 DUP4 DUP4 PUSH2 0x16AD JUMP JUMPDEST POP POP POP JUMP JUMPDEST PUSH1 0x0 DUP1 PUSH1 0x0 SWAP1 SLOAD SWAP1 PUSH2 0x100 EXP SWAP1 DIV PUSH20 0xFFFFFFFFFFFFFFFFFFFFFFFFFFFFFFFFFFFFFFFF AND SWAP1 POP DUP2 PUSH1 0x0 DUP1 PUSH2 0x100 EXP DUP2 SLOAD DUP2 PUSH20 0xFFFFFFFFFFFFFFFFFFFFFFFFFFFFFFFFFFFFFFFF MUL NOT AND SWAP1 DUP4 PUSH20 0xFFFFFFFFFFFFFFFFFFFFFFFFFFFFFFFFFFFFFFFF AND MUL OR SWAP1 SSTORE POP DUP2 PUSH20 0xFFFFFFFFFFFFFFFFFFFFFFFFFFFFFFFFFFFFFFFF AND DUP2 PUSH20 0xFFFFFFFFFFFFFFFFFFFFFFFFFFFFFFFFFFFFFFFF AND PUSH32 0x8BE0079C531659141344CD1FD0A4F28419497F9722A3DAAFE3B4186F6B6457E0 PUSH1 0x40 MLOAD PUSH1 0x40 MLOAD DUP1 SWAP2 SUB SWAP1 LOG3 POP POP JUMP JUMPDEST PUSH1 0x0 PUSH20 0xFFFFFFFFFFFFFFFFFFFFFFFFFFFFFFFFFFFFFFFF AND DUP3 PUSH20 0xFFFFFFFFFFFFFFFFFFFFFFFFFFFFFFFFFFFFFFFF AND SUB PUSH2 0x11F4 JUMPI PUSH1 0x40 MLOAD PUSH32 0x8C379A000000000000000000000000000000000000000000000000000000000 DUP2 MSTORE PUSH1 0x4 ADD PUSH2 0x11EB SWAP1 PUSH2 0x2760 JUMP JUMPDEST PUSH1 0x40 MLOAD DUP1 SWAP2 SUB SWAP1 REVERT JUMPDEST PUSH2 0x11FD DUP2 PUSH2 0xC63 JUMP JUMPDEST ISZERO PUSH2 0x123D JUMPI PUSH1 0x40 MLOAD PUSH32 0x8C379A000000000000000000000000000000000000000000000000000000000 DUP2 MSTORE PUSH1 0x4 ADD PUSH2 0x1234 SWAP1 PUSH2 0x27CC JUMP JUMPDEST PUSH1 0x40 MLOAD DUP1 SWAP2 SUB SWAP1 REVERT JUMPDEST PUSH1 0x1 DUP1 PUSH1 0x0 DUP5 PUSH20 0xFFFFFFFFFFFFFFFFFFFFFFFFFFFFFFFFFFFFFFFF AND PUSH20 0xFFFFFFFFFFFFFFFFFFFFFFFFFFFFFFFFFFFFFFFF AND DUP2 MSTORE PUSH1 0x20 ADD SWAP1 DUP2 MSTORE PUSH1 0x20 ADD PUSH1 0x0 KECCAK256 PUSH1 0x0 DUP3 DUP3 SLOAD PUSH2 0x128C SWAP2 SWAP1 PUSH2 0x26BE JUMP JUMPDEST SWAP3 POP POP DUP2 SWAP1 SSTORE POP DUP2 PUSH1 0x2 PUSH1 0x0 DUP4 DUP2 MSTORE PUSH1 0x20 ADD SWAP1 DUP2 MSTORE PUSH1 0x20 ADD PUSH1 0x0 KECCAK256 PUSH1 0x0 PUSH2 0x100 EXP DUP2 SLOAD DUP2 PUSH20 0xFFFFFFFFFFFFFFFFFFFFFFFFFFFFFFFFFFFFFFFF MUL NOT AND SWAP1 DUP4 PUSH20 0xFFFFFFFFFFFFFFFFFFFFFFFFFFFFFFFFFFFFFFFF AND MUL OR SWAP1 SSTORE POP DUP1 DUP3 PUSH20 0xFFFFFFFFFFFFFFFFFFFFFFFFFFFFFFFFFFFFFFFF AND PUSH1 0x0 PUSH20 0xFFFFFFFFFFFFFFFFFFFFFFFFFFFFFFFFFFFFFFFF AND PUSH32 0xDDF252AD1BE2C89B69C2B068FC378DAA952BA7F163C4A11628F55A4DF523B3EF PUSH1 0x40 MLOAD PUSH1 0x40 MLOAD DUP1 SWAP2 SUB SWAP1 LOG4 POP POP JUMP JUMPDEST PUSH2 0x134E DUP3 PUSH2 0xC63 JUMP JUMPDEST PUSH2 0x138D JUMPI PUSH1 0x40 MLOAD PUSH32 0x8C379A000000000000000000000000000000000000000000000000000000000 DUP2 MSTORE PUSH1 0x4 ADD PUSH2 0x1384 SWAP1 PUSH2 0x285E JUMP JUMPDEST PUSH1 0x40 MLOAD DUP1 SWAP2 SUB SWAP1 REVERT JUMPDEST DUP1 PUSH1 0xC PUSH1 0x0 DUP5 DUP2 MSTORE PUSH1 0x20 ADD SWAP1 DUP2 MSTORE PUSH1 0x20 ADD PUSH1 0x0 KECCAK256 SWAP1 DUP1 MLOAD SWAP1 PUSH1 0x20 ADD SWAP1 PUSH2 0x13B4 SWAP3 SWAP2 SWAP1 PUSH2 0x185C JUMP JUMPDEST POP POP POP JUMP JUMPDEST PUSH2 0x13C4 DUP5 DUP5 DUP5 PUSH2 0xE5D JUMP JUMPDEST PUSH2 0x13D0 DUP5 DUP5 DUP5 DUP5 PUSH2 0x16B2 JUMP JUMPDEST PUSH2 0x140F JUMPI PUSH1 0x40 MLOAD PUSH32 0x8C379A000000000000000000000000000000000000000000000000000000000 DUP2 MSTORE PUSH1 0x4 ADD PUSH2 0x1406 SWAP1 PUSH2 0x28F0 JUMP JUMPDEST PUSH1 0x40 MLOAD DUP1 SWAP2 SUB SWAP1 REVERT JUMPDEST POP POP POP POP JUMP JUMPDEST PUSH1 0x60 PUSH1 0x9 DUP1 SLOAD PUSH2 0x1424 SWAP1 PUSH2 0x1ED0 JUMP JUMPDEST DUP1 PUSH1 0x1F ADD PUSH1 0x20 DUP1 SWAP2 DIV MUL PUSH1 0x20 ADD PUSH1 0x40 MLOAD SWAP1 DUP2 ADD PUSH1 0x40 MSTORE DUP1 SWAP3 SWAP2 SWAP1 DUP2 DUP2 MSTORE PUSH1 0x20 ADD DUP3 DUP1 SLOAD PUSH2 0x1450 SWAP1 PUSH2 0x1ED0 JUMP JUMPDEST DUP1 ISZERO PUSH2 0x149D JUMPI DUP1 PUSH1 0x1F LT PUSH2 0x1472 JUMPI PUSH2 0x100 DUP1 DUP4 SLOAD DIV MUL DUP4 MSTORE SWAP2 PUSH1 0x20 ADD SWAP2 PUSH2 0x149D JUMP JUMPDEST DUP3 ADD SWAP2 SWAP1 PUSH1 0x0 MSTORE PUSH1 0x20 PUSH1 0x0 KECCAK256 SWAP1 JUMPDEST DUP2 SLOAD DUP2 MSTORE SWAP1 PUSH1 0x1 ADD SWAP1 PUSH1 0x20 ADD DUP1 DUP4 GT PUSH2 0x1480 JUMPI DUP3 SWAP1 SUB PUSH1 0x1F AND DUP3 ADD SWAP2 JUMPDEST POP POP POP POP POP SWAP1 POP SWAP1 JUMP JUMPDEST PUSH1 0x60 PUSH1 0x0 DUP3 SUB PUSH2 0x14EE JUMPI PUSH1 0x40 MLOAD DUP1 PUSH1 0x40 ADD PUSH1 0x40 MSTORE DUP1 PUSH1 0x1 DUP2 MSTORE PUSH1 0x20 ADD PUSH32 0x3000000000000000000000000000000000000000000000000000000000000000 DUP2 MSTORE POP SWAP1 POP PUSH2 0x1602 JUMP JUMPDEST PUSH1 0x0 DUP3 SWAP1 POP PUSH1 0x0 JUMPDEST PUSH1 0x0 DUP3 EQ PUSH2 0x1520 JUMPI DUP1 DUP1 PUSH2 0x1509 SWAP1 PUSH2 0x2308 JUMP JUMPDEST SWAP2 POP POP PUSH1 0xA DUP3 PUSH2 0x1519 SWAP2 SWAP1 PUSH2 0x293F JUMP JUMPDEST SWAP2 POP PUSH2 0x14F6 JUMP JUMPDEST PUSH1 0x0 DUP2 PUSH8 0xFFFFFFFFFFFFFFFF DUP2 GT ISZERO PUSH2 0x153C JUMPI PUSH2 0x153B PUSH2 0x1B56 JUMP JUMPDEST JUMPDEST PUSH1 0x40 MLOAD SWAP1 DUP1 DUP3 MSTORE DUP1 PUSH1 0x1F ADD PUSH1 0x1F NOT AND PUSH1 0x20 ADD DUP3 ADD PUSH1 0x40 MSTORE DUP1 ISZERO PUSH2 0x156E JUMPI DUP2 PUSH1 0x20 ADD PUSH1 0x1 DUP3 MUL DUP1 CALLDATASIZE DUP4 CALLDATACOPY DUP1 DUP3 ADD SWAP2 POP POP SWAP1 POP JUMPDEST POP SWAP1 POP JUMPDEST PUSH1 0x0 DUP6 EQ PUSH2 0x15FB JUMPI PUSH1 0x1 DUP3 PUSH2 0x1587 SWAP2 SWAP1 PUSH2 0x268A JUMP JUMPDEST SWAP2 POP PUSH1 0xA DUP6 PUSH2 0x1596 SWAP2 SWAP1 PUSH2 0x2970 JUMP JUMPDEST PUSH1 0x30 PUSH2 0x15A2 SWAP2 SWAP1 PUSH2 0x26BE JUMP JUMPDEST PUSH1 0xF8 SHL DUP2 DUP4 DUP2 MLOAD DUP2 LT PUSH2 0x15B8 JUMPI PUSH2 0x15B7 PUSH2 0x29A1 JUMP JUMPDEST JUMPDEST PUSH1 0x20 ADD ADD SWAP1 PUSH31 0xFFFFFFFFFFFFFFFFFFFFFFFFFFFFFFFFFFFFFFFFFFFFFFFFFFFFFFFFFFFFFF NOT AND SWAP1 DUP2 PUSH1 0x0 BYTE SWAP1 MSTORE8 POP PUSH1 0xA DUP6 PUSH2 0x15F4 SWAP2 SWAP1 PUSH2 0x293F JUMP JUMPDEST SWAP5 POP PUSH2 0x1572 JUMP JUMPDEST DUP1 SWAP4 POP POP POP POP JUMPDEST SWAP2 SWAP1 POP JUMP JUMPDEST DUP3 PUSH20 0xFFFFFFFFFFFFFFFFFFFFFFFFFFFFFFFFFFFFFFFF AND PUSH1 0x2 PUSH1 0x0 DUP4 DUP2 MSTORE PUSH1 0x20 ADD SWAP1 DUP2 MSTORE PUSH1 0x20 ADD PUSH1 0x0 KECCAK256 PUSH1 0x0 SWAP1 SLOAD SWAP1 PUSH2 0x100 EXP SWAP1 DIV PUSH20 0xFFFFFFFFFFFFFFFFFFFFFFFFFFFFFFFFFFFFFFFF AND PUSH20 0xFFFFFFFFFFFFFFFFFFFFFFFFFFFFFFFFFFFFFFFF AND EQ PUSH2 0x16A8 JUMPI PUSH1 0x40 MLOAD PUSH32 0x8C379A000000000000000000000000000000000000000000000000000000000 DUP2 MSTORE PUSH1 0x4 ADD PUSH2 0x169F SWAP1 PUSH2 0x2A1C JUMP JUMPDEST PUSH1 0x40 MLOAD DUP1 SWAP2 SUB SWAP1 REVERT JUMPDEST POP POP POP JUMP JUMPDEST POP POP POP JUMP JUMPDEST PUSH1 0x0 PUSH2 0x16D3 DUP5 PUSH20 0xFFFFFFFFFFFFFFFFFFFFFFFFFFFFFFFFFFFFFFFF AND PUSH2 0x1839 JUMP JUMPDEST ISZERO PUSH2 0x182C JUMPI DUP4 PUSH20 0xFFFFFFFFFFFFFFFFFFFFFFFFFFFFFFFFFFFFFFFF AND PUSH4 0x150B7A02 PUSH2 0x16FC PUSH2 0xCCF JUMP JUMPDEST DUP8 DUP7 DUP7 PUSH1 0x40 MLOAD DUP6 PUSH4 0xFFFFFFFF AND PUSH1 0xE0 SHL DUP2 MSTORE PUSH1 0x4 ADD PUSH2 0x171E SWAP5 SWAP4 SWAP3 SWAP2 SWAP1 PUSH2 0x2A91 JUMP JUMPDEST PUSH1 0x20 PUSH1 0x40 MLOAD DUP1 DUP4 SUB DUP2 PUSH1 0x0 DUP8 GAS CALL SWAP3 POP POP POP DUP1 ISZERO PUSH2 0x175A JUMPI POP PUSH1 0x40 MLOAD RETURNDATASIZE PUSH1 0x1F NOT PUSH1 0x1F DUP3 ADD AND DUP3 ADD DUP1 PUSH1 0x40 MSTORE POP DUP2 ADD SWAP1 PUSH2 0x1757 SWAP2 SWAP1 PUSH2 0x2B35 JUMP JUMPDEST PUSH1 0x1 JUMPDEST PUSH2 0x17DC JUMPI RETURNDATASIZE DUP1 PUSH1 0x0 DUP2 EQ PUSH2 0x178A JUMPI PUSH1 0x40 MLOAD SWAP2 POP PUSH1 0x1F NOT PUSH1 0x3F RETURNDATASIZE ADD AND DUP3 ADD PUSH1 0x40 MSTORE RETURNDATASIZE DUP3 MSTORE RETURNDATASIZE PUSH1 0x0 PUSH1 0x20 DUP5 ADD RETURNDATACOPY PUSH2 0x178F JUMP JUMPDEST PUSH1 0x60 SWAP2 POP JUMPDEST POP PUSH1 0x0 DUP2 MLOAD SUB PUSH2 0x17D4 JUMPI PUSH1 0x40 MLOAD PUSH32 0x8C379A000000000000000000000000000000000000000000000000000000000 DUP2 MSTORE PUSH1 0x4 ADD PUSH2 0x17CB SWAP1 PUSH2 0x28F0 JUMP JUMPDEST PUSH1 0x40 MLOAD DUP1 SWAP2 SUB SWAP1 REVERT JUMPDEST DUP1 MLOAD DUP2 PUSH1 0x20 ADD REVERT JUMPDEST PUSH4 0x150B7A02 PUSH1 0xE0 SHL PUSH28 0xFFFFFFFFFFFFFFFFFFFFFFFFFFFFFFFFFFFFFFFFFFFFFFFFFFFFFFFF NOT AND DUP2 PUSH28 0xFFFFFFFFFFFFFFFFFFFFFFFFFFFFFFFFFFFFFFFFFFFFFFFFFFFFFFFF NOT AND EQ SWAP2 POP POP PUSH2 0x1831 JUMP JUMPDEST PUSH1 0x1 SWAP1 POP JUMPDEST SWAP5 SWAP4 POP POP POP POP JUMP JUMPDEST PUSH1 0x0 DUP1 DUP3 PUSH20 0xFFFFFFFFFFFFFFFFFFFFFFFFFFFFFFFFFFFFFFFF AND EXTCODESIZE GT SWAP1 POP SWAP2 SWAP1 POP JUMP JUMPDEST DUP3 DUP1 SLOAD PUSH2 0x1868 SWAP1 PUSH2 0x1ED0 JUMP JUMPDEST SWAP1 PUSH1 0x0 MSTORE PUSH1 0x20 PUSH1 0x0 KECCAK256 SWAP1 PUSH1 0x1F ADD PUSH1 0x20 SWAP1 DIV DUP2 ADD SWAP3 DUP3 PUSH2 0x188A JUMPI PUSH1 0x0 DUP6 SSTORE PUSH2 0x18D1 JUMP JUMPDEST DUP3 PUSH1 0x1F LT PUSH2 0x18A3 JUMPI DUP1 MLOAD PUSH1 0xFF NOT AND DUP4 DUP1 ADD OR DUP6 SSTORE PUSH2 0x18D1 JUMP JUMPDEST DUP3 DUP1 ADD PUSH1 0x1 ADD DUP6 SSTORE DUP3 ISZERO PUSH2 0x18D1 JUMPI SWAP2 DUP3 ADD JUMPDEST DUP3 DUP2 GT ISZERO PUSH2 0x18D0 JUMPI DUP3 MLOAD DUP3 SSTORE SWAP2 PUSH1 0x20 ADD SWAP2 SWAP1 PUSH1 0x1 ADD SWAP1 PUSH2 0x18B5 JUMP JUMPDEST JUMPDEST POP SWAP1 POP PUSH2 0x18DE SWAP2 SWAP1 PUSH2 0x18E2 JUMP JUMPDEST POP SWAP1 JUMP JUMPDEST JUMPDEST DUP1 DUP3 GT ISZERO PUSH2 0x18FB JUMPI PUSH1 0x0 DUP2 PUSH1 0x0 SWAP1 SSTORE POP PUSH1 0x1 ADD PUSH2 0x18E3 JUMP JUMPDEST POP SWAP1 JUMP JUMPDEST PUSH1 0x0 DUP2 MLOAD SWAP1 POP SWAP2 SWAP1 POP JUMP JUMPDEST PUSH1 0x0 DUP3 DUP3 MSTORE PUSH1 0x20 DUP3 ADD SWAP1 POP SWAP3 SWAP2 POP POP JUMP JUMPDEST PUSH1 0x0 JUMPDEST DUP4 DUP2 LT ISZERO PUSH2 0x1939 JUMPI DUP1 DUP3 ADD MLOAD DUP2 DUP5 ADD MSTORE PUSH1 0x20 DUP2 ADD SWAP1 POP PUSH2 0x191E JUMP JUMPDEST DUP4 DUP2 GT ISZERO PUSH2 0x1948 JUMPI PUSH1 0x0 DUP5 DUP5 ADD MSTORE JUMPDEST POP POP POP POP JUMP JUMPDEST PUSH1 0x0 PUSH1 0x1F NOT PUSH1 0x1F DUP4 ADD AND SWAP1 POP SWAP2 SWAP1 POP JUMP JUMPDEST PUSH1 0x0 PUSH2 0x196A DUP3 PUSH2 0x18FF JUMP JUMPDEST PUSH2 0x1974 DUP2 DUP6 PUSH2 0x190A JUMP JUMPDEST SWAP4 POP PUSH2 0x1984 DUP2 DUP6 PUSH1 0x20 DUP7 ADD PUSH2 0x191B JUMP JUMPDEST PUSH2 0x198D DUP2 PUSH2 0x194E JUMP JUMPDEST DUP5 ADD SWAP2 POP POP SWAP3 SWAP2 POP POP JUMP JUMPDEST PUSH1 0x0 PUSH1 0x20 DUP3 ADD SWAP1 POP DUP2 DUP2 SUB PUSH1 0x0 DUP4 ADD MSTORE PUSH2 0x19B2 DUP2 DUP5 PUSH2 0x195F JUMP JUMPDEST SWAP1 POP SWAP3 SWAP2 POP POP JUMP JUMPDEST PUSH1 0x0 PUSH1 0x40 MLOAD SWAP1 POP SWAP1 JUMP JUMPDEST PUSH1 0x0 DUP1 REVERT JUMPDEST PUSH1 0x0 DUP1 REVERT JUMPDEST PUSH1 0x0 DUP2 SWAP1 POP SWAP2 SWAP1 POP JUMP JUMPDEST PUSH2 0x19E1 DUP2 PUSH2 0x19CE JUMP JUMPDEST DUP2 EQ PUSH2 0x19EC JUMPI PUSH1 0x0 DUP1 REVERT JUMPDEST POP JUMP JUMPDEST PUSH1 0x0 DUP2 CALLDATALOAD SWAP1 POP PUSH2 0x19FE DUP2 PUSH2 0x19D8 JUMP JUMPDEST SWAP3 SWAP2 POP POP JUMP JUMPDEST PUSH1 0x0 PUSH1 0x20 DUP3 DUP5 SUB SLT ISZERO PUSH2 0x1A1A JUMPI PUSH2 0x1A19 PUSH2 0x19C4 JUMP JUMPDEST JUMPDEST PUSH1 0x0 PUSH2 0x1A28 DUP5 DUP3 DUP6 ADD PUSH2 0x19EF JUMP JUMPDEST SWAP2 POP POP SWAP3 SWAP2 POP POP JUMP JUMPDEST PUSH1 0x0 PUSH20 0xFFFFFFFFFFFFFFFFFFFFFFFFFFFFFFFFFFFFFFFF DUP3 AND SWAP1 POP SWAP2 SWAP1 POP JUMP JUMPDEST PUSH1 0x0 PUSH2 0x1A5C DUP3 PUSH2 0x1A31 JUMP JUMPDEST SWAP1 POP SWAP2 SWAP1 POP JUMP JUMPDEST PUSH2 0x1A6C DUP2 PUSH2 0x1A51 JUMP JUMPDEST DUP3 MSTORE POP POP JUMP JUMPDEST PUSH1 0x0 PUSH1 0x20 DUP3 ADD SWAP1 POP PUSH2 0x1A87 PUSH1 0x0 DUP4 ADD DUP5 PUSH2 0x1A63 JUMP JUMPDEST SWAP3 SWAP2 POP POP JUMP JUMPDEST PUSH2 0x1A96 DUP2 PUSH2 0x1A51 JUMP JUMPDEST DUP2 EQ PUSH2 0x1AA1 JUMPI PUSH1 0x0 DUP1 REVERT JUMPDEST POP JUMP JUMPDEST PUSH1 0x0 DUP2 CALLDATALOAD SWAP1 POP PUSH2 0x1AB3 DUP2 PUSH2 0x1A8D JUMP JUMPDEST SWAP3 SWAP2 POP POP JUMP JUMPDEST PUSH1 0x0 DUP1 PUSH1 0x40 DUP4 DUP6 SUB SLT ISZERO PUSH2 0x1AD0 JUMPI PUSH2 0x1ACF PUSH2 0x19C4 JUMP JUMPDEST JUMPDEST PUSH1 0x0 PUSH2 0x1ADE DUP6 DUP3 DUP7 ADD PUSH2 0x1AA4 JUMP JUMPDEST SWAP3 POP POP PUSH1 0x20 PUSH2 0x1AEF DUP6 DUP3 DUP7 ADD PUSH2 0x19EF JUMP JUMPDEST SWAP2 POP POP SWAP3 POP SWAP3 SWAP1 POP JUMP JUMPDEST PUSH1 0x0 DUP1 PUSH1 0x0 PUSH1 0x60 DUP5 DUP7 SUB SLT ISZERO PUSH2 0x1B12 JUMPI PUSH2 0x1B11 PUSH2 0x19C4 JUMP JUMPDEST JUMPDEST PUSH1 0x0 PUSH2 0x1B20 DUP7 DUP3 DUP8 ADD PUSH2 0x1AA4 JUMP JUMPDEST SWAP4 POP POP PUSH1 0x20 PUSH2 0x1B31 DUP7 DUP3 DUP8 ADD PUSH2 0x1AA4 JUMP JUMPDEST SWAP3 POP POP PUSH1 0x40 PUSH2 0x1B42 DUP7 DUP3 DUP8 ADD PUSH2 0x19EF JUMP JUMPDEST SWAP2 POP POP SWAP3 POP SWAP3 POP SWAP3 JUMP JUMPDEST PUSH1 0x0 DUP1 REVERT JUMPDEST PUSH1 0x0 DUP1 REVERT JUMPDEST PUSH32 0x4E487B7100000000000000000000000000000000000000000000000000000000 PUSH1 0x0 MSTORE PUSH1 0x41 PUSH1 0x4 MSTORE PUSH1 0x24 PUSH1 0x0 REVERT JUMPDEST PUSH2 0x1B8E DUP3 PUSH2 0x194E JUMP JUMPDEST DUP2 ADD DUP2 DUP2 LT PUSH8 0xFFFFFFFFFFFFFFFF DUP3 GT OR ISZERO PUSH2 0x1BAD JUMPI PUSH2 0x1BAC PUSH2 0x1B56 JUMP JUMPDEST JUMPDEST DUP1 PUSH1 0x40 MSTORE POP POP POP JUMP JUMPDEST PUSH1 0x0 PUSH2 0x1BC0 PUSH2 0x19BA JUMP JUMPDEST SWAP1 POP PUSH2 0x1BCC DUP3 DUP3 PUSH2 0x1B85 JUMP JUMPDEST SWAP2 SWAP1 POP JUMP JUMPDEST PUSH1 0x0 PUSH8 0xFFFFFFFFFFFFFFFF DUP3 GT ISZERO PUSH2 0x1BEC JUMPI PUSH2 0x1BEB PUSH2 0x1B56 JUMP JUMPDEST JUMPDEST PUSH2 0x1BF5 DUP3 PUSH2 0x194E JUMP JUMPDEST SWAP1 POP PUSH1 0x20 DUP2 ADD SWAP1 POP SWAP2 SWAP1 POP JUMP JUMPDEST DUP3 DUP2 DUP4 CALLDATACOPY PUSH1 0x0 DUP4 DUP4 ADD MSTORE POP POP POP JUMP JUMPDEST PUSH1 0x0 PUSH2 0x1C24 PUSH2 0x1C1F DUP5 PUSH2 0x1BD1 JUMP JUMPDEST PUSH2 0x1BB6 JUMP JUMPDEST SWAP1 POP DUP3 DUP2 MSTORE PUSH1 0x20 DUP2 ADD DUP5 DUP5 DUP5 ADD GT ISZERO PUSH2 0x1C40 JUMPI PUSH2 0x1C3F PUSH2 0x1B51 JUMP JUMPDEST JUMPDEST PUSH2 0x1C4B DUP5 DUP3 DUP6 PUSH2 0x1C02 JUMP JUMPDEST POP SWAP4 SWAP3 POP POP POP JUMP JUMPDEST PUSH1 0x0 DUP3 PUSH1 0x1F DUP4 ADD SLT PUSH2 0x1C68 JUMPI PUSH2 0x1C67 PUSH2 0x1B4C JUMP JUMPDEST JUMPDEST DUP2 CALLDATALOAD PUSH2 0x1C78 DUP5 DUP3 PUSH1 0x20 DUP7 ADD PUSH2 0x1C11 JUMP JUMPDEST SWAP2 POP POP SWAP3 SWAP2 POP POP JUMP JUMPDEST PUSH1 0x0 PUSH1 0x20 DUP3 DUP5 SUB SLT ISZERO PUSH2 0x1C97 JUMPI PUSH2 0x1C96 PUSH2 0x19C4 JUMP JUMPDEST JUMPDEST PUSH1 0x0 DUP3 ADD CALLDATALOAD PUSH8 0xFFFFFFFFFFFFFFFF DUP2 GT ISZERO PUSH2 0x1CB5 JUMPI PUSH2 0x1CB4 PUSH2 0x19C9 JUMP JUMPDEST JUMPDEST PUSH2 0x1CC1 DUP5 DUP3 DUP6 ADD PUSH2 0x1C53 JUMP JUMPDEST SWAP2 POP POP SWAP3 SWAP2 POP POP JUMP JUMPDEST PUSH2 0x1CD3 DUP2 PUSH2 0x19CE JUMP JUMPDEST DUP3 MSTORE POP POP JUMP JUMPDEST PUSH1 0x0 PUSH1 0x20 DUP3 ADD SWAP1 POP PUSH2 0x1CEE PUSH1 0x0 DUP4 ADD DUP5 PUSH2 0x1CCA JUMP JUMPDEST SWAP3 SWAP2 POP POP JUMP JUMPDEST PUSH1 0x0 PUSH1 0x20 DUP3 DUP5 SUB SLT ISZERO PUSH2 0x1D0A JUMPI PUSH2 0x1D09 PUSH2 0x19C4 JUMP JUMPDEST JUMPDEST PUSH1 0x0 PUSH2 0x1D18 DUP5 DUP3 DUP6 ADD PUSH2 0x1AA4 JUMP JUMPDEST SWAP2 POP POP SWAP3 SWAP2 POP POP JUMP JUMPDEST PUSH1 0x0 DUP1 PUSH1 0x40 DUP4 DUP6 SUB SLT ISZERO PUSH2 0x1D38 JUMPI PUSH2 0x1D37 PUSH2 0x19C4 JUMP JUMPDEST JUMPDEST PUSH1 0x0 PUSH2 0x1D46 DUP6 DUP3 DUP7 ADD PUSH2 0x1AA4 JUMP JUMPDEST SWAP3 POP POP PUSH1 0x20 DUP4 ADD CALLDATALOAD PUSH8 0xFFFFFFFFFFFFFFFF DUP2 GT ISZERO PUSH2 0x1D67 JUMPI PUSH2 0x1D66 PUSH2 0x19C9 JUMP JUMPDEST JUMPDEST PUSH2 0x1D73 DUP6 DUP3 DUP7 ADD PUSH2 0x1C53 JUMP JUMPDEST SWAP2 POP POP SWAP3 POP SWAP3 SWAP1 POP JUMP JUMPDEST PUSH1 0x0 PUSH8 0xFFFFFFFFFFFFFFFF DUP3 GT ISZERO PUSH2 0x1D98 JUMPI PUSH2 0x1D97 PUSH2 0x1B56 JUMP JUMPDEST JUMPDEST PUSH2 0x1DA1 DUP3 PUSH2 0x194E JUMP JUMPDEST SWAP1 POP PUSH1 0x20 DUP2 ADD SWAP1 POP SWAP2 SWAP1 POP JUMP JUMPDEST PUSH1 0x0 PUSH2 0x1DC1 PUSH2 0x1DBC DUP5 PUSH2 0x1D7D JUMP JUMPDEST PUSH2 0x1BB6 JUMP JUMPDEST SWAP1 POP DUP3 DUP2 MSTORE PUSH1 0x20 DUP2 ADD DUP5 DUP5 DUP5 ADD GT ISZERO PUSH2 0x1DDD JUMPI PUSH2 0x1DDC PUSH2 0x1B51 JUMP JUMPDEST JUMPDEST PUSH2 0x1DE8 DUP5 DUP3 DUP6 PUSH2 0x1C02 JUMP JUMPDEST POP SWAP4 SWAP3 POP POP POP JUMP JUMPDEST PUSH1 0x0 DUP3 PUSH1 0x1F DUP4 ADD SLT PUSH2 0x1E05 JUMPI PUSH2 0x1E04 PUSH2 0x1B4C JUMP JUMPDEST JUMPDEST DUP2 CALLDATALOAD PUSH2 0x1E15 DUP5 DUP3 PUSH1 0x20 DUP7 ADD PUSH2 0x1DAE JUMP JUMPDEST SWAP2 POP POP SWAP3 SWAP2 POP POP JUMP JUMPDEST PUSH1 0x0 DUP1 PUSH1 0x0 DUP1 PUSH1 0x80 DUP6 DUP8 SUB SLT ISZERO PUSH2 0x1E38 JUMPI PUSH2 0x1E37 PUSH2 0x19C4 JUMP JUMPDEST JUMPDEST PUSH1 0x0 PUSH2 0x1E46 DUP8 DUP3 DUP9 ADD PUSH2 0x1AA4 JUMP JUMPDEST SWAP5 POP POP PUSH1 0x20 PUSH2 0x1E57 DUP8 DUP3 DUP9 ADD PUSH2 0x1AA4 JUMP JUMPDEST SWAP4 POP POP PUSH1 0x40 PUSH2 0x1E68 DUP8 DUP3 DUP9 ADD PUSH2 0x19EF JUMP JUMPDEST SWAP3 POP POP PUSH1 0x60 DUP6 ADD CALLDATALOAD PUSH8 0xFFFFFFFFFFFFFFFF DUP2 GT ISZERO PUSH2 0x1E89 JUMPI PUSH2 0x1E88 PUSH2 0x19C9 JUMP JUMPDEST JUMPDEST PUSH2 0x1E95 DUP8 DUP3 DUP9 ADD PUSH2 0x1DF0 JUMP JUMPDEST SWAP2 POP POP SWAP3 SWAP6 SWAP2 SWAP5 POP SWAP3 POP JUMP JUMPDEST PUSH32 0x4E487B7100000000000000000000000000000000000000000000000000000000 PUSH1 0x0 MSTORE PUSH1 0x22 PUSH1 0x4 MSTORE PUSH1 0x24 PUSH1 0x0 REVERT JUMPDEST PUSH1 0x0 PUSH1 0x2 DUP3 DIV SWAP1 POP PUSH1 0x1 DUP3 AND DUP1 PUSH2 0x1EE8 JUMPI PUSH1 0x7F DUP3 AND SWAP2 POP JUMPDEST PUSH1 0x20 DUP3 LT DUP2 SUB PUSH2 0x1EFB JUMPI PUSH2 0x1EFA PUSH2 0x1EA1 JUMP JUMPDEST JUMPDEST POP SWAP2 SWAP1 POP JUMP JUMPDEST PUSH32 0x4552433732313A20617070726F76656420717565727920666F72206E6F6E6578 PUSH1 0x0 DUP3 ADD MSTORE PUSH32 0x697374656E7420746F6B656E0000000000000000000000000000000000000000 PUSH1 0x20 DUP3 ADD MSTORE POP JUMP JUMPDEST PUSH1 0x0 PUSH2 0x1F5D PUSH1 0x2C DUP4 PUSH2 0x190A JUMP JUMPDEST SWAP2 POP PUSH2 0x1F68 DUP3 PUSH2 0x1F01 JUMP JUMPDEST PUSH1 0x40 DUP3 ADD SWAP1 POP SWAP2 SWAP1 POP JUMP JUMPDEST PUSH1 0x0 PUSH1 0x20 DUP3 ADD SWAP1 POP DUP2 DUP2 SUB PUSH1 0x0 DUP4 ADD MSTORE PUSH2 0x1F8C DUP2 PUSH2 0x1F50 JUMP JUMPDEST SWAP1 POP SWAP2 SWAP1 POP JUMP JUMPDEST PUSH32 0x4552433732313A20617070726F76616C20746F2063757272656E74206F776E65 PUSH1 0x0 DUP3 ADD MSTORE PUSH32 0x7200000000000000000000000000000000000000000000000000000000000000 PUSH1 0x20 DUP3 ADD MSTORE POP JUMP JUMPDEST PUSH1 0x0 PUSH2 0x1FEF PUSH1 0x21 DUP4 PUSH2 0x190A JUMP JUMPDEST SWAP2 POP PUSH2 0x1FFA DUP3 PUSH2 0x1F93 JUMP JUMPDEST PUSH1 0x40 DUP3 ADD SWAP1 POP SWAP2 SWAP1 POP JUMP JUMPDEST PUSH1 0x0 PUSH1 0x20 DUP3 ADD SWAP1 POP DUP2 DUP2 SUB PUSH1 0x0 DUP4 ADD MSTORE PUSH2 0x201E DUP2 PUSH2 0x1FE2 JUMP JUMPDEST SWAP1 POP SWAP2 SWAP1 POP JUMP JUMPDEST PUSH32 0x4552433732313A20617070726F76652063616C6C6572206973206E6F74206F77 PUSH1 0x0 DUP3 ADD MSTORE PUSH32 0x6E6572206E6F7220617070726F76656420666F7220616C6C0000000000000000 PUSH1 0x20 DUP3 ADD MSTORE POP JUMP JUMPDEST PUSH1 0x0 PUSH2 0x2081 PUSH1 0x38 DUP4 PUSH2 0x190A JUMP JUMPDEST SWAP2 POP PUSH2 0x208C DUP3 PUSH2 0x2025 JUMP JUMPDEST PUSH1 0x40 DUP3 ADD SWAP1 POP SWAP2 SWAP1 POP JUMP JUMPDEST PUSH1 0x0 PUSH1 0x20 DUP3 ADD SWAP1 POP DUP2 DUP2 SUB PUSH1 0x0 DUP4 ADD MSTORE PUSH2 0x20B0 DUP2 PUSH2 0x2074 JUMP JUMPDEST SWAP1 POP SWAP2 SWAP1 POP JUMP JUMPDEST PUSH32 0x4552433732313A207472616E736665722063616C6C6572206973206E6F74206F PUSH1 0x0 DUP3 ADD MSTORE PUSH32 0x776E6572206E6F7220617070726F766564000000000000000000000000000000 PUSH1 0x20 DUP3 ADD MSTORE POP JUMP JUMPDEST PUSH1 0x0 PUSH2 0x2113 PUSH1 0x31 DUP4 PUSH2 0x190A JUMP JUMPDEST SWAP2 POP PUSH2 0x211E DUP3 PUSH2 0x20B7 JUMP JUMPDEST PUSH1 0x40 DUP3 ADD SWAP1 POP SWAP2 SWAP1 POP JUMP JUMPDEST PUSH1 0x0 PUSH1 0x20 DUP3 ADD SWAP1 POP DUP2 DUP2 SUB PUSH1 0x0 DUP4 ADD MSTORE PUSH2 0x2142 DUP2 PUSH2 0x2106 JUMP JUMPDEST SWAP1 POP SWAP2 SWAP1 POP JUMP JUMPDEST PUSH32 0x4F776E61626C653A2063616C6C6572206973206E6F7420746865206F776E6572 PUSH1 0x0 DUP3 ADD MSTORE POP JUMP JUMPDEST PUSH1 0x0 PUSH2 0x217F PUSH1 0x20 DUP4 PUSH2 0x190A JUMP JUMPDEST SWAP2 POP PUSH2 0x218A DUP3 PUSH2 0x2149 JUMP JUMPDEST PUSH1 0x20 DUP3 ADD SWAP1 POP SWAP2 SWAP1 POP JUMP JUMPDEST PUSH1 0x0 PUSH1 0x20 DUP3 ADD SWAP1 POP DUP2 DUP2 SUB PUSH1 0x0 DUP4 ADD MSTORE PUSH2 0x21AE DUP2 PUSH2 0x2172 JUMP JUMPDEST SWAP1 POP SWAP2 SWAP1 POP JUMP JUMPDEST PUSH32 0x4552433732313A206F776E657220717565727920666F72206E6F6E6578697374 PUSH1 0x0 DUP3 ADD MSTORE PUSH32 0x656E7420746F6B656E0000000000000000000000000000000000000000000000 PUSH1 0x20 DUP3 ADD MSTORE POP JUMP JUMPDEST PUSH1 0x0 PUSH2 0x2211 PUSH1 0x29 DUP4 PUSH2 0x190A JUMP JUMPDEST SWAP2 POP PUSH2 0x221C DUP3 PUSH2 0x21B5 JUMP JUMPDEST PUSH1 0x40 DUP3 ADD SWAP1 POP SWAP2 SWAP1 POP JUMP JUMPDEST PUSH1 0x0 PUSH1 0x20 DUP3 ADD SWAP1 POP DUP2 DUP2 SUB PUSH1 0x0 DUP4 ADD MSTORE PUSH2 0x2240 DUP2 PUSH2 0x2204 JUMP JUMPDEST SWAP1 POP SWAP2 SWAP1 POP JUMP JUMPDEST PUSH32 0x4552433732313A2062616C616E636520717565727920666F7220746865207A65 PUSH1 0x0 DUP3 ADD MSTORE PUSH32 0x726F206164647265737300000000000000000000000000000000000000000000 PUSH1 0x20 DUP3 ADD MSTORE POP JUMP JUMPDEST PUSH1 0x0 PUSH2 0x22A3 PUSH1 0x2A DUP4 PUSH2 0x190A JUMP JUMPDEST SWAP2 POP PUSH2 0x22AE DUP3 PUSH2 0x2247 JUMP JUMPDEST PUSH1 0x40 DUP3 ADD SWAP1 POP SWAP2 SWAP1 POP JUMP JUMPDEST PUSH1 0x0 PUSH1 0x20 DUP3 ADD SWAP1 POP DUP2 DUP2 SUB PUSH1 0x0 DUP4 ADD MSTORE PUSH2 0x22D2 DUP2 PUSH2 0x2296 JUMP JUMPDEST SWAP1 POP SWAP2 SWAP1 POP JUMP JUMPDEST PUSH32 0x4E487B7100000000000000000000000000000000000000000000000000000000 PUSH1 0x0 MSTORE PUSH1 0x11 PUSH1 0x4 MSTORE PUSH1 0x24 PUSH1 0x0 REVERT JUMPDEST PUSH1 0x0 PUSH2 0x2313 DUP3 PUSH2 0x19CE JUMP JUMPDEST SWAP2 POP PUSH32 0xFFFFFFFFFFFFFFFFFFFFFFFFFFFFFFFFFFFFFFFFFFFFFFFFFFFFFFFFFFFFFFFF DUP3 SUB PUSH2 0x2345 JUMPI PUSH2 0x2344 PUSH2 0x22D9 JUMP JUMPDEST JUMPDEST PUSH1 0x1 DUP3 ADD SWAP1 POP SWAP2 SWAP1 POP JUMP JUMPDEST PUSH32 0x4552433732314D657461646174613A2055524920717565727920666F72206E6F PUSH1 0x0 DUP3 ADD MSTORE PUSH32 0x6E6578697374656E7420746F6B656E0000000000000000000000000000000000 PUSH1 0x20 DUP3 ADD MSTORE POP JUMP JUMPDEST PUSH1 0x0 PUSH2 0x23AC PUSH1 0x2F DUP4 PUSH2 0x190A JUMP JUMPDEST SWAP2 POP PUSH2 0x23B7 DUP3 PUSH2 0x2350 JUMP JUMPDEST PUSH1 0x40 DUP3 ADD SWAP1 POP SWAP2 SWAP1 POP JUMP JUMPDEST PUSH1 0x0 PUSH1 0x20 DUP3 ADD SWAP1 POP DUP2 DUP2 SUB PUSH1 0x0 DUP4 ADD MSTORE PUSH2 0x23DB DUP2 PUSH2 0x239F JUMP JUMPDEST SWAP1 POP SWAP2 SWAP1 POP JUMP JUMPDEST PUSH1 0x0 DUP2 SWAP1 POP SWAP3 SWAP2 POP POP JUMP JUMPDEST PUSH1 0x0 PUSH2 0x23F8 DUP3 PUSH2 0x18FF JUMP JUMPDEST PUSH2 0x2402 DUP2 DUP6 PUSH2 0x23E2 JUMP JUMPDEST SWAP4 POP PUSH2 0x2412 DUP2 DUP6 PUSH1 0x20 DUP7 ADD PUSH2 0x191B JUMP JUMPDEST DUP1 DUP5 ADD SWAP2 POP POP SWAP3 SWAP2 POP POP JUMP JUMPDEST PUSH1 0x0 PUSH2 0x242A DUP3 DUP6 PUSH2 0x23ED JUMP JUMPDEST SWAP2 POP PUSH2 0x2436 DUP3 DUP5 PUSH2 0x23ED JUMP JUMPDEST SWAP2 POP DUP2 SWAP1 POP SWAP4 SWAP3 POP POP POP JUMP JUMPDEST PUSH32 0x4F776E61626C653A206E6577206F776E657220697320746865207A65726F2061 PUSH1 0x0 DUP3 ADD MSTORE PUSH32 0x6464726573730000000000000000000000000000000000000000000000000000 PUSH1 0x20 DUP3 ADD MSTORE POP JUMP JUMPDEST PUSH1 0x0 PUSH2 0x249E PUSH1 0x26 DUP4 PUSH2 0x190A JUMP JUMPDEST SWAP2 POP PUSH2 0x24A9 DUP3 PUSH2 0x2442 JUMP JUMPDEST PUSH1 0x40 DUP3 ADD SWAP1 POP SWAP2 SWAP1 POP JUMP JUMPDEST PUSH1 0x0 PUSH1 0x20 DUP3 ADD SWAP1 POP DUP2 DUP2 SUB PUSH1 0x0 DUP4 ADD MSTORE PUSH2 0x24CD DUP2 PUSH2 0x2491 JUMP JUMPDEST SWAP1 POP SWAP2 SWAP1 POP JUMP JUMPDEST PUSH32 0x4552433732313A206F70657261746F7220717565727920666F72206E6F6E6578 PUSH1 0x0 DUP3 ADD MSTORE PUSH32 0x697374656E7420746F6B656E0000000000000000000000000000000000000000 PUSH1 0x20 DUP3 ADD MSTORE POP JUMP JUMPDEST PUSH1 0x0 PUSH2 0x2530 PUSH1 0x2C DUP4 PUSH2 0x190A JUMP JUMPDEST SWAP2 POP PUSH2 0x253B DUP3 PUSH2 0x24D4 JUMP JUMPDEST PUSH1 0x40 DUP3 ADD SWAP1 POP SWAP2 SWAP1 POP JUMP JUMPDEST PUSH1 0x0 PUSH1 0x20 DUP3 ADD SWAP1 POP DUP2 DUP2 SUB PUSH1 0x0 DUP4 ADD MSTORE PUSH2 0x255F DUP2 PUSH2 0x2523 JUMP JUMPDEST SWAP1 POP SWAP2 SWAP1 POP JUMP JUMPDEST PUSH32 0x4552433732313A207472616E736665722066726F6D20696E636F727265637420 PUSH1 0x0 DUP3 ADD MSTORE PUSH32 0x6F776E6572000000000000000000000000000000000000000000000000000000 PUSH1 0x20 DUP3 ADD MSTORE POP JUMP JUMPDEST PUSH1 0x0 PUSH2 0x25C2 PUSH1 0x25 DUP4 PUSH2 0x190A JUMP JUMPDEST SWAP2 POP PUSH2 0x25CD DUP3 PUSH2 0x2566 JUMP JUMPDEST PUSH1 0x40 DUP3 ADD SWAP1 POP SWAP2 SWAP1 POP JUMP JUMPDEST PUSH1 0x0 PUSH1 0x20 DUP3 ADD SWAP1 POP DUP2 DUP2 SUB PUSH1 0x0 DUP4 ADD MSTORE PUSH2 0x25F1 DUP2 PUSH2 0x25B5 JUMP JUMPDEST SWAP1 POP SWAP2 SWAP1 POP JUMP JUMPDEST PUSH32 0x4552433732313A207472616E7366657220746F20746865207A65726F20616464 PUSH1 0x0 DUP3 ADD MSTORE PUSH32 0x7265737300000000000000000000000000000000000000000000000000000000 PUSH1 0x20 DUP3 ADD MSTORE POP JUMP JUMPDEST PUSH1 0x0 PUSH2 0x2654 PUSH1 0x24 DUP4 PUSH2 0x190A JUMP JUMPDEST SWAP2 POP PUSH2 0x265F DUP3 PUSH2 0x25F8 JUMP JUMPDEST PUSH1 0x40 DUP3 ADD SWAP1 POP SWAP2 SWAP1 POP JUMP JUMPDEST PUSH1 0x0 PUSH1 0x20 DUP3 ADD SWAP1 POP DUP2 DUP2 SUB PUSH1 0x0 DUP4 ADD MSTORE PUSH2 0x2683 DUP2 PUSH2 0x2647 JUMP JUMPDEST SWAP1 POP SWAP2 SWAP1 POP JUMP JUMPDEST PUSH1 0x0 PUSH2 0x2695 DUP3 PUSH2 0x19CE JUMP JUMPDEST SWAP2 POP PUSH2 0x26A0 DUP4 PUSH2 0x19CE JUMP JUMPDEST SWAP3 POP DUP3 DUP3 LT ISZERO PUSH2 0x26B3 JUMPI PUSH2 0x26B2 PUSH2 0x22D9 JUMP JUMPDEST JUMPDEST DUP3 DUP3 SUB SWAP1 POP SWAP3 SWAP2 POP POP JUMP JUMPDEST PUSH1 0x0 PUSH2 0x26C9 DUP3 PUSH2 0x19CE JUMP JUMPDEST SWAP2 POP PUSH2 0x26D4 DUP4 PUSH2 0x19CE JUMP JUMPDEST SWAP3 POP DUP3 PUSH32 0xFFFFFFFFFFFFFFFFFFFFFFFFFFFFFFFFFFFFFFFFFFFFFFFFFFFFFFFFFFFFFFFF SUB DUP3 GT ISZERO PUSH2 0x2709 JUMPI PUSH2 0x2708 PUSH2 0x22D9 JUMP JUMPDEST JUMPDEST DUP3 DUP3 ADD SWAP1 POP SWAP3 SWAP2 POP POP JUMP JUMPDEST PUSH32 0x4552433732313A206D696E7420746F20746865207A65726F2061646472657373 PUSH1 0x0 DUP3 ADD MSTORE POP JUMP JUMPDEST PUSH1 0x0 PUSH2 0x274A PUSH1 0x20 DUP4 PUSH2 0x190A JUMP JUMPDEST SWAP2 POP PUSH2 0x2755 DUP3 PUSH2 0x2714 JUMP JUMPDEST PUSH1 0x20 DUP3 ADD SWAP1 POP SWAP2 SWAP1 POP JUMP JUMPDEST PUSH1 0x0 PUSH1 0x20 DUP3 ADD SWAP1 POP DUP2 DUP2 SUB PUSH1 0x0 DUP4 ADD MSTORE PUSH2 0x2779 DUP2 PUSH2 0x273D JUMP JUMPDEST SWAP1 POP SWAP2 SWAP1 POP JUMP JUMPDEST PUSH32 0x4552433732313A20746F6B656E20616C7265616479206D696E74656400000000 PUSH1 0x0 DUP3 ADD MSTORE POP JUMP JUMPDEST PUSH1 0x0 PUSH2 0x27B6 PUSH1 0x1C DUP4 PUSH2 0x190A JUMP JUMPDEST SWAP2 POP PUSH2 0x27C1 DUP3 PUSH2 0x2780 JUMP JUMPDEST PUSH1 0x20 DUP3 ADD SWAP1 POP SWAP2 SWAP1 POP JUMP JUMPDEST PUSH1 0x0 PUSH1 0x20 DUP3 ADD SWAP1 POP DUP2 DUP2 SUB PUSH1 0x0 DUP4 ADD MSTORE PUSH2 0x27E5 DUP2 PUSH2 0x27A9 JUMP JUMPDEST SWAP1 POP SWAP2 SWAP1 POP JUMP JUMPDEST PUSH32 0x4552433732314D657461646174613A2055524920736574206F66206E6F6E6578 PUSH1 0x0 DUP3 ADD MSTORE PUSH32 0x697374656E7420746F6B656E0000000000000000000000000000000000000000 PUSH1 0x20 DUP3 ADD MSTORE POP JUMP JUMPDEST PUSH1 0x0 PUSH2 0x2848 PUSH1 0x2C DUP4 PUSH2 0x190A JUMP JUMPDEST SWAP2 POP PUSH2 0x2853 DUP3 PUSH2 0x27EC JUMP JUMPDEST PUSH1 0x40 DUP3 ADD SWAP1 POP SWAP2 SWAP1 POP JUMP JUMPDEST PUSH1 0x0 PUSH1 0x20 DUP3 ADD SWAP1 POP DUP2 DUP2 SUB PUSH1 0x0 DUP4 ADD MSTORE PUSH2 0x2877 DUP2 PUSH2 0x283B JUMP JUMPDEST SWAP1 POP SWAP2 SWAP1 POP JUMP JUMPDEST PUSH32 0x4552433732313A207472616E7366657220746F206E6F6E204552433732315265 PUSH1 0x0 DUP3 ADD MSTORE PUSH32 0x63656976657220696D706C656D656E7465720000000000000000000000000000 PUSH1 0x20 DUP3 ADD MSTORE POP JUMP JUMPDEST PUSH1 0x0 PUSH2 0x28DA PUSH1 0x32 DUP4 PUSH2 0x190A JUMP JUMPDEST SWAP2 POP PUSH2 0x28E5 DUP3 PUSH2 0x287E JUMP JUMPDEST PUSH1 0x40 DUP3 ADD SWAP1 POP SWAP2 SWAP1 POP JUMP JUMPDEST PUSH1 0x0 PUSH1 0x20 DUP3 ADD SWAP1 POP DUP2 DUP2 SUB PUSH1 0x0 DUP4 ADD MSTORE PUSH2 0x2909 DUP2 PUSH2 0x28CD JUMP JUMPDEST SWAP1 POP SWAP2 SWAP1 POP JUMP JUMPDEST PUSH32 0x4E487B7100000000000000000000000000000000000000000000000000000000 PUSH1 0x0 MSTORE PUSH1 0x12 PUSH1 0x4 MSTORE PUSH1 0x24 PUSH1 0x0 REVERT JUMPDEST PUSH1 0x0 PUSH2 0x294A DUP3 PUSH2 0x19CE JUMP JUMPDEST SWAP2 POP PUSH2 0x2955 DUP4 PUSH2 0x19CE JUMP JUMPDEST SWAP3 POP DUP3 PUSH2 0x2965 JUMPI PUSH2 0x2964 PUSH2 0x2910 JUMP JUMPDEST JUMPDEST DUP3 DUP3 DIV SWAP1 POP SWAP3 SWAP2 POP POP JUMP JUMPDEST PUSH1 0x0 PUSH2 0x297B DUP3 PUSH2 0x19CE JUMP JUMPDEST SWAP2 POP PUSH2 0x2986 DUP4 PUSH2 0x19CE JUMP JUMPDEST SWAP3 POP DUP3 PUSH2 0x2996 JUMPI PUSH2 0x2995 PUSH2 0x2910 JUMP JUMPDEST JUMPDEST DUP3 DUP3 MOD SWAP1 POP SWAP3 SWAP2 POP POP JUMP JUMPDEST PUSH32 0x4E487B7100000000000000000000000000000000000000000000000000000000 PUSH1 0x0 MSTORE PUSH1 0x32 PUSH1 0x4 MSTORE PUSH1 0x24 PUSH1 0x0 REVERT JUMPDEST PUSH32 0x4552433732313A207472616E73666572206E6F74206F776E657220746F6B656E PUSH1 0x0 DUP3 ADD MSTORE POP JUMP JUMPDEST PUSH1 0x0 PUSH2 0x2A06 PUSH1 0x20 DUP4 PUSH2 0x190A JUMP JUMPDEST SWAP2 POP PUSH2 0x2A11 DUP3 PUSH2 0x29D0 JUMP JUMPDEST PUSH1 0x20 DUP3 ADD SWAP1 POP SWAP2 SWAP1 POP JUMP JUMPDEST PUSH1 0x0 PUSH1 0x20 DUP3 ADD SWAP1 POP DUP2 DUP2 SUB PUSH1 0x0 DUP4 ADD MSTORE PUSH2 0x2A35 DUP2 PUSH2 0x29F9 JUMP JUMPDEST SWAP1 POP SWAP2 SWAP1 POP JUMP JUMPDEST PUSH1 0x0 DUP2 MLOAD SWAP1 POP SWAP2 SWAP1 POP JUMP JUMPDEST PUSH1 0x0 DUP3 DUP3 MSTORE PUSH1 0x20 DUP3 ADD SWAP1 POP SWAP3 SWAP2 POP POP JUMP JUMPDEST PUSH1 0x0 PUSH2 0x2A63 DUP3 PUSH2 0x2A3C JUMP JUMPDEST PUSH2 0x2A6D DUP2 DUP6 PUSH2 0x2A47 JUMP JUMPDEST SWAP4 POP PUSH2 0x2A7D DUP2 DUP6 PUSH1 0x20 DUP7 ADD PUSH2 0x191B JUMP JUMPDEST PUSH2 0x2A86 DUP2 PUSH2 0x194E JUMP JUMPDEST DUP5 ADD SWAP2 POP POP SWAP3 SWAP2 POP POP JUMP JUMPDEST PUSH1 0x0 PUSH1 0x80 DUP3 ADD SWAP1 POP PUSH2 0x2AA6 PUSH1 0x0 DUP4 ADD DUP8 PUSH2 0x1A63 JUMP JUMPDEST PUSH2 0x2AB3 PUSH1 0x20 DUP4 ADD DUP7 PUSH2 0x1A63 JUMP JUMPDEST PUSH2 0x2AC0 PUSH1 0x40 DUP4 ADD DUP6 PUSH2 0x1CCA JUMP JUMPDEST DUP2 DUP2 SUB PUSH1 0x60 DUP4 ADD MSTORE PUSH2 0x2AD2 DUP2 DUP5 PUSH2 0x2A58 JUMP JUMPDEST SWAP1 POP SWAP6 SWAP5 POP POP POP POP POP JUMP JUMPDEST PUSH1 0x0 PUSH32 0xFFFFFFFF00000000000000000000000000000000000000000000000000000000 DUP3 AND SWAP1 POP SWAP2 SWAP1 POP JUMP JUMPDEST PUSH2 0x2B12 DUP2 PUSH2 0x2ADD JUMP JUMPDEST DUP2 EQ PUSH2 0x2B1D JUMPI PUSH1 0x0 DUP1 REVERT JUMPDEST POP JUMP JUMPDEST PUSH1 0x0 DUP2 MLOAD SWAP1 POP PUSH2 0x2B2F DUP2 PUSH2 0x2B09 JUMP JUMPDEST SWAP3 SWAP2 POP POP JUMP JUMPDEST PUSH1 0x0 PUSH1 0x20 DUP3 DUP5 SUB SLT ISZERO PUSH2 0x2B4B JUMPI PUSH2 0x2B4A PUSH2 0x19C4 JUMP JUMPDEST JUMPDEST PUSH1 0x0 PUSH2 0x2B59 DUP5 DUP3 DUP6 ADD PUSH2 0x2B20 JUMP JUMPDEST SWAP2 POP POP SWAP3 SWAP2 POP POP JUMP INVALID LOG2 PUSH5 0x6970667358 0x22 SLT KECCAK256 SWAP9 PUSH18 0x2787A6969A4F2381538CFE4C911BD9ADFA5A PUSH27 0x18ED515D47B7B31D2EAFBF64736F6C634300080D00330000000000 "
				},
				"gasEstimates": {
					"creation": {
						"codeDepositCost": "2232000",
						"executionCost": "infinite",
						"totalCost": "infinite"
					},
					"external": {
						"approve(address,uint256)": "infinite",
						"balanceOf(address)": "2899",
						"getApproved(uint256)": "5206",
						"name()": "infinite",
						"newItem(address,string)": "infinite",
						"nextId()": "2496",
						"owner()": "2611",
						"ownerOf(uint256)": "3063",
						"renounceOwnership()": "30419",
						"safeTransferFrom(address,address,uint256)": "infinite",
						"safeTransferFrom(address,address,uint256,bytes)": "infinite",
						"setBaseURI(string)": "infinite",
						"symbol()": "infinite",
						"tokenURI(uint256)": "infinite",
						"transferFrom(address,address,uint256)": "infinite",
						"transferOwnership(address)": "30808"
					},
					"internal": {
						"_baseURI()": "infinite",
						"_setTokenURI(uint256,string memory)": "infinite"
					}
				},
				"methodIdentifiers": {
					"approve(address,uint256)": "095ea7b3",
					"balanceOf(address)": "70a08231",
					"getApproved(uint256)": "081812fc",
					"name()": "06fdde03",
					"newItem(address,string)": "89f05761",
					"nextId()": "61b8ce8c",
					"owner()": "8da5cb5b",
					"ownerOf(uint256)": "6352211e",
					"renounceOwnership()": "715018a6",
					"safeTransferFrom(address,address,uint256)": "42842e0e",
					"safeTransferFrom(address,address,uint256,bytes)": "b88d4fde",
					"setBaseURI(string)": "55f804b3",
					"symbol()": "95d89b41",
					"tokenURI(uint256)": "c87b56dd",
					"transferFrom(address,address,uint256)": "23b872dd",
					"transferOwnership(address)": "f2fde38b"
				}
			},
			"storageLayout": {
				"storage": [
					{
						"astId": 516,
						"contract": "contracts/NFT_Demo/NFT.sol:SQFItem",
						"label": "_owner",
						"offset": 0,
						"slot": "0",
						"type": "t_address"
					},
					{
						"astId": 731,
						"contract": "contracts/NFT_Demo/NFT.sol:SQFItem",
						"label": "_balances",
						"offset": 0,
						"slot": "1",
						"type": "t_mapping(t_address,t_uint256)"
					},
					{
						"astId": 735,
						"contract": "contracts/NFT_Demo/NFT.sol:SQFItem",
						"label": "_owners",
						"offset": 0,
						"slot": "2",
						"type": "t_mapping(t_uint256,t_address)"
					},
					{
						"astId": 739,
						"contract": "contracts/NFT_Demo/NFT.sol:SQFItem",
						"label": "_tokenURIs",
						"offset": 0,
						"slot": "3",
						"type": "t_mapping(t_uint256,t_address)"
					},
					{
						"astId": 743,
						"contract": "contracts/NFT_Demo/NFT.sol:SQFItem",
						"label": "_tokenApprovals",
						"offset": 0,
						"slot": "4",
						"type": "t_mapping(t_uint256,t_address)"
					},
					{
						"astId": 749,
						"contract": "contracts/NFT_Demo/NFT.sol:SQFItem",
						"label": "_operatorApprovals",
						"offset": 0,
						"slot": "5",
						"type": "t_mapping(t_address,t_mapping(t_address,t_bool))"
					},
					{
						"astId": 751,
						"contract": "contracts/NFT_Demo/NFT.sol:SQFItem",
						"label": "_name",
						"offset": 0,
						"slot": "6",
						"type": "t_string_storage"
					},
					{
						"astId": 753,
						"contract": "contracts/NFT_Demo/NFT.sol:SQFItem",
						"label": "_symbol",
						"offset": 0,
						"slot": "7",
						"type": "t_string_storage"
					},
					{
						"astId": 755,
						"contract": "contracts/NFT_Demo/NFT.sol:SQFItem",
						"label": "_tokenURIBase",
						"offset": 0,
						"slot": "8",
						"type": "t_string_storage"
					},
					{
						"astId": 1474,
						"contract": "contracts/NFT_Demo/NFT.sol:SQFItem",
						"label": "_baseURIextended",
						"offset": 0,
						"slot": "9",
						"type": "t_string_storage"
					},
					{
						"astId": 1477,
						"contract": "contracts/NFT_Demo/NFT.sol:SQFItem",
						"label": "nextId",
						"offset": 0,
						"slot": "10",
						"type": "t_uint256"
					},
					{
						"astId": 1481,
						"contract": "contracts/NFT_Demo/NFT.sol:SQFItem",
						"label": "weapons",
						"offset": 0,
						"slot": "11",
						"type": "t_mapping(t_uint256,t_address)"
					},
					{
						"astId": 1485,
						"contract": "contracts/NFT_Demo/NFT.sol:SQFItem",
						"label": "_tokenURIs",
						"offset": 0,
						"slot": "12",
						"type": "t_mapping(t_uint256,t_string_storage)"
					}
				],
				"types": {
					"t_address": {
						"encoding": "inplace",
						"label": "address",
						"numberOfBytes": "20"
					},
					"t_bool": {
						"encoding": "inplace",
						"label": "bool",
						"numberOfBytes": "1"
					},
					"t_mapping(t_address,t_bool)": {
						"encoding": "mapping",
						"key": "t_address",
						"label": "mapping(address => bool)",
						"numberOfBytes": "32",
						"value": "t_bool"
					},
					"t_mapping(t_address,t_mapping(t_address,t_bool))": {
						"encoding": "mapping",
						"key": "t_address",
						"label": "mapping(address => mapping(address => bool))",
						"numberOfBytes": "32",
						"value": "t_mapping(t_address,t_bool)"
					},
					"t_mapping(t_address,t_uint256)": {
						"encoding": "mapping",
						"key": "t_address",
						"label": "mapping(address => uint256)",
						"numberOfBytes": "32",
						"value": "t_uint256"
					},
					"t_mapping(t_uint256,t_address)": {
						"encoding": "mapping",
						"key": "t_uint256",
						"label": "mapping(uint256 => address)",
						"numberOfBytes": "32",
						"value": "t_address"
					},
					"t_mapping(t_uint256,t_string_storage)": {
						"encoding": "mapping",
						"key": "t_uint256",
						"label": "mapping(uint256 => string)",
						"numberOfBytes": "32",
						"value": "t_string_storage"
					},
					"t_string_storage": {
						"encoding": "bytes",
						"label": "string",
						"numberOfBytes": "32"
					},
					"t_uint256": {
						"encoding": "inplace",
						"label": "uint256",
						"numberOfBytes": "32"
					}
				}
			},
			"userdoc": {
				"kind": "user",
				"methods": {},
				"version": 1
			}
		}
	}
}