{
	"contracts/SQFITEM/SQFI_Factory.sol": {
		"ParagonFactory": {
			"abi": [
				{
					"inputs": [
						{
							"internalType": "address",
							"name": "_sqfi",
							"type": "address"
						},
						{
							"internalType": "address",
							"name": "_fee1",
							"type": "address"
						}
					],
					"stateMutability": "nonpayable",
					"type": "constructor"
				},
				{
					"anonymous": false,
					"inputs": [
						{
							"indexed": false,
							"internalType": "address",
							"name": "owner",
							"type": "address"
						},
						{
							"indexed": false,
							"internalType": "uint256",
							"name": "tokenId",
							"type": "uint256"
						},
						{
							"indexed": false,
							"internalType": "address",
							"name": "fee1",
							"type": "address"
						},
						{
							"indexed": false,
							"internalType": "uint256",
							"name": "amount1",
							"type": "uint256"
						}
					],
					"name": "CraftSQFI",
					"type": "event"
				},
				{
					"anonymous": false,
					"inputs": [
						{
							"indexed": false,
							"internalType": "address",
							"name": "currency",
							"type": "address"
						},
						{
							"indexed": false,
							"internalType": "uint256",
							"name": "amount",
							"type": "uint256"
						},
						{
							"indexed": false,
							"internalType": "bool",
							"name": "enable",
							"type": "bool"
						}
					],
					"name": "FeeChange",
					"type": "event"
				},
				{
					"anonymous": false,
					"inputs": [
						{
							"indexed": false,
							"internalType": "address",
							"name": "account",
							"type": "address"
						}
					],
					"name": "Paused",
					"type": "event"
				},
				{
					"anonymous": false,
					"inputs": [
						{
							"indexed": true,
							"internalType": "bytes32",
							"name": "role",
							"type": "bytes32"
						},
						{
							"indexed": true,
							"internalType": "bytes32",
							"name": "previousAdminRole",
							"type": "bytes32"
						},
						{
							"indexed": true,
							"internalType": "bytes32",
							"name": "newAdminRole",
							"type": "bytes32"
						}
					],
					"name": "RoleAdminChanged",
					"type": "event"
				},
				{
					"anonymous": false,
					"inputs": [
						{
							"indexed": true,
							"internalType": "bytes32",
							"name": "role",
							"type": "bytes32"
						},
						{
							"indexed": true,
							"internalType": "address",
							"name": "account",
							"type": "address"
						},
						{
							"indexed": true,
							"internalType": "address",
							"name": "sender",
							"type": "address"
						}
					],
					"name": "RoleGranted",
					"type": "event"
				},
				{
					"anonymous": false,
					"inputs": [
						{
							"indexed": true,
							"internalType": "bytes32",
							"name": "role",
							"type": "bytes32"
						},
						{
							"indexed": true,
							"internalType": "address",
							"name": "account",
							"type": "address"
						},
						{
							"indexed": true,
							"internalType": "address",
							"name": "sender",
							"type": "address"
						}
					],
					"name": "RoleRevoked",
					"type": "event"
				},
				{
					"anonymous": false,
					"inputs": [
						{
							"indexed": false,
							"internalType": "uint256",
							"name": "tokenId",
							"type": "uint256"
						}
					],
					"name": "UncraftSQFI",
					"type": "event"
				},
				{
					"anonymous": false,
					"inputs": [
						{
							"indexed": false,
							"internalType": "address",
							"name": "account",
							"type": "address"
						}
					],
					"name": "Unpaused",
					"type": "event"
				},
				{
					"inputs": [],
					"name": "DEFAULT_ADMIN_ROLE",
					"outputs": [
						{
							"internalType": "bytes32",
							"name": "",
							"type": "bytes32"
						}
					],
					"stateMutability": "view",
					"type": "function"
				},
				{
					"inputs": [],
					"name": "PAUSER_ROLE",
					"outputs": [
						{
							"internalType": "bytes32",
							"name": "",
							"type": "bytes32"
						}
					],
					"stateMutability": "view",
					"type": "function"
				},
				{
					"inputs": [],
					"name": "SQFi",
					"outputs": [
						{
							"internalType": "contract ISQFItem",
							"name": "",
							"type": "address"
						}
					],
					"stateMutability": "view",
					"type": "function"
				},
				{
					"inputs": [],
					"name": "amount1",
					"outputs": [
						{
							"internalType": "uint256",
							"name": "",
							"type": "uint256"
						}
					],
					"stateMutability": "view",
					"type": "function"
				},
				{
					"inputs": [
						{
							"internalType": "bytes32",
							"name": "data",
							"type": "bytes32"
						}
					],
					"name": "bytes32ToAmount16",
					"outputs": [
						{
							"internalType": "uint256[16]",
							"name": "amount",
							"type": "uint256[16]"
						}
					],
					"stateMutability": "pure",
					"type": "function"
				},
				{
					"inputs": [
						{
							"internalType": "string",
							"name": "tokenURI_",
							"type": "string"
						}
					],
					"name": "createSQFI",
					"outputs": [
						{
							"internalType": "uint256",
							"name": "",
							"type": "uint256"
						}
					],
					"stateMutability": "nonpayable",
					"type": "function"
				},
				{
					"inputs": [
						{
							"internalType": "uint256",
							"name": "_min",
							"type": "uint256"
						},
						{
							"internalType": "uint256",
							"name": "_max",
							"type": "uint256"
						}
					],
					"name": "editSQFI",
					"outputs": [],
					"stateMutability": "nonpayable",
					"type": "function"
				},
				{
					"inputs": [
						{
							"internalType": "address",
							"name": "_fee1",
							"type": "address"
						},
						{
							"internalType": "uint256",
							"name": "_amount1",
							"type": "uint256"
						}
					],
					"name": "editSupportedFee",
					"outputs": [],
					"stateMutability": "nonpayable",
					"type": "function"
				},
				{
					"inputs": [
						{
							"internalType": "uint256",
							"name": "percent",
							"type": "uint256"
						}
					],
					"name": "editUncraftBurnPercent",
					"outputs": [],
					"stateMutability": "nonpayable",
					"type": "function"
				},
				{
					"inputs": [],
					"name": "fee1",
					"outputs": [
						{
							"internalType": "address",
							"name": "",
							"type": "address"
						}
					],
					"stateMutability": "view",
					"type": "function"
				},
				{
					"inputs": [
						{
							"internalType": "bytes32",
							"name": "role",
							"type": "bytes32"
						}
					],
					"name": "getRoleAdmin",
					"outputs": [
						{
							"internalType": "bytes32",
							"name": "",
							"type": "bytes32"
						}
					],
					"stateMutability": "view",
					"type": "function"
				},
				{
					"inputs": [
						{
							"internalType": "bytes32",
							"name": "role",
							"type": "bytes32"
						},
						{
							"internalType": "address",
							"name": "account",
							"type": "address"
						}
					],
					"name": "grantRole",
					"outputs": [],
					"stateMutability": "nonpayable",
					"type": "function"
				},
				{
					"inputs": [
						{
							"internalType": "bytes32",
							"name": "role",
							"type": "bytes32"
						},
						{
							"internalType": "address",
							"name": "account",
							"type": "address"
						}
					],
					"name": "hasRole",
					"outputs": [
						{
							"internalType": "bool",
							"name": "",
							"type": "bool"
						}
					],
					"stateMutability": "view",
					"type": "function"
				},
				{
					"inputs": [],
					"name": "maxSQFI",
					"outputs": [
						{
							"internalType": "uint256",
							"name": "",
							"type": "uint256"
						}
					],
					"stateMutability": "view",
					"type": "function"
				},
				{
					"inputs": [],
					"name": "minSQFI",
					"outputs": [
						{
							"internalType": "uint256",
							"name": "",
							"type": "uint256"
						}
					],
					"stateMutability": "view",
					"type": "function"
				},
				{
					"inputs": [],
					"name": "paused",
					"outputs": [
						{
							"internalType": "bool",
							"name": "",
							"type": "bool"
						}
					],
					"stateMutability": "view",
					"type": "function"
				},
				{
					"inputs": [
						{
							"internalType": "bytes32",
							"name": "role",
							"type": "bytes32"
						},
						{
							"internalType": "address",
							"name": "account",
							"type": "address"
						}
					],
					"name": "renounceRole",
					"outputs": [],
					"stateMutability": "nonpayable",
					"type": "function"
				},
				{
					"inputs": [
						{
							"internalType": "bytes32",
							"name": "role",
							"type": "bytes32"
						},
						{
							"internalType": "address",
							"name": "account",
							"type": "address"
						}
					],
					"name": "revokeRole",
					"outputs": [],
					"stateMutability": "nonpayable",
					"type": "function"
				},
				{
					"inputs": [
						{
							"internalType": "uint256",
							"name": "",
							"type": "uint256"
						}
					],
					"name": "runePower",
					"outputs": [
						{
							"internalType": "uint256",
							"name": "",
							"type": "uint256"
						}
					],
					"stateMutability": "view",
					"type": "function"
				},
				{
					"inputs": [
						{
							"internalType": "bytes4",
							"name": "interfaceId",
							"type": "bytes4"
						}
					],
					"name": "supportsInterface",
					"outputs": [
						{
							"internalType": "bool",
							"name": "",
							"type": "bool"
						}
					],
					"stateMutability": "view",
					"type": "function"
				},
				{
					"inputs": [
						{
							"internalType": "uint256",
							"name": "tokenId",
							"type": "uint256"
						}
					],
					"name": "uncraft",
					"outputs": [],
					"stateMutability": "nonpayable",
					"type": "function"
				},
				{
					"inputs": [],
					"name": "uncraftBurnPercent",
					"outputs": [
						{
							"internalType": "uint256",
							"name": "",
							"type": "uint256"
						}
					],
					"stateMutability": "view",
					"type": "function"
				},
				{
					"inputs": [
						{
							"internalType": "address",
							"name": "token",
							"type": "address"
						},
						{
							"internalType": "uint256",
							"name": "amount",
							"type": "uint256"
						}
					],
					"name": "withdraw",
					"outputs": [],
					"stateMutability": "nonpayable",
					"type": "function"
				}
			],
			"devdoc": {
				"kind": "dev",
				"methods": {
					"getRoleAdmin(bytes32)": {
						"details": "Returns the admin role that controls `role`. See {grantRole} and {revokeRole}. To change a role's admin, use {_setRoleAdmin}."
					},
					"grantRole(bytes32,address)": {
						"details": "Grants `role` to `account`. If `account` had not been already granted `role`, emits a {RoleGranted} event. Requirements: - the caller must have ``role``'s admin role."
					},
					"hasRole(bytes32,address)": {
						"details": "Returns `true` if `account` has been granted `role`."
					},
					"paused()": {
						"details": "Returns true if the contract is paused, and false otherwise."
					},
					"renounceRole(bytes32,address)": {
						"details": "Revokes `role` from the calling account. Roles are often managed via {grantRole} and {revokeRole}: this function's purpose is to provide a mechanism for accounts to lose their privileges if they are compromised (such as when a trusted device is misplaced). If the calling account had been granted `role`, emits a {RoleRevoked} event. Requirements: - the caller must be `account`."
					},
					"revokeRole(bytes32,address)": {
						"details": "Revokes `role` from `account`. If `account` had been granted `role`, emits a {RoleRevoked} event. Requirements: - the caller must have ``role``'s admin role."
					},
					"supportsInterface(bytes4)": {
						"details": "See {IERC165-supportsInterface}."
					}
				},
				"version": 1
			},
			"evm": {
				"assembly": "    /* \"contracts/SQFITEM/SQFI_Factory.sol\":292:4739  contract ParagonFactory is Pausable, AccessControl {... */\n  mstore(0x40, 0x80)\n    /* \"contracts/SQFITEM/SQFI_Factory.sol\":599:601  10 */\n  0x0a\n    /* \"contracts/SQFITEM/SQFI_Factory.sol\":563:601  uint256 public uncraftBurnPercent = 10 */\n  0x03\n  sstore\n    /* \"contracts/SQFITEM/SQFI_Factory.sol\":632:635  200 */\n  0xc8\n    /* \"contracts/SQFITEM/SQFI_Factory.sol\":607:635  uint256 public minSQFI = 200 */\n  0x04\n  sstore\n    /* \"contracts/SQFITEM/SQFI_Factory.sol\":666:670  2000 */\n  0x07d0\n    /* \"contracts/SQFITEM/SQFI_Factory.sol\":641:670  uint256 public maxSQFI = 2000 */\n  0x05\n  sstore\n    /* \"contracts/SQFITEM/SQFI_Factory.sol\":676:882  uint256[16] public runePower = [... */\n  mload(0x40)\n  dup1\n  0x0180\n  add\n  0x40\n  mstore\n  dup1\n    /* \"contracts/SQFITEM/SQFI_Factory.sol\":717:718  1 */\n  0x01\n    /* \"contracts/SQFITEM/SQFI_Factory.sol\":676:882  uint256[16] public runePower = [... */\n  0xffffff\n  and\n  dup2\n  mstore\n  0x20\n  add\n    /* \"contracts/SQFITEM/SQFI_Factory.sol\":728:730  15 */\n  0x0f\n    /* \"contracts/SQFITEM/SQFI_Factory.sol\":676:882  uint256[16] public runePower = [... */\n  0xffffff\n  and\n  dup2\n  mstore\n  0x20\n  add\n    /* \"contracts/SQFITEM/SQFI_Factory.sol\":740:742  50 */\n  0x32\n    /* \"contracts/SQFITEM/SQFI_Factory.sol\":676:882  uint256[16] public runePower = [... */\n  0xffffff\n  and\n  dup2\n  mstore\n  0x20\n  add\n    /* \"contracts/SQFITEM/SQFI_Factory.sol\":752:755  180 */\n  0xb4\n    /* \"contracts/SQFITEM/SQFI_Factory.sol\":676:882  uint256[16] public runePower = [... */\n  0xffffff\n  and\n  dup2\n  mstore\n  0x20\n  add\n    /* \"contracts/SQFITEM/SQFI_Factory.sol\":765:768  630 */\n  0x0276\n    /* \"contracts/SQFITEM/SQFI_Factory.sol\":676:882  uint256[16] public runePower = [... */\n  0xffffff\n  and\n  dup2\n  mstore\n  0x20\n  add\n    /* \"contracts/SQFITEM/SQFI_Factory.sol\":778:782  2200 */\n  0x0898\n    /* \"contracts/SQFITEM/SQFI_Factory.sol\":676:882  uint256[16] public runePower = [... */\n  0xffffff\n  and\n  dup2\n  mstore\n  0x20\n  add\n    /* \"contracts/SQFITEM/SQFI_Factory.sol\":792:796  7800 */\n  0x1e78\n    /* \"contracts/SQFITEM/SQFI_Factory.sol\":676:882  uint256[16] public runePower = [... */\n  0xffffff\n  and\n  dup2\n  mstore\n  0x20\n  add\n    /* \"contracts/SQFITEM/SQFI_Factory.sol\":806:811  28220 */\n  0x6e3c\n    /* \"contracts/SQFITEM/SQFI_Factory.sol\":676:882  uint256[16] public runePower = [... */\n  0xffffff\n  and\n  dup2\n  mstore\n  0x20\n  add\n    /* \"contracts/SQFITEM/SQFI_Factory.sol\":821:827  105800 */\n  0x019d48\n    /* \"contracts/SQFITEM/SQFI_Factory.sol\":676:882  uint256[16] public runePower = [... */\n  0xffffff\n  and\n  dup2\n  mstore\n  0x20\n  add\n    /* \"contracts/SQFITEM/SQFI_Factory.sol\":837:843  259200 */\n  0x03f480\n    /* \"contracts/SQFITEM/SQFI_Factory.sol\":676:882  uint256[16] public runePower = [... */\n  0xffffff\n  and\n  dup2\n  mstore\n  0x20\n  add\n    /* \"contracts/SQFITEM/SQFI_Factory.sol\":853:859  665000 */\n  0x0a25a8\n    /* \"contracts/SQFITEM/SQFI_Factory.sol\":676:882  uint256[16] public runePower = [... */\n  0xffffff\n  and\n  dup2\n  mstore\n  0x20\n  add\n    /* \"contracts/SQFITEM/SQFI_Factory.sol\":869:876  2200000 */\n  0x2191c0\n    /* \"contracts/SQFITEM/SQFI_Factory.sol\":676:882  uint256[16] public runePower = [... */\n  0xffffff\n  and\n  dup2\n  mstore\n  pop\n  0x06\n  swap1\n  0x0c\n  tag_1\n  swap3\n  swap2\n  swap1\n  tag_2\n  jump\t// in\ntag_1:\n  pop\n    /* \"contracts/SQFITEM/SQFI_Factory.sol\":967:973  100e18 */\n  0x056bc75e2d63100000\n    /* \"contracts/SQFITEM/SQFI_Factory.sol\":942:973  uint256 public amount1 = 100e18 */\n  0x17\n  sstore\n    /* \"contracts/SQFITEM/SQFI_Factory.sol\":1317:1709  constructor(... */\n  callvalue\n  dup1\n  iszero\n  tag_3\n  jumpi\n  0x00\n  dup1\n  revert\ntag_3:\n  pop\n  mload(0x40)\n  sub(codesize, bytecodeSize)\n  dup1\n  bytecodeSize\n  dup4\n  codecopy\n  dup2\n  dup2\n  add\n  0x40\n  mstore\n  dup2\n  add\n  swap1\n  tag_4\n  swap2\n  swap1\n  tag_5\n  jump\t// in\ntag_4:\n    /* \"contracts/SQFITEM/Pausable.sol\":927:932  false */\n  0x00\n    /* \"contracts/SQFITEM/Pausable.sol\":917:924  _paused */\n  dup1\n  0x00\n    /* \"contracts/SQFITEM/Pausable.sol\":917:932  _paused = false */\n  0x0100\n  exp\n  dup2\n  sload\n  dup2\n  0xff\n  mul\n  not\n  and\n  swap1\n  dup4\n  iszero\n  iszero\n  mul\n  or\n  swap1\n  sstore\n  pop\n    /* \"contracts/SQFITEM/SQFI_Factory.sol\":1552:1557  _sqfi */\n  dup2\n    /* \"contracts/SQFITEM/SQFI_Factory.sol\":1536:1540  SQFi */\n  0x02\n  0x00\n    /* \"contracts/SQFITEM/SQFI_Factory.sol\":1536:1558  SQFi = ISQFItem(_sqfi) */\n  0x0100\n  exp\n  dup2\n  sload\n  dup2\n  0xffffffffffffffffffffffffffffffffffffffff\n  mul\n  not\n  and\n  swap1\n  dup4\n  0xffffffffffffffffffffffffffffffffffffffff\n  and\n  mul\n  or\n  swap1\n  sstore\n  pop\n    /* \"contracts/SQFITEM/SQFI_Factory.sol\":1575:1580  _fee1 */\n  dup1\n    /* \"contracts/SQFITEM/SQFI_Factory.sol\":1568:1572  fee1 */\n  0x16\n  0x00\n    /* \"contracts/SQFITEM/SQFI_Factory.sol\":1568:1580  fee1 = _fee1 */\n  0x0100\n  exp\n  dup2\n  sload\n  dup2\n  0xffffffffffffffffffffffffffffffffffffffff\n  mul\n  not\n  and\n  swap1\n  dup4\n  0xffffffffffffffffffffffffffffffffffffffff\n  and\n  mul\n  or\n  swap1\n  sstore\n  pop\n    /* \"contracts/SQFITEM/SQFI_Factory.sol\":1615:1657  _setupRole(DEFAULT_ADMIN_ROLE, msg.sender) */\n  tag_10\n    /* \"contracts/SQFITEM/AccessControl.sol\":1962:1966  0x00 */\n  0x00\n    /* \"contracts/SQFITEM/SQFI_Factory.sol\":1626:1644  DEFAULT_ADMIN_ROLE */\n  dup1\n  shl\n    /* \"contracts/SQFITEM/SQFI_Factory.sol\":1646:1656  msg.sender */\n  caller\n    /* \"contracts/SQFITEM/SQFI_Factory.sol\":1615:1625  _setupRole */\n  shl(0x20, tag_11)\n    /* \"contracts/SQFITEM/SQFI_Factory.sol\":1615:1657  _setupRole(DEFAULT_ADMIN_ROLE, msg.sender) */\n  0x20\n  shr\n  jump\t// in\ntag_10:\n    /* \"contracts/SQFITEM/SQFI_Factory.sol\":1667:1702  _setupRole(PAUSER_ROLE, msg.sender) */\n  tag_12\n    /* \"contracts/SQFITEM/SQFI_Factory.sol\":533:557  keccak256(\"PAUSER_ROLE\") */\n  0x65d7a28e3265b37a6474929f336521b332c1681b933f6cb9f3376673440d862a\n    /* \"contracts/SQFITEM/SQFI_Factory.sol\":1691:1701  msg.sender */\n  caller\n    /* \"contracts/SQFITEM/SQFI_Factory.sol\":1667:1677  _setupRole */\n  shl(0x20, tag_11)\n    /* \"contracts/SQFITEM/SQFI_Factory.sol\":1667:1702  _setupRole(PAUSER_ROLE, msg.sender) */\n  0x20\n  shr\n  jump\t// in\ntag_12:\n    /* \"contracts/SQFITEM/SQFI_Factory.sol\":1317:1709  constructor(... */\n  pop\n  pop\n    /* \"contracts/SQFITEM/SQFI_Factory.sol\":292:4739  contract ParagonFactory is Pausable, AccessControl {... */\n  jump(tag_13)\n    /* \"contracts/SQFITEM/AccessControl.sol\":6049:6159  function _setupRole(bytes32 role, address account) internal virtual {... */\ntag_11:\n    /* \"contracts/SQFITEM/AccessControl.sol\":6127:6152  _grantRole(role, account) */\n  tag_15\n    /* \"contracts/SQFITEM/AccessControl.sol\":6138:6142  role */\n  dup3\n    /* \"contracts/SQFITEM/AccessControl.sol\":6144:6151  account */\n  dup3\n    /* \"contracts/SQFITEM/AccessControl.sol\":6127:6137  _grantRole */\n  shl(0x20, tag_16)\n    /* \"contracts/SQFITEM/AccessControl.sol\":6127:6152  _grantRole(role, account) */\n  0x20\n  shr\n  jump\t// in\ntag_15:\n    /* \"contracts/SQFITEM/AccessControl.sol\":6049:6159  function _setupRole(bytes32 role, address account) internal virtual {... */\n  pop\n  pop\n  jump\t// out\n    /* \"contracts/SQFITEM/AccessControl.sol\":6537:6761  function _grantRole(bytes32 role, address account) private {... */\ntag_16:\n    /* \"contracts/SQFITEM/AccessControl.sol\":6611:6633  hasRole(role, account) */\n  tag_18\n    /* \"contracts/SQFITEM/AccessControl.sol\":6619:6623  role */\n  dup3\n    /* \"contracts/SQFITEM/AccessControl.sol\":6625:6632  account */\n  dup3\n    /* \"contracts/SQFITEM/AccessControl.sol\":6611:6618  hasRole */\n  shl(0x20, tag_19)\n    /* \"contracts/SQFITEM/AccessControl.sol\":6611:6633  hasRole(role, account) */\n  0x20\n  shr\n  jump\t// in\ntag_18:\n    /* \"contracts/SQFITEM/AccessControl.sol\":6606:6755  if (!hasRole(role, account)) {... */\n  tag_20\n  jumpi\n    /* \"contracts/SQFITEM/AccessControl.sol\":6681:6685  true */\n  0x01\n    /* \"contracts/SQFITEM/AccessControl.sol\":6649:6655  _roles */\n  dup1\n    /* \"contracts/SQFITEM/AccessControl.sol\":6649:6661  _roles[role] */\n  0x00\n    /* \"contracts/SQFITEM/AccessControl.sol\":6656:6660  role */\n  dup5\n    /* \"contracts/SQFITEM/AccessControl.sol\":6649:6661  _roles[role] */\n  dup2\n  mstore\n  0x20\n  add\n  swap1\n  dup2\n  mstore\n  0x20\n  add\n  0x00\n  keccak256\n    /* \"contracts/SQFITEM/AccessControl.sol\":6649:6669  _roles[role].members */\n  0x00\n  add\n    /* \"contracts/SQFITEM/AccessControl.sol\":6649:6678  _roles[role].members[account] */\n  0x00\n    /* \"contracts/SQFITEM/AccessControl.sol\":6670:6677  account */\n  dup4\n    /* \"contracts/SQFITEM/AccessControl.sol\":6649:6678  _roles[role].members[account] */\n  0xffffffffffffffffffffffffffffffffffffffff\n  and\n  0xffffffffffffffffffffffffffffffffffffffff\n  and\n  dup2\n  mstore\n  0x20\n  add\n  swap1\n  dup2\n  mstore\n  0x20\n  add\n  0x00\n  keccak256\n  0x00\n    /* \"contracts/SQFITEM/AccessControl.sol\":6649:6685  _roles[role].members[account] = true */\n  0x0100\n  exp\n  dup2\n  sload\n  dup2\n  0xff\n  mul\n  not\n  and\n  swap1\n  dup4\n  iszero\n  iszero\n  mul\n  or\n  swap1\n  sstore\n  pop\n    /* \"contracts/SQFITEM/AccessControl.sol\":6731:6743  _msgSender() */\n  tag_21\n    /* \"contracts/SQFITEM/AccessControl.sol\":6731:6741  _msgSender */\n  shl(0x20, tag_22)\n    /* \"contracts/SQFITEM/AccessControl.sol\":6731:6743  _msgSender() */\n  0x20\n  shr\n  jump\t// in\ntag_21:\n    /* \"contracts/SQFITEM/AccessControl.sol\":6704:6744  RoleGranted(role, account, _msgSender()) */\n  0xffffffffffffffffffffffffffffffffffffffff\n  and\n    /* \"contracts/SQFITEM/AccessControl.sol\":6722:6729  account */\n  dup2\n    /* \"contracts/SQFITEM/AccessControl.sol\":6704:6744  RoleGranted(role, account, _msgSender()) */\n  0xffffffffffffffffffffffffffffffffffffffff\n  and\n    /* \"contracts/SQFITEM/AccessControl.sol\":6716:6720  role */\n  dup4\n    /* \"contracts/SQFITEM/AccessControl.sol\":6704:6744  RoleGranted(role, account, _msgSender()) */\n  0x2f8788117e7eff1d82e926ec794901d17c78024a50270940304540a733656f0d\n  mload(0x40)\n  mload(0x40)\n  dup1\n  swap2\n  sub\n  swap1\n  log4\n    /* \"contracts/SQFITEM/AccessControl.sol\":6606:6755  if (!hasRole(role, account)) {... */\ntag_20:\n    /* \"contracts/SQFITEM/AccessControl.sol\":6537:6761  function _grantRole(bytes32 role, address account) private {... */\n  pop\n  pop\n  jump\t// out\n    /* \"contracts/SQFITEM/AccessControl.sol\":2799:2936  function hasRole(bytes32 role, address account) public view override returns (bool) {... */\ntag_19:\n    /* \"contracts/SQFITEM/AccessControl.sol\":2877:2881  bool */\n  0x00\n    /* \"contracts/SQFITEM/AccessControl.sol\":2900:2906  _roles */\n  0x01\n    /* \"contracts/SQFITEM/AccessControl.sol\":2900:2912  _roles[role] */\n  0x00\n    /* \"contracts/SQFITEM/AccessControl.sol\":2907:2911  role */\n  dup5\n    /* \"contracts/SQFITEM/AccessControl.sol\":2900:2912  _roles[role] */\n  dup2\n  mstore\n  0x20\n  add\n  swap1\n  dup2\n  mstore\n  0x20\n  add\n  0x00\n  keccak256\n    /* \"contracts/SQFITEM/AccessControl.sol\":2900:2920  _roles[role].members */\n  0x00\n  add\n    /* \"contracts/SQFITEM/AccessControl.sol\":2900:2929  _roles[role].members[account] */\n  0x00\n    /* \"contracts/SQFITEM/AccessControl.sol\":2921:2928  account */\n  dup4\n    /* \"contracts/SQFITEM/AccessControl.sol\":2900:2929  _roles[role].members[account] */\n  0xffffffffffffffffffffffffffffffffffffffff\n  and\n  0xffffffffffffffffffffffffffffffffffffffff\n  and\n  dup2\n  mstore\n  0x20\n  add\n  swap1\n  dup2\n  mstore\n  0x20\n  add\n  0x00\n  keccak256\n  0x00\n  swap1\n  sload\n  swap1\n  0x0100\n  exp\n  swap1\n  div\n  0xff\n  and\n    /* \"contracts/SQFITEM/AccessControl.sol\":2893:2929  return _roles[role].members[account] */\n  swap1\n  pop\n    /* \"contracts/SQFITEM/AccessControl.sol\":2799:2936  function hasRole(bytes32 role, address account) public view override returns (bool) {... */\n  swap3\n  swap2\n  pop\n  pop\n  jump\t// out\n    /* \"contracts/SQFITEM/Context.sol\":587:683  function _msgSender() internal view virtual returns (address) {... */\ntag_22:\n    /* \"contracts/SQFITEM/Context.sol\":640:647  address */\n  0x00\n    /* \"contracts/SQFITEM/Context.sol\":666:676  msg.sender */\n  caller\n    /* \"contracts/SQFITEM/Context.sol\":659:676  return msg.sender */\n  swap1\n  pop\n    /* \"contracts/SQFITEM/Context.sol\":587:683  function _msgSender() internal view virtual returns (address) {... */\n  swap1\n  jump\t// out\n    /* \"contracts/SQFITEM/SQFI_Factory.sol\":292:4739  contract ParagonFactory is Pausable, AccessControl {... */\ntag_2:\n  dup3\n  0x10\n  dup2\n  add\n  swap3\n  dup3\n  iszero\n  tag_25\n  jumpi\n  swap2\n  0x20\n  mul\n  dup3\n  add\ntag_26:\n  dup3\n  dup2\n  gt\n  iszero\n  tag_27\n  jumpi\n  dup3\n  mload\n  dup3\n  swap1\n  0xffffff\n  and\n  swap1\n  sstore\n  swap2\n  0x20\n  add\n  swap2\n  swap1\n  0x01\n  add\n  swap1\n  jump(tag_26)\ntag_27:\ntag_25:\n  pop\n  swap1\n  pop\n  tag_28\n  swap2\n  swap1\n  tag_29\n  jump\t// in\ntag_28:\n  pop\n  swap1\n  jump\t// out\ntag_29:\ntag_30:\n  dup1\n  dup3\n  gt\n  iszero\n  tag_31\n  jumpi\n  0x00\n  dup2\n  0x00\n  swap1\n  sstore\n  pop\n  0x01\n  add\n  jump(tag_30)\ntag_31:\n  pop\n  swap1\n  jump\t// out\n    /* \"#utility.yul\":88:205   */\ntag_33:\n    /* \"#utility.yul\":197:198   */\n  0x00\n    /* \"#utility.yul\":194:195   */\n  dup1\n    /* \"#utility.yul\":187:199   */\n  revert\n    /* \"#utility.yul\":334:460   */\ntag_35:\n    /* \"#utility.yul\":371:378   */\n  0x00\n    /* \"#utility.yul\":411:453   */\n  0xffffffffffffffffffffffffffffffffffffffff\n    /* \"#utility.yul\":404:409   */\n  dup3\n    /* \"#utility.yul\":400:454   */\n  and\n    /* \"#utility.yul\":389:454   */\n  swap1\n  pop\n    /* \"#utility.yul\":334:460   */\n  swap2\n  swap1\n  pop\n  jump\t// out\n    /* \"#utility.yul\":466:562   */\ntag_36:\n    /* \"#utility.yul\":503:510   */\n  0x00\n    /* \"#utility.yul\":532:556   */\n  tag_45\n    /* \"#utility.yul\":550:555   */\n  dup3\n    /* \"#utility.yul\":532:556   */\n  tag_35\n  jump\t// in\ntag_45:\n    /* \"#utility.yul\":521:556   */\n  swap1\n  pop\n    /* \"#utility.yul\":466:562   */\n  swap2\n  swap1\n  pop\n  jump\t// out\n    /* \"#utility.yul\":568:690   */\ntag_37:\n    /* \"#utility.yul\":641:665   */\n  tag_47\n    /* \"#utility.yul\":659:664   */\n  dup2\n    /* \"#utility.yul\":641:665   */\n  tag_36\n  jump\t// in\ntag_47:\n    /* \"#utility.yul\":634:639   */\n  dup2\n    /* \"#utility.yul\":631:666   */\n  eq\n    /* \"#utility.yul\":621:684   */\n  tag_48\n  jumpi\n    /* \"#utility.yul\":680:681   */\n  0x00\n    /* \"#utility.yul\":677:678   */\n  dup1\n    /* \"#utility.yul\":670:682   */\n  revert\n    /* \"#utility.yul\":621:684   */\ntag_48:\n    /* \"#utility.yul\":568:690   */\n  pop\n  jump\t// out\n    /* \"#utility.yul\":696:839   */\ntag_38:\n    /* \"#utility.yul\":753:758   */\n  0x00\n    /* \"#utility.yul\":784:790   */\n  dup2\n    /* \"#utility.yul\":778:791   */\n  mload\n    /* \"#utility.yul\":769:791   */\n  swap1\n  pop\n    /* \"#utility.yul\":800:833   */\n  tag_50\n    /* \"#utility.yul\":827:832   */\n  dup2\n    /* \"#utility.yul\":800:833   */\n  tag_37\n  jump\t// in\ntag_50:\n    /* \"#utility.yul\":696:839   */\n  swap3\n  swap2\n  pop\n  pop\n  jump\t// out\n    /* \"#utility.yul\":845:1352   */\ntag_5:\n    /* \"#utility.yul\":924:930   */\n  0x00\n    /* \"#utility.yul\":932:938   */\n  dup1\n    /* \"#utility.yul\":981:983   */\n  0x40\n    /* \"#utility.yul\":969:978   */\n  dup4\n    /* \"#utility.yul\":960:967   */\n  dup6\n    /* \"#utility.yul\":956:979   */\n  sub\n    /* \"#utility.yul\":952:984   */\n  slt\n    /* \"#utility.yul\":949:1068   */\n  iszero\n  tag_52\n  jumpi\n    /* \"#utility.yul\":987:1066   */\n  tag_53\n  tag_33\n  jump\t// in\ntag_53:\n    /* \"#utility.yul\":949:1068   */\ntag_52:\n    /* \"#utility.yul\":1107:1108   */\n  0x00\n    /* \"#utility.yul\":1132:1196   */\n  tag_54\n    /* \"#utility.yul\":1188:1195   */\n  dup6\n    /* \"#utility.yul\":1179:1185   */\n  dup3\n    /* \"#utility.yul\":1168:1177   */\n  dup7\n    /* \"#utility.yul\":1164:1186   */\n  add\n    /* \"#utility.yul\":1132:1196   */\n  tag_38\n  jump\t// in\ntag_54:\n    /* \"#utility.yul\":1122:1196   */\n  swap3\n  pop\n    /* \"#utility.yul\":1078:1206   */\n  pop\n    /* \"#utility.yul\":1245:1247   */\n  0x20\n    /* \"#utility.yul\":1271:1335   */\n  tag_55\n    /* \"#utility.yul\":1327:1334   */\n  dup6\n    /* \"#utility.yul\":1318:1324   */\n  dup3\n    /* \"#utility.yul\":1307:1316   */\n  dup7\n    /* \"#utility.yul\":1303:1325   */\n  add\n    /* \"#utility.yul\":1271:1335   */\n  tag_38\n  jump\t// in\ntag_55:\n    /* \"#utility.yul\":1261:1335   */\n  swap2\n  pop\n    /* \"#utility.yul\":1216:1345   */\n  pop\n    /* \"#utility.yul\":845:1352   */\n  swap3\n  pop\n  swap3\n  swap1\n  pop\n  jump\t// out\n    /* \"contracts/SQFITEM/SQFI_Factory.sol\":292:4739  contract ParagonFactory is Pausable, AccessControl {... */\ntag_13:\n  dataSize(sub_0)\n  dup1\n  dataOffset(sub_0)\n  0x00\n  codecopy\n  0x00\n  return\nstop\n\nsub_0: assembly {\n        /* \"contracts/SQFITEM/SQFI_Factory.sol\":292:4739  contract ParagonFactory is Pausable, AccessControl {... */\n      mstore(0x40, 0x80)\n      callvalue\n      dup1\n      iszero\n      tag_1\n      jumpi\n      0x00\n      dup1\n      revert\n    tag_1:\n      pop\n      jumpi(tag_2, lt(calldatasize, 0x04))\n      shr(0xe0, calldataload(0x00))\n      dup1\n      0x841acc5d\n      gt\n      tag_26\n      jumpi\n      dup1\n      0xd547741f\n      gt\n      tag_27\n      jumpi\n      dup1\n      0xd547741f\n      eq\n      tag_20\n      jumpi\n      dup1\n      0xdd23faf3\n      eq\n      tag_21\n      jumpi\n      dup1\n      0xe63ab1e9\n      eq\n      tag_22\n      jumpi\n      dup1\n      0xeb47536a\n      eq\n      tag_23\n      jumpi\n      dup1\n      0xf3fef3a3\n      eq\n      tag_24\n      jumpi\n      dup1\n      0xf400fde4\n      eq\n      tag_25\n      jumpi\n      jump(tag_2)\n    tag_27:\n      dup1\n      0x841acc5d\n      eq\n      tag_14\n      jumpi\n      dup1\n      0x91d14854\n      eq\n      tag_15\n      jumpi\n      dup1\n      0x945099bc\n      eq\n      tag_16\n      jumpi\n      dup1\n      0xa217fddf\n      eq\n      tag_17\n      jumpi\n      dup1\n      0xac6b182d\n      eq\n      tag_18\n      jumpi\n      dup1\n      0xc6098256\n      eq\n      tag_19\n      jumpi\n      jump(tag_2)\n    tag_26:\n      dup1\n      0x2f2ff15d\n      gt\n      tag_28\n      jumpi\n      dup1\n      0x2f2ff15d\n      eq\n      tag_8\n      jumpi\n      dup1\n      0x36568abe\n      eq\n      tag_9\n      jumpi\n      dup1\n      0x51d64e64\n      eq\n      tag_10\n      jumpi\n      dup1\n      0x52c6159f\n      eq\n      tag_11\n      jumpi\n      dup1\n      0x5c975abb\n      eq\n      tag_12\n      jumpi\n      dup1\n      0x683b0ee5\n      eq\n      tag_13\n      jumpi\n      jump(tag_2)\n    tag_28:\n      dup1\n      0x01ffc9a7\n      eq\n      tag_3\n      jumpi\n      dup1\n      0x09c9985c\n      eq\n      tag_4\n      jumpi\n      dup1\n      0x0a1ac657\n      eq\n      tag_5\n      jumpi\n      dup1\n      0x13e6b93b\n      eq\n      tag_6\n      jumpi\n      dup1\n      0x248a9ca3\n      eq\n      tag_7\n      jumpi\n    tag_2:\n      0x00\n      dup1\n      revert\n        /* \"contracts/SQFITEM/AccessControl.sol\":2510:2712  function supportsInterface(bytes4 interfaceId) public view virtual override returns (bool) {... */\n    tag_3:\n      tag_29\n      0x04\n      dup1\n      calldatasize\n      sub\n      dup2\n      add\n      swap1\n      tag_30\n      swap2\n      swap1\n      tag_31\n      jump\t// in\n    tag_30:\n      tag_32\n      jump\t// in\n    tag_29:\n      mload(0x40)\n      tag_33\n      swap2\n      swap1\n      tag_34\n      jump\t// in\n    tag_33:\n      mload(0x40)\n      dup1\n      swap2\n      sub\n      swap1\n      return\n        /* \"contracts/SQFITEM/SQFI_Factory.sol\":563:601  uint256 public uncraftBurnPercent = 10 */\n    tag_4:\n      tag_35\n      tag_36\n      jump\t// in\n    tag_35:\n      mload(0x40)\n      tag_37\n      swap2\n      swap1\n      tag_38\n      jump\t// in\n    tag_37:\n      mload(0x40)\n      dup1\n      swap2\n      sub\n      swap1\n      return\n        /* \"contracts/SQFITEM/SQFI_Factory.sol\":4316:4449  function uncraft(... */\n    tag_5:\n      tag_39\n      0x04\n      dup1\n      calldatasize\n      sub\n      dup2\n      add\n      swap1\n      tag_40\n      swap2\n      swap1\n      tag_41\n      jump\t// in\n    tag_40:\n      tag_42\n      jump\t// in\n    tag_39:\n      stop\n        /* \"contracts/SQFITEM/SQFI_Factory.sol\":641:670  uint256 public maxSQFI = 2000 */\n    tag_6:\n      tag_43\n      tag_44\n      jump\t// in\n    tag_43:\n      mload(0x40)\n      tag_45\n      swap2\n      swap1\n      tag_38\n      jump\t// in\n    tag_45:\n      mload(0x40)\n      dup1\n      swap2\n      sub\n      swap1\n      return\n        /* \"contracts/SQFITEM/AccessControl.sol\":3882:4003  function getRoleAdmin(bytes32 role) public view override returns (bytes32) {... */\n    tag_7:\n      tag_46\n      0x04\n      dup1\n      calldatasize\n      sub\n      dup2\n      add\n      swap1\n      tag_47\n      swap2\n      swap1\n      tag_48\n      jump\t// in\n    tag_47:\n      tag_49\n      jump\t// in\n    tag_46:\n      mload(0x40)\n      tag_50\n      swap2\n      swap1\n      tag_51\n      jump\t// in\n    tag_50:\n      mload(0x40)\n      dup1\n      swap2\n      sub\n      swap1\n      return\n        /* \"contracts/SQFITEM/AccessControl.sol\":4253:4398  function grantRole(bytes32 role, address account) public virtual override onlyRole(getRoleAdmin(role)) {... */\n    tag_8:\n      tag_52\n      0x04\n      dup1\n      calldatasize\n      sub\n      dup2\n      add\n      swap1\n      tag_53\n      swap2\n      swap1\n      tag_54\n      jump\t// in\n    tag_53:\n      tag_55\n      jump\t// in\n    tag_52:\n      stop\n        /* \"contracts/SQFITEM/AccessControl.sol\":5270:5484  function renounceRole(bytes32 role, address account) public virtual override {... */\n    tag_9:\n      tag_56\n      0x04\n      dup1\n      calldatasize\n      sub\n      dup2\n      add\n      swap1\n      tag_57\n      swap2\n      swap1\n      tag_54\n      jump\t// in\n    tag_57:\n      tag_58\n      jump\t// in\n    tag_56:\n      stop\n        /* \"contracts/SQFITEM/SQFI_Factory.sol\":1715:1872  function editSQFI(uint256 _min, uint256 _max)... */\n    tag_10:\n      tag_59\n      0x04\n      dup1\n      calldatasize\n      sub\n      dup2\n      add\n      swap1\n      tag_60\n      swap2\n      swap1\n      tag_61\n      jump\t// in\n    tag_60:\n      tag_62\n      jump\t// in\n    tag_59:\n      stop\n        /* \"contracts/SQFITEM/SQFI_Factory.sol\":413:433  ISQFItem public SQFi */\n    tag_11:\n      tag_63\n      tag_64\n      jump\t// in\n    tag_63:\n      mload(0x40)\n      tag_65\n      swap2\n      swap1\n      tag_66\n      jump\t// in\n    tag_65:\n      mload(0x40)\n      dup1\n      swap2\n      sub\n      swap1\n      return\n        /* \"contracts/SQFITEM/Pausable.sol\":1034:1118  function paused() public view virtual returns (bool) {... */\n    tag_12:\n      tag_67\n      tag_68\n      jump\t// in\n    tag_67:\n      mload(0x40)\n      tag_69\n      swap2\n      swap1\n      tag_34\n      jump\t// in\n    tag_69:\n      mload(0x40)\n      dup1\n      swap2\n      sub\n      swap1\n      return\n        /* \"contracts/SQFITEM/SQFI_Factory.sol\":607:635  uint256 public minSQFI = 200 */\n    tag_13:\n      tag_70\n      tag_71\n      jump\t// in\n    tag_70:\n      mload(0x40)\n      tag_72\n      swap2\n      swap1\n      tag_38\n      jump\t// in\n    tag_72:\n      mload(0x40)\n      dup1\n      swap2\n      sub\n      swap1\n      return\n        /* \"contracts/SQFITEM/SQFI_Factory.sol\":2868:4243  function createSQFI(... */\n    tag_14:\n      tag_73\n      0x04\n      dup1\n      calldatasize\n      sub\n      dup2\n      add\n      swap1\n      tag_74\n      swap2\n      swap1\n      tag_75\n      jump\t// in\n    tag_74:\n      tag_76\n      jump\t// in\n    tag_73:\n      mload(0x40)\n      tag_77\n      swap2\n      swap1\n      tag_38\n      jump\t// in\n    tag_77:\n      mload(0x40)\n      dup1\n      swap2\n      sub\n      swap1\n      return\n        /* \"contracts/SQFITEM/AccessControl.sol\":2799:2936  function hasRole(bytes32 role, address account) public view override returns (bool) {... */\n    tag_15:\n      tag_78\n      0x04\n      dup1\n      calldatasize\n      sub\n      dup2\n      add\n      swap1\n      tag_79\n      swap2\n      swap1\n      tag_54\n      jump\t// in\n    tag_79:\n      tag_80\n      jump\t// in\n    tag_78:\n      mload(0x40)\n      tag_81\n      swap2\n      swap1\n      tag_34\n      jump\t// in\n    tag_81:\n      mload(0x40)\n      dup1\n      swap2\n      sub\n      swap1\n      return\n        /* \"contracts/SQFITEM/SQFI_Factory.sol\":2578:2862  function editSupportedFee(... */\n    tag_16:\n      tag_82\n      0x04\n      dup1\n      calldatasize\n      sub\n      dup2\n      add\n      swap1\n      tag_83\n      swap2\n      swap1\n      tag_84\n      jump\t// in\n    tag_83:\n      tag_85\n      jump\t// in\n    tag_82:\n      stop\n        /* \"contracts/SQFITEM/AccessControl.sol\":1917:1966  bytes32 public constant DEFAULT_ADMIN_ROLE = 0x00 */\n    tag_17:\n      tag_86\n      tag_87\n      jump\t// in\n    tag_86:\n      mload(0x40)\n      tag_88\n      swap2\n      swap1\n      tag_51\n      jump\t// in\n    tag_88:\n      mload(0x40)\n      dup1\n      swap2\n      sub\n      swap1\n      return\n        /* \"contracts/SQFITEM/SQFI_Factory.sol\":676:882  uint256[16] public runePower = [... */\n    tag_18:\n      tag_89\n      0x04\n      dup1\n      calldatasize\n      sub\n      dup2\n      add\n      swap1\n      tag_90\n      swap2\n      swap1\n      tag_41\n      jump\t// in\n    tag_90:\n      tag_91\n      jump\t// in\n    tag_89:\n      mload(0x40)\n      tag_92\n      swap2\n      swap1\n      tag_38\n      jump\t// in\n    tag_92:\n      mload(0x40)\n      dup1\n      swap2\n      sub\n      swap1\n      return\n        /* \"contracts/SQFITEM/SQFI_Factory.sol\":889:908  address public fee1 */\n    tag_19:\n      tag_93\n      tag_94\n      jump\t// in\n    tag_93:\n      mload(0x40)\n      tag_95\n      swap2\n      swap1\n      tag_96\n      jump\t// in\n    tag_95:\n      mload(0x40)\n      dup1\n      swap2\n      sub\n      swap1\n      return\n        /* \"contracts/SQFITEM/AccessControl.sol\":4632:4779  function revokeRole(bytes32 role, address account) public virtual override onlyRole(getRoleAdmin(role)) {... */\n    tag_20:\n      tag_97\n      0x04\n      dup1\n      calldatasize\n      sub\n      dup2\n      add\n      swap1\n      tag_98\n      swap2\n      swap1\n      tag_54\n      jump\t// in\n    tag_98:\n      tag_99\n      jump\t// in\n    tag_97:\n      stop\n        /* \"contracts/SQFITEM/SQFI_Factory.sol\":2092:2403  function bytes32ToAmount16(bytes32 data)... */\n    tag_21:\n      tag_100\n      0x04\n      dup1\n      calldatasize\n      sub\n      dup2\n      add\n      swap1\n      tag_101\n      swap2\n      swap1\n      tag_48\n      jump\t// in\n    tag_101:\n      tag_102\n      jump\t// in\n    tag_100:\n      mload(0x40)\n      tag_103\n      swap2\n      swap1\n      tag_104\n      jump\t// in\n    tag_103:\n      mload(0x40)\n      dup1\n      swap2\n      sub\n      swap1\n      return\n        /* \"contracts/SQFITEM/SQFI_Factory.sol\":495:557  bytes32 public constant PAUSER_ROLE = keccak256(\"PAUSER_ROLE\") */\n    tag_22:\n      tag_105\n      tag_106\n      jump\t// in\n    tag_105:\n      mload(0x40)\n      tag_107\n      swap2\n      swap1\n      tag_51\n      jump\t// in\n    tag_107:\n      mload(0x40)\n      dup1\n      swap2\n      sub\n      swap1\n      return\n        /* \"contracts/SQFITEM/SQFI_Factory.sol\":1878:2086  function editUncraftBurnPercent(uint256 percent)... */\n    tag_23:\n      tag_108\n      0x04\n      dup1\n      calldatasize\n      sub\n      dup2\n      add\n      swap1\n      tag_109\n      swap2\n      swap1\n      tag_41\n      jump\t// in\n    tag_109:\n      tag_110\n      jump\t// in\n    tag_108:\n      stop\n        /* \"contracts/SQFITEM/SQFI_Factory.sol\":4455:4737  function withdraw(address token, uint256 amount)... */\n    tag_24:\n      tag_111\n      0x04\n      dup1\n      calldatasize\n      sub\n      dup2\n      add\n      swap1\n      tag_112\n      swap2\n      swap1\n      tag_84\n      jump\t// in\n    tag_112:\n      tag_113\n      jump\t// in\n    tag_111:\n      stop\n        /* \"contracts/SQFITEM/SQFI_Factory.sol\":942:973  uint256 public amount1 = 100e18 */\n    tag_25:\n      tag_114\n      tag_115\n      jump\t// in\n    tag_114:\n      mload(0x40)\n      tag_116\n      swap2\n      swap1\n      tag_38\n      jump\t// in\n    tag_116:\n      mload(0x40)\n      dup1\n      swap2\n      sub\n      swap1\n      return\n        /* \"contracts/SQFITEM/AccessControl.sol\":2510:2712  function supportsInterface(bytes4 interfaceId) public view virtual override returns (bool) {... */\n    tag_32:\n        /* \"contracts/SQFITEM/AccessControl.sol\":2595:2599  bool */\n      0x00\n        /* \"contracts/SQFITEM/AccessControl.sol\":2633:2665  type(IAccessControl).interfaceId */\n      0x7965db0b00000000000000000000000000000000000000000000000000000000\n        /* \"contracts/SQFITEM/AccessControl.sol\":2618:2665  interfaceId == type(IAccessControl).interfaceId */\n      not(0xffffffffffffffffffffffffffffffffffffffffffffffffffffffff)\n      and\n        /* \"contracts/SQFITEM/AccessControl.sol\":2618:2629  interfaceId */\n      dup3\n        /* \"contracts/SQFITEM/AccessControl.sol\":2618:2665  interfaceId == type(IAccessControl).interfaceId */\n      not(0xffffffffffffffffffffffffffffffffffffffffffffffffffffffff)\n      and\n      eq\n        /* \"contracts/SQFITEM/AccessControl.sol\":2618:2705  interfaceId == type(IAccessControl).interfaceId || super.supportsInterface(interfaceId) */\n      dup1\n      tag_118\n      jumpi\n      pop\n        /* \"contracts/SQFITEM/AccessControl.sol\":2669:2705  super.supportsInterface(interfaceId) */\n      tag_119\n        /* \"contracts/SQFITEM/AccessControl.sol\":2693:2704  interfaceId */\n      dup3\n        /* \"contracts/SQFITEM/AccessControl.sol\":2669:2692  super.supportsInterface */\n      tag_120\n        /* \"contracts/SQFITEM/AccessControl.sol\":2669:2705  super.supportsInterface(interfaceId) */\n      jump\t// in\n    tag_119:\n        /* \"contracts/SQFITEM/AccessControl.sol\":2618:2705  interfaceId == type(IAccessControl).interfaceId || super.supportsInterface(interfaceId) */\n    tag_118:\n        /* \"contracts/SQFITEM/AccessControl.sol\":2611:2705  return interfaceId == type(IAccessControl).interfaceId || super.supportsInterface(interfaceId) */\n      swap1\n      pop\n        /* \"contracts/SQFITEM/AccessControl.sol\":2510:2712  function supportsInterface(bytes4 interfaceId) public view virtual override returns (bool) {... */\n      swap2\n      swap1\n      pop\n      jump\t// out\n        /* \"contracts/SQFITEM/SQFI_Factory.sol\":563:601  uint256 public uncraftBurnPercent = 10 */\n    tag_36:\n      sload(0x03)\n      dup2\n      jump\t// out\n        /* \"contracts/SQFITEM/SQFI_Factory.sol\":4316:4449  function uncraft(... */\n    tag_42:\n        /* \"contracts/SQFITEM/SQFI_Factory.sol\":4389:4393  SQFi */\n      0x02\n      0x00\n      swap1\n      sload\n      swap1\n      0x0100\n      exp\n      swap1\n      div\n      0xffffffffffffffffffffffffffffffffffffffff\n      and\n        /* \"contracts/SQFITEM/SQFI_Factory.sol\":4389:4398  SQFi.burn */\n      0xffffffffffffffffffffffffffffffffffffffff\n      and\n      0x42966c68\n        /* \"contracts/SQFITEM/SQFI_Factory.sol\":4399:4406  tokenId */\n      dup3\n        /* \"contracts/SQFITEM/SQFI_Factory.sol\":4389:4407  SQFi.burn(tokenId) */\n      mload(0x40)\n      dup3\n      0xffffffff\n      and\n      0xe0\n      shl\n      dup2\n      mstore\n      0x04\n      add\n      tag_122\n      swap2\n      swap1\n      tag_38\n      jump\t// in\n    tag_122:\n      0x00\n      mload(0x40)\n      dup1\n      dup4\n      sub\n      dup2\n      0x00\n      dup8\n      dup1\n      extcodesize\n      iszero\n      dup1\n      iszero\n      tag_123\n      jumpi\n      0x00\n      dup1\n      revert\n    tag_123:\n      pop\n      gas\n      call\n      iszero\n      dup1\n      iszero\n      tag_125\n      jumpi\n      returndatasize\n      0x00\n      dup1\n      returndatacopy\n      revert(0x00, returndatasize)\n    tag_125:\n      pop\n      pop\n      pop\n      pop\n        /* \"contracts/SQFITEM/SQFI_Factory.sol\":4422:4442  UncraftSQFI(tokenId) */\n      0x950dcd4a7087bbf2cee08268e1b26ac45fb310d3ae443d0fe53714b713da45c1\n        /* \"contracts/SQFITEM/SQFI_Factory.sol\":4434:4441  tokenId */\n      dup2\n        /* \"contracts/SQFITEM/SQFI_Factory.sol\":4422:4442  UncraftSQFI(tokenId) */\n      mload(0x40)\n      tag_126\n      swap2\n      swap1\n      tag_38\n      jump\t// in\n    tag_126:\n      mload(0x40)\n      dup1\n      swap2\n      sub\n      swap1\n      log1\n        /* \"contracts/SQFITEM/SQFI_Factory.sol\":4316:4449  function uncraft(... */\n      pop\n      jump\t// out\n        /* \"contracts/SQFITEM/SQFI_Factory.sol\":641:670  uint256 public maxSQFI = 2000 */\n    tag_44:\n      sload(0x05)\n      dup2\n      jump\t// out\n        /* \"contracts/SQFITEM/AccessControl.sol\":3882:4003  function getRoleAdmin(bytes32 role) public view override returns (bytes32) {... */\n    tag_49:\n        /* \"contracts/SQFITEM/AccessControl.sol\":3948:3955  bytes32 */\n      0x00\n        /* \"contracts/SQFITEM/AccessControl.sol\":3974:3980  _roles */\n      0x01\n        /* \"contracts/SQFITEM/AccessControl.sol\":3974:3986  _roles[role] */\n      0x00\n        /* \"contracts/SQFITEM/AccessControl.sol\":3981:3985  role */\n      dup4\n        /* \"contracts/SQFITEM/AccessControl.sol\":3974:3986  _roles[role] */\n      dup2\n      mstore\n      0x20\n      add\n      swap1\n      dup2\n      mstore\n      0x20\n      add\n      0x00\n      keccak256\n        /* \"contracts/SQFITEM/AccessControl.sol\":3974:3996  _roles[role].adminRole */\n      0x01\n      add\n      sload\n        /* \"contracts/SQFITEM/AccessControl.sol\":3967:3996  return _roles[role].adminRole */\n      swap1\n      pop\n        /* \"contracts/SQFITEM/AccessControl.sol\":3882:4003  function getRoleAdmin(bytes32 role) public view override returns (bytes32) {... */\n      swap2\n      swap1\n      pop\n      jump\t// out\n        /* \"contracts/SQFITEM/AccessControl.sol\":4253:4398  function grantRole(bytes32 role, address account) public virtual override onlyRole(getRoleAdmin(role)) {... */\n    tag_55:\n        /* \"contracts/SQFITEM/AccessControl.sol\":4336:4354  getRoleAdmin(role) */\n      tag_128\n        /* \"contracts/SQFITEM/AccessControl.sol\":4349:4353  role */\n      dup3\n        /* \"contracts/SQFITEM/AccessControl.sol\":4336:4348  getRoleAdmin */\n      tag_49\n        /* \"contracts/SQFITEM/AccessControl.sol\":4336:4354  getRoleAdmin(role) */\n      jump\t// in\n    tag_128:\n        /* \"contracts/SQFITEM/AccessControl.sol\":2395:2425  _checkRole(role, _msgSender()) */\n      tag_130\n        /* \"contracts/SQFITEM/AccessControl.sol\":2406:2410  role */\n      dup2\n        /* \"contracts/SQFITEM/AccessControl.sol\":2412:2424  _msgSender() */\n      tag_131\n        /* \"contracts/SQFITEM/AccessControl.sol\":2412:2422  _msgSender */\n      tag_132\n        /* \"contracts/SQFITEM/AccessControl.sol\":2412:2424  _msgSender() */\n      jump\t// in\n    tag_131:\n        /* \"contracts/SQFITEM/AccessControl.sol\":2395:2405  _checkRole */\n      tag_133\n        /* \"contracts/SQFITEM/AccessControl.sol\":2395:2425  _checkRole(role, _msgSender()) */\n      jump\t// in\n    tag_130:\n        /* \"contracts/SQFITEM/AccessControl.sol\":4366:4391  _grantRole(role, account) */\n      tag_135\n        /* \"contracts/SQFITEM/AccessControl.sol\":4377:4381  role */\n      dup4\n        /* \"contracts/SQFITEM/AccessControl.sol\":4383:4390  account */\n      dup4\n        /* \"contracts/SQFITEM/AccessControl.sol\":4366:4376  _grantRole */\n      tag_136\n        /* \"contracts/SQFITEM/AccessControl.sol\":4366:4391  _grantRole(role, account) */\n      jump\t// in\n    tag_135:\n        /* \"contracts/SQFITEM/AccessControl.sol\":4253:4398  function grantRole(bytes32 role, address account) public virtual override onlyRole(getRoleAdmin(role)) {... */\n      pop\n      pop\n      pop\n      jump\t// out\n        /* \"contracts/SQFITEM/AccessControl.sol\":5270:5484  function renounceRole(bytes32 role, address account) public virtual override {... */\n    tag_58:\n        /* \"contracts/SQFITEM/AccessControl.sol\":5376:5388  _msgSender() */\n      tag_138\n        /* \"contracts/SQFITEM/AccessControl.sol\":5376:5386  _msgSender */\n      tag_132\n        /* \"contracts/SQFITEM/AccessControl.sol\":5376:5388  _msgSender() */\n      jump\t// in\n    tag_138:\n        /* \"contracts/SQFITEM/AccessControl.sol\":5365:5388  account == _msgSender() */\n      0xffffffffffffffffffffffffffffffffffffffff\n      and\n        /* \"contracts/SQFITEM/AccessControl.sol\":5365:5372  account */\n      dup2\n        /* \"contracts/SQFITEM/AccessControl.sol\":5365:5388  account == _msgSender() */\n      0xffffffffffffffffffffffffffffffffffffffff\n      and\n      eq\n        /* \"contracts/SQFITEM/AccessControl.sol\":5357:5440  require(account == _msgSender(), \"AccessControl: can only renounce roles for self\") */\n      tag_139\n      jumpi\n      mload(0x40)\n      0x08c379a000000000000000000000000000000000000000000000000000000000\n      dup2\n      mstore\n      0x04\n      add\n      tag_140\n      swap1\n      tag_141\n      jump\t// in\n    tag_140:\n      mload(0x40)\n      dup1\n      swap2\n      sub\n      swap1\n      revert\n    tag_139:\n        /* \"contracts/SQFITEM/AccessControl.sol\":5451:5477  _revokeRole(role, account) */\n      tag_142\n        /* \"contracts/SQFITEM/AccessControl.sol\":5463:5467  role */\n      dup3\n        /* \"contracts/SQFITEM/AccessControl.sol\":5469:5476  account */\n      dup3\n        /* \"contracts/SQFITEM/AccessControl.sol\":5451:5462  _revokeRole */\n      tag_143\n        /* \"contracts/SQFITEM/AccessControl.sol\":5451:5477  _revokeRole(role, account) */\n      jump\t// in\n    tag_142:\n        /* \"contracts/SQFITEM/AccessControl.sol\":5270:5484  function renounceRole(bytes32 role, address account) public virtual override {... */\n      pop\n      pop\n      jump\t// out\n        /* \"contracts/SQFITEM/SQFI_Factory.sol\":1715:1872  function editSQFI(uint256 _min, uint256 _max)... */\n    tag_62:\n        /* \"contracts/SQFITEM/AccessControl.sol\":1962:1966  0x00 */\n      0x00\n        /* \"contracts/SQFITEM/SQFI_Factory.sol\":1793:1811  DEFAULT_ADMIN_ROLE */\n      dup1\n      shl\n        /* \"contracts/SQFITEM/AccessControl.sol\":2395:2425  _checkRole(role, _msgSender()) */\n      tag_145\n        /* \"contracts/SQFITEM/AccessControl.sol\":2406:2410  role */\n      dup2\n        /* \"contracts/SQFITEM/AccessControl.sol\":2412:2424  _msgSender() */\n      tag_146\n        /* \"contracts/SQFITEM/AccessControl.sol\":2412:2422  _msgSender */\n      tag_132\n        /* \"contracts/SQFITEM/AccessControl.sol\":2412:2424  _msgSender() */\n      jump\t// in\n    tag_146:\n        /* \"contracts/SQFITEM/AccessControl.sol\":2395:2405  _checkRole */\n      tag_133\n        /* \"contracts/SQFITEM/AccessControl.sol\":2395:2425  _checkRole(role, _msgSender()) */\n      jump\t// in\n    tag_145:\n        /* \"contracts/SQFITEM/SQFI_Factory.sol\":1837:1841  _min */\n      dup3\n        /* \"contracts/SQFITEM/SQFI_Factory.sol\":1827:1834  minSQFI */\n      0x04\n        /* \"contracts/SQFITEM/SQFI_Factory.sol\":1827:1841  minSQFI = _min */\n      dup2\n      swap1\n      sstore\n      pop\n        /* \"contracts/SQFITEM/SQFI_Factory.sol\":1861:1865  _max */\n      dup2\n        /* \"contracts/SQFITEM/SQFI_Factory.sol\":1851:1858  maxSQFI */\n      0x05\n        /* \"contracts/SQFITEM/SQFI_Factory.sol\":1851:1865  maxSQFI = _max */\n      dup2\n      swap1\n      sstore\n      pop\n        /* \"contracts/SQFITEM/SQFI_Factory.sol\":1715:1872  function editSQFI(uint256 _min, uint256 _max)... */\n      pop\n      pop\n      pop\n      jump\t// out\n        /* \"contracts/SQFITEM/SQFI_Factory.sol\":413:433  ISQFItem public SQFi */\n    tag_64:\n      0x02\n      0x00\n      swap1\n      sload\n      swap1\n      0x0100\n      exp\n      swap1\n      div\n      0xffffffffffffffffffffffffffffffffffffffff\n      and\n      dup2\n      jump\t// out\n        /* \"contracts/SQFITEM/Pausable.sol\":1034:1118  function paused() public view virtual returns (bool) {... */\n    tag_68:\n        /* \"contracts/SQFITEM/Pausable.sol\":1081:1085  bool */\n      0x00\n        /* \"contracts/SQFITEM/Pausable.sol\":1104:1111  _paused */\n      dup1\n      0x00\n      swap1\n      sload\n      swap1\n      0x0100\n      exp\n      swap1\n      div\n      0xff\n      and\n        /* \"contracts/SQFITEM/Pausable.sol\":1097:1111  return _paused */\n      swap1\n      pop\n        /* \"contracts/SQFITEM/Pausable.sol\":1034:1118  function paused() public view virtual returns (bool) {... */\n      swap1\n      jump\t// out\n        /* \"contracts/SQFITEM/SQFI_Factory.sol\":607:635  uint256 public minSQFI = 200 */\n    tag_71:\n      sload(0x04)\n      dup2\n      jump\t// out\n        /* \"contracts/SQFITEM/SQFI_Factory.sol\":2868:4243  function createSQFI(... */\n    tag_76:\n        /* \"contracts/SQFITEM/SQFI_Factory.sol\":3048:3055  uint256 */\n      0x00\n        /* \"contracts/SQFITEM/Pausable.sol\":1348:1356  paused() */\n      tag_150\n        /* \"contracts/SQFITEM/Pausable.sol\":1348:1354  paused */\n      tag_68\n        /* \"contracts/SQFITEM/Pausable.sol\":1348:1356  paused() */\n      jump\t// in\n    tag_150:\n        /* \"contracts/SQFITEM/Pausable.sol\":1347:1356  !paused() */\n      iszero\n        /* \"contracts/SQFITEM/Pausable.sol\":1339:1377  require(!paused(), \"Pausable: paused\") */\n      tag_151\n      jumpi\n      mload(0x40)\n      0x08c379a000000000000000000000000000000000000000000000000000000000\n      dup2\n      mstore\n      0x04\n      add\n      tag_152\n      swap1\n      tag_153\n      jump\t// in\n    tag_152:\n      mload(0x40)\n      dup1\n      swap2\n      sub\n      swap1\n      revert\n    tag_151:\n        /* \"contracts/SQFITEM/SQFI_Factory.sol\":3081:3082  0 */\n      0x00\n        /* \"contracts/SQFITEM/SQFI_Factory.sol\":3071:3078  amount1 */\n      sload(0x17)\n        /* \"contracts/SQFITEM/SQFI_Factory.sol\":3071:3082  amount1 > 0 */\n      gt\n        /* \"contracts/SQFITEM/SQFI_Factory.sol\":3071:3106  amount1 > 0 && fee1 != address(0x0) */\n      dup1\n      iszero\n      tag_155\n      jumpi\n      pop\n        /* \"contracts/SQFITEM/SQFI_Factory.sol\":3102:3105  0x0 */\n      0x00\n        /* \"contracts/SQFITEM/SQFI_Factory.sol\":3086:3106  fee1 != address(0x0) */\n      0xffffffffffffffffffffffffffffffffffffffff\n      and\n        /* \"contracts/SQFITEM/SQFI_Factory.sol\":3086:3090  fee1 */\n      0x16\n      0x00\n      swap1\n      sload\n      swap1\n      0x0100\n      exp\n      swap1\n      div\n      0xffffffffffffffffffffffffffffffffffffffff\n      and\n        /* \"contracts/SQFITEM/SQFI_Factory.sol\":3086:3106  fee1 != address(0x0) */\n      0xffffffffffffffffffffffffffffffffffffffff\n      and\n      eq\n      iszero\n        /* \"contracts/SQFITEM/SQFI_Factory.sol\":3071:3106  amount1 > 0 && fee1 != address(0x0) */\n    tag_155:\n        /* \"contracts/SQFITEM/SQFI_Factory.sol\":3067:3194  if (amount1 > 0 && fee1 != address(0x0)) {... */\n      iszero\n      tag_156\n      jumpi\n        /* \"contracts/SQFITEM/SQFI_Factory.sol\":3129:3133  fee1 */\n      0x16\n      0x00\n      swap1\n      sload\n      swap1\n      0x0100\n      exp\n      swap1\n      div\n      0xffffffffffffffffffffffffffffffffffffffff\n      and\n        /* \"contracts/SQFITEM/SQFI_Factory.sol\":3122:3147  IERC20(fee1).transferFrom */\n      0xffffffffffffffffffffffffffffffffffffffff\n      and\n      0x23b872dd\n        /* \"contracts/SQFITEM/SQFI_Factory.sol\":3148:3158  msg.sender */\n      caller\n        /* \"contracts/SQFITEM/SQFI_Factory.sol\":3168:3172  this */\n      address\n        /* \"contracts/SQFITEM/SQFI_Factory.sol\":3175:3182  amount1 */\n      sload(0x17)\n        /* \"contracts/SQFITEM/SQFI_Factory.sol\":3122:3183  IERC20(fee1).transferFrom(msg.sender, address(this), amount1) */\n      mload(0x40)\n      dup5\n      0xffffffff\n      and\n      0xe0\n      shl\n      dup2\n      mstore\n      0x04\n      add\n      tag_157\n      swap4\n      swap3\n      swap2\n      swap1\n      tag_158\n      jump\t// in\n    tag_157:\n      0x20\n      mload(0x40)\n      dup1\n      dup4\n      sub\n      dup2\n      0x00\n      dup8\n      gas\n      call\n      iszero\n      dup1\n      iszero\n      tag_160\n      jumpi\n      returndatasize\n      0x00\n      dup1\n      returndatacopy\n      revert(0x00, returndatasize)\n    tag_160:\n      pop\n      pop\n      pop\n      pop\n      mload(0x40)\n      returndatasize\n      not(0x1f)\n      0x1f\n      dup3\n      add\n      and\n      dup3\n      add\n      dup1\n      0x40\n      mstore\n      pop\n      dup2\n      add\n      swap1\n      tag_161\n      swap2\n      swap1\n      tag_162\n      jump\t// in\n    tag_161:\n      pop\n        /* \"contracts/SQFITEM/SQFI_Factory.sol\":3067:3194  if (amount1 > 0 && fee1 != address(0x0)) {... */\n    tag_156:\n        /* \"contracts/SQFITEM/SQFI_Factory.sol\":4006:4021  uint256 tokenId */\n      0x00\n        /* \"contracts/SQFITEM/SQFI_Factory.sol\":4024:4028  SQFi */\n      0x02\n      0x00\n      swap1\n      sload\n      swap1\n      0x0100\n      exp\n      swap1\n      div\n      0xffffffffffffffffffffffffffffffffffffffff\n      and\n        /* \"contracts/SQFITEM/SQFI_Factory.sol\":4024:4037  SQFi.safeMint */\n      0xffffffffffffffffffffffffffffffffffffffff\n      and\n      0xd204c45e\n        /* \"contracts/SQFITEM/SQFI_Factory.sol\":4051:4061  msg.sender */\n      caller\n        /* \"contracts/SQFITEM/SQFI_Factory.sol\":4075:4084  tokenURI_ */\n      dup6\n        /* \"contracts/SQFITEM/SQFI_Factory.sol\":4024:4094  SQFi.safeMint(... */\n      mload(0x40)\n      dup4\n      0xffffffff\n      and\n      0xe0\n      shl\n      dup2\n      mstore\n      0x04\n      add\n      tag_163\n      swap3\n      swap2\n      swap1\n      tag_164\n      jump\t// in\n    tag_163:\n      0x20\n      mload(0x40)\n      dup1\n      dup4\n      sub\n      dup2\n      0x00\n      dup8\n      gas\n      call\n      iszero\n      dup1\n      iszero\n      tag_166\n      jumpi\n      returndatasize\n      0x00\n      dup1\n      returndatacopy\n      revert(0x00, returndatasize)\n    tag_166:\n      pop\n      pop\n      pop\n      pop\n      mload(0x40)\n      returndatasize\n      not(0x1f)\n      0x1f\n      dup3\n      add\n      and\n      dup3\n      add\n      dup1\n      0x40\n      mstore\n      pop\n      dup2\n      add\n      swap1\n      tag_167\n      swap2\n      swap1\n      tag_168\n      jump\t// in\n    tag_167:\n        /* \"contracts/SQFITEM/SQFI_Factory.sol\":4006:4094  uint256 tokenId = SQFi.safeMint(... */\n      swap1\n      pop\n        /* \"contracts/SQFITEM/SQFI_Factory.sol\":4109:4212  CraftSQFI(... */\n      0x9e6e3acb506bf1d2adb1d8565252e575763ee07d1debfcc2c830682895b3137d\n        /* \"contracts/SQFITEM/SQFI_Factory.sol\":4132:4142  msg.sender */\n      caller\n        /* \"contracts/SQFITEM/SQFI_Factory.sol\":4156:4163  tokenId */\n      dup3\n        /* \"contracts/SQFITEM/SQFI_Factory.sol\":4177:4181  fee1 */\n      0x16\n      0x00\n      swap1\n      sload\n      swap1\n      0x0100\n      exp\n      swap1\n      div\n      0xffffffffffffffffffffffffffffffffffffffff\n      and\n        /* \"contracts/SQFITEM/SQFI_Factory.sol\":4195:4202  amount1 */\n      sload(0x17)\n        /* \"contracts/SQFITEM/SQFI_Factory.sol\":4109:4212  CraftSQFI(... */\n      mload(0x40)\n      tag_169\n      swap5\n      swap4\n      swap3\n      swap2\n      swap1\n      tag_170\n      jump\t// in\n    tag_169:\n      mload(0x40)\n      dup1\n      swap2\n      sub\n      swap1\n      log1\n        /* \"contracts/SQFITEM/SQFI_Factory.sol\":4229:4236  tokenId */\n      dup1\n        /* \"contracts/SQFITEM/SQFI_Factory.sol\":4222:4236  return tokenId */\n      swap2\n      pop\n      pop\n        /* \"contracts/SQFITEM/SQFI_Factory.sol\":2868:4243  function createSQFI(... */\n      swap2\n      swap1\n      pop\n      jump\t// out\n        /* \"contracts/SQFITEM/AccessControl.sol\":2799:2936  function hasRole(bytes32 role, address account) public view override returns (bool) {... */\n    tag_80:\n        /* \"contracts/SQFITEM/AccessControl.sol\":2877:2881  bool */\n      0x00\n        /* \"contracts/SQFITEM/AccessControl.sol\":2900:2906  _roles */\n      0x01\n        /* \"contracts/SQFITEM/AccessControl.sol\":2900:2912  _roles[role] */\n      0x00\n        /* \"contracts/SQFITEM/AccessControl.sol\":2907:2911  role */\n      dup5\n        /* \"contracts/SQFITEM/AccessControl.sol\":2900:2912  _roles[role] */\n      dup2\n      mstore\n      0x20\n      add\n      swap1\n      dup2\n      mstore\n      0x20\n      add\n      0x00\n      keccak256\n        /* \"contracts/SQFITEM/AccessControl.sol\":2900:2920  _roles[role].members */\n      0x00\n      add\n        /* \"contracts/SQFITEM/AccessControl.sol\":2900:2929  _roles[role].members[account] */\n      0x00\n        /* \"contracts/SQFITEM/AccessControl.sol\":2921:2928  account */\n      dup4\n        /* \"contracts/SQFITEM/AccessControl.sol\":2900:2929  _roles[role].members[account] */\n      0xffffffffffffffffffffffffffffffffffffffff\n      and\n      0xffffffffffffffffffffffffffffffffffffffff\n      and\n      dup2\n      mstore\n      0x20\n      add\n      swap1\n      dup2\n      mstore\n      0x20\n      add\n      0x00\n      keccak256\n      0x00\n      swap1\n      sload\n      swap1\n      0x0100\n      exp\n      swap1\n      div\n      0xff\n      and\n        /* \"contracts/SQFITEM/AccessControl.sol\":2893:2929  return _roles[role].members[account] */\n      swap1\n      pop\n        /* \"contracts/SQFITEM/AccessControl.sol\":2799:2936  function hasRole(bytes32 role, address account) public view override returns (bool) {... */\n      swap3\n      swap2\n      pop\n      pop\n      jump\t// out\n        /* \"contracts/SQFITEM/SQFI_Factory.sol\":2578:2862  function editSupportedFee(... */\n    tag_85:\n        /* \"contracts/SQFITEM/AccessControl.sol\":1962:1966  0x00 */\n      0x00\n        /* \"contracts/SQFITEM/SQFI_Factory.sol\":2729:2747  DEFAULT_ADMIN_ROLE */\n      dup1\n      shl\n        /* \"contracts/SQFITEM/AccessControl.sol\":2395:2425  _checkRole(role, _msgSender()) */\n      tag_173\n        /* \"contracts/SQFITEM/AccessControl.sol\":2406:2410  role */\n      dup2\n        /* \"contracts/SQFITEM/AccessControl.sol\":2412:2424  _msgSender() */\n      tag_174\n        /* \"contracts/SQFITEM/AccessControl.sol\":2412:2422  _msgSender */\n      tag_132\n        /* \"contracts/SQFITEM/AccessControl.sol\":2412:2424  _msgSender() */\n      jump\t// in\n    tag_174:\n        /* \"contracts/SQFITEM/AccessControl.sol\":2395:2405  _checkRole */\n      tag_133\n        /* \"contracts/SQFITEM/AccessControl.sol\":2395:2425  _checkRole(role, _msgSender()) */\n      jump\t// in\n    tag_173:\n        /* \"contracts/SQFITEM/SQFI_Factory.sol\":2766:2771  _fee1 */\n      dup3\n        /* \"contracts/SQFITEM/SQFI_Factory.sol\":2759:2763  fee1 */\n      0x16\n      0x00\n        /* \"contracts/SQFITEM/SQFI_Factory.sol\":2759:2771  fee1 = _fee1 */\n      0x0100\n      exp\n      dup2\n      sload\n      dup2\n      0xffffffffffffffffffffffffffffffffffffffff\n      mul\n      not\n      and\n      swap1\n      dup4\n      0xffffffffffffffffffffffffffffffffffffffff\n      and\n      mul\n      or\n      swap1\n      sstore\n      pop\n        /* \"contracts/SQFITEM/SQFI_Factory.sol\":2816:2824  _amount1 */\n      dup2\n        /* \"contracts/SQFITEM/SQFI_Factory.sol\":2806:2813  amount1 */\n      0x17\n        /* \"contracts/SQFITEM/SQFI_Factory.sol\":2806:2824  amount1 = _amount1 */\n      dup2\n      swap1\n      sstore\n      pop\n        /* \"contracts/SQFITEM/SQFI_Factory.sol\":2578:2862  function editSupportedFee(... */\n      pop\n      pop\n      pop\n      jump\t// out\n        /* \"contracts/SQFITEM/AccessControl.sol\":1917:1966  bytes32 public constant DEFAULT_ADMIN_ROLE = 0x00 */\n    tag_87:\n        /* \"contracts/SQFITEM/AccessControl.sol\":1962:1966  0x00 */\n      0x00\n        /* \"contracts/SQFITEM/AccessControl.sol\":1917:1966  bytes32 public constant DEFAULT_ADMIN_ROLE = 0x00 */\n      dup1\n      shl\n      dup2\n      jump\t// out\n        /* \"contracts/SQFITEM/SQFI_Factory.sol\":676:882  uint256[16] public runePower = [... */\n    tag_91:\n      0x06\n      dup2\n      0x10\n      dup2\n      lt\n      tag_176\n      jumpi\n      0x00\n      dup1\n      revert\n    tag_176:\n      add\n      0x00\n      swap2\n      pop\n      swap1\n      pop\n      sload\n      dup2\n      jump\t// out\n        /* \"contracts/SQFITEM/SQFI_Factory.sol\":889:908  address public fee1 */\n    tag_94:\n      0x16\n      0x00\n      swap1\n      sload\n      swap1\n      0x0100\n      exp\n      swap1\n      div\n      0xffffffffffffffffffffffffffffffffffffffff\n      and\n      dup2\n      jump\t// out\n        /* \"contracts/SQFITEM/AccessControl.sol\":4632:4779  function revokeRole(bytes32 role, address account) public virtual override onlyRole(getRoleAdmin(role)) {... */\n    tag_99:\n        /* \"contracts/SQFITEM/AccessControl.sol\":4716:4734  getRoleAdmin(role) */\n      tag_178\n        /* \"contracts/SQFITEM/AccessControl.sol\":4729:4733  role */\n      dup3\n        /* \"contracts/SQFITEM/AccessControl.sol\":4716:4728  getRoleAdmin */\n      tag_49\n        /* \"contracts/SQFITEM/AccessControl.sol\":4716:4734  getRoleAdmin(role) */\n      jump\t// in\n    tag_178:\n        /* \"contracts/SQFITEM/AccessControl.sol\":2395:2425  _checkRole(role, _msgSender()) */\n      tag_180\n        /* \"contracts/SQFITEM/AccessControl.sol\":2406:2410  role */\n      dup2\n        /* \"contracts/SQFITEM/AccessControl.sol\":2412:2424  _msgSender() */\n      tag_181\n        /* \"contracts/SQFITEM/AccessControl.sol\":2412:2422  _msgSender */\n      tag_132\n        /* \"contracts/SQFITEM/AccessControl.sol\":2412:2424  _msgSender() */\n      jump\t// in\n    tag_181:\n        /* \"contracts/SQFITEM/AccessControl.sol\":2395:2405  _checkRole */\n      tag_133\n        /* \"contracts/SQFITEM/AccessControl.sol\":2395:2425  _checkRole(role, _msgSender()) */\n      jump\t// in\n    tag_180:\n        /* \"contracts/SQFITEM/AccessControl.sol\":4746:4772  _revokeRole(role, account) */\n      tag_183\n        /* \"contracts/SQFITEM/AccessControl.sol\":4758:4762  role */\n      dup4\n        /* \"contracts/SQFITEM/AccessControl.sol\":4764:4771  account */\n      dup4\n        /* \"contracts/SQFITEM/AccessControl.sol\":4746:4757  _revokeRole */\n      tag_143\n        /* \"contracts/SQFITEM/AccessControl.sol\":4746:4772  _revokeRole(role, account) */\n      jump\t// in\n    tag_183:\n        /* \"contracts/SQFITEM/AccessControl.sol\":4632:4779  function revokeRole(bytes32 role, address account) public virtual override onlyRole(getRoleAdmin(role)) {... */\n      pop\n      pop\n      pop\n      jump\t// out\n        /* \"contracts/SQFITEM/SQFI_Factory.sol\":2092:2403  function bytes32ToAmount16(bytes32 data)... */\n    tag_102:\n        /* \"contracts/SQFITEM/SQFI_Factory.sol\":2178:2203  uint256[16] memory amount */\n      tag_184\n      tag_185\n      jump\t// in\n    tag_184:\n        /* \"contracts/SQFITEM/SQFI_Factory.sol\":2224:2231  uint8 i */\n      0x00\n        /* \"contracts/SQFITEM/SQFI_Factory.sol\":2219:2397  for (uint8 i = 0; i < 32; i++) {... */\n    tag_187:\n        /* \"contracts/SQFITEM/SQFI_Factory.sol\":2241:2243  32 */\n      0x20\n        /* \"contracts/SQFITEM/SQFI_Factory.sol\":2237:2238  i */\n      dup2\n        /* \"contracts/SQFITEM/SQFI_Factory.sol\":2237:2243  i < 32 */\n      0xff\n      and\n      lt\n        /* \"contracts/SQFITEM/SQFI_Factory.sol\":2219:2397  for (uint8 i = 0; i < 32; i++) {... */\n      iszero\n      tag_188\n      jumpi\n        /* \"contracts/SQFITEM/SQFI_Factory.sol\":2376:2377  0 */\n      0x00\n        /* \"contracts/SQFITEM/SQFI_Factory.sol\":2371:2372  2 */\n      0x02\n        /* \"contracts/SQFITEM/SQFI_Factory.sol\":2367:2368  i */\n      dup3\n        /* \"contracts/SQFITEM/SQFI_Factory.sol\":2367:2372  i % 2 */\n      tag_190\n      swap2\n      swap1\n      tag_191\n      jump\t// in\n    tag_190:\n        /* \"contracts/SQFITEM/SQFI_Factory.sol\":2367:2377  i % 2 == 0 */\n      0xff\n      and\n      eq\n        /* \"contracts/SQFITEM/SQFI_Factory.sol\":2367:2385  i % 2 == 0 ? 1 : 0 */\n      tag_192\n      jumpi\n        /* \"contracts/SQFITEM/SQFI_Factory.sol\":2384:2385  0 */\n      0x00\n        /* \"contracts/SQFITEM/SQFI_Factory.sol\":2367:2385  i % 2 == 0 ? 1 : 0 */\n      jump(tag_193)\n    tag_192:\n        /* \"contracts/SQFITEM/SQFI_Factory.sol\":2380:2381  1 */\n      0x01\n        /* \"contracts/SQFITEM/SQFI_Factory.sol\":2367:2385  i % 2 == 0 ? 1 : 0 */\n    tag_193:\n        /* \"contracts/SQFITEM/SQFI_Factory.sol\":2361:2364  256 */\n      0x0100\n        /* \"contracts/SQFITEM/SQFI_Factory.sol\":2361:2386  256**(i % 2 == 0 ? 1 : 0) */\n      tag_194\n      swap2\n      swap1\n      tag_195\n      jump\t// in\n    tag_194:\n        /* \"contracts/SQFITEM/SQFI_Factory.sol\":2334:2338  data */\n      dup4\n        /* \"contracts/SQFITEM/SQFI_Factory.sol\":2339:2340  i */\n      dup3\n        /* \"contracts/SQFITEM/SQFI_Factory.sol\":2334:2341  data[i] */\n      0xff\n      and\n      0x20\n      dup2\n      lt\n      tag_196\n      jumpi\n      tag_197\n      tag_198\n      jump\t// in\n    tag_197:\n    tag_196:\n      byte\n      0xf8\n      shl\n        /* \"contracts/SQFITEM/SQFI_Factory.sol\":2328:2342  uint8(data[i]) */\n      0xf8\n      shr\n        /* \"contracts/SQFITEM/SQFI_Factory.sol\":2328:2386  uint8(data[i]) *... */\n      0xff\n      and\n      tag_199\n      swap2\n      swap1\n      tag_200\n      jump\t// in\n    tag_199:\n        /* \"contracts/SQFITEM/SQFI_Factory.sol\":2296:2302  amount */\n      dup3\n        /* \"contracts/SQFITEM/SQFI_Factory.sol\":2307:2308  2 */\n      0x02\n        /* \"contracts/SQFITEM/SQFI_Factory.sol\":2303:2304  i */\n      dup4\n        /* \"contracts/SQFITEM/SQFI_Factory.sol\":2303:2308  i / 2 */\n      tag_201\n      swap2\n      swap1\n      tag_202\n      jump\t// in\n    tag_201:\n        /* \"contracts/SQFITEM/SQFI_Factory.sol\":2296:2309  amount[i / 2] */\n      0xff\n      and\n      0x10\n      dup2\n      lt\n      tag_203\n      jumpi\n      tag_204\n      tag_198\n      jump\t// in\n    tag_204:\n    tag_203:\n      0x20\n      mul\n      add\n      mload\n        /* \"contracts/SQFITEM/SQFI_Factory.sol\":2296:2386  amount[i / 2] +... */\n      tag_205\n      swap2\n      swap1\n      tag_206\n      jump\t// in\n    tag_205:\n        /* \"contracts/SQFITEM/SQFI_Factory.sol\":2264:2270  amount */\n      dup3\n        /* \"contracts/SQFITEM/SQFI_Factory.sol\":2275:2276  2 */\n      0x02\n        /* \"contracts/SQFITEM/SQFI_Factory.sol\":2271:2272  i */\n      dup4\n        /* \"contracts/SQFITEM/SQFI_Factory.sol\":2271:2276  i / 2 */\n      tag_207\n      swap2\n      swap1\n      tag_202\n      jump\t// in\n    tag_207:\n        /* \"contracts/SQFITEM/SQFI_Factory.sol\":2264:2277  amount[i / 2] */\n      0xff\n      and\n      0x10\n      dup2\n      lt\n      tag_208\n      jumpi\n      tag_209\n      tag_198\n      jump\t// in\n    tag_209:\n    tag_208:\n      0x20\n      mul\n      add\n        /* \"contracts/SQFITEM/SQFI_Factory.sol\":2264:2386  amount[i / 2] =... */\n      dup2\n      dup2\n      mstore\n      pop\n      pop\n        /* \"contracts/SQFITEM/SQFI_Factory.sol\":2245:2248  i++ */\n      dup1\n      dup1\n      tag_210\n      swap1\n      tag_211\n      jump\t// in\n    tag_210:\n      swap2\n      pop\n      pop\n        /* \"contracts/SQFITEM/SQFI_Factory.sol\":2219:2397  for (uint8 i = 0; i < 32; i++) {... */\n      jump(tag_187)\n    tag_188:\n      pop\n        /* \"contracts/SQFITEM/SQFI_Factory.sol\":2092:2403  function bytes32ToAmount16(bytes32 data)... */\n      swap2\n      swap1\n      pop\n      jump\t// out\n        /* \"contracts/SQFITEM/SQFI_Factory.sol\":495:557  bytes32 public constant PAUSER_ROLE = keccak256(\"PAUSER_ROLE\") */\n    tag_106:\n        /* \"contracts/SQFITEM/SQFI_Factory.sol\":533:557  keccak256(\"PAUSER_ROLE\") */\n      0x65d7a28e3265b37a6474929f336521b332c1681b933f6cb9f3376673440d862a\n        /* \"contracts/SQFITEM/SQFI_Factory.sol\":495:557  bytes32 public constant PAUSER_ROLE = keccak256(\"PAUSER_ROLE\") */\n      dup2\n      jump\t// out\n        /* \"contracts/SQFITEM/SQFI_Factory.sol\":1878:2086  function editUncraftBurnPercent(uint256 percent)... */\n    tag_110:\n        /* \"contracts/SQFITEM/AccessControl.sol\":1962:1966  0x00 */\n      0x00\n        /* \"contracts/SQFITEM/SQFI_Factory.sol\":1959:1977  DEFAULT_ADMIN_ROLE */\n      dup1\n      shl\n        /* \"contracts/SQFITEM/AccessControl.sol\":2395:2425  _checkRole(role, _msgSender()) */\n      tag_213\n        /* \"contracts/SQFITEM/AccessControl.sol\":2406:2410  role */\n      dup2\n        /* \"contracts/SQFITEM/AccessControl.sol\":2412:2424  _msgSender() */\n      tag_214\n        /* \"contracts/SQFITEM/AccessControl.sol\":2412:2422  _msgSender */\n      tag_132\n        /* \"contracts/SQFITEM/AccessControl.sol\":2412:2424  _msgSender() */\n      jump\t// in\n    tag_214:\n        /* \"contracts/SQFITEM/AccessControl.sol\":2395:2405  _checkRole */\n      tag_133\n        /* \"contracts/SQFITEM/AccessControl.sol\":2395:2425  _checkRole(role, _msgSender()) */\n      jump\t// in\n    tag_213:\n        /* \"contracts/SQFITEM/SQFI_Factory.sol\":2012:2015  100 */\n      0x64\n        /* \"contracts/SQFITEM/SQFI_Factory.sol\":2001:2008  percent */\n      dup3\n        /* \"contracts/SQFITEM/SQFI_Factory.sol\":2001:2015  percent <= 100 */\n      gt\n      iszero\n        /* \"contracts/SQFITEM/SQFI_Factory.sol\":1993:2041  require(percent <= 100, \"Must be valid percent\") */\n      tag_216\n      jumpi\n      mload(0x40)\n      0x08c379a000000000000000000000000000000000000000000000000000000000\n      dup2\n      mstore\n      0x04\n      add\n      tag_217\n      swap1\n      tag_218\n      jump\t// in\n    tag_217:\n      mload(0x40)\n      dup1\n      swap2\n      sub\n      swap1\n      revert\n    tag_216:\n        /* \"contracts/SQFITEM/SQFI_Factory.sol\":2072:2079  percent */\n      dup2\n        /* \"contracts/SQFITEM/SQFI_Factory.sol\":2051:2069  uncraftBurnPercent */\n      0x03\n        /* \"contracts/SQFITEM/SQFI_Factory.sol\":2051:2079  uncraftBurnPercent = percent */\n      dup2\n      swap1\n      sstore\n      pop\n        /* \"contracts/SQFITEM/SQFI_Factory.sol\":1878:2086  function editUncraftBurnPercent(uint256 percent)... */\n      pop\n      pop\n      jump\t// out\n        /* \"contracts/SQFITEM/SQFI_Factory.sol\":4455:4737  function withdraw(address token, uint256 amount)... */\n    tag_113:\n        /* \"contracts/SQFITEM/AccessControl.sol\":1962:1966  0x00 */\n      0x00\n        /* \"contracts/SQFITEM/SQFI_Factory.sol\":4536:4554  DEFAULT_ADMIN_ROLE */\n      dup1\n      shl\n        /* \"contracts/SQFITEM/AccessControl.sol\":2395:2425  _checkRole(role, _msgSender()) */\n      tag_220\n        /* \"contracts/SQFITEM/AccessControl.sol\":2406:2410  role */\n      dup2\n        /* \"contracts/SQFITEM/AccessControl.sol\":2412:2424  _msgSender() */\n      tag_221\n        /* \"contracts/SQFITEM/AccessControl.sol\":2412:2422  _msgSender */\n      tag_132\n        /* \"contracts/SQFITEM/AccessControl.sol\":2412:2424  _msgSender() */\n      jump\t// in\n    tag_221:\n        /* \"contracts/SQFITEM/AccessControl.sol\":2395:2405  _checkRole */\n      tag_133\n        /* \"contracts/SQFITEM/AccessControl.sol\":2395:2425  _checkRole(role, _msgSender()) */\n      jump\t// in\n    tag_220:\n        /* \"contracts/SQFITEM/SQFI_Factory.sol\":4591:4594  0x0 */\n      0x00\n        /* \"contracts/SQFITEM/SQFI_Factory.sol\":4574:4595  token == address(0x0) */\n      0xffffffffffffffffffffffffffffffffffffffff\n      and\n        /* \"contracts/SQFITEM/SQFI_Factory.sol\":4574:4579  token */\n      dup4\n        /* \"contracts/SQFITEM/SQFI_Factory.sol\":4574:4595  token == address(0x0) */\n      0xffffffffffffffffffffffffffffffffffffffff\n      and\n      sub\n        /* \"contracts/SQFITEM/SQFI_Factory.sol\":4570:4731  if (token == address(0x0)) {... */\n      tag_223\n      jumpi\n        /* \"contracts/SQFITEM/SQFI_Factory.sol\":4619:4629  msg.sender */\n      caller\n        /* \"contracts/SQFITEM/SQFI_Factory.sol\":4611:4639  payable(msg.sender).transfer */\n      0xffffffffffffffffffffffffffffffffffffffff\n      and\n        /* \"contracts/SQFITEM/SQFI_Factory.sol\":4611:4647  payable(msg.sender).transfer(amount) */\n      0x08fc\n        /* \"contracts/SQFITEM/SQFI_Factory.sol\":4640:4646  amount */\n      dup4\n        /* \"contracts/SQFITEM/SQFI_Factory.sol\":4611:4647  payable(msg.sender).transfer(amount) */\n      swap1\n      dup2\n      iszero\n      mul\n      swap1\n      mload(0x40)\n      0x00\n      mload(0x40)\n      dup1\n      dup4\n      sub\n      dup2\n      dup6\n      dup9\n      dup9\n      call\n      swap4\n      pop\n      pop\n      pop\n      pop\n      iszero\n      dup1\n      iszero\n      tag_225\n      jumpi\n      returndatasize\n      0x00\n      dup1\n      returndatacopy\n      revert(0x00, returndatasize)\n    tag_225:\n      pop\n        /* \"contracts/SQFITEM/SQFI_Factory.sol\":4570:4731  if (token == address(0x0)) {... */\n      jump(tag_226)\n    tag_223:\n        /* \"contracts/SQFITEM/SQFI_Factory.sol\":4685:4690  token */\n      dup3\n        /* \"contracts/SQFITEM/SQFI_Factory.sol\":4678:4700  IERC20(token).transfer */\n      0xffffffffffffffffffffffffffffffffffffffff\n      and\n      0xa9059cbb\n        /* \"contracts/SQFITEM/SQFI_Factory.sol\":4701:4711  msg.sender */\n      caller\n        /* \"contracts/SQFITEM/SQFI_Factory.sol\":4713:4719  amount */\n      dup5\n        /* \"contracts/SQFITEM/SQFI_Factory.sol\":4678:4720  IERC20(token).transfer(msg.sender, amount) */\n      mload(0x40)\n      dup4\n      0xffffffff\n      and\n      0xe0\n      shl\n      dup2\n      mstore\n      0x04\n      add\n      tag_227\n      swap3\n      swap2\n      swap1\n      tag_228\n      jump\t// in\n    tag_227:\n      0x20\n      mload(0x40)\n      dup1\n      dup4\n      sub\n      dup2\n      0x00\n      dup8\n      gas\n      call\n      iszero\n      dup1\n      iszero\n      tag_230\n      jumpi\n      returndatasize\n      0x00\n      dup1\n      returndatacopy\n      revert(0x00, returndatasize)\n    tag_230:\n      pop\n      pop\n      pop\n      pop\n      mload(0x40)\n      returndatasize\n      not(0x1f)\n      0x1f\n      dup3\n      add\n      and\n      dup3\n      add\n      dup1\n      0x40\n      mstore\n      pop\n      dup2\n      add\n      swap1\n      tag_231\n      swap2\n      swap1\n      tag_162\n      jump\t// in\n    tag_231:\n      pop\n        /* \"contracts/SQFITEM/SQFI_Factory.sol\":4570:4731  if (token == address(0x0)) {... */\n    tag_226:\n        /* \"contracts/SQFITEM/SQFI_Factory.sol\":4455:4737  function withdraw(address token, uint256 amount)... */\n      pop\n      pop\n      pop\n      jump\t// out\n        /* \"contracts/SQFITEM/SQFI_Factory.sol\":942:973  uint256 public amount1 = 100e18 */\n    tag_115:\n      sload(0x17)\n      dup2\n      jump\t// out\n        /* \"contracts/SQFITEM/ERC165.sol\":763:918  function supportsInterface(bytes4 interfaceId) public view virtual override returns (bool) {... */\n    tag_120:\n        /* \"contracts/SQFITEM/ERC165.sol\":848:852  bool */\n      0x00\n        /* \"contracts/SQFITEM/ERC165.sol\":886:911  type(IERC165).interfaceId */\n      0x01ffc9a700000000000000000000000000000000000000000000000000000000\n        /* \"contracts/SQFITEM/ERC165.sol\":871:911  interfaceId == type(IERC165).interfaceId */\n      not(0xffffffffffffffffffffffffffffffffffffffffffffffffffffffff)\n      and\n        /* \"contracts/SQFITEM/ERC165.sol\":871:882  interfaceId */\n      dup3\n        /* \"contracts/SQFITEM/ERC165.sol\":871:911  interfaceId == type(IERC165).interfaceId */\n      not(0xffffffffffffffffffffffffffffffffffffffffffffffffffffffff)\n      and\n      eq\n        /* \"contracts/SQFITEM/ERC165.sol\":864:911  return interfaceId == type(IERC165).interfaceId */\n      swap1\n      pop\n        /* \"contracts/SQFITEM/ERC165.sol\":763:918  function supportsInterface(bytes4 interfaceId) public view virtual override returns (bool) {... */\n      swap2\n      swap1\n      pop\n      jump\t// out\n        /* \"contracts/SQFITEM/Context.sol\":587:683  function _msgSender() internal view virtual returns (address) {... */\n    tag_132:\n        /* \"contracts/SQFITEM/Context.sol\":640:647  address */\n      0x00\n        /* \"contracts/SQFITEM/Context.sol\":666:676  msg.sender */\n      caller\n        /* \"contracts/SQFITEM/Context.sol\":659:676  return msg.sender */\n      swap1\n      pop\n        /* \"contracts/SQFITEM/Context.sol\":587:683  function _msgSender() internal view virtual returns (address) {... */\n      swap1\n      jump\t// out\n        /* \"contracts/SQFITEM/AccessControl.sol\":3217:3701  function _checkRole(bytes32 role, address account) internal view {... */\n    tag_133:\n        /* \"contracts/SQFITEM/AccessControl.sol\":3297:3319  hasRole(role, account) */\n      tag_235\n        /* \"contracts/SQFITEM/AccessControl.sol\":3305:3309  role */\n      dup3\n        /* \"contracts/SQFITEM/AccessControl.sol\":3311:3318  account */\n      dup3\n        /* \"contracts/SQFITEM/AccessControl.sol\":3297:3304  hasRole */\n      tag_80\n        /* \"contracts/SQFITEM/AccessControl.sol\":3297:3319  hasRole(role, account) */\n      jump\t// in\n    tag_235:\n        /* \"contracts/SQFITEM/AccessControl.sol\":3292:3695  if (!hasRole(role, account)) {... */\n      tag_236\n      jumpi\n        /* \"contracts/SQFITEM/AccessControl.sol\":3480:3521  Strings.toHexString(uint160(account), 20) */\n      tag_237\n        /* \"contracts/SQFITEM/AccessControl.sol\":3508:3515  account */\n      dup2\n        /* \"contracts/SQFITEM/AccessControl.sol\":3480:3521  Strings.toHexString(uint160(account), 20) */\n      0xffffffffffffffffffffffffffffffffffffffff\n      and\n        /* \"contracts/SQFITEM/AccessControl.sol\":3518:3520  20 */\n      0x14\n        /* \"contracts/SQFITEM/AccessControl.sol\":3480:3499  Strings.toHexString */\n      tag_238\n        /* \"contracts/SQFITEM/AccessControl.sol\":3480:3521  Strings.toHexString(uint160(account), 20) */\n      jump\t// in\n    tag_237:\n        /* \"contracts/SQFITEM/AccessControl.sol\":3592:3630  Strings.toHexString(uint256(role), 32) */\n      tag_239\n        /* \"contracts/SQFITEM/AccessControl.sol\":3620:3624  role */\n      dup4\n        /* \"contracts/SQFITEM/AccessControl.sol\":3612:3625  uint256(role) */\n      0x00\n      shr\n        /* \"contracts/SQFITEM/AccessControl.sol\":3627:3629  32 */\n      0x20\n        /* \"contracts/SQFITEM/AccessControl.sol\":3592:3611  Strings.toHexString */\n      tag_238\n        /* \"contracts/SQFITEM/AccessControl.sol\":3592:3630  Strings.toHexString(uint256(role), 32) */\n      jump\t// in\n    tag_239:\n        /* \"contracts/SQFITEM/AccessControl.sol\":3387:3652  abi.encodePacked(... */\n      add(0x20, mload(0x40))\n      tag_240\n      swap3\n      swap2\n      swap1\n      tag_241\n      jump\t// in\n    tag_240:\n      mload(0x40)\n      0x20\n      dup2\n      dup4\n      sub\n      sub\n      dup2\n      mstore\n      swap1\n      0x40\n      mstore\n        /* \"contracts/SQFITEM/AccessControl.sol\":3335:3684  revert(... */\n      mload(0x40)\n      0x08c379a000000000000000000000000000000000000000000000000000000000\n      dup2\n      mstore\n      0x04\n      add\n      tag_242\n      swap2\n      swap1\n      tag_243\n      jump\t// in\n    tag_242:\n      mload(0x40)\n      dup1\n      swap2\n      sub\n      swap1\n      revert\n        /* \"contracts/SQFITEM/AccessControl.sol\":3292:3695  if (!hasRole(role, account)) {... */\n    tag_236:\n        /* \"contracts/SQFITEM/AccessControl.sol\":3217:3701  function _checkRole(bytes32 role, address account) internal view {... */\n      pop\n      pop\n      jump\t// out\n        /* \"contracts/SQFITEM/AccessControl.sol\":6537:6761  function _grantRole(bytes32 role, address account) private {... */\n    tag_136:\n        /* \"contracts/SQFITEM/AccessControl.sol\":6611:6633  hasRole(role, account) */\n      tag_245\n        /* \"contracts/SQFITEM/AccessControl.sol\":6619:6623  role */\n      dup3\n        /* \"contracts/SQFITEM/AccessControl.sol\":6625:6632  account */\n      dup3\n        /* \"contracts/SQFITEM/AccessControl.sol\":6611:6618  hasRole */\n      tag_80\n        /* \"contracts/SQFITEM/AccessControl.sol\":6611:6633  hasRole(role, account) */\n      jump\t// in\n    tag_245:\n        /* \"contracts/SQFITEM/AccessControl.sol\":6606:6755  if (!hasRole(role, account)) {... */\n      tag_246\n      jumpi\n        /* \"contracts/SQFITEM/AccessControl.sol\":6681:6685  true */\n      0x01\n        /* \"contracts/SQFITEM/AccessControl.sol\":6649:6655  _roles */\n      dup1\n        /* \"contracts/SQFITEM/AccessControl.sol\":6649:6661  _roles[role] */\n      0x00\n        /* \"contracts/SQFITEM/AccessControl.sol\":6656:6660  role */\n      dup5\n        /* \"contracts/SQFITEM/AccessControl.sol\":6649:6661  _roles[role] */\n      dup2\n      mstore\n      0x20\n      add\n      swap1\n      dup2\n      mstore\n      0x20\n      add\n      0x00\n      keccak256\n        /* \"contracts/SQFITEM/AccessControl.sol\":6649:6669  _roles[role].members */\n      0x00\n      add\n        /* \"contracts/SQFITEM/AccessControl.sol\":6649:6678  _roles[role].members[account] */\n      0x00\n        /* \"contracts/SQFITEM/AccessControl.sol\":6670:6677  account */\n      dup4\n        /* \"contracts/SQFITEM/AccessControl.sol\":6649:6678  _roles[role].members[account] */\n      0xffffffffffffffffffffffffffffffffffffffff\n      and\n      0xffffffffffffffffffffffffffffffffffffffff\n      and\n      dup2\n      mstore\n      0x20\n      add\n      swap1\n      dup2\n      mstore\n      0x20\n      add\n      0x00\n      keccak256\n      0x00\n        /* \"contracts/SQFITEM/AccessControl.sol\":6649:6685  _roles[role].members[account] = true */\n      0x0100\n      exp\n      dup2\n      sload\n      dup2\n      0xff\n      mul\n      not\n      and\n      swap1\n      dup4\n      iszero\n      iszero\n      mul\n      or\n      swap1\n      sstore\n      pop\n        /* \"contracts/SQFITEM/AccessControl.sol\":6731:6743  _msgSender() */\n      tag_247\n        /* \"contracts/SQFITEM/AccessControl.sol\":6731:6741  _msgSender */\n      tag_132\n        /* \"contracts/SQFITEM/AccessControl.sol\":6731:6743  _msgSender() */\n      jump\t// in\n    tag_247:\n        /* \"contracts/SQFITEM/AccessControl.sol\":6704:6744  RoleGranted(role, account, _msgSender()) */\n      0xffffffffffffffffffffffffffffffffffffffff\n      and\n        /* \"contracts/SQFITEM/AccessControl.sol\":6722:6729  account */\n      dup2\n        /* \"contracts/SQFITEM/AccessControl.sol\":6704:6744  RoleGranted(role, account, _msgSender()) */\n      0xffffffffffffffffffffffffffffffffffffffff\n      and\n        /* \"contracts/SQFITEM/AccessControl.sol\":6716:6720  role */\n      dup4\n        /* \"contracts/SQFITEM/AccessControl.sol\":6704:6744  RoleGranted(role, account, _msgSender()) */\n      0x2f8788117e7eff1d82e926ec794901d17c78024a50270940304540a733656f0d\n      mload(0x40)\n      mload(0x40)\n      dup1\n      swap2\n      sub\n      swap1\n      log4\n        /* \"contracts/SQFITEM/AccessControl.sol\":6606:6755  if (!hasRole(role, account)) {... */\n    tag_246:\n        /* \"contracts/SQFITEM/AccessControl.sol\":6537:6761  function _grantRole(bytes32 role, address account) private {... */\n      pop\n      pop\n      jump\t// out\n        /* \"contracts/SQFITEM/AccessControl.sol\":6767:6992  function _revokeRole(bytes32 role, address account) private {... */\n    tag_143:\n        /* \"contracts/SQFITEM/AccessControl.sol\":6841:6863  hasRole(role, account) */\n      tag_249\n        /* \"contracts/SQFITEM/AccessControl.sol\":6849:6853  role */\n      dup3\n        /* \"contracts/SQFITEM/AccessControl.sol\":6855:6862  account */\n      dup3\n        /* \"contracts/SQFITEM/AccessControl.sol\":6841:6848  hasRole */\n      tag_80\n        /* \"contracts/SQFITEM/AccessControl.sol\":6841:6863  hasRole(role, account) */\n      jump\t// in\n    tag_249:\n        /* \"contracts/SQFITEM/AccessControl.sol\":6837:6986  if (hasRole(role, account)) {... */\n      iszero\n      tag_250\n      jumpi\n        /* \"contracts/SQFITEM/AccessControl.sol\":6911:6916  false */\n      0x00\n        /* \"contracts/SQFITEM/AccessControl.sol\":6879:6885  _roles */\n      0x01\n        /* \"contracts/SQFITEM/AccessControl.sol\":6879:6891  _roles[role] */\n      0x00\n        /* \"contracts/SQFITEM/AccessControl.sol\":6886:6890  role */\n      dup5\n        /* \"contracts/SQFITEM/AccessControl.sol\":6879:6891  _roles[role] */\n      dup2\n      mstore\n      0x20\n      add\n      swap1\n      dup2\n      mstore\n      0x20\n      add\n      0x00\n      keccak256\n        /* \"contracts/SQFITEM/AccessControl.sol\":6879:6899  _roles[role].members */\n      0x00\n      add\n        /* \"contracts/SQFITEM/AccessControl.sol\":6879:6908  _roles[role].members[account] */\n      0x00\n        /* \"contracts/SQFITEM/AccessControl.sol\":6900:6907  account */\n      dup4\n        /* \"contracts/SQFITEM/AccessControl.sol\":6879:6908  _roles[role].members[account] */\n      0xffffffffffffffffffffffffffffffffffffffff\n      and\n      0xffffffffffffffffffffffffffffffffffffffff\n      and\n      dup2\n      mstore\n      0x20\n      add\n      swap1\n      dup2\n      mstore\n      0x20\n      add\n      0x00\n      keccak256\n      0x00\n        /* \"contracts/SQFITEM/AccessControl.sol\":6879:6916  _roles[role].members[account] = false */\n      0x0100\n      exp\n      dup2\n      sload\n      dup2\n      0xff\n      mul\n      not\n      and\n      swap1\n      dup4\n      iszero\n      iszero\n      mul\n      or\n      swap1\n      sstore\n      pop\n        /* \"contracts/SQFITEM/AccessControl.sol\":6962:6974  _msgSender() */\n      tag_251\n        /* \"contracts/SQFITEM/AccessControl.sol\":6962:6972  _msgSender */\n      tag_132\n        /* \"contracts/SQFITEM/AccessControl.sol\":6962:6974  _msgSender() */\n      jump\t// in\n    tag_251:\n        /* \"contracts/SQFITEM/AccessControl.sol\":6935:6975  RoleRevoked(role, account, _msgSender()) */\n      0xffffffffffffffffffffffffffffffffffffffff\n      and\n        /* \"contracts/SQFITEM/AccessControl.sol\":6953:6960  account */\n      dup2\n        /* \"contracts/SQFITEM/AccessControl.sol\":6935:6975  RoleRevoked(role, account, _msgSender()) */\n      0xffffffffffffffffffffffffffffffffffffffff\n      and\n        /* \"contracts/SQFITEM/AccessControl.sol\":6947:6951  role */\n      dup4\n        /* \"contracts/SQFITEM/AccessControl.sol\":6935:6975  RoleRevoked(role, account, _msgSender()) */\n      0xf6391f5c32d9c69d2a47ea670b442974b53935d1edc7fd64eb21e047a839171b\n      mload(0x40)\n      mload(0x40)\n      dup1\n      swap2\n      sub\n      swap1\n      log4\n        /* \"contracts/SQFITEM/AccessControl.sol\":6837:6986  if (hasRole(role, account)) {... */\n    tag_250:\n        /* \"contracts/SQFITEM/AccessControl.sol\":6767:6992  function _revokeRole(bytes32 role, address account) private {... */\n      pop\n      pop\n      jump\t// out\n        /* \"contracts/SQFITEM/Strings.sol\":1535:1976  function toHexString(uint256 value, uint256 length) internal pure returns (string memory) {... */\n    tag_238:\n        /* \"contracts/SQFITEM/Strings.sol\":1610:1623  string memory */\n      0x60\n        /* \"contracts/SQFITEM/Strings.sol\":1635:1654  bytes memory buffer */\n      0x00\n        /* \"contracts/SQFITEM/Strings.sol\":1680:1681  2 */\n      0x02\n        /* \"contracts/SQFITEM/Strings.sol\":1671:1677  length */\n      dup4\n        /* \"contracts/SQFITEM/Strings.sol\":1667:1668  2 */\n      0x02\n        /* \"contracts/SQFITEM/Strings.sol\":1667:1677  2 * length */\n      tag_253\n      swap2\n      swap1\n      tag_200\n      jump\t// in\n    tag_253:\n        /* \"contracts/SQFITEM/Strings.sol\":1667:1681  2 * length + 2 */\n      tag_254\n      swap2\n      swap1\n      tag_206\n      jump\t// in\n    tag_254:\n        /* \"contracts/SQFITEM/Strings.sol\":1657:1682  new bytes(2 * length + 2) */\n      0xffffffffffffffff\n      dup2\n      gt\n      iszero\n      tag_255\n      jumpi\n      tag_256\n      tag_257\n      jump\t// in\n    tag_256:\n    tag_255:\n      mload(0x40)\n      swap1\n      dup1\n      dup3\n      mstore\n      dup1\n      0x1f\n      add\n      not(0x1f)\n      and\n      0x20\n      add\n      dup3\n      add\n      0x40\n      mstore\n      dup1\n      iszero\n      tag_258\n      jumpi\n      dup2\n      0x20\n      add\n      0x01\n      dup3\n      mul\n      dup1\n      calldatasize\n      dup4\n      calldatacopy\n      dup1\n      dup3\n      add\n      swap2\n      pop\n      pop\n      swap1\n      pop\n    tag_258:\n      pop\n        /* \"contracts/SQFITEM/Strings.sol\":1635:1682  bytes memory buffer = new bytes(2 * length + 2) */\n      swap1\n      pop\n        /* \"contracts/SQFITEM/Strings.sol\":1692:1707  buffer[0] = \"0\" */\n      0x3000000000000000000000000000000000000000000000000000000000000000\n        /* \"contracts/SQFITEM/Strings.sol\":1692:1698  buffer */\n      dup2\n        /* \"contracts/SQFITEM/Strings.sol\":1699:1700  0 */\n      0x00\n        /* \"contracts/SQFITEM/Strings.sol\":1692:1701  buffer[0] */\n      dup2\n      mload\n      dup2\n      lt\n      tag_259\n      jumpi\n      tag_260\n      tag_198\n      jump\t// in\n    tag_260:\n    tag_259:\n      0x20\n      add\n      add\n        /* \"contracts/SQFITEM/Strings.sol\":1692:1707  buffer[0] = \"0\" */\n      swap1\n      not(0xffffffffffffffffffffffffffffffffffffffffffffffffffffffffffffff)\n      and\n      swap1\n      dup2\n      0x00\n      byte\n      swap1\n      mstore8\n      pop\n        /* \"contracts/SQFITEM/Strings.sol\":1717:1732  buffer[1] = \"x\" */\n      0x7800000000000000000000000000000000000000000000000000000000000000\n        /* \"contracts/SQFITEM/Strings.sol\":1717:1723  buffer */\n      dup2\n        /* \"contracts/SQFITEM/Strings.sol\":1724:1725  1 */\n      0x01\n        /* \"contracts/SQFITEM/Strings.sol\":1717:1726  buffer[1] */\n      dup2\n      mload\n      dup2\n      lt\n      tag_261\n      jumpi\n      tag_262\n      tag_198\n      jump\t// in\n    tag_262:\n    tag_261:\n      0x20\n      add\n      add\n        /* \"contracts/SQFITEM/Strings.sol\":1717:1732  buffer[1] = \"x\" */\n      swap1\n      not(0xffffffffffffffffffffffffffffffffffffffffffffffffffffffffffffff)\n      and\n      swap1\n      dup2\n      0x00\n      byte\n      swap1\n      mstore8\n      pop\n        /* \"contracts/SQFITEM/Strings.sol\":1747:1756  uint256 i */\n      0x00\n        /* \"contracts/SQFITEM/Strings.sol\":1772:1773  1 */\n      0x01\n        /* \"contracts/SQFITEM/Strings.sol\":1763:1769  length */\n      dup5\n        /* \"contracts/SQFITEM/Strings.sol\":1759:1760  2 */\n      0x02\n        /* \"contracts/SQFITEM/Strings.sol\":1759:1769  2 * length */\n      tag_266\n      swap2\n      swap1\n      tag_200\n      jump\t// in\n    tag_266:\n        /* \"contracts/SQFITEM/Strings.sol\":1759:1773  2 * length + 1 */\n      tag_267\n      swap2\n      swap1\n      tag_206\n      jump\t// in\n    tag_267:\n        /* \"contracts/SQFITEM/Strings.sol\":1747:1773  uint256 i = 2 * length + 1 */\n      swap1\n      pop\n        /* \"contracts/SQFITEM/Strings.sol\":1742:1874  for (uint256 i = 2 * length + 1; i > 1; --i) {... */\n    tag_263:\n        /* \"contracts/SQFITEM/Strings.sol\":1779:1780  1 */\n      0x01\n        /* \"contracts/SQFITEM/Strings.sol\":1775:1776  i */\n      dup2\n        /* \"contracts/SQFITEM/Strings.sol\":1775:1780  i > 1 */\n      gt\n        /* \"contracts/SQFITEM/Strings.sol\":1742:1874  for (uint256 i = 2 * length + 1; i > 1; --i) {... */\n      iszero\n      tag_264\n      jumpi\n        /* \"contracts/SQFITEM/Strings.sol\":1813:1825  _HEX_SYMBOLS */\n      0x3031323334353637383961626364656600000000000000000000000000000000\n        /* \"contracts/SQFITEM/Strings.sol\":1834:1837  0xf */\n      0x0f\n        /* \"contracts/SQFITEM/Strings.sol\":1826:1831  value */\n      dup7\n        /* \"contracts/SQFITEM/Strings.sol\":1826:1837  value & 0xf */\n      and\n        /* \"contracts/SQFITEM/Strings.sol\":1813:1838  _HEX_SYMBOLS[value & 0xf] */\n      0x10\n      dup2\n      lt\n      tag_268\n      jumpi\n      tag_269\n      tag_198\n      jump\t// in\n    tag_269:\n    tag_268:\n      byte\n      0xf8\n      shl\n        /* \"contracts/SQFITEM/Strings.sol\":1801:1807  buffer */\n      dup3\n        /* \"contracts/SQFITEM/Strings.sol\":1808:1809  i */\n      dup3\n        /* \"contracts/SQFITEM/Strings.sol\":1801:1810  buffer[i] */\n      dup2\n      mload\n      dup2\n      lt\n      tag_270\n      jumpi\n      tag_271\n      tag_198\n      jump\t// in\n    tag_271:\n    tag_270:\n      0x20\n      add\n      add\n        /* \"contracts/SQFITEM/Strings.sol\":1801:1838  buffer[i] = _HEX_SYMBOLS[value & 0xf] */\n      swap1\n      not(0xffffffffffffffffffffffffffffffffffffffffffffffffffffffffffffff)\n      and\n      swap1\n      dup2\n      0x00\n      byte\n      swap1\n      mstore8\n      pop\n        /* \"contracts/SQFITEM/Strings.sol\":1862:1863  4 */\n      0x04\n        /* \"contracts/SQFITEM/Strings.sol\":1852:1863  value >>= 4 */\n      dup6\n      swap1\n      shr\n      swap5\n      pop\n        /* \"contracts/SQFITEM/Strings.sol\":1782:1785  --i */\n      dup1\n      tag_272\n      swap1\n      tag_273\n      jump\t// in\n    tag_272:\n      swap1\n      pop\n        /* \"contracts/SQFITEM/Strings.sol\":1742:1874  for (uint256 i = 2 * length + 1; i > 1; --i) {... */\n      jump(tag_263)\n    tag_264:\n      pop\n        /* \"contracts/SQFITEM/Strings.sol\":1900:1901  0 */\n      0x00\n        /* \"contracts/SQFITEM/Strings.sol\":1891:1896  value */\n      dup5\n        /* \"contracts/SQFITEM/Strings.sol\":1891:1901  value == 0 */\n      eq\n        /* \"contracts/SQFITEM/Strings.sol\":1883:1938  require(value == 0, \"Strings: hex length insufficient\") */\n      tag_274\n      jumpi\n      mload(0x40)\n      0x08c379a000000000000000000000000000000000000000000000000000000000\n      dup2\n      mstore\n      0x04\n      add\n      tag_275\n      swap1\n      tag_276\n      jump\t// in\n    tag_275:\n      mload(0x40)\n      dup1\n      swap2\n      sub\n      swap1\n      revert\n    tag_274:\n        /* \"contracts/SQFITEM/Strings.sol\":1962:1968  buffer */\n      dup1\n        /* \"contracts/SQFITEM/Strings.sol\":1948:1969  return string(buffer) */\n      swap2\n      pop\n      pop\n        /* \"contracts/SQFITEM/Strings.sol\":1535:1976  function toHexString(uint256 value, uint256 length) internal pure returns (string memory) {... */\n      swap3\n      swap2\n      pop\n      pop\n      jump\t// out\n    tag_185:\n      mload(0x40)\n      dup1\n      0x0200\n      add\n      0x40\n      mstore\n      dup1\n      0x10\n      swap1\n      0x20\n      dup3\n      mul\n      dup1\n      calldatasize\n      dup4\n      calldatacopy\n      dup1\n      dup3\n      add\n      swap2\n      pop\n      pop\n      swap1\n      pop\n      pop\n      swap1\n      jump\t// out\n        /* \"#utility.yul\":7:82   */\n    tag_277:\n        /* \"#utility.yul\":40:46   */\n      0x00\n        /* \"#utility.yul\":73:75   */\n      0x40\n        /* \"#utility.yul\":67:76   */\n      mload\n        /* \"#utility.yul\":57:76   */\n      swap1\n      pop\n        /* \"#utility.yul\":7:82   */\n      swap1\n      jump\t// out\n        /* \"#utility.yul\":88:205   */\n    tag_278:\n        /* \"#utility.yul\":197:198   */\n      0x00\n        /* \"#utility.yul\":194:195   */\n      dup1\n        /* \"#utility.yul\":187:199   */\n      revert\n        /* \"#utility.yul\":211:328   */\n    tag_279:\n        /* \"#utility.yul\":320:321   */\n      0x00\n        /* \"#utility.yul\":317:318   */\n      dup1\n        /* \"#utility.yul\":310:322   */\n      revert\n        /* \"#utility.yul\":334:483   */\n    tag_280:\n        /* \"#utility.yul\":370:377   */\n      0x00\n        /* \"#utility.yul\":410:476   */\n      0xffffffff00000000000000000000000000000000000000000000000000000000\n        /* \"#utility.yul\":403:408   */\n      dup3\n        /* \"#utility.yul\":399:477   */\n      and\n        /* \"#utility.yul\":388:477   */\n      swap1\n      pop\n        /* \"#utility.yul\":334:483   */\n      swap2\n      swap1\n      pop\n      jump\t// out\n        /* \"#utility.yul\":489:609   */\n    tag_281:\n        /* \"#utility.yul\":561:584   */\n      tag_352\n        /* \"#utility.yul\":578:583   */\n      dup2\n        /* \"#utility.yul\":561:584   */\n      tag_280\n      jump\t// in\n    tag_352:\n        /* \"#utility.yul\":554:559   */\n      dup2\n        /* \"#utility.yul\":551:585   */\n      eq\n        /* \"#utility.yul\":541:603   */\n      tag_353\n      jumpi\n        /* \"#utility.yul\":599:600   */\n      0x00\n        /* \"#utility.yul\":596:597   */\n      dup1\n        /* \"#utility.yul\":589:601   */\n      revert\n        /* \"#utility.yul\":541:603   */\n    tag_353:\n        /* \"#utility.yul\":489:609   */\n      pop\n      jump\t// out\n        /* \"#utility.yul\":615:752   */\n    tag_282:\n        /* \"#utility.yul\":660:665   */\n      0x00\n        /* \"#utility.yul\":698:704   */\n      dup2\n        /* \"#utility.yul\":685:705   */\n      calldataload\n        /* \"#utility.yul\":676:705   */\n      swap1\n      pop\n        /* \"#utility.yul\":714:746   */\n      tag_355\n        /* \"#utility.yul\":740:745   */\n      dup2\n        /* \"#utility.yul\":714:746   */\n      tag_281\n      jump\t// in\n    tag_355:\n        /* \"#utility.yul\":615:752   */\n      swap3\n      swap2\n      pop\n      pop\n      jump\t// out\n        /* \"#utility.yul\":758:1085   */\n    tag_31:\n        /* \"#utility.yul\":816:822   */\n      0x00\n        /* \"#utility.yul\":865:867   */\n      0x20\n        /* \"#utility.yul\":853:862   */\n      dup3\n        /* \"#utility.yul\":844:851   */\n      dup5\n        /* \"#utility.yul\":840:863   */\n      sub\n        /* \"#utility.yul\":836:868   */\n      slt\n        /* \"#utility.yul\":833:952   */\n      iszero\n      tag_357\n      jumpi\n        /* \"#utility.yul\":871:950   */\n      tag_358\n      tag_278\n      jump\t// in\n    tag_358:\n        /* \"#utility.yul\":833:952   */\n    tag_357:\n        /* \"#utility.yul\":991:992   */\n      0x00\n        /* \"#utility.yul\":1016:1068   */\n      tag_359\n        /* \"#utility.yul\":1060:1067   */\n      dup5\n        /* \"#utility.yul\":1051:1057   */\n      dup3\n        /* \"#utility.yul\":1040:1049   */\n      dup6\n        /* \"#utility.yul\":1036:1058   */\n      add\n        /* \"#utility.yul\":1016:1068   */\n      tag_282\n      jump\t// in\n    tag_359:\n        /* \"#utility.yul\":1006:1068   */\n      swap2\n      pop\n        /* \"#utility.yul\":962:1078   */\n      pop\n        /* \"#utility.yul\":758:1085   */\n      swap3\n      swap2\n      pop\n      pop\n      jump\t// out\n        /* \"#utility.yul\":1091:1181   */\n    tag_283:\n        /* \"#utility.yul\":1125:1132   */\n      0x00\n        /* \"#utility.yul\":1168:1173   */\n      dup2\n        /* \"#utility.yul\":1161:1174   */\n      iszero\n        /* \"#utility.yul\":1154:1175   */\n      iszero\n        /* \"#utility.yul\":1143:1175   */\n      swap1\n      pop\n        /* \"#utility.yul\":1091:1181   */\n      swap2\n      swap1\n      pop\n      jump\t// out\n        /* \"#utility.yul\":1187:1296   */\n    tag_284:\n        /* \"#utility.yul\":1268:1289   */\n      tag_362\n        /* \"#utility.yul\":1283:1288   */\n      dup2\n        /* \"#utility.yul\":1268:1289   */\n      tag_283\n      jump\t// in\n    tag_362:\n        /* \"#utility.yul\":1263:1266   */\n      dup3\n        /* \"#utility.yul\":1256:1290   */\n      mstore\n        /* \"#utility.yul\":1187:1296   */\n      pop\n      pop\n      jump\t// out\n        /* \"#utility.yul\":1302:1512   */\n    tag_34:\n        /* \"#utility.yul\":1389:1393   */\n      0x00\n        /* \"#utility.yul\":1427:1429   */\n      0x20\n        /* \"#utility.yul\":1416:1425   */\n      dup3\n        /* \"#utility.yul\":1412:1430   */\n      add\n        /* \"#utility.yul\":1404:1430   */\n      swap1\n      pop\n        /* \"#utility.yul\":1440:1505   */\n      tag_364\n        /* \"#utility.yul\":1502:1503   */\n      0x00\n        /* \"#utility.yul\":1491:1500   */\n      dup4\n        /* \"#utility.yul\":1487:1504   */\n      add\n        /* \"#utility.yul\":1478:1484   */\n      dup5\n        /* \"#utility.yul\":1440:1505   */\n      tag_284\n      jump\t// in\n    tag_364:\n        /* \"#utility.yul\":1302:1512   */\n      swap3\n      swap2\n      pop\n      pop\n      jump\t// out\n        /* \"#utility.yul\":1518:1595   */\n    tag_285:\n        /* \"#utility.yul\":1555:1562   */\n      0x00\n        /* \"#utility.yul\":1584:1589   */\n      dup2\n        /* \"#utility.yul\":1573:1589   */\n      swap1\n      pop\n        /* \"#utility.yul\":1518:1595   */\n      swap2\n      swap1\n      pop\n      jump\t// out\n        /* \"#utility.yul\":1601:1719   */\n    tag_286:\n        /* \"#utility.yul\":1688:1712   */\n      tag_367\n        /* \"#utility.yul\":1706:1711   */\n      dup2\n        /* \"#utility.yul\":1688:1712   */\n      tag_285\n      jump\t// in\n    tag_367:\n        /* \"#utility.yul\":1683:1686   */\n      dup3\n        /* \"#utility.yul\":1676:1713   */\n      mstore\n        /* \"#utility.yul\":1601:1719   */\n      pop\n      pop\n      jump\t// out\n        /* \"#utility.yul\":1725:1947   */\n    tag_38:\n        /* \"#utility.yul\":1818:1822   */\n      0x00\n        /* \"#utility.yul\":1856:1858   */\n      0x20\n        /* \"#utility.yul\":1845:1854   */\n      dup3\n        /* \"#utility.yul\":1841:1859   */\n      add\n        /* \"#utility.yul\":1833:1859   */\n      swap1\n      pop\n        /* \"#utility.yul\":1869:1940   */\n      tag_369\n        /* \"#utility.yul\":1937:1938   */\n      0x00\n        /* \"#utility.yul\":1926:1935   */\n      dup4\n        /* \"#utility.yul\":1922:1939   */\n      add\n        /* \"#utility.yul\":1913:1919   */\n      dup5\n        /* \"#utility.yul\":1869:1940   */\n      tag_286\n      jump\t// in\n    tag_369:\n        /* \"#utility.yul\":1725:1947   */\n      swap3\n      swap2\n      pop\n      pop\n      jump\t// out\n        /* \"#utility.yul\":1953:2075   */\n    tag_287:\n        /* \"#utility.yul\":2026:2050   */\n      tag_371\n        /* \"#utility.yul\":2044:2049   */\n      dup2\n        /* \"#utility.yul\":2026:2050   */\n      tag_285\n      jump\t// in\n    tag_371:\n        /* \"#utility.yul\":2019:2024   */\n      dup2\n        /* \"#utility.yul\":2016:2051   */\n      eq\n        /* \"#utility.yul\":2006:2069   */\n      tag_372\n      jumpi\n        /* \"#utility.yul\":2065:2066   */\n      0x00\n        /* \"#utility.yul\":2062:2063   */\n      dup1\n        /* \"#utility.yul\":2055:2067   */\n      revert\n        /* \"#utility.yul\":2006:2069   */\n    tag_372:\n        /* \"#utility.yul\":1953:2075   */\n      pop\n      jump\t// out\n        /* \"#utility.yul\":2081:2220   */\n    tag_288:\n        /* \"#utility.yul\":2127:2132   */\n      0x00\n        /* \"#utility.yul\":2165:2171   */\n      dup2\n        /* \"#utility.yul\":2152:2172   */\n      calldataload\n        /* \"#utility.yul\":2143:2172   */\n      swap1\n      pop\n        /* \"#utility.yul\":2181:2214   */\n      tag_374\n        /* \"#utility.yul\":2208:2213   */\n      dup2\n        /* \"#utility.yul\":2181:2214   */\n      tag_287\n      jump\t// in\n    tag_374:\n        /* \"#utility.yul\":2081:2220   */\n      swap3\n      swap2\n      pop\n      pop\n      jump\t// out\n        /* \"#utility.yul\":2226:2555   */\n    tag_41:\n        /* \"#utility.yul\":2285:2291   */\n      0x00\n        /* \"#utility.yul\":2334:2336   */\n      0x20\n        /* \"#utility.yul\":2322:2331   */\n      dup3\n        /* \"#utility.yul\":2313:2320   */\n      dup5\n        /* \"#utility.yul\":2309:2332   */\n      sub\n        /* \"#utility.yul\":2305:2337   */\n      slt\n        /* \"#utility.yul\":2302:2421   */\n      iszero\n      tag_376\n      jumpi\n        /* \"#utility.yul\":2340:2419   */\n      tag_377\n      tag_278\n      jump\t// in\n    tag_377:\n        /* \"#utility.yul\":2302:2421   */\n    tag_376:\n        /* \"#utility.yul\":2460:2461   */\n      0x00\n        /* \"#utility.yul\":2485:2538   */\n      tag_378\n        /* \"#utility.yul\":2530:2537   */\n      dup5\n        /* \"#utility.yul\":2521:2527   */\n      dup3\n        /* \"#utility.yul\":2510:2519   */\n      dup6\n        /* \"#utility.yul\":2506:2528   */\n      add\n        /* \"#utility.yul\":2485:2538   */\n      tag_288\n      jump\t// in\n    tag_378:\n        /* \"#utility.yul\":2475:2538   */\n      swap2\n      pop\n        /* \"#utility.yul\":2431:2548   */\n      pop\n        /* \"#utility.yul\":2226:2555   */\n      swap3\n      swap2\n      pop\n      pop\n      jump\t// out\n        /* \"#utility.yul\":2561:2638   */\n    tag_289:\n        /* \"#utility.yul\":2598:2605   */\n      0x00\n        /* \"#utility.yul\":2627:2632   */\n      dup2\n        /* \"#utility.yul\":2616:2632   */\n      swap1\n      pop\n        /* \"#utility.yul\":2561:2638   */\n      swap2\n      swap1\n      pop\n      jump\t// out\n        /* \"#utility.yul\":2644:2766   */\n    tag_290:\n        /* \"#utility.yul\":2717:2741   */\n      tag_381\n        /* \"#utility.yul\":2735:2740   */\n      dup2\n        /* \"#utility.yul\":2717:2741   */\n      tag_289\n      jump\t// in\n    tag_381:\n        /* \"#utility.yul\":2710:2715   */\n      dup2\n        /* \"#utility.yul\":2707:2742   */\n      eq\n        /* \"#utility.yul\":2697:2760   */\n      tag_382\n      jumpi\n        /* \"#utility.yul\":2756:2757   */\n      0x00\n        /* \"#utility.yul\":2753:2754   */\n      dup1\n        /* \"#utility.yul\":2746:2758   */\n      revert\n        /* \"#utility.yul\":2697:2760   */\n    tag_382:\n        /* \"#utility.yul\":2644:2766   */\n      pop\n      jump\t// out\n        /* \"#utility.yul\":2772:2911   */\n    tag_291:\n        /* \"#utility.yul\":2818:2823   */\n      0x00\n        /* \"#utility.yul\":2856:2862   */\n      dup2\n        /* \"#utility.yul\":2843:2863   */\n      calldataload\n        /* \"#utility.yul\":2834:2863   */\n      swap1\n      pop\n        /* \"#utility.yul\":2872:2905   */\n      tag_384\n        /* \"#utility.yul\":2899:2904   */\n      dup2\n        /* \"#utility.yul\":2872:2905   */\n      tag_290\n      jump\t// in\n    tag_384:\n        /* \"#utility.yul\":2772:2911   */\n      swap3\n      swap2\n      pop\n      pop\n      jump\t// out\n        /* \"#utility.yul\":2917:3246   */\n    tag_48:\n        /* \"#utility.yul\":2976:2982   */\n      0x00\n        /* \"#utility.yul\":3025:3027   */\n      0x20\n        /* \"#utility.yul\":3013:3022   */\n      dup3\n        /* \"#utility.yul\":3004:3011   */\n      dup5\n        /* \"#utility.yul\":3000:3023   */\n      sub\n        /* \"#utility.yul\":2996:3028   */\n      slt\n        /* \"#utility.yul\":2993:3112   */\n      iszero\n      tag_386\n      jumpi\n        /* \"#utility.yul\":3031:3110   */\n      tag_387\n      tag_278\n      jump\t// in\n    tag_387:\n        /* \"#utility.yul\":2993:3112   */\n    tag_386:\n        /* \"#utility.yul\":3151:3152   */\n      0x00\n        /* \"#utility.yul\":3176:3229   */\n      tag_388\n        /* \"#utility.yul\":3221:3228   */\n      dup5\n        /* \"#utility.yul\":3212:3218   */\n      dup3\n        /* \"#utility.yul\":3201:3210   */\n      dup6\n        /* \"#utility.yul\":3197:3219   */\n      add\n        /* \"#utility.yul\":3176:3229   */\n      tag_291\n      jump\t// in\n    tag_388:\n        /* \"#utility.yul\":3166:3229   */\n      swap2\n      pop\n        /* \"#utility.yul\":3122:3239   */\n      pop\n        /* \"#utility.yul\":2917:3246   */\n      swap3\n      swap2\n      pop\n      pop\n      jump\t// out\n        /* \"#utility.yul\":3252:3370   */\n    tag_292:\n        /* \"#utility.yul\":3339:3363   */\n      tag_390\n        /* \"#utility.yul\":3357:3362   */\n      dup2\n        /* \"#utility.yul\":3339:3363   */\n      tag_289\n      jump\t// in\n    tag_390:\n        /* \"#utility.yul\":3334:3337   */\n      dup3\n        /* \"#utility.yul\":3327:3364   */\n      mstore\n        /* \"#utility.yul\":3252:3370   */\n      pop\n      pop\n      jump\t// out\n        /* \"#utility.yul\":3376:3598   */\n    tag_51:\n        /* \"#utility.yul\":3469:3473   */\n      0x00\n        /* \"#utility.yul\":3507:3509   */\n      0x20\n        /* \"#utility.yul\":3496:3505   */\n      dup3\n        /* \"#utility.yul\":3492:3510   */\n      add\n        /* \"#utility.yul\":3484:3510   */\n      swap1\n      pop\n        /* \"#utility.yul\":3520:3591   */\n      tag_392\n        /* \"#utility.yul\":3588:3589   */\n      0x00\n        /* \"#utility.yul\":3577:3586   */\n      dup4\n        /* \"#utility.yul\":3573:3590   */\n      add\n        /* \"#utility.yul\":3564:3570   */\n      dup5\n        /* \"#utility.yul\":3520:3591   */\n      tag_292\n      jump\t// in\n    tag_392:\n        /* \"#utility.yul\":3376:3598   */\n      swap3\n      swap2\n      pop\n      pop\n      jump\t// out\n        /* \"#utility.yul\":3604:3730   */\n    tag_293:\n        /* \"#utility.yul\":3641:3648   */\n      0x00\n        /* \"#utility.yul\":3681:3723   */\n      0xffffffffffffffffffffffffffffffffffffffff\n        /* \"#utility.yul\":3674:3679   */\n      dup3\n        /* \"#utility.yul\":3670:3724   */\n      and\n        /* \"#utility.yul\":3659:3724   */\n      swap1\n      pop\n        /* \"#utility.yul\":3604:3730   */\n      swap2\n      swap1\n      pop\n      jump\t// out\n        /* \"#utility.yul\":3736:3832   */\n    tag_294:\n        /* \"#utility.yul\":3773:3780   */\n      0x00\n        /* \"#utility.yul\":3802:3826   */\n      tag_395\n        /* \"#utility.yul\":3820:3825   */\n      dup3\n        /* \"#utility.yul\":3802:3826   */\n      tag_293\n      jump\t// in\n    tag_395:\n        /* \"#utility.yul\":3791:3826   */\n      swap1\n      pop\n        /* \"#utility.yul\":3736:3832   */\n      swap2\n      swap1\n      pop\n      jump\t// out\n        /* \"#utility.yul\":3838:3960   */\n    tag_295:\n        /* \"#utility.yul\":3911:3935   */\n      tag_397\n        /* \"#utility.yul\":3929:3934   */\n      dup2\n        /* \"#utility.yul\":3911:3935   */\n      tag_294\n      jump\t// in\n    tag_397:\n        /* \"#utility.yul\":3904:3909   */\n      dup2\n        /* \"#utility.yul\":3901:3936   */\n      eq\n        /* \"#utility.yul\":3891:3954   */\n      tag_398\n      jumpi\n        /* \"#utility.yul\":3950:3951   */\n      0x00\n        /* \"#utility.yul\":3947:3948   */\n      dup1\n        /* \"#utility.yul\":3940:3952   */\n      revert\n        /* \"#utility.yul\":3891:3954   */\n    tag_398:\n        /* \"#utility.yul\":3838:3960   */\n      pop\n      jump\t// out\n        /* \"#utility.yul\":3966:4105   */\n    tag_296:\n        /* \"#utility.yul\":4012:4017   */\n      0x00\n        /* \"#utility.yul\":4050:4056   */\n      dup2\n        /* \"#utility.yul\":4037:4057   */\n      calldataload\n        /* \"#utility.yul\":4028:4057   */\n      swap1\n      pop\n        /* \"#utility.yul\":4066:4099   */\n      tag_400\n        /* \"#utility.yul\":4093:4098   */\n      dup2\n        /* \"#utility.yul\":4066:4099   */\n      tag_295\n      jump\t// in\n    tag_400:\n        /* \"#utility.yul\":3966:4105   */\n      swap3\n      swap2\n      pop\n      pop\n      jump\t// out\n        /* \"#utility.yul\":4111:4585   */\n    tag_54:\n        /* \"#utility.yul\":4179:4185   */\n      0x00\n        /* \"#utility.yul\":4187:4193   */\n      dup1\n        /* \"#utility.yul\":4236:4238   */\n      0x40\n        /* \"#utility.yul\":4224:4233   */\n      dup4\n        /* \"#utility.yul\":4215:4222   */\n      dup6\n        /* \"#utility.yul\":4211:4234   */\n      sub\n        /* \"#utility.yul\":4207:4239   */\n      slt\n        /* \"#utility.yul\":4204:4323   */\n      iszero\n      tag_402\n      jumpi\n        /* \"#utility.yul\":4242:4321   */\n      tag_403\n      tag_278\n      jump\t// in\n    tag_403:\n        /* \"#utility.yul\":4204:4323   */\n    tag_402:\n        /* \"#utility.yul\":4362:4363   */\n      0x00\n        /* \"#utility.yul\":4387:4440   */\n      tag_404\n        /* \"#utility.yul\":4432:4439   */\n      dup6\n        /* \"#utility.yul\":4423:4429   */\n      dup3\n        /* \"#utility.yul\":4412:4421   */\n      dup7\n        /* \"#utility.yul\":4408:4430   */\n      add\n        /* \"#utility.yul\":4387:4440   */\n      tag_291\n      jump\t// in\n    tag_404:\n        /* \"#utility.yul\":4377:4440   */\n      swap3\n      pop\n        /* \"#utility.yul\":4333:4450   */\n      pop\n        /* \"#utility.yul\":4489:4491   */\n      0x20\n        /* \"#utility.yul\":4515:4568   */\n      tag_405\n        /* \"#utility.yul\":4560:4567   */\n      dup6\n        /* \"#utility.yul\":4551:4557   */\n      dup3\n        /* \"#utility.yul\":4540:4549   */\n      dup7\n        /* \"#utility.yul\":4536:4558   */\n      add\n        /* \"#utility.yul\":4515:4568   */\n      tag_296\n      jump\t// in\n    tag_405:\n        /* \"#utility.yul\":4505:4568   */\n      swap2\n      pop\n        /* \"#utility.yul\":4460:4578   */\n      pop\n        /* \"#utility.yul\":4111:4585   */\n      swap3\n      pop\n      swap3\n      swap1\n      pop\n      jump\t// out\n        /* \"#utility.yul\":4591:5065   */\n    tag_61:\n        /* \"#utility.yul\":4659:4665   */\n      0x00\n        /* \"#utility.yul\":4667:4673   */\n      dup1\n        /* \"#utility.yul\":4716:4718   */\n      0x40\n        /* \"#utility.yul\":4704:4713   */\n      dup4\n        /* \"#utility.yul\":4695:4702   */\n      dup6\n        /* \"#utility.yul\":4691:4714   */\n      sub\n        /* \"#utility.yul\":4687:4719   */\n      slt\n        /* \"#utility.yul\":4684:4803   */\n      iszero\n      tag_407\n      jumpi\n        /* \"#utility.yul\":4722:4801   */\n      tag_408\n      tag_278\n      jump\t// in\n    tag_408:\n        /* \"#utility.yul\":4684:4803   */\n    tag_407:\n        /* \"#utility.yul\":4842:4843   */\n      0x00\n        /* \"#utility.yul\":4867:4920   */\n      tag_409\n        /* \"#utility.yul\":4912:4919   */\n      dup6\n        /* \"#utility.yul\":4903:4909   */\n      dup3\n        /* \"#utility.yul\":4892:4901   */\n      dup7\n        /* \"#utility.yul\":4888:4910   */\n      add\n        /* \"#utility.yul\":4867:4920   */\n      tag_288\n      jump\t// in\n    tag_409:\n        /* \"#utility.yul\":4857:4920   */\n      swap3\n      pop\n        /* \"#utility.yul\":4813:4930   */\n      pop\n        /* \"#utility.yul\":4969:4971   */\n      0x20\n        /* \"#utility.yul\":4995:5048   */\n      tag_410\n        /* \"#utility.yul\":5040:5047   */\n      dup6\n        /* \"#utility.yul\":5031:5037   */\n      dup3\n        /* \"#utility.yul\":5020:5029   */\n      dup7\n        /* \"#utility.yul\":5016:5038   */\n      add\n        /* \"#utility.yul\":4995:5048   */\n      tag_288\n      jump\t// in\n    tag_410:\n        /* \"#utility.yul\":4985:5048   */\n      swap2\n      pop\n        /* \"#utility.yul\":4940:5058   */\n      pop\n        /* \"#utility.yul\":4591:5065   */\n      swap3\n      pop\n      swap3\n      swap1\n      pop\n      jump\t// out\n        /* \"#utility.yul\":5071:5131   */\n    tag_297:\n        /* \"#utility.yul\":5099:5102   */\n      0x00\n        /* \"#utility.yul\":5120:5125   */\n      dup2\n        /* \"#utility.yul\":5113:5125   */\n      swap1\n      pop\n        /* \"#utility.yul\":5071:5131   */\n      swap2\n      swap1\n      pop\n      jump\t// out\n        /* \"#utility.yul\":5137:5279   */\n    tag_298:\n        /* \"#utility.yul\":5187:5196   */\n      0x00\n        /* \"#utility.yul\":5220:5273   */\n      tag_413\n        /* \"#utility.yul\":5238:5272   */\n      tag_414\n        /* \"#utility.yul\":5247:5271   */\n      tag_415\n        /* \"#utility.yul\":5265:5270   */\n      dup5\n        /* \"#utility.yul\":5247:5271   */\n      tag_293\n      jump\t// in\n    tag_415:\n        /* \"#utility.yul\":5238:5272   */\n      tag_297\n      jump\t// in\n    tag_414:\n        /* \"#utility.yul\":5220:5273   */\n      tag_293\n      jump\t// in\n    tag_413:\n        /* \"#utility.yul\":5207:5273   */\n      swap1\n      pop\n        /* \"#utility.yul\":5137:5279   */\n      swap2\n      swap1\n      pop\n      jump\t// out\n        /* \"#utility.yul\":5285:5411   */\n    tag_299:\n        /* \"#utility.yul\":5335:5344   */\n      0x00\n        /* \"#utility.yul\":5368:5405   */\n      tag_417\n        /* \"#utility.yul\":5399:5404   */\n      dup3\n        /* \"#utility.yul\":5368:5405   */\n      tag_298\n      jump\t// in\n    tag_417:\n        /* \"#utility.yul\":5355:5405   */\n      swap1\n      pop\n        /* \"#utility.yul\":5285:5411   */\n      swap2\n      swap1\n      pop\n      jump\t// out\n        /* \"#utility.yul\":5417:5559   */\n    tag_300:\n        /* \"#utility.yul\":5483:5492   */\n      0x00\n        /* \"#utility.yul\":5516:5553   */\n      tag_419\n        /* \"#utility.yul\":5547:5552   */\n      dup3\n        /* \"#utility.yul\":5516:5553   */\n      tag_299\n      jump\t// in\n    tag_419:\n        /* \"#utility.yul\":5503:5553   */\n      swap1\n      pop\n        /* \"#utility.yul\":5417:5559   */\n      swap2\n      swap1\n      pop\n      jump\t// out\n        /* \"#utility.yul\":5565:5728   */\n    tag_301:\n        /* \"#utility.yul\":5668:5721   */\n      tag_421\n        /* \"#utility.yul\":5715:5720   */\n      dup2\n        /* \"#utility.yul\":5668:5721   */\n      tag_300\n      jump\t// in\n    tag_421:\n        /* \"#utility.yul\":5663:5666   */\n      dup3\n        /* \"#utility.yul\":5656:5722   */\n      mstore\n        /* \"#utility.yul\":5565:5728   */\n      pop\n      pop\n      jump\t// out\n        /* \"#utility.yul\":5734:5988   */\n    tag_66:\n        /* \"#utility.yul\":5843:5847   */\n      0x00\n        /* \"#utility.yul\":5881:5883   */\n      0x20\n        /* \"#utility.yul\":5870:5879   */\n      dup3\n        /* \"#utility.yul\":5866:5884   */\n      add\n        /* \"#utility.yul\":5858:5884   */\n      swap1\n      pop\n        /* \"#utility.yul\":5894:5981   */\n      tag_423\n        /* \"#utility.yul\":5978:5979   */\n      0x00\n        /* \"#utility.yul\":5967:5976   */\n      dup4\n        /* \"#utility.yul\":5963:5980   */\n      add\n        /* \"#utility.yul\":5954:5960   */\n      dup5\n        /* \"#utility.yul\":5894:5981   */\n      tag_301\n      jump\t// in\n    tag_423:\n        /* \"#utility.yul\":5734:5988   */\n      swap3\n      swap2\n      pop\n      pop\n      jump\t// out\n        /* \"#utility.yul\":5994:6111   */\n    tag_302:\n        /* \"#utility.yul\":6103:6104   */\n      0x00\n        /* \"#utility.yul\":6100:6101   */\n      dup1\n        /* \"#utility.yul\":6093:6105   */\n      revert\n        /* \"#utility.yul\":6117:6234   */\n    tag_303:\n        /* \"#utility.yul\":6226:6227   */\n      0x00\n        /* \"#utility.yul\":6223:6224   */\n      dup1\n        /* \"#utility.yul\":6216:6228   */\n      revert\n        /* \"#utility.yul\":6240:6342   */\n    tag_304:\n        /* \"#utility.yul\":6281:6287   */\n      0x00\n        /* \"#utility.yul\":6332:6334   */\n      0x1f\n        /* \"#utility.yul\":6328:6335   */\n      not\n        /* \"#utility.yul\":6323:6325   */\n      0x1f\n        /* \"#utility.yul\":6316:6321   */\n      dup4\n        /* \"#utility.yul\":6312:6326   */\n      add\n        /* \"#utility.yul\":6308:6336   */\n      and\n        /* \"#utility.yul\":6298:6336   */\n      swap1\n      pop\n        /* \"#utility.yul\":6240:6342   */\n      swap2\n      swap1\n      pop\n      jump\t// out\n        /* \"#utility.yul\":6348:6528   */\n    tag_257:\n        /* \"#utility.yul\":6396:6473   */\n      0x4e487b7100000000000000000000000000000000000000000000000000000000\n        /* \"#utility.yul\":6393:6394   */\n      0x00\n        /* \"#utility.yul\":6386:6474   */\n      mstore\n        /* \"#utility.yul\":6493:6497   */\n      0x41\n        /* \"#utility.yul\":6490:6491   */\n      0x04\n        /* \"#utility.yul\":6483:6498   */\n      mstore\n        /* \"#utility.yul\":6517:6521   */\n      0x24\n        /* \"#utility.yul\":6514:6515   */\n      0x00\n        /* \"#utility.yul\":6507:6522   */\n      revert\n        /* \"#utility.yul\":6534:6815   */\n    tag_305:\n        /* \"#utility.yul\":6617:6644   */\n      tag_429\n        /* \"#utility.yul\":6639:6643   */\n      dup3\n        /* \"#utility.yul\":6617:6644   */\n      tag_304\n      jump\t// in\n    tag_429:\n        /* \"#utility.yul\":6609:6615   */\n      dup2\n        /* \"#utility.yul\":6605:6645   */\n      add\n        /* \"#utility.yul\":6747:6753   */\n      dup2\n        /* \"#utility.yul\":6735:6745   */\n      dup2\n        /* \"#utility.yul\":6732:6754   */\n      lt\n        /* \"#utility.yul\":6711:6729   */\n      0xffffffffffffffff\n        /* \"#utility.yul\":6699:6709   */\n      dup3\n        /* \"#utility.yul\":6696:6730   */\n      gt\n        /* \"#utility.yul\":6693:6755   */\n      or\n        /* \"#utility.yul\":6690:6778   */\n      iszero\n      tag_430\n      jumpi\n        /* \"#utility.yul\":6758:6776   */\n      tag_431\n      tag_257\n      jump\t// in\n    tag_431:\n        /* \"#utility.yul\":6690:6778   */\n    tag_430:\n        /* \"#utility.yul\":6798:6808   */\n      dup1\n        /* \"#utility.yul\":6794:6796   */\n      0x40\n        /* \"#utility.yul\":6787:6809   */\n      mstore\n        /* \"#utility.yul\":6577:6815   */\n      pop\n        /* \"#utility.yul\":6534:6815   */\n      pop\n      pop\n      jump\t// out\n        /* \"#utility.yul\":6821:6950   */\n    tag_306:\n        /* \"#utility.yul\":6855:6861   */\n      0x00\n        /* \"#utility.yul\":6882:6902   */\n      tag_433\n      tag_277\n      jump\t// in\n    tag_433:\n        /* \"#utility.yul\":6872:6902   */\n      swap1\n      pop\n        /* \"#utility.yul\":6911:6944   */\n      tag_434\n        /* \"#utility.yul\":6939:6943   */\n      dup3\n        /* \"#utility.yul\":6931:6937   */\n      dup3\n        /* \"#utility.yul\":6911:6944   */\n      tag_305\n      jump\t// in\n    tag_434:\n        /* \"#utility.yul\":6821:6950   */\n      swap2\n      swap1\n      pop\n      jump\t// out\n        /* \"#utility.yul\":6956:7264   */\n    tag_307:\n        /* \"#utility.yul\":7018:7022   */\n      0x00\n        /* \"#utility.yul\":7108:7126   */\n      0xffffffffffffffff\n        /* \"#utility.yul\":7100:7106   */\n      dup3\n        /* \"#utility.yul\":7097:7127   */\n      gt\n        /* \"#utility.yul\":7094:7150   */\n      iszero\n      tag_436\n      jumpi\n        /* \"#utility.yul\":7130:7148   */\n      tag_437\n      tag_257\n      jump\t// in\n    tag_437:\n        /* \"#utility.yul\":7094:7150   */\n    tag_436:\n        /* \"#utility.yul\":7168:7197   */\n      tag_438\n        /* \"#utility.yul\":7190:7196   */\n      dup3\n        /* \"#utility.yul\":7168:7197   */\n      tag_304\n      jump\t// in\n    tag_438:\n        /* \"#utility.yul\":7160:7197   */\n      swap1\n      pop\n        /* \"#utility.yul\":7252:7256   */\n      0x20\n        /* \"#utility.yul\":7246:7250   */\n      dup2\n        /* \"#utility.yul\":7242:7257   */\n      add\n        /* \"#utility.yul\":7234:7257   */\n      swap1\n      pop\n        /* \"#utility.yul\":6956:7264   */\n      swap2\n      swap1\n      pop\n      jump\t// out\n        /* \"#utility.yul\":7270:7424   */\n    tag_308:\n        /* \"#utility.yul\":7354:7360   */\n      dup3\n        /* \"#utility.yul\":7349:7352   */\n      dup2\n        /* \"#utility.yul\":7344:7347   */\n      dup4\n        /* \"#utility.yul\":7331:7361   */\n      calldatacopy\n        /* \"#utility.yul\":7416:7417   */\n      0x00\n        /* \"#utility.yul\":7407:7413   */\n      dup4\n        /* \"#utility.yul\":7402:7405   */\n      dup4\n        /* \"#utility.yul\":7398:7414   */\n      add\n        /* \"#utility.yul\":7391:7418   */\n      mstore\n        /* \"#utility.yul\":7270:7424   */\n      pop\n      pop\n      pop\n      jump\t// out\n        /* \"#utility.yul\":7430:7842   */\n    tag_309:\n        /* \"#utility.yul\":7508:7513   */\n      0x00\n        /* \"#utility.yul\":7533:7599   */\n      tag_441\n        /* \"#utility.yul\":7549:7598   */\n      tag_442\n        /* \"#utility.yul\":7591:7597   */\n      dup5\n        /* \"#utility.yul\":7549:7598   */\n      tag_307\n      jump\t// in\n    tag_442:\n        /* \"#utility.yul\":7533:7599   */\n      tag_306\n      jump\t// in\n    tag_441:\n        /* \"#utility.yul\":7524:7599   */\n      swap1\n      pop\n        /* \"#utility.yul\":7622:7628   */\n      dup3\n        /* \"#utility.yul\":7615:7620   */\n      dup2\n        /* \"#utility.yul\":7608:7629   */\n      mstore\n        /* \"#utility.yul\":7660:7664   */\n      0x20\n        /* \"#utility.yul\":7653:7658   */\n      dup2\n        /* \"#utility.yul\":7649:7665   */\n      add\n        /* \"#utility.yul\":7698:7701   */\n      dup5\n        /* \"#utility.yul\":7689:7695   */\n      dup5\n        /* \"#utility.yul\":7684:7687   */\n      dup5\n        /* \"#utility.yul\":7680:7696   */\n      add\n        /* \"#utility.yul\":7677:7702   */\n      gt\n        /* \"#utility.yul\":7674:7786   */\n      iszero\n      tag_443\n      jumpi\n        /* \"#utility.yul\":7705:7784   */\n      tag_444\n      tag_303\n      jump\t// in\n    tag_444:\n        /* \"#utility.yul\":7674:7786   */\n    tag_443:\n        /* \"#utility.yul\":7795:7836   */\n      tag_445\n        /* \"#utility.yul\":7829:7835   */\n      dup5\n        /* \"#utility.yul\":7824:7827   */\n      dup3\n        /* \"#utility.yul\":7819:7822   */\n      dup6\n        /* \"#utility.yul\":7795:7836   */\n      tag_308\n      jump\t// in\n    tag_445:\n        /* \"#utility.yul\":7514:7842   */\n      pop\n        /* \"#utility.yul\":7430:7842   */\n      swap4\n      swap3\n      pop\n      pop\n      pop\n      jump\t// out\n        /* \"#utility.yul\":7862:8202   */\n    tag_310:\n        /* \"#utility.yul\":7918:7923   */\n      0x00\n        /* \"#utility.yul\":7967:7970   */\n      dup3\n        /* \"#utility.yul\":7960:7964   */\n      0x1f\n        /* \"#utility.yul\":7952:7958   */\n      dup4\n        /* \"#utility.yul\":7948:7965   */\n      add\n        /* \"#utility.yul\":7944:7971   */\n      slt\n        /* \"#utility.yul\":7934:8056   */\n      tag_447\n      jumpi\n        /* \"#utility.yul\":7975:8054   */\n      tag_448\n      tag_302\n      jump\t// in\n    tag_448:\n        /* \"#utility.yul\":7934:8056   */\n    tag_447:\n        /* \"#utility.yul\":8092:8098   */\n      dup2\n        /* \"#utility.yul\":8079:8099   */\n      calldataload\n        /* \"#utility.yul\":8117:8196   */\n      tag_449\n        /* \"#utility.yul\":8192:8195   */\n      dup5\n        /* \"#utility.yul\":8184:8190   */\n      dup3\n        /* \"#utility.yul\":8177:8181   */\n      0x20\n        /* \"#utility.yul\":8169:8175   */\n      dup7\n        /* \"#utility.yul\":8165:8182   */\n      add\n        /* \"#utility.yul\":8117:8196   */\n      tag_309\n      jump\t// in\n    tag_449:\n        /* \"#utility.yul\":8108:8196   */\n      swap2\n      pop\n        /* \"#utility.yul\":7924:8202   */\n      pop\n        /* \"#utility.yul\":7862:8202   */\n      swap3\n      swap2\n      pop\n      pop\n      jump\t// out\n        /* \"#utility.yul\":8208:8717   */\n    tag_75:\n        /* \"#utility.yul\":8277:8283   */\n      0x00\n        /* \"#utility.yul\":8326:8328   */\n      0x20\n        /* \"#utility.yul\":8314:8323   */\n      dup3\n        /* \"#utility.yul\":8305:8312   */\n      dup5\n        /* \"#utility.yul\":8301:8324   */\n      sub\n        /* \"#utility.yul\":8297:8329   */\n      slt\n        /* \"#utility.yul\":8294:8413   */\n      iszero\n      tag_451\n      jumpi\n        /* \"#utility.yul\":8332:8411   */\n      tag_452\n      tag_278\n      jump\t// in\n    tag_452:\n        /* \"#utility.yul\":8294:8413   */\n    tag_451:\n        /* \"#utility.yul\":8480:8481   */\n      0x00\n        /* \"#utility.yul\":8469:8478   */\n      dup3\n        /* \"#utility.yul\":8465:8482   */\n      add\n        /* \"#utility.yul\":8452:8483   */\n      calldataload\n        /* \"#utility.yul\":8510:8528   */\n      0xffffffffffffffff\n        /* \"#utility.yul\":8502:8508   */\n      dup2\n        /* \"#utility.yul\":8499:8529   */\n      gt\n        /* \"#utility.yul\":8496:8613   */\n      iszero\n      tag_453\n      jumpi\n        /* \"#utility.yul\":8532:8611   */\n      tag_454\n      tag_279\n      jump\t// in\n    tag_454:\n        /* \"#utility.yul\":8496:8613   */\n    tag_453:\n        /* \"#utility.yul\":8637:8700   */\n      tag_455\n        /* \"#utility.yul\":8692:8699   */\n      dup5\n        /* \"#utility.yul\":8683:8689   */\n      dup3\n        /* \"#utility.yul\":8672:8681   */\n      dup6\n        /* \"#utility.yul\":8668:8690   */\n      add\n        /* \"#utility.yul\":8637:8700   */\n      tag_310\n      jump\t// in\n    tag_455:\n        /* \"#utility.yul\":8627:8700   */\n      swap2\n      pop\n        /* \"#utility.yul\":8423:8710   */\n      pop\n        /* \"#utility.yul\":8208:8717   */\n      swap3\n      swap2\n      pop\n      pop\n      jump\t// out\n        /* \"#utility.yul\":8723:9197   */\n    tag_84:\n        /* \"#utility.yul\":8791:8797   */\n      0x00\n        /* \"#utility.yul\":8799:8805   */\n      dup1\n        /* \"#utility.yul\":8848:8850   */\n      0x40\n        /* \"#utility.yul\":8836:8845   */\n      dup4\n        /* \"#utility.yul\":8827:8834   */\n      dup6\n        /* \"#utility.yul\":8823:8846   */\n      sub\n        /* \"#utility.yul\":8819:8851   */\n      slt\n        /* \"#utility.yul\":8816:8935   */\n      iszero\n      tag_457\n      jumpi\n        /* \"#utility.yul\":8854:8933   */\n      tag_458\n      tag_278\n      jump\t// in\n    tag_458:\n        /* \"#utility.yul\":8816:8935   */\n    tag_457:\n        /* \"#utility.yul\":8974:8975   */\n      0x00\n        /* \"#utility.yul\":8999:9052   */\n      tag_459\n        /* \"#utility.yul\":9044:9051   */\n      dup6\n        /* \"#utility.yul\":9035:9041   */\n      dup3\n        /* \"#utility.yul\":9024:9033   */\n      dup7\n        /* \"#utility.yul\":9020:9042   */\n      add\n        /* \"#utility.yul\":8999:9052   */\n      tag_296\n      jump\t// in\n    tag_459:\n        /* \"#utility.yul\":8989:9052   */\n      swap3\n      pop\n        /* \"#utility.yul\":8945:9062   */\n      pop\n        /* \"#utility.yul\":9101:9103   */\n      0x20\n        /* \"#utility.yul\":9127:9180   */\n      tag_460\n        /* \"#utility.yul\":9172:9179   */\n      dup6\n        /* \"#utility.yul\":9163:9169   */\n      dup3\n        /* \"#utility.yul\":9152:9161   */\n      dup7\n        /* \"#utility.yul\":9148:9170   */\n      add\n        /* \"#utility.yul\":9127:9180   */\n      tag_288\n      jump\t// in\n    tag_460:\n        /* \"#utility.yul\":9117:9180   */\n      swap2\n      pop\n        /* \"#utility.yul\":9072:9190   */\n      pop\n        /* \"#utility.yul\":8723:9197   */\n      swap3\n      pop\n      swap3\n      swap1\n      pop\n      jump\t// out\n        /* \"#utility.yul\":9203:9321   */\n    tag_311:\n        /* \"#utility.yul\":9290:9314   */\n      tag_462\n        /* \"#utility.yul\":9308:9313   */\n      dup2\n        /* \"#utility.yul\":9290:9314   */\n      tag_294\n      jump\t// in\n    tag_462:\n        /* \"#utility.yul\":9285:9288   */\n      dup3\n        /* \"#utility.yul\":9278:9315   */\n      mstore\n        /* \"#utility.yul\":9203:9321   */\n      pop\n      pop\n      jump\t// out\n        /* \"#utility.yul\":9327:9549   */\n    tag_96:\n        /* \"#utility.yul\":9420:9424   */\n      0x00\n        /* \"#utility.yul\":9458:9460   */\n      0x20\n        /* \"#utility.yul\":9447:9456   */\n      dup3\n        /* \"#utility.yul\":9443:9461   */\n      add\n        /* \"#utility.yul\":9435:9461   */\n      swap1\n      pop\n        /* \"#utility.yul\":9471:9542   */\n      tag_464\n        /* \"#utility.yul\":9539:9540   */\n      0x00\n        /* \"#utility.yul\":9528:9537   */\n      dup4\n        /* \"#utility.yul\":9524:9541   */\n      add\n        /* \"#utility.yul\":9515:9521   */\n      dup5\n        /* \"#utility.yul\":9471:9542   */\n      tag_311\n      jump\t// in\n    tag_464:\n        /* \"#utility.yul\":9327:9549   */\n      swap3\n      swap2\n      pop\n      pop\n      jump\t// out\n        /* \"#utility.yul\":9555:9660   */\n    tag_312:\n        /* \"#utility.yul\":9621:9627   */\n      0x00\n        /* \"#utility.yul\":9649:9653   */\n      0x10\n        /* \"#utility.yul\":9639:9653   */\n      swap1\n      pop\n        /* \"#utility.yul\":9555:9660   */\n      swap2\n      swap1\n      pop\n      jump\t// out\n        /* \"#utility.yul\":9666:9810   */\n    tag_313:\n        /* \"#utility.yul\":9764:9775   */\n      0x00\n        /* \"#utility.yul\":9801:9804   */\n      dup2\n        /* \"#utility.yul\":9786:9804   */\n      swap1\n      pop\n        /* \"#utility.yul\":9666:9810   */\n      swap3\n      swap2\n      pop\n      pop\n      jump\t// out\n        /* \"#utility.yul\":9816:9915   */\n    tag_314:\n        /* \"#utility.yul\":9882:9886   */\n      0x00\n        /* \"#utility.yul\":9905:9908   */\n      dup2\n        /* \"#utility.yul\":9897:9908   */\n      swap1\n      pop\n        /* \"#utility.yul\":9816:9915   */\n      swap2\n      swap1\n      pop\n      jump\t// out\n        /* \"#utility.yul\":9921:10029   */\n    tag_315:\n        /* \"#utility.yul\":9998:10022   */\n      tag_469\n        /* \"#utility.yul\":10016:10021   */\n      dup2\n        /* \"#utility.yul\":9998:10022   */\n      tag_285\n      jump\t// in\n    tag_469:\n        /* \"#utility.yul\":9993:9996   */\n      dup3\n        /* \"#utility.yul\":9986:10023   */\n      mstore\n        /* \"#utility.yul\":9921:10029   */\n      pop\n      pop\n      jump\t// out\n        /* \"#utility.yul\":10035:10214   */\n    tag_316:\n        /* \"#utility.yul\":10104:10114   */\n      0x00\n        /* \"#utility.yul\":10125:10171   */\n      tag_471\n        /* \"#utility.yul\":10167:10170   */\n      dup4\n        /* \"#utility.yul\":10159:10165   */\n      dup4\n        /* \"#utility.yul\":10125:10171   */\n      tag_315\n      jump\t// in\n    tag_471:\n        /* \"#utility.yul\":10203:10207   */\n      0x20\n        /* \"#utility.yul\":10198:10201   */\n      dup4\n        /* \"#utility.yul\":10194:10208   */\n      add\n        /* \"#utility.yul\":10180:10208   */\n      swap1\n      pop\n        /* \"#utility.yul\":10035:10214   */\n      swap3\n      swap2\n      pop\n      pop\n      jump\t// out\n        /* \"#utility.yul\":10220:10332   */\n    tag_317:\n        /* \"#utility.yul\":10289:10293   */\n      0x00\n        /* \"#utility.yul\":10321:10325   */\n      0x20\n        /* \"#utility.yul\":10316:10319   */\n      dup3\n        /* \"#utility.yul\":10312:10326   */\n      add\n        /* \"#utility.yul\":10304:10326   */\n      swap1\n      pop\n        /* \"#utility.yul\":10220:10332   */\n      swap2\n      swap1\n      pop\n      jump\t// out\n        /* \"#utility.yul\":10372:11072   */\n    tag_318:\n        /* \"#utility.yul\":10510:10563   */\n      tag_474\n        /* \"#utility.yul\":10557:10562   */\n      dup2\n        /* \"#utility.yul\":10510:10563   */\n      tag_312\n      jump\t// in\n    tag_474:\n        /* \"#utility.yul\":10579:10664   */\n      tag_475\n        /* \"#utility.yul\":10657:10663   */\n      dup2\n        /* \"#utility.yul\":10652:10655   */\n      dup5\n        /* \"#utility.yul\":10579:10664   */\n      tag_313\n      jump\t// in\n    tag_475:\n        /* \"#utility.yul\":10572:10664   */\n      swap3\n      pop\n        /* \"#utility.yul\":10688:10743   */\n      tag_476\n        /* \"#utility.yul\":10737:10742   */\n      dup3\n        /* \"#utility.yul\":10688:10743   */\n      tag_314\n      jump\t// in\n    tag_476:\n        /* \"#utility.yul\":10766:10773   */\n      dup1\n        /* \"#utility.yul\":10797:10798   */\n      0x00\n        /* \"#utility.yul\":10782:11065   */\n    tag_477:\n        /* \"#utility.yul\":10807:10813   */\n      dup4\n        /* \"#utility.yul\":10804:10805   */\n      dup2\n        /* \"#utility.yul\":10801:10814   */\n      lt\n        /* \"#utility.yul\":10782:11065   */\n      iszero\n      tag_479\n      jumpi\n        /* \"#utility.yul\":10883:10889   */\n      dup2\n        /* \"#utility.yul\":10877:10890   */\n      mload\n        /* \"#utility.yul\":10910:10973   */\n      tag_480\n        /* \"#utility.yul\":10969:10972   */\n      dup8\n        /* \"#utility.yul\":10954:10967   */\n      dup3\n        /* \"#utility.yul\":10910:10973   */\n      tag_316\n      jump\t// in\n    tag_480:\n        /* \"#utility.yul\":10903:10973   */\n      swap7\n      pop\n        /* \"#utility.yul\":10996:11055   */\n      tag_481\n        /* \"#utility.yul\":11048:11054   */\n      dup4\n        /* \"#utility.yul\":10996:11055   */\n      tag_317\n      jump\t// in\n    tag_481:\n        /* \"#utility.yul\":10986:11055   */\n      swap3\n      pop\n        /* \"#utility.yul\":10842:11065   */\n      pop\n        /* \"#utility.yul\":10829:10830   */\n      0x01\n        /* \"#utility.yul\":10826:10827   */\n      dup2\n        /* \"#utility.yul\":10822:10831   */\n      add\n        /* \"#utility.yul\":10817:10831   */\n      swap1\n      pop\n        /* \"#utility.yul\":10782:11065   */\n      jump(tag_477)\n    tag_479:\n        /* \"#utility.yul\":10786:10800   */\n      pop\n        /* \"#utility.yul\":10486:11072   */\n      pop\n      pop\n      pop\n        /* \"#utility.yul\":10372:11072   */\n      pop\n      pop\n      jump\t// out\n        /* \"#utility.yul\":11078:11397   */\n    tag_104:\n        /* \"#utility.yul\":11219:11223   */\n      0x00\n        /* \"#utility.yul\":11257:11260   */\n      0x0200\n        /* \"#utility.yul\":11246:11255   */\n      dup3\n        /* \"#utility.yul\":11242:11261   */\n      add\n        /* \"#utility.yul\":11234:11261   */\n      swap1\n      pop\n        /* \"#utility.yul\":11271:11390   */\n      tag_483\n        /* \"#utility.yul\":11387:11388   */\n      0x00\n        /* \"#utility.yul\":11376:11385   */\n      dup4\n        /* \"#utility.yul\":11372:11389   */\n      add\n        /* \"#utility.yul\":11363:11369   */\n      dup5\n        /* \"#utility.yul\":11271:11390   */\n      tag_318\n      jump\t// in\n    tag_483:\n        /* \"#utility.yul\":11078:11397   */\n      swap3\n      swap2\n      pop\n      pop\n      jump\t// out\n        /* \"#utility.yul\":11403:11572   */\n    tag_319:\n        /* \"#utility.yul\":11487:11498   */\n      0x00\n        /* \"#utility.yul\":11521:11527   */\n      dup3\n        /* \"#utility.yul\":11516:11519   */\n      dup3\n        /* \"#utility.yul\":11509:11528   */\n      mstore\n        /* \"#utility.yul\":11561:11565   */\n      0x20\n        /* \"#utility.yul\":11556:11559   */\n      dup3\n        /* \"#utility.yul\":11552:11566   */\n      add\n        /* \"#utility.yul\":11537:11566   */\n      swap1\n      pop\n        /* \"#utility.yul\":11403:11572   */\n      swap3\n      swap2\n      pop\n      pop\n      jump\t// out\n        /* \"#utility.yul\":11578:11812   */\n    tag_320:\n        /* \"#utility.yul\":11718:11752   */\n      0x416363657373436f6e74726f6c3a2063616e206f6e6c792072656e6f756e6365\n        /* \"#utility.yul\":11714:11715   */\n      0x00\n        /* \"#utility.yul\":11706:11712   */\n      dup3\n        /* \"#utility.yul\":11702:11716   */\n      add\n        /* \"#utility.yul\":11695:11753   */\n      mstore\n        /* \"#utility.yul\":11787:11804   */\n      0x20726f6c657320666f722073656c660000000000000000000000000000000000\n        /* \"#utility.yul\":11782:11784   */\n      0x20\n        /* \"#utility.yul\":11774:11780   */\n      dup3\n        /* \"#utility.yul\":11770:11785   */\n      add\n        /* \"#utility.yul\":11763:11805   */\n      mstore\n        /* \"#utility.yul\":11578:11812   */\n      pop\n      jump\t// out\n        /* \"#utility.yul\":11818:12184   */\n    tag_321:\n        /* \"#utility.yul\":11960:11963   */\n      0x00\n        /* \"#utility.yul\":11981:12048   */\n      tag_487\n        /* \"#utility.yul\":12045:12047   */\n      0x2f\n        /* \"#utility.yul\":12040:12043   */\n      dup4\n        /* \"#utility.yul\":11981:12048   */\n      tag_319\n      jump\t// in\n    tag_487:\n        /* \"#utility.yul\":11974:12048   */\n      swap2\n      pop\n        /* \"#utility.yul\":12057:12150   */\n      tag_488\n        /* \"#utility.yul\":12146:12149   */\n      dup3\n        /* \"#utility.yul\":12057:12150   */\n      tag_320\n      jump\t// in\n    tag_488:\n        /* \"#utility.yul\":12175:12177   */\n      0x40\n        /* \"#utility.yul\":12170:12173   */\n      dup3\n        /* \"#utility.yul\":12166:12178   */\n      add\n        /* \"#utility.yul\":12159:12178   */\n      swap1\n      pop\n        /* \"#utility.yul\":11818:12184   */\n      swap2\n      swap1\n      pop\n      jump\t// out\n        /* \"#utility.yul\":12190:12609   */\n    tag_141:\n        /* \"#utility.yul\":12356:12360   */\n      0x00\n        /* \"#utility.yul\":12394:12396   */\n      0x20\n        /* \"#utility.yul\":12383:12392   */\n      dup3\n        /* \"#utility.yul\":12379:12397   */\n      add\n        /* \"#utility.yul\":12371:12397   */\n      swap1\n      pop\n        /* \"#utility.yul\":12443:12452   */\n      dup2\n        /* \"#utility.yul\":12437:12441   */\n      dup2\n        /* \"#utility.yul\":12433:12453   */\n      sub\n        /* \"#utility.yul\":12429:12430   */\n      0x00\n        /* \"#utility.yul\":12418:12427   */\n      dup4\n        /* \"#utility.yul\":12414:12431   */\n      add\n        /* \"#utility.yul\":12407:12454   */\n      mstore\n        /* \"#utility.yul\":12471:12602   */\n      tag_490\n        /* \"#utility.yul\":12597:12601   */\n      dup2\n        /* \"#utility.yul\":12471:12602   */\n      tag_321\n      jump\t// in\n    tag_490:\n        /* \"#utility.yul\":12463:12602   */\n      swap1\n      pop\n        /* \"#utility.yul\":12190:12609   */\n      swap2\n      swap1\n      pop\n      jump\t// out\n        /* \"#utility.yul\":12615:12781   */\n    tag_322:\n        /* \"#utility.yul\":12755:12773   */\n      0x5061757361626c653a2070617573656400000000000000000000000000000000\n        /* \"#utility.yul\":12751:12752   */\n      0x00\n        /* \"#utility.yul\":12743:12749   */\n      dup3\n        /* \"#utility.yul\":12739:12753   */\n      add\n        /* \"#utility.yul\":12732:12774   */\n      mstore\n        /* \"#utility.yul\":12615:12781   */\n      pop\n      jump\t// out\n        /* \"#utility.yul\":12787:13153   */\n    tag_323:\n        /* \"#utility.yul\":12929:12932   */\n      0x00\n        /* \"#utility.yul\":12950:13017   */\n      tag_493\n        /* \"#utility.yul\":13014:13016   */\n      0x10\n        /* \"#utility.yul\":13009:13012   */\n      dup4\n        /* \"#utility.yul\":12950:13017   */\n      tag_319\n      jump\t// in\n    tag_493:\n        /* \"#utility.yul\":12943:13017   */\n      swap2\n      pop\n        /* \"#utility.yul\":13026:13119   */\n      tag_494\n        /* \"#utility.yul\":13115:13118   */\n      dup3\n        /* \"#utility.yul\":13026:13119   */\n      tag_322\n      jump\t// in\n    tag_494:\n        /* \"#utility.yul\":13144:13146   */\n      0x20\n        /* \"#utility.yul\":13139:13142   */\n      dup3\n        /* \"#utility.yul\":13135:13147   */\n      add\n        /* \"#utility.yul\":13128:13147   */\n      swap1\n      pop\n        /* \"#utility.yul\":12787:13153   */\n      swap2\n      swap1\n      pop\n      jump\t// out\n        /* \"#utility.yul\":13159:13578   */\n    tag_153:\n        /* \"#utility.yul\":13325:13329   */\n      0x00\n        /* \"#utility.yul\":13363:13365   */\n      0x20\n        /* \"#utility.yul\":13352:13361   */\n      dup3\n        /* \"#utility.yul\":13348:13366   */\n      add\n        /* \"#utility.yul\":13340:13366   */\n      swap1\n      pop\n        /* \"#utility.yul\":13412:13421   */\n      dup2\n        /* \"#utility.yul\":13406:13410   */\n      dup2\n        /* \"#utility.yul\":13402:13422   */\n      sub\n        /* \"#utility.yul\":13398:13399   */\n      0x00\n        /* \"#utility.yul\":13387:13396   */\n      dup4\n        /* \"#utility.yul\":13383:13400   */\n      add\n        /* \"#utility.yul\":13376:13423   */\n      mstore\n        /* \"#utility.yul\":13440:13571   */\n      tag_496\n        /* \"#utility.yul\":13566:13570   */\n      dup2\n        /* \"#utility.yul\":13440:13571   */\n      tag_323\n      jump\t// in\n    tag_496:\n        /* \"#utility.yul\":13432:13571   */\n      swap1\n      pop\n        /* \"#utility.yul\":13159:13578   */\n      swap2\n      swap1\n      pop\n      jump\t// out\n        /* \"#utility.yul\":13584:14026   */\n    tag_158:\n        /* \"#utility.yul\":13733:13737   */\n      0x00\n        /* \"#utility.yul\":13771:13773   */\n      0x60\n        /* \"#utility.yul\":13760:13769   */\n      dup3\n        /* \"#utility.yul\":13756:13774   */\n      add\n        /* \"#utility.yul\":13748:13774   */\n      swap1\n      pop\n        /* \"#utility.yul\":13784:13855   */\n      tag_498\n        /* \"#utility.yul\":13852:13853   */\n      0x00\n        /* \"#utility.yul\":13841:13850   */\n      dup4\n        /* \"#utility.yul\":13837:13854   */\n      add\n        /* \"#utility.yul\":13828:13834   */\n      dup7\n        /* \"#utility.yul\":13784:13855   */\n      tag_311\n      jump\t// in\n    tag_498:\n        /* \"#utility.yul\":13865:13937   */\n      tag_499\n        /* \"#utility.yul\":13933:13935   */\n      0x20\n        /* \"#utility.yul\":13922:13931   */\n      dup4\n        /* \"#utility.yul\":13918:13936   */\n      add\n        /* \"#utility.yul\":13909:13915   */\n      dup6\n        /* \"#utility.yul\":13865:13937   */\n      tag_311\n      jump\t// in\n    tag_499:\n        /* \"#utility.yul\":13947:14019   */\n      tag_500\n        /* \"#utility.yul\":14015:14017   */\n      0x40\n        /* \"#utility.yul\":14004:14013   */\n      dup4\n        /* \"#utility.yul\":14000:14018   */\n      add\n        /* \"#utility.yul\":13991:13997   */\n      dup5\n        /* \"#utility.yul\":13947:14019   */\n      tag_286\n      jump\t// in\n    tag_500:\n        /* \"#utility.yul\":13584:14026   */\n      swap5\n      swap4\n      pop\n      pop\n      pop\n      pop\n      jump\t// out\n        /* \"#utility.yul\":14032:14148   */\n    tag_324:\n        /* \"#utility.yul\":14102:14123   */\n      tag_502\n        /* \"#utility.yul\":14117:14122   */\n      dup2\n        /* \"#utility.yul\":14102:14123   */\n      tag_283\n      jump\t// in\n    tag_502:\n        /* \"#utility.yul\":14095:14100   */\n      dup2\n        /* \"#utility.yul\":14092:14124   */\n      eq\n        /* \"#utility.yul\":14082:14142   */\n      tag_503\n      jumpi\n        /* \"#utility.yul\":14138:14139   */\n      0x00\n        /* \"#utility.yul\":14135:14136   */\n      dup1\n        /* \"#utility.yul\":14128:14140   */\n      revert\n        /* \"#utility.yul\":14082:14142   */\n    tag_503:\n        /* \"#utility.yul\":14032:14148   */\n      pop\n      jump\t// out\n        /* \"#utility.yul\":14154:14291   */\n    tag_325:\n        /* \"#utility.yul\":14208:14213   */\n      0x00\n        /* \"#utility.yul\":14239:14245   */\n      dup2\n        /* \"#utility.yul\":14233:14246   */\n      mload\n        /* \"#utility.yul\":14224:14246   */\n      swap1\n      pop\n        /* \"#utility.yul\":14255:14285   */\n      tag_505\n        /* \"#utility.yul\":14279:14284   */\n      dup2\n        /* \"#utility.yul\":14255:14285   */\n      tag_324\n      jump\t// in\n    tag_505:\n        /* \"#utility.yul\":14154:14291   */\n      swap3\n      swap2\n      pop\n      pop\n      jump\t// out\n        /* \"#utility.yul\":14297:14642   */\n    tag_162:\n        /* \"#utility.yul\":14364:14370   */\n      0x00\n        /* \"#utility.yul\":14413:14415   */\n      0x20\n        /* \"#utility.yul\":14401:14410   */\n      dup3\n        /* \"#utility.yul\":14392:14399   */\n      dup5\n        /* \"#utility.yul\":14388:14411   */\n      sub\n        /* \"#utility.yul\":14384:14416   */\n      slt\n        /* \"#utility.yul\":14381:14500   */\n      iszero\n      tag_507\n      jumpi\n        /* \"#utility.yul\":14419:14498   */\n      tag_508\n      tag_278\n      jump\t// in\n    tag_508:\n        /* \"#utility.yul\":14381:14500   */\n    tag_507:\n        /* \"#utility.yul\":14539:14540   */\n      0x00\n        /* \"#utility.yul\":14564:14625   */\n      tag_509\n        /* \"#utility.yul\":14617:14624   */\n      dup5\n        /* \"#utility.yul\":14608:14614   */\n      dup3\n        /* \"#utility.yul\":14597:14606   */\n      dup6\n        /* \"#utility.yul\":14593:14615   */\n      add\n        /* \"#utility.yul\":14564:14625   */\n      tag_325\n      jump\t// in\n    tag_509:\n        /* \"#utility.yul\":14554:14625   */\n      swap2\n      pop\n        /* \"#utility.yul\":14510:14635   */\n      pop\n        /* \"#utility.yul\":14297:14642   */\n      swap3\n      swap2\n      pop\n      pop\n      jump\t// out\n        /* \"#utility.yul\":14648:14747   */\n    tag_326:\n        /* \"#utility.yul\":14700:14706   */\n      0x00\n        /* \"#utility.yul\":14734:14739   */\n      dup2\n        /* \"#utility.yul\":14728:14740   */\n      mload\n        /* \"#utility.yul\":14718:14740   */\n      swap1\n      pop\n        /* \"#utility.yul\":14648:14747   */\n      swap2\n      swap1\n      pop\n      jump\t// out\n        /* \"#utility.yul\":14753:15060   */\n    tag_327:\n        /* \"#utility.yul\":14821:14822   */\n      0x00\n        /* \"#utility.yul\":14831:14944   */\n    tag_512:\n        /* \"#utility.yul\":14845:14851   */\n      dup4\n        /* \"#utility.yul\":14842:14843   */\n      dup2\n        /* \"#utility.yul\":14839:14852   */\n      lt\n        /* \"#utility.yul\":14831:14944   */\n      iszero\n      tag_514\n      jumpi\n        /* \"#utility.yul\":14930:14931   */\n      dup1\n        /* \"#utility.yul\":14925:14928   */\n      dup3\n        /* \"#utility.yul\":14921:14932   */\n      add\n        /* \"#utility.yul\":14915:14933   */\n      mload\n        /* \"#utility.yul\":14911:14912   */\n      dup2\n        /* \"#utility.yul\":14906:14909   */\n      dup5\n        /* \"#utility.yul\":14902:14913   */\n      add\n        /* \"#utility.yul\":14895:14934   */\n      mstore\n        /* \"#utility.yul\":14867:14869   */\n      0x20\n        /* \"#utility.yul\":14864:14865   */\n      dup2\n        /* \"#utility.yul\":14860:14870   */\n      add\n        /* \"#utility.yul\":14855:14870   */\n      swap1\n      pop\n        /* \"#utility.yul\":14831:14944   */\n      jump(tag_512)\n    tag_514:\n        /* \"#utility.yul\":14962:14968   */\n      dup4\n        /* \"#utility.yul\":14959:14960   */\n      dup2\n        /* \"#utility.yul\":14956:14969   */\n      gt\n        /* \"#utility.yul\":14953:15054   */\n      iszero\n      tag_515\n      jumpi\n        /* \"#utility.yul\":15042:15043   */\n      0x00\n        /* \"#utility.yul\":15033:15039   */\n      dup5\n        /* \"#utility.yul\":15028:15031   */\n      dup5\n        /* \"#utility.yul\":15024:15040   */\n      add\n        /* \"#utility.yul\":15017:15044   */\n      mstore\n        /* \"#utility.yul\":14953:15054   */\n    tag_515:\n        /* \"#utility.yul\":14802:15060   */\n      pop\n        /* \"#utility.yul\":14753:15060   */\n      pop\n      pop\n      pop\n      jump\t// out\n        /* \"#utility.yul\":15066:15430   */\n    tag_328:\n        /* \"#utility.yul\":15154:15157   */\n      0x00\n        /* \"#utility.yul\":15182:15221   */\n      tag_517\n        /* \"#utility.yul\":15215:15220   */\n      dup3\n        /* \"#utility.yul\":15182:15221   */\n      tag_326\n      jump\t// in\n    tag_517:\n        /* \"#utility.yul\":15237:15308   */\n      tag_518\n        /* \"#utility.yul\":15301:15307   */\n      dup2\n        /* \"#utility.yul\":15296:15299   */\n      dup6\n        /* \"#utility.yul\":15237:15308   */\n      tag_319\n      jump\t// in\n    tag_518:\n        /* \"#utility.yul\":15230:15308   */\n      swap4\n      pop\n        /* \"#utility.yul\":15317:15369   */\n      tag_519\n        /* \"#utility.yul\":15362:15368   */\n      dup2\n        /* \"#utility.yul\":15357:15360   */\n      dup6\n        /* \"#utility.yul\":15350:15354   */\n      0x20\n        /* \"#utility.yul\":15343:15348   */\n      dup7\n        /* \"#utility.yul\":15339:15355   */\n      add\n        /* \"#utility.yul\":15317:15369   */\n      tag_327\n      jump\t// in\n    tag_519:\n        /* \"#utility.yul\":15394:15423   */\n      tag_520\n        /* \"#utility.yul\":15416:15422   */\n      dup2\n        /* \"#utility.yul\":15394:15423   */\n      tag_304\n      jump\t// in\n    tag_520:\n        /* \"#utility.yul\":15389:15392   */\n      dup5\n        /* \"#utility.yul\":15385:15424   */\n      add\n        /* \"#utility.yul\":15378:15424   */\n      swap2\n      pop\n        /* \"#utility.yul\":15158:15430   */\n      pop\n        /* \"#utility.yul\":15066:15430   */\n      swap3\n      swap2\n      pop\n      pop\n      jump\t// out\n        /* \"#utility.yul\":15436:15859   */\n    tag_164:\n        /* \"#utility.yul\":15577:15581   */\n      0x00\n        /* \"#utility.yul\":15615:15617   */\n      0x40\n        /* \"#utility.yul\":15604:15613   */\n      dup3\n        /* \"#utility.yul\":15600:15618   */\n      add\n        /* \"#utility.yul\":15592:15618   */\n      swap1\n      pop\n        /* \"#utility.yul\":15628:15699   */\n      tag_522\n        /* \"#utility.yul\":15696:15697   */\n      0x00\n        /* \"#utility.yul\":15685:15694   */\n      dup4\n        /* \"#utility.yul\":15681:15698   */\n      add\n        /* \"#utility.yul\":15672:15678   */\n      dup6\n        /* \"#utility.yul\":15628:15699   */\n      tag_311\n      jump\t// in\n    tag_522:\n        /* \"#utility.yul\":15746:15755   */\n      dup2\n        /* \"#utility.yul\":15740:15744   */\n      dup2\n        /* \"#utility.yul\":15736:15756   */\n      sub\n        /* \"#utility.yul\":15731:15733   */\n      0x20\n        /* \"#utility.yul\":15720:15729   */\n      dup4\n        /* \"#utility.yul\":15716:15734   */\n      add\n        /* \"#utility.yul\":15709:15757   */\n      mstore\n        /* \"#utility.yul\":15774:15852   */\n      tag_523\n        /* \"#utility.yul\":15847:15851   */\n      dup2\n        /* \"#utility.yul\":15838:15844   */\n      dup5\n        /* \"#utility.yul\":15774:15852   */\n      tag_328\n      jump\t// in\n    tag_523:\n        /* \"#utility.yul\":15766:15852   */\n      swap1\n      pop\n        /* \"#utility.yul\":15436:15859   */\n      swap4\n      swap3\n      pop\n      pop\n      pop\n      jump\t// out\n        /* \"#utility.yul\":15865:16008   */\n    tag_329:\n        /* \"#utility.yul\":15922:15927   */\n      0x00\n        /* \"#utility.yul\":15953:15959   */\n      dup2\n        /* \"#utility.yul\":15947:15960   */\n      mload\n        /* \"#utility.yul\":15938:15960   */\n      swap1\n      pop\n        /* \"#utility.yul\":15969:16002   */\n      tag_525\n        /* \"#utility.yul\":15996:16001   */\n      dup2\n        /* \"#utility.yul\":15969:16002   */\n      tag_287\n      jump\t// in\n    tag_525:\n        /* \"#utility.yul\":15865:16008   */\n      swap3\n      swap2\n      pop\n      pop\n      jump\t// out\n        /* \"#utility.yul\":16014:16365   */\n    tag_168:\n        /* \"#utility.yul\":16084:16090   */\n      0x00\n        /* \"#utility.yul\":16133:16135   */\n      0x20\n        /* \"#utility.yul\":16121:16130   */\n      dup3\n        /* \"#utility.yul\":16112:16119   */\n      dup5\n        /* \"#utility.yul\":16108:16131   */\n      sub\n        /* \"#utility.yul\":16104:16136   */\n      slt\n        /* \"#utility.yul\":16101:16220   */\n      iszero\n      tag_527\n      jumpi\n        /* \"#utility.yul\":16139:16218   */\n      tag_528\n      tag_278\n      jump\t// in\n    tag_528:\n        /* \"#utility.yul\":16101:16220   */\n    tag_527:\n        /* \"#utility.yul\":16259:16260   */\n      0x00\n        /* \"#utility.yul\":16284:16348   */\n      tag_529\n        /* \"#utility.yul\":16340:16347   */\n      dup5\n        /* \"#utility.yul\":16331:16337   */\n      dup3\n        /* \"#utility.yul\":16320:16329   */\n      dup6\n        /* \"#utility.yul\":16316:16338   */\n      add\n        /* \"#utility.yul\":16284:16348   */\n      tag_329\n      jump\t// in\n    tag_529:\n        /* \"#utility.yul\":16274:16348   */\n      swap2\n      pop\n        /* \"#utility.yul\":16230:16358   */\n      pop\n        /* \"#utility.yul\":16014:16365   */\n      swap3\n      swap2\n      pop\n      pop\n      jump\t// out\n        /* \"#utility.yul\":16371:16924   */\n    tag_170:\n        /* \"#utility.yul\":16548:16552   */\n      0x00\n        /* \"#utility.yul\":16586:16589   */\n      0x80\n        /* \"#utility.yul\":16575:16584   */\n      dup3\n        /* \"#utility.yul\":16571:16590   */\n      add\n        /* \"#utility.yul\":16563:16590   */\n      swap1\n      pop\n        /* \"#utility.yul\":16600:16671   */\n      tag_531\n        /* \"#utility.yul\":16668:16669   */\n      0x00\n        /* \"#utility.yul\":16657:16666   */\n      dup4\n        /* \"#utility.yul\":16653:16670   */\n      add\n        /* \"#utility.yul\":16644:16650   */\n      dup8\n        /* \"#utility.yul\":16600:16671   */\n      tag_311\n      jump\t// in\n    tag_531:\n        /* \"#utility.yul\":16681:16753   */\n      tag_532\n        /* \"#utility.yul\":16749:16751   */\n      0x20\n        /* \"#utility.yul\":16738:16747   */\n      dup4\n        /* \"#utility.yul\":16734:16752   */\n      add\n        /* \"#utility.yul\":16725:16731   */\n      dup7\n        /* \"#utility.yul\":16681:16753   */\n      tag_286\n      jump\t// in\n    tag_532:\n        /* \"#utility.yul\":16763:16835   */\n      tag_533\n        /* \"#utility.yul\":16831:16833   */\n      0x40\n        /* \"#utility.yul\":16820:16829   */\n      dup4\n        /* \"#utility.yul\":16816:16834   */\n      add\n        /* \"#utility.yul\":16807:16813   */\n      dup6\n        /* \"#utility.yul\":16763:16835   */\n      tag_311\n      jump\t// in\n    tag_533:\n        /* \"#utility.yul\":16845:16917   */\n      tag_534\n        /* \"#utility.yul\":16913:16915   */\n      0x60\n        /* \"#utility.yul\":16902:16911   */\n      dup4\n        /* \"#utility.yul\":16898:16916   */\n      add\n        /* \"#utility.yul\":16889:16895   */\n      dup5\n        /* \"#utility.yul\":16845:16917   */\n      tag_286\n      jump\t// in\n    tag_534:\n        /* \"#utility.yul\":16371:16924   */\n      swap6\n      swap5\n      pop\n      pop\n      pop\n      pop\n      pop\n      jump\t// out\n        /* \"#utility.yul\":16930:17016   */\n    tag_330:\n        /* \"#utility.yul\":16965:16972   */\n      0x00\n        /* \"#utility.yul\":17005:17009   */\n      0xff\n        /* \"#utility.yul\":16998:17003   */\n      dup3\n        /* \"#utility.yul\":16994:17010   */\n      and\n        /* \"#utility.yul\":16983:17010   */\n      swap1\n      pop\n        /* \"#utility.yul\":16930:17016   */\n      swap2\n      swap1\n      pop\n      jump\t// out\n        /* \"#utility.yul\":17022:17202   */\n    tag_331:\n        /* \"#utility.yul\":17070:17147   */\n      0x4e487b7100000000000000000000000000000000000000000000000000000000\n        /* \"#utility.yul\":17067:17068   */\n      0x00\n        /* \"#utility.yul\":17060:17148   */\n      mstore\n        /* \"#utility.yul\":17167:17171   */\n      0x12\n        /* \"#utility.yul\":17164:17165   */\n      0x04\n        /* \"#utility.yul\":17157:17172   */\n      mstore\n        /* \"#utility.yul\":17191:17195   */\n      0x24\n        /* \"#utility.yul\":17188:17189   */\n      0x00\n        /* \"#utility.yul\":17181:17196   */\n      revert\n        /* \"#utility.yul\":17208:17378   */\n    tag_191:\n        /* \"#utility.yul\":17238:17239   */\n      0x00\n        /* \"#utility.yul\":17255:17273   */\n      tag_538\n        /* \"#utility.yul\":17271:17272   */\n      dup3\n        /* \"#utility.yul\":17255:17273   */\n      tag_330\n      jump\t// in\n    tag_538:\n        /* \"#utility.yul\":17250:17273   */\n      swap2\n      pop\n        /* \"#utility.yul\":17287:17305   */\n      tag_539\n        /* \"#utility.yul\":17303:17304   */\n      dup4\n        /* \"#utility.yul\":17287:17305   */\n      tag_330\n      jump\t// in\n    tag_539:\n        /* \"#utility.yul\":17282:17305   */\n      swap3\n      pop\n        /* \"#utility.yul\":17324:17325   */\n      dup3\n        /* \"#utility.yul\":17314:17349   */\n      tag_540\n      jumpi\n        /* \"#utility.yul\":17329:17347   */\n      tag_541\n      tag_331\n      jump\t// in\n    tag_541:\n        /* \"#utility.yul\":17314:17349   */\n    tag_540:\n        /* \"#utility.yul\":17370:17371   */\n      dup3\n        /* \"#utility.yul\":17367:17368   */\n      dup3\n        /* \"#utility.yul\":17363:17372   */\n      mod\n        /* \"#utility.yul\":17358:17372   */\n      swap1\n      pop\n        /* \"#utility.yul\":17208:17378   */\n      swap3\n      swap2\n      pop\n      pop\n      jump\t// out\n        /* \"#utility.yul\":17384:17564   */\n    tag_332:\n        /* \"#utility.yul\":17432:17509   */\n      0x4e487b7100000000000000000000000000000000000000000000000000000000\n        /* \"#utility.yul\":17429:17430   */\n      0x00\n        /* \"#utility.yul\":17422:17510   */\n      mstore\n        /* \"#utility.yul\":17529:17533   */\n      0x11\n        /* \"#utility.yul\":17526:17527   */\n      0x04\n        /* \"#utility.yul\":17519:17534   */\n      mstore\n        /* \"#utility.yul\":17553:17557   */\n      0x24\n        /* \"#utility.yul\":17550:17551   */\n      0x00\n        /* \"#utility.yul\":17543:17558   */\n      revert\n        /* \"#utility.yul\":17570:17672   */\n    tag_333:\n        /* \"#utility.yul\":17612:17620   */\n      0x00\n        /* \"#utility.yul\":17659:17664   */\n      dup2\n        /* \"#utility.yul\":17656:17657   */\n      0x01\n        /* \"#utility.yul\":17652:17665   */\n      shr\n        /* \"#utility.yul\":17631:17665   */\n      swap1\n      pop\n        /* \"#utility.yul\":17570:17672   */\n      swap2\n      swap1\n      pop\n      jump\t// out\n        /* \"#utility.yul\":17678:18526   */\n    tag_334:\n        /* \"#utility.yul\":17739:17744   */\n      0x00\n        /* \"#utility.yul\":17746:17750   */\n      dup1\n        /* \"#utility.yul\":17770:17776   */\n      dup3\n        /* \"#utility.yul\":17761:17776   */\n      swap2\n      pop\n        /* \"#utility.yul\":17794:17799   */\n      dup4\n        /* \"#utility.yul\":17785:17799   */\n      swap1\n      pop\n        /* \"#utility.yul\":17808:18520   */\n    tag_545:\n        /* \"#utility.yul\":17829:17830   */\n      0x01\n        /* \"#utility.yul\":17819:17827   */\n      dup6\n        /* \"#utility.yul\":17816:17831   */\n      gt\n        /* \"#utility.yul\":17808:18520   */\n      iszero\n      tag_547\n      jumpi\n        /* \"#utility.yul\":17924:17928   */\n      dup1\n        /* \"#utility.yul\":17919:17922   */\n      dup7\n        /* \"#utility.yul\":17915:17929   */\n      div\n        /* \"#utility.yul\":17909:17913   */\n      dup2\n        /* \"#utility.yul\":17906:17930   */\n      gt\n        /* \"#utility.yul\":17903:17953   */\n      iszero\n      tag_548\n      jumpi\n        /* \"#utility.yul\":17933:17951   */\n      tag_549\n      tag_332\n      jump\t// in\n    tag_549:\n        /* \"#utility.yul\":17903:17953   */\n    tag_548:\n        /* \"#utility.yul\":17983:17984   */\n      0x01\n        /* \"#utility.yul\":17973:17981   */\n      dup6\n        /* \"#utility.yul\":17969:17985   */\n      and\n        /* \"#utility.yul\":17966:18417   */\n      iszero\n      tag_550\n      jumpi\n        /* \"#utility.yul\":18398:18402   */\n      dup1\n        /* \"#utility.yul\":18391:18396   */\n      dup3\n        /* \"#utility.yul\":18387:18403   */\n      mul\n        /* \"#utility.yul\":18378:18403   */\n      swap2\n      pop\n        /* \"#utility.yul\":17966:18417   */\n    tag_550:\n        /* \"#utility.yul\":18448:18452   */\n      dup1\n        /* \"#utility.yul\":18442:18446   */\n      dup2\n        /* \"#utility.yul\":18438:18453   */\n      mul\n        /* \"#utility.yul\":18430:18453   */\n      swap1\n      pop\n        /* \"#utility.yul\":18478:18510   */\n      tag_551\n        /* \"#utility.yul\":18501:18509   */\n      dup6\n        /* \"#utility.yul\":18478:18510   */\n      tag_333\n      jump\t// in\n    tag_551:\n        /* \"#utility.yul\":18466:18510   */\n      swap5\n      pop\n        /* \"#utility.yul\":17808:18520   */\n      jump(tag_545)\n    tag_547:\n        /* \"#utility.yul\":17678:18526   */\n      swap5\n      pop\n      swap5\n      swap3\n      pop\n      pop\n      pop\n      jump\t// out\n        /* \"#utility.yul\":18532:19605   */\n    tag_335:\n        /* \"#utility.yul\":18586:18591   */\n      0x00\n        /* \"#utility.yul\":18777:18785   */\n      dup3\n        /* \"#utility.yul\":18767:18807   */\n      tag_553\n      jumpi\n        /* \"#utility.yul\":18798:18799   */\n      0x01\n        /* \"#utility.yul\":18789:18799   */\n      swap1\n      pop\n        /* \"#utility.yul\":18800:18805   */\n      jump(tag_552)\n        /* \"#utility.yul\":18767:18807   */\n    tag_553:\n        /* \"#utility.yul\":18826:18830   */\n      dup2\n        /* \"#utility.yul\":18816:18852   */\n      tag_554\n      jumpi\n        /* \"#utility.yul\":18843:18844   */\n      0x00\n        /* \"#utility.yul\":18834:18844   */\n      swap1\n      pop\n        /* \"#utility.yul\":18845:18850   */\n      jump(tag_552)\n        /* \"#utility.yul\":18816:18852   */\n    tag_554:\n        /* \"#utility.yul\":18912:18916   */\n      dup2\n        /* \"#utility.yul\":18960:18961   */\n      0x01\n        /* \"#utility.yul\":18955:18982   */\n      dup2\n      eq\n      tag_556\n      jumpi\n        /* \"#utility.yul\":18996:18997   */\n      0x02\n        /* \"#utility.yul\":18991:19182   */\n      dup2\n      eq\n      tag_557\n      jumpi\n        /* \"#utility.yul\":18905:19182   */\n      jump(tag_555)\n        /* \"#utility.yul\":18955:18982   */\n    tag_556:\n        /* \"#utility.yul\":18973:18974   */\n      0x01\n        /* \"#utility.yul\":18964:18974   */\n      swap2\n      pop\n        /* \"#utility.yul\":18975:18980   */\n      pop\n      jump(tag_552)\n        /* \"#utility.yul\":18991:19182   */\n    tag_557:\n        /* \"#utility.yul\":19036:19039   */\n      0xff\n        /* \"#utility.yul\":19026:19034   */\n      dup5\n        /* \"#utility.yul\":19023:19040   */\n      gt\n        /* \"#utility.yul\":19020:19063   */\n      iszero\n      tag_558\n      jumpi\n        /* \"#utility.yul\":19043:19061   */\n      tag_559\n      tag_332\n      jump\t// in\n    tag_559:\n        /* \"#utility.yul\":19020:19063   */\n    tag_558:\n        /* \"#utility.yul\":19092:19100   */\n      dup4\n        /* \"#utility.yul\":19089:19090   */\n      0x02\n        /* \"#utility.yul\":19085:19101   */\n      exp\n        /* \"#utility.yul\":19076:19101   */\n      swap2\n      pop\n        /* \"#utility.yul\":19127:19130   */\n      dup5\n        /* \"#utility.yul\":19120:19125   */\n      dup3\n        /* \"#utility.yul\":19117:19131   */\n      gt\n        /* \"#utility.yul\":19114:19154   */\n      iszero\n      tag_560\n      jumpi\n        /* \"#utility.yul\":19134:19152   */\n      tag_561\n      tag_332\n      jump\t// in\n    tag_561:\n        /* \"#utility.yul\":19114:19154   */\n    tag_560:\n        /* \"#utility.yul\":19167:19172   */\n      pop\n      jump(tag_552)\n        /* \"#utility.yul\":18905:19182   */\n    tag_555:\n      pop\n        /* \"#utility.yul\":19291:19293   */\n      0x20\n        /* \"#utility.yul\":19281:19289   */\n      dup4\n        /* \"#utility.yul\":19278:19294   */\n      lt\n        /* \"#utility.yul\":19272:19275   */\n      0x0133\n        /* \"#utility.yul\":19266:19270   */\n      dup4\n        /* \"#utility.yul\":19263:19276   */\n      lt\n        /* \"#utility.yul\":19259:19295   */\n      and\n        /* \"#utility.yul\":19241:19243   */\n      0x4e\n        /* \"#utility.yul\":19231:19239   */\n      dup5\n        /* \"#utility.yul\":19228:19244   */\n      lt\n        /* \"#utility.yul\":19223:19225   */\n      0x0b\n        /* \"#utility.yul\":19217:19221   */\n      dup5\n        /* \"#utility.yul\":19214:19226   */\n      lt\n        /* \"#utility.yul\":19210:19245   */\n      and\n        /* \"#utility.yul\":19194:19305   */\n      or\n        /* \"#utility.yul\":19191:19437   */\n      iszero\n      tag_562\n      jumpi\n        /* \"#utility.yul\":19347:19355   */\n      dup3\n        /* \"#utility.yul\":19341:19345   */\n      dup3\n        /* \"#utility.yul\":19337:19356   */\n      exp\n        /* \"#utility.yul\":19328:19356   */\n      swap1\n      pop\n        /* \"#utility.yul\":19382:19385   */\n      dup4\n        /* \"#utility.yul\":19375:19380   */\n      dup2\n        /* \"#utility.yul\":19372:19386   */\n      gt\n        /* \"#utility.yul\":19369:19409   */\n      iszero\n      tag_563\n      jumpi\n        /* \"#utility.yul\":19389:19407   */\n      tag_564\n      tag_332\n      jump\t// in\n    tag_564:\n        /* \"#utility.yul\":19369:19409   */\n    tag_563:\n        /* \"#utility.yul\":19422:19427   */\n      jump(tag_552)\n        /* \"#utility.yul\":19191:19437   */\n    tag_562:\n        /* \"#utility.yul\":19462:19504   */\n      tag_565\n        /* \"#utility.yul\":19500:19503   */\n      dup5\n        /* \"#utility.yul\":19490:19498   */\n      dup5\n        /* \"#utility.yul\":19484:19488   */\n      dup5\n        /* \"#utility.yul\":19481:19482   */\n      0x01\n        /* \"#utility.yul\":19462:19504   */\n      tag_334\n      jump\t// in\n    tag_565:\n        /* \"#utility.yul\":19447:19504   */\n      swap3\n      pop\n      swap1\n      pop\n        /* \"#utility.yul\":19536:19540   */\n      dup2\n        /* \"#utility.yul\":19531:19534   */\n      dup5\n        /* \"#utility.yul\":19527:19541   */\n      div\n        /* \"#utility.yul\":19520:19525   */\n      dup2\n        /* \"#utility.yul\":19517:19542   */\n      gt\n        /* \"#utility.yul\":19514:19565   */\n      iszero\n      tag_566\n      jumpi\n        /* \"#utility.yul\":19545:19563   */\n      tag_567\n      tag_332\n      jump\t// in\n    tag_567:\n        /* \"#utility.yul\":19514:19565   */\n    tag_566:\n        /* \"#utility.yul\":19594:19598   */\n      dup2\n        /* \"#utility.yul\":19587:19592   */\n      dup2\n        /* \"#utility.yul\":19583:19599   */\n      mul\n        /* \"#utility.yul\":19574:19599   */\n      swap1\n      pop\n        /* \"#utility.yul\":18532:19605   */\n    tag_552:\n      swap4\n      swap3\n      pop\n      pop\n      pop\n      jump\t// out\n        /* \"#utility.yul\":19611:19892   */\n    tag_195:\n        /* \"#utility.yul\":19669:19674   */\n      0x00\n        /* \"#utility.yul\":19693:19716   */\n      tag_569\n        /* \"#utility.yul\":19711:19715   */\n      dup3\n        /* \"#utility.yul\":19693:19716   */\n      tag_285\n      jump\t// in\n    tag_569:\n        /* \"#utility.yul\":19685:19716   */\n      swap2\n      pop\n        /* \"#utility.yul\":19737:19762   */\n      tag_570\n        /* \"#utility.yul\":19753:19761   */\n      dup4\n        /* \"#utility.yul\":19737:19762   */\n      tag_330\n      jump\t// in\n    tag_570:\n        /* \"#utility.yul\":19725:19762   */\n      swap3\n      pop\n        /* \"#utility.yul\":19781:19885   */\n      tag_571\n        /* \"#utility.yul\":19818:19884   */\n      0xffffffffffffffffffffffffffffffffffffffffffffffffffffffffffffffff\n        /* \"#utility.yul\":19808:19816   */\n      dup5\n        /* \"#utility.yul\":19802:19806   */\n      dup5\n        /* \"#utility.yul\":19781:19885   */\n      tag_335\n      jump\t// in\n    tag_571:\n        /* \"#utility.yul\":19772:19885   */\n      swap1\n      pop\n        /* \"#utility.yul\":19611:19892   */\n      swap3\n      swap2\n      pop\n      pop\n      jump\t// out\n        /* \"#utility.yul\":19898:20078   */\n    tag_198:\n        /* \"#utility.yul\":19946:20023   */\n      0x4e487b7100000000000000000000000000000000000000000000000000000000\n        /* \"#utility.yul\":19943:19944   */\n      0x00\n        /* \"#utility.yul\":19936:20024   */\n      mstore\n        /* \"#utility.yul\":20043:20047   */\n      0x32\n        /* \"#utility.yul\":20040:20041   */\n      0x04\n        /* \"#utility.yul\":20033:20048   */\n      mstore\n        /* \"#utility.yul\":20067:20071   */\n      0x24\n        /* \"#utility.yul\":20064:20065   */\n      0x00\n        /* \"#utility.yul\":20057:20072   */\n      revert\n        /* \"#utility.yul\":20084:20432   */\n    tag_200:\n        /* \"#utility.yul\":20124:20131   */\n      0x00\n        /* \"#utility.yul\":20147:20167   */\n      tag_574\n        /* \"#utility.yul\":20165:20166   */\n      dup3\n        /* \"#utility.yul\":20147:20167   */\n      tag_285\n      jump\t// in\n    tag_574:\n        /* \"#utility.yul\":20142:20167   */\n      swap2\n      pop\n        /* \"#utility.yul\":20181:20201   */\n      tag_575\n        /* \"#utility.yul\":20199:20200   */\n      dup4\n        /* \"#utility.yul\":20181:20201   */\n      tag_285\n      jump\t// in\n    tag_575:\n        /* \"#utility.yul\":20176:20201   */\n      swap3\n      pop\n        /* \"#utility.yul\":20369:20370   */\n      dup2\n        /* \"#utility.yul\":20301:20367   */\n      0xffffffffffffffffffffffffffffffffffffffffffffffffffffffffffffffff\n        /* \"#utility.yul\":20297:20371   */\n      div\n        /* \"#utility.yul\":20294:20295   */\n      dup4\n        /* \"#utility.yul\":20291:20372   */\n      gt\n        /* \"#utility.yul\":20286:20287   */\n      dup3\n        /* \"#utility.yul\":20279:20288   */\n      iszero\n        /* \"#utility.yul\":20272:20289   */\n      iszero\n        /* \"#utility.yul\":20268:20373   */\n      and\n        /* \"#utility.yul\":20265:20396   */\n      iszero\n      tag_576\n      jumpi\n        /* \"#utility.yul\":20376:20394   */\n      tag_577\n      tag_332\n      jump\t// in\n    tag_577:\n        /* \"#utility.yul\":20265:20396   */\n    tag_576:\n        /* \"#utility.yul\":20424:20425   */\n      dup3\n        /* \"#utility.yul\":20421:20422   */\n      dup3\n        /* \"#utility.yul\":20417:20426   */\n      mul\n        /* \"#utility.yul\":20406:20426   */\n      swap1\n      pop\n        /* \"#utility.yul\":20084:20432   */\n      swap3\n      swap2\n      pop\n      pop\n      jump\t// out\n        /* \"#utility.yul\":20438:20617   */\n    tag_202:\n        /* \"#utility.yul\":20476:20477   */\n      0x00\n        /* \"#utility.yul\":20493:20511   */\n      tag_579\n        /* \"#utility.yul\":20509:20510   */\n      dup3\n        /* \"#utility.yul\":20493:20511   */\n      tag_330\n      jump\t// in\n    tag_579:\n        /* \"#utility.yul\":20488:20511   */\n      swap2\n      pop\n        /* \"#utility.yul\":20525:20543   */\n      tag_580\n        /* \"#utility.yul\":20541:20542   */\n      dup4\n        /* \"#utility.yul\":20525:20543   */\n      tag_330\n      jump\t// in\n    tag_580:\n        /* \"#utility.yul\":20520:20543   */\n      swap3\n      pop\n        /* \"#utility.yul\":20562:20563   */\n      dup3\n        /* \"#utility.yul\":20552:20587   */\n      tag_581\n      jumpi\n        /* \"#utility.yul\":20567:20585   */\n      tag_582\n      tag_331\n      jump\t// in\n    tag_582:\n        /* \"#utility.yul\":20552:20587   */\n    tag_581:\n        /* \"#utility.yul\":20609:20610   */\n      dup3\n        /* \"#utility.yul\":20606:20607   */\n      dup3\n        /* \"#utility.yul\":20602:20611   */\n      div\n        /* \"#utility.yul\":20597:20611   */\n      swap1\n      pop\n        /* \"#utility.yul\":20438:20617   */\n      swap3\n      swap2\n      pop\n      pop\n      jump\t// out\n        /* \"#utility.yul\":20623:20928   */\n    tag_206:\n        /* \"#utility.yul\":20663:20666   */\n      0x00\n        /* \"#utility.yul\":20682:20702   */\n      tag_584\n        /* \"#utility.yul\":20700:20701   */\n      dup3\n        /* \"#utility.yul\":20682:20702   */\n      tag_285\n      jump\t// in\n    tag_584:\n        /* \"#utility.yul\":20677:20702   */\n      swap2\n      pop\n        /* \"#utility.yul\":20716:20736   */\n      tag_585\n        /* \"#utility.yul\":20734:20735   */\n      dup4\n        /* \"#utility.yul\":20716:20736   */\n      tag_285\n      jump\t// in\n    tag_585:\n        /* \"#utility.yul\":20711:20736   */\n      swap3\n      pop\n        /* \"#utility.yul\":20870:20871   */\n      dup3\n        /* \"#utility.yul\":20802:20868   */\n      0xffffffffffffffffffffffffffffffffffffffffffffffffffffffffffffffff\n        /* \"#utility.yul\":20798:20872   */\n      sub\n        /* \"#utility.yul\":20795:20796   */\n      dup3\n        /* \"#utility.yul\":20792:20873   */\n      gt\n        /* \"#utility.yul\":20789:20896   */\n      iszero\n      tag_586\n      jumpi\n        /* \"#utility.yul\":20876:20894   */\n      tag_587\n      tag_332\n      jump\t// in\n    tag_587:\n        /* \"#utility.yul\":20789:20896   */\n    tag_586:\n        /* \"#utility.yul\":20920:20921   */\n      dup3\n        /* \"#utility.yul\":20917:20918   */\n      dup3\n        /* \"#utility.yul\":20913:20922   */\n      add\n        /* \"#utility.yul\":20906:20922   */\n      swap1\n      pop\n        /* \"#utility.yul\":20623:20928   */\n      swap3\n      swap2\n      pop\n      pop\n      jump\t// out\n        /* \"#utility.yul\":20934:21101   */\n    tag_211:\n        /* \"#utility.yul\":20971:20974   */\n      0x00\n        /* \"#utility.yul\":20994:21016   */\n      tag_589\n        /* \"#utility.yul\":21010:21015   */\n      dup3\n        /* \"#utility.yul\":20994:21016   */\n      tag_330\n      jump\t// in\n    tag_589:\n        /* \"#utility.yul\":20985:21016   */\n      swap2\n      pop\n        /* \"#utility.yul\":21038:21042   */\n      0xff\n        /* \"#utility.yul\":21031:21036   */\n      dup3\n        /* \"#utility.yul\":21028:21043   */\n      sub\n        /* \"#utility.yul\":21025:21066   */\n      tag_590\n      jumpi\n        /* \"#utility.yul\":21046:21064   */\n      tag_591\n      tag_332\n      jump\t// in\n    tag_591:\n        /* \"#utility.yul\":21025:21066   */\n    tag_590:\n        /* \"#utility.yul\":21093:21094   */\n      0x01\n        /* \"#utility.yul\":21086:21091   */\n      dup3\n        /* \"#utility.yul\":21082:21095   */\n      add\n        /* \"#utility.yul\":21075:21095   */\n      swap1\n      pop\n        /* \"#utility.yul\":20934:21101   */\n      swap2\n      swap1\n      pop\n      jump\t// out\n        /* \"#utility.yul\":21107:21278   */\n    tag_336:\n        /* \"#utility.yul\":21247:21270   */\n      0x4d7573742062652076616c69642070657263656e740000000000000000000000\n        /* \"#utility.yul\":21243:21244   */\n      0x00\n        /* \"#utility.yul\":21235:21241   */\n      dup3\n        /* \"#utility.yul\":21231:21245   */\n      add\n        /* \"#utility.yul\":21224:21271   */\n      mstore\n        /* \"#utility.yul\":21107:21278   */\n      pop\n      jump\t// out\n        /* \"#utility.yul\":21284:21650   */\n    tag_337:\n        /* \"#utility.yul\":21426:21429   */\n      0x00\n        /* \"#utility.yul\":21447:21514   */\n      tag_594\n        /* \"#utility.yul\":21511:21513   */\n      0x15\n        /* \"#utility.yul\":21506:21509   */\n      dup4\n        /* \"#utility.yul\":21447:21514   */\n      tag_319\n      jump\t// in\n    tag_594:\n        /* \"#utility.yul\":21440:21514   */\n      swap2\n      pop\n        /* \"#utility.yul\":21523:21616   */\n      tag_595\n        /* \"#utility.yul\":21612:21615   */\n      dup3\n        /* \"#utility.yul\":21523:21616   */\n      tag_336\n      jump\t// in\n    tag_595:\n        /* \"#utility.yul\":21641:21643   */\n      0x20\n        /* \"#utility.yul\":21636:21639   */\n      dup3\n        /* \"#utility.yul\":21632:21644   */\n      add\n        /* \"#utility.yul\":21625:21644   */\n      swap1\n      pop\n        /* \"#utility.yul\":21284:21650   */\n      swap2\n      swap1\n      pop\n      jump\t// out\n        /* \"#utility.yul\":21656:22075   */\n    tag_218:\n        /* \"#utility.yul\":21822:21826   */\n      0x00\n        /* \"#utility.yul\":21860:21862   */\n      0x20\n        /* \"#utility.yul\":21849:21858   */\n      dup3\n        /* \"#utility.yul\":21845:21863   */\n      add\n        /* \"#utility.yul\":21837:21863   */\n      swap1\n      pop\n        /* \"#utility.yul\":21909:21918   */\n      dup2\n        /* \"#utility.yul\":21903:21907   */\n      dup2\n        /* \"#utility.yul\":21899:21919   */\n      sub\n        /* \"#utility.yul\":21895:21896   */\n      0x00\n        /* \"#utility.yul\":21884:21893   */\n      dup4\n        /* \"#utility.yul\":21880:21897   */\n      add\n        /* \"#utility.yul\":21873:21920   */\n      mstore\n        /* \"#utility.yul\":21937:22068   */\n      tag_597\n        /* \"#utility.yul\":22063:22067   */\n      dup2\n        /* \"#utility.yul\":21937:22068   */\n      tag_337\n      jump\t// in\n    tag_597:\n        /* \"#utility.yul\":21929:22068   */\n      swap1\n      pop\n        /* \"#utility.yul\":21656:22075   */\n      swap2\n      swap1\n      pop\n      jump\t// out\n        /* \"#utility.yul\":22081:22413   */\n    tag_228:\n        /* \"#utility.yul\":22202:22206   */\n      0x00\n        /* \"#utility.yul\":22240:22242   */\n      0x40\n        /* \"#utility.yul\":22229:22238   */\n      dup3\n        /* \"#utility.yul\":22225:22243   */\n      add\n        /* \"#utility.yul\":22217:22243   */\n      swap1\n      pop\n        /* \"#utility.yul\":22253:22324   */\n      tag_599\n        /* \"#utility.yul\":22321:22322   */\n      0x00\n        /* \"#utility.yul\":22310:22319   */\n      dup4\n        /* \"#utility.yul\":22306:22323   */\n      add\n        /* \"#utility.yul\":22297:22303   */\n      dup6\n        /* \"#utility.yul\":22253:22324   */\n      tag_311\n      jump\t// in\n    tag_599:\n        /* \"#utility.yul\":22334:22406   */\n      tag_600\n        /* \"#utility.yul\":22402:22404   */\n      0x20\n        /* \"#utility.yul\":22391:22400   */\n      dup4\n        /* \"#utility.yul\":22387:22405   */\n      add\n        /* \"#utility.yul\":22378:22384   */\n      dup5\n        /* \"#utility.yul\":22334:22406   */\n      tag_286\n      jump\t// in\n    tag_600:\n        /* \"#utility.yul\":22081:22413   */\n      swap4\n      swap3\n      pop\n      pop\n      pop\n      jump\t// out\n        /* \"#utility.yul\":22419:22567   */\n    tag_338:\n        /* \"#utility.yul\":22521:22532   */\n      0x00\n        /* \"#utility.yul\":22558:22561   */\n      dup2\n        /* \"#utility.yul\":22543:22561   */\n      swap1\n      pop\n        /* \"#utility.yul\":22419:22567   */\n      swap3\n      swap2\n      pop\n      pop\n      jump\t// out\n        /* \"#utility.yul\":22573:22746   */\n    tag_339:\n        /* \"#utility.yul\":22713:22738   */\n      0x416363657373436f6e74726f6c3a206163636f756e7420000000000000000000\n        /* \"#utility.yul\":22709:22710   */\n      0x00\n        /* \"#utility.yul\":22701:22707   */\n      dup3\n        /* \"#utility.yul\":22697:22711   */\n      add\n        /* \"#utility.yul\":22690:22739   */\n      mstore\n        /* \"#utility.yul\":22573:22746   */\n      pop\n      jump\t// out\n        /* \"#utility.yul\":22752:23154   */\n    tag_340:\n        /* \"#utility.yul\":22912:22915   */\n      0x00\n        /* \"#utility.yul\":22933:23018   */\n      tag_604\n        /* \"#utility.yul\":23015:23017   */\n      0x17\n        /* \"#utility.yul\":23010:23013   */\n      dup4\n        /* \"#utility.yul\":22933:23018   */\n      tag_338\n      jump\t// in\n    tag_604:\n        /* \"#utility.yul\":22926:23018   */\n      swap2\n      pop\n        /* \"#utility.yul\":23027:23120   */\n      tag_605\n        /* \"#utility.yul\":23116:23119   */\n      dup3\n        /* \"#utility.yul\":23027:23120   */\n      tag_339\n      jump\t// in\n    tag_605:\n        /* \"#utility.yul\":23145:23147   */\n      0x17\n        /* \"#utility.yul\":23140:23143   */\n      dup3\n        /* \"#utility.yul\":23136:23148   */\n      add\n        /* \"#utility.yul\":23129:23148   */\n      swap1\n      pop\n        /* \"#utility.yul\":22752:23154   */\n      swap2\n      swap1\n      pop\n      jump\t// out\n        /* \"#utility.yul\":23160:23537   */\n    tag_341:\n        /* \"#utility.yul\":23266:23269   */\n      0x00\n        /* \"#utility.yul\":23294:23333   */\n      tag_607\n        /* \"#utility.yul\":23327:23332   */\n      dup3\n        /* \"#utility.yul\":23294:23333   */\n      tag_326\n      jump\t// in\n    tag_607:\n        /* \"#utility.yul\":23349:23438   */\n      tag_608\n        /* \"#utility.yul\":23431:23437   */\n      dup2\n        /* \"#utility.yul\":23426:23429   */\n      dup6\n        /* \"#utility.yul\":23349:23438   */\n      tag_338\n      jump\t// in\n    tag_608:\n        /* \"#utility.yul\":23342:23438   */\n      swap4\n      pop\n        /* \"#utility.yul\":23447:23499   */\n      tag_609\n        /* \"#utility.yul\":23492:23498   */\n      dup2\n        /* \"#utility.yul\":23487:23490   */\n      dup6\n        /* \"#utility.yul\":23480:23484   */\n      0x20\n        /* \"#utility.yul\":23473:23478   */\n      dup7\n        /* \"#utility.yul\":23469:23485   */\n      add\n        /* \"#utility.yul\":23447:23499   */\n      tag_327\n      jump\t// in\n    tag_609:\n        /* \"#utility.yul\":23524:23530   */\n      dup1\n        /* \"#utility.yul\":23519:23522   */\n      dup5\n        /* \"#utility.yul\":23515:23531   */\n      add\n        /* \"#utility.yul\":23508:23531   */\n      swap2\n      pop\n        /* \"#utility.yul\":23270:23537   */\n      pop\n        /* \"#utility.yul\":23160:23537   */\n      swap3\n      swap2\n      pop\n      pop\n      jump\t// out\n        /* \"#utility.yul\":23543:23710   */\n    tag_342:\n        /* \"#utility.yul\":23683:23702   */\n      0x206973206d697373696e6720726f6c6520000000000000000000000000000000\n        /* \"#utility.yul\":23679:23680   */\n      0x00\n        /* \"#utility.yul\":23671:23677   */\n      dup3\n        /* \"#utility.yul\":23667:23681   */\n      add\n        /* \"#utility.yul\":23660:23703   */\n      mstore\n        /* \"#utility.yul\":23543:23710   */\n      pop\n      jump\t// out\n        /* \"#utility.yul\":23716:24118   */\n    tag_343:\n        /* \"#utility.yul\":23876:23879   */\n      0x00\n        /* \"#utility.yul\":23897:23982   */\n      tag_612\n        /* \"#utility.yul\":23979:23981   */\n      0x11\n        /* \"#utility.yul\":23974:23977   */\n      dup4\n        /* \"#utility.yul\":23897:23982   */\n      tag_338\n      jump\t// in\n    tag_612:\n        /* \"#utility.yul\":23890:23982   */\n      swap2\n      pop\n        /* \"#utility.yul\":23991:24084   */\n      tag_613\n        /* \"#utility.yul\":24080:24083   */\n      dup3\n        /* \"#utility.yul\":23991:24084   */\n      tag_342\n      jump\t// in\n    tag_613:\n        /* \"#utility.yul\":24109:24111   */\n      0x11\n        /* \"#utility.yul\":24104:24107   */\n      dup3\n        /* \"#utility.yul\":24100:24112   */\n      add\n        /* \"#utility.yul\":24093:24112   */\n      swap1\n      pop\n        /* \"#utility.yul\":23716:24118   */\n      swap2\n      swap1\n      pop\n      jump\t// out\n        /* \"#utility.yul\":24124:25091   */\n    tag_241:\n        /* \"#utility.yul\":24506:24509   */\n      0x00\n        /* \"#utility.yul\":24528:24676   */\n      tag_615\n        /* \"#utility.yul\":24672:24675   */\n      dup3\n        /* \"#utility.yul\":24528:24676   */\n      tag_340\n      jump\t// in\n    tag_615:\n        /* \"#utility.yul\":24521:24676   */\n      swap2\n      pop\n        /* \"#utility.yul\":24693:24788   */\n      tag_616\n        /* \"#utility.yul\":24784:24787   */\n      dup3\n        /* \"#utility.yul\":24775:24781   */\n      dup6\n        /* \"#utility.yul\":24693:24788   */\n      tag_341\n      jump\t// in\n    tag_616:\n        /* \"#utility.yul\":24686:24788   */\n      swap2\n      pop\n        /* \"#utility.yul\":24805:24953   */\n      tag_617\n        /* \"#utility.yul\":24949:24952   */\n      dup3\n        /* \"#utility.yul\":24805:24953   */\n      tag_343\n      jump\t// in\n    tag_617:\n        /* \"#utility.yul\":24798:24953   */\n      swap2\n      pop\n        /* \"#utility.yul\":24970:25065   */\n      tag_618\n        /* \"#utility.yul\":25061:25064   */\n      dup3\n        /* \"#utility.yul\":25052:25058   */\n      dup5\n        /* \"#utility.yul\":24970:25065   */\n      tag_341\n      jump\t// in\n    tag_618:\n        /* \"#utility.yul\":24963:25065   */\n      swap2\n      pop\n        /* \"#utility.yul\":25082:25085   */\n      dup2\n        /* \"#utility.yul\":25075:25085   */\n      swap1\n      pop\n        /* \"#utility.yul\":24124:25091   */\n      swap4\n      swap3\n      pop\n      pop\n      pop\n      jump\t// out\n        /* \"#utility.yul\":25097:25410   */\n    tag_243:\n        /* \"#utility.yul\":25210:25214   */\n      0x00\n        /* \"#utility.yul\":25248:25250   */\n      0x20\n        /* \"#utility.yul\":25237:25246   */\n      dup3\n        /* \"#utility.yul\":25233:25251   */\n      add\n        /* \"#utility.yul\":25225:25251   */\n      swap1\n      pop\n        /* \"#utility.yul\":25297:25306   */\n      dup2\n        /* \"#utility.yul\":25291:25295   */\n      dup2\n        /* \"#utility.yul\":25287:25307   */\n      sub\n        /* \"#utility.yul\":25283:25284   */\n      0x00\n        /* \"#utility.yul\":25272:25281   */\n      dup4\n        /* \"#utility.yul\":25268:25285   */\n      add\n        /* \"#utility.yul\":25261:25308   */\n      mstore\n        /* \"#utility.yul\":25325:25403   */\n      tag_620\n        /* \"#utility.yul\":25398:25402   */\n      dup2\n        /* \"#utility.yul\":25389:25395   */\n      dup5\n        /* \"#utility.yul\":25325:25403   */\n      tag_328\n      jump\t// in\n    tag_620:\n        /* \"#utility.yul\":25317:25403   */\n      swap1\n      pop\n        /* \"#utility.yul\":25097:25410   */\n      swap3\n      swap2\n      pop\n      pop\n      jump\t// out\n        /* \"#utility.yul\":25416:25587   */\n    tag_273:\n        /* \"#utility.yul\":25455:25458   */\n      0x00\n        /* \"#utility.yul\":25478:25502   */\n      tag_622\n        /* \"#utility.yul\":25496:25501   */\n      dup3\n        /* \"#utility.yul\":25478:25502   */\n      tag_285\n      jump\t// in\n    tag_622:\n        /* \"#utility.yul\":25469:25502   */\n      swap2\n      pop\n        /* \"#utility.yul\":25524:25528   */\n      0x00\n        /* \"#utility.yul\":25517:25522   */\n      dup3\n        /* \"#utility.yul\":25514:25529   */\n      sub\n        /* \"#utility.yul\":25511:25552   */\n      tag_623\n      jumpi\n        /* \"#utility.yul\":25532:25550   */\n      tag_624\n      tag_332\n      jump\t// in\n    tag_624:\n        /* \"#utility.yul\":25511:25552   */\n    tag_623:\n        /* \"#utility.yul\":25579:25580   */\n      0x01\n        /* \"#utility.yul\":25572:25577   */\n      dup3\n        /* \"#utility.yul\":25568:25581   */\n      sub\n        /* \"#utility.yul\":25561:25581   */\n      swap1\n      pop\n        /* \"#utility.yul\":25416:25587   */\n      swap2\n      swap1\n      pop\n      jump\t// out\n        /* \"#utility.yul\":25593:25775   */\n    tag_344:\n        /* \"#utility.yul\":25733:25767   */\n      0x537472696e67733a20686578206c656e67746820696e73756666696369656e74\n        /* \"#utility.yul\":25729:25730   */\n      0x00\n        /* \"#utility.yul\":25721:25727   */\n      dup3\n        /* \"#utility.yul\":25717:25731   */\n      add\n        /* \"#utility.yul\":25710:25768   */\n      mstore\n        /* \"#utility.yul\":25593:25775   */\n      pop\n      jump\t// out\n        /* \"#utility.yul\":25781:26147   */\n    tag_345:\n        /* \"#utility.yul\":25923:25926   */\n      0x00\n        /* \"#utility.yul\":25944:26011   */\n      tag_627\n        /* \"#utility.yul\":26008:26010   */\n      0x20\n        /* \"#utility.yul\":26003:26006   */\n      dup4\n        /* \"#utility.yul\":25944:26011   */\n      tag_319\n      jump\t// in\n    tag_627:\n        /* \"#utility.yul\":25937:26011   */\n      swap2\n      pop\n        /* \"#utility.yul\":26020:26113   */\n      tag_628\n        /* \"#utility.yul\":26109:26112   */\n      dup3\n        /* \"#utility.yul\":26020:26113   */\n      tag_344\n      jump\t// in\n    tag_628:\n        /* \"#utility.yul\":26138:26140   */\n      0x20\n        /* \"#utility.yul\":26133:26136   */\n      dup3\n        /* \"#utility.yul\":26129:26141   */\n      add\n        /* \"#utility.yul\":26122:26141   */\n      swap1\n      pop\n        /* \"#utility.yul\":25781:26147   */\n      swap2\n      swap1\n      pop\n      jump\t// out\n        /* \"#utility.yul\":26153:26572   */\n    tag_276:\n        /* \"#utility.yul\":26319:26323   */\n      0x00\n        /* \"#utility.yul\":26357:26359   */\n      0x20\n        /* \"#utility.yul\":26346:26355   */\n      dup3\n        /* \"#utility.yul\":26342:26360   */\n      add\n        /* \"#utility.yul\":26334:26360   */\n      swap1\n      pop\n        /* \"#utility.yul\":26406:26415   */\n      dup2\n        /* \"#utility.yul\":26400:26404   */\n      dup2\n        /* \"#utility.yul\":26396:26416   */\n      sub\n        /* \"#utility.yul\":26392:26393   */\n      0x00\n        /* \"#utility.yul\":26381:26390   */\n      dup4\n        /* \"#utility.yul\":26377:26394   */\n      add\n        /* \"#utility.yul\":26370:26417   */\n      mstore\n        /* \"#utility.yul\":26434:26565   */\n      tag_630\n        /* \"#utility.yul\":26560:26564   */\n      dup2\n        /* \"#utility.yul\":26434:26565   */\n      tag_345\n      jump\t// in\n    tag_630:\n        /* \"#utility.yul\":26426:26565   */\n      swap1\n      pop\n        /* \"#utility.yul\":26153:26572   */\n      swap2\n      swap1\n      pop\n      jump\t// out\n\n    auxdata: 0xa264697066735822122025c53aa083b37f07498e625a53d9c567494e3c832e99b92fe365a9fdbe78900f64736f6c634300080d0033\n}\n",
				"bytecode": {
					"linkReferences": {},
					"object": "6080604052600a60035560c86004556107d0600555604051806101800160405280600162ffffff168152602001600f62ffffff168152602001603262ffffff16815260200160b462ffffff16815260200161027662ffffff16815260200161089862ffffff168152602001611e7862ffffff168152602001616e3c62ffffff16815260200162019d4862ffffff1681526020016203f48062ffffff168152602001620a25a862ffffff168152602001622191c062ffffff16815250600690600c620000cc92919062000372565b5068056bc75e2d63100000601755348015620000e757600080fd5b50604051620025903803806200259083398181016040528101906200010d919062000447565b60008060006101000a81548160ff02191690831515021790555081600260006101000a81548173ffffffffffffffffffffffffffffffffffffffff021916908373ffffffffffffffffffffffffffffffffffffffff16021790555080601660006101000a81548173ffffffffffffffffffffffffffffffffffffffff021916908373ffffffffffffffffffffffffffffffffffffffff160217905550620001be6000801b33620001f860201b60201c565b620001f07f65d7a28e3265b37a6474929f336521b332c1681b933f6cb9f3376673440d862a33620001f860201b60201c565b50506200048e565b6200020a82826200020e60201b60201c565b5050565b620002208282620002ff60201b60201c565b620002fb57600180600084815260200190815260200160002060000160008373ffffffffffffffffffffffffffffffffffffffff1673ffffffffffffffffffffffffffffffffffffffff16815260200190815260200160002060006101000a81548160ff021916908315150217905550620002a06200036a60201b60201c565b73ffffffffffffffffffffffffffffffffffffffff168173ffffffffffffffffffffffffffffffffffffffff16837f2f8788117e7eff1d82e926ec794901d17c78024a50270940304540a733656f0d60405160405180910390a45b5050565b60006001600084815260200190815260200160002060000160008373ffffffffffffffffffffffffffffffffffffffff1673ffffffffffffffffffffffffffffffffffffffff16815260200190815260200160002060009054906101000a900460ff16905092915050565b600033905090565b8260108101928215620003ab579160200282015b82811115620003aa578251829062ffffff1690559160200191906001019062000386565b5b509050620003ba9190620003be565b5090565b5b80821115620003d9576000816000905550600101620003bf565b5090565b600080fd5b600073ffffffffffffffffffffffffffffffffffffffff82169050919050565b60006200040f82620003e2565b9050919050565b620004218162000402565b81146200042d57600080fd5b50565b600081519050620004418162000416565b92915050565b60008060408385031215620004615762000460620003dd565b5b6000620004718582860162000430565b9250506020620004848582860162000430565b9150509250929050565b6120f2806200049e6000396000f3fe608060405234801561001057600080fd5b506004361061014d5760003560e01c8063841acc5d116100c3578063d547741f1161007c578063d547741f146103a0578063dd23faf3146103bc578063e63ab1e9146103ec578063eb47536a1461040a578063f3fef3a314610426578063f400fde4146104425761014d565b8063841acc5d146102b857806391d14854146102e8578063945099bc14610318578063a217fddf14610334578063ac6b182d14610352578063c6098256146103825761014d565b80632f2ff15d116101155780632f2ff15d1461020a57806336568abe1461022657806351d64e641461024257806352c6159f1461025e5780635c975abb1461027c578063683b0ee51461029a5761014d565b806301ffc9a71461015257806309c9985c146101825780630a1ac657146101a057806313e6b93b146101bc578063248a9ca3146101da575b600080fd5b61016c600480360381019061016791906112ad565b610460565b60405161017991906112f5565b60405180910390f35b61018a6104da565b6040516101979190611329565b60405180910390f35b6101ba60048036038101906101b59190611370565b6104e0565b005b6101c46105a7565b6040516101d19190611329565b60405180910390f35b6101f460048036038101906101ef91906113d3565b6105ad565b604051610201919061140f565b60405180910390f35b610224600480360381019061021f9190611488565b6105cd565b005b610240600480360381019061023b9190611488565b6105f6565b005b61025c600480360381019061025791906114c8565b610679565b005b6102666106a1565b6040516102739190611567565b60405180910390f35b6102846106c7565b60405161029191906112f5565b60405180910390f35b6102a26106dd565b6040516102af9190611329565b60405180910390f35b6102d260048036038101906102cd91906116c8565b6106e3565b6040516102df9190611329565b60405180910390f35b61030260048036038101906102fd9190611488565b610947565b60405161030f91906112f5565b60405180910390f35b610332600480360381019061032d9190611711565b6109b2565b005b61033c610a14565b604051610349919061140f565b60405180910390f35b61036c60048036038101906103679190611370565b610a1b565b6040516103799190611329565b60405180910390f35b61038a610a36565b6040516103979190611760565b60405180910390f35b6103ba60048036038101906103b59190611488565b610a5c565b005b6103d660048036038101906103d191906113d3565b610a85565b6040516103e39190611826565b60405180910390f35b6103f4610b69565b604051610401919061140f565b60405180910390f35b610424600480360381019061041f9190611370565b610b8d565b005b610440600480360381019061043b9190611711565b610bf1565b005b61044a610d0b565b6040516104579190611329565b60405180910390f35b60007f7965db0b000000000000000000000000000000000000000000000000000000007bffffffffffffffffffffffffffffffffffffffffffffffffffffffff1916827bffffffffffffffffffffffffffffffffffffffffffffffffffffffff191614806104d357506104d282610d11565b5b9050919050565b60035481565b600260009054906101000a900473ffffffffffffffffffffffffffffffffffffffff1673ffffffffffffffffffffffffffffffffffffffff166342966c68826040518263ffffffff1660e01b815260040161053b9190611329565b600060405180830381600087803b15801561055557600080fd5b505af1158015610569573d6000803e3d6000fd5b505050507f950dcd4a7087bbf2cee08268e1b26ac45fb310d3ae443d0fe53714b713da45c18160405161059c9190611329565b60405180910390a150565b60055481565b600060016000838152602001908152602001600020600101549050919050565b6105d6826105ad565b6105e7816105e2610d7b565b610d83565b6105f18383610e20565b505050565b6105fe610d7b565b73ffffffffffffffffffffffffffffffffffffffff168173ffffffffffffffffffffffffffffffffffffffff161461066b576040517f08c379a0000000000000000000000000000000000000000000000000000000008152600401610662906118c5565b60405180910390fd5b6106758282610f00565b5050565b6000801b61068e81610689610d7b565b610d83565b8260048190555081600581905550505050565b600260009054906101000a900473ffffffffffffffffffffffffffffffffffffffff1681565b60008060009054906101000a900460ff16905090565b60045481565b60006106ed6106c7565b1561072d576040517f08c379a000000000000000000000000000000000000000000000000000000000815260040161072490611931565b60405180910390fd5b600060175411801561078e5750600073ffffffffffffffffffffffffffffffffffffffff16601660009054906101000a900473ffffffffffffffffffffffffffffffffffffffff1673ffffffffffffffffffffffffffffffffffffffff1614155b1561083957601660009054906101000a900473ffffffffffffffffffffffffffffffffffffffff1673ffffffffffffffffffffffffffffffffffffffff166323b872dd33306017546040518463ffffffff1660e01b81526004016107f493929190611951565b6020604051808303816000875af1158015610813573d6000803e3d6000fd5b505050506040513d601f19601f8201168201806040525081019061083791906119b4565b505b6000600260009054906101000a900473ffffffffffffffffffffffffffffffffffffffff1673ffffffffffffffffffffffffffffffffffffffff1663d204c45e33856040518363ffffffff1660e01b8152600401610898929190611a58565b6020604051808303816000875af11580156108b7573d6000803e3d6000fd5b505050506040513d601f19601f820116820180604052508101906108db9190611a9d565b90507f9e6e3acb506bf1d2adb1d8565252e575763ee07d1debfcc2c830682895b3137d3382601660009054906101000a900473ffffffffffffffffffffffffffffffffffffffff166017546040516109369493929190611aca565b60405180910390a180915050919050565b60006001600084815260200190815260200160002060000160008373ffffffffffffffffffffffffffffffffffffffff1673ffffffffffffffffffffffffffffffffffffffff16815260200190815260200160002060009054906101000a900460ff16905092915050565b6000801b6109c7816109c2610d7b565b610d83565b82601660006101000a81548173ffffffffffffffffffffffffffffffffffffffff021916908373ffffffffffffffffffffffffffffffffffffffff16021790555081601781905550505050565b6000801b81565b60068160108110610a2b57600080fd5b016000915090505481565b601660009054906101000a900473ffffffffffffffffffffffffffffffffffffffff1681565b610a65826105ad565b610a7681610a71610d7b565b610d83565b610a808383610f00565b505050565b610a8d61121e565b60005b60208160ff161015610b63576000600282610aab9190611b4b565b60ff1614610aba576000610abd565b60015b610100610aca9190611cde565b838260ff1660208110610ae057610adf611d29565b5b1a60f81b60f81c60ff16610af49190611d58565b82600283610b029190611db2565b60ff1660108110610b1657610b15611d29565b5b6020020151610b259190611de3565b82600283610b339190611db2565b60ff1660108110610b4757610b46611d29565b5b6020020181815250508080610b5b90611e39565b915050610a90565b50919050565b7f65d7a28e3265b37a6474929f336521b332c1681b933f6cb9f3376673440d862a81565b6000801b610ba281610b9d610d7b565b610d83565b6064821115610be6576040517f08c379a0000000000000000000000000000000000000000000000000000000008152600401610bdd90611eae565b60405180910390fd5b816003819055505050565b6000801b610c0681610c01610d7b565b610d83565b600073ffffffffffffffffffffffffffffffffffffffff168373ffffffffffffffffffffffffffffffffffffffff1603610c86573373ffffffffffffffffffffffffffffffffffffffff166108fc839081150290604051600060405180830381858888f19350505050158015610c80573d6000803e3d6000fd5b50610d06565b8273ffffffffffffffffffffffffffffffffffffffff1663a9059cbb33846040518363ffffffff1660e01b8152600401610cc1929190611ece565b6020604051808303816000875af1158015610ce0573d6000803e3d6000fd5b505050506040513d601f19601f82011682018060405250810190610d0491906119b4565b505b505050565b60175481565b60007f01ffc9a7000000000000000000000000000000000000000000000000000000007bffffffffffffffffffffffffffffffffffffffffffffffffffffffff1916827bffffffffffffffffffffffffffffffffffffffffffffffffffffffff1916149050919050565b600033905090565b610d8d8282610947565b610e1c57610db28173ffffffffffffffffffffffffffffffffffffffff166014610fe2565b610dc08360001c6020610fe2565b604051602001610dd1929190611fcb565b6040516020818303038152906040526040517f08c379a0000000000000000000000000000000000000000000000000000000008152600401610e139190612005565b60405180910390fd5b5050565b610e2a8282610947565b610efc57600180600084815260200190815260200160002060000160008373ffffffffffffffffffffffffffffffffffffffff1673ffffffffffffffffffffffffffffffffffffffff16815260200190815260200160002060006101000a81548160ff021916908315150217905550610ea1610d7b565b73ffffffffffffffffffffffffffffffffffffffff168173ffffffffffffffffffffffffffffffffffffffff16837f2f8788117e7eff1d82e926ec794901d17c78024a50270940304540a733656f0d60405160405180910390a45b5050565b610f0a8282610947565b15610fde5760006001600084815260200190815260200160002060000160008373ffffffffffffffffffffffffffffffffffffffff1673ffffffffffffffffffffffffffffffffffffffff16815260200190815260200160002060006101000a81548160ff021916908315150217905550610f83610d7b565b73ffffffffffffffffffffffffffffffffffffffff168173ffffffffffffffffffffffffffffffffffffffff16837ff6391f5c32d9c69d2a47ea670b442974b53935d1edc7fd64eb21e047a839171b60405160405180910390a45b5050565b606060006002836002610ff59190611d58565b610fff9190611de3565b67ffffffffffffffff8111156110185761101761159d565b5b6040519080825280601f01601f19166020018201604052801561104a5781602001600182028036833780820191505090505b5090507f30000000000000000000000000000000000000000000000000000000000000008160008151811061108257611081611d29565b5b60200101907effffffffffffffffffffffffffffffffffffffffffffffffffffffffffffff1916908160001a9053507f7800000000000000000000000000000000000000000000000000000000000000816001815181106110e6576110e5611d29565b5b60200101907effffffffffffffffffffffffffffffffffffffffffffffffffffffffffffff1916908160001a905350600060018460026111269190611d58565b6111309190611de3565b90505b60018111156111d0577f3031323334353637383961626364656600000000000000000000000000000000600f86166010811061117257611171611d29565b5b1a60f81b82828151811061118957611188611d29565b5b60200101907effffffffffffffffffffffffffffffffffffffffffffffffffffffffffffff1916908160001a905350600485901c9450806111c990612027565b9050611133565b5060008414611214576040517f08c379a000000000000000000000000000000000000000000000000000000000815260040161120b9061209c565b60405180910390fd5b8091505092915050565b604051806102000160405280601090602082028036833780820191505090505090565b6000604051905090565b600080fd5b600080fd5b60007fffffffff0000000000000000000000000000000000000000000000000000000082169050919050565b61128a81611255565b811461129557600080fd5b50565b6000813590506112a781611281565b92915050565b6000602082840312156112c3576112c261124b565b5b60006112d184828501611298565b91505092915050565b60008115159050919050565b6112ef816112da565b82525050565b600060208201905061130a60008301846112e6565b92915050565b6000819050919050565b61132381611310565b82525050565b600060208201905061133e600083018461131a565b92915050565b61134d81611310565b811461135857600080fd5b50565b60008135905061136a81611344565b92915050565b6000602082840312156113865761138561124b565b5b60006113948482850161135b565b91505092915050565b6000819050919050565b6113b08161139d565b81146113bb57600080fd5b50565b6000813590506113cd816113a7565b92915050565b6000602082840312156113e9576113e861124b565b5b60006113f7848285016113be565b91505092915050565b6114098161139d565b82525050565b60006020820190506114246000830184611400565b92915050565b600073ffffffffffffffffffffffffffffffffffffffff82169050919050565b60006114558261142a565b9050919050565b6114658161144a565b811461147057600080fd5b50565b6000813590506114828161145c565b92915050565b6000806040838503121561149f5761149e61124b565b5b60006114ad858286016113be565b92505060206114be85828601611473565b9150509250929050565b600080604083850312156114df576114de61124b565b5b60006114ed8582860161135b565b92505060206114fe8582860161135b565b9150509250929050565b6000819050919050565b600061152d6115286115238461142a565b611508565b61142a565b9050919050565b600061153f82611512565b9050919050565b600061155182611534565b9050919050565b61156181611546565b82525050565b600060208201905061157c6000830184611558565b92915050565b600080fd5b600080fd5b6000601f19601f8301169050919050565b7f4e487b7100000000000000000000000000000000000000000000000000000000600052604160045260246000fd5b6115d58261158c565b810181811067ffffffffffffffff821117156115f4576115f361159d565b5b80604052505050565b6000611607611241565b905061161382826115cc565b919050565b600067ffffffffffffffff8211156116335761163261159d565b5b61163c8261158c565b9050602081019050919050565b82818337600083830152505050565b600061166b61166684611618565b6115fd565b90508281526020810184848401111561168757611686611587565b5b611692848285611649565b509392505050565b600082601f8301126116af576116ae611582565b5b81356116bf848260208601611658565b91505092915050565b6000602082840312156116de576116dd61124b565b5b600082013567ffffffffffffffff8111156116fc576116fb611250565b5b6117088482850161169a565b91505092915050565b600080604083850312156117285761172761124b565b5b600061173685828601611473565b92505060206117478582860161135b565b9150509250929050565b61175a8161144a565b82525050565b60006020820190506117756000830184611751565b92915050565b600060109050919050565b600081905092915050565b6000819050919050565b6117a481611310565b82525050565b60006117b6838361179b565b60208301905092915050565b6000602082019050919050565b6117d88161177b565b6117e28184611786565b92506117ed82611791565b8060005b8381101561181e57815161180587826117aa565b9650611810836117c2565b9250506001810190506117f1565b505050505050565b60006102008201905061183c60008301846117cf565b92915050565b600082825260208201905092915050565b7f416363657373436f6e74726f6c3a2063616e206f6e6c792072656e6f756e636560008201527f20726f6c657320666f722073656c660000000000000000000000000000000000602082015250565b60006118af602f83611842565b91506118ba82611853565b604082019050919050565b600060208201905081810360008301526118de816118a2565b9050919050565b7f5061757361626c653a2070617573656400000000000000000000000000000000600082015250565b600061191b601083611842565b9150611926826118e5565b602082019050919050565b6000602082019050818103600083015261194a8161190e565b9050919050565b60006060820190506119666000830186611751565b6119736020830185611751565b611980604083018461131a565b949350505050565b611991816112da565b811461199c57600080fd5b50565b6000815190506119ae81611988565b92915050565b6000602082840312156119ca576119c961124b565b5b60006119d88482850161199f565b91505092915050565b600081519050919050565b60005b83811015611a0a5780820151818401526020810190506119ef565b83811115611a19576000848401525b50505050565b6000611a2a826119e1565b611a348185611842565b9350611a448185602086016119ec565b611a4d8161158c565b840191505092915050565b6000604082019050611a6d6000830185611751565b8181036020830152611a7f8184611a1f565b90509392505050565b600081519050611a9781611344565b92915050565b600060208284031215611ab357611ab261124b565b5b6000611ac184828501611a88565b91505092915050565b6000608082019050611adf6000830187611751565b611aec602083018661131a565b611af96040830185611751565b611b06606083018461131a565b95945050505050565b600060ff82169050919050565b7f4e487b7100000000000000000000000000000000000000000000000000000000600052601260045260246000fd5b6000611b5682611b0f565b9150611b6183611b0f565b925082611b7157611b70611b1c565b5b828206905092915050565b7f4e487b7100000000000000000000000000000000000000000000000000000000600052601160045260246000fd5b60008160011c9050919050565b6000808291508390505b6001851115611c0257808604811115611bde57611bdd611b7c565b5b6001851615611bed5780820291505b8081029050611bfb85611bab565b9450611bc2565b94509492505050565b600082611c1b5760019050611cd7565b81611c295760009050611cd7565b8160018114611c3f5760028114611c4957611c78565b6001915050611cd7565b60ff841115611c5b57611c5a611b7c565b5b8360020a915084821115611c7257611c71611b7c565b5b50611cd7565b5060208310610133831016604e8410600b8410161715611cad5782820a905083811115611ca857611ca7611b7c565b5b611cd7565b611cba8484846001611bb8565b92509050818404811115611cd157611cd0611b7c565b5b81810290505b9392505050565b6000611ce982611310565b9150611cf483611b0f565b9250611d217fffffffffffffffffffffffffffffffffffffffffffffffffffffffffffffffff8484611c0b565b905092915050565b7f4e487b7100000000000000000000000000000000000000000000000000000000600052603260045260246000fd5b6000611d6382611310565b9150611d6e83611310565b9250817fffffffffffffffffffffffffffffffffffffffffffffffffffffffffffffffff0483118215151615611da757611da6611b7c565b5b828202905092915050565b6000611dbd82611b0f565b9150611dc883611b0f565b925082611dd857611dd7611b1c565b5b828204905092915050565b6000611dee82611310565b9150611df983611310565b9250827fffffffffffffffffffffffffffffffffffffffffffffffffffffffffffffffff03821115611e2e57611e2d611b7c565b5b828201905092915050565b6000611e4482611b0f565b915060ff8203611e5757611e56611b7c565b5b600182019050919050565b7f4d7573742062652076616c69642070657263656e740000000000000000000000600082015250565b6000611e98601583611842565b9150611ea382611e62565b602082019050919050565b60006020820190508181036000830152611ec781611e8b565b9050919050565b6000604082019050611ee36000830185611751565b611ef0602083018461131a565b9392505050565b600081905092915050565b7f416363657373436f6e74726f6c3a206163636f756e7420000000000000000000600082015250565b6000611f38601783611ef7565b9150611f4382611f02565b601782019050919050565b6000611f59826119e1565b611f638185611ef7565b9350611f738185602086016119ec565b80840191505092915050565b7f206973206d697373696e6720726f6c6520000000000000000000000000000000600082015250565b6000611fb5601183611ef7565b9150611fc082611f7f565b601182019050919050565b6000611fd682611f2b565b9150611fe28285611f4e565b9150611fed82611fa8565b9150611ff98284611f4e565b91508190509392505050565b6000602082019050818103600083015261201f8184611a1f565b905092915050565b600061203282611310565b91506000820361204557612044611b7c565b5b600182039050919050565b7f537472696e67733a20686578206c656e67746820696e73756666696369656e74600082015250565b6000612086602083611842565b915061209182612050565b602082019050919050565b600060208201905081810360008301526120b581612079565b905091905056fea264697066735822122025c53aa083b37f07498e625a53d9c567494e3c832e99b92fe365a9fdbe78900f64736f6c634300080d0033",
					"opcodes": "PUSH1 0x80 PUSH1 0x40 MSTORE PUSH1 0xA PUSH1 0x3 SSTORE PUSH1 0xC8 PUSH1 0x4 SSTORE PUSH2 0x7D0 PUSH1 0x5 SSTORE PUSH1 0x40 MLOAD DUP1 PUSH2 0x180 ADD PUSH1 0x40 MSTORE DUP1 PUSH1 0x1 PUSH3 0xFFFFFF AND DUP2 MSTORE PUSH1 0x20 ADD PUSH1 0xF PUSH3 0xFFFFFF AND DUP2 MSTORE PUSH1 0x20 ADD PUSH1 0x32 PUSH3 0xFFFFFF AND DUP2 MSTORE PUSH1 0x20 ADD PUSH1 0xB4 PUSH3 0xFFFFFF AND DUP2 MSTORE PUSH1 0x20 ADD PUSH2 0x276 PUSH3 0xFFFFFF AND DUP2 MSTORE PUSH1 0x20 ADD PUSH2 0x898 PUSH3 0xFFFFFF AND DUP2 MSTORE PUSH1 0x20 ADD PUSH2 0x1E78 PUSH3 0xFFFFFF AND DUP2 MSTORE PUSH1 0x20 ADD PUSH2 0x6E3C PUSH3 0xFFFFFF AND DUP2 MSTORE PUSH1 0x20 ADD PUSH3 0x19D48 PUSH3 0xFFFFFF AND DUP2 MSTORE PUSH1 0x20 ADD PUSH3 0x3F480 PUSH3 0xFFFFFF AND DUP2 MSTORE PUSH1 0x20 ADD PUSH3 0xA25A8 PUSH3 0xFFFFFF AND DUP2 MSTORE PUSH1 0x20 ADD PUSH3 0x2191C0 PUSH3 0xFFFFFF AND DUP2 MSTORE POP PUSH1 0x6 SWAP1 PUSH1 0xC PUSH3 0xCC SWAP3 SWAP2 SWAP1 PUSH3 0x372 JUMP JUMPDEST POP PUSH9 0x56BC75E2D63100000 PUSH1 0x17 SSTORE CALLVALUE DUP1 ISZERO PUSH3 0xE7 JUMPI PUSH1 0x0 DUP1 REVERT JUMPDEST POP PUSH1 0x40 MLOAD PUSH3 0x2590 CODESIZE SUB DUP1 PUSH3 0x2590 DUP4 CODECOPY DUP2 DUP2 ADD PUSH1 0x40 MSTORE DUP2 ADD SWAP1 PUSH3 0x10D SWAP2 SWAP1 PUSH3 0x447 JUMP JUMPDEST PUSH1 0x0 DUP1 PUSH1 0x0 PUSH2 0x100 EXP DUP2 SLOAD DUP2 PUSH1 0xFF MUL NOT AND SWAP1 DUP4 ISZERO ISZERO MUL OR SWAP1 SSTORE POP DUP2 PUSH1 0x2 PUSH1 0x0 PUSH2 0x100 EXP DUP2 SLOAD DUP2 PUSH20 0xFFFFFFFFFFFFFFFFFFFFFFFFFFFFFFFFFFFFFFFF MUL NOT AND SWAP1 DUP4 PUSH20 0xFFFFFFFFFFFFFFFFFFFFFFFFFFFFFFFFFFFFFFFF AND MUL OR SWAP1 SSTORE POP DUP1 PUSH1 0x16 PUSH1 0x0 PUSH2 0x100 EXP DUP2 SLOAD DUP2 PUSH20 0xFFFFFFFFFFFFFFFFFFFFFFFFFFFFFFFFFFFFFFFF MUL NOT AND SWAP1 DUP4 PUSH20 0xFFFFFFFFFFFFFFFFFFFFFFFFFFFFFFFFFFFFFFFF AND MUL OR SWAP1 SSTORE POP PUSH3 0x1BE PUSH1 0x0 DUP1 SHL CALLER PUSH3 0x1F8 PUSH1 0x20 SHL PUSH1 0x20 SHR JUMP JUMPDEST PUSH3 0x1F0 PUSH32 0x65D7A28E3265B37A6474929F336521B332C1681B933F6CB9F3376673440D862A CALLER PUSH3 0x1F8 PUSH1 0x20 SHL PUSH1 0x20 SHR JUMP JUMPDEST POP POP PUSH3 0x48E JUMP JUMPDEST PUSH3 0x20A DUP3 DUP3 PUSH3 0x20E PUSH1 0x20 SHL PUSH1 0x20 SHR JUMP JUMPDEST POP POP JUMP JUMPDEST PUSH3 0x220 DUP3 DUP3 PUSH3 0x2FF PUSH1 0x20 SHL PUSH1 0x20 SHR JUMP JUMPDEST PUSH3 0x2FB JUMPI PUSH1 0x1 DUP1 PUSH1 0x0 DUP5 DUP2 MSTORE PUSH1 0x20 ADD SWAP1 DUP2 MSTORE PUSH1 0x20 ADD PUSH1 0x0 KECCAK256 PUSH1 0x0 ADD PUSH1 0x0 DUP4 PUSH20 0xFFFFFFFFFFFFFFFFFFFFFFFFFFFFFFFFFFFFFFFF AND PUSH20 0xFFFFFFFFFFFFFFFFFFFFFFFFFFFFFFFFFFFFFFFF AND DUP2 MSTORE PUSH1 0x20 ADD SWAP1 DUP2 MSTORE PUSH1 0x20 ADD PUSH1 0x0 KECCAK256 PUSH1 0x0 PUSH2 0x100 EXP DUP2 SLOAD DUP2 PUSH1 0xFF MUL NOT AND SWAP1 DUP4 ISZERO ISZERO MUL OR SWAP1 SSTORE POP PUSH3 0x2A0 PUSH3 0x36A PUSH1 0x20 SHL PUSH1 0x20 SHR JUMP JUMPDEST PUSH20 0xFFFFFFFFFFFFFFFFFFFFFFFFFFFFFFFFFFFFFFFF AND DUP2 PUSH20 0xFFFFFFFFFFFFFFFFFFFFFFFFFFFFFFFFFFFFFFFF AND DUP4 PUSH32 0x2F8788117E7EFF1D82E926EC794901D17C78024A50270940304540A733656F0D PUSH1 0x40 MLOAD PUSH1 0x40 MLOAD DUP1 SWAP2 SUB SWAP1 LOG4 JUMPDEST POP POP JUMP JUMPDEST PUSH1 0x0 PUSH1 0x1 PUSH1 0x0 DUP5 DUP2 MSTORE PUSH1 0x20 ADD SWAP1 DUP2 MSTORE PUSH1 0x20 ADD PUSH1 0x0 KECCAK256 PUSH1 0x0 ADD PUSH1 0x0 DUP4 PUSH20 0xFFFFFFFFFFFFFFFFFFFFFFFFFFFFFFFFFFFFFFFF AND PUSH20 0xFFFFFFFFFFFFFFFFFFFFFFFFFFFFFFFFFFFFFFFF AND DUP2 MSTORE PUSH1 0x20 ADD SWAP1 DUP2 MSTORE PUSH1 0x20 ADD PUSH1 0x0 KECCAK256 PUSH1 0x0 SWAP1 SLOAD SWAP1 PUSH2 0x100 EXP SWAP1 DIV PUSH1 0xFF AND SWAP1 POP SWAP3 SWAP2 POP POP JUMP JUMPDEST PUSH1 0x0 CALLER SWAP1 POP SWAP1 JUMP JUMPDEST DUP3 PUSH1 0x10 DUP2 ADD SWAP3 DUP3 ISZERO PUSH3 0x3AB JUMPI SWAP2 PUSH1 0x20 MUL DUP3 ADD JUMPDEST DUP3 DUP2 GT ISZERO PUSH3 0x3AA JUMPI DUP3 MLOAD DUP3 SWAP1 PUSH3 0xFFFFFF AND SWAP1 SSTORE SWAP2 PUSH1 0x20 ADD SWAP2 SWAP1 PUSH1 0x1 ADD SWAP1 PUSH3 0x386 JUMP JUMPDEST JUMPDEST POP SWAP1 POP PUSH3 0x3BA SWAP2 SWAP1 PUSH3 0x3BE JUMP JUMPDEST POP SWAP1 JUMP JUMPDEST JUMPDEST DUP1 DUP3 GT ISZERO PUSH3 0x3D9 JUMPI PUSH1 0x0 DUP2 PUSH1 0x0 SWAP1 SSTORE POP PUSH1 0x1 ADD PUSH3 0x3BF JUMP JUMPDEST POP SWAP1 JUMP JUMPDEST PUSH1 0x0 DUP1 REVERT JUMPDEST PUSH1 0x0 PUSH20 0xFFFFFFFFFFFFFFFFFFFFFFFFFFFFFFFFFFFFFFFF DUP3 AND SWAP1 POP SWAP2 SWAP1 POP JUMP JUMPDEST PUSH1 0x0 PUSH3 0x40F DUP3 PUSH3 0x3E2 JUMP JUMPDEST SWAP1 POP SWAP2 SWAP1 POP JUMP JUMPDEST PUSH3 0x421 DUP2 PUSH3 0x402 JUMP JUMPDEST DUP2 EQ PUSH3 0x42D JUMPI PUSH1 0x0 DUP1 REVERT JUMPDEST POP JUMP JUMPDEST PUSH1 0x0 DUP2 MLOAD SWAP1 POP PUSH3 0x441 DUP2 PUSH3 0x416 JUMP JUMPDEST SWAP3 SWAP2 POP POP JUMP JUMPDEST PUSH1 0x0 DUP1 PUSH1 0x40 DUP4 DUP6 SUB SLT ISZERO PUSH3 0x461 JUMPI PUSH3 0x460 PUSH3 0x3DD JUMP JUMPDEST JUMPDEST PUSH1 0x0 PUSH3 0x471 DUP6 DUP3 DUP7 ADD PUSH3 0x430 JUMP JUMPDEST SWAP3 POP POP PUSH1 0x20 PUSH3 0x484 DUP6 DUP3 DUP7 ADD PUSH3 0x430 JUMP JUMPDEST SWAP2 POP POP SWAP3 POP SWAP3 SWAP1 POP JUMP JUMPDEST PUSH2 0x20F2 DUP1 PUSH3 0x49E PUSH1 0x0 CODECOPY PUSH1 0x0 RETURN INVALID PUSH1 0x80 PUSH1 0x40 MSTORE CALLVALUE DUP1 ISZERO PUSH2 0x10 JUMPI PUSH1 0x0 DUP1 REVERT JUMPDEST POP PUSH1 0x4 CALLDATASIZE LT PUSH2 0x14D JUMPI PUSH1 0x0 CALLDATALOAD PUSH1 0xE0 SHR DUP1 PUSH4 0x841ACC5D GT PUSH2 0xC3 JUMPI DUP1 PUSH4 0xD547741F GT PUSH2 0x7C JUMPI DUP1 PUSH4 0xD547741F EQ PUSH2 0x3A0 JUMPI DUP1 PUSH4 0xDD23FAF3 EQ PUSH2 0x3BC JUMPI DUP1 PUSH4 0xE63AB1E9 EQ PUSH2 0x3EC JUMPI DUP1 PUSH4 0xEB47536A EQ PUSH2 0x40A JUMPI DUP1 PUSH4 0xF3FEF3A3 EQ PUSH2 0x426 JUMPI DUP1 PUSH4 0xF400FDE4 EQ PUSH2 0x442 JUMPI PUSH2 0x14D JUMP JUMPDEST DUP1 PUSH4 0x841ACC5D EQ PUSH2 0x2B8 JUMPI DUP1 PUSH4 0x91D14854 EQ PUSH2 0x2E8 JUMPI DUP1 PUSH4 0x945099BC EQ PUSH2 0x318 JUMPI DUP1 PUSH4 0xA217FDDF EQ PUSH2 0x334 JUMPI DUP1 PUSH4 0xAC6B182D EQ PUSH2 0x352 JUMPI DUP1 PUSH4 0xC6098256 EQ PUSH2 0x382 JUMPI PUSH2 0x14D JUMP JUMPDEST DUP1 PUSH4 0x2F2FF15D GT PUSH2 0x115 JUMPI DUP1 PUSH4 0x2F2FF15D EQ PUSH2 0x20A JUMPI DUP1 PUSH4 0x36568ABE EQ PUSH2 0x226 JUMPI DUP1 PUSH4 0x51D64E64 EQ PUSH2 0x242 JUMPI DUP1 PUSH4 0x52C6159F EQ PUSH2 0x25E JUMPI DUP1 PUSH4 0x5C975ABB EQ PUSH2 0x27C JUMPI DUP1 PUSH4 0x683B0EE5 EQ PUSH2 0x29A JUMPI PUSH2 0x14D JUMP JUMPDEST DUP1 PUSH4 0x1FFC9A7 EQ PUSH2 0x152 JUMPI DUP1 PUSH4 0x9C9985C EQ PUSH2 0x182 JUMPI DUP1 PUSH4 0xA1AC657 EQ PUSH2 0x1A0 JUMPI DUP1 PUSH4 0x13E6B93B EQ PUSH2 0x1BC JUMPI DUP1 PUSH4 0x248A9CA3 EQ PUSH2 0x1DA JUMPI JUMPDEST PUSH1 0x0 DUP1 REVERT JUMPDEST PUSH2 0x16C PUSH1 0x4 DUP1 CALLDATASIZE SUB DUP2 ADD SWAP1 PUSH2 0x167 SWAP2 SWAP1 PUSH2 0x12AD JUMP JUMPDEST PUSH2 0x460 JUMP JUMPDEST PUSH1 0x40 MLOAD PUSH2 0x179 SWAP2 SWAP1 PUSH2 0x12F5 JUMP JUMPDEST PUSH1 0x40 MLOAD DUP1 SWAP2 SUB SWAP1 RETURN JUMPDEST PUSH2 0x18A PUSH2 0x4DA JUMP JUMPDEST PUSH1 0x40 MLOAD PUSH2 0x197 SWAP2 SWAP1 PUSH2 0x1329 JUMP JUMPDEST PUSH1 0x40 MLOAD DUP1 SWAP2 SUB SWAP1 RETURN JUMPDEST PUSH2 0x1BA PUSH1 0x4 DUP1 CALLDATASIZE SUB DUP2 ADD SWAP1 PUSH2 0x1B5 SWAP2 SWAP1 PUSH2 0x1370 JUMP JUMPDEST PUSH2 0x4E0 JUMP JUMPDEST STOP JUMPDEST PUSH2 0x1C4 PUSH2 0x5A7 JUMP JUMPDEST PUSH1 0x40 MLOAD PUSH2 0x1D1 SWAP2 SWAP1 PUSH2 0x1329 JUMP JUMPDEST PUSH1 0x40 MLOAD DUP1 SWAP2 SUB SWAP1 RETURN JUMPDEST PUSH2 0x1F4 PUSH1 0x4 DUP1 CALLDATASIZE SUB DUP2 ADD SWAP1 PUSH2 0x1EF SWAP2 SWAP1 PUSH2 0x13D3 JUMP JUMPDEST PUSH2 0x5AD JUMP JUMPDEST PUSH1 0x40 MLOAD PUSH2 0x201 SWAP2 SWAP1 PUSH2 0x140F JUMP JUMPDEST PUSH1 0x40 MLOAD DUP1 SWAP2 SUB SWAP1 RETURN JUMPDEST PUSH2 0x224 PUSH1 0x4 DUP1 CALLDATASIZE SUB DUP2 ADD SWAP1 PUSH2 0x21F SWAP2 SWAP1 PUSH2 0x1488 JUMP JUMPDEST PUSH2 0x5CD JUMP JUMPDEST STOP JUMPDEST PUSH2 0x240 PUSH1 0x4 DUP1 CALLDATASIZE SUB DUP2 ADD SWAP1 PUSH2 0x23B SWAP2 SWAP1 PUSH2 0x1488 JUMP JUMPDEST PUSH2 0x5F6 JUMP JUMPDEST STOP JUMPDEST PUSH2 0x25C PUSH1 0x4 DUP1 CALLDATASIZE SUB DUP2 ADD SWAP1 PUSH2 0x257 SWAP2 SWAP1 PUSH2 0x14C8 JUMP JUMPDEST PUSH2 0x679 JUMP JUMPDEST STOP JUMPDEST PUSH2 0x266 PUSH2 0x6A1 JUMP JUMPDEST PUSH1 0x40 MLOAD PUSH2 0x273 SWAP2 SWAP1 PUSH2 0x1567 JUMP JUMPDEST PUSH1 0x40 MLOAD DUP1 SWAP2 SUB SWAP1 RETURN JUMPDEST PUSH2 0x284 PUSH2 0x6C7 JUMP JUMPDEST PUSH1 0x40 MLOAD PUSH2 0x291 SWAP2 SWAP1 PUSH2 0x12F5 JUMP JUMPDEST PUSH1 0x40 MLOAD DUP1 SWAP2 SUB SWAP1 RETURN JUMPDEST PUSH2 0x2A2 PUSH2 0x6DD JUMP JUMPDEST PUSH1 0x40 MLOAD PUSH2 0x2AF SWAP2 SWAP1 PUSH2 0x1329 JUMP JUMPDEST PUSH1 0x40 MLOAD DUP1 SWAP2 SUB SWAP1 RETURN JUMPDEST PUSH2 0x2D2 PUSH1 0x4 DUP1 CALLDATASIZE SUB DUP2 ADD SWAP1 PUSH2 0x2CD SWAP2 SWAP1 PUSH2 0x16C8 JUMP JUMPDEST PUSH2 0x6E3 JUMP JUMPDEST PUSH1 0x40 MLOAD PUSH2 0x2DF SWAP2 SWAP1 PUSH2 0x1329 JUMP JUMPDEST PUSH1 0x40 MLOAD DUP1 SWAP2 SUB SWAP1 RETURN JUMPDEST PUSH2 0x302 PUSH1 0x4 DUP1 CALLDATASIZE SUB DUP2 ADD SWAP1 PUSH2 0x2FD SWAP2 SWAP1 PUSH2 0x1488 JUMP JUMPDEST PUSH2 0x947 JUMP JUMPDEST PUSH1 0x40 MLOAD PUSH2 0x30F SWAP2 SWAP1 PUSH2 0x12F5 JUMP JUMPDEST PUSH1 0x40 MLOAD DUP1 SWAP2 SUB SWAP1 RETURN JUMPDEST PUSH2 0x332 PUSH1 0x4 DUP1 CALLDATASIZE SUB DUP2 ADD SWAP1 PUSH2 0x32D SWAP2 SWAP1 PUSH2 0x1711 JUMP JUMPDEST PUSH2 0x9B2 JUMP JUMPDEST STOP JUMPDEST PUSH2 0x33C PUSH2 0xA14 JUMP JUMPDEST PUSH1 0x40 MLOAD PUSH2 0x349 SWAP2 SWAP1 PUSH2 0x140F JUMP JUMPDEST PUSH1 0x40 MLOAD DUP1 SWAP2 SUB SWAP1 RETURN JUMPDEST PUSH2 0x36C PUSH1 0x4 DUP1 CALLDATASIZE SUB DUP2 ADD SWAP1 PUSH2 0x367 SWAP2 SWAP1 PUSH2 0x1370 JUMP JUMPDEST PUSH2 0xA1B JUMP JUMPDEST PUSH1 0x40 MLOAD PUSH2 0x379 SWAP2 SWAP1 PUSH2 0x1329 JUMP JUMPDEST PUSH1 0x40 MLOAD DUP1 SWAP2 SUB SWAP1 RETURN JUMPDEST PUSH2 0x38A PUSH2 0xA36 JUMP JUMPDEST PUSH1 0x40 MLOAD PUSH2 0x397 SWAP2 SWAP1 PUSH2 0x1760 JUMP JUMPDEST PUSH1 0x40 MLOAD DUP1 SWAP2 SUB SWAP1 RETURN JUMPDEST PUSH2 0x3BA PUSH1 0x4 DUP1 CALLDATASIZE SUB DUP2 ADD SWAP1 PUSH2 0x3B5 SWAP2 SWAP1 PUSH2 0x1488 JUMP JUMPDEST PUSH2 0xA5C JUMP JUMPDEST STOP JUMPDEST PUSH2 0x3D6 PUSH1 0x4 DUP1 CALLDATASIZE SUB DUP2 ADD SWAP1 PUSH2 0x3D1 SWAP2 SWAP1 PUSH2 0x13D3 JUMP JUMPDEST PUSH2 0xA85 JUMP JUMPDEST PUSH1 0x40 MLOAD PUSH2 0x3E3 SWAP2 SWAP1 PUSH2 0x1826 JUMP JUMPDEST PUSH1 0x40 MLOAD DUP1 SWAP2 SUB SWAP1 RETURN JUMPDEST PUSH2 0x3F4 PUSH2 0xB69 JUMP JUMPDEST PUSH1 0x40 MLOAD PUSH2 0x401 SWAP2 SWAP1 PUSH2 0x140F JUMP JUMPDEST PUSH1 0x40 MLOAD DUP1 SWAP2 SUB SWAP1 RETURN JUMPDEST PUSH2 0x424 PUSH1 0x4 DUP1 CALLDATASIZE SUB DUP2 ADD SWAP1 PUSH2 0x41F SWAP2 SWAP1 PUSH2 0x1370 JUMP JUMPDEST PUSH2 0xB8D JUMP JUMPDEST STOP JUMPDEST PUSH2 0x440 PUSH1 0x4 DUP1 CALLDATASIZE SUB DUP2 ADD SWAP1 PUSH2 0x43B SWAP2 SWAP1 PUSH2 0x1711 JUMP JUMPDEST PUSH2 0xBF1 JUMP JUMPDEST STOP JUMPDEST PUSH2 0x44A PUSH2 0xD0B JUMP JUMPDEST PUSH1 0x40 MLOAD PUSH2 0x457 SWAP2 SWAP1 PUSH2 0x1329 JUMP JUMPDEST PUSH1 0x40 MLOAD DUP1 SWAP2 SUB SWAP1 RETURN JUMPDEST PUSH1 0x0 PUSH32 0x7965DB0B00000000000000000000000000000000000000000000000000000000 PUSH28 0xFFFFFFFFFFFFFFFFFFFFFFFFFFFFFFFFFFFFFFFFFFFFFFFFFFFFFFFF NOT AND DUP3 PUSH28 0xFFFFFFFFFFFFFFFFFFFFFFFFFFFFFFFFFFFFFFFFFFFFFFFFFFFFFFFF NOT AND EQ DUP1 PUSH2 0x4D3 JUMPI POP PUSH2 0x4D2 DUP3 PUSH2 0xD11 JUMP JUMPDEST JUMPDEST SWAP1 POP SWAP2 SWAP1 POP JUMP JUMPDEST PUSH1 0x3 SLOAD DUP2 JUMP JUMPDEST PUSH1 0x2 PUSH1 0x0 SWAP1 SLOAD SWAP1 PUSH2 0x100 EXP SWAP1 DIV PUSH20 0xFFFFFFFFFFFFFFFFFFFFFFFFFFFFFFFFFFFFFFFF AND PUSH20 0xFFFFFFFFFFFFFFFFFFFFFFFFFFFFFFFFFFFFFFFF AND PUSH4 0x42966C68 DUP3 PUSH1 0x40 MLOAD DUP3 PUSH4 0xFFFFFFFF AND PUSH1 0xE0 SHL DUP2 MSTORE PUSH1 0x4 ADD PUSH2 0x53B SWAP2 SWAP1 PUSH2 0x1329 JUMP JUMPDEST PUSH1 0x0 PUSH1 0x40 MLOAD DUP1 DUP4 SUB DUP2 PUSH1 0x0 DUP8 DUP1 EXTCODESIZE ISZERO DUP1 ISZERO PUSH2 0x555 JUMPI PUSH1 0x0 DUP1 REVERT JUMPDEST POP GAS CALL ISZERO DUP1 ISZERO PUSH2 0x569 JUMPI RETURNDATASIZE PUSH1 0x0 DUP1 RETURNDATACOPY RETURNDATASIZE PUSH1 0x0 REVERT JUMPDEST POP POP POP POP PUSH32 0x950DCD4A7087BBF2CEE08268E1B26AC45FB310D3AE443D0FE53714B713DA45C1 DUP2 PUSH1 0x40 MLOAD PUSH2 0x59C SWAP2 SWAP1 PUSH2 0x1329 JUMP JUMPDEST PUSH1 0x40 MLOAD DUP1 SWAP2 SUB SWAP1 LOG1 POP JUMP JUMPDEST PUSH1 0x5 SLOAD DUP2 JUMP JUMPDEST PUSH1 0x0 PUSH1 0x1 PUSH1 0x0 DUP4 DUP2 MSTORE PUSH1 0x20 ADD SWAP1 DUP2 MSTORE PUSH1 0x20 ADD PUSH1 0x0 KECCAK256 PUSH1 0x1 ADD SLOAD SWAP1 POP SWAP2 SWAP1 POP JUMP JUMPDEST PUSH2 0x5D6 DUP3 PUSH2 0x5AD JUMP JUMPDEST PUSH2 0x5E7 DUP2 PUSH2 0x5E2 PUSH2 0xD7B JUMP JUMPDEST PUSH2 0xD83 JUMP JUMPDEST PUSH2 0x5F1 DUP4 DUP4 PUSH2 0xE20 JUMP JUMPDEST POP POP POP JUMP JUMPDEST PUSH2 0x5FE PUSH2 0xD7B JUMP JUMPDEST PUSH20 0xFFFFFFFFFFFFFFFFFFFFFFFFFFFFFFFFFFFFFFFF AND DUP2 PUSH20 0xFFFFFFFFFFFFFFFFFFFFFFFFFFFFFFFFFFFFFFFF AND EQ PUSH2 0x66B JUMPI PUSH1 0x40 MLOAD PUSH32 0x8C379A000000000000000000000000000000000000000000000000000000000 DUP2 MSTORE PUSH1 0x4 ADD PUSH2 0x662 SWAP1 PUSH2 0x18C5 JUMP JUMPDEST PUSH1 0x40 MLOAD DUP1 SWAP2 SUB SWAP1 REVERT JUMPDEST PUSH2 0x675 DUP3 DUP3 PUSH2 0xF00 JUMP JUMPDEST POP POP JUMP JUMPDEST PUSH1 0x0 DUP1 SHL PUSH2 0x68E DUP2 PUSH2 0x689 PUSH2 0xD7B JUMP JUMPDEST PUSH2 0xD83 JUMP JUMPDEST DUP3 PUSH1 0x4 DUP2 SWAP1 SSTORE POP DUP2 PUSH1 0x5 DUP2 SWAP1 SSTORE POP POP POP POP JUMP JUMPDEST PUSH1 0x2 PUSH1 0x0 SWAP1 SLOAD SWAP1 PUSH2 0x100 EXP SWAP1 DIV PUSH20 0xFFFFFFFFFFFFFFFFFFFFFFFFFFFFFFFFFFFFFFFF AND DUP2 JUMP JUMPDEST PUSH1 0x0 DUP1 PUSH1 0x0 SWAP1 SLOAD SWAP1 PUSH2 0x100 EXP SWAP1 DIV PUSH1 0xFF AND SWAP1 POP SWAP1 JUMP JUMPDEST PUSH1 0x4 SLOAD DUP2 JUMP JUMPDEST PUSH1 0x0 PUSH2 0x6ED PUSH2 0x6C7 JUMP JUMPDEST ISZERO PUSH2 0x72D JUMPI PUSH1 0x40 MLOAD PUSH32 0x8C379A000000000000000000000000000000000000000000000000000000000 DUP2 MSTORE PUSH1 0x4 ADD PUSH2 0x724 SWAP1 PUSH2 0x1931 JUMP JUMPDEST PUSH1 0x40 MLOAD DUP1 SWAP2 SUB SWAP1 REVERT JUMPDEST PUSH1 0x0 PUSH1 0x17 SLOAD GT DUP1 ISZERO PUSH2 0x78E JUMPI POP PUSH1 0x0 PUSH20 0xFFFFFFFFFFFFFFFFFFFFFFFFFFFFFFFFFFFFFFFF AND PUSH1 0x16 PUSH1 0x0 SWAP1 SLOAD SWAP1 PUSH2 0x100 EXP SWAP1 DIV PUSH20 0xFFFFFFFFFFFFFFFFFFFFFFFFFFFFFFFFFFFFFFFF AND PUSH20 0xFFFFFFFFFFFFFFFFFFFFFFFFFFFFFFFFFFFFFFFF AND EQ ISZERO JUMPDEST ISZERO PUSH2 0x839 JUMPI PUSH1 0x16 PUSH1 0x0 SWAP1 SLOAD SWAP1 PUSH2 0x100 EXP SWAP1 DIV PUSH20 0xFFFFFFFFFFFFFFFFFFFFFFFFFFFFFFFFFFFFFFFF AND PUSH20 0xFFFFFFFFFFFFFFFFFFFFFFFFFFFFFFFFFFFFFFFF AND PUSH4 0x23B872DD CALLER ADDRESS PUSH1 0x17 SLOAD PUSH1 0x40 MLOAD DUP5 PUSH4 0xFFFFFFFF AND PUSH1 0xE0 SHL DUP2 MSTORE PUSH1 0x4 ADD PUSH2 0x7F4 SWAP4 SWAP3 SWAP2 SWAP1 PUSH2 0x1951 JUMP JUMPDEST PUSH1 0x20 PUSH1 0x40 MLOAD DUP1 DUP4 SUB DUP2 PUSH1 0x0 DUP8 GAS CALL ISZERO DUP1 ISZERO PUSH2 0x813 JUMPI RETURNDATASIZE PUSH1 0x0 DUP1 RETURNDATACOPY RETURNDATASIZE PUSH1 0x0 REVERT JUMPDEST POP POP POP POP PUSH1 0x40 MLOAD RETURNDATASIZE PUSH1 0x1F NOT PUSH1 0x1F DUP3 ADD AND DUP3 ADD DUP1 PUSH1 0x40 MSTORE POP DUP2 ADD SWAP1 PUSH2 0x837 SWAP2 SWAP1 PUSH2 0x19B4 JUMP JUMPDEST POP JUMPDEST PUSH1 0x0 PUSH1 0x2 PUSH1 0x0 SWAP1 SLOAD SWAP1 PUSH2 0x100 EXP SWAP1 DIV PUSH20 0xFFFFFFFFFFFFFFFFFFFFFFFFFFFFFFFFFFFFFFFF AND PUSH20 0xFFFFFFFFFFFFFFFFFFFFFFFFFFFFFFFFFFFFFFFF AND PUSH4 0xD204C45E CALLER DUP6 PUSH1 0x40 MLOAD DUP4 PUSH4 0xFFFFFFFF AND PUSH1 0xE0 SHL DUP2 MSTORE PUSH1 0x4 ADD PUSH2 0x898 SWAP3 SWAP2 SWAP1 PUSH2 0x1A58 JUMP JUMPDEST PUSH1 0x20 PUSH1 0x40 MLOAD DUP1 DUP4 SUB DUP2 PUSH1 0x0 DUP8 GAS CALL ISZERO DUP1 ISZERO PUSH2 0x8B7 JUMPI RETURNDATASIZE PUSH1 0x0 DUP1 RETURNDATACOPY RETURNDATASIZE PUSH1 0x0 REVERT JUMPDEST POP POP POP POP PUSH1 0x40 MLOAD RETURNDATASIZE PUSH1 0x1F NOT PUSH1 0x1F DUP3 ADD AND DUP3 ADD DUP1 PUSH1 0x40 MSTORE POP DUP2 ADD SWAP1 PUSH2 0x8DB SWAP2 SWAP1 PUSH2 0x1A9D JUMP JUMPDEST SWAP1 POP PUSH32 0x9E6E3ACB506BF1D2ADB1D8565252E575763EE07D1DEBFCC2C830682895B3137D CALLER DUP3 PUSH1 0x16 PUSH1 0x0 SWAP1 SLOAD SWAP1 PUSH2 0x100 EXP SWAP1 DIV PUSH20 0xFFFFFFFFFFFFFFFFFFFFFFFFFFFFFFFFFFFFFFFF AND PUSH1 0x17 SLOAD PUSH1 0x40 MLOAD PUSH2 0x936 SWAP5 SWAP4 SWAP3 SWAP2 SWAP1 PUSH2 0x1ACA JUMP JUMPDEST PUSH1 0x40 MLOAD DUP1 SWAP2 SUB SWAP1 LOG1 DUP1 SWAP2 POP POP SWAP2 SWAP1 POP JUMP JUMPDEST PUSH1 0x0 PUSH1 0x1 PUSH1 0x0 DUP5 DUP2 MSTORE PUSH1 0x20 ADD SWAP1 DUP2 MSTORE PUSH1 0x20 ADD PUSH1 0x0 KECCAK256 PUSH1 0x0 ADD PUSH1 0x0 DUP4 PUSH20 0xFFFFFFFFFFFFFFFFFFFFFFFFFFFFFFFFFFFFFFFF AND PUSH20 0xFFFFFFFFFFFFFFFFFFFFFFFFFFFFFFFFFFFFFFFF AND DUP2 MSTORE PUSH1 0x20 ADD SWAP1 DUP2 MSTORE PUSH1 0x20 ADD PUSH1 0x0 KECCAK256 PUSH1 0x0 SWAP1 SLOAD SWAP1 PUSH2 0x100 EXP SWAP1 DIV PUSH1 0xFF AND SWAP1 POP SWAP3 SWAP2 POP POP JUMP JUMPDEST PUSH1 0x0 DUP1 SHL PUSH2 0x9C7 DUP2 PUSH2 0x9C2 PUSH2 0xD7B JUMP JUMPDEST PUSH2 0xD83 JUMP JUMPDEST DUP3 PUSH1 0x16 PUSH1 0x0 PUSH2 0x100 EXP DUP2 SLOAD DUP2 PUSH20 0xFFFFFFFFFFFFFFFFFFFFFFFFFFFFFFFFFFFFFFFF MUL NOT AND SWAP1 DUP4 PUSH20 0xFFFFFFFFFFFFFFFFFFFFFFFFFFFFFFFFFFFFFFFF AND MUL OR SWAP1 SSTORE POP DUP2 PUSH1 0x17 DUP2 SWAP1 SSTORE POP POP POP POP JUMP JUMPDEST PUSH1 0x0 DUP1 SHL DUP2 JUMP JUMPDEST PUSH1 0x6 DUP2 PUSH1 0x10 DUP2 LT PUSH2 0xA2B JUMPI PUSH1 0x0 DUP1 REVERT JUMPDEST ADD PUSH1 0x0 SWAP2 POP SWAP1 POP SLOAD DUP2 JUMP JUMPDEST PUSH1 0x16 PUSH1 0x0 SWAP1 SLOAD SWAP1 PUSH2 0x100 EXP SWAP1 DIV PUSH20 0xFFFFFFFFFFFFFFFFFFFFFFFFFFFFFFFFFFFFFFFF AND DUP2 JUMP JUMPDEST PUSH2 0xA65 DUP3 PUSH2 0x5AD JUMP JUMPDEST PUSH2 0xA76 DUP2 PUSH2 0xA71 PUSH2 0xD7B JUMP JUMPDEST PUSH2 0xD83 JUMP JUMPDEST PUSH2 0xA80 DUP4 DUP4 PUSH2 0xF00 JUMP JUMPDEST POP POP POP JUMP JUMPDEST PUSH2 0xA8D PUSH2 0x121E JUMP JUMPDEST PUSH1 0x0 JUMPDEST PUSH1 0x20 DUP2 PUSH1 0xFF AND LT ISZERO PUSH2 0xB63 JUMPI PUSH1 0x0 PUSH1 0x2 DUP3 PUSH2 0xAAB SWAP2 SWAP1 PUSH2 0x1B4B JUMP JUMPDEST PUSH1 0xFF AND EQ PUSH2 0xABA JUMPI PUSH1 0x0 PUSH2 0xABD JUMP JUMPDEST PUSH1 0x1 JUMPDEST PUSH2 0x100 PUSH2 0xACA SWAP2 SWAP1 PUSH2 0x1CDE JUMP JUMPDEST DUP4 DUP3 PUSH1 0xFF AND PUSH1 0x20 DUP2 LT PUSH2 0xAE0 JUMPI PUSH2 0xADF PUSH2 0x1D29 JUMP JUMPDEST JUMPDEST BYTE PUSH1 0xF8 SHL PUSH1 0xF8 SHR PUSH1 0xFF AND PUSH2 0xAF4 SWAP2 SWAP1 PUSH2 0x1D58 JUMP JUMPDEST DUP3 PUSH1 0x2 DUP4 PUSH2 0xB02 SWAP2 SWAP1 PUSH2 0x1DB2 JUMP JUMPDEST PUSH1 0xFF AND PUSH1 0x10 DUP2 LT PUSH2 0xB16 JUMPI PUSH2 0xB15 PUSH2 0x1D29 JUMP JUMPDEST JUMPDEST PUSH1 0x20 MUL ADD MLOAD PUSH2 0xB25 SWAP2 SWAP1 PUSH2 0x1DE3 JUMP JUMPDEST DUP3 PUSH1 0x2 DUP4 PUSH2 0xB33 SWAP2 SWAP1 PUSH2 0x1DB2 JUMP JUMPDEST PUSH1 0xFF AND PUSH1 0x10 DUP2 LT PUSH2 0xB47 JUMPI PUSH2 0xB46 PUSH2 0x1D29 JUMP JUMPDEST JUMPDEST PUSH1 0x20 MUL ADD DUP2 DUP2 MSTORE POP POP DUP1 DUP1 PUSH2 0xB5B SWAP1 PUSH2 0x1E39 JUMP JUMPDEST SWAP2 POP POP PUSH2 0xA90 JUMP JUMPDEST POP SWAP2 SWAP1 POP JUMP JUMPDEST PUSH32 0x65D7A28E3265B37A6474929F336521B332C1681B933F6CB9F3376673440D862A DUP2 JUMP JUMPDEST PUSH1 0x0 DUP1 SHL PUSH2 0xBA2 DUP2 PUSH2 0xB9D PUSH2 0xD7B JUMP JUMPDEST PUSH2 0xD83 JUMP JUMPDEST PUSH1 0x64 DUP3 GT ISZERO PUSH2 0xBE6 JUMPI PUSH1 0x40 MLOAD PUSH32 0x8C379A000000000000000000000000000000000000000000000000000000000 DUP2 MSTORE PUSH1 0x4 ADD PUSH2 0xBDD SWAP1 PUSH2 0x1EAE JUMP JUMPDEST PUSH1 0x40 MLOAD DUP1 SWAP2 SUB SWAP1 REVERT JUMPDEST DUP2 PUSH1 0x3 DUP2 SWAP1 SSTORE POP POP POP JUMP JUMPDEST PUSH1 0x0 DUP1 SHL PUSH2 0xC06 DUP2 PUSH2 0xC01 PUSH2 0xD7B JUMP JUMPDEST PUSH2 0xD83 JUMP JUMPDEST PUSH1 0x0 PUSH20 0xFFFFFFFFFFFFFFFFFFFFFFFFFFFFFFFFFFFFFFFF AND DUP4 PUSH20 0xFFFFFFFFFFFFFFFFFFFFFFFFFFFFFFFFFFFFFFFF AND SUB PUSH2 0xC86 JUMPI CALLER PUSH20 0xFFFFFFFFFFFFFFFFFFFFFFFFFFFFFFFFFFFFFFFF AND PUSH2 0x8FC DUP4 SWAP1 DUP2 ISZERO MUL SWAP1 PUSH1 0x40 MLOAD PUSH1 0x0 PUSH1 0x40 MLOAD DUP1 DUP4 SUB DUP2 DUP6 DUP9 DUP9 CALL SWAP4 POP POP POP POP ISZERO DUP1 ISZERO PUSH2 0xC80 JUMPI RETURNDATASIZE PUSH1 0x0 DUP1 RETURNDATACOPY RETURNDATASIZE PUSH1 0x0 REVERT JUMPDEST POP PUSH2 0xD06 JUMP JUMPDEST DUP3 PUSH20 0xFFFFFFFFFFFFFFFFFFFFFFFFFFFFFFFFFFFFFFFF AND PUSH4 0xA9059CBB CALLER DUP5 PUSH1 0x40 MLOAD DUP4 PUSH4 0xFFFFFFFF AND PUSH1 0xE0 SHL DUP2 MSTORE PUSH1 0x4 ADD PUSH2 0xCC1 SWAP3 SWAP2 SWAP1 PUSH2 0x1ECE JUMP JUMPDEST PUSH1 0x20 PUSH1 0x40 MLOAD DUP1 DUP4 SUB DUP2 PUSH1 0x0 DUP8 GAS CALL ISZERO DUP1 ISZERO PUSH2 0xCE0 JUMPI RETURNDATASIZE PUSH1 0x0 DUP1 RETURNDATACOPY RETURNDATASIZE PUSH1 0x0 REVERT JUMPDEST POP POP POP POP PUSH1 0x40 MLOAD RETURNDATASIZE PUSH1 0x1F NOT PUSH1 0x1F DUP3 ADD AND DUP3 ADD DUP1 PUSH1 0x40 MSTORE POP DUP2 ADD SWAP1 PUSH2 0xD04 SWAP2 SWAP1 PUSH2 0x19B4 JUMP JUMPDEST POP JUMPDEST POP POP POP JUMP JUMPDEST PUSH1 0x17 SLOAD DUP2 JUMP JUMPDEST PUSH1 0x0 PUSH32 0x1FFC9A700000000000000000000000000000000000000000000000000000000 PUSH28 0xFFFFFFFFFFFFFFFFFFFFFFFFFFFFFFFFFFFFFFFFFFFFFFFFFFFFFFFF NOT AND DUP3 PUSH28 0xFFFFFFFFFFFFFFFFFFFFFFFFFFFFFFFFFFFFFFFFFFFFFFFFFFFFFFFF NOT AND EQ SWAP1 POP SWAP2 SWAP1 POP JUMP JUMPDEST PUSH1 0x0 CALLER SWAP1 POP SWAP1 JUMP JUMPDEST PUSH2 0xD8D DUP3 DUP3 PUSH2 0x947 JUMP JUMPDEST PUSH2 0xE1C JUMPI PUSH2 0xDB2 DUP2 PUSH20 0xFFFFFFFFFFFFFFFFFFFFFFFFFFFFFFFFFFFFFFFF AND PUSH1 0x14 PUSH2 0xFE2 JUMP JUMPDEST PUSH2 0xDC0 DUP4 PUSH1 0x0 SHR PUSH1 0x20 PUSH2 0xFE2 JUMP JUMPDEST PUSH1 0x40 MLOAD PUSH1 0x20 ADD PUSH2 0xDD1 SWAP3 SWAP2 SWAP1 PUSH2 0x1FCB JUMP JUMPDEST PUSH1 0x40 MLOAD PUSH1 0x20 DUP2 DUP4 SUB SUB DUP2 MSTORE SWAP1 PUSH1 0x40 MSTORE PUSH1 0x40 MLOAD PUSH32 0x8C379A000000000000000000000000000000000000000000000000000000000 DUP2 MSTORE PUSH1 0x4 ADD PUSH2 0xE13 SWAP2 SWAP1 PUSH2 0x2005 JUMP JUMPDEST PUSH1 0x40 MLOAD DUP1 SWAP2 SUB SWAP1 REVERT JUMPDEST POP POP JUMP JUMPDEST PUSH2 0xE2A DUP3 DUP3 PUSH2 0x947 JUMP JUMPDEST PUSH2 0xEFC JUMPI PUSH1 0x1 DUP1 PUSH1 0x0 DUP5 DUP2 MSTORE PUSH1 0x20 ADD SWAP1 DUP2 MSTORE PUSH1 0x20 ADD PUSH1 0x0 KECCAK256 PUSH1 0x0 ADD PUSH1 0x0 DUP4 PUSH20 0xFFFFFFFFFFFFFFFFFFFFFFFFFFFFFFFFFFFFFFFF AND PUSH20 0xFFFFFFFFFFFFFFFFFFFFFFFFFFFFFFFFFFFFFFFF AND DUP2 MSTORE PUSH1 0x20 ADD SWAP1 DUP2 MSTORE PUSH1 0x20 ADD PUSH1 0x0 KECCAK256 PUSH1 0x0 PUSH2 0x100 EXP DUP2 SLOAD DUP2 PUSH1 0xFF MUL NOT AND SWAP1 DUP4 ISZERO ISZERO MUL OR SWAP1 SSTORE POP PUSH2 0xEA1 PUSH2 0xD7B JUMP JUMPDEST PUSH20 0xFFFFFFFFFFFFFFFFFFFFFFFFFFFFFFFFFFFFFFFF AND DUP2 PUSH20 0xFFFFFFFFFFFFFFFFFFFFFFFFFFFFFFFFFFFFFFFF AND DUP4 PUSH32 0x2F8788117E7EFF1D82E926EC794901D17C78024A50270940304540A733656F0D PUSH1 0x40 MLOAD PUSH1 0x40 MLOAD DUP1 SWAP2 SUB SWAP1 LOG4 JUMPDEST POP POP JUMP JUMPDEST PUSH2 0xF0A DUP3 DUP3 PUSH2 0x947 JUMP JUMPDEST ISZERO PUSH2 0xFDE JUMPI PUSH1 0x0 PUSH1 0x1 PUSH1 0x0 DUP5 DUP2 MSTORE PUSH1 0x20 ADD SWAP1 DUP2 MSTORE PUSH1 0x20 ADD PUSH1 0x0 KECCAK256 PUSH1 0x0 ADD PUSH1 0x0 DUP4 PUSH20 0xFFFFFFFFFFFFFFFFFFFFFFFFFFFFFFFFFFFFFFFF AND PUSH20 0xFFFFFFFFFFFFFFFFFFFFFFFFFFFFFFFFFFFFFFFF AND DUP2 MSTORE PUSH1 0x20 ADD SWAP1 DUP2 MSTORE PUSH1 0x20 ADD PUSH1 0x0 KECCAK256 PUSH1 0x0 PUSH2 0x100 EXP DUP2 SLOAD DUP2 PUSH1 0xFF MUL NOT AND SWAP1 DUP4 ISZERO ISZERO MUL OR SWAP1 SSTORE POP PUSH2 0xF83 PUSH2 0xD7B JUMP JUMPDEST PUSH20 0xFFFFFFFFFFFFFFFFFFFFFFFFFFFFFFFFFFFFFFFF AND DUP2 PUSH20 0xFFFFFFFFFFFFFFFFFFFFFFFFFFFFFFFFFFFFFFFF AND DUP4 PUSH32 0xF6391F5C32D9C69D2A47EA670B442974B53935D1EDC7FD64EB21E047A839171B PUSH1 0x40 MLOAD PUSH1 0x40 MLOAD DUP1 SWAP2 SUB SWAP1 LOG4 JUMPDEST POP POP JUMP JUMPDEST PUSH1 0x60 PUSH1 0x0 PUSH1 0x2 DUP4 PUSH1 0x2 PUSH2 0xFF5 SWAP2 SWAP1 PUSH2 0x1D58 JUMP JUMPDEST PUSH2 0xFFF SWAP2 SWAP1 PUSH2 0x1DE3 JUMP JUMPDEST PUSH8 0xFFFFFFFFFFFFFFFF DUP2 GT ISZERO PUSH2 0x1018 JUMPI PUSH2 0x1017 PUSH2 0x159D JUMP JUMPDEST JUMPDEST PUSH1 0x40 MLOAD SWAP1 DUP1 DUP3 MSTORE DUP1 PUSH1 0x1F ADD PUSH1 0x1F NOT AND PUSH1 0x20 ADD DUP3 ADD PUSH1 0x40 MSTORE DUP1 ISZERO PUSH2 0x104A JUMPI DUP2 PUSH1 0x20 ADD PUSH1 0x1 DUP3 MUL DUP1 CALLDATASIZE DUP4 CALLDATACOPY DUP1 DUP3 ADD SWAP2 POP POP SWAP1 POP JUMPDEST POP SWAP1 POP PUSH32 0x3000000000000000000000000000000000000000000000000000000000000000 DUP2 PUSH1 0x0 DUP2 MLOAD DUP2 LT PUSH2 0x1082 JUMPI PUSH2 0x1081 PUSH2 0x1D29 JUMP JUMPDEST JUMPDEST PUSH1 0x20 ADD ADD SWAP1 PUSH31 0xFFFFFFFFFFFFFFFFFFFFFFFFFFFFFFFFFFFFFFFFFFFFFFFFFFFFFFFFFFFFFF NOT AND SWAP1 DUP2 PUSH1 0x0 BYTE SWAP1 MSTORE8 POP PUSH32 0x7800000000000000000000000000000000000000000000000000000000000000 DUP2 PUSH1 0x1 DUP2 MLOAD DUP2 LT PUSH2 0x10E6 JUMPI PUSH2 0x10E5 PUSH2 0x1D29 JUMP JUMPDEST JUMPDEST PUSH1 0x20 ADD ADD SWAP1 PUSH31 0xFFFFFFFFFFFFFFFFFFFFFFFFFFFFFFFFFFFFFFFFFFFFFFFFFFFFFFFFFFFFFF NOT AND SWAP1 DUP2 PUSH1 0x0 BYTE SWAP1 MSTORE8 POP PUSH1 0x0 PUSH1 0x1 DUP5 PUSH1 0x2 PUSH2 0x1126 SWAP2 SWAP1 PUSH2 0x1D58 JUMP JUMPDEST PUSH2 0x1130 SWAP2 SWAP1 PUSH2 0x1DE3 JUMP JUMPDEST SWAP1 POP JUMPDEST PUSH1 0x1 DUP2 GT ISZERO PUSH2 0x11D0 JUMPI PUSH32 0x3031323334353637383961626364656600000000000000000000000000000000 PUSH1 0xF DUP7 AND PUSH1 0x10 DUP2 LT PUSH2 0x1172 JUMPI PUSH2 0x1171 PUSH2 0x1D29 JUMP JUMPDEST JUMPDEST BYTE PUSH1 0xF8 SHL DUP3 DUP3 DUP2 MLOAD DUP2 LT PUSH2 0x1189 JUMPI PUSH2 0x1188 PUSH2 0x1D29 JUMP JUMPDEST JUMPDEST PUSH1 0x20 ADD ADD SWAP1 PUSH31 0xFFFFFFFFFFFFFFFFFFFFFFFFFFFFFFFFFFFFFFFFFFFFFFFFFFFFFFFFFFFFFF NOT AND SWAP1 DUP2 PUSH1 0x0 BYTE SWAP1 MSTORE8 POP PUSH1 0x4 DUP6 SWAP1 SHR SWAP5 POP DUP1 PUSH2 0x11C9 SWAP1 PUSH2 0x2027 JUMP JUMPDEST SWAP1 POP PUSH2 0x1133 JUMP JUMPDEST POP PUSH1 0x0 DUP5 EQ PUSH2 0x1214 JUMPI PUSH1 0x40 MLOAD PUSH32 0x8C379A000000000000000000000000000000000000000000000000000000000 DUP2 MSTORE PUSH1 0x4 ADD PUSH2 0x120B SWAP1 PUSH2 0x209C JUMP JUMPDEST PUSH1 0x40 MLOAD DUP1 SWAP2 SUB SWAP1 REVERT JUMPDEST DUP1 SWAP2 POP POP SWAP3 SWAP2 POP POP JUMP JUMPDEST PUSH1 0x40 MLOAD DUP1 PUSH2 0x200 ADD PUSH1 0x40 MSTORE DUP1 PUSH1 0x10 SWAP1 PUSH1 0x20 DUP3 MUL DUP1 CALLDATASIZE DUP4 CALLDATACOPY DUP1 DUP3 ADD SWAP2 POP POP SWAP1 POP POP SWAP1 JUMP JUMPDEST PUSH1 0x0 PUSH1 0x40 MLOAD SWAP1 POP SWAP1 JUMP JUMPDEST PUSH1 0x0 DUP1 REVERT JUMPDEST PUSH1 0x0 DUP1 REVERT JUMPDEST PUSH1 0x0 PUSH32 0xFFFFFFFF00000000000000000000000000000000000000000000000000000000 DUP3 AND SWAP1 POP SWAP2 SWAP1 POP JUMP JUMPDEST PUSH2 0x128A DUP2 PUSH2 0x1255 JUMP JUMPDEST DUP2 EQ PUSH2 0x1295 JUMPI PUSH1 0x0 DUP1 REVERT JUMPDEST POP JUMP JUMPDEST PUSH1 0x0 DUP2 CALLDATALOAD SWAP1 POP PUSH2 0x12A7 DUP2 PUSH2 0x1281 JUMP JUMPDEST SWAP3 SWAP2 POP POP JUMP JUMPDEST PUSH1 0x0 PUSH1 0x20 DUP3 DUP5 SUB SLT ISZERO PUSH2 0x12C3 JUMPI PUSH2 0x12C2 PUSH2 0x124B JUMP JUMPDEST JUMPDEST PUSH1 0x0 PUSH2 0x12D1 DUP5 DUP3 DUP6 ADD PUSH2 0x1298 JUMP JUMPDEST SWAP2 POP POP SWAP3 SWAP2 POP POP JUMP JUMPDEST PUSH1 0x0 DUP2 ISZERO ISZERO SWAP1 POP SWAP2 SWAP1 POP JUMP JUMPDEST PUSH2 0x12EF DUP2 PUSH2 0x12DA JUMP JUMPDEST DUP3 MSTORE POP POP JUMP JUMPDEST PUSH1 0x0 PUSH1 0x20 DUP3 ADD SWAP1 POP PUSH2 0x130A PUSH1 0x0 DUP4 ADD DUP5 PUSH2 0x12E6 JUMP JUMPDEST SWAP3 SWAP2 POP POP JUMP JUMPDEST PUSH1 0x0 DUP2 SWAP1 POP SWAP2 SWAP1 POP JUMP JUMPDEST PUSH2 0x1323 DUP2 PUSH2 0x1310 JUMP JUMPDEST DUP3 MSTORE POP POP JUMP JUMPDEST PUSH1 0x0 PUSH1 0x20 DUP3 ADD SWAP1 POP PUSH2 0x133E PUSH1 0x0 DUP4 ADD DUP5 PUSH2 0x131A JUMP JUMPDEST SWAP3 SWAP2 POP POP JUMP JUMPDEST PUSH2 0x134D DUP2 PUSH2 0x1310 JUMP JUMPDEST DUP2 EQ PUSH2 0x1358 JUMPI PUSH1 0x0 DUP1 REVERT JUMPDEST POP JUMP JUMPDEST PUSH1 0x0 DUP2 CALLDATALOAD SWAP1 POP PUSH2 0x136A DUP2 PUSH2 0x1344 JUMP JUMPDEST SWAP3 SWAP2 POP POP JUMP JUMPDEST PUSH1 0x0 PUSH1 0x20 DUP3 DUP5 SUB SLT ISZERO PUSH2 0x1386 JUMPI PUSH2 0x1385 PUSH2 0x124B JUMP JUMPDEST JUMPDEST PUSH1 0x0 PUSH2 0x1394 DUP5 DUP3 DUP6 ADD PUSH2 0x135B JUMP JUMPDEST SWAP2 POP POP SWAP3 SWAP2 POP POP JUMP JUMPDEST PUSH1 0x0 DUP2 SWAP1 POP SWAP2 SWAP1 POP JUMP JUMPDEST PUSH2 0x13B0 DUP2 PUSH2 0x139D JUMP JUMPDEST DUP2 EQ PUSH2 0x13BB JUMPI PUSH1 0x0 DUP1 REVERT JUMPDEST POP JUMP JUMPDEST PUSH1 0x0 DUP2 CALLDATALOAD SWAP1 POP PUSH2 0x13CD DUP2 PUSH2 0x13A7 JUMP JUMPDEST SWAP3 SWAP2 POP POP JUMP JUMPDEST PUSH1 0x0 PUSH1 0x20 DUP3 DUP5 SUB SLT ISZERO PUSH2 0x13E9 JUMPI PUSH2 0x13E8 PUSH2 0x124B JUMP JUMPDEST JUMPDEST PUSH1 0x0 PUSH2 0x13F7 DUP5 DUP3 DUP6 ADD PUSH2 0x13BE JUMP JUMPDEST SWAP2 POP POP SWAP3 SWAP2 POP POP JUMP JUMPDEST PUSH2 0x1409 DUP2 PUSH2 0x139D JUMP JUMPDEST DUP3 MSTORE POP POP JUMP JUMPDEST PUSH1 0x0 PUSH1 0x20 DUP3 ADD SWAP1 POP PUSH2 0x1424 PUSH1 0x0 DUP4 ADD DUP5 PUSH2 0x1400 JUMP JUMPDEST SWAP3 SWAP2 POP POP JUMP JUMPDEST PUSH1 0x0 PUSH20 0xFFFFFFFFFFFFFFFFFFFFFFFFFFFFFFFFFFFFFFFF DUP3 AND SWAP1 POP SWAP2 SWAP1 POP JUMP JUMPDEST PUSH1 0x0 PUSH2 0x1455 DUP3 PUSH2 0x142A JUMP JUMPDEST SWAP1 POP SWAP2 SWAP1 POP JUMP JUMPDEST PUSH2 0x1465 DUP2 PUSH2 0x144A JUMP JUMPDEST DUP2 EQ PUSH2 0x1470 JUMPI PUSH1 0x0 DUP1 REVERT JUMPDEST POP JUMP JUMPDEST PUSH1 0x0 DUP2 CALLDATALOAD SWAP1 POP PUSH2 0x1482 DUP2 PUSH2 0x145C JUMP JUMPDEST SWAP3 SWAP2 POP POP JUMP JUMPDEST PUSH1 0x0 DUP1 PUSH1 0x40 DUP4 DUP6 SUB SLT ISZERO PUSH2 0x149F JUMPI PUSH2 0x149E PUSH2 0x124B JUMP JUMPDEST JUMPDEST PUSH1 0x0 PUSH2 0x14AD DUP6 DUP3 DUP7 ADD PUSH2 0x13BE JUMP JUMPDEST SWAP3 POP POP PUSH1 0x20 PUSH2 0x14BE DUP6 DUP3 DUP7 ADD PUSH2 0x1473 JUMP JUMPDEST SWAP2 POP POP SWAP3 POP SWAP3 SWAP1 POP JUMP JUMPDEST PUSH1 0x0 DUP1 PUSH1 0x40 DUP4 DUP6 SUB SLT ISZERO PUSH2 0x14DF JUMPI PUSH2 0x14DE PUSH2 0x124B JUMP JUMPDEST JUMPDEST PUSH1 0x0 PUSH2 0x14ED DUP6 DUP3 DUP7 ADD PUSH2 0x135B JUMP JUMPDEST SWAP3 POP POP PUSH1 0x20 PUSH2 0x14FE DUP6 DUP3 DUP7 ADD PUSH2 0x135B JUMP JUMPDEST SWAP2 POP POP SWAP3 POP SWAP3 SWAP1 POP JUMP JUMPDEST PUSH1 0x0 DUP2 SWAP1 POP SWAP2 SWAP1 POP JUMP JUMPDEST PUSH1 0x0 PUSH2 0x152D PUSH2 0x1528 PUSH2 0x1523 DUP5 PUSH2 0x142A JUMP JUMPDEST PUSH2 0x1508 JUMP JUMPDEST PUSH2 0x142A JUMP JUMPDEST SWAP1 POP SWAP2 SWAP1 POP JUMP JUMPDEST PUSH1 0x0 PUSH2 0x153F DUP3 PUSH2 0x1512 JUMP JUMPDEST SWAP1 POP SWAP2 SWAP1 POP JUMP JUMPDEST PUSH1 0x0 PUSH2 0x1551 DUP3 PUSH2 0x1534 JUMP JUMPDEST SWAP1 POP SWAP2 SWAP1 POP JUMP JUMPDEST PUSH2 0x1561 DUP2 PUSH2 0x1546 JUMP JUMPDEST DUP3 MSTORE POP POP JUMP JUMPDEST PUSH1 0x0 PUSH1 0x20 DUP3 ADD SWAP1 POP PUSH2 0x157C PUSH1 0x0 DUP4 ADD DUP5 PUSH2 0x1558 JUMP JUMPDEST SWAP3 SWAP2 POP POP JUMP JUMPDEST PUSH1 0x0 DUP1 REVERT JUMPDEST PUSH1 0x0 DUP1 REVERT JUMPDEST PUSH1 0x0 PUSH1 0x1F NOT PUSH1 0x1F DUP4 ADD AND SWAP1 POP SWAP2 SWAP1 POP JUMP JUMPDEST PUSH32 0x4E487B7100000000000000000000000000000000000000000000000000000000 PUSH1 0x0 MSTORE PUSH1 0x41 PUSH1 0x4 MSTORE PUSH1 0x24 PUSH1 0x0 REVERT JUMPDEST PUSH2 0x15D5 DUP3 PUSH2 0x158C JUMP JUMPDEST DUP2 ADD DUP2 DUP2 LT PUSH8 0xFFFFFFFFFFFFFFFF DUP3 GT OR ISZERO PUSH2 0x15F4 JUMPI PUSH2 0x15F3 PUSH2 0x159D JUMP JUMPDEST JUMPDEST DUP1 PUSH1 0x40 MSTORE POP POP POP JUMP JUMPDEST PUSH1 0x0 PUSH2 0x1607 PUSH2 0x1241 JUMP JUMPDEST SWAP1 POP PUSH2 0x1613 DUP3 DUP3 PUSH2 0x15CC JUMP JUMPDEST SWAP2 SWAP1 POP JUMP JUMPDEST PUSH1 0x0 PUSH8 0xFFFFFFFFFFFFFFFF DUP3 GT ISZERO PUSH2 0x1633 JUMPI PUSH2 0x1632 PUSH2 0x159D JUMP JUMPDEST JUMPDEST PUSH2 0x163C DUP3 PUSH2 0x158C JUMP JUMPDEST SWAP1 POP PUSH1 0x20 DUP2 ADD SWAP1 POP SWAP2 SWAP1 POP JUMP JUMPDEST DUP3 DUP2 DUP4 CALLDATACOPY PUSH1 0x0 DUP4 DUP4 ADD MSTORE POP POP POP JUMP JUMPDEST PUSH1 0x0 PUSH2 0x166B PUSH2 0x1666 DUP5 PUSH2 0x1618 JUMP JUMPDEST PUSH2 0x15FD JUMP JUMPDEST SWAP1 POP DUP3 DUP2 MSTORE PUSH1 0x20 DUP2 ADD DUP5 DUP5 DUP5 ADD GT ISZERO PUSH2 0x1687 JUMPI PUSH2 0x1686 PUSH2 0x1587 JUMP JUMPDEST JUMPDEST PUSH2 0x1692 DUP5 DUP3 DUP6 PUSH2 0x1649 JUMP JUMPDEST POP SWAP4 SWAP3 POP POP POP JUMP JUMPDEST PUSH1 0x0 DUP3 PUSH1 0x1F DUP4 ADD SLT PUSH2 0x16AF JUMPI PUSH2 0x16AE PUSH2 0x1582 JUMP JUMPDEST JUMPDEST DUP2 CALLDATALOAD PUSH2 0x16BF DUP5 DUP3 PUSH1 0x20 DUP7 ADD PUSH2 0x1658 JUMP JUMPDEST SWAP2 POP POP SWAP3 SWAP2 POP POP JUMP JUMPDEST PUSH1 0x0 PUSH1 0x20 DUP3 DUP5 SUB SLT ISZERO PUSH2 0x16DE JUMPI PUSH2 0x16DD PUSH2 0x124B JUMP JUMPDEST JUMPDEST PUSH1 0x0 DUP3 ADD CALLDATALOAD PUSH8 0xFFFFFFFFFFFFFFFF DUP2 GT ISZERO PUSH2 0x16FC JUMPI PUSH2 0x16FB PUSH2 0x1250 JUMP JUMPDEST JUMPDEST PUSH2 0x1708 DUP5 DUP3 DUP6 ADD PUSH2 0x169A JUMP JUMPDEST SWAP2 POP POP SWAP3 SWAP2 POP POP JUMP JUMPDEST PUSH1 0x0 DUP1 PUSH1 0x40 DUP4 DUP6 SUB SLT ISZERO PUSH2 0x1728 JUMPI PUSH2 0x1727 PUSH2 0x124B JUMP JUMPDEST JUMPDEST PUSH1 0x0 PUSH2 0x1736 DUP6 DUP3 DUP7 ADD PUSH2 0x1473 JUMP JUMPDEST SWAP3 POP POP PUSH1 0x20 PUSH2 0x1747 DUP6 DUP3 DUP7 ADD PUSH2 0x135B JUMP JUMPDEST SWAP2 POP POP SWAP3 POP SWAP3 SWAP1 POP JUMP JUMPDEST PUSH2 0x175A DUP2 PUSH2 0x144A JUMP JUMPDEST DUP3 MSTORE POP POP JUMP JUMPDEST PUSH1 0x0 PUSH1 0x20 DUP3 ADD SWAP1 POP PUSH2 0x1775 PUSH1 0x0 DUP4 ADD DUP5 PUSH2 0x1751 JUMP JUMPDEST SWAP3 SWAP2 POP POP JUMP JUMPDEST PUSH1 0x0 PUSH1 0x10 SWAP1 POP SWAP2 SWAP1 POP JUMP JUMPDEST PUSH1 0x0 DUP2 SWAP1 POP SWAP3 SWAP2 POP POP JUMP JUMPDEST PUSH1 0x0 DUP2 SWAP1 POP SWAP2 SWAP1 POP JUMP JUMPDEST PUSH2 0x17A4 DUP2 PUSH2 0x1310 JUMP JUMPDEST DUP3 MSTORE POP POP JUMP JUMPDEST PUSH1 0x0 PUSH2 0x17B6 DUP4 DUP4 PUSH2 0x179B JUMP JUMPDEST PUSH1 0x20 DUP4 ADD SWAP1 POP SWAP3 SWAP2 POP POP JUMP JUMPDEST PUSH1 0x0 PUSH1 0x20 DUP3 ADD SWAP1 POP SWAP2 SWAP1 POP JUMP JUMPDEST PUSH2 0x17D8 DUP2 PUSH2 0x177B JUMP JUMPDEST PUSH2 0x17E2 DUP2 DUP5 PUSH2 0x1786 JUMP JUMPDEST SWAP3 POP PUSH2 0x17ED DUP3 PUSH2 0x1791 JUMP JUMPDEST DUP1 PUSH1 0x0 JUMPDEST DUP4 DUP2 LT ISZERO PUSH2 0x181E JUMPI DUP2 MLOAD PUSH2 0x1805 DUP8 DUP3 PUSH2 0x17AA JUMP JUMPDEST SWAP7 POP PUSH2 0x1810 DUP4 PUSH2 0x17C2 JUMP JUMPDEST SWAP3 POP POP PUSH1 0x1 DUP2 ADD SWAP1 POP PUSH2 0x17F1 JUMP JUMPDEST POP POP POP POP POP POP JUMP JUMPDEST PUSH1 0x0 PUSH2 0x200 DUP3 ADD SWAP1 POP PUSH2 0x183C PUSH1 0x0 DUP4 ADD DUP5 PUSH2 0x17CF JUMP JUMPDEST SWAP3 SWAP2 POP POP JUMP JUMPDEST PUSH1 0x0 DUP3 DUP3 MSTORE PUSH1 0x20 DUP3 ADD SWAP1 POP SWAP3 SWAP2 POP POP JUMP JUMPDEST PUSH32 0x416363657373436F6E74726F6C3A2063616E206F6E6C792072656E6F756E6365 PUSH1 0x0 DUP3 ADD MSTORE PUSH32 0x20726F6C657320666F722073656C660000000000000000000000000000000000 PUSH1 0x20 DUP3 ADD MSTORE POP JUMP JUMPDEST PUSH1 0x0 PUSH2 0x18AF PUSH1 0x2F DUP4 PUSH2 0x1842 JUMP JUMPDEST SWAP2 POP PUSH2 0x18BA DUP3 PUSH2 0x1853 JUMP JUMPDEST PUSH1 0x40 DUP3 ADD SWAP1 POP SWAP2 SWAP1 POP JUMP JUMPDEST PUSH1 0x0 PUSH1 0x20 DUP3 ADD SWAP1 POP DUP2 DUP2 SUB PUSH1 0x0 DUP4 ADD MSTORE PUSH2 0x18DE DUP2 PUSH2 0x18A2 JUMP JUMPDEST SWAP1 POP SWAP2 SWAP1 POP JUMP JUMPDEST PUSH32 0x5061757361626C653A2070617573656400000000000000000000000000000000 PUSH1 0x0 DUP3 ADD MSTORE POP JUMP JUMPDEST PUSH1 0x0 PUSH2 0x191B PUSH1 0x10 DUP4 PUSH2 0x1842 JUMP JUMPDEST SWAP2 POP PUSH2 0x1926 DUP3 PUSH2 0x18E5 JUMP JUMPDEST PUSH1 0x20 DUP3 ADD SWAP1 POP SWAP2 SWAP1 POP JUMP JUMPDEST PUSH1 0x0 PUSH1 0x20 DUP3 ADD SWAP1 POP DUP2 DUP2 SUB PUSH1 0x0 DUP4 ADD MSTORE PUSH2 0x194A DUP2 PUSH2 0x190E JUMP JUMPDEST SWAP1 POP SWAP2 SWAP1 POP JUMP JUMPDEST PUSH1 0x0 PUSH1 0x60 DUP3 ADD SWAP1 POP PUSH2 0x1966 PUSH1 0x0 DUP4 ADD DUP7 PUSH2 0x1751 JUMP JUMPDEST PUSH2 0x1973 PUSH1 0x20 DUP4 ADD DUP6 PUSH2 0x1751 JUMP JUMPDEST PUSH2 0x1980 PUSH1 0x40 DUP4 ADD DUP5 PUSH2 0x131A JUMP JUMPDEST SWAP5 SWAP4 POP POP POP POP JUMP JUMPDEST PUSH2 0x1991 DUP2 PUSH2 0x12DA JUMP JUMPDEST DUP2 EQ PUSH2 0x199C JUMPI PUSH1 0x0 DUP1 REVERT JUMPDEST POP JUMP JUMPDEST PUSH1 0x0 DUP2 MLOAD SWAP1 POP PUSH2 0x19AE DUP2 PUSH2 0x1988 JUMP JUMPDEST SWAP3 SWAP2 POP POP JUMP JUMPDEST PUSH1 0x0 PUSH1 0x20 DUP3 DUP5 SUB SLT ISZERO PUSH2 0x19CA JUMPI PUSH2 0x19C9 PUSH2 0x124B JUMP JUMPDEST JUMPDEST PUSH1 0x0 PUSH2 0x19D8 DUP5 DUP3 DUP6 ADD PUSH2 0x199F JUMP JUMPDEST SWAP2 POP POP SWAP3 SWAP2 POP POP JUMP JUMPDEST PUSH1 0x0 DUP2 MLOAD SWAP1 POP SWAP2 SWAP1 POP JUMP JUMPDEST PUSH1 0x0 JUMPDEST DUP4 DUP2 LT ISZERO PUSH2 0x1A0A JUMPI DUP1 DUP3 ADD MLOAD DUP2 DUP5 ADD MSTORE PUSH1 0x20 DUP2 ADD SWAP1 POP PUSH2 0x19EF JUMP JUMPDEST DUP4 DUP2 GT ISZERO PUSH2 0x1A19 JUMPI PUSH1 0x0 DUP5 DUP5 ADD MSTORE JUMPDEST POP POP POP POP JUMP JUMPDEST PUSH1 0x0 PUSH2 0x1A2A DUP3 PUSH2 0x19E1 JUMP JUMPDEST PUSH2 0x1A34 DUP2 DUP6 PUSH2 0x1842 JUMP JUMPDEST SWAP4 POP PUSH2 0x1A44 DUP2 DUP6 PUSH1 0x20 DUP7 ADD PUSH2 0x19EC JUMP JUMPDEST PUSH2 0x1A4D DUP2 PUSH2 0x158C JUMP JUMPDEST DUP5 ADD SWAP2 POP POP SWAP3 SWAP2 POP POP JUMP JUMPDEST PUSH1 0x0 PUSH1 0x40 DUP3 ADD SWAP1 POP PUSH2 0x1A6D PUSH1 0x0 DUP4 ADD DUP6 PUSH2 0x1751 JUMP JUMPDEST DUP2 DUP2 SUB PUSH1 0x20 DUP4 ADD MSTORE PUSH2 0x1A7F DUP2 DUP5 PUSH2 0x1A1F JUMP JUMPDEST SWAP1 POP SWAP4 SWAP3 POP POP POP JUMP JUMPDEST PUSH1 0x0 DUP2 MLOAD SWAP1 POP PUSH2 0x1A97 DUP2 PUSH2 0x1344 JUMP JUMPDEST SWAP3 SWAP2 POP POP JUMP JUMPDEST PUSH1 0x0 PUSH1 0x20 DUP3 DUP5 SUB SLT ISZERO PUSH2 0x1AB3 JUMPI PUSH2 0x1AB2 PUSH2 0x124B JUMP JUMPDEST JUMPDEST PUSH1 0x0 PUSH2 0x1AC1 DUP5 DUP3 DUP6 ADD PUSH2 0x1A88 JUMP JUMPDEST SWAP2 POP POP SWAP3 SWAP2 POP POP JUMP JUMPDEST PUSH1 0x0 PUSH1 0x80 DUP3 ADD SWAP1 POP PUSH2 0x1ADF PUSH1 0x0 DUP4 ADD DUP8 PUSH2 0x1751 JUMP JUMPDEST PUSH2 0x1AEC PUSH1 0x20 DUP4 ADD DUP7 PUSH2 0x131A JUMP JUMPDEST PUSH2 0x1AF9 PUSH1 0x40 DUP4 ADD DUP6 PUSH2 0x1751 JUMP JUMPDEST PUSH2 0x1B06 PUSH1 0x60 DUP4 ADD DUP5 PUSH2 0x131A JUMP JUMPDEST SWAP6 SWAP5 POP POP POP POP POP JUMP JUMPDEST PUSH1 0x0 PUSH1 0xFF DUP3 AND SWAP1 POP SWAP2 SWAP1 POP JUMP JUMPDEST PUSH32 0x4E487B7100000000000000000000000000000000000000000000000000000000 PUSH1 0x0 MSTORE PUSH1 0x12 PUSH1 0x4 MSTORE PUSH1 0x24 PUSH1 0x0 REVERT JUMPDEST PUSH1 0x0 PUSH2 0x1B56 DUP3 PUSH2 0x1B0F JUMP JUMPDEST SWAP2 POP PUSH2 0x1B61 DUP4 PUSH2 0x1B0F JUMP JUMPDEST SWAP3 POP DUP3 PUSH2 0x1B71 JUMPI PUSH2 0x1B70 PUSH2 0x1B1C JUMP JUMPDEST JUMPDEST DUP3 DUP3 MOD SWAP1 POP SWAP3 SWAP2 POP POP JUMP JUMPDEST PUSH32 0x4E487B7100000000000000000000000000000000000000000000000000000000 PUSH1 0x0 MSTORE PUSH1 0x11 PUSH1 0x4 MSTORE PUSH1 0x24 PUSH1 0x0 REVERT JUMPDEST PUSH1 0x0 DUP2 PUSH1 0x1 SHR SWAP1 POP SWAP2 SWAP1 POP JUMP JUMPDEST PUSH1 0x0 DUP1 DUP3 SWAP2 POP DUP4 SWAP1 POP JUMPDEST PUSH1 0x1 DUP6 GT ISZERO PUSH2 0x1C02 JUMPI DUP1 DUP7 DIV DUP2 GT ISZERO PUSH2 0x1BDE JUMPI PUSH2 0x1BDD PUSH2 0x1B7C JUMP JUMPDEST JUMPDEST PUSH1 0x1 DUP6 AND ISZERO PUSH2 0x1BED JUMPI DUP1 DUP3 MUL SWAP2 POP JUMPDEST DUP1 DUP2 MUL SWAP1 POP PUSH2 0x1BFB DUP6 PUSH2 0x1BAB JUMP JUMPDEST SWAP5 POP PUSH2 0x1BC2 JUMP JUMPDEST SWAP5 POP SWAP5 SWAP3 POP POP POP JUMP JUMPDEST PUSH1 0x0 DUP3 PUSH2 0x1C1B JUMPI PUSH1 0x1 SWAP1 POP PUSH2 0x1CD7 JUMP JUMPDEST DUP2 PUSH2 0x1C29 JUMPI PUSH1 0x0 SWAP1 POP PUSH2 0x1CD7 JUMP JUMPDEST DUP2 PUSH1 0x1 DUP2 EQ PUSH2 0x1C3F JUMPI PUSH1 0x2 DUP2 EQ PUSH2 0x1C49 JUMPI PUSH2 0x1C78 JUMP JUMPDEST PUSH1 0x1 SWAP2 POP POP PUSH2 0x1CD7 JUMP JUMPDEST PUSH1 0xFF DUP5 GT ISZERO PUSH2 0x1C5B JUMPI PUSH2 0x1C5A PUSH2 0x1B7C JUMP JUMPDEST JUMPDEST DUP4 PUSH1 0x2 EXP SWAP2 POP DUP5 DUP3 GT ISZERO PUSH2 0x1C72 JUMPI PUSH2 0x1C71 PUSH2 0x1B7C JUMP JUMPDEST JUMPDEST POP PUSH2 0x1CD7 JUMP JUMPDEST POP PUSH1 0x20 DUP4 LT PUSH2 0x133 DUP4 LT AND PUSH1 0x4E DUP5 LT PUSH1 0xB DUP5 LT AND OR ISZERO PUSH2 0x1CAD JUMPI DUP3 DUP3 EXP SWAP1 POP DUP4 DUP2 GT ISZERO PUSH2 0x1CA8 JUMPI PUSH2 0x1CA7 PUSH2 0x1B7C JUMP JUMPDEST JUMPDEST PUSH2 0x1CD7 JUMP JUMPDEST PUSH2 0x1CBA DUP5 DUP5 DUP5 PUSH1 0x1 PUSH2 0x1BB8 JUMP JUMPDEST SWAP3 POP SWAP1 POP DUP2 DUP5 DIV DUP2 GT ISZERO PUSH2 0x1CD1 JUMPI PUSH2 0x1CD0 PUSH2 0x1B7C JUMP JUMPDEST JUMPDEST DUP2 DUP2 MUL SWAP1 POP JUMPDEST SWAP4 SWAP3 POP POP POP JUMP JUMPDEST PUSH1 0x0 PUSH2 0x1CE9 DUP3 PUSH2 0x1310 JUMP JUMPDEST SWAP2 POP PUSH2 0x1CF4 DUP4 PUSH2 0x1B0F JUMP JUMPDEST SWAP3 POP PUSH2 0x1D21 PUSH32 0xFFFFFFFFFFFFFFFFFFFFFFFFFFFFFFFFFFFFFFFFFFFFFFFFFFFFFFFFFFFFFFFF DUP5 DUP5 PUSH2 0x1C0B JUMP JUMPDEST SWAP1 POP SWAP3 SWAP2 POP POP JUMP JUMPDEST PUSH32 0x4E487B7100000000000000000000000000000000000000000000000000000000 PUSH1 0x0 MSTORE PUSH1 0x32 PUSH1 0x4 MSTORE PUSH1 0x24 PUSH1 0x0 REVERT JUMPDEST PUSH1 0x0 PUSH2 0x1D63 DUP3 PUSH2 0x1310 JUMP JUMPDEST SWAP2 POP PUSH2 0x1D6E DUP4 PUSH2 0x1310 JUMP JUMPDEST SWAP3 POP DUP2 PUSH32 0xFFFFFFFFFFFFFFFFFFFFFFFFFFFFFFFFFFFFFFFFFFFFFFFFFFFFFFFFFFFFFFFF DIV DUP4 GT DUP3 ISZERO ISZERO AND ISZERO PUSH2 0x1DA7 JUMPI PUSH2 0x1DA6 PUSH2 0x1B7C JUMP JUMPDEST JUMPDEST DUP3 DUP3 MUL SWAP1 POP SWAP3 SWAP2 POP POP JUMP JUMPDEST PUSH1 0x0 PUSH2 0x1DBD DUP3 PUSH2 0x1B0F JUMP JUMPDEST SWAP2 POP PUSH2 0x1DC8 DUP4 PUSH2 0x1B0F JUMP JUMPDEST SWAP3 POP DUP3 PUSH2 0x1DD8 JUMPI PUSH2 0x1DD7 PUSH2 0x1B1C JUMP JUMPDEST JUMPDEST DUP3 DUP3 DIV SWAP1 POP SWAP3 SWAP2 POP POP JUMP JUMPDEST PUSH1 0x0 PUSH2 0x1DEE DUP3 PUSH2 0x1310 JUMP JUMPDEST SWAP2 POP PUSH2 0x1DF9 DUP4 PUSH2 0x1310 JUMP JUMPDEST SWAP3 POP DUP3 PUSH32 0xFFFFFFFFFFFFFFFFFFFFFFFFFFFFFFFFFFFFFFFFFFFFFFFFFFFFFFFFFFFFFFFF SUB DUP3 GT ISZERO PUSH2 0x1E2E JUMPI PUSH2 0x1E2D PUSH2 0x1B7C JUMP JUMPDEST JUMPDEST DUP3 DUP3 ADD SWAP1 POP SWAP3 SWAP2 POP POP JUMP JUMPDEST PUSH1 0x0 PUSH2 0x1E44 DUP3 PUSH2 0x1B0F JUMP JUMPDEST SWAP2 POP PUSH1 0xFF DUP3 SUB PUSH2 0x1E57 JUMPI PUSH2 0x1E56 PUSH2 0x1B7C JUMP JUMPDEST JUMPDEST PUSH1 0x1 DUP3 ADD SWAP1 POP SWAP2 SWAP1 POP JUMP JUMPDEST PUSH32 0x4D7573742062652076616C69642070657263656E740000000000000000000000 PUSH1 0x0 DUP3 ADD MSTORE POP JUMP JUMPDEST PUSH1 0x0 PUSH2 0x1E98 PUSH1 0x15 DUP4 PUSH2 0x1842 JUMP JUMPDEST SWAP2 POP PUSH2 0x1EA3 DUP3 PUSH2 0x1E62 JUMP JUMPDEST PUSH1 0x20 DUP3 ADD SWAP1 POP SWAP2 SWAP1 POP JUMP JUMPDEST PUSH1 0x0 PUSH1 0x20 DUP3 ADD SWAP1 POP DUP2 DUP2 SUB PUSH1 0x0 DUP4 ADD MSTORE PUSH2 0x1EC7 DUP2 PUSH2 0x1E8B JUMP JUMPDEST SWAP1 POP SWAP2 SWAP1 POP JUMP JUMPDEST PUSH1 0x0 PUSH1 0x40 DUP3 ADD SWAP1 POP PUSH2 0x1EE3 PUSH1 0x0 DUP4 ADD DUP6 PUSH2 0x1751 JUMP JUMPDEST PUSH2 0x1EF0 PUSH1 0x20 DUP4 ADD DUP5 PUSH2 0x131A JUMP JUMPDEST SWAP4 SWAP3 POP POP POP JUMP JUMPDEST PUSH1 0x0 DUP2 SWAP1 POP SWAP3 SWAP2 POP POP JUMP JUMPDEST PUSH32 0x416363657373436F6E74726F6C3A206163636F756E7420000000000000000000 PUSH1 0x0 DUP3 ADD MSTORE POP JUMP JUMPDEST PUSH1 0x0 PUSH2 0x1F38 PUSH1 0x17 DUP4 PUSH2 0x1EF7 JUMP JUMPDEST SWAP2 POP PUSH2 0x1F43 DUP3 PUSH2 0x1F02 JUMP JUMPDEST PUSH1 0x17 DUP3 ADD SWAP1 POP SWAP2 SWAP1 POP JUMP JUMPDEST PUSH1 0x0 PUSH2 0x1F59 DUP3 PUSH2 0x19E1 JUMP JUMPDEST PUSH2 0x1F63 DUP2 DUP6 PUSH2 0x1EF7 JUMP JUMPDEST SWAP4 POP PUSH2 0x1F73 DUP2 DUP6 PUSH1 0x20 DUP7 ADD PUSH2 0x19EC JUMP JUMPDEST DUP1 DUP5 ADD SWAP2 POP POP SWAP3 SWAP2 POP POP JUMP JUMPDEST PUSH32 0x206973206D697373696E6720726F6C6520000000000000000000000000000000 PUSH1 0x0 DUP3 ADD MSTORE POP JUMP JUMPDEST PUSH1 0x0 PUSH2 0x1FB5 PUSH1 0x11 DUP4 PUSH2 0x1EF7 JUMP JUMPDEST SWAP2 POP PUSH2 0x1FC0 DUP3 PUSH2 0x1F7F JUMP JUMPDEST PUSH1 0x11 DUP3 ADD SWAP1 POP SWAP2 SWAP1 POP JUMP JUMPDEST PUSH1 0x0 PUSH2 0x1FD6 DUP3 PUSH2 0x1F2B JUMP JUMPDEST SWAP2 POP PUSH2 0x1FE2 DUP3 DUP6 PUSH2 0x1F4E JUMP JUMPDEST SWAP2 POP PUSH2 0x1FED DUP3 PUSH2 0x1FA8 JUMP JUMPDEST SWAP2 POP PUSH2 0x1FF9 DUP3 DUP5 PUSH2 0x1F4E JUMP JUMPDEST SWAP2 POP DUP2 SWAP1 POP SWAP4 SWAP3 POP POP POP JUMP JUMPDEST PUSH1 0x0 PUSH1 0x20 DUP3 ADD SWAP1 POP DUP2 DUP2 SUB PUSH1 0x0 DUP4 ADD MSTORE PUSH2 0x201F DUP2 DUP5 PUSH2 0x1A1F JUMP JUMPDEST SWAP1 POP SWAP3 SWAP2 POP POP JUMP JUMPDEST PUSH1 0x0 PUSH2 0x2032 DUP3 PUSH2 0x1310 JUMP JUMPDEST SWAP2 POP PUSH1 0x0 DUP3 SUB PUSH2 0x2045 JUMPI PUSH2 0x2044 PUSH2 0x1B7C JUMP JUMPDEST JUMPDEST PUSH1 0x1 DUP3 SUB SWAP1 POP SWAP2 SWAP1 POP JUMP JUMPDEST PUSH32 0x537472696E67733A20686578206C656E67746820696E73756666696369656E74 PUSH1 0x0 DUP3 ADD MSTORE POP JUMP JUMPDEST PUSH1 0x0 PUSH2 0x2086 PUSH1 0x20 DUP4 PUSH2 0x1842 JUMP JUMPDEST SWAP2 POP PUSH2 0x2091 DUP3 PUSH2 0x2050 JUMP JUMPDEST PUSH1 0x20 DUP3 ADD SWAP1 POP SWAP2 SWAP1 POP JUMP JUMPDEST PUSH1 0x0 PUSH1 0x20 DUP3 ADD SWAP1 POP DUP2 DUP2 SUB PUSH1 0x0 DUP4 ADD MSTORE PUSH2 0x20B5 DUP2 PUSH2 0x2079 JUMP JUMPDEST SWAP1 POP SWAP2 SWAP1 POP JUMP INVALID LOG2 PUSH5 0x6970667358 0x22 SLT KECCAK256 0x25 0xC5 GASPRICE LOG0 DUP4 0xB3 PUSH32 0x7498E625A53D9C567494E3C832E99B92FE365A9FDBE78900F64736F6C634300 ADDMOD 0xD STOP CALLER "
				},
				"gasEstimates": {
					"creation": {
						"codeDepositCost": "1686800",
						"executionCost": "infinite",
						"totalCost": "infinite"
					},
					"external": {
						"DEFAULT_ADMIN_ROLE()": "424",
						"PAUSER_ROLE()": "395",
						"SQFi()": "infinite",
						"amount1()": "2561",
						"bytes32ToAmount16(bytes32)": "infinite",
						"createSQFI(string)": "infinite",
						"editSQFI(uint256,uint256)": "infinite",
						"editSupportedFee(address,uint256)": "infinite",
						"editUncraftBurnPercent(uint256)": "infinite",
						"fee1()": "2647",
						"getRoleAdmin(bytes32)": "infinite",
						"grantRole(bytes32,address)": "infinite",
						"hasRole(bytes32,address)": "3185",
						"maxSQFI()": "2519",
						"minSQFI()": "2562",
						"paused()": "2590",
						"renounceRole(bytes32,address)": "infinite",
						"revokeRole(bytes32,address)": "infinite",
						"runePower(uint256)": "infinite",
						"supportsInterface(bytes4)": "751",
						"uncraft(uint256)": "infinite",
						"uncraftBurnPercent()": "2475",
						"withdraw(address,uint256)": "infinite"
					}
				},
				"methodIdentifiers": {
					"DEFAULT_ADMIN_ROLE()": "a217fddf",
					"PAUSER_ROLE()": "e63ab1e9",
					"SQFi()": "52c6159f",
					"amount1()": "f400fde4",
					"bytes32ToAmount16(bytes32)": "dd23faf3",
					"createSQFI(string)": "841acc5d",
					"editSQFI(uint256,uint256)": "51d64e64",
					"editSupportedFee(address,uint256)": "945099bc",
					"editUncraftBurnPercent(uint256)": "eb47536a",
					"fee1()": "c6098256",
					"getRoleAdmin(bytes32)": "248a9ca3",
					"grantRole(bytes32,address)": "2f2ff15d",
					"hasRole(bytes32,address)": "91d14854",
					"maxSQFI()": "13e6b93b",
					"minSQFI()": "683b0ee5",
					"paused()": "5c975abb",
					"renounceRole(bytes32,address)": "36568abe",
					"revokeRole(bytes32,address)": "d547741f",
					"runePower(uint256)": "ac6b182d",
					"supportsInterface(bytes4)": "01ffc9a7",
					"uncraft(uint256)": "0a1ac657",
					"uncraftBurnPercent()": "09c9985c",
					"withdraw(address,uint256)": "f3fef3a3"
				}
			},
			"storageLayout": {
				"storage": [
					{
						"astId": 946,
						"contract": "contracts/SQFITEM/SQFI_Factory.sol:ParagonFactory",
						"label": "_paused",
						"offset": 0,
						"slot": "0",
						"type": "t_bool"
					},
					{
						"astId": 24,
						"contract": "contracts/SQFITEM/SQFI_Factory.sol:ParagonFactory",
						"label": "_roles",
						"offset": 0,
						"slot": "1",
						"type": "t_mapping(t_bytes32,t_struct(RoleData)19_storage)"
					},
					{
						"astId": 1043,
						"contract": "contracts/SQFITEM/SQFI_Factory.sol:ParagonFactory",
						"label": "SQFi",
						"offset": 0,
						"slot": "2",
						"type": "t_contract(ISQFItem)840"
					},
					{
						"astId": 1051,
						"contract": "contracts/SQFITEM/SQFI_Factory.sol:ParagonFactory",
						"label": "uncraftBurnPercent",
						"offset": 0,
						"slot": "3",
						"type": "t_uint256"
					},
					{
						"astId": 1054,
						"contract": "contracts/SQFITEM/SQFI_Factory.sol:ParagonFactory",
						"label": "minSQFI",
						"offset": 0,
						"slot": "4",
						"type": "t_uint256"
					},
					{
						"astId": 1057,
						"contract": "contracts/SQFITEM/SQFI_Factory.sol:ParagonFactory",
						"label": "maxSQFI",
						"offset": 0,
						"slot": "5",
						"type": "t_uint256"
					},
					{
						"astId": 1074,
						"contract": "contracts/SQFITEM/SQFI_Factory.sol:ParagonFactory",
						"label": "runePower",
						"offset": 0,
						"slot": "6",
						"type": "t_array(t_uint256)16_storage"
					},
					{
						"astId": 1076,
						"contract": "contracts/SQFITEM/SQFI_Factory.sol:ParagonFactory",
						"label": "fee1",
						"offset": 0,
						"slot": "22",
						"type": "t_address"
					},
					{
						"astId": 1079,
						"contract": "contracts/SQFITEM/SQFI_Factory.sol:ParagonFactory",
						"label": "amount1",
						"offset": 0,
						"slot": "23",
						"type": "t_uint256"
					}
				],
				"types": {
					"t_address": {
						"encoding": "inplace",
						"label": "address",
						"numberOfBytes": "20"
					},
					"t_array(t_uint256)16_storage": {
						"base": "t_uint256",
						"encoding": "inplace",
						"label": "uint256[16]",
						"numberOfBytes": "512"
					},
					"t_bool": {
						"encoding": "inplace",
						"label": "bool",
						"numberOfBytes": "1"
					},
					"t_bytes32": {
						"encoding": "inplace",
						"label": "bytes32",
						"numberOfBytes": "32"
					},
					"t_contract(ISQFItem)840": {
						"encoding": "inplace",
						"label": "contract ISQFItem",
						"numberOfBytes": "20"
					},
					"t_mapping(t_address,t_bool)": {
						"encoding": "mapping",
						"key": "t_address",
						"label": "mapping(address => bool)",
						"numberOfBytes": "32",
						"value": "t_bool"
					},
					"t_mapping(t_bytes32,t_struct(RoleData)19_storage)": {
						"encoding": "mapping",
						"key": "t_bytes32",
						"label": "mapping(bytes32 => struct AccessControl.RoleData)",
						"numberOfBytes": "32",
						"value": "t_struct(RoleData)19_storage"
					},
					"t_struct(RoleData)19_storage": {
						"encoding": "inplace",
						"label": "struct AccessControl.RoleData",
						"members": [
							{
								"astId": 16,
								"contract": "contracts/SQFITEM/SQFI_Factory.sol:ParagonFactory",
								"label": "members",
								"offset": 0,
								"slot": "0",
								"type": "t_mapping(t_address,t_bool)"
							},
							{
								"astId": 18,
								"contract": "contracts/SQFITEM/SQFI_Factory.sol:ParagonFactory",
								"label": "adminRole",
								"offset": 0,
								"slot": "1",
								"type": "t_bytes32"
							}
						],
						"numberOfBytes": "64"
					},
					"t_uint256": {
						"encoding": "inplace",
						"label": "uint256",
						"numberOfBytes": "32"
					}
				}
			},
			"userdoc": {
				"kind": "user",
				"methods": {},
				"version": 1
			}
		}
	}
}