{
	"contracts/SQFITEM/SQFI_Factory.sol": {
		"ParagonFactory": {
			"abi": [
				{
					"inputs": [
						{
							"internalType": "address",
							"name": "_sqfi",
							"type": "address"
						},
						{
							"internalType": "address",
							"name": "_fee1",
							"type": "address"
						}
					],
					"stateMutability": "nonpayable",
					"type": "constructor"
				},
				{
					"anonymous": false,
					"inputs": [
						{
							"indexed": false,
							"internalType": "address",
							"name": "owner",
							"type": "address"
						},
						{
							"indexed": false,
							"internalType": "uint256",
							"name": "tokenId",
							"type": "uint256"
						},
						{
							"indexed": false,
							"internalType": "address",
							"name": "fee1",
							"type": "address"
						},
						{
							"indexed": false,
							"internalType": "uint256",
							"name": "amount1",
							"type": "uint256"
						}
					],
					"name": "CraftSQFI",
					"type": "event"
				},
				{
					"anonymous": false,
					"inputs": [
						{
							"indexed": false,
							"internalType": "address",
							"name": "currency",
							"type": "address"
						},
						{
							"indexed": false,
							"internalType": "uint256",
							"name": "amount",
							"type": "uint256"
						},
						{
							"indexed": false,
							"internalType": "bool",
							"name": "enable",
							"type": "bool"
						}
					],
					"name": "FeeChange",
					"type": "event"
				},
				{
					"anonymous": false,
					"inputs": [
						{
							"indexed": false,
							"internalType": "address",
							"name": "account",
							"type": "address"
						}
					],
					"name": "Paused",
					"type": "event"
				},
				{
					"anonymous": false,
					"inputs": [
						{
							"indexed": true,
							"internalType": "bytes32",
							"name": "role",
							"type": "bytes32"
						},
						{
							"indexed": true,
							"internalType": "bytes32",
							"name": "previousAdminRole",
							"type": "bytes32"
						},
						{
							"indexed": true,
							"internalType": "bytes32",
							"name": "newAdminRole",
							"type": "bytes32"
						}
					],
					"name": "RoleAdminChanged",
					"type": "event"
				},
				{
					"anonymous": false,
					"inputs": [
						{
							"indexed": true,
							"internalType": "bytes32",
							"name": "role",
							"type": "bytes32"
						},
						{
							"indexed": true,
							"internalType": "address",
							"name": "account",
							"type": "address"
						},
						{
							"indexed": true,
							"internalType": "address",
							"name": "sender",
							"type": "address"
						}
					],
					"name": "RoleGranted",
					"type": "event"
				},
				{
					"anonymous": false,
					"inputs": [
						{
							"indexed": true,
							"internalType": "bytes32",
							"name": "role",
							"type": "bytes32"
						},
						{
							"indexed": true,
							"internalType": "address",
							"name": "account",
							"type": "address"
						},
						{
							"indexed": true,
							"internalType": "address",
							"name": "sender",
							"type": "address"
						}
					],
					"name": "RoleRevoked",
					"type": "event"
				},
				{
					"anonymous": false,
					"inputs": [
						{
							"indexed": false,
							"internalType": "uint256",
							"name": "tokenId",
							"type": "uint256"
						}
					],
					"name": "UncraftSQFI",
					"type": "event"
				},
				{
					"anonymous": false,
					"inputs": [
						{
							"indexed": false,
							"internalType": "address",
							"name": "account",
							"type": "address"
						}
					],
					"name": "Unpaused",
					"type": "event"
				},
				{
					"inputs": [],
					"name": "DEFAULT_ADMIN_ROLE",
					"outputs": [
						{
							"internalType": "bytes32",
							"name": "",
							"type": "bytes32"
						}
					],
					"stateMutability": "view",
					"type": "function"
				},
				{
					"inputs": [],
					"name": "PAUSER_ROLE",
					"outputs": [
						{
							"internalType": "bytes32",
							"name": "",
							"type": "bytes32"
						}
					],
					"stateMutability": "view",
					"type": "function"
				},
				{
					"inputs": [],
					"name": "SQFi",
					"outputs": [
						{
							"internalType": "contract ISQFItem",
							"name": "",
							"type": "address"
						}
					],
					"stateMutability": "view",
					"type": "function"
				},
				{
					"inputs": [],
					"name": "amount1",
					"outputs": [
						{
							"internalType": "uint256",
							"name": "",
							"type": "uint256"
						}
					],
					"stateMutability": "view",
					"type": "function"
				},
				{
					"inputs": [
						{
							"internalType": "bytes32",
							"name": "data",
							"type": "bytes32"
						}
					],
					"name": "bytes32ToAmount16",
					"outputs": [
						{
							"internalType": "uint256[16]",
							"name": "amount",
							"type": "uint256[16]"
						}
					],
					"stateMutability": "pure",
					"type": "function"
				},
				{
					"inputs": [
						{
							"internalType": "string",
							"name": "tokenURI_",
							"type": "string"
						}
					],
					"name": "createSQFI",
					"outputs": [
						{
							"internalType": "uint256",
							"name": "",
							"type": "uint256"
						}
					],
					"stateMutability": "nonpayable",
					"type": "function"
				},
				{
					"inputs": [
						{
							"internalType": "address",
							"name": "_fee1",
							"type": "address"
						},
						{
							"internalType": "uint256",
							"name": "_amount1",
							"type": "uint256"
						}
					],
					"name": "editSupportedFee",
					"outputs": [],
					"stateMutability": "nonpayable",
					"type": "function"
				},
				{
					"inputs": [],
					"name": "fee1",
					"outputs": [
						{
							"internalType": "address",
							"name": "",
							"type": "address"
						}
					],
					"stateMutability": "view",
					"type": "function"
				},
				{
					"inputs": [
						{
							"internalType": "bytes32",
							"name": "role",
							"type": "bytes32"
						}
					],
					"name": "getRoleAdmin",
					"outputs": [
						{
							"internalType": "bytes32",
							"name": "",
							"type": "bytes32"
						}
					],
					"stateMutability": "view",
					"type": "function"
				},
				{
					"inputs": [
						{
							"internalType": "bytes32",
							"name": "role",
							"type": "bytes32"
						},
						{
							"internalType": "address",
							"name": "account",
							"type": "address"
						}
					],
					"name": "grantRole",
					"outputs": [],
					"stateMutability": "nonpayable",
					"type": "function"
				},
				{
					"inputs": [
						{
							"internalType": "bytes32",
							"name": "role",
							"type": "bytes32"
						},
						{
							"internalType": "address",
							"name": "account",
							"type": "address"
						}
					],
					"name": "hasRole",
					"outputs": [
						{
							"internalType": "bool",
							"name": "",
							"type": "bool"
						}
					],
					"stateMutability": "view",
					"type": "function"
				},
				{
					"inputs": [],
					"name": "paused",
					"outputs": [
						{
							"internalType": "bool",
							"name": "",
							"type": "bool"
						}
					],
					"stateMutability": "view",
					"type": "function"
				},
				{
					"inputs": [
						{
							"internalType": "bytes32",
							"name": "role",
							"type": "bytes32"
						},
						{
							"internalType": "address",
							"name": "account",
							"type": "address"
						}
					],
					"name": "renounceRole",
					"outputs": [],
					"stateMutability": "nonpayable",
					"type": "function"
				},
				{
					"inputs": [
						{
							"internalType": "bytes32",
							"name": "role",
							"type": "bytes32"
						},
						{
							"internalType": "address",
							"name": "account",
							"type": "address"
						}
					],
					"name": "revokeRole",
					"outputs": [],
					"stateMutability": "nonpayable",
					"type": "function"
				},
				{
					"inputs": [
						{
							"internalType": "bytes4",
							"name": "interfaceId",
							"type": "bytes4"
						}
					],
					"name": "supportsInterface",
					"outputs": [
						{
							"internalType": "bool",
							"name": "",
							"type": "bool"
						}
					],
					"stateMutability": "view",
					"type": "function"
				},
				{
					"inputs": [
						{
							"internalType": "uint256",
							"name": "tokenId",
							"type": "uint256"
						}
					],
					"name": "uncraft",
					"outputs": [],
					"stateMutability": "nonpayable",
					"type": "function"
				},
				{
					"inputs": [
						{
							"internalType": "address",
							"name": "token",
							"type": "address"
						},
						{
							"internalType": "uint256",
							"name": "amount",
							"type": "uint256"
						}
					],
					"name": "withdraw",
					"outputs": [],
					"stateMutability": "nonpayable",
					"type": "function"
				}
			],
			"devdoc": {
				"kind": "dev",
				"methods": {
					"getRoleAdmin(bytes32)": {
						"details": "Returns the admin role that controls `role`. See {grantRole} and {revokeRole}. To change a role's admin, use {_setRoleAdmin}."
					},
					"grantRole(bytes32,address)": {
						"details": "Grants `role` to `account`. If `account` had not been already granted `role`, emits a {RoleGranted} event. Requirements: - the caller must have ``role``'s admin role."
					},
					"hasRole(bytes32,address)": {
						"details": "Returns `true` if `account` has been granted `role`."
					},
					"paused()": {
						"details": "Returns true if the contract is paused, and false otherwise."
					},
					"renounceRole(bytes32,address)": {
						"details": "Revokes `role` from the calling account. Roles are often managed via {grantRole} and {revokeRole}: this function's purpose is to provide a mechanism for accounts to lose their privileges if they are compromised (such as when a trusted device is misplaced). If the calling account had been granted `role`, emits a {RoleRevoked} event. Requirements: - the caller must be `account`."
					},
					"revokeRole(bytes32,address)": {
						"details": "Revokes `role` from `account`. If `account` had been granted `role`, emits a {RoleRevoked} event. Requirements: - the caller must have ``role``'s admin role."
					},
					"supportsInterface(bytes4)": {
						"details": "See {IERC165-supportsInterface}."
					}
				},
				"version": 1
			},
			"evm": {
				"assembly": "    /* \"contracts/SQFITEM/SQFI_Factory.sol\":292:2516  contract ParagonFactory is Pausable, AccessControl {... */\n  mstore(0x40, 0x80)\n    /* \"contracts/SQFITEM/SQFI_Factory.sol\":557:563  100e18 */\n  0x056bc75e2d63100000\n    /* \"contracts/SQFITEM/SQFI_Factory.sol\":532:563  uint256 public amount1 = 100e18 */\n  0x04\n  sstore\n    /* \"contracts/SQFITEM/SQFI_Factory.sol\":815:1037  constructor(... */\n  callvalue\n  dup1\n  iszero\n  tag_1\n  jumpi\n  0x00\n  dup1\n  revert\ntag_1:\n  pop\n  mload(0x40)\n  sub(codesize, bytecodeSize)\n  dup1\n  bytecodeSize\n  dup4\n  codecopy\n  dup2\n  dup2\n  add\n  0x40\n  mstore\n  dup2\n  add\n  swap1\n  tag_2\n  swap2\n  swap1\n  tag_3\n  jump\t// in\ntag_2:\n    /* \"contracts/SQFITEM/Pausable.sol\":927:932  false */\n  0x00\n    /* \"contracts/SQFITEM/Pausable.sol\":917:924  _paused */\n  dup1\n  0x00\n    /* \"contracts/SQFITEM/Pausable.sol\":917:932  _paused = false */\n  0x0100\n  exp\n  dup2\n  sload\n  dup2\n  0xff\n  mul\n  not\n  and\n  swap1\n  dup4\n  iszero\n  iszero\n  mul\n  or\n  swap1\n  sstore\n  pop\n    /* \"contracts/SQFITEM/SQFI_Factory.sol\":905:910  _sqfi */\n  dup2\n    /* \"contracts/SQFITEM/SQFI_Factory.sol\":889:893  SQFi */\n  0x02\n  0x00\n    /* \"contracts/SQFITEM/SQFI_Factory.sol\":889:911  SQFi = ISQFItem(_sqfi) */\n  0x0100\n  exp\n  dup2\n  sload\n  dup2\n  0xffffffffffffffffffffffffffffffffffffffff\n  mul\n  not\n  and\n  swap1\n  dup4\n  0xffffffffffffffffffffffffffffffffffffffff\n  and\n  mul\n  or\n  swap1\n  sstore\n  pop\n    /* \"contracts/SQFITEM/SQFI_Factory.sol\":928:933  _fee1 */\n  dup1\n    /* \"contracts/SQFITEM/SQFI_Factory.sol\":921:925  fee1 */\n  0x03\n  0x00\n    /* \"contracts/SQFITEM/SQFI_Factory.sol\":921:933  fee1 = _fee1 */\n  0x0100\n  exp\n  dup2\n  sload\n  dup2\n  0xffffffffffffffffffffffffffffffffffffffff\n  mul\n  not\n  and\n  swap1\n  dup4\n  0xffffffffffffffffffffffffffffffffffffffff\n  and\n  mul\n  or\n  swap1\n  sstore\n  pop\n    /* \"contracts/SQFITEM/SQFI_Factory.sol\":943:985  _setupRole(DEFAULT_ADMIN_ROLE, msg.sender) */\n  tag_8\n    /* \"contracts/SQFITEM/AccessControl.sol\":1962:1966  0x00 */\n  0x00\n    /* \"contracts/SQFITEM/SQFI_Factory.sol\":954:972  DEFAULT_ADMIN_ROLE */\n  dup1\n  shl\n    /* \"contracts/SQFITEM/SQFI_Factory.sol\":974:984  msg.sender */\n  caller\n    /* \"contracts/SQFITEM/SQFI_Factory.sol\":943:953  _setupRole */\n  shl(0x20, tag_9)\n    /* \"contracts/SQFITEM/SQFI_Factory.sol\":943:985  _setupRole(DEFAULT_ADMIN_ROLE, msg.sender) */\n  0x20\n  shr\n  jump\t// in\ntag_8:\n    /* \"contracts/SQFITEM/SQFI_Factory.sol\":995:1030  _setupRole(PAUSER_ROLE, msg.sender) */\n  tag_10\n    /* \"contracts/SQFITEM/SQFI_Factory.sol\":477:501  keccak256(\"PAUSER_ROLE\") */\n  0x65d7a28e3265b37a6474929f336521b332c1681b933f6cb9f3376673440d862a\n    /* \"contracts/SQFITEM/SQFI_Factory.sol\":1019:1029  msg.sender */\n  caller\n    /* \"contracts/SQFITEM/SQFI_Factory.sol\":995:1005  _setupRole */\n  shl(0x20, tag_9)\n    /* \"contracts/SQFITEM/SQFI_Factory.sol\":995:1030  _setupRole(PAUSER_ROLE, msg.sender) */\n  0x20\n  shr\n  jump\t// in\ntag_10:\n    /* \"contracts/SQFITEM/SQFI_Factory.sol\":815:1037  constructor(... */\n  pop\n  pop\n    /* \"contracts/SQFITEM/SQFI_Factory.sol\":292:2516  contract ParagonFactory is Pausable, AccessControl {... */\n  jump(tag_11)\n    /* \"contracts/SQFITEM/AccessControl.sol\":6049:6159  function _setupRole(bytes32 role, address account) internal virtual {... */\ntag_9:\n    /* \"contracts/SQFITEM/AccessControl.sol\":6127:6152  _grantRole(role, account) */\n  tag_13\n    /* \"contracts/SQFITEM/AccessControl.sol\":6138:6142  role */\n  dup3\n    /* \"contracts/SQFITEM/AccessControl.sol\":6144:6151  account */\n  dup3\n    /* \"contracts/SQFITEM/AccessControl.sol\":6127:6137  _grantRole */\n  shl(0x20, tag_14)\n    /* \"contracts/SQFITEM/AccessControl.sol\":6127:6152  _grantRole(role, account) */\n  0x20\n  shr\n  jump\t// in\ntag_13:\n    /* \"contracts/SQFITEM/AccessControl.sol\":6049:6159  function _setupRole(bytes32 role, address account) internal virtual {... */\n  pop\n  pop\n  jump\t// out\n    /* \"contracts/SQFITEM/AccessControl.sol\":6537:6761  function _grantRole(bytes32 role, address account) private {... */\ntag_14:\n    /* \"contracts/SQFITEM/AccessControl.sol\":6611:6633  hasRole(role, account) */\n  tag_16\n    /* \"contracts/SQFITEM/AccessControl.sol\":6619:6623  role */\n  dup3\n    /* \"contracts/SQFITEM/AccessControl.sol\":6625:6632  account */\n  dup3\n    /* \"contracts/SQFITEM/AccessControl.sol\":6611:6618  hasRole */\n  shl(0x20, tag_17)\n    /* \"contracts/SQFITEM/AccessControl.sol\":6611:6633  hasRole(role, account) */\n  0x20\n  shr\n  jump\t// in\ntag_16:\n    /* \"contracts/SQFITEM/AccessControl.sol\":6606:6755  if (!hasRole(role, account)) {... */\n  tag_18\n  jumpi\n    /* \"contracts/SQFITEM/AccessControl.sol\":6681:6685  true */\n  0x01\n    /* \"contracts/SQFITEM/AccessControl.sol\":6649:6655  _roles */\n  dup1\n    /* \"contracts/SQFITEM/AccessControl.sol\":6649:6661  _roles[role] */\n  0x00\n    /* \"contracts/SQFITEM/AccessControl.sol\":6656:6660  role */\n  dup5\n    /* \"contracts/SQFITEM/AccessControl.sol\":6649:6661  _roles[role] */\n  dup2\n  mstore\n  0x20\n  add\n  swap1\n  dup2\n  mstore\n  0x20\n  add\n  0x00\n  keccak256\n    /* \"contracts/SQFITEM/AccessControl.sol\":6649:6669  _roles[role].members */\n  0x00\n  add\n    /* \"contracts/SQFITEM/AccessControl.sol\":6649:6678  _roles[role].members[account] */\n  0x00\n    /* \"contracts/SQFITEM/AccessControl.sol\":6670:6677  account */\n  dup4\n    /* \"contracts/SQFITEM/AccessControl.sol\":6649:6678  _roles[role].members[account] */\n  0xffffffffffffffffffffffffffffffffffffffff\n  and\n  0xffffffffffffffffffffffffffffffffffffffff\n  and\n  dup2\n  mstore\n  0x20\n  add\n  swap1\n  dup2\n  mstore\n  0x20\n  add\n  0x00\n  keccak256\n  0x00\n    /* \"contracts/SQFITEM/AccessControl.sol\":6649:6685  _roles[role].members[account] = true */\n  0x0100\n  exp\n  dup2\n  sload\n  dup2\n  0xff\n  mul\n  not\n  and\n  swap1\n  dup4\n  iszero\n  iszero\n  mul\n  or\n  swap1\n  sstore\n  pop\n    /* \"contracts/SQFITEM/AccessControl.sol\":6731:6743  _msgSender() */\n  tag_19\n    /* \"contracts/SQFITEM/AccessControl.sol\":6731:6741  _msgSender */\n  shl(0x20, tag_20)\n    /* \"contracts/SQFITEM/AccessControl.sol\":6731:6743  _msgSender() */\n  0x20\n  shr\n  jump\t// in\ntag_19:\n    /* \"contracts/SQFITEM/AccessControl.sol\":6704:6744  RoleGranted(role, account, _msgSender()) */\n  0xffffffffffffffffffffffffffffffffffffffff\n  and\n    /* \"contracts/SQFITEM/AccessControl.sol\":6722:6729  account */\n  dup2\n    /* \"contracts/SQFITEM/AccessControl.sol\":6704:6744  RoleGranted(role, account, _msgSender()) */\n  0xffffffffffffffffffffffffffffffffffffffff\n  and\n    /* \"contracts/SQFITEM/AccessControl.sol\":6716:6720  role */\n  dup4\n    /* \"contracts/SQFITEM/AccessControl.sol\":6704:6744  RoleGranted(role, account, _msgSender()) */\n  0x2f8788117e7eff1d82e926ec794901d17c78024a50270940304540a733656f0d\n  mload(0x40)\n  mload(0x40)\n  dup1\n  swap2\n  sub\n  swap1\n  log4\n    /* \"contracts/SQFITEM/AccessControl.sol\":6606:6755  if (!hasRole(role, account)) {... */\ntag_18:\n    /* \"contracts/SQFITEM/AccessControl.sol\":6537:6761  function _grantRole(bytes32 role, address account) private {... */\n  pop\n  pop\n  jump\t// out\n    /* \"contracts/SQFITEM/AccessControl.sol\":2799:2936  function hasRole(bytes32 role, address account) public view override returns (bool) {... */\ntag_17:\n    /* \"contracts/SQFITEM/AccessControl.sol\":2877:2881  bool */\n  0x00\n    /* \"contracts/SQFITEM/AccessControl.sol\":2900:2906  _roles */\n  0x01\n    /* \"contracts/SQFITEM/AccessControl.sol\":2900:2912  _roles[role] */\n  0x00\n    /* \"contracts/SQFITEM/AccessControl.sol\":2907:2911  role */\n  dup5\n    /* \"contracts/SQFITEM/AccessControl.sol\":2900:2912  _roles[role] */\n  dup2\n  mstore\n  0x20\n  add\n  swap1\n  dup2\n  mstore\n  0x20\n  add\n  0x00\n  keccak256\n    /* \"contracts/SQFITEM/AccessControl.sol\":2900:2920  _roles[role].members */\n  0x00\n  add\n    /* \"contracts/SQFITEM/AccessControl.sol\":2900:2929  _roles[role].members[account] */\n  0x00\n    /* \"contracts/SQFITEM/AccessControl.sol\":2921:2928  account */\n  dup4\n    /* \"contracts/SQFITEM/AccessControl.sol\":2900:2929  _roles[role].members[account] */\n  0xffffffffffffffffffffffffffffffffffffffff\n  and\n  0xffffffffffffffffffffffffffffffffffffffff\n  and\n  dup2\n  mstore\n  0x20\n  add\n  swap1\n  dup2\n  mstore\n  0x20\n  add\n  0x00\n  keccak256\n  0x00\n  swap1\n  sload\n  swap1\n  0x0100\n  exp\n  swap1\n  div\n  0xff\n  and\n    /* \"contracts/SQFITEM/AccessControl.sol\":2893:2929  return _roles[role].members[account] */\n  swap1\n  pop\n    /* \"contracts/SQFITEM/AccessControl.sol\":2799:2936  function hasRole(bytes32 role, address account) public view override returns (bool) {... */\n  swap3\n  swap2\n  pop\n  pop\n  jump\t// out\n    /* \"contracts/SQFITEM/Context.sol\":587:683  function _msgSender() internal view virtual returns (address) {... */\ntag_20:\n    /* \"contracts/SQFITEM/Context.sol\":640:647  address */\n  0x00\n    /* \"contracts/SQFITEM/Context.sol\":666:676  msg.sender */\n  caller\n    /* \"contracts/SQFITEM/Context.sol\":659:676  return msg.sender */\n  swap1\n  pop\n    /* \"contracts/SQFITEM/Context.sol\":587:683  function _msgSender() internal view virtual returns (address) {... */\n  swap1\n  jump\t// out\n    /* \"#utility.yul\":88:205   */\ntag_24:\n    /* \"#utility.yul\":197:198   */\n  0x00\n    /* \"#utility.yul\":194:195   */\n  dup1\n    /* \"#utility.yul\":187:199   */\n  revert\n    /* \"#utility.yul\":334:460   */\ntag_26:\n    /* \"#utility.yul\":371:378   */\n  0x00\n    /* \"#utility.yul\":411:453   */\n  0xffffffffffffffffffffffffffffffffffffffff\n    /* \"#utility.yul\":404:409   */\n  dup3\n    /* \"#utility.yul\":400:454   */\n  and\n    /* \"#utility.yul\":389:454   */\n  swap1\n  pop\n    /* \"#utility.yul\":334:460   */\n  swap2\n  swap1\n  pop\n  jump\t// out\n    /* \"#utility.yul\":466:562   */\ntag_27:\n    /* \"#utility.yul\":503:510   */\n  0x00\n    /* \"#utility.yul\":532:556   */\n  tag_36\n    /* \"#utility.yul\":550:555   */\n  dup3\n    /* \"#utility.yul\":532:556   */\n  tag_26\n  jump\t// in\ntag_36:\n    /* \"#utility.yul\":521:556   */\n  swap1\n  pop\n    /* \"#utility.yul\":466:562   */\n  swap2\n  swap1\n  pop\n  jump\t// out\n    /* \"#utility.yul\":568:690   */\ntag_28:\n    /* \"#utility.yul\":641:665   */\n  tag_38\n    /* \"#utility.yul\":659:664   */\n  dup2\n    /* \"#utility.yul\":641:665   */\n  tag_27\n  jump\t// in\ntag_38:\n    /* \"#utility.yul\":634:639   */\n  dup2\n    /* \"#utility.yul\":631:666   */\n  eq\n    /* \"#utility.yul\":621:684   */\n  tag_39\n  jumpi\n    /* \"#utility.yul\":680:681   */\n  0x00\n    /* \"#utility.yul\":677:678   */\n  dup1\n    /* \"#utility.yul\":670:682   */\n  revert\n    /* \"#utility.yul\":621:684   */\ntag_39:\n    /* \"#utility.yul\":568:690   */\n  pop\n  jump\t// out\n    /* \"#utility.yul\":696:839   */\ntag_29:\n    /* \"#utility.yul\":753:758   */\n  0x00\n    /* \"#utility.yul\":784:790   */\n  dup2\n    /* \"#utility.yul\":778:791   */\n  mload\n    /* \"#utility.yul\":769:791   */\n  swap1\n  pop\n    /* \"#utility.yul\":800:833   */\n  tag_41\n    /* \"#utility.yul\":827:832   */\n  dup2\n    /* \"#utility.yul\":800:833   */\n  tag_28\n  jump\t// in\ntag_41:\n    /* \"#utility.yul\":696:839   */\n  swap3\n  swap2\n  pop\n  pop\n  jump\t// out\n    /* \"#utility.yul\":845:1352   */\ntag_3:\n    /* \"#utility.yul\":924:930   */\n  0x00\n    /* \"#utility.yul\":932:938   */\n  dup1\n    /* \"#utility.yul\":981:983   */\n  0x40\n    /* \"#utility.yul\":969:978   */\n  dup4\n    /* \"#utility.yul\":960:967   */\n  dup6\n    /* \"#utility.yul\":956:979   */\n  sub\n    /* \"#utility.yul\":952:984   */\n  slt\n    /* \"#utility.yul\":949:1068   */\n  iszero\n  tag_43\n  jumpi\n    /* \"#utility.yul\":987:1066   */\n  tag_44\n  tag_24\n  jump\t// in\ntag_44:\n    /* \"#utility.yul\":949:1068   */\ntag_43:\n    /* \"#utility.yul\":1107:1108   */\n  0x00\n    /* \"#utility.yul\":1132:1196   */\n  tag_45\n    /* \"#utility.yul\":1188:1195   */\n  dup6\n    /* \"#utility.yul\":1179:1185   */\n  dup3\n    /* \"#utility.yul\":1168:1177   */\n  dup7\n    /* \"#utility.yul\":1164:1186   */\n  add\n    /* \"#utility.yul\":1132:1196   */\n  tag_29\n  jump\t// in\ntag_45:\n    /* \"#utility.yul\":1122:1196   */\n  swap3\n  pop\n    /* \"#utility.yul\":1078:1206   */\n  pop\n    /* \"#utility.yul\":1245:1247   */\n  0x20\n    /* \"#utility.yul\":1271:1335   */\n  tag_46\n    /* \"#utility.yul\":1327:1334   */\n  dup6\n    /* \"#utility.yul\":1318:1324   */\n  dup3\n    /* \"#utility.yul\":1307:1316   */\n  dup7\n    /* \"#utility.yul\":1303:1325   */\n  add\n    /* \"#utility.yul\":1271:1335   */\n  tag_29\n  jump\t// in\ntag_46:\n    /* \"#utility.yul\":1261:1335   */\n  swap2\n  pop\n    /* \"#utility.yul\":1216:1345   */\n  pop\n    /* \"#utility.yul\":845:1352   */\n  swap3\n  pop\n  swap3\n  swap1\n  pop\n  jump\t// out\n    /* \"contracts/SQFITEM/SQFI_Factory.sol\":292:2516  contract ParagonFactory is Pausable, AccessControl {... */\ntag_11:\n  dataSize(sub_0)\n  dup1\n  dataOffset(sub_0)\n  0x00\n  codecopy\n  0x00\n  return\nstop\n\nsub_0: assembly {\n        /* \"contracts/SQFITEM/SQFI_Factory.sol\":292:2516  contract ParagonFactory is Pausable, AccessControl {... */\n      mstore(0x40, 0x80)\n      callvalue\n      dup1\n      iszero\n      tag_1\n      jumpi\n      0x00\n      dup1\n      revert\n    tag_1:\n      pop\n      jumpi(tag_2, lt(calldatasize, 0x04))\n      shr(0xe0, calldataload(0x00))\n      dup1\n      0x91d14854\n      gt\n      tag_20\n      jumpi\n      dup1\n      0xd547741f\n      gt\n      tag_21\n      jumpi\n      dup1\n      0xd547741f\n      eq\n      tag_15\n      jumpi\n      dup1\n      0xdd23faf3\n      eq\n      tag_16\n      jumpi\n      dup1\n      0xe63ab1e9\n      eq\n      tag_17\n      jumpi\n      dup1\n      0xf3fef3a3\n      eq\n      tag_18\n      jumpi\n      dup1\n      0xf400fde4\n      eq\n      tag_19\n      jumpi\n      jump(tag_2)\n    tag_21:\n      dup1\n      0x91d14854\n      eq\n      tag_11\n      jumpi\n      dup1\n      0x945099bc\n      eq\n      tag_12\n      jumpi\n      dup1\n      0xa217fddf\n      eq\n      tag_13\n      jumpi\n      dup1\n      0xc6098256\n      eq\n      tag_14\n      jumpi\n      jump(tag_2)\n    tag_20:\n      dup1\n      0x36568abe\n      gt\n      tag_22\n      jumpi\n      dup1\n      0x36568abe\n      eq\n      tag_7\n      jumpi\n      dup1\n      0x52c6159f\n      eq\n      tag_8\n      jumpi\n      dup1\n      0x5c975abb\n      eq\n      tag_9\n      jumpi\n      dup1\n      0x841acc5d\n      eq\n      tag_10\n      jumpi\n      jump(tag_2)\n    tag_22:\n      dup1\n      0x01ffc9a7\n      eq\n      tag_3\n      jumpi\n      dup1\n      0x0a1ac657\n      eq\n      tag_4\n      jumpi\n      dup1\n      0x248a9ca3\n      eq\n      tag_5\n      jumpi\n      dup1\n      0x2f2ff15d\n      eq\n      tag_6\n      jumpi\n    tag_2:\n      0x00\n      dup1\n      revert\n        /* \"contracts/SQFITEM/AccessControl.sol\":2510:2712  function supportsInterface(bytes4 interfaceId) public view virtual override returns (bool) {... */\n    tag_3:\n      tag_23\n      0x04\n      dup1\n      calldatasize\n      sub\n      dup2\n      add\n      swap1\n      tag_24\n      swap2\n      swap1\n      tag_25\n      jump\t// in\n    tag_24:\n      tag_26\n      jump\t// in\n    tag_23:\n      mload(0x40)\n      tag_27\n      swap2\n      swap1\n      tag_28\n      jump\t// in\n    tag_27:\n      mload(0x40)\n      dup1\n      swap2\n      sub\n      swap1\n      return\n        /* \"contracts/SQFITEM/SQFI_Factory.sol\":2093:2226  function uncraft(... */\n    tag_4:\n      tag_29\n      0x04\n      dup1\n      calldatasize\n      sub\n      dup2\n      add\n      swap1\n      tag_30\n      swap2\n      swap1\n      tag_31\n      jump\t// in\n    tag_30:\n      tag_32\n      jump\t// in\n    tag_29:\n      stop\n        /* \"contracts/SQFITEM/AccessControl.sol\":3882:4003  function getRoleAdmin(bytes32 role) public view override returns (bytes32) {... */\n    tag_5:\n      tag_33\n      0x04\n      dup1\n      calldatasize\n      sub\n      dup2\n      add\n      swap1\n      tag_34\n      swap2\n      swap1\n      tag_35\n      jump\t// in\n    tag_34:\n      tag_36\n      jump\t// in\n    tag_33:\n      mload(0x40)\n      tag_37\n      swap2\n      swap1\n      tag_38\n      jump\t// in\n    tag_37:\n      mload(0x40)\n      dup1\n      swap2\n      sub\n      swap1\n      return\n        /* \"contracts/SQFITEM/AccessControl.sol\":4253:4398  function grantRole(bytes32 role, address account) public virtual override onlyRole(getRoleAdmin(role)) {... */\n    tag_6:\n      tag_39\n      0x04\n      dup1\n      calldatasize\n      sub\n      dup2\n      add\n      swap1\n      tag_40\n      swap2\n      swap1\n      tag_41\n      jump\t// in\n    tag_40:\n      tag_42\n      jump\t// in\n    tag_39:\n      stop\n        /* \"contracts/SQFITEM/AccessControl.sol\":5270:5484  function renounceRole(bytes32 role, address account) public virtual override {... */\n    tag_7:\n      tag_43\n      0x04\n      dup1\n      calldatasize\n      sub\n      dup2\n      add\n      swap1\n      tag_44\n      swap2\n      swap1\n      tag_41\n      jump\t// in\n    tag_44:\n      tag_45\n      jump\t// in\n    tag_43:\n      stop\n        /* \"contracts/SQFITEM/SQFI_Factory.sol\":413:433  ISQFItem public SQFi */\n    tag_8:\n      tag_46\n      tag_47\n      jump\t// in\n    tag_46:\n      mload(0x40)\n      tag_48\n      swap2\n      swap1\n      tag_49\n      jump\t// in\n    tag_48:\n      mload(0x40)\n      dup1\n      swap2\n      sub\n      swap1\n      return\n        /* \"contracts/SQFITEM/Pausable.sol\":1034:1118  function paused() public view virtual returns (bool) {... */\n    tag_9:\n      tag_50\n      tag_51\n      jump\t// in\n    tag_50:\n      mload(0x40)\n      tag_52\n      swap2\n      swap1\n      tag_28\n      jump\t// in\n    tag_52:\n      mload(0x40)\n      dup1\n      swap2\n      sub\n      swap1\n      return\n        /* \"contracts/SQFITEM/SQFI_Factory.sol\":1539:2020  function createSQFI(... */\n    tag_10:\n      tag_53\n      0x04\n      dup1\n      calldatasize\n      sub\n      dup2\n      add\n      swap1\n      tag_54\n      swap2\n      swap1\n      tag_55\n      jump\t// in\n    tag_54:\n      tag_56\n      jump\t// in\n    tag_53:\n      mload(0x40)\n      tag_57\n      swap2\n      swap1\n      tag_58\n      jump\t// in\n    tag_57:\n      mload(0x40)\n      dup1\n      swap2\n      sub\n      swap1\n      return\n        /* \"contracts/SQFITEM/AccessControl.sol\":2799:2936  function hasRole(bytes32 role, address account) public view override returns (bool) {... */\n    tag_11:\n      tag_59\n      0x04\n      dup1\n      calldatasize\n      sub\n      dup2\n      add\n      swap1\n      tag_60\n      swap2\n      swap1\n      tag_41\n      jump\t// in\n    tag_60:\n      tag_61\n      jump\t// in\n    tag_59:\n      mload(0x40)\n      tag_62\n      swap2\n      swap1\n      tag_28\n      jump\t// in\n    tag_62:\n      mload(0x40)\n      dup1\n      swap2\n      sub\n      swap1\n      return\n        /* \"contracts/SQFITEM/SQFI_Factory.sol\":1359:1533  function editSupportedFee(... */\n    tag_12:\n      tag_63\n      0x04\n      dup1\n      calldatasize\n      sub\n      dup2\n      add\n      swap1\n      tag_64\n      swap2\n      swap1\n      tag_65\n      jump\t// in\n    tag_64:\n      tag_66\n      jump\t// in\n    tag_63:\n      stop\n        /* \"contracts/SQFITEM/AccessControl.sol\":1917:1966  bytes32 public constant DEFAULT_ADMIN_ROLE = 0x00 */\n    tag_13:\n      tag_67\n      tag_68\n      jump\t// in\n    tag_67:\n      mload(0x40)\n      tag_69\n      swap2\n      swap1\n      tag_38\n      jump\t// in\n    tag_69:\n      mload(0x40)\n      dup1\n      swap2\n      sub\n      swap1\n      return\n        /* \"contracts/SQFITEM/SQFI_Factory.sol\":507:526  address public fee1 */\n    tag_14:\n      tag_70\n      tag_71\n      jump\t// in\n    tag_70:\n      mload(0x40)\n      tag_72\n      swap2\n      swap1\n      tag_73\n      jump\t// in\n    tag_72:\n      mload(0x40)\n      dup1\n      swap2\n      sub\n      swap1\n      return\n        /* \"contracts/SQFITEM/AccessControl.sol\":4632:4779  function revokeRole(bytes32 role, address account) public virtual override onlyRole(getRoleAdmin(role)) {... */\n    tag_15:\n      tag_74\n      0x04\n      dup1\n      calldatasize\n      sub\n      dup2\n      add\n      swap1\n      tag_75\n      swap2\n      swap1\n      tag_41\n      jump\t// in\n    tag_75:\n      tag_76\n      jump\t// in\n    tag_74:\n      stop\n        /* \"contracts/SQFITEM/SQFI_Factory.sol\":1043:1354  function bytes32ToAmount16(bytes32 data)... */\n    tag_16:\n      tag_77\n      0x04\n      dup1\n      calldatasize\n      sub\n      dup2\n      add\n      swap1\n      tag_78\n      swap2\n      swap1\n      tag_35\n      jump\t// in\n    tag_78:\n      tag_79\n      jump\t// in\n    tag_77:\n      mload(0x40)\n      tag_80\n      swap2\n      swap1\n      tag_81\n      jump\t// in\n    tag_80:\n      mload(0x40)\n      dup1\n      swap2\n      sub\n      swap1\n      return\n        /* \"contracts/SQFITEM/SQFI_Factory.sol\":439:501  bytes32 public constant PAUSER_ROLE = keccak256(\"PAUSER_ROLE\") */\n    tag_17:\n      tag_82\n      tag_83\n      jump\t// in\n    tag_82:\n      mload(0x40)\n      tag_84\n      swap2\n      swap1\n      tag_38\n      jump\t// in\n    tag_84:\n      mload(0x40)\n      dup1\n      swap2\n      sub\n      swap1\n      return\n        /* \"contracts/SQFITEM/SQFI_Factory.sol\":2232:2514  function withdraw(address token, uint256 amount)... */\n    tag_18:\n      tag_85\n      0x04\n      dup1\n      calldatasize\n      sub\n      dup2\n      add\n      swap1\n      tag_86\n      swap2\n      swap1\n      tag_65\n      jump\t// in\n    tag_86:\n      tag_87\n      jump\t// in\n    tag_85:\n      stop\n        /* \"contracts/SQFITEM/SQFI_Factory.sol\":532:563  uint256 public amount1 = 100e18 */\n    tag_19:\n      tag_88\n      tag_89\n      jump\t// in\n    tag_88:\n      mload(0x40)\n      tag_90\n      swap2\n      swap1\n      tag_58\n      jump\t// in\n    tag_90:\n      mload(0x40)\n      dup1\n      swap2\n      sub\n      swap1\n      return\n        /* \"contracts/SQFITEM/AccessControl.sol\":2510:2712  function supportsInterface(bytes4 interfaceId) public view virtual override returns (bool) {... */\n    tag_26:\n        /* \"contracts/SQFITEM/AccessControl.sol\":2595:2599  bool */\n      0x00\n        /* \"contracts/SQFITEM/AccessControl.sol\":2633:2665  type(IAccessControl).interfaceId */\n      0x7965db0b00000000000000000000000000000000000000000000000000000000\n        /* \"contracts/SQFITEM/AccessControl.sol\":2618:2665  interfaceId == type(IAccessControl).interfaceId */\n      not(0xffffffffffffffffffffffffffffffffffffffffffffffffffffffff)\n      and\n        /* \"contracts/SQFITEM/AccessControl.sol\":2618:2629  interfaceId */\n      dup3\n        /* \"contracts/SQFITEM/AccessControl.sol\":2618:2665  interfaceId == type(IAccessControl).interfaceId */\n      not(0xffffffffffffffffffffffffffffffffffffffffffffffffffffffff)\n      and\n      eq\n        /* \"contracts/SQFITEM/AccessControl.sol\":2618:2705  interfaceId == type(IAccessControl).interfaceId || super.supportsInterface(interfaceId) */\n      dup1\n      tag_92\n      jumpi\n      pop\n        /* \"contracts/SQFITEM/AccessControl.sol\":2669:2705  super.supportsInterface(interfaceId) */\n      tag_93\n        /* \"contracts/SQFITEM/AccessControl.sol\":2693:2704  interfaceId */\n      dup3\n        /* \"contracts/SQFITEM/AccessControl.sol\":2669:2692  super.supportsInterface */\n      tag_94\n        /* \"contracts/SQFITEM/AccessControl.sol\":2669:2705  super.supportsInterface(interfaceId) */\n      jump\t// in\n    tag_93:\n        /* \"contracts/SQFITEM/AccessControl.sol\":2618:2705  interfaceId == type(IAccessControl).interfaceId || super.supportsInterface(interfaceId) */\n    tag_92:\n        /* \"contracts/SQFITEM/AccessControl.sol\":2611:2705  return interfaceId == type(IAccessControl).interfaceId || super.supportsInterface(interfaceId) */\n      swap1\n      pop\n        /* \"contracts/SQFITEM/AccessControl.sol\":2510:2712  function supportsInterface(bytes4 interfaceId) public view virtual override returns (bool) {... */\n      swap2\n      swap1\n      pop\n      jump\t// out\n        /* \"contracts/SQFITEM/SQFI_Factory.sol\":2093:2226  function uncraft(... */\n    tag_32:\n        /* \"contracts/SQFITEM/SQFI_Factory.sol\":2166:2170  SQFi */\n      0x02\n      0x00\n      swap1\n      sload\n      swap1\n      0x0100\n      exp\n      swap1\n      div\n      0xffffffffffffffffffffffffffffffffffffffff\n      and\n        /* \"contracts/SQFITEM/SQFI_Factory.sol\":2166:2175  SQFi.burn */\n      0xffffffffffffffffffffffffffffffffffffffff\n      and\n      0x42966c68\n        /* \"contracts/SQFITEM/SQFI_Factory.sol\":2176:2183  tokenId */\n      dup3\n        /* \"contracts/SQFITEM/SQFI_Factory.sol\":2166:2184  SQFi.burn(tokenId) */\n      mload(0x40)\n      dup3\n      0xffffffff\n      and\n      0xe0\n      shl\n      dup2\n      mstore\n      0x04\n      add\n      tag_96\n      swap2\n      swap1\n      tag_58\n      jump\t// in\n    tag_96:\n      0x00\n      mload(0x40)\n      dup1\n      dup4\n      sub\n      dup2\n      0x00\n      dup8\n      dup1\n      extcodesize\n      iszero\n      dup1\n      iszero\n      tag_97\n      jumpi\n      0x00\n      dup1\n      revert\n    tag_97:\n      pop\n      gas\n      call\n      iszero\n      dup1\n      iszero\n      tag_99\n      jumpi\n      returndatasize\n      0x00\n      dup1\n      returndatacopy\n      revert(0x00, returndatasize)\n    tag_99:\n      pop\n      pop\n      pop\n      pop\n        /* \"contracts/SQFITEM/SQFI_Factory.sol\":2199:2219  UncraftSQFI(tokenId) */\n      0x950dcd4a7087bbf2cee08268e1b26ac45fb310d3ae443d0fe53714b713da45c1\n        /* \"contracts/SQFITEM/SQFI_Factory.sol\":2211:2218  tokenId */\n      dup2\n        /* \"contracts/SQFITEM/SQFI_Factory.sol\":2199:2219  UncraftSQFI(tokenId) */\n      mload(0x40)\n      tag_100\n      swap2\n      swap1\n      tag_58\n      jump\t// in\n    tag_100:\n      mload(0x40)\n      dup1\n      swap2\n      sub\n      swap1\n      log1\n        /* \"contracts/SQFITEM/SQFI_Factory.sol\":2093:2226  function uncraft(... */\n      pop\n      jump\t// out\n        /* \"contracts/SQFITEM/AccessControl.sol\":3882:4003  function getRoleAdmin(bytes32 role) public view override returns (bytes32) {... */\n    tag_36:\n        /* \"contracts/SQFITEM/AccessControl.sol\":3948:3955  bytes32 */\n      0x00\n        /* \"contracts/SQFITEM/AccessControl.sol\":3974:3980  _roles */\n      0x01\n        /* \"contracts/SQFITEM/AccessControl.sol\":3974:3986  _roles[role] */\n      0x00\n        /* \"contracts/SQFITEM/AccessControl.sol\":3981:3985  role */\n      dup4\n        /* \"contracts/SQFITEM/AccessControl.sol\":3974:3986  _roles[role] */\n      dup2\n      mstore\n      0x20\n      add\n      swap1\n      dup2\n      mstore\n      0x20\n      add\n      0x00\n      keccak256\n        /* \"contracts/SQFITEM/AccessControl.sol\":3974:3996  _roles[role].adminRole */\n      0x01\n      add\n      sload\n        /* \"contracts/SQFITEM/AccessControl.sol\":3967:3996  return _roles[role].adminRole */\n      swap1\n      pop\n        /* \"contracts/SQFITEM/AccessControl.sol\":3882:4003  function getRoleAdmin(bytes32 role) public view override returns (bytes32) {... */\n      swap2\n      swap1\n      pop\n      jump\t// out\n        /* \"contracts/SQFITEM/AccessControl.sol\":4253:4398  function grantRole(bytes32 role, address account) public virtual override onlyRole(getRoleAdmin(role)) {... */\n    tag_42:\n        /* \"contracts/SQFITEM/AccessControl.sol\":4336:4354  getRoleAdmin(role) */\n      tag_102\n        /* \"contracts/SQFITEM/AccessControl.sol\":4349:4353  role */\n      dup3\n        /* \"contracts/SQFITEM/AccessControl.sol\":4336:4348  getRoleAdmin */\n      tag_36\n        /* \"contracts/SQFITEM/AccessControl.sol\":4336:4354  getRoleAdmin(role) */\n      jump\t// in\n    tag_102:\n        /* \"contracts/SQFITEM/AccessControl.sol\":2395:2425  _checkRole(role, _msgSender()) */\n      tag_104\n        /* \"contracts/SQFITEM/AccessControl.sol\":2406:2410  role */\n      dup2\n        /* \"contracts/SQFITEM/AccessControl.sol\":2412:2424  _msgSender() */\n      tag_105\n        /* \"contracts/SQFITEM/AccessControl.sol\":2412:2422  _msgSender */\n      tag_106\n        /* \"contracts/SQFITEM/AccessControl.sol\":2412:2424  _msgSender() */\n      jump\t// in\n    tag_105:\n        /* \"contracts/SQFITEM/AccessControl.sol\":2395:2405  _checkRole */\n      tag_107\n        /* \"contracts/SQFITEM/AccessControl.sol\":2395:2425  _checkRole(role, _msgSender()) */\n      jump\t// in\n    tag_104:\n        /* \"contracts/SQFITEM/AccessControl.sol\":4366:4391  _grantRole(role, account) */\n      tag_109\n        /* \"contracts/SQFITEM/AccessControl.sol\":4377:4381  role */\n      dup4\n        /* \"contracts/SQFITEM/AccessControl.sol\":4383:4390  account */\n      dup4\n        /* \"contracts/SQFITEM/AccessControl.sol\":4366:4376  _grantRole */\n      tag_110\n        /* \"contracts/SQFITEM/AccessControl.sol\":4366:4391  _grantRole(role, account) */\n      jump\t// in\n    tag_109:\n        /* \"contracts/SQFITEM/AccessControl.sol\":4253:4398  function grantRole(bytes32 role, address account) public virtual override onlyRole(getRoleAdmin(role)) {... */\n      pop\n      pop\n      pop\n      jump\t// out\n        /* \"contracts/SQFITEM/AccessControl.sol\":5270:5484  function renounceRole(bytes32 role, address account) public virtual override {... */\n    tag_45:\n        /* \"contracts/SQFITEM/AccessControl.sol\":5376:5388  _msgSender() */\n      tag_112\n        /* \"contracts/SQFITEM/AccessControl.sol\":5376:5386  _msgSender */\n      tag_106\n        /* \"contracts/SQFITEM/AccessControl.sol\":5376:5388  _msgSender() */\n      jump\t// in\n    tag_112:\n        /* \"contracts/SQFITEM/AccessControl.sol\":5365:5388  account == _msgSender() */\n      0xffffffffffffffffffffffffffffffffffffffff\n      and\n        /* \"contracts/SQFITEM/AccessControl.sol\":5365:5372  account */\n      dup2\n        /* \"contracts/SQFITEM/AccessControl.sol\":5365:5388  account == _msgSender() */\n      0xffffffffffffffffffffffffffffffffffffffff\n      and\n      eq\n        /* \"contracts/SQFITEM/AccessControl.sol\":5357:5440  require(account == _msgSender(), \"AccessControl: can only renounce roles for self\") */\n      tag_113\n      jumpi\n      mload(0x40)\n      0x08c379a000000000000000000000000000000000000000000000000000000000\n      dup2\n      mstore\n      0x04\n      add\n      tag_114\n      swap1\n      tag_115\n      jump\t// in\n    tag_114:\n      mload(0x40)\n      dup1\n      swap2\n      sub\n      swap1\n      revert\n    tag_113:\n        /* \"contracts/SQFITEM/AccessControl.sol\":5451:5477  _revokeRole(role, account) */\n      tag_116\n        /* \"contracts/SQFITEM/AccessControl.sol\":5463:5467  role */\n      dup3\n        /* \"contracts/SQFITEM/AccessControl.sol\":5469:5476  account */\n      dup3\n        /* \"contracts/SQFITEM/AccessControl.sol\":5451:5462  _revokeRole */\n      tag_117\n        /* \"contracts/SQFITEM/AccessControl.sol\":5451:5477  _revokeRole(role, account) */\n      jump\t// in\n    tag_116:\n        /* \"contracts/SQFITEM/AccessControl.sol\":5270:5484  function renounceRole(bytes32 role, address account) public virtual override {... */\n      pop\n      pop\n      jump\t// out\n        /* \"contracts/SQFITEM/SQFI_Factory.sol\":413:433  ISQFItem public SQFi */\n    tag_47:\n      0x02\n      0x00\n      swap1\n      sload\n      swap1\n      0x0100\n      exp\n      swap1\n      div\n      0xffffffffffffffffffffffffffffffffffffffff\n      and\n      dup2\n      jump\t// out\n        /* \"contracts/SQFITEM/Pausable.sol\":1034:1118  function paused() public view virtual returns (bool) {... */\n    tag_51:\n        /* \"contracts/SQFITEM/Pausable.sol\":1081:1085  bool */\n      0x00\n        /* \"contracts/SQFITEM/Pausable.sol\":1104:1111  _paused */\n      dup1\n      0x00\n      swap1\n      sload\n      swap1\n      0x0100\n      exp\n      swap1\n      div\n      0xff\n      and\n        /* \"contracts/SQFITEM/Pausable.sol\":1097:1111  return _paused */\n      swap1\n      pop\n        /* \"contracts/SQFITEM/Pausable.sol\":1034:1118  function paused() public view virtual returns (bool) {... */\n      swap1\n      jump\t// out\n        /* \"contracts/SQFITEM/SQFI_Factory.sol\":1539:2020  function createSQFI(... */\n    tag_56:\n        /* \"contracts/SQFITEM/SQFI_Factory.sol\":1628:1635  uint256 */\n      0x00\n        /* \"contracts/SQFITEM/Pausable.sol\":1348:1356  paused() */\n      tag_120\n        /* \"contracts/SQFITEM/Pausable.sol\":1348:1354  paused */\n      tag_51\n        /* \"contracts/SQFITEM/Pausable.sol\":1348:1356  paused() */\n      jump\t// in\n    tag_120:\n        /* \"contracts/SQFITEM/Pausable.sol\":1347:1356  !paused() */\n      iszero\n        /* \"contracts/SQFITEM/Pausable.sol\":1339:1377  require(!paused(), \"Pausable: paused\") */\n      tag_121\n      jumpi\n      mload(0x40)\n      0x08c379a000000000000000000000000000000000000000000000000000000000\n      dup2\n      mstore\n      0x04\n      add\n      tag_122\n      swap1\n      tag_123\n      jump\t// in\n    tag_122:\n      mload(0x40)\n      dup1\n      swap2\n      sub\n      swap1\n      revert\n    tag_121:\n        /* \"contracts/SQFITEM/SQFI_Factory.sol\":1661:1662  0 */\n      0x00\n        /* \"contracts/SQFITEM/SQFI_Factory.sol\":1651:1658  amount1 */\n      sload(0x04)\n        /* \"contracts/SQFITEM/SQFI_Factory.sol\":1651:1662  amount1 > 0 */\n      gt\n        /* \"contracts/SQFITEM/SQFI_Factory.sol\":1651:1686  amount1 > 0 && fee1 != address(0x0) */\n      dup1\n      iszero\n      tag_125\n      jumpi\n      pop\n        /* \"contracts/SQFITEM/SQFI_Factory.sol\":1682:1685  0x0 */\n      0x00\n        /* \"contracts/SQFITEM/SQFI_Factory.sol\":1666:1686  fee1 != address(0x0) */\n      0xffffffffffffffffffffffffffffffffffffffff\n      and\n        /* \"contracts/SQFITEM/SQFI_Factory.sol\":1666:1670  fee1 */\n      0x03\n      0x00\n      swap1\n      sload\n      swap1\n      0x0100\n      exp\n      swap1\n      div\n      0xffffffffffffffffffffffffffffffffffffffff\n      and\n        /* \"contracts/SQFITEM/SQFI_Factory.sol\":1666:1686  fee1 != address(0x0) */\n      0xffffffffffffffffffffffffffffffffffffffff\n      and\n      eq\n      iszero\n        /* \"contracts/SQFITEM/SQFI_Factory.sol\":1651:1686  amount1 > 0 && fee1 != address(0x0) */\n    tag_125:\n        /* \"contracts/SQFITEM/SQFI_Factory.sol\":1647:1774  if (amount1 > 0 && fee1 != address(0x0)) {... */\n      iszero\n      tag_126\n      jumpi\n        /* \"contracts/SQFITEM/SQFI_Factory.sol\":1709:1713  fee1 */\n      0x03\n      0x00\n      swap1\n      sload\n      swap1\n      0x0100\n      exp\n      swap1\n      div\n      0xffffffffffffffffffffffffffffffffffffffff\n      and\n        /* \"contracts/SQFITEM/SQFI_Factory.sol\":1702:1727  IERC20(fee1).transferFrom */\n      0xffffffffffffffffffffffffffffffffffffffff\n      and\n      0x23b872dd\n        /* \"contracts/SQFITEM/SQFI_Factory.sol\":1728:1738  msg.sender */\n      caller\n        /* \"contracts/SQFITEM/SQFI_Factory.sol\":1748:1752  this */\n      address\n        /* \"contracts/SQFITEM/SQFI_Factory.sol\":1755:1762  amount1 */\n      sload(0x04)\n        /* \"contracts/SQFITEM/SQFI_Factory.sol\":1702:1763  IERC20(fee1).transferFrom(msg.sender, address(this), amount1) */\n      mload(0x40)\n      dup5\n      0xffffffff\n      and\n      0xe0\n      shl\n      dup2\n      mstore\n      0x04\n      add\n      tag_127\n      swap4\n      swap3\n      swap2\n      swap1\n      tag_128\n      jump\t// in\n    tag_127:\n      0x20\n      mload(0x40)\n      dup1\n      dup4\n      sub\n      dup2\n      0x00\n      dup8\n      gas\n      call\n      iszero\n      dup1\n      iszero\n      tag_130\n      jumpi\n      returndatasize\n      0x00\n      dup1\n      returndatacopy\n      revert(0x00, returndatasize)\n    tag_130:\n      pop\n      pop\n      pop\n      pop\n      mload(0x40)\n      returndatasize\n      not(0x1f)\n      0x1f\n      dup3\n      add\n      and\n      dup3\n      add\n      dup1\n      0x40\n      mstore\n      pop\n      dup2\n      add\n      swap1\n      tag_131\n      swap2\n      swap1\n      tag_132\n      jump\t// in\n    tag_131:\n      pop\n        /* \"contracts/SQFITEM/SQFI_Factory.sol\":1647:1774  if (amount1 > 0 && fee1 != address(0x0)) {... */\n    tag_126:\n        /* \"contracts/SQFITEM/SQFI_Factory.sol\":1783:1798  uint256 tokenId */\n      0x00\n        /* \"contracts/SQFITEM/SQFI_Factory.sol\":1801:1805  SQFi */\n      0x02\n      0x00\n      swap1\n      sload\n      swap1\n      0x0100\n      exp\n      swap1\n      div\n      0xffffffffffffffffffffffffffffffffffffffff\n      and\n        /* \"contracts/SQFITEM/SQFI_Factory.sol\":1801:1814  SQFi.safeMint */\n      0xffffffffffffffffffffffffffffffffffffffff\n      and\n      0xd204c45e\n        /* \"contracts/SQFITEM/SQFI_Factory.sol\":1828:1838  msg.sender */\n      caller\n        /* \"contracts/SQFITEM/SQFI_Factory.sol\":1852:1861  tokenURI_ */\n      dup6\n        /* \"contracts/SQFITEM/SQFI_Factory.sol\":1801:1871  SQFi.safeMint(... */\n      mload(0x40)\n      dup4\n      0xffffffff\n      and\n      0xe0\n      shl\n      dup2\n      mstore\n      0x04\n      add\n      tag_133\n      swap3\n      swap2\n      swap1\n      tag_134\n      jump\t// in\n    tag_133:\n      0x20\n      mload(0x40)\n      dup1\n      dup4\n      sub\n      dup2\n      0x00\n      dup8\n      gas\n      call\n      iszero\n      dup1\n      iszero\n      tag_136\n      jumpi\n      returndatasize\n      0x00\n      dup1\n      returndatacopy\n      revert(0x00, returndatasize)\n    tag_136:\n      pop\n      pop\n      pop\n      pop\n      mload(0x40)\n      returndatasize\n      not(0x1f)\n      0x1f\n      dup3\n      add\n      and\n      dup3\n      add\n      dup1\n      0x40\n      mstore\n      pop\n      dup2\n      add\n      swap1\n      tag_137\n      swap2\n      swap1\n      tag_138\n      jump\t// in\n    tag_137:\n        /* \"contracts/SQFITEM/SQFI_Factory.sol\":1783:1871  uint256 tokenId = SQFi.safeMint(... */\n      swap1\n      pop\n        /* \"contracts/SQFITEM/SQFI_Factory.sol\":1886:1989  CraftSQFI(... */\n      0x9e6e3acb506bf1d2adb1d8565252e575763ee07d1debfcc2c830682895b3137d\n        /* \"contracts/SQFITEM/SQFI_Factory.sol\":1909:1919  msg.sender */\n      caller\n        /* \"contracts/SQFITEM/SQFI_Factory.sol\":1933:1940  tokenId */\n      dup3\n        /* \"contracts/SQFITEM/SQFI_Factory.sol\":1954:1958  fee1 */\n      0x03\n      0x00\n      swap1\n      sload\n      swap1\n      0x0100\n      exp\n      swap1\n      div\n      0xffffffffffffffffffffffffffffffffffffffff\n      and\n        /* \"contracts/SQFITEM/SQFI_Factory.sol\":1972:1979  amount1 */\n      sload(0x04)\n        /* \"contracts/SQFITEM/SQFI_Factory.sol\":1886:1989  CraftSQFI(... */\n      mload(0x40)\n      tag_139\n      swap5\n      swap4\n      swap3\n      swap2\n      swap1\n      tag_140\n      jump\t// in\n    tag_139:\n      mload(0x40)\n      dup1\n      swap2\n      sub\n      swap1\n      log1\n        /* \"contracts/SQFITEM/SQFI_Factory.sol\":2006:2013  tokenId */\n      dup1\n        /* \"contracts/SQFITEM/SQFI_Factory.sol\":1999:2013  return tokenId */\n      swap2\n      pop\n      pop\n        /* \"contracts/SQFITEM/SQFI_Factory.sol\":1539:2020  function createSQFI(... */\n      swap2\n      swap1\n      pop\n      jump\t// out\n        /* \"contracts/SQFITEM/AccessControl.sol\":2799:2936  function hasRole(bytes32 role, address account) public view override returns (bool) {... */\n    tag_61:\n        /* \"contracts/SQFITEM/AccessControl.sol\":2877:2881  bool */\n      0x00\n        /* \"contracts/SQFITEM/AccessControl.sol\":2900:2906  _roles */\n      0x01\n        /* \"contracts/SQFITEM/AccessControl.sol\":2900:2912  _roles[role] */\n      0x00\n        /* \"contracts/SQFITEM/AccessControl.sol\":2907:2911  role */\n      dup5\n        /* \"contracts/SQFITEM/AccessControl.sol\":2900:2912  _roles[role] */\n      dup2\n      mstore\n      0x20\n      add\n      swap1\n      dup2\n      mstore\n      0x20\n      add\n      0x00\n      keccak256\n        /* \"contracts/SQFITEM/AccessControl.sol\":2900:2920  _roles[role].members */\n      0x00\n      add\n        /* \"contracts/SQFITEM/AccessControl.sol\":2900:2929  _roles[role].members[account] */\n      0x00\n        /* \"contracts/SQFITEM/AccessControl.sol\":2921:2928  account */\n      dup4\n        /* \"contracts/SQFITEM/AccessControl.sol\":2900:2929  _roles[role].members[account] */\n      0xffffffffffffffffffffffffffffffffffffffff\n      and\n      0xffffffffffffffffffffffffffffffffffffffff\n      and\n      dup2\n      mstore\n      0x20\n      add\n      swap1\n      dup2\n      mstore\n      0x20\n      add\n      0x00\n      keccak256\n      0x00\n      swap1\n      sload\n      swap1\n      0x0100\n      exp\n      swap1\n      div\n      0xff\n      and\n        /* \"contracts/SQFITEM/AccessControl.sol\":2893:2929  return _roles[role].members[account] */\n      swap1\n      pop\n        /* \"contracts/SQFITEM/AccessControl.sol\":2799:2936  function hasRole(bytes32 role, address account) public view override returns (bool) {... */\n      swap3\n      swap2\n      pop\n      pop\n      jump\t// out\n        /* \"contracts/SQFITEM/SQFI_Factory.sol\":1359:1533  function editSupportedFee(... */\n    tag_66:\n        /* \"contracts/SQFITEM/AccessControl.sol\":1962:1966  0x00 */\n      0x00\n        /* \"contracts/SQFITEM/SQFI_Factory.sol\":1456:1474  DEFAULT_ADMIN_ROLE */\n      dup1\n      shl\n        /* \"contracts/SQFITEM/AccessControl.sol\":2395:2425  _checkRole(role, _msgSender()) */\n      tag_143\n        /* \"contracts/SQFITEM/AccessControl.sol\":2406:2410  role */\n      dup2\n        /* \"contracts/SQFITEM/AccessControl.sol\":2412:2424  _msgSender() */\n      tag_144\n        /* \"contracts/SQFITEM/AccessControl.sol\":2412:2422  _msgSender */\n      tag_106\n        /* \"contracts/SQFITEM/AccessControl.sol\":2412:2424  _msgSender() */\n      jump\t// in\n    tag_144:\n        /* \"contracts/SQFITEM/AccessControl.sol\":2395:2405  _checkRole */\n      tag_107\n        /* \"contracts/SQFITEM/AccessControl.sol\":2395:2425  _checkRole(role, _msgSender()) */\n      jump\t// in\n    tag_143:\n        /* \"contracts/SQFITEM/SQFI_Factory.sol\":1493:1498  _fee1 */\n      dup3\n        /* \"contracts/SQFITEM/SQFI_Factory.sol\":1486:1490  fee1 */\n      0x03\n      0x00\n        /* \"contracts/SQFITEM/SQFI_Factory.sol\":1486:1498  fee1 = _fee1 */\n      0x0100\n      exp\n      dup2\n      sload\n      dup2\n      0xffffffffffffffffffffffffffffffffffffffff\n      mul\n      not\n      and\n      swap1\n      dup4\n      0xffffffffffffffffffffffffffffffffffffffff\n      and\n      mul\n      or\n      swap1\n      sstore\n      pop\n        /* \"contracts/SQFITEM/SQFI_Factory.sol\":1518:1526  _amount1 */\n      dup2\n        /* \"contracts/SQFITEM/SQFI_Factory.sol\":1508:1515  amount1 */\n      0x04\n        /* \"contracts/SQFITEM/SQFI_Factory.sol\":1508:1526  amount1 = _amount1 */\n      dup2\n      swap1\n      sstore\n      pop\n        /* \"contracts/SQFITEM/SQFI_Factory.sol\":1359:1533  function editSupportedFee(... */\n      pop\n      pop\n      pop\n      jump\t// out\n        /* \"contracts/SQFITEM/AccessControl.sol\":1917:1966  bytes32 public constant DEFAULT_ADMIN_ROLE = 0x00 */\n    tag_68:\n        /* \"contracts/SQFITEM/AccessControl.sol\":1962:1966  0x00 */\n      0x00\n        /* \"contracts/SQFITEM/AccessControl.sol\":1917:1966  bytes32 public constant DEFAULT_ADMIN_ROLE = 0x00 */\n      dup1\n      shl\n      dup2\n      jump\t// out\n        /* \"contracts/SQFITEM/SQFI_Factory.sol\":507:526  address public fee1 */\n    tag_71:\n      0x03\n      0x00\n      swap1\n      sload\n      swap1\n      0x0100\n      exp\n      swap1\n      div\n      0xffffffffffffffffffffffffffffffffffffffff\n      and\n      dup2\n      jump\t// out\n        /* \"contracts/SQFITEM/AccessControl.sol\":4632:4779  function revokeRole(bytes32 role, address account) public virtual override onlyRole(getRoleAdmin(role)) {... */\n    tag_76:\n        /* \"contracts/SQFITEM/AccessControl.sol\":4716:4734  getRoleAdmin(role) */\n      tag_146\n        /* \"contracts/SQFITEM/AccessControl.sol\":4729:4733  role */\n      dup3\n        /* \"contracts/SQFITEM/AccessControl.sol\":4716:4728  getRoleAdmin */\n      tag_36\n        /* \"contracts/SQFITEM/AccessControl.sol\":4716:4734  getRoleAdmin(role) */\n      jump\t// in\n    tag_146:\n        /* \"contracts/SQFITEM/AccessControl.sol\":2395:2425  _checkRole(role, _msgSender()) */\n      tag_148\n        /* \"contracts/SQFITEM/AccessControl.sol\":2406:2410  role */\n      dup2\n        /* \"contracts/SQFITEM/AccessControl.sol\":2412:2424  _msgSender() */\n      tag_149\n        /* \"contracts/SQFITEM/AccessControl.sol\":2412:2422  _msgSender */\n      tag_106\n        /* \"contracts/SQFITEM/AccessControl.sol\":2412:2424  _msgSender() */\n      jump\t// in\n    tag_149:\n        /* \"contracts/SQFITEM/AccessControl.sol\":2395:2405  _checkRole */\n      tag_107\n        /* \"contracts/SQFITEM/AccessControl.sol\":2395:2425  _checkRole(role, _msgSender()) */\n      jump\t// in\n    tag_148:\n        /* \"contracts/SQFITEM/AccessControl.sol\":4746:4772  _revokeRole(role, account) */\n      tag_151\n        /* \"contracts/SQFITEM/AccessControl.sol\":4758:4762  role */\n      dup4\n        /* \"contracts/SQFITEM/AccessControl.sol\":4764:4771  account */\n      dup4\n        /* \"contracts/SQFITEM/AccessControl.sol\":4746:4757  _revokeRole */\n      tag_117\n        /* \"contracts/SQFITEM/AccessControl.sol\":4746:4772  _revokeRole(role, account) */\n      jump\t// in\n    tag_151:\n        /* \"contracts/SQFITEM/AccessControl.sol\":4632:4779  function revokeRole(bytes32 role, address account) public virtual override onlyRole(getRoleAdmin(role)) {... */\n      pop\n      pop\n      pop\n      jump\t// out\n        /* \"contracts/SQFITEM/SQFI_Factory.sol\":1043:1354  function bytes32ToAmount16(bytes32 data)... */\n    tag_79:\n        /* \"contracts/SQFITEM/SQFI_Factory.sol\":1129:1154  uint256[16] memory amount */\n      tag_152\n      tag_153\n      jump\t// in\n    tag_152:\n        /* \"contracts/SQFITEM/SQFI_Factory.sol\":1175:1182  uint8 i */\n      0x00\n        /* \"contracts/SQFITEM/SQFI_Factory.sol\":1170:1348  for (uint8 i = 0; i < 32; i++) {... */\n    tag_155:\n        /* \"contracts/SQFITEM/SQFI_Factory.sol\":1192:1194  32 */\n      0x20\n        /* \"contracts/SQFITEM/SQFI_Factory.sol\":1188:1189  i */\n      dup2\n        /* \"contracts/SQFITEM/SQFI_Factory.sol\":1188:1194  i < 32 */\n      0xff\n      and\n      lt\n        /* \"contracts/SQFITEM/SQFI_Factory.sol\":1170:1348  for (uint8 i = 0; i < 32; i++) {... */\n      iszero\n      tag_156\n      jumpi\n        /* \"contracts/SQFITEM/SQFI_Factory.sol\":1327:1328  0 */\n      0x00\n        /* \"contracts/SQFITEM/SQFI_Factory.sol\":1322:1323  2 */\n      0x02\n        /* \"contracts/SQFITEM/SQFI_Factory.sol\":1318:1319  i */\n      dup3\n        /* \"contracts/SQFITEM/SQFI_Factory.sol\":1318:1323  i % 2 */\n      tag_158\n      swap2\n      swap1\n      tag_159\n      jump\t// in\n    tag_158:\n        /* \"contracts/SQFITEM/SQFI_Factory.sol\":1318:1328  i % 2 == 0 */\n      0xff\n      and\n      eq\n        /* \"contracts/SQFITEM/SQFI_Factory.sol\":1318:1336  i % 2 == 0 ? 1 : 0 */\n      tag_160\n      jumpi\n        /* \"contracts/SQFITEM/SQFI_Factory.sol\":1335:1336  0 */\n      0x00\n        /* \"contracts/SQFITEM/SQFI_Factory.sol\":1318:1336  i % 2 == 0 ? 1 : 0 */\n      jump(tag_161)\n    tag_160:\n        /* \"contracts/SQFITEM/SQFI_Factory.sol\":1331:1332  1 */\n      0x01\n        /* \"contracts/SQFITEM/SQFI_Factory.sol\":1318:1336  i % 2 == 0 ? 1 : 0 */\n    tag_161:\n        /* \"contracts/SQFITEM/SQFI_Factory.sol\":1312:1315  256 */\n      0x0100\n        /* \"contracts/SQFITEM/SQFI_Factory.sol\":1312:1337  256**(i % 2 == 0 ? 1 : 0) */\n      tag_162\n      swap2\n      swap1\n      tag_163\n      jump\t// in\n    tag_162:\n        /* \"contracts/SQFITEM/SQFI_Factory.sol\":1285:1289  data */\n      dup4\n        /* \"contracts/SQFITEM/SQFI_Factory.sol\":1290:1291  i */\n      dup3\n        /* \"contracts/SQFITEM/SQFI_Factory.sol\":1285:1292  data[i] */\n      0xff\n      and\n      0x20\n      dup2\n      lt\n      tag_164\n      jumpi\n      tag_165\n      tag_166\n      jump\t// in\n    tag_165:\n    tag_164:\n      byte\n      0xf8\n      shl\n        /* \"contracts/SQFITEM/SQFI_Factory.sol\":1279:1293  uint8(data[i]) */\n      0xf8\n      shr\n        /* \"contracts/SQFITEM/SQFI_Factory.sol\":1279:1337  uint8(data[i]) *... */\n      0xff\n      and\n      tag_167\n      swap2\n      swap1\n      tag_168\n      jump\t// in\n    tag_167:\n        /* \"contracts/SQFITEM/SQFI_Factory.sol\":1247:1253  amount */\n      dup3\n        /* \"contracts/SQFITEM/SQFI_Factory.sol\":1258:1259  2 */\n      0x02\n        /* \"contracts/SQFITEM/SQFI_Factory.sol\":1254:1255  i */\n      dup4\n        /* \"contracts/SQFITEM/SQFI_Factory.sol\":1254:1259  i / 2 */\n      tag_169\n      swap2\n      swap1\n      tag_170\n      jump\t// in\n    tag_169:\n        /* \"contracts/SQFITEM/SQFI_Factory.sol\":1247:1260  amount[i / 2] */\n      0xff\n      and\n      0x10\n      dup2\n      lt\n      tag_171\n      jumpi\n      tag_172\n      tag_166\n      jump\t// in\n    tag_172:\n    tag_171:\n      0x20\n      mul\n      add\n      mload\n        /* \"contracts/SQFITEM/SQFI_Factory.sol\":1247:1337  amount[i / 2] +... */\n      tag_173\n      swap2\n      swap1\n      tag_174\n      jump\t// in\n    tag_173:\n        /* \"contracts/SQFITEM/SQFI_Factory.sol\":1215:1221  amount */\n      dup3\n        /* \"contracts/SQFITEM/SQFI_Factory.sol\":1226:1227  2 */\n      0x02\n        /* \"contracts/SQFITEM/SQFI_Factory.sol\":1222:1223  i */\n      dup4\n        /* \"contracts/SQFITEM/SQFI_Factory.sol\":1222:1227  i / 2 */\n      tag_175\n      swap2\n      swap1\n      tag_170\n      jump\t// in\n    tag_175:\n        /* \"contracts/SQFITEM/SQFI_Factory.sol\":1215:1228  amount[i / 2] */\n      0xff\n      and\n      0x10\n      dup2\n      lt\n      tag_176\n      jumpi\n      tag_177\n      tag_166\n      jump\t// in\n    tag_177:\n    tag_176:\n      0x20\n      mul\n      add\n        /* \"contracts/SQFITEM/SQFI_Factory.sol\":1215:1337  amount[i / 2] =... */\n      dup2\n      dup2\n      mstore\n      pop\n      pop\n        /* \"contracts/SQFITEM/SQFI_Factory.sol\":1196:1199  i++ */\n      dup1\n      dup1\n      tag_178\n      swap1\n      tag_179\n      jump\t// in\n    tag_178:\n      swap2\n      pop\n      pop\n        /* \"contracts/SQFITEM/SQFI_Factory.sol\":1170:1348  for (uint8 i = 0; i < 32; i++) {... */\n      jump(tag_155)\n    tag_156:\n      pop\n        /* \"contracts/SQFITEM/SQFI_Factory.sol\":1043:1354  function bytes32ToAmount16(bytes32 data)... */\n      swap2\n      swap1\n      pop\n      jump\t// out\n        /* \"contracts/SQFITEM/SQFI_Factory.sol\":439:501  bytes32 public constant PAUSER_ROLE = keccak256(\"PAUSER_ROLE\") */\n    tag_83:\n        /* \"contracts/SQFITEM/SQFI_Factory.sol\":477:501  keccak256(\"PAUSER_ROLE\") */\n      0x65d7a28e3265b37a6474929f336521b332c1681b933f6cb9f3376673440d862a\n        /* \"contracts/SQFITEM/SQFI_Factory.sol\":439:501  bytes32 public constant PAUSER_ROLE = keccak256(\"PAUSER_ROLE\") */\n      dup2\n      jump\t// out\n        /* \"contracts/SQFITEM/SQFI_Factory.sol\":2232:2514  function withdraw(address token, uint256 amount)... */\n    tag_87:\n        /* \"contracts/SQFITEM/AccessControl.sol\":1962:1966  0x00 */\n      0x00\n        /* \"contracts/SQFITEM/SQFI_Factory.sol\":2313:2331  DEFAULT_ADMIN_ROLE */\n      dup1\n      shl\n        /* \"contracts/SQFITEM/AccessControl.sol\":2395:2425  _checkRole(role, _msgSender()) */\n      tag_181\n        /* \"contracts/SQFITEM/AccessControl.sol\":2406:2410  role */\n      dup2\n        /* \"contracts/SQFITEM/AccessControl.sol\":2412:2424  _msgSender() */\n      tag_182\n        /* \"contracts/SQFITEM/AccessControl.sol\":2412:2422  _msgSender */\n      tag_106\n        /* \"contracts/SQFITEM/AccessControl.sol\":2412:2424  _msgSender() */\n      jump\t// in\n    tag_182:\n        /* \"contracts/SQFITEM/AccessControl.sol\":2395:2405  _checkRole */\n      tag_107\n        /* \"contracts/SQFITEM/AccessControl.sol\":2395:2425  _checkRole(role, _msgSender()) */\n      jump\t// in\n    tag_181:\n        /* \"contracts/SQFITEM/SQFI_Factory.sol\":2368:2371  0x0 */\n      0x00\n        /* \"contracts/SQFITEM/SQFI_Factory.sol\":2351:2372  token == address(0x0) */\n      0xffffffffffffffffffffffffffffffffffffffff\n      and\n        /* \"contracts/SQFITEM/SQFI_Factory.sol\":2351:2356  token */\n      dup4\n        /* \"contracts/SQFITEM/SQFI_Factory.sol\":2351:2372  token == address(0x0) */\n      0xffffffffffffffffffffffffffffffffffffffff\n      and\n      sub\n        /* \"contracts/SQFITEM/SQFI_Factory.sol\":2347:2508  if (token == address(0x0)) {... */\n      tag_184\n      jumpi\n        /* \"contracts/SQFITEM/SQFI_Factory.sol\":2396:2406  msg.sender */\n      caller\n        /* \"contracts/SQFITEM/SQFI_Factory.sol\":2388:2416  payable(msg.sender).transfer */\n      0xffffffffffffffffffffffffffffffffffffffff\n      and\n        /* \"contracts/SQFITEM/SQFI_Factory.sol\":2388:2424  payable(msg.sender).transfer(amount) */\n      0x08fc\n        /* \"contracts/SQFITEM/SQFI_Factory.sol\":2417:2423  amount */\n      dup4\n        /* \"contracts/SQFITEM/SQFI_Factory.sol\":2388:2424  payable(msg.sender).transfer(amount) */\n      swap1\n      dup2\n      iszero\n      mul\n      swap1\n      mload(0x40)\n      0x00\n      mload(0x40)\n      dup1\n      dup4\n      sub\n      dup2\n      dup6\n      dup9\n      dup9\n      call\n      swap4\n      pop\n      pop\n      pop\n      pop\n      iszero\n      dup1\n      iszero\n      tag_186\n      jumpi\n      returndatasize\n      0x00\n      dup1\n      returndatacopy\n      revert(0x00, returndatasize)\n    tag_186:\n      pop\n        /* \"contracts/SQFITEM/SQFI_Factory.sol\":2347:2508  if (token == address(0x0)) {... */\n      jump(tag_187)\n    tag_184:\n        /* \"contracts/SQFITEM/SQFI_Factory.sol\":2462:2467  token */\n      dup3\n        /* \"contracts/SQFITEM/SQFI_Factory.sol\":2455:2477  IERC20(token).transfer */\n      0xffffffffffffffffffffffffffffffffffffffff\n      and\n      0xa9059cbb\n        /* \"contracts/SQFITEM/SQFI_Factory.sol\":2478:2488  msg.sender */\n      caller\n        /* \"contracts/SQFITEM/SQFI_Factory.sol\":2490:2496  amount */\n      dup5\n        /* \"contracts/SQFITEM/SQFI_Factory.sol\":2455:2497  IERC20(token).transfer(msg.sender, amount) */\n      mload(0x40)\n      dup4\n      0xffffffff\n      and\n      0xe0\n      shl\n      dup2\n      mstore\n      0x04\n      add\n      tag_188\n      swap3\n      swap2\n      swap1\n      tag_189\n      jump\t// in\n    tag_188:\n      0x20\n      mload(0x40)\n      dup1\n      dup4\n      sub\n      dup2\n      0x00\n      dup8\n      gas\n      call\n      iszero\n      dup1\n      iszero\n      tag_191\n      jumpi\n      returndatasize\n      0x00\n      dup1\n      returndatacopy\n      revert(0x00, returndatasize)\n    tag_191:\n      pop\n      pop\n      pop\n      pop\n      mload(0x40)\n      returndatasize\n      not(0x1f)\n      0x1f\n      dup3\n      add\n      and\n      dup3\n      add\n      dup1\n      0x40\n      mstore\n      pop\n      dup2\n      add\n      swap1\n      tag_192\n      swap2\n      swap1\n      tag_132\n      jump\t// in\n    tag_192:\n      pop\n        /* \"contracts/SQFITEM/SQFI_Factory.sol\":2347:2508  if (token == address(0x0)) {... */\n    tag_187:\n        /* \"contracts/SQFITEM/SQFI_Factory.sol\":2232:2514  function withdraw(address token, uint256 amount)... */\n      pop\n      pop\n      pop\n      jump\t// out\n        /* \"contracts/SQFITEM/SQFI_Factory.sol\":532:563  uint256 public amount1 = 100e18 */\n    tag_89:\n      sload(0x04)\n      dup2\n      jump\t// out\n        /* \"contracts/SQFITEM/ERC165.sol\":763:918  function supportsInterface(bytes4 interfaceId) public view virtual override returns (bool) {... */\n    tag_94:\n        /* \"contracts/SQFITEM/ERC165.sol\":848:852  bool */\n      0x00\n        /* \"contracts/SQFITEM/ERC165.sol\":886:911  type(IERC165).interfaceId */\n      0x01ffc9a700000000000000000000000000000000000000000000000000000000\n        /* \"contracts/SQFITEM/ERC165.sol\":871:911  interfaceId == type(IERC165).interfaceId */\n      not(0xffffffffffffffffffffffffffffffffffffffffffffffffffffffff)\n      and\n        /* \"contracts/SQFITEM/ERC165.sol\":871:882  interfaceId */\n      dup3\n        /* \"contracts/SQFITEM/ERC165.sol\":871:911  interfaceId == type(IERC165).interfaceId */\n      not(0xffffffffffffffffffffffffffffffffffffffffffffffffffffffff)\n      and\n      eq\n        /* \"contracts/SQFITEM/ERC165.sol\":864:911  return interfaceId == type(IERC165).interfaceId */\n      swap1\n      pop\n        /* \"contracts/SQFITEM/ERC165.sol\":763:918  function supportsInterface(bytes4 interfaceId) public view virtual override returns (bool) {... */\n      swap2\n      swap1\n      pop\n      jump\t// out\n        /* \"contracts/SQFITEM/Context.sol\":587:683  function _msgSender() internal view virtual returns (address) {... */\n    tag_106:\n        /* \"contracts/SQFITEM/Context.sol\":640:647  address */\n      0x00\n        /* \"contracts/SQFITEM/Context.sol\":666:676  msg.sender */\n      caller\n        /* \"contracts/SQFITEM/Context.sol\":659:676  return msg.sender */\n      swap1\n      pop\n        /* \"contracts/SQFITEM/Context.sol\":587:683  function _msgSender() internal view virtual returns (address) {... */\n      swap1\n      jump\t// out\n        /* \"contracts/SQFITEM/AccessControl.sol\":3217:3701  function _checkRole(bytes32 role, address account) internal view {... */\n    tag_107:\n        /* \"contracts/SQFITEM/AccessControl.sol\":3297:3319  hasRole(role, account) */\n      tag_196\n        /* \"contracts/SQFITEM/AccessControl.sol\":3305:3309  role */\n      dup3\n        /* \"contracts/SQFITEM/AccessControl.sol\":3311:3318  account */\n      dup3\n        /* \"contracts/SQFITEM/AccessControl.sol\":3297:3304  hasRole */\n      tag_61\n        /* \"contracts/SQFITEM/AccessControl.sol\":3297:3319  hasRole(role, account) */\n      jump\t// in\n    tag_196:\n        /* \"contracts/SQFITEM/AccessControl.sol\":3292:3695  if (!hasRole(role, account)) {... */\n      tag_197\n      jumpi\n        /* \"contracts/SQFITEM/AccessControl.sol\":3480:3521  Strings.toHexString(uint160(account), 20) */\n      tag_198\n        /* \"contracts/SQFITEM/AccessControl.sol\":3508:3515  account */\n      dup2\n        /* \"contracts/SQFITEM/AccessControl.sol\":3480:3521  Strings.toHexString(uint160(account), 20) */\n      0xffffffffffffffffffffffffffffffffffffffff\n      and\n        /* \"contracts/SQFITEM/AccessControl.sol\":3518:3520  20 */\n      0x14\n        /* \"contracts/SQFITEM/AccessControl.sol\":3480:3499  Strings.toHexString */\n      tag_199\n        /* \"contracts/SQFITEM/AccessControl.sol\":3480:3521  Strings.toHexString(uint160(account), 20) */\n      jump\t// in\n    tag_198:\n        /* \"contracts/SQFITEM/AccessControl.sol\":3592:3630  Strings.toHexString(uint256(role), 32) */\n      tag_200\n        /* \"contracts/SQFITEM/AccessControl.sol\":3620:3624  role */\n      dup4\n        /* \"contracts/SQFITEM/AccessControl.sol\":3612:3625  uint256(role) */\n      0x00\n      shr\n        /* \"contracts/SQFITEM/AccessControl.sol\":3627:3629  32 */\n      0x20\n        /* \"contracts/SQFITEM/AccessControl.sol\":3592:3611  Strings.toHexString */\n      tag_199\n        /* \"contracts/SQFITEM/AccessControl.sol\":3592:3630  Strings.toHexString(uint256(role), 32) */\n      jump\t// in\n    tag_200:\n        /* \"contracts/SQFITEM/AccessControl.sol\":3387:3652  abi.encodePacked(... */\n      add(0x20, mload(0x40))\n      tag_201\n      swap3\n      swap2\n      swap1\n      tag_202\n      jump\t// in\n    tag_201:\n      mload(0x40)\n      0x20\n      dup2\n      dup4\n      sub\n      sub\n      dup2\n      mstore\n      swap1\n      0x40\n      mstore\n        /* \"contracts/SQFITEM/AccessControl.sol\":3335:3684  revert(... */\n      mload(0x40)\n      0x08c379a000000000000000000000000000000000000000000000000000000000\n      dup2\n      mstore\n      0x04\n      add\n      tag_203\n      swap2\n      swap1\n      tag_204\n      jump\t// in\n    tag_203:\n      mload(0x40)\n      dup1\n      swap2\n      sub\n      swap1\n      revert\n        /* \"contracts/SQFITEM/AccessControl.sol\":3292:3695  if (!hasRole(role, account)) {... */\n    tag_197:\n        /* \"contracts/SQFITEM/AccessControl.sol\":3217:3701  function _checkRole(bytes32 role, address account) internal view {... */\n      pop\n      pop\n      jump\t// out\n        /* \"contracts/SQFITEM/AccessControl.sol\":6537:6761  function _grantRole(bytes32 role, address account) private {... */\n    tag_110:\n        /* \"contracts/SQFITEM/AccessControl.sol\":6611:6633  hasRole(role, account) */\n      tag_206\n        /* \"contracts/SQFITEM/AccessControl.sol\":6619:6623  role */\n      dup3\n        /* \"contracts/SQFITEM/AccessControl.sol\":6625:6632  account */\n      dup3\n        /* \"contracts/SQFITEM/AccessControl.sol\":6611:6618  hasRole */\n      tag_61\n        /* \"contracts/SQFITEM/AccessControl.sol\":6611:6633  hasRole(role, account) */\n      jump\t// in\n    tag_206:\n        /* \"contracts/SQFITEM/AccessControl.sol\":6606:6755  if (!hasRole(role, account)) {... */\n      tag_207\n      jumpi\n        /* \"contracts/SQFITEM/AccessControl.sol\":6681:6685  true */\n      0x01\n        /* \"contracts/SQFITEM/AccessControl.sol\":6649:6655  _roles */\n      dup1\n        /* \"contracts/SQFITEM/AccessControl.sol\":6649:6661  _roles[role] */\n      0x00\n        /* \"contracts/SQFITEM/AccessControl.sol\":6656:6660  role */\n      dup5\n        /* \"contracts/SQFITEM/AccessControl.sol\":6649:6661  _roles[role] */\n      dup2\n      mstore\n      0x20\n      add\n      swap1\n      dup2\n      mstore\n      0x20\n      add\n      0x00\n      keccak256\n        /* \"contracts/SQFITEM/AccessControl.sol\":6649:6669  _roles[role].members */\n      0x00\n      add\n        /* \"contracts/SQFITEM/AccessControl.sol\":6649:6678  _roles[role].members[account] */\n      0x00\n        /* \"contracts/SQFITEM/AccessControl.sol\":6670:6677  account */\n      dup4\n        /* \"contracts/SQFITEM/AccessControl.sol\":6649:6678  _roles[role].members[account] */\n      0xffffffffffffffffffffffffffffffffffffffff\n      and\n      0xffffffffffffffffffffffffffffffffffffffff\n      and\n      dup2\n      mstore\n      0x20\n      add\n      swap1\n      dup2\n      mstore\n      0x20\n      add\n      0x00\n      keccak256\n      0x00\n        /* \"contracts/SQFITEM/AccessControl.sol\":6649:6685  _roles[role].members[account] = true */\n      0x0100\n      exp\n      dup2\n      sload\n      dup2\n      0xff\n      mul\n      not\n      and\n      swap1\n      dup4\n      iszero\n      iszero\n      mul\n      or\n      swap1\n      sstore\n      pop\n        /* \"contracts/SQFITEM/AccessControl.sol\":6731:6743  _msgSender() */\n      tag_208\n        /* \"contracts/SQFITEM/AccessControl.sol\":6731:6741  _msgSender */\n      tag_106\n        /* \"contracts/SQFITEM/AccessControl.sol\":6731:6743  _msgSender() */\n      jump\t// in\n    tag_208:\n        /* \"contracts/SQFITEM/AccessControl.sol\":6704:6744  RoleGranted(role, account, _msgSender()) */\n      0xffffffffffffffffffffffffffffffffffffffff\n      and\n        /* \"contracts/SQFITEM/AccessControl.sol\":6722:6729  account */\n      dup2\n        /* \"contracts/SQFITEM/AccessControl.sol\":6704:6744  RoleGranted(role, account, _msgSender()) */\n      0xffffffffffffffffffffffffffffffffffffffff\n      and\n        /* \"contracts/SQFITEM/AccessControl.sol\":6716:6720  role */\n      dup4\n        /* \"contracts/SQFITEM/AccessControl.sol\":6704:6744  RoleGranted(role, account, _msgSender()) */\n      0x2f8788117e7eff1d82e926ec794901d17c78024a50270940304540a733656f0d\n      mload(0x40)\n      mload(0x40)\n      dup1\n      swap2\n      sub\n      swap1\n      log4\n        /* \"contracts/SQFITEM/AccessControl.sol\":6606:6755  if (!hasRole(role, account)) {... */\n    tag_207:\n        /* \"contracts/SQFITEM/AccessControl.sol\":6537:6761  function _grantRole(bytes32 role, address account) private {... */\n      pop\n      pop\n      jump\t// out\n        /* \"contracts/SQFITEM/AccessControl.sol\":6767:6992  function _revokeRole(bytes32 role, address account) private {... */\n    tag_117:\n        /* \"contracts/SQFITEM/AccessControl.sol\":6841:6863  hasRole(role, account) */\n      tag_210\n        /* \"contracts/SQFITEM/AccessControl.sol\":6849:6853  role */\n      dup3\n        /* \"contracts/SQFITEM/AccessControl.sol\":6855:6862  account */\n      dup3\n        /* \"contracts/SQFITEM/AccessControl.sol\":6841:6848  hasRole */\n      tag_61\n        /* \"contracts/SQFITEM/AccessControl.sol\":6841:6863  hasRole(role, account) */\n      jump\t// in\n    tag_210:\n        /* \"contracts/SQFITEM/AccessControl.sol\":6837:6986  if (hasRole(role, account)) {... */\n      iszero\n      tag_211\n      jumpi\n        /* \"contracts/SQFITEM/AccessControl.sol\":6911:6916  false */\n      0x00\n        /* \"contracts/SQFITEM/AccessControl.sol\":6879:6885  _roles */\n      0x01\n        /* \"contracts/SQFITEM/AccessControl.sol\":6879:6891  _roles[role] */\n      0x00\n        /* \"contracts/SQFITEM/AccessControl.sol\":6886:6890  role */\n      dup5\n        /* \"contracts/SQFITEM/AccessControl.sol\":6879:6891  _roles[role] */\n      dup2\n      mstore\n      0x20\n      add\n      swap1\n      dup2\n      mstore\n      0x20\n      add\n      0x00\n      keccak256\n        /* \"contracts/SQFITEM/AccessControl.sol\":6879:6899  _roles[role].members */\n      0x00\n      add\n        /* \"contracts/SQFITEM/AccessControl.sol\":6879:6908  _roles[role].members[account] */\n      0x00\n        /* \"contracts/SQFITEM/AccessControl.sol\":6900:6907  account */\n      dup4\n        /* \"contracts/SQFITEM/AccessControl.sol\":6879:6908  _roles[role].members[account] */\n      0xffffffffffffffffffffffffffffffffffffffff\n      and\n      0xffffffffffffffffffffffffffffffffffffffff\n      and\n      dup2\n      mstore\n      0x20\n      add\n      swap1\n      dup2\n      mstore\n      0x20\n      add\n      0x00\n      keccak256\n      0x00\n        /* \"contracts/SQFITEM/AccessControl.sol\":6879:6916  _roles[role].members[account] = false */\n      0x0100\n      exp\n      dup2\n      sload\n      dup2\n      0xff\n      mul\n      not\n      and\n      swap1\n      dup4\n      iszero\n      iszero\n      mul\n      or\n      swap1\n      sstore\n      pop\n        /* \"contracts/SQFITEM/AccessControl.sol\":6962:6974  _msgSender() */\n      tag_212\n        /* \"contracts/SQFITEM/AccessControl.sol\":6962:6972  _msgSender */\n      tag_106\n        /* \"contracts/SQFITEM/AccessControl.sol\":6962:6974  _msgSender() */\n      jump\t// in\n    tag_212:\n        /* \"contracts/SQFITEM/AccessControl.sol\":6935:6975  RoleRevoked(role, account, _msgSender()) */\n      0xffffffffffffffffffffffffffffffffffffffff\n      and\n        /* \"contracts/SQFITEM/AccessControl.sol\":6953:6960  account */\n      dup2\n        /* \"contracts/SQFITEM/AccessControl.sol\":6935:6975  RoleRevoked(role, account, _msgSender()) */\n      0xffffffffffffffffffffffffffffffffffffffff\n      and\n        /* \"contracts/SQFITEM/AccessControl.sol\":6947:6951  role */\n      dup4\n        /* \"contracts/SQFITEM/AccessControl.sol\":6935:6975  RoleRevoked(role, account, _msgSender()) */\n      0xf6391f5c32d9c69d2a47ea670b442974b53935d1edc7fd64eb21e047a839171b\n      mload(0x40)\n      mload(0x40)\n      dup1\n      swap2\n      sub\n      swap1\n      log4\n        /* \"contracts/SQFITEM/AccessControl.sol\":6837:6986  if (hasRole(role, account)) {... */\n    tag_211:\n        /* \"contracts/SQFITEM/AccessControl.sol\":6767:6992  function _revokeRole(bytes32 role, address account) private {... */\n      pop\n      pop\n      jump\t// out\n        /* \"contracts/SQFITEM/Strings.sol\":1535:1976  function toHexString(uint256 value, uint256 length) internal pure returns (string memory) {... */\n    tag_199:\n        /* \"contracts/SQFITEM/Strings.sol\":1610:1623  string memory */\n      0x60\n        /* \"contracts/SQFITEM/Strings.sol\":1635:1654  bytes memory buffer */\n      0x00\n        /* \"contracts/SQFITEM/Strings.sol\":1680:1681  2 */\n      0x02\n        /* \"contracts/SQFITEM/Strings.sol\":1671:1677  length */\n      dup4\n        /* \"contracts/SQFITEM/Strings.sol\":1667:1668  2 */\n      0x02\n        /* \"contracts/SQFITEM/Strings.sol\":1667:1677  2 * length */\n      tag_214\n      swap2\n      swap1\n      tag_168\n      jump\t// in\n    tag_214:\n        /* \"contracts/SQFITEM/Strings.sol\":1667:1681  2 * length + 2 */\n      tag_215\n      swap2\n      swap1\n      tag_174\n      jump\t// in\n    tag_215:\n        /* \"contracts/SQFITEM/Strings.sol\":1657:1682  new bytes(2 * length + 2) */\n      0xffffffffffffffff\n      dup2\n      gt\n      iszero\n      tag_216\n      jumpi\n      tag_217\n      tag_218\n      jump\t// in\n    tag_217:\n    tag_216:\n      mload(0x40)\n      swap1\n      dup1\n      dup3\n      mstore\n      dup1\n      0x1f\n      add\n      not(0x1f)\n      and\n      0x20\n      add\n      dup3\n      add\n      0x40\n      mstore\n      dup1\n      iszero\n      tag_219\n      jumpi\n      dup2\n      0x20\n      add\n      0x01\n      dup3\n      mul\n      dup1\n      calldatasize\n      dup4\n      calldatacopy\n      dup1\n      dup3\n      add\n      swap2\n      pop\n      pop\n      swap1\n      pop\n    tag_219:\n      pop\n        /* \"contracts/SQFITEM/Strings.sol\":1635:1682  bytes memory buffer = new bytes(2 * length + 2) */\n      swap1\n      pop\n        /* \"contracts/SQFITEM/Strings.sol\":1692:1707  buffer[0] = \"0\" */\n      0x3000000000000000000000000000000000000000000000000000000000000000\n        /* \"contracts/SQFITEM/Strings.sol\":1692:1698  buffer */\n      dup2\n        /* \"contracts/SQFITEM/Strings.sol\":1699:1700  0 */\n      0x00\n        /* \"contracts/SQFITEM/Strings.sol\":1692:1701  buffer[0] */\n      dup2\n      mload\n      dup2\n      lt\n      tag_220\n      jumpi\n      tag_221\n      tag_166\n      jump\t// in\n    tag_221:\n    tag_220:\n      0x20\n      add\n      add\n        /* \"contracts/SQFITEM/Strings.sol\":1692:1707  buffer[0] = \"0\" */\n      swap1\n      not(0xffffffffffffffffffffffffffffffffffffffffffffffffffffffffffffff)\n      and\n      swap1\n      dup2\n      0x00\n      byte\n      swap1\n      mstore8\n      pop\n        /* \"contracts/SQFITEM/Strings.sol\":1717:1732  buffer[1] = \"x\" */\n      0x7800000000000000000000000000000000000000000000000000000000000000\n        /* \"contracts/SQFITEM/Strings.sol\":1717:1723  buffer */\n      dup2\n        /* \"contracts/SQFITEM/Strings.sol\":1724:1725  1 */\n      0x01\n        /* \"contracts/SQFITEM/Strings.sol\":1717:1726  buffer[1] */\n      dup2\n      mload\n      dup2\n      lt\n      tag_222\n      jumpi\n      tag_223\n      tag_166\n      jump\t// in\n    tag_223:\n    tag_222:\n      0x20\n      add\n      add\n        /* \"contracts/SQFITEM/Strings.sol\":1717:1732  buffer[1] = \"x\" */\n      swap1\n      not(0xffffffffffffffffffffffffffffffffffffffffffffffffffffffffffffff)\n      and\n      swap1\n      dup2\n      0x00\n      byte\n      swap1\n      mstore8\n      pop\n        /* \"contracts/SQFITEM/Strings.sol\":1747:1756  uint256 i */\n      0x00\n        /* \"contracts/SQFITEM/Strings.sol\":1772:1773  1 */\n      0x01\n        /* \"contracts/SQFITEM/Strings.sol\":1763:1769  length */\n      dup5\n        /* \"contracts/SQFITEM/Strings.sol\":1759:1760  2 */\n      0x02\n        /* \"contracts/SQFITEM/Strings.sol\":1759:1769  2 * length */\n      tag_227\n      swap2\n      swap1\n      tag_168\n      jump\t// in\n    tag_227:\n        /* \"contracts/SQFITEM/Strings.sol\":1759:1773  2 * length + 1 */\n      tag_228\n      swap2\n      swap1\n      tag_174\n      jump\t// in\n    tag_228:\n        /* \"contracts/SQFITEM/Strings.sol\":1747:1773  uint256 i = 2 * length + 1 */\n      swap1\n      pop\n        /* \"contracts/SQFITEM/Strings.sol\":1742:1874  for (uint256 i = 2 * length + 1; i > 1; --i) {... */\n    tag_224:\n        /* \"contracts/SQFITEM/Strings.sol\":1779:1780  1 */\n      0x01\n        /* \"contracts/SQFITEM/Strings.sol\":1775:1776  i */\n      dup2\n        /* \"contracts/SQFITEM/Strings.sol\":1775:1780  i > 1 */\n      gt\n        /* \"contracts/SQFITEM/Strings.sol\":1742:1874  for (uint256 i = 2 * length + 1; i > 1; --i) {... */\n      iszero\n      tag_225\n      jumpi\n        /* \"contracts/SQFITEM/Strings.sol\":1813:1825  _HEX_SYMBOLS */\n      0x3031323334353637383961626364656600000000000000000000000000000000\n        /* \"contracts/SQFITEM/Strings.sol\":1834:1837  0xf */\n      0x0f\n        /* \"contracts/SQFITEM/Strings.sol\":1826:1831  value */\n      dup7\n        /* \"contracts/SQFITEM/Strings.sol\":1826:1837  value & 0xf */\n      and\n        /* \"contracts/SQFITEM/Strings.sol\":1813:1838  _HEX_SYMBOLS[value & 0xf] */\n      0x10\n      dup2\n      lt\n      tag_229\n      jumpi\n      tag_230\n      tag_166\n      jump\t// in\n    tag_230:\n    tag_229:\n      byte\n      0xf8\n      shl\n        /* \"contracts/SQFITEM/Strings.sol\":1801:1807  buffer */\n      dup3\n        /* \"contracts/SQFITEM/Strings.sol\":1808:1809  i */\n      dup3\n        /* \"contracts/SQFITEM/Strings.sol\":1801:1810  buffer[i] */\n      dup2\n      mload\n      dup2\n      lt\n      tag_231\n      jumpi\n      tag_232\n      tag_166\n      jump\t// in\n    tag_232:\n    tag_231:\n      0x20\n      add\n      add\n        /* \"contracts/SQFITEM/Strings.sol\":1801:1838  buffer[i] = _HEX_SYMBOLS[value & 0xf] */\n      swap1\n      not(0xffffffffffffffffffffffffffffffffffffffffffffffffffffffffffffff)\n      and\n      swap1\n      dup2\n      0x00\n      byte\n      swap1\n      mstore8\n      pop\n        /* \"contracts/SQFITEM/Strings.sol\":1862:1863  4 */\n      0x04\n        /* \"contracts/SQFITEM/Strings.sol\":1852:1863  value >>= 4 */\n      dup6\n      swap1\n      shr\n      swap5\n      pop\n        /* \"contracts/SQFITEM/Strings.sol\":1782:1785  --i */\n      dup1\n      tag_233\n      swap1\n      tag_234\n      jump\t// in\n    tag_233:\n      swap1\n      pop\n        /* \"contracts/SQFITEM/Strings.sol\":1742:1874  for (uint256 i = 2 * length + 1; i > 1; --i) {... */\n      jump(tag_224)\n    tag_225:\n      pop\n        /* \"contracts/SQFITEM/Strings.sol\":1900:1901  0 */\n      0x00\n        /* \"contracts/SQFITEM/Strings.sol\":1891:1896  value */\n      dup5\n        /* \"contracts/SQFITEM/Strings.sol\":1891:1901  value == 0 */\n      eq\n        /* \"contracts/SQFITEM/Strings.sol\":1883:1938  require(value == 0, \"Strings: hex length insufficient\") */\n      tag_235\n      jumpi\n      mload(0x40)\n      0x08c379a000000000000000000000000000000000000000000000000000000000\n      dup2\n      mstore\n      0x04\n      add\n      tag_236\n      swap1\n      tag_237\n      jump\t// in\n    tag_236:\n      mload(0x40)\n      dup1\n      swap2\n      sub\n      swap1\n      revert\n    tag_235:\n        /* \"contracts/SQFITEM/Strings.sol\":1962:1968  buffer */\n      dup1\n        /* \"contracts/SQFITEM/Strings.sol\":1948:1969  return string(buffer) */\n      swap2\n      pop\n      pop\n        /* \"contracts/SQFITEM/Strings.sol\":1535:1976  function toHexString(uint256 value, uint256 length) internal pure returns (string memory) {... */\n      swap3\n      swap2\n      pop\n      pop\n      jump\t// out\n    tag_153:\n      mload(0x40)\n      dup1\n      0x0200\n      add\n      0x40\n      mstore\n      dup1\n      0x10\n      swap1\n      0x20\n      dup3\n      mul\n      dup1\n      calldatasize\n      dup4\n      calldatacopy\n      dup1\n      dup3\n      add\n      swap2\n      pop\n      pop\n      swap1\n      pop\n      pop\n      swap1\n      jump\t// out\n        /* \"#utility.yul\":7:82   */\n    tag_238:\n        /* \"#utility.yul\":40:46   */\n      0x00\n        /* \"#utility.yul\":73:75   */\n      0x40\n        /* \"#utility.yul\":67:76   */\n      mload\n        /* \"#utility.yul\":57:76   */\n      swap1\n      pop\n        /* \"#utility.yul\":7:82   */\n      swap1\n      jump\t// out\n        /* \"#utility.yul\":88:205   */\n    tag_239:\n        /* \"#utility.yul\":197:198   */\n      0x00\n        /* \"#utility.yul\":194:195   */\n      dup1\n        /* \"#utility.yul\":187:199   */\n      revert\n        /* \"#utility.yul\":211:328   */\n    tag_240:\n        /* \"#utility.yul\":320:321   */\n      0x00\n        /* \"#utility.yul\":317:318   */\n      dup1\n        /* \"#utility.yul\":310:322   */\n      revert\n        /* \"#utility.yul\":334:483   */\n    tag_241:\n        /* \"#utility.yul\":370:377   */\n      0x00\n        /* \"#utility.yul\":410:476   */\n      0xffffffff00000000000000000000000000000000000000000000000000000000\n        /* \"#utility.yul\":403:408   */\n      dup3\n        /* \"#utility.yul\":399:477   */\n      and\n        /* \"#utility.yul\":388:477   */\n      swap1\n      pop\n        /* \"#utility.yul\":334:483   */\n      swap2\n      swap1\n      pop\n      jump\t// out\n        /* \"#utility.yul\":489:609   */\n    tag_242:\n        /* \"#utility.yul\":561:584   */\n      tag_311\n        /* \"#utility.yul\":578:583   */\n      dup2\n        /* \"#utility.yul\":561:584   */\n      tag_241\n      jump\t// in\n    tag_311:\n        /* \"#utility.yul\":554:559   */\n      dup2\n        /* \"#utility.yul\":551:585   */\n      eq\n        /* \"#utility.yul\":541:603   */\n      tag_312\n      jumpi\n        /* \"#utility.yul\":599:600   */\n      0x00\n        /* \"#utility.yul\":596:597   */\n      dup1\n        /* \"#utility.yul\":589:601   */\n      revert\n        /* \"#utility.yul\":541:603   */\n    tag_312:\n        /* \"#utility.yul\":489:609   */\n      pop\n      jump\t// out\n        /* \"#utility.yul\":615:752   */\n    tag_243:\n        /* \"#utility.yul\":660:665   */\n      0x00\n        /* \"#utility.yul\":698:704   */\n      dup2\n        /* \"#utility.yul\":685:705   */\n      calldataload\n        /* \"#utility.yul\":676:705   */\n      swap1\n      pop\n        /* \"#utility.yul\":714:746   */\n      tag_314\n        /* \"#utility.yul\":740:745   */\n      dup2\n        /* \"#utility.yul\":714:746   */\n      tag_242\n      jump\t// in\n    tag_314:\n        /* \"#utility.yul\":615:752   */\n      swap3\n      swap2\n      pop\n      pop\n      jump\t// out\n        /* \"#utility.yul\":758:1085   */\n    tag_25:\n        /* \"#utility.yul\":816:822   */\n      0x00\n        /* \"#utility.yul\":865:867   */\n      0x20\n        /* \"#utility.yul\":853:862   */\n      dup3\n        /* \"#utility.yul\":844:851   */\n      dup5\n        /* \"#utility.yul\":840:863   */\n      sub\n        /* \"#utility.yul\":836:868   */\n      slt\n        /* \"#utility.yul\":833:952   */\n      iszero\n      tag_316\n      jumpi\n        /* \"#utility.yul\":871:950   */\n      tag_317\n      tag_239\n      jump\t// in\n    tag_317:\n        /* \"#utility.yul\":833:952   */\n    tag_316:\n        /* \"#utility.yul\":991:992   */\n      0x00\n        /* \"#utility.yul\":1016:1068   */\n      tag_318\n        /* \"#utility.yul\":1060:1067   */\n      dup5\n        /* \"#utility.yul\":1051:1057   */\n      dup3\n        /* \"#utility.yul\":1040:1049   */\n      dup6\n        /* \"#utility.yul\":1036:1058   */\n      add\n        /* \"#utility.yul\":1016:1068   */\n      tag_243\n      jump\t// in\n    tag_318:\n        /* \"#utility.yul\":1006:1068   */\n      swap2\n      pop\n        /* \"#utility.yul\":962:1078   */\n      pop\n        /* \"#utility.yul\":758:1085   */\n      swap3\n      swap2\n      pop\n      pop\n      jump\t// out\n        /* \"#utility.yul\":1091:1181   */\n    tag_244:\n        /* \"#utility.yul\":1125:1132   */\n      0x00\n        /* \"#utility.yul\":1168:1173   */\n      dup2\n        /* \"#utility.yul\":1161:1174   */\n      iszero\n        /* \"#utility.yul\":1154:1175   */\n      iszero\n        /* \"#utility.yul\":1143:1175   */\n      swap1\n      pop\n        /* \"#utility.yul\":1091:1181   */\n      swap2\n      swap1\n      pop\n      jump\t// out\n        /* \"#utility.yul\":1187:1296   */\n    tag_245:\n        /* \"#utility.yul\":1268:1289   */\n      tag_321\n        /* \"#utility.yul\":1283:1288   */\n      dup2\n        /* \"#utility.yul\":1268:1289   */\n      tag_244\n      jump\t// in\n    tag_321:\n        /* \"#utility.yul\":1263:1266   */\n      dup3\n        /* \"#utility.yul\":1256:1290   */\n      mstore\n        /* \"#utility.yul\":1187:1296   */\n      pop\n      pop\n      jump\t// out\n        /* \"#utility.yul\":1302:1512   */\n    tag_28:\n        /* \"#utility.yul\":1389:1393   */\n      0x00\n        /* \"#utility.yul\":1427:1429   */\n      0x20\n        /* \"#utility.yul\":1416:1425   */\n      dup3\n        /* \"#utility.yul\":1412:1430   */\n      add\n        /* \"#utility.yul\":1404:1430   */\n      swap1\n      pop\n        /* \"#utility.yul\":1440:1505   */\n      tag_323\n        /* \"#utility.yul\":1502:1503   */\n      0x00\n        /* \"#utility.yul\":1491:1500   */\n      dup4\n        /* \"#utility.yul\":1487:1504   */\n      add\n        /* \"#utility.yul\":1478:1484   */\n      dup5\n        /* \"#utility.yul\":1440:1505   */\n      tag_245\n      jump\t// in\n    tag_323:\n        /* \"#utility.yul\":1302:1512   */\n      swap3\n      swap2\n      pop\n      pop\n      jump\t// out\n        /* \"#utility.yul\":1518:1595   */\n    tag_246:\n        /* \"#utility.yul\":1555:1562   */\n      0x00\n        /* \"#utility.yul\":1584:1589   */\n      dup2\n        /* \"#utility.yul\":1573:1589   */\n      swap1\n      pop\n        /* \"#utility.yul\":1518:1595   */\n      swap2\n      swap1\n      pop\n      jump\t// out\n        /* \"#utility.yul\":1601:1723   */\n    tag_247:\n        /* \"#utility.yul\":1674:1698   */\n      tag_326\n        /* \"#utility.yul\":1692:1697   */\n      dup2\n        /* \"#utility.yul\":1674:1698   */\n      tag_246\n      jump\t// in\n    tag_326:\n        /* \"#utility.yul\":1667:1672   */\n      dup2\n        /* \"#utility.yul\":1664:1699   */\n      eq\n        /* \"#utility.yul\":1654:1717   */\n      tag_327\n      jumpi\n        /* \"#utility.yul\":1713:1714   */\n      0x00\n        /* \"#utility.yul\":1710:1711   */\n      dup1\n        /* \"#utility.yul\":1703:1715   */\n      revert\n        /* \"#utility.yul\":1654:1717   */\n    tag_327:\n        /* \"#utility.yul\":1601:1723   */\n      pop\n      jump\t// out\n        /* \"#utility.yul\":1729:1868   */\n    tag_248:\n        /* \"#utility.yul\":1775:1780   */\n      0x00\n        /* \"#utility.yul\":1813:1819   */\n      dup2\n        /* \"#utility.yul\":1800:1820   */\n      calldataload\n        /* \"#utility.yul\":1791:1820   */\n      swap1\n      pop\n        /* \"#utility.yul\":1829:1862   */\n      tag_329\n        /* \"#utility.yul\":1856:1861   */\n      dup2\n        /* \"#utility.yul\":1829:1862   */\n      tag_247\n      jump\t// in\n    tag_329:\n        /* \"#utility.yul\":1729:1868   */\n      swap3\n      swap2\n      pop\n      pop\n      jump\t// out\n        /* \"#utility.yul\":1874:2203   */\n    tag_31:\n        /* \"#utility.yul\":1933:1939   */\n      0x00\n        /* \"#utility.yul\":1982:1984   */\n      0x20\n        /* \"#utility.yul\":1970:1979   */\n      dup3\n        /* \"#utility.yul\":1961:1968   */\n      dup5\n        /* \"#utility.yul\":1957:1980   */\n      sub\n        /* \"#utility.yul\":1953:1985   */\n      slt\n        /* \"#utility.yul\":1950:2069   */\n      iszero\n      tag_331\n      jumpi\n        /* \"#utility.yul\":1988:2067   */\n      tag_332\n      tag_239\n      jump\t// in\n    tag_332:\n        /* \"#utility.yul\":1950:2069   */\n    tag_331:\n        /* \"#utility.yul\":2108:2109   */\n      0x00\n        /* \"#utility.yul\":2133:2186   */\n      tag_333\n        /* \"#utility.yul\":2178:2185   */\n      dup5\n        /* \"#utility.yul\":2169:2175   */\n      dup3\n        /* \"#utility.yul\":2158:2167   */\n      dup6\n        /* \"#utility.yul\":2154:2176   */\n      add\n        /* \"#utility.yul\":2133:2186   */\n      tag_248\n      jump\t// in\n    tag_333:\n        /* \"#utility.yul\":2123:2186   */\n      swap2\n      pop\n        /* \"#utility.yul\":2079:2196   */\n      pop\n        /* \"#utility.yul\":1874:2203   */\n      swap3\n      swap2\n      pop\n      pop\n      jump\t// out\n        /* \"#utility.yul\":2209:2286   */\n    tag_249:\n        /* \"#utility.yul\":2246:2253   */\n      0x00\n        /* \"#utility.yul\":2275:2280   */\n      dup2\n        /* \"#utility.yul\":2264:2280   */\n      swap1\n      pop\n        /* \"#utility.yul\":2209:2286   */\n      swap2\n      swap1\n      pop\n      jump\t// out\n        /* \"#utility.yul\":2292:2414   */\n    tag_250:\n        /* \"#utility.yul\":2365:2389   */\n      tag_336\n        /* \"#utility.yul\":2383:2388   */\n      dup2\n        /* \"#utility.yul\":2365:2389   */\n      tag_249\n      jump\t// in\n    tag_336:\n        /* \"#utility.yul\":2358:2363   */\n      dup2\n        /* \"#utility.yul\":2355:2390   */\n      eq\n        /* \"#utility.yul\":2345:2408   */\n      tag_337\n      jumpi\n        /* \"#utility.yul\":2404:2405   */\n      0x00\n        /* \"#utility.yul\":2401:2402   */\n      dup1\n        /* \"#utility.yul\":2394:2406   */\n      revert\n        /* \"#utility.yul\":2345:2408   */\n    tag_337:\n        /* \"#utility.yul\":2292:2414   */\n      pop\n      jump\t// out\n        /* \"#utility.yul\":2420:2559   */\n    tag_251:\n        /* \"#utility.yul\":2466:2471   */\n      0x00\n        /* \"#utility.yul\":2504:2510   */\n      dup2\n        /* \"#utility.yul\":2491:2511   */\n      calldataload\n        /* \"#utility.yul\":2482:2511   */\n      swap1\n      pop\n        /* \"#utility.yul\":2520:2553   */\n      tag_339\n        /* \"#utility.yul\":2547:2552   */\n      dup2\n        /* \"#utility.yul\":2520:2553   */\n      tag_250\n      jump\t// in\n    tag_339:\n        /* \"#utility.yul\":2420:2559   */\n      swap3\n      swap2\n      pop\n      pop\n      jump\t// out\n        /* \"#utility.yul\":2565:2894   */\n    tag_35:\n        /* \"#utility.yul\":2624:2630   */\n      0x00\n        /* \"#utility.yul\":2673:2675   */\n      0x20\n        /* \"#utility.yul\":2661:2670   */\n      dup3\n        /* \"#utility.yul\":2652:2659   */\n      dup5\n        /* \"#utility.yul\":2648:2671   */\n      sub\n        /* \"#utility.yul\":2644:2676   */\n      slt\n        /* \"#utility.yul\":2641:2760   */\n      iszero\n      tag_341\n      jumpi\n        /* \"#utility.yul\":2679:2758   */\n      tag_342\n      tag_239\n      jump\t// in\n    tag_342:\n        /* \"#utility.yul\":2641:2760   */\n    tag_341:\n        /* \"#utility.yul\":2799:2800   */\n      0x00\n        /* \"#utility.yul\":2824:2877   */\n      tag_343\n        /* \"#utility.yul\":2869:2876   */\n      dup5\n        /* \"#utility.yul\":2860:2866   */\n      dup3\n        /* \"#utility.yul\":2849:2858   */\n      dup6\n        /* \"#utility.yul\":2845:2867   */\n      add\n        /* \"#utility.yul\":2824:2877   */\n      tag_251\n      jump\t// in\n    tag_343:\n        /* \"#utility.yul\":2814:2877   */\n      swap2\n      pop\n        /* \"#utility.yul\":2770:2887   */\n      pop\n        /* \"#utility.yul\":2565:2894   */\n      swap3\n      swap2\n      pop\n      pop\n      jump\t// out\n        /* \"#utility.yul\":2900:3018   */\n    tag_252:\n        /* \"#utility.yul\":2987:3011   */\n      tag_345\n        /* \"#utility.yul\":3005:3010   */\n      dup2\n        /* \"#utility.yul\":2987:3011   */\n      tag_249\n      jump\t// in\n    tag_345:\n        /* \"#utility.yul\":2982:2985   */\n      dup3\n        /* \"#utility.yul\":2975:3012   */\n      mstore\n        /* \"#utility.yul\":2900:3018   */\n      pop\n      pop\n      jump\t// out\n        /* \"#utility.yul\":3024:3246   */\n    tag_38:\n        /* \"#utility.yul\":3117:3121   */\n      0x00\n        /* \"#utility.yul\":3155:3157   */\n      0x20\n        /* \"#utility.yul\":3144:3153   */\n      dup3\n        /* \"#utility.yul\":3140:3158   */\n      add\n        /* \"#utility.yul\":3132:3158   */\n      swap1\n      pop\n        /* \"#utility.yul\":3168:3239   */\n      tag_347\n        /* \"#utility.yul\":3236:3237   */\n      0x00\n        /* \"#utility.yul\":3225:3234   */\n      dup4\n        /* \"#utility.yul\":3221:3238   */\n      add\n        /* \"#utility.yul\":3212:3218   */\n      dup5\n        /* \"#utility.yul\":3168:3239   */\n      tag_252\n      jump\t// in\n    tag_347:\n        /* \"#utility.yul\":3024:3246   */\n      swap3\n      swap2\n      pop\n      pop\n      jump\t// out\n        /* \"#utility.yul\":3252:3378   */\n    tag_253:\n        /* \"#utility.yul\":3289:3296   */\n      0x00\n        /* \"#utility.yul\":3329:3371   */\n      0xffffffffffffffffffffffffffffffffffffffff\n        /* \"#utility.yul\":3322:3327   */\n      dup3\n        /* \"#utility.yul\":3318:3372   */\n      and\n        /* \"#utility.yul\":3307:3372   */\n      swap1\n      pop\n        /* \"#utility.yul\":3252:3378   */\n      swap2\n      swap1\n      pop\n      jump\t// out\n        /* \"#utility.yul\":3384:3480   */\n    tag_254:\n        /* \"#utility.yul\":3421:3428   */\n      0x00\n        /* \"#utility.yul\":3450:3474   */\n      tag_350\n        /* \"#utility.yul\":3468:3473   */\n      dup3\n        /* \"#utility.yul\":3450:3474   */\n      tag_253\n      jump\t// in\n    tag_350:\n        /* \"#utility.yul\":3439:3474   */\n      swap1\n      pop\n        /* \"#utility.yul\":3384:3480   */\n      swap2\n      swap1\n      pop\n      jump\t// out\n        /* \"#utility.yul\":3486:3608   */\n    tag_255:\n        /* \"#utility.yul\":3559:3583   */\n      tag_352\n        /* \"#utility.yul\":3577:3582   */\n      dup2\n        /* \"#utility.yul\":3559:3583   */\n      tag_254\n      jump\t// in\n    tag_352:\n        /* \"#utility.yul\":3552:3557   */\n      dup2\n        /* \"#utility.yul\":3549:3584   */\n      eq\n        /* \"#utility.yul\":3539:3602   */\n      tag_353\n      jumpi\n        /* \"#utility.yul\":3598:3599   */\n      0x00\n        /* \"#utility.yul\":3595:3596   */\n      dup1\n        /* \"#utility.yul\":3588:3600   */\n      revert\n        /* \"#utility.yul\":3539:3602   */\n    tag_353:\n        /* \"#utility.yul\":3486:3608   */\n      pop\n      jump\t// out\n        /* \"#utility.yul\":3614:3753   */\n    tag_256:\n        /* \"#utility.yul\":3660:3665   */\n      0x00\n        /* \"#utility.yul\":3698:3704   */\n      dup2\n        /* \"#utility.yul\":3685:3705   */\n      calldataload\n        /* \"#utility.yul\":3676:3705   */\n      swap1\n      pop\n        /* \"#utility.yul\":3714:3747   */\n      tag_355\n        /* \"#utility.yul\":3741:3746   */\n      dup2\n        /* \"#utility.yul\":3714:3747   */\n      tag_255\n      jump\t// in\n    tag_355:\n        /* \"#utility.yul\":3614:3753   */\n      swap3\n      swap2\n      pop\n      pop\n      jump\t// out\n        /* \"#utility.yul\":3759:4233   */\n    tag_41:\n        /* \"#utility.yul\":3827:3833   */\n      0x00\n        /* \"#utility.yul\":3835:3841   */\n      dup1\n        /* \"#utility.yul\":3884:3886   */\n      0x40\n        /* \"#utility.yul\":3872:3881   */\n      dup4\n        /* \"#utility.yul\":3863:3870   */\n      dup6\n        /* \"#utility.yul\":3859:3882   */\n      sub\n        /* \"#utility.yul\":3855:3887   */\n      slt\n        /* \"#utility.yul\":3852:3971   */\n      iszero\n      tag_357\n      jumpi\n        /* \"#utility.yul\":3890:3969   */\n      tag_358\n      tag_239\n      jump\t// in\n    tag_358:\n        /* \"#utility.yul\":3852:3971   */\n    tag_357:\n        /* \"#utility.yul\":4010:4011   */\n      0x00\n        /* \"#utility.yul\":4035:4088   */\n      tag_359\n        /* \"#utility.yul\":4080:4087   */\n      dup6\n        /* \"#utility.yul\":4071:4077   */\n      dup3\n        /* \"#utility.yul\":4060:4069   */\n      dup7\n        /* \"#utility.yul\":4056:4078   */\n      add\n        /* \"#utility.yul\":4035:4088   */\n      tag_251\n      jump\t// in\n    tag_359:\n        /* \"#utility.yul\":4025:4088   */\n      swap3\n      pop\n        /* \"#utility.yul\":3981:4098   */\n      pop\n        /* \"#utility.yul\":4137:4139   */\n      0x20\n        /* \"#utility.yul\":4163:4216   */\n      tag_360\n        /* \"#utility.yul\":4208:4215   */\n      dup6\n        /* \"#utility.yul\":4199:4205   */\n      dup3\n        /* \"#utility.yul\":4188:4197   */\n      dup7\n        /* \"#utility.yul\":4184:4206   */\n      add\n        /* \"#utility.yul\":4163:4216   */\n      tag_256\n      jump\t// in\n    tag_360:\n        /* \"#utility.yul\":4153:4216   */\n      swap2\n      pop\n        /* \"#utility.yul\":4108:4226   */\n      pop\n        /* \"#utility.yul\":3759:4233   */\n      swap3\n      pop\n      swap3\n      swap1\n      pop\n      jump\t// out\n        /* \"#utility.yul\":4239:4299   */\n    tag_257:\n        /* \"#utility.yul\":4267:4270   */\n      0x00\n        /* \"#utility.yul\":4288:4293   */\n      dup2\n        /* \"#utility.yul\":4281:4293   */\n      swap1\n      pop\n        /* \"#utility.yul\":4239:4299   */\n      swap2\n      swap1\n      pop\n      jump\t// out\n        /* \"#utility.yul\":4305:4447   */\n    tag_258:\n        /* \"#utility.yul\":4355:4364   */\n      0x00\n        /* \"#utility.yul\":4388:4441   */\n      tag_363\n        /* \"#utility.yul\":4406:4440   */\n      tag_364\n        /* \"#utility.yul\":4415:4439   */\n      tag_365\n        /* \"#utility.yul\":4433:4438   */\n      dup5\n        /* \"#utility.yul\":4415:4439   */\n      tag_253\n      jump\t// in\n    tag_365:\n        /* \"#utility.yul\":4406:4440   */\n      tag_257\n      jump\t// in\n    tag_364:\n        /* \"#utility.yul\":4388:4441   */\n      tag_253\n      jump\t// in\n    tag_363:\n        /* \"#utility.yul\":4375:4441   */\n      swap1\n      pop\n        /* \"#utility.yul\":4305:4447   */\n      swap2\n      swap1\n      pop\n      jump\t// out\n        /* \"#utility.yul\":4453:4579   */\n    tag_259:\n        /* \"#utility.yul\":4503:4512   */\n      0x00\n        /* \"#utility.yul\":4536:4573   */\n      tag_367\n        /* \"#utility.yul\":4567:4572   */\n      dup3\n        /* \"#utility.yul\":4536:4573   */\n      tag_258\n      jump\t// in\n    tag_367:\n        /* \"#utility.yul\":4523:4573   */\n      swap1\n      pop\n        /* \"#utility.yul\":4453:4579   */\n      swap2\n      swap1\n      pop\n      jump\t// out\n        /* \"#utility.yul\":4585:4727   */\n    tag_260:\n        /* \"#utility.yul\":4651:4660   */\n      0x00\n        /* \"#utility.yul\":4684:4721   */\n      tag_369\n        /* \"#utility.yul\":4715:4720   */\n      dup3\n        /* \"#utility.yul\":4684:4721   */\n      tag_259\n      jump\t// in\n    tag_369:\n        /* \"#utility.yul\":4671:4721   */\n      swap1\n      pop\n        /* \"#utility.yul\":4585:4727   */\n      swap2\n      swap1\n      pop\n      jump\t// out\n        /* \"#utility.yul\":4733:4896   */\n    tag_261:\n        /* \"#utility.yul\":4836:4889   */\n      tag_371\n        /* \"#utility.yul\":4883:4888   */\n      dup2\n        /* \"#utility.yul\":4836:4889   */\n      tag_260\n      jump\t// in\n    tag_371:\n        /* \"#utility.yul\":4831:4834   */\n      dup3\n        /* \"#utility.yul\":4824:4890   */\n      mstore\n        /* \"#utility.yul\":4733:4896   */\n      pop\n      pop\n      jump\t// out\n        /* \"#utility.yul\":4902:5156   */\n    tag_49:\n        /* \"#utility.yul\":5011:5015   */\n      0x00\n        /* \"#utility.yul\":5049:5051   */\n      0x20\n        /* \"#utility.yul\":5038:5047   */\n      dup3\n        /* \"#utility.yul\":5034:5052   */\n      add\n        /* \"#utility.yul\":5026:5052   */\n      swap1\n      pop\n        /* \"#utility.yul\":5062:5149   */\n      tag_373\n        /* \"#utility.yul\":5146:5147   */\n      0x00\n        /* \"#utility.yul\":5135:5144   */\n      dup4\n        /* \"#utility.yul\":5131:5148   */\n      add\n        /* \"#utility.yul\":5122:5128   */\n      dup5\n        /* \"#utility.yul\":5062:5149   */\n      tag_261\n      jump\t// in\n    tag_373:\n        /* \"#utility.yul\":4902:5156   */\n      swap3\n      swap2\n      pop\n      pop\n      jump\t// out\n        /* \"#utility.yul\":5162:5279   */\n    tag_262:\n        /* \"#utility.yul\":5271:5272   */\n      0x00\n        /* \"#utility.yul\":5268:5269   */\n      dup1\n        /* \"#utility.yul\":5261:5273   */\n      revert\n        /* \"#utility.yul\":5285:5402   */\n    tag_263:\n        /* \"#utility.yul\":5394:5395   */\n      0x00\n        /* \"#utility.yul\":5391:5392   */\n      dup1\n        /* \"#utility.yul\":5384:5396   */\n      revert\n        /* \"#utility.yul\":5408:5510   */\n    tag_264:\n        /* \"#utility.yul\":5449:5455   */\n      0x00\n        /* \"#utility.yul\":5500:5502   */\n      0x1f\n        /* \"#utility.yul\":5496:5503   */\n      not\n        /* \"#utility.yul\":5491:5493   */\n      0x1f\n        /* \"#utility.yul\":5484:5489   */\n      dup4\n        /* \"#utility.yul\":5480:5494   */\n      add\n        /* \"#utility.yul\":5476:5504   */\n      and\n        /* \"#utility.yul\":5466:5504   */\n      swap1\n      pop\n        /* \"#utility.yul\":5408:5510   */\n      swap2\n      swap1\n      pop\n      jump\t// out\n        /* \"#utility.yul\":5516:5696   */\n    tag_218:\n        /* \"#utility.yul\":5564:5641   */\n      0x4e487b7100000000000000000000000000000000000000000000000000000000\n        /* \"#utility.yul\":5561:5562   */\n      0x00\n        /* \"#utility.yul\":5554:5642   */\n      mstore\n        /* \"#utility.yul\":5661:5665   */\n      0x41\n        /* \"#utility.yul\":5658:5659   */\n      0x04\n        /* \"#utility.yul\":5651:5666   */\n      mstore\n        /* \"#utility.yul\":5685:5689   */\n      0x24\n        /* \"#utility.yul\":5682:5683   */\n      0x00\n        /* \"#utility.yul\":5675:5690   */\n      revert\n        /* \"#utility.yul\":5702:5983   */\n    tag_265:\n        /* \"#utility.yul\":5785:5812   */\n      tag_379\n        /* \"#utility.yul\":5807:5811   */\n      dup3\n        /* \"#utility.yul\":5785:5812   */\n      tag_264\n      jump\t// in\n    tag_379:\n        /* \"#utility.yul\":5777:5783   */\n      dup2\n        /* \"#utility.yul\":5773:5813   */\n      add\n        /* \"#utility.yul\":5915:5921   */\n      dup2\n        /* \"#utility.yul\":5903:5913   */\n      dup2\n        /* \"#utility.yul\":5900:5922   */\n      lt\n        /* \"#utility.yul\":5879:5897   */\n      0xffffffffffffffff\n        /* \"#utility.yul\":5867:5877   */\n      dup3\n        /* \"#utility.yul\":5864:5898   */\n      gt\n        /* \"#utility.yul\":5861:5923   */\n      or\n        /* \"#utility.yul\":5858:5946   */\n      iszero\n      tag_380\n      jumpi\n        /* \"#utility.yul\":5926:5944   */\n      tag_381\n      tag_218\n      jump\t// in\n    tag_381:\n        /* \"#utility.yul\":5858:5946   */\n    tag_380:\n        /* \"#utility.yul\":5966:5976   */\n      dup1\n        /* \"#utility.yul\":5962:5964   */\n      0x40\n        /* \"#utility.yul\":5955:5977   */\n      mstore\n        /* \"#utility.yul\":5745:5983   */\n      pop\n        /* \"#utility.yul\":5702:5983   */\n      pop\n      pop\n      jump\t// out\n        /* \"#utility.yul\":5989:6118   */\n    tag_266:\n        /* \"#utility.yul\":6023:6029   */\n      0x00\n        /* \"#utility.yul\":6050:6070   */\n      tag_383\n      tag_238\n      jump\t// in\n    tag_383:\n        /* \"#utility.yul\":6040:6070   */\n      swap1\n      pop\n        /* \"#utility.yul\":6079:6112   */\n      tag_384\n        /* \"#utility.yul\":6107:6111   */\n      dup3\n        /* \"#utility.yul\":6099:6105   */\n      dup3\n        /* \"#utility.yul\":6079:6112   */\n      tag_265\n      jump\t// in\n    tag_384:\n        /* \"#utility.yul\":5989:6118   */\n      swap2\n      swap1\n      pop\n      jump\t// out\n        /* \"#utility.yul\":6124:6432   */\n    tag_267:\n        /* \"#utility.yul\":6186:6190   */\n      0x00\n        /* \"#utility.yul\":6276:6294   */\n      0xffffffffffffffff\n        /* \"#utility.yul\":6268:6274   */\n      dup3\n        /* \"#utility.yul\":6265:6295   */\n      gt\n        /* \"#utility.yul\":6262:6318   */\n      iszero\n      tag_386\n      jumpi\n        /* \"#utility.yul\":6298:6316   */\n      tag_387\n      tag_218\n      jump\t// in\n    tag_387:\n        /* \"#utility.yul\":6262:6318   */\n    tag_386:\n        /* \"#utility.yul\":6336:6365   */\n      tag_388\n        /* \"#utility.yul\":6358:6364   */\n      dup3\n        /* \"#utility.yul\":6336:6365   */\n      tag_264\n      jump\t// in\n    tag_388:\n        /* \"#utility.yul\":6328:6365   */\n      swap1\n      pop\n        /* \"#utility.yul\":6420:6424   */\n      0x20\n        /* \"#utility.yul\":6414:6418   */\n      dup2\n        /* \"#utility.yul\":6410:6425   */\n      add\n        /* \"#utility.yul\":6402:6425   */\n      swap1\n      pop\n        /* \"#utility.yul\":6124:6432   */\n      swap2\n      swap1\n      pop\n      jump\t// out\n        /* \"#utility.yul\":6438:6592   */\n    tag_268:\n        /* \"#utility.yul\":6522:6528   */\n      dup3\n        /* \"#utility.yul\":6517:6520   */\n      dup2\n        /* \"#utility.yul\":6512:6515   */\n      dup4\n        /* \"#utility.yul\":6499:6529   */\n      calldatacopy\n        /* \"#utility.yul\":6584:6585   */\n      0x00\n        /* \"#utility.yul\":6575:6581   */\n      dup4\n        /* \"#utility.yul\":6570:6573   */\n      dup4\n        /* \"#utility.yul\":6566:6582   */\n      add\n        /* \"#utility.yul\":6559:6586   */\n      mstore\n        /* \"#utility.yul\":6438:6592   */\n      pop\n      pop\n      pop\n      jump\t// out\n        /* \"#utility.yul\":6598:7010   */\n    tag_269:\n        /* \"#utility.yul\":6676:6681   */\n      0x00\n        /* \"#utility.yul\":6701:6767   */\n      tag_391\n        /* \"#utility.yul\":6717:6766   */\n      tag_392\n        /* \"#utility.yul\":6759:6765   */\n      dup5\n        /* \"#utility.yul\":6717:6766   */\n      tag_267\n      jump\t// in\n    tag_392:\n        /* \"#utility.yul\":6701:6767   */\n      tag_266\n      jump\t// in\n    tag_391:\n        /* \"#utility.yul\":6692:6767   */\n      swap1\n      pop\n        /* \"#utility.yul\":6790:6796   */\n      dup3\n        /* \"#utility.yul\":6783:6788   */\n      dup2\n        /* \"#utility.yul\":6776:6797   */\n      mstore\n        /* \"#utility.yul\":6828:6832   */\n      0x20\n        /* \"#utility.yul\":6821:6826   */\n      dup2\n        /* \"#utility.yul\":6817:6833   */\n      add\n        /* \"#utility.yul\":6866:6869   */\n      dup5\n        /* \"#utility.yul\":6857:6863   */\n      dup5\n        /* \"#utility.yul\":6852:6855   */\n      dup5\n        /* \"#utility.yul\":6848:6864   */\n      add\n        /* \"#utility.yul\":6845:6870   */\n      gt\n        /* \"#utility.yul\":6842:6954   */\n      iszero\n      tag_393\n      jumpi\n        /* \"#utility.yul\":6873:6952   */\n      tag_394\n      tag_263\n      jump\t// in\n    tag_394:\n        /* \"#utility.yul\":6842:6954   */\n    tag_393:\n        /* \"#utility.yul\":6963:7004   */\n      tag_395\n        /* \"#utility.yul\":6997:7003   */\n      dup5\n        /* \"#utility.yul\":6992:6995   */\n      dup3\n        /* \"#utility.yul\":6987:6990   */\n      dup6\n        /* \"#utility.yul\":6963:7004   */\n      tag_268\n      jump\t// in\n    tag_395:\n        /* \"#utility.yul\":6682:7010   */\n      pop\n        /* \"#utility.yul\":6598:7010   */\n      swap4\n      swap3\n      pop\n      pop\n      pop\n      jump\t// out\n        /* \"#utility.yul\":7030:7370   */\n    tag_270:\n        /* \"#utility.yul\":7086:7091   */\n      0x00\n        /* \"#utility.yul\":7135:7138   */\n      dup3\n        /* \"#utility.yul\":7128:7132   */\n      0x1f\n        /* \"#utility.yul\":7120:7126   */\n      dup4\n        /* \"#utility.yul\":7116:7133   */\n      add\n        /* \"#utility.yul\":7112:7139   */\n      slt\n        /* \"#utility.yul\":7102:7224   */\n      tag_397\n      jumpi\n        /* \"#utility.yul\":7143:7222   */\n      tag_398\n      tag_262\n      jump\t// in\n    tag_398:\n        /* \"#utility.yul\":7102:7224   */\n    tag_397:\n        /* \"#utility.yul\":7260:7266   */\n      dup2\n        /* \"#utility.yul\":7247:7267   */\n      calldataload\n        /* \"#utility.yul\":7285:7364   */\n      tag_399\n        /* \"#utility.yul\":7360:7363   */\n      dup5\n        /* \"#utility.yul\":7352:7358   */\n      dup3\n        /* \"#utility.yul\":7345:7349   */\n      0x20\n        /* \"#utility.yul\":7337:7343   */\n      dup7\n        /* \"#utility.yul\":7333:7350   */\n      add\n        /* \"#utility.yul\":7285:7364   */\n      tag_269\n      jump\t// in\n    tag_399:\n        /* \"#utility.yul\":7276:7364   */\n      swap2\n      pop\n        /* \"#utility.yul\":7092:7370   */\n      pop\n        /* \"#utility.yul\":7030:7370   */\n      swap3\n      swap2\n      pop\n      pop\n      jump\t// out\n        /* \"#utility.yul\":7376:7885   */\n    tag_55:\n        /* \"#utility.yul\":7445:7451   */\n      0x00\n        /* \"#utility.yul\":7494:7496   */\n      0x20\n        /* \"#utility.yul\":7482:7491   */\n      dup3\n        /* \"#utility.yul\":7473:7480   */\n      dup5\n        /* \"#utility.yul\":7469:7492   */\n      sub\n        /* \"#utility.yul\":7465:7497   */\n      slt\n        /* \"#utility.yul\":7462:7581   */\n      iszero\n      tag_401\n      jumpi\n        /* \"#utility.yul\":7500:7579   */\n      tag_402\n      tag_239\n      jump\t// in\n    tag_402:\n        /* \"#utility.yul\":7462:7581   */\n    tag_401:\n        /* \"#utility.yul\":7648:7649   */\n      0x00\n        /* \"#utility.yul\":7637:7646   */\n      dup3\n        /* \"#utility.yul\":7633:7650   */\n      add\n        /* \"#utility.yul\":7620:7651   */\n      calldataload\n        /* \"#utility.yul\":7678:7696   */\n      0xffffffffffffffff\n        /* \"#utility.yul\":7670:7676   */\n      dup2\n        /* \"#utility.yul\":7667:7697   */\n      gt\n        /* \"#utility.yul\":7664:7781   */\n      iszero\n      tag_403\n      jumpi\n        /* \"#utility.yul\":7700:7779   */\n      tag_404\n      tag_240\n      jump\t// in\n    tag_404:\n        /* \"#utility.yul\":7664:7781   */\n    tag_403:\n        /* \"#utility.yul\":7805:7868   */\n      tag_405\n        /* \"#utility.yul\":7860:7867   */\n      dup5\n        /* \"#utility.yul\":7851:7857   */\n      dup3\n        /* \"#utility.yul\":7840:7849   */\n      dup6\n        /* \"#utility.yul\":7836:7858   */\n      add\n        /* \"#utility.yul\":7805:7868   */\n      tag_270\n      jump\t// in\n    tag_405:\n        /* \"#utility.yul\":7795:7868   */\n      swap2\n      pop\n        /* \"#utility.yul\":7591:7878   */\n      pop\n        /* \"#utility.yul\":7376:7885   */\n      swap3\n      swap2\n      pop\n      pop\n      jump\t// out\n        /* \"#utility.yul\":7891:8009   */\n    tag_271:\n        /* \"#utility.yul\":7978:8002   */\n      tag_407\n        /* \"#utility.yul\":7996:8001   */\n      dup2\n        /* \"#utility.yul\":7978:8002   */\n      tag_246\n      jump\t// in\n    tag_407:\n        /* \"#utility.yul\":7973:7976   */\n      dup3\n        /* \"#utility.yul\":7966:8003   */\n      mstore\n        /* \"#utility.yul\":7891:8009   */\n      pop\n      pop\n      jump\t// out\n        /* \"#utility.yul\":8015:8237   */\n    tag_58:\n        /* \"#utility.yul\":8108:8112   */\n      0x00\n        /* \"#utility.yul\":8146:8148   */\n      0x20\n        /* \"#utility.yul\":8135:8144   */\n      dup3\n        /* \"#utility.yul\":8131:8149   */\n      add\n        /* \"#utility.yul\":8123:8149   */\n      swap1\n      pop\n        /* \"#utility.yul\":8159:8230   */\n      tag_409\n        /* \"#utility.yul\":8227:8228   */\n      0x00\n        /* \"#utility.yul\":8216:8225   */\n      dup4\n        /* \"#utility.yul\":8212:8229   */\n      add\n        /* \"#utility.yul\":8203:8209   */\n      dup5\n        /* \"#utility.yul\":8159:8230   */\n      tag_271\n      jump\t// in\n    tag_409:\n        /* \"#utility.yul\":8015:8237   */\n      swap3\n      swap2\n      pop\n      pop\n      jump\t// out\n        /* \"#utility.yul\":8243:8717   */\n    tag_65:\n        /* \"#utility.yul\":8311:8317   */\n      0x00\n        /* \"#utility.yul\":8319:8325   */\n      dup1\n        /* \"#utility.yul\":8368:8370   */\n      0x40\n        /* \"#utility.yul\":8356:8365   */\n      dup4\n        /* \"#utility.yul\":8347:8354   */\n      dup6\n        /* \"#utility.yul\":8343:8366   */\n      sub\n        /* \"#utility.yul\":8339:8371   */\n      slt\n        /* \"#utility.yul\":8336:8455   */\n      iszero\n      tag_411\n      jumpi\n        /* \"#utility.yul\":8374:8453   */\n      tag_412\n      tag_239\n      jump\t// in\n    tag_412:\n        /* \"#utility.yul\":8336:8455   */\n    tag_411:\n        /* \"#utility.yul\":8494:8495   */\n      0x00\n        /* \"#utility.yul\":8519:8572   */\n      tag_413\n        /* \"#utility.yul\":8564:8571   */\n      dup6\n        /* \"#utility.yul\":8555:8561   */\n      dup3\n        /* \"#utility.yul\":8544:8553   */\n      dup7\n        /* \"#utility.yul\":8540:8562   */\n      add\n        /* \"#utility.yul\":8519:8572   */\n      tag_256\n      jump\t// in\n    tag_413:\n        /* \"#utility.yul\":8509:8572   */\n      swap3\n      pop\n        /* \"#utility.yul\":8465:8582   */\n      pop\n        /* \"#utility.yul\":8621:8623   */\n      0x20\n        /* \"#utility.yul\":8647:8700   */\n      tag_414\n        /* \"#utility.yul\":8692:8699   */\n      dup6\n        /* \"#utility.yul\":8683:8689   */\n      dup3\n        /* \"#utility.yul\":8672:8681   */\n      dup7\n        /* \"#utility.yul\":8668:8690   */\n      add\n        /* \"#utility.yul\":8647:8700   */\n      tag_248\n      jump\t// in\n    tag_414:\n        /* \"#utility.yul\":8637:8700   */\n      swap2\n      pop\n        /* \"#utility.yul\":8592:8710   */\n      pop\n        /* \"#utility.yul\":8243:8717   */\n      swap3\n      pop\n      swap3\n      swap1\n      pop\n      jump\t// out\n        /* \"#utility.yul\":8723:8841   */\n    tag_272:\n        /* \"#utility.yul\":8810:8834   */\n      tag_416\n        /* \"#utility.yul\":8828:8833   */\n      dup2\n        /* \"#utility.yul\":8810:8834   */\n      tag_254\n      jump\t// in\n    tag_416:\n        /* \"#utility.yul\":8805:8808   */\n      dup3\n        /* \"#utility.yul\":8798:8835   */\n      mstore\n        /* \"#utility.yul\":8723:8841   */\n      pop\n      pop\n      jump\t// out\n        /* \"#utility.yul\":8847:9069   */\n    tag_73:\n        /* \"#utility.yul\":8940:8944   */\n      0x00\n        /* \"#utility.yul\":8978:8980   */\n      0x20\n        /* \"#utility.yul\":8967:8976   */\n      dup3\n        /* \"#utility.yul\":8963:8981   */\n      add\n        /* \"#utility.yul\":8955:8981   */\n      swap1\n      pop\n        /* \"#utility.yul\":8991:9062   */\n      tag_418\n        /* \"#utility.yul\":9059:9060   */\n      0x00\n        /* \"#utility.yul\":9048:9057   */\n      dup4\n        /* \"#utility.yul\":9044:9061   */\n      add\n        /* \"#utility.yul\":9035:9041   */\n      dup5\n        /* \"#utility.yul\":8991:9062   */\n      tag_272\n      jump\t// in\n    tag_418:\n        /* \"#utility.yul\":8847:9069   */\n      swap3\n      swap2\n      pop\n      pop\n      jump\t// out\n        /* \"#utility.yul\":9075:9180   */\n    tag_273:\n        /* \"#utility.yul\":9141:9147   */\n      0x00\n        /* \"#utility.yul\":9169:9173   */\n      0x10\n        /* \"#utility.yul\":9159:9173   */\n      swap1\n      pop\n        /* \"#utility.yul\":9075:9180   */\n      swap2\n      swap1\n      pop\n      jump\t// out\n        /* \"#utility.yul\":9186:9330   */\n    tag_274:\n        /* \"#utility.yul\":9284:9295   */\n      0x00\n        /* \"#utility.yul\":9321:9324   */\n      dup2\n        /* \"#utility.yul\":9306:9324   */\n      swap1\n      pop\n        /* \"#utility.yul\":9186:9330   */\n      swap3\n      swap2\n      pop\n      pop\n      jump\t// out\n        /* \"#utility.yul\":9336:9435   */\n    tag_275:\n        /* \"#utility.yul\":9402:9406   */\n      0x00\n        /* \"#utility.yul\":9425:9428   */\n      dup2\n        /* \"#utility.yul\":9417:9428   */\n      swap1\n      pop\n        /* \"#utility.yul\":9336:9435   */\n      swap2\n      swap1\n      pop\n      jump\t// out\n        /* \"#utility.yul\":9441:9549   */\n    tag_276:\n        /* \"#utility.yul\":9518:9542   */\n      tag_423\n        /* \"#utility.yul\":9536:9541   */\n      dup2\n        /* \"#utility.yul\":9518:9542   */\n      tag_246\n      jump\t// in\n    tag_423:\n        /* \"#utility.yul\":9513:9516   */\n      dup3\n        /* \"#utility.yul\":9506:9543   */\n      mstore\n        /* \"#utility.yul\":9441:9549   */\n      pop\n      pop\n      jump\t// out\n        /* \"#utility.yul\":9555:9734   */\n    tag_277:\n        /* \"#utility.yul\":9624:9634   */\n      0x00\n        /* \"#utility.yul\":9645:9691   */\n      tag_425\n        /* \"#utility.yul\":9687:9690   */\n      dup4\n        /* \"#utility.yul\":9679:9685   */\n      dup4\n        /* \"#utility.yul\":9645:9691   */\n      tag_276\n      jump\t// in\n    tag_425:\n        /* \"#utility.yul\":9723:9727   */\n      0x20\n        /* \"#utility.yul\":9718:9721   */\n      dup4\n        /* \"#utility.yul\":9714:9728   */\n      add\n        /* \"#utility.yul\":9700:9728   */\n      swap1\n      pop\n        /* \"#utility.yul\":9555:9734   */\n      swap3\n      swap2\n      pop\n      pop\n      jump\t// out\n        /* \"#utility.yul\":9740:9852   */\n    tag_278:\n        /* \"#utility.yul\":9809:9813   */\n      0x00\n        /* \"#utility.yul\":9841:9845   */\n      0x20\n        /* \"#utility.yul\":9836:9839   */\n      dup3\n        /* \"#utility.yul\":9832:9846   */\n      add\n        /* \"#utility.yul\":9824:9846   */\n      swap1\n      pop\n        /* \"#utility.yul\":9740:9852   */\n      swap2\n      swap1\n      pop\n      jump\t// out\n        /* \"#utility.yul\":9892:10592   */\n    tag_279:\n        /* \"#utility.yul\":10030:10083   */\n      tag_428\n        /* \"#utility.yul\":10077:10082   */\n      dup2\n        /* \"#utility.yul\":10030:10083   */\n      tag_273\n      jump\t// in\n    tag_428:\n        /* \"#utility.yul\":10099:10184   */\n      tag_429\n        /* \"#utility.yul\":10177:10183   */\n      dup2\n        /* \"#utility.yul\":10172:10175   */\n      dup5\n        /* \"#utility.yul\":10099:10184   */\n      tag_274\n      jump\t// in\n    tag_429:\n        /* \"#utility.yul\":10092:10184   */\n      swap3\n      pop\n        /* \"#utility.yul\":10208:10263   */\n      tag_430\n        /* \"#utility.yul\":10257:10262   */\n      dup3\n        /* \"#utility.yul\":10208:10263   */\n      tag_275\n      jump\t// in\n    tag_430:\n        /* \"#utility.yul\":10286:10293   */\n      dup1\n        /* \"#utility.yul\":10317:10318   */\n      0x00\n        /* \"#utility.yul\":10302:10585   */\n    tag_431:\n        /* \"#utility.yul\":10327:10333   */\n      dup4\n        /* \"#utility.yul\":10324:10325   */\n      dup2\n        /* \"#utility.yul\":10321:10334   */\n      lt\n        /* \"#utility.yul\":10302:10585   */\n      iszero\n      tag_433\n      jumpi\n        /* \"#utility.yul\":10403:10409   */\n      dup2\n        /* \"#utility.yul\":10397:10410   */\n      mload\n        /* \"#utility.yul\":10430:10493   */\n      tag_434\n        /* \"#utility.yul\":10489:10492   */\n      dup8\n        /* \"#utility.yul\":10474:10487   */\n      dup3\n        /* \"#utility.yul\":10430:10493   */\n      tag_277\n      jump\t// in\n    tag_434:\n        /* \"#utility.yul\":10423:10493   */\n      swap7\n      pop\n        /* \"#utility.yul\":10516:10575   */\n      tag_435\n        /* \"#utility.yul\":10568:10574   */\n      dup4\n        /* \"#utility.yul\":10516:10575   */\n      tag_278\n      jump\t// in\n    tag_435:\n        /* \"#utility.yul\":10506:10575   */\n      swap3\n      pop\n        /* \"#utility.yul\":10362:10585   */\n      pop\n        /* \"#utility.yul\":10349:10350   */\n      0x01\n        /* \"#utility.yul\":10346:10347   */\n      dup2\n        /* \"#utility.yul\":10342:10351   */\n      add\n        /* \"#utility.yul\":10337:10351   */\n      swap1\n      pop\n        /* \"#utility.yul\":10302:10585   */\n      jump(tag_431)\n    tag_433:\n        /* \"#utility.yul\":10306:10320   */\n      pop\n        /* \"#utility.yul\":10006:10592   */\n      pop\n      pop\n      pop\n        /* \"#utility.yul\":9892:10592   */\n      pop\n      pop\n      jump\t// out\n        /* \"#utility.yul\":10598:10917   */\n    tag_81:\n        /* \"#utility.yul\":10739:10743   */\n      0x00\n        /* \"#utility.yul\":10777:10780   */\n      0x0200\n        /* \"#utility.yul\":10766:10775   */\n      dup3\n        /* \"#utility.yul\":10762:10781   */\n      add\n        /* \"#utility.yul\":10754:10781   */\n      swap1\n      pop\n        /* \"#utility.yul\":10791:10910   */\n      tag_437\n        /* \"#utility.yul\":10907:10908   */\n      0x00\n        /* \"#utility.yul\":10896:10905   */\n      dup4\n        /* \"#utility.yul\":10892:10909   */\n      add\n        /* \"#utility.yul\":10883:10889   */\n      dup5\n        /* \"#utility.yul\":10791:10910   */\n      tag_279\n      jump\t// in\n    tag_437:\n        /* \"#utility.yul\":10598:10917   */\n      swap3\n      swap2\n      pop\n      pop\n      jump\t// out\n        /* \"#utility.yul\":10923:11092   */\n    tag_280:\n        /* \"#utility.yul\":11007:11018   */\n      0x00\n        /* \"#utility.yul\":11041:11047   */\n      dup3\n        /* \"#utility.yul\":11036:11039   */\n      dup3\n        /* \"#utility.yul\":11029:11048   */\n      mstore\n        /* \"#utility.yul\":11081:11085   */\n      0x20\n        /* \"#utility.yul\":11076:11079   */\n      dup3\n        /* \"#utility.yul\":11072:11086   */\n      add\n        /* \"#utility.yul\":11057:11086   */\n      swap1\n      pop\n        /* \"#utility.yul\":10923:11092   */\n      swap3\n      swap2\n      pop\n      pop\n      jump\t// out\n        /* \"#utility.yul\":11098:11332   */\n    tag_281:\n        /* \"#utility.yul\":11238:11272   */\n      0x416363657373436f6e74726f6c3a2063616e206f6e6c792072656e6f756e6365\n        /* \"#utility.yul\":11234:11235   */\n      0x00\n        /* \"#utility.yul\":11226:11232   */\n      dup3\n        /* \"#utility.yul\":11222:11236   */\n      add\n        /* \"#utility.yul\":11215:11273   */\n      mstore\n        /* \"#utility.yul\":11307:11324   */\n      0x20726f6c657320666f722073656c660000000000000000000000000000000000\n        /* \"#utility.yul\":11302:11304   */\n      0x20\n        /* \"#utility.yul\":11294:11300   */\n      dup3\n        /* \"#utility.yul\":11290:11305   */\n      add\n        /* \"#utility.yul\":11283:11325   */\n      mstore\n        /* \"#utility.yul\":11098:11332   */\n      pop\n      jump\t// out\n        /* \"#utility.yul\":11338:11704   */\n    tag_282:\n        /* \"#utility.yul\":11480:11483   */\n      0x00\n        /* \"#utility.yul\":11501:11568   */\n      tag_441\n        /* \"#utility.yul\":11565:11567   */\n      0x2f\n        /* \"#utility.yul\":11560:11563   */\n      dup4\n        /* \"#utility.yul\":11501:11568   */\n      tag_280\n      jump\t// in\n    tag_441:\n        /* \"#utility.yul\":11494:11568   */\n      swap2\n      pop\n        /* \"#utility.yul\":11577:11670   */\n      tag_442\n        /* \"#utility.yul\":11666:11669   */\n      dup3\n        /* \"#utility.yul\":11577:11670   */\n      tag_281\n      jump\t// in\n    tag_442:\n        /* \"#utility.yul\":11695:11697   */\n      0x40\n        /* \"#utility.yul\":11690:11693   */\n      dup3\n        /* \"#utility.yul\":11686:11698   */\n      add\n        /* \"#utility.yul\":11679:11698   */\n      swap1\n      pop\n        /* \"#utility.yul\":11338:11704   */\n      swap2\n      swap1\n      pop\n      jump\t// out\n        /* \"#utility.yul\":11710:12129   */\n    tag_115:\n        /* \"#utility.yul\":11876:11880   */\n      0x00\n        /* \"#utility.yul\":11914:11916   */\n      0x20\n        /* \"#utility.yul\":11903:11912   */\n      dup3\n        /* \"#utility.yul\":11899:11917   */\n      add\n        /* \"#utility.yul\":11891:11917   */\n      swap1\n      pop\n        /* \"#utility.yul\":11963:11972   */\n      dup2\n        /* \"#utility.yul\":11957:11961   */\n      dup2\n        /* \"#utility.yul\":11953:11973   */\n      sub\n        /* \"#utility.yul\":11949:11950   */\n      0x00\n        /* \"#utility.yul\":11938:11947   */\n      dup4\n        /* \"#utility.yul\":11934:11951   */\n      add\n        /* \"#utility.yul\":11927:11974   */\n      mstore\n        /* \"#utility.yul\":11991:12122   */\n      tag_444\n        /* \"#utility.yul\":12117:12121   */\n      dup2\n        /* \"#utility.yul\":11991:12122   */\n      tag_282\n      jump\t// in\n    tag_444:\n        /* \"#utility.yul\":11983:12122   */\n      swap1\n      pop\n        /* \"#utility.yul\":11710:12129   */\n      swap2\n      swap1\n      pop\n      jump\t// out\n        /* \"#utility.yul\":12135:12301   */\n    tag_283:\n        /* \"#utility.yul\":12275:12293   */\n      0x5061757361626c653a2070617573656400000000000000000000000000000000\n        /* \"#utility.yul\":12271:12272   */\n      0x00\n        /* \"#utility.yul\":12263:12269   */\n      dup3\n        /* \"#utility.yul\":12259:12273   */\n      add\n        /* \"#utility.yul\":12252:12294   */\n      mstore\n        /* \"#utility.yul\":12135:12301   */\n      pop\n      jump\t// out\n        /* \"#utility.yul\":12307:12673   */\n    tag_284:\n        /* \"#utility.yul\":12449:12452   */\n      0x00\n        /* \"#utility.yul\":12470:12537   */\n      tag_447\n        /* \"#utility.yul\":12534:12536   */\n      0x10\n        /* \"#utility.yul\":12529:12532   */\n      dup4\n        /* \"#utility.yul\":12470:12537   */\n      tag_280\n      jump\t// in\n    tag_447:\n        /* \"#utility.yul\":12463:12537   */\n      swap2\n      pop\n        /* \"#utility.yul\":12546:12639   */\n      tag_448\n        /* \"#utility.yul\":12635:12638   */\n      dup3\n        /* \"#utility.yul\":12546:12639   */\n      tag_283\n      jump\t// in\n    tag_448:\n        /* \"#utility.yul\":12664:12666   */\n      0x20\n        /* \"#utility.yul\":12659:12662   */\n      dup3\n        /* \"#utility.yul\":12655:12667   */\n      add\n        /* \"#utility.yul\":12648:12667   */\n      swap1\n      pop\n        /* \"#utility.yul\":12307:12673   */\n      swap2\n      swap1\n      pop\n      jump\t// out\n        /* \"#utility.yul\":12679:13098   */\n    tag_123:\n        /* \"#utility.yul\":12845:12849   */\n      0x00\n        /* \"#utility.yul\":12883:12885   */\n      0x20\n        /* \"#utility.yul\":12872:12881   */\n      dup3\n        /* \"#utility.yul\":12868:12886   */\n      add\n        /* \"#utility.yul\":12860:12886   */\n      swap1\n      pop\n        /* \"#utility.yul\":12932:12941   */\n      dup2\n        /* \"#utility.yul\":12926:12930   */\n      dup2\n        /* \"#utility.yul\":12922:12942   */\n      sub\n        /* \"#utility.yul\":12918:12919   */\n      0x00\n        /* \"#utility.yul\":12907:12916   */\n      dup4\n        /* \"#utility.yul\":12903:12920   */\n      add\n        /* \"#utility.yul\":12896:12943   */\n      mstore\n        /* \"#utility.yul\":12960:13091   */\n      tag_450\n        /* \"#utility.yul\":13086:13090   */\n      dup2\n        /* \"#utility.yul\":12960:13091   */\n      tag_284\n      jump\t// in\n    tag_450:\n        /* \"#utility.yul\":12952:13091   */\n      swap1\n      pop\n        /* \"#utility.yul\":12679:13098   */\n      swap2\n      swap1\n      pop\n      jump\t// out\n        /* \"#utility.yul\":13104:13546   */\n    tag_128:\n        /* \"#utility.yul\":13253:13257   */\n      0x00\n        /* \"#utility.yul\":13291:13293   */\n      0x60\n        /* \"#utility.yul\":13280:13289   */\n      dup3\n        /* \"#utility.yul\":13276:13294   */\n      add\n        /* \"#utility.yul\":13268:13294   */\n      swap1\n      pop\n        /* \"#utility.yul\":13304:13375   */\n      tag_452\n        /* \"#utility.yul\":13372:13373   */\n      0x00\n        /* \"#utility.yul\":13361:13370   */\n      dup4\n        /* \"#utility.yul\":13357:13374   */\n      add\n        /* \"#utility.yul\":13348:13354   */\n      dup7\n        /* \"#utility.yul\":13304:13375   */\n      tag_272\n      jump\t// in\n    tag_452:\n        /* \"#utility.yul\":13385:13457   */\n      tag_453\n        /* \"#utility.yul\":13453:13455   */\n      0x20\n        /* \"#utility.yul\":13442:13451   */\n      dup4\n        /* \"#utility.yul\":13438:13456   */\n      add\n        /* \"#utility.yul\":13429:13435   */\n      dup6\n        /* \"#utility.yul\":13385:13457   */\n      tag_272\n      jump\t// in\n    tag_453:\n        /* \"#utility.yul\":13467:13539   */\n      tag_454\n        /* \"#utility.yul\":13535:13537   */\n      0x40\n        /* \"#utility.yul\":13524:13533   */\n      dup4\n        /* \"#utility.yul\":13520:13538   */\n      add\n        /* \"#utility.yul\":13511:13517   */\n      dup5\n        /* \"#utility.yul\":13467:13539   */\n      tag_271\n      jump\t// in\n    tag_454:\n        /* \"#utility.yul\":13104:13546   */\n      swap5\n      swap4\n      pop\n      pop\n      pop\n      pop\n      jump\t// out\n        /* \"#utility.yul\":13552:13668   */\n    tag_285:\n        /* \"#utility.yul\":13622:13643   */\n      tag_456\n        /* \"#utility.yul\":13637:13642   */\n      dup2\n        /* \"#utility.yul\":13622:13643   */\n      tag_244\n      jump\t// in\n    tag_456:\n        /* \"#utility.yul\":13615:13620   */\n      dup2\n        /* \"#utility.yul\":13612:13644   */\n      eq\n        /* \"#utility.yul\":13602:13662   */\n      tag_457\n      jumpi\n        /* \"#utility.yul\":13658:13659   */\n      0x00\n        /* \"#utility.yul\":13655:13656   */\n      dup1\n        /* \"#utility.yul\":13648:13660   */\n      revert\n        /* \"#utility.yul\":13602:13662   */\n    tag_457:\n        /* \"#utility.yul\":13552:13668   */\n      pop\n      jump\t// out\n        /* \"#utility.yul\":13674:13811   */\n    tag_286:\n        /* \"#utility.yul\":13728:13733   */\n      0x00\n        /* \"#utility.yul\":13759:13765   */\n      dup2\n        /* \"#utility.yul\":13753:13766   */\n      mload\n        /* \"#utility.yul\":13744:13766   */\n      swap1\n      pop\n        /* \"#utility.yul\":13775:13805   */\n      tag_459\n        /* \"#utility.yul\":13799:13804   */\n      dup2\n        /* \"#utility.yul\":13775:13805   */\n      tag_285\n      jump\t// in\n    tag_459:\n        /* \"#utility.yul\":13674:13811   */\n      swap3\n      swap2\n      pop\n      pop\n      jump\t// out\n        /* \"#utility.yul\":13817:14162   */\n    tag_132:\n        /* \"#utility.yul\":13884:13890   */\n      0x00\n        /* \"#utility.yul\":13933:13935   */\n      0x20\n        /* \"#utility.yul\":13921:13930   */\n      dup3\n        /* \"#utility.yul\":13912:13919   */\n      dup5\n        /* \"#utility.yul\":13908:13931   */\n      sub\n        /* \"#utility.yul\":13904:13936   */\n      slt\n        /* \"#utility.yul\":13901:14020   */\n      iszero\n      tag_461\n      jumpi\n        /* \"#utility.yul\":13939:14018   */\n      tag_462\n      tag_239\n      jump\t// in\n    tag_462:\n        /* \"#utility.yul\":13901:14020   */\n    tag_461:\n        /* \"#utility.yul\":14059:14060   */\n      0x00\n        /* \"#utility.yul\":14084:14145   */\n      tag_463\n        /* \"#utility.yul\":14137:14144   */\n      dup5\n        /* \"#utility.yul\":14128:14134   */\n      dup3\n        /* \"#utility.yul\":14117:14126   */\n      dup6\n        /* \"#utility.yul\":14113:14135   */\n      add\n        /* \"#utility.yul\":14084:14145   */\n      tag_286\n      jump\t// in\n    tag_463:\n        /* \"#utility.yul\":14074:14145   */\n      swap2\n      pop\n        /* \"#utility.yul\":14030:14155   */\n      pop\n        /* \"#utility.yul\":13817:14162   */\n      swap3\n      swap2\n      pop\n      pop\n      jump\t// out\n        /* \"#utility.yul\":14168:14267   */\n    tag_287:\n        /* \"#utility.yul\":14220:14226   */\n      0x00\n        /* \"#utility.yul\":14254:14259   */\n      dup2\n        /* \"#utility.yul\":14248:14260   */\n      mload\n        /* \"#utility.yul\":14238:14260   */\n      swap1\n      pop\n        /* \"#utility.yul\":14168:14267   */\n      swap2\n      swap1\n      pop\n      jump\t// out\n        /* \"#utility.yul\":14273:14580   */\n    tag_288:\n        /* \"#utility.yul\":14341:14342   */\n      0x00\n        /* \"#utility.yul\":14351:14464   */\n    tag_466:\n        /* \"#utility.yul\":14365:14371   */\n      dup4\n        /* \"#utility.yul\":14362:14363   */\n      dup2\n        /* \"#utility.yul\":14359:14372   */\n      lt\n        /* \"#utility.yul\":14351:14464   */\n      iszero\n      tag_468\n      jumpi\n        /* \"#utility.yul\":14450:14451   */\n      dup1\n        /* \"#utility.yul\":14445:14448   */\n      dup3\n        /* \"#utility.yul\":14441:14452   */\n      add\n        /* \"#utility.yul\":14435:14453   */\n      mload\n        /* \"#utility.yul\":14431:14432   */\n      dup2\n        /* \"#utility.yul\":14426:14429   */\n      dup5\n        /* \"#utility.yul\":14422:14433   */\n      add\n        /* \"#utility.yul\":14415:14454   */\n      mstore\n        /* \"#utility.yul\":14387:14389   */\n      0x20\n        /* \"#utility.yul\":14384:14385   */\n      dup2\n        /* \"#utility.yul\":14380:14390   */\n      add\n        /* \"#utility.yul\":14375:14390   */\n      swap1\n      pop\n        /* \"#utility.yul\":14351:14464   */\n      jump(tag_466)\n    tag_468:\n        /* \"#utility.yul\":14482:14488   */\n      dup4\n        /* \"#utility.yul\":14479:14480   */\n      dup2\n        /* \"#utility.yul\":14476:14489   */\n      gt\n        /* \"#utility.yul\":14473:14574   */\n      iszero\n      tag_469\n      jumpi\n        /* \"#utility.yul\":14562:14563   */\n      0x00\n        /* \"#utility.yul\":14553:14559   */\n      dup5\n        /* \"#utility.yul\":14548:14551   */\n      dup5\n        /* \"#utility.yul\":14544:14560   */\n      add\n        /* \"#utility.yul\":14537:14564   */\n      mstore\n        /* \"#utility.yul\":14473:14574   */\n    tag_469:\n        /* \"#utility.yul\":14322:14580   */\n      pop\n        /* \"#utility.yul\":14273:14580   */\n      pop\n      pop\n      pop\n      jump\t// out\n        /* \"#utility.yul\":14586:14950   */\n    tag_289:\n        /* \"#utility.yul\":14674:14677   */\n      0x00\n        /* \"#utility.yul\":14702:14741   */\n      tag_471\n        /* \"#utility.yul\":14735:14740   */\n      dup3\n        /* \"#utility.yul\":14702:14741   */\n      tag_287\n      jump\t// in\n    tag_471:\n        /* \"#utility.yul\":14757:14828   */\n      tag_472\n        /* \"#utility.yul\":14821:14827   */\n      dup2\n        /* \"#utility.yul\":14816:14819   */\n      dup6\n        /* \"#utility.yul\":14757:14828   */\n      tag_280\n      jump\t// in\n    tag_472:\n        /* \"#utility.yul\":14750:14828   */\n      swap4\n      pop\n        /* \"#utility.yul\":14837:14889   */\n      tag_473\n        /* \"#utility.yul\":14882:14888   */\n      dup2\n        /* \"#utility.yul\":14877:14880   */\n      dup6\n        /* \"#utility.yul\":14870:14874   */\n      0x20\n        /* \"#utility.yul\":14863:14868   */\n      dup7\n        /* \"#utility.yul\":14859:14875   */\n      add\n        /* \"#utility.yul\":14837:14889   */\n      tag_288\n      jump\t// in\n    tag_473:\n        /* \"#utility.yul\":14914:14943   */\n      tag_474\n        /* \"#utility.yul\":14936:14942   */\n      dup2\n        /* \"#utility.yul\":14914:14943   */\n      tag_264\n      jump\t// in\n    tag_474:\n        /* \"#utility.yul\":14909:14912   */\n      dup5\n        /* \"#utility.yul\":14905:14944   */\n      add\n        /* \"#utility.yul\":14898:14944   */\n      swap2\n      pop\n        /* \"#utility.yul\":14678:14950   */\n      pop\n        /* \"#utility.yul\":14586:14950   */\n      swap3\n      swap2\n      pop\n      pop\n      jump\t// out\n        /* \"#utility.yul\":14956:15379   */\n    tag_134:\n        /* \"#utility.yul\":15097:15101   */\n      0x00\n        /* \"#utility.yul\":15135:15137   */\n      0x40\n        /* \"#utility.yul\":15124:15133   */\n      dup3\n        /* \"#utility.yul\":15120:15138   */\n      add\n        /* \"#utility.yul\":15112:15138   */\n      swap1\n      pop\n        /* \"#utility.yul\":15148:15219   */\n      tag_476\n        /* \"#utility.yul\":15216:15217   */\n      0x00\n        /* \"#utility.yul\":15205:15214   */\n      dup4\n        /* \"#utility.yul\":15201:15218   */\n      add\n        /* \"#utility.yul\":15192:15198   */\n      dup6\n        /* \"#utility.yul\":15148:15219   */\n      tag_272\n      jump\t// in\n    tag_476:\n        /* \"#utility.yul\":15266:15275   */\n      dup2\n        /* \"#utility.yul\":15260:15264   */\n      dup2\n        /* \"#utility.yul\":15256:15276   */\n      sub\n        /* \"#utility.yul\":15251:15253   */\n      0x20\n        /* \"#utility.yul\":15240:15249   */\n      dup4\n        /* \"#utility.yul\":15236:15254   */\n      add\n        /* \"#utility.yul\":15229:15277   */\n      mstore\n        /* \"#utility.yul\":15294:15372   */\n      tag_477\n        /* \"#utility.yul\":15367:15371   */\n      dup2\n        /* \"#utility.yul\":15358:15364   */\n      dup5\n        /* \"#utility.yul\":15294:15372   */\n      tag_289\n      jump\t// in\n    tag_477:\n        /* \"#utility.yul\":15286:15372   */\n      swap1\n      pop\n        /* \"#utility.yul\":14956:15379   */\n      swap4\n      swap3\n      pop\n      pop\n      pop\n      jump\t// out\n        /* \"#utility.yul\":15385:15528   */\n    tag_290:\n        /* \"#utility.yul\":15442:15447   */\n      0x00\n        /* \"#utility.yul\":15473:15479   */\n      dup2\n        /* \"#utility.yul\":15467:15480   */\n      mload\n        /* \"#utility.yul\":15458:15480   */\n      swap1\n      pop\n        /* \"#utility.yul\":15489:15522   */\n      tag_479\n        /* \"#utility.yul\":15516:15521   */\n      dup2\n        /* \"#utility.yul\":15489:15522   */\n      tag_247\n      jump\t// in\n    tag_479:\n        /* \"#utility.yul\":15385:15528   */\n      swap3\n      swap2\n      pop\n      pop\n      jump\t// out\n        /* \"#utility.yul\":15534:15885   */\n    tag_138:\n        /* \"#utility.yul\":15604:15610   */\n      0x00\n        /* \"#utility.yul\":15653:15655   */\n      0x20\n        /* \"#utility.yul\":15641:15650   */\n      dup3\n        /* \"#utility.yul\":15632:15639   */\n      dup5\n        /* \"#utility.yul\":15628:15651   */\n      sub\n        /* \"#utility.yul\":15624:15656   */\n      slt\n        /* \"#utility.yul\":15621:15740   */\n      iszero\n      tag_481\n      jumpi\n        /* \"#utility.yul\":15659:15738   */\n      tag_482\n      tag_239\n      jump\t// in\n    tag_482:\n        /* \"#utility.yul\":15621:15740   */\n    tag_481:\n        /* \"#utility.yul\":15779:15780   */\n      0x00\n        /* \"#utility.yul\":15804:15868   */\n      tag_483\n        /* \"#utility.yul\":15860:15867   */\n      dup5\n        /* \"#utility.yul\":15851:15857   */\n      dup3\n        /* \"#utility.yul\":15840:15849   */\n      dup6\n        /* \"#utility.yul\":15836:15858   */\n      add\n        /* \"#utility.yul\":15804:15868   */\n      tag_290\n      jump\t// in\n    tag_483:\n        /* \"#utility.yul\":15794:15868   */\n      swap2\n      pop\n        /* \"#utility.yul\":15750:15878   */\n      pop\n        /* \"#utility.yul\":15534:15885   */\n      swap3\n      swap2\n      pop\n      pop\n      jump\t// out\n        /* \"#utility.yul\":15891:16444   */\n    tag_140:\n        /* \"#utility.yul\":16068:16072   */\n      0x00\n        /* \"#utility.yul\":16106:16109   */\n      0x80\n        /* \"#utility.yul\":16095:16104   */\n      dup3\n        /* \"#utility.yul\":16091:16110   */\n      add\n        /* \"#utility.yul\":16083:16110   */\n      swap1\n      pop\n        /* \"#utility.yul\":16120:16191   */\n      tag_485\n        /* \"#utility.yul\":16188:16189   */\n      0x00\n        /* \"#utility.yul\":16177:16186   */\n      dup4\n        /* \"#utility.yul\":16173:16190   */\n      add\n        /* \"#utility.yul\":16164:16170   */\n      dup8\n        /* \"#utility.yul\":16120:16191   */\n      tag_272\n      jump\t// in\n    tag_485:\n        /* \"#utility.yul\":16201:16273   */\n      tag_486\n        /* \"#utility.yul\":16269:16271   */\n      0x20\n        /* \"#utility.yul\":16258:16267   */\n      dup4\n        /* \"#utility.yul\":16254:16272   */\n      add\n        /* \"#utility.yul\":16245:16251   */\n      dup7\n        /* \"#utility.yul\":16201:16273   */\n      tag_271\n      jump\t// in\n    tag_486:\n        /* \"#utility.yul\":16283:16355   */\n      tag_487\n        /* \"#utility.yul\":16351:16353   */\n      0x40\n        /* \"#utility.yul\":16340:16349   */\n      dup4\n        /* \"#utility.yul\":16336:16354   */\n      add\n        /* \"#utility.yul\":16327:16333   */\n      dup6\n        /* \"#utility.yul\":16283:16355   */\n      tag_272\n      jump\t// in\n    tag_487:\n        /* \"#utility.yul\":16365:16437   */\n      tag_488\n        /* \"#utility.yul\":16433:16435   */\n      0x60\n        /* \"#utility.yul\":16422:16431   */\n      dup4\n        /* \"#utility.yul\":16418:16436   */\n      add\n        /* \"#utility.yul\":16409:16415   */\n      dup5\n        /* \"#utility.yul\":16365:16437   */\n      tag_271\n      jump\t// in\n    tag_488:\n        /* \"#utility.yul\":15891:16444   */\n      swap6\n      swap5\n      pop\n      pop\n      pop\n      pop\n      pop\n      jump\t// out\n        /* \"#utility.yul\":16450:16536   */\n    tag_291:\n        /* \"#utility.yul\":16485:16492   */\n      0x00\n        /* \"#utility.yul\":16525:16529   */\n      0xff\n        /* \"#utility.yul\":16518:16523   */\n      dup3\n        /* \"#utility.yul\":16514:16530   */\n      and\n        /* \"#utility.yul\":16503:16530   */\n      swap1\n      pop\n        /* \"#utility.yul\":16450:16536   */\n      swap2\n      swap1\n      pop\n      jump\t// out\n        /* \"#utility.yul\":16542:16722   */\n    tag_292:\n        /* \"#utility.yul\":16590:16667   */\n      0x4e487b7100000000000000000000000000000000000000000000000000000000\n        /* \"#utility.yul\":16587:16588   */\n      0x00\n        /* \"#utility.yul\":16580:16668   */\n      mstore\n        /* \"#utility.yul\":16687:16691   */\n      0x12\n        /* \"#utility.yul\":16684:16685   */\n      0x04\n        /* \"#utility.yul\":16677:16692   */\n      mstore\n        /* \"#utility.yul\":16711:16715   */\n      0x24\n        /* \"#utility.yul\":16708:16709   */\n      0x00\n        /* \"#utility.yul\":16701:16716   */\n      revert\n        /* \"#utility.yul\":16728:16898   */\n    tag_159:\n        /* \"#utility.yul\":16758:16759   */\n      0x00\n        /* \"#utility.yul\":16775:16793   */\n      tag_492\n        /* \"#utility.yul\":16791:16792   */\n      dup3\n        /* \"#utility.yul\":16775:16793   */\n      tag_291\n      jump\t// in\n    tag_492:\n        /* \"#utility.yul\":16770:16793   */\n      swap2\n      pop\n        /* \"#utility.yul\":16807:16825   */\n      tag_493\n        /* \"#utility.yul\":16823:16824   */\n      dup4\n        /* \"#utility.yul\":16807:16825   */\n      tag_291\n      jump\t// in\n    tag_493:\n        /* \"#utility.yul\":16802:16825   */\n      swap3\n      pop\n        /* \"#utility.yul\":16844:16845   */\n      dup3\n        /* \"#utility.yul\":16834:16869   */\n      tag_494\n      jumpi\n        /* \"#utility.yul\":16849:16867   */\n      tag_495\n      tag_292\n      jump\t// in\n    tag_495:\n        /* \"#utility.yul\":16834:16869   */\n    tag_494:\n        /* \"#utility.yul\":16890:16891   */\n      dup3\n        /* \"#utility.yul\":16887:16888   */\n      dup3\n        /* \"#utility.yul\":16883:16892   */\n      mod\n        /* \"#utility.yul\":16878:16892   */\n      swap1\n      pop\n        /* \"#utility.yul\":16728:16898   */\n      swap3\n      swap2\n      pop\n      pop\n      jump\t// out\n        /* \"#utility.yul\":16904:17084   */\n    tag_293:\n        /* \"#utility.yul\":16952:17029   */\n      0x4e487b7100000000000000000000000000000000000000000000000000000000\n        /* \"#utility.yul\":16949:16950   */\n      0x00\n        /* \"#utility.yul\":16942:17030   */\n      mstore\n        /* \"#utility.yul\":17049:17053   */\n      0x11\n        /* \"#utility.yul\":17046:17047   */\n      0x04\n        /* \"#utility.yul\":17039:17054   */\n      mstore\n        /* \"#utility.yul\":17073:17077   */\n      0x24\n        /* \"#utility.yul\":17070:17071   */\n      0x00\n        /* \"#utility.yul\":17063:17078   */\n      revert\n        /* \"#utility.yul\":17090:17192   */\n    tag_294:\n        /* \"#utility.yul\":17132:17140   */\n      0x00\n        /* \"#utility.yul\":17179:17184   */\n      dup2\n        /* \"#utility.yul\":17176:17177   */\n      0x01\n        /* \"#utility.yul\":17172:17185   */\n      shr\n        /* \"#utility.yul\":17151:17185   */\n      swap1\n      pop\n        /* \"#utility.yul\":17090:17192   */\n      swap2\n      swap1\n      pop\n      jump\t// out\n        /* \"#utility.yul\":17198:18046   */\n    tag_295:\n        /* \"#utility.yul\":17259:17264   */\n      0x00\n        /* \"#utility.yul\":17266:17270   */\n      dup1\n        /* \"#utility.yul\":17290:17296   */\n      dup3\n        /* \"#utility.yul\":17281:17296   */\n      swap2\n      pop\n        /* \"#utility.yul\":17314:17319   */\n      dup4\n        /* \"#utility.yul\":17305:17319   */\n      swap1\n      pop\n        /* \"#utility.yul\":17328:18040   */\n    tag_499:\n        /* \"#utility.yul\":17349:17350   */\n      0x01\n        /* \"#utility.yul\":17339:17347   */\n      dup6\n        /* \"#utility.yul\":17336:17351   */\n      gt\n        /* \"#utility.yul\":17328:18040   */\n      iszero\n      tag_501\n      jumpi\n        /* \"#utility.yul\":17444:17448   */\n      dup1\n        /* \"#utility.yul\":17439:17442   */\n      dup7\n        /* \"#utility.yul\":17435:17449   */\n      div\n        /* \"#utility.yul\":17429:17433   */\n      dup2\n        /* \"#utility.yul\":17426:17450   */\n      gt\n        /* \"#utility.yul\":17423:17473   */\n      iszero\n      tag_502\n      jumpi\n        /* \"#utility.yul\":17453:17471   */\n      tag_503\n      tag_293\n      jump\t// in\n    tag_503:\n        /* \"#utility.yul\":17423:17473   */\n    tag_502:\n        /* \"#utility.yul\":17503:17504   */\n      0x01\n        /* \"#utility.yul\":17493:17501   */\n      dup6\n        /* \"#utility.yul\":17489:17505   */\n      and\n        /* \"#utility.yul\":17486:17937   */\n      iszero\n      tag_504\n      jumpi\n        /* \"#utility.yul\":17918:17922   */\n      dup1\n        /* \"#utility.yul\":17911:17916   */\n      dup3\n        /* \"#utility.yul\":17907:17923   */\n      mul\n        /* \"#utility.yul\":17898:17923   */\n      swap2\n      pop\n        /* \"#utility.yul\":17486:17937   */\n    tag_504:\n        /* \"#utility.yul\":17968:17972   */\n      dup1\n        /* \"#utility.yul\":17962:17966   */\n      dup2\n        /* \"#utility.yul\":17958:17973   */\n      mul\n        /* \"#utility.yul\":17950:17973   */\n      swap1\n      pop\n        /* \"#utility.yul\":17998:18030   */\n      tag_505\n        /* \"#utility.yul\":18021:18029   */\n      dup6\n        /* \"#utility.yul\":17998:18030   */\n      tag_294\n      jump\t// in\n    tag_505:\n        /* \"#utility.yul\":17986:18030   */\n      swap5\n      pop\n        /* \"#utility.yul\":17328:18040   */\n      jump(tag_499)\n    tag_501:\n        /* \"#utility.yul\":17198:18046   */\n      swap5\n      pop\n      swap5\n      swap3\n      pop\n      pop\n      pop\n      jump\t// out\n        /* \"#utility.yul\":18052:19125   */\n    tag_296:\n        /* \"#utility.yul\":18106:18111   */\n      0x00\n        /* \"#utility.yul\":18297:18305   */\n      dup3\n        /* \"#utility.yul\":18287:18327   */\n      tag_507\n      jumpi\n        /* \"#utility.yul\":18318:18319   */\n      0x01\n        /* \"#utility.yul\":18309:18319   */\n      swap1\n      pop\n        /* \"#utility.yul\":18320:18325   */\n      jump(tag_506)\n        /* \"#utility.yul\":18287:18327   */\n    tag_507:\n        /* \"#utility.yul\":18346:18350   */\n      dup2\n        /* \"#utility.yul\":18336:18372   */\n      tag_508\n      jumpi\n        /* \"#utility.yul\":18363:18364   */\n      0x00\n        /* \"#utility.yul\":18354:18364   */\n      swap1\n      pop\n        /* \"#utility.yul\":18365:18370   */\n      jump(tag_506)\n        /* \"#utility.yul\":18336:18372   */\n    tag_508:\n        /* \"#utility.yul\":18432:18436   */\n      dup2\n        /* \"#utility.yul\":18480:18481   */\n      0x01\n        /* \"#utility.yul\":18475:18502   */\n      dup2\n      eq\n      tag_510\n      jumpi\n        /* \"#utility.yul\":18516:18517   */\n      0x02\n        /* \"#utility.yul\":18511:18702   */\n      dup2\n      eq\n      tag_511\n      jumpi\n        /* \"#utility.yul\":18425:18702   */\n      jump(tag_509)\n        /* \"#utility.yul\":18475:18502   */\n    tag_510:\n        /* \"#utility.yul\":18493:18494   */\n      0x01\n        /* \"#utility.yul\":18484:18494   */\n      swap2\n      pop\n        /* \"#utility.yul\":18495:18500   */\n      pop\n      jump(tag_506)\n        /* \"#utility.yul\":18511:18702   */\n    tag_511:\n        /* \"#utility.yul\":18556:18559   */\n      0xff\n        /* \"#utility.yul\":18546:18554   */\n      dup5\n        /* \"#utility.yul\":18543:18560   */\n      gt\n        /* \"#utility.yul\":18540:18583   */\n      iszero\n      tag_512\n      jumpi\n        /* \"#utility.yul\":18563:18581   */\n      tag_513\n      tag_293\n      jump\t// in\n    tag_513:\n        /* \"#utility.yul\":18540:18583   */\n    tag_512:\n        /* \"#utility.yul\":18612:18620   */\n      dup4\n        /* \"#utility.yul\":18609:18610   */\n      0x02\n        /* \"#utility.yul\":18605:18621   */\n      exp\n        /* \"#utility.yul\":18596:18621   */\n      swap2\n      pop\n        /* \"#utility.yul\":18647:18650   */\n      dup5\n        /* \"#utility.yul\":18640:18645   */\n      dup3\n        /* \"#utility.yul\":18637:18651   */\n      gt\n        /* \"#utility.yul\":18634:18674   */\n      iszero\n      tag_514\n      jumpi\n        /* \"#utility.yul\":18654:18672   */\n      tag_515\n      tag_293\n      jump\t// in\n    tag_515:\n        /* \"#utility.yul\":18634:18674   */\n    tag_514:\n        /* \"#utility.yul\":18687:18692   */\n      pop\n      jump(tag_506)\n        /* \"#utility.yul\":18425:18702   */\n    tag_509:\n      pop\n        /* \"#utility.yul\":18811:18813   */\n      0x20\n        /* \"#utility.yul\":18801:18809   */\n      dup4\n        /* \"#utility.yul\":18798:18814   */\n      lt\n        /* \"#utility.yul\":18792:18795   */\n      0x0133\n        /* \"#utility.yul\":18786:18790   */\n      dup4\n        /* \"#utility.yul\":18783:18796   */\n      lt\n        /* \"#utility.yul\":18779:18815   */\n      and\n        /* \"#utility.yul\":18761:18763   */\n      0x4e\n        /* \"#utility.yul\":18751:18759   */\n      dup5\n        /* \"#utility.yul\":18748:18764   */\n      lt\n        /* \"#utility.yul\":18743:18745   */\n      0x0b\n        /* \"#utility.yul\":18737:18741   */\n      dup5\n        /* \"#utility.yul\":18734:18746   */\n      lt\n        /* \"#utility.yul\":18730:18765   */\n      and\n        /* \"#utility.yul\":18714:18825   */\n      or\n        /* \"#utility.yul\":18711:18957   */\n      iszero\n      tag_516\n      jumpi\n        /* \"#utility.yul\":18867:18875   */\n      dup3\n        /* \"#utility.yul\":18861:18865   */\n      dup3\n        /* \"#utility.yul\":18857:18876   */\n      exp\n        /* \"#utility.yul\":18848:18876   */\n      swap1\n      pop\n        /* \"#utility.yul\":18902:18905   */\n      dup4\n        /* \"#utility.yul\":18895:18900   */\n      dup2\n        /* \"#utility.yul\":18892:18906   */\n      gt\n        /* \"#utility.yul\":18889:18929   */\n      iszero\n      tag_517\n      jumpi\n        /* \"#utility.yul\":18909:18927   */\n      tag_518\n      tag_293\n      jump\t// in\n    tag_518:\n        /* \"#utility.yul\":18889:18929   */\n    tag_517:\n        /* \"#utility.yul\":18942:18947   */\n      jump(tag_506)\n        /* \"#utility.yul\":18711:18957   */\n    tag_516:\n        /* \"#utility.yul\":18982:19024   */\n      tag_519\n        /* \"#utility.yul\":19020:19023   */\n      dup5\n        /* \"#utility.yul\":19010:19018   */\n      dup5\n        /* \"#utility.yul\":19004:19008   */\n      dup5\n        /* \"#utility.yul\":19001:19002   */\n      0x01\n        /* \"#utility.yul\":18982:19024   */\n      tag_295\n      jump\t// in\n    tag_519:\n        /* \"#utility.yul\":18967:19024   */\n      swap3\n      pop\n      swap1\n      pop\n        /* \"#utility.yul\":19056:19060   */\n      dup2\n        /* \"#utility.yul\":19051:19054   */\n      dup5\n        /* \"#utility.yul\":19047:19061   */\n      div\n        /* \"#utility.yul\":19040:19045   */\n      dup2\n        /* \"#utility.yul\":19037:19062   */\n      gt\n        /* \"#utility.yul\":19034:19085   */\n      iszero\n      tag_520\n      jumpi\n        /* \"#utility.yul\":19065:19083   */\n      tag_521\n      tag_293\n      jump\t// in\n    tag_521:\n        /* \"#utility.yul\":19034:19085   */\n    tag_520:\n        /* \"#utility.yul\":19114:19118   */\n      dup2\n        /* \"#utility.yul\":19107:19112   */\n      dup2\n        /* \"#utility.yul\":19103:19119   */\n      mul\n        /* \"#utility.yul\":19094:19119   */\n      swap1\n      pop\n        /* \"#utility.yul\":18052:19125   */\n    tag_506:\n      swap4\n      swap3\n      pop\n      pop\n      pop\n      jump\t// out\n        /* \"#utility.yul\":19131:19412   */\n    tag_163:\n        /* \"#utility.yul\":19189:19194   */\n      0x00\n        /* \"#utility.yul\":19213:19236   */\n      tag_523\n        /* \"#utility.yul\":19231:19235   */\n      dup3\n        /* \"#utility.yul\":19213:19236   */\n      tag_246\n      jump\t// in\n    tag_523:\n        /* \"#utility.yul\":19205:19236   */\n      swap2\n      pop\n        /* \"#utility.yul\":19257:19282   */\n      tag_524\n        /* \"#utility.yul\":19273:19281   */\n      dup4\n        /* \"#utility.yul\":19257:19282   */\n      tag_291\n      jump\t// in\n    tag_524:\n        /* \"#utility.yul\":19245:19282   */\n      swap3\n      pop\n        /* \"#utility.yul\":19301:19405   */\n      tag_525\n        /* \"#utility.yul\":19338:19404   */\n      0xffffffffffffffffffffffffffffffffffffffffffffffffffffffffffffffff\n        /* \"#utility.yul\":19328:19336   */\n      dup5\n        /* \"#utility.yul\":19322:19326   */\n      dup5\n        /* \"#utility.yul\":19301:19405   */\n      tag_296\n      jump\t// in\n    tag_525:\n        /* \"#utility.yul\":19292:19405   */\n      swap1\n      pop\n        /* \"#utility.yul\":19131:19412   */\n      swap3\n      swap2\n      pop\n      pop\n      jump\t// out\n        /* \"#utility.yul\":19418:19598   */\n    tag_166:\n        /* \"#utility.yul\":19466:19543   */\n      0x4e487b7100000000000000000000000000000000000000000000000000000000\n        /* \"#utility.yul\":19463:19464   */\n      0x00\n        /* \"#utility.yul\":19456:19544   */\n      mstore\n        /* \"#utility.yul\":19563:19567   */\n      0x32\n        /* \"#utility.yul\":19560:19561   */\n      0x04\n        /* \"#utility.yul\":19553:19568   */\n      mstore\n        /* \"#utility.yul\":19587:19591   */\n      0x24\n        /* \"#utility.yul\":19584:19585   */\n      0x00\n        /* \"#utility.yul\":19577:19592   */\n      revert\n        /* \"#utility.yul\":19604:19952   */\n    tag_168:\n        /* \"#utility.yul\":19644:19651   */\n      0x00\n        /* \"#utility.yul\":19667:19687   */\n      tag_528\n        /* \"#utility.yul\":19685:19686   */\n      dup3\n        /* \"#utility.yul\":19667:19687   */\n      tag_246\n      jump\t// in\n    tag_528:\n        /* \"#utility.yul\":19662:19687   */\n      swap2\n      pop\n        /* \"#utility.yul\":19701:19721   */\n      tag_529\n        /* \"#utility.yul\":19719:19720   */\n      dup4\n        /* \"#utility.yul\":19701:19721   */\n      tag_246\n      jump\t// in\n    tag_529:\n        /* \"#utility.yul\":19696:19721   */\n      swap3\n      pop\n        /* \"#utility.yul\":19889:19890   */\n      dup2\n        /* \"#utility.yul\":19821:19887   */\n      0xffffffffffffffffffffffffffffffffffffffffffffffffffffffffffffffff\n        /* \"#utility.yul\":19817:19891   */\n      div\n        /* \"#utility.yul\":19814:19815   */\n      dup4\n        /* \"#utility.yul\":19811:19892   */\n      gt\n        /* \"#utility.yul\":19806:19807   */\n      dup3\n        /* \"#utility.yul\":19799:19808   */\n      iszero\n        /* \"#utility.yul\":19792:19809   */\n      iszero\n        /* \"#utility.yul\":19788:19893   */\n      and\n        /* \"#utility.yul\":19785:19916   */\n      iszero\n      tag_530\n      jumpi\n        /* \"#utility.yul\":19896:19914   */\n      tag_531\n      tag_293\n      jump\t// in\n    tag_531:\n        /* \"#utility.yul\":19785:19916   */\n    tag_530:\n        /* \"#utility.yul\":19944:19945   */\n      dup3\n        /* \"#utility.yul\":19941:19942   */\n      dup3\n        /* \"#utility.yul\":19937:19946   */\n      mul\n        /* \"#utility.yul\":19926:19946   */\n      swap1\n      pop\n        /* \"#utility.yul\":19604:19952   */\n      swap3\n      swap2\n      pop\n      pop\n      jump\t// out\n        /* \"#utility.yul\":19958:20137   */\n    tag_170:\n        /* \"#utility.yul\":19996:19997   */\n      0x00\n        /* \"#utility.yul\":20013:20031   */\n      tag_533\n        /* \"#utility.yul\":20029:20030   */\n      dup3\n        /* \"#utility.yul\":20013:20031   */\n      tag_291\n      jump\t// in\n    tag_533:\n        /* \"#utility.yul\":20008:20031   */\n      swap2\n      pop\n        /* \"#utility.yul\":20045:20063   */\n      tag_534\n        /* \"#utility.yul\":20061:20062   */\n      dup4\n        /* \"#utility.yul\":20045:20063   */\n      tag_291\n      jump\t// in\n    tag_534:\n        /* \"#utility.yul\":20040:20063   */\n      swap3\n      pop\n        /* \"#utility.yul\":20082:20083   */\n      dup3\n        /* \"#utility.yul\":20072:20107   */\n      tag_535\n      jumpi\n        /* \"#utility.yul\":20087:20105   */\n      tag_536\n      tag_292\n      jump\t// in\n    tag_536:\n        /* \"#utility.yul\":20072:20107   */\n    tag_535:\n        /* \"#utility.yul\":20129:20130   */\n      dup3\n        /* \"#utility.yul\":20126:20127   */\n      dup3\n        /* \"#utility.yul\":20122:20131   */\n      div\n        /* \"#utility.yul\":20117:20131   */\n      swap1\n      pop\n        /* \"#utility.yul\":19958:20137   */\n      swap3\n      swap2\n      pop\n      pop\n      jump\t// out\n        /* \"#utility.yul\":20143:20448   */\n    tag_174:\n        /* \"#utility.yul\":20183:20186   */\n      0x00\n        /* \"#utility.yul\":20202:20222   */\n      tag_538\n        /* \"#utility.yul\":20220:20221   */\n      dup3\n        /* \"#utility.yul\":20202:20222   */\n      tag_246\n      jump\t// in\n    tag_538:\n        /* \"#utility.yul\":20197:20222   */\n      swap2\n      pop\n        /* \"#utility.yul\":20236:20256   */\n      tag_539\n        /* \"#utility.yul\":20254:20255   */\n      dup4\n        /* \"#utility.yul\":20236:20256   */\n      tag_246\n      jump\t// in\n    tag_539:\n        /* \"#utility.yul\":20231:20256   */\n      swap3\n      pop\n        /* \"#utility.yul\":20390:20391   */\n      dup3\n        /* \"#utility.yul\":20322:20388   */\n      0xffffffffffffffffffffffffffffffffffffffffffffffffffffffffffffffff\n        /* \"#utility.yul\":20318:20392   */\n      sub\n        /* \"#utility.yul\":20315:20316   */\n      dup3\n        /* \"#utility.yul\":20312:20393   */\n      gt\n        /* \"#utility.yul\":20309:20416   */\n      iszero\n      tag_540\n      jumpi\n        /* \"#utility.yul\":20396:20414   */\n      tag_541\n      tag_293\n      jump\t// in\n    tag_541:\n        /* \"#utility.yul\":20309:20416   */\n    tag_540:\n        /* \"#utility.yul\":20440:20441   */\n      dup3\n        /* \"#utility.yul\":20437:20438   */\n      dup3\n        /* \"#utility.yul\":20433:20442   */\n      add\n        /* \"#utility.yul\":20426:20442   */\n      swap1\n      pop\n        /* \"#utility.yul\":20143:20448   */\n      swap3\n      swap2\n      pop\n      pop\n      jump\t// out\n        /* \"#utility.yul\":20454:20621   */\n    tag_179:\n        /* \"#utility.yul\":20491:20494   */\n      0x00\n        /* \"#utility.yul\":20514:20536   */\n      tag_543\n        /* \"#utility.yul\":20530:20535   */\n      dup3\n        /* \"#utility.yul\":20514:20536   */\n      tag_291\n      jump\t// in\n    tag_543:\n        /* \"#utility.yul\":20505:20536   */\n      swap2\n      pop\n        /* \"#utility.yul\":20558:20562   */\n      0xff\n        /* \"#utility.yul\":20551:20556   */\n      dup3\n        /* \"#utility.yul\":20548:20563   */\n      sub\n        /* \"#utility.yul\":20545:20586   */\n      tag_544\n      jumpi\n        /* \"#utility.yul\":20566:20584   */\n      tag_545\n      tag_293\n      jump\t// in\n    tag_545:\n        /* \"#utility.yul\":20545:20586   */\n    tag_544:\n        /* \"#utility.yul\":20613:20614   */\n      0x01\n        /* \"#utility.yul\":20606:20611   */\n      dup3\n        /* \"#utility.yul\":20602:20615   */\n      add\n        /* \"#utility.yul\":20595:20615   */\n      swap1\n      pop\n        /* \"#utility.yul\":20454:20621   */\n      swap2\n      swap1\n      pop\n      jump\t// out\n        /* \"#utility.yul\":20627:20959   */\n    tag_189:\n        /* \"#utility.yul\":20748:20752   */\n      0x00\n        /* \"#utility.yul\":20786:20788   */\n      0x40\n        /* \"#utility.yul\":20775:20784   */\n      dup3\n        /* \"#utility.yul\":20771:20789   */\n      add\n        /* \"#utility.yul\":20763:20789   */\n      swap1\n      pop\n        /* \"#utility.yul\":20799:20870   */\n      tag_547\n        /* \"#utility.yul\":20867:20868   */\n      0x00\n        /* \"#utility.yul\":20856:20865   */\n      dup4\n        /* \"#utility.yul\":20852:20869   */\n      add\n        /* \"#utility.yul\":20843:20849   */\n      dup6\n        /* \"#utility.yul\":20799:20870   */\n      tag_272\n      jump\t// in\n    tag_547:\n        /* \"#utility.yul\":20880:20952   */\n      tag_548\n        /* \"#utility.yul\":20948:20950   */\n      0x20\n        /* \"#utility.yul\":20937:20946   */\n      dup4\n        /* \"#utility.yul\":20933:20951   */\n      add\n        /* \"#utility.yul\":20924:20930   */\n      dup5\n        /* \"#utility.yul\":20880:20952   */\n      tag_271\n      jump\t// in\n    tag_548:\n        /* \"#utility.yul\":20627:20959   */\n      swap4\n      swap3\n      pop\n      pop\n      pop\n      jump\t// out\n        /* \"#utility.yul\":20965:21113   */\n    tag_297:\n        /* \"#utility.yul\":21067:21078   */\n      0x00\n        /* \"#utility.yul\":21104:21107   */\n      dup2\n        /* \"#utility.yul\":21089:21107   */\n      swap1\n      pop\n        /* \"#utility.yul\":20965:21113   */\n      swap3\n      swap2\n      pop\n      pop\n      jump\t// out\n        /* \"#utility.yul\":21119:21292   */\n    tag_298:\n        /* \"#utility.yul\":21259:21284   */\n      0x416363657373436f6e74726f6c3a206163636f756e7420000000000000000000\n        /* \"#utility.yul\":21255:21256   */\n      0x00\n        /* \"#utility.yul\":21247:21253   */\n      dup3\n        /* \"#utility.yul\":21243:21257   */\n      add\n        /* \"#utility.yul\":21236:21285   */\n      mstore\n        /* \"#utility.yul\":21119:21292   */\n      pop\n      jump\t// out\n        /* \"#utility.yul\":21298:21700   */\n    tag_299:\n        /* \"#utility.yul\":21458:21461   */\n      0x00\n        /* \"#utility.yul\":21479:21564   */\n      tag_552\n        /* \"#utility.yul\":21561:21563   */\n      0x17\n        /* \"#utility.yul\":21556:21559   */\n      dup4\n        /* \"#utility.yul\":21479:21564   */\n      tag_297\n      jump\t// in\n    tag_552:\n        /* \"#utility.yul\":21472:21564   */\n      swap2\n      pop\n        /* \"#utility.yul\":21573:21666   */\n      tag_553\n        /* \"#utility.yul\":21662:21665   */\n      dup3\n        /* \"#utility.yul\":21573:21666   */\n      tag_298\n      jump\t// in\n    tag_553:\n        /* \"#utility.yul\":21691:21693   */\n      0x17\n        /* \"#utility.yul\":21686:21689   */\n      dup3\n        /* \"#utility.yul\":21682:21694   */\n      add\n        /* \"#utility.yul\":21675:21694   */\n      swap1\n      pop\n        /* \"#utility.yul\":21298:21700   */\n      swap2\n      swap1\n      pop\n      jump\t// out\n        /* \"#utility.yul\":21706:22083   */\n    tag_300:\n        /* \"#utility.yul\":21812:21815   */\n      0x00\n        /* \"#utility.yul\":21840:21879   */\n      tag_555\n        /* \"#utility.yul\":21873:21878   */\n      dup3\n        /* \"#utility.yul\":21840:21879   */\n      tag_287\n      jump\t// in\n    tag_555:\n        /* \"#utility.yul\":21895:21984   */\n      tag_556\n        /* \"#utility.yul\":21977:21983   */\n      dup2\n        /* \"#utility.yul\":21972:21975   */\n      dup6\n        /* \"#utility.yul\":21895:21984   */\n      tag_297\n      jump\t// in\n    tag_556:\n        /* \"#utility.yul\":21888:21984   */\n      swap4\n      pop\n        /* \"#utility.yul\":21993:22045   */\n      tag_557\n        /* \"#utility.yul\":22038:22044   */\n      dup2\n        /* \"#utility.yul\":22033:22036   */\n      dup6\n        /* \"#utility.yul\":22026:22030   */\n      0x20\n        /* \"#utility.yul\":22019:22024   */\n      dup7\n        /* \"#utility.yul\":22015:22031   */\n      add\n        /* \"#utility.yul\":21993:22045   */\n      tag_288\n      jump\t// in\n    tag_557:\n        /* \"#utility.yul\":22070:22076   */\n      dup1\n        /* \"#utility.yul\":22065:22068   */\n      dup5\n        /* \"#utility.yul\":22061:22077   */\n      add\n        /* \"#utility.yul\":22054:22077   */\n      swap2\n      pop\n        /* \"#utility.yul\":21816:22083   */\n      pop\n        /* \"#utility.yul\":21706:22083   */\n      swap3\n      swap2\n      pop\n      pop\n      jump\t// out\n        /* \"#utility.yul\":22089:22256   */\n    tag_301:\n        /* \"#utility.yul\":22229:22248   */\n      0x206973206d697373696e6720726f6c6520000000000000000000000000000000\n        /* \"#utility.yul\":22225:22226   */\n      0x00\n        /* \"#utility.yul\":22217:22223   */\n      dup3\n        /* \"#utility.yul\":22213:22227   */\n      add\n        /* \"#utility.yul\":22206:22249   */\n      mstore\n        /* \"#utility.yul\":22089:22256   */\n      pop\n      jump\t// out\n        /* \"#utility.yul\":22262:22664   */\n    tag_302:\n        /* \"#utility.yul\":22422:22425   */\n      0x00\n        /* \"#utility.yul\":22443:22528   */\n      tag_560\n        /* \"#utility.yul\":22525:22527   */\n      0x11\n        /* \"#utility.yul\":22520:22523   */\n      dup4\n        /* \"#utility.yul\":22443:22528   */\n      tag_297\n      jump\t// in\n    tag_560:\n        /* \"#utility.yul\":22436:22528   */\n      swap2\n      pop\n        /* \"#utility.yul\":22537:22630   */\n      tag_561\n        /* \"#utility.yul\":22626:22629   */\n      dup3\n        /* \"#utility.yul\":22537:22630   */\n      tag_301\n      jump\t// in\n    tag_561:\n        /* \"#utility.yul\":22655:22657   */\n      0x11\n        /* \"#utility.yul\":22650:22653   */\n      dup3\n        /* \"#utility.yul\":22646:22658   */\n      add\n        /* \"#utility.yul\":22639:22658   */\n      swap1\n      pop\n        /* \"#utility.yul\":22262:22664   */\n      swap2\n      swap1\n      pop\n      jump\t// out\n        /* \"#utility.yul\":22670:23637   */\n    tag_202:\n        /* \"#utility.yul\":23052:23055   */\n      0x00\n        /* \"#utility.yul\":23074:23222   */\n      tag_563\n        /* \"#utility.yul\":23218:23221   */\n      dup3\n        /* \"#utility.yul\":23074:23222   */\n      tag_299\n      jump\t// in\n    tag_563:\n        /* \"#utility.yul\":23067:23222   */\n      swap2\n      pop\n        /* \"#utility.yul\":23239:23334   */\n      tag_564\n        /* \"#utility.yul\":23330:23333   */\n      dup3\n        /* \"#utility.yul\":23321:23327   */\n      dup6\n        /* \"#utility.yul\":23239:23334   */\n      tag_300\n      jump\t// in\n    tag_564:\n        /* \"#utility.yul\":23232:23334   */\n      swap2\n      pop\n        /* \"#utility.yul\":23351:23499   */\n      tag_565\n        /* \"#utility.yul\":23495:23498   */\n      dup3\n        /* \"#utility.yul\":23351:23499   */\n      tag_302\n      jump\t// in\n    tag_565:\n        /* \"#utility.yul\":23344:23499   */\n      swap2\n      pop\n        /* \"#utility.yul\":23516:23611   */\n      tag_566\n        /* \"#utility.yul\":23607:23610   */\n      dup3\n        /* \"#utility.yul\":23598:23604   */\n      dup5\n        /* \"#utility.yul\":23516:23611   */\n      tag_300\n      jump\t// in\n    tag_566:\n        /* \"#utility.yul\":23509:23611   */\n      swap2\n      pop\n        /* \"#utility.yul\":23628:23631   */\n      dup2\n        /* \"#utility.yul\":23621:23631   */\n      swap1\n      pop\n        /* \"#utility.yul\":22670:23637   */\n      swap4\n      swap3\n      pop\n      pop\n      pop\n      jump\t// out\n        /* \"#utility.yul\":23643:23956   */\n    tag_204:\n        /* \"#utility.yul\":23756:23760   */\n      0x00\n        /* \"#utility.yul\":23794:23796   */\n      0x20\n        /* \"#utility.yul\":23783:23792   */\n      dup3\n        /* \"#utility.yul\":23779:23797   */\n      add\n        /* \"#utility.yul\":23771:23797   */\n      swap1\n      pop\n        /* \"#utility.yul\":23843:23852   */\n      dup2\n        /* \"#utility.yul\":23837:23841   */\n      dup2\n        /* \"#utility.yul\":23833:23853   */\n      sub\n        /* \"#utility.yul\":23829:23830   */\n      0x00\n        /* \"#utility.yul\":23818:23827   */\n      dup4\n        /* \"#utility.yul\":23814:23831   */\n      add\n        /* \"#utility.yul\":23807:23854   */\n      mstore\n        /* \"#utility.yul\":23871:23949   */\n      tag_568\n        /* \"#utility.yul\":23944:23948   */\n      dup2\n        /* \"#utility.yul\":23935:23941   */\n      dup5\n        /* \"#utility.yul\":23871:23949   */\n      tag_289\n      jump\t// in\n    tag_568:\n        /* \"#utility.yul\":23863:23949   */\n      swap1\n      pop\n        /* \"#utility.yul\":23643:23956   */\n      swap3\n      swap2\n      pop\n      pop\n      jump\t// out\n        /* \"#utility.yul\":23962:24133   */\n    tag_234:\n        /* \"#utility.yul\":24001:24004   */\n      0x00\n        /* \"#utility.yul\":24024:24048   */\n      tag_570\n        /* \"#utility.yul\":24042:24047   */\n      dup3\n        /* \"#utility.yul\":24024:24048   */\n      tag_246\n      jump\t// in\n    tag_570:\n        /* \"#utility.yul\":24015:24048   */\n      swap2\n      pop\n        /* \"#utility.yul\":24070:24074   */\n      0x00\n        /* \"#utility.yul\":24063:24068   */\n      dup3\n        /* \"#utility.yul\":24060:24075   */\n      sub\n        /* \"#utility.yul\":24057:24098   */\n      tag_571\n      jumpi\n        /* \"#utility.yul\":24078:24096   */\n      tag_572\n      tag_293\n      jump\t// in\n    tag_572:\n        /* \"#utility.yul\":24057:24098   */\n    tag_571:\n        /* \"#utility.yul\":24125:24126   */\n      0x01\n        /* \"#utility.yul\":24118:24123   */\n      dup3\n        /* \"#utility.yul\":24114:24127   */\n      sub\n        /* \"#utility.yul\":24107:24127   */\n      swap1\n      pop\n        /* \"#utility.yul\":23962:24133   */\n      swap2\n      swap1\n      pop\n      jump\t// out\n        /* \"#utility.yul\":24139:24321   */\n    tag_303:\n        /* \"#utility.yul\":24279:24313   */\n      0x537472696e67733a20686578206c656e67746820696e73756666696369656e74\n        /* \"#utility.yul\":24275:24276   */\n      0x00\n        /* \"#utility.yul\":24267:24273   */\n      dup3\n        /* \"#utility.yul\":24263:24277   */\n      add\n        /* \"#utility.yul\":24256:24314   */\n      mstore\n        /* \"#utility.yul\":24139:24321   */\n      pop\n      jump\t// out\n        /* \"#utility.yul\":24327:24693   */\n    tag_304:\n        /* \"#utility.yul\":24469:24472   */\n      0x00\n        /* \"#utility.yul\":24490:24557   */\n      tag_575\n        /* \"#utility.yul\":24554:24556   */\n      0x20\n        /* \"#utility.yul\":24549:24552   */\n      dup4\n        /* \"#utility.yul\":24490:24557   */\n      tag_280\n      jump\t// in\n    tag_575:\n        /* \"#utility.yul\":24483:24557   */\n      swap2\n      pop\n        /* \"#utility.yul\":24566:24659   */\n      tag_576\n        /* \"#utility.yul\":24655:24658   */\n      dup3\n        /* \"#utility.yul\":24566:24659   */\n      tag_303\n      jump\t// in\n    tag_576:\n        /* \"#utility.yul\":24684:24686   */\n      0x20\n        /* \"#utility.yul\":24679:24682   */\n      dup3\n        /* \"#utility.yul\":24675:24687   */\n      add\n        /* \"#utility.yul\":24668:24687   */\n      swap1\n      pop\n        /* \"#utility.yul\":24327:24693   */\n      swap2\n      swap1\n      pop\n      jump\t// out\n        /* \"#utility.yul\":24699:25118   */\n    tag_237:\n        /* \"#utility.yul\":24865:24869   */\n      0x00\n        /* \"#utility.yul\":24903:24905   */\n      0x20\n        /* \"#utility.yul\":24892:24901   */\n      dup3\n        /* \"#utility.yul\":24888:24906   */\n      add\n        /* \"#utility.yul\":24880:24906   */\n      swap1\n      pop\n        /* \"#utility.yul\":24952:24961   */\n      dup2\n        /* \"#utility.yul\":24946:24950   */\n      dup2\n        /* \"#utility.yul\":24942:24962   */\n      sub\n        /* \"#utility.yul\":24938:24939   */\n      0x00\n        /* \"#utility.yul\":24927:24936   */\n      dup4\n        /* \"#utility.yul\":24923:24940   */\n      add\n        /* \"#utility.yul\":24916:24963   */\n      mstore\n        /* \"#utility.yul\":24980:25111   */\n      tag_578\n        /* \"#utility.yul\":25106:25110   */\n      dup2\n        /* \"#utility.yul\":24980:25111   */\n      tag_304\n      jump\t// in\n    tag_578:\n        /* \"#utility.yul\":24972:25111   */\n      swap1\n      pop\n        /* \"#utility.yul\":24699:25118   */\n      swap2\n      swap1\n      pop\n      jump\t// out\n\n    auxdata: 0xa2646970667358221220073d8ebd9969f34f36d43d7d5a1b5f9435296db7326ade07f0a6b7544a171d8964736f6c634300080d0033\n}\n",
				"bytecode": {
					"linkReferences": {},
					"object": "608060405268056bc75e2d631000006004553480156200001e57600080fd5b50604051620021f3380380620021f3833981810160405281019062000044919062000313565b60008060006101000a81548160ff02191690831515021790555081600260006101000a81548173ffffffffffffffffffffffffffffffffffffffff021916908373ffffffffffffffffffffffffffffffffffffffff16021790555080600360006101000a81548173ffffffffffffffffffffffffffffffffffffffff021916908373ffffffffffffffffffffffffffffffffffffffff160217905550620000f56000801b336200012f60201b60201c565b620001277f65d7a28e3265b37a6474929f336521b332c1681b933f6cb9f3376673440d862a336200012f60201b60201c565b50506200035a565b6200014182826200014560201b60201c565b5050565b6200015782826200023660201b60201c565b6200023257600180600084815260200190815260200160002060000160008373ffffffffffffffffffffffffffffffffffffffff1673ffffffffffffffffffffffffffffffffffffffff16815260200190815260200160002060006101000a81548160ff021916908315150217905550620001d7620002a160201b60201c565b73ffffffffffffffffffffffffffffffffffffffff168173ffffffffffffffffffffffffffffffffffffffff16837f2f8788117e7eff1d82e926ec794901d17c78024a50270940304540a733656f0d60405160405180910390a45b5050565b60006001600084815260200190815260200160002060000160008373ffffffffffffffffffffffffffffffffffffffff1673ffffffffffffffffffffffffffffffffffffffff16815260200190815260200160002060009054906101000a900460ff16905092915050565b600033905090565b600080fd5b600073ffffffffffffffffffffffffffffffffffffffff82169050919050565b6000620002db82620002ae565b9050919050565b620002ed81620002ce565b8114620002f957600080fd5b50565b6000815190506200030d81620002e2565b92915050565b600080604083850312156200032d576200032c620002a9565b5b60006200033d85828601620002fc565b92505060206200035085828601620002fc565b9150509250929050565b611e89806200036a6000396000f3fe608060405234801561001057600080fd5b506004361061010b5760003560e01c806391d14854116100a2578063d547741f11610071578063d547741f146102b8578063dd23faf3146102d4578063e63ab1e914610304578063f3fef3a314610322578063f400fde41461033e5761010b565b806391d1485414610230578063945099bc14610260578063a217fddf1461027c578063c60982561461029a5761010b565b806336568abe116100de57806336568abe146101a857806352c6159f146101c45780635c975abb146101e2578063841acc5d146102005761010b565b806301ffc9a7146101105780630a1ac65714610140578063248a9ca31461015c5780632f2ff15d1461018c575b600080fd5b61012a600480360381019061012591906110f0565b61035c565b6040516101379190611138565b60405180910390f35b61015a60048036038101906101559190611189565b6103d6565b005b610176600480360381019061017191906111ec565b61049d565b6040516101839190611228565b60405180910390f35b6101a660048036038101906101a191906112a1565b6104bd565b005b6101c260048036038101906101bd91906112a1565b6104e6565b005b6101cc610569565b6040516101d99190611340565b60405180910390f35b6101ea61058f565b6040516101f79190611138565b60405180910390f35b61021a600480360381019061021591906114a1565b6105a5565b60405161022791906114f9565b60405180910390f35b61024a600480360381019061024591906112a1565b610809565b6040516102579190611138565b60405180910390f35b61027a60048036038101906102759190611514565b610874565b005b6102846108d6565b6040516102919190611228565b60405180910390f35b6102a26108dd565b6040516102af9190611563565b60405180910390f35b6102d260048036038101906102cd91906112a1565b610903565b005b6102ee60048036038101906102e991906111ec565b61092c565b6040516102fb9190611629565b60405180910390f35b61030c610a10565b6040516103199190611228565b60405180910390f35b61033c60048036038101906103379190611514565b610a34565b005b610346610b4e565b60405161035391906114f9565b60405180910390f35b60007f7965db0b000000000000000000000000000000000000000000000000000000007bffffffffffffffffffffffffffffffffffffffffffffffffffffffff1916827bffffffffffffffffffffffffffffffffffffffffffffffffffffffff191614806103cf57506103ce82610b54565b5b9050919050565b600260009054906101000a900473ffffffffffffffffffffffffffffffffffffffff1673ffffffffffffffffffffffffffffffffffffffff166342966c68826040518263ffffffff1660e01b815260040161043191906114f9565b600060405180830381600087803b15801561044b57600080fd5b505af115801561045f573d6000803e3d6000fd5b505050507f950dcd4a7087bbf2cee08268e1b26ac45fb310d3ae443d0fe53714b713da45c18160405161049291906114f9565b60405180910390a150565b600060016000838152602001908152602001600020600101549050919050565b6104c68261049d565b6104d7816104d2610bbe565b610bc6565b6104e18383610c63565b505050565b6104ee610bbe565b73ffffffffffffffffffffffffffffffffffffffff168173ffffffffffffffffffffffffffffffffffffffff161461055b576040517f08c379a0000000000000000000000000000000000000000000000000000000008152600401610552906116c8565b60405180910390fd5b6105658282610d43565b5050565b600260009054906101000a900473ffffffffffffffffffffffffffffffffffffffff1681565b60008060009054906101000a900460ff16905090565b60006105af61058f565b156105ef576040517f08c379a00000000000000000000000000000000000000000000000000000000081526004016105e690611734565b60405180910390fd5b60006004541180156106505750600073ffffffffffffffffffffffffffffffffffffffff16600360009054906101000a900473ffffffffffffffffffffffffffffffffffffffff1673ffffffffffffffffffffffffffffffffffffffff1614155b156106fb57600360009054906101000a900473ffffffffffffffffffffffffffffffffffffffff1673ffffffffffffffffffffffffffffffffffffffff166323b872dd33306004546040518463ffffffff1660e01b81526004016106b693929190611754565b6020604051808303816000875af11580156106d5573d6000803e3d6000fd5b505050506040513d601f19601f820116820180604052508101906106f991906117b7565b505b6000600260009054906101000a900473ffffffffffffffffffffffffffffffffffffffff1673ffffffffffffffffffffffffffffffffffffffff1663d204c45e33856040518363ffffffff1660e01b815260040161075a92919061185b565b6020604051808303816000875af1158015610779573d6000803e3d6000fd5b505050506040513d601f19601f8201168201806040525081019061079d91906118a0565b90507f9e6e3acb506bf1d2adb1d8565252e575763ee07d1debfcc2c830682895b3137d3382600360009054906101000a900473ffffffffffffffffffffffffffffffffffffffff166004546040516107f894939291906118cd565b60405180910390a180915050919050565b60006001600084815260200190815260200160002060000160008373ffffffffffffffffffffffffffffffffffffffff1673ffffffffffffffffffffffffffffffffffffffff16815260200190815260200160002060009054906101000a900460ff16905092915050565b6000801b61088981610884610bbe565b610bc6565b82600360006101000a81548173ffffffffffffffffffffffffffffffffffffffff021916908373ffffffffffffffffffffffffffffffffffffffff16021790555081600481905550505050565b6000801b81565b600360009054906101000a900473ffffffffffffffffffffffffffffffffffffffff1681565b61090c8261049d565b61091d81610918610bbe565b610bc6565b6109278383610d43565b505050565b610934611061565b60005b60208160ff161015610a0a576000600282610952919061194e565b60ff1614610961576000610964565b60015b6101006109719190611ae1565b838260ff166020811061098757610986611b2c565b5b1a60f81b60f81c60ff1661099b9190611b5b565b826002836109a99190611bb5565b60ff16601081106109bd576109bc611b2c565b5b60200201516109cc9190611be6565b826002836109da9190611bb5565b60ff16601081106109ee576109ed611b2c565b5b6020020181815250508080610a0290611c3c565b915050610937565b50919050565b7f65d7a28e3265b37a6474929f336521b332c1681b933f6cb9f3376673440d862a81565b6000801b610a4981610a44610bbe565b610bc6565b600073ffffffffffffffffffffffffffffffffffffffff168373ffffffffffffffffffffffffffffffffffffffff1603610ac9573373ffffffffffffffffffffffffffffffffffffffff166108fc839081150290604051600060405180830381858888f19350505050158015610ac3573d6000803e3d6000fd5b50610b49565b8273ffffffffffffffffffffffffffffffffffffffff1663a9059cbb33846040518363ffffffff1660e01b8152600401610b04929190611c65565b6020604051808303816000875af1158015610b23573d6000803e3d6000fd5b505050506040513d601f19601f82011682018060405250810190610b4791906117b7565b505b505050565b60045481565b60007f01ffc9a7000000000000000000000000000000000000000000000000000000007bffffffffffffffffffffffffffffffffffffffffffffffffffffffff1916827bffffffffffffffffffffffffffffffffffffffffffffffffffffffff1916149050919050565b600033905090565b610bd08282610809565b610c5f57610bf58173ffffffffffffffffffffffffffffffffffffffff166014610e25565b610c038360001c6020610e25565b604051602001610c14929190611d62565b6040516020818303038152906040526040517f08c379a0000000000000000000000000000000000000000000000000000000008152600401610c569190611d9c565b60405180910390fd5b5050565b610c6d8282610809565b610d3f57600180600084815260200190815260200160002060000160008373ffffffffffffffffffffffffffffffffffffffff1673ffffffffffffffffffffffffffffffffffffffff16815260200190815260200160002060006101000a81548160ff021916908315150217905550610ce4610bbe565b73ffffffffffffffffffffffffffffffffffffffff168173ffffffffffffffffffffffffffffffffffffffff16837f2f8788117e7eff1d82e926ec794901d17c78024a50270940304540a733656f0d60405160405180910390a45b5050565b610d4d8282610809565b15610e215760006001600084815260200190815260200160002060000160008373ffffffffffffffffffffffffffffffffffffffff1673ffffffffffffffffffffffffffffffffffffffff16815260200190815260200160002060006101000a81548160ff021916908315150217905550610dc6610bbe565b73ffffffffffffffffffffffffffffffffffffffff168173ffffffffffffffffffffffffffffffffffffffff16837ff6391f5c32d9c69d2a47ea670b442974b53935d1edc7fd64eb21e047a839171b60405160405180910390a45b5050565b606060006002836002610e389190611b5b565b610e429190611be6565b67ffffffffffffffff811115610e5b57610e5a611376565b5b6040519080825280601f01601f191660200182016040528015610e8d5781602001600182028036833780820191505090505b5090507f300000000000000000000000000000000000000000000000000000000000000081600081518110610ec557610ec4611b2c565b5b60200101907effffffffffffffffffffffffffffffffffffffffffffffffffffffffffffff1916908160001a9053507f780000000000000000000000000000000000000000000000000000000000000081600181518110610f2957610f28611b2c565b5b60200101907effffffffffffffffffffffffffffffffffffffffffffffffffffffffffffff1916908160001a90535060006001846002610f699190611b5b565b610f739190611be6565b90505b6001811115611013577f3031323334353637383961626364656600000000000000000000000000000000600f861660108110610fb557610fb4611b2c565b5b1a60f81b828281518110610fcc57610fcb611b2c565b5b60200101907effffffffffffffffffffffffffffffffffffffffffffffffffffffffffffff1916908160001a905350600485901c94508061100c90611dbe565b9050610f76565b5060008414611057576040517f08c379a000000000000000000000000000000000000000000000000000000000815260040161104e90611e33565b60405180910390fd5b8091505092915050565b604051806102000160405280601090602082028036833780820191505090505090565b6000604051905090565b600080fd5b600080fd5b60007fffffffff0000000000000000000000000000000000000000000000000000000082169050919050565b6110cd81611098565b81146110d857600080fd5b50565b6000813590506110ea816110c4565b92915050565b6000602082840312156111065761110561108e565b5b6000611114848285016110db565b91505092915050565b60008115159050919050565b6111328161111d565b82525050565b600060208201905061114d6000830184611129565b92915050565b6000819050919050565b61116681611153565b811461117157600080fd5b50565b6000813590506111838161115d565b92915050565b60006020828403121561119f5761119e61108e565b5b60006111ad84828501611174565b91505092915050565b6000819050919050565b6111c9816111b6565b81146111d457600080fd5b50565b6000813590506111e6816111c0565b92915050565b6000602082840312156112025761120161108e565b5b6000611210848285016111d7565b91505092915050565b611222816111b6565b82525050565b600060208201905061123d6000830184611219565b92915050565b600073ffffffffffffffffffffffffffffffffffffffff82169050919050565b600061126e82611243565b9050919050565b61127e81611263565b811461128957600080fd5b50565b60008135905061129b81611275565b92915050565b600080604083850312156112b8576112b761108e565b5b60006112c6858286016111d7565b92505060206112d78582860161128c565b9150509250929050565b6000819050919050565b60006113066113016112fc84611243565b6112e1565b611243565b9050919050565b6000611318826112eb565b9050919050565b600061132a8261130d565b9050919050565b61133a8161131f565b82525050565b60006020820190506113556000830184611331565b92915050565b600080fd5b600080fd5b6000601f19601f8301169050919050565b7f4e487b7100000000000000000000000000000000000000000000000000000000600052604160045260246000fd5b6113ae82611365565b810181811067ffffffffffffffff821117156113cd576113cc611376565b5b80604052505050565b60006113e0611084565b90506113ec82826113a5565b919050565b600067ffffffffffffffff82111561140c5761140b611376565b5b61141582611365565b9050602081019050919050565b82818337600083830152505050565b600061144461143f846113f1565b6113d6565b9050828152602081018484840111156114605761145f611360565b5b61146b848285611422565b509392505050565b600082601f8301126114885761148761135b565b5b8135611498848260208601611431565b91505092915050565b6000602082840312156114b7576114b661108e565b5b600082013567ffffffffffffffff8111156114d5576114d4611093565b5b6114e184828501611473565b91505092915050565b6114f381611153565b82525050565b600060208201905061150e60008301846114ea565b92915050565b6000806040838503121561152b5761152a61108e565b5b60006115398582860161128c565b925050602061154a85828601611174565b9150509250929050565b61155d81611263565b82525050565b60006020820190506115786000830184611554565b92915050565b600060109050919050565b600081905092915050565b6000819050919050565b6115a781611153565b82525050565b60006115b9838361159e565b60208301905092915050565b6000602082019050919050565b6115db8161157e565b6115e58184611589565b92506115f082611594565b8060005b8381101561162157815161160887826115ad565b9650611613836115c5565b9250506001810190506115f4565b505050505050565b60006102008201905061163f60008301846115d2565b92915050565b600082825260208201905092915050565b7f416363657373436f6e74726f6c3a2063616e206f6e6c792072656e6f756e636560008201527f20726f6c657320666f722073656c660000000000000000000000000000000000602082015250565b60006116b2602f83611645565b91506116bd82611656565b604082019050919050565b600060208201905081810360008301526116e1816116a5565b9050919050565b7f5061757361626c653a2070617573656400000000000000000000000000000000600082015250565b600061171e601083611645565b9150611729826116e8565b602082019050919050565b6000602082019050818103600083015261174d81611711565b9050919050565b60006060820190506117696000830186611554565b6117766020830185611554565b61178360408301846114ea565b949350505050565b6117948161111d565b811461179f57600080fd5b50565b6000815190506117b18161178b565b92915050565b6000602082840312156117cd576117cc61108e565b5b60006117db848285016117a2565b91505092915050565b600081519050919050565b60005b8381101561180d5780820151818401526020810190506117f2565b8381111561181c576000848401525b50505050565b600061182d826117e4565b6118378185611645565b93506118478185602086016117ef565b61185081611365565b840191505092915050565b60006040820190506118706000830185611554565b81810360208301526118828184611822565b90509392505050565b60008151905061189a8161115d565b92915050565b6000602082840312156118b6576118b561108e565b5b60006118c48482850161188b565b91505092915050565b60006080820190506118e26000830187611554565b6118ef60208301866114ea565b6118fc6040830185611554565b61190960608301846114ea565b95945050505050565b600060ff82169050919050565b7f4e487b7100000000000000000000000000000000000000000000000000000000600052601260045260246000fd5b600061195982611912565b915061196483611912565b9250826119745761197361191f565b5b828206905092915050565b7f4e487b7100000000000000000000000000000000000000000000000000000000600052601160045260246000fd5b60008160011c9050919050565b6000808291508390505b6001851115611a05578086048111156119e1576119e061197f565b5b60018516156119f05780820291505b80810290506119fe856119ae565b94506119c5565b94509492505050565b600082611a1e5760019050611ada565b81611a2c5760009050611ada565b8160018114611a425760028114611a4c57611a7b565b6001915050611ada565b60ff841115611a5e57611a5d61197f565b5b8360020a915084821115611a7557611a7461197f565b5b50611ada565b5060208310610133831016604e8410600b8410161715611ab05782820a905083811115611aab57611aaa61197f565b5b611ada565b611abd84848460016119bb565b92509050818404811115611ad457611ad361197f565b5b81810290505b9392505050565b6000611aec82611153565b9150611af783611912565b9250611b247fffffffffffffffffffffffffffffffffffffffffffffffffffffffffffffffff8484611a0e565b905092915050565b7f4e487b7100000000000000000000000000000000000000000000000000000000600052603260045260246000fd5b6000611b6682611153565b9150611b7183611153565b9250817fffffffffffffffffffffffffffffffffffffffffffffffffffffffffffffffff0483118215151615611baa57611ba961197f565b5b828202905092915050565b6000611bc082611912565b9150611bcb83611912565b925082611bdb57611bda61191f565b5b828204905092915050565b6000611bf182611153565b9150611bfc83611153565b9250827fffffffffffffffffffffffffffffffffffffffffffffffffffffffffffffffff03821115611c3157611c3061197f565b5b828201905092915050565b6000611c4782611912565b915060ff8203611c5a57611c5961197f565b5b600182019050919050565b6000604082019050611c7a6000830185611554565b611c8760208301846114ea565b9392505050565b600081905092915050565b7f416363657373436f6e74726f6c3a206163636f756e7420000000000000000000600082015250565b6000611ccf601783611c8e565b9150611cda82611c99565b601782019050919050565b6000611cf0826117e4565b611cfa8185611c8e565b9350611d0a8185602086016117ef565b80840191505092915050565b7f206973206d697373696e6720726f6c6520000000000000000000000000000000600082015250565b6000611d4c601183611c8e565b9150611d5782611d16565b601182019050919050565b6000611d6d82611cc2565b9150611d798285611ce5565b9150611d8482611d3f565b9150611d908284611ce5565b91508190509392505050565b60006020820190508181036000830152611db68184611822565b905092915050565b6000611dc982611153565b915060008203611ddc57611ddb61197f565b5b600182039050919050565b7f537472696e67733a20686578206c656e67746820696e73756666696369656e74600082015250565b6000611e1d602083611645565b9150611e2882611de7565b602082019050919050565b60006020820190508181036000830152611e4c81611e10565b905091905056fea2646970667358221220073d8ebd9969f34f36d43d7d5a1b5f9435296db7326ade07f0a6b7544a171d8964736f6c634300080d0033",
					"opcodes": "PUSH1 0x80 PUSH1 0x40 MSTORE PUSH9 0x56BC75E2D63100000 PUSH1 0x4 SSTORE CALLVALUE DUP1 ISZERO PUSH3 0x1E JUMPI PUSH1 0x0 DUP1 REVERT JUMPDEST POP PUSH1 0x40 MLOAD PUSH3 0x21F3 CODESIZE SUB DUP1 PUSH3 0x21F3 DUP4 CODECOPY DUP2 DUP2 ADD PUSH1 0x40 MSTORE DUP2 ADD SWAP1 PUSH3 0x44 SWAP2 SWAP1 PUSH3 0x313 JUMP JUMPDEST PUSH1 0x0 DUP1 PUSH1 0x0 PUSH2 0x100 EXP DUP2 SLOAD DUP2 PUSH1 0xFF MUL NOT AND SWAP1 DUP4 ISZERO ISZERO MUL OR SWAP1 SSTORE POP DUP2 PUSH1 0x2 PUSH1 0x0 PUSH2 0x100 EXP DUP2 SLOAD DUP2 PUSH20 0xFFFFFFFFFFFFFFFFFFFFFFFFFFFFFFFFFFFFFFFF MUL NOT AND SWAP1 DUP4 PUSH20 0xFFFFFFFFFFFFFFFFFFFFFFFFFFFFFFFFFFFFFFFF AND MUL OR SWAP1 SSTORE POP DUP1 PUSH1 0x3 PUSH1 0x0 PUSH2 0x100 EXP DUP2 SLOAD DUP2 PUSH20 0xFFFFFFFFFFFFFFFFFFFFFFFFFFFFFFFFFFFFFFFF MUL NOT AND SWAP1 DUP4 PUSH20 0xFFFFFFFFFFFFFFFFFFFFFFFFFFFFFFFFFFFFFFFF AND MUL OR SWAP1 SSTORE POP PUSH3 0xF5 PUSH1 0x0 DUP1 SHL CALLER PUSH3 0x12F PUSH1 0x20 SHL PUSH1 0x20 SHR JUMP JUMPDEST PUSH3 0x127 PUSH32 0x65D7A28E3265B37A6474929F336521B332C1681B933F6CB9F3376673440D862A CALLER PUSH3 0x12F PUSH1 0x20 SHL PUSH1 0x20 SHR JUMP JUMPDEST POP POP PUSH3 0x35A JUMP JUMPDEST PUSH3 0x141 DUP3 DUP3 PUSH3 0x145 PUSH1 0x20 SHL PUSH1 0x20 SHR JUMP JUMPDEST POP POP JUMP JUMPDEST PUSH3 0x157 DUP3 DUP3 PUSH3 0x236 PUSH1 0x20 SHL PUSH1 0x20 SHR JUMP JUMPDEST PUSH3 0x232 JUMPI PUSH1 0x1 DUP1 PUSH1 0x0 DUP5 DUP2 MSTORE PUSH1 0x20 ADD SWAP1 DUP2 MSTORE PUSH1 0x20 ADD PUSH1 0x0 KECCAK256 PUSH1 0x0 ADD PUSH1 0x0 DUP4 PUSH20 0xFFFFFFFFFFFFFFFFFFFFFFFFFFFFFFFFFFFFFFFF AND PUSH20 0xFFFFFFFFFFFFFFFFFFFFFFFFFFFFFFFFFFFFFFFF AND DUP2 MSTORE PUSH1 0x20 ADD SWAP1 DUP2 MSTORE PUSH1 0x20 ADD PUSH1 0x0 KECCAK256 PUSH1 0x0 PUSH2 0x100 EXP DUP2 SLOAD DUP2 PUSH1 0xFF MUL NOT AND SWAP1 DUP4 ISZERO ISZERO MUL OR SWAP1 SSTORE POP PUSH3 0x1D7 PUSH3 0x2A1 PUSH1 0x20 SHL PUSH1 0x20 SHR JUMP JUMPDEST PUSH20 0xFFFFFFFFFFFFFFFFFFFFFFFFFFFFFFFFFFFFFFFF AND DUP2 PUSH20 0xFFFFFFFFFFFFFFFFFFFFFFFFFFFFFFFFFFFFFFFF AND DUP4 PUSH32 0x2F8788117E7EFF1D82E926EC794901D17C78024A50270940304540A733656F0D PUSH1 0x40 MLOAD PUSH1 0x40 MLOAD DUP1 SWAP2 SUB SWAP1 LOG4 JUMPDEST POP POP JUMP JUMPDEST PUSH1 0x0 PUSH1 0x1 PUSH1 0x0 DUP5 DUP2 MSTORE PUSH1 0x20 ADD SWAP1 DUP2 MSTORE PUSH1 0x20 ADD PUSH1 0x0 KECCAK256 PUSH1 0x0 ADD PUSH1 0x0 DUP4 PUSH20 0xFFFFFFFFFFFFFFFFFFFFFFFFFFFFFFFFFFFFFFFF AND PUSH20 0xFFFFFFFFFFFFFFFFFFFFFFFFFFFFFFFFFFFFFFFF AND DUP2 MSTORE PUSH1 0x20 ADD SWAP1 DUP2 MSTORE PUSH1 0x20 ADD PUSH1 0x0 KECCAK256 PUSH1 0x0 SWAP1 SLOAD SWAP1 PUSH2 0x100 EXP SWAP1 DIV PUSH1 0xFF AND SWAP1 POP SWAP3 SWAP2 POP POP JUMP JUMPDEST PUSH1 0x0 CALLER SWAP1 POP SWAP1 JUMP JUMPDEST PUSH1 0x0 DUP1 REVERT JUMPDEST PUSH1 0x0 PUSH20 0xFFFFFFFFFFFFFFFFFFFFFFFFFFFFFFFFFFFFFFFF DUP3 AND SWAP1 POP SWAP2 SWAP1 POP JUMP JUMPDEST PUSH1 0x0 PUSH3 0x2DB DUP3 PUSH3 0x2AE JUMP JUMPDEST SWAP1 POP SWAP2 SWAP1 POP JUMP JUMPDEST PUSH3 0x2ED DUP2 PUSH3 0x2CE JUMP JUMPDEST DUP2 EQ PUSH3 0x2F9 JUMPI PUSH1 0x0 DUP1 REVERT JUMPDEST POP JUMP JUMPDEST PUSH1 0x0 DUP2 MLOAD SWAP1 POP PUSH3 0x30D DUP2 PUSH3 0x2E2 JUMP JUMPDEST SWAP3 SWAP2 POP POP JUMP JUMPDEST PUSH1 0x0 DUP1 PUSH1 0x40 DUP4 DUP6 SUB SLT ISZERO PUSH3 0x32D JUMPI PUSH3 0x32C PUSH3 0x2A9 JUMP JUMPDEST JUMPDEST PUSH1 0x0 PUSH3 0x33D DUP6 DUP3 DUP7 ADD PUSH3 0x2FC JUMP JUMPDEST SWAP3 POP POP PUSH1 0x20 PUSH3 0x350 DUP6 DUP3 DUP7 ADD PUSH3 0x2FC JUMP JUMPDEST SWAP2 POP POP SWAP3 POP SWAP3 SWAP1 POP JUMP JUMPDEST PUSH2 0x1E89 DUP1 PUSH3 0x36A PUSH1 0x0 CODECOPY PUSH1 0x0 RETURN INVALID PUSH1 0x80 PUSH1 0x40 MSTORE CALLVALUE DUP1 ISZERO PUSH2 0x10 JUMPI PUSH1 0x0 DUP1 REVERT JUMPDEST POP PUSH1 0x4 CALLDATASIZE LT PUSH2 0x10B JUMPI PUSH1 0x0 CALLDATALOAD PUSH1 0xE0 SHR DUP1 PUSH4 0x91D14854 GT PUSH2 0xA2 JUMPI DUP1 PUSH4 0xD547741F GT PUSH2 0x71 JUMPI DUP1 PUSH4 0xD547741F EQ PUSH2 0x2B8 JUMPI DUP1 PUSH4 0xDD23FAF3 EQ PUSH2 0x2D4 JUMPI DUP1 PUSH4 0xE63AB1E9 EQ PUSH2 0x304 JUMPI DUP1 PUSH4 0xF3FEF3A3 EQ PUSH2 0x322 JUMPI DUP1 PUSH4 0xF400FDE4 EQ PUSH2 0x33E JUMPI PUSH2 0x10B JUMP JUMPDEST DUP1 PUSH4 0x91D14854 EQ PUSH2 0x230 JUMPI DUP1 PUSH4 0x945099BC EQ PUSH2 0x260 JUMPI DUP1 PUSH4 0xA217FDDF EQ PUSH2 0x27C JUMPI DUP1 PUSH4 0xC6098256 EQ PUSH2 0x29A JUMPI PUSH2 0x10B JUMP JUMPDEST DUP1 PUSH4 0x36568ABE GT PUSH2 0xDE JUMPI DUP1 PUSH4 0x36568ABE EQ PUSH2 0x1A8 JUMPI DUP1 PUSH4 0x52C6159F EQ PUSH2 0x1C4 JUMPI DUP1 PUSH4 0x5C975ABB EQ PUSH2 0x1E2 JUMPI DUP1 PUSH4 0x841ACC5D EQ PUSH2 0x200 JUMPI PUSH2 0x10B JUMP JUMPDEST DUP1 PUSH4 0x1FFC9A7 EQ PUSH2 0x110 JUMPI DUP1 PUSH4 0xA1AC657 EQ PUSH2 0x140 JUMPI DUP1 PUSH4 0x248A9CA3 EQ PUSH2 0x15C JUMPI DUP1 PUSH4 0x2F2FF15D EQ PUSH2 0x18C JUMPI JUMPDEST PUSH1 0x0 DUP1 REVERT JUMPDEST PUSH2 0x12A PUSH1 0x4 DUP1 CALLDATASIZE SUB DUP2 ADD SWAP1 PUSH2 0x125 SWAP2 SWAP1 PUSH2 0x10F0 JUMP JUMPDEST PUSH2 0x35C JUMP JUMPDEST PUSH1 0x40 MLOAD PUSH2 0x137 SWAP2 SWAP1 PUSH2 0x1138 JUMP JUMPDEST PUSH1 0x40 MLOAD DUP1 SWAP2 SUB SWAP1 RETURN JUMPDEST PUSH2 0x15A PUSH1 0x4 DUP1 CALLDATASIZE SUB DUP2 ADD SWAP1 PUSH2 0x155 SWAP2 SWAP1 PUSH2 0x1189 JUMP JUMPDEST PUSH2 0x3D6 JUMP JUMPDEST STOP JUMPDEST PUSH2 0x176 PUSH1 0x4 DUP1 CALLDATASIZE SUB DUP2 ADD SWAP1 PUSH2 0x171 SWAP2 SWAP1 PUSH2 0x11EC JUMP JUMPDEST PUSH2 0x49D JUMP JUMPDEST PUSH1 0x40 MLOAD PUSH2 0x183 SWAP2 SWAP1 PUSH2 0x1228 JUMP JUMPDEST PUSH1 0x40 MLOAD DUP1 SWAP2 SUB SWAP1 RETURN JUMPDEST PUSH2 0x1A6 PUSH1 0x4 DUP1 CALLDATASIZE SUB DUP2 ADD SWAP1 PUSH2 0x1A1 SWAP2 SWAP1 PUSH2 0x12A1 JUMP JUMPDEST PUSH2 0x4BD JUMP JUMPDEST STOP JUMPDEST PUSH2 0x1C2 PUSH1 0x4 DUP1 CALLDATASIZE SUB DUP2 ADD SWAP1 PUSH2 0x1BD SWAP2 SWAP1 PUSH2 0x12A1 JUMP JUMPDEST PUSH2 0x4E6 JUMP JUMPDEST STOP JUMPDEST PUSH2 0x1CC PUSH2 0x569 JUMP JUMPDEST PUSH1 0x40 MLOAD PUSH2 0x1D9 SWAP2 SWAP1 PUSH2 0x1340 JUMP JUMPDEST PUSH1 0x40 MLOAD DUP1 SWAP2 SUB SWAP1 RETURN JUMPDEST PUSH2 0x1EA PUSH2 0x58F JUMP JUMPDEST PUSH1 0x40 MLOAD PUSH2 0x1F7 SWAP2 SWAP1 PUSH2 0x1138 JUMP JUMPDEST PUSH1 0x40 MLOAD DUP1 SWAP2 SUB SWAP1 RETURN JUMPDEST PUSH2 0x21A PUSH1 0x4 DUP1 CALLDATASIZE SUB DUP2 ADD SWAP1 PUSH2 0x215 SWAP2 SWAP1 PUSH2 0x14A1 JUMP JUMPDEST PUSH2 0x5A5 JUMP JUMPDEST PUSH1 0x40 MLOAD PUSH2 0x227 SWAP2 SWAP1 PUSH2 0x14F9 JUMP JUMPDEST PUSH1 0x40 MLOAD DUP1 SWAP2 SUB SWAP1 RETURN JUMPDEST PUSH2 0x24A PUSH1 0x4 DUP1 CALLDATASIZE SUB DUP2 ADD SWAP1 PUSH2 0x245 SWAP2 SWAP1 PUSH2 0x12A1 JUMP JUMPDEST PUSH2 0x809 JUMP JUMPDEST PUSH1 0x40 MLOAD PUSH2 0x257 SWAP2 SWAP1 PUSH2 0x1138 JUMP JUMPDEST PUSH1 0x40 MLOAD DUP1 SWAP2 SUB SWAP1 RETURN JUMPDEST PUSH2 0x27A PUSH1 0x4 DUP1 CALLDATASIZE SUB DUP2 ADD SWAP1 PUSH2 0x275 SWAP2 SWAP1 PUSH2 0x1514 JUMP JUMPDEST PUSH2 0x874 JUMP JUMPDEST STOP JUMPDEST PUSH2 0x284 PUSH2 0x8D6 JUMP JUMPDEST PUSH1 0x40 MLOAD PUSH2 0x291 SWAP2 SWAP1 PUSH2 0x1228 JUMP JUMPDEST PUSH1 0x40 MLOAD DUP1 SWAP2 SUB SWAP1 RETURN JUMPDEST PUSH2 0x2A2 PUSH2 0x8DD JUMP JUMPDEST PUSH1 0x40 MLOAD PUSH2 0x2AF SWAP2 SWAP1 PUSH2 0x1563 JUMP JUMPDEST PUSH1 0x40 MLOAD DUP1 SWAP2 SUB SWAP1 RETURN JUMPDEST PUSH2 0x2D2 PUSH1 0x4 DUP1 CALLDATASIZE SUB DUP2 ADD SWAP1 PUSH2 0x2CD SWAP2 SWAP1 PUSH2 0x12A1 JUMP JUMPDEST PUSH2 0x903 JUMP JUMPDEST STOP JUMPDEST PUSH2 0x2EE PUSH1 0x4 DUP1 CALLDATASIZE SUB DUP2 ADD SWAP1 PUSH2 0x2E9 SWAP2 SWAP1 PUSH2 0x11EC JUMP JUMPDEST PUSH2 0x92C JUMP JUMPDEST PUSH1 0x40 MLOAD PUSH2 0x2FB SWAP2 SWAP1 PUSH2 0x1629 JUMP JUMPDEST PUSH1 0x40 MLOAD DUP1 SWAP2 SUB SWAP1 RETURN JUMPDEST PUSH2 0x30C PUSH2 0xA10 JUMP JUMPDEST PUSH1 0x40 MLOAD PUSH2 0x319 SWAP2 SWAP1 PUSH2 0x1228 JUMP JUMPDEST PUSH1 0x40 MLOAD DUP1 SWAP2 SUB SWAP1 RETURN JUMPDEST PUSH2 0x33C PUSH1 0x4 DUP1 CALLDATASIZE SUB DUP2 ADD SWAP1 PUSH2 0x337 SWAP2 SWAP1 PUSH2 0x1514 JUMP JUMPDEST PUSH2 0xA34 JUMP JUMPDEST STOP JUMPDEST PUSH2 0x346 PUSH2 0xB4E JUMP JUMPDEST PUSH1 0x40 MLOAD PUSH2 0x353 SWAP2 SWAP1 PUSH2 0x14F9 JUMP JUMPDEST PUSH1 0x40 MLOAD DUP1 SWAP2 SUB SWAP1 RETURN JUMPDEST PUSH1 0x0 PUSH32 0x7965DB0B00000000000000000000000000000000000000000000000000000000 PUSH28 0xFFFFFFFFFFFFFFFFFFFFFFFFFFFFFFFFFFFFFFFFFFFFFFFFFFFFFFFF NOT AND DUP3 PUSH28 0xFFFFFFFFFFFFFFFFFFFFFFFFFFFFFFFFFFFFFFFFFFFFFFFFFFFFFFFF NOT AND EQ DUP1 PUSH2 0x3CF JUMPI POP PUSH2 0x3CE DUP3 PUSH2 0xB54 JUMP JUMPDEST JUMPDEST SWAP1 POP SWAP2 SWAP1 POP JUMP JUMPDEST PUSH1 0x2 PUSH1 0x0 SWAP1 SLOAD SWAP1 PUSH2 0x100 EXP SWAP1 DIV PUSH20 0xFFFFFFFFFFFFFFFFFFFFFFFFFFFFFFFFFFFFFFFF AND PUSH20 0xFFFFFFFFFFFFFFFFFFFFFFFFFFFFFFFFFFFFFFFF AND PUSH4 0x42966C68 DUP3 PUSH1 0x40 MLOAD DUP3 PUSH4 0xFFFFFFFF AND PUSH1 0xE0 SHL DUP2 MSTORE PUSH1 0x4 ADD PUSH2 0x431 SWAP2 SWAP1 PUSH2 0x14F9 JUMP JUMPDEST PUSH1 0x0 PUSH1 0x40 MLOAD DUP1 DUP4 SUB DUP2 PUSH1 0x0 DUP8 DUP1 EXTCODESIZE ISZERO DUP1 ISZERO PUSH2 0x44B JUMPI PUSH1 0x0 DUP1 REVERT JUMPDEST POP GAS CALL ISZERO DUP1 ISZERO PUSH2 0x45F JUMPI RETURNDATASIZE PUSH1 0x0 DUP1 RETURNDATACOPY RETURNDATASIZE PUSH1 0x0 REVERT JUMPDEST POP POP POP POP PUSH32 0x950DCD4A7087BBF2CEE08268E1B26AC45FB310D3AE443D0FE53714B713DA45C1 DUP2 PUSH1 0x40 MLOAD PUSH2 0x492 SWAP2 SWAP1 PUSH2 0x14F9 JUMP JUMPDEST PUSH1 0x40 MLOAD DUP1 SWAP2 SUB SWAP1 LOG1 POP JUMP JUMPDEST PUSH1 0x0 PUSH1 0x1 PUSH1 0x0 DUP4 DUP2 MSTORE PUSH1 0x20 ADD SWAP1 DUP2 MSTORE PUSH1 0x20 ADD PUSH1 0x0 KECCAK256 PUSH1 0x1 ADD SLOAD SWAP1 POP SWAP2 SWAP1 POP JUMP JUMPDEST PUSH2 0x4C6 DUP3 PUSH2 0x49D JUMP JUMPDEST PUSH2 0x4D7 DUP2 PUSH2 0x4D2 PUSH2 0xBBE JUMP JUMPDEST PUSH2 0xBC6 JUMP JUMPDEST PUSH2 0x4E1 DUP4 DUP4 PUSH2 0xC63 JUMP JUMPDEST POP POP POP JUMP JUMPDEST PUSH2 0x4EE PUSH2 0xBBE JUMP JUMPDEST PUSH20 0xFFFFFFFFFFFFFFFFFFFFFFFFFFFFFFFFFFFFFFFF AND DUP2 PUSH20 0xFFFFFFFFFFFFFFFFFFFFFFFFFFFFFFFFFFFFFFFF AND EQ PUSH2 0x55B JUMPI PUSH1 0x40 MLOAD PUSH32 0x8C379A000000000000000000000000000000000000000000000000000000000 DUP2 MSTORE PUSH1 0x4 ADD PUSH2 0x552 SWAP1 PUSH2 0x16C8 JUMP JUMPDEST PUSH1 0x40 MLOAD DUP1 SWAP2 SUB SWAP1 REVERT JUMPDEST PUSH2 0x565 DUP3 DUP3 PUSH2 0xD43 JUMP JUMPDEST POP POP JUMP JUMPDEST PUSH1 0x2 PUSH1 0x0 SWAP1 SLOAD SWAP1 PUSH2 0x100 EXP SWAP1 DIV PUSH20 0xFFFFFFFFFFFFFFFFFFFFFFFFFFFFFFFFFFFFFFFF AND DUP2 JUMP JUMPDEST PUSH1 0x0 DUP1 PUSH1 0x0 SWAP1 SLOAD SWAP1 PUSH2 0x100 EXP SWAP1 DIV PUSH1 0xFF AND SWAP1 POP SWAP1 JUMP JUMPDEST PUSH1 0x0 PUSH2 0x5AF PUSH2 0x58F JUMP JUMPDEST ISZERO PUSH2 0x5EF JUMPI PUSH1 0x40 MLOAD PUSH32 0x8C379A000000000000000000000000000000000000000000000000000000000 DUP2 MSTORE PUSH1 0x4 ADD PUSH2 0x5E6 SWAP1 PUSH2 0x1734 JUMP JUMPDEST PUSH1 0x40 MLOAD DUP1 SWAP2 SUB SWAP1 REVERT JUMPDEST PUSH1 0x0 PUSH1 0x4 SLOAD GT DUP1 ISZERO PUSH2 0x650 JUMPI POP PUSH1 0x0 PUSH20 0xFFFFFFFFFFFFFFFFFFFFFFFFFFFFFFFFFFFFFFFF AND PUSH1 0x3 PUSH1 0x0 SWAP1 SLOAD SWAP1 PUSH2 0x100 EXP SWAP1 DIV PUSH20 0xFFFFFFFFFFFFFFFFFFFFFFFFFFFFFFFFFFFFFFFF AND PUSH20 0xFFFFFFFFFFFFFFFFFFFFFFFFFFFFFFFFFFFFFFFF AND EQ ISZERO JUMPDEST ISZERO PUSH2 0x6FB JUMPI PUSH1 0x3 PUSH1 0x0 SWAP1 SLOAD SWAP1 PUSH2 0x100 EXP SWAP1 DIV PUSH20 0xFFFFFFFFFFFFFFFFFFFFFFFFFFFFFFFFFFFFFFFF AND PUSH20 0xFFFFFFFFFFFFFFFFFFFFFFFFFFFFFFFFFFFFFFFF AND PUSH4 0x23B872DD CALLER ADDRESS PUSH1 0x4 SLOAD PUSH1 0x40 MLOAD DUP5 PUSH4 0xFFFFFFFF AND PUSH1 0xE0 SHL DUP2 MSTORE PUSH1 0x4 ADD PUSH2 0x6B6 SWAP4 SWAP3 SWAP2 SWAP1 PUSH2 0x1754 JUMP JUMPDEST PUSH1 0x20 PUSH1 0x40 MLOAD DUP1 DUP4 SUB DUP2 PUSH1 0x0 DUP8 GAS CALL ISZERO DUP1 ISZERO PUSH2 0x6D5 JUMPI RETURNDATASIZE PUSH1 0x0 DUP1 RETURNDATACOPY RETURNDATASIZE PUSH1 0x0 REVERT JUMPDEST POP POP POP POP PUSH1 0x40 MLOAD RETURNDATASIZE PUSH1 0x1F NOT PUSH1 0x1F DUP3 ADD AND DUP3 ADD DUP1 PUSH1 0x40 MSTORE POP DUP2 ADD SWAP1 PUSH2 0x6F9 SWAP2 SWAP1 PUSH2 0x17B7 JUMP JUMPDEST POP JUMPDEST PUSH1 0x0 PUSH1 0x2 PUSH1 0x0 SWAP1 SLOAD SWAP1 PUSH2 0x100 EXP SWAP1 DIV PUSH20 0xFFFFFFFFFFFFFFFFFFFFFFFFFFFFFFFFFFFFFFFF AND PUSH20 0xFFFFFFFFFFFFFFFFFFFFFFFFFFFFFFFFFFFFFFFF AND PUSH4 0xD204C45E CALLER DUP6 PUSH1 0x40 MLOAD DUP4 PUSH4 0xFFFFFFFF AND PUSH1 0xE0 SHL DUP2 MSTORE PUSH1 0x4 ADD PUSH2 0x75A SWAP3 SWAP2 SWAP1 PUSH2 0x185B JUMP JUMPDEST PUSH1 0x20 PUSH1 0x40 MLOAD DUP1 DUP4 SUB DUP2 PUSH1 0x0 DUP8 GAS CALL ISZERO DUP1 ISZERO PUSH2 0x779 JUMPI RETURNDATASIZE PUSH1 0x0 DUP1 RETURNDATACOPY RETURNDATASIZE PUSH1 0x0 REVERT JUMPDEST POP POP POP POP PUSH1 0x40 MLOAD RETURNDATASIZE PUSH1 0x1F NOT PUSH1 0x1F DUP3 ADD AND DUP3 ADD DUP1 PUSH1 0x40 MSTORE POP DUP2 ADD SWAP1 PUSH2 0x79D SWAP2 SWAP1 PUSH2 0x18A0 JUMP JUMPDEST SWAP1 POP PUSH32 0x9E6E3ACB506BF1D2ADB1D8565252E575763EE07D1DEBFCC2C830682895B3137D CALLER DUP3 PUSH1 0x3 PUSH1 0x0 SWAP1 SLOAD SWAP1 PUSH2 0x100 EXP SWAP1 DIV PUSH20 0xFFFFFFFFFFFFFFFFFFFFFFFFFFFFFFFFFFFFFFFF AND PUSH1 0x4 SLOAD PUSH1 0x40 MLOAD PUSH2 0x7F8 SWAP5 SWAP4 SWAP3 SWAP2 SWAP1 PUSH2 0x18CD JUMP JUMPDEST PUSH1 0x40 MLOAD DUP1 SWAP2 SUB SWAP1 LOG1 DUP1 SWAP2 POP POP SWAP2 SWAP1 POP JUMP JUMPDEST PUSH1 0x0 PUSH1 0x1 PUSH1 0x0 DUP5 DUP2 MSTORE PUSH1 0x20 ADD SWAP1 DUP2 MSTORE PUSH1 0x20 ADD PUSH1 0x0 KECCAK256 PUSH1 0x0 ADD PUSH1 0x0 DUP4 PUSH20 0xFFFFFFFFFFFFFFFFFFFFFFFFFFFFFFFFFFFFFFFF AND PUSH20 0xFFFFFFFFFFFFFFFFFFFFFFFFFFFFFFFFFFFFFFFF AND DUP2 MSTORE PUSH1 0x20 ADD SWAP1 DUP2 MSTORE PUSH1 0x20 ADD PUSH1 0x0 KECCAK256 PUSH1 0x0 SWAP1 SLOAD SWAP1 PUSH2 0x100 EXP SWAP1 DIV PUSH1 0xFF AND SWAP1 POP SWAP3 SWAP2 POP POP JUMP JUMPDEST PUSH1 0x0 DUP1 SHL PUSH2 0x889 DUP2 PUSH2 0x884 PUSH2 0xBBE JUMP JUMPDEST PUSH2 0xBC6 JUMP JUMPDEST DUP3 PUSH1 0x3 PUSH1 0x0 PUSH2 0x100 EXP DUP2 SLOAD DUP2 PUSH20 0xFFFFFFFFFFFFFFFFFFFFFFFFFFFFFFFFFFFFFFFF MUL NOT AND SWAP1 DUP4 PUSH20 0xFFFFFFFFFFFFFFFFFFFFFFFFFFFFFFFFFFFFFFFF AND MUL OR SWAP1 SSTORE POP DUP2 PUSH1 0x4 DUP2 SWAP1 SSTORE POP POP POP POP JUMP JUMPDEST PUSH1 0x0 DUP1 SHL DUP2 JUMP JUMPDEST PUSH1 0x3 PUSH1 0x0 SWAP1 SLOAD SWAP1 PUSH2 0x100 EXP SWAP1 DIV PUSH20 0xFFFFFFFFFFFFFFFFFFFFFFFFFFFFFFFFFFFFFFFF AND DUP2 JUMP JUMPDEST PUSH2 0x90C DUP3 PUSH2 0x49D JUMP JUMPDEST PUSH2 0x91D DUP2 PUSH2 0x918 PUSH2 0xBBE JUMP JUMPDEST PUSH2 0xBC6 JUMP JUMPDEST PUSH2 0x927 DUP4 DUP4 PUSH2 0xD43 JUMP JUMPDEST POP POP POP JUMP JUMPDEST PUSH2 0x934 PUSH2 0x1061 JUMP JUMPDEST PUSH1 0x0 JUMPDEST PUSH1 0x20 DUP2 PUSH1 0xFF AND LT ISZERO PUSH2 0xA0A JUMPI PUSH1 0x0 PUSH1 0x2 DUP3 PUSH2 0x952 SWAP2 SWAP1 PUSH2 0x194E JUMP JUMPDEST PUSH1 0xFF AND EQ PUSH2 0x961 JUMPI PUSH1 0x0 PUSH2 0x964 JUMP JUMPDEST PUSH1 0x1 JUMPDEST PUSH2 0x100 PUSH2 0x971 SWAP2 SWAP1 PUSH2 0x1AE1 JUMP JUMPDEST DUP4 DUP3 PUSH1 0xFF AND PUSH1 0x20 DUP2 LT PUSH2 0x987 JUMPI PUSH2 0x986 PUSH2 0x1B2C JUMP JUMPDEST JUMPDEST BYTE PUSH1 0xF8 SHL PUSH1 0xF8 SHR PUSH1 0xFF AND PUSH2 0x99B SWAP2 SWAP1 PUSH2 0x1B5B JUMP JUMPDEST DUP3 PUSH1 0x2 DUP4 PUSH2 0x9A9 SWAP2 SWAP1 PUSH2 0x1BB5 JUMP JUMPDEST PUSH1 0xFF AND PUSH1 0x10 DUP2 LT PUSH2 0x9BD JUMPI PUSH2 0x9BC PUSH2 0x1B2C JUMP JUMPDEST JUMPDEST PUSH1 0x20 MUL ADD MLOAD PUSH2 0x9CC SWAP2 SWAP1 PUSH2 0x1BE6 JUMP JUMPDEST DUP3 PUSH1 0x2 DUP4 PUSH2 0x9DA SWAP2 SWAP1 PUSH2 0x1BB5 JUMP JUMPDEST PUSH1 0xFF AND PUSH1 0x10 DUP2 LT PUSH2 0x9EE JUMPI PUSH2 0x9ED PUSH2 0x1B2C JUMP JUMPDEST JUMPDEST PUSH1 0x20 MUL ADD DUP2 DUP2 MSTORE POP POP DUP1 DUP1 PUSH2 0xA02 SWAP1 PUSH2 0x1C3C JUMP JUMPDEST SWAP2 POP POP PUSH2 0x937 JUMP JUMPDEST POP SWAP2 SWAP1 POP JUMP JUMPDEST PUSH32 0x65D7A28E3265B37A6474929F336521B332C1681B933F6CB9F3376673440D862A DUP2 JUMP JUMPDEST PUSH1 0x0 DUP1 SHL PUSH2 0xA49 DUP2 PUSH2 0xA44 PUSH2 0xBBE JUMP JUMPDEST PUSH2 0xBC6 JUMP JUMPDEST PUSH1 0x0 PUSH20 0xFFFFFFFFFFFFFFFFFFFFFFFFFFFFFFFFFFFFFFFF AND DUP4 PUSH20 0xFFFFFFFFFFFFFFFFFFFFFFFFFFFFFFFFFFFFFFFF AND SUB PUSH2 0xAC9 JUMPI CALLER PUSH20 0xFFFFFFFFFFFFFFFFFFFFFFFFFFFFFFFFFFFFFFFF AND PUSH2 0x8FC DUP4 SWAP1 DUP2 ISZERO MUL SWAP1 PUSH1 0x40 MLOAD PUSH1 0x0 PUSH1 0x40 MLOAD DUP1 DUP4 SUB DUP2 DUP6 DUP9 DUP9 CALL SWAP4 POP POP POP POP ISZERO DUP1 ISZERO PUSH2 0xAC3 JUMPI RETURNDATASIZE PUSH1 0x0 DUP1 RETURNDATACOPY RETURNDATASIZE PUSH1 0x0 REVERT JUMPDEST POP PUSH2 0xB49 JUMP JUMPDEST DUP3 PUSH20 0xFFFFFFFFFFFFFFFFFFFFFFFFFFFFFFFFFFFFFFFF AND PUSH4 0xA9059CBB CALLER DUP5 PUSH1 0x40 MLOAD DUP4 PUSH4 0xFFFFFFFF AND PUSH1 0xE0 SHL DUP2 MSTORE PUSH1 0x4 ADD PUSH2 0xB04 SWAP3 SWAP2 SWAP1 PUSH2 0x1C65 JUMP JUMPDEST PUSH1 0x20 PUSH1 0x40 MLOAD DUP1 DUP4 SUB DUP2 PUSH1 0x0 DUP8 GAS CALL ISZERO DUP1 ISZERO PUSH2 0xB23 JUMPI RETURNDATASIZE PUSH1 0x0 DUP1 RETURNDATACOPY RETURNDATASIZE PUSH1 0x0 REVERT JUMPDEST POP POP POP POP PUSH1 0x40 MLOAD RETURNDATASIZE PUSH1 0x1F NOT PUSH1 0x1F DUP3 ADD AND DUP3 ADD DUP1 PUSH1 0x40 MSTORE POP DUP2 ADD SWAP1 PUSH2 0xB47 SWAP2 SWAP1 PUSH2 0x17B7 JUMP JUMPDEST POP JUMPDEST POP POP POP JUMP JUMPDEST PUSH1 0x4 SLOAD DUP2 JUMP JUMPDEST PUSH1 0x0 PUSH32 0x1FFC9A700000000000000000000000000000000000000000000000000000000 PUSH28 0xFFFFFFFFFFFFFFFFFFFFFFFFFFFFFFFFFFFFFFFFFFFFFFFFFFFFFFFF NOT AND DUP3 PUSH28 0xFFFFFFFFFFFFFFFFFFFFFFFFFFFFFFFFFFFFFFFFFFFFFFFFFFFFFFFF NOT AND EQ SWAP1 POP SWAP2 SWAP1 POP JUMP JUMPDEST PUSH1 0x0 CALLER SWAP1 POP SWAP1 JUMP JUMPDEST PUSH2 0xBD0 DUP3 DUP3 PUSH2 0x809 JUMP JUMPDEST PUSH2 0xC5F JUMPI PUSH2 0xBF5 DUP2 PUSH20 0xFFFFFFFFFFFFFFFFFFFFFFFFFFFFFFFFFFFFFFFF AND PUSH1 0x14 PUSH2 0xE25 JUMP JUMPDEST PUSH2 0xC03 DUP4 PUSH1 0x0 SHR PUSH1 0x20 PUSH2 0xE25 JUMP JUMPDEST PUSH1 0x40 MLOAD PUSH1 0x20 ADD PUSH2 0xC14 SWAP3 SWAP2 SWAP1 PUSH2 0x1D62 JUMP JUMPDEST PUSH1 0x40 MLOAD PUSH1 0x20 DUP2 DUP4 SUB SUB DUP2 MSTORE SWAP1 PUSH1 0x40 MSTORE PUSH1 0x40 MLOAD PUSH32 0x8C379A000000000000000000000000000000000000000000000000000000000 DUP2 MSTORE PUSH1 0x4 ADD PUSH2 0xC56 SWAP2 SWAP1 PUSH2 0x1D9C JUMP JUMPDEST PUSH1 0x40 MLOAD DUP1 SWAP2 SUB SWAP1 REVERT JUMPDEST POP POP JUMP JUMPDEST PUSH2 0xC6D DUP3 DUP3 PUSH2 0x809 JUMP JUMPDEST PUSH2 0xD3F JUMPI PUSH1 0x1 DUP1 PUSH1 0x0 DUP5 DUP2 MSTORE PUSH1 0x20 ADD SWAP1 DUP2 MSTORE PUSH1 0x20 ADD PUSH1 0x0 KECCAK256 PUSH1 0x0 ADD PUSH1 0x0 DUP4 PUSH20 0xFFFFFFFFFFFFFFFFFFFFFFFFFFFFFFFFFFFFFFFF AND PUSH20 0xFFFFFFFFFFFFFFFFFFFFFFFFFFFFFFFFFFFFFFFF AND DUP2 MSTORE PUSH1 0x20 ADD SWAP1 DUP2 MSTORE PUSH1 0x20 ADD PUSH1 0x0 KECCAK256 PUSH1 0x0 PUSH2 0x100 EXP DUP2 SLOAD DUP2 PUSH1 0xFF MUL NOT AND SWAP1 DUP4 ISZERO ISZERO MUL OR SWAP1 SSTORE POP PUSH2 0xCE4 PUSH2 0xBBE JUMP JUMPDEST PUSH20 0xFFFFFFFFFFFFFFFFFFFFFFFFFFFFFFFFFFFFFFFF AND DUP2 PUSH20 0xFFFFFFFFFFFFFFFFFFFFFFFFFFFFFFFFFFFFFFFF AND DUP4 PUSH32 0x2F8788117E7EFF1D82E926EC794901D17C78024A50270940304540A733656F0D PUSH1 0x40 MLOAD PUSH1 0x40 MLOAD DUP1 SWAP2 SUB SWAP1 LOG4 JUMPDEST POP POP JUMP JUMPDEST PUSH2 0xD4D DUP3 DUP3 PUSH2 0x809 JUMP JUMPDEST ISZERO PUSH2 0xE21 JUMPI PUSH1 0x0 PUSH1 0x1 PUSH1 0x0 DUP5 DUP2 MSTORE PUSH1 0x20 ADD SWAP1 DUP2 MSTORE PUSH1 0x20 ADD PUSH1 0x0 KECCAK256 PUSH1 0x0 ADD PUSH1 0x0 DUP4 PUSH20 0xFFFFFFFFFFFFFFFFFFFFFFFFFFFFFFFFFFFFFFFF AND PUSH20 0xFFFFFFFFFFFFFFFFFFFFFFFFFFFFFFFFFFFFFFFF AND DUP2 MSTORE PUSH1 0x20 ADD SWAP1 DUP2 MSTORE PUSH1 0x20 ADD PUSH1 0x0 KECCAK256 PUSH1 0x0 PUSH2 0x100 EXP DUP2 SLOAD DUP2 PUSH1 0xFF MUL NOT AND SWAP1 DUP4 ISZERO ISZERO MUL OR SWAP1 SSTORE POP PUSH2 0xDC6 PUSH2 0xBBE JUMP JUMPDEST PUSH20 0xFFFFFFFFFFFFFFFFFFFFFFFFFFFFFFFFFFFFFFFF AND DUP2 PUSH20 0xFFFFFFFFFFFFFFFFFFFFFFFFFFFFFFFFFFFFFFFF AND DUP4 PUSH32 0xF6391F5C32D9C69D2A47EA670B442974B53935D1EDC7FD64EB21E047A839171B PUSH1 0x40 MLOAD PUSH1 0x40 MLOAD DUP1 SWAP2 SUB SWAP1 LOG4 JUMPDEST POP POP JUMP JUMPDEST PUSH1 0x60 PUSH1 0x0 PUSH1 0x2 DUP4 PUSH1 0x2 PUSH2 0xE38 SWAP2 SWAP1 PUSH2 0x1B5B JUMP JUMPDEST PUSH2 0xE42 SWAP2 SWAP1 PUSH2 0x1BE6 JUMP JUMPDEST PUSH8 0xFFFFFFFFFFFFFFFF DUP2 GT ISZERO PUSH2 0xE5B JUMPI PUSH2 0xE5A PUSH2 0x1376 JUMP JUMPDEST JUMPDEST PUSH1 0x40 MLOAD SWAP1 DUP1 DUP3 MSTORE DUP1 PUSH1 0x1F ADD PUSH1 0x1F NOT AND PUSH1 0x20 ADD DUP3 ADD PUSH1 0x40 MSTORE DUP1 ISZERO PUSH2 0xE8D JUMPI DUP2 PUSH1 0x20 ADD PUSH1 0x1 DUP3 MUL DUP1 CALLDATASIZE DUP4 CALLDATACOPY DUP1 DUP3 ADD SWAP2 POP POP SWAP1 POP JUMPDEST POP SWAP1 POP PUSH32 0x3000000000000000000000000000000000000000000000000000000000000000 DUP2 PUSH1 0x0 DUP2 MLOAD DUP2 LT PUSH2 0xEC5 JUMPI PUSH2 0xEC4 PUSH2 0x1B2C JUMP JUMPDEST JUMPDEST PUSH1 0x20 ADD ADD SWAP1 PUSH31 0xFFFFFFFFFFFFFFFFFFFFFFFFFFFFFFFFFFFFFFFFFFFFFFFFFFFFFFFFFFFFFF NOT AND SWAP1 DUP2 PUSH1 0x0 BYTE SWAP1 MSTORE8 POP PUSH32 0x7800000000000000000000000000000000000000000000000000000000000000 DUP2 PUSH1 0x1 DUP2 MLOAD DUP2 LT PUSH2 0xF29 JUMPI PUSH2 0xF28 PUSH2 0x1B2C JUMP JUMPDEST JUMPDEST PUSH1 0x20 ADD ADD SWAP1 PUSH31 0xFFFFFFFFFFFFFFFFFFFFFFFFFFFFFFFFFFFFFFFFFFFFFFFFFFFFFFFFFFFFFF NOT AND SWAP1 DUP2 PUSH1 0x0 BYTE SWAP1 MSTORE8 POP PUSH1 0x0 PUSH1 0x1 DUP5 PUSH1 0x2 PUSH2 0xF69 SWAP2 SWAP1 PUSH2 0x1B5B JUMP JUMPDEST PUSH2 0xF73 SWAP2 SWAP1 PUSH2 0x1BE6 JUMP JUMPDEST SWAP1 POP JUMPDEST PUSH1 0x1 DUP2 GT ISZERO PUSH2 0x1013 JUMPI PUSH32 0x3031323334353637383961626364656600000000000000000000000000000000 PUSH1 0xF DUP7 AND PUSH1 0x10 DUP2 LT PUSH2 0xFB5 JUMPI PUSH2 0xFB4 PUSH2 0x1B2C JUMP JUMPDEST JUMPDEST BYTE PUSH1 0xF8 SHL DUP3 DUP3 DUP2 MLOAD DUP2 LT PUSH2 0xFCC JUMPI PUSH2 0xFCB PUSH2 0x1B2C JUMP JUMPDEST JUMPDEST PUSH1 0x20 ADD ADD SWAP1 PUSH31 0xFFFFFFFFFFFFFFFFFFFFFFFFFFFFFFFFFFFFFFFFFFFFFFFFFFFFFFFFFFFFFF NOT AND SWAP1 DUP2 PUSH1 0x0 BYTE SWAP1 MSTORE8 POP PUSH1 0x4 DUP6 SWAP1 SHR SWAP5 POP DUP1 PUSH2 0x100C SWAP1 PUSH2 0x1DBE JUMP JUMPDEST SWAP1 POP PUSH2 0xF76 JUMP JUMPDEST POP PUSH1 0x0 DUP5 EQ PUSH2 0x1057 JUMPI PUSH1 0x40 MLOAD PUSH32 0x8C379A000000000000000000000000000000000000000000000000000000000 DUP2 MSTORE PUSH1 0x4 ADD PUSH2 0x104E SWAP1 PUSH2 0x1E33 JUMP JUMPDEST PUSH1 0x40 MLOAD DUP1 SWAP2 SUB SWAP1 REVERT JUMPDEST DUP1 SWAP2 POP POP SWAP3 SWAP2 POP POP JUMP JUMPDEST PUSH1 0x40 MLOAD DUP1 PUSH2 0x200 ADD PUSH1 0x40 MSTORE DUP1 PUSH1 0x10 SWAP1 PUSH1 0x20 DUP3 MUL DUP1 CALLDATASIZE DUP4 CALLDATACOPY DUP1 DUP3 ADD SWAP2 POP POP SWAP1 POP POP SWAP1 JUMP JUMPDEST PUSH1 0x0 PUSH1 0x40 MLOAD SWAP1 POP SWAP1 JUMP JUMPDEST PUSH1 0x0 DUP1 REVERT JUMPDEST PUSH1 0x0 DUP1 REVERT JUMPDEST PUSH1 0x0 PUSH32 0xFFFFFFFF00000000000000000000000000000000000000000000000000000000 DUP3 AND SWAP1 POP SWAP2 SWAP1 POP JUMP JUMPDEST PUSH2 0x10CD DUP2 PUSH2 0x1098 JUMP JUMPDEST DUP2 EQ PUSH2 0x10D8 JUMPI PUSH1 0x0 DUP1 REVERT JUMPDEST POP JUMP JUMPDEST PUSH1 0x0 DUP2 CALLDATALOAD SWAP1 POP PUSH2 0x10EA DUP2 PUSH2 0x10C4 JUMP JUMPDEST SWAP3 SWAP2 POP POP JUMP JUMPDEST PUSH1 0x0 PUSH1 0x20 DUP3 DUP5 SUB SLT ISZERO PUSH2 0x1106 JUMPI PUSH2 0x1105 PUSH2 0x108E JUMP JUMPDEST JUMPDEST PUSH1 0x0 PUSH2 0x1114 DUP5 DUP3 DUP6 ADD PUSH2 0x10DB JUMP JUMPDEST SWAP2 POP POP SWAP3 SWAP2 POP POP JUMP JUMPDEST PUSH1 0x0 DUP2 ISZERO ISZERO SWAP1 POP SWAP2 SWAP1 POP JUMP JUMPDEST PUSH2 0x1132 DUP2 PUSH2 0x111D JUMP JUMPDEST DUP3 MSTORE POP POP JUMP JUMPDEST PUSH1 0x0 PUSH1 0x20 DUP3 ADD SWAP1 POP PUSH2 0x114D PUSH1 0x0 DUP4 ADD DUP5 PUSH2 0x1129 JUMP JUMPDEST SWAP3 SWAP2 POP POP JUMP JUMPDEST PUSH1 0x0 DUP2 SWAP1 POP SWAP2 SWAP1 POP JUMP JUMPDEST PUSH2 0x1166 DUP2 PUSH2 0x1153 JUMP JUMPDEST DUP2 EQ PUSH2 0x1171 JUMPI PUSH1 0x0 DUP1 REVERT JUMPDEST POP JUMP JUMPDEST PUSH1 0x0 DUP2 CALLDATALOAD SWAP1 POP PUSH2 0x1183 DUP2 PUSH2 0x115D JUMP JUMPDEST SWAP3 SWAP2 POP POP JUMP JUMPDEST PUSH1 0x0 PUSH1 0x20 DUP3 DUP5 SUB SLT ISZERO PUSH2 0x119F JUMPI PUSH2 0x119E PUSH2 0x108E JUMP JUMPDEST JUMPDEST PUSH1 0x0 PUSH2 0x11AD DUP5 DUP3 DUP6 ADD PUSH2 0x1174 JUMP JUMPDEST SWAP2 POP POP SWAP3 SWAP2 POP POP JUMP JUMPDEST PUSH1 0x0 DUP2 SWAP1 POP SWAP2 SWAP1 POP JUMP JUMPDEST PUSH2 0x11C9 DUP2 PUSH2 0x11B6 JUMP JUMPDEST DUP2 EQ PUSH2 0x11D4 JUMPI PUSH1 0x0 DUP1 REVERT JUMPDEST POP JUMP JUMPDEST PUSH1 0x0 DUP2 CALLDATALOAD SWAP1 POP PUSH2 0x11E6 DUP2 PUSH2 0x11C0 JUMP JUMPDEST SWAP3 SWAP2 POP POP JUMP JUMPDEST PUSH1 0x0 PUSH1 0x20 DUP3 DUP5 SUB SLT ISZERO PUSH2 0x1202 JUMPI PUSH2 0x1201 PUSH2 0x108E JUMP JUMPDEST JUMPDEST PUSH1 0x0 PUSH2 0x1210 DUP5 DUP3 DUP6 ADD PUSH2 0x11D7 JUMP JUMPDEST SWAP2 POP POP SWAP3 SWAP2 POP POP JUMP JUMPDEST PUSH2 0x1222 DUP2 PUSH2 0x11B6 JUMP JUMPDEST DUP3 MSTORE POP POP JUMP JUMPDEST PUSH1 0x0 PUSH1 0x20 DUP3 ADD SWAP1 POP PUSH2 0x123D PUSH1 0x0 DUP4 ADD DUP5 PUSH2 0x1219 JUMP JUMPDEST SWAP3 SWAP2 POP POP JUMP JUMPDEST PUSH1 0x0 PUSH20 0xFFFFFFFFFFFFFFFFFFFFFFFFFFFFFFFFFFFFFFFF DUP3 AND SWAP1 POP SWAP2 SWAP1 POP JUMP JUMPDEST PUSH1 0x0 PUSH2 0x126E DUP3 PUSH2 0x1243 JUMP JUMPDEST SWAP1 POP SWAP2 SWAP1 POP JUMP JUMPDEST PUSH2 0x127E DUP2 PUSH2 0x1263 JUMP JUMPDEST DUP2 EQ PUSH2 0x1289 JUMPI PUSH1 0x0 DUP1 REVERT JUMPDEST POP JUMP JUMPDEST PUSH1 0x0 DUP2 CALLDATALOAD SWAP1 POP PUSH2 0x129B DUP2 PUSH2 0x1275 JUMP JUMPDEST SWAP3 SWAP2 POP POP JUMP JUMPDEST PUSH1 0x0 DUP1 PUSH1 0x40 DUP4 DUP6 SUB SLT ISZERO PUSH2 0x12B8 JUMPI PUSH2 0x12B7 PUSH2 0x108E JUMP JUMPDEST JUMPDEST PUSH1 0x0 PUSH2 0x12C6 DUP6 DUP3 DUP7 ADD PUSH2 0x11D7 JUMP JUMPDEST SWAP3 POP POP PUSH1 0x20 PUSH2 0x12D7 DUP6 DUP3 DUP7 ADD PUSH2 0x128C JUMP JUMPDEST SWAP2 POP POP SWAP3 POP SWAP3 SWAP1 POP JUMP JUMPDEST PUSH1 0x0 DUP2 SWAP1 POP SWAP2 SWAP1 POP JUMP JUMPDEST PUSH1 0x0 PUSH2 0x1306 PUSH2 0x1301 PUSH2 0x12FC DUP5 PUSH2 0x1243 JUMP JUMPDEST PUSH2 0x12E1 JUMP JUMPDEST PUSH2 0x1243 JUMP JUMPDEST SWAP1 POP SWAP2 SWAP1 POP JUMP JUMPDEST PUSH1 0x0 PUSH2 0x1318 DUP3 PUSH2 0x12EB JUMP JUMPDEST SWAP1 POP SWAP2 SWAP1 POP JUMP JUMPDEST PUSH1 0x0 PUSH2 0x132A DUP3 PUSH2 0x130D JUMP JUMPDEST SWAP1 POP SWAP2 SWAP1 POP JUMP JUMPDEST PUSH2 0x133A DUP2 PUSH2 0x131F JUMP JUMPDEST DUP3 MSTORE POP POP JUMP JUMPDEST PUSH1 0x0 PUSH1 0x20 DUP3 ADD SWAP1 POP PUSH2 0x1355 PUSH1 0x0 DUP4 ADD DUP5 PUSH2 0x1331 JUMP JUMPDEST SWAP3 SWAP2 POP POP JUMP JUMPDEST PUSH1 0x0 DUP1 REVERT JUMPDEST PUSH1 0x0 DUP1 REVERT JUMPDEST PUSH1 0x0 PUSH1 0x1F NOT PUSH1 0x1F DUP4 ADD AND SWAP1 POP SWAP2 SWAP1 POP JUMP JUMPDEST PUSH32 0x4E487B7100000000000000000000000000000000000000000000000000000000 PUSH1 0x0 MSTORE PUSH1 0x41 PUSH1 0x4 MSTORE PUSH1 0x24 PUSH1 0x0 REVERT JUMPDEST PUSH2 0x13AE DUP3 PUSH2 0x1365 JUMP JUMPDEST DUP2 ADD DUP2 DUP2 LT PUSH8 0xFFFFFFFFFFFFFFFF DUP3 GT OR ISZERO PUSH2 0x13CD JUMPI PUSH2 0x13CC PUSH2 0x1376 JUMP JUMPDEST JUMPDEST DUP1 PUSH1 0x40 MSTORE POP POP POP JUMP JUMPDEST PUSH1 0x0 PUSH2 0x13E0 PUSH2 0x1084 JUMP JUMPDEST SWAP1 POP PUSH2 0x13EC DUP3 DUP3 PUSH2 0x13A5 JUMP JUMPDEST SWAP2 SWAP1 POP JUMP JUMPDEST PUSH1 0x0 PUSH8 0xFFFFFFFFFFFFFFFF DUP3 GT ISZERO PUSH2 0x140C JUMPI PUSH2 0x140B PUSH2 0x1376 JUMP JUMPDEST JUMPDEST PUSH2 0x1415 DUP3 PUSH2 0x1365 JUMP JUMPDEST SWAP1 POP PUSH1 0x20 DUP2 ADD SWAP1 POP SWAP2 SWAP1 POP JUMP JUMPDEST DUP3 DUP2 DUP4 CALLDATACOPY PUSH1 0x0 DUP4 DUP4 ADD MSTORE POP POP POP JUMP JUMPDEST PUSH1 0x0 PUSH2 0x1444 PUSH2 0x143F DUP5 PUSH2 0x13F1 JUMP JUMPDEST PUSH2 0x13D6 JUMP JUMPDEST SWAP1 POP DUP3 DUP2 MSTORE PUSH1 0x20 DUP2 ADD DUP5 DUP5 DUP5 ADD GT ISZERO PUSH2 0x1460 JUMPI PUSH2 0x145F PUSH2 0x1360 JUMP JUMPDEST JUMPDEST PUSH2 0x146B DUP5 DUP3 DUP6 PUSH2 0x1422 JUMP JUMPDEST POP SWAP4 SWAP3 POP POP POP JUMP JUMPDEST PUSH1 0x0 DUP3 PUSH1 0x1F DUP4 ADD SLT PUSH2 0x1488 JUMPI PUSH2 0x1487 PUSH2 0x135B JUMP JUMPDEST JUMPDEST DUP2 CALLDATALOAD PUSH2 0x1498 DUP5 DUP3 PUSH1 0x20 DUP7 ADD PUSH2 0x1431 JUMP JUMPDEST SWAP2 POP POP SWAP3 SWAP2 POP POP JUMP JUMPDEST PUSH1 0x0 PUSH1 0x20 DUP3 DUP5 SUB SLT ISZERO PUSH2 0x14B7 JUMPI PUSH2 0x14B6 PUSH2 0x108E JUMP JUMPDEST JUMPDEST PUSH1 0x0 DUP3 ADD CALLDATALOAD PUSH8 0xFFFFFFFFFFFFFFFF DUP2 GT ISZERO PUSH2 0x14D5 JUMPI PUSH2 0x14D4 PUSH2 0x1093 JUMP JUMPDEST JUMPDEST PUSH2 0x14E1 DUP5 DUP3 DUP6 ADD PUSH2 0x1473 JUMP JUMPDEST SWAP2 POP POP SWAP3 SWAP2 POP POP JUMP JUMPDEST PUSH2 0x14F3 DUP2 PUSH2 0x1153 JUMP JUMPDEST DUP3 MSTORE POP POP JUMP JUMPDEST PUSH1 0x0 PUSH1 0x20 DUP3 ADD SWAP1 POP PUSH2 0x150E PUSH1 0x0 DUP4 ADD DUP5 PUSH2 0x14EA JUMP JUMPDEST SWAP3 SWAP2 POP POP JUMP JUMPDEST PUSH1 0x0 DUP1 PUSH1 0x40 DUP4 DUP6 SUB SLT ISZERO PUSH2 0x152B JUMPI PUSH2 0x152A PUSH2 0x108E JUMP JUMPDEST JUMPDEST PUSH1 0x0 PUSH2 0x1539 DUP6 DUP3 DUP7 ADD PUSH2 0x128C JUMP JUMPDEST SWAP3 POP POP PUSH1 0x20 PUSH2 0x154A DUP6 DUP3 DUP7 ADD PUSH2 0x1174 JUMP JUMPDEST SWAP2 POP POP SWAP3 POP SWAP3 SWAP1 POP JUMP JUMPDEST PUSH2 0x155D DUP2 PUSH2 0x1263 JUMP JUMPDEST DUP3 MSTORE POP POP JUMP JUMPDEST PUSH1 0x0 PUSH1 0x20 DUP3 ADD SWAP1 POP PUSH2 0x1578 PUSH1 0x0 DUP4 ADD DUP5 PUSH2 0x1554 JUMP JUMPDEST SWAP3 SWAP2 POP POP JUMP JUMPDEST PUSH1 0x0 PUSH1 0x10 SWAP1 POP SWAP2 SWAP1 POP JUMP JUMPDEST PUSH1 0x0 DUP2 SWAP1 POP SWAP3 SWAP2 POP POP JUMP JUMPDEST PUSH1 0x0 DUP2 SWAP1 POP SWAP2 SWAP1 POP JUMP JUMPDEST PUSH2 0x15A7 DUP2 PUSH2 0x1153 JUMP JUMPDEST DUP3 MSTORE POP POP JUMP JUMPDEST PUSH1 0x0 PUSH2 0x15B9 DUP4 DUP4 PUSH2 0x159E JUMP JUMPDEST PUSH1 0x20 DUP4 ADD SWAP1 POP SWAP3 SWAP2 POP POP JUMP JUMPDEST PUSH1 0x0 PUSH1 0x20 DUP3 ADD SWAP1 POP SWAP2 SWAP1 POP JUMP JUMPDEST PUSH2 0x15DB DUP2 PUSH2 0x157E JUMP JUMPDEST PUSH2 0x15E5 DUP2 DUP5 PUSH2 0x1589 JUMP JUMPDEST SWAP3 POP PUSH2 0x15F0 DUP3 PUSH2 0x1594 JUMP JUMPDEST DUP1 PUSH1 0x0 JUMPDEST DUP4 DUP2 LT ISZERO PUSH2 0x1621 JUMPI DUP2 MLOAD PUSH2 0x1608 DUP8 DUP3 PUSH2 0x15AD JUMP JUMPDEST SWAP7 POP PUSH2 0x1613 DUP4 PUSH2 0x15C5 JUMP JUMPDEST SWAP3 POP POP PUSH1 0x1 DUP2 ADD SWAP1 POP PUSH2 0x15F4 JUMP JUMPDEST POP POP POP POP POP POP JUMP JUMPDEST PUSH1 0x0 PUSH2 0x200 DUP3 ADD SWAP1 POP PUSH2 0x163F PUSH1 0x0 DUP4 ADD DUP5 PUSH2 0x15D2 JUMP JUMPDEST SWAP3 SWAP2 POP POP JUMP JUMPDEST PUSH1 0x0 DUP3 DUP3 MSTORE PUSH1 0x20 DUP3 ADD SWAP1 POP SWAP3 SWAP2 POP POP JUMP JUMPDEST PUSH32 0x416363657373436F6E74726F6C3A2063616E206F6E6C792072656E6F756E6365 PUSH1 0x0 DUP3 ADD MSTORE PUSH32 0x20726F6C657320666F722073656C660000000000000000000000000000000000 PUSH1 0x20 DUP3 ADD MSTORE POP JUMP JUMPDEST PUSH1 0x0 PUSH2 0x16B2 PUSH1 0x2F DUP4 PUSH2 0x1645 JUMP JUMPDEST SWAP2 POP PUSH2 0x16BD DUP3 PUSH2 0x1656 JUMP JUMPDEST PUSH1 0x40 DUP3 ADD SWAP1 POP SWAP2 SWAP1 POP JUMP JUMPDEST PUSH1 0x0 PUSH1 0x20 DUP3 ADD SWAP1 POP DUP2 DUP2 SUB PUSH1 0x0 DUP4 ADD MSTORE PUSH2 0x16E1 DUP2 PUSH2 0x16A5 JUMP JUMPDEST SWAP1 POP SWAP2 SWAP1 POP JUMP JUMPDEST PUSH32 0x5061757361626C653A2070617573656400000000000000000000000000000000 PUSH1 0x0 DUP3 ADD MSTORE POP JUMP JUMPDEST PUSH1 0x0 PUSH2 0x171E PUSH1 0x10 DUP4 PUSH2 0x1645 JUMP JUMPDEST SWAP2 POP PUSH2 0x1729 DUP3 PUSH2 0x16E8 JUMP JUMPDEST PUSH1 0x20 DUP3 ADD SWAP1 POP SWAP2 SWAP1 POP JUMP JUMPDEST PUSH1 0x0 PUSH1 0x20 DUP3 ADD SWAP1 POP DUP2 DUP2 SUB PUSH1 0x0 DUP4 ADD MSTORE PUSH2 0x174D DUP2 PUSH2 0x1711 JUMP JUMPDEST SWAP1 POP SWAP2 SWAP1 POP JUMP JUMPDEST PUSH1 0x0 PUSH1 0x60 DUP3 ADD SWAP1 POP PUSH2 0x1769 PUSH1 0x0 DUP4 ADD DUP7 PUSH2 0x1554 JUMP JUMPDEST PUSH2 0x1776 PUSH1 0x20 DUP4 ADD DUP6 PUSH2 0x1554 JUMP JUMPDEST PUSH2 0x1783 PUSH1 0x40 DUP4 ADD DUP5 PUSH2 0x14EA JUMP JUMPDEST SWAP5 SWAP4 POP POP POP POP JUMP JUMPDEST PUSH2 0x1794 DUP2 PUSH2 0x111D JUMP JUMPDEST DUP2 EQ PUSH2 0x179F JUMPI PUSH1 0x0 DUP1 REVERT JUMPDEST POP JUMP JUMPDEST PUSH1 0x0 DUP2 MLOAD SWAP1 POP PUSH2 0x17B1 DUP2 PUSH2 0x178B JUMP JUMPDEST SWAP3 SWAP2 POP POP JUMP JUMPDEST PUSH1 0x0 PUSH1 0x20 DUP3 DUP5 SUB SLT ISZERO PUSH2 0x17CD JUMPI PUSH2 0x17CC PUSH2 0x108E JUMP JUMPDEST JUMPDEST PUSH1 0x0 PUSH2 0x17DB DUP5 DUP3 DUP6 ADD PUSH2 0x17A2 JUMP JUMPDEST SWAP2 POP POP SWAP3 SWAP2 POP POP JUMP JUMPDEST PUSH1 0x0 DUP2 MLOAD SWAP1 POP SWAP2 SWAP1 POP JUMP JUMPDEST PUSH1 0x0 JUMPDEST DUP4 DUP2 LT ISZERO PUSH2 0x180D JUMPI DUP1 DUP3 ADD MLOAD DUP2 DUP5 ADD MSTORE PUSH1 0x20 DUP2 ADD SWAP1 POP PUSH2 0x17F2 JUMP JUMPDEST DUP4 DUP2 GT ISZERO PUSH2 0x181C JUMPI PUSH1 0x0 DUP5 DUP5 ADD MSTORE JUMPDEST POP POP POP POP JUMP JUMPDEST PUSH1 0x0 PUSH2 0x182D DUP3 PUSH2 0x17E4 JUMP JUMPDEST PUSH2 0x1837 DUP2 DUP6 PUSH2 0x1645 JUMP JUMPDEST SWAP4 POP PUSH2 0x1847 DUP2 DUP6 PUSH1 0x20 DUP7 ADD PUSH2 0x17EF JUMP JUMPDEST PUSH2 0x1850 DUP2 PUSH2 0x1365 JUMP JUMPDEST DUP5 ADD SWAP2 POP POP SWAP3 SWAP2 POP POP JUMP JUMPDEST PUSH1 0x0 PUSH1 0x40 DUP3 ADD SWAP1 POP PUSH2 0x1870 PUSH1 0x0 DUP4 ADD DUP6 PUSH2 0x1554 JUMP JUMPDEST DUP2 DUP2 SUB PUSH1 0x20 DUP4 ADD MSTORE PUSH2 0x1882 DUP2 DUP5 PUSH2 0x1822 JUMP JUMPDEST SWAP1 POP SWAP4 SWAP3 POP POP POP JUMP JUMPDEST PUSH1 0x0 DUP2 MLOAD SWAP1 POP PUSH2 0x189A DUP2 PUSH2 0x115D JUMP JUMPDEST SWAP3 SWAP2 POP POP JUMP JUMPDEST PUSH1 0x0 PUSH1 0x20 DUP3 DUP5 SUB SLT ISZERO PUSH2 0x18B6 JUMPI PUSH2 0x18B5 PUSH2 0x108E JUMP JUMPDEST JUMPDEST PUSH1 0x0 PUSH2 0x18C4 DUP5 DUP3 DUP6 ADD PUSH2 0x188B JUMP JUMPDEST SWAP2 POP POP SWAP3 SWAP2 POP POP JUMP JUMPDEST PUSH1 0x0 PUSH1 0x80 DUP3 ADD SWAP1 POP PUSH2 0x18E2 PUSH1 0x0 DUP4 ADD DUP8 PUSH2 0x1554 JUMP JUMPDEST PUSH2 0x18EF PUSH1 0x20 DUP4 ADD DUP7 PUSH2 0x14EA JUMP JUMPDEST PUSH2 0x18FC PUSH1 0x40 DUP4 ADD DUP6 PUSH2 0x1554 JUMP JUMPDEST PUSH2 0x1909 PUSH1 0x60 DUP4 ADD DUP5 PUSH2 0x14EA JUMP JUMPDEST SWAP6 SWAP5 POP POP POP POP POP JUMP JUMPDEST PUSH1 0x0 PUSH1 0xFF DUP3 AND SWAP1 POP SWAP2 SWAP1 POP JUMP JUMPDEST PUSH32 0x4E487B7100000000000000000000000000000000000000000000000000000000 PUSH1 0x0 MSTORE PUSH1 0x12 PUSH1 0x4 MSTORE PUSH1 0x24 PUSH1 0x0 REVERT JUMPDEST PUSH1 0x0 PUSH2 0x1959 DUP3 PUSH2 0x1912 JUMP JUMPDEST SWAP2 POP PUSH2 0x1964 DUP4 PUSH2 0x1912 JUMP JUMPDEST SWAP3 POP DUP3 PUSH2 0x1974 JUMPI PUSH2 0x1973 PUSH2 0x191F JUMP JUMPDEST JUMPDEST DUP3 DUP3 MOD SWAP1 POP SWAP3 SWAP2 POP POP JUMP JUMPDEST PUSH32 0x4E487B7100000000000000000000000000000000000000000000000000000000 PUSH1 0x0 MSTORE PUSH1 0x11 PUSH1 0x4 MSTORE PUSH1 0x24 PUSH1 0x0 REVERT JUMPDEST PUSH1 0x0 DUP2 PUSH1 0x1 SHR SWAP1 POP SWAP2 SWAP1 POP JUMP JUMPDEST PUSH1 0x0 DUP1 DUP3 SWAP2 POP DUP4 SWAP1 POP JUMPDEST PUSH1 0x1 DUP6 GT ISZERO PUSH2 0x1A05 JUMPI DUP1 DUP7 DIV DUP2 GT ISZERO PUSH2 0x19E1 JUMPI PUSH2 0x19E0 PUSH2 0x197F JUMP JUMPDEST JUMPDEST PUSH1 0x1 DUP6 AND ISZERO PUSH2 0x19F0 JUMPI DUP1 DUP3 MUL SWAP2 POP JUMPDEST DUP1 DUP2 MUL SWAP1 POP PUSH2 0x19FE DUP6 PUSH2 0x19AE JUMP JUMPDEST SWAP5 POP PUSH2 0x19C5 JUMP JUMPDEST SWAP5 POP SWAP5 SWAP3 POP POP POP JUMP JUMPDEST PUSH1 0x0 DUP3 PUSH2 0x1A1E JUMPI PUSH1 0x1 SWAP1 POP PUSH2 0x1ADA JUMP JUMPDEST DUP2 PUSH2 0x1A2C JUMPI PUSH1 0x0 SWAP1 POP PUSH2 0x1ADA JUMP JUMPDEST DUP2 PUSH1 0x1 DUP2 EQ PUSH2 0x1A42 JUMPI PUSH1 0x2 DUP2 EQ PUSH2 0x1A4C JUMPI PUSH2 0x1A7B JUMP JUMPDEST PUSH1 0x1 SWAP2 POP POP PUSH2 0x1ADA JUMP JUMPDEST PUSH1 0xFF DUP5 GT ISZERO PUSH2 0x1A5E JUMPI PUSH2 0x1A5D PUSH2 0x197F JUMP JUMPDEST JUMPDEST DUP4 PUSH1 0x2 EXP SWAP2 POP DUP5 DUP3 GT ISZERO PUSH2 0x1A75 JUMPI PUSH2 0x1A74 PUSH2 0x197F JUMP JUMPDEST JUMPDEST POP PUSH2 0x1ADA JUMP JUMPDEST POP PUSH1 0x20 DUP4 LT PUSH2 0x133 DUP4 LT AND PUSH1 0x4E DUP5 LT PUSH1 0xB DUP5 LT AND OR ISZERO PUSH2 0x1AB0 JUMPI DUP3 DUP3 EXP SWAP1 POP DUP4 DUP2 GT ISZERO PUSH2 0x1AAB JUMPI PUSH2 0x1AAA PUSH2 0x197F JUMP JUMPDEST JUMPDEST PUSH2 0x1ADA JUMP JUMPDEST PUSH2 0x1ABD DUP5 DUP5 DUP5 PUSH1 0x1 PUSH2 0x19BB JUMP JUMPDEST SWAP3 POP SWAP1 POP DUP2 DUP5 DIV DUP2 GT ISZERO PUSH2 0x1AD4 JUMPI PUSH2 0x1AD3 PUSH2 0x197F JUMP JUMPDEST JUMPDEST DUP2 DUP2 MUL SWAP1 POP JUMPDEST SWAP4 SWAP3 POP POP POP JUMP JUMPDEST PUSH1 0x0 PUSH2 0x1AEC DUP3 PUSH2 0x1153 JUMP JUMPDEST SWAP2 POP PUSH2 0x1AF7 DUP4 PUSH2 0x1912 JUMP JUMPDEST SWAP3 POP PUSH2 0x1B24 PUSH32 0xFFFFFFFFFFFFFFFFFFFFFFFFFFFFFFFFFFFFFFFFFFFFFFFFFFFFFFFFFFFFFFFF DUP5 DUP5 PUSH2 0x1A0E JUMP JUMPDEST SWAP1 POP SWAP3 SWAP2 POP POP JUMP JUMPDEST PUSH32 0x4E487B7100000000000000000000000000000000000000000000000000000000 PUSH1 0x0 MSTORE PUSH1 0x32 PUSH1 0x4 MSTORE PUSH1 0x24 PUSH1 0x0 REVERT JUMPDEST PUSH1 0x0 PUSH2 0x1B66 DUP3 PUSH2 0x1153 JUMP JUMPDEST SWAP2 POP PUSH2 0x1B71 DUP4 PUSH2 0x1153 JUMP JUMPDEST SWAP3 POP DUP2 PUSH32 0xFFFFFFFFFFFFFFFFFFFFFFFFFFFFFFFFFFFFFFFFFFFFFFFFFFFFFFFFFFFFFFFF DIV DUP4 GT DUP3 ISZERO ISZERO AND ISZERO PUSH2 0x1BAA JUMPI PUSH2 0x1BA9 PUSH2 0x197F JUMP JUMPDEST JUMPDEST DUP3 DUP3 MUL SWAP1 POP SWAP3 SWAP2 POP POP JUMP JUMPDEST PUSH1 0x0 PUSH2 0x1BC0 DUP3 PUSH2 0x1912 JUMP JUMPDEST SWAP2 POP PUSH2 0x1BCB DUP4 PUSH2 0x1912 JUMP JUMPDEST SWAP3 POP DUP3 PUSH2 0x1BDB JUMPI PUSH2 0x1BDA PUSH2 0x191F JUMP JUMPDEST JUMPDEST DUP3 DUP3 DIV SWAP1 POP SWAP3 SWAP2 POP POP JUMP JUMPDEST PUSH1 0x0 PUSH2 0x1BF1 DUP3 PUSH2 0x1153 JUMP JUMPDEST SWAP2 POP PUSH2 0x1BFC DUP4 PUSH2 0x1153 JUMP JUMPDEST SWAP3 POP DUP3 PUSH32 0xFFFFFFFFFFFFFFFFFFFFFFFFFFFFFFFFFFFFFFFFFFFFFFFFFFFFFFFFFFFFFFFF SUB DUP3 GT ISZERO PUSH2 0x1C31 JUMPI PUSH2 0x1C30 PUSH2 0x197F JUMP JUMPDEST JUMPDEST DUP3 DUP3 ADD SWAP1 POP SWAP3 SWAP2 POP POP JUMP JUMPDEST PUSH1 0x0 PUSH2 0x1C47 DUP3 PUSH2 0x1912 JUMP JUMPDEST SWAP2 POP PUSH1 0xFF DUP3 SUB PUSH2 0x1C5A JUMPI PUSH2 0x1C59 PUSH2 0x197F JUMP JUMPDEST JUMPDEST PUSH1 0x1 DUP3 ADD SWAP1 POP SWAP2 SWAP1 POP JUMP JUMPDEST PUSH1 0x0 PUSH1 0x40 DUP3 ADD SWAP1 POP PUSH2 0x1C7A PUSH1 0x0 DUP4 ADD DUP6 PUSH2 0x1554 JUMP JUMPDEST PUSH2 0x1C87 PUSH1 0x20 DUP4 ADD DUP5 PUSH2 0x14EA JUMP JUMPDEST SWAP4 SWAP3 POP POP POP JUMP JUMPDEST PUSH1 0x0 DUP2 SWAP1 POP SWAP3 SWAP2 POP POP JUMP JUMPDEST PUSH32 0x416363657373436F6E74726F6C3A206163636F756E7420000000000000000000 PUSH1 0x0 DUP3 ADD MSTORE POP JUMP JUMPDEST PUSH1 0x0 PUSH2 0x1CCF PUSH1 0x17 DUP4 PUSH2 0x1C8E JUMP JUMPDEST SWAP2 POP PUSH2 0x1CDA DUP3 PUSH2 0x1C99 JUMP JUMPDEST PUSH1 0x17 DUP3 ADD SWAP1 POP SWAP2 SWAP1 POP JUMP JUMPDEST PUSH1 0x0 PUSH2 0x1CF0 DUP3 PUSH2 0x17E4 JUMP JUMPDEST PUSH2 0x1CFA DUP2 DUP6 PUSH2 0x1C8E JUMP JUMPDEST SWAP4 POP PUSH2 0x1D0A DUP2 DUP6 PUSH1 0x20 DUP7 ADD PUSH2 0x17EF JUMP JUMPDEST DUP1 DUP5 ADD SWAP2 POP POP SWAP3 SWAP2 POP POP JUMP JUMPDEST PUSH32 0x206973206D697373696E6720726F6C6520000000000000000000000000000000 PUSH1 0x0 DUP3 ADD MSTORE POP JUMP JUMPDEST PUSH1 0x0 PUSH2 0x1D4C PUSH1 0x11 DUP4 PUSH2 0x1C8E JUMP JUMPDEST SWAP2 POP PUSH2 0x1D57 DUP3 PUSH2 0x1D16 JUMP JUMPDEST PUSH1 0x11 DUP3 ADD SWAP1 POP SWAP2 SWAP1 POP JUMP JUMPDEST PUSH1 0x0 PUSH2 0x1D6D DUP3 PUSH2 0x1CC2 JUMP JUMPDEST SWAP2 POP PUSH2 0x1D79 DUP3 DUP6 PUSH2 0x1CE5 JUMP JUMPDEST SWAP2 POP PUSH2 0x1D84 DUP3 PUSH2 0x1D3F JUMP JUMPDEST SWAP2 POP PUSH2 0x1D90 DUP3 DUP5 PUSH2 0x1CE5 JUMP JUMPDEST SWAP2 POP DUP2 SWAP1 POP SWAP4 SWAP3 POP POP POP JUMP JUMPDEST PUSH1 0x0 PUSH1 0x20 DUP3 ADD SWAP1 POP DUP2 DUP2 SUB PUSH1 0x0 DUP4 ADD MSTORE PUSH2 0x1DB6 DUP2 DUP5 PUSH2 0x1822 JUMP JUMPDEST SWAP1 POP SWAP3 SWAP2 POP POP JUMP JUMPDEST PUSH1 0x0 PUSH2 0x1DC9 DUP3 PUSH2 0x1153 JUMP JUMPDEST SWAP2 POP PUSH1 0x0 DUP3 SUB PUSH2 0x1DDC JUMPI PUSH2 0x1DDB PUSH2 0x197F JUMP JUMPDEST JUMPDEST PUSH1 0x1 DUP3 SUB SWAP1 POP SWAP2 SWAP1 POP JUMP JUMPDEST PUSH32 0x537472696E67733A20686578206C656E67746820696E73756666696369656E74 PUSH1 0x0 DUP3 ADD MSTORE POP JUMP JUMPDEST PUSH1 0x0 PUSH2 0x1E1D PUSH1 0x20 DUP4 PUSH2 0x1645 JUMP JUMPDEST SWAP2 POP PUSH2 0x1E28 DUP3 PUSH2 0x1DE7 JUMP JUMPDEST PUSH1 0x20 DUP3 ADD SWAP1 POP SWAP2 SWAP1 POP JUMP JUMPDEST PUSH1 0x0 PUSH1 0x20 DUP3 ADD SWAP1 POP DUP2 DUP2 SUB PUSH1 0x0 DUP4 ADD MSTORE PUSH2 0x1E4C DUP2 PUSH2 0x1E10 JUMP JUMPDEST SWAP1 POP SWAP2 SWAP1 POP JUMP INVALID LOG2 PUSH5 0x6970667358 0x22 SLT KECCAK256 SMOD RETURNDATASIZE DUP15 0xBD SWAP10 PUSH10 0xF34F36D43D7D5A1B5F94 CALLDATALOAD 0x29 PUSH14 0xB7326ADE07F0A6B7544A171D8964 PUSH20 0x6F6C634300080D00330000000000000000000000 "
				},
				"gasEstimates": {
					"creation": {
						"codeDepositCost": "1563400",
						"executionCost": "infinite",
						"totalCost": "infinite"
					},
					"external": {
						"DEFAULT_ADMIN_ROLE()": "402",
						"PAUSER_ROLE()": "395",
						"SQFi()": "infinite",
						"amount1()": "2539",
						"bytes32ToAmount16(bytes32)": "infinite",
						"createSQFI(string)": "infinite",
						"editSupportedFee(address,uint256)": "infinite",
						"fee1()": "2603",
						"getRoleAdmin(bytes32)": "infinite",
						"grantRole(bytes32,address)": "infinite",
						"hasRole(bytes32,address)": "3163",
						"paused()": "2546",
						"renounceRole(bytes32,address)": "infinite",
						"revokeRole(bytes32,address)": "infinite",
						"supportsInterface(bytes4)": "751",
						"uncraft(uint256)": "infinite",
						"withdraw(address,uint256)": "infinite"
					}
				},
				"methodIdentifiers": {
					"DEFAULT_ADMIN_ROLE()": "a217fddf",
					"PAUSER_ROLE()": "e63ab1e9",
					"SQFi()": "52c6159f",
					"amount1()": "f400fde4",
					"bytes32ToAmount16(bytes32)": "dd23faf3",
					"createSQFI(string)": "841acc5d",
					"editSupportedFee(address,uint256)": "945099bc",
					"fee1()": "c6098256",
					"getRoleAdmin(bytes32)": "248a9ca3",
					"grantRole(bytes32,address)": "2f2ff15d",
					"hasRole(bytes32,address)": "91d14854",
					"paused()": "5c975abb",
					"renounceRole(bytes32,address)": "36568abe",
					"revokeRole(bytes32,address)": "d547741f",
					"supportsInterface(bytes4)": "01ffc9a7",
					"uncraft(uint256)": "0a1ac657",
					"withdraw(address,uint256)": "f3fef3a3"
				}
			},
			"storageLayout": {
				"storage": [
					{
						"astId": 946,
						"contract": "contracts/SQFITEM/SQFI_Factory.sol:ParagonFactory",
						"label": "_paused",
						"offset": 0,
						"slot": "0",
						"type": "t_bool"
					},
					{
						"astId": 24,
						"contract": "contracts/SQFITEM/SQFI_Factory.sol:ParagonFactory",
						"label": "_roles",
						"offset": 0,
						"slot": "1",
						"type": "t_mapping(t_bytes32,t_struct(RoleData)19_storage)"
					},
					{
						"astId": 1043,
						"contract": "contracts/SQFITEM/SQFI_Factory.sol:ParagonFactory",
						"label": "SQFi",
						"offset": 0,
						"slot": "2",
						"type": "t_contract(ISQFItem)840"
					},
					{
						"astId": 1050,
						"contract": "contracts/SQFITEM/SQFI_Factory.sol:ParagonFactory",
						"label": "fee1",
						"offset": 0,
						"slot": "3",
						"type": "t_address"
					},
					{
						"astId": 1053,
						"contract": "contracts/SQFITEM/SQFI_Factory.sol:ParagonFactory",
						"label": "amount1",
						"offset": 0,
						"slot": "4",
						"type": "t_uint256"
					}
				],
				"types": {
					"t_address": {
						"encoding": "inplace",
						"label": "address",
						"numberOfBytes": "20"
					},
					"t_bool": {
						"encoding": "inplace",
						"label": "bool",
						"numberOfBytes": "1"
					},
					"t_bytes32": {
						"encoding": "inplace",
						"label": "bytes32",
						"numberOfBytes": "32"
					},
					"t_contract(ISQFItem)840": {
						"encoding": "inplace",
						"label": "contract ISQFItem",
						"numberOfBytes": "20"
					},
					"t_mapping(t_address,t_bool)": {
						"encoding": "mapping",
						"key": "t_address",
						"label": "mapping(address => bool)",
						"numberOfBytes": "32",
						"value": "t_bool"
					},
					"t_mapping(t_bytes32,t_struct(RoleData)19_storage)": {
						"encoding": "mapping",
						"key": "t_bytes32",
						"label": "mapping(bytes32 => struct AccessControl.RoleData)",
						"numberOfBytes": "32",
						"value": "t_struct(RoleData)19_storage"
					},
					"t_struct(RoleData)19_storage": {
						"encoding": "inplace",
						"label": "struct AccessControl.RoleData",
						"members": [
							{
								"astId": 16,
								"contract": "contracts/SQFITEM/SQFI_Factory.sol:ParagonFactory",
								"label": "members",
								"offset": 0,
								"slot": "0",
								"type": "t_mapping(t_address,t_bool)"
							},
							{
								"astId": 18,
								"contract": "contracts/SQFITEM/SQFI_Factory.sol:ParagonFactory",
								"label": "adminRole",
								"offset": 0,
								"slot": "1",
								"type": "t_bytes32"
							}
						],
						"numberOfBytes": "64"
					},
					"t_uint256": {
						"encoding": "inplace",
						"label": "uint256",
						"numberOfBytes": "32"
					}
				}
			},
			"userdoc": {
				"kind": "user",
				"methods": {},
				"version": 1
			}
		}
	}
}