{
	"contracts/SQFITEM/Marketplace.sol": {
		"Marketplace": {
			"abi": [
				{
					"inputs": [],
					"stateMutability": "nonpayable",
					"type": "constructor"
				},
				{
					"anonymous": false,
					"inputs": [
						{
							"indexed": false,
							"internalType": "address",
							"name": "bidder",
							"type": "address"
						},
						{
							"indexed": false,
							"internalType": "uint256",
							"name": "timestamp",
							"type": "uint256"
						},
						{
							"indexed": false,
							"internalType": "uint256",
							"name": "orderId",
							"type": "uint256"
						},
						{
							"indexed": false,
							"internalType": "uint256",
							"name": "price",
							"type": "uint256"
						}
					],
					"name": "Bid",
					"type": "event"
				},
				{
					"anonymous": false,
					"inputs": [
						{
							"indexed": false,
							"internalType": "address",
							"name": "token",
							"type": "address"
						},
						{
							"indexed": false,
							"internalType": "uint256",
							"name": "fee",
							"type": "uint256"
						},
						{
							"indexed": false,
							"internalType": "bool",
							"name": "status",
							"type": "bool"
						}
					],
					"name": "EditCurrency",
					"type": "event"
				},
				{
					"anonymous": false,
					"inputs": [
						{
							"indexed": false,
							"internalType": "uint256",
							"name": "newFee",
							"type": "uint256"
						}
					],
					"name": "FeeChange",
					"type": "event"
				},
				{
					"anonymous": false,
					"inputs": [
						{
							"indexed": false,
							"internalType": "uint256",
							"name": "orderId",
							"type": "uint256"
						},
						{
							"indexed": false,
							"internalType": "uint256",
							"name": "timestamp",
							"type": "uint256"
						}
					],
					"name": "OrderCancel",
					"type": "event"
				},
				{
					"anonymous": false,
					"inputs": [
						{
							"indexed": false,
							"internalType": "uint256",
							"name": "orderId",
							"type": "uint256"
						},
						{
							"indexed": false,
							"internalType": "address",
							"name": "buyer",
							"type": "address"
						},
						{
							"indexed": false,
							"internalType": "uint256",
							"name": "price",
							"type": "uint256"
						},
						{
							"indexed": false,
							"internalType": "uint256",
							"name": "fee",
							"type": "uint256"
						},
						{
							"indexed": false,
							"internalType": "uint256",
							"name": "timestamp",
							"type": "uint256"
						}
					],
					"name": "OrderConfirmed",
					"type": "event"
				},
				{
					"anonymous": false,
					"inputs": [
						{
							"indexed": false,
							"internalType": "uint256",
							"name": "orderId",
							"type": "uint256"
						},
						{
							"indexed": false,
							"internalType": "address",
							"name": "contractNft",
							"type": "address"
						},
						{
							"indexed": false,
							"internalType": "address",
							"name": "currency",
							"type": "address"
						},
						{
							"indexed": false,
							"internalType": "address",
							"name": "creator",
							"type": "address"
						},
						{
							"indexed": false,
							"internalType": "uint256",
							"name": "timestamp",
							"type": "uint256"
						},
						{
							"indexed": false,
							"internalType": "uint256",
							"name": "nftId",
							"type": "uint256"
						},
						{
							"indexed": false,
							"internalType": "uint256",
							"name": "timeEnd",
							"type": "uint256"
						},
						{
							"indexed": false,
							"internalType": "uint256",
							"name": "currentPrice",
							"type": "uint256"
						},
						{
							"indexed": false,
							"internalType": "uint256",
							"name": "spotPrice",
							"type": "uint256"
						}
					],
					"name": "OrderCreate",
					"type": "event"
				},
				{
					"anonymous": false,
					"inputs": [
						{
							"indexed": false,
							"internalType": "address",
							"name": "account",
							"type": "address"
						}
					],
					"name": "Paused",
					"type": "event"
				},
				{
					"anonymous": false,
					"inputs": [
						{
							"indexed": true,
							"internalType": "bytes32",
							"name": "role",
							"type": "bytes32"
						},
						{
							"indexed": true,
							"internalType": "bytes32",
							"name": "previousAdminRole",
							"type": "bytes32"
						},
						{
							"indexed": true,
							"internalType": "bytes32",
							"name": "newAdminRole",
							"type": "bytes32"
						}
					],
					"name": "RoleAdminChanged",
					"type": "event"
				},
				{
					"anonymous": false,
					"inputs": [
						{
							"indexed": true,
							"internalType": "bytes32",
							"name": "role",
							"type": "bytes32"
						},
						{
							"indexed": true,
							"internalType": "address",
							"name": "account",
							"type": "address"
						},
						{
							"indexed": true,
							"internalType": "address",
							"name": "sender",
							"type": "address"
						}
					],
					"name": "RoleGranted",
					"type": "event"
				},
				{
					"anonymous": false,
					"inputs": [
						{
							"indexed": true,
							"internalType": "bytes32",
							"name": "role",
							"type": "bytes32"
						},
						{
							"indexed": true,
							"internalType": "address",
							"name": "account",
							"type": "address"
						},
						{
							"indexed": true,
							"internalType": "address",
							"name": "sender",
							"type": "address"
						}
					],
					"name": "RoleRevoked",
					"type": "event"
				},
				{
					"anonymous": false,
					"inputs": [
						{
							"indexed": false,
							"internalType": "address",
							"name": "account",
							"type": "address"
						}
					],
					"name": "Unpaused",
					"type": "event"
				},
				{
					"inputs": [],
					"name": "DEFAULT_ADMIN_ROLE",
					"outputs": [
						{
							"internalType": "bytes32",
							"name": "",
							"type": "bytes32"
						}
					],
					"stateMutability": "view",
					"type": "function"
				},
				{
					"inputs": [],
					"name": "MARKET_CONFIG",
					"outputs": [
						{
							"internalType": "bytes32",
							"name": "",
							"type": "bytes32"
						}
					],
					"stateMutability": "view",
					"type": "function"
				},
				{
					"inputs": [],
					"name": "PAUSER_ROLE",
					"outputs": [
						{
							"internalType": "bytes32",
							"name": "",
							"type": "bytes32"
						}
					],
					"stateMutability": "view",
					"type": "function"
				},
				{
					"inputs": [
						{
							"internalType": "address",
							"name": "_nftAddress",
							"type": "address"
						}
					],
					"name": "addSupportedNFT",
					"outputs": [],
					"stateMutability": "nonpayable",
					"type": "function"
				},
				{
					"inputs": [
						{
							"internalType": "uint256",
							"name": "orderId",
							"type": "uint256"
						}
					],
					"name": "adminCancelOrder",
					"outputs": [],
					"stateMutability": "nonpayable",
					"type": "function"
				},
				{
					"inputs": [
						{
							"internalType": "uint256",
							"name": "orderId",
							"type": "uint256"
						}
					],
					"name": "approveSold",
					"outputs": [],
					"stateMutability": "nonpayable",
					"type": "function"
				},
				{
					"inputs": [
						{
							"internalType": "uint256",
							"name": "orderId",
							"type": "uint256"
						},
						{
							"internalType": "uint256",
							"name": "amount",
							"type": "uint256"
						}
					],
					"name": "bid",
					"outputs": [],
					"stateMutability": "payable",
					"type": "function"
				},
				{
					"inputs": [
						{
							"internalType": "uint256",
							"name": "orderId",
							"type": "uint256"
						}
					],
					"name": "cancelOrder",
					"outputs": [],
					"stateMutability": "nonpayable",
					"type": "function"
				},
				{
					"inputs": [
						{
							"internalType": "uint256",
							"name": "orderId",
							"type": "uint256"
						}
					],
					"name": "claim",
					"outputs": [],
					"stateMutability": "nonpayable",
					"type": "function"
				},
				{
					"inputs": [
						{
							"internalType": "address",
							"name": "contractNft",
							"type": "address"
						},
						{
							"internalType": "address",
							"name": "currency",
							"type": "address"
						},
						{
							"internalType": "uint256",
							"name": "nftId",
							"type": "uint256"
						},
						{
							"internalType": "uint256",
							"name": "timeEnd",
							"type": "uint256"
						},
						{
							"internalType": "uint256",
							"name": "initPrice",
							"type": "uint256"
						},
						{
							"internalType": "uint256",
							"name": "spotPrice",
							"type": "uint256"
						}
					],
					"name": "createOrder",
					"outputs": [],
					"stateMutability": "nonpayable",
					"type": "function"
				},
				{
					"inputs": [
						{
							"internalType": "address",
							"name": "token",
							"type": "address"
						},
						{
							"internalType": "uint256",
							"name": "fee",
							"type": "uint256"
						},
						{
							"internalType": "uint256",
							"name": "minNextBid",
							"type": "uint256"
						},
						{
							"internalType": "bool",
							"name": "status",
							"type": "bool"
						}
					],
					"name": "editSupportedCurrency",
					"outputs": [],
					"stateMutability": "nonpayable",
					"type": "function"
				},
				{
					"inputs": [
						{
							"internalType": "bytes32",
							"name": "role",
							"type": "bytes32"
						}
					],
					"name": "getRoleAdmin",
					"outputs": [
						{
							"internalType": "bytes32",
							"name": "",
							"type": "bytes32"
						}
					],
					"stateMutability": "view",
					"type": "function"
				},
				{
					"inputs": [
						{
							"internalType": "bytes32",
							"name": "role",
							"type": "bytes32"
						},
						{
							"internalType": "address",
							"name": "account",
							"type": "address"
						}
					],
					"name": "grantRole",
					"outputs": [],
					"stateMutability": "nonpayable",
					"type": "function"
				},
				{
					"inputs": [
						{
							"internalType": "bytes32",
							"name": "role",
							"type": "bytes32"
						},
						{
							"internalType": "address",
							"name": "account",
							"type": "address"
						}
					],
					"name": "hasRole",
					"outputs": [
						{
							"internalType": "bool",
							"name": "",
							"type": "bool"
						}
					],
					"stateMutability": "view",
					"type": "function"
				},
				{
					"inputs": [],
					"name": "minTime",
					"outputs": [
						{
							"internalType": "uint256",
							"name": "",
							"type": "uint256"
						}
					],
					"stateMutability": "view",
					"type": "function"
				},
				{
					"inputs": [
						{
							"internalType": "uint256",
							"name": "",
							"type": "uint256"
						}
					],
					"name": "orders",
					"outputs": [
						{
							"internalType": "uint256",
							"name": "nftId",
							"type": "uint256"
						},
						{
							"internalType": "uint256",
							"name": "timeEnd",
							"type": "uint256"
						},
						{
							"internalType": "uint256",
							"name": "currentPrice",
							"type": "uint256"
						},
						{
							"internalType": "uint256",
							"name": "spotPrice",
							"type": "uint256"
						},
						{
							"internalType": "address",
							"name": "nftContract",
							"type": "address"
						},
						{
							"internalType": "address",
							"name": "currency",
							"type": "address"
						},
						{
							"internalType": "address",
							"name": "lastBid",
							"type": "address"
						},
						{
							"internalType": "address",
							"name": "saler",
							"type": "address"
						},
						{
							"internalType": "bool",
							"name": "isEnd",
							"type": "bool"
						}
					],
					"stateMutability": "view",
					"type": "function"
				},
				{
					"inputs": [],
					"name": "owner",
					"outputs": [
						{
							"internalType": "address payable",
							"name": "",
							"type": "address"
						}
					],
					"stateMutability": "view",
					"type": "function"
				},
				{
					"inputs": [],
					"name": "pause",
					"outputs": [],
					"stateMutability": "nonpayable",
					"type": "function"
				},
				{
					"inputs": [],
					"name": "paused",
					"outputs": [
						{
							"internalType": "bool",
							"name": "",
							"type": "bool"
						}
					],
					"stateMutability": "view",
					"type": "function"
				},
				{
					"inputs": [
						{
							"internalType": "address",
							"name": "_nftAddress",
							"type": "address"
						}
					],
					"name": "removeSupportedNFT",
					"outputs": [],
					"stateMutability": "nonpayable",
					"type": "function"
				},
				{
					"inputs": [
						{
							"internalType": "bytes32",
							"name": "role",
							"type": "bytes32"
						},
						{
							"internalType": "address",
							"name": "account",
							"type": "address"
						}
					],
					"name": "renounceRole",
					"outputs": [],
					"stateMutability": "nonpayable",
					"type": "function"
				},
				{
					"inputs": [
						{
							"internalType": "bytes32",
							"name": "role",
							"type": "bytes32"
						},
						{
							"internalType": "address",
							"name": "account",
							"type": "address"
						}
					],
					"name": "revokeRole",
					"outputs": [],
					"stateMutability": "nonpayable",
					"type": "function"
				},
				{
					"inputs": [
						{
							"internalType": "uint256",
							"name": "_time",
							"type": "uint256"
						}
					],
					"name": "setMinTime",
					"outputs": [],
					"stateMutability": "nonpayable",
					"type": "function"
				},
				{
					"inputs": [
						{
							"internalType": "string",
							"name": "source",
							"type": "string"
						}
					],
					"name": "stringToBytes32",
					"outputs": [
						{
							"internalType": "bytes32",
							"name": "result",
							"type": "bytes32"
						}
					],
					"stateMutability": "pure",
					"type": "function"
				},
				{
					"inputs": [
						{
							"internalType": "address",
							"name": "",
							"type": "address"
						}
					],
					"name": "supportedCurrency",
					"outputs": [
						{
							"internalType": "uint256",
							"name": "fee",
							"type": "uint256"
						},
						{
							"internalType": "uint256",
							"name": "minNextBid",
							"type": "uint256"
						},
						{
							"internalType": "bool",
							"name": "status",
							"type": "bool"
						}
					],
					"stateMutability": "view",
					"type": "function"
				},
				{
					"inputs": [
						{
							"internalType": "address",
							"name": "",
							"type": "address"
						}
					],
					"name": "supportedNFT",
					"outputs": [
						{
							"internalType": "bool",
							"name": "",
							"type": "bool"
						}
					],
					"stateMutability": "view",
					"type": "function"
				},
				{
					"inputs": [
						{
							"internalType": "bytes4",
							"name": "interfaceId",
							"type": "bytes4"
						}
					],
					"name": "supportsInterface",
					"outputs": [
						{
							"internalType": "bool",
							"name": "",
							"type": "bool"
						}
					],
					"stateMutability": "view",
					"type": "function"
				},
				{
					"inputs": [],
					"name": "unpause",
					"outputs": [],
					"stateMutability": "nonpayable",
					"type": "function"
				},
				{
					"inputs": [
						{
							"internalType": "address",
							"name": "token",
							"type": "address"
						},
						{
							"internalType": "uint256",
							"name": "amount",
							"type": "uint256"
						}
					],
					"name": "withdraw",
					"outputs": [],
					"stateMutability": "nonpayable",
					"type": "function"
				}
			],
			"devdoc": {
				"kind": "dev",
				"methods": {
					"getRoleAdmin(bytes32)": {
						"details": "Returns the admin role that controls `role`. See {grantRole} and {revokeRole}. To change a role's admin, use {AccessControl-_setRoleAdmin}."
					},
					"grantRole(bytes32,address)": {
						"details": "Grants `role` to `account`. If `account` had not been already granted `role`, emits a {RoleGranted} event. Requirements: - the caller must have ``role``'s admin role."
					},
					"hasRole(bytes32,address)": {
						"details": "Returns `true` if `account` has been granted `role`."
					},
					"paused()": {
						"details": "Returns true if the contract is paused, and false otherwise."
					},
					"renounceRole(bytes32,address)": {
						"details": "Revokes `role` from the calling account. Roles are often managed via {grantRole} and {revokeRole}: this function's purpose is to provide a mechanism for accounts to lose their privileges if they are compromised (such as when a trusted device is misplaced). If the calling account had been granted `role`, emits a {RoleRevoked} event. Requirements: - the caller must be `account`."
					},
					"revokeRole(bytes32,address)": {
						"details": "Revokes `role` from `account`. If `account` had been granted `role`, emits a {RoleRevoked} event. Requirements: - the caller must have ``role``'s admin role."
					},
					"supportsInterface(bytes4)": {
						"details": "See {IERC165-supportsInterface}."
					}
				},
				"version": 1
			},
			"evm": {
				"assembly": "    /* \"contracts/SQFITEM/Marketplace.sol\":191:9769  contract Marketplace is Pausable, AccessControl {... */\n  mstore(0x40, 0x80)\n    /* \"contracts/SQFITEM/Marketplace.sol\":442:443  0 */\n  0x00\n    /* \"contracts/SQFITEM/Marketplace.sol\":417:443  uint256 public minTime = 0 */\n  0x02\n  sstore\n    /* \"contracts/SQFITEM/Marketplace.sol\":1670:1872  constructor() {... */\n  callvalue\n  dup1\n  iszero\n  tag_1\n  jumpi\n  0x00\n  dup1\n  revert\ntag_1:\n  pop\n    /* \"contracts/SQFITEM/Pausable.sol\":927:932  false */\n  0x00\n    /* \"contracts/SQFITEM/Pausable.sol\":917:924  _paused */\n  dup1\n  0x00\n    /* \"contracts/SQFITEM/Pausable.sol\":917:932  _paused = false */\n  0x0100\n  exp\n  dup2\n  sload\n  dup2\n  0xff\n  mul\n  not\n  and\n  swap1\n  dup4\n  iszero\n  iszero\n  mul\n  or\n  swap1\n  sstore\n  pop\n    /* \"contracts/SQFITEM/Marketplace.sol\":1694:1736  _setupRole(DEFAULT_ADMIN_ROLE, msg.sender) */\n  tag_6\n    /* \"contracts/SQFITEM/AccessControl.sol\":427:431  0x00 */\n  0x00\n    /* \"contracts/SQFITEM/Marketplace.sol\":1705:1723  DEFAULT_ADMIN_ROLE */\n  dup1\n  shl\n    /* \"contracts/SQFITEM/Marketplace.sol\":1725:1735  msg.sender */\n  caller\n    /* \"contracts/SQFITEM/Marketplace.sol\":1694:1704  _setupRole */\n  shl(0x20, tag_7)\n    /* \"contracts/SQFITEM/Marketplace.sol\":1694:1736  _setupRole(DEFAULT_ADMIN_ROLE, msg.sender) */\n  0x20\n  shr\n  jump\t// in\ntag_6:\n    /* \"contracts/SQFITEM/Marketplace.sol\":1746:1783  _setupRole(MARKET_CONFIG, msg.sender) */\n  tag_8\n    /* \"contracts/SQFITEM/Marketplace.sol\":317:343  keccak256(\"MARKET_CONFIG\") */\n  0xd6ec3d4e172787e4fbb9572fe6dff2ebff47878d0878cd2c913f5c49b4487ea0\n    /* \"contracts/SQFITEM/Marketplace.sol\":1772:1782  msg.sender */\n  caller\n    /* \"contracts/SQFITEM/Marketplace.sol\":1746:1756  _setupRole */\n  shl(0x20, tag_7)\n    /* \"contracts/SQFITEM/Marketplace.sol\":1746:1783  _setupRole(MARKET_CONFIG, msg.sender) */\n  0x20\n  shr\n  jump\t// in\ntag_8:\n    /* \"contracts/SQFITEM/Marketplace.sol\":1793:1828  _setupRole(PAUSER_ROLE, msg.sender) */\n  tag_9\n    /* \"contracts/SQFITEM/Marketplace.sol\":387:411  keccak256(\"PAUSER_ROLE\") */\n  0x65d7a28e3265b37a6474929f336521b332c1681b933f6cb9f3376673440d862a\n    /* \"contracts/SQFITEM/Marketplace.sol\":1817:1827  msg.sender */\n  caller\n    /* \"contracts/SQFITEM/Marketplace.sol\":1793:1803  _setupRole */\n  shl(0x20, tag_7)\n    /* \"contracts/SQFITEM/Marketplace.sol\":1793:1828  _setupRole(PAUSER_ROLE, msg.sender) */\n  0x20\n  shr\n  jump\t// in\ntag_9:\n    /* \"contracts/SQFITEM/Marketplace.sol\":1854:1864  msg.sender */\n  caller\n    /* \"contracts/SQFITEM/Marketplace.sol\":1838:1843  owner */\n  0x03\n  0x00\n    /* \"contracts/SQFITEM/Marketplace.sol\":1838:1865  owner = payable(msg.sender) */\n  0x0100\n  exp\n  dup2\n  sload\n  dup2\n  0xffffffffffffffffffffffffffffffffffffffff\n  mul\n  not\n  and\n  swap1\n  dup4\n  0xffffffffffffffffffffffffffffffffffffffff\n  and\n  mul\n  or\n  swap1\n  sstore\n  pop\n    /* \"contracts/SQFITEM/Marketplace.sol\":191:9769  contract Marketplace is Pausable, AccessControl {... */\n  jump(tag_10)\n    /* \"contracts/SQFITEM/AccessControl.sol\":2026:2136  function _setupRole(bytes32 role, address account) internal virtual {... */\ntag_7:\n    /* \"contracts/SQFITEM/AccessControl.sol\":2104:2129  _grantRole(role, account) */\n  tag_12\n    /* \"contracts/SQFITEM/AccessControl.sol\":2115:2119  role */\n  dup3\n    /* \"contracts/SQFITEM/AccessControl.sol\":2121:2128  account */\n  dup3\n    /* \"contracts/SQFITEM/AccessControl.sol\":2104:2114  _grantRole */\n  shl(0x20, tag_13)\n    /* \"contracts/SQFITEM/AccessControl.sol\":2104:2129  _grantRole(role, account) */\n  0x20\n  shr\n  jump\t// in\ntag_12:\n    /* \"contracts/SQFITEM/AccessControl.sol\":2026:2136  function _setupRole(bytes32 role, address account) internal virtual {... */\n  pop\n  pop\n  jump\t// out\n    /* \"contracts/SQFITEM/AccessControl.sol\":2395:2619  function _grantRole(bytes32 role, address account) private {... */\ntag_13:\n    /* \"contracts/SQFITEM/AccessControl.sol\":2469:2491  hasRole(role, account) */\n  tag_15\n    /* \"contracts/SQFITEM/AccessControl.sol\":2477:2481  role */\n  dup3\n    /* \"contracts/SQFITEM/AccessControl.sol\":2483:2490  account */\n  dup3\n    /* \"contracts/SQFITEM/AccessControl.sol\":2469:2476  hasRole */\n  shl(0x20, tag_16)\n    /* \"contracts/SQFITEM/AccessControl.sol\":2469:2491  hasRole(role, account) */\n  0x20\n  shr\n  jump\t// in\ntag_15:\n    /* \"contracts/SQFITEM/AccessControl.sol\":2464:2613  if (!hasRole(role, account)) {... */\n  tag_17\n  jumpi\n    /* \"contracts/SQFITEM/AccessControl.sol\":2539:2543  true */\n  0x01\n    /* \"contracts/SQFITEM/AccessControl.sol\":2507:2513  _roles */\n  dup1\n    /* \"contracts/SQFITEM/AccessControl.sol\":2507:2519  _roles[role] */\n  0x00\n    /* \"contracts/SQFITEM/AccessControl.sol\":2514:2518  role */\n  dup5\n    /* \"contracts/SQFITEM/AccessControl.sol\":2507:2519  _roles[role] */\n  dup2\n  mstore\n  0x20\n  add\n  swap1\n  dup2\n  mstore\n  0x20\n  add\n  0x00\n  keccak256\n    /* \"contracts/SQFITEM/AccessControl.sol\":2507:2527  _roles[role].members */\n  0x00\n  add\n    /* \"contracts/SQFITEM/AccessControl.sol\":2507:2536  _roles[role].members[account] */\n  0x00\n    /* \"contracts/SQFITEM/AccessControl.sol\":2528:2535  account */\n  dup4\n    /* \"contracts/SQFITEM/AccessControl.sol\":2507:2536  _roles[role].members[account] */\n  0xffffffffffffffffffffffffffffffffffffffff\n  and\n  0xffffffffffffffffffffffffffffffffffffffff\n  and\n  dup2\n  mstore\n  0x20\n  add\n  swap1\n  dup2\n  mstore\n  0x20\n  add\n  0x00\n  keccak256\n  0x00\n    /* \"contracts/SQFITEM/AccessControl.sol\":2507:2543  _roles[role].members[account] = true */\n  0x0100\n  exp\n  dup2\n  sload\n  dup2\n  0xff\n  mul\n  not\n  and\n  swap1\n  dup4\n  iszero\n  iszero\n  mul\n  or\n  swap1\n  sstore\n  pop\n    /* \"contracts/SQFITEM/AccessControl.sol\":2589:2601  _msgSender() */\n  tag_18\n    /* \"contracts/SQFITEM/AccessControl.sol\":2589:2599  _msgSender */\n  shl(0x20, tag_19)\n    /* \"contracts/SQFITEM/AccessControl.sol\":2589:2601  _msgSender() */\n  0x20\n  shr\n  jump\t// in\ntag_18:\n    /* \"contracts/SQFITEM/AccessControl.sol\":2562:2602  RoleGranted(role, account, _msgSender()) */\n  0xffffffffffffffffffffffffffffffffffffffff\n  and\n    /* \"contracts/SQFITEM/AccessControl.sol\":2580:2587  account */\n  dup2\n    /* \"contracts/SQFITEM/AccessControl.sol\":2562:2602  RoleGranted(role, account, _msgSender()) */\n  0xffffffffffffffffffffffffffffffffffffffff\n  and\n    /* \"contracts/SQFITEM/AccessControl.sol\":2574:2578  role */\n  dup4\n    /* \"contracts/SQFITEM/AccessControl.sol\":2562:2602  RoleGranted(role, account, _msgSender()) */\n  0x2f8788117e7eff1d82e926ec794901d17c78024a50270940304540a733656f0d\n  mload(0x40)\n  mload(0x40)\n  dup1\n  swap2\n  sub\n  swap1\n  log4\n    /* \"contracts/SQFITEM/AccessControl.sol\":2464:2613  if (!hasRole(role, account)) {... */\ntag_17:\n    /* \"contracts/SQFITEM/AccessControl.sol\":2395:2619  function _grantRole(bytes32 role, address account) private {... */\n  pop\n  pop\n  jump\t// out\n    /* \"contracts/SQFITEM/AccessControl.sol\":742:879  function hasRole(bytes32 role, address account) public view override returns (bool) {... */\ntag_16:\n    /* \"contracts/SQFITEM/AccessControl.sol\":820:824  bool */\n  0x00\n    /* \"contracts/SQFITEM/AccessControl.sol\":843:849  _roles */\n  0x01\n    /* \"contracts/SQFITEM/AccessControl.sol\":843:855  _roles[role] */\n  0x00\n    /* \"contracts/SQFITEM/AccessControl.sol\":850:854  role */\n  dup5\n    /* \"contracts/SQFITEM/AccessControl.sol\":843:855  _roles[role] */\n  dup2\n  mstore\n  0x20\n  add\n  swap1\n  dup2\n  mstore\n  0x20\n  add\n  0x00\n  keccak256\n    /* \"contracts/SQFITEM/AccessControl.sol\":843:863  _roles[role].members */\n  0x00\n  add\n    /* \"contracts/SQFITEM/AccessControl.sol\":843:872  _roles[role].members[account] */\n  0x00\n    /* \"contracts/SQFITEM/AccessControl.sol\":864:871  account */\n  dup4\n    /* \"contracts/SQFITEM/AccessControl.sol\":843:872  _roles[role].members[account] */\n  0xffffffffffffffffffffffffffffffffffffffff\n  and\n  0xffffffffffffffffffffffffffffffffffffffff\n  and\n  dup2\n  mstore\n  0x20\n  add\n  swap1\n  dup2\n  mstore\n  0x20\n  add\n  0x00\n  keccak256\n  0x00\n  swap1\n  sload\n  swap1\n  0x0100\n  exp\n  swap1\n  div\n  0xff\n  and\n    /* \"contracts/SQFITEM/AccessControl.sol\":836:872  return _roles[role].members[account] */\n  swap1\n  pop\n    /* \"contracts/SQFITEM/AccessControl.sol\":742:879  function hasRole(bytes32 role, address account) public view override returns (bool) {... */\n  swap3\n  swap2\n  pop\n  pop\n  jump\t// out\n    /* \"contracts/SQFITEM/Context.sol\":587:683  function _msgSender() internal view virtual returns (address) {... */\ntag_19:\n    /* \"contracts/SQFITEM/Context.sol\":640:647  address */\n  0x00\n    /* \"contracts/SQFITEM/Context.sol\":666:676  msg.sender */\n  caller\n    /* \"contracts/SQFITEM/Context.sol\":659:676  return msg.sender */\n  swap1\n  pop\n    /* \"contracts/SQFITEM/Context.sol\":587:683  function _msgSender() internal view virtual returns (address) {... */\n  swap1\n  jump\t// out\n    /* \"contracts/SQFITEM/Marketplace.sol\":191:9769  contract Marketplace is Pausable, AccessControl {... */\ntag_10:\n  dataSize(sub_0)\n  dup1\n  dataOffset(sub_0)\n  0x00\n  codecopy\n  0x00\n  return\nstop\n\nsub_0: assembly {\n        /* \"contracts/SQFITEM/Marketplace.sol\":191:9769  contract Marketplace is Pausable, AccessControl {... */\n      mstore(0x40, 0x80)\n      jumpi(tag_1, lt(calldatasize, 0x04))\n      shr(0xe0, calldataload(0x00))\n      dup1\n      0x6325c105\n      gt\n      tag_31\n      jumpi\n      dup1\n      0xa217fddf\n      gt\n      tag_32\n      jumpi\n      dup1\n      0xd547741f\n      gt\n      tag_33\n      jumpi\n      dup1\n      0xd547741f\n      eq\n      tag_27\n      jumpi\n      dup1\n      0xd6d46232\n      eq\n      tag_28\n      jumpi\n      dup1\n      0xe63ab1e9\n      eq\n      tag_29\n      jumpi\n      dup1\n      0xf3fef3a3\n      eq\n      tag_30\n      jumpi\n      jump(tag_1)\n    tag_33:\n      dup1\n      0xa217fddf\n      eq\n      tag_23\n      jumpi\n      dup1\n      0xa85c38ef\n      eq\n      tag_24\n      jumpi\n      dup1\n      0xc8312a54\n      eq\n      tag_25\n      jumpi\n      dup1\n      0xcfb51928\n      eq\n      tag_26\n      jumpi\n      jump(tag_1)\n    tag_32:\n      dup1\n      0x8da5cb5b\n      gt\n      tag_34\n      jumpi\n      dup1\n      0x8da5cb5b\n      eq\n      tag_19\n      jumpi\n      dup1\n      0x91d14854\n      eq\n      tag_20\n      jumpi\n      dup1\n      0x93f89a80\n      eq\n      tag_21\n      jumpi\n      dup1\n      0x9ae10a1f\n      eq\n      tag_22\n      jumpi\n      jump(tag_1)\n    tag_34:\n      dup1\n      0x6325c105\n      eq\n      tag_16\n      jumpi\n      dup1\n      0x7b2c3a85\n      eq\n      tag_17\n      jumpi\n      dup1\n      0x8456cb59\n      eq\n      tag_18\n      jumpi\n      jump(tag_1)\n    tag_31:\n      dup1\n      0x3d0cc799\n      gt\n      tag_35\n      jumpi\n      dup1\n      0x566a7ac3\n      gt\n      tag_36\n      jumpi\n      dup1\n      0x566a7ac3\n      eq\n      tag_12\n      jumpi\n      dup1\n      0x587f70bf\n      eq\n      tag_13\n      jumpi\n      dup1\n      0x598647f8\n      eq\n      tag_14\n      jumpi\n      dup1\n      0x5c975abb\n      eq\n      tag_15\n      jumpi\n      jump(tag_1)\n    tag_36:\n      dup1\n      0x3d0cc799\n      eq\n      tag_9\n      jumpi\n      dup1\n      0x3f4ba83a\n      eq\n      tag_10\n      jumpi\n      dup1\n      0x514fcac7\n      eq\n      tag_11\n      jumpi\n      jump(tag_1)\n    tag_35:\n      dup1\n      0x248a9ca3\n      gt\n      tag_37\n      jumpi\n      dup1\n      0x248a9ca3\n      eq\n      tag_5\n      jumpi\n      dup1\n      0x2f2ff15d\n      eq\n      tag_6\n      jumpi\n      dup1\n      0x36568abe\n      eq\n      tag_7\n      jumpi\n      dup1\n      0x379607f5\n      eq\n      tag_8\n      jumpi\n      jump(tag_1)\n    tag_37:\n      dup1\n      0x01ffc9a7\n      eq\n      tag_2\n      jumpi\n      dup1\n      0x1aa43078\n      eq\n      tag_3\n      jumpi\n      dup1\n      0x22ccf3cd\n      eq\n      tag_4\n      jumpi\n    tag_1:\n      0x00\n      dup1\n      revert\n        /* \"contracts/SQFITEM/AccessControl.sol\":534:736  function supportsInterface(bytes4 interfaceId) public view virtual override returns (bool) {... */\n    tag_2:\n      callvalue\n      dup1\n      iszero\n      tag_38\n      jumpi\n      0x00\n      dup1\n      revert\n    tag_38:\n      pop\n      tag_39\n      0x04\n      dup1\n      calldatasize\n      sub\n      dup2\n      add\n      swap1\n      tag_40\n      swap2\n      swap1\n      tag_41\n      jump\t// in\n    tag_40:\n      tag_42\n      jump\t// in\n    tag_39:\n      mload(0x40)\n      tag_43\n      swap2\n      swap1\n      tag_44\n      jump\t// in\n    tag_43:\n      mload(0x40)\n      dup1\n      swap2\n      sub\n      swap1\n      return\n        /* \"contracts/SQFITEM/Marketplace.sol\":417:443  uint256 public minTime = 0 */\n    tag_3:\n      callvalue\n      dup1\n      iszero\n      tag_45\n      jumpi\n      0x00\n      dup1\n      revert\n    tag_45:\n      pop\n      tag_46\n      tag_47\n      jump\t// in\n    tag_46:\n      mload(0x40)\n      tag_48\n      swap2\n      swap1\n      tag_49\n      jump\t// in\n    tag_48:\n      mload(0x40)\n      dup1\n      swap2\n      sub\n      swap1\n      return\n        /* \"contracts/SQFITEM/Marketplace.sol\":6584:7524  function approveSold(uint256 orderId) public whenNotPaused {... */\n    tag_4:\n      callvalue\n      dup1\n      iszero\n      tag_50\n      jumpi\n      0x00\n      dup1\n      revert\n    tag_50:\n      pop\n      tag_51\n      0x04\n      dup1\n      calldatasize\n      sub\n      dup2\n      add\n      swap1\n      tag_52\n      swap2\n      swap1\n      tag_53\n      jump\t// in\n    tag_52:\n      tag_54\n      jump\t// in\n    tag_51:\n      stop\n        /* \"contracts/SQFITEM/AccessControl.sol\":1375:1496  function getRoleAdmin(bytes32 role) public view override returns (bytes32) {... */\n    tag_5:\n      callvalue\n      dup1\n      iszero\n      tag_55\n      jumpi\n      0x00\n      dup1\n      revert\n    tag_55:\n      pop\n      tag_56\n      0x04\n      dup1\n      calldatasize\n      sub\n      dup2\n      add\n      swap1\n      tag_57\n      swap2\n      swap1\n      tag_58\n      jump\t// in\n    tag_57:\n      tag_59\n      jump\t// in\n    tag_56:\n      mload(0x40)\n      tag_60\n      swap2\n      swap1\n      tag_61\n      jump\t// in\n    tag_60:\n      mload(0x40)\n      dup1\n      swap2\n      sub\n      swap1\n      return\n        /* \"contracts/SQFITEM/AccessControl.sol\":1502:1647  function grantRole(bytes32 role, address account) public virtual override onlyRole(getRoleAdmin(role)) {... */\n    tag_6:\n      callvalue\n      dup1\n      iszero\n      tag_62\n      jumpi\n      0x00\n      dup1\n      revert\n    tag_62:\n      pop\n      tag_63\n      0x04\n      dup1\n      calldatasize\n      sub\n      dup2\n      add\n      swap1\n      tag_64\n      swap2\n      swap1\n      tag_65\n      jump\t// in\n    tag_64:\n      tag_66\n      jump\t// in\n    tag_63:\n      stop\n        /* \"contracts/SQFITEM/AccessControl.sol\":1806:2020  function renounceRole(bytes32 role, address account) public virtual override {... */\n    tag_7:\n      callvalue\n      dup1\n      iszero\n      tag_67\n      jumpi\n      0x00\n      dup1\n      revert\n    tag_67:\n      pop\n      tag_68\n      0x04\n      dup1\n      calldatasize\n      sub\n      dup2\n      add\n      swap1\n      tag_69\n      swap2\n      swap1\n      tag_65\n      jump\t// in\n    tag_69:\n      tag_70\n      jump\t// in\n    tag_68:\n      stop\n        /* \"contracts/SQFITEM/Marketplace.sol\":7530:8470  function claim(uint256 orderId) public whenNotPaused {... */\n    tag_8:\n      callvalue\n      dup1\n      iszero\n      tag_71\n      jumpi\n      0x00\n      dup1\n      revert\n    tag_71:\n      pop\n      tag_72\n      0x04\n      dup1\n      calldatasize\n      sub\n      dup2\n      add\n      swap1\n      tag_73\n      swap2\n      swap1\n      tag_53\n      jump\t// in\n    tag_73:\n      tag_74\n      jump\t// in\n    tag_72:\n      stop\n        /* \"contracts/SQFITEM/Marketplace.sol\":631:684  mapping(address => Currency) public supportedCurrency */\n    tag_9:\n      callvalue\n      dup1\n      iszero\n      tag_75\n      jumpi\n      0x00\n      dup1\n      revert\n    tag_75:\n      pop\n      tag_76\n      0x04\n      dup1\n      calldatasize\n      sub\n      dup2\n      add\n      swap1\n      tag_77\n      swap2\n      swap1\n      tag_78\n      jump\t// in\n    tag_77:\n      tag_79\n      jump\t// in\n    tag_76:\n      mload(0x40)\n      tag_80\n      swap4\n      swap3\n      swap2\n      swap1\n      tag_81\n      jump\t// in\n    tag_80:\n      mload(0x40)\n      dup1\n      swap2\n      sub\n      swap1\n      return\n        /* \"contracts/SQFITEM/Marketplace.sol\":9405:9485  function unpause() public onlyRole(PAUSER_ROLE) {... */\n    tag_10:\n      callvalue\n      dup1\n      iszero\n      tag_82\n      jumpi\n      0x00\n      dup1\n      revert\n    tag_82:\n      pop\n      tag_83\n      tag_84\n      jump\t// in\n    tag_83:\n      stop\n        /* \"contracts/SQFITEM/Marketplace.sol\":3955:4535  function cancelOrder(uint256 orderId) public whenNotPaused {... */\n    tag_11:\n      callvalue\n      dup1\n      iszero\n      tag_85\n      jumpi\n      0x00\n      dup1\n      revert\n    tag_85:\n      pop\n      tag_86\n      0x04\n      dup1\n      calldatasize\n      sub\n      dup2\n      add\n      swap1\n      tag_87\n      swap2\n      swap1\n      tag_53\n      jump\t// in\n    tag_87:\n      tag_88\n      jump\t// in\n    tag_86:\n      stop\n        /* \"contracts/SQFITEM/Marketplace.sol\":483:527  mapping(address => bool) public supportedNFT */\n    tag_12:\n      callvalue\n      dup1\n      iszero\n      tag_89\n      jumpi\n      0x00\n      dup1\n      revert\n    tag_89:\n      pop\n      tag_90\n      0x04\n      dup1\n      calldatasize\n      sub\n      dup2\n      add\n      swap1\n      tag_91\n      swap2\n      swap1\n      tag_78\n      jump\t// in\n    tag_91:\n      tag_92\n      jump\t// in\n    tag_90:\n      mload(0x40)\n      tag_93\n      swap2\n      swap1\n      tag_44\n      jump\t// in\n    tag_93:\n      mload(0x40)\n      dup1\n      swap2\n      sub\n      swap1\n      return\n        /* \"contracts/SQFITEM/Marketplace.sol\":1878:2168  function editSupportedCurrency(... */\n    tag_13:\n      callvalue\n      dup1\n      iszero\n      tag_94\n      jumpi\n      0x00\n      dup1\n      revert\n    tag_94:\n      pop\n      tag_95\n      0x04\n      dup1\n      calldatasize\n      sub\n      dup2\n      add\n      swap1\n      tag_96\n      swap2\n      swap1\n      tag_97\n      jump\t// in\n    tag_96:\n      tag_98\n      jump\t// in\n    tag_95:\n      stop\n        /* \"contracts/SQFITEM/Marketplace.sol\":4541:6578  function bid(uint256 orderId, uint256 amount) public payable whenNotPaused {... */\n    tag_14:\n      tag_99\n      0x04\n      dup1\n      calldatasize\n      sub\n      dup2\n      add\n      swap1\n      tag_100\n      swap2\n      swap1\n      tag_101\n      jump\t// in\n    tag_100:\n      tag_102\n      jump\t// in\n    tag_99:\n      stop\n        /* \"contracts/SQFITEM/Pausable.sol\":1034:1118  function paused() public view virtual returns (bool) {... */\n    tag_15:\n      callvalue\n      dup1\n      iszero\n      tag_103\n      jumpi\n      0x00\n      dup1\n      revert\n    tag_103:\n      pop\n      tag_104\n      tag_105\n      jump\t// in\n    tag_104:\n      mload(0x40)\n      tag_106\n      swap2\n      swap1\n      tag_44\n      jump\t// in\n    tag_106:\n      mload(0x40)\n      dup1\n      swap2\n      sub\n      swap1\n      return\n        /* \"contracts/SQFITEM/Marketplace.sol\":277:343  bytes32 public constant MARKET_CONFIG = keccak256(\"MARKET_CONFIG\") */\n    tag_16:\n      callvalue\n      dup1\n      iszero\n      tag_107\n      jumpi\n      0x00\n      dup1\n      revert\n    tag_107:\n      pop\n      tag_108\n      tag_109\n      jump\t// in\n    tag_108:\n      mload(0x40)\n      tag_110\n      swap2\n      swap1\n      tag_61\n      jump\t// in\n    tag_110:\n      mload(0x40)\n      dup1\n      swap2\n      sub\n      swap1\n      return\n        /* \"contracts/SQFITEM/Marketplace.sol\":2174:2320  function addSupportedNFT(address _nftAddress)... */\n    tag_17:\n      callvalue\n      dup1\n      iszero\n      tag_111\n      jumpi\n      0x00\n      dup1\n      revert\n    tag_111:\n      pop\n      tag_112\n      0x04\n      dup1\n      calldatasize\n      sub\n      dup2\n      add\n      swap1\n      tag_113\n      swap2\n      swap1\n      tag_78\n      jump\t// in\n    tag_113:\n      tag_114\n      jump\t// in\n    tag_112:\n      stop\n        /* \"contracts/SQFITEM/Marketplace.sol\":9328:9399  function pause() public onlyRole(PAUSER_ROLE) {... */\n    tag_18:\n      callvalue\n      dup1\n      iszero\n      tag_115\n      jumpi\n      0x00\n      dup1\n      revert\n    tag_115:\n      pop\n      tag_116\n      tag_117\n      jump\t// in\n    tag_116:\n      stop\n        /* \"contracts/SQFITEM/Marketplace.sol\":449:477  address payable public owner */\n    tag_19:\n      callvalue\n      dup1\n      iszero\n      tag_118\n      jumpi\n      0x00\n      dup1\n      revert\n    tag_118:\n      pop\n      tag_119\n      tag_120\n      jump\t// in\n    tag_119:\n      mload(0x40)\n      tag_121\n      swap2\n      swap1\n      tag_122\n      jump\t// in\n    tag_121:\n      mload(0x40)\n      dup1\n      swap2\n      sub\n      swap1\n      return\n        /* \"contracts/SQFITEM/AccessControl.sol\":742:879  function hasRole(bytes32 role, address account) public view override returns (bool) {... */\n    tag_20:\n      callvalue\n      dup1\n      iszero\n      tag_123\n      jumpi\n      0x00\n      dup1\n      revert\n    tag_123:\n      pop\n      tag_124\n      0x04\n      dup1\n      calldatasize\n      sub\n      dup2\n      add\n      swap1\n      tag_125\n      swap2\n      swap1\n      tag_65\n      jump\t// in\n    tag_125:\n      tag_126\n      jump\t// in\n    tag_124:\n      mload(0x40)\n      tag_127\n      swap2\n      swap1\n      tag_44\n      jump\t// in\n    tag_127:\n      mload(0x40)\n      dup1\n      swap2\n      sub\n      swap1\n      return\n        /* \"contracts/SQFITEM/Marketplace.sol\":2482:2580  function setMinTime(uint256 _time) public onlyRole(MARKET_CONFIG) {... */\n    tag_21:\n      callvalue\n      dup1\n      iszero\n      tag_128\n      jumpi\n      0x00\n      dup1\n      revert\n    tag_128:\n      pop\n      tag_129\n      0x04\n      dup1\n      calldatasize\n      sub\n      dup2\n      add\n      swap1\n      tag_130\n      swap2\n      swap1\n      tag_53\n      jump\t// in\n    tag_130:\n      tag_131\n      jump\t// in\n    tag_129:\n      stop\n        /* \"contracts/SQFITEM/Marketplace.sol\":8768:9322  function adminCancelOrder(uint256 orderId)... */\n    tag_22:\n      callvalue\n      dup1\n      iszero\n      tag_132\n      jumpi\n      0x00\n      dup1\n      revert\n    tag_132:\n      pop\n      tag_133\n      0x04\n      dup1\n      calldatasize\n      sub\n      dup2\n      add\n      swap1\n      tag_134\n      swap2\n      swap1\n      tag_53\n      jump\t// in\n    tag_134:\n      tag_135\n      jump\t// in\n    tag_133:\n      stop\n        /* \"contracts/SQFITEM/AccessControl.sol\":382:431  bytes32 public constant DEFAULT_ADMIN_ROLE = 0x00 */\n    tag_23:\n      callvalue\n      dup1\n      iszero\n      tag_136\n      jumpi\n      0x00\n      dup1\n      revert\n    tag_136:\n      pop\n      tag_137\n      tag_138\n      jump\t// in\n    tag_137:\n      mload(0x40)\n      tag_139\n      swap2\n      swap1\n      tag_61\n      jump\t// in\n    tag_139:\n      mload(0x40)\n      dup1\n      swap2\n      sub\n      swap1\n      return\n        /* \"contracts/SQFITEM/Marketplace.sol\":943:964  Order[] public orders */\n    tag_24:\n      callvalue\n      dup1\n      iszero\n      tag_140\n      jumpi\n      0x00\n      dup1\n      revert\n    tag_140:\n      pop\n      tag_141\n      0x04\n      dup1\n      calldatasize\n      sub\n      dup2\n      add\n      swap1\n      tag_142\n      swap2\n      swap1\n      tag_53\n      jump\t// in\n    tag_142:\n      tag_143\n      jump\t// in\n    tag_141:\n      mload(0x40)\n      tag_144\n      swap10\n      swap9\n      swap8\n      swap7\n      swap6\n      swap5\n      swap4\n      swap3\n      swap2\n      swap1\n      tag_145\n      jump\t// in\n    tag_144:\n      mload(0x40)\n      dup1\n      swap2\n      sub\n      swap1\n      return\n        /* \"contracts/SQFITEM/Marketplace.sol\":2326:2476  function removeSupportedNFT(address _nftAddress)... */\n    tag_25:\n      callvalue\n      dup1\n      iszero\n      tag_146\n      jumpi\n      0x00\n      dup1\n      revert\n    tag_146:\n      pop\n      tag_147\n      0x04\n      dup1\n      calldatasize\n      sub\n      dup2\n      add\n      swap1\n      tag_148\n      swap2\n      swap1\n      tag_78\n      jump\t// in\n    tag_148:\n      tag_149\n      jump\t// in\n    tag_147:\n      stop\n        /* \"contracts/SQFITEM/AccessControl.sol\":2860:3133  function stringToBytes32(string memory source) public pure returns (bytes32 result) {... */\n    tag_26:\n      callvalue\n      dup1\n      iszero\n      tag_150\n      jumpi\n      0x00\n      dup1\n      revert\n    tag_150:\n      pop\n      tag_151\n      0x04\n      dup1\n      calldatasize\n      sub\n      dup2\n      add\n      swap1\n      tag_152\n      swap2\n      swap1\n      tag_153\n      jump\t// in\n    tag_152:\n      tag_154\n      jump\t// in\n    tag_151:\n      mload(0x40)\n      tag_155\n      swap2\n      swap1\n      tag_61\n      jump\t// in\n    tag_155:\n      mload(0x40)\n      dup1\n      swap2\n      sub\n      swap1\n      return\n        /* \"contracts/SQFITEM/AccessControl.sol\":1653:1800  function revokeRole(bytes32 role, address account) public virtual override onlyRole(getRoleAdmin(role)) {... */\n    tag_27:\n      callvalue\n      dup1\n      iszero\n      tag_156\n      jumpi\n      0x00\n      dup1\n      revert\n    tag_156:\n      pop\n      tag_157\n      0x04\n      dup1\n      calldatasize\n      sub\n      dup2\n      add\n      swap1\n      tag_158\n      swap2\n      swap1\n      tag_65\n      jump\t// in\n    tag_158:\n      tag_159\n      jump\t// in\n    tag_157:\n      stop\n        /* \"contracts/SQFITEM/Marketplace.sol\":2586:3949  function createOrder(... */\n    tag_28:\n      callvalue\n      dup1\n      iszero\n      tag_160\n      jumpi\n      0x00\n      dup1\n      revert\n    tag_160:\n      pop\n      tag_161\n      0x04\n      dup1\n      calldatasize\n      sub\n      dup2\n      add\n      swap1\n      tag_162\n      swap2\n      swap1\n      tag_163\n      jump\t// in\n    tag_162:\n      tag_164\n      jump\t// in\n    tag_161:\n      stop\n        /* \"contracts/SQFITEM/Marketplace.sol\":349:411  bytes32 public constant PAUSER_ROLE = keccak256(\"PAUSER_ROLE\") */\n    tag_29:\n      callvalue\n      dup1\n      iszero\n      tag_165\n      jumpi\n      0x00\n      dup1\n      revert\n    tag_165:\n      pop\n      tag_166\n      tag_167\n      jump\t// in\n    tag_166:\n      mload(0x40)\n      tag_168\n      swap2\n      swap1\n      tag_61\n      jump\t// in\n    tag_168:\n      mload(0x40)\n      dup1\n      swap2\n      sub\n      swap1\n      return\n        /* \"contracts/SQFITEM/Marketplace.sol\":9491:9767  function withdraw(address token, uint256 amount)... */\n    tag_30:\n      callvalue\n      dup1\n      iszero\n      tag_169\n      jumpi\n      0x00\n      dup1\n      revert\n    tag_169:\n      pop\n      tag_170\n      0x04\n      dup1\n      calldatasize\n      sub\n      dup2\n      add\n      swap1\n      tag_171\n      swap2\n      swap1\n      tag_172\n      jump\t// in\n    tag_171:\n      tag_173\n      jump\t// in\n    tag_170:\n      stop\n        /* \"contracts/SQFITEM/AccessControl.sol\":534:736  function supportsInterface(bytes4 interfaceId) public view virtual override returns (bool) {... */\n    tag_42:\n        /* \"contracts/SQFITEM/AccessControl.sol\":619:623  bool */\n      0x00\n        /* \"contracts/SQFITEM/AccessControl.sol\":657:689  type(IAccessControl).interfaceId */\n      0x7965db0b00000000000000000000000000000000000000000000000000000000\n        /* \"contracts/SQFITEM/AccessControl.sol\":642:689  interfaceId == type(IAccessControl).interfaceId */\n      not(0xffffffffffffffffffffffffffffffffffffffffffffffffffffffff)\n      and\n        /* \"contracts/SQFITEM/AccessControl.sol\":642:653  interfaceId */\n      dup3\n        /* \"contracts/SQFITEM/AccessControl.sol\":642:689  interfaceId == type(IAccessControl).interfaceId */\n      not(0xffffffffffffffffffffffffffffffffffffffffffffffffffffffff)\n      and\n      eq\n        /* \"contracts/SQFITEM/AccessControl.sol\":642:729  interfaceId == type(IAccessControl).interfaceId || super.supportsInterface(interfaceId) */\n      dup1\n      tag_175\n      jumpi\n      pop\n        /* \"contracts/SQFITEM/AccessControl.sol\":693:729  super.supportsInterface(interfaceId) */\n      tag_176\n        /* \"contracts/SQFITEM/AccessControl.sol\":717:728  interfaceId */\n      dup3\n        /* \"contracts/SQFITEM/AccessControl.sol\":693:716  super.supportsInterface */\n      tag_177\n        /* \"contracts/SQFITEM/AccessControl.sol\":693:729  super.supportsInterface(interfaceId) */\n      jump\t// in\n    tag_176:\n        /* \"contracts/SQFITEM/AccessControl.sol\":642:729  interfaceId == type(IAccessControl).interfaceId || super.supportsInterface(interfaceId) */\n    tag_175:\n        /* \"contracts/SQFITEM/AccessControl.sol\":635:729  return interfaceId == type(IAccessControl).interfaceId || super.supportsInterface(interfaceId) */\n      swap1\n      pop\n        /* \"contracts/SQFITEM/AccessControl.sol\":534:736  function supportsInterface(bytes4 interfaceId) public view virtual override returns (bool) {... */\n      swap2\n      swap1\n      pop\n      jump\t// out\n        /* \"contracts/SQFITEM/Marketplace.sol\":417:443  uint256 public minTime = 0 */\n    tag_47:\n      sload(0x02)\n      dup2\n      jump\t// out\n        /* \"contracts/SQFITEM/Marketplace.sol\":6584:7524  function approveSold(uint256 orderId) public whenNotPaused {... */\n    tag_54:\n        /* \"contracts/SQFITEM/Pausable.sol\":1348:1356  paused() */\n      tag_179\n        /* \"contracts/SQFITEM/Pausable.sol\":1348:1354  paused */\n      tag_105\n        /* \"contracts/SQFITEM/Pausable.sol\":1348:1356  paused() */\n      jump\t// in\n    tag_179:\n        /* \"contracts/SQFITEM/Pausable.sol\":1347:1356  !paused() */\n      iszero\n        /* \"contracts/SQFITEM/Pausable.sol\":1339:1377  require(!paused(), \"Pausable: paused\") */\n      tag_180\n      jumpi\n      mload(0x40)\n      0x08c379a000000000000000000000000000000000000000000000000000000000\n      dup2\n      mstore\n      0x04\n      add\n      tag_181\n      swap1\n      tag_182\n      jump\t// in\n    tag_181:\n      mload(0x40)\n      dup1\n      swap2\n      sub\n      swap1\n      revert\n    tag_180:\n        /* \"contracts/SQFITEM/Marketplace.sol\":6671:6677  orders */\n      0x06\n        /* \"contracts/SQFITEM/Marketplace.sol\":6671:6684  orders.length */\n      dup1\n      sload\n      swap1\n      pop\n        /* \"contracts/SQFITEM/Marketplace.sol\":6661:6668  orderId */\n      dup2\n        /* \"contracts/SQFITEM/Marketplace.sol\":6661:6684  orderId < orders.length */\n      lt\n        /* \"contracts/SQFITEM/Marketplace.sol\":6653:6705  require(orderId < orders.length, \"Order ID invalid\") */\n      tag_184\n      jumpi\n      mload(0x40)\n      0x08c379a000000000000000000000000000000000000000000000000000000000\n      dup2\n      mstore\n      0x04\n      add\n      tag_185\n      swap1\n      tag_186\n      jump\t// in\n    tag_185:\n      mload(0x40)\n      dup1\n      swap2\n      sub\n      swap1\n      revert\n    tag_184:\n        /* \"contracts/SQFITEM/Marketplace.sol\":6715:6734  Order storage order */\n      0x00\n        /* \"contracts/SQFITEM/Marketplace.sol\":6737:6743  orders */\n      0x06\n        /* \"contracts/SQFITEM/Marketplace.sol\":6744:6751  orderId */\n      dup3\n        /* \"contracts/SQFITEM/Marketplace.sol\":6737:6752  orders[orderId] */\n      dup2\n      sload\n      dup2\n      lt\n      tag_187\n      jumpi\n      tag_188\n      tag_189\n      jump\t// in\n    tag_188:\n    tag_187:\n      swap1\n      0x00\n      mstore\n      keccak256(0x00, 0x20)\n      swap1\n      0x08\n      mul\n      add\n        /* \"contracts/SQFITEM/Marketplace.sol\":6715:6752  Order storage order = orders[orderId] */\n      swap1\n      pop\n        /* \"contracts/SQFITEM/Marketplace.sol\":6762:6786  Currency memory currency */\n      0x00\n        /* \"contracts/SQFITEM/Marketplace.sol\":6789:6806  supportedCurrency */\n      0x05\n        /* \"contracts/SQFITEM/Marketplace.sol\":6789:6822  supportedCurrency[order.currency] */\n      0x00\n        /* \"contracts/SQFITEM/Marketplace.sol\":6807:6812  order */\n      dup4\n        /* \"contracts/SQFITEM/Marketplace.sol\":6807:6821  order.currency */\n      0x05\n      add\n      0x00\n      swap1\n      sload\n      swap1\n      0x0100\n      exp\n      swap1\n      div\n      0xffffffffffffffffffffffffffffffffffffffff\n      and\n        /* \"contracts/SQFITEM/Marketplace.sol\":6789:6822  supportedCurrency[order.currency] */\n      0xffffffffffffffffffffffffffffffffffffffff\n      and\n      0xffffffffffffffffffffffffffffffffffffffff\n      and\n      dup2\n      mstore\n      0x20\n      add\n      swap1\n      dup2\n      mstore\n      0x20\n      add\n      0x00\n      keccak256\n        /* \"contracts/SQFITEM/Marketplace.sol\":6762:6822  Currency memory currency = supportedCurrency[order.currency] */\n      mload(0x40)\n      dup1\n      0x60\n      add\n      0x40\n      mstore\n      swap1\n      dup2\n      0x00\n      dup3\n      add\n      sload\n      dup2\n      mstore\n      0x20\n      add\n      0x01\n      dup3\n      add\n      sload\n      dup2\n      mstore\n      0x20\n      add\n      0x02\n      dup3\n      add\n      0x00\n      swap1\n      sload\n      swap1\n      0x0100\n      exp\n      swap1\n      div\n      0xff\n      and\n      iszero\n      iszero\n      iszero\n      iszero\n      dup2\n      mstore\n      pop\n      pop\n      swap1\n      pop\n        /* \"contracts/SQFITEM/Marketplace.sol\":6855:6865  msg.sender */\n      caller\n        /* \"contracts/SQFITEM/Marketplace.sol\":6840:6865  order.saler == msg.sender */\n      0xffffffffffffffffffffffffffffffffffffffff\n      and\n        /* \"contracts/SQFITEM/Marketplace.sol\":6840:6845  order */\n      dup3\n        /* \"contracts/SQFITEM/Marketplace.sol\":6840:6851  order.saler */\n      0x07\n      add\n      0x00\n      swap1\n      sload\n      swap1\n      0x0100\n      exp\n      swap1\n      div\n      0xffffffffffffffffffffffffffffffffffffffff\n      and\n        /* \"contracts/SQFITEM/Marketplace.sol\":6840:6865  order.saler == msg.sender */\n      0xffffffffffffffffffffffffffffffffffffffff\n      and\n      eq\n        /* \"contracts/SQFITEM/Marketplace.sol\":6832:6883  require(order.saler == msg.sender, \"Must be owner\") */\n      tag_191\n      jumpi\n      mload(0x40)\n      0x08c379a000000000000000000000000000000000000000000000000000000000\n      dup2\n      mstore\n      0x04\n      add\n      tag_192\n      swap1\n      tag_193\n      jump\t// in\n    tag_192:\n      mload(0x40)\n      dup1\n      swap2\n      sub\n      swap1\n      revert\n    tag_191:\n        /* \"contracts/SQFITEM/Marketplace.sol\":6915:6920  order */\n      dup2\n        /* \"contracts/SQFITEM/Marketplace.sol\":6915:6926  order.isEnd */\n      0x07\n      add\n      0x14\n      swap1\n      sload\n      swap1\n      0x0100\n      exp\n      swap1\n      div\n      0xff\n      and\n        /* \"contracts/SQFITEM/Marketplace.sol\":6914:6926  !order.isEnd */\n      iszero\n        /* \"contracts/SQFITEM/Marketplace.sol\":6914:6959  !order.isEnd && order.lastBid != address(0x0) */\n      dup1\n      iszero\n      tag_194\n      jumpi\n      pop\n        /* \"contracts/SQFITEM/Marketplace.sol\":6955:6958  0x0 */\n      0x00\n        /* \"contracts/SQFITEM/Marketplace.sol\":6930:6959  order.lastBid != address(0x0) */\n      0xffffffffffffffffffffffffffffffffffffffff\n      and\n        /* \"contracts/SQFITEM/Marketplace.sol\":6930:6935  order */\n      dup3\n        /* \"contracts/SQFITEM/Marketplace.sol\":6930:6943  order.lastBid */\n      0x06\n      add\n      0x00\n      swap1\n      sload\n      swap1\n      0x0100\n      exp\n      swap1\n      div\n      0xffffffffffffffffffffffffffffffffffffffff\n      and\n        /* \"contracts/SQFITEM/Marketplace.sol\":6930:6959  order.lastBid != address(0x0) */\n      0xffffffffffffffffffffffffffffffffffffffff\n      and\n      eq\n      iszero\n        /* \"contracts/SQFITEM/Marketplace.sol\":6914:6959  !order.isEnd && order.lastBid != address(0x0) */\n    tag_194:\n        /* \"contracts/SQFITEM/Marketplace.sol\":6893:7002  require(... */\n      tag_195\n      jumpi\n      mload(0x40)\n      0x08c379a000000000000000000000000000000000000000000000000000000000\n      dup2\n      mstore\n      0x04\n      add\n      tag_196\n      swap1\n      tag_197\n      jump\t// in\n    tag_196:\n      mload(0x40)\n      dup1\n      swap2\n      sub\n      swap1\n      revert\n    tag_195:\n        /* \"contracts/SQFITEM/Marketplace.sol\":7026:7030  true */\n      0x01\n        /* \"contracts/SQFITEM/Marketplace.sol\":7012:7017  order */\n      dup3\n        /* \"contracts/SQFITEM/Marketplace.sol\":7012:7023  order.isEnd */\n      0x07\n      add\n      0x14\n        /* \"contracts/SQFITEM/Marketplace.sol\":7012:7030  order.isEnd = true */\n      0x0100\n      exp\n      dup2\n      sload\n      dup2\n      0xff\n      mul\n      not\n      and\n      swap1\n      dup4\n      iszero\n      iszero\n      mul\n      or\n      swap1\n      sstore\n      pop\n        /* \"contracts/SQFITEM/Marketplace.sol\":7048:7053  order */\n      dup2\n        /* \"contracts/SQFITEM/Marketplace.sol\":7048:7065  order.nftContract */\n      0x04\n      add\n      0x00\n      swap1\n      sload\n      swap1\n      0x0100\n      exp\n      swap1\n      div\n      0xffffffffffffffffffffffffffffffffffffffff\n      and\n        /* \"contracts/SQFITEM/Marketplace.sol\":7040:7079  IERC721(order.nftContract).transferFrom */\n      0xffffffffffffffffffffffffffffffffffffffff\n      and\n      0x23b872dd\n        /* \"contracts/SQFITEM/Marketplace.sol\":7101:7105  this */\n      address\n        /* \"contracts/SQFITEM/Marketplace.sol\":7120:7125  order */\n      dup5\n        /* \"contracts/SQFITEM/Marketplace.sol\":7120:7133  order.lastBid */\n      0x06\n      add\n      0x00\n      swap1\n      sload\n      swap1\n      0x0100\n      exp\n      swap1\n      div\n      0xffffffffffffffffffffffffffffffffffffffff\n      and\n        /* \"contracts/SQFITEM/Marketplace.sol\":7147:7152  order */\n      dup6\n        /* \"contracts/SQFITEM/Marketplace.sol\":7147:7158  order.nftId */\n      0x00\n      add\n      sload\n        /* \"contracts/SQFITEM/Marketplace.sol\":7040:7168  IERC721(order.nftContract).transferFrom(... */\n      mload(0x40)\n      dup5\n      0xffffffff\n      and\n      0xe0\n      shl\n      dup2\n      mstore\n      0x04\n      add\n      tag_198\n      swap4\n      swap3\n      swap2\n      swap1\n      tag_199\n      jump\t// in\n    tag_198:\n      0x00\n      mload(0x40)\n      dup1\n      dup4\n      sub\n      dup2\n      0x00\n      dup8\n      dup1\n      extcodesize\n      iszero\n      dup1\n      iszero\n      tag_200\n      jumpi\n      0x00\n      dup1\n      revert\n    tag_200:\n      pop\n      gas\n      call\n      iszero\n      dup1\n      iszero\n      tag_202\n      jumpi\n      returndatasize\n      0x00\n      dup1\n      returndatacopy\n      revert(0x00, returndatasize)\n    tag_202:\n      pop\n      pop\n      pop\n      pop\n        /* \"contracts/SQFITEM/Marketplace.sol\":7178:7312  transfer(... */\n      tag_203\n        /* \"contracts/SQFITEM/Marketplace.sol\":7200:7205  order */\n      dup3\n        /* \"contracts/SQFITEM/Marketplace.sol\":7200:7214  order.currency */\n      0x05\n      add\n      0x00\n      swap1\n      sload\n      swap1\n      0x0100\n      exp\n      swap1\n      div\n      0xffffffffffffffffffffffffffffffffffffffff\n      and\n        /* \"contracts/SQFITEM/Marketplace.sol\":7228:7233  order */\n      dup4\n        /* \"contracts/SQFITEM/Marketplace.sol\":7228:7239  order.saler */\n      0x07\n      add\n      0x00\n      swap1\n      sload\n      swap1\n      0x0100\n      exp\n      swap1\n      div\n      0xffffffffffffffffffffffffffffffffffffffff\n      and\n        /* \"contracts/SQFITEM/Marketplace.sol\":7299:7302  100 */\n      0x64\n        /* \"contracts/SQFITEM/Marketplace.sol\":7282:7290  currency */\n      dup5\n        /* \"contracts/SQFITEM/Marketplace.sol\":7282:7294  currency.fee */\n      0x00\n      add\n      mload\n        /* \"contracts/SQFITEM/Marketplace.sol\":7276:7279  100 */\n      0x64\n        /* \"contracts/SQFITEM/Marketplace.sol\":7276:7294  100 - currency.fee */\n      tag_204\n      swap2\n      swap1\n      tag_205\n      jump\t// in\n    tag_204:\n        /* \"contracts/SQFITEM/Marketplace.sol\":7254:7259  order */\n      dup7\n        /* \"contracts/SQFITEM/Marketplace.sol\":7254:7272  order.currentPrice */\n      0x02\n      add\n      sload\n        /* \"contracts/SQFITEM/Marketplace.sol\":7254:7295  order.currentPrice * (100 - currency.fee) */\n      tag_206\n      swap2\n      swap1\n      tag_207\n      jump\t// in\n    tag_206:\n        /* \"contracts/SQFITEM/Marketplace.sol\":7253:7302  (order.currentPrice * (100 - currency.fee)) / 100 */\n      tag_208\n      swap2\n      swap1\n      tag_209\n      jump\t// in\n    tag_208:\n        /* \"contracts/SQFITEM/Marketplace.sol\":7178:7186  transfer */\n      tag_210\n        /* \"contracts/SQFITEM/Marketplace.sol\":7178:7312  transfer(... */\n      jump\t// in\n    tag_203:\n        /* \"contracts/SQFITEM/Marketplace.sol\":7327:7517  OrderConfirmed(... */\n      0xce721eceb3d95b669e16e7226225b0adce09f2485ba78f90fc194dae97b5501c\n        /* \"contracts/SQFITEM/Marketplace.sol\":7355:7362  orderId */\n      dup4\n        /* \"contracts/SQFITEM/Marketplace.sol\":7376:7381  order */\n      dup4\n        /* \"contracts/SQFITEM/Marketplace.sol\":7376:7389  order.lastBid */\n      0x06\n      add\n      0x00\n      swap1\n      sload\n      swap1\n      0x0100\n      exp\n      swap1\n      div\n      0xffffffffffffffffffffffffffffffffffffffff\n      and\n        /* \"contracts/SQFITEM/Marketplace.sol\":7403:7408  order */\n      dup5\n        /* \"contracts/SQFITEM/Marketplace.sol\":7403:7421  order.currentPrice */\n      0x02\n      add\n      sload\n        /* \"contracts/SQFITEM/Marketplace.sol\":7475:7478  100 */\n      0x64\n        /* \"contracts/SQFITEM/Marketplace.sol\":7458:7466  currency */\n      dup6\n        /* \"contracts/SQFITEM/Marketplace.sol\":7458:7470  currency.fee */\n      0x00\n      add\n      mload\n        /* \"contracts/SQFITEM/Marketplace.sol\":7436:7441  order */\n      dup8\n        /* \"contracts/SQFITEM/Marketplace.sol\":7436:7454  order.currentPrice */\n      0x02\n      add\n      sload\n        /* \"contracts/SQFITEM/Marketplace.sol\":7436:7471  order.currentPrice * (currency.fee) */\n      tag_211\n      swap2\n      swap1\n      tag_207\n      jump\t// in\n    tag_211:\n        /* \"contracts/SQFITEM/Marketplace.sol\":7435:7478  (order.currentPrice * (currency.fee)) / 100 */\n      tag_212\n      swap2\n      swap1\n      tag_209\n      jump\t// in\n    tag_212:\n        /* \"contracts/SQFITEM/Marketplace.sol\":7492:7507  block.timestamp */\n      timestamp\n        /* \"contracts/SQFITEM/Marketplace.sol\":7327:7517  OrderConfirmed(... */\n      mload(0x40)\n      tag_213\n      swap6\n      swap5\n      swap4\n      swap3\n      swap2\n      swap1\n      tag_214\n      jump\t// in\n    tag_213:\n      mload(0x40)\n      dup1\n      swap2\n      sub\n      swap1\n      log1\n        /* \"contracts/SQFITEM/Marketplace.sol\":6643:7524  {... */\n      pop\n      pop\n        /* \"contracts/SQFITEM/Marketplace.sol\":6584:7524  function approveSold(uint256 orderId) public whenNotPaused {... */\n      pop\n      jump\t// out\n        /* \"contracts/SQFITEM/AccessControl.sol\":1375:1496  function getRoleAdmin(bytes32 role) public view override returns (bytes32) {... */\n    tag_59:\n        /* \"contracts/SQFITEM/AccessControl.sol\":1441:1448  bytes32 */\n      0x00\n        /* \"contracts/SQFITEM/AccessControl.sol\":1467:1473  _roles */\n      0x01\n        /* \"contracts/SQFITEM/AccessControl.sol\":1467:1479  _roles[role] */\n      0x00\n        /* \"contracts/SQFITEM/AccessControl.sol\":1474:1478  role */\n      dup4\n        /* \"contracts/SQFITEM/AccessControl.sol\":1467:1479  _roles[role] */\n      dup2\n      mstore\n      0x20\n      add\n      swap1\n      dup2\n      mstore\n      0x20\n      add\n      0x00\n      keccak256\n        /* \"contracts/SQFITEM/AccessControl.sol\":1467:1489  _roles[role].adminRole */\n      0x01\n      add\n      sload\n        /* \"contracts/SQFITEM/AccessControl.sol\":1460:1489  return _roles[role].adminRole */\n      swap1\n      pop\n        /* \"contracts/SQFITEM/AccessControl.sol\":1375:1496  function getRoleAdmin(bytes32 role) public view override returns (bytes32) {... */\n      swap2\n      swap1\n      pop\n      jump\t// out\n        /* \"contracts/SQFITEM/AccessControl.sol\":1502:1647  function grantRole(bytes32 role, address account) public virtual override onlyRole(getRoleAdmin(role)) {... */\n    tag_66:\n        /* \"contracts/SQFITEM/AccessControl.sol\":1585:1603  getRoleAdmin(role) */\n      tag_216\n        /* \"contracts/SQFITEM/AccessControl.sol\":1598:1602  role */\n      dup3\n        /* \"contracts/SQFITEM/AccessControl.sol\":1585:1597  getRoleAdmin */\n      tag_59\n        /* \"contracts/SQFITEM/AccessControl.sol\":1585:1603  getRoleAdmin(role) */\n      jump\t// in\n    tag_216:\n        /* \"contracts/SQFITEM/AccessControl.sol\":480:510  _checkRole(role, _msgSender()) */\n      tag_218\n        /* \"contracts/SQFITEM/AccessControl.sol\":491:495  role */\n      dup2\n        /* \"contracts/SQFITEM/AccessControl.sol\":497:509  _msgSender() */\n      tag_219\n        /* \"contracts/SQFITEM/AccessControl.sol\":497:507  _msgSender */\n      tag_220\n        /* \"contracts/SQFITEM/AccessControl.sol\":497:509  _msgSender() */\n      jump\t// in\n    tag_219:\n        /* \"contracts/SQFITEM/AccessControl.sol\":480:490  _checkRole */\n      tag_221\n        /* \"contracts/SQFITEM/AccessControl.sol\":480:510  _checkRole(role, _msgSender()) */\n      jump\t// in\n    tag_218:\n        /* \"contracts/SQFITEM/AccessControl.sol\":1615:1640  _grantRole(role, account) */\n      tag_223\n        /* \"contracts/SQFITEM/AccessControl.sol\":1626:1630  role */\n      dup4\n        /* \"contracts/SQFITEM/AccessControl.sol\":1632:1639  account */\n      dup4\n        /* \"contracts/SQFITEM/AccessControl.sol\":1615:1625  _grantRole */\n      tag_224\n        /* \"contracts/SQFITEM/AccessControl.sol\":1615:1640  _grantRole(role, account) */\n      jump\t// in\n    tag_223:\n        /* \"contracts/SQFITEM/AccessControl.sol\":1502:1647  function grantRole(bytes32 role, address account) public virtual override onlyRole(getRoleAdmin(role)) {... */\n      pop\n      pop\n      pop\n      jump\t// out\n        /* \"contracts/SQFITEM/AccessControl.sol\":1806:2020  function renounceRole(bytes32 role, address account) public virtual override {... */\n    tag_70:\n        /* \"contracts/SQFITEM/AccessControl.sol\":1912:1924  _msgSender() */\n      tag_226\n        /* \"contracts/SQFITEM/AccessControl.sol\":1912:1922  _msgSender */\n      tag_220\n        /* \"contracts/SQFITEM/AccessControl.sol\":1912:1924  _msgSender() */\n      jump\t// in\n    tag_226:\n        /* \"contracts/SQFITEM/AccessControl.sol\":1901:1924  account == _msgSender() */\n      0xffffffffffffffffffffffffffffffffffffffff\n      and\n        /* \"contracts/SQFITEM/AccessControl.sol\":1901:1908  account */\n      dup2\n        /* \"contracts/SQFITEM/AccessControl.sol\":1901:1924  account == _msgSender() */\n      0xffffffffffffffffffffffffffffffffffffffff\n      and\n      eq\n        /* \"contracts/SQFITEM/AccessControl.sol\":1893:1976  require(account == _msgSender(), \"AccessControl: can only renounce roles for self\") */\n      tag_227\n      jumpi\n      mload(0x40)\n      0x08c379a000000000000000000000000000000000000000000000000000000000\n      dup2\n      mstore\n      0x04\n      add\n      tag_228\n      swap1\n      tag_229\n      jump\t// in\n    tag_228:\n      mload(0x40)\n      dup1\n      swap2\n      sub\n      swap1\n      revert\n    tag_227:\n        /* \"contracts/SQFITEM/AccessControl.sol\":1987:2013  _revokeRole(role, account) */\n      tag_230\n        /* \"contracts/SQFITEM/AccessControl.sol\":1999:2003  role */\n      dup3\n        /* \"contracts/SQFITEM/AccessControl.sol\":2005:2012  account */\n      dup3\n        /* \"contracts/SQFITEM/AccessControl.sol\":1987:1998  _revokeRole */\n      tag_231\n        /* \"contracts/SQFITEM/AccessControl.sol\":1987:2013  _revokeRole(role, account) */\n      jump\t// in\n    tag_230:\n        /* \"contracts/SQFITEM/AccessControl.sol\":1806:2020  function renounceRole(bytes32 role, address account) public virtual override {... */\n      pop\n      pop\n      jump\t// out\n        /* \"contracts/SQFITEM/Marketplace.sol\":7530:8470  function claim(uint256 orderId) public whenNotPaused {... */\n    tag_74:\n        /* \"contracts/SQFITEM/Pausable.sol\":1348:1356  paused() */\n      tag_233\n        /* \"contracts/SQFITEM/Pausable.sol\":1348:1354  paused */\n      tag_105\n        /* \"contracts/SQFITEM/Pausable.sol\":1348:1356  paused() */\n      jump\t// in\n    tag_233:\n        /* \"contracts/SQFITEM/Pausable.sol\":1347:1356  !paused() */\n      iszero\n        /* \"contracts/SQFITEM/Pausable.sol\":1339:1377  require(!paused(), \"Pausable: paused\") */\n      tag_234\n      jumpi\n      mload(0x40)\n      0x08c379a000000000000000000000000000000000000000000000000000000000\n      dup2\n      mstore\n      0x04\n      add\n      tag_235\n      swap1\n      tag_182\n      jump\t// in\n    tag_235:\n      mload(0x40)\n      dup1\n      swap2\n      sub\n      swap1\n      revert\n    tag_234:\n        /* \"contracts/SQFITEM/Marketplace.sol\":7611:7617  orders */\n      0x06\n        /* \"contracts/SQFITEM/Marketplace.sol\":7611:7624  orders.length */\n      dup1\n      sload\n      swap1\n      pop\n        /* \"contracts/SQFITEM/Marketplace.sol\":7601:7608  orderId */\n      dup2\n        /* \"contracts/SQFITEM/Marketplace.sol\":7601:7624  orderId < orders.length */\n      lt\n        /* \"contracts/SQFITEM/Marketplace.sol\":7593:7645  require(orderId < orders.length, \"Order ID invalid\") */\n      tag_237\n      jumpi\n      mload(0x40)\n      0x08c379a000000000000000000000000000000000000000000000000000000000\n      dup2\n      mstore\n      0x04\n      add\n      tag_238\n      swap1\n      tag_186\n      jump\t// in\n    tag_238:\n      mload(0x40)\n      dup1\n      swap2\n      sub\n      swap1\n      revert\n    tag_237:\n        /* \"contracts/SQFITEM/Marketplace.sol\":7655:7674  Order storage order */\n      0x00\n        /* \"contracts/SQFITEM/Marketplace.sol\":7677:7683  orders */\n      0x06\n        /* \"contracts/SQFITEM/Marketplace.sol\":7684:7691  orderId */\n      dup3\n        /* \"contracts/SQFITEM/Marketplace.sol\":7677:7692  orders[orderId] */\n      dup2\n      sload\n      dup2\n      lt\n      tag_239\n      jumpi\n      tag_240\n      tag_189\n      jump\t// in\n    tag_240:\n    tag_239:\n      swap1\n      0x00\n      mstore\n      keccak256(0x00, 0x20)\n      swap1\n      0x08\n      mul\n      add\n        /* \"contracts/SQFITEM/Marketplace.sol\":7655:7692  Order storage order = orders[orderId] */\n      swap1\n      pop\n        /* \"contracts/SQFITEM/Marketplace.sol\":7702:7726  Currency memory currency */\n      0x00\n        /* \"contracts/SQFITEM/Marketplace.sol\":7729:7746  supportedCurrency */\n      0x05\n        /* \"contracts/SQFITEM/Marketplace.sol\":7729:7762  supportedCurrency[order.currency] */\n      0x00\n        /* \"contracts/SQFITEM/Marketplace.sol\":7747:7752  order */\n      dup4\n        /* \"contracts/SQFITEM/Marketplace.sol\":7747:7761  order.currency */\n      0x05\n      add\n      0x00\n      swap1\n      sload\n      swap1\n      0x0100\n      exp\n      swap1\n      div\n      0xffffffffffffffffffffffffffffffffffffffff\n      and\n        /* \"contracts/SQFITEM/Marketplace.sol\":7729:7762  supportedCurrency[order.currency] */\n      0xffffffffffffffffffffffffffffffffffffffff\n      and\n      0xffffffffffffffffffffffffffffffffffffffff\n      and\n      dup2\n      mstore\n      0x20\n      add\n      swap1\n      dup2\n      mstore\n      0x20\n      add\n      0x00\n      keccak256\n        /* \"contracts/SQFITEM/Marketplace.sol\":7702:7762  Currency memory currency = supportedCurrency[order.currency] */\n      mload(0x40)\n      dup1\n      0x60\n      add\n      0x40\n      mstore\n      swap1\n      dup2\n      0x00\n      dup3\n      add\n      sload\n      dup2\n      mstore\n      0x20\n      add\n      0x01\n      dup3\n      add\n      sload\n      dup2\n      mstore\n      0x20\n      add\n      0x02\n      dup3\n      add\n      0x00\n      swap1\n      sload\n      swap1\n      0x0100\n      exp\n      swap1\n      div\n      0xff\n      and\n      iszero\n      iszero\n      iszero\n      iszero\n      dup2\n      mstore\n      pop\n      pop\n      swap1\n      pop\n        /* \"contracts/SQFITEM/Marketplace.sol\":7809:7824  block.timestamp */\n      timestamp\n        /* \"contracts/SQFITEM/Marketplace.sol\":7793:7798  order */\n      dup3\n        /* \"contracts/SQFITEM/Marketplace.sol\":7793:7806  order.timeEnd */\n      0x01\n      add\n      sload\n        /* \"contracts/SQFITEM/Marketplace.sol\":7793:7824  order.timeEnd < block.timestamp */\n      lt\n        /* \"contracts/SQFITEM/Marketplace.sol\":7793:7856  order.timeEnd < block.timestamp &&... */\n      dup1\n      iszero\n      tag_242\n      jumpi\n      pop\n        /* \"contracts/SQFITEM/Marketplace.sol\":7845:7850  order */\n      dup2\n        /* \"contracts/SQFITEM/Marketplace.sol\":7845:7856  order.isEnd */\n      0x07\n      add\n      0x14\n      swap1\n      sload\n      swap1\n      0x0100\n      exp\n      swap1\n      div\n      0xff\n      and\n        /* \"contracts/SQFITEM/Marketplace.sol\":7844:7856  !order.isEnd */\n      iszero\n        /* \"contracts/SQFITEM/Marketplace.sol\":7793:7856  order.timeEnd < block.timestamp &&... */\n    tag_242:\n        /* \"contracts/SQFITEM/Marketplace.sol\":7793:7905  order.timeEnd < block.timestamp &&... */\n      dup1\n      iszero\n      tag_243\n      jumpi\n      pop\n        /* \"contracts/SQFITEM/Marketplace.sol\":7901:7904  0x0 */\n      0x00\n        /* \"contracts/SQFITEM/Marketplace.sol\":7876:7905  order.lastBid != address(0x0) */\n      0xffffffffffffffffffffffffffffffffffffffff\n      and\n        /* \"contracts/SQFITEM/Marketplace.sol\":7876:7881  order */\n      dup3\n        /* \"contracts/SQFITEM/Marketplace.sol\":7876:7889  order.lastBid */\n      0x06\n      add\n      0x00\n      swap1\n      sload\n      swap1\n      0x0100\n      exp\n      swap1\n      div\n      0xffffffffffffffffffffffffffffffffffffffff\n      and\n        /* \"contracts/SQFITEM/Marketplace.sol\":7876:7905  order.lastBid != address(0x0) */\n      0xffffffffffffffffffffffffffffffffffffffff\n      and\n      eq\n      iszero\n        /* \"contracts/SQFITEM/Marketplace.sol\":7793:7905  order.timeEnd < block.timestamp &&... */\n    tag_243:\n        /* \"contracts/SQFITEM/Marketplace.sol\":7772:7948  require(... */\n      tag_244\n      jumpi\n      mload(0x40)\n      0x08c379a000000000000000000000000000000000000000000000000000000000\n      dup2\n      mstore\n      0x04\n      add\n      tag_245\n      swap1\n      tag_197\n      jump\t// in\n    tag_245:\n      mload(0x40)\n      dup1\n      swap2\n      sub\n      swap1\n      revert\n    tag_244:\n        /* \"contracts/SQFITEM/Marketplace.sol\":7972:7976  true */\n      0x01\n        /* \"contracts/SQFITEM/Marketplace.sol\":7958:7963  order */\n      dup3\n        /* \"contracts/SQFITEM/Marketplace.sol\":7958:7969  order.isEnd */\n      0x07\n      add\n      0x14\n        /* \"contracts/SQFITEM/Marketplace.sol\":7958:7976  order.isEnd = true */\n      0x0100\n      exp\n      dup2\n      sload\n      dup2\n      0xff\n      mul\n      not\n      and\n      swap1\n      dup4\n      iszero\n      iszero\n      mul\n      or\n      swap1\n      sstore\n      pop\n        /* \"contracts/SQFITEM/Marketplace.sol\":7994:7999  order */\n      dup2\n        /* \"contracts/SQFITEM/Marketplace.sol\":7994:8011  order.nftContract */\n      0x04\n      add\n      0x00\n      swap1\n      sload\n      swap1\n      0x0100\n      exp\n      swap1\n      div\n      0xffffffffffffffffffffffffffffffffffffffff\n      and\n        /* \"contracts/SQFITEM/Marketplace.sol\":7986:8025  IERC721(order.nftContract).transferFrom */\n      0xffffffffffffffffffffffffffffffffffffffff\n      and\n      0x23b872dd\n        /* \"contracts/SQFITEM/Marketplace.sol\":8047:8051  this */\n      address\n        /* \"contracts/SQFITEM/Marketplace.sol\":8066:8071  order */\n      dup5\n        /* \"contracts/SQFITEM/Marketplace.sol\":8066:8079  order.lastBid */\n      0x06\n      add\n      0x00\n      swap1\n      sload\n      swap1\n      0x0100\n      exp\n      swap1\n      div\n      0xffffffffffffffffffffffffffffffffffffffff\n      and\n        /* \"contracts/SQFITEM/Marketplace.sol\":8093:8098  order */\n      dup6\n        /* \"contracts/SQFITEM/Marketplace.sol\":8093:8104  order.nftId */\n      0x00\n      add\n      sload\n        /* \"contracts/SQFITEM/Marketplace.sol\":7986:8114  IERC721(order.nftContract).transferFrom(... */\n      mload(0x40)\n      dup5\n      0xffffffff\n      and\n      0xe0\n      shl\n      dup2\n      mstore\n      0x04\n      add\n      tag_246\n      swap4\n      swap3\n      swap2\n      swap1\n      tag_199\n      jump\t// in\n    tag_246:\n      0x00\n      mload(0x40)\n      dup1\n      dup4\n      sub\n      dup2\n      0x00\n      dup8\n      dup1\n      extcodesize\n      iszero\n      dup1\n      iszero\n      tag_247\n      jumpi\n      0x00\n      dup1\n      revert\n    tag_247:\n      pop\n      gas\n      call\n      iszero\n      dup1\n      iszero\n      tag_249\n      jumpi\n      returndatasize\n      0x00\n      dup1\n      returndatacopy\n      revert(0x00, returndatasize)\n    tag_249:\n      pop\n      pop\n      pop\n      pop\n        /* \"contracts/SQFITEM/Marketplace.sol\":8124:8258  transfer(... */\n      tag_250\n        /* \"contracts/SQFITEM/Marketplace.sol\":8146:8151  order */\n      dup3\n        /* \"contracts/SQFITEM/Marketplace.sol\":8146:8160  order.currency */\n      0x05\n      add\n      0x00\n      swap1\n      sload\n      swap1\n      0x0100\n      exp\n      swap1\n      div\n      0xffffffffffffffffffffffffffffffffffffffff\n      and\n        /* \"contracts/SQFITEM/Marketplace.sol\":8174:8179  order */\n      dup4\n        /* \"contracts/SQFITEM/Marketplace.sol\":8174:8185  order.saler */\n      0x07\n      add\n      0x00\n      swap1\n      sload\n      swap1\n      0x0100\n      exp\n      swap1\n      div\n      0xffffffffffffffffffffffffffffffffffffffff\n      and\n        /* \"contracts/SQFITEM/Marketplace.sol\":8245:8248  100 */\n      0x64\n        /* \"contracts/SQFITEM/Marketplace.sol\":8228:8236  currency */\n      dup5\n        /* \"contracts/SQFITEM/Marketplace.sol\":8228:8240  currency.fee */\n      0x00\n      add\n      mload\n        /* \"contracts/SQFITEM/Marketplace.sol\":8222:8225  100 */\n      0x64\n        /* \"contracts/SQFITEM/Marketplace.sol\":8222:8240  100 - currency.fee */\n      tag_251\n      swap2\n      swap1\n      tag_205\n      jump\t// in\n    tag_251:\n        /* \"contracts/SQFITEM/Marketplace.sol\":8200:8205  order */\n      dup7\n        /* \"contracts/SQFITEM/Marketplace.sol\":8200:8218  order.currentPrice */\n      0x02\n      add\n      sload\n        /* \"contracts/SQFITEM/Marketplace.sol\":8200:8241  order.currentPrice * (100 - currency.fee) */\n      tag_252\n      swap2\n      swap1\n      tag_207\n      jump\t// in\n    tag_252:\n        /* \"contracts/SQFITEM/Marketplace.sol\":8199:8248  (order.currentPrice * (100 - currency.fee)) / 100 */\n      tag_253\n      swap2\n      swap1\n      tag_209\n      jump\t// in\n    tag_253:\n        /* \"contracts/SQFITEM/Marketplace.sol\":8124:8132  transfer */\n      tag_210\n        /* \"contracts/SQFITEM/Marketplace.sol\":8124:8258  transfer(... */\n      jump\t// in\n    tag_250:\n        /* \"contracts/SQFITEM/Marketplace.sol\":8273:8463  OrderConfirmed(... */\n      0xce721eceb3d95b669e16e7226225b0adce09f2485ba78f90fc194dae97b5501c\n        /* \"contracts/SQFITEM/Marketplace.sol\":8301:8308  orderId */\n      dup4\n        /* \"contracts/SQFITEM/Marketplace.sol\":8322:8327  order */\n      dup4\n        /* \"contracts/SQFITEM/Marketplace.sol\":8322:8335  order.lastBid */\n      0x06\n      add\n      0x00\n      swap1\n      sload\n      swap1\n      0x0100\n      exp\n      swap1\n      div\n      0xffffffffffffffffffffffffffffffffffffffff\n      and\n        /* \"contracts/SQFITEM/Marketplace.sol\":8349:8354  order */\n      dup5\n        /* \"contracts/SQFITEM/Marketplace.sol\":8349:8367  order.currentPrice */\n      0x02\n      add\n      sload\n        /* \"contracts/SQFITEM/Marketplace.sol\":8421:8424  100 */\n      0x64\n        /* \"contracts/SQFITEM/Marketplace.sol\":8404:8412  currency */\n      dup6\n        /* \"contracts/SQFITEM/Marketplace.sol\":8404:8416  currency.fee */\n      0x00\n      add\n      mload\n        /* \"contracts/SQFITEM/Marketplace.sol\":8382:8387  order */\n      dup8\n        /* \"contracts/SQFITEM/Marketplace.sol\":8382:8400  order.currentPrice */\n      0x02\n      add\n      sload\n        /* \"contracts/SQFITEM/Marketplace.sol\":8382:8417  order.currentPrice * (currency.fee) */\n      tag_254\n      swap2\n      swap1\n      tag_207\n      jump\t// in\n    tag_254:\n        /* \"contracts/SQFITEM/Marketplace.sol\":8381:8424  (order.currentPrice * (currency.fee)) / 100 */\n      tag_255\n      swap2\n      swap1\n      tag_209\n      jump\t// in\n    tag_255:\n        /* \"contracts/SQFITEM/Marketplace.sol\":8438:8453  block.timestamp */\n      timestamp\n        /* \"contracts/SQFITEM/Marketplace.sol\":8273:8463  OrderConfirmed(... */\n      mload(0x40)\n      tag_256\n      swap6\n      swap5\n      swap4\n      swap3\n      swap2\n      swap1\n      tag_214\n      jump\t// in\n    tag_256:\n      mload(0x40)\n      dup1\n      swap2\n      sub\n      swap1\n      log1\n        /* \"contracts/SQFITEM/Marketplace.sol\":7583:8470  {... */\n      pop\n      pop\n        /* \"contracts/SQFITEM/Marketplace.sol\":7530:8470  function claim(uint256 orderId) public whenNotPaused {... */\n      pop\n      jump\t// out\n        /* \"contracts/SQFITEM/Marketplace.sol\":631:684  mapping(address => Currency) public supportedCurrency */\n    tag_79:\n      mstore(0x20, 0x05)\n      dup1\n      0x00\n      mstore\n      keccak256(0x00, 0x40)\n      0x00\n      swap2\n      pop\n      swap1\n      pop\n      dup1\n      0x00\n      add\n      sload\n      swap1\n      dup1\n      0x01\n      add\n      sload\n      swap1\n      dup1\n      0x02\n      add\n      0x00\n      swap1\n      sload\n      swap1\n      0x0100\n      exp\n      swap1\n      div\n      0xff\n      and\n      swap1\n      pop\n      dup4\n      jump\t// out\n        /* \"contracts/SQFITEM/Marketplace.sol\":9405:9485  function unpause() public onlyRole(PAUSER_ROLE) {... */\n    tag_84:\n        /* \"contracts/SQFITEM/Marketplace.sol\":387:411  keccak256(\"PAUSER_ROLE\") */\n      0x65d7a28e3265b37a6474929f336521b332c1681b933f6cb9f3376673440d862a\n        /* \"contracts/SQFITEM/AccessControl.sol\":480:510  _checkRole(role, _msgSender()) */\n      tag_258\n        /* \"contracts/SQFITEM/AccessControl.sol\":491:495  role */\n      dup2\n        /* \"contracts/SQFITEM/AccessControl.sol\":497:509  _msgSender() */\n      tag_259\n        /* \"contracts/SQFITEM/AccessControl.sol\":497:507  _msgSender */\n      tag_220\n        /* \"contracts/SQFITEM/AccessControl.sol\":497:509  _msgSender() */\n      jump\t// in\n    tag_259:\n        /* \"contracts/SQFITEM/AccessControl.sol\":480:490  _checkRole */\n      tag_221\n        /* \"contracts/SQFITEM/AccessControl.sol\":480:510  _checkRole(role, _msgSender()) */\n      jump\t// in\n    tag_258:\n        /* \"contracts/SQFITEM/Marketplace.sol\":9463:9473  _unpause() */\n      tag_261\n        /* \"contracts/SQFITEM/Marketplace.sol\":9463:9471  _unpause */\n      tag_262\n        /* \"contracts/SQFITEM/Marketplace.sol\":9463:9473  _unpause() */\n      jump\t// in\n    tag_261:\n        /* \"contracts/SQFITEM/Marketplace.sol\":9405:9485  function unpause() public onlyRole(PAUSER_ROLE) {... */\n      pop\n      jump\t// out\n        /* \"contracts/SQFITEM/Marketplace.sol\":3955:4535  function cancelOrder(uint256 orderId) public whenNotPaused {... */\n    tag_88:\n        /* \"contracts/SQFITEM/Pausable.sol\":1348:1356  paused() */\n      tag_264\n        /* \"contracts/SQFITEM/Pausable.sol\":1348:1354  paused */\n      tag_105\n        /* \"contracts/SQFITEM/Pausable.sol\":1348:1356  paused() */\n      jump\t// in\n    tag_264:\n        /* \"contracts/SQFITEM/Pausable.sol\":1347:1356  !paused() */\n      iszero\n        /* \"contracts/SQFITEM/Pausable.sol\":1339:1377  require(!paused(), \"Pausable: paused\") */\n      tag_265\n      jumpi\n      mload(0x40)\n      0x08c379a000000000000000000000000000000000000000000000000000000000\n      dup2\n      mstore\n      0x04\n      add\n      tag_266\n      swap1\n      tag_182\n      jump\t// in\n    tag_266:\n      mload(0x40)\n      dup1\n      swap2\n      sub\n      swap1\n      revert\n    tag_265:\n        /* \"contracts/SQFITEM/Marketplace.sol\":4042:4048  orders */\n      0x06\n        /* \"contracts/SQFITEM/Marketplace.sol\":4042:4055  orders.length */\n      dup1\n      sload\n      swap1\n      pop\n        /* \"contracts/SQFITEM/Marketplace.sol\":4032:4039  orderId */\n      dup2\n        /* \"contracts/SQFITEM/Marketplace.sol\":4032:4055  orderId < orders.length */\n      lt\n        /* \"contracts/SQFITEM/Marketplace.sol\":4024:4076  require(orderId < orders.length, \"Order ID invalid\") */\n      tag_268\n      jumpi\n      mload(0x40)\n      0x08c379a000000000000000000000000000000000000000000000000000000000\n      dup2\n      mstore\n      0x04\n      add\n      tag_269\n      swap1\n      tag_186\n      jump\t// in\n    tag_269:\n      mload(0x40)\n      dup1\n      swap2\n      sub\n      swap1\n      revert\n    tag_268:\n        /* \"contracts/SQFITEM/Marketplace.sol\":4086:4105  Order storage order */\n      0x00\n        /* \"contracts/SQFITEM/Marketplace.sol\":4108:4114  orders */\n      0x06\n        /* \"contracts/SQFITEM/Marketplace.sol\":4115:4122  orderId */\n      dup3\n        /* \"contracts/SQFITEM/Marketplace.sol\":4108:4123  orders[orderId] */\n      dup2\n      sload\n      dup2\n      lt\n      tag_270\n      jumpi\n      tag_271\n      tag_189\n      jump\t// in\n    tag_271:\n    tag_270:\n      swap1\n      0x00\n      mstore\n      keccak256(0x00, 0x20)\n      swap1\n      0x08\n      mul\n      add\n        /* \"contracts/SQFITEM/Marketplace.sol\":4086:4123  Order storage order = orders[orderId] */\n      swap1\n      pop\n        /* \"contracts/SQFITEM/Marketplace.sol\":4156:4166  msg.sender */\n      caller\n        /* \"contracts/SQFITEM/Marketplace.sol\":4141:4166  order.saler == msg.sender */\n      0xffffffffffffffffffffffffffffffffffffffff\n      and\n        /* \"contracts/SQFITEM/Marketplace.sol\":4141:4146  order */\n      dup2\n        /* \"contracts/SQFITEM/Marketplace.sol\":4141:4152  order.saler */\n      0x07\n      add\n      0x00\n      swap1\n      sload\n      swap1\n      0x0100\n      exp\n      swap1\n      div\n      0xffffffffffffffffffffffffffffffffffffffff\n      and\n        /* \"contracts/SQFITEM/Marketplace.sol\":4141:4166  order.saler == msg.sender */\n      0xffffffffffffffffffffffffffffffffffffffff\n      and\n      eq\n        /* \"contracts/SQFITEM/Marketplace.sol\":4133:4190  require(order.saler == msg.sender, \"Must be owner order\") */\n      tag_273\n      jumpi\n      mload(0x40)\n      0x08c379a000000000000000000000000000000000000000000000000000000000\n      dup2\n      mstore\n      0x04\n      add\n      tag_274\n      swap1\n      tag_275\n      jump\t// in\n    tag_274:\n      mload(0x40)\n      dup1\n      swap2\n      sub\n      swap1\n      revert\n    tag_273:\n        /* \"contracts/SQFITEM/Marketplace.sol\":4233:4236  0x0 */\n      0x00\n        /* \"contracts/SQFITEM/Marketplace.sol\":4208:4237  order.lastBid == address(0x0) */\n      0xffffffffffffffffffffffffffffffffffffffff\n      and\n        /* \"contracts/SQFITEM/Marketplace.sol\":4208:4213  order */\n      dup2\n        /* \"contracts/SQFITEM/Marketplace.sol\":4208:4221  order.lastBid */\n      0x06\n      add\n      0x00\n      swap1\n      sload\n      swap1\n      0x0100\n      exp\n      swap1\n      div\n      0xffffffffffffffffffffffffffffffffffffffff\n      and\n        /* \"contracts/SQFITEM/Marketplace.sol\":4208:4237  order.lastBid == address(0x0) */\n      0xffffffffffffffffffffffffffffffffffffffff\n      and\n      eq\n        /* \"contracts/SQFITEM/Marketplace.sol\":4200:4261  require(order.lastBid == address(0x0), \"Must not have bider\") */\n      tag_276\n      jumpi\n      mload(0x40)\n      0x08c379a000000000000000000000000000000000000000000000000000000000\n      dup2\n      mstore\n      0x04\n      add\n      tag_277\n      swap1\n      tag_278\n      jump\t// in\n    tag_277:\n      mload(0x40)\n      dup1\n      swap2\n      sub\n      swap1\n      revert\n    tag_276:\n        /* \"contracts/SQFITEM/Marketplace.sol\":4280:4285  order */\n      dup1\n        /* \"contracts/SQFITEM/Marketplace.sol\":4280:4291  order.isEnd */\n      0x07\n      add\n      0x14\n      swap1\n      sload\n      swap1\n      0x0100\n      exp\n      swap1\n      div\n      0xff\n      and\n        /* \"contracts/SQFITEM/Marketplace.sol\":4279:4291  !order.isEnd */\n      iszero\n        /* \"contracts/SQFITEM/Marketplace.sol\":4271:4313  require(!order.isEnd, \"Must be not ended\") */\n      tag_279\n      jumpi\n      mload(0x40)\n      0x08c379a000000000000000000000000000000000000000000000000000000000\n      dup2\n      mstore\n      0x04\n      add\n      tag_280\n      swap1\n      tag_281\n      jump\t// in\n    tag_280:\n      mload(0x40)\n      dup1\n      swap2\n      sub\n      swap1\n      revert\n    tag_279:\n        /* \"contracts/SQFITEM/Marketplace.sol\":4337:4341  true */\n      0x01\n        /* \"contracts/SQFITEM/Marketplace.sol\":4323:4328  order */\n      dup2\n        /* \"contracts/SQFITEM/Marketplace.sol\":4323:4334  order.isEnd */\n      0x07\n      add\n      0x14\n        /* \"contracts/SQFITEM/Marketplace.sol\":4323:4341  order.isEnd = true */\n      0x0100\n      exp\n      dup2\n      sload\n      dup2\n      0xff\n      mul\n      not\n      and\n      swap1\n      dup4\n      iszero\n      iszero\n      mul\n      or\n      swap1\n      sstore\n      pop\n        /* \"contracts/SQFITEM/Marketplace.sol\":4359:4364  order */\n      dup1\n        /* \"contracts/SQFITEM/Marketplace.sol\":4359:4376  order.nftContract */\n      0x04\n      add\n      0x00\n      swap1\n      sload\n      swap1\n      0x0100\n      exp\n      swap1\n      div\n      0xffffffffffffffffffffffffffffffffffffffff\n      and\n        /* \"contracts/SQFITEM/Marketplace.sol\":4351:4390  IERC721(order.nftContract).transferFrom */\n      0xffffffffffffffffffffffffffffffffffffffff\n      and\n      0x23b872dd\n        /* \"contracts/SQFITEM/Marketplace.sol\":4412:4416  this */\n      address\n        /* \"contracts/SQFITEM/Marketplace.sol\":4431:4441  msg.sender */\n      caller\n        /* \"contracts/SQFITEM/Marketplace.sol\":4455:4460  order */\n      dup5\n        /* \"contracts/SQFITEM/Marketplace.sol\":4455:4466  order.nftId */\n      0x00\n      add\n      sload\n        /* \"contracts/SQFITEM/Marketplace.sol\":4351:4476  IERC721(order.nftContract).transferFrom(... */\n      mload(0x40)\n      dup5\n      0xffffffff\n      and\n      0xe0\n      shl\n      dup2\n      mstore\n      0x04\n      add\n      tag_282\n      swap4\n      swap3\n      swap2\n      swap1\n      tag_199\n      jump\t// in\n    tag_282:\n      0x00\n      mload(0x40)\n      dup1\n      dup4\n      sub\n      dup2\n      0x00\n      dup8\n      dup1\n      extcodesize\n      iszero\n      dup1\n      iszero\n      tag_283\n      jumpi\n      0x00\n      dup1\n      revert\n    tag_283:\n      pop\n      gas\n      call\n      iszero\n      dup1\n      iszero\n      tag_285\n      jumpi\n      returndatasize\n      0x00\n      dup1\n      returndatacopy\n      revert(0x00, returndatasize)\n    tag_285:\n      pop\n      pop\n      pop\n      pop\n        /* \"contracts/SQFITEM/Marketplace.sol\":4491:4528  OrderCancel(orderId, block.timestamp) */\n      0xdaea36f3bd03e8d765478afd092ebe5ab48dce17051d09cf6d5876fdd5083d68\n        /* \"contracts/SQFITEM/Marketplace.sol\":4503:4510  orderId */\n      dup3\n        /* \"contracts/SQFITEM/Marketplace.sol\":4512:4527  block.timestamp */\n      timestamp\n        /* \"contracts/SQFITEM/Marketplace.sol\":4491:4528  OrderCancel(orderId, block.timestamp) */\n      mload(0x40)\n      tag_286\n      swap3\n      swap2\n      swap1\n      tag_287\n      jump\t// in\n    tag_286:\n      mload(0x40)\n      dup1\n      swap2\n      sub\n      swap1\n      log1\n        /* \"contracts/SQFITEM/Marketplace.sol\":4014:4535  {... */\n      pop\n        /* \"contracts/SQFITEM/Marketplace.sol\":3955:4535  function cancelOrder(uint256 orderId) public whenNotPaused {... */\n      pop\n      jump\t// out\n        /* \"contracts/SQFITEM/Marketplace.sol\":483:527  mapping(address => bool) public supportedNFT */\n    tag_92:\n      mstore(0x20, 0x04)\n      dup1\n      0x00\n      mstore\n      keccak256(0x00, 0x40)\n      0x00\n      swap2\n      pop\n      sload\n      swap1\n      0x0100\n      exp\n      swap1\n      div\n      0xff\n      and\n      dup2\n      jump\t// out\n        /* \"contracts/SQFITEM/Marketplace.sol\":1878:2168  function editSupportedCurrency(... */\n    tag_98:\n        /* \"contracts/SQFITEM/AccessControl.sol\":427:431  0x00 */\n      0x00\n        /* \"contracts/SQFITEM/Marketplace.sol\":2024:2042  DEFAULT_ADMIN_ROLE */\n      dup1\n      shl\n        /* \"contracts/SQFITEM/AccessControl.sol\":480:510  _checkRole(role, _msgSender()) */\n      tag_289\n        /* \"contracts/SQFITEM/AccessControl.sol\":491:495  role */\n      dup2\n        /* \"contracts/SQFITEM/AccessControl.sol\":497:509  _msgSender() */\n      tag_290\n        /* \"contracts/SQFITEM/AccessControl.sol\":497:507  _msgSender */\n      tag_220\n        /* \"contracts/SQFITEM/AccessControl.sol\":497:509  _msgSender() */\n      jump\t// in\n    tag_290:\n        /* \"contracts/SQFITEM/AccessControl.sol\":480:490  _checkRole */\n      tag_221\n        /* \"contracts/SQFITEM/AccessControl.sol\":480:510  _checkRole(role, _msgSender()) */\n      jump\t// in\n    tag_289:\n        /* \"contracts/SQFITEM/Marketplace.sol\":2081:2114  Currency(fee, minNextBid, status) */\n      mload(0x40)\n      dup1\n      0x60\n      add\n      0x40\n      mstore\n      dup1\n        /* \"contracts/SQFITEM/Marketplace.sol\":2090:2093  fee */\n      dup6\n        /* \"contracts/SQFITEM/Marketplace.sol\":2081:2114  Currency(fee, minNextBid, status) */\n      dup2\n      mstore\n      0x20\n      add\n        /* \"contracts/SQFITEM/Marketplace.sol\":2095:2105  minNextBid */\n      dup5\n        /* \"contracts/SQFITEM/Marketplace.sol\":2081:2114  Currency(fee, minNextBid, status) */\n      dup2\n      mstore\n      0x20\n      add\n        /* \"contracts/SQFITEM/Marketplace.sol\":2107:2113  status */\n      dup4\n        /* \"contracts/SQFITEM/Marketplace.sol\":2081:2114  Currency(fee, minNextBid, status) */\n      iszero\n      iszero\n      dup2\n      mstore\n      pop\n        /* \"contracts/SQFITEM/Marketplace.sol\":2054:2071  supportedCurrency */\n      0x05\n        /* \"contracts/SQFITEM/Marketplace.sol\":2054:2078  supportedCurrency[token] */\n      0x00\n        /* \"contracts/SQFITEM/Marketplace.sol\":2072:2077  token */\n      dup8\n        /* \"contracts/SQFITEM/Marketplace.sol\":2054:2078  supportedCurrency[token] */\n      0xffffffffffffffffffffffffffffffffffffffff\n      and\n      0xffffffffffffffffffffffffffffffffffffffff\n      and\n      dup2\n      mstore\n      0x20\n      add\n      swap1\n      dup2\n      mstore\n      0x20\n      add\n      0x00\n      keccak256\n        /* \"contracts/SQFITEM/Marketplace.sol\":2054:2114  supportedCurrency[token] = Currency(fee, minNextBid, status) */\n      0x00\n      dup3\n      add\n      mload\n      dup2\n      0x00\n      add\n      sstore\n      0x20\n      dup3\n      add\n      mload\n      dup2\n      0x01\n      add\n      sstore\n      0x40\n      dup3\n      add\n      mload\n      dup2\n      0x02\n      add\n      exp(0x0100, 0x00)\n      dup2\n      sload\n      dup2\n      0xff\n      mul\n      not\n      and\n      swap1\n      dup4\n      iszero\n      iszero\n      mul\n      or\n      swap1\n      sstore\n      pop\n      swap1\n      pop\n      pop\n        /* \"contracts/SQFITEM/Marketplace.sol\":2129:2161  EditCurrency(token, fee, status) */\n      0x1cb06435b5f99aff99488af742354d648bec6fcfab75723907a8562e6cf2954d\n        /* \"contracts/SQFITEM/Marketplace.sol\":2142:2147  token */\n      dup6\n        /* \"contracts/SQFITEM/Marketplace.sol\":2149:2152  fee */\n      dup6\n        /* \"contracts/SQFITEM/Marketplace.sol\":2154:2160  status */\n      dup5\n        /* \"contracts/SQFITEM/Marketplace.sol\":2129:2161  EditCurrency(token, fee, status) */\n      mload(0x40)\n      tag_292\n      swap4\n      swap3\n      swap2\n      swap1\n      tag_293\n      jump\t// in\n    tag_292:\n      mload(0x40)\n      dup1\n      swap2\n      sub\n      swap1\n      log1\n        /* \"contracts/SQFITEM/Marketplace.sol\":1878:2168  function editSupportedCurrency(... */\n      pop\n      pop\n      pop\n      pop\n      pop\n      jump\t// out\n        /* \"contracts/SQFITEM/Marketplace.sol\":4541:6578  function bid(uint256 orderId, uint256 amount) public payable whenNotPaused {... */\n    tag_102:\n        /* \"contracts/SQFITEM/Pausable.sol\":1348:1356  paused() */\n      tag_295\n        /* \"contracts/SQFITEM/Pausable.sol\":1348:1354  paused */\n      tag_105\n        /* \"contracts/SQFITEM/Pausable.sol\":1348:1356  paused() */\n      jump\t// in\n    tag_295:\n        /* \"contracts/SQFITEM/Pausable.sol\":1347:1356  !paused() */\n      iszero\n        /* \"contracts/SQFITEM/Pausable.sol\":1339:1377  require(!paused(), \"Pausable: paused\") */\n      tag_296\n      jumpi\n      mload(0x40)\n      0x08c379a000000000000000000000000000000000000000000000000000000000\n      dup2\n      mstore\n      0x04\n      add\n      tag_297\n      swap1\n      tag_182\n      jump\t// in\n    tag_297:\n      mload(0x40)\n      dup1\n      swap2\n      sub\n      swap1\n      revert\n    tag_296:\n        /* \"contracts/SQFITEM/Marketplace.sol\":4644:4650  orders */\n      0x06\n        /* \"contracts/SQFITEM/Marketplace.sol\":4644:4657  orders.length */\n      dup1\n      sload\n      swap1\n      pop\n        /* \"contracts/SQFITEM/Marketplace.sol\":4634:4641  orderId */\n      dup3\n        /* \"contracts/SQFITEM/Marketplace.sol\":4634:4657  orderId < orders.length */\n      lt\n        /* \"contracts/SQFITEM/Marketplace.sol\":4626:4678  require(orderId < orders.length, \"Order ID invalid\") */\n      tag_299\n      jumpi\n      mload(0x40)\n      0x08c379a000000000000000000000000000000000000000000000000000000000\n      dup2\n      mstore\n      0x04\n      add\n      tag_300\n      swap1\n      tag_186\n      jump\t// in\n    tag_300:\n      mload(0x40)\n      dup1\n      swap2\n      sub\n      swap1\n      revert\n    tag_299:\n        /* \"contracts/SQFITEM/Marketplace.sol\":4688:4707  Order storage order */\n      0x00\n        /* \"contracts/SQFITEM/Marketplace.sol\":4710:4716  orders */\n      0x06\n        /* \"contracts/SQFITEM/Marketplace.sol\":4717:4724  orderId */\n      dup4\n        /* \"contracts/SQFITEM/Marketplace.sol\":4710:4725  orders[orderId] */\n      dup2\n      sload\n      dup2\n      lt\n      tag_301\n      jumpi\n      tag_302\n      tag_189\n      jump\t// in\n    tag_302:\n    tag_301:\n      swap1\n      0x00\n      mstore\n      keccak256(0x00, 0x20)\n      swap1\n      0x08\n      mul\n      add\n        /* \"contracts/SQFITEM/Marketplace.sol\":4688:4725  Order storage order = orders[orderId] */\n      swap1\n      pop\n        /* \"contracts/SQFITEM/Marketplace.sol\":4735:4759  Currency memory currency */\n      0x00\n        /* \"contracts/SQFITEM/Marketplace.sol\":4762:4779  supportedCurrency */\n      0x05\n        /* \"contracts/SQFITEM/Marketplace.sol\":4762:4795  supportedCurrency[order.currency] */\n      0x00\n        /* \"contracts/SQFITEM/Marketplace.sol\":4780:4785  order */\n      dup4\n        /* \"contracts/SQFITEM/Marketplace.sol\":4780:4794  order.currency */\n      0x05\n      add\n      0x00\n      swap1\n      sload\n      swap1\n      0x0100\n      exp\n      swap1\n      div\n      0xffffffffffffffffffffffffffffffffffffffff\n      and\n        /* \"contracts/SQFITEM/Marketplace.sol\":4762:4795  supportedCurrency[order.currency] */\n      0xffffffffffffffffffffffffffffffffffffffff\n      and\n      0xffffffffffffffffffffffffffffffffffffffff\n      and\n      dup2\n      mstore\n      0x20\n      add\n      swap1\n      dup2\n      mstore\n      0x20\n      add\n      0x00\n      keccak256\n        /* \"contracts/SQFITEM/Marketplace.sol\":4735:4795  Currency memory currency = supportedCurrency[order.currency] */\n      mload(0x40)\n      dup1\n      0x60\n      add\n      0x40\n      mstore\n      swap1\n      dup2\n      0x00\n      dup3\n      add\n      sload\n      dup2\n      mstore\n      0x20\n      add\n      0x01\n      dup3\n      add\n      sload\n      dup2\n      mstore\n      0x20\n      add\n      0x02\n      dup3\n      add\n      0x00\n      swap1\n      sload\n      swap1\n      0x0100\n      exp\n      swap1\n      div\n      0xff\n      and\n      iszero\n      iszero\n      iszero\n      iszero\n      dup2\n      mstore\n      pop\n      pop\n      swap1\n      pop\n        /* \"contracts/SQFITEM/Marketplace.sol\":4835:4838  0x0 */\n      0x00\n        /* \"contracts/SQFITEM/Marketplace.sol\":4809:4839  order.currency == address(0x0) */\n      0xffffffffffffffffffffffffffffffffffffffff\n      and\n        /* \"contracts/SQFITEM/Marketplace.sol\":4809:4814  order */\n      dup3\n        /* \"contracts/SQFITEM/Marketplace.sol\":4809:4823  order.currency */\n      0x05\n      add\n      0x00\n      swap1\n      sload\n      swap1\n      0x0100\n      exp\n      swap1\n      div\n      0xffffffffffffffffffffffffffffffffffffffff\n      and\n        /* \"contracts/SQFITEM/Marketplace.sol\":4809:4839  order.currency == address(0x0) */\n      0xffffffffffffffffffffffffffffffffffffffff\n      and\n      sub\n        /* \"contracts/SQFITEM/Marketplace.sol\":4805:5105  if (order.currency == address(0x0)) {... */\n      tag_304\n      jumpi\n        /* \"contracts/SQFITEM/Marketplace.sol\":4864:4873  msg.value */\n      callvalue\n        /* \"contracts/SQFITEM/Marketplace.sol\":4855:4873  amount = msg.value */\n      swap3\n      pop\n        /* \"contracts/SQFITEM/Marketplace.sol\":4805:5105  if (order.currency == address(0x0)) {... */\n      jump(tag_305)\n    tag_304:\n        /* \"contracts/SQFITEM/Marketplace.sol\":4925:4926  0 */\n      0x00\n        /* \"contracts/SQFITEM/Marketplace.sol\":4912:4921  msg.value */\n      callvalue\n        /* \"contracts/SQFITEM/Marketplace.sol\":4912:4926  msg.value == 0 */\n      eq\n        /* \"contracts/SQFITEM/Marketplace.sol\":4904:4944  require(msg.value == 0, \"Invalid value\") */\n      tag_306\n      jumpi\n      mload(0x40)\n      0x08c379a000000000000000000000000000000000000000000000000000000000\n      dup2\n      mstore\n      0x04\n      add\n      tag_307\n      swap1\n      tag_308\n      jump\t// in\n    tag_307:\n      mload(0x40)\n      dup1\n      swap2\n      sub\n      swap1\n      revert\n    tag_306:\n        /* \"contracts/SQFITEM/Marketplace.sol\":4958:5094  IERC20(order.currency).safeTransferFrom(... */\n      tag_309\n        /* \"contracts/SQFITEM/Marketplace.sol\":5015:5025  msg.sender */\n      caller\n        /* \"contracts/SQFITEM/Marketplace.sol\":5051:5055  this */\n      address\n        /* \"contracts/SQFITEM/Marketplace.sol\":5074:5080  amount */\n      dup6\n        /* \"contracts/SQFITEM/Marketplace.sol\":4965:4970  order */\n      dup6\n        /* \"contracts/SQFITEM/Marketplace.sol\":4965:4979  order.currency */\n      0x05\n      add\n      0x00\n      swap1\n      sload\n      swap1\n      0x0100\n      exp\n      swap1\n      div\n      0xffffffffffffffffffffffffffffffffffffffff\n      and\n        /* \"contracts/SQFITEM/Marketplace.sol\":4958:4997  IERC20(order.currency).safeTransferFrom */\n      0xffffffffffffffffffffffffffffffffffffffff\n      and\n      tag_310\n      swap1\n        /* \"contracts/SQFITEM/Marketplace.sol\":4958:5094  IERC20(order.currency).safeTransferFrom(... */\n      swap4\n      swap3\n      swap2\n      swap1\n      0xffffffff\n      and\n      jump\t// in\n    tag_309:\n        /* \"contracts/SQFITEM/Marketplace.sol\":4805:5105  if (order.currency == address(0x0)) {... */\n    tag_305:\n        /* \"contracts/SQFITEM/Marketplace.sol\":5123:5128  order */\n      dup2\n        /* \"contracts/SQFITEM/Marketplace.sol\":5123:5134  order.isEnd */\n      0x07\n      add\n      0x14\n      swap1\n      sload\n      swap1\n      0x0100\n      exp\n      swap1\n      div\n      0xff\n      and\n        /* \"contracts/SQFITEM/Marketplace.sol\":5122:5134  !order.isEnd */\n      iszero\n        /* \"contracts/SQFITEM/Marketplace.sol\":5114:5150  require(!order.isEnd, \"Order ended\") */\n      tag_311\n      jumpi\n      mload(0x40)\n      0x08c379a000000000000000000000000000000000000000000000000000000000\n      dup2\n      mstore\n      0x04\n      add\n      tag_312\n      swap1\n      tag_313\n      jump\t// in\n    tag_312:\n      mload(0x40)\n      dup1\n      swap2\n      sub\n      swap1\n      revert\n    tag_311:\n        /* \"contracts/SQFITEM/Marketplace.sol\":5184:5199  block.timestamp */\n      timestamp\n        /* \"contracts/SQFITEM/Marketplace.sol\":5168:5173  order */\n      dup3\n        /* \"contracts/SQFITEM/Marketplace.sol\":5168:5181  order.timeEnd */\n      0x01\n      add\n      sload\n        /* \"contracts/SQFITEM/Marketplace.sol\":5168:5199  order.timeEnd > block.timestamp */\n      gt\n        /* \"contracts/SQFITEM/Marketplace.sol\":5160:5218  require(order.timeEnd > block.timestamp, \"Bid time ended\") */\n      tag_314\n      jumpi\n      mload(0x40)\n      0x08c379a000000000000000000000000000000000000000000000000000000000\n      dup2\n      mstore\n      0x04\n      add\n      tag_315\n      swap1\n      tag_316\n      jump\t// in\n    tag_315:\n      mload(0x40)\n      dup1\n      swap2\n      sub\n      swap1\n      revert\n    tag_314:\n        /* \"contracts/SQFITEM/Marketplace.sol\":5294:5300  amount */\n      dup3\n        /* \"contracts/SQFITEM/Marketplace.sol\":5271:5279  currency */\n      dup2\n        /* \"contracts/SQFITEM/Marketplace.sol\":5271:5290  currency.minNextBid */\n      0x20\n      add\n      mload\n        /* \"contracts/SQFITEM/Marketplace.sol\":5250:5255  order */\n      dup4\n        /* \"contracts/SQFITEM/Marketplace.sol\":5250:5268  order.currentPrice */\n      0x02\n      add\n      sload\n        /* \"contracts/SQFITEM/Marketplace.sol\":5250:5290  order.currentPrice + currency.minNextBid */\n      tag_317\n      swap2\n      swap1\n      tag_318\n      jump\t// in\n    tag_317:\n        /* \"contracts/SQFITEM/Marketplace.sol\":5250:5300  order.currentPrice + currency.minNextBid <= amount */\n      gt\n      iszero\n        /* \"contracts/SQFITEM/Marketplace.sol\":5250:5371  order.currentPrice + currency.minNextBid <= amount ||... */\n      dup1\n      tag_319\n      jumpi\n      pop\n        /* \"contracts/SQFITEM/Marketplace.sol\":5340:5341  0 */\n      0x00\n        /* \"contracts/SQFITEM/Marketplace.sol\":5321:5326  order */\n      dup3\n        /* \"contracts/SQFITEM/Marketplace.sol\":5321:5336  order.spotPrice */\n      0x03\n      add\n      sload\n        /* \"contracts/SQFITEM/Marketplace.sol\":5321:5341  order.spotPrice != 0 */\n      eq\n      iszero\n        /* \"contracts/SQFITEM/Marketplace.sol\":5321:5370  order.spotPrice != 0 && amount == order.spotPrice */\n      dup1\n      iszero\n      tag_320\n      jumpi\n      pop\n        /* \"contracts/SQFITEM/Marketplace.sol\":5355:5360  order */\n      dup2\n        /* \"contracts/SQFITEM/Marketplace.sol\":5355:5370  order.spotPrice */\n      0x03\n      add\n      sload\n        /* \"contracts/SQFITEM/Marketplace.sol\":5345:5351  amount */\n      dup4\n        /* \"contracts/SQFITEM/Marketplace.sol\":5345:5370  amount == order.spotPrice */\n      eq\n        /* \"contracts/SQFITEM/Marketplace.sol\":5321:5370  order.spotPrice != 0 && amount == order.spotPrice */\n    tag_320:\n        /* \"contracts/SQFITEM/Marketplace.sol\":5250:5371  order.currentPrice + currency.minNextBid <= amount ||... */\n    tag_319:\n        /* \"contracts/SQFITEM/Marketplace.sol\":5228:5416  require(... */\n      tag_321\n      jumpi\n      mload(0x40)\n      0x08c379a000000000000000000000000000000000000000000000000000000000\n      dup2\n      mstore\n      0x04\n      add\n      tag_322\n      swap1\n      tag_323\n      jump\t// in\n    tag_322:\n      mload(0x40)\n      dup1\n      swap2\n      sub\n      swap1\n      revert\n    tag_321:\n        /* \"contracts/SQFITEM/Marketplace.sol\":5455:5458  0x0 */\n      0x00\n        /* \"contracts/SQFITEM/Marketplace.sol\":5430:5459  order.lastBid != address(0x0) */\n      0xffffffffffffffffffffffffffffffffffffffff\n      and\n        /* \"contracts/SQFITEM/Marketplace.sol\":5430:5435  order */\n      dup3\n        /* \"contracts/SQFITEM/Marketplace.sol\":5430:5443  order.lastBid */\n      0x06\n      add\n      0x00\n      swap1\n      sload\n      swap1\n      0x0100\n      exp\n      swap1\n      div\n      0xffffffffffffffffffffffffffffffffffffffff\n      and\n        /* \"contracts/SQFITEM/Marketplace.sol\":5430:5459  order.lastBid != address(0x0) */\n      0xffffffffffffffffffffffffffffffffffffffff\n      and\n      eq\n        /* \"contracts/SQFITEM/Marketplace.sol\":5426:5532  if (order.lastBid != address(0x0))... */\n      tag_324\n      jumpi\n        /* \"contracts/SQFITEM/Marketplace.sol\":5473:5532  transfer(order.currency, order.lastBid, order.currentPrice) */\n      tag_325\n        /* \"contracts/SQFITEM/Marketplace.sol\":5482:5487  order */\n      dup3\n        /* \"contracts/SQFITEM/Marketplace.sol\":5482:5496  order.currency */\n      0x05\n      add\n      0x00\n      swap1\n      sload\n      swap1\n      0x0100\n      exp\n      swap1\n      div\n      0xffffffffffffffffffffffffffffffffffffffff\n      and\n        /* \"contracts/SQFITEM/Marketplace.sol\":5498:5503  order */\n      dup4\n        /* \"contracts/SQFITEM/Marketplace.sol\":5498:5511  order.lastBid */\n      0x06\n      add\n      0x00\n      swap1\n      sload\n      swap1\n      0x0100\n      exp\n      swap1\n      div\n      0xffffffffffffffffffffffffffffffffffffffff\n      and\n        /* \"contracts/SQFITEM/Marketplace.sol\":5513:5518  order */\n      dup5\n        /* \"contracts/SQFITEM/Marketplace.sol\":5513:5531  order.currentPrice */\n      0x02\n      add\n      sload\n        /* \"contracts/SQFITEM/Marketplace.sol\":5473:5481  transfer */\n      tag_210\n        /* \"contracts/SQFITEM/Marketplace.sol\":5473:5532  transfer(order.currency, order.lastBid, order.currentPrice) */\n      jump\t// in\n    tag_325:\n        /* \"contracts/SQFITEM/Marketplace.sol\":5426:5532  if (order.lastBid != address(0x0))... */\n    tag_324:\n        /* \"contracts/SQFITEM/Marketplace.sol\":5565:5566  0 */\n      0x00\n        /* \"contracts/SQFITEM/Marketplace.sol\":5546:5551  order */\n      dup3\n        /* \"contracts/SQFITEM/Marketplace.sol\":5546:5561  order.spotPrice */\n      0x03\n      add\n      sload\n        /* \"contracts/SQFITEM/Marketplace.sol\":5546:5566  order.spotPrice != 0 */\n      eq\n      iszero\n        /* \"contracts/SQFITEM/Marketplace.sol\":5546:5595  order.spotPrice != 0 && amount >= order.spotPrice */\n      dup1\n      iszero\n      tag_326\n      jumpi\n      pop\n        /* \"contracts/SQFITEM/Marketplace.sol\":5580:5585  order */\n      dup2\n        /* \"contracts/SQFITEM/Marketplace.sol\":5580:5595  order.spotPrice */\n      0x03\n      add\n      sload\n        /* \"contracts/SQFITEM/Marketplace.sol\":5570:5576  amount */\n      dup4\n        /* \"contracts/SQFITEM/Marketplace.sol\":5570:5595  amount >= order.spotPrice */\n      lt\n      iszero\n        /* \"contracts/SQFITEM/Marketplace.sol\":5546:5595  order.spotPrice != 0 && amount >= order.spotPrice */\n    tag_326:\n        /* \"contracts/SQFITEM/Marketplace.sol\":5542:6572  if (order.spotPrice != 0 && amount >= order.spotPrice) {... */\n      iszero\n      tag_327\n      jumpi\n        /* \"contracts/SQFITEM/Marketplace.sol\":5611:5758  transfer(... */\n      tag_328\n        /* \"contracts/SQFITEM/Marketplace.sol\":5637:5642  order */\n      dup3\n        /* \"contracts/SQFITEM/Marketplace.sol\":5637:5651  order.currency */\n      0x05\n      add\n      0x00\n      swap1\n      sload\n      swap1\n      0x0100\n      exp\n      swap1\n      div\n      0xffffffffffffffffffffffffffffffffffffffff\n      and\n        /* \"contracts/SQFITEM/Marketplace.sol\":5669:5674  order */\n      dup4\n        /* \"contracts/SQFITEM/Marketplace.sol\":5669:5680  order.saler */\n      0x07\n      add\n      0x00\n      swap1\n      sload\n      swap1\n      0x0100\n      exp\n      swap1\n      div\n      0xffffffffffffffffffffffffffffffffffffffff\n      and\n        /* \"contracts/SQFITEM/Marketplace.sol\":5741:5744  100 */\n      0x64\n        /* \"contracts/SQFITEM/Marketplace.sol\":5724:5732  currency */\n      dup5\n        /* \"contracts/SQFITEM/Marketplace.sol\":5724:5736  currency.fee */\n      0x00\n      add\n      mload\n        /* \"contracts/SQFITEM/Marketplace.sol\":5718:5721  100 */\n      0x64\n        /* \"contracts/SQFITEM/Marketplace.sol\":5718:5736  100 - currency.fee */\n      tag_329\n      swap2\n      swap1\n      tag_205\n      jump\t// in\n    tag_329:\n        /* \"contracts/SQFITEM/Marketplace.sol\":5699:5704  order */\n      dup7\n        /* \"contracts/SQFITEM/Marketplace.sol\":5699:5714  order.spotPrice */\n      0x03\n      add\n      sload\n        /* \"contracts/SQFITEM/Marketplace.sol\":5699:5737  order.spotPrice * (100 - currency.fee) */\n      tag_330\n      swap2\n      swap1\n      tag_207\n      jump\t// in\n    tag_330:\n        /* \"contracts/SQFITEM/Marketplace.sol\":5698:5744  (order.spotPrice * (100 - currency.fee)) / 100 */\n      tag_331\n      swap2\n      swap1\n      tag_209\n      jump\t// in\n    tag_331:\n        /* \"contracts/SQFITEM/Marketplace.sol\":5611:5619  transfer */\n      tag_210\n        /* \"contracts/SQFITEM/Marketplace.sol\":5611:5758  transfer(... */\n      jump\t// in\n    tag_328:\n        /* \"contracts/SQFITEM/Marketplace.sol\":5785:5790  order */\n      dup2\n        /* \"contracts/SQFITEM/Marketplace.sol\":5785:5800  order.spotPrice */\n      0x03\n      add\n      sload\n        /* \"contracts/SQFITEM/Marketplace.sol\":5776:5782  amount */\n      dup4\n        /* \"contracts/SQFITEM/Marketplace.sol\":5776:5800  amount > order.spotPrice */\n      gt\n        /* \"contracts/SQFITEM/Marketplace.sol\":5772:5897  if (amount > order.spotPrice) {... */\n      iszero\n      tag_332\n      jumpi\n        /* \"contracts/SQFITEM/Marketplace.sol\":5820:5882  transfer(order.currency, msg.sender, order.spotPrice - amount) */\n      tag_333\n        /* \"contracts/SQFITEM/Marketplace.sol\":5829:5834  order */\n      dup3\n        /* \"contracts/SQFITEM/Marketplace.sol\":5829:5843  order.currency */\n      0x05\n      add\n      0x00\n      swap1\n      sload\n      swap1\n      0x0100\n      exp\n      swap1\n      div\n      0xffffffffffffffffffffffffffffffffffffffff\n      and\n        /* \"contracts/SQFITEM/Marketplace.sol\":5845:5855  msg.sender */\n      caller\n        /* \"contracts/SQFITEM/Marketplace.sol\":5875:5881  amount */\n      dup6\n        /* \"contracts/SQFITEM/Marketplace.sol\":5857:5862  order */\n      dup6\n        /* \"contracts/SQFITEM/Marketplace.sol\":5857:5872  order.spotPrice */\n      0x03\n      add\n      sload\n        /* \"contracts/SQFITEM/Marketplace.sol\":5857:5881  order.spotPrice - amount */\n      tag_334\n      swap2\n      swap1\n      tag_205\n      jump\t// in\n    tag_334:\n        /* \"contracts/SQFITEM/Marketplace.sol\":5820:5828  transfer */\n      tag_210\n        /* \"contracts/SQFITEM/Marketplace.sol\":5820:5882  transfer(order.currency, msg.sender, order.spotPrice - amount) */\n      jump\t// in\n    tag_333:\n        /* \"contracts/SQFITEM/Marketplace.sol\":5772:5897  if (amount > order.spotPrice) {... */\n    tag_332:\n        /* \"contracts/SQFITEM/Marketplace.sol\":5926:5936  msg.sender */\n      caller\n        /* \"contracts/SQFITEM/Marketplace.sol\":5910:5915  order */\n      dup3\n        /* \"contracts/SQFITEM/Marketplace.sol\":5910:5923  order.lastBid */\n      0x06\n      add\n      0x00\n        /* \"contracts/SQFITEM/Marketplace.sol\":5910:5936  order.lastBid = msg.sender */\n      0x0100\n      exp\n      dup2\n      sload\n      dup2\n      0xffffffffffffffffffffffffffffffffffffffff\n      mul\n      not\n      and\n      swap1\n      dup4\n      0xffffffffffffffffffffffffffffffffffffffff\n      and\n      mul\n      or\n      swap1\n      sstore\n      pop\n        /* \"contracts/SQFITEM/Marketplace.sol\":5971:5976  order */\n      dup2\n        /* \"contracts/SQFITEM/Marketplace.sol\":5971:5986  order.spotPrice */\n      0x03\n      add\n      sload\n        /* \"contracts/SQFITEM/Marketplace.sol\":5950:5955  order */\n      dup3\n        /* \"contracts/SQFITEM/Marketplace.sol\":5950:5968  order.currentPrice */\n      0x02\n      add\n        /* \"contracts/SQFITEM/Marketplace.sol\":5950:5986  order.currentPrice = order.spotPrice */\n      dup2\n      swap1\n      sstore\n      pop\n        /* \"contracts/SQFITEM/Marketplace.sol\":6014:6018  true */\n      0x01\n        /* \"contracts/SQFITEM/Marketplace.sol\":6000:6005  order */\n      dup3\n        /* \"contracts/SQFITEM/Marketplace.sol\":6000:6011  order.isEnd */\n      0x07\n      add\n      0x14\n        /* \"contracts/SQFITEM/Marketplace.sol\":6000:6018  order.isEnd = true */\n      0x0100\n      exp\n      dup2\n      sload\n      dup2\n      0xff\n      mul\n      not\n      and\n      swap1\n      dup4\n      iszero\n      iszero\n      mul\n      or\n      swap1\n      sstore\n      pop\n        /* \"contracts/SQFITEM/Marketplace.sol\":6040:6045  order */\n      dup2\n        /* \"contracts/SQFITEM/Marketplace.sol\":6040:6057  order.nftContract */\n      0x04\n      add\n      0x00\n      swap1\n      sload\n      swap1\n      0x0100\n      exp\n      swap1\n      div\n      0xffffffffffffffffffffffffffffffffffffffff\n      and\n        /* \"contracts/SQFITEM/Marketplace.sol\":6032:6071  IERC721(order.nftContract).transferFrom */\n      0xffffffffffffffffffffffffffffffffffffffff\n      and\n      0x23b872dd\n        /* \"contracts/SQFITEM/Marketplace.sol\":6097:6101  this */\n      address\n        /* \"contracts/SQFITEM/Marketplace.sol\":6120:6130  msg.sender */\n      caller\n        /* \"contracts/SQFITEM/Marketplace.sol\":6148:6153  order */\n      dup6\n        /* \"contracts/SQFITEM/Marketplace.sol\":6148:6159  order.nftId */\n      0x00\n      add\n      sload\n        /* \"contracts/SQFITEM/Marketplace.sol\":6032:6173  IERC721(order.nftContract).transferFrom(... */\n      mload(0x40)\n      dup5\n      0xffffffff\n      and\n      0xe0\n      shl\n      dup2\n      mstore\n      0x04\n      add\n      tag_335\n      swap4\n      swap3\n      swap2\n      swap1\n      tag_199\n      jump\t// in\n    tag_335:\n      0x00\n      mload(0x40)\n      dup1\n      dup4\n      sub\n      dup2\n      0x00\n      dup8\n      dup1\n      extcodesize\n      iszero\n      dup1\n      iszero\n      tag_336\n      jumpi\n      0x00\n      dup1\n      revert\n    tag_336:\n      pop\n      gas\n      call\n      iszero\n      dup1\n      iszero\n      tag_338\n      jumpi\n      returndatasize\n      0x00\n      dup1\n      returndatacopy\n      revert(0x00, returndatasize)\n    tag_338:\n      pop\n      pop\n      pop\n      pop\n        /* \"contracts/SQFITEM/Marketplace.sol\":6192:6395  OrderConfirmed(... */\n      0xce721eceb3d95b669e16e7226225b0adce09f2485ba78f90fc194dae97b5501c\n        /* \"contracts/SQFITEM/Marketplace.sol\":6224:6231  orderId */\n      dup5\n        /* \"contracts/SQFITEM/Marketplace.sol\":6249:6259  msg.sender */\n      caller\n        /* \"contracts/SQFITEM/Marketplace.sol\":6277:6282  order */\n      dup5\n        /* \"contracts/SQFITEM/Marketplace.sol\":6277:6292  order.spotPrice */\n      0x03\n      add\n      sload\n        /* \"contracts/SQFITEM/Marketplace.sol\":6345:6348  100 */\n      0x64\n        /* \"contracts/SQFITEM/Marketplace.sol\":6329:6337  currency */\n      dup6\n        /* \"contracts/SQFITEM/Marketplace.sol\":6329:6341  currency.fee */\n      0x00\n      add\n      mload\n        /* \"contracts/SQFITEM/Marketplace.sol\":6311:6316  order */\n      dup8\n        /* \"contracts/SQFITEM/Marketplace.sol\":6311:6326  order.spotPrice */\n      0x03\n      add\n      sload\n        /* \"contracts/SQFITEM/Marketplace.sol\":6311:6341  order.spotPrice * currency.fee */\n      tag_339\n      swap2\n      swap1\n      tag_207\n      jump\t// in\n    tag_339:\n        /* \"contracts/SQFITEM/Marketplace.sol\":6310:6348  (order.spotPrice * currency.fee) / 100 */\n      tag_340\n      swap2\n      swap1\n      tag_209\n      jump\t// in\n    tag_340:\n        /* \"contracts/SQFITEM/Marketplace.sol\":6366:6381  block.timestamp */\n      timestamp\n        /* \"contracts/SQFITEM/Marketplace.sol\":6192:6395  OrderConfirmed(... */\n      mload(0x40)\n      tag_341\n      swap6\n      swap5\n      swap4\n      swap3\n      swap2\n      swap1\n      tag_214\n      jump\t// in\n    tag_341:\n      mload(0x40)\n      dup1\n      swap2\n      sub\n      swap1\n      log1\n        /* \"contracts/SQFITEM/Marketplace.sol\":5542:6572  if (order.spotPrice != 0 && amount >= order.spotPrice) {... */\n      jump(tag_342)\n    tag_327:\n        /* \"contracts/SQFITEM/Marketplace.sol\":6442:6452  msg.sender */\n      caller\n        /* \"contracts/SQFITEM/Marketplace.sol\":6426:6431  order */\n      dup3\n        /* \"contracts/SQFITEM/Marketplace.sol\":6426:6439  order.lastBid */\n      0x06\n      add\n      0x00\n        /* \"contracts/SQFITEM/Marketplace.sol\":6426:6452  order.lastBid = msg.sender */\n      0x0100\n      exp\n      dup2\n      sload\n      dup2\n      0xffffffffffffffffffffffffffffffffffffffff\n      mul\n      not\n      and\n      swap1\n      dup4\n      0xffffffffffffffffffffffffffffffffffffffff\n      and\n      mul\n      or\n      swap1\n      sstore\n      pop\n        /* \"contracts/SQFITEM/Marketplace.sol\":6487:6493  amount */\n      dup3\n        /* \"contracts/SQFITEM/Marketplace.sol\":6466:6471  order */\n      dup3\n        /* \"contracts/SQFITEM/Marketplace.sol\":6466:6484  order.currentPrice */\n      0x02\n      add\n        /* \"contracts/SQFITEM/Marketplace.sol\":6466:6493  order.currentPrice = amount */\n      dup2\n      swap1\n      sstore\n      pop\n        /* \"contracts/SQFITEM/Marketplace.sol\":6512:6561  Bid(msg.sender, block.timestamp, orderId, amount) */\n      0x4dcc013473324698bfbe263facec4ea4b1bc43624236542deabec62c2122b305\n        /* \"contracts/SQFITEM/Marketplace.sol\":6516:6526  msg.sender */\n      caller\n        /* \"contracts/SQFITEM/Marketplace.sol\":6528:6543  block.timestamp */\n      timestamp\n        /* \"contracts/SQFITEM/Marketplace.sol\":6545:6552  orderId */\n      dup7\n        /* \"contracts/SQFITEM/Marketplace.sol\":6554:6560  amount */\n      dup7\n        /* \"contracts/SQFITEM/Marketplace.sol\":6512:6561  Bid(msg.sender, block.timestamp, orderId, amount) */\n      mload(0x40)\n      tag_343\n      swap5\n      swap4\n      swap3\n      swap2\n      swap1\n      tag_344\n      jump\t// in\n    tag_343:\n      mload(0x40)\n      dup1\n      swap2\n      sub\n      swap1\n      log1\n        /* \"contracts/SQFITEM/Marketplace.sol\":5542:6572  if (order.spotPrice != 0 && amount >= order.spotPrice) {... */\n    tag_342:\n        /* \"contracts/SQFITEM/Marketplace.sol\":4616:6578  {... */\n      pop\n      pop\n        /* \"contracts/SQFITEM/Marketplace.sol\":4541:6578  function bid(uint256 orderId, uint256 amount) public payable whenNotPaused {... */\n      pop\n      pop\n      jump\t// out\n        /* \"contracts/SQFITEM/Pausable.sol\":1034:1118  function paused() public view virtual returns (bool) {... */\n    tag_105:\n        /* \"contracts/SQFITEM/Pausable.sol\":1081:1085  bool */\n      0x00\n        /* \"contracts/SQFITEM/Pausable.sol\":1104:1111  _paused */\n      dup1\n      0x00\n      swap1\n      sload\n      swap1\n      0x0100\n      exp\n      swap1\n      div\n      0xff\n      and\n        /* \"contracts/SQFITEM/Pausable.sol\":1097:1111  return _paused */\n      swap1\n      pop\n        /* \"contracts/SQFITEM/Pausable.sol\":1034:1118  function paused() public view virtual returns (bool) {... */\n      swap1\n      jump\t// out\n        /* \"contracts/SQFITEM/Marketplace.sol\":277:343  bytes32 public constant MARKET_CONFIG = keccak256(\"MARKET_CONFIG\") */\n    tag_109:\n        /* \"contracts/SQFITEM/Marketplace.sol\":317:343  keccak256(\"MARKET_CONFIG\") */\n      0xd6ec3d4e172787e4fbb9572fe6dff2ebff47878d0878cd2c913f5c49b4487ea0\n        /* \"contracts/SQFITEM/Marketplace.sol\":277:343  bytes32 public constant MARKET_CONFIG = keccak256(\"MARKET_CONFIG\") */\n      dup2\n      jump\t// out\n        /* \"contracts/SQFITEM/Marketplace.sol\":2174:2320  function addSupportedNFT(address _nftAddress)... */\n    tag_114:\n        /* \"contracts/SQFITEM/Marketplace.sol\":317:343  keccak256(\"MARKET_CONFIG\") */\n      0xd6ec3d4e172787e4fbb9572fe6dff2ebff47878d0878cd2c913f5c49b4487ea0\n        /* \"contracts/SQFITEM/AccessControl.sol\":480:510  _checkRole(role, _msgSender()) */\n      tag_347\n        /* \"contracts/SQFITEM/AccessControl.sol\":491:495  role */\n      dup2\n        /* \"contracts/SQFITEM/AccessControl.sol\":497:509  _msgSender() */\n      tag_348\n        /* \"contracts/SQFITEM/AccessControl.sol\":497:507  _msgSender */\n      tag_220\n        /* \"contracts/SQFITEM/AccessControl.sol\":497:509  _msgSender() */\n      jump\t// in\n    tag_348:\n        /* \"contracts/SQFITEM/AccessControl.sol\":480:490  _checkRole */\n      tag_221\n        /* \"contracts/SQFITEM/AccessControl.sol\":480:510  _checkRole(role, _msgSender()) */\n      jump\t// in\n    tag_347:\n        /* \"contracts/SQFITEM/Marketplace.sol\":2309:2313  true */\n      0x01\n        /* \"contracts/SQFITEM/Marketplace.sol\":2281:2293  supportedNFT */\n      0x04\n        /* \"contracts/SQFITEM/Marketplace.sol\":2281:2306  supportedNFT[_nftAddress] */\n      0x00\n        /* \"contracts/SQFITEM/Marketplace.sol\":2294:2305  _nftAddress */\n      dup5\n        /* \"contracts/SQFITEM/Marketplace.sol\":2281:2306  supportedNFT[_nftAddress] */\n      0xffffffffffffffffffffffffffffffffffffffff\n      and\n      0xffffffffffffffffffffffffffffffffffffffff\n      and\n      dup2\n      mstore\n      0x20\n      add\n      swap1\n      dup2\n      mstore\n      0x20\n      add\n      0x00\n      keccak256\n      0x00\n        /* \"contracts/SQFITEM/Marketplace.sol\":2281:2313  supportedNFT[_nftAddress] = true */\n      0x0100\n      exp\n      dup2\n      sload\n      dup2\n      0xff\n      mul\n      not\n      and\n      swap1\n      dup4\n      iszero\n      iszero\n      mul\n      or\n      swap1\n      sstore\n      pop\n        /* \"contracts/SQFITEM/Marketplace.sol\":2174:2320  function addSupportedNFT(address _nftAddress)... */\n      pop\n      pop\n      jump\t// out\n        /* \"contracts/SQFITEM/Marketplace.sol\":9328:9399  function pause() public onlyRole(PAUSER_ROLE) {... */\n    tag_117:\n        /* \"contracts/SQFITEM/Marketplace.sol\":387:411  keccak256(\"PAUSER_ROLE\") */\n      0x65d7a28e3265b37a6474929f336521b332c1681b933f6cb9f3376673440d862a\n        /* \"contracts/SQFITEM/AccessControl.sol\":480:510  _checkRole(role, _msgSender()) */\n      tag_351\n        /* \"contracts/SQFITEM/AccessControl.sol\":491:495  role */\n      dup2\n        /* \"contracts/SQFITEM/AccessControl.sol\":497:509  _msgSender() */\n      tag_352\n        /* \"contracts/SQFITEM/AccessControl.sol\":497:507  _msgSender */\n      tag_220\n        /* \"contracts/SQFITEM/AccessControl.sol\":497:509  _msgSender() */\n      jump\t// in\n    tag_352:\n        /* \"contracts/SQFITEM/AccessControl.sol\":480:490  _checkRole */\n      tag_221\n        /* \"contracts/SQFITEM/AccessControl.sol\":480:510  _checkRole(role, _msgSender()) */\n      jump\t// in\n    tag_351:\n        /* \"contracts/SQFITEM/Marketplace.sol\":9384:9392  _pause() */\n      tag_354\n        /* \"contracts/SQFITEM/Marketplace.sol\":9384:9390  _pause */\n      tag_355\n        /* \"contracts/SQFITEM/Marketplace.sol\":9384:9392  _pause() */\n      jump\t// in\n    tag_354:\n        /* \"contracts/SQFITEM/Marketplace.sol\":9328:9399  function pause() public onlyRole(PAUSER_ROLE) {... */\n      pop\n      jump\t// out\n        /* \"contracts/SQFITEM/Marketplace.sol\":449:477  address payable public owner */\n    tag_120:\n      0x03\n      0x00\n      swap1\n      sload\n      swap1\n      0x0100\n      exp\n      swap1\n      div\n      0xffffffffffffffffffffffffffffffffffffffff\n      and\n      dup2\n      jump\t// out\n        /* \"contracts/SQFITEM/AccessControl.sol\":742:879  function hasRole(bytes32 role, address account) public view override returns (bool) {... */\n    tag_126:\n        /* \"contracts/SQFITEM/AccessControl.sol\":820:824  bool */\n      0x00\n        /* \"contracts/SQFITEM/AccessControl.sol\":843:849  _roles */\n      0x01\n        /* \"contracts/SQFITEM/AccessControl.sol\":843:855  _roles[role] */\n      0x00\n        /* \"contracts/SQFITEM/AccessControl.sol\":850:854  role */\n      dup5\n        /* \"contracts/SQFITEM/AccessControl.sol\":843:855  _roles[role] */\n      dup2\n      mstore\n      0x20\n      add\n      swap1\n      dup2\n      mstore\n      0x20\n      add\n      0x00\n      keccak256\n        /* \"contracts/SQFITEM/AccessControl.sol\":843:863  _roles[role].members */\n      0x00\n      add\n        /* \"contracts/SQFITEM/AccessControl.sol\":843:872  _roles[role].members[account] */\n      0x00\n        /* \"contracts/SQFITEM/AccessControl.sol\":864:871  account */\n      dup4\n        /* \"contracts/SQFITEM/AccessControl.sol\":843:872  _roles[role].members[account] */\n      0xffffffffffffffffffffffffffffffffffffffff\n      and\n      0xffffffffffffffffffffffffffffffffffffffff\n      and\n      dup2\n      mstore\n      0x20\n      add\n      swap1\n      dup2\n      mstore\n      0x20\n      add\n      0x00\n      keccak256\n      0x00\n      swap1\n      sload\n      swap1\n      0x0100\n      exp\n      swap1\n      div\n      0xff\n      and\n        /* \"contracts/SQFITEM/AccessControl.sol\":836:872  return _roles[role].members[account] */\n      swap1\n      pop\n        /* \"contracts/SQFITEM/AccessControl.sol\":742:879  function hasRole(bytes32 role, address account) public view override returns (bool) {... */\n      swap3\n      swap2\n      pop\n      pop\n      jump\t// out\n        /* \"contracts/SQFITEM/Marketplace.sol\":2482:2580  function setMinTime(uint256 _time) public onlyRole(MARKET_CONFIG) {... */\n    tag_131:\n        /* \"contracts/SQFITEM/Marketplace.sol\":317:343  keccak256(\"MARKET_CONFIG\") */\n      0xd6ec3d4e172787e4fbb9572fe6dff2ebff47878d0878cd2c913f5c49b4487ea0\n        /* \"contracts/SQFITEM/AccessControl.sol\":480:510  _checkRole(role, _msgSender()) */\n      tag_358\n        /* \"contracts/SQFITEM/AccessControl.sol\":491:495  role */\n      dup2\n        /* \"contracts/SQFITEM/AccessControl.sol\":497:509  _msgSender() */\n      tag_359\n        /* \"contracts/SQFITEM/AccessControl.sol\":497:507  _msgSender */\n      tag_220\n        /* \"contracts/SQFITEM/AccessControl.sol\":497:509  _msgSender() */\n      jump\t// in\n    tag_359:\n        /* \"contracts/SQFITEM/AccessControl.sol\":480:490  _checkRole */\n      tag_221\n        /* \"contracts/SQFITEM/AccessControl.sol\":480:510  _checkRole(role, _msgSender()) */\n      jump\t// in\n    tag_358:\n        /* \"contracts/SQFITEM/Marketplace.sol\":2568:2573  _time */\n      dup2\n        /* \"contracts/SQFITEM/Marketplace.sol\":2558:2565  minTime */\n      0x02\n        /* \"contracts/SQFITEM/Marketplace.sol\":2558:2573  minTime = _time */\n      dup2\n      swap1\n      sstore\n      pop\n        /* \"contracts/SQFITEM/Marketplace.sol\":2482:2580  function setMinTime(uint256 _time) public onlyRole(MARKET_CONFIG) {... */\n      pop\n      pop\n      jump\t// out\n        /* \"contracts/SQFITEM/Marketplace.sol\":8768:9322  function adminCancelOrder(uint256 orderId)... */\n    tag_135:\n        /* \"contracts/SQFITEM/AccessControl.sol\":427:431  0x00 */\n      0x00\n        /* \"contracts/SQFITEM/Marketplace.sol\":8843:8861  DEFAULT_ADMIN_ROLE */\n      dup1\n      shl\n        /* \"contracts/SQFITEM/AccessControl.sol\":480:510  _checkRole(role, _msgSender()) */\n      tag_362\n        /* \"contracts/SQFITEM/AccessControl.sol\":491:495  role */\n      dup2\n        /* \"contracts/SQFITEM/AccessControl.sol\":497:509  _msgSender() */\n      tag_363\n        /* \"contracts/SQFITEM/AccessControl.sol\":497:507  _msgSender */\n      tag_220\n        /* \"contracts/SQFITEM/AccessControl.sol\":497:509  _msgSender() */\n      jump\t// in\n    tag_363:\n        /* \"contracts/SQFITEM/AccessControl.sol\":480:490  _checkRole */\n      tag_221\n        /* \"contracts/SQFITEM/AccessControl.sol\":480:510  _checkRole(role, _msgSender()) */\n      jump\t// in\n    tag_362:\n        /* \"contracts/SQFITEM/Marketplace.sol\":8895:8901  orders */\n      0x06\n        /* \"contracts/SQFITEM/Marketplace.sol\":8895:8908  orders.length */\n      dup1\n      sload\n      swap1\n      pop\n        /* \"contracts/SQFITEM/Marketplace.sol\":8885:8892  orderId */\n      dup3\n        /* \"contracts/SQFITEM/Marketplace.sol\":8885:8908  orderId < orders.length */\n      lt\n        /* \"contracts/SQFITEM/Marketplace.sol\":8877:8929  require(orderId < orders.length, \"Order ID invalid\") */\n      tag_365\n      jumpi\n      mload(0x40)\n      0x08c379a000000000000000000000000000000000000000000000000000000000\n      dup2\n      mstore\n      0x04\n      add\n      tag_366\n      swap1\n      tag_186\n      jump\t// in\n    tag_366:\n      mload(0x40)\n      dup1\n      swap2\n      sub\n      swap1\n      revert\n    tag_365:\n        /* \"contracts/SQFITEM/Marketplace.sol\":8939:8958  Order storage order */\n      0x00\n        /* \"contracts/SQFITEM/Marketplace.sol\":8961:8967  orders */\n      0x06\n        /* \"contracts/SQFITEM/Marketplace.sol\":8968:8975  orderId */\n      dup4\n        /* \"contracts/SQFITEM/Marketplace.sol\":8961:8976  orders[orderId] */\n      dup2\n      sload\n      dup2\n      lt\n      tag_367\n      jumpi\n      tag_368\n      tag_189\n      jump\t// in\n    tag_368:\n    tag_367:\n      swap1\n      0x00\n      mstore\n      keccak256(0x00, 0x20)\n      swap1\n      0x08\n      mul\n      add\n        /* \"contracts/SQFITEM/Marketplace.sol\":8939:8976  Order storage order = orders[orderId] */\n      swap1\n      pop\n        /* \"contracts/SQFITEM/Marketplace.sol\":9019:9022  0x0 */\n      0x00\n        /* \"contracts/SQFITEM/Marketplace.sol\":8994:9023  order.lastBid == address(0x0) */\n      0xffffffffffffffffffffffffffffffffffffffff\n      and\n        /* \"contracts/SQFITEM/Marketplace.sol\":8994:8999  order */\n      dup2\n        /* \"contracts/SQFITEM/Marketplace.sol\":8994:9007  order.lastBid */\n      0x06\n      add\n      0x00\n      swap1\n      sload\n      swap1\n      0x0100\n      exp\n      swap1\n      div\n      0xffffffffffffffffffffffffffffffffffffffff\n      and\n        /* \"contracts/SQFITEM/Marketplace.sol\":8994:9023  order.lastBid == address(0x0) */\n      0xffffffffffffffffffffffffffffffffffffffff\n      and\n      eq\n        /* \"contracts/SQFITEM/Marketplace.sol\":8986:9047  require(order.lastBid == address(0x0), \"Must not have bider\") */\n      tag_370\n      jumpi\n      mload(0x40)\n      0x08c379a000000000000000000000000000000000000000000000000000000000\n      dup2\n      mstore\n      0x04\n      add\n      tag_371\n      swap1\n      tag_278\n      jump\t// in\n    tag_371:\n      mload(0x40)\n      dup1\n      swap2\n      sub\n      swap1\n      revert\n    tag_370:\n        /* \"contracts/SQFITEM/Marketplace.sol\":9066:9071  order */\n      dup1\n        /* \"contracts/SQFITEM/Marketplace.sol\":9066:9077  order.isEnd */\n      0x07\n      add\n      0x14\n      swap1\n      sload\n      swap1\n      0x0100\n      exp\n      swap1\n      div\n      0xff\n      and\n        /* \"contracts/SQFITEM/Marketplace.sol\":9065:9077  !order.isEnd */\n      iszero\n        /* \"contracts/SQFITEM/Marketplace.sol\":9057:9099  require(!order.isEnd, \"Must be not ended\") */\n      tag_372\n      jumpi\n      mload(0x40)\n      0x08c379a000000000000000000000000000000000000000000000000000000000\n      dup2\n      mstore\n      0x04\n      add\n      tag_373\n      swap1\n      tag_281\n      jump\t// in\n    tag_373:\n      mload(0x40)\n      dup1\n      swap2\n      sub\n      swap1\n      revert\n    tag_372:\n        /* \"contracts/SQFITEM/Marketplace.sol\":9123:9127  true */\n      0x01\n        /* \"contracts/SQFITEM/Marketplace.sol\":9109:9114  order */\n      dup2\n        /* \"contracts/SQFITEM/Marketplace.sol\":9109:9120  order.isEnd */\n      0x07\n      add\n      0x14\n        /* \"contracts/SQFITEM/Marketplace.sol\":9109:9127  order.isEnd = true */\n      0x0100\n      exp\n      dup2\n      sload\n      dup2\n      0xff\n      mul\n      not\n      and\n      swap1\n      dup4\n      iszero\n      iszero\n      mul\n      or\n      swap1\n      sstore\n      pop\n        /* \"contracts/SQFITEM/Marketplace.sol\":9145:9150  order */\n      dup1\n        /* \"contracts/SQFITEM/Marketplace.sol\":9145:9162  order.nftContract */\n      0x04\n      add\n      0x00\n      swap1\n      sload\n      swap1\n      0x0100\n      exp\n      swap1\n      div\n      0xffffffffffffffffffffffffffffffffffffffff\n      and\n        /* \"contracts/SQFITEM/Marketplace.sol\":9137:9176  IERC721(order.nftContract).transferFrom */\n      0xffffffffffffffffffffffffffffffffffffffff\n      and\n      0x23b872dd\n        /* \"contracts/SQFITEM/Marketplace.sol\":9198:9202  this */\n      address\n        /* \"contracts/SQFITEM/Marketplace.sol\":9217:9222  order */\n      dup4\n        /* \"contracts/SQFITEM/Marketplace.sol\":9217:9228  order.saler */\n      0x07\n      add\n      0x00\n      swap1\n      sload\n      swap1\n      0x0100\n      exp\n      swap1\n      div\n      0xffffffffffffffffffffffffffffffffffffffff\n      and\n        /* \"contracts/SQFITEM/Marketplace.sol\":9242:9247  order */\n      dup5\n        /* \"contracts/SQFITEM/Marketplace.sol\":9242:9253  order.nftId */\n      0x00\n      add\n      sload\n        /* \"contracts/SQFITEM/Marketplace.sol\":9137:9263  IERC721(order.nftContract).transferFrom(... */\n      mload(0x40)\n      dup5\n      0xffffffff\n      and\n      0xe0\n      shl\n      dup2\n      mstore\n      0x04\n      add\n      tag_374\n      swap4\n      swap3\n      swap2\n      swap1\n      tag_199\n      jump\t// in\n    tag_374:\n      0x00\n      mload(0x40)\n      dup1\n      dup4\n      sub\n      dup2\n      0x00\n      dup8\n      dup1\n      extcodesize\n      iszero\n      dup1\n      iszero\n      tag_375\n      jumpi\n      0x00\n      dup1\n      revert\n    tag_375:\n      pop\n      gas\n      call\n      iszero\n      dup1\n      iszero\n      tag_377\n      jumpi\n      returndatasize\n      0x00\n      dup1\n      returndatacopy\n      revert(0x00, returndatasize)\n    tag_377:\n      pop\n      pop\n      pop\n      pop\n        /* \"contracts/SQFITEM/Marketplace.sol\":9278:9315  OrderCancel(orderId, block.timestamp) */\n      0xdaea36f3bd03e8d765478afd092ebe5ab48dce17051d09cf6d5876fdd5083d68\n        /* \"contracts/SQFITEM/Marketplace.sol\":9290:9297  orderId */\n      dup4\n        /* \"contracts/SQFITEM/Marketplace.sol\":9299:9314  block.timestamp */\n      timestamp\n        /* \"contracts/SQFITEM/Marketplace.sol\":9278:9315  OrderCancel(orderId, block.timestamp) */\n      mload(0x40)\n      tag_378\n      swap3\n      swap2\n      swap1\n      tag_287\n      jump\t// in\n    tag_378:\n      mload(0x40)\n      dup1\n      swap2\n      sub\n      swap1\n      log1\n        /* \"contracts/SQFITEM/Marketplace.sol\":8867:9322  {... */\n      pop\n        /* \"contracts/SQFITEM/Marketplace.sol\":8768:9322  function adminCancelOrder(uint256 orderId)... */\n      pop\n      pop\n      jump\t// out\n        /* \"contracts/SQFITEM/AccessControl.sol\":382:431  bytes32 public constant DEFAULT_ADMIN_ROLE = 0x00 */\n    tag_138:\n        /* \"contracts/SQFITEM/AccessControl.sol\":427:431  0x00 */\n      0x00\n        /* \"contracts/SQFITEM/AccessControl.sol\":382:431  bytes32 public constant DEFAULT_ADMIN_ROLE = 0x00 */\n      dup1\n      shl\n      dup2\n      jump\t// out\n        /* \"contracts/SQFITEM/Marketplace.sol\":943:964  Order[] public orders */\n    tag_143:\n      0x06\n      dup2\n      dup2\n      sload\n      dup2\n      lt\n      tag_379\n      jumpi\n      0x00\n      dup1\n      revert\n    tag_379:\n      swap1\n      0x00\n      mstore\n      keccak256(0x00, 0x20)\n      swap1\n      0x08\n      mul\n      add\n      0x00\n      swap2\n      pop\n      swap1\n      pop\n      dup1\n      0x00\n      add\n      sload\n      swap1\n      dup1\n      0x01\n      add\n      sload\n      swap1\n      dup1\n      0x02\n      add\n      sload\n      swap1\n      dup1\n      0x03\n      add\n      sload\n      swap1\n      dup1\n      0x04\n      add\n      0x00\n      swap1\n      sload\n      swap1\n      0x0100\n      exp\n      swap1\n      div\n      0xffffffffffffffffffffffffffffffffffffffff\n      and\n      swap1\n      dup1\n      0x05\n      add\n      0x00\n      swap1\n      sload\n      swap1\n      0x0100\n      exp\n      swap1\n      div\n      0xffffffffffffffffffffffffffffffffffffffff\n      and\n      swap1\n      dup1\n      0x06\n      add\n      0x00\n      swap1\n      sload\n      swap1\n      0x0100\n      exp\n      swap1\n      div\n      0xffffffffffffffffffffffffffffffffffffffff\n      and\n      swap1\n      dup1\n      0x07\n      add\n      0x00\n      swap1\n      sload\n      swap1\n      0x0100\n      exp\n      swap1\n      div\n      0xffffffffffffffffffffffffffffffffffffffff\n      and\n      swap1\n      dup1\n      0x07\n      add\n      0x14\n      swap1\n      sload\n      swap1\n      0x0100\n      exp\n      swap1\n      div\n      0xff\n      and\n      swap1\n      pop\n      dup10\n      jump\t// out\n        /* \"contracts/SQFITEM/Marketplace.sol\":2326:2476  function removeSupportedNFT(address _nftAddress)... */\n    tag_149:\n        /* \"contracts/SQFITEM/Marketplace.sol\":317:343  keccak256(\"MARKET_CONFIG\") */\n      0xd6ec3d4e172787e4fbb9572fe6dff2ebff47878d0878cd2c913f5c49b4487ea0\n        /* \"contracts/SQFITEM/AccessControl.sol\":480:510  _checkRole(role, _msgSender()) */\n      tag_382\n        /* \"contracts/SQFITEM/AccessControl.sol\":491:495  role */\n      dup2\n        /* \"contracts/SQFITEM/AccessControl.sol\":497:509  _msgSender() */\n      tag_383\n        /* \"contracts/SQFITEM/AccessControl.sol\":497:507  _msgSender */\n      tag_220\n        /* \"contracts/SQFITEM/AccessControl.sol\":497:509  _msgSender() */\n      jump\t// in\n    tag_383:\n        /* \"contracts/SQFITEM/AccessControl.sol\":480:490  _checkRole */\n      tag_221\n        /* \"contracts/SQFITEM/AccessControl.sol\":480:510  _checkRole(role, _msgSender()) */\n      jump\t// in\n    tag_382:\n        /* \"contracts/SQFITEM/Marketplace.sol\":2464:2469  false */\n      0x00\n        /* \"contracts/SQFITEM/Marketplace.sol\":2436:2448  supportedNFT */\n      0x04\n        /* \"contracts/SQFITEM/Marketplace.sol\":2436:2461  supportedNFT[_nftAddress] */\n      0x00\n        /* \"contracts/SQFITEM/Marketplace.sol\":2449:2460  _nftAddress */\n      dup5\n        /* \"contracts/SQFITEM/Marketplace.sol\":2436:2461  supportedNFT[_nftAddress] */\n      0xffffffffffffffffffffffffffffffffffffffff\n      and\n      0xffffffffffffffffffffffffffffffffffffffff\n      and\n      dup2\n      mstore\n      0x20\n      add\n      swap1\n      dup2\n      mstore\n      0x20\n      add\n      0x00\n      keccak256\n      0x00\n        /* \"contracts/SQFITEM/Marketplace.sol\":2436:2469  supportedNFT[_nftAddress] = false */\n      0x0100\n      exp\n      dup2\n      sload\n      dup2\n      0xff\n      mul\n      not\n      and\n      swap1\n      dup4\n      iszero\n      iszero\n      mul\n      or\n      swap1\n      sstore\n      pop\n        /* \"contracts/SQFITEM/Marketplace.sol\":2326:2476  function removeSupportedNFT(address _nftAddress)... */\n      pop\n      pop\n      jump\t// out\n        /* \"contracts/SQFITEM/AccessControl.sol\":2860:3133  function stringToBytes32(string memory source) public pure returns (bytes32 result) {... */\n    tag_154:\n        /* \"contracts/SQFITEM/AccessControl.sol\":2928:2942  bytes32 result */\n      0x00\n        /* \"contracts/SQFITEM/AccessControl.sol\":2950:2982  bytes memory tempEmptyStringTest */\n      dup1\n        /* \"contracts/SQFITEM/AccessControl.sol\":2991:2997  source */\n      dup3\n        /* \"contracts/SQFITEM/AccessControl.sol\":2950:2998  bytes memory tempEmptyStringTest = bytes(source) */\n      swap1\n      pop\n        /* \"contracts/SQFITEM/AccessControl.sol\":3038:3039  0 */\n      0x00\n        /* \"contracts/SQFITEM/AccessControl.sol\":3008:3027  tempEmptyStringTest */\n      dup2\n        /* \"contracts/SQFITEM/AccessControl.sol\":3008:3034  tempEmptyStringTest.length */\n      mload\n        /* \"contracts/SQFITEM/AccessControl.sol\":3008:3039  tempEmptyStringTest.length == 0 */\n      sub\n        /* \"contracts/SQFITEM/AccessControl.sol\":3004:3068  if (tempEmptyStringTest.length == 0) {... */\n      tag_386\n      jumpi\n        /* \"contracts/SQFITEM/AccessControl.sol\":3058:3061  0x0 */\n      0x00\n        /* \"contracts/SQFITEM/AccessControl.sol\":3051:3061  return 0x0 */\n      dup1\n      shl\n      swap2\n      pop\n      pop\n      jump(tag_385)\n        /* \"contracts/SQFITEM/AccessControl.sol\":3004:3068  if (tempEmptyStringTest.length == 0) {... */\n    tag_386:\n        /* \"contracts/SQFITEM/AccessControl.sol\":3121:3123  32 */\n      0x20\n        /* \"contracts/SQFITEM/AccessControl.sol\":3113:3119  source */\n      dup4\n        /* \"contracts/SQFITEM/AccessControl.sol\":3109:3124  add(source, 32) */\n      add\n        /* \"contracts/SQFITEM/AccessControl.sol\":3103:3125  mload(add(source, 32)) */\n      mload\n        /* \"contracts/SQFITEM/AccessControl.sol\":3093:3125  result := mload(add(source, 32)) */\n      swap2\n      pop\n        /* \"contracts/SQFITEM/AccessControl.sol\":3083:3131  {... */\n      pop\n        /* \"contracts/SQFITEM/AccessControl.sol\":2860:3133  function stringToBytes32(string memory source) public pure returns (bytes32 result) {... */\n    tag_385:\n      swap2\n      swap1\n      pop\n      jump\t// out\n        /* \"contracts/SQFITEM/AccessControl.sol\":1653:1800  function revokeRole(bytes32 role, address account) public virtual override onlyRole(getRoleAdmin(role)) {... */\n    tag_159:\n        /* \"contracts/SQFITEM/AccessControl.sol\":1737:1755  getRoleAdmin(role) */\n      tag_387\n        /* \"contracts/SQFITEM/AccessControl.sol\":1750:1754  role */\n      dup3\n        /* \"contracts/SQFITEM/AccessControl.sol\":1737:1749  getRoleAdmin */\n      tag_59\n        /* \"contracts/SQFITEM/AccessControl.sol\":1737:1755  getRoleAdmin(role) */\n      jump\t// in\n    tag_387:\n        /* \"contracts/SQFITEM/AccessControl.sol\":480:510  _checkRole(role, _msgSender()) */\n      tag_389\n        /* \"contracts/SQFITEM/AccessControl.sol\":491:495  role */\n      dup2\n        /* \"contracts/SQFITEM/AccessControl.sol\":497:509  _msgSender() */\n      tag_390\n        /* \"contracts/SQFITEM/AccessControl.sol\":497:507  _msgSender */\n      tag_220\n        /* \"contracts/SQFITEM/AccessControl.sol\":497:509  _msgSender() */\n      jump\t// in\n    tag_390:\n        /* \"contracts/SQFITEM/AccessControl.sol\":480:490  _checkRole */\n      tag_221\n        /* \"contracts/SQFITEM/AccessControl.sol\":480:510  _checkRole(role, _msgSender()) */\n      jump\t// in\n    tag_389:\n        /* \"contracts/SQFITEM/AccessControl.sol\":1767:1793  _revokeRole(role, account) */\n      tag_392\n        /* \"contracts/SQFITEM/AccessControl.sol\":1779:1783  role */\n      dup4\n        /* \"contracts/SQFITEM/AccessControl.sol\":1785:1792  account */\n      dup4\n        /* \"contracts/SQFITEM/AccessControl.sol\":1767:1778  _revokeRole */\n      tag_231\n        /* \"contracts/SQFITEM/AccessControl.sol\":1767:1793  _revokeRole(role, account) */\n      jump\t// in\n    tag_392:\n        /* \"contracts/SQFITEM/AccessControl.sol\":1653:1800  function revokeRole(bytes32 role, address account) public virtual override onlyRole(getRoleAdmin(role)) {... */\n      pop\n      pop\n      pop\n      jump\t// out\n        /* \"contracts/SQFITEM/Marketplace.sol\":2586:3949  function createOrder(... */\n    tag_164:\n        /* \"contracts/SQFITEM/Pausable.sol\":1348:1356  paused() */\n      tag_394\n        /* \"contracts/SQFITEM/Pausable.sol\":1348:1354  paused */\n      tag_105\n        /* \"contracts/SQFITEM/Pausable.sol\":1348:1356  paused() */\n      jump\t// in\n    tag_394:\n        /* \"contracts/SQFITEM/Pausable.sol\":1347:1356  !paused() */\n      iszero\n        /* \"contracts/SQFITEM/Pausable.sol\":1339:1377  require(!paused(), \"Pausable: paused\") */\n      tag_395\n      jumpi\n      mload(0x40)\n      0x08c379a000000000000000000000000000000000000000000000000000000000\n      dup2\n      mstore\n      0x04\n      add\n      tag_396\n      swap1\n      tag_182\n      jump\t// in\n    tag_396:\n      mload(0x40)\n      dup1\n      swap2\n      sub\n      swap1\n      revert\n    tag_395:\n        /* \"contracts/SQFITEM/Marketplace.sol\":2809:2821  supportedNFT */\n      0x04\n        /* \"contracts/SQFITEM/Marketplace.sol\":2809:2834  supportedNFT[contractNft] */\n      0x00\n        /* \"contracts/SQFITEM/Marketplace.sol\":2822:2833  contractNft */\n      dup8\n        /* \"contracts/SQFITEM/Marketplace.sol\":2809:2834  supportedNFT[contractNft] */\n      0xffffffffffffffffffffffffffffffffffffffff\n      and\n      0xffffffffffffffffffffffffffffffffffffffff\n      and\n      dup2\n      mstore\n      0x20\n      add\n      swap1\n      dup2\n      mstore\n      0x20\n      add\n      0x00\n      keccak256\n      0x00\n      swap1\n      sload\n      swap1\n      0x0100\n      exp\n      swap1\n      div\n      0xff\n      and\n        /* \"contracts/SQFITEM/Marketplace.sol\":2801:2860  require(supportedNFT[contractNft], \"NFT must be supported\") */\n      tag_398\n      jumpi\n      mload(0x40)\n      0x08c379a000000000000000000000000000000000000000000000000000000000\n      dup2\n      mstore\n      0x04\n      add\n      tag_399\n      swap1\n      tag_400\n      jump\t// in\n    tag_399:\n      mload(0x40)\n      dup1\n      swap2\n      sub\n      swap1\n      revert\n    tag_398:\n        /* \"contracts/SQFITEM/Marketplace.sol\":2891:2908  supportedCurrency */\n      0x05\n        /* \"contracts/SQFITEM/Marketplace.sol\":2891:2918  supportedCurrency[currency] */\n      0x00\n        /* \"contracts/SQFITEM/Marketplace.sol\":2909:2917  currency */\n      dup7\n        /* \"contracts/SQFITEM/Marketplace.sol\":2891:2918  supportedCurrency[currency] */\n      0xffffffffffffffffffffffffffffffffffffffff\n      and\n      0xffffffffffffffffffffffffffffffffffffffff\n      and\n      dup2\n      mstore\n      0x20\n      add\n      swap1\n      dup2\n      mstore\n      0x20\n      add\n      0x00\n      keccak256\n        /* \"contracts/SQFITEM/Marketplace.sol\":2891:2925  supportedCurrency[currency].status */\n      0x02\n      add\n      0x00\n      swap1\n      sload\n      swap1\n      0x0100\n      exp\n      swap1\n      div\n      0xff\n      and\n        /* \"contracts/SQFITEM/Marketplace.sol\":2870:2977  require(... */\n      tag_401\n      jumpi\n      mload(0x40)\n      0x08c379a000000000000000000000000000000000000000000000000000000000\n      dup2\n      mstore\n      0x04\n      add\n      tag_402\n      swap1\n      tag_403\n      jump\t// in\n    tag_402:\n      mload(0x40)\n      dup1\n      swap2\n      sub\n      swap1\n      revert\n    tag_401:\n        /* \"contracts/SQFITEM/Marketplace.sol\":3047:3057  msg.sender */\n      caller\n        /* \"contracts/SQFITEM/Marketplace.sol\":3008:3057  IERC721(contractNft).ownerOf(nftId) == msg.sender */\n      0xffffffffffffffffffffffffffffffffffffffff\n      and\n        /* \"contracts/SQFITEM/Marketplace.sol\":3016:3027  contractNft */\n      dup7\n        /* \"contracts/SQFITEM/Marketplace.sol\":3008:3036  IERC721(contractNft).ownerOf */\n      0xffffffffffffffffffffffffffffffffffffffff\n      and\n      0x6352211e\n        /* \"contracts/SQFITEM/Marketplace.sol\":3037:3042  nftId */\n      dup7\n        /* \"contracts/SQFITEM/Marketplace.sol\":3008:3043  IERC721(contractNft).ownerOf(nftId) */\n      mload(0x40)\n      dup3\n      0xffffffff\n      and\n      0xe0\n      shl\n      dup2\n      mstore\n      0x04\n      add\n      tag_404\n      swap2\n      swap1\n      tag_49\n      jump\t// in\n    tag_404:\n      0x20\n      mload(0x40)\n      dup1\n      dup4\n      sub\n      dup2\n      dup7\n      gas\n      staticcall\n      iszero\n      dup1\n      iszero\n      tag_406\n      jumpi\n      returndatasize\n      0x00\n      dup1\n      returndatacopy\n      revert(0x00, returndatasize)\n    tag_406:\n      pop\n      pop\n      pop\n      pop\n      mload(0x40)\n      returndatasize\n      not(0x1f)\n      0x1f\n      dup3\n      add\n      and\n      dup3\n      add\n      dup1\n      0x40\n      mstore\n      pop\n      dup2\n      add\n      swap1\n      tag_407\n      swap2\n      swap1\n      tag_408\n      jump\t// in\n    tag_407:\n        /* \"contracts/SQFITEM/Marketplace.sol\":3008:3057  IERC721(contractNft).ownerOf(nftId) == msg.sender */\n      0xffffffffffffffffffffffffffffffffffffffff\n      and\n      eq\n        /* \"contracts/SQFITEM/Marketplace.sol\":2987:3103  require(... */\n      tag_409\n      jumpi\n      mload(0x40)\n      0x08c379a000000000000000000000000000000000000000000000000000000000\n      dup2\n      mstore\n      0x04\n      add\n      tag_410\n      swap1\n      tag_411\n      jump\t// in\n    tag_410:\n      mload(0x40)\n      dup1\n      swap2\n      sub\n      swap1\n      revert\n    tag_409:\n        /* \"contracts/SQFITEM/Marketplace.sol\":3133:3134  0 */\n      0x00\n        /* \"contracts/SQFITEM/Marketplace.sol\":3121:3130  initPrice */\n      dup3\n        /* \"contracts/SQFITEM/Marketplace.sol\":3121:3134  initPrice > 0 */\n      gt\n        /* \"contracts/SQFITEM/Marketplace.sol\":3113:3152  require(initPrice > 0, \"Price invalid\") */\n      tag_412\n      jumpi\n      mload(0x40)\n      0x08c379a000000000000000000000000000000000000000000000000000000000\n      dup2\n      mstore\n      0x04\n      add\n      tag_413\n      swap1\n      tag_414\n      jump\t// in\n    tag_413:\n      mload(0x40)\n      dup1\n      swap2\n      sub\n      swap1\n      revert\n    tag_412:\n        /* \"contracts/SQFITEM/Marketplace.sol\":3183:3192  initPrice */\n      dup2\n        /* \"contracts/SQFITEM/Marketplace.sol\":3170:3179  spotPrice */\n      dup2\n        /* \"contracts/SQFITEM/Marketplace.sol\":3170:3192  spotPrice >= initPrice */\n      lt\n      iszero\n        /* \"contracts/SQFITEM/Marketplace.sol\":3170:3210  spotPrice >= initPrice || spotPrice == 0 */\n      dup1\n      tag_415\n      jumpi\n      pop\n        /* \"contracts/SQFITEM/Marketplace.sol\":3209:3210  0 */\n      0x00\n        /* \"contracts/SQFITEM/Marketplace.sol\":3196:3205  spotPrice */\n      dup2\n        /* \"contracts/SQFITEM/Marketplace.sol\":3196:3210  spotPrice == 0 */\n      eq\n        /* \"contracts/SQFITEM/Marketplace.sol\":3170:3210  spotPrice >= initPrice || spotPrice == 0 */\n    tag_415:\n        /* \"contracts/SQFITEM/Marketplace.sol\":3162:3233  require(spotPrice >= initPrice || spotPrice == 0, \"Spot price invalid\") */\n      tag_416\n      jumpi\n      mload(0x40)\n      0x08c379a000000000000000000000000000000000000000000000000000000000\n      dup2\n      mstore\n      0x04\n      add\n      tag_417\n      swap1\n      tag_418\n      jump\t// in\n    tag_417:\n      mload(0x40)\n      dup1\n      swap2\n      sub\n      swap1\n      revert\n    tag_416:\n        /* \"contracts/SQFITEM/Marketplace.sol\":3272:3287  block.timestamp */\n      timestamp\n        /* \"contracts/SQFITEM/Marketplace.sol\":3262:3269  minTime */\n      sload(0x02)\n        /* \"contracts/SQFITEM/Marketplace.sol\":3262:3287  minTime + block.timestamp */\n      tag_419\n      swap2\n      swap1\n      tag_318\n      jump\t// in\n    tag_419:\n        /* \"contracts/SQFITEM/Marketplace.sol\":3251:3258  timeEnd */\n      dup4\n        /* \"contracts/SQFITEM/Marketplace.sol\":3251:3287  timeEnd >= minTime + block.timestamp */\n      lt\n      iszero\n        /* \"contracts/SQFITEM/Marketplace.sol\":3243:3310  require(timeEnd >= minTime + block.timestamp, \"TimeEnd is invalid\") */\n      tag_420\n      jumpi\n      mload(0x40)\n      0x08c379a000000000000000000000000000000000000000000000000000000000\n      dup2\n      mstore\n      0x04\n      add\n      tag_421\n      swap1\n      tag_422\n      jump\t// in\n    tag_421:\n      mload(0x40)\n      dup1\n      swap2\n      sub\n      swap1\n      revert\n    tag_420:\n        /* \"contracts/SQFITEM/Marketplace.sol\":3328:3339  contractNft */\n      dup6\n        /* \"contracts/SQFITEM/Marketplace.sol\":3320:3353  IERC721(contractNft).transferFrom */\n      0xffffffffffffffffffffffffffffffffffffffff\n      and\n      0x23b872dd\n        /* \"contracts/SQFITEM/Marketplace.sol\":3354:3364  msg.sender */\n      caller\n        /* \"contracts/SQFITEM/Marketplace.sol\":3374:3378  this */\n      address\n        /* \"contracts/SQFITEM/Marketplace.sol\":3381:3386  nftId */\n      dup8\n        /* \"contracts/SQFITEM/Marketplace.sol\":3320:3387  IERC721(contractNft).transferFrom(msg.sender, address(this), nftId) */\n      mload(0x40)\n      dup5\n      0xffffffff\n      and\n      0xe0\n      shl\n      dup2\n      mstore\n      0x04\n      add\n      tag_423\n      swap4\n      swap3\n      swap2\n      swap1\n      tag_199\n      jump\t// in\n    tag_423:\n      0x00\n      mload(0x40)\n      dup1\n      dup4\n      sub\n      dup2\n      0x00\n      dup8\n      dup1\n      extcodesize\n      iszero\n      dup1\n      iszero\n      tag_424\n      jumpi\n      0x00\n      dup1\n      revert\n    tag_424:\n      pop\n      gas\n      call\n      iszero\n      dup1\n      iszero\n      tag_426\n      jumpi\n      returndatasize\n      0x00\n      dup1\n      returndatacopy\n      revert(0x00, returndatasize)\n    tag_426:\n      pop\n      pop\n      pop\n      pop\n        /* \"contracts/SQFITEM/Marketplace.sol\":3397:3403  orders */\n      0x06\n        /* \"contracts/SQFITEM/Marketplace.sol\":3422:3679  Order(... */\n      mload(0x40)\n      dup1\n      0x0120\n      add\n      0x40\n      mstore\n      dup1\n        /* \"contracts/SQFITEM/Marketplace.sol\":3445:3450  nftId */\n      dup7\n        /* \"contracts/SQFITEM/Marketplace.sol\":3422:3679  Order(... */\n      dup2\n      mstore\n      0x20\n      add\n        /* \"contracts/SQFITEM/Marketplace.sol\":3468:3475  timeEnd */\n      dup6\n        /* \"contracts/SQFITEM/Marketplace.sol\":3422:3679  Order(... */\n      dup2\n      mstore\n      0x20\n      add\n        /* \"contracts/SQFITEM/Marketplace.sol\":3493:3502  initPrice */\n      dup5\n        /* \"contracts/SQFITEM/Marketplace.sol\":3422:3679  Order(... */\n      dup2\n      mstore\n      0x20\n      add\n        /* \"contracts/SQFITEM/Marketplace.sol\":3520:3529  spotPrice */\n      dup4\n        /* \"contracts/SQFITEM/Marketplace.sol\":3422:3679  Order(... */\n      dup2\n      mstore\n      0x20\n      add\n        /* \"contracts/SQFITEM/Marketplace.sol\":3547:3558  contractNft */\n      dup9\n        /* \"contracts/SQFITEM/Marketplace.sol\":3422:3679  Order(... */\n      0xffffffffffffffffffffffffffffffffffffffff\n      and\n      dup2\n      mstore\n      0x20\n      add\n        /* \"contracts/SQFITEM/Marketplace.sol\":3576:3584  currency */\n      dup8\n        /* \"contracts/SQFITEM/Marketplace.sol\":3422:3679  Order(... */\n      0xffffffffffffffffffffffffffffffffffffffff\n      and\n      dup2\n      mstore\n      0x20\n      add\n        /* \"contracts/SQFITEM/Marketplace.sol\":3610:3613  0x0 */\n      0x00\n        /* \"contracts/SQFITEM/Marketplace.sol\":3422:3679  Order(... */\n      0xffffffffffffffffffffffffffffffffffffffff\n      and\n      dup2\n      mstore\n      0x20\n      add\n        /* \"contracts/SQFITEM/Marketplace.sol\":3632:3642  msg.sender */\n      caller\n        /* \"contracts/SQFITEM/Marketplace.sol\":3422:3679  Order(... */\n      0xffffffffffffffffffffffffffffffffffffffff\n      and\n      dup2\n      mstore\n      0x20\n      add\n        /* \"contracts/SQFITEM/Marketplace.sol\":3660:3665  false */\n      0x00\n        /* \"contracts/SQFITEM/Marketplace.sol\":3422:3679  Order(... */\n      iszero\n      iszero\n      dup2\n      mstore\n      pop\n        /* \"contracts/SQFITEM/Marketplace.sol\":3397:3689  orders.push(... */\n      swap1\n      dup1\n      0x01\n      dup2\n      sload\n      add\n      dup1\n      dup3\n      sstore\n      dup1\n      swap2\n      pop\n      pop\n      0x01\n      swap1\n      sub\n      swap1\n      0x00\n      mstore\n      keccak256(0x00, 0x20)\n      swap1\n      0x08\n      mul\n      add\n      0x00\n      swap1\n      swap2\n      swap1\n      swap2\n      swap1\n      swap2\n      pop\n      0x00\n      dup3\n      add\n      mload\n      dup2\n      0x00\n      add\n      sstore\n      0x20\n      dup3\n      add\n      mload\n      dup2\n      0x01\n      add\n      sstore\n      0x40\n      dup3\n      add\n      mload\n      dup2\n      0x02\n      add\n      sstore\n      0x60\n      dup3\n      add\n      mload\n      dup2\n      0x03\n      add\n      sstore\n      0x80\n      dup3\n      add\n      mload\n      dup2\n      0x04\n      add\n      exp(0x0100, 0x00)\n      dup2\n      sload\n      dup2\n      0xffffffffffffffffffffffffffffffffffffffff\n      mul\n      not\n      and\n      swap1\n      dup4\n      0xffffffffffffffffffffffffffffffffffffffff\n      and\n      mul\n      or\n      swap1\n      sstore\n      pop\n      0xa0\n      dup3\n      add\n      mload\n      dup2\n      0x05\n      add\n      exp(0x0100, 0x00)\n      dup2\n      sload\n      dup2\n      0xffffffffffffffffffffffffffffffffffffffff\n      mul\n      not\n      and\n      swap1\n      dup4\n      0xffffffffffffffffffffffffffffffffffffffff\n      and\n      mul\n      or\n      swap1\n      sstore\n      pop\n      0xc0\n      dup3\n      add\n      mload\n      dup2\n      0x06\n      add\n      exp(0x0100, 0x00)\n      dup2\n      sload\n      dup2\n      0xffffffffffffffffffffffffffffffffffffffff\n      mul\n      not\n      and\n      swap1\n      dup4\n      0xffffffffffffffffffffffffffffffffffffffff\n      and\n      mul\n      or\n      swap1\n      sstore\n      pop\n      0xe0\n      dup3\n      add\n      mload\n      dup2\n      0x07\n      add\n      exp(0x0100, 0x00)\n      dup2\n      sload\n      dup2\n      0xffffffffffffffffffffffffffffffffffffffff\n      mul\n      not\n      and\n      swap1\n      dup4\n      0xffffffffffffffffffffffffffffffffffffffff\n      and\n      mul\n      or\n      swap1\n      sstore\n      pop\n      0x0100\n      dup3\n      add\n      mload\n      dup2\n      0x07\n      add\n      exp(0x0100, 0x14)\n      dup2\n      sload\n      dup2\n      0xff\n      mul\n      not\n      and\n      swap1\n      dup4\n      iszero\n      iszero\n      mul\n      or\n      swap1\n      sstore\n      pop\n      pop\n      pop\n        /* \"contracts/SQFITEM/Marketplace.sol\":3704:3942  OrderCreate(... */\n      0xc7ec54aead4db4e08ac0929dfd3efbff1ceeb2390d1390b6d4b3ff832125a558\n        /* \"contracts/SQFITEM/Marketplace.sol\":3745:3746  1 */\n      0x01\n        /* \"contracts/SQFITEM/Marketplace.sol\":3729:3735  orders */\n      0x06\n        /* \"contracts/SQFITEM/Marketplace.sol\":3729:3742  orders.length */\n      dup1\n      sload\n      swap1\n      pop\n        /* \"contracts/SQFITEM/Marketplace.sol\":3729:3746  orders.length - 1 */\n      tag_428\n      swap2\n      swap1\n      tag_205\n      jump\t// in\n    tag_428:\n        /* \"contracts/SQFITEM/Marketplace.sol\":3760:3771  contractNft */\n      dup8\n        /* \"contracts/SQFITEM/Marketplace.sol\":3785:3793  currency */\n      dup8\n        /* \"contracts/SQFITEM/Marketplace.sol\":3807:3817  msg.sender */\n      caller\n        /* \"contracts/SQFITEM/Marketplace.sol\":3831:3846  block.timestamp */\n      timestamp\n        /* \"contracts/SQFITEM/Marketplace.sol\":3860:3865  nftId */\n      dup10\n        /* \"contracts/SQFITEM/Marketplace.sol\":3879:3886  timeEnd */\n      dup10\n        /* \"contracts/SQFITEM/Marketplace.sol\":3900:3909  initPrice */\n      dup10\n        /* \"contracts/SQFITEM/Marketplace.sol\":3923:3932  spotPrice */\n      dup10\n        /* \"contracts/SQFITEM/Marketplace.sol\":3704:3942  OrderCreate(... */\n      mload(0x40)\n      tag_429\n      swap10\n      swap9\n      swap8\n      swap7\n      swap6\n      swap5\n      swap4\n      swap3\n      swap2\n      swap1\n      tag_430\n      jump\t// in\n    tag_429:\n      mload(0x40)\n      dup1\n      swap2\n      sub\n      swap1\n      log1\n        /* \"contracts/SQFITEM/Marketplace.sol\":2586:3949  function createOrder(... */\n      pop\n      pop\n      pop\n      pop\n      pop\n      pop\n      jump\t// out\n        /* \"contracts/SQFITEM/Marketplace.sol\":349:411  bytes32 public constant PAUSER_ROLE = keccak256(\"PAUSER_ROLE\") */\n    tag_167:\n        /* \"contracts/SQFITEM/Marketplace.sol\":387:411  keccak256(\"PAUSER_ROLE\") */\n      0x65d7a28e3265b37a6474929f336521b332c1681b933f6cb9f3376673440d862a\n        /* \"contracts/SQFITEM/Marketplace.sol\":349:411  bytes32 public constant PAUSER_ROLE = keccak256(\"PAUSER_ROLE\") */\n      dup2\n      jump\t// out\n        /* \"contracts/SQFITEM/Marketplace.sol\":9491:9767  function withdraw(address token, uint256 amount)... */\n    tag_173:\n        /* \"contracts/SQFITEM/AccessControl.sol\":427:431  0x00 */\n      0x00\n        /* \"contracts/SQFITEM/Marketplace.sol\":9572:9590  DEFAULT_ADMIN_ROLE */\n      dup1\n      shl\n        /* \"contracts/SQFITEM/AccessControl.sol\":480:510  _checkRole(role, _msgSender()) */\n      tag_432\n        /* \"contracts/SQFITEM/AccessControl.sol\":491:495  role */\n      dup2\n        /* \"contracts/SQFITEM/AccessControl.sol\":497:509  _msgSender() */\n      tag_433\n        /* \"contracts/SQFITEM/AccessControl.sol\":497:507  _msgSender */\n      tag_220\n        /* \"contracts/SQFITEM/AccessControl.sol\":497:509  _msgSender() */\n      jump\t// in\n    tag_433:\n        /* \"contracts/SQFITEM/AccessControl.sol\":480:490  _checkRole */\n      tag_221\n        /* \"contracts/SQFITEM/AccessControl.sol\":480:510  _checkRole(role, _msgSender()) */\n      jump\t// in\n    tag_432:\n        /* \"contracts/SQFITEM/Marketplace.sol\":9627:9630  0x0 */\n      0x00\n        /* \"contracts/SQFITEM/Marketplace.sol\":9610:9631  token == address(0x0) */\n      0xffffffffffffffffffffffffffffffffffffffff\n      and\n        /* \"contracts/SQFITEM/Marketplace.sol\":9610:9615  token */\n      dup4\n        /* \"contracts/SQFITEM/Marketplace.sol\":9610:9631  token == address(0x0) */\n      0xffffffffffffffffffffffffffffffffffffffff\n      and\n      sub\n        /* \"contracts/SQFITEM/Marketplace.sol\":9606:9761  if (token == address(0x0)) {... */\n      tag_435\n      jumpi\n        /* \"contracts/SQFITEM/Marketplace.sol\":9655:9660  owner */\n      0x03\n      0x00\n      swap1\n      sload\n      swap1\n      0x0100\n      exp\n      swap1\n      div\n      0xffffffffffffffffffffffffffffffffffffffff\n      and\n        /* \"contracts/SQFITEM/Marketplace.sol\":9647:9670  payable(owner).transfer */\n      0xffffffffffffffffffffffffffffffffffffffff\n      and\n        /* \"contracts/SQFITEM/Marketplace.sol\":9647:9678  payable(owner).transfer(amount) */\n      0x08fc\n        /* \"contracts/SQFITEM/Marketplace.sol\":9671:9677  amount */\n      dup4\n        /* \"contracts/SQFITEM/Marketplace.sol\":9647:9678  payable(owner).transfer(amount) */\n      swap1\n      dup2\n      iszero\n      mul\n      swap1\n      mload(0x40)\n      0x00\n      mload(0x40)\n      dup1\n      dup4\n      sub\n      dup2\n      dup6\n      dup9\n      dup9\n      call\n      swap4\n      pop\n      pop\n      pop\n      pop\n      iszero\n      dup1\n      iszero\n      tag_437\n      jumpi\n      returndatasize\n      0x00\n      dup1\n      returndatacopy\n      revert(0x00, returndatasize)\n    tag_437:\n      pop\n        /* \"contracts/SQFITEM/Marketplace.sol\":9606:9761  if (token == address(0x0)) {... */\n      jump(tag_438)\n    tag_435:\n        /* \"contracts/SQFITEM/Marketplace.sol\":9709:9750  IERC20(token).safeTransfer(owner, amount) */\n      tag_439\n        /* \"contracts/SQFITEM/Marketplace.sol\":9736:9741  owner */\n      0x03\n      0x00\n      swap1\n      sload\n      swap1\n      0x0100\n      exp\n      swap1\n      div\n      0xffffffffffffffffffffffffffffffffffffffff\n      and\n        /* \"contracts/SQFITEM/Marketplace.sol\":9743:9749  amount */\n      dup4\n        /* \"contracts/SQFITEM/Marketplace.sol\":9716:9721  token */\n      dup6\n        /* \"contracts/SQFITEM/Marketplace.sol\":9709:9735  IERC20(token).safeTransfer */\n      0xffffffffffffffffffffffffffffffffffffffff\n      and\n      tag_440\n      swap1\n        /* \"contracts/SQFITEM/Marketplace.sol\":9709:9750  IERC20(token).safeTransfer(owner, amount) */\n      swap3\n      swap2\n      swap1\n      0xffffffff\n      and\n      jump\t// in\n    tag_439:\n        /* \"contracts/SQFITEM/Marketplace.sol\":9606:9761  if (token == address(0x0)) {... */\n    tag_438:\n        /* \"contracts/SQFITEM/Marketplace.sol\":9491:9767  function withdraw(address token, uint256 amount)... */\n      pop\n      pop\n      pop\n      jump\t// out\n        /* \"contracts/SQFITEM/ERC165.sol\":763:918  function supportsInterface(bytes4 interfaceId) public view virtual override returns (bool) {... */\n    tag_177:\n        /* \"contracts/SQFITEM/ERC165.sol\":848:852  bool */\n      0x00\n        /* \"contracts/SQFITEM/ERC165.sol\":886:911  type(IERC165).interfaceId */\n      0x01ffc9a700000000000000000000000000000000000000000000000000000000\n        /* \"contracts/SQFITEM/ERC165.sol\":871:911  interfaceId == type(IERC165).interfaceId */\n      not(0xffffffffffffffffffffffffffffffffffffffffffffffffffffffff)\n      and\n        /* \"contracts/SQFITEM/ERC165.sol\":871:882  interfaceId */\n      dup3\n        /* \"contracts/SQFITEM/ERC165.sol\":871:911  interfaceId == type(IERC165).interfaceId */\n      not(0xffffffffffffffffffffffffffffffffffffffffffffffffffffffff)\n      and\n      eq\n        /* \"contracts/SQFITEM/ERC165.sol\":864:911  return interfaceId == type(IERC165).interfaceId */\n      swap1\n      pop\n        /* \"contracts/SQFITEM/ERC165.sol\":763:918  function supportsInterface(bytes4 interfaceId) public view virtual override returns (bool) {... */\n      swap2\n      swap1\n      pop\n      jump\t// out\n        /* \"contracts/SQFITEM/Marketplace.sol\":8476:8762  function transfer(... */\n    tag_210:\n        /* \"contracts/SQFITEM/Marketplace.sol\":8614:8617  0x0 */\n      0x00\n        /* \"contracts/SQFITEM/Marketplace.sol\":8597:8618  token == address(0x0) */\n      0xffffffffffffffffffffffffffffffffffffffff\n      and\n        /* \"contracts/SQFITEM/Marketplace.sol\":8597:8602  token */\n      dup4\n        /* \"contracts/SQFITEM/Marketplace.sol\":8597:8618  token == address(0x0) */\n      0xffffffffffffffffffffffffffffffffffffffff\n      and\n      sub\n        /* \"contracts/SQFITEM/Marketplace.sol\":8593:8756  if (token == address(0x0)) {... */\n      tag_443\n      jumpi\n        /* \"contracts/SQFITEM/Marketplace.sol\":8642:8651  recipient */\n      dup2\n        /* \"contracts/SQFITEM/Marketplace.sol\":8634:8661  payable(recipient).transfer */\n      0xffffffffffffffffffffffffffffffffffffffff\n      and\n        /* \"contracts/SQFITEM/Marketplace.sol\":8634:8669  payable(recipient).transfer(amount) */\n      0x08fc\n        /* \"contracts/SQFITEM/Marketplace.sol\":8662:8668  amount */\n      dup3\n        /* \"contracts/SQFITEM/Marketplace.sol\":8634:8669  payable(recipient).transfer(amount) */\n      swap1\n      dup2\n      iszero\n      mul\n      swap1\n      mload(0x40)\n      0x00\n      mload(0x40)\n      dup1\n      dup4\n      sub\n      dup2\n      dup6\n      dup9\n      dup9\n      call\n      swap4\n      pop\n      pop\n      pop\n      pop\n      iszero\n      dup1\n      iszero\n      tag_445\n      jumpi\n      returndatasize\n      0x00\n      dup1\n      returndatacopy\n      revert(0x00, returndatasize)\n    tag_445:\n      pop\n        /* \"contracts/SQFITEM/Marketplace.sol\":8593:8756  if (token == address(0x0)) {... */\n      jump(tag_446)\n    tag_443:\n        /* \"contracts/SQFITEM/Marketplace.sol\":8700:8745  IERC20(token).safeTransfer(recipient, amount) */\n      tag_447\n        /* \"contracts/SQFITEM/Marketplace.sol\":8727:8736  recipient */\n      dup3\n        /* \"contracts/SQFITEM/Marketplace.sol\":8738:8744  amount */\n      dup3\n        /* \"contracts/SQFITEM/Marketplace.sol\":8707:8712  token */\n      dup6\n        /* \"contracts/SQFITEM/Marketplace.sol\":8700:8726  IERC20(token).safeTransfer */\n      0xffffffffffffffffffffffffffffffffffffffff\n      and\n      tag_440\n      swap1\n        /* \"contracts/SQFITEM/Marketplace.sol\":8700:8745  IERC20(token).safeTransfer(recipient, amount) */\n      swap3\n      swap2\n      swap1\n      0xffffffff\n      and\n      jump\t// in\n    tag_447:\n        /* \"contracts/SQFITEM/Marketplace.sol\":8593:8756  if (token == address(0x0)) {... */\n    tag_446:\n        /* \"contracts/SQFITEM/Marketplace.sol\":8476:8762  function transfer(... */\n      pop\n      pop\n      pop\n      jump\t// out\n        /* \"contracts/SQFITEM/Context.sol\":587:683  function _msgSender() internal view virtual returns (address) {... */\n    tag_220:\n        /* \"contracts/SQFITEM/Context.sol\":640:647  address */\n      0x00\n        /* \"contracts/SQFITEM/Context.sol\":666:676  msg.sender */\n      caller\n        /* \"contracts/SQFITEM/Context.sol\":659:676  return msg.sender */\n      swap1\n      pop\n        /* \"contracts/SQFITEM/Context.sol\":587:683  function _msgSender() internal view virtual returns (address) {... */\n      swap1\n      jump\t// out\n        /* \"contracts/SQFITEM/AccessControl.sol\":885:1369  function _checkRole(bytes32 role, address account) internal view {... */\n    tag_221:\n        /* \"contracts/SQFITEM/AccessControl.sol\":965:987  hasRole(role, account) */\n      tag_450\n        /* \"contracts/SQFITEM/AccessControl.sol\":973:977  role */\n      dup3\n        /* \"contracts/SQFITEM/AccessControl.sol\":979:986  account */\n      dup3\n        /* \"contracts/SQFITEM/AccessControl.sol\":965:972  hasRole */\n      tag_126\n        /* \"contracts/SQFITEM/AccessControl.sol\":965:987  hasRole(role, account) */\n      jump\t// in\n    tag_450:\n        /* \"contracts/SQFITEM/AccessControl.sol\":960:1363  if (!hasRole(role, account)) {... */\n      tag_451\n      jumpi\n        /* \"contracts/SQFITEM/AccessControl.sol\":1148:1189  Strings.toHexString(uint160(account), 20) */\n      tag_452\n        /* \"contracts/SQFITEM/AccessControl.sol\":1176:1183  account */\n      dup2\n        /* \"contracts/SQFITEM/AccessControl.sol\":1148:1189  Strings.toHexString(uint160(account), 20) */\n      0xffffffffffffffffffffffffffffffffffffffff\n      and\n        /* \"contracts/SQFITEM/AccessControl.sol\":1186:1188  20 */\n      0x14\n        /* \"contracts/SQFITEM/AccessControl.sol\":1148:1167  Strings.toHexString */\n      tag_453\n        /* \"contracts/SQFITEM/AccessControl.sol\":1148:1189  Strings.toHexString(uint160(account), 20) */\n      jump\t// in\n    tag_452:\n        /* \"contracts/SQFITEM/AccessControl.sol\":1260:1298  Strings.toHexString(uint256(role), 32) */\n      tag_454\n        /* \"contracts/SQFITEM/AccessControl.sol\":1288:1292  role */\n      dup4\n        /* \"contracts/SQFITEM/AccessControl.sol\":1280:1293  uint256(role) */\n      0x00\n      shr\n        /* \"contracts/SQFITEM/AccessControl.sol\":1295:1297  32 */\n      0x20\n        /* \"contracts/SQFITEM/AccessControl.sol\":1260:1279  Strings.toHexString */\n      tag_453\n        /* \"contracts/SQFITEM/AccessControl.sol\":1260:1298  Strings.toHexString(uint256(role), 32) */\n      jump\t// in\n    tag_454:\n        /* \"contracts/SQFITEM/AccessControl.sol\":1055:1320  abi.encodePacked(... */\n      add(0x20, mload(0x40))\n      tag_455\n      swap3\n      swap2\n      swap1\n      tag_456\n      jump\t// in\n    tag_455:\n      mload(0x40)\n      0x20\n      dup2\n      dup4\n      sub\n      sub\n      dup2\n      mstore\n      swap1\n      0x40\n      mstore\n        /* \"contracts/SQFITEM/AccessControl.sol\":1003:1352  revert(... */\n      mload(0x40)\n      0x08c379a000000000000000000000000000000000000000000000000000000000\n      dup2\n      mstore\n      0x04\n      add\n      tag_457\n      swap2\n      swap1\n      tag_458\n      jump\t// in\n    tag_457:\n      mload(0x40)\n      dup1\n      swap2\n      sub\n      swap1\n      revert\n        /* \"contracts/SQFITEM/AccessControl.sol\":960:1363  if (!hasRole(role, account)) {... */\n    tag_451:\n        /* \"contracts/SQFITEM/AccessControl.sol\":885:1369  function _checkRole(bytes32 role, address account) internal view {... */\n      pop\n      pop\n      jump\t// out\n        /* \"contracts/SQFITEM/AccessControl.sol\":2395:2619  function _grantRole(bytes32 role, address account) private {... */\n    tag_224:\n        /* \"contracts/SQFITEM/AccessControl.sol\":2469:2491  hasRole(role, account) */\n      tag_460\n        /* \"contracts/SQFITEM/AccessControl.sol\":2477:2481  role */\n      dup3\n        /* \"contracts/SQFITEM/AccessControl.sol\":2483:2490  account */\n      dup3\n        /* \"contracts/SQFITEM/AccessControl.sol\":2469:2476  hasRole */\n      tag_126\n        /* \"contracts/SQFITEM/AccessControl.sol\":2469:2491  hasRole(role, account) */\n      jump\t// in\n    tag_460:\n        /* \"contracts/SQFITEM/AccessControl.sol\":2464:2613  if (!hasRole(role, account)) {... */\n      tag_461\n      jumpi\n        /* \"contracts/SQFITEM/AccessControl.sol\":2539:2543  true */\n      0x01\n        /* \"contracts/SQFITEM/AccessControl.sol\":2507:2513  _roles */\n      dup1\n        /* \"contracts/SQFITEM/AccessControl.sol\":2507:2519  _roles[role] */\n      0x00\n        /* \"contracts/SQFITEM/AccessControl.sol\":2514:2518  role */\n      dup5\n        /* \"contracts/SQFITEM/AccessControl.sol\":2507:2519  _roles[role] */\n      dup2\n      mstore\n      0x20\n      add\n      swap1\n      dup2\n      mstore\n      0x20\n      add\n      0x00\n      keccak256\n        /* \"contracts/SQFITEM/AccessControl.sol\":2507:2527  _roles[role].members */\n      0x00\n      add\n        /* \"contracts/SQFITEM/AccessControl.sol\":2507:2536  _roles[role].members[account] */\n      0x00\n        /* \"contracts/SQFITEM/AccessControl.sol\":2528:2535  account */\n      dup4\n        /* \"contracts/SQFITEM/AccessControl.sol\":2507:2536  _roles[role].members[account] */\n      0xffffffffffffffffffffffffffffffffffffffff\n      and\n      0xffffffffffffffffffffffffffffffffffffffff\n      and\n      dup2\n      mstore\n      0x20\n      add\n      swap1\n      dup2\n      mstore\n      0x20\n      add\n      0x00\n      keccak256\n      0x00\n        /* \"contracts/SQFITEM/AccessControl.sol\":2507:2543  _roles[role].members[account] = true */\n      0x0100\n      exp\n      dup2\n      sload\n      dup2\n      0xff\n      mul\n      not\n      and\n      swap1\n      dup4\n      iszero\n      iszero\n      mul\n      or\n      swap1\n      sstore\n      pop\n        /* \"contracts/SQFITEM/AccessControl.sol\":2589:2601  _msgSender() */\n      tag_462\n        /* \"contracts/SQFITEM/AccessControl.sol\":2589:2599  _msgSender */\n      tag_220\n        /* \"contracts/SQFITEM/AccessControl.sol\":2589:2601  _msgSender() */\n      jump\t// in\n    tag_462:\n        /* \"contracts/SQFITEM/AccessControl.sol\":2562:2602  RoleGranted(role, account, _msgSender()) */\n      0xffffffffffffffffffffffffffffffffffffffff\n      and\n        /* \"contracts/SQFITEM/AccessControl.sol\":2580:2587  account */\n      dup2\n        /* \"contracts/SQFITEM/AccessControl.sol\":2562:2602  RoleGranted(role, account, _msgSender()) */\n      0xffffffffffffffffffffffffffffffffffffffff\n      and\n        /* \"contracts/SQFITEM/AccessControl.sol\":2574:2578  role */\n      dup4\n        /* \"contracts/SQFITEM/AccessControl.sol\":2562:2602  RoleGranted(role, account, _msgSender()) */\n      0x2f8788117e7eff1d82e926ec794901d17c78024a50270940304540a733656f0d\n      mload(0x40)\n      mload(0x40)\n      dup1\n      swap2\n      sub\n      swap1\n      log4\n        /* \"contracts/SQFITEM/AccessControl.sol\":2464:2613  if (!hasRole(role, account)) {... */\n    tag_461:\n        /* \"contracts/SQFITEM/AccessControl.sol\":2395:2619  function _grantRole(bytes32 role, address account) private {... */\n      pop\n      pop\n      jump\t// out\n        /* \"contracts/SQFITEM/AccessControl.sol\":2625:2850  function _revokeRole(bytes32 role, address account) private {... */\n    tag_231:\n        /* \"contracts/SQFITEM/AccessControl.sol\":2699:2721  hasRole(role, account) */\n      tag_464\n        /* \"contracts/SQFITEM/AccessControl.sol\":2707:2711  role */\n      dup3\n        /* \"contracts/SQFITEM/AccessControl.sol\":2713:2720  account */\n      dup3\n        /* \"contracts/SQFITEM/AccessControl.sol\":2699:2706  hasRole */\n      tag_126\n        /* \"contracts/SQFITEM/AccessControl.sol\":2699:2721  hasRole(role, account) */\n      jump\t// in\n    tag_464:\n        /* \"contracts/SQFITEM/AccessControl.sol\":2695:2844  if (hasRole(role, account)) {... */\n      iszero\n      tag_465\n      jumpi\n        /* \"contracts/SQFITEM/AccessControl.sol\":2769:2774  false */\n      0x00\n        /* \"contracts/SQFITEM/AccessControl.sol\":2737:2743  _roles */\n      0x01\n        /* \"contracts/SQFITEM/AccessControl.sol\":2737:2749  _roles[role] */\n      0x00\n        /* \"contracts/SQFITEM/AccessControl.sol\":2744:2748  role */\n      dup5\n        /* \"contracts/SQFITEM/AccessControl.sol\":2737:2749  _roles[role] */\n      dup2\n      mstore\n      0x20\n      add\n      swap1\n      dup2\n      mstore\n      0x20\n      add\n      0x00\n      keccak256\n        /* \"contracts/SQFITEM/AccessControl.sol\":2737:2757  _roles[role].members */\n      0x00\n      add\n        /* \"contracts/SQFITEM/AccessControl.sol\":2737:2766  _roles[role].members[account] */\n      0x00\n        /* \"contracts/SQFITEM/AccessControl.sol\":2758:2765  account */\n      dup4\n        /* \"contracts/SQFITEM/AccessControl.sol\":2737:2766  _roles[role].members[account] */\n      0xffffffffffffffffffffffffffffffffffffffff\n      and\n      0xffffffffffffffffffffffffffffffffffffffff\n      and\n      dup2\n      mstore\n      0x20\n      add\n      swap1\n      dup2\n      mstore\n      0x20\n      add\n      0x00\n      keccak256\n      0x00\n        /* \"contracts/SQFITEM/AccessControl.sol\":2737:2774  _roles[role].members[account] = false */\n      0x0100\n      exp\n      dup2\n      sload\n      dup2\n      0xff\n      mul\n      not\n      and\n      swap1\n      dup4\n      iszero\n      iszero\n      mul\n      or\n      swap1\n      sstore\n      pop\n        /* \"contracts/SQFITEM/AccessControl.sol\":2820:2832  _msgSender() */\n      tag_466\n        /* \"contracts/SQFITEM/AccessControl.sol\":2820:2830  _msgSender */\n      tag_220\n        /* \"contracts/SQFITEM/AccessControl.sol\":2820:2832  _msgSender() */\n      jump\t// in\n    tag_466:\n        /* \"contracts/SQFITEM/AccessControl.sol\":2793:2833  RoleRevoked(role, account, _msgSender()) */\n      0xffffffffffffffffffffffffffffffffffffffff\n      and\n        /* \"contracts/SQFITEM/AccessControl.sol\":2811:2818  account */\n      dup2\n        /* \"contracts/SQFITEM/AccessControl.sol\":2793:2833  RoleRevoked(role, account, _msgSender()) */\n      0xffffffffffffffffffffffffffffffffffffffff\n      and\n        /* \"contracts/SQFITEM/AccessControl.sol\":2805:2809  role */\n      dup4\n        /* \"contracts/SQFITEM/AccessControl.sol\":2793:2833  RoleRevoked(role, account, _msgSender()) */\n      0xf6391f5c32d9c69d2a47ea670b442974b53935d1edc7fd64eb21e047a839171b\n      mload(0x40)\n      mload(0x40)\n      dup1\n      swap2\n      sub\n      swap1\n      log4\n        /* \"contracts/SQFITEM/AccessControl.sol\":2695:2844  if (hasRole(role, account)) {... */\n    tag_465:\n        /* \"contracts/SQFITEM/AccessControl.sol\":2625:2850  function _revokeRole(bytes32 role, address account) private {... */\n      pop\n      pop\n      jump\t// out\n        /* \"contracts/SQFITEM/Pausable.sol\":2046:2163  function _unpause() internal virtual whenPaused {... */\n    tag_262:\n        /* \"contracts/SQFITEM/Pausable.sol\":1613:1621  paused() */\n      tag_468\n        /* \"contracts/SQFITEM/Pausable.sol\":1613:1619  paused */\n      tag_105\n        /* \"contracts/SQFITEM/Pausable.sol\":1613:1621  paused() */\n      jump\t// in\n    tag_468:\n        /* \"contracts/SQFITEM/Pausable.sol\":1605:1646  require(paused(), \"Pausable: not paused\") */\n      tag_469\n      jumpi\n      mload(0x40)\n      0x08c379a000000000000000000000000000000000000000000000000000000000\n      dup2\n      mstore\n      0x04\n      add\n      tag_470\n      swap1\n      tag_471\n      jump\t// in\n    tag_470:\n      mload(0x40)\n      dup1\n      swap2\n      sub\n      swap1\n      revert\n    tag_469:\n        /* \"contracts/SQFITEM/Pausable.sol\":2114:2119  false */\n      0x00\n        /* \"contracts/SQFITEM/Pausable.sol\":2104:2111  _paused */\n      dup1\n      0x00\n        /* \"contracts/SQFITEM/Pausable.sol\":2104:2119  _paused = false */\n      0x0100\n      exp\n      dup2\n      sload\n      dup2\n      0xff\n      mul\n      not\n      and\n      swap1\n      dup4\n      iszero\n      iszero\n      mul\n      or\n      swap1\n      sstore\n      pop\n        /* \"contracts/SQFITEM/Pausable.sol\":2134:2156  Unpaused(_msgSender()) */\n      0x5db9ee0a495bf2e6ff9c91a7834c1ba4fdd244a5e8aa4e537bd38aeae4b073aa\n        /* \"contracts/SQFITEM/Pausable.sol\":2143:2155  _msgSender() */\n      tag_473\n        /* \"contracts/SQFITEM/Pausable.sol\":2143:2153  _msgSender */\n      tag_220\n        /* \"contracts/SQFITEM/Pausable.sol\":2143:2155  _msgSender() */\n      jump\t// in\n    tag_473:\n        /* \"contracts/SQFITEM/Pausable.sol\":2134:2156  Unpaused(_msgSender()) */\n      mload(0x40)\n      tag_474\n      swap2\n      swap1\n      tag_475\n      jump\t// in\n    tag_474:\n      mload(0x40)\n      dup1\n      swap2\n      sub\n      swap1\n      log1\n        /* \"contracts/SQFITEM/Pausable.sol\":2046:2163  function _unpause() internal virtual whenPaused {... */\n      jump\t// out\n        /* \"contracts/SQFITEM/SafeERC20.sol\":831:1072  function safeTransferFrom(... */\n    tag_310:\n        /* \"contracts/SQFITEM/SafeERC20.sol\":969:1065  _callOptionalReturn(token, abi.encodeWithSelector(token.transferFrom.selector, from, to, value)) */\n      tag_477\n        /* \"contracts/SQFITEM/SafeERC20.sol\":989:994  token */\n      dup5\n        /* \"contracts/SQFITEM/SafeERC20.sol\":1019:1046  token.transferFrom.selector */\n      shl(0xe0, 0x23b872dd)\n        /* \"contracts/SQFITEM/SafeERC20.sol\":1048:1052  from */\n      dup6\n        /* \"contracts/SQFITEM/SafeERC20.sol\":1054:1056  to */\n      dup6\n        /* \"contracts/SQFITEM/SafeERC20.sol\":1058:1063  value */\n      dup6\n        /* \"contracts/SQFITEM/SafeERC20.sol\":996:1064  abi.encodeWithSelector(token.transferFrom.selector, from, to, value) */\n      add(0x24, mload(0x40))\n      tag_478\n      swap4\n      swap3\n      swap2\n      swap1\n      tag_199\n      jump\t// in\n    tag_478:\n      mload(0x40)\n      0x20\n      dup2\n      dup4\n      sub\n      sub\n      dup2\n      mstore\n      swap1\n      0x40\n      mstore\n      swap1\n      not(0xffffffffffffffffffffffffffffffffffffffffffffffffffffffff)\n      and\n      0x20\n      dup3\n      add\n      dup1\n      mload\n      0xffffffffffffffffffffffffffffffffffffffffffffffffffffffff\n      dup4\n      dup2\n      dup4\n      and\n      or\n      dup4\n      mstore\n      pop\n      pop\n      pop\n      pop\n        /* \"contracts/SQFITEM/SafeERC20.sol\":969:988  _callOptionalReturn */\n      tag_479\n        /* \"contracts/SQFITEM/SafeERC20.sol\":969:1065  _callOptionalReturn(token, abi.encodeWithSelector(token.transferFrom.selector, from, to, value)) */\n      jump\t// in\n    tag_477:\n        /* \"contracts/SQFITEM/SafeERC20.sol\":831:1072  function safeTransferFrom(... */\n      pop\n      pop\n      pop\n      pop\n      jump\t// out\n        /* \"contracts/SQFITEM/Pausable.sol\":1799:1914  function _pause() internal virtual whenNotPaused {... */\n    tag_355:\n        /* \"contracts/SQFITEM/Pausable.sol\":1348:1356  paused() */\n      tag_481\n        /* \"contracts/SQFITEM/Pausable.sol\":1348:1354  paused */\n      tag_105\n        /* \"contracts/SQFITEM/Pausable.sol\":1348:1356  paused() */\n      jump\t// in\n    tag_481:\n        /* \"contracts/SQFITEM/Pausable.sol\":1347:1356  !paused() */\n      iszero\n        /* \"contracts/SQFITEM/Pausable.sol\":1339:1377  require(!paused(), \"Pausable: paused\") */\n      tag_482\n      jumpi\n      mload(0x40)\n      0x08c379a000000000000000000000000000000000000000000000000000000000\n      dup2\n      mstore\n      0x04\n      add\n      tag_483\n      swap1\n      tag_182\n      jump\t// in\n    tag_483:\n      mload(0x40)\n      dup1\n      swap2\n      sub\n      swap1\n      revert\n    tag_482:\n        /* \"contracts/SQFITEM/Pausable.sol\":1868:1872  true */\n      0x01\n        /* \"contracts/SQFITEM/Pausable.sol\":1858:1865  _paused */\n      0x00\n      dup1\n        /* \"contracts/SQFITEM/Pausable.sol\":1858:1872  _paused = true */\n      0x0100\n      exp\n      dup2\n      sload\n      dup2\n      0xff\n      mul\n      not\n      and\n      swap1\n      dup4\n      iszero\n      iszero\n      mul\n      or\n      swap1\n      sstore\n      pop\n        /* \"contracts/SQFITEM/Pausable.sol\":1887:1907  Paused(_msgSender()) */\n      0x62e78cea01bee320cd4e420270b5ea74000d11b0c9f74754ebdbfc544b05a258\n        /* \"contracts/SQFITEM/Pausable.sol\":1894:1906  _msgSender() */\n      tag_485\n        /* \"contracts/SQFITEM/Pausable.sol\":1894:1904  _msgSender */\n      tag_220\n        /* \"contracts/SQFITEM/Pausable.sol\":1894:1906  _msgSender() */\n      jump\t// in\n    tag_485:\n        /* \"contracts/SQFITEM/Pausable.sol\":1887:1907  Paused(_msgSender()) */\n      mload(0x40)\n      tag_486\n      swap2\n      swap1\n      tag_475\n      jump\t// in\n    tag_486:\n      mload(0x40)\n      dup1\n      swap2\n      sub\n      swap1\n      log1\n        /* \"contracts/SQFITEM/Pausable.sol\":1799:1914  function _pause() internal virtual whenNotPaused {... */\n      jump\t// out\n        /* \"contracts/SQFITEM/SafeERC20.sol\":620:825  function safeTransfer(... */\n    tag_440:\n        /* \"contracts/SQFITEM/SafeERC20.sol\":732:818  _callOptionalReturn(token, abi.encodeWithSelector(token.transfer.selector, to, value)) */\n      tag_488\n        /* \"contracts/SQFITEM/SafeERC20.sol\":752:757  token */\n      dup4\n        /* \"contracts/SQFITEM/SafeERC20.sol\":782:805  token.transfer.selector */\n      shl(0xe0, 0xa9059cbb)\n        /* \"contracts/SQFITEM/SafeERC20.sol\":807:809  to */\n      dup5\n        /* \"contracts/SQFITEM/SafeERC20.sol\":811:816  value */\n      dup5\n        /* \"contracts/SQFITEM/SafeERC20.sol\":759:817  abi.encodeWithSelector(token.transfer.selector, to, value) */\n      add(0x24, mload(0x40))\n      tag_489\n      swap3\n      swap2\n      swap1\n      tag_490\n      jump\t// in\n    tag_489:\n      mload(0x40)\n      0x20\n      dup2\n      dup4\n      sub\n      sub\n      dup2\n      mstore\n      swap1\n      0x40\n      mstore\n      swap1\n      not(0xffffffffffffffffffffffffffffffffffffffffffffffffffffffff)\n      and\n      0x20\n      dup3\n      add\n      dup1\n      mload\n      0xffffffffffffffffffffffffffffffffffffffffffffffffffffffff\n      dup4\n      dup2\n      dup4\n      and\n      or\n      dup4\n      mstore\n      pop\n      pop\n      pop\n      pop\n        /* \"contracts/SQFITEM/SafeERC20.sol\":732:751  _callOptionalReturn */\n      tag_479\n        /* \"contracts/SQFITEM/SafeERC20.sol\":732:818  _callOptionalReturn(token, abi.encodeWithSelector(token.transfer.selector, to, value)) */\n      jump\t// in\n    tag_488:\n        /* \"contracts/SQFITEM/SafeERC20.sol\":620:825  function safeTransfer(... */\n      pop\n      pop\n      pop\n      jump\t// out\n        /* \"contracts/SQFITEM/Strings.sol\":1535:1976  function toHexString(uint256 value, uint256 length) internal pure returns (string memory) {... */\n    tag_453:\n        /* \"contracts/SQFITEM/Strings.sol\":1610:1623  string memory */\n      0x60\n        /* \"contracts/SQFITEM/Strings.sol\":1635:1654  bytes memory buffer */\n      0x00\n        /* \"contracts/SQFITEM/Strings.sol\":1680:1681  2 */\n      0x02\n        /* \"contracts/SQFITEM/Strings.sol\":1671:1677  length */\n      dup4\n        /* \"contracts/SQFITEM/Strings.sol\":1667:1668  2 */\n      0x02\n        /* \"contracts/SQFITEM/Strings.sol\":1667:1677  2 * length */\n      tag_492\n      swap2\n      swap1\n      tag_207\n      jump\t// in\n    tag_492:\n        /* \"contracts/SQFITEM/Strings.sol\":1667:1681  2 * length + 2 */\n      tag_493\n      swap2\n      swap1\n      tag_318\n      jump\t// in\n    tag_493:\n        /* \"contracts/SQFITEM/Strings.sol\":1657:1682  new bytes(2 * length + 2) */\n      0xffffffffffffffff\n      dup2\n      gt\n      iszero\n      tag_494\n      jumpi\n      tag_495\n      tag_496\n      jump\t// in\n    tag_495:\n    tag_494:\n      mload(0x40)\n      swap1\n      dup1\n      dup3\n      mstore\n      dup1\n      0x1f\n      add\n      not(0x1f)\n      and\n      0x20\n      add\n      dup3\n      add\n      0x40\n      mstore\n      dup1\n      iszero\n      tag_497\n      jumpi\n      dup2\n      0x20\n      add\n      0x01\n      dup3\n      mul\n      dup1\n      calldatasize\n      dup4\n      calldatacopy\n      dup1\n      dup3\n      add\n      swap2\n      pop\n      pop\n      swap1\n      pop\n    tag_497:\n      pop\n        /* \"contracts/SQFITEM/Strings.sol\":1635:1682  bytes memory buffer = new bytes(2 * length + 2) */\n      swap1\n      pop\n        /* \"contracts/SQFITEM/Strings.sol\":1692:1707  buffer[0] = \"0\" */\n      0x3000000000000000000000000000000000000000000000000000000000000000\n        /* \"contracts/SQFITEM/Strings.sol\":1692:1698  buffer */\n      dup2\n        /* \"contracts/SQFITEM/Strings.sol\":1699:1700  0 */\n      0x00\n        /* \"contracts/SQFITEM/Strings.sol\":1692:1701  buffer[0] */\n      dup2\n      mload\n      dup2\n      lt\n      tag_498\n      jumpi\n      tag_499\n      tag_189\n      jump\t// in\n    tag_499:\n    tag_498:\n      0x20\n      add\n      add\n        /* \"contracts/SQFITEM/Strings.sol\":1692:1707  buffer[0] = \"0\" */\n      swap1\n      not(0xffffffffffffffffffffffffffffffffffffffffffffffffffffffffffffff)\n      and\n      swap1\n      dup2\n      0x00\n      byte\n      swap1\n      mstore8\n      pop\n        /* \"contracts/SQFITEM/Strings.sol\":1717:1732  buffer[1] = \"x\" */\n      0x7800000000000000000000000000000000000000000000000000000000000000\n        /* \"contracts/SQFITEM/Strings.sol\":1717:1723  buffer */\n      dup2\n        /* \"contracts/SQFITEM/Strings.sol\":1724:1725  1 */\n      0x01\n        /* \"contracts/SQFITEM/Strings.sol\":1717:1726  buffer[1] */\n      dup2\n      mload\n      dup2\n      lt\n      tag_500\n      jumpi\n      tag_501\n      tag_189\n      jump\t// in\n    tag_501:\n    tag_500:\n      0x20\n      add\n      add\n        /* \"contracts/SQFITEM/Strings.sol\":1717:1732  buffer[1] = \"x\" */\n      swap1\n      not(0xffffffffffffffffffffffffffffffffffffffffffffffffffffffffffffff)\n      and\n      swap1\n      dup2\n      0x00\n      byte\n      swap1\n      mstore8\n      pop\n        /* \"contracts/SQFITEM/Strings.sol\":1747:1756  uint256 i */\n      0x00\n        /* \"contracts/SQFITEM/Strings.sol\":1772:1773  1 */\n      0x01\n        /* \"contracts/SQFITEM/Strings.sol\":1763:1769  length */\n      dup5\n        /* \"contracts/SQFITEM/Strings.sol\":1759:1760  2 */\n      0x02\n        /* \"contracts/SQFITEM/Strings.sol\":1759:1769  2 * length */\n      tag_505\n      swap2\n      swap1\n      tag_207\n      jump\t// in\n    tag_505:\n        /* \"contracts/SQFITEM/Strings.sol\":1759:1773  2 * length + 1 */\n      tag_506\n      swap2\n      swap1\n      tag_318\n      jump\t// in\n    tag_506:\n        /* \"contracts/SQFITEM/Strings.sol\":1747:1773  uint256 i = 2 * length + 1 */\n      swap1\n      pop\n        /* \"contracts/SQFITEM/Strings.sol\":1742:1874  for (uint256 i = 2 * length + 1; i > 1; --i) {... */\n    tag_502:\n        /* \"contracts/SQFITEM/Strings.sol\":1779:1780  1 */\n      0x01\n        /* \"contracts/SQFITEM/Strings.sol\":1775:1776  i */\n      dup2\n        /* \"contracts/SQFITEM/Strings.sol\":1775:1780  i > 1 */\n      gt\n        /* \"contracts/SQFITEM/Strings.sol\":1742:1874  for (uint256 i = 2 * length + 1; i > 1; --i) {... */\n      iszero\n      tag_503\n      jumpi\n        /* \"contracts/SQFITEM/Strings.sol\":1813:1825  _HEX_SYMBOLS */\n      0x3031323334353637383961626364656600000000000000000000000000000000\n        /* \"contracts/SQFITEM/Strings.sol\":1834:1837  0xf */\n      0x0f\n        /* \"contracts/SQFITEM/Strings.sol\":1826:1831  value */\n      dup7\n        /* \"contracts/SQFITEM/Strings.sol\":1826:1837  value & 0xf */\n      and\n        /* \"contracts/SQFITEM/Strings.sol\":1813:1838  _HEX_SYMBOLS[value & 0xf] */\n      0x10\n      dup2\n      lt\n      tag_507\n      jumpi\n      tag_508\n      tag_189\n      jump\t// in\n    tag_508:\n    tag_507:\n      byte\n      0xf8\n      shl\n        /* \"contracts/SQFITEM/Strings.sol\":1801:1807  buffer */\n      dup3\n        /* \"contracts/SQFITEM/Strings.sol\":1808:1809  i */\n      dup3\n        /* \"contracts/SQFITEM/Strings.sol\":1801:1810  buffer[i] */\n      dup2\n      mload\n      dup2\n      lt\n      tag_509\n      jumpi\n      tag_510\n      tag_189\n      jump\t// in\n    tag_510:\n    tag_509:\n      0x20\n      add\n      add\n        /* \"contracts/SQFITEM/Strings.sol\":1801:1838  buffer[i] = _HEX_SYMBOLS[value & 0xf] */\n      swap1\n      not(0xffffffffffffffffffffffffffffffffffffffffffffffffffffffffffffff)\n      and\n      swap1\n      dup2\n      0x00\n      byte\n      swap1\n      mstore8\n      pop\n        /* \"contracts/SQFITEM/Strings.sol\":1862:1863  4 */\n      0x04\n        /* \"contracts/SQFITEM/Strings.sol\":1852:1863  value >>= 4 */\n      dup6\n      swap1\n      shr\n      swap5\n      pop\n        /* \"contracts/SQFITEM/Strings.sol\":1782:1785  --i */\n      dup1\n      tag_511\n      swap1\n      tag_512\n      jump\t// in\n    tag_511:\n      swap1\n      pop\n        /* \"contracts/SQFITEM/Strings.sol\":1742:1874  for (uint256 i = 2 * length + 1; i > 1; --i) {... */\n      jump(tag_502)\n    tag_503:\n      pop\n        /* \"contracts/SQFITEM/Strings.sol\":1900:1901  0 */\n      0x00\n        /* \"contracts/SQFITEM/Strings.sol\":1891:1896  value */\n      dup5\n        /* \"contracts/SQFITEM/Strings.sol\":1891:1901  value == 0 */\n      eq\n        /* \"contracts/SQFITEM/Strings.sol\":1883:1938  require(value == 0, \"Strings: hex length insufficient\") */\n      tag_513\n      jumpi\n      mload(0x40)\n      0x08c379a000000000000000000000000000000000000000000000000000000000\n      dup2\n      mstore\n      0x04\n      add\n      tag_514\n      swap1\n      tag_515\n      jump\t// in\n    tag_514:\n      mload(0x40)\n      dup1\n      swap2\n      sub\n      swap1\n      revert\n    tag_513:\n        /* \"contracts/SQFITEM/Strings.sol\":1962:1968  buffer */\n      dup1\n        /* \"contracts/SQFITEM/Strings.sol\":1948:1969  return string(buffer) */\n      swap2\n      pop\n      pop\n        /* \"contracts/SQFITEM/Strings.sol\":1535:1976  function toHexString(uint256 value, uint256 length) internal pure returns (string memory) {... */\n      swap3\n      swap2\n      pop\n      pop\n      jump\t// out\n        /* \"contracts/SQFITEM/SafeERC20.sol\":3126:3832  function _callOptionalReturn(IERC20 token, bytes memory data) private {... */\n    tag_479:\n        /* \"contracts/SQFITEM/SafeERC20.sol\":3545:3568  bytes memory returndata */\n      0x00\n        /* \"contracts/SQFITEM/SafeERC20.sol\":3571:3640  address(token).functionCall(data, \"SafeERC20: low-level call failed\") */\n      tag_517\n        /* \"contracts/SQFITEM/SafeERC20.sol\":3599:3603  data */\n      dup3\n        /* \"contracts/SQFITEM/SafeERC20.sol\":3571:3640  address(token).functionCall(data, \"SafeERC20: low-level call failed\") */\n      mload(0x40)\n      dup1\n      0x40\n      add\n      0x40\n      mstore\n      dup1\n      0x20\n      dup2\n      mstore\n      0x20\n      add\n      0x5361666545524332303a206c6f772d6c6576656c2063616c6c206661696c6564\n      dup2\n      mstore\n      pop\n        /* \"contracts/SQFITEM/SafeERC20.sol\":3579:3584  token */\n      dup6\n        /* \"contracts/SQFITEM/SafeERC20.sol\":3571:3598  address(token).functionCall */\n      0xffffffffffffffffffffffffffffffffffffffff\n      and\n      tag_518\n      swap1\n        /* \"contracts/SQFITEM/SafeERC20.sol\":3571:3640  address(token).functionCall(data, \"SafeERC20: low-level call failed\") */\n      swap3\n      swap2\n      swap1\n      0xffffffff\n      and\n      jump\t// in\n    tag_517:\n        /* \"contracts/SQFITEM/SafeERC20.sol\":3545:3640  bytes memory returndata = address(token).functionCall(data, \"SafeERC20: low-level call failed\") */\n      swap1\n      pop\n        /* \"contracts/SQFITEM/SafeERC20.sol\":3674:3675  0 */\n      0x00\n        /* \"contracts/SQFITEM/SafeERC20.sol\":3654:3664  returndata */\n      dup2\n        /* \"contracts/SQFITEM/SafeERC20.sol\":3654:3671  returndata.length */\n      mload\n        /* \"contracts/SQFITEM/SafeERC20.sol\":3654:3675  returndata.length > 0 */\n      gt\n        /* \"contracts/SQFITEM/SafeERC20.sol\":3650:3826  if (returndata.length > 0) {... */\n      iszero\n      tag_519\n      jumpi\n        /* \"contracts/SQFITEM/SafeERC20.sol\":3749:3759  returndata */\n      dup1\n        /* \"contracts/SQFITEM/SafeERC20.sol\":3738:3768  abi.decode(returndata, (bool)) */\n      dup1\n      0x20\n      add\n      swap1\n      mload\n      dup2\n      add\n      swap1\n      tag_520\n      swap2\n      swap1\n      tag_521\n      jump\t// in\n    tag_520:\n        /* \"contracts/SQFITEM/SafeERC20.sol\":3730:3815  require(abi.decode(returndata, (bool)), \"SafeERC20: ERC20 operation did not succeed\") */\n      tag_522\n      jumpi\n      mload(0x40)\n      0x08c379a000000000000000000000000000000000000000000000000000000000\n      dup2\n      mstore\n      0x04\n      add\n      tag_523\n      swap1\n      tag_524\n      jump\t// in\n    tag_523:\n      mload(0x40)\n      dup1\n      swap2\n      sub\n      swap1\n      revert\n    tag_522:\n        /* \"contracts/SQFITEM/SafeERC20.sol\":3650:3826  if (returndata.length > 0) {... */\n    tag_519:\n        /* \"contracts/SQFITEM/SafeERC20.sol\":3196:3832  {... */\n      pop\n        /* \"contracts/SQFITEM/SafeERC20.sol\":3126:3832  function _callOptionalReturn(IERC20 token, bytes memory data) private {... */\n      pop\n      pop\n      jump\t// out\n        /* \"contracts/SQFITEM/Address.sol\":3461:3684  function functionCall(... */\n    tag_518:\n        /* \"contracts/SQFITEM/Address.sol\":3594:3606  bytes memory */\n      0x60\n        /* \"contracts/SQFITEM/Address.sol\":3625:3677  functionCallWithValue(target, data, 0, errorMessage) */\n      tag_526\n        /* \"contracts/SQFITEM/Address.sol\":3647:3653  target */\n      dup5\n        /* \"contracts/SQFITEM/Address.sol\":3655:3659  data */\n      dup5\n        /* \"contracts/SQFITEM/Address.sol\":3661:3662  0 */\n      0x00\n        /* \"contracts/SQFITEM/Address.sol\":3664:3676  errorMessage */\n      dup6\n        /* \"contracts/SQFITEM/Address.sol\":3625:3646  functionCallWithValue */\n      tag_527\n        /* \"contracts/SQFITEM/Address.sol\":3625:3677  functionCallWithValue(target, data, 0, errorMessage) */\n      jump\t// in\n    tag_526:\n        /* \"contracts/SQFITEM/Address.sol\":3618:3677  return functionCallWithValue(target, data, 0, errorMessage) */\n      swap1\n      pop\n        /* \"contracts/SQFITEM/Address.sol\":3461:3684  function functionCall(... */\n      swap4\n      swap3\n      pop\n      pop\n      pop\n      jump\t// out\n        /* \"contracts/SQFITEM/Address.sol\":4548:5047  function functionCallWithValue(... */\n    tag_527:\n        /* \"contracts/SQFITEM/Address.sol\":4713:4725  bytes memory */\n      0x60\n        /* \"contracts/SQFITEM/Address.sol\":4770:4775  value */\n      dup3\n        /* \"contracts/SQFITEM/Address.sol\":4745:4766  address(this).balance */\n      selfbalance\n        /* \"contracts/SQFITEM/Address.sol\":4745:4775  address(this).balance >= value */\n      lt\n      iszero\n        /* \"contracts/SQFITEM/Address.sol\":4737:4818  require(address(this).balance >= value, \"Address: insufficient balance for call\") */\n      tag_529\n      jumpi\n      mload(0x40)\n      0x08c379a000000000000000000000000000000000000000000000000000000000\n      dup2\n      mstore\n      0x04\n      add\n      tag_530\n      swap1\n      tag_531\n      jump\t// in\n    tag_530:\n      mload(0x40)\n      dup1\n      swap2\n      sub\n      swap1\n      revert\n    tag_529:\n        /* \"contracts/SQFITEM/Address.sol\":4836:4854  isContract(target) */\n      tag_532\n        /* \"contracts/SQFITEM/Address.sol\":4847:4853  target */\n      dup6\n        /* \"contracts/SQFITEM/Address.sol\":4836:4846  isContract */\n      tag_533\n        /* \"contracts/SQFITEM/Address.sol\":4836:4854  isContract(target) */\n      jump\t// in\n    tag_532:\n        /* \"contracts/SQFITEM/Address.sol\":4828:4888  require(isContract(target), \"Address: call to non-contract\") */\n      tag_534\n      jumpi\n      mload(0x40)\n      0x08c379a000000000000000000000000000000000000000000000000000000000\n      dup2\n      mstore\n      0x04\n      add\n      tag_535\n      swap1\n      tag_536\n      jump\t// in\n    tag_535:\n      mload(0x40)\n      dup1\n      swap2\n      sub\n      swap1\n      revert\n    tag_534:\n        /* \"contracts/SQFITEM/Address.sol\":4900:4912  bool success */\n      0x00\n        /* \"contracts/SQFITEM/Address.sol\":4914:4937  bytes memory returndata */\n      dup1\n        /* \"contracts/SQFITEM/Address.sol\":4941:4947  target */\n      dup7\n        /* \"contracts/SQFITEM/Address.sol\":4941:4952  target.call */\n      0xffffffffffffffffffffffffffffffffffffffff\n      and\n        /* \"contracts/SQFITEM/Address.sol\":4960:4965  value */\n      dup6\n        /* \"contracts/SQFITEM/Address.sol\":4967:4971  data */\n      dup8\n        /* \"contracts/SQFITEM/Address.sol\":4941:4972  target.call{value: value}(data) */\n      mload(0x40)\n      tag_537\n      swap2\n      swap1\n      tag_538\n      jump\t// in\n    tag_537:\n      0x00\n      mload(0x40)\n      dup1\n      dup4\n      sub\n      dup2\n      dup6\n      dup8\n      gas\n      call\n      swap3\n      pop\n      pop\n      pop\n      returndatasize\n      dup1\n      0x00\n      dup2\n      eq\n      tag_541\n      jumpi\n      mload(0x40)\n      swap2\n      pop\n      and(add(returndatasize, 0x3f), not(0x1f))\n      dup3\n      add\n      0x40\n      mstore\n      returndatasize\n      dup3\n      mstore\n      returndatasize\n      0x00\n      0x20\n      dup5\n      add\n      returndatacopy\n      jump(tag_540)\n    tag_541:\n      0x60\n      swap2\n      pop\n    tag_540:\n      pop\n        /* \"contracts/SQFITEM/Address.sol\":4899:4972  (bool success, bytes memory returndata) = target.call{value: value}(data) */\n      swap2\n      pop\n      swap2\n      pop\n        /* \"contracts/SQFITEM/Address.sol\":4989:5040  verifyCallResult(success, returndata, errorMessage) */\n      tag_542\n        /* \"contracts/SQFITEM/Address.sol\":5006:5013  success */\n      dup3\n        /* \"contracts/SQFITEM/Address.sol\":5015:5025  returndata */\n      dup3\n        /* \"contracts/SQFITEM/Address.sol\":5027:5039  errorMessage */\n      dup7\n        /* \"contracts/SQFITEM/Address.sol\":4989:5005  verifyCallResult */\n      tag_543\n        /* \"contracts/SQFITEM/Address.sol\":4989:5040  verifyCallResult(success, returndata, errorMessage) */\n      jump\t// in\n    tag_542:\n        /* \"contracts/SQFITEM/Address.sol\":4982:5040  return verifyCallResult(success, returndata, errorMessage) */\n      swap3\n      pop\n      pop\n      pop\n        /* \"contracts/SQFITEM/Address.sol\":4548:5047  function functionCallWithValue(... */\n      swap5\n      swap4\n      pop\n      pop\n      pop\n      pop\n      jump\t// out\n        /* \"contracts/SQFITEM/Address.sol\":718:1095  function isContract(address account) internal view returns (bool) {... */\n    tag_533:\n        /* \"contracts/SQFITEM/Address.sol\":778:782  bool */\n      0x00\n        /* \"contracts/SQFITEM/Address.sol\":981:993  uint256 size */\n      dup1\n        /* \"contracts/SQFITEM/Address.sol\":1046:1053  account */\n      dup3\n        /* \"contracts/SQFITEM/Address.sol\":1034:1054  extcodesize(account) */\n      extcodesize\n        /* \"contracts/SQFITEM/Address.sol\":1026:1054  size := extcodesize(account) */\n      swap1\n      pop\n        /* \"contracts/SQFITEM/Address.sol\":1087:1088  0 */\n      0x00\n        /* \"contracts/SQFITEM/Address.sol\":1080:1084  size */\n      dup2\n        /* \"contracts/SQFITEM/Address.sol\":1080:1088  size > 0 */\n      gt\n        /* \"contracts/SQFITEM/Address.sol\":1073:1088  return size > 0 */\n      swap2\n      pop\n      pop\n        /* \"contracts/SQFITEM/Address.sol\":718:1095  function isContract(address account) internal view returns (bool) {... */\n      swap2\n      swap1\n      pop\n      jump\t// out\n        /* \"contracts/SQFITEM/Address.sol\":7161:7853  function verifyCallResult(... */\n    tag_543:\n        /* \"contracts/SQFITEM/Address.sol\":7307:7319  bytes memory */\n      0x60\n        /* \"contracts/SQFITEM/Address.sol\":7335:7342  success */\n      dup4\n        /* \"contracts/SQFITEM/Address.sol\":7331:7847  if (success) {... */\n      iszero\n      tag_546\n      jumpi\n        /* \"contracts/SQFITEM/Address.sol\":7365:7375  returndata */\n      dup3\n        /* \"contracts/SQFITEM/Address.sol\":7358:7375  return returndata */\n      swap1\n      pop\n      jump(tag_545)\n        /* \"contracts/SQFITEM/Address.sol\":7331:7847  if (success) {... */\n    tag_546:\n        /* \"contracts/SQFITEM/Address.sol\":7496:7497  0 */\n      0x00\n        /* \"contracts/SQFITEM/Address.sol\":7476:7486  returndata */\n      dup4\n        /* \"contracts/SQFITEM/Address.sol\":7476:7493  returndata.length */\n      mload\n        /* \"contracts/SQFITEM/Address.sol\":7476:7497  returndata.length > 0 */\n      gt\n        /* \"contracts/SQFITEM/Address.sol\":7472:7837  if (returndata.length > 0) {... */\n      iszero\n      tag_548\n      jumpi\n        /* \"contracts/SQFITEM/Address.sol\":7670:7680  returndata */\n      dup3\n        /* \"contracts/SQFITEM/Address.sol\":7664:7681  mload(returndata) */\n      mload\n        /* \"contracts/SQFITEM/Address.sol\":7730:7745  returndata_size */\n      dup1\n        /* \"contracts/SQFITEM/Address.sol\":7717:7727  returndata */\n      dup5\n        /* \"contracts/SQFITEM/Address.sol\":7713:7715  32 */\n      0x20\n        /* \"contracts/SQFITEM/Address.sol\":7709:7728  add(32, returndata) */\n      add\n        /* \"contracts/SQFITEM/Address.sol\":7702:7746  revert(add(32, returndata), returndata_size) */\n      revert\n        /* \"contracts/SQFITEM/Address.sol\":7472:7837  if (returndata.length > 0) {... */\n    tag_548:\n        /* \"contracts/SQFITEM/Address.sol\":7809:7821  errorMessage */\n      dup2\n        /* \"contracts/SQFITEM/Address.sol\":7802:7822  revert(errorMessage) */\n      mload(0x40)\n      0x08c379a000000000000000000000000000000000000000000000000000000000\n      dup2\n      mstore\n      0x04\n      add\n      tag_550\n      swap2\n      swap1\n      tag_458\n      jump\t// in\n    tag_550:\n      mload(0x40)\n      dup1\n      swap2\n      sub\n      swap1\n      revert\n        /* \"contracts/SQFITEM/Address.sol\":7161:7853  function verifyCallResult(... */\n    tag_545:\n      swap4\n      swap3\n      pop\n      pop\n      pop\n      jump\t// out\n        /* \"#utility.yul\":7:82   */\n    tag_551:\n        /* \"#utility.yul\":40:46   */\n      0x00\n        /* \"#utility.yul\":73:75   */\n      0x40\n        /* \"#utility.yul\":67:76   */\n      mload\n        /* \"#utility.yul\":57:76   */\n      swap1\n      pop\n        /* \"#utility.yul\":7:82   */\n      swap1\n      jump\t// out\n        /* \"#utility.yul\":88:205   */\n    tag_552:\n        /* \"#utility.yul\":197:198   */\n      0x00\n        /* \"#utility.yul\":194:195   */\n      dup1\n        /* \"#utility.yul\":187:199   */\n      revert\n        /* \"#utility.yul\":211:328   */\n    tag_553:\n        /* \"#utility.yul\":320:321   */\n      0x00\n        /* \"#utility.yul\":317:318   */\n      dup1\n        /* \"#utility.yul\":310:322   */\n      revert\n        /* \"#utility.yul\":334:483   */\n    tag_554:\n        /* \"#utility.yul\":370:377   */\n      0x00\n        /* \"#utility.yul\":410:476   */\n      0xffffffff00000000000000000000000000000000000000000000000000000000\n        /* \"#utility.yul\":403:408   */\n      dup3\n        /* \"#utility.yul\":399:477   */\n      and\n        /* \"#utility.yul\":388:477   */\n      swap1\n      pop\n        /* \"#utility.yul\":334:483   */\n      swap2\n      swap1\n      pop\n      jump\t// out\n        /* \"#utility.yul\":489:609   */\n    tag_555:\n        /* \"#utility.yul\":561:584   */\n      tag_654\n        /* \"#utility.yul\":578:583   */\n      dup2\n        /* \"#utility.yul\":561:584   */\n      tag_554\n      jump\t// in\n    tag_654:\n        /* \"#utility.yul\":554:559   */\n      dup2\n        /* \"#utility.yul\":551:585   */\n      eq\n        /* \"#utility.yul\":541:603   */\n      tag_655\n      jumpi\n        /* \"#utility.yul\":599:600   */\n      0x00\n        /* \"#utility.yul\":596:597   */\n      dup1\n        /* \"#utility.yul\":589:601   */\n      revert\n        /* \"#utility.yul\":541:603   */\n    tag_655:\n        /* \"#utility.yul\":489:609   */\n      pop\n      jump\t// out\n        /* \"#utility.yul\":615:752   */\n    tag_556:\n        /* \"#utility.yul\":660:665   */\n      0x00\n        /* \"#utility.yul\":698:704   */\n      dup2\n        /* \"#utility.yul\":685:705   */\n      calldataload\n        /* \"#utility.yul\":676:705   */\n      swap1\n      pop\n        /* \"#utility.yul\":714:746   */\n      tag_657\n        /* \"#utility.yul\":740:745   */\n      dup2\n        /* \"#utility.yul\":714:746   */\n      tag_555\n      jump\t// in\n    tag_657:\n        /* \"#utility.yul\":615:752   */\n      swap3\n      swap2\n      pop\n      pop\n      jump\t// out\n        /* \"#utility.yul\":758:1085   */\n    tag_41:\n        /* \"#utility.yul\":816:822   */\n      0x00\n        /* \"#utility.yul\":865:867   */\n      0x20\n        /* \"#utility.yul\":853:862   */\n      dup3\n        /* \"#utility.yul\":844:851   */\n      dup5\n        /* \"#utility.yul\":840:863   */\n      sub\n        /* \"#utility.yul\":836:868   */\n      slt\n        /* \"#utility.yul\":833:952   */\n      iszero\n      tag_659\n      jumpi\n        /* \"#utility.yul\":871:950   */\n      tag_660\n      tag_552\n      jump\t// in\n    tag_660:\n        /* \"#utility.yul\":833:952   */\n    tag_659:\n        /* \"#utility.yul\":991:992   */\n      0x00\n        /* \"#utility.yul\":1016:1068   */\n      tag_661\n        /* \"#utility.yul\":1060:1067   */\n      dup5\n        /* \"#utility.yul\":1051:1057   */\n      dup3\n        /* \"#utility.yul\":1040:1049   */\n      dup6\n        /* \"#utility.yul\":1036:1058   */\n      add\n        /* \"#utility.yul\":1016:1068   */\n      tag_556\n      jump\t// in\n    tag_661:\n        /* \"#utility.yul\":1006:1068   */\n      swap2\n      pop\n        /* \"#utility.yul\":962:1078   */\n      pop\n        /* \"#utility.yul\":758:1085   */\n      swap3\n      swap2\n      pop\n      pop\n      jump\t// out\n        /* \"#utility.yul\":1091:1181   */\n    tag_557:\n        /* \"#utility.yul\":1125:1132   */\n      0x00\n        /* \"#utility.yul\":1168:1173   */\n      dup2\n        /* \"#utility.yul\":1161:1174   */\n      iszero\n        /* \"#utility.yul\":1154:1175   */\n      iszero\n        /* \"#utility.yul\":1143:1175   */\n      swap1\n      pop\n        /* \"#utility.yul\":1091:1181   */\n      swap2\n      swap1\n      pop\n      jump\t// out\n        /* \"#utility.yul\":1187:1296   */\n    tag_558:\n        /* \"#utility.yul\":1268:1289   */\n      tag_664\n        /* \"#utility.yul\":1283:1288   */\n      dup2\n        /* \"#utility.yul\":1268:1289   */\n      tag_557\n      jump\t// in\n    tag_664:\n        /* \"#utility.yul\":1263:1266   */\n      dup3\n        /* \"#utility.yul\":1256:1290   */\n      mstore\n        /* \"#utility.yul\":1187:1296   */\n      pop\n      pop\n      jump\t// out\n        /* \"#utility.yul\":1302:1512   */\n    tag_44:\n        /* \"#utility.yul\":1389:1393   */\n      0x00\n        /* \"#utility.yul\":1427:1429   */\n      0x20\n        /* \"#utility.yul\":1416:1425   */\n      dup3\n        /* \"#utility.yul\":1412:1430   */\n      add\n        /* \"#utility.yul\":1404:1430   */\n      swap1\n      pop\n        /* \"#utility.yul\":1440:1505   */\n      tag_666\n        /* \"#utility.yul\":1502:1503   */\n      0x00\n        /* \"#utility.yul\":1491:1500   */\n      dup4\n        /* \"#utility.yul\":1487:1504   */\n      add\n        /* \"#utility.yul\":1478:1484   */\n      dup5\n        /* \"#utility.yul\":1440:1505   */\n      tag_558\n      jump\t// in\n    tag_666:\n        /* \"#utility.yul\":1302:1512   */\n      swap3\n      swap2\n      pop\n      pop\n      jump\t// out\n        /* \"#utility.yul\":1518:1595   */\n    tag_559:\n        /* \"#utility.yul\":1555:1562   */\n      0x00\n        /* \"#utility.yul\":1584:1589   */\n      dup2\n        /* \"#utility.yul\":1573:1589   */\n      swap1\n      pop\n        /* \"#utility.yul\":1518:1595   */\n      swap2\n      swap1\n      pop\n      jump\t// out\n        /* \"#utility.yul\":1601:1719   */\n    tag_560:\n        /* \"#utility.yul\":1688:1712   */\n      tag_669\n        /* \"#utility.yul\":1706:1711   */\n      dup2\n        /* \"#utility.yul\":1688:1712   */\n      tag_559\n      jump\t// in\n    tag_669:\n        /* \"#utility.yul\":1683:1686   */\n      dup3\n        /* \"#utility.yul\":1676:1713   */\n      mstore\n        /* \"#utility.yul\":1601:1719   */\n      pop\n      pop\n      jump\t// out\n        /* \"#utility.yul\":1725:1947   */\n    tag_49:\n        /* \"#utility.yul\":1818:1822   */\n      0x00\n        /* \"#utility.yul\":1856:1858   */\n      0x20\n        /* \"#utility.yul\":1845:1854   */\n      dup3\n        /* \"#utility.yul\":1841:1859   */\n      add\n        /* \"#utility.yul\":1833:1859   */\n      swap1\n      pop\n        /* \"#utility.yul\":1869:1940   */\n      tag_671\n        /* \"#utility.yul\":1937:1938   */\n      0x00\n        /* \"#utility.yul\":1926:1935   */\n      dup4\n        /* \"#utility.yul\":1922:1939   */\n      add\n        /* \"#utility.yul\":1913:1919   */\n      dup5\n        /* \"#utility.yul\":1869:1940   */\n      tag_560\n      jump\t// in\n    tag_671:\n        /* \"#utility.yul\":1725:1947   */\n      swap3\n      swap2\n      pop\n      pop\n      jump\t// out\n        /* \"#utility.yul\":1953:2075   */\n    tag_561:\n        /* \"#utility.yul\":2026:2050   */\n      tag_673\n        /* \"#utility.yul\":2044:2049   */\n      dup2\n        /* \"#utility.yul\":2026:2050   */\n      tag_559\n      jump\t// in\n    tag_673:\n        /* \"#utility.yul\":2019:2024   */\n      dup2\n        /* \"#utility.yul\":2016:2051   */\n      eq\n        /* \"#utility.yul\":2006:2069   */\n      tag_674\n      jumpi\n        /* \"#utility.yul\":2065:2066   */\n      0x00\n        /* \"#utility.yul\":2062:2063   */\n      dup1\n        /* \"#utility.yul\":2055:2067   */\n      revert\n        /* \"#utility.yul\":2006:2069   */\n    tag_674:\n        /* \"#utility.yul\":1953:2075   */\n      pop\n      jump\t// out\n        /* \"#utility.yul\":2081:2220   */\n    tag_562:\n        /* \"#utility.yul\":2127:2132   */\n      0x00\n        /* \"#utility.yul\":2165:2171   */\n      dup2\n        /* \"#utility.yul\":2152:2172   */\n      calldataload\n        /* \"#utility.yul\":2143:2172   */\n      swap1\n      pop\n        /* \"#utility.yul\":2181:2214   */\n      tag_676\n        /* \"#utility.yul\":2208:2213   */\n      dup2\n        /* \"#utility.yul\":2181:2214   */\n      tag_561\n      jump\t// in\n    tag_676:\n        /* \"#utility.yul\":2081:2220   */\n      swap3\n      swap2\n      pop\n      pop\n      jump\t// out\n        /* \"#utility.yul\":2226:2555   */\n    tag_53:\n        /* \"#utility.yul\":2285:2291   */\n      0x00\n        /* \"#utility.yul\":2334:2336   */\n      0x20\n        /* \"#utility.yul\":2322:2331   */\n      dup3\n        /* \"#utility.yul\":2313:2320   */\n      dup5\n        /* \"#utility.yul\":2309:2332   */\n      sub\n        /* \"#utility.yul\":2305:2337   */\n      slt\n        /* \"#utility.yul\":2302:2421   */\n      iszero\n      tag_678\n      jumpi\n        /* \"#utility.yul\":2340:2419   */\n      tag_679\n      tag_552\n      jump\t// in\n    tag_679:\n        /* \"#utility.yul\":2302:2421   */\n    tag_678:\n        /* \"#utility.yul\":2460:2461   */\n      0x00\n        /* \"#utility.yul\":2485:2538   */\n      tag_680\n        /* \"#utility.yul\":2530:2537   */\n      dup5\n        /* \"#utility.yul\":2521:2527   */\n      dup3\n        /* \"#utility.yul\":2510:2519   */\n      dup6\n        /* \"#utility.yul\":2506:2528   */\n      add\n        /* \"#utility.yul\":2485:2538   */\n      tag_562\n      jump\t// in\n    tag_680:\n        /* \"#utility.yul\":2475:2538   */\n      swap2\n      pop\n        /* \"#utility.yul\":2431:2548   */\n      pop\n        /* \"#utility.yul\":2226:2555   */\n      swap3\n      swap2\n      pop\n      pop\n      jump\t// out\n        /* \"#utility.yul\":2561:2638   */\n    tag_563:\n        /* \"#utility.yul\":2598:2605   */\n      0x00\n        /* \"#utility.yul\":2627:2632   */\n      dup2\n        /* \"#utility.yul\":2616:2632   */\n      swap1\n      pop\n        /* \"#utility.yul\":2561:2638   */\n      swap2\n      swap1\n      pop\n      jump\t// out\n        /* \"#utility.yul\":2644:2766   */\n    tag_564:\n        /* \"#utility.yul\":2717:2741   */\n      tag_683\n        /* \"#utility.yul\":2735:2740   */\n      dup2\n        /* \"#utility.yul\":2717:2741   */\n      tag_563\n      jump\t// in\n    tag_683:\n        /* \"#utility.yul\":2710:2715   */\n      dup2\n        /* \"#utility.yul\":2707:2742   */\n      eq\n        /* \"#utility.yul\":2697:2760   */\n      tag_684\n      jumpi\n        /* \"#utility.yul\":2756:2757   */\n      0x00\n        /* \"#utility.yul\":2753:2754   */\n      dup1\n        /* \"#utility.yul\":2746:2758   */\n      revert\n        /* \"#utility.yul\":2697:2760   */\n    tag_684:\n        /* \"#utility.yul\":2644:2766   */\n      pop\n      jump\t// out\n        /* \"#utility.yul\":2772:2911   */\n    tag_565:\n        /* \"#utility.yul\":2818:2823   */\n      0x00\n        /* \"#utility.yul\":2856:2862   */\n      dup2\n        /* \"#utility.yul\":2843:2863   */\n      calldataload\n        /* \"#utility.yul\":2834:2863   */\n      swap1\n      pop\n        /* \"#utility.yul\":2872:2905   */\n      tag_686\n        /* \"#utility.yul\":2899:2904   */\n      dup2\n        /* \"#utility.yul\":2872:2905   */\n      tag_564\n      jump\t// in\n    tag_686:\n        /* \"#utility.yul\":2772:2911   */\n      swap3\n      swap2\n      pop\n      pop\n      jump\t// out\n        /* \"#utility.yul\":2917:3246   */\n    tag_58:\n        /* \"#utility.yul\":2976:2982   */\n      0x00\n        /* \"#utility.yul\":3025:3027   */\n      0x20\n        /* \"#utility.yul\":3013:3022   */\n      dup3\n        /* \"#utility.yul\":3004:3011   */\n      dup5\n        /* \"#utility.yul\":3000:3023   */\n      sub\n        /* \"#utility.yul\":2996:3028   */\n      slt\n        /* \"#utility.yul\":2993:3112   */\n      iszero\n      tag_688\n      jumpi\n        /* \"#utility.yul\":3031:3110   */\n      tag_689\n      tag_552\n      jump\t// in\n    tag_689:\n        /* \"#utility.yul\":2993:3112   */\n    tag_688:\n        /* \"#utility.yul\":3151:3152   */\n      0x00\n        /* \"#utility.yul\":3176:3229   */\n      tag_690\n        /* \"#utility.yul\":3221:3228   */\n      dup5\n        /* \"#utility.yul\":3212:3218   */\n      dup3\n        /* \"#utility.yul\":3201:3210   */\n      dup6\n        /* \"#utility.yul\":3197:3219   */\n      add\n        /* \"#utility.yul\":3176:3229   */\n      tag_565\n      jump\t// in\n    tag_690:\n        /* \"#utility.yul\":3166:3229   */\n      swap2\n      pop\n        /* \"#utility.yul\":3122:3239   */\n      pop\n        /* \"#utility.yul\":2917:3246   */\n      swap3\n      swap2\n      pop\n      pop\n      jump\t// out\n        /* \"#utility.yul\":3252:3370   */\n    tag_566:\n        /* \"#utility.yul\":3339:3363   */\n      tag_692\n        /* \"#utility.yul\":3357:3362   */\n      dup2\n        /* \"#utility.yul\":3339:3363   */\n      tag_563\n      jump\t// in\n    tag_692:\n        /* \"#utility.yul\":3334:3337   */\n      dup3\n        /* \"#utility.yul\":3327:3364   */\n      mstore\n        /* \"#utility.yul\":3252:3370   */\n      pop\n      pop\n      jump\t// out\n        /* \"#utility.yul\":3376:3598   */\n    tag_61:\n        /* \"#utility.yul\":3469:3473   */\n      0x00\n        /* \"#utility.yul\":3507:3509   */\n      0x20\n        /* \"#utility.yul\":3496:3505   */\n      dup3\n        /* \"#utility.yul\":3492:3510   */\n      add\n        /* \"#utility.yul\":3484:3510   */\n      swap1\n      pop\n        /* \"#utility.yul\":3520:3591   */\n      tag_694\n        /* \"#utility.yul\":3588:3589   */\n      0x00\n        /* \"#utility.yul\":3577:3586   */\n      dup4\n        /* \"#utility.yul\":3573:3590   */\n      add\n        /* \"#utility.yul\":3564:3570   */\n      dup5\n        /* \"#utility.yul\":3520:3591   */\n      tag_566\n      jump\t// in\n    tag_694:\n        /* \"#utility.yul\":3376:3598   */\n      swap3\n      swap2\n      pop\n      pop\n      jump\t// out\n        /* \"#utility.yul\":3604:3730   */\n    tag_567:\n        /* \"#utility.yul\":3641:3648   */\n      0x00\n        /* \"#utility.yul\":3681:3723   */\n      0xffffffffffffffffffffffffffffffffffffffff\n        /* \"#utility.yul\":3674:3679   */\n      dup3\n        /* \"#utility.yul\":3670:3724   */\n      and\n        /* \"#utility.yul\":3659:3724   */\n      swap1\n      pop\n        /* \"#utility.yul\":3604:3730   */\n      swap2\n      swap1\n      pop\n      jump\t// out\n        /* \"#utility.yul\":3736:3832   */\n    tag_568:\n        /* \"#utility.yul\":3773:3780   */\n      0x00\n        /* \"#utility.yul\":3802:3826   */\n      tag_697\n        /* \"#utility.yul\":3820:3825   */\n      dup3\n        /* \"#utility.yul\":3802:3826   */\n      tag_567\n      jump\t// in\n    tag_697:\n        /* \"#utility.yul\":3791:3826   */\n      swap1\n      pop\n        /* \"#utility.yul\":3736:3832   */\n      swap2\n      swap1\n      pop\n      jump\t// out\n        /* \"#utility.yul\":3838:3960   */\n    tag_569:\n        /* \"#utility.yul\":3911:3935   */\n      tag_699\n        /* \"#utility.yul\":3929:3934   */\n      dup2\n        /* \"#utility.yul\":3911:3935   */\n      tag_568\n      jump\t// in\n    tag_699:\n        /* \"#utility.yul\":3904:3909   */\n      dup2\n        /* \"#utility.yul\":3901:3936   */\n      eq\n        /* \"#utility.yul\":3891:3954   */\n      tag_700\n      jumpi\n        /* \"#utility.yul\":3950:3951   */\n      0x00\n        /* \"#utility.yul\":3947:3948   */\n      dup1\n        /* \"#utility.yul\":3940:3952   */\n      revert\n        /* \"#utility.yul\":3891:3954   */\n    tag_700:\n        /* \"#utility.yul\":3838:3960   */\n      pop\n      jump\t// out\n        /* \"#utility.yul\":3966:4105   */\n    tag_570:\n        /* \"#utility.yul\":4012:4017   */\n      0x00\n        /* \"#utility.yul\":4050:4056   */\n      dup2\n        /* \"#utility.yul\":4037:4057   */\n      calldataload\n        /* \"#utility.yul\":4028:4057   */\n      swap1\n      pop\n        /* \"#utility.yul\":4066:4099   */\n      tag_702\n        /* \"#utility.yul\":4093:4098   */\n      dup2\n        /* \"#utility.yul\":4066:4099   */\n      tag_569\n      jump\t// in\n    tag_702:\n        /* \"#utility.yul\":3966:4105   */\n      swap3\n      swap2\n      pop\n      pop\n      jump\t// out\n        /* \"#utility.yul\":4111:4585   */\n    tag_65:\n        /* \"#utility.yul\":4179:4185   */\n      0x00\n        /* \"#utility.yul\":4187:4193   */\n      dup1\n        /* \"#utility.yul\":4236:4238   */\n      0x40\n        /* \"#utility.yul\":4224:4233   */\n      dup4\n        /* \"#utility.yul\":4215:4222   */\n      dup6\n        /* \"#utility.yul\":4211:4234   */\n      sub\n        /* \"#utility.yul\":4207:4239   */\n      slt\n        /* \"#utility.yul\":4204:4323   */\n      iszero\n      tag_704\n      jumpi\n        /* \"#utility.yul\":4242:4321   */\n      tag_705\n      tag_552\n      jump\t// in\n    tag_705:\n        /* \"#utility.yul\":4204:4323   */\n    tag_704:\n        /* \"#utility.yul\":4362:4363   */\n      0x00\n        /* \"#utility.yul\":4387:4440   */\n      tag_706\n        /* \"#utility.yul\":4432:4439   */\n      dup6\n        /* \"#utility.yul\":4423:4429   */\n      dup3\n        /* \"#utility.yul\":4412:4421   */\n      dup7\n        /* \"#utility.yul\":4408:4430   */\n      add\n        /* \"#utility.yul\":4387:4440   */\n      tag_565\n      jump\t// in\n    tag_706:\n        /* \"#utility.yul\":4377:4440   */\n      swap3\n      pop\n        /* \"#utility.yul\":4333:4450   */\n      pop\n        /* \"#utility.yul\":4489:4491   */\n      0x20\n        /* \"#utility.yul\":4515:4568   */\n      tag_707\n        /* \"#utility.yul\":4560:4567   */\n      dup6\n        /* \"#utility.yul\":4551:4557   */\n      dup3\n        /* \"#utility.yul\":4540:4549   */\n      dup7\n        /* \"#utility.yul\":4536:4558   */\n      add\n        /* \"#utility.yul\":4515:4568   */\n      tag_570\n      jump\t// in\n    tag_707:\n        /* \"#utility.yul\":4505:4568   */\n      swap2\n      pop\n        /* \"#utility.yul\":4460:4578   */\n      pop\n        /* \"#utility.yul\":4111:4585   */\n      swap3\n      pop\n      swap3\n      swap1\n      pop\n      jump\t// out\n        /* \"#utility.yul\":4591:4920   */\n    tag_78:\n        /* \"#utility.yul\":4650:4656   */\n      0x00\n        /* \"#utility.yul\":4699:4701   */\n      0x20\n        /* \"#utility.yul\":4687:4696   */\n      dup3\n        /* \"#utility.yul\":4678:4685   */\n      dup5\n        /* \"#utility.yul\":4674:4697   */\n      sub\n        /* \"#utility.yul\":4670:4702   */\n      slt\n        /* \"#utility.yul\":4667:4786   */\n      iszero\n      tag_709\n      jumpi\n        /* \"#utility.yul\":4705:4784   */\n      tag_710\n      tag_552\n      jump\t// in\n    tag_710:\n        /* \"#utility.yul\":4667:4786   */\n    tag_709:\n        /* \"#utility.yul\":4825:4826   */\n      0x00\n        /* \"#utility.yul\":4850:4903   */\n      tag_711\n        /* \"#utility.yul\":4895:4902   */\n      dup5\n        /* \"#utility.yul\":4886:4892   */\n      dup3\n        /* \"#utility.yul\":4875:4884   */\n      dup6\n        /* \"#utility.yul\":4871:4893   */\n      add\n        /* \"#utility.yul\":4850:4903   */\n      tag_570\n      jump\t// in\n    tag_711:\n        /* \"#utility.yul\":4840:4903   */\n      swap2\n      pop\n        /* \"#utility.yul\":4796:4913   */\n      pop\n        /* \"#utility.yul\":4591:4920   */\n      swap3\n      swap2\n      pop\n      pop\n      jump\t// out\n        /* \"#utility.yul\":4926:5356   */\n    tag_81:\n        /* \"#utility.yul\":5069:5073   */\n      0x00\n        /* \"#utility.yul\":5107:5109   */\n      0x60\n        /* \"#utility.yul\":5096:5105   */\n      dup3\n        /* \"#utility.yul\":5092:5110   */\n      add\n        /* \"#utility.yul\":5084:5110   */\n      swap1\n      pop\n        /* \"#utility.yul\":5120:5191   */\n      tag_713\n        /* \"#utility.yul\":5188:5189   */\n      0x00\n        /* \"#utility.yul\":5177:5186   */\n      dup4\n        /* \"#utility.yul\":5173:5190   */\n      add\n        /* \"#utility.yul\":5164:5170   */\n      dup7\n        /* \"#utility.yul\":5120:5191   */\n      tag_560\n      jump\t// in\n    tag_713:\n        /* \"#utility.yul\":5201:5273   */\n      tag_714\n        /* \"#utility.yul\":5269:5271   */\n      0x20\n        /* \"#utility.yul\":5258:5267   */\n      dup4\n        /* \"#utility.yul\":5254:5272   */\n      add\n        /* \"#utility.yul\":5245:5251   */\n      dup6\n        /* \"#utility.yul\":5201:5273   */\n      tag_560\n      jump\t// in\n    tag_714:\n        /* \"#utility.yul\":5283:5349   */\n      tag_715\n        /* \"#utility.yul\":5345:5347   */\n      0x40\n        /* \"#utility.yul\":5334:5343   */\n      dup4\n        /* \"#utility.yul\":5330:5348   */\n      add\n        /* \"#utility.yul\":5321:5327   */\n      dup5\n        /* \"#utility.yul\":5283:5349   */\n      tag_558\n      jump\t// in\n    tag_715:\n        /* \"#utility.yul\":4926:5356   */\n      swap5\n      swap4\n      pop\n      pop\n      pop\n      pop\n      jump\t// out\n        /* \"#utility.yul\":5362:5478   */\n    tag_571:\n        /* \"#utility.yul\":5432:5453   */\n      tag_717\n        /* \"#utility.yul\":5447:5452   */\n      dup2\n        /* \"#utility.yul\":5432:5453   */\n      tag_557\n      jump\t// in\n    tag_717:\n        /* \"#utility.yul\":5425:5430   */\n      dup2\n        /* \"#utility.yul\":5422:5454   */\n      eq\n        /* \"#utility.yul\":5412:5472   */\n      tag_718\n      jumpi\n        /* \"#utility.yul\":5468:5469   */\n      0x00\n        /* \"#utility.yul\":5465:5466   */\n      dup1\n        /* \"#utility.yul\":5458:5470   */\n      revert\n        /* \"#utility.yul\":5412:5472   */\n    tag_718:\n        /* \"#utility.yul\":5362:5478   */\n      pop\n      jump\t// out\n        /* \"#utility.yul\":5484:5617   */\n    tag_572:\n        /* \"#utility.yul\":5527:5532   */\n      0x00\n        /* \"#utility.yul\":5565:5571   */\n      dup2\n        /* \"#utility.yul\":5552:5572   */\n      calldataload\n        /* \"#utility.yul\":5543:5572   */\n      swap1\n      pop\n        /* \"#utility.yul\":5581:5611   */\n      tag_720\n        /* \"#utility.yul\":5605:5610   */\n      dup2\n        /* \"#utility.yul\":5581:5611   */\n      tag_571\n      jump\t// in\n    tag_720:\n        /* \"#utility.yul\":5484:5617   */\n      swap3\n      swap2\n      pop\n      pop\n      jump\t// out\n        /* \"#utility.yul\":5623:6382   */\n    tag_97:\n        /* \"#utility.yul\":5706:5712   */\n      0x00\n        /* \"#utility.yul\":5714:5720   */\n      dup1\n        /* \"#utility.yul\":5722:5728   */\n      0x00\n        /* \"#utility.yul\":5730:5736   */\n      dup1\n        /* \"#utility.yul\":5779:5782   */\n      0x80\n        /* \"#utility.yul\":5767:5776   */\n      dup6\n        /* \"#utility.yul\":5758:5765   */\n      dup8\n        /* \"#utility.yul\":5754:5777   */\n      sub\n        /* \"#utility.yul\":5750:5783   */\n      slt\n        /* \"#utility.yul\":5747:5867   */\n      iszero\n      tag_722\n      jumpi\n        /* \"#utility.yul\":5786:5865   */\n      tag_723\n      tag_552\n      jump\t// in\n    tag_723:\n        /* \"#utility.yul\":5747:5867   */\n    tag_722:\n        /* \"#utility.yul\":5906:5907   */\n      0x00\n        /* \"#utility.yul\":5931:5984   */\n      tag_724\n        /* \"#utility.yul\":5976:5983   */\n      dup8\n        /* \"#utility.yul\":5967:5973   */\n      dup3\n        /* \"#utility.yul\":5956:5965   */\n      dup9\n        /* \"#utility.yul\":5952:5974   */\n      add\n        /* \"#utility.yul\":5931:5984   */\n      tag_570\n      jump\t// in\n    tag_724:\n        /* \"#utility.yul\":5921:5984   */\n      swap5\n      pop\n        /* \"#utility.yul\":5877:5994   */\n      pop\n        /* \"#utility.yul\":6033:6035   */\n      0x20\n        /* \"#utility.yul\":6059:6112   */\n      tag_725\n        /* \"#utility.yul\":6104:6111   */\n      dup8\n        /* \"#utility.yul\":6095:6101   */\n      dup3\n        /* \"#utility.yul\":6084:6093   */\n      dup9\n        /* \"#utility.yul\":6080:6102   */\n      add\n        /* \"#utility.yul\":6059:6112   */\n      tag_562\n      jump\t// in\n    tag_725:\n        /* \"#utility.yul\":6049:6112   */\n      swap4\n      pop\n        /* \"#utility.yul\":6004:6122   */\n      pop\n        /* \"#utility.yul\":6161:6163   */\n      0x40\n        /* \"#utility.yul\":6187:6240   */\n      tag_726\n        /* \"#utility.yul\":6232:6239   */\n      dup8\n        /* \"#utility.yul\":6223:6229   */\n      dup3\n        /* \"#utility.yul\":6212:6221   */\n      dup9\n        /* \"#utility.yul\":6208:6230   */\n      add\n        /* \"#utility.yul\":6187:6240   */\n      tag_562\n      jump\t// in\n    tag_726:\n        /* \"#utility.yul\":6177:6240   */\n      swap3\n      pop\n        /* \"#utility.yul\":6132:6250   */\n      pop\n        /* \"#utility.yul\":6289:6291   */\n      0x60\n        /* \"#utility.yul\":6315:6365   */\n      tag_727\n        /* \"#utility.yul\":6357:6364   */\n      dup8\n        /* \"#utility.yul\":6348:6354   */\n      dup3\n        /* \"#utility.yul\":6337:6346   */\n      dup9\n        /* \"#utility.yul\":6333:6355   */\n      add\n        /* \"#utility.yul\":6315:6365   */\n      tag_572\n      jump\t// in\n    tag_727:\n        /* \"#utility.yul\":6305:6365   */\n      swap2\n      pop\n        /* \"#utility.yul\":6260:6375   */\n      pop\n        /* \"#utility.yul\":5623:6382   */\n      swap3\n      swap6\n      swap2\n      swap5\n      pop\n      swap3\n      pop\n      jump\t// out\n        /* \"#utility.yul\":6388:6862   */\n    tag_101:\n        /* \"#utility.yul\":6456:6462   */\n      0x00\n        /* \"#utility.yul\":6464:6470   */\n      dup1\n        /* \"#utility.yul\":6513:6515   */\n      0x40\n        /* \"#utility.yul\":6501:6510   */\n      dup4\n        /* \"#utility.yul\":6492:6499   */\n      dup6\n        /* \"#utility.yul\":6488:6511   */\n      sub\n        /* \"#utility.yul\":6484:6516   */\n      slt\n        /* \"#utility.yul\":6481:6600   */\n      iszero\n      tag_729\n      jumpi\n        /* \"#utility.yul\":6519:6598   */\n      tag_730\n      tag_552\n      jump\t// in\n    tag_730:\n        /* \"#utility.yul\":6481:6600   */\n    tag_729:\n        /* \"#utility.yul\":6639:6640   */\n      0x00\n        /* \"#utility.yul\":6664:6717   */\n      tag_731\n        /* \"#utility.yul\":6709:6716   */\n      dup6\n        /* \"#utility.yul\":6700:6706   */\n      dup3\n        /* \"#utility.yul\":6689:6698   */\n      dup7\n        /* \"#utility.yul\":6685:6707   */\n      add\n        /* \"#utility.yul\":6664:6717   */\n      tag_562\n      jump\t// in\n    tag_731:\n        /* \"#utility.yul\":6654:6717   */\n      swap3\n      pop\n        /* \"#utility.yul\":6610:6727   */\n      pop\n        /* \"#utility.yul\":6766:6768   */\n      0x20\n        /* \"#utility.yul\":6792:6845   */\n      tag_732\n        /* \"#utility.yul\":6837:6844   */\n      dup6\n        /* \"#utility.yul\":6828:6834   */\n      dup3\n        /* \"#utility.yul\":6817:6826   */\n      dup7\n        /* \"#utility.yul\":6813:6835   */\n      add\n        /* \"#utility.yul\":6792:6845   */\n      tag_562\n      jump\t// in\n    tag_732:\n        /* \"#utility.yul\":6782:6845   */\n      swap2\n      pop\n        /* \"#utility.yul\":6737:6855   */\n      pop\n        /* \"#utility.yul\":6388:6862   */\n      swap3\n      pop\n      swap3\n      swap1\n      pop\n      jump\t// out\n        /* \"#utility.yul\":6868:6972   */\n    tag_573:\n        /* \"#utility.yul\":6913:6920   */\n      0x00\n        /* \"#utility.yul\":6942:6966   */\n      tag_734\n        /* \"#utility.yul\":6960:6965   */\n      dup3\n        /* \"#utility.yul\":6942:6966   */\n      tag_567\n      jump\t// in\n    tag_734:\n        /* \"#utility.yul\":6931:6966   */\n      swap1\n      pop\n        /* \"#utility.yul\":6868:6972   */\n      swap2\n      swap1\n      pop\n      jump\t// out\n        /* \"#utility.yul\":6978:7120   */\n    tag_574:\n        /* \"#utility.yul\":7081:7113   */\n      tag_736\n        /* \"#utility.yul\":7107:7112   */\n      dup2\n        /* \"#utility.yul\":7081:7113   */\n      tag_573\n      jump\t// in\n    tag_736:\n        /* \"#utility.yul\":7076:7079   */\n      dup3\n        /* \"#utility.yul\":7069:7114   */\n      mstore\n        /* \"#utility.yul\":6978:7120   */\n      pop\n      pop\n      jump\t// out\n        /* \"#utility.yul\":7126:7380   */\n    tag_122:\n        /* \"#utility.yul\":7235:7239   */\n      0x00\n        /* \"#utility.yul\":7273:7275   */\n      0x20\n        /* \"#utility.yul\":7262:7271   */\n      dup3\n        /* \"#utility.yul\":7258:7276   */\n      add\n        /* \"#utility.yul\":7250:7276   */\n      swap1\n      pop\n        /* \"#utility.yul\":7286:7373   */\n      tag_738\n        /* \"#utility.yul\":7370:7371   */\n      0x00\n        /* \"#utility.yul\":7359:7368   */\n      dup4\n        /* \"#utility.yul\":7355:7372   */\n      add\n        /* \"#utility.yul\":7346:7352   */\n      dup5\n        /* \"#utility.yul\":7286:7373   */\n      tag_574\n      jump\t// in\n    tag_738:\n        /* \"#utility.yul\":7126:7380   */\n      swap3\n      swap2\n      pop\n      pop\n      jump\t// out\n        /* \"#utility.yul\":7386:7504   */\n    tag_575:\n        /* \"#utility.yul\":7473:7497   */\n      tag_740\n        /* \"#utility.yul\":7491:7496   */\n      dup2\n        /* \"#utility.yul\":7473:7497   */\n      tag_568\n      jump\t// in\n    tag_740:\n        /* \"#utility.yul\":7468:7471   */\n      dup3\n        /* \"#utility.yul\":7461:7498   */\n      mstore\n        /* \"#utility.yul\":7386:7504   */\n      pop\n      pop\n      jump\t// out\n        /* \"#utility.yul\":7510:8606   */\n    tag_145:\n        /* \"#utility.yul\":7821:7825   */\n      0x00\n        /* \"#utility.yul\":7859:7862   */\n      0x0120\n        /* \"#utility.yul\":7848:7857   */\n      dup3\n        /* \"#utility.yul\":7844:7863   */\n      add\n        /* \"#utility.yul\":7836:7863   */\n      swap1\n      pop\n        /* \"#utility.yul\":7873:7944   */\n      tag_742\n        /* \"#utility.yul\":7941:7942   */\n      0x00\n        /* \"#utility.yul\":7930:7939   */\n      dup4\n        /* \"#utility.yul\":7926:7943   */\n      add\n        /* \"#utility.yul\":7917:7923   */\n      dup13\n        /* \"#utility.yul\":7873:7944   */\n      tag_560\n      jump\t// in\n    tag_742:\n        /* \"#utility.yul\":7954:8026   */\n      tag_743\n        /* \"#utility.yul\":8022:8024   */\n      0x20\n        /* \"#utility.yul\":8011:8020   */\n      dup4\n        /* \"#utility.yul\":8007:8025   */\n      add\n        /* \"#utility.yul\":7998:8004   */\n      dup12\n        /* \"#utility.yul\":7954:8026   */\n      tag_560\n      jump\t// in\n    tag_743:\n        /* \"#utility.yul\":8036:8108   */\n      tag_744\n        /* \"#utility.yul\":8104:8106   */\n      0x40\n        /* \"#utility.yul\":8093:8102   */\n      dup4\n        /* \"#utility.yul\":8089:8107   */\n      add\n        /* \"#utility.yul\":8080:8086   */\n      dup11\n        /* \"#utility.yul\":8036:8108   */\n      tag_560\n      jump\t// in\n    tag_744:\n        /* \"#utility.yul\":8118:8190   */\n      tag_745\n        /* \"#utility.yul\":8186:8188   */\n      0x60\n        /* \"#utility.yul\":8175:8184   */\n      dup4\n        /* \"#utility.yul\":8171:8189   */\n      add\n        /* \"#utility.yul\":8162:8168   */\n      dup10\n        /* \"#utility.yul\":8118:8190   */\n      tag_560\n      jump\t// in\n    tag_745:\n        /* \"#utility.yul\":8200:8273   */\n      tag_746\n        /* \"#utility.yul\":8268:8271   */\n      0x80\n        /* \"#utility.yul\":8257:8266   */\n      dup4\n        /* \"#utility.yul\":8253:8272   */\n      add\n        /* \"#utility.yul\":8244:8250   */\n      dup9\n        /* \"#utility.yul\":8200:8273   */\n      tag_575\n      jump\t// in\n    tag_746:\n        /* \"#utility.yul\":8283:8356   */\n      tag_747\n        /* \"#utility.yul\":8351:8354   */\n      0xa0\n        /* \"#utility.yul\":8340:8349   */\n      dup4\n        /* \"#utility.yul\":8336:8355   */\n      add\n        /* \"#utility.yul\":8327:8333   */\n      dup8\n        /* \"#utility.yul\":8283:8356   */\n      tag_575\n      jump\t// in\n    tag_747:\n        /* \"#utility.yul\":8366:8439   */\n      tag_748\n        /* \"#utility.yul\":8434:8437   */\n      0xc0\n        /* \"#utility.yul\":8423:8432   */\n      dup4\n        /* \"#utility.yul\":8419:8438   */\n      add\n        /* \"#utility.yul\":8410:8416   */\n      dup7\n        /* \"#utility.yul\":8366:8439   */\n      tag_575\n      jump\t// in\n    tag_748:\n        /* \"#utility.yul\":8449:8522   */\n      tag_749\n        /* \"#utility.yul\":8517:8520   */\n      0xe0\n        /* \"#utility.yul\":8506:8515   */\n      dup4\n        /* \"#utility.yul\":8502:8521   */\n      add\n        /* \"#utility.yul\":8493:8499   */\n      dup6\n        /* \"#utility.yul\":8449:8522   */\n      tag_575\n      jump\t// in\n    tag_749:\n        /* \"#utility.yul\":8532:8599   */\n      tag_750\n        /* \"#utility.yul\":8594:8597   */\n      0x0100\n        /* \"#utility.yul\":8583:8592   */\n      dup4\n        /* \"#utility.yul\":8579:8598   */\n      add\n        /* \"#utility.yul\":8570:8576   */\n      dup5\n        /* \"#utility.yul\":8532:8599   */\n      tag_558\n      jump\t// in\n    tag_750:\n        /* \"#utility.yul\":7510:8606   */\n      swap11\n      swap10\n      pop\n      pop\n      pop\n      pop\n      pop\n      pop\n      pop\n      pop\n      pop\n      pop\n      jump\t// out\n        /* \"#utility.yul\":8612:8729   */\n    tag_576:\n        /* \"#utility.yul\":8721:8722   */\n      0x00\n        /* \"#utility.yul\":8718:8719   */\n      dup1\n        /* \"#utility.yul\":8711:8723   */\n      revert\n        /* \"#utility.yul\":8735:8852   */\n    tag_577:\n        /* \"#utility.yul\":8844:8845   */\n      0x00\n        /* \"#utility.yul\":8841:8842   */\n      dup1\n        /* \"#utility.yul\":8834:8846   */\n      revert\n        /* \"#utility.yul\":8858:8960   */\n    tag_578:\n        /* \"#utility.yul\":8899:8905   */\n      0x00\n        /* \"#utility.yul\":8950:8952   */\n      0x1f\n        /* \"#utility.yul\":8946:8953   */\n      not\n        /* \"#utility.yul\":8941:8943   */\n      0x1f\n        /* \"#utility.yul\":8934:8939   */\n      dup4\n        /* \"#utility.yul\":8930:8944   */\n      add\n        /* \"#utility.yul\":8926:8954   */\n      and\n        /* \"#utility.yul\":8916:8954   */\n      swap1\n      pop\n        /* \"#utility.yul\":8858:8960   */\n      swap2\n      swap1\n      pop\n      jump\t// out\n        /* \"#utility.yul\":8966:9146   */\n    tag_496:\n        /* \"#utility.yul\":9014:9091   */\n      0x4e487b7100000000000000000000000000000000000000000000000000000000\n        /* \"#utility.yul\":9011:9012   */\n      0x00\n        /* \"#utility.yul\":9004:9092   */\n      mstore\n        /* \"#utility.yul\":9111:9115   */\n      0x41\n        /* \"#utility.yul\":9108:9109   */\n      0x04\n        /* \"#utility.yul\":9101:9116   */\n      mstore\n        /* \"#utility.yul\":9135:9139   */\n      0x24\n        /* \"#utility.yul\":9132:9133   */\n      0x00\n        /* \"#utility.yul\":9125:9140   */\n      revert\n        /* \"#utility.yul\":9152:9433   */\n    tag_579:\n        /* \"#utility.yul\":9235:9262   */\n      tag_756\n        /* \"#utility.yul\":9257:9261   */\n      dup3\n        /* \"#utility.yul\":9235:9262   */\n      tag_578\n      jump\t// in\n    tag_756:\n        /* \"#utility.yul\":9227:9233   */\n      dup2\n        /* \"#utility.yul\":9223:9263   */\n      add\n        /* \"#utility.yul\":9365:9371   */\n      dup2\n        /* \"#utility.yul\":9353:9363   */\n      dup2\n        /* \"#utility.yul\":9350:9372   */\n      lt\n        /* \"#utility.yul\":9329:9347   */\n      0xffffffffffffffff\n        /* \"#utility.yul\":9317:9327   */\n      dup3\n        /* \"#utility.yul\":9314:9348   */\n      gt\n        /* \"#utility.yul\":9311:9373   */\n      or\n        /* \"#utility.yul\":9308:9396   */\n      iszero\n      tag_757\n      jumpi\n        /* \"#utility.yul\":9376:9394   */\n      tag_758\n      tag_496\n      jump\t// in\n    tag_758:\n        /* \"#utility.yul\":9308:9396   */\n    tag_757:\n        /* \"#utility.yul\":9416:9426   */\n      dup1\n        /* \"#utility.yul\":9412:9414   */\n      0x40\n        /* \"#utility.yul\":9405:9427   */\n      mstore\n        /* \"#utility.yul\":9195:9433   */\n      pop\n        /* \"#utility.yul\":9152:9433   */\n      pop\n      pop\n      jump\t// out\n        /* \"#utility.yul\":9439:9568   */\n    tag_580:\n        /* \"#utility.yul\":9473:9479   */\n      0x00\n        /* \"#utility.yul\":9500:9520   */\n      tag_760\n      tag_551\n      jump\t// in\n    tag_760:\n        /* \"#utility.yul\":9490:9520   */\n      swap1\n      pop\n        /* \"#utility.yul\":9529:9562   */\n      tag_761\n        /* \"#utility.yul\":9557:9561   */\n      dup3\n        /* \"#utility.yul\":9549:9555   */\n      dup3\n        /* \"#utility.yul\":9529:9562   */\n      tag_579\n      jump\t// in\n    tag_761:\n        /* \"#utility.yul\":9439:9568   */\n      swap2\n      swap1\n      pop\n      jump\t// out\n        /* \"#utility.yul\":9574:9882   */\n    tag_581:\n        /* \"#utility.yul\":9636:9640   */\n      0x00\n        /* \"#utility.yul\":9726:9744   */\n      0xffffffffffffffff\n        /* \"#utility.yul\":9718:9724   */\n      dup3\n        /* \"#utility.yul\":9715:9745   */\n      gt\n        /* \"#utility.yul\":9712:9768   */\n      iszero\n      tag_763\n      jumpi\n        /* \"#utility.yul\":9748:9766   */\n      tag_764\n      tag_496\n      jump\t// in\n    tag_764:\n        /* \"#utility.yul\":9712:9768   */\n    tag_763:\n        /* \"#utility.yul\":9786:9815   */\n      tag_765\n        /* \"#utility.yul\":9808:9814   */\n      dup3\n        /* \"#utility.yul\":9786:9815   */\n      tag_578\n      jump\t// in\n    tag_765:\n        /* \"#utility.yul\":9778:9815   */\n      swap1\n      pop\n        /* \"#utility.yul\":9870:9874   */\n      0x20\n        /* \"#utility.yul\":9864:9868   */\n      dup2\n        /* \"#utility.yul\":9860:9875   */\n      add\n        /* \"#utility.yul\":9852:9875   */\n      swap1\n      pop\n        /* \"#utility.yul\":9574:9882   */\n      swap2\n      swap1\n      pop\n      jump\t// out\n        /* \"#utility.yul\":9888:10042   */\n    tag_582:\n        /* \"#utility.yul\":9972:9978   */\n      dup3\n        /* \"#utility.yul\":9967:9970   */\n      dup2\n        /* \"#utility.yul\":9962:9965   */\n      dup4\n        /* \"#utility.yul\":9949:9979   */\n      calldatacopy\n        /* \"#utility.yul\":10034:10035   */\n      0x00\n        /* \"#utility.yul\":10025:10031   */\n      dup4\n        /* \"#utility.yul\":10020:10023   */\n      dup4\n        /* \"#utility.yul\":10016:10032   */\n      add\n        /* \"#utility.yul\":10009:10036   */\n      mstore\n        /* \"#utility.yul\":9888:10042   */\n      pop\n      pop\n      pop\n      jump\t// out\n        /* \"#utility.yul\":10048:10460   */\n    tag_583:\n        /* \"#utility.yul\":10126:10131   */\n      0x00\n        /* \"#utility.yul\":10151:10217   */\n      tag_768\n        /* \"#utility.yul\":10167:10216   */\n      tag_769\n        /* \"#utility.yul\":10209:10215   */\n      dup5\n        /* \"#utility.yul\":10167:10216   */\n      tag_581\n      jump\t// in\n    tag_769:\n        /* \"#utility.yul\":10151:10217   */\n      tag_580\n      jump\t// in\n    tag_768:\n        /* \"#utility.yul\":10142:10217   */\n      swap1\n      pop\n        /* \"#utility.yul\":10240:10246   */\n      dup3\n        /* \"#utility.yul\":10233:10238   */\n      dup2\n        /* \"#utility.yul\":10226:10247   */\n      mstore\n        /* \"#utility.yul\":10278:10282   */\n      0x20\n        /* \"#utility.yul\":10271:10276   */\n      dup2\n        /* \"#utility.yul\":10267:10283   */\n      add\n        /* \"#utility.yul\":10316:10319   */\n      dup5\n        /* \"#utility.yul\":10307:10313   */\n      dup5\n        /* \"#utility.yul\":10302:10305   */\n      dup5\n        /* \"#utility.yul\":10298:10314   */\n      add\n        /* \"#utility.yul\":10295:10320   */\n      gt\n        /* \"#utility.yul\":10292:10404   */\n      iszero\n      tag_770\n      jumpi\n        /* \"#utility.yul\":10323:10402   */\n      tag_771\n      tag_577\n      jump\t// in\n    tag_771:\n        /* \"#utility.yul\":10292:10404   */\n    tag_770:\n        /* \"#utility.yul\":10413:10454   */\n      tag_772\n        /* \"#utility.yul\":10447:10453   */\n      dup5\n        /* \"#utility.yul\":10442:10445   */\n      dup3\n        /* \"#utility.yul\":10437:10440   */\n      dup6\n        /* \"#utility.yul\":10413:10454   */\n      tag_582\n      jump\t// in\n    tag_772:\n        /* \"#utility.yul\":10132:10460   */\n      pop\n        /* \"#utility.yul\":10048:10460   */\n      swap4\n      swap3\n      pop\n      pop\n      pop\n      jump\t// out\n        /* \"#utility.yul\":10480:10820   */\n    tag_584:\n        /* \"#utility.yul\":10536:10541   */\n      0x00\n        /* \"#utility.yul\":10585:10588   */\n      dup3\n        /* \"#utility.yul\":10578:10582   */\n      0x1f\n        /* \"#utility.yul\":10570:10576   */\n      dup4\n        /* \"#utility.yul\":10566:10583   */\n      add\n        /* \"#utility.yul\":10562:10589   */\n      slt\n        /* \"#utility.yul\":10552:10674   */\n      tag_774\n      jumpi\n        /* \"#utility.yul\":10593:10672   */\n      tag_775\n      tag_576\n      jump\t// in\n    tag_775:\n        /* \"#utility.yul\":10552:10674   */\n    tag_774:\n        /* \"#utility.yul\":10710:10716   */\n      dup2\n        /* \"#utility.yul\":10697:10717   */\n      calldataload\n        /* \"#utility.yul\":10735:10814   */\n      tag_776\n        /* \"#utility.yul\":10810:10813   */\n      dup5\n        /* \"#utility.yul\":10802:10808   */\n      dup3\n        /* \"#utility.yul\":10795:10799   */\n      0x20\n        /* \"#utility.yul\":10787:10793   */\n      dup7\n        /* \"#utility.yul\":10783:10800   */\n      add\n        /* \"#utility.yul\":10735:10814   */\n      tag_583\n      jump\t// in\n    tag_776:\n        /* \"#utility.yul\":10726:10814   */\n      swap2\n      pop\n        /* \"#utility.yul\":10542:10820   */\n      pop\n        /* \"#utility.yul\":10480:10820   */\n      swap3\n      swap2\n      pop\n      pop\n      jump\t// out\n        /* \"#utility.yul\":10826:11335   */\n    tag_153:\n        /* \"#utility.yul\":10895:10901   */\n      0x00\n        /* \"#utility.yul\":10944:10946   */\n      0x20\n        /* \"#utility.yul\":10932:10941   */\n      dup3\n        /* \"#utility.yul\":10923:10930   */\n      dup5\n        /* \"#utility.yul\":10919:10942   */\n      sub\n        /* \"#utility.yul\":10915:10947   */\n      slt\n        /* \"#utility.yul\":10912:11031   */\n      iszero\n      tag_778\n      jumpi\n        /* \"#utility.yul\":10950:11029   */\n      tag_779\n      tag_552\n      jump\t// in\n    tag_779:\n        /* \"#utility.yul\":10912:11031   */\n    tag_778:\n        /* \"#utility.yul\":11098:11099   */\n      0x00\n        /* \"#utility.yul\":11087:11096   */\n      dup3\n        /* \"#utility.yul\":11083:11100   */\n      add\n        /* \"#utility.yul\":11070:11101   */\n      calldataload\n        /* \"#utility.yul\":11128:11146   */\n      0xffffffffffffffff\n        /* \"#utility.yul\":11120:11126   */\n      dup2\n        /* \"#utility.yul\":11117:11147   */\n      gt\n        /* \"#utility.yul\":11114:11231   */\n      iszero\n      tag_780\n      jumpi\n        /* \"#utility.yul\":11150:11229   */\n      tag_781\n      tag_553\n      jump\t// in\n    tag_781:\n        /* \"#utility.yul\":11114:11231   */\n    tag_780:\n        /* \"#utility.yul\":11255:11318   */\n      tag_782\n        /* \"#utility.yul\":11310:11317   */\n      dup5\n        /* \"#utility.yul\":11301:11307   */\n      dup3\n        /* \"#utility.yul\":11290:11299   */\n      dup6\n        /* \"#utility.yul\":11286:11308   */\n      add\n        /* \"#utility.yul\":11255:11318   */\n      tag_584\n      jump\t// in\n    tag_782:\n        /* \"#utility.yul\":11245:11318   */\n      swap2\n      pop\n        /* \"#utility.yul\":11041:11328   */\n      pop\n        /* \"#utility.yul\":10826:11335   */\n      swap3\n      swap2\n      pop\n      pop\n      jump\t// out\n        /* \"#utility.yul\":11341:12398   */\n    tag_163:\n        /* \"#utility.yul\":11445:11451   */\n      0x00\n        /* \"#utility.yul\":11453:11459   */\n      dup1\n        /* \"#utility.yul\":11461:11467   */\n      0x00\n        /* \"#utility.yul\":11469:11475   */\n      dup1\n        /* \"#utility.yul\":11477:11483   */\n      0x00\n        /* \"#utility.yul\":11485:11491   */\n      dup1\n        /* \"#utility.yul\":11534:11537   */\n      0xc0\n        /* \"#utility.yul\":11522:11531   */\n      dup8\n        /* \"#utility.yul\":11513:11520   */\n      dup10\n        /* \"#utility.yul\":11509:11532   */\n      sub\n        /* \"#utility.yul\":11505:11538   */\n      slt\n        /* \"#utility.yul\":11502:11622   */\n      iszero\n      tag_784\n      jumpi\n        /* \"#utility.yul\":11541:11620   */\n      tag_785\n      tag_552\n      jump\t// in\n    tag_785:\n        /* \"#utility.yul\":11502:11622   */\n    tag_784:\n        /* \"#utility.yul\":11661:11662   */\n      0x00\n        /* \"#utility.yul\":11686:11739   */\n      tag_786\n        /* \"#utility.yul\":11731:11738   */\n      dup10\n        /* \"#utility.yul\":11722:11728   */\n      dup3\n        /* \"#utility.yul\":11711:11720   */\n      dup11\n        /* \"#utility.yul\":11707:11729   */\n      add\n        /* \"#utility.yul\":11686:11739   */\n      tag_570\n      jump\t// in\n    tag_786:\n        /* \"#utility.yul\":11676:11739   */\n      swap7\n      pop\n        /* \"#utility.yul\":11632:11749   */\n      pop\n        /* \"#utility.yul\":11788:11790   */\n      0x20\n        /* \"#utility.yul\":11814:11867   */\n      tag_787\n        /* \"#utility.yul\":11859:11866   */\n      dup10\n        /* \"#utility.yul\":11850:11856   */\n      dup3\n        /* \"#utility.yul\":11839:11848   */\n      dup11\n        /* \"#utility.yul\":11835:11857   */\n      add\n        /* \"#utility.yul\":11814:11867   */\n      tag_570\n      jump\t// in\n    tag_787:\n        /* \"#utility.yul\":11804:11867   */\n      swap6\n      pop\n        /* \"#utility.yul\":11759:11877   */\n      pop\n        /* \"#utility.yul\":11916:11918   */\n      0x40\n        /* \"#utility.yul\":11942:11995   */\n      tag_788\n        /* \"#utility.yul\":11987:11994   */\n      dup10\n        /* \"#utility.yul\":11978:11984   */\n      dup3\n        /* \"#utility.yul\":11967:11976   */\n      dup11\n        /* \"#utility.yul\":11963:11985   */\n      add\n        /* \"#utility.yul\":11942:11995   */\n      tag_562\n      jump\t// in\n    tag_788:\n        /* \"#utility.yul\":11932:11995   */\n      swap5\n      pop\n        /* \"#utility.yul\":11887:12005   */\n      pop\n        /* \"#utility.yul\":12044:12046   */\n      0x60\n        /* \"#utility.yul\":12070:12123   */\n      tag_789\n        /* \"#utility.yul\":12115:12122   */\n      dup10\n        /* \"#utility.yul\":12106:12112   */\n      dup3\n        /* \"#utility.yul\":12095:12104   */\n      dup11\n        /* \"#utility.yul\":12091:12113   */\n      add\n        /* \"#utility.yul\":12070:12123   */\n      tag_562\n      jump\t// in\n    tag_789:\n        /* \"#utility.yul\":12060:12123   */\n      swap4\n      pop\n        /* \"#utility.yul\":12015:12133   */\n      pop\n        /* \"#utility.yul\":12172:12175   */\n      0x80\n        /* \"#utility.yul\":12199:12252   */\n      tag_790\n        /* \"#utility.yul\":12244:12251   */\n      dup10\n        /* \"#utility.yul\":12235:12241   */\n      dup3\n        /* \"#utility.yul\":12224:12233   */\n      dup11\n        /* \"#utility.yul\":12220:12242   */\n      add\n        /* \"#utility.yul\":12199:12252   */\n      tag_562\n      jump\t// in\n    tag_790:\n        /* \"#utility.yul\":12189:12252   */\n      swap3\n      pop\n        /* \"#utility.yul\":12143:12262   */\n      pop\n        /* \"#utility.yul\":12301:12304   */\n      0xa0\n        /* \"#utility.yul\":12328:12381   */\n      tag_791\n        /* \"#utility.yul\":12373:12380   */\n      dup10\n        /* \"#utility.yul\":12364:12370   */\n      dup3\n        /* \"#utility.yul\":12353:12362   */\n      dup11\n        /* \"#utility.yul\":12349:12371   */\n      add\n        /* \"#utility.yul\":12328:12381   */\n      tag_562\n      jump\t// in\n    tag_791:\n        /* \"#utility.yul\":12318:12381   */\n      swap2\n      pop\n        /* \"#utility.yul\":12272:12391   */\n      pop\n        /* \"#utility.yul\":11341:12398   */\n      swap3\n      swap6\n      pop\n      swap3\n      swap6\n      pop\n      swap3\n      swap6\n      jump\t// out\n        /* \"#utility.yul\":12404:12878   */\n    tag_172:\n        /* \"#utility.yul\":12472:12478   */\n      0x00\n        /* \"#utility.yul\":12480:12486   */\n      dup1\n        /* \"#utility.yul\":12529:12531   */\n      0x40\n        /* \"#utility.yul\":12517:12526   */\n      dup4\n        /* \"#utility.yul\":12508:12515   */\n      dup6\n        /* \"#utility.yul\":12504:12527   */\n      sub\n        /* \"#utility.yul\":12500:12532   */\n      slt\n        /* \"#utility.yul\":12497:12616   */\n      iszero\n      tag_793\n      jumpi\n        /* \"#utility.yul\":12535:12614   */\n      tag_794\n      tag_552\n      jump\t// in\n    tag_794:\n        /* \"#utility.yul\":12497:12616   */\n    tag_793:\n        /* \"#utility.yul\":12655:12656   */\n      0x00\n        /* \"#utility.yul\":12680:12733   */\n      tag_795\n        /* \"#utility.yul\":12725:12732   */\n      dup6\n        /* \"#utility.yul\":12716:12722   */\n      dup3\n        /* \"#utility.yul\":12705:12714   */\n      dup7\n        /* \"#utility.yul\":12701:12723   */\n      add\n        /* \"#utility.yul\":12680:12733   */\n      tag_570\n      jump\t// in\n    tag_795:\n        /* \"#utility.yul\":12670:12733   */\n      swap3\n      pop\n        /* \"#utility.yul\":12626:12743   */\n      pop\n        /* \"#utility.yul\":12782:12784   */\n      0x20\n        /* \"#utility.yul\":12808:12861   */\n      tag_796\n        /* \"#utility.yul\":12853:12860   */\n      dup6\n        /* \"#utility.yul\":12844:12850   */\n      dup3\n        /* \"#utility.yul\":12833:12842   */\n      dup7\n        /* \"#utility.yul\":12829:12851   */\n      add\n        /* \"#utility.yul\":12808:12861   */\n      tag_562\n      jump\t// in\n    tag_796:\n        /* \"#utility.yul\":12798:12861   */\n      swap2\n      pop\n        /* \"#utility.yul\":12753:12871   */\n      pop\n        /* \"#utility.yul\":12404:12878   */\n      swap3\n      pop\n      swap3\n      swap1\n      pop\n      jump\t// out\n        /* \"#utility.yul\":12884:13053   */\n    tag_585:\n        /* \"#utility.yul\":12968:12979   */\n      0x00\n        /* \"#utility.yul\":13002:13008   */\n      dup3\n        /* \"#utility.yul\":12997:13000   */\n      dup3\n        /* \"#utility.yul\":12990:13009   */\n      mstore\n        /* \"#utility.yul\":13042:13046   */\n      0x20\n        /* \"#utility.yul\":13037:13040   */\n      dup3\n        /* \"#utility.yul\":13033:13047   */\n      add\n        /* \"#utility.yul\":13018:13047   */\n      swap1\n      pop\n        /* \"#utility.yul\":12884:13053   */\n      swap3\n      swap2\n      pop\n      pop\n      jump\t// out\n        /* \"#utility.yul\":13059:13225   */\n    tag_586:\n        /* \"#utility.yul\":13199:13217   */\n      0x5061757361626c653a2070617573656400000000000000000000000000000000\n        /* \"#utility.yul\":13195:13196   */\n      0x00\n        /* \"#utility.yul\":13187:13193   */\n      dup3\n        /* \"#utility.yul\":13183:13197   */\n      add\n        /* \"#utility.yul\":13176:13218   */\n      mstore\n        /* \"#utility.yul\":13059:13225   */\n      pop\n      jump\t// out\n        /* \"#utility.yul\":13231:13597   */\n    tag_587:\n        /* \"#utility.yul\":13373:13376   */\n      0x00\n        /* \"#utility.yul\":13394:13461   */\n      tag_800\n        /* \"#utility.yul\":13458:13460   */\n      0x10\n        /* \"#utility.yul\":13453:13456   */\n      dup4\n        /* \"#utility.yul\":13394:13461   */\n      tag_585\n      jump\t// in\n    tag_800:\n        /* \"#utility.yul\":13387:13461   */\n      swap2\n      pop\n        /* \"#utility.yul\":13470:13563   */\n      tag_801\n        /* \"#utility.yul\":13559:13562   */\n      dup3\n        /* \"#utility.yul\":13470:13563   */\n      tag_586\n      jump\t// in\n    tag_801:\n        /* \"#utility.yul\":13588:13590   */\n      0x20\n        /* \"#utility.yul\":13583:13586   */\n      dup3\n        /* \"#utility.yul\":13579:13591   */\n      add\n        /* \"#utility.yul\":13572:13591   */\n      swap1\n      pop\n        /* \"#utility.yul\":13231:13597   */\n      swap2\n      swap1\n      pop\n      jump\t// out\n        /* \"#utility.yul\":13603:14022   */\n    tag_182:\n        /* \"#utility.yul\":13769:13773   */\n      0x00\n        /* \"#utility.yul\":13807:13809   */\n      0x20\n        /* \"#utility.yul\":13796:13805   */\n      dup3\n        /* \"#utility.yul\":13792:13810   */\n      add\n        /* \"#utility.yul\":13784:13810   */\n      swap1\n      pop\n        /* \"#utility.yul\":13856:13865   */\n      dup2\n        /* \"#utility.yul\":13850:13854   */\n      dup2\n        /* \"#utility.yul\":13846:13866   */\n      sub\n        /* \"#utility.yul\":13842:13843   */\n      0x00\n        /* \"#utility.yul\":13831:13840   */\n      dup4\n        /* \"#utility.yul\":13827:13844   */\n      add\n        /* \"#utility.yul\":13820:13867   */\n      mstore\n        /* \"#utility.yul\":13884:14015   */\n      tag_803\n        /* \"#utility.yul\":14010:14014   */\n      dup2\n        /* \"#utility.yul\":13884:14015   */\n      tag_587\n      jump\t// in\n    tag_803:\n        /* \"#utility.yul\":13876:14015   */\n      swap1\n      pop\n        /* \"#utility.yul\":13603:14022   */\n      swap2\n      swap1\n      pop\n      jump\t// out\n        /* \"#utility.yul\":14028:14194   */\n    tag_588:\n        /* \"#utility.yul\":14168:14186   */\n      0x4f7264657220494420696e76616c696400000000000000000000000000000000\n        /* \"#utility.yul\":14164:14165   */\n      0x00\n        /* \"#utility.yul\":14156:14162   */\n      dup3\n        /* \"#utility.yul\":14152:14166   */\n      add\n        /* \"#utility.yul\":14145:14187   */\n      mstore\n        /* \"#utility.yul\":14028:14194   */\n      pop\n      jump\t// out\n        /* \"#utility.yul\":14200:14566   */\n    tag_589:\n        /* \"#utility.yul\":14342:14345   */\n      0x00\n        /* \"#utility.yul\":14363:14430   */\n      tag_806\n        /* \"#utility.yul\":14427:14429   */\n      0x10\n        /* \"#utility.yul\":14422:14425   */\n      dup4\n        /* \"#utility.yul\":14363:14430   */\n      tag_585\n      jump\t// in\n    tag_806:\n        /* \"#utility.yul\":14356:14430   */\n      swap2\n      pop\n        /* \"#utility.yul\":14439:14532   */\n      tag_807\n        /* \"#utility.yul\":14528:14531   */\n      dup3\n        /* \"#utility.yul\":14439:14532   */\n      tag_588\n      jump\t// in\n    tag_807:\n        /* \"#utility.yul\":14557:14559   */\n      0x20\n        /* \"#utility.yul\":14552:14555   */\n      dup3\n        /* \"#utility.yul\":14548:14560   */\n      add\n        /* \"#utility.yul\":14541:14560   */\n      swap1\n      pop\n        /* \"#utility.yul\":14200:14566   */\n      swap2\n      swap1\n      pop\n      jump\t// out\n        /* \"#utility.yul\":14572:14991   */\n    tag_186:\n        /* \"#utility.yul\":14738:14742   */\n      0x00\n        /* \"#utility.yul\":14776:14778   */\n      0x20\n        /* \"#utility.yul\":14765:14774   */\n      dup3\n        /* \"#utility.yul\":14761:14779   */\n      add\n        /* \"#utility.yul\":14753:14779   */\n      swap1\n      pop\n        /* \"#utility.yul\":14825:14834   */\n      dup2\n        /* \"#utility.yul\":14819:14823   */\n      dup2\n        /* \"#utility.yul\":14815:14835   */\n      sub\n        /* \"#utility.yul\":14811:14812   */\n      0x00\n        /* \"#utility.yul\":14800:14809   */\n      dup4\n        /* \"#utility.yul\":14796:14813   */\n      add\n        /* \"#utility.yul\":14789:14836   */\n      mstore\n        /* \"#utility.yul\":14853:14984   */\n      tag_809\n        /* \"#utility.yul\":14979:14983   */\n      dup2\n        /* \"#utility.yul\":14853:14984   */\n      tag_589\n      jump\t// in\n    tag_809:\n        /* \"#utility.yul\":14845:14984   */\n      swap1\n      pop\n        /* \"#utility.yul\":14572:14991   */\n      swap2\n      swap1\n      pop\n      jump\t// out\n        /* \"#utility.yul\":14997:15177   */\n    tag_189:\n        /* \"#utility.yul\":15045:15122   */\n      0x4e487b7100000000000000000000000000000000000000000000000000000000\n        /* \"#utility.yul\":15042:15043   */\n      0x00\n        /* \"#utility.yul\":15035:15123   */\n      mstore\n        /* \"#utility.yul\":15142:15146   */\n      0x32\n        /* \"#utility.yul\":15139:15140   */\n      0x04\n        /* \"#utility.yul\":15132:15147   */\n      mstore\n        /* \"#utility.yul\":15166:15170   */\n      0x24\n        /* \"#utility.yul\":15163:15164   */\n      0x00\n        /* \"#utility.yul\":15156:15171   */\n      revert\n        /* \"#utility.yul\":15183:15346   */\n    tag_590:\n        /* \"#utility.yul\":15323:15338   */\n      0x4d757374206265206f776e657200000000000000000000000000000000000000\n        /* \"#utility.yul\":15319:15320   */\n      0x00\n        /* \"#utility.yul\":15311:15317   */\n      dup3\n        /* \"#utility.yul\":15307:15321   */\n      add\n        /* \"#utility.yul\":15300:15339   */\n      mstore\n        /* \"#utility.yul\":15183:15346   */\n      pop\n      jump\t// out\n        /* \"#utility.yul\":15352:15718   */\n    tag_591:\n        /* \"#utility.yul\":15494:15497   */\n      0x00\n        /* \"#utility.yul\":15515:15582   */\n      tag_813\n        /* \"#utility.yul\":15579:15581   */\n      0x0d\n        /* \"#utility.yul\":15574:15577   */\n      dup4\n        /* \"#utility.yul\":15515:15582   */\n      tag_585\n      jump\t// in\n    tag_813:\n        /* \"#utility.yul\":15508:15582   */\n      swap2\n      pop\n        /* \"#utility.yul\":15591:15684   */\n      tag_814\n        /* \"#utility.yul\":15680:15683   */\n      dup3\n        /* \"#utility.yul\":15591:15684   */\n      tag_590\n      jump\t// in\n    tag_814:\n        /* \"#utility.yul\":15709:15711   */\n      0x20\n        /* \"#utility.yul\":15704:15707   */\n      dup3\n        /* \"#utility.yul\":15700:15712   */\n      add\n        /* \"#utility.yul\":15693:15712   */\n      swap1\n      pop\n        /* \"#utility.yul\":15352:15718   */\n      swap2\n      swap1\n      pop\n      jump\t// out\n        /* \"#utility.yul\":15724:16143   */\n    tag_193:\n        /* \"#utility.yul\":15890:15894   */\n      0x00\n        /* \"#utility.yul\":15928:15930   */\n      0x20\n        /* \"#utility.yul\":15917:15926   */\n      dup3\n        /* \"#utility.yul\":15913:15931   */\n      add\n        /* \"#utility.yul\":15905:15931   */\n      swap1\n      pop\n        /* \"#utility.yul\":15977:15986   */\n      dup2\n        /* \"#utility.yul\":15971:15975   */\n      dup2\n        /* \"#utility.yul\":15967:15987   */\n      sub\n        /* \"#utility.yul\":15963:15964   */\n      0x00\n        /* \"#utility.yul\":15952:15961   */\n      dup4\n        /* \"#utility.yul\":15948:15965   */\n      add\n        /* \"#utility.yul\":15941:15988   */\n      mstore\n        /* \"#utility.yul\":16005:16136   */\n      tag_816\n        /* \"#utility.yul\":16131:16135   */\n      dup2\n        /* \"#utility.yul\":16005:16136   */\n      tag_591\n      jump\t// in\n    tag_816:\n        /* \"#utility.yul\":15997:16136   */\n      swap1\n      pop\n        /* \"#utility.yul\":15724:16143   */\n      swap2\n      swap1\n      pop\n      jump\t// out\n        /* \"#utility.yul\":16149:16316   */\n    tag_592:\n        /* \"#utility.yul\":16289:16308   */\n      0x4d7573742062652063616e20636c61696d000000000000000000000000000000\n        /* \"#utility.yul\":16285:16286   */\n      0x00\n        /* \"#utility.yul\":16277:16283   */\n      dup3\n        /* \"#utility.yul\":16273:16287   */\n      add\n        /* \"#utility.yul\":16266:16309   */\n      mstore\n        /* \"#utility.yul\":16149:16316   */\n      pop\n      jump\t// out\n        /* \"#utility.yul\":16322:16688   */\n    tag_593:\n        /* \"#utility.yul\":16464:16467   */\n      0x00\n        /* \"#utility.yul\":16485:16552   */\n      tag_819\n        /* \"#utility.yul\":16549:16551   */\n      0x11\n        /* \"#utility.yul\":16544:16547   */\n      dup4\n        /* \"#utility.yul\":16485:16552   */\n      tag_585\n      jump\t// in\n    tag_819:\n        /* \"#utility.yul\":16478:16552   */\n      swap2\n      pop\n        /* \"#utility.yul\":16561:16654   */\n      tag_820\n        /* \"#utility.yul\":16650:16653   */\n      dup3\n        /* \"#utility.yul\":16561:16654   */\n      tag_592\n      jump\t// in\n    tag_820:\n        /* \"#utility.yul\":16679:16681   */\n      0x20\n        /* \"#utility.yul\":16674:16677   */\n      dup3\n        /* \"#utility.yul\":16670:16682   */\n      add\n        /* \"#utility.yul\":16663:16682   */\n      swap1\n      pop\n        /* \"#utility.yul\":16322:16688   */\n      swap2\n      swap1\n      pop\n      jump\t// out\n        /* \"#utility.yul\":16694:17113   */\n    tag_197:\n        /* \"#utility.yul\":16860:16864   */\n      0x00\n        /* \"#utility.yul\":16898:16900   */\n      0x20\n        /* \"#utility.yul\":16887:16896   */\n      dup3\n        /* \"#utility.yul\":16883:16901   */\n      add\n        /* \"#utility.yul\":16875:16901   */\n      swap1\n      pop\n        /* \"#utility.yul\":16947:16956   */\n      dup2\n        /* \"#utility.yul\":16941:16945   */\n      dup2\n        /* \"#utility.yul\":16937:16957   */\n      sub\n        /* \"#utility.yul\":16933:16934   */\n      0x00\n        /* \"#utility.yul\":16922:16931   */\n      dup4\n        /* \"#utility.yul\":16918:16935   */\n      add\n        /* \"#utility.yul\":16911:16958   */\n      mstore\n        /* \"#utility.yul\":16975:17106   */\n      tag_822\n        /* \"#utility.yul\":17101:17105   */\n      dup2\n        /* \"#utility.yul\":16975:17106   */\n      tag_593\n      jump\t// in\n    tag_822:\n        /* \"#utility.yul\":16967:17106   */\n      swap1\n      pop\n        /* \"#utility.yul\":16694:17113   */\n      swap2\n      swap1\n      pop\n      jump\t// out\n        /* \"#utility.yul\":17119:17561   */\n    tag_199:\n        /* \"#utility.yul\":17268:17272   */\n      0x00\n        /* \"#utility.yul\":17306:17308   */\n      0x60\n        /* \"#utility.yul\":17295:17304   */\n      dup3\n        /* \"#utility.yul\":17291:17309   */\n      add\n        /* \"#utility.yul\":17283:17309   */\n      swap1\n      pop\n        /* \"#utility.yul\":17319:17390   */\n      tag_824\n        /* \"#utility.yul\":17387:17388   */\n      0x00\n        /* \"#utility.yul\":17376:17385   */\n      dup4\n        /* \"#utility.yul\":17372:17389   */\n      add\n        /* \"#utility.yul\":17363:17369   */\n      dup7\n        /* \"#utility.yul\":17319:17390   */\n      tag_575\n      jump\t// in\n    tag_824:\n        /* \"#utility.yul\":17400:17472   */\n      tag_825\n        /* \"#utility.yul\":17468:17470   */\n      0x20\n        /* \"#utility.yul\":17457:17466   */\n      dup4\n        /* \"#utility.yul\":17453:17471   */\n      add\n        /* \"#utility.yul\":17444:17450   */\n      dup6\n        /* \"#utility.yul\":17400:17472   */\n      tag_575\n      jump\t// in\n    tag_825:\n        /* \"#utility.yul\":17482:17554   */\n      tag_826\n        /* \"#utility.yul\":17550:17552   */\n      0x40\n        /* \"#utility.yul\":17539:17548   */\n      dup4\n        /* \"#utility.yul\":17535:17553   */\n      add\n        /* \"#utility.yul\":17526:17532   */\n      dup5\n        /* \"#utility.yul\":17482:17554   */\n      tag_560\n      jump\t// in\n    tag_826:\n        /* \"#utility.yul\":17119:17561   */\n      swap5\n      swap4\n      pop\n      pop\n      pop\n      pop\n      jump\t// out\n        /* \"#utility.yul\":17567:17747   */\n    tag_594:\n        /* \"#utility.yul\":17615:17692   */\n      0x4e487b7100000000000000000000000000000000000000000000000000000000\n        /* \"#utility.yul\":17612:17613   */\n      0x00\n        /* \"#utility.yul\":17605:17693   */\n      mstore\n        /* \"#utility.yul\":17712:17716   */\n      0x11\n        /* \"#utility.yul\":17709:17710   */\n      0x04\n        /* \"#utility.yul\":17702:17717   */\n      mstore\n        /* \"#utility.yul\":17736:17740   */\n      0x24\n        /* \"#utility.yul\":17733:17734   */\n      0x00\n        /* \"#utility.yul\":17726:17741   */\n      revert\n        /* \"#utility.yul\":17753:17944   */\n    tag_205:\n        /* \"#utility.yul\":17793:17797   */\n      0x00\n        /* \"#utility.yul\":17813:17833   */\n      tag_829\n        /* \"#utility.yul\":17831:17832   */\n      dup3\n        /* \"#utility.yul\":17813:17833   */\n      tag_559\n      jump\t// in\n    tag_829:\n        /* \"#utility.yul\":17808:17833   */\n      swap2\n      pop\n        /* \"#utility.yul\":17847:17867   */\n      tag_830\n        /* \"#utility.yul\":17865:17866   */\n      dup4\n        /* \"#utility.yul\":17847:17867   */\n      tag_559\n      jump\t// in\n    tag_830:\n        /* \"#utility.yul\":17842:17867   */\n      swap3\n      pop\n        /* \"#utility.yul\":17886:17887   */\n      dup3\n        /* \"#utility.yul\":17883:17884   */\n      dup3\n        /* \"#utility.yul\":17880:17888   */\n      lt\n        /* \"#utility.yul\":17877:17911   */\n      iszero\n      tag_831\n      jumpi\n        /* \"#utility.yul\":17891:17909   */\n      tag_832\n      tag_594\n      jump\t// in\n    tag_832:\n        /* \"#utility.yul\":17877:17911   */\n    tag_831:\n        /* \"#utility.yul\":17936:17937   */\n      dup3\n        /* \"#utility.yul\":17933:17934   */\n      dup3\n        /* \"#utility.yul\":17929:17938   */\n      sub\n        /* \"#utility.yul\":17921:17938   */\n      swap1\n      pop\n        /* \"#utility.yul\":17753:17944   */\n      swap3\n      swap2\n      pop\n      pop\n      jump\t// out\n        /* \"#utility.yul\":17950:18298   */\n    tag_207:\n        /* \"#utility.yul\":17990:17997   */\n      0x00\n        /* \"#utility.yul\":18013:18033   */\n      tag_834\n        /* \"#utility.yul\":18031:18032   */\n      dup3\n        /* \"#utility.yul\":18013:18033   */\n      tag_559\n      jump\t// in\n    tag_834:\n        /* \"#utility.yul\":18008:18033   */\n      swap2\n      pop\n        /* \"#utility.yul\":18047:18067   */\n      tag_835\n        /* \"#utility.yul\":18065:18066   */\n      dup4\n        /* \"#utility.yul\":18047:18067   */\n      tag_559\n      jump\t// in\n    tag_835:\n        /* \"#utility.yul\":18042:18067   */\n      swap3\n      pop\n        /* \"#utility.yul\":18235:18236   */\n      dup2\n        /* \"#utility.yul\":18167:18233   */\n      0xffffffffffffffffffffffffffffffffffffffffffffffffffffffffffffffff\n        /* \"#utility.yul\":18163:18237   */\n      div\n        /* \"#utility.yul\":18160:18161   */\n      dup4\n        /* \"#utility.yul\":18157:18238   */\n      gt\n        /* \"#utility.yul\":18152:18153   */\n      dup3\n        /* \"#utility.yul\":18145:18154   */\n      iszero\n        /* \"#utility.yul\":18138:18155   */\n      iszero\n        /* \"#utility.yul\":18134:18239   */\n      and\n        /* \"#utility.yul\":18131:18262   */\n      iszero\n      tag_836\n      jumpi\n        /* \"#utility.yul\":18242:18260   */\n      tag_837\n      tag_594\n      jump\t// in\n    tag_837:\n        /* \"#utility.yul\":18131:18262   */\n    tag_836:\n        /* \"#utility.yul\":18290:18291   */\n      dup3\n        /* \"#utility.yul\":18287:18288   */\n      dup3\n        /* \"#utility.yul\":18283:18292   */\n      mul\n        /* \"#utility.yul\":18272:18292   */\n      swap1\n      pop\n        /* \"#utility.yul\":17950:18298   */\n      swap3\n      swap2\n      pop\n      pop\n      jump\t// out\n        /* \"#utility.yul\":18304:18484   */\n    tag_595:\n        /* \"#utility.yul\":18352:18429   */\n      0x4e487b7100000000000000000000000000000000000000000000000000000000\n        /* \"#utility.yul\":18349:18350   */\n      0x00\n        /* \"#utility.yul\":18342:18430   */\n      mstore\n        /* \"#utility.yul\":18449:18453   */\n      0x12\n        /* \"#utility.yul\":18446:18447   */\n      0x04\n        /* \"#utility.yul\":18439:18454   */\n      mstore\n        /* \"#utility.yul\":18473:18477   */\n      0x24\n        /* \"#utility.yul\":18470:18471   */\n      0x00\n        /* \"#utility.yul\":18463:18478   */\n      revert\n        /* \"#utility.yul\":18490:18675   */\n    tag_209:\n        /* \"#utility.yul\":18530:18531   */\n      0x00\n        /* \"#utility.yul\":18547:18567   */\n      tag_840\n        /* \"#utility.yul\":18565:18566   */\n      dup3\n        /* \"#utility.yul\":18547:18567   */\n      tag_559\n      jump\t// in\n    tag_840:\n        /* \"#utility.yul\":18542:18567   */\n      swap2\n      pop\n        /* \"#utility.yul\":18581:18601   */\n      tag_841\n        /* \"#utility.yul\":18599:18600   */\n      dup4\n        /* \"#utility.yul\":18581:18601   */\n      tag_559\n      jump\t// in\n    tag_841:\n        /* \"#utility.yul\":18576:18601   */\n      swap3\n      pop\n        /* \"#utility.yul\":18620:18621   */\n      dup3\n        /* \"#utility.yul\":18610:18645   */\n      tag_842\n      jumpi\n        /* \"#utility.yul\":18625:18643   */\n      tag_843\n      tag_595\n      jump\t// in\n    tag_843:\n        /* \"#utility.yul\":18610:18645   */\n    tag_842:\n        /* \"#utility.yul\":18667:18668   */\n      dup3\n        /* \"#utility.yul\":18664:18665   */\n      dup3\n        /* \"#utility.yul\":18660:18669   */\n      div\n        /* \"#utility.yul\":18655:18669   */\n      swap1\n      pop\n        /* \"#utility.yul\":18490:18675   */\n      swap3\n      swap2\n      pop\n      pop\n      jump\t// out\n        /* \"#utility.yul\":18681:19345   */\n    tag_214:\n        /* \"#utility.yul\":18886:18890   */\n      0x00\n        /* \"#utility.yul\":18924:18927   */\n      0xa0\n        /* \"#utility.yul\":18913:18922   */\n      dup3\n        /* \"#utility.yul\":18909:18928   */\n      add\n        /* \"#utility.yul\":18901:18928   */\n      swap1\n      pop\n        /* \"#utility.yul\":18938:19009   */\n      tag_845\n        /* \"#utility.yul\":19006:19007   */\n      0x00\n        /* \"#utility.yul\":18995:19004   */\n      dup4\n        /* \"#utility.yul\":18991:19008   */\n      add\n        /* \"#utility.yul\":18982:18988   */\n      dup9\n        /* \"#utility.yul\":18938:19009   */\n      tag_560\n      jump\t// in\n    tag_845:\n        /* \"#utility.yul\":19019:19091   */\n      tag_846\n        /* \"#utility.yul\":19087:19089   */\n      0x20\n        /* \"#utility.yul\":19076:19085   */\n      dup4\n        /* \"#utility.yul\":19072:19090   */\n      add\n        /* \"#utility.yul\":19063:19069   */\n      dup8\n        /* \"#utility.yul\":19019:19091   */\n      tag_575\n      jump\t// in\n    tag_846:\n        /* \"#utility.yul\":19101:19173   */\n      tag_847\n        /* \"#utility.yul\":19169:19171   */\n      0x40\n        /* \"#utility.yul\":19158:19167   */\n      dup4\n        /* \"#utility.yul\":19154:19172   */\n      add\n        /* \"#utility.yul\":19145:19151   */\n      dup7\n        /* \"#utility.yul\":19101:19173   */\n      tag_560\n      jump\t// in\n    tag_847:\n        /* \"#utility.yul\":19183:19255   */\n      tag_848\n        /* \"#utility.yul\":19251:19253   */\n      0x60\n        /* \"#utility.yul\":19240:19249   */\n      dup4\n        /* \"#utility.yul\":19236:19254   */\n      add\n        /* \"#utility.yul\":19227:19233   */\n      dup6\n        /* \"#utility.yul\":19183:19255   */\n      tag_560\n      jump\t// in\n    tag_848:\n        /* \"#utility.yul\":19265:19338   */\n      tag_849\n        /* \"#utility.yul\":19333:19336   */\n      0x80\n        /* \"#utility.yul\":19322:19331   */\n      dup4\n        /* \"#utility.yul\":19318:19337   */\n      add\n        /* \"#utility.yul\":19309:19315   */\n      dup5\n        /* \"#utility.yul\":19265:19338   */\n      tag_560\n      jump\t// in\n    tag_849:\n        /* \"#utility.yul\":18681:19345   */\n      swap7\n      swap6\n      pop\n      pop\n      pop\n      pop\n      pop\n      pop\n      jump\t// out\n        /* \"#utility.yul\":19351:19585   */\n    tag_596:\n        /* \"#utility.yul\":19491:19525   */\n      0x416363657373436f6e74726f6c3a2063616e206f6e6c792072656e6f756e6365\n        /* \"#utility.yul\":19487:19488   */\n      0x00\n        /* \"#utility.yul\":19479:19485   */\n      dup3\n        /* \"#utility.yul\":19475:19489   */\n      add\n        /* \"#utility.yul\":19468:19526   */\n      mstore\n        /* \"#utility.yul\":19560:19577   */\n      0x20726f6c657320666f722073656c660000000000000000000000000000000000\n        /* \"#utility.yul\":19555:19557   */\n      0x20\n        /* \"#utility.yul\":19547:19553   */\n      dup3\n        /* \"#utility.yul\":19543:19558   */\n      add\n        /* \"#utility.yul\":19536:19578   */\n      mstore\n        /* \"#utility.yul\":19351:19585   */\n      pop\n      jump\t// out\n        /* \"#utility.yul\":19591:19957   */\n    tag_597:\n        /* \"#utility.yul\":19733:19736   */\n      0x00\n        /* \"#utility.yul\":19754:19821   */\n      tag_852\n        /* \"#utility.yul\":19818:19820   */\n      0x2f\n        /* \"#utility.yul\":19813:19816   */\n      dup4\n        /* \"#utility.yul\":19754:19821   */\n      tag_585\n      jump\t// in\n    tag_852:\n        /* \"#utility.yul\":19747:19821   */\n      swap2\n      pop\n        /* \"#utility.yul\":19830:19923   */\n      tag_853\n        /* \"#utility.yul\":19919:19922   */\n      dup3\n        /* \"#utility.yul\":19830:19923   */\n      tag_596\n      jump\t// in\n    tag_853:\n        /* \"#utility.yul\":19948:19950   */\n      0x40\n        /* \"#utility.yul\":19943:19946   */\n      dup3\n        /* \"#utility.yul\":19939:19951   */\n      add\n        /* \"#utility.yul\":19932:19951   */\n      swap1\n      pop\n        /* \"#utility.yul\":19591:19957   */\n      swap2\n      swap1\n      pop\n      jump\t// out\n        /* \"#utility.yul\":19963:20382   */\n    tag_229:\n        /* \"#utility.yul\":20129:20133   */\n      0x00\n        /* \"#utility.yul\":20167:20169   */\n      0x20\n        /* \"#utility.yul\":20156:20165   */\n      dup3\n        /* \"#utility.yul\":20152:20170   */\n      add\n        /* \"#utility.yul\":20144:20170   */\n      swap1\n      pop\n        /* \"#utility.yul\":20216:20225   */\n      dup2\n        /* \"#utility.yul\":20210:20214   */\n      dup2\n        /* \"#utility.yul\":20206:20226   */\n      sub\n        /* \"#utility.yul\":20202:20203   */\n      0x00\n        /* \"#utility.yul\":20191:20200   */\n      dup4\n        /* \"#utility.yul\":20187:20204   */\n      add\n        /* \"#utility.yul\":20180:20227   */\n      mstore\n        /* \"#utility.yul\":20244:20375   */\n      tag_855\n        /* \"#utility.yul\":20370:20374   */\n      dup2\n        /* \"#utility.yul\":20244:20375   */\n      tag_597\n      jump\t// in\n    tag_855:\n        /* \"#utility.yul\":20236:20375   */\n      swap1\n      pop\n        /* \"#utility.yul\":19963:20382   */\n      swap2\n      swap1\n      pop\n      jump\t// out\n        /* \"#utility.yul\":20388:20557   */\n    tag_598:\n        /* \"#utility.yul\":20528:20549   */\n      0x4d757374206265206f776e6572206f7264657200000000000000000000000000\n        /* \"#utility.yul\":20524:20525   */\n      0x00\n        /* \"#utility.yul\":20516:20522   */\n      dup3\n        /* \"#utility.yul\":20512:20526   */\n      add\n        /* \"#utility.yul\":20505:20550   */\n      mstore\n        /* \"#utility.yul\":20388:20557   */\n      pop\n      jump\t// out\n        /* \"#utility.yul\":20563:20929   */\n    tag_599:\n        /* \"#utility.yul\":20705:20708   */\n      0x00\n        /* \"#utility.yul\":20726:20793   */\n      tag_858\n        /* \"#utility.yul\":20790:20792   */\n      0x13\n        /* \"#utility.yul\":20785:20788   */\n      dup4\n        /* \"#utility.yul\":20726:20793   */\n      tag_585\n      jump\t// in\n    tag_858:\n        /* \"#utility.yul\":20719:20793   */\n      swap2\n      pop\n        /* \"#utility.yul\":20802:20895   */\n      tag_859\n        /* \"#utility.yul\":20891:20894   */\n      dup3\n        /* \"#utility.yul\":20802:20895   */\n      tag_598\n      jump\t// in\n    tag_859:\n        /* \"#utility.yul\":20920:20922   */\n      0x20\n        /* \"#utility.yul\":20915:20918   */\n      dup3\n        /* \"#utility.yul\":20911:20923   */\n      add\n        /* \"#utility.yul\":20904:20923   */\n      swap1\n      pop\n        /* \"#utility.yul\":20563:20929   */\n      swap2\n      swap1\n      pop\n      jump\t// out\n        /* \"#utility.yul\":20935:21354   */\n    tag_275:\n        /* \"#utility.yul\":21101:21105   */\n      0x00\n        /* \"#utility.yul\":21139:21141   */\n      0x20\n        /* \"#utility.yul\":21128:21137   */\n      dup3\n        /* \"#utility.yul\":21124:21142   */\n      add\n        /* \"#utility.yul\":21116:21142   */\n      swap1\n      pop\n        /* \"#utility.yul\":21188:21197   */\n      dup2\n        /* \"#utility.yul\":21182:21186   */\n      dup2\n        /* \"#utility.yul\":21178:21198   */\n      sub\n        /* \"#utility.yul\":21174:21175   */\n      0x00\n        /* \"#utility.yul\":21163:21172   */\n      dup4\n        /* \"#utility.yul\":21159:21176   */\n      add\n        /* \"#utility.yul\":21152:21199   */\n      mstore\n        /* \"#utility.yul\":21216:21347   */\n      tag_861\n        /* \"#utility.yul\":21342:21346   */\n      dup2\n        /* \"#utility.yul\":21216:21347   */\n      tag_599\n      jump\t// in\n    tag_861:\n        /* \"#utility.yul\":21208:21347   */\n      swap1\n      pop\n        /* \"#utility.yul\":20935:21354   */\n      swap2\n      swap1\n      pop\n      jump\t// out\n        /* \"#utility.yul\":21360:21529   */\n    tag_600:\n        /* \"#utility.yul\":21500:21521   */\n      0x4d757374206e6f74206861766520626964657200000000000000000000000000\n        /* \"#utility.yul\":21496:21497   */\n      0x00\n        /* \"#utility.yul\":21488:21494   */\n      dup3\n        /* \"#utility.yul\":21484:21498   */\n      add\n        /* \"#utility.yul\":21477:21522   */\n      mstore\n        /* \"#utility.yul\":21360:21529   */\n      pop\n      jump\t// out\n        /* \"#utility.yul\":21535:21901   */\n    tag_601:\n        /* \"#utility.yul\":21677:21680   */\n      0x00\n        /* \"#utility.yul\":21698:21765   */\n      tag_864\n        /* \"#utility.yul\":21762:21764   */\n      0x13\n        /* \"#utility.yul\":21757:21760   */\n      dup4\n        /* \"#utility.yul\":21698:21765   */\n      tag_585\n      jump\t// in\n    tag_864:\n        /* \"#utility.yul\":21691:21765   */\n      swap2\n      pop\n        /* \"#utility.yul\":21774:21867   */\n      tag_865\n        /* \"#utility.yul\":21863:21866   */\n      dup3\n        /* \"#utility.yul\":21774:21867   */\n      tag_600\n      jump\t// in\n    tag_865:\n        /* \"#utility.yul\":21892:21894   */\n      0x20\n        /* \"#utility.yul\":21887:21890   */\n      dup3\n        /* \"#utility.yul\":21883:21895   */\n      add\n        /* \"#utility.yul\":21876:21895   */\n      swap1\n      pop\n        /* \"#utility.yul\":21535:21901   */\n      swap2\n      swap1\n      pop\n      jump\t// out\n        /* \"#utility.yul\":21907:22326   */\n    tag_278:\n        /* \"#utility.yul\":22073:22077   */\n      0x00\n        /* \"#utility.yul\":22111:22113   */\n      0x20\n        /* \"#utility.yul\":22100:22109   */\n      dup3\n        /* \"#utility.yul\":22096:22114   */\n      add\n        /* \"#utility.yul\":22088:22114   */\n      swap1\n      pop\n        /* \"#utility.yul\":22160:22169   */\n      dup2\n        /* \"#utility.yul\":22154:22158   */\n      dup2\n        /* \"#utility.yul\":22150:22170   */\n      sub\n        /* \"#utility.yul\":22146:22147   */\n      0x00\n        /* \"#utility.yul\":22135:22144   */\n      dup4\n        /* \"#utility.yul\":22131:22148   */\n      add\n        /* \"#utility.yul\":22124:22171   */\n      mstore\n        /* \"#utility.yul\":22188:22319   */\n      tag_867\n        /* \"#utility.yul\":22314:22318   */\n      dup2\n        /* \"#utility.yul\":22188:22319   */\n      tag_601\n      jump\t// in\n    tag_867:\n        /* \"#utility.yul\":22180:22319   */\n      swap1\n      pop\n        /* \"#utility.yul\":21907:22326   */\n      swap2\n      swap1\n      pop\n      jump\t// out\n        /* \"#utility.yul\":22332:22499   */\n    tag_602:\n        /* \"#utility.yul\":22472:22491   */\n      0x4d757374206265206e6f7420656e646564000000000000000000000000000000\n        /* \"#utility.yul\":22468:22469   */\n      0x00\n        /* \"#utility.yul\":22460:22466   */\n      dup3\n        /* \"#utility.yul\":22456:22470   */\n      add\n        /* \"#utility.yul\":22449:22492   */\n      mstore\n        /* \"#utility.yul\":22332:22499   */\n      pop\n      jump\t// out\n        /* \"#utility.yul\":22505:22871   */\n    tag_603:\n        /* \"#utility.yul\":22647:22650   */\n      0x00\n        /* \"#utility.yul\":22668:22735   */\n      tag_870\n        /* \"#utility.yul\":22732:22734   */\n      0x11\n        /* \"#utility.yul\":22727:22730   */\n      dup4\n        /* \"#utility.yul\":22668:22735   */\n      tag_585\n      jump\t// in\n    tag_870:\n        /* \"#utility.yul\":22661:22735   */\n      swap2\n      pop\n        /* \"#utility.yul\":22744:22837   */\n      tag_871\n        /* \"#utility.yul\":22833:22836   */\n      dup3\n        /* \"#utility.yul\":22744:22837   */\n      tag_602\n      jump\t// in\n    tag_871:\n        /* \"#utility.yul\":22862:22864   */\n      0x20\n        /* \"#utility.yul\":22857:22860   */\n      dup3\n        /* \"#utility.yul\":22853:22865   */\n      add\n        /* \"#utility.yul\":22846:22865   */\n      swap1\n      pop\n        /* \"#utility.yul\":22505:22871   */\n      swap2\n      swap1\n      pop\n      jump\t// out\n        /* \"#utility.yul\":22877:23296   */\n    tag_281:\n        /* \"#utility.yul\":23043:23047   */\n      0x00\n        /* \"#utility.yul\":23081:23083   */\n      0x20\n        /* \"#utility.yul\":23070:23079   */\n      dup3\n        /* \"#utility.yul\":23066:23084   */\n      add\n        /* \"#utility.yul\":23058:23084   */\n      swap1\n      pop\n        /* \"#utility.yul\":23130:23139   */\n      dup2\n        /* \"#utility.yul\":23124:23128   */\n      dup2\n        /* \"#utility.yul\":23120:23140   */\n      sub\n        /* \"#utility.yul\":23116:23117   */\n      0x00\n        /* \"#utility.yul\":23105:23114   */\n      dup4\n        /* \"#utility.yul\":23101:23118   */\n      add\n        /* \"#utility.yul\":23094:23141   */\n      mstore\n        /* \"#utility.yul\":23158:23289   */\n      tag_873\n        /* \"#utility.yul\":23284:23288   */\n      dup2\n        /* \"#utility.yul\":23158:23289   */\n      tag_603\n      jump\t// in\n    tag_873:\n        /* \"#utility.yul\":23150:23289   */\n      swap1\n      pop\n        /* \"#utility.yul\":22877:23296   */\n      swap2\n      swap1\n      pop\n      jump\t// out\n        /* \"#utility.yul\":23302:23634   */\n    tag_287:\n        /* \"#utility.yul\":23423:23427   */\n      0x00\n        /* \"#utility.yul\":23461:23463   */\n      0x40\n        /* \"#utility.yul\":23450:23459   */\n      dup3\n        /* \"#utility.yul\":23446:23464   */\n      add\n        /* \"#utility.yul\":23438:23464   */\n      swap1\n      pop\n        /* \"#utility.yul\":23474:23545   */\n      tag_875\n        /* \"#utility.yul\":23542:23543   */\n      0x00\n        /* \"#utility.yul\":23531:23540   */\n      dup4\n        /* \"#utility.yul\":23527:23544   */\n      add\n        /* \"#utility.yul\":23518:23524   */\n      dup6\n        /* \"#utility.yul\":23474:23545   */\n      tag_560\n      jump\t// in\n    tag_875:\n        /* \"#utility.yul\":23555:23627   */\n      tag_876\n        /* \"#utility.yul\":23623:23625   */\n      0x20\n        /* \"#utility.yul\":23612:23621   */\n      dup4\n        /* \"#utility.yul\":23608:23626   */\n      add\n        /* \"#utility.yul\":23599:23605   */\n      dup5\n        /* \"#utility.yul\":23555:23627   */\n      tag_560\n      jump\t// in\n    tag_876:\n        /* \"#utility.yul\":23302:23634   */\n      swap4\n      swap3\n      pop\n      pop\n      pop\n      jump\t// out\n        /* \"#utility.yul\":23640:24070   */\n    tag_293:\n        /* \"#utility.yul\":23783:23787   */\n      0x00\n        /* \"#utility.yul\":23821:23823   */\n      0x60\n        /* \"#utility.yul\":23810:23819   */\n      dup3\n        /* \"#utility.yul\":23806:23824   */\n      add\n        /* \"#utility.yul\":23798:23824   */\n      swap1\n      pop\n        /* \"#utility.yul\":23834:23905   */\n      tag_878\n        /* \"#utility.yul\":23902:23903   */\n      0x00\n        /* \"#utility.yul\":23891:23900   */\n      dup4\n        /* \"#utility.yul\":23887:23904   */\n      add\n        /* \"#utility.yul\":23878:23884   */\n      dup7\n        /* \"#utility.yul\":23834:23905   */\n      tag_575\n      jump\t// in\n    tag_878:\n        /* \"#utility.yul\":23915:23987   */\n      tag_879\n        /* \"#utility.yul\":23983:23985   */\n      0x20\n        /* \"#utility.yul\":23972:23981   */\n      dup4\n        /* \"#utility.yul\":23968:23986   */\n      add\n        /* \"#utility.yul\":23959:23965   */\n      dup6\n        /* \"#utility.yul\":23915:23987   */\n      tag_560\n      jump\t// in\n    tag_879:\n        /* \"#utility.yul\":23997:24063   */\n      tag_880\n        /* \"#utility.yul\":24059:24061   */\n      0x40\n        /* \"#utility.yul\":24048:24057   */\n      dup4\n        /* \"#utility.yul\":24044:24062   */\n      add\n        /* \"#utility.yul\":24035:24041   */\n      dup5\n        /* \"#utility.yul\":23997:24063   */\n      tag_558\n      jump\t// in\n    tag_880:\n        /* \"#utility.yul\":23640:24070   */\n      swap5\n      swap4\n      pop\n      pop\n      pop\n      pop\n      jump\t// out\n        /* \"#utility.yul\":24076:24239   */\n    tag_604:\n        /* \"#utility.yul\":24216:24231   */\n      0x496e76616c69642076616c756500000000000000000000000000000000000000\n        /* \"#utility.yul\":24212:24213   */\n      0x00\n        /* \"#utility.yul\":24204:24210   */\n      dup3\n        /* \"#utility.yul\":24200:24214   */\n      add\n        /* \"#utility.yul\":24193:24232   */\n      mstore\n        /* \"#utility.yul\":24076:24239   */\n      pop\n      jump\t// out\n        /* \"#utility.yul\":24245:24611   */\n    tag_605:\n        /* \"#utility.yul\":24387:24390   */\n      0x00\n        /* \"#utility.yul\":24408:24475   */\n      tag_883\n        /* \"#utility.yul\":24472:24474   */\n      0x0d\n        /* \"#utility.yul\":24467:24470   */\n      dup4\n        /* \"#utility.yul\":24408:24475   */\n      tag_585\n      jump\t// in\n    tag_883:\n        /* \"#utility.yul\":24401:24475   */\n      swap2\n      pop\n        /* \"#utility.yul\":24484:24577   */\n      tag_884\n        /* \"#utility.yul\":24573:24576   */\n      dup3\n        /* \"#utility.yul\":24484:24577   */\n      tag_604\n      jump\t// in\n    tag_884:\n        /* \"#utility.yul\":24602:24604   */\n      0x20\n        /* \"#utility.yul\":24597:24600   */\n      dup3\n        /* \"#utility.yul\":24593:24605   */\n      add\n        /* \"#utility.yul\":24586:24605   */\n      swap1\n      pop\n        /* \"#utility.yul\":24245:24611   */\n      swap2\n      swap1\n      pop\n      jump\t// out\n        /* \"#utility.yul\":24617:25036   */\n    tag_308:\n        /* \"#utility.yul\":24783:24787   */\n      0x00\n        /* \"#utility.yul\":24821:24823   */\n      0x20\n        /* \"#utility.yul\":24810:24819   */\n      dup3\n        /* \"#utility.yul\":24806:24824   */\n      add\n        /* \"#utility.yul\":24798:24824   */\n      swap1\n      pop\n        /* \"#utility.yul\":24870:24879   */\n      dup2\n        /* \"#utility.yul\":24864:24868   */\n      dup2\n        /* \"#utility.yul\":24860:24880   */\n      sub\n        /* \"#utility.yul\":24856:24857   */\n      0x00\n        /* \"#utility.yul\":24845:24854   */\n      dup4\n        /* \"#utility.yul\":24841:24858   */\n      add\n        /* \"#utility.yul\":24834:24881   */\n      mstore\n        /* \"#utility.yul\":24898:25029   */\n      tag_886\n        /* \"#utility.yul\":25024:25028   */\n      dup2\n        /* \"#utility.yul\":24898:25029   */\n      tag_605\n      jump\t// in\n    tag_886:\n        /* \"#utility.yul\":24890:25029   */\n      swap1\n      pop\n        /* \"#utility.yul\":24617:25036   */\n      swap2\n      swap1\n      pop\n      jump\t// out\n        /* \"#utility.yul\":25042:25203   */\n    tag_606:\n        /* \"#utility.yul\":25182:25195   */\n      0x4f7264657220656e646564000000000000000000000000000000000000000000\n        /* \"#utility.yul\":25178:25179   */\n      0x00\n        /* \"#utility.yul\":25170:25176   */\n      dup3\n        /* \"#utility.yul\":25166:25180   */\n      add\n        /* \"#utility.yul\":25159:25196   */\n      mstore\n        /* \"#utility.yul\":25042:25203   */\n      pop\n      jump\t// out\n        /* \"#utility.yul\":25209:25575   */\n    tag_607:\n        /* \"#utility.yul\":25351:25354   */\n      0x00\n        /* \"#utility.yul\":25372:25439   */\n      tag_889\n        /* \"#utility.yul\":25436:25438   */\n      0x0b\n        /* \"#utility.yul\":25431:25434   */\n      dup4\n        /* \"#utility.yul\":25372:25439   */\n      tag_585\n      jump\t// in\n    tag_889:\n        /* \"#utility.yul\":25365:25439   */\n      swap2\n      pop\n        /* \"#utility.yul\":25448:25541   */\n      tag_890\n        /* \"#utility.yul\":25537:25540   */\n      dup3\n        /* \"#utility.yul\":25448:25541   */\n      tag_606\n      jump\t// in\n    tag_890:\n        /* \"#utility.yul\":25566:25568   */\n      0x20\n        /* \"#utility.yul\":25561:25564   */\n      dup3\n        /* \"#utility.yul\":25557:25569   */\n      add\n        /* \"#utility.yul\":25550:25569   */\n      swap1\n      pop\n        /* \"#utility.yul\":25209:25575   */\n      swap2\n      swap1\n      pop\n      jump\t// out\n        /* \"#utility.yul\":25581:26000   */\n    tag_313:\n        /* \"#utility.yul\":25747:25751   */\n      0x00\n        /* \"#utility.yul\":25785:25787   */\n      0x20\n        /* \"#utility.yul\":25774:25783   */\n      dup3\n        /* \"#utility.yul\":25770:25788   */\n      add\n        /* \"#utility.yul\":25762:25788   */\n      swap1\n      pop\n        /* \"#utility.yul\":25834:25843   */\n      dup2\n        /* \"#utility.yul\":25828:25832   */\n      dup2\n        /* \"#utility.yul\":25824:25844   */\n      sub\n        /* \"#utility.yul\":25820:25821   */\n      0x00\n        /* \"#utility.yul\":25809:25818   */\n      dup4\n        /* \"#utility.yul\":25805:25822   */\n      add\n        /* \"#utility.yul\":25798:25845   */\n      mstore\n        /* \"#utility.yul\":25862:25993   */\n      tag_892\n        /* \"#utility.yul\":25988:25992   */\n      dup2\n        /* \"#utility.yul\":25862:25993   */\n      tag_607\n      jump\t// in\n    tag_892:\n        /* \"#utility.yul\":25854:25993   */\n      swap1\n      pop\n        /* \"#utility.yul\":25581:26000   */\n      swap2\n      swap1\n      pop\n      jump\t// out\n        /* \"#utility.yul\":26006:26170   */\n    tag_608:\n        /* \"#utility.yul\":26146:26162   */\n      0x4269642074696d6520656e646564000000000000000000000000000000000000\n        /* \"#utility.yul\":26142:26143   */\n      0x00\n        /* \"#utility.yul\":26134:26140   */\n      dup3\n        /* \"#utility.yul\":26130:26144   */\n      add\n        /* \"#utility.yul\":26123:26163   */\n      mstore\n        /* \"#utility.yul\":26006:26170   */\n      pop\n      jump\t// out\n        /* \"#utility.yul\":26176:26542   */\n    tag_609:\n        /* \"#utility.yul\":26318:26321   */\n      0x00\n        /* \"#utility.yul\":26339:26406   */\n      tag_895\n        /* \"#utility.yul\":26403:26405   */\n      0x0e\n        /* \"#utility.yul\":26398:26401   */\n      dup4\n        /* \"#utility.yul\":26339:26406   */\n      tag_585\n      jump\t// in\n    tag_895:\n        /* \"#utility.yul\":26332:26406   */\n      swap2\n      pop\n        /* \"#utility.yul\":26415:26508   */\n      tag_896\n        /* \"#utility.yul\":26504:26507   */\n      dup3\n        /* \"#utility.yul\":26415:26508   */\n      tag_608\n      jump\t// in\n    tag_896:\n        /* \"#utility.yul\":26533:26535   */\n      0x20\n        /* \"#utility.yul\":26528:26531   */\n      dup3\n        /* \"#utility.yul\":26524:26536   */\n      add\n        /* \"#utility.yul\":26517:26536   */\n      swap1\n      pop\n        /* \"#utility.yul\":26176:26542   */\n      swap2\n      swap1\n      pop\n      jump\t// out\n        /* \"#utility.yul\":26548:26967   */\n    tag_316:\n        /* \"#utility.yul\":26714:26718   */\n      0x00\n        /* \"#utility.yul\":26752:26754   */\n      0x20\n        /* \"#utility.yul\":26741:26750   */\n      dup3\n        /* \"#utility.yul\":26737:26755   */\n      add\n        /* \"#utility.yul\":26729:26755   */\n      swap1\n      pop\n        /* \"#utility.yul\":26801:26810   */\n      dup2\n        /* \"#utility.yul\":26795:26799   */\n      dup2\n        /* \"#utility.yul\":26791:26811   */\n      sub\n        /* \"#utility.yul\":26787:26788   */\n      0x00\n        /* \"#utility.yul\":26776:26785   */\n      dup4\n        /* \"#utility.yul\":26772:26789   */\n      add\n        /* \"#utility.yul\":26765:26812   */\n      mstore\n        /* \"#utility.yul\":26829:26960   */\n      tag_898\n        /* \"#utility.yul\":26955:26959   */\n      dup2\n        /* \"#utility.yul\":26829:26960   */\n      tag_609\n      jump\t// in\n    tag_898:\n        /* \"#utility.yul\":26821:26960   */\n      swap1\n      pop\n        /* \"#utility.yul\":26548:26967   */\n      swap2\n      swap1\n      pop\n      jump\t// out\n        /* \"#utility.yul\":26973:27278   */\n    tag_318:\n        /* \"#utility.yul\":27013:27016   */\n      0x00\n        /* \"#utility.yul\":27032:27052   */\n      tag_900\n        /* \"#utility.yul\":27050:27051   */\n      dup3\n        /* \"#utility.yul\":27032:27052   */\n      tag_559\n      jump\t// in\n    tag_900:\n        /* \"#utility.yul\":27027:27052   */\n      swap2\n      pop\n        /* \"#utility.yul\":27066:27086   */\n      tag_901\n        /* \"#utility.yul\":27084:27085   */\n      dup4\n        /* \"#utility.yul\":27066:27086   */\n      tag_559\n      jump\t// in\n    tag_901:\n        /* \"#utility.yul\":27061:27086   */\n      swap3\n      pop\n        /* \"#utility.yul\":27220:27221   */\n      dup3\n        /* \"#utility.yul\":27152:27218   */\n      0xffffffffffffffffffffffffffffffffffffffffffffffffffffffffffffffff\n        /* \"#utility.yul\":27148:27222   */\n      sub\n        /* \"#utility.yul\":27145:27146   */\n      dup3\n        /* \"#utility.yul\":27142:27223   */\n      gt\n        /* \"#utility.yul\":27139:27246   */\n      iszero\n      tag_902\n      jumpi\n        /* \"#utility.yul\":27226:27244   */\n      tag_903\n      tag_594\n      jump\t// in\n    tag_903:\n        /* \"#utility.yul\":27139:27246   */\n    tag_902:\n        /* \"#utility.yul\":27270:27271   */\n      dup3\n        /* \"#utility.yul\":27267:27268   */\n      dup3\n        /* \"#utility.yul\":27263:27272   */\n      add\n        /* \"#utility.yul\":27256:27272   */\n      swap1\n      pop\n        /* \"#utility.yul\":26973:27278   */\n      swap3\n      swap2\n      pop\n      pop\n      jump\t// out\n        /* \"#utility.yul\":27284:27452   */\n    tag_610:\n        /* \"#utility.yul\":27424:27444   */\n      0x496e76616c69642062696420616d6f756e740000000000000000000000000000\n        /* \"#utility.yul\":27420:27421   */\n      0x00\n        /* \"#utility.yul\":27412:27418   */\n      dup3\n        /* \"#utility.yul\":27408:27422   */\n      add\n        /* \"#utility.yul\":27401:27445   */\n      mstore\n        /* \"#utility.yul\":27284:27452   */\n      pop\n      jump\t// out\n        /* \"#utility.yul\":27458:27824   */\n    tag_611:\n        /* \"#utility.yul\":27600:27603   */\n      0x00\n        /* \"#utility.yul\":27621:27688   */\n      tag_906\n        /* \"#utility.yul\":27685:27687   */\n      0x12\n        /* \"#utility.yul\":27680:27683   */\n      dup4\n        /* \"#utility.yul\":27621:27688   */\n      tag_585\n      jump\t// in\n    tag_906:\n        /* \"#utility.yul\":27614:27688   */\n      swap2\n      pop\n        /* \"#utility.yul\":27697:27790   */\n      tag_907\n        /* \"#utility.yul\":27786:27789   */\n      dup3\n        /* \"#utility.yul\":27697:27790   */\n      tag_610\n      jump\t// in\n    tag_907:\n        /* \"#utility.yul\":27815:27817   */\n      0x20\n        /* \"#utility.yul\":27810:27813   */\n      dup3\n        /* \"#utility.yul\":27806:27818   */\n      add\n        /* \"#utility.yul\":27799:27818   */\n      swap1\n      pop\n        /* \"#utility.yul\":27458:27824   */\n      swap2\n      swap1\n      pop\n      jump\t// out\n        /* \"#utility.yul\":27830:28249   */\n    tag_323:\n        /* \"#utility.yul\":27996:28000   */\n      0x00\n        /* \"#utility.yul\":28034:28036   */\n      0x20\n        /* \"#utility.yul\":28023:28032   */\n      dup3\n        /* \"#utility.yul\":28019:28037   */\n      add\n        /* \"#utility.yul\":28011:28037   */\n      swap1\n      pop\n        /* \"#utility.yul\":28083:28092   */\n      dup2\n        /* \"#utility.yul\":28077:28081   */\n      dup2\n        /* \"#utility.yul\":28073:28093   */\n      sub\n        /* \"#utility.yul\":28069:28070   */\n      0x00\n        /* \"#utility.yul\":28058:28067   */\n      dup4\n        /* \"#utility.yul\":28054:28071   */\n      add\n        /* \"#utility.yul\":28047:28094   */\n      mstore\n        /* \"#utility.yul\":28111:28242   */\n      tag_909\n        /* \"#utility.yul\":28237:28241   */\n      dup2\n        /* \"#utility.yul\":28111:28242   */\n      tag_611\n      jump\t// in\n    tag_909:\n        /* \"#utility.yul\":28103:28242   */\n      swap1\n      pop\n        /* \"#utility.yul\":27830:28249   */\n      swap2\n      swap1\n      pop\n      jump\t// out\n        /* \"#utility.yul\":28255:28808   */\n    tag_344:\n        /* \"#utility.yul\":28432:28436   */\n      0x00\n        /* \"#utility.yul\":28470:28473   */\n      0x80\n        /* \"#utility.yul\":28459:28468   */\n      dup3\n        /* \"#utility.yul\":28455:28474   */\n      add\n        /* \"#utility.yul\":28447:28474   */\n      swap1\n      pop\n        /* \"#utility.yul\":28484:28555   */\n      tag_911\n        /* \"#utility.yul\":28552:28553   */\n      0x00\n        /* \"#utility.yul\":28541:28550   */\n      dup4\n        /* \"#utility.yul\":28537:28554   */\n      add\n        /* \"#utility.yul\":28528:28534   */\n      dup8\n        /* \"#utility.yul\":28484:28555   */\n      tag_575\n      jump\t// in\n    tag_911:\n        /* \"#utility.yul\":28565:28637   */\n      tag_912\n        /* \"#utility.yul\":28633:28635   */\n      0x20\n        /* \"#utility.yul\":28622:28631   */\n      dup4\n        /* \"#utility.yul\":28618:28636   */\n      add\n        /* \"#utility.yul\":28609:28615   */\n      dup7\n        /* \"#utility.yul\":28565:28637   */\n      tag_560\n      jump\t// in\n    tag_912:\n        /* \"#utility.yul\":28647:28719   */\n      tag_913\n        /* \"#utility.yul\":28715:28717   */\n      0x40\n        /* \"#utility.yul\":28704:28713   */\n      dup4\n        /* \"#utility.yul\":28700:28718   */\n      add\n        /* \"#utility.yul\":28691:28697   */\n      dup6\n        /* \"#utility.yul\":28647:28719   */\n      tag_560\n      jump\t// in\n    tag_913:\n        /* \"#utility.yul\":28729:28801   */\n      tag_914\n        /* \"#utility.yul\":28797:28799   */\n      0x60\n        /* \"#utility.yul\":28786:28795   */\n      dup4\n        /* \"#utility.yul\":28782:28800   */\n      add\n        /* \"#utility.yul\":28773:28779   */\n      dup5\n        /* \"#utility.yul\":28729:28801   */\n      tag_560\n      jump\t// in\n    tag_914:\n        /* \"#utility.yul\":28255:28808   */\n      swap6\n      swap5\n      pop\n      pop\n      pop\n      pop\n      pop\n      jump\t// out\n        /* \"#utility.yul\":28814:28985   */\n    tag_612:\n        /* \"#utility.yul\":28954:28977   */\n      0x4e4654206d75737420626520737570706f727465640000000000000000000000\n        /* \"#utility.yul\":28950:28951   */\n      0x00\n        /* \"#utility.yul\":28942:28948   */\n      dup3\n        /* \"#utility.yul\":28938:28952   */\n      add\n        /* \"#utility.yul\":28931:28978   */\n      mstore\n        /* \"#utility.yul\":28814:28985   */\n      pop\n      jump\t// out\n        /* \"#utility.yul\":28991:29357   */\n    tag_613:\n        /* \"#utility.yul\":29133:29136   */\n      0x00\n        /* \"#utility.yul\":29154:29221   */\n      tag_917\n        /* \"#utility.yul\":29218:29220   */\n      0x15\n        /* \"#utility.yul\":29213:29216   */\n      dup4\n        /* \"#utility.yul\":29154:29221   */\n      tag_585\n      jump\t// in\n    tag_917:\n        /* \"#utility.yul\":29147:29221   */\n      swap2\n      pop\n        /* \"#utility.yul\":29230:29323   */\n      tag_918\n        /* \"#utility.yul\":29319:29322   */\n      dup3\n        /* \"#utility.yul\":29230:29323   */\n      tag_612\n      jump\t// in\n    tag_918:\n        /* \"#utility.yul\":29348:29350   */\n      0x20\n        /* \"#utility.yul\":29343:29346   */\n      dup3\n        /* \"#utility.yul\":29339:29351   */\n      add\n        /* \"#utility.yul\":29332:29351   */\n      swap1\n      pop\n        /* \"#utility.yul\":28991:29357   */\n      swap2\n      swap1\n      pop\n      jump\t// out\n        /* \"#utility.yul\":29363:29782   */\n    tag_400:\n        /* \"#utility.yul\":29529:29533   */\n      0x00\n        /* \"#utility.yul\":29567:29569   */\n      0x20\n        /* \"#utility.yul\":29556:29565   */\n      dup3\n        /* \"#utility.yul\":29552:29570   */\n      add\n        /* \"#utility.yul\":29544:29570   */\n      swap1\n      pop\n        /* \"#utility.yul\":29616:29625   */\n      dup2\n        /* \"#utility.yul\":29610:29614   */\n      dup2\n        /* \"#utility.yul\":29606:29626   */\n      sub\n        /* \"#utility.yul\":29602:29603   */\n      0x00\n        /* \"#utility.yul\":29591:29600   */\n      dup4\n        /* \"#utility.yul\":29587:29604   */\n      add\n        /* \"#utility.yul\":29580:29627   */\n      mstore\n        /* \"#utility.yul\":29644:29775   */\n      tag_920\n        /* \"#utility.yul\":29770:29774   */\n      dup2\n        /* \"#utility.yul\":29644:29775   */\n      tag_613\n      jump\t// in\n    tag_920:\n        /* \"#utility.yul\":29636:29775   */\n      swap1\n      pop\n        /* \"#utility.yul\":29363:29782   */\n      swap2\n      swap1\n      pop\n      jump\t// out\n        /* \"#utility.yul\":29788:29964   */\n    tag_614:\n        /* \"#utility.yul\":29928:29956   */\n      0x43757272656e6379206d75737420626520737570706f72746564000000000000\n        /* \"#utility.yul\":29924:29925   */\n      0x00\n        /* \"#utility.yul\":29916:29922   */\n      dup3\n        /* \"#utility.yul\":29912:29926   */\n      add\n        /* \"#utility.yul\":29905:29957   */\n      mstore\n        /* \"#utility.yul\":29788:29964   */\n      pop\n      jump\t// out\n        /* \"#utility.yul\":29970:30336   */\n    tag_615:\n        /* \"#utility.yul\":30112:30115   */\n      0x00\n        /* \"#utility.yul\":30133:30200   */\n      tag_923\n        /* \"#utility.yul\":30197:30199   */\n      0x1a\n        /* \"#utility.yul\":30192:30195   */\n      dup4\n        /* \"#utility.yul\":30133:30200   */\n      tag_585\n      jump\t// in\n    tag_923:\n        /* \"#utility.yul\":30126:30200   */\n      swap2\n      pop\n        /* \"#utility.yul\":30209:30302   */\n      tag_924\n        /* \"#utility.yul\":30298:30301   */\n      dup3\n        /* \"#utility.yul\":30209:30302   */\n      tag_614\n      jump\t// in\n    tag_924:\n        /* \"#utility.yul\":30327:30329   */\n      0x20\n        /* \"#utility.yul\":30322:30325   */\n      dup3\n        /* \"#utility.yul\":30318:30330   */\n      add\n        /* \"#utility.yul\":30311:30330   */\n      swap1\n      pop\n        /* \"#utility.yul\":29970:30336   */\n      swap2\n      swap1\n      pop\n      jump\t// out\n        /* \"#utility.yul\":30342:30761   */\n    tag_403:\n        /* \"#utility.yul\":30508:30512   */\n      0x00\n        /* \"#utility.yul\":30546:30548   */\n      0x20\n        /* \"#utility.yul\":30535:30544   */\n      dup3\n        /* \"#utility.yul\":30531:30549   */\n      add\n        /* \"#utility.yul\":30523:30549   */\n      swap1\n      pop\n        /* \"#utility.yul\":30595:30604   */\n      dup2\n        /* \"#utility.yul\":30589:30593   */\n      dup2\n        /* \"#utility.yul\":30585:30605   */\n      sub\n        /* \"#utility.yul\":30581:30582   */\n      0x00\n        /* \"#utility.yul\":30570:30579   */\n      dup4\n        /* \"#utility.yul\":30566:30583   */\n      add\n        /* \"#utility.yul\":30559:30606   */\n      mstore\n        /* \"#utility.yul\":30623:30754   */\n      tag_926\n        /* \"#utility.yul\":30749:30753   */\n      dup2\n        /* \"#utility.yul\":30623:30754   */\n      tag_615\n      jump\t// in\n    tag_926:\n        /* \"#utility.yul\":30615:30754   */\n      swap1\n      pop\n        /* \"#utility.yul\":30342:30761   */\n      swap2\n      swap1\n      pop\n      jump\t// out\n        /* \"#utility.yul\":30767:30910   */\n    tag_616:\n        /* \"#utility.yul\":30824:30829   */\n      0x00\n        /* \"#utility.yul\":30855:30861   */\n      dup2\n        /* \"#utility.yul\":30849:30862   */\n      mload\n        /* \"#utility.yul\":30840:30862   */\n      swap1\n      pop\n        /* \"#utility.yul\":30871:30904   */\n      tag_928\n        /* \"#utility.yul\":30898:30903   */\n      dup2\n        /* \"#utility.yul\":30871:30904   */\n      tag_569\n      jump\t// in\n    tag_928:\n        /* \"#utility.yul\":30767:30910   */\n      swap3\n      swap2\n      pop\n      pop\n      jump\t// out\n        /* \"#utility.yul\":30916:31267   */\n    tag_408:\n        /* \"#utility.yul\":30986:30992   */\n      0x00\n        /* \"#utility.yul\":31035:31037   */\n      0x20\n        /* \"#utility.yul\":31023:31032   */\n      dup3\n        /* \"#utility.yul\":31014:31021   */\n      dup5\n        /* \"#utility.yul\":31010:31033   */\n      sub\n        /* \"#utility.yul\":31006:31038   */\n      slt\n        /* \"#utility.yul\":31003:31122   */\n      iszero\n      tag_930\n      jumpi\n        /* \"#utility.yul\":31041:31120   */\n      tag_931\n      tag_552\n      jump\t// in\n    tag_931:\n        /* \"#utility.yul\":31003:31122   */\n    tag_930:\n        /* \"#utility.yul\":31161:31162   */\n      0x00\n        /* \"#utility.yul\":31186:31250   */\n      tag_932\n        /* \"#utility.yul\":31242:31249   */\n      dup5\n        /* \"#utility.yul\":31233:31239   */\n      dup3\n        /* \"#utility.yul\":31222:31231   */\n      dup6\n        /* \"#utility.yul\":31218:31240   */\n      add\n        /* \"#utility.yul\":31186:31250   */\n      tag_616\n      jump\t// in\n    tag_932:\n        /* \"#utility.yul\":31176:31250   */\n      swap2\n      pop\n        /* \"#utility.yul\":31132:31260   */\n      pop\n        /* \"#utility.yul\":30916:31267   */\n      swap3\n      swap2\n      pop\n      pop\n      jump\t// out\n        /* \"#utility.yul\":31273:31443   */\n    tag_617:\n        /* \"#utility.yul\":31413:31435   */\n      0x4d757374206265206f776e6572206f66204e4654000000000000000000000000\n        /* \"#utility.yul\":31409:31410   */\n      0x00\n        /* \"#utility.yul\":31401:31407   */\n      dup3\n        /* \"#utility.yul\":31397:31411   */\n      add\n        /* \"#utility.yul\":31390:31436   */\n      mstore\n        /* \"#utility.yul\":31273:31443   */\n      pop\n      jump\t// out\n        /* \"#utility.yul\":31449:31815   */\n    tag_618:\n        /* \"#utility.yul\":31591:31594   */\n      0x00\n        /* \"#utility.yul\":31612:31679   */\n      tag_935\n        /* \"#utility.yul\":31676:31678   */\n      0x14\n        /* \"#utility.yul\":31671:31674   */\n      dup4\n        /* \"#utility.yul\":31612:31679   */\n      tag_585\n      jump\t// in\n    tag_935:\n        /* \"#utility.yul\":31605:31679   */\n      swap2\n      pop\n        /* \"#utility.yul\":31688:31781   */\n      tag_936\n        /* \"#utility.yul\":31777:31780   */\n      dup3\n        /* \"#utility.yul\":31688:31781   */\n      tag_617\n      jump\t// in\n    tag_936:\n        /* \"#utility.yul\":31806:31808   */\n      0x20\n        /* \"#utility.yul\":31801:31804   */\n      dup3\n        /* \"#utility.yul\":31797:31809   */\n      add\n        /* \"#utility.yul\":31790:31809   */\n      swap1\n      pop\n        /* \"#utility.yul\":31449:31815   */\n      swap2\n      swap1\n      pop\n      jump\t// out\n        /* \"#utility.yul\":31821:32240   */\n    tag_411:\n        /* \"#utility.yul\":31987:31991   */\n      0x00\n        /* \"#utility.yul\":32025:32027   */\n      0x20\n        /* \"#utility.yul\":32014:32023   */\n      dup3\n        /* \"#utility.yul\":32010:32028   */\n      add\n        /* \"#utility.yul\":32002:32028   */\n      swap1\n      pop\n        /* \"#utility.yul\":32074:32083   */\n      dup2\n        /* \"#utility.yul\":32068:32072   */\n      dup2\n        /* \"#utility.yul\":32064:32084   */\n      sub\n        /* \"#utility.yul\":32060:32061   */\n      0x00\n        /* \"#utility.yul\":32049:32058   */\n      dup4\n        /* \"#utility.yul\":32045:32062   */\n      add\n        /* \"#utility.yul\":32038:32085   */\n      mstore\n        /* \"#utility.yul\":32102:32233   */\n      tag_938\n        /* \"#utility.yul\":32228:32232   */\n      dup2\n        /* \"#utility.yul\":32102:32233   */\n      tag_618\n      jump\t// in\n    tag_938:\n        /* \"#utility.yul\":32094:32233   */\n      swap1\n      pop\n        /* \"#utility.yul\":31821:32240   */\n      swap2\n      swap1\n      pop\n      jump\t// out\n        /* \"#utility.yul\":32246:32409   */\n    tag_619:\n        /* \"#utility.yul\":32386:32401   */\n      0x507269636520696e76616c696400000000000000000000000000000000000000\n        /* \"#utility.yul\":32382:32383   */\n      0x00\n        /* \"#utility.yul\":32374:32380   */\n      dup3\n        /* \"#utility.yul\":32370:32384   */\n      add\n        /* \"#utility.yul\":32363:32402   */\n      mstore\n        /* \"#utility.yul\":32246:32409   */\n      pop\n      jump\t// out\n        /* \"#utility.yul\":32415:32781   */\n    tag_620:\n        /* \"#utility.yul\":32557:32560   */\n      0x00\n        /* \"#utility.yul\":32578:32645   */\n      tag_941\n        /* \"#utility.yul\":32642:32644   */\n      0x0d\n        /* \"#utility.yul\":32637:32640   */\n      dup4\n        /* \"#utility.yul\":32578:32645   */\n      tag_585\n      jump\t// in\n    tag_941:\n        /* \"#utility.yul\":32571:32645   */\n      swap2\n      pop\n        /* \"#utility.yul\":32654:32747   */\n      tag_942\n        /* \"#utility.yul\":32743:32746   */\n      dup3\n        /* \"#utility.yul\":32654:32747   */\n      tag_619\n      jump\t// in\n    tag_942:\n        /* \"#utility.yul\":32772:32774   */\n      0x20\n        /* \"#utility.yul\":32767:32770   */\n      dup3\n        /* \"#utility.yul\":32763:32775   */\n      add\n        /* \"#utility.yul\":32756:32775   */\n      swap1\n      pop\n        /* \"#utility.yul\":32415:32781   */\n      swap2\n      swap1\n      pop\n      jump\t// out\n        /* \"#utility.yul\":32787:33206   */\n    tag_414:\n        /* \"#utility.yul\":32953:32957   */\n      0x00\n        /* \"#utility.yul\":32991:32993   */\n      0x20\n        /* \"#utility.yul\":32980:32989   */\n      dup3\n        /* \"#utility.yul\":32976:32994   */\n      add\n        /* \"#utility.yul\":32968:32994   */\n      swap1\n      pop\n        /* \"#utility.yul\":33040:33049   */\n      dup2\n        /* \"#utility.yul\":33034:33038   */\n      dup2\n        /* \"#utility.yul\":33030:33050   */\n      sub\n        /* \"#utility.yul\":33026:33027   */\n      0x00\n        /* \"#utility.yul\":33015:33024   */\n      dup4\n        /* \"#utility.yul\":33011:33028   */\n      add\n        /* \"#utility.yul\":33004:33051   */\n      mstore\n        /* \"#utility.yul\":33068:33199   */\n      tag_944\n        /* \"#utility.yul\":33194:33198   */\n      dup2\n        /* \"#utility.yul\":33068:33199   */\n      tag_620\n      jump\t// in\n    tag_944:\n        /* \"#utility.yul\":33060:33199   */\n      swap1\n      pop\n        /* \"#utility.yul\":32787:33206   */\n      swap2\n      swap1\n      pop\n      jump\t// out\n        /* \"#utility.yul\":33212:33380   */\n    tag_621:\n        /* \"#utility.yul\":33352:33372   */\n      0x53706f7420707269636520696e76616c69640000000000000000000000000000\n        /* \"#utility.yul\":33348:33349   */\n      0x00\n        /* \"#utility.yul\":33340:33346   */\n      dup3\n        /* \"#utility.yul\":33336:33350   */\n      add\n        /* \"#utility.yul\":33329:33373   */\n      mstore\n        /* \"#utility.yul\":33212:33380   */\n      pop\n      jump\t// out\n        /* \"#utility.yul\":33386:33752   */\n    tag_622:\n        /* \"#utility.yul\":33528:33531   */\n      0x00\n        /* \"#utility.yul\":33549:33616   */\n      tag_947\n        /* \"#utility.yul\":33613:33615   */\n      0x12\n        /* \"#utility.yul\":33608:33611   */\n      dup4\n        /* \"#utility.yul\":33549:33616   */\n      tag_585\n      jump\t// in\n    tag_947:\n        /* \"#utility.yul\":33542:33616   */\n      swap2\n      pop\n        /* \"#utility.yul\":33625:33718   */\n      tag_948\n        /* \"#utility.yul\":33714:33717   */\n      dup3\n        /* \"#utility.yul\":33625:33718   */\n      tag_621\n      jump\t// in\n    tag_948:\n        /* \"#utility.yul\":33743:33745   */\n      0x20\n        /* \"#utility.yul\":33738:33741   */\n      dup3\n        /* \"#utility.yul\":33734:33746   */\n      add\n        /* \"#utility.yul\":33727:33746   */\n      swap1\n      pop\n        /* \"#utility.yul\":33386:33752   */\n      swap2\n      swap1\n      pop\n      jump\t// out\n        /* \"#utility.yul\":33758:34177   */\n    tag_418:\n        /* \"#utility.yul\":33924:33928   */\n      0x00\n        /* \"#utility.yul\":33962:33964   */\n      0x20\n        /* \"#utility.yul\":33951:33960   */\n      dup3\n        /* \"#utility.yul\":33947:33965   */\n      add\n        /* \"#utility.yul\":33939:33965   */\n      swap1\n      pop\n        /* \"#utility.yul\":34011:34020   */\n      dup2\n        /* \"#utility.yul\":34005:34009   */\n      dup2\n        /* \"#utility.yul\":34001:34021   */\n      sub\n        /* \"#utility.yul\":33997:33998   */\n      0x00\n        /* \"#utility.yul\":33986:33995   */\n      dup4\n        /* \"#utility.yul\":33982:33999   */\n      add\n        /* \"#utility.yul\":33975:34022   */\n      mstore\n        /* \"#utility.yul\":34039:34170   */\n      tag_950\n        /* \"#utility.yul\":34165:34169   */\n      dup2\n        /* \"#utility.yul\":34039:34170   */\n      tag_622\n      jump\t// in\n    tag_950:\n        /* \"#utility.yul\":34031:34170   */\n      swap1\n      pop\n        /* \"#utility.yul\":33758:34177   */\n      swap2\n      swap1\n      pop\n      jump\t// out\n        /* \"#utility.yul\":34183:34351   */\n    tag_623:\n        /* \"#utility.yul\":34323:34343   */\n      0x54696d65456e6420697320696e76616c69640000000000000000000000000000\n        /* \"#utility.yul\":34319:34320   */\n      0x00\n        /* \"#utility.yul\":34311:34317   */\n      dup3\n        /* \"#utility.yul\":34307:34321   */\n      add\n        /* \"#utility.yul\":34300:34344   */\n      mstore\n        /* \"#utility.yul\":34183:34351   */\n      pop\n      jump\t// out\n        /* \"#utility.yul\":34357:34723   */\n    tag_624:\n        /* \"#utility.yul\":34499:34502   */\n      0x00\n        /* \"#utility.yul\":34520:34587   */\n      tag_953\n        /* \"#utility.yul\":34584:34586   */\n      0x12\n        /* \"#utility.yul\":34579:34582   */\n      dup4\n        /* \"#utility.yul\":34520:34587   */\n      tag_585\n      jump\t// in\n    tag_953:\n        /* \"#utility.yul\":34513:34587   */\n      swap2\n      pop\n        /* \"#utility.yul\":34596:34689   */\n      tag_954\n        /* \"#utility.yul\":34685:34688   */\n      dup3\n        /* \"#utility.yul\":34596:34689   */\n      tag_623\n      jump\t// in\n    tag_954:\n        /* \"#utility.yul\":34714:34716   */\n      0x20\n        /* \"#utility.yul\":34709:34712   */\n      dup3\n        /* \"#utility.yul\":34705:34717   */\n      add\n        /* \"#utility.yul\":34698:34717   */\n      swap1\n      pop\n        /* \"#utility.yul\":34357:34723   */\n      swap2\n      swap1\n      pop\n      jump\t// out\n        /* \"#utility.yul\":34729:35148   */\n    tag_422:\n        /* \"#utility.yul\":34895:34899   */\n      0x00\n        /* \"#utility.yul\":34933:34935   */\n      0x20\n        /* \"#utility.yul\":34922:34931   */\n      dup3\n        /* \"#utility.yul\":34918:34936   */\n      add\n        /* \"#utility.yul\":34910:34936   */\n      swap1\n      pop\n        /* \"#utility.yul\":34982:34991   */\n      dup2\n        /* \"#utility.yul\":34976:34980   */\n      dup2\n        /* \"#utility.yul\":34972:34992   */\n      sub\n        /* \"#utility.yul\":34968:34969   */\n      0x00\n        /* \"#utility.yul\":34957:34966   */\n      dup4\n        /* \"#utility.yul\":34953:34970   */\n      add\n        /* \"#utility.yul\":34946:34993   */\n      mstore\n        /* \"#utility.yul\":35010:35141   */\n      tag_956\n        /* \"#utility.yul\":35136:35140   */\n      dup2\n        /* \"#utility.yul\":35010:35141   */\n      tag_624\n      jump\t// in\n    tag_956:\n        /* \"#utility.yul\":35002:35141   */\n      swap1\n      pop\n        /* \"#utility.yul\":34729:35148   */\n      swap2\n      swap1\n      pop\n      jump\t// out\n        /* \"#utility.yul\":35154:36262   */\n    tag_430:\n        /* \"#utility.yul\":35471:35475   */\n      0x00\n        /* \"#utility.yul\":35509:35512   */\n      0x0120\n        /* \"#utility.yul\":35498:35507   */\n      dup3\n        /* \"#utility.yul\":35494:35513   */\n      add\n        /* \"#utility.yul\":35486:35513   */\n      swap1\n      pop\n        /* \"#utility.yul\":35523:35594   */\n      tag_958\n        /* \"#utility.yul\":35591:35592   */\n      0x00\n        /* \"#utility.yul\":35580:35589   */\n      dup4\n        /* \"#utility.yul\":35576:35593   */\n      add\n        /* \"#utility.yul\":35567:35573   */\n      dup13\n        /* \"#utility.yul\":35523:35594   */\n      tag_560\n      jump\t// in\n    tag_958:\n        /* \"#utility.yul\":35604:35676   */\n      tag_959\n        /* \"#utility.yul\":35672:35674   */\n      0x20\n        /* \"#utility.yul\":35661:35670   */\n      dup4\n        /* \"#utility.yul\":35657:35675   */\n      add\n        /* \"#utility.yul\":35648:35654   */\n      dup12\n        /* \"#utility.yul\":35604:35676   */\n      tag_575\n      jump\t// in\n    tag_959:\n        /* \"#utility.yul\":35686:35758   */\n      tag_960\n        /* \"#utility.yul\":35754:35756   */\n      0x40\n        /* \"#utility.yul\":35743:35752   */\n      dup4\n        /* \"#utility.yul\":35739:35757   */\n      add\n        /* \"#utility.yul\":35730:35736   */\n      dup11\n        /* \"#utility.yul\":35686:35758   */\n      tag_575\n      jump\t// in\n    tag_960:\n        /* \"#utility.yul\":35768:35840   */\n      tag_961\n        /* \"#utility.yul\":35836:35838   */\n      0x60\n        /* \"#utility.yul\":35825:35834   */\n      dup4\n        /* \"#utility.yul\":35821:35839   */\n      add\n        /* \"#utility.yul\":35812:35818   */\n      dup10\n        /* \"#utility.yul\":35768:35840   */\n      tag_575\n      jump\t// in\n    tag_961:\n        /* \"#utility.yul\":35850:35923   */\n      tag_962\n        /* \"#utility.yul\":35918:35921   */\n      0x80\n        /* \"#utility.yul\":35907:35916   */\n      dup4\n        /* \"#utility.yul\":35903:35922   */\n      add\n        /* \"#utility.yul\":35894:35900   */\n      dup9\n        /* \"#utility.yul\":35850:35923   */\n      tag_560\n      jump\t// in\n    tag_962:\n        /* \"#utility.yul\":35933:36006   */\n      tag_963\n        /* \"#utility.yul\":36001:36004   */\n      0xa0\n        /* \"#utility.yul\":35990:35999   */\n      dup4\n        /* \"#utility.yul\":35986:36005   */\n      add\n        /* \"#utility.yul\":35977:35983   */\n      dup8\n        /* \"#utility.yul\":35933:36006   */\n      tag_560\n      jump\t// in\n    tag_963:\n        /* \"#utility.yul\":36016:36089   */\n      tag_964\n        /* \"#utility.yul\":36084:36087   */\n      0xc0\n        /* \"#utility.yul\":36073:36082   */\n      dup4\n        /* \"#utility.yul\":36069:36088   */\n      add\n        /* \"#utility.yul\":36060:36066   */\n      dup7\n        /* \"#utility.yul\":36016:36089   */\n      tag_560\n      jump\t// in\n    tag_964:\n        /* \"#utility.yul\":36099:36172   */\n      tag_965\n        /* \"#utility.yul\":36167:36170   */\n      0xe0\n        /* \"#utility.yul\":36156:36165   */\n      dup4\n        /* \"#utility.yul\":36152:36171   */\n      add\n        /* \"#utility.yul\":36143:36149   */\n      dup6\n        /* \"#utility.yul\":36099:36172   */\n      tag_560\n      jump\t// in\n    tag_965:\n        /* \"#utility.yul\":36182:36255   */\n      tag_966\n        /* \"#utility.yul\":36250:36253   */\n      0x0100\n        /* \"#utility.yul\":36239:36248   */\n      dup4\n        /* \"#utility.yul\":36235:36254   */\n      add\n        /* \"#utility.yul\":36226:36232   */\n      dup5\n        /* \"#utility.yul\":36182:36255   */\n      tag_560\n      jump\t// in\n    tag_966:\n        /* \"#utility.yul\":35154:36262   */\n      swap11\n      swap10\n      pop\n      pop\n      pop\n      pop\n      pop\n      pop\n      pop\n      pop\n      pop\n      pop\n      jump\t// out\n        /* \"#utility.yul\":36268:36416   */\n    tag_625:\n        /* \"#utility.yul\":36370:36381   */\n      0x00\n        /* \"#utility.yul\":36407:36410   */\n      dup2\n        /* \"#utility.yul\":36392:36410   */\n      swap1\n      pop\n        /* \"#utility.yul\":36268:36416   */\n      swap3\n      swap2\n      pop\n      pop\n      jump\t// out\n        /* \"#utility.yul\":36422:36595   */\n    tag_626:\n        /* \"#utility.yul\":36562:36587   */\n      0x416363657373436f6e74726f6c3a206163636f756e7420000000000000000000\n        /* \"#utility.yul\":36558:36559   */\n      0x00\n        /* \"#utility.yul\":36550:36556   */\n      dup3\n        /* \"#utility.yul\":36546:36560   */\n      add\n        /* \"#utility.yul\":36539:36588   */\n      mstore\n        /* \"#utility.yul\":36422:36595   */\n      pop\n      jump\t// out\n        /* \"#utility.yul\":36601:37003   */\n    tag_627:\n        /* \"#utility.yul\":36761:36764   */\n      0x00\n        /* \"#utility.yul\":36782:36867   */\n      tag_970\n        /* \"#utility.yul\":36864:36866   */\n      0x17\n        /* \"#utility.yul\":36859:36862   */\n      dup4\n        /* \"#utility.yul\":36782:36867   */\n      tag_625\n      jump\t// in\n    tag_970:\n        /* \"#utility.yul\":36775:36867   */\n      swap2\n      pop\n        /* \"#utility.yul\":36876:36969   */\n      tag_971\n        /* \"#utility.yul\":36965:36968   */\n      dup3\n        /* \"#utility.yul\":36876:36969   */\n      tag_626\n      jump\t// in\n    tag_971:\n        /* \"#utility.yul\":36994:36996   */\n      0x17\n        /* \"#utility.yul\":36989:36992   */\n      dup3\n        /* \"#utility.yul\":36985:36997   */\n      add\n        /* \"#utility.yul\":36978:36997   */\n      swap1\n      pop\n        /* \"#utility.yul\":36601:37003   */\n      swap2\n      swap1\n      pop\n      jump\t// out\n        /* \"#utility.yul\":37009:37108   */\n    tag_628:\n        /* \"#utility.yul\":37061:37067   */\n      0x00\n        /* \"#utility.yul\":37095:37100   */\n      dup2\n        /* \"#utility.yul\":37089:37101   */\n      mload\n        /* \"#utility.yul\":37079:37101   */\n      swap1\n      pop\n        /* \"#utility.yul\":37009:37108   */\n      swap2\n      swap1\n      pop\n      jump\t// out\n        /* \"#utility.yul\":37114:37421   */\n    tag_629:\n        /* \"#utility.yul\":37182:37183   */\n      0x00\n        /* \"#utility.yul\":37192:37305   */\n    tag_974:\n        /* \"#utility.yul\":37206:37212   */\n      dup4\n        /* \"#utility.yul\":37203:37204   */\n      dup2\n        /* \"#utility.yul\":37200:37213   */\n      lt\n        /* \"#utility.yul\":37192:37305   */\n      iszero\n      tag_976\n      jumpi\n        /* \"#utility.yul\":37291:37292   */\n      dup1\n        /* \"#utility.yul\":37286:37289   */\n      dup3\n        /* \"#utility.yul\":37282:37293   */\n      add\n        /* \"#utility.yul\":37276:37294   */\n      mload\n        /* \"#utility.yul\":37272:37273   */\n      dup2\n        /* \"#utility.yul\":37267:37270   */\n      dup5\n        /* \"#utility.yul\":37263:37274   */\n      add\n        /* \"#utility.yul\":37256:37295   */\n      mstore\n        /* \"#utility.yul\":37228:37230   */\n      0x20\n        /* \"#utility.yul\":37225:37226   */\n      dup2\n        /* \"#utility.yul\":37221:37231   */\n      add\n        /* \"#utility.yul\":37216:37231   */\n      swap1\n      pop\n        /* \"#utility.yul\":37192:37305   */\n      jump(tag_974)\n    tag_976:\n        /* \"#utility.yul\":37323:37329   */\n      dup4\n        /* \"#utility.yul\":37320:37321   */\n      dup2\n        /* \"#utility.yul\":37317:37330   */\n      gt\n        /* \"#utility.yul\":37314:37415   */\n      iszero\n      tag_977\n      jumpi\n        /* \"#utility.yul\":37403:37404   */\n      0x00\n        /* \"#utility.yul\":37394:37400   */\n      dup5\n        /* \"#utility.yul\":37389:37392   */\n      dup5\n        /* \"#utility.yul\":37385:37401   */\n      add\n        /* \"#utility.yul\":37378:37405   */\n      mstore\n        /* \"#utility.yul\":37314:37415   */\n    tag_977:\n        /* \"#utility.yul\":37163:37421   */\n      pop\n        /* \"#utility.yul\":37114:37421   */\n      pop\n      pop\n      pop\n      jump\t// out\n        /* \"#utility.yul\":37427:37804   */\n    tag_630:\n        /* \"#utility.yul\":37533:37536   */\n      0x00\n        /* \"#utility.yul\":37561:37600   */\n      tag_979\n        /* \"#utility.yul\":37594:37599   */\n      dup3\n        /* \"#utility.yul\":37561:37600   */\n      tag_628\n      jump\t// in\n    tag_979:\n        /* \"#utility.yul\":37616:37705   */\n      tag_980\n        /* \"#utility.yul\":37698:37704   */\n      dup2\n        /* \"#utility.yul\":37693:37696   */\n      dup6\n        /* \"#utility.yul\":37616:37705   */\n      tag_625\n      jump\t// in\n    tag_980:\n        /* \"#utility.yul\":37609:37705   */\n      swap4\n      pop\n        /* \"#utility.yul\":37714:37766   */\n      tag_981\n        /* \"#utility.yul\":37759:37765   */\n      dup2\n        /* \"#utility.yul\":37754:37757   */\n      dup6\n        /* \"#utility.yul\":37747:37751   */\n      0x20\n        /* \"#utility.yul\":37740:37745   */\n      dup7\n        /* \"#utility.yul\":37736:37752   */\n      add\n        /* \"#utility.yul\":37714:37766   */\n      tag_629\n      jump\t// in\n    tag_981:\n        /* \"#utility.yul\":37791:37797   */\n      dup1\n        /* \"#utility.yul\":37786:37789   */\n      dup5\n        /* \"#utility.yul\":37782:37798   */\n      add\n        /* \"#utility.yul\":37775:37798   */\n      swap2\n      pop\n        /* \"#utility.yul\":37537:37804   */\n      pop\n        /* \"#utility.yul\":37427:37804   */\n      swap3\n      swap2\n      pop\n      pop\n      jump\t// out\n        /* \"#utility.yul\":37810:37977   */\n    tag_631:\n        /* \"#utility.yul\":37950:37969   */\n      0x206973206d697373696e6720726f6c6520000000000000000000000000000000\n        /* \"#utility.yul\":37946:37947   */\n      0x00\n        /* \"#utility.yul\":37938:37944   */\n      dup3\n        /* \"#utility.yul\":37934:37948   */\n      add\n        /* \"#utility.yul\":37927:37970   */\n      mstore\n        /* \"#utility.yul\":37810:37977   */\n      pop\n      jump\t// out\n        /* \"#utility.yul\":37983:38385   */\n    tag_632:\n        /* \"#utility.yul\":38143:38146   */\n      0x00\n        /* \"#utility.yul\":38164:38249   */\n      tag_984\n        /* \"#utility.yul\":38246:38248   */\n      0x11\n        /* \"#utility.yul\":38241:38244   */\n      dup4\n        /* \"#utility.yul\":38164:38249   */\n      tag_625\n      jump\t// in\n    tag_984:\n        /* \"#utility.yul\":38157:38249   */\n      swap2\n      pop\n        /* \"#utility.yul\":38258:38351   */\n      tag_985\n        /* \"#utility.yul\":38347:38350   */\n      dup3\n        /* \"#utility.yul\":38258:38351   */\n      tag_631\n      jump\t// in\n    tag_985:\n        /* \"#utility.yul\":38376:38378   */\n      0x11\n        /* \"#utility.yul\":38371:38374   */\n      dup3\n        /* \"#utility.yul\":38367:38379   */\n      add\n        /* \"#utility.yul\":38360:38379   */\n      swap1\n      pop\n        /* \"#utility.yul\":37983:38385   */\n      swap2\n      swap1\n      pop\n      jump\t// out\n        /* \"#utility.yul\":38391:39358   */\n    tag_456:\n        /* \"#utility.yul\":38773:38776   */\n      0x00\n        /* \"#utility.yul\":38795:38943   */\n      tag_987\n        /* \"#utility.yul\":38939:38942   */\n      dup3\n        /* \"#utility.yul\":38795:38943   */\n      tag_627\n      jump\t// in\n    tag_987:\n        /* \"#utility.yul\":38788:38943   */\n      swap2\n      pop\n        /* \"#utility.yul\":38960:39055   */\n      tag_988\n        /* \"#utility.yul\":39051:39054   */\n      dup3\n        /* \"#utility.yul\":39042:39048   */\n      dup6\n        /* \"#utility.yul\":38960:39055   */\n      tag_630\n      jump\t// in\n    tag_988:\n        /* \"#utility.yul\":38953:39055   */\n      swap2\n      pop\n        /* \"#utility.yul\":39072:39220   */\n      tag_989\n        /* \"#utility.yul\":39216:39219   */\n      dup3\n        /* \"#utility.yul\":39072:39220   */\n      tag_632\n      jump\t// in\n    tag_989:\n        /* \"#utility.yul\":39065:39220   */\n      swap2\n      pop\n        /* \"#utility.yul\":39237:39332   */\n      tag_990\n        /* \"#utility.yul\":39328:39331   */\n      dup3\n        /* \"#utility.yul\":39319:39325   */\n      dup5\n        /* \"#utility.yul\":39237:39332   */\n      tag_630\n      jump\t// in\n    tag_990:\n        /* \"#utility.yul\":39230:39332   */\n      swap2\n      pop\n        /* \"#utility.yul\":39349:39352   */\n      dup2\n        /* \"#utility.yul\":39342:39352   */\n      swap1\n      pop\n        /* \"#utility.yul\":38391:39358   */\n      swap4\n      swap3\n      pop\n      pop\n      pop\n      jump\t// out\n        /* \"#utility.yul\":39364:39728   */\n    tag_633:\n        /* \"#utility.yul\":39452:39455   */\n      0x00\n        /* \"#utility.yul\":39480:39519   */\n      tag_992\n        /* \"#utility.yul\":39513:39518   */\n      dup3\n        /* \"#utility.yul\":39480:39519   */\n      tag_628\n      jump\t// in\n    tag_992:\n        /* \"#utility.yul\":39535:39606   */\n      tag_993\n        /* \"#utility.yul\":39599:39605   */\n      dup2\n        /* \"#utility.yul\":39594:39597   */\n      dup6\n        /* \"#utility.yul\":39535:39606   */\n      tag_585\n      jump\t// in\n    tag_993:\n        /* \"#utility.yul\":39528:39606   */\n      swap4\n      pop\n        /* \"#utility.yul\":39615:39667   */\n      tag_994\n        /* \"#utility.yul\":39660:39666   */\n      dup2\n        /* \"#utility.yul\":39655:39658   */\n      dup6\n        /* \"#utility.yul\":39648:39652   */\n      0x20\n        /* \"#utility.yul\":39641:39646   */\n      dup7\n        /* \"#utility.yul\":39637:39653   */\n      add\n        /* \"#utility.yul\":39615:39667   */\n      tag_629\n      jump\t// in\n    tag_994:\n        /* \"#utility.yul\":39692:39721   */\n      tag_995\n        /* \"#utility.yul\":39714:39720   */\n      dup2\n        /* \"#utility.yul\":39692:39721   */\n      tag_578\n      jump\t// in\n    tag_995:\n        /* \"#utility.yul\":39687:39690   */\n      dup5\n        /* \"#utility.yul\":39683:39722   */\n      add\n        /* \"#utility.yul\":39676:39722   */\n      swap2\n      pop\n        /* \"#utility.yul\":39456:39728   */\n      pop\n        /* \"#utility.yul\":39364:39728   */\n      swap3\n      swap2\n      pop\n      pop\n      jump\t// out\n        /* \"#utility.yul\":39734:40047   */\n    tag_458:\n        /* \"#utility.yul\":39847:39851   */\n      0x00\n        /* \"#utility.yul\":39885:39887   */\n      0x20\n        /* \"#utility.yul\":39874:39883   */\n      dup3\n        /* \"#utility.yul\":39870:39888   */\n      add\n        /* \"#utility.yul\":39862:39888   */\n      swap1\n      pop\n        /* \"#utility.yul\":39934:39943   */\n      dup2\n        /* \"#utility.yul\":39928:39932   */\n      dup2\n        /* \"#utility.yul\":39924:39944   */\n      sub\n        /* \"#utility.yul\":39920:39921   */\n      0x00\n        /* \"#utility.yul\":39909:39918   */\n      dup4\n        /* \"#utility.yul\":39905:39922   */\n      add\n        /* \"#utility.yul\":39898:39945   */\n      mstore\n        /* \"#utility.yul\":39962:40040   */\n      tag_997\n        /* \"#utility.yul\":40035:40039   */\n      dup2\n        /* \"#utility.yul\":40026:40032   */\n      dup5\n        /* \"#utility.yul\":39962:40040   */\n      tag_633\n      jump\t// in\n    tag_997:\n        /* \"#utility.yul\":39954:40040   */\n      swap1\n      pop\n        /* \"#utility.yul\":39734:40047   */\n      swap3\n      swap2\n      pop\n      pop\n      jump\t// out\n        /* \"#utility.yul\":40053:40223   */\n    tag_634:\n        /* \"#utility.yul\":40193:40215   */\n      0x5061757361626c653a206e6f7420706175736564000000000000000000000000\n        /* \"#utility.yul\":40189:40190   */\n      0x00\n        /* \"#utility.yul\":40181:40187   */\n      dup3\n        /* \"#utility.yul\":40177:40191   */\n      add\n        /* \"#utility.yul\":40170:40216   */\n      mstore\n        /* \"#utility.yul\":40053:40223   */\n      pop\n      jump\t// out\n        /* \"#utility.yul\":40229:40595   */\n    tag_635:\n        /* \"#utility.yul\":40371:40374   */\n      0x00\n        /* \"#utility.yul\":40392:40459   */\n      tag_1000\n        /* \"#utility.yul\":40456:40458   */\n      0x14\n        /* \"#utility.yul\":40451:40454   */\n      dup4\n        /* \"#utility.yul\":40392:40459   */\n      tag_585\n      jump\t// in\n    tag_1000:\n        /* \"#utility.yul\":40385:40459   */\n      swap2\n      pop\n        /* \"#utility.yul\":40468:40561   */\n      tag_1001\n        /* \"#utility.yul\":40557:40560   */\n      dup3\n        /* \"#utility.yul\":40468:40561   */\n      tag_634\n      jump\t// in\n    tag_1001:\n        /* \"#utility.yul\":40586:40588   */\n      0x20\n        /* \"#utility.yul\":40581:40584   */\n      dup3\n        /* \"#utility.yul\":40577:40589   */\n      add\n        /* \"#utility.yul\":40570:40589   */\n      swap1\n      pop\n        /* \"#utility.yul\":40229:40595   */\n      swap2\n      swap1\n      pop\n      jump\t// out\n        /* \"#utility.yul\":40601:41020   */\n    tag_471:\n        /* \"#utility.yul\":40767:40771   */\n      0x00\n        /* \"#utility.yul\":40805:40807   */\n      0x20\n        /* \"#utility.yul\":40794:40803   */\n      dup3\n        /* \"#utility.yul\":40790:40808   */\n      add\n        /* \"#utility.yul\":40782:40808   */\n      swap1\n      pop\n        /* \"#utility.yul\":40854:40863   */\n      dup2\n        /* \"#utility.yul\":40848:40852   */\n      dup2\n        /* \"#utility.yul\":40844:40864   */\n      sub\n        /* \"#utility.yul\":40840:40841   */\n      0x00\n        /* \"#utility.yul\":40829:40838   */\n      dup4\n        /* \"#utility.yul\":40825:40842   */\n      add\n        /* \"#utility.yul\":40818:40865   */\n      mstore\n        /* \"#utility.yul\":40882:41013   */\n      tag_1003\n        /* \"#utility.yul\":41008:41012   */\n      dup2\n        /* \"#utility.yul\":40882:41013   */\n      tag_635\n      jump\t// in\n    tag_1003:\n        /* \"#utility.yul\":40874:41013   */\n      swap1\n      pop\n        /* \"#utility.yul\":40601:41020   */\n      swap2\n      swap1\n      pop\n      jump\t// out\n        /* \"#utility.yul\":41026:41248   */\n    tag_475:\n        /* \"#utility.yul\":41119:41123   */\n      0x00\n        /* \"#utility.yul\":41157:41159   */\n      0x20\n        /* \"#utility.yul\":41146:41155   */\n      dup3\n        /* \"#utility.yul\":41142:41160   */\n      add\n        /* \"#utility.yul\":41134:41160   */\n      swap1\n      pop\n        /* \"#utility.yul\":41170:41241   */\n      tag_1005\n        /* \"#utility.yul\":41238:41239   */\n      0x00\n        /* \"#utility.yul\":41227:41236   */\n      dup4\n        /* \"#utility.yul\":41223:41240   */\n      add\n        /* \"#utility.yul\":41214:41220   */\n      dup5\n        /* \"#utility.yul\":41170:41241   */\n      tag_575\n      jump\t// in\n    tag_1005:\n        /* \"#utility.yul\":41026:41248   */\n      swap3\n      swap2\n      pop\n      pop\n      jump\t// out\n        /* \"#utility.yul\":41254:41586   */\n    tag_490:\n        /* \"#utility.yul\":41375:41379   */\n      0x00\n        /* \"#utility.yul\":41413:41415   */\n      0x40\n        /* \"#utility.yul\":41402:41411   */\n      dup3\n        /* \"#utility.yul\":41398:41416   */\n      add\n        /* \"#utility.yul\":41390:41416   */\n      swap1\n      pop\n        /* \"#utility.yul\":41426:41497   */\n      tag_1007\n        /* \"#utility.yul\":41494:41495   */\n      0x00\n        /* \"#utility.yul\":41483:41492   */\n      dup4\n        /* \"#utility.yul\":41479:41496   */\n      add\n        /* \"#utility.yul\":41470:41476   */\n      dup6\n        /* \"#utility.yul\":41426:41497   */\n      tag_575\n      jump\t// in\n    tag_1007:\n        /* \"#utility.yul\":41507:41579   */\n      tag_1008\n        /* \"#utility.yul\":41575:41577   */\n      0x20\n        /* \"#utility.yul\":41564:41573   */\n      dup4\n        /* \"#utility.yul\":41560:41578   */\n      add\n        /* \"#utility.yul\":41551:41557   */\n      dup5\n        /* \"#utility.yul\":41507:41579   */\n      tag_560\n      jump\t// in\n    tag_1008:\n        /* \"#utility.yul\":41254:41586   */\n      swap4\n      swap3\n      pop\n      pop\n      pop\n      jump\t// out\n        /* \"#utility.yul\":41592:41763   */\n    tag_512:\n        /* \"#utility.yul\":41631:41634   */\n      0x00\n        /* \"#utility.yul\":41654:41678   */\n      tag_1010\n        /* \"#utility.yul\":41672:41677   */\n      dup3\n        /* \"#utility.yul\":41654:41678   */\n      tag_559\n      jump\t// in\n    tag_1010:\n        /* \"#utility.yul\":41645:41678   */\n      swap2\n      pop\n        /* \"#utility.yul\":41700:41704   */\n      0x00\n        /* \"#utility.yul\":41693:41698   */\n      dup3\n        /* \"#utility.yul\":41690:41705   */\n      sub\n        /* \"#utility.yul\":41687:41728   */\n      tag_1011\n      jumpi\n        /* \"#utility.yul\":41708:41726   */\n      tag_1012\n      tag_594\n      jump\t// in\n    tag_1012:\n        /* \"#utility.yul\":41687:41728   */\n    tag_1011:\n        /* \"#utility.yul\":41755:41756   */\n      0x01\n        /* \"#utility.yul\":41748:41753   */\n      dup3\n        /* \"#utility.yul\":41744:41757   */\n      sub\n        /* \"#utility.yul\":41737:41757   */\n      swap1\n      pop\n        /* \"#utility.yul\":41592:41763   */\n      swap2\n      swap1\n      pop\n      jump\t// out\n        /* \"#utility.yul\":41769:41951   */\n    tag_636:\n        /* \"#utility.yul\":41909:41943   */\n      0x537472696e67733a20686578206c656e67746820696e73756666696369656e74\n        /* \"#utility.yul\":41905:41906   */\n      0x00\n        /* \"#utility.yul\":41897:41903   */\n      dup3\n        /* \"#utility.yul\":41893:41907   */\n      add\n        /* \"#utility.yul\":41886:41944   */\n      mstore\n        /* \"#utility.yul\":41769:41951   */\n      pop\n      jump\t// out\n        /* \"#utility.yul\":41957:42323   */\n    tag_637:\n        /* \"#utility.yul\":42099:42102   */\n      0x00\n        /* \"#utility.yul\":42120:42187   */\n      tag_1015\n        /* \"#utility.yul\":42184:42186   */\n      0x20\n        /* \"#utility.yul\":42179:42182   */\n      dup4\n        /* \"#utility.yul\":42120:42187   */\n      tag_585\n      jump\t// in\n    tag_1015:\n        /* \"#utility.yul\":42113:42187   */\n      swap2\n      pop\n        /* \"#utility.yul\":42196:42289   */\n      tag_1016\n        /* \"#utility.yul\":42285:42288   */\n      dup3\n        /* \"#utility.yul\":42196:42289   */\n      tag_636\n      jump\t// in\n    tag_1016:\n        /* \"#utility.yul\":42314:42316   */\n      0x20\n        /* \"#utility.yul\":42309:42312   */\n      dup3\n        /* \"#utility.yul\":42305:42317   */\n      add\n        /* \"#utility.yul\":42298:42317   */\n      swap1\n      pop\n        /* \"#utility.yul\":41957:42323   */\n      swap2\n      swap1\n      pop\n      jump\t// out\n        /* \"#utility.yul\":42329:42748   */\n    tag_515:\n        /* \"#utility.yul\":42495:42499   */\n      0x00\n        /* \"#utility.yul\":42533:42535   */\n      0x20\n        /* \"#utility.yul\":42522:42531   */\n      dup3\n        /* \"#utility.yul\":42518:42536   */\n      add\n        /* \"#utility.yul\":42510:42536   */\n      swap1\n      pop\n        /* \"#utility.yul\":42582:42591   */\n      dup2\n        /* \"#utility.yul\":42576:42580   */\n      dup2\n        /* \"#utility.yul\":42572:42592   */\n      sub\n        /* \"#utility.yul\":42568:42569   */\n      0x00\n        /* \"#utility.yul\":42557:42566   */\n      dup4\n        /* \"#utility.yul\":42553:42570   */\n      add\n        /* \"#utility.yul\":42546:42593   */\n      mstore\n        /* \"#utility.yul\":42610:42741   */\n      tag_1018\n        /* \"#utility.yul\":42736:42740   */\n      dup2\n        /* \"#utility.yul\":42610:42741   */\n      tag_637\n      jump\t// in\n    tag_1018:\n        /* \"#utility.yul\":42602:42741   */\n      swap1\n      pop\n        /* \"#utility.yul\":42329:42748   */\n      swap2\n      swap1\n      pop\n      jump\t// out\n        /* \"#utility.yul\":42754:42891   */\n    tag_638:\n        /* \"#utility.yul\":42808:42813   */\n      0x00\n        /* \"#utility.yul\":42839:42845   */\n      dup2\n        /* \"#utility.yul\":42833:42846   */\n      mload\n        /* \"#utility.yul\":42824:42846   */\n      swap1\n      pop\n        /* \"#utility.yul\":42855:42885   */\n      tag_1020\n        /* \"#utility.yul\":42879:42884   */\n      dup2\n        /* \"#utility.yul\":42855:42885   */\n      tag_571\n      jump\t// in\n    tag_1020:\n        /* \"#utility.yul\":42754:42891   */\n      swap3\n      swap2\n      pop\n      pop\n      jump\t// out\n        /* \"#utility.yul\":42897:43242   */\n    tag_521:\n        /* \"#utility.yul\":42964:42970   */\n      0x00\n        /* \"#utility.yul\":43013:43015   */\n      0x20\n        /* \"#utility.yul\":43001:43010   */\n      dup3\n        /* \"#utility.yul\":42992:42999   */\n      dup5\n        /* \"#utility.yul\":42988:43011   */\n      sub\n        /* \"#utility.yul\":42984:43016   */\n      slt\n        /* \"#utility.yul\":42981:43100   */\n      iszero\n      tag_1022\n      jumpi\n        /* \"#utility.yul\":43019:43098   */\n      tag_1023\n      tag_552\n      jump\t// in\n    tag_1023:\n        /* \"#utility.yul\":42981:43100   */\n    tag_1022:\n        /* \"#utility.yul\":43139:43140   */\n      0x00\n        /* \"#utility.yul\":43164:43225   */\n      tag_1024\n        /* \"#utility.yul\":43217:43224   */\n      dup5\n        /* \"#utility.yul\":43208:43214   */\n      dup3\n        /* \"#utility.yul\":43197:43206   */\n      dup6\n        /* \"#utility.yul\":43193:43215   */\n      add\n        /* \"#utility.yul\":43164:43225   */\n      tag_638\n      jump\t// in\n    tag_1024:\n        /* \"#utility.yul\":43154:43225   */\n      swap2\n      pop\n        /* \"#utility.yul\":43110:43235   */\n      pop\n        /* \"#utility.yul\":42897:43242   */\n      swap3\n      swap2\n      pop\n      pop\n      jump\t// out\n        /* \"#utility.yul\":43248:43477   */\n    tag_639:\n        /* \"#utility.yul\":43388:43422   */\n      0x5361666545524332303a204552433230206f7065726174696f6e20646964206e\n        /* \"#utility.yul\":43384:43385   */\n      0x00\n        /* \"#utility.yul\":43376:43382   */\n      dup3\n        /* \"#utility.yul\":43372:43386   */\n      add\n        /* \"#utility.yul\":43365:43423   */\n      mstore\n        /* \"#utility.yul\":43457:43469   */\n      0x6f74207375636365656400000000000000000000000000000000000000000000\n        /* \"#utility.yul\":43452:43454   */\n      0x20\n        /* \"#utility.yul\":43444:43450   */\n      dup3\n        /* \"#utility.yul\":43440:43455   */\n      add\n        /* \"#utility.yul\":43433:43470   */\n      mstore\n        /* \"#utility.yul\":43248:43477   */\n      pop\n      jump\t// out\n        /* \"#utility.yul\":43483:43849   */\n    tag_640:\n        /* \"#utility.yul\":43625:43628   */\n      0x00\n        /* \"#utility.yul\":43646:43713   */\n      tag_1027\n        /* \"#utility.yul\":43710:43712   */\n      0x2a\n        /* \"#utility.yul\":43705:43708   */\n      dup4\n        /* \"#utility.yul\":43646:43713   */\n      tag_585\n      jump\t// in\n    tag_1027:\n        /* \"#utility.yul\":43639:43713   */\n      swap2\n      pop\n        /* \"#utility.yul\":43722:43815   */\n      tag_1028\n        /* \"#utility.yul\":43811:43814   */\n      dup3\n        /* \"#utility.yul\":43722:43815   */\n      tag_639\n      jump\t// in\n    tag_1028:\n        /* \"#utility.yul\":43840:43842   */\n      0x40\n        /* \"#utility.yul\":43835:43838   */\n      dup3\n        /* \"#utility.yul\":43831:43843   */\n      add\n        /* \"#utility.yul\":43824:43843   */\n      swap1\n      pop\n        /* \"#utility.yul\":43483:43849   */\n      swap2\n      swap1\n      pop\n      jump\t// out\n        /* \"#utility.yul\":43855:44274   */\n    tag_524:\n        /* \"#utility.yul\":44021:44025   */\n      0x00\n        /* \"#utility.yul\":44059:44061   */\n      0x20\n        /* \"#utility.yul\":44048:44057   */\n      dup3\n        /* \"#utility.yul\":44044:44062   */\n      add\n        /* \"#utility.yul\":44036:44062   */\n      swap1\n      pop\n        /* \"#utility.yul\":44108:44117   */\n      dup2\n        /* \"#utility.yul\":44102:44106   */\n      dup2\n        /* \"#utility.yul\":44098:44118   */\n      sub\n        /* \"#utility.yul\":44094:44095   */\n      0x00\n        /* \"#utility.yul\":44083:44092   */\n      dup4\n        /* \"#utility.yul\":44079:44096   */\n      add\n        /* \"#utility.yul\":44072:44119   */\n      mstore\n        /* \"#utility.yul\":44136:44267   */\n      tag_1030\n        /* \"#utility.yul\":44262:44266   */\n      dup2\n        /* \"#utility.yul\":44136:44267   */\n      tag_640\n      jump\t// in\n    tag_1030:\n        /* \"#utility.yul\":44128:44267   */\n      swap1\n      pop\n        /* \"#utility.yul\":43855:44274   */\n      swap2\n      swap1\n      pop\n      jump\t// out\n        /* \"#utility.yul\":44280:44505   */\n    tag_641:\n        /* \"#utility.yul\":44420:44454   */\n      0x416464726573733a20696e73756666696369656e742062616c616e636520666f\n        /* \"#utility.yul\":44416:44417   */\n      0x00\n        /* \"#utility.yul\":44408:44414   */\n      dup3\n        /* \"#utility.yul\":44404:44418   */\n      add\n        /* \"#utility.yul\":44397:44455   */\n      mstore\n        /* \"#utility.yul\":44489:44497   */\n      0x722063616c6c0000000000000000000000000000000000000000000000000000\n        /* \"#utility.yul\":44484:44486   */\n      0x20\n        /* \"#utility.yul\":44476:44482   */\n      dup3\n        /* \"#utility.yul\":44472:44487   */\n      add\n        /* \"#utility.yul\":44465:44498   */\n      mstore\n        /* \"#utility.yul\":44280:44505   */\n      pop\n      jump\t// out\n        /* \"#utility.yul\":44511:44877   */\n    tag_642:\n        /* \"#utility.yul\":44653:44656   */\n      0x00\n        /* \"#utility.yul\":44674:44741   */\n      tag_1033\n        /* \"#utility.yul\":44738:44740   */\n      0x26\n        /* \"#utility.yul\":44733:44736   */\n      dup4\n        /* \"#utility.yul\":44674:44741   */\n      tag_585\n      jump\t// in\n    tag_1033:\n        /* \"#utility.yul\":44667:44741   */\n      swap2\n      pop\n        /* \"#utility.yul\":44750:44843   */\n      tag_1034\n        /* \"#utility.yul\":44839:44842   */\n      dup3\n        /* \"#utility.yul\":44750:44843   */\n      tag_641\n      jump\t// in\n    tag_1034:\n        /* \"#utility.yul\":44868:44870   */\n      0x40\n        /* \"#utility.yul\":44863:44866   */\n      dup3\n        /* \"#utility.yul\":44859:44871   */\n      add\n        /* \"#utility.yul\":44852:44871   */\n      swap1\n      pop\n        /* \"#utility.yul\":44511:44877   */\n      swap2\n      swap1\n      pop\n      jump\t// out\n        /* \"#utility.yul\":44883:45302   */\n    tag_531:\n        /* \"#utility.yul\":45049:45053   */\n      0x00\n        /* \"#utility.yul\":45087:45089   */\n      0x20\n        /* \"#utility.yul\":45076:45085   */\n      dup3\n        /* \"#utility.yul\":45072:45090   */\n      add\n        /* \"#utility.yul\":45064:45090   */\n      swap1\n      pop\n        /* \"#utility.yul\":45136:45145   */\n      dup2\n        /* \"#utility.yul\":45130:45134   */\n      dup2\n        /* \"#utility.yul\":45126:45146   */\n      sub\n        /* \"#utility.yul\":45122:45123   */\n      0x00\n        /* \"#utility.yul\":45111:45120   */\n      dup4\n        /* \"#utility.yul\":45107:45124   */\n      add\n        /* \"#utility.yul\":45100:45147   */\n      mstore\n        /* \"#utility.yul\":45164:45295   */\n      tag_1036\n        /* \"#utility.yul\":45290:45294   */\n      dup2\n        /* \"#utility.yul\":45164:45295   */\n      tag_642\n      jump\t// in\n    tag_1036:\n        /* \"#utility.yul\":45156:45295   */\n      swap1\n      pop\n        /* \"#utility.yul\":44883:45302   */\n      swap2\n      swap1\n      pop\n      jump\t// out\n        /* \"#utility.yul\":45308:45487   */\n    tag_643:\n        /* \"#utility.yul\":45448:45479   */\n      0x416464726573733a2063616c6c20746f206e6f6e2d636f6e7472616374000000\n        /* \"#utility.yul\":45444:45445   */\n      0x00\n        /* \"#utility.yul\":45436:45442   */\n      dup3\n        /* \"#utility.yul\":45432:45446   */\n      add\n        /* \"#utility.yul\":45425:45480   */\n      mstore\n        /* \"#utility.yul\":45308:45487   */\n      pop\n      jump\t// out\n        /* \"#utility.yul\":45493:45859   */\n    tag_644:\n        /* \"#utility.yul\":45635:45638   */\n      0x00\n        /* \"#utility.yul\":45656:45723   */\n      tag_1039\n        /* \"#utility.yul\":45720:45722   */\n      0x1d\n        /* \"#utility.yul\":45715:45718   */\n      dup4\n        /* \"#utility.yul\":45656:45723   */\n      tag_585\n      jump\t// in\n    tag_1039:\n        /* \"#utility.yul\":45649:45723   */\n      swap2\n      pop\n        /* \"#utility.yul\":45732:45825   */\n      tag_1040\n        /* \"#utility.yul\":45821:45824   */\n      dup3\n        /* \"#utility.yul\":45732:45825   */\n      tag_643\n      jump\t// in\n    tag_1040:\n        /* \"#utility.yul\":45850:45852   */\n      0x20\n        /* \"#utility.yul\":45845:45848   */\n      dup3\n        /* \"#utility.yul\":45841:45853   */\n      add\n        /* \"#utility.yul\":45834:45853   */\n      swap1\n      pop\n        /* \"#utility.yul\":45493:45859   */\n      swap2\n      swap1\n      pop\n      jump\t// out\n        /* \"#utility.yul\":45865:46284   */\n    tag_536:\n        /* \"#utility.yul\":46031:46035   */\n      0x00\n        /* \"#utility.yul\":46069:46071   */\n      0x20\n        /* \"#utility.yul\":46058:46067   */\n      dup3\n        /* \"#utility.yul\":46054:46072   */\n      add\n        /* \"#utility.yul\":46046:46072   */\n      swap1\n      pop\n        /* \"#utility.yul\":46118:46127   */\n      dup2\n        /* \"#utility.yul\":46112:46116   */\n      dup2\n        /* \"#utility.yul\":46108:46128   */\n      sub\n        /* \"#utility.yul\":46104:46105   */\n      0x00\n        /* \"#utility.yul\":46093:46102   */\n      dup4\n        /* \"#utility.yul\":46089:46106   */\n      add\n        /* \"#utility.yul\":46082:46129   */\n      mstore\n        /* \"#utility.yul\":46146:46277   */\n      tag_1042\n        /* \"#utility.yul\":46272:46276   */\n      dup2\n        /* \"#utility.yul\":46146:46277   */\n      tag_644\n      jump\t// in\n    tag_1042:\n        /* \"#utility.yul\":46138:46277   */\n      swap1\n      pop\n        /* \"#utility.yul\":45865:46284   */\n      swap2\n      swap1\n      pop\n      jump\t// out\n        /* \"#utility.yul\":46290:46388   */\n    tag_645:\n        /* \"#utility.yul\":46341:46347   */\n      0x00\n        /* \"#utility.yul\":46375:46380   */\n      dup2\n        /* \"#utility.yul\":46369:46381   */\n      mload\n        /* \"#utility.yul\":46359:46381   */\n      swap1\n      pop\n        /* \"#utility.yul\":46290:46388   */\n      swap2\n      swap1\n      pop\n      jump\t// out\n        /* \"#utility.yul\":46394:46541   */\n    tag_646:\n        /* \"#utility.yul\":46495:46506   */\n      0x00\n        /* \"#utility.yul\":46532:46535   */\n      dup2\n        /* \"#utility.yul\":46517:46535   */\n      swap1\n      pop\n        /* \"#utility.yul\":46394:46541   */\n      swap3\n      swap2\n      pop\n      pop\n      jump\t// out\n        /* \"#utility.yul\":46547:46920   */\n    tag_647:\n        /* \"#utility.yul\":46651:46654   */\n      0x00\n        /* \"#utility.yul\":46679:46717   */\n      tag_1046\n        /* \"#utility.yul\":46711:46716   */\n      dup3\n        /* \"#utility.yul\":46679:46717   */\n      tag_645\n      jump\t// in\n    tag_1046:\n        /* \"#utility.yul\":46733:46821   */\n      tag_1047\n        /* \"#utility.yul\":46814:46820   */\n      dup2\n        /* \"#utility.yul\":46809:46812   */\n      dup6\n        /* \"#utility.yul\":46733:46821   */\n      tag_646\n      jump\t// in\n    tag_1047:\n        /* \"#utility.yul\":46726:46821   */\n      swap4\n      pop\n        /* \"#utility.yul\":46830:46882   */\n      tag_1048\n        /* \"#utility.yul\":46875:46881   */\n      dup2\n        /* \"#utility.yul\":46870:46873   */\n      dup6\n        /* \"#utility.yul\":46863:46867   */\n      0x20\n        /* \"#utility.yul\":46856:46861   */\n      dup7\n        /* \"#utility.yul\":46852:46868   */\n      add\n        /* \"#utility.yul\":46830:46882   */\n      tag_629\n      jump\t// in\n    tag_1048:\n        /* \"#utility.yul\":46907:46913   */\n      dup1\n        /* \"#utility.yul\":46902:46905   */\n      dup5\n        /* \"#utility.yul\":46898:46914   */\n      add\n        /* \"#utility.yul\":46891:46914   */\n      swap2\n      pop\n        /* \"#utility.yul\":46655:46920   */\n      pop\n        /* \"#utility.yul\":46547:46920   */\n      swap3\n      swap2\n      pop\n      pop\n      jump\t// out\n        /* \"#utility.yul\":46926:47197   */\n    tag_538:\n        /* \"#utility.yul\":47056:47059   */\n      0x00\n        /* \"#utility.yul\":47078:47171   */\n      tag_1050\n        /* \"#utility.yul\":47167:47170   */\n      dup3\n        /* \"#utility.yul\":47158:47164   */\n      dup5\n        /* \"#utility.yul\":47078:47171   */\n      tag_647\n      jump\t// in\n    tag_1050:\n        /* \"#utility.yul\":47071:47171   */\n      swap2\n      pop\n        /* \"#utility.yul\":47188:47191   */\n      dup2\n        /* \"#utility.yul\":47181:47191   */\n      swap1\n      pop\n        /* \"#utility.yul\":46926:47197   */\n      swap3\n      swap2\n      pop\n      pop\n      jump\t// out\n\n    auxdata: 0xa2646970667358221220ba366ecfdd9c66e068fbd46c5f39310129d531904ea64e7b6eacf8322994019364736f6c634300080d0033\n}\n",
				"bytecode": {
					"linkReferences": {},
					"object": "608060405260006002553480156200001657600080fd5b5060008060006101000a81548160ff021916908315150217905550620000466000801b33620000f160201b60201c565b620000787fd6ec3d4e172787e4fbb9572fe6dff2ebff47878d0878cd2c913f5c49b4487ea033620000f160201b60201c565b620000aa7f65d7a28e3265b37a6474929f336521b332c1681b933f6cb9f3376673440d862a33620000f160201b60201c565b33600360006101000a81548173ffffffffffffffffffffffffffffffffffffffff021916908373ffffffffffffffffffffffffffffffffffffffff1602179055506200026b565b6200010382826200010760201b60201c565b5050565b620001198282620001f860201b60201c565b620001f457600180600084815260200190815260200160002060000160008373ffffffffffffffffffffffffffffffffffffffff1673ffffffffffffffffffffffffffffffffffffffff16815260200190815260200160002060006101000a81548160ff021916908315150217905550620001996200026360201b60201c565b73ffffffffffffffffffffffffffffffffffffffff168173ffffffffffffffffffffffffffffffffffffffff16837f2f8788117e7eff1d82e926ec794901d17c78024a50270940304540a733656f0d60405160405180910390a45b5050565b60006001600084815260200190815260200160002060000160008373ffffffffffffffffffffffffffffffffffffffff1673ffffffffffffffffffffffffffffffffffffffff16815260200190815260200160002060009054906101000a900460ff16905092915050565b600033905090565b614bc3806200027b6000396000f3fe6080604052600436106101c25760003560e01c80636325c105116100f7578063a217fddf11610095578063d547741f11610064578063d547741f14610637578063d6d4623214610660578063e63ab1e914610689578063f3fef3a3146106b4576101c2565b8063a217fddf14610561578063a85c38ef1461058c578063c8312a54146105d1578063cfb51928146105fa576101c2565b80638da5cb5b116100d15780638da5cb5b146104a757806391d14854146104d257806393f89a801461050f5780639ae10a1f14610538576101c2565b80636325c1051461043c5780637b2c3a85146104675780638456cb5914610490576101c2565b80633d0cc79911610164578063566a7ac31161013e578063566a7ac31461038f578063587f70bf146103cc578063598647f8146103f55780635c975abb14610411576101c2565b80633d0cc799146103105780633f4ba83a1461034f578063514fcac714610366576101c2565b8063248a9ca3116101a0578063248a9ca3146102585780632f2ff15d1461029557806336568abe146102be578063379607f5146102e7576101c2565b806301ffc9a7146101c75780631aa430781461020457806322ccf3cd1461022f575b600080fd5b3480156101d357600080fd5b506101ee60048036038101906101e9919061347c565b6106dd565b6040516101fb91906134c4565b60405180910390f35b34801561021057600080fd5b50610219610757565b60405161022691906134f8565b60405180910390f35b34801561023b57600080fd5b506102566004803603810190610251919061353f565b61075d565b005b34801561026457600080fd5b5061027f600480360381019061027a91906135a2565b610bd5565b60405161028c91906135de565b60405180910390f35b3480156102a157600080fd5b506102bc60048036038101906102b79190613657565b610bf5565b005b3480156102ca57600080fd5b506102e560048036038101906102e09190613657565b610c1e565b005b3480156102f357600080fd5b5061030e6004803603810190610309919061353f565b610ca1565b005b34801561031c57600080fd5b5061033760048036038101906103329190613697565b611096565b604051610346939291906136c4565b60405180910390f35b34801561035b57600080fd5b506103646110cd565b005b34801561037257600080fd5b5061038d6004803603810190610388919061353f565b61110a565b005b34801561039b57600080fd5b506103b660048036038101906103b19190613697565b611427565b6040516103c391906134c4565b60405180910390f35b3480156103d857600080fd5b506103f360048036038101906103ee9190613727565b611447565b005b61040f600480360381019061040a919061378e565b611531565b005b34801561041d57600080fd5b50610426611c1b565b60405161043391906134c4565b60405180910390f35b34801561044857600080fd5b50610451611c31565b60405161045e91906135de565b60405180910390f35b34801561047357600080fd5b5061048e60048036038101906104899190613697565b611c55565b005b34801561049c57600080fd5b506104a5611ce3565b005b3480156104b357600080fd5b506104bc611d20565b6040516104c991906137ef565b60405180910390f35b3480156104de57600080fd5b506104f960048036038101906104f49190613657565b611d46565b60405161050691906134c4565b60405180910390f35b34801561051b57600080fd5b506105366004803603810190610531919061353f565b611db1565b005b34801561054457600080fd5b5061055f600480360381019061055a919061353f565b611dee565b005b34801561056d57600080fd5b5061057661206b565b60405161058391906135de565b60405180910390f35b34801561059857600080fd5b506105b360048036038101906105ae919061353f565b612072565b6040516105c899989796959493929190613819565b60405180910390f35b3480156105dd57600080fd5b506105f860048036038101906105f39190613697565b61215d565b005b34801561060657600080fd5b50610621600480360381019061061c91906139ec565b6121eb565b60405161062e91906135de565b60405180910390f35b34801561064357600080fd5b5061065e60048036038101906106599190613657565b612214565b005b34801561066c57600080fd5b5061068760048036038101906106829190613a35565b61223d565b005b34801561069557600080fd5b5061069e612865565b6040516106ab91906135de565b60405180910390f35b3480156106c057600080fd5b506106db60048036038101906106d69190613ac2565b612889565b005b60007f7965db0b000000000000000000000000000000000000000000000000000000007bffffffffffffffffffffffffffffffffffffffffffffffffffffffff1916827bffffffffffffffffffffffffffffffffffffffffffffffffffffffff19161480610750575061074f82612993565b5b9050919050565b60025481565b610765611c1b565b156107a5576040517f08c379a000000000000000000000000000000000000000000000000000000000815260040161079c90613b5f565b60405180910390fd5b60068054905081106107ec576040517f08c379a00000000000000000000000000000000000000000000000000000000081526004016107e390613bcb565b60405180910390fd5b60006006828154811061080257610801613beb565b5b906000526020600020906008020190506000600560008360050160009054906101000a900473ffffffffffffffffffffffffffffffffffffffff1673ffffffffffffffffffffffffffffffffffffffff1673ffffffffffffffffffffffffffffffffffffffff16815260200190815260200160002060405180606001604052908160008201548152602001600182015481526020016002820160009054906101000a900460ff16151515158152505090503373ffffffffffffffffffffffffffffffffffffffff168260070160009054906101000a900473ffffffffffffffffffffffffffffffffffffffff1673ffffffffffffffffffffffffffffffffffffffff1614610945576040517f08c379a000000000000000000000000000000000000000000000000000000000815260040161093c90613c66565b60405180910390fd5b8160070160149054906101000a900460ff161580156109b55750600073ffffffffffffffffffffffffffffffffffffffff168260060160009054906101000a900473ffffffffffffffffffffffffffffffffffffffff1673ffffffffffffffffffffffffffffffffffffffff1614155b6109f4576040517f08c379a00000000000000000000000000000000000000000000000000000000081526004016109eb90613cd2565b60405180910390fd5b60018260070160146101000a81548160ff0219169083151502179055508160040160009054906101000a900473ffffffffffffffffffffffffffffffffffffffff1673ffffffffffffffffffffffffffffffffffffffff166323b872dd308460060160009054906101000a900473ffffffffffffffffffffffffffffffffffffffff1685600001546040518463ffffffff1660e01b8152600401610a9a93929190613cf2565b600060405180830381600087803b158015610ab457600080fd5b505af1158015610ac8573d6000803e3d6000fd5b50505050610b4a8260050160009054906101000a900473ffffffffffffffffffffffffffffffffffffffff168360070160009054906101000a900473ffffffffffffffffffffffffffffffffffffffff16606484600001516064610b2c9190613d58565b8660020154610b3b9190613d8c565b610b459190613e15565b6129fd565b7fce721eceb3d95b669e16e7226225b0adce09f2485ba78f90fc194dae97b5501c838360060160009054906101000a900473ffffffffffffffffffffffffffffffffffffffff168460020154606485600001518760020154610bac9190613d8c565b610bb69190613e15565b42604051610bc8959493929190613e46565b60405180910390a1505050565b600060016000838152602001908152602001600020600101549050919050565b610bfe82610bd5565b610c0f81610c0a612aae565b612ab6565b610c198383612b53565b505050565b610c26612aae565b73ffffffffffffffffffffffffffffffffffffffff168173ffffffffffffffffffffffffffffffffffffffff1614610c93576040517f08c379a0000000000000000000000000000000000000000000000000000000008152600401610c8a90613f0b565b60405180910390fd5b610c9d8282612c33565b5050565b610ca9611c1b565b15610ce9576040517f08c379a0000000000000000000000000000000000000000000000000000000008152600401610ce090613b5f565b60405180910390fd5b6006805490508110610d30576040517f08c379a0000000000000000000000000000000000000000000000000000000008152600401610d2790613bcb565b60405180910390fd5b600060068281548110610d4657610d45613beb565b5b906000526020600020906008020190506000600560008360050160009054906101000a900473ffffffffffffffffffffffffffffffffffffffff1673ffffffffffffffffffffffffffffffffffffffff1673ffffffffffffffffffffffffffffffffffffffff16815260200190815260200160002060405180606001604052908160008201548152602001600182015481526020016002820160009054906101000a900460ff1615151515815250509050428260010154108015610e1957508160070160149054906101000a900460ff16155b8015610e765750600073ffffffffffffffffffffffffffffffffffffffff168260060160009054906101000a900473ffffffffffffffffffffffffffffffffffffffff1673ffffffffffffffffffffffffffffffffffffffff1614155b610eb5576040517f08c379a0000000000000000000000000000000000000000000000000000000008152600401610eac90613cd2565b60405180910390fd5b60018260070160146101000a81548160ff0219169083151502179055508160040160009054906101000a900473ffffffffffffffffffffffffffffffffffffffff1673ffffffffffffffffffffffffffffffffffffffff166323b872dd308460060160009054906101000a900473ffffffffffffffffffffffffffffffffffffffff1685600001546040518463ffffffff1660e01b8152600401610f5b93929190613cf2565b600060405180830381600087803b158015610f7557600080fd5b505af1158015610f89573d6000803e3d6000fd5b5050505061100b8260050160009054906101000a900473ffffffffffffffffffffffffffffffffffffffff168360070160009054906101000a900473ffffffffffffffffffffffffffffffffffffffff16606484600001516064610fed9190613d58565b8660020154610ffc9190613d8c565b6110069190613e15565b6129fd565b7fce721eceb3d95b669e16e7226225b0adce09f2485ba78f90fc194dae97b5501c838360060160009054906101000a900473ffffffffffffffffffffffffffffffffffffffff16846002015460648560000151876002015461106d9190613d8c565b6110779190613e15565b42604051611089959493929190613e46565b60405180910390a1505050565b60056020528060005260406000206000915090508060000154908060010154908060020160009054906101000a900460ff16905083565b7f65d7a28e3265b37a6474929f336521b332c1681b933f6cb9f3376673440d862a6110ff816110fa612aae565b612ab6565b611107612d15565b50565b611112611c1b565b15611152576040517f08c379a000000000000000000000000000000000000000000000000000000000815260040161114990613b5f565b60405180910390fd5b6006805490508110611199576040517f08c379a000000000000000000000000000000000000000000000000000000000815260040161119090613bcb565b60405180910390fd5b6000600682815481106111af576111ae613beb565b5b906000526020600020906008020190503373ffffffffffffffffffffffffffffffffffffffff168160070160009054906101000a900473ffffffffffffffffffffffffffffffffffffffff1673ffffffffffffffffffffffffffffffffffffffff1614611251576040517f08c379a000000000000000000000000000000000000000000000000000000000815260040161124890613f77565b60405180910390fd5b600073ffffffffffffffffffffffffffffffffffffffff168160060160009054906101000a900473ffffffffffffffffffffffffffffffffffffffff1673ffffffffffffffffffffffffffffffffffffffff16146112e4576040517f08c379a00000000000000000000000000000000000000000000000000000000081526004016112db90613fe3565b60405180910390fd5b8060070160149054906101000a900460ff1615611336576040517f08c379a000000000000000000000000000000000000000000000000000000000815260040161132d9061404f565b60405180910390fd5b60018160070160146101000a81548160ff0219169083151502179055508060040160009054906101000a900473ffffffffffffffffffffffffffffffffffffffff1673ffffffffffffffffffffffffffffffffffffffff166323b872dd303384600001546040518463ffffffff1660e01b81526004016113b893929190613cf2565b600060405180830381600087803b1580156113d257600080fd5b505af11580156113e6573d6000803e3d6000fd5b505050507fdaea36f3bd03e8d765478afd092ebe5ab48dce17051d09cf6d5876fdd5083d68824260405161141b92919061406f565b60405180910390a15050565b60046020528060005260406000206000915054906101000a900460ff1681565b6000801b61145c81611457612aae565b612ab6565b6040518060600160405280858152602001848152602001831515815250600560008773ffffffffffffffffffffffffffffffffffffffff1673ffffffffffffffffffffffffffffffffffffffff168152602001908152602001600020600082015181600001556020820151816001015560408201518160020160006101000a81548160ff0219169083151502179055509050507f1cb06435b5f99aff99488af742354d648bec6fcfab75723907a8562e6cf2954d85858460405161152293929190614098565b60405180910390a15050505050565b611539611c1b565b15611579576040517f08c379a000000000000000000000000000000000000000000000000000000000815260040161157090613b5f565b60405180910390fd5b60068054905082106115c0576040517f08c379a00000000000000000000000000000000000000000000000000000000081526004016115b790613bcb565b60405180910390fd5b6000600683815481106115d6576115d5613beb565b5b906000526020600020906008020190506000600560008360050160009054906101000a900473ffffffffffffffffffffffffffffffffffffffff1673ffffffffffffffffffffffffffffffffffffffff1673ffffffffffffffffffffffffffffffffffffffff16815260200190815260200160002060405180606001604052908160008201548152602001600182015481526020016002820160009054906101000a900460ff1615151515815250509050600073ffffffffffffffffffffffffffffffffffffffff168260050160009054906101000a900473ffffffffffffffffffffffffffffffffffffffff1673ffffffffffffffffffffffffffffffffffffffff16036116e75734925061177c565b6000341461172a576040517f08c379a00000000000000000000000000000000000000000000000000000000081526004016117219061411b565b60405180910390fd5b61177b3330858560050160009054906101000a900473ffffffffffffffffffffffffffffffffffffffff1673ffffffffffffffffffffffffffffffffffffffff16612db6909392919063ffffffff16565b5b8160070160149054906101000a900460ff16156117ce576040517f08c379a00000000000000000000000000000000000000000000000000000000081526004016117c590614187565b60405180910390fd5b42826001015411611814576040517f08c379a000000000000000000000000000000000000000000000000000000000815260040161180b906141f3565b60405180910390fd5b82816020015183600201546118299190614213565b11158061184a575060008260030154141580156118495750816003015483145b5b611889576040517f08c379a0000000000000000000000000000000000000000000000000000000008152600401611880906142b5565b60405180910390fd5b600073ffffffffffffffffffffffffffffffffffffffff168260060160009054906101000a900473ffffffffffffffffffffffffffffffffffffffff1673ffffffffffffffffffffffffffffffffffffffff1614611939576119388260050160009054906101000a900473ffffffffffffffffffffffffffffffffffffffff168360060160009054906101000a900473ffffffffffffffffffffffffffffffffffffffff1684600201546129fd565b5b6000826003015414158015611952575081600301548310155b15611b8b576119d58260050160009054906101000a900473ffffffffffffffffffffffffffffffffffffffff168360070160009054906101000a900473ffffffffffffffffffffffffffffffffffffffff166064846000015160646119b79190613d58565b86600301546119c69190613d8c565b6119d09190613e15565b6129fd565b8160030154831115611a2057611a1f8260050160009054906101000a900473ffffffffffffffffffffffffffffffffffffffff1633858560030154611a1a9190613d58565b6129fd565b5b338260060160006101000a81548173ffffffffffffffffffffffffffffffffffffffff021916908373ffffffffffffffffffffffffffffffffffffffff1602179055508160030154826002018190555060018260070160146101000a81548160ff0219169083151502179055508160040160009054906101000a900473ffffffffffffffffffffffffffffffffffffffff1673ffffffffffffffffffffffffffffffffffffffff166323b872dd303385600001546040518463ffffffff1660e01b8152600401611af293929190613cf2565b600060405180830381600087803b158015611b0c57600080fd5b505af1158015611b20573d6000803e3d6000fd5b505050507fce721eceb3d95b669e16e7226225b0adce09f2485ba78f90fc194dae97b5501c84338460030154606485600001518760030154611b629190613d8c565b611b6c9190613e15565b42604051611b7e959493929190613e46565b60405180910390a1611c15565b338260060160006101000a81548173ffffffffffffffffffffffffffffffffffffffff021916908373ffffffffffffffffffffffffffffffffffffffff1602179055508282600201819055507f4dcc013473324698bfbe263facec4ea4b1bc43624236542deabec62c2122b30533428686604051611c0c94939291906142d5565b60405180910390a15b50505050565b60008060009054906101000a900460ff16905090565b7fd6ec3d4e172787e4fbb9572fe6dff2ebff47878d0878cd2c913f5c49b4487ea081565b7fd6ec3d4e172787e4fbb9572fe6dff2ebff47878d0878cd2c913f5c49b4487ea0611c8781611c82612aae565b612ab6565b6001600460008473ffffffffffffffffffffffffffffffffffffffff1673ffffffffffffffffffffffffffffffffffffffff16815260200190815260200160002060006101000a81548160ff0219169083151502179055505050565b7f65d7a28e3265b37a6474929f336521b332c1681b933f6cb9f3376673440d862a611d1581611d10612aae565b612ab6565b611d1d612e3f565b50565b600360009054906101000a900473ffffffffffffffffffffffffffffffffffffffff1681565b60006001600084815260200190815260200160002060000160008373ffffffffffffffffffffffffffffffffffffffff1673ffffffffffffffffffffffffffffffffffffffff16815260200190815260200160002060009054906101000a900460ff16905092915050565b7fd6ec3d4e172787e4fbb9572fe6dff2ebff47878d0878cd2c913f5c49b4487ea0611de381611dde612aae565b612ab6565b816002819055505050565b6000801b611e0381611dfe612aae565b612ab6565b6006805490508210611e4a576040517f08c379a0000000000000000000000000000000000000000000000000000000008152600401611e4190613bcb565b60405180910390fd5b600060068381548110611e6057611e5f613beb565b5b90600052602060002090600802019050600073ffffffffffffffffffffffffffffffffffffffff168160060160009054906101000a900473ffffffffffffffffffffffffffffffffffffffff1673ffffffffffffffffffffffffffffffffffffffff1614611f03576040517f08c379a0000000000000000000000000000000000000000000000000000000008152600401611efa90613fe3565b60405180910390fd5b8060070160149054906101000a900460ff1615611f55576040517f08c379a0000000000000000000000000000000000000000000000000000000008152600401611f4c9061404f565b60405180910390fd5b60018160070160146101000a81548160ff0219169083151502179055508060040160009054906101000a900473ffffffffffffffffffffffffffffffffffffffff1673ffffffffffffffffffffffffffffffffffffffff166323b872dd308360070160009054906101000a900473ffffffffffffffffffffffffffffffffffffffff1684600001546040518463ffffffff1660e01b8152600401611ffb93929190613cf2565b600060405180830381600087803b15801561201557600080fd5b505af1158015612029573d6000803e3d6000fd5b505050507fdaea36f3bd03e8d765478afd092ebe5ab48dce17051d09cf6d5876fdd5083d68834260405161205e92919061406f565b60405180910390a1505050565b6000801b81565b6006818154811061208257600080fd5b90600052602060002090600802016000915090508060000154908060010154908060020154908060030154908060040160009054906101000a900473ffffffffffffffffffffffffffffffffffffffff16908060050160009054906101000a900473ffffffffffffffffffffffffffffffffffffffff16908060060160009054906101000a900473ffffffffffffffffffffffffffffffffffffffff16908060070160009054906101000a900473ffffffffffffffffffffffffffffffffffffffff16908060070160149054906101000a900460ff16905089565b7fd6ec3d4e172787e4fbb9572fe6dff2ebff47878d0878cd2c913f5c49b4487ea061218f8161218a612aae565b612ab6565b6000600460008473ffffffffffffffffffffffffffffffffffffffff1673ffffffffffffffffffffffffffffffffffffffff16815260200190815260200160002060006101000a81548160ff0219169083151502179055505050565b6000808290506000815103612206576000801b91505061220f565b60208301519150505b919050565b61221d82610bd5565b61222e81612229612aae565b612ab6565b6122388383612c33565b505050565b612245611c1b565b15612285576040517f08c379a000000000000000000000000000000000000000000000000000000000815260040161227c90613b5f565b60405180910390fd5b600460008773ffffffffffffffffffffffffffffffffffffffff1673ffffffffffffffffffffffffffffffffffffffff16815260200190815260200160002060009054906101000a900460ff16612311576040517f08c379a000000000000000000000000000000000000000000000000000000000815260040161230890614366565b60405180910390fd5b600560008673ffffffffffffffffffffffffffffffffffffffff1673ffffffffffffffffffffffffffffffffffffffff16815260200190815260200160002060020160009054906101000a900460ff166123a0576040517f08c379a0000000000000000000000000000000000000000000000000000000008152600401612397906143d2565b60405180910390fd5b3373ffffffffffffffffffffffffffffffffffffffff168673ffffffffffffffffffffffffffffffffffffffff16636352211e866040518263ffffffff1660e01b81526004016123f091906134f8565b602060405180830381865afa15801561240d573d6000803e3d6000fd5b505050506040513d601f19601f820116820180604052508101906124319190614407565b73ffffffffffffffffffffffffffffffffffffffff1614612487576040517f08c379a000000000000000000000000000000000000000000000000000000000815260040161247e90614480565b60405180910390fd5b600082116124ca576040517f08c379a00000000000000000000000000000000000000000000000000000000081526004016124c1906144ec565b60405180910390fd5b81811015806124d95750600081145b612518576040517f08c379a000000000000000000000000000000000000000000000000000000000815260040161250f90614558565b60405180910390fd5b426002546125269190614213565b831015612568576040517f08c379a000000000000000000000000000000000000000000000000000000000815260040161255f906145c4565b60405180910390fd5b8573ffffffffffffffffffffffffffffffffffffffff166323b872dd3330876040518463ffffffff1660e01b81526004016125a593929190613cf2565b600060405180830381600087803b1580156125bf57600080fd5b505af11580156125d3573d6000803e3d6000fd5b5050505060066040518061012001604052808681526020018581526020018481526020018381526020018873ffffffffffffffffffffffffffffffffffffffff1681526020018773ffffffffffffffffffffffffffffffffffffffff168152602001600073ffffffffffffffffffffffffffffffffffffffff1681526020013373ffffffffffffffffffffffffffffffffffffffff1681526020016000151581525090806001815401808255809150506001900390600052602060002090600802016000909190919091506000820151816000015560208201518160010155604082015181600201556060820151816003015560808201518160040160006101000a81548173ffffffffffffffffffffffffffffffffffffffff021916908373ffffffffffffffffffffffffffffffffffffffff16021790555060a08201518160050160006101000a81548173ffffffffffffffffffffffffffffffffffffffff021916908373ffffffffffffffffffffffffffffffffffffffff16021790555060c08201518160060160006101000a81548173ffffffffffffffffffffffffffffffffffffffff021916908373ffffffffffffffffffffffffffffffffffffffff16021790555060e08201518160070160006101000a81548173ffffffffffffffffffffffffffffffffffffffff021916908373ffffffffffffffffffffffffffffffffffffffff1602179055506101008201518160070160146101000a81548160ff02191690831515021790555050507fc7ec54aead4db4e08ac0929dfd3efbff1ceeb2390d1390b6d4b3ff832125a55860016006805490506128389190613d58565b8787334289898989604051612855999897969594939291906145e4565b60405180910390a1505050505050565b7f65d7a28e3265b37a6474929f336521b332c1681b933f6cb9f3376673440d862a81565b6000801b61289e81612899612aae565b612ab6565b600073ffffffffffffffffffffffffffffffffffffffff168373ffffffffffffffffffffffffffffffffffffffff160361294057600360009054906101000a900473ffffffffffffffffffffffffffffffffffffffff1673ffffffffffffffffffffffffffffffffffffffff166108fc839081150290604051600060405180830381858888f1935050505015801561293a573d6000803e3d6000fd5b5061298e565b61298d600360009054906101000a900473ffffffffffffffffffffffffffffffffffffffff16838573ffffffffffffffffffffffffffffffffffffffff16612ee19092919063ffffffff16565b5b505050565b60007f01ffc9a7000000000000000000000000000000000000000000000000000000007bffffffffffffffffffffffffffffffffffffffffffffffffffffffff1916827bffffffffffffffffffffffffffffffffffffffffffffffffffffffff1916149050919050565b600073ffffffffffffffffffffffffffffffffffffffff168373ffffffffffffffffffffffffffffffffffffffff1603612a7d578173ffffffffffffffffffffffffffffffffffffffff166108fc829081150290604051600060405180830381858888f19350505050158015612a77573d6000803e3d6000fd5b50612aa9565b612aa882828573ffffffffffffffffffffffffffffffffffffffff16612ee19092919063ffffffff16565b5b505050565b600033905090565b612ac08282611d46565b612b4f57612ae58173ffffffffffffffffffffffffffffffffffffffff166014612f67565b612af38360001c6020612f67565b604051602001612b04929190614783565b6040516020818303038152906040526040517f08c379a0000000000000000000000000000000000000000000000000000000008152600401612b4691906147f6565b60405180910390fd5b5050565b612b5d8282611d46565b612c2f57600180600084815260200190815260200160002060000160008373ffffffffffffffffffffffffffffffffffffffff1673ffffffffffffffffffffffffffffffffffffffff16815260200190815260200160002060006101000a81548160ff021916908315150217905550612bd4612aae565b73ffffffffffffffffffffffffffffffffffffffff168173ffffffffffffffffffffffffffffffffffffffff16837f2f8788117e7eff1d82e926ec794901d17c78024a50270940304540a733656f0d60405160405180910390a45b5050565b612c3d8282611d46565b15612d115760006001600084815260200190815260200160002060000160008373ffffffffffffffffffffffffffffffffffffffff1673ffffffffffffffffffffffffffffffffffffffff16815260200190815260200160002060006101000a81548160ff021916908315150217905550612cb6612aae565b73ffffffffffffffffffffffffffffffffffffffff168173ffffffffffffffffffffffffffffffffffffffff16837ff6391f5c32d9c69d2a47ea670b442974b53935d1edc7fd64eb21e047a839171b60405160405180910390a45b5050565b612d1d611c1b565b612d5c576040517f08c379a0000000000000000000000000000000000000000000000000000000008152600401612d5390614864565b60405180910390fd5b60008060006101000a81548160ff0219169083151502179055507f5db9ee0a495bf2e6ff9c91a7834c1ba4fdd244a5e8aa4e537bd38aeae4b073aa612d9f612aae565b604051612dac9190614884565b60405180910390a1565b612e39846323b872dd60e01b858585604051602401612dd793929190613cf2565b604051602081830303815290604052907bffffffffffffffffffffffffffffffffffffffffffffffffffffffff19166020820180517bffffffffffffffffffffffffffffffffffffffffffffffffffffffff83818316178352505050506131a3565b50505050565b612e47611c1b565b15612e87576040517f08c379a0000000000000000000000000000000000000000000000000000000008152600401612e7e90613b5f565b60405180910390fd5b60016000806101000a81548160ff0219169083151502179055507f62e78cea01bee320cd4e420270b5ea74000d11b0c9f74754ebdbfc544b05a258612eca612aae565b604051612ed79190614884565b60405180910390a1565b612f628363a9059cbb60e01b8484604051602401612f0092919061489f565b604051602081830303815290604052907bffffffffffffffffffffffffffffffffffffffffffffffffffffffff19166020820180517bffffffffffffffffffffffffffffffffffffffffffffffffffffffff83818316178352505050506131a3565b505050565b606060006002836002612f7a9190613d8c565b612f849190614213565b67ffffffffffffffff811115612f9d57612f9c6138c1565b5b6040519080825280601f01601f191660200182016040528015612fcf5781602001600182028036833780820191505090505b5090507f30000000000000000000000000000000000000000000000000000000000000008160008151811061300757613006613beb565b5b60200101907effffffffffffffffffffffffffffffffffffffffffffffffffffffffffffff1916908160001a9053507f78000000000000000000000000000000000000000000000000000000000000008160018151811061306b5761306a613beb565b5b60200101907effffffffffffffffffffffffffffffffffffffffffffffffffffffffffffff1916908160001a905350600060018460026130ab9190613d8c565b6130b59190614213565b90505b6001811115613155577f3031323334353637383961626364656600000000000000000000000000000000600f8616601081106130f7576130f6613beb565b5b1a60f81b82828151811061310e5761310d613beb565b5b60200101907effffffffffffffffffffffffffffffffffffffffffffffffffffffffffffff1916908160001a905350600485901c94508061314e906148c8565b90506130b8565b5060008414613199576040517f08c379a00000000000000000000000000000000000000000000000000000000081526004016131909061493d565b60405180910390fd5b8091505092915050565b6000613205826040518060400160405280602081526020017f5361666545524332303a206c6f772d6c6576656c2063616c6c206661696c65648152508573ffffffffffffffffffffffffffffffffffffffff1661326a9092919063ffffffff16565b905060008151111561326557808060200190518101906132259190614972565b613264576040517f08c379a000000000000000000000000000000000000000000000000000000000815260040161325b90614a11565b60405180910390fd5b5b505050565b60606132798484600085613282565b90509392505050565b6060824710156132c7576040517f08c379a00000000000000000000000000000000000000000000000000000000081526004016132be90614aa3565b60405180910390fd5b6132d085613396565b61330f576040517f08c379a000000000000000000000000000000000000000000000000000000000815260040161330690614b0f565b60405180910390fd5b6000808673ffffffffffffffffffffffffffffffffffffffff1685876040516133389190614b76565b60006040518083038185875af1925050503d8060008114613375576040519150601f19603f3d011682016040523d82523d6000602084013e61337a565b606091505b509150915061338a8282866133a9565b92505050949350505050565b600080823b905060008111915050919050565b606083156133b957829050613409565b6000835111156133cc5782518084602001fd5b816040517f08c379a000000000000000000000000000000000000000000000000000000000815260040161340091906147f6565b60405180910390fd5b9392505050565b6000604051905090565b600080fd5b600080fd5b60007fffffffff0000000000000000000000000000000000000000000000000000000082169050919050565b61345981613424565b811461346457600080fd5b50565b60008135905061347681613450565b92915050565b6000602082840312156134925761349161341a565b5b60006134a084828501613467565b91505092915050565b60008115159050919050565b6134be816134a9565b82525050565b60006020820190506134d960008301846134b5565b92915050565b6000819050919050565b6134f2816134df565b82525050565b600060208201905061350d60008301846134e9565b92915050565b61351c816134df565b811461352757600080fd5b50565b60008135905061353981613513565b92915050565b6000602082840312156135555761355461341a565b5b60006135638482850161352a565b91505092915050565b6000819050919050565b61357f8161356c565b811461358a57600080fd5b50565b60008135905061359c81613576565b92915050565b6000602082840312156135b8576135b761341a565b5b60006135c68482850161358d565b91505092915050565b6135d88161356c565b82525050565b60006020820190506135f360008301846135cf565b92915050565b600073ffffffffffffffffffffffffffffffffffffffff82169050919050565b6000613624826135f9565b9050919050565b61363481613619565b811461363f57600080fd5b50565b6000813590506136518161362b565b92915050565b6000806040838503121561366e5761366d61341a565b5b600061367c8582860161358d565b925050602061368d85828601613642565b9150509250929050565b6000602082840312156136ad576136ac61341a565b5b60006136bb84828501613642565b91505092915050565b60006060820190506136d960008301866134e9565b6136e660208301856134e9565b6136f360408301846134b5565b949350505050565b613704816134a9565b811461370f57600080fd5b50565b600081359050613721816136fb565b92915050565b600080600080608085870312156137415761374061341a565b5b600061374f87828801613642565b94505060206137608782880161352a565b93505060406137718782880161352a565b925050606061378287828801613712565b91505092959194509250565b600080604083850312156137a5576137a461341a565b5b60006137b38582860161352a565b92505060206137c48582860161352a565b9150509250929050565b60006137d9826135f9565b9050919050565b6137e9816137ce565b82525050565b600060208201905061380460008301846137e0565b92915050565b61381381613619565b82525050565b60006101208201905061382f600083018c6134e9565b61383c602083018b6134e9565b613849604083018a6134e9565b61385660608301896134e9565b613863608083018861380a565b61387060a083018761380a565b61387d60c083018661380a565b61388a60e083018561380a565b6138986101008301846134b5565b9a9950505050505050505050565b600080fd5b600080fd5b6000601f19601f8301169050919050565b7f4e487b7100000000000000000000000000000000000000000000000000000000600052604160045260246000fd5b6138f9826138b0565b810181811067ffffffffffffffff82111715613918576139176138c1565b5b80604052505050565b600061392b613410565b905061393782826138f0565b919050565b600067ffffffffffffffff821115613957576139566138c1565b5b613960826138b0565b9050602081019050919050565b82818337600083830152505050565b600061398f61398a8461393c565b613921565b9050828152602081018484840111156139ab576139aa6138ab565b5b6139b684828561396d565b509392505050565b600082601f8301126139d3576139d26138a6565b5b81356139e384826020860161397c565b91505092915050565b600060208284031215613a0257613a0161341a565b5b600082013567ffffffffffffffff811115613a2057613a1f61341f565b5b613a2c848285016139be565b91505092915050565b60008060008060008060c08789031215613a5257613a5161341a565b5b6000613a6089828a01613642565b9650506020613a7189828a01613642565b9550506040613a8289828a0161352a565b9450506060613a9389828a0161352a565b9350506080613aa489828a0161352a565b92505060a0613ab589828a0161352a565b9150509295509295509295565b60008060408385031215613ad957613ad861341a565b5b6000613ae785828601613642565b9250506020613af88582860161352a565b9150509250929050565b600082825260208201905092915050565b7f5061757361626c653a2070617573656400000000000000000000000000000000600082015250565b6000613b49601083613b02565b9150613b5482613b13565b602082019050919050565b60006020820190508181036000830152613b7881613b3c565b9050919050565b7f4f7264657220494420696e76616c696400000000000000000000000000000000600082015250565b6000613bb5601083613b02565b9150613bc082613b7f565b602082019050919050565b60006020820190508181036000830152613be481613ba8565b9050919050565b7f4e487b7100000000000000000000000000000000000000000000000000000000600052603260045260246000fd5b7f4d757374206265206f776e657200000000000000000000000000000000000000600082015250565b6000613c50600d83613b02565b9150613c5b82613c1a565b602082019050919050565b60006020820190508181036000830152613c7f81613c43565b9050919050565b7f4d7573742062652063616e20636c61696d000000000000000000000000000000600082015250565b6000613cbc601183613b02565b9150613cc782613c86565b602082019050919050565b60006020820190508181036000830152613ceb81613caf565b9050919050565b6000606082019050613d07600083018661380a565b613d14602083018561380a565b613d2160408301846134e9565b949350505050565b7f4e487b7100000000000000000000000000000000000000000000000000000000600052601160045260246000fd5b6000613d63826134df565b9150613d6e836134df565b925082821015613d8157613d80613d29565b5b828203905092915050565b6000613d97826134df565b9150613da2836134df565b9250817fffffffffffffffffffffffffffffffffffffffffffffffffffffffffffffffff0483118215151615613ddb57613dda613d29565b5b828202905092915050565b7f4e487b7100000000000000000000000000000000000000000000000000000000600052601260045260246000fd5b6000613e20826134df565b9150613e2b836134df565b925082613e3b57613e3a613de6565b5b828204905092915050565b600060a082019050613e5b60008301886134e9565b613e68602083018761380a565b613e7560408301866134e9565b613e8260608301856134e9565b613e8f60808301846134e9565b9695505050505050565b7f416363657373436f6e74726f6c3a2063616e206f6e6c792072656e6f756e636560008201527f20726f6c657320666f722073656c660000000000000000000000000000000000602082015250565b6000613ef5602f83613b02565b9150613f0082613e99565b604082019050919050565b60006020820190508181036000830152613f2481613ee8565b9050919050565b7f4d757374206265206f776e6572206f7264657200000000000000000000000000600082015250565b6000613f61601383613b02565b9150613f6c82613f2b565b602082019050919050565b60006020820190508181036000830152613f9081613f54565b9050919050565b7f4d757374206e6f74206861766520626964657200000000000000000000000000600082015250565b6000613fcd601383613b02565b9150613fd882613f97565b602082019050919050565b60006020820190508181036000830152613ffc81613fc0565b9050919050565b7f4d757374206265206e6f7420656e646564000000000000000000000000000000600082015250565b6000614039601183613b02565b915061404482614003565b602082019050919050565b600060208201905081810360008301526140688161402c565b9050919050565b600060408201905061408460008301856134e9565b61409160208301846134e9565b9392505050565b60006060820190506140ad600083018661380a565b6140ba60208301856134e9565b6140c760408301846134b5565b949350505050565b7f496e76616c69642076616c756500000000000000000000000000000000000000600082015250565b6000614105600d83613b02565b9150614110826140cf565b602082019050919050565b60006020820190508181036000830152614134816140f8565b9050919050565b7f4f7264657220656e646564000000000000000000000000000000000000000000600082015250565b6000614171600b83613b02565b915061417c8261413b565b602082019050919050565b600060208201905081810360008301526141a081614164565b9050919050565b7f4269642074696d6520656e646564000000000000000000000000000000000000600082015250565b60006141dd600e83613b02565b91506141e8826141a7565b602082019050919050565b6000602082019050818103600083015261420c816141d0565b9050919050565b600061421e826134df565b9150614229836134df565b9250827fffffffffffffffffffffffffffffffffffffffffffffffffffffffffffffffff0382111561425e5761425d613d29565b5b828201905092915050565b7f496e76616c69642062696420616d6f756e740000000000000000000000000000600082015250565b600061429f601283613b02565b91506142aa82614269565b602082019050919050565b600060208201905081810360008301526142ce81614292565b9050919050565b60006080820190506142ea600083018761380a565b6142f760208301866134e9565b61430460408301856134e9565b61431160608301846134e9565b95945050505050565b7f4e4654206d75737420626520737570706f727465640000000000000000000000600082015250565b6000614350601583613b02565b915061435b8261431a565b602082019050919050565b6000602082019050818103600083015261437f81614343565b9050919050565b7f43757272656e6379206d75737420626520737570706f72746564000000000000600082015250565b60006143bc601a83613b02565b91506143c782614386565b602082019050919050565b600060208201905081810360008301526143eb816143af565b9050919050565b6000815190506144018161362b565b92915050565b60006020828403121561441d5761441c61341a565b5b600061442b848285016143f2565b91505092915050565b7f4d757374206265206f776e6572206f66204e4654000000000000000000000000600082015250565b600061446a601483613b02565b915061447582614434565b602082019050919050565b600060208201905081810360008301526144998161445d565b9050919050565b7f507269636520696e76616c696400000000000000000000000000000000000000600082015250565b60006144d6600d83613b02565b91506144e1826144a0565b602082019050919050565b60006020820190508181036000830152614505816144c9565b9050919050565b7f53706f7420707269636520696e76616c69640000000000000000000000000000600082015250565b6000614542601283613b02565b915061454d8261450c565b602082019050919050565b6000602082019050818103600083015261457181614535565b9050919050565b7f54696d65456e6420697320696e76616c69640000000000000000000000000000600082015250565b60006145ae601283613b02565b91506145b982614578565b602082019050919050565b600060208201905081810360008301526145dd816145a1565b9050919050565b6000610120820190506145fa600083018c6134e9565b614607602083018b61380a565b614614604083018a61380a565b614621606083018961380a565b61462e60808301886134e9565b61463b60a08301876134e9565b61464860c08301866134e9565b61465560e08301856134e9565b6146636101008301846134e9565b9a9950505050505050505050565b600081905092915050565b7f416363657373436f6e74726f6c3a206163636f756e7420000000000000000000600082015250565b60006146b2601783614671565b91506146bd8261467c565b601782019050919050565b600081519050919050565b60005b838110156146f15780820151818401526020810190506146d6565b83811115614700576000848401525b50505050565b6000614711826146c8565b61471b8185614671565b935061472b8185602086016146d3565b80840191505092915050565b7f206973206d697373696e6720726f6c6520000000000000000000000000000000600082015250565b600061476d601183614671565b915061477882614737565b601182019050919050565b600061478e826146a5565b915061479a8285614706565b91506147a582614760565b91506147b18284614706565b91508190509392505050565b60006147c8826146c8565b6147d28185613b02565b93506147e28185602086016146d3565b6147eb816138b0565b840191505092915050565b6000602082019050818103600083015261481081846147bd565b905092915050565b7f5061757361626c653a206e6f7420706175736564000000000000000000000000600082015250565b600061484e601483613b02565b915061485982614818565b602082019050919050565b6000602082019050818103600083015261487d81614841565b9050919050565b6000602082019050614899600083018461380a565b92915050565b60006040820190506148b4600083018561380a565b6148c160208301846134e9565b9392505050565b60006148d3826134df565b9150600082036148e6576148e5613d29565b5b600182039050919050565b7f537472696e67733a20686578206c656e67746820696e73756666696369656e74600082015250565b6000614927602083613b02565b9150614932826148f1565b602082019050919050565b600060208201905081810360008301526149568161491a565b9050919050565b60008151905061496c816136fb565b92915050565b6000602082840312156149885761498761341a565b5b60006149968482850161495d565b91505092915050565b7f5361666545524332303a204552433230206f7065726174696f6e20646964206e60008201527f6f74207375636365656400000000000000000000000000000000000000000000602082015250565b60006149fb602a83613b02565b9150614a068261499f565b604082019050919050565b60006020820190508181036000830152614a2a816149ee565b9050919050565b7f416464726573733a20696e73756666696369656e742062616c616e636520666f60008201527f722063616c6c0000000000000000000000000000000000000000000000000000602082015250565b6000614a8d602683613b02565b9150614a9882614a31565b604082019050919050565b60006020820190508181036000830152614abc81614a80565b9050919050565b7f416464726573733a2063616c6c20746f206e6f6e2d636f6e7472616374000000600082015250565b6000614af9601d83613b02565b9150614b0482614ac3565b602082019050919050565b60006020820190508181036000830152614b2881614aec565b9050919050565b600081519050919050565b600081905092915050565b6000614b5082614b2f565b614b5a8185614b3a565b9350614b6a8185602086016146d3565b80840191505092915050565b6000614b828284614b45565b91508190509291505056fea2646970667358221220ba366ecfdd9c66e068fbd46c5f39310129d531904ea64e7b6eacf8322994019364736f6c634300080d0033",
					"opcodes": "PUSH1 0x80 PUSH1 0x40 MSTORE PUSH1 0x0 PUSH1 0x2 SSTORE CALLVALUE DUP1 ISZERO PUSH3 0x16 JUMPI PUSH1 0x0 DUP1 REVERT JUMPDEST POP PUSH1 0x0 DUP1 PUSH1 0x0 PUSH2 0x100 EXP DUP2 SLOAD DUP2 PUSH1 0xFF MUL NOT AND SWAP1 DUP4 ISZERO ISZERO MUL OR SWAP1 SSTORE POP PUSH3 0x46 PUSH1 0x0 DUP1 SHL CALLER PUSH3 0xF1 PUSH1 0x20 SHL PUSH1 0x20 SHR JUMP JUMPDEST PUSH3 0x78 PUSH32 0xD6EC3D4E172787E4FBB9572FE6DFF2EBFF47878D0878CD2C913F5C49B4487EA0 CALLER PUSH3 0xF1 PUSH1 0x20 SHL PUSH1 0x20 SHR JUMP JUMPDEST PUSH3 0xAA PUSH32 0x65D7A28E3265B37A6474929F336521B332C1681B933F6CB9F3376673440D862A CALLER PUSH3 0xF1 PUSH1 0x20 SHL PUSH1 0x20 SHR JUMP JUMPDEST CALLER PUSH1 0x3 PUSH1 0x0 PUSH2 0x100 EXP DUP2 SLOAD DUP2 PUSH20 0xFFFFFFFFFFFFFFFFFFFFFFFFFFFFFFFFFFFFFFFF MUL NOT AND SWAP1 DUP4 PUSH20 0xFFFFFFFFFFFFFFFFFFFFFFFFFFFFFFFFFFFFFFFF AND MUL OR SWAP1 SSTORE POP PUSH3 0x26B JUMP JUMPDEST PUSH3 0x103 DUP3 DUP3 PUSH3 0x107 PUSH1 0x20 SHL PUSH1 0x20 SHR JUMP JUMPDEST POP POP JUMP JUMPDEST PUSH3 0x119 DUP3 DUP3 PUSH3 0x1F8 PUSH1 0x20 SHL PUSH1 0x20 SHR JUMP JUMPDEST PUSH3 0x1F4 JUMPI PUSH1 0x1 DUP1 PUSH1 0x0 DUP5 DUP2 MSTORE PUSH1 0x20 ADD SWAP1 DUP2 MSTORE PUSH1 0x20 ADD PUSH1 0x0 KECCAK256 PUSH1 0x0 ADD PUSH1 0x0 DUP4 PUSH20 0xFFFFFFFFFFFFFFFFFFFFFFFFFFFFFFFFFFFFFFFF AND PUSH20 0xFFFFFFFFFFFFFFFFFFFFFFFFFFFFFFFFFFFFFFFF AND DUP2 MSTORE PUSH1 0x20 ADD SWAP1 DUP2 MSTORE PUSH1 0x20 ADD PUSH1 0x0 KECCAK256 PUSH1 0x0 PUSH2 0x100 EXP DUP2 SLOAD DUP2 PUSH1 0xFF MUL NOT AND SWAP1 DUP4 ISZERO ISZERO MUL OR SWAP1 SSTORE POP PUSH3 0x199 PUSH3 0x263 PUSH1 0x20 SHL PUSH1 0x20 SHR JUMP JUMPDEST PUSH20 0xFFFFFFFFFFFFFFFFFFFFFFFFFFFFFFFFFFFFFFFF AND DUP2 PUSH20 0xFFFFFFFFFFFFFFFFFFFFFFFFFFFFFFFFFFFFFFFF AND DUP4 PUSH32 0x2F8788117E7EFF1D82E926EC794901D17C78024A50270940304540A733656F0D PUSH1 0x40 MLOAD PUSH1 0x40 MLOAD DUP1 SWAP2 SUB SWAP1 LOG4 JUMPDEST POP POP JUMP JUMPDEST PUSH1 0x0 PUSH1 0x1 PUSH1 0x0 DUP5 DUP2 MSTORE PUSH1 0x20 ADD SWAP1 DUP2 MSTORE PUSH1 0x20 ADD PUSH1 0x0 KECCAK256 PUSH1 0x0 ADD PUSH1 0x0 DUP4 PUSH20 0xFFFFFFFFFFFFFFFFFFFFFFFFFFFFFFFFFFFFFFFF AND PUSH20 0xFFFFFFFFFFFFFFFFFFFFFFFFFFFFFFFFFFFFFFFF AND DUP2 MSTORE PUSH1 0x20 ADD SWAP1 DUP2 MSTORE PUSH1 0x20 ADD PUSH1 0x0 KECCAK256 PUSH1 0x0 SWAP1 SLOAD SWAP1 PUSH2 0x100 EXP SWAP1 DIV PUSH1 0xFF AND SWAP1 POP SWAP3 SWAP2 POP POP JUMP JUMPDEST PUSH1 0x0 CALLER SWAP1 POP SWAP1 JUMP JUMPDEST PUSH2 0x4BC3 DUP1 PUSH3 0x27B PUSH1 0x0 CODECOPY PUSH1 0x0 RETURN INVALID PUSH1 0x80 PUSH1 0x40 MSTORE PUSH1 0x4 CALLDATASIZE LT PUSH2 0x1C2 JUMPI PUSH1 0x0 CALLDATALOAD PUSH1 0xE0 SHR DUP1 PUSH4 0x6325C105 GT PUSH2 0xF7 JUMPI DUP1 PUSH4 0xA217FDDF GT PUSH2 0x95 JUMPI DUP1 PUSH4 0xD547741F GT PUSH2 0x64 JUMPI DUP1 PUSH4 0xD547741F EQ PUSH2 0x637 JUMPI DUP1 PUSH4 0xD6D46232 EQ PUSH2 0x660 JUMPI DUP1 PUSH4 0xE63AB1E9 EQ PUSH2 0x689 JUMPI DUP1 PUSH4 0xF3FEF3A3 EQ PUSH2 0x6B4 JUMPI PUSH2 0x1C2 JUMP JUMPDEST DUP1 PUSH4 0xA217FDDF EQ PUSH2 0x561 JUMPI DUP1 PUSH4 0xA85C38EF EQ PUSH2 0x58C JUMPI DUP1 PUSH4 0xC8312A54 EQ PUSH2 0x5D1 JUMPI DUP1 PUSH4 0xCFB51928 EQ PUSH2 0x5FA JUMPI PUSH2 0x1C2 JUMP JUMPDEST DUP1 PUSH4 0x8DA5CB5B GT PUSH2 0xD1 JUMPI DUP1 PUSH4 0x8DA5CB5B EQ PUSH2 0x4A7 JUMPI DUP1 PUSH4 0x91D14854 EQ PUSH2 0x4D2 JUMPI DUP1 PUSH4 0x93F89A80 EQ PUSH2 0x50F JUMPI DUP1 PUSH4 0x9AE10A1F EQ PUSH2 0x538 JUMPI PUSH2 0x1C2 JUMP JUMPDEST DUP1 PUSH4 0x6325C105 EQ PUSH2 0x43C JUMPI DUP1 PUSH4 0x7B2C3A85 EQ PUSH2 0x467 JUMPI DUP1 PUSH4 0x8456CB59 EQ PUSH2 0x490 JUMPI PUSH2 0x1C2 JUMP JUMPDEST DUP1 PUSH4 0x3D0CC799 GT PUSH2 0x164 JUMPI DUP1 PUSH4 0x566A7AC3 GT PUSH2 0x13E JUMPI DUP1 PUSH4 0x566A7AC3 EQ PUSH2 0x38F JUMPI DUP1 PUSH4 0x587F70BF EQ PUSH2 0x3CC JUMPI DUP1 PUSH4 0x598647F8 EQ PUSH2 0x3F5 JUMPI DUP1 PUSH4 0x5C975ABB EQ PUSH2 0x411 JUMPI PUSH2 0x1C2 JUMP JUMPDEST DUP1 PUSH4 0x3D0CC799 EQ PUSH2 0x310 JUMPI DUP1 PUSH4 0x3F4BA83A EQ PUSH2 0x34F JUMPI DUP1 PUSH4 0x514FCAC7 EQ PUSH2 0x366 JUMPI PUSH2 0x1C2 JUMP JUMPDEST DUP1 PUSH4 0x248A9CA3 GT PUSH2 0x1A0 JUMPI DUP1 PUSH4 0x248A9CA3 EQ PUSH2 0x258 JUMPI DUP1 PUSH4 0x2F2FF15D EQ PUSH2 0x295 JUMPI DUP1 PUSH4 0x36568ABE EQ PUSH2 0x2BE JUMPI DUP1 PUSH4 0x379607F5 EQ PUSH2 0x2E7 JUMPI PUSH2 0x1C2 JUMP JUMPDEST DUP1 PUSH4 0x1FFC9A7 EQ PUSH2 0x1C7 JUMPI DUP1 PUSH4 0x1AA43078 EQ PUSH2 0x204 JUMPI DUP1 PUSH4 0x22CCF3CD EQ PUSH2 0x22F JUMPI JUMPDEST PUSH1 0x0 DUP1 REVERT JUMPDEST CALLVALUE DUP1 ISZERO PUSH2 0x1D3 JUMPI PUSH1 0x0 DUP1 REVERT JUMPDEST POP PUSH2 0x1EE PUSH1 0x4 DUP1 CALLDATASIZE SUB DUP2 ADD SWAP1 PUSH2 0x1E9 SWAP2 SWAP1 PUSH2 0x347C JUMP JUMPDEST PUSH2 0x6DD JUMP JUMPDEST PUSH1 0x40 MLOAD PUSH2 0x1FB SWAP2 SWAP1 PUSH2 0x34C4 JUMP JUMPDEST PUSH1 0x40 MLOAD DUP1 SWAP2 SUB SWAP1 RETURN JUMPDEST CALLVALUE DUP1 ISZERO PUSH2 0x210 JUMPI PUSH1 0x0 DUP1 REVERT JUMPDEST POP PUSH2 0x219 PUSH2 0x757 JUMP JUMPDEST PUSH1 0x40 MLOAD PUSH2 0x226 SWAP2 SWAP1 PUSH2 0x34F8 JUMP JUMPDEST PUSH1 0x40 MLOAD DUP1 SWAP2 SUB SWAP1 RETURN JUMPDEST CALLVALUE DUP1 ISZERO PUSH2 0x23B JUMPI PUSH1 0x0 DUP1 REVERT JUMPDEST POP PUSH2 0x256 PUSH1 0x4 DUP1 CALLDATASIZE SUB DUP2 ADD SWAP1 PUSH2 0x251 SWAP2 SWAP1 PUSH2 0x353F JUMP JUMPDEST PUSH2 0x75D JUMP JUMPDEST STOP JUMPDEST CALLVALUE DUP1 ISZERO PUSH2 0x264 JUMPI PUSH1 0x0 DUP1 REVERT JUMPDEST POP PUSH2 0x27F PUSH1 0x4 DUP1 CALLDATASIZE SUB DUP2 ADD SWAP1 PUSH2 0x27A SWAP2 SWAP1 PUSH2 0x35A2 JUMP JUMPDEST PUSH2 0xBD5 JUMP JUMPDEST PUSH1 0x40 MLOAD PUSH2 0x28C SWAP2 SWAP1 PUSH2 0x35DE JUMP JUMPDEST PUSH1 0x40 MLOAD DUP1 SWAP2 SUB SWAP1 RETURN JUMPDEST CALLVALUE DUP1 ISZERO PUSH2 0x2A1 JUMPI PUSH1 0x0 DUP1 REVERT JUMPDEST POP PUSH2 0x2BC PUSH1 0x4 DUP1 CALLDATASIZE SUB DUP2 ADD SWAP1 PUSH2 0x2B7 SWAP2 SWAP1 PUSH2 0x3657 JUMP JUMPDEST PUSH2 0xBF5 JUMP JUMPDEST STOP JUMPDEST CALLVALUE DUP1 ISZERO PUSH2 0x2CA JUMPI PUSH1 0x0 DUP1 REVERT JUMPDEST POP PUSH2 0x2E5 PUSH1 0x4 DUP1 CALLDATASIZE SUB DUP2 ADD SWAP1 PUSH2 0x2E0 SWAP2 SWAP1 PUSH2 0x3657 JUMP JUMPDEST PUSH2 0xC1E JUMP JUMPDEST STOP JUMPDEST CALLVALUE DUP1 ISZERO PUSH2 0x2F3 JUMPI PUSH1 0x0 DUP1 REVERT JUMPDEST POP PUSH2 0x30E PUSH1 0x4 DUP1 CALLDATASIZE SUB DUP2 ADD SWAP1 PUSH2 0x309 SWAP2 SWAP1 PUSH2 0x353F JUMP JUMPDEST PUSH2 0xCA1 JUMP JUMPDEST STOP JUMPDEST CALLVALUE DUP1 ISZERO PUSH2 0x31C JUMPI PUSH1 0x0 DUP1 REVERT JUMPDEST POP PUSH2 0x337 PUSH1 0x4 DUP1 CALLDATASIZE SUB DUP2 ADD SWAP1 PUSH2 0x332 SWAP2 SWAP1 PUSH2 0x3697 JUMP JUMPDEST PUSH2 0x1096 JUMP JUMPDEST PUSH1 0x40 MLOAD PUSH2 0x346 SWAP4 SWAP3 SWAP2 SWAP1 PUSH2 0x36C4 JUMP JUMPDEST PUSH1 0x40 MLOAD DUP1 SWAP2 SUB SWAP1 RETURN JUMPDEST CALLVALUE DUP1 ISZERO PUSH2 0x35B JUMPI PUSH1 0x0 DUP1 REVERT JUMPDEST POP PUSH2 0x364 PUSH2 0x10CD JUMP JUMPDEST STOP JUMPDEST CALLVALUE DUP1 ISZERO PUSH2 0x372 JUMPI PUSH1 0x0 DUP1 REVERT JUMPDEST POP PUSH2 0x38D PUSH1 0x4 DUP1 CALLDATASIZE SUB DUP2 ADD SWAP1 PUSH2 0x388 SWAP2 SWAP1 PUSH2 0x353F JUMP JUMPDEST PUSH2 0x110A JUMP JUMPDEST STOP JUMPDEST CALLVALUE DUP1 ISZERO PUSH2 0x39B JUMPI PUSH1 0x0 DUP1 REVERT JUMPDEST POP PUSH2 0x3B6 PUSH1 0x4 DUP1 CALLDATASIZE SUB DUP2 ADD SWAP1 PUSH2 0x3B1 SWAP2 SWAP1 PUSH2 0x3697 JUMP JUMPDEST PUSH2 0x1427 JUMP JUMPDEST PUSH1 0x40 MLOAD PUSH2 0x3C3 SWAP2 SWAP1 PUSH2 0x34C4 JUMP JUMPDEST PUSH1 0x40 MLOAD DUP1 SWAP2 SUB SWAP1 RETURN JUMPDEST CALLVALUE DUP1 ISZERO PUSH2 0x3D8 JUMPI PUSH1 0x0 DUP1 REVERT JUMPDEST POP PUSH2 0x3F3 PUSH1 0x4 DUP1 CALLDATASIZE SUB DUP2 ADD SWAP1 PUSH2 0x3EE SWAP2 SWAP1 PUSH2 0x3727 JUMP JUMPDEST PUSH2 0x1447 JUMP JUMPDEST STOP JUMPDEST PUSH2 0x40F PUSH1 0x4 DUP1 CALLDATASIZE SUB DUP2 ADD SWAP1 PUSH2 0x40A SWAP2 SWAP1 PUSH2 0x378E JUMP JUMPDEST PUSH2 0x1531 JUMP JUMPDEST STOP JUMPDEST CALLVALUE DUP1 ISZERO PUSH2 0x41D JUMPI PUSH1 0x0 DUP1 REVERT JUMPDEST POP PUSH2 0x426 PUSH2 0x1C1B JUMP JUMPDEST PUSH1 0x40 MLOAD PUSH2 0x433 SWAP2 SWAP1 PUSH2 0x34C4 JUMP JUMPDEST PUSH1 0x40 MLOAD DUP1 SWAP2 SUB SWAP1 RETURN JUMPDEST CALLVALUE DUP1 ISZERO PUSH2 0x448 JUMPI PUSH1 0x0 DUP1 REVERT JUMPDEST POP PUSH2 0x451 PUSH2 0x1C31 JUMP JUMPDEST PUSH1 0x40 MLOAD PUSH2 0x45E SWAP2 SWAP1 PUSH2 0x35DE JUMP JUMPDEST PUSH1 0x40 MLOAD DUP1 SWAP2 SUB SWAP1 RETURN JUMPDEST CALLVALUE DUP1 ISZERO PUSH2 0x473 JUMPI PUSH1 0x0 DUP1 REVERT JUMPDEST POP PUSH2 0x48E PUSH1 0x4 DUP1 CALLDATASIZE SUB DUP2 ADD SWAP1 PUSH2 0x489 SWAP2 SWAP1 PUSH2 0x3697 JUMP JUMPDEST PUSH2 0x1C55 JUMP JUMPDEST STOP JUMPDEST CALLVALUE DUP1 ISZERO PUSH2 0x49C JUMPI PUSH1 0x0 DUP1 REVERT JUMPDEST POP PUSH2 0x4A5 PUSH2 0x1CE3 JUMP JUMPDEST STOP JUMPDEST CALLVALUE DUP1 ISZERO PUSH2 0x4B3 JUMPI PUSH1 0x0 DUP1 REVERT JUMPDEST POP PUSH2 0x4BC PUSH2 0x1D20 JUMP JUMPDEST PUSH1 0x40 MLOAD PUSH2 0x4C9 SWAP2 SWAP1 PUSH2 0x37EF JUMP JUMPDEST PUSH1 0x40 MLOAD DUP1 SWAP2 SUB SWAP1 RETURN JUMPDEST CALLVALUE DUP1 ISZERO PUSH2 0x4DE JUMPI PUSH1 0x0 DUP1 REVERT JUMPDEST POP PUSH2 0x4F9 PUSH1 0x4 DUP1 CALLDATASIZE SUB DUP2 ADD SWAP1 PUSH2 0x4F4 SWAP2 SWAP1 PUSH2 0x3657 JUMP JUMPDEST PUSH2 0x1D46 JUMP JUMPDEST PUSH1 0x40 MLOAD PUSH2 0x506 SWAP2 SWAP1 PUSH2 0x34C4 JUMP JUMPDEST PUSH1 0x40 MLOAD DUP1 SWAP2 SUB SWAP1 RETURN JUMPDEST CALLVALUE DUP1 ISZERO PUSH2 0x51B JUMPI PUSH1 0x0 DUP1 REVERT JUMPDEST POP PUSH2 0x536 PUSH1 0x4 DUP1 CALLDATASIZE SUB DUP2 ADD SWAP1 PUSH2 0x531 SWAP2 SWAP1 PUSH2 0x353F JUMP JUMPDEST PUSH2 0x1DB1 JUMP JUMPDEST STOP JUMPDEST CALLVALUE DUP1 ISZERO PUSH2 0x544 JUMPI PUSH1 0x0 DUP1 REVERT JUMPDEST POP PUSH2 0x55F PUSH1 0x4 DUP1 CALLDATASIZE SUB DUP2 ADD SWAP1 PUSH2 0x55A SWAP2 SWAP1 PUSH2 0x353F JUMP JUMPDEST PUSH2 0x1DEE JUMP JUMPDEST STOP JUMPDEST CALLVALUE DUP1 ISZERO PUSH2 0x56D JUMPI PUSH1 0x0 DUP1 REVERT JUMPDEST POP PUSH2 0x576 PUSH2 0x206B JUMP JUMPDEST PUSH1 0x40 MLOAD PUSH2 0x583 SWAP2 SWAP1 PUSH2 0x35DE JUMP JUMPDEST PUSH1 0x40 MLOAD DUP1 SWAP2 SUB SWAP1 RETURN JUMPDEST CALLVALUE DUP1 ISZERO PUSH2 0x598 JUMPI PUSH1 0x0 DUP1 REVERT JUMPDEST POP PUSH2 0x5B3 PUSH1 0x4 DUP1 CALLDATASIZE SUB DUP2 ADD SWAP1 PUSH2 0x5AE SWAP2 SWAP1 PUSH2 0x353F JUMP JUMPDEST PUSH2 0x2072 JUMP JUMPDEST PUSH1 0x40 MLOAD PUSH2 0x5C8 SWAP10 SWAP9 SWAP8 SWAP7 SWAP6 SWAP5 SWAP4 SWAP3 SWAP2 SWAP1 PUSH2 0x3819 JUMP JUMPDEST PUSH1 0x40 MLOAD DUP1 SWAP2 SUB SWAP1 RETURN JUMPDEST CALLVALUE DUP1 ISZERO PUSH2 0x5DD JUMPI PUSH1 0x0 DUP1 REVERT JUMPDEST POP PUSH2 0x5F8 PUSH1 0x4 DUP1 CALLDATASIZE SUB DUP2 ADD SWAP1 PUSH2 0x5F3 SWAP2 SWAP1 PUSH2 0x3697 JUMP JUMPDEST PUSH2 0x215D JUMP JUMPDEST STOP JUMPDEST CALLVALUE DUP1 ISZERO PUSH2 0x606 JUMPI PUSH1 0x0 DUP1 REVERT JUMPDEST POP PUSH2 0x621 PUSH1 0x4 DUP1 CALLDATASIZE SUB DUP2 ADD SWAP1 PUSH2 0x61C SWAP2 SWAP1 PUSH2 0x39EC JUMP JUMPDEST PUSH2 0x21EB JUMP JUMPDEST PUSH1 0x40 MLOAD PUSH2 0x62E SWAP2 SWAP1 PUSH2 0x35DE JUMP JUMPDEST PUSH1 0x40 MLOAD DUP1 SWAP2 SUB SWAP1 RETURN JUMPDEST CALLVALUE DUP1 ISZERO PUSH2 0x643 JUMPI PUSH1 0x0 DUP1 REVERT JUMPDEST POP PUSH2 0x65E PUSH1 0x4 DUP1 CALLDATASIZE SUB DUP2 ADD SWAP1 PUSH2 0x659 SWAP2 SWAP1 PUSH2 0x3657 JUMP JUMPDEST PUSH2 0x2214 JUMP JUMPDEST STOP JUMPDEST CALLVALUE DUP1 ISZERO PUSH2 0x66C JUMPI PUSH1 0x0 DUP1 REVERT JUMPDEST POP PUSH2 0x687 PUSH1 0x4 DUP1 CALLDATASIZE SUB DUP2 ADD SWAP1 PUSH2 0x682 SWAP2 SWAP1 PUSH2 0x3A35 JUMP JUMPDEST PUSH2 0x223D JUMP JUMPDEST STOP JUMPDEST CALLVALUE DUP1 ISZERO PUSH2 0x695 JUMPI PUSH1 0x0 DUP1 REVERT JUMPDEST POP PUSH2 0x69E PUSH2 0x2865 JUMP JUMPDEST PUSH1 0x40 MLOAD PUSH2 0x6AB SWAP2 SWAP1 PUSH2 0x35DE JUMP JUMPDEST PUSH1 0x40 MLOAD DUP1 SWAP2 SUB SWAP1 RETURN JUMPDEST CALLVALUE DUP1 ISZERO PUSH2 0x6C0 JUMPI PUSH1 0x0 DUP1 REVERT JUMPDEST POP PUSH2 0x6DB PUSH1 0x4 DUP1 CALLDATASIZE SUB DUP2 ADD SWAP1 PUSH2 0x6D6 SWAP2 SWAP1 PUSH2 0x3AC2 JUMP JUMPDEST PUSH2 0x2889 JUMP JUMPDEST STOP JUMPDEST PUSH1 0x0 PUSH32 0x7965DB0B00000000000000000000000000000000000000000000000000000000 PUSH28 0xFFFFFFFFFFFFFFFFFFFFFFFFFFFFFFFFFFFFFFFFFFFFFFFFFFFFFFFF NOT AND DUP3 PUSH28 0xFFFFFFFFFFFFFFFFFFFFFFFFFFFFFFFFFFFFFFFFFFFFFFFFFFFFFFFF NOT AND EQ DUP1 PUSH2 0x750 JUMPI POP PUSH2 0x74F DUP3 PUSH2 0x2993 JUMP JUMPDEST JUMPDEST SWAP1 POP SWAP2 SWAP1 POP JUMP JUMPDEST PUSH1 0x2 SLOAD DUP2 JUMP JUMPDEST PUSH2 0x765 PUSH2 0x1C1B JUMP JUMPDEST ISZERO PUSH2 0x7A5 JUMPI PUSH1 0x40 MLOAD PUSH32 0x8C379A000000000000000000000000000000000000000000000000000000000 DUP2 MSTORE PUSH1 0x4 ADD PUSH2 0x79C SWAP1 PUSH2 0x3B5F JUMP JUMPDEST PUSH1 0x40 MLOAD DUP1 SWAP2 SUB SWAP1 REVERT JUMPDEST PUSH1 0x6 DUP1 SLOAD SWAP1 POP DUP2 LT PUSH2 0x7EC JUMPI PUSH1 0x40 MLOAD PUSH32 0x8C379A000000000000000000000000000000000000000000000000000000000 DUP2 MSTORE PUSH1 0x4 ADD PUSH2 0x7E3 SWAP1 PUSH2 0x3BCB JUMP JUMPDEST PUSH1 0x40 MLOAD DUP1 SWAP2 SUB SWAP1 REVERT JUMPDEST PUSH1 0x0 PUSH1 0x6 DUP3 DUP2 SLOAD DUP2 LT PUSH2 0x802 JUMPI PUSH2 0x801 PUSH2 0x3BEB JUMP JUMPDEST JUMPDEST SWAP1 PUSH1 0x0 MSTORE PUSH1 0x20 PUSH1 0x0 KECCAK256 SWAP1 PUSH1 0x8 MUL ADD SWAP1 POP PUSH1 0x0 PUSH1 0x5 PUSH1 0x0 DUP4 PUSH1 0x5 ADD PUSH1 0x0 SWAP1 SLOAD SWAP1 PUSH2 0x100 EXP SWAP1 DIV PUSH20 0xFFFFFFFFFFFFFFFFFFFFFFFFFFFFFFFFFFFFFFFF AND PUSH20 0xFFFFFFFFFFFFFFFFFFFFFFFFFFFFFFFFFFFFFFFF AND PUSH20 0xFFFFFFFFFFFFFFFFFFFFFFFFFFFFFFFFFFFFFFFF AND DUP2 MSTORE PUSH1 0x20 ADD SWAP1 DUP2 MSTORE PUSH1 0x20 ADD PUSH1 0x0 KECCAK256 PUSH1 0x40 MLOAD DUP1 PUSH1 0x60 ADD PUSH1 0x40 MSTORE SWAP1 DUP2 PUSH1 0x0 DUP3 ADD SLOAD DUP2 MSTORE PUSH1 0x20 ADD PUSH1 0x1 DUP3 ADD SLOAD DUP2 MSTORE PUSH1 0x20 ADD PUSH1 0x2 DUP3 ADD PUSH1 0x0 SWAP1 SLOAD SWAP1 PUSH2 0x100 EXP SWAP1 DIV PUSH1 0xFF AND ISZERO ISZERO ISZERO ISZERO DUP2 MSTORE POP POP SWAP1 POP CALLER PUSH20 0xFFFFFFFFFFFFFFFFFFFFFFFFFFFFFFFFFFFFFFFF AND DUP3 PUSH1 0x7 ADD PUSH1 0x0 SWAP1 SLOAD SWAP1 PUSH2 0x100 EXP SWAP1 DIV PUSH20 0xFFFFFFFFFFFFFFFFFFFFFFFFFFFFFFFFFFFFFFFF AND PUSH20 0xFFFFFFFFFFFFFFFFFFFFFFFFFFFFFFFFFFFFFFFF AND EQ PUSH2 0x945 JUMPI PUSH1 0x40 MLOAD PUSH32 0x8C379A000000000000000000000000000000000000000000000000000000000 DUP2 MSTORE PUSH1 0x4 ADD PUSH2 0x93C SWAP1 PUSH2 0x3C66 JUMP JUMPDEST PUSH1 0x40 MLOAD DUP1 SWAP2 SUB SWAP1 REVERT JUMPDEST DUP2 PUSH1 0x7 ADD PUSH1 0x14 SWAP1 SLOAD SWAP1 PUSH2 0x100 EXP SWAP1 DIV PUSH1 0xFF AND ISZERO DUP1 ISZERO PUSH2 0x9B5 JUMPI POP PUSH1 0x0 PUSH20 0xFFFFFFFFFFFFFFFFFFFFFFFFFFFFFFFFFFFFFFFF AND DUP3 PUSH1 0x6 ADD PUSH1 0x0 SWAP1 SLOAD SWAP1 PUSH2 0x100 EXP SWAP1 DIV PUSH20 0xFFFFFFFFFFFFFFFFFFFFFFFFFFFFFFFFFFFFFFFF AND PUSH20 0xFFFFFFFFFFFFFFFFFFFFFFFFFFFFFFFFFFFFFFFF AND EQ ISZERO JUMPDEST PUSH2 0x9F4 JUMPI PUSH1 0x40 MLOAD PUSH32 0x8C379A000000000000000000000000000000000000000000000000000000000 DUP2 MSTORE PUSH1 0x4 ADD PUSH2 0x9EB SWAP1 PUSH2 0x3CD2 JUMP JUMPDEST PUSH1 0x40 MLOAD DUP1 SWAP2 SUB SWAP1 REVERT JUMPDEST PUSH1 0x1 DUP3 PUSH1 0x7 ADD PUSH1 0x14 PUSH2 0x100 EXP DUP2 SLOAD DUP2 PUSH1 0xFF MUL NOT AND SWAP1 DUP4 ISZERO ISZERO MUL OR SWAP1 SSTORE POP DUP2 PUSH1 0x4 ADD PUSH1 0x0 SWAP1 SLOAD SWAP1 PUSH2 0x100 EXP SWAP1 DIV PUSH20 0xFFFFFFFFFFFFFFFFFFFFFFFFFFFFFFFFFFFFFFFF AND PUSH20 0xFFFFFFFFFFFFFFFFFFFFFFFFFFFFFFFFFFFFFFFF AND PUSH4 0x23B872DD ADDRESS DUP5 PUSH1 0x6 ADD PUSH1 0x0 SWAP1 SLOAD SWAP1 PUSH2 0x100 EXP SWAP1 DIV PUSH20 0xFFFFFFFFFFFFFFFFFFFFFFFFFFFFFFFFFFFFFFFF AND DUP6 PUSH1 0x0 ADD SLOAD PUSH1 0x40 MLOAD DUP5 PUSH4 0xFFFFFFFF AND PUSH1 0xE0 SHL DUP2 MSTORE PUSH1 0x4 ADD PUSH2 0xA9A SWAP4 SWAP3 SWAP2 SWAP1 PUSH2 0x3CF2 JUMP JUMPDEST PUSH1 0x0 PUSH1 0x40 MLOAD DUP1 DUP4 SUB DUP2 PUSH1 0x0 DUP8 DUP1 EXTCODESIZE ISZERO DUP1 ISZERO PUSH2 0xAB4 JUMPI PUSH1 0x0 DUP1 REVERT JUMPDEST POP GAS CALL ISZERO DUP1 ISZERO PUSH2 0xAC8 JUMPI RETURNDATASIZE PUSH1 0x0 DUP1 RETURNDATACOPY RETURNDATASIZE PUSH1 0x0 REVERT JUMPDEST POP POP POP POP PUSH2 0xB4A DUP3 PUSH1 0x5 ADD PUSH1 0x0 SWAP1 SLOAD SWAP1 PUSH2 0x100 EXP SWAP1 DIV PUSH20 0xFFFFFFFFFFFFFFFFFFFFFFFFFFFFFFFFFFFFFFFF AND DUP4 PUSH1 0x7 ADD PUSH1 0x0 SWAP1 SLOAD SWAP1 PUSH2 0x100 EXP SWAP1 DIV PUSH20 0xFFFFFFFFFFFFFFFFFFFFFFFFFFFFFFFFFFFFFFFF AND PUSH1 0x64 DUP5 PUSH1 0x0 ADD MLOAD PUSH1 0x64 PUSH2 0xB2C SWAP2 SWAP1 PUSH2 0x3D58 JUMP JUMPDEST DUP7 PUSH1 0x2 ADD SLOAD PUSH2 0xB3B SWAP2 SWAP1 PUSH2 0x3D8C JUMP JUMPDEST PUSH2 0xB45 SWAP2 SWAP1 PUSH2 0x3E15 JUMP JUMPDEST PUSH2 0x29FD JUMP JUMPDEST PUSH32 0xCE721ECEB3D95B669E16E7226225B0ADCE09F2485BA78F90FC194DAE97B5501C DUP4 DUP4 PUSH1 0x6 ADD PUSH1 0x0 SWAP1 SLOAD SWAP1 PUSH2 0x100 EXP SWAP1 DIV PUSH20 0xFFFFFFFFFFFFFFFFFFFFFFFFFFFFFFFFFFFFFFFF AND DUP5 PUSH1 0x2 ADD SLOAD PUSH1 0x64 DUP6 PUSH1 0x0 ADD MLOAD DUP8 PUSH1 0x2 ADD SLOAD PUSH2 0xBAC SWAP2 SWAP1 PUSH2 0x3D8C JUMP JUMPDEST PUSH2 0xBB6 SWAP2 SWAP1 PUSH2 0x3E15 JUMP JUMPDEST TIMESTAMP PUSH1 0x40 MLOAD PUSH2 0xBC8 SWAP6 SWAP5 SWAP4 SWAP3 SWAP2 SWAP1 PUSH2 0x3E46 JUMP JUMPDEST PUSH1 0x40 MLOAD DUP1 SWAP2 SUB SWAP1 LOG1 POP POP POP JUMP JUMPDEST PUSH1 0x0 PUSH1 0x1 PUSH1 0x0 DUP4 DUP2 MSTORE PUSH1 0x20 ADD SWAP1 DUP2 MSTORE PUSH1 0x20 ADD PUSH1 0x0 KECCAK256 PUSH1 0x1 ADD SLOAD SWAP1 POP SWAP2 SWAP1 POP JUMP JUMPDEST PUSH2 0xBFE DUP3 PUSH2 0xBD5 JUMP JUMPDEST PUSH2 0xC0F DUP2 PUSH2 0xC0A PUSH2 0x2AAE JUMP JUMPDEST PUSH2 0x2AB6 JUMP JUMPDEST PUSH2 0xC19 DUP4 DUP4 PUSH2 0x2B53 JUMP JUMPDEST POP POP POP JUMP JUMPDEST PUSH2 0xC26 PUSH2 0x2AAE JUMP JUMPDEST PUSH20 0xFFFFFFFFFFFFFFFFFFFFFFFFFFFFFFFFFFFFFFFF AND DUP2 PUSH20 0xFFFFFFFFFFFFFFFFFFFFFFFFFFFFFFFFFFFFFFFF AND EQ PUSH2 0xC93 JUMPI PUSH1 0x40 MLOAD PUSH32 0x8C379A000000000000000000000000000000000000000000000000000000000 DUP2 MSTORE PUSH1 0x4 ADD PUSH2 0xC8A SWAP1 PUSH2 0x3F0B JUMP JUMPDEST PUSH1 0x40 MLOAD DUP1 SWAP2 SUB SWAP1 REVERT JUMPDEST PUSH2 0xC9D DUP3 DUP3 PUSH2 0x2C33 JUMP JUMPDEST POP POP JUMP JUMPDEST PUSH2 0xCA9 PUSH2 0x1C1B JUMP JUMPDEST ISZERO PUSH2 0xCE9 JUMPI PUSH1 0x40 MLOAD PUSH32 0x8C379A000000000000000000000000000000000000000000000000000000000 DUP2 MSTORE PUSH1 0x4 ADD PUSH2 0xCE0 SWAP1 PUSH2 0x3B5F JUMP JUMPDEST PUSH1 0x40 MLOAD DUP1 SWAP2 SUB SWAP1 REVERT JUMPDEST PUSH1 0x6 DUP1 SLOAD SWAP1 POP DUP2 LT PUSH2 0xD30 JUMPI PUSH1 0x40 MLOAD PUSH32 0x8C379A000000000000000000000000000000000000000000000000000000000 DUP2 MSTORE PUSH1 0x4 ADD PUSH2 0xD27 SWAP1 PUSH2 0x3BCB JUMP JUMPDEST PUSH1 0x40 MLOAD DUP1 SWAP2 SUB SWAP1 REVERT JUMPDEST PUSH1 0x0 PUSH1 0x6 DUP3 DUP2 SLOAD DUP2 LT PUSH2 0xD46 JUMPI PUSH2 0xD45 PUSH2 0x3BEB JUMP JUMPDEST JUMPDEST SWAP1 PUSH1 0x0 MSTORE PUSH1 0x20 PUSH1 0x0 KECCAK256 SWAP1 PUSH1 0x8 MUL ADD SWAP1 POP PUSH1 0x0 PUSH1 0x5 PUSH1 0x0 DUP4 PUSH1 0x5 ADD PUSH1 0x0 SWAP1 SLOAD SWAP1 PUSH2 0x100 EXP SWAP1 DIV PUSH20 0xFFFFFFFFFFFFFFFFFFFFFFFFFFFFFFFFFFFFFFFF AND PUSH20 0xFFFFFFFFFFFFFFFFFFFFFFFFFFFFFFFFFFFFFFFF AND PUSH20 0xFFFFFFFFFFFFFFFFFFFFFFFFFFFFFFFFFFFFFFFF AND DUP2 MSTORE PUSH1 0x20 ADD SWAP1 DUP2 MSTORE PUSH1 0x20 ADD PUSH1 0x0 KECCAK256 PUSH1 0x40 MLOAD DUP1 PUSH1 0x60 ADD PUSH1 0x40 MSTORE SWAP1 DUP2 PUSH1 0x0 DUP3 ADD SLOAD DUP2 MSTORE PUSH1 0x20 ADD PUSH1 0x1 DUP3 ADD SLOAD DUP2 MSTORE PUSH1 0x20 ADD PUSH1 0x2 DUP3 ADD PUSH1 0x0 SWAP1 SLOAD SWAP1 PUSH2 0x100 EXP SWAP1 DIV PUSH1 0xFF AND ISZERO ISZERO ISZERO ISZERO DUP2 MSTORE POP POP SWAP1 POP TIMESTAMP DUP3 PUSH1 0x1 ADD SLOAD LT DUP1 ISZERO PUSH2 0xE19 JUMPI POP DUP2 PUSH1 0x7 ADD PUSH1 0x14 SWAP1 SLOAD SWAP1 PUSH2 0x100 EXP SWAP1 DIV PUSH1 0xFF AND ISZERO JUMPDEST DUP1 ISZERO PUSH2 0xE76 JUMPI POP PUSH1 0x0 PUSH20 0xFFFFFFFFFFFFFFFFFFFFFFFFFFFFFFFFFFFFFFFF AND DUP3 PUSH1 0x6 ADD PUSH1 0x0 SWAP1 SLOAD SWAP1 PUSH2 0x100 EXP SWAP1 DIV PUSH20 0xFFFFFFFFFFFFFFFFFFFFFFFFFFFFFFFFFFFFFFFF AND PUSH20 0xFFFFFFFFFFFFFFFFFFFFFFFFFFFFFFFFFFFFFFFF AND EQ ISZERO JUMPDEST PUSH2 0xEB5 JUMPI PUSH1 0x40 MLOAD PUSH32 0x8C379A000000000000000000000000000000000000000000000000000000000 DUP2 MSTORE PUSH1 0x4 ADD PUSH2 0xEAC SWAP1 PUSH2 0x3CD2 JUMP JUMPDEST PUSH1 0x40 MLOAD DUP1 SWAP2 SUB SWAP1 REVERT JUMPDEST PUSH1 0x1 DUP3 PUSH1 0x7 ADD PUSH1 0x14 PUSH2 0x100 EXP DUP2 SLOAD DUP2 PUSH1 0xFF MUL NOT AND SWAP1 DUP4 ISZERO ISZERO MUL OR SWAP1 SSTORE POP DUP2 PUSH1 0x4 ADD PUSH1 0x0 SWAP1 SLOAD SWAP1 PUSH2 0x100 EXP SWAP1 DIV PUSH20 0xFFFFFFFFFFFFFFFFFFFFFFFFFFFFFFFFFFFFFFFF AND PUSH20 0xFFFFFFFFFFFFFFFFFFFFFFFFFFFFFFFFFFFFFFFF AND PUSH4 0x23B872DD ADDRESS DUP5 PUSH1 0x6 ADD PUSH1 0x0 SWAP1 SLOAD SWAP1 PUSH2 0x100 EXP SWAP1 DIV PUSH20 0xFFFFFFFFFFFFFFFFFFFFFFFFFFFFFFFFFFFFFFFF AND DUP6 PUSH1 0x0 ADD SLOAD PUSH1 0x40 MLOAD DUP5 PUSH4 0xFFFFFFFF AND PUSH1 0xE0 SHL DUP2 MSTORE PUSH1 0x4 ADD PUSH2 0xF5B SWAP4 SWAP3 SWAP2 SWAP1 PUSH2 0x3CF2 JUMP JUMPDEST PUSH1 0x0 PUSH1 0x40 MLOAD DUP1 DUP4 SUB DUP2 PUSH1 0x0 DUP8 DUP1 EXTCODESIZE ISZERO DUP1 ISZERO PUSH2 0xF75 JUMPI PUSH1 0x0 DUP1 REVERT JUMPDEST POP GAS CALL ISZERO DUP1 ISZERO PUSH2 0xF89 JUMPI RETURNDATASIZE PUSH1 0x0 DUP1 RETURNDATACOPY RETURNDATASIZE PUSH1 0x0 REVERT JUMPDEST POP POP POP POP PUSH2 0x100B DUP3 PUSH1 0x5 ADD PUSH1 0x0 SWAP1 SLOAD SWAP1 PUSH2 0x100 EXP SWAP1 DIV PUSH20 0xFFFFFFFFFFFFFFFFFFFFFFFFFFFFFFFFFFFFFFFF AND DUP4 PUSH1 0x7 ADD PUSH1 0x0 SWAP1 SLOAD SWAP1 PUSH2 0x100 EXP SWAP1 DIV PUSH20 0xFFFFFFFFFFFFFFFFFFFFFFFFFFFFFFFFFFFFFFFF AND PUSH1 0x64 DUP5 PUSH1 0x0 ADD MLOAD PUSH1 0x64 PUSH2 0xFED SWAP2 SWAP1 PUSH2 0x3D58 JUMP JUMPDEST DUP7 PUSH1 0x2 ADD SLOAD PUSH2 0xFFC SWAP2 SWAP1 PUSH2 0x3D8C JUMP JUMPDEST PUSH2 0x1006 SWAP2 SWAP1 PUSH2 0x3E15 JUMP JUMPDEST PUSH2 0x29FD JUMP JUMPDEST PUSH32 0xCE721ECEB3D95B669E16E7226225B0ADCE09F2485BA78F90FC194DAE97B5501C DUP4 DUP4 PUSH1 0x6 ADD PUSH1 0x0 SWAP1 SLOAD SWAP1 PUSH2 0x100 EXP SWAP1 DIV PUSH20 0xFFFFFFFFFFFFFFFFFFFFFFFFFFFFFFFFFFFFFFFF AND DUP5 PUSH1 0x2 ADD SLOAD PUSH1 0x64 DUP6 PUSH1 0x0 ADD MLOAD DUP8 PUSH1 0x2 ADD SLOAD PUSH2 0x106D SWAP2 SWAP1 PUSH2 0x3D8C JUMP JUMPDEST PUSH2 0x1077 SWAP2 SWAP1 PUSH2 0x3E15 JUMP JUMPDEST TIMESTAMP PUSH1 0x40 MLOAD PUSH2 0x1089 SWAP6 SWAP5 SWAP4 SWAP3 SWAP2 SWAP1 PUSH2 0x3E46 JUMP JUMPDEST PUSH1 0x40 MLOAD DUP1 SWAP2 SUB SWAP1 LOG1 POP POP POP JUMP JUMPDEST PUSH1 0x5 PUSH1 0x20 MSTORE DUP1 PUSH1 0x0 MSTORE PUSH1 0x40 PUSH1 0x0 KECCAK256 PUSH1 0x0 SWAP2 POP SWAP1 POP DUP1 PUSH1 0x0 ADD SLOAD SWAP1 DUP1 PUSH1 0x1 ADD SLOAD SWAP1 DUP1 PUSH1 0x2 ADD PUSH1 0x0 SWAP1 SLOAD SWAP1 PUSH2 0x100 EXP SWAP1 DIV PUSH1 0xFF AND SWAP1 POP DUP4 JUMP JUMPDEST PUSH32 0x65D7A28E3265B37A6474929F336521B332C1681B933F6CB9F3376673440D862A PUSH2 0x10FF DUP2 PUSH2 0x10FA PUSH2 0x2AAE JUMP JUMPDEST PUSH2 0x2AB6 JUMP JUMPDEST PUSH2 0x1107 PUSH2 0x2D15 JUMP JUMPDEST POP JUMP JUMPDEST PUSH2 0x1112 PUSH2 0x1C1B JUMP JUMPDEST ISZERO PUSH2 0x1152 JUMPI PUSH1 0x40 MLOAD PUSH32 0x8C379A000000000000000000000000000000000000000000000000000000000 DUP2 MSTORE PUSH1 0x4 ADD PUSH2 0x1149 SWAP1 PUSH2 0x3B5F JUMP JUMPDEST PUSH1 0x40 MLOAD DUP1 SWAP2 SUB SWAP1 REVERT JUMPDEST PUSH1 0x6 DUP1 SLOAD SWAP1 POP DUP2 LT PUSH2 0x1199 JUMPI PUSH1 0x40 MLOAD PUSH32 0x8C379A000000000000000000000000000000000000000000000000000000000 DUP2 MSTORE PUSH1 0x4 ADD PUSH2 0x1190 SWAP1 PUSH2 0x3BCB JUMP JUMPDEST PUSH1 0x40 MLOAD DUP1 SWAP2 SUB SWAP1 REVERT JUMPDEST PUSH1 0x0 PUSH1 0x6 DUP3 DUP2 SLOAD DUP2 LT PUSH2 0x11AF JUMPI PUSH2 0x11AE PUSH2 0x3BEB JUMP JUMPDEST JUMPDEST SWAP1 PUSH1 0x0 MSTORE PUSH1 0x20 PUSH1 0x0 KECCAK256 SWAP1 PUSH1 0x8 MUL ADD SWAP1 POP CALLER PUSH20 0xFFFFFFFFFFFFFFFFFFFFFFFFFFFFFFFFFFFFFFFF AND DUP2 PUSH1 0x7 ADD PUSH1 0x0 SWAP1 SLOAD SWAP1 PUSH2 0x100 EXP SWAP1 DIV PUSH20 0xFFFFFFFFFFFFFFFFFFFFFFFFFFFFFFFFFFFFFFFF AND PUSH20 0xFFFFFFFFFFFFFFFFFFFFFFFFFFFFFFFFFFFFFFFF AND EQ PUSH2 0x1251 JUMPI PUSH1 0x40 MLOAD PUSH32 0x8C379A000000000000000000000000000000000000000000000000000000000 DUP2 MSTORE PUSH1 0x4 ADD PUSH2 0x1248 SWAP1 PUSH2 0x3F77 JUMP JUMPDEST PUSH1 0x40 MLOAD DUP1 SWAP2 SUB SWAP1 REVERT JUMPDEST PUSH1 0x0 PUSH20 0xFFFFFFFFFFFFFFFFFFFFFFFFFFFFFFFFFFFFFFFF AND DUP2 PUSH1 0x6 ADD PUSH1 0x0 SWAP1 SLOAD SWAP1 PUSH2 0x100 EXP SWAP1 DIV PUSH20 0xFFFFFFFFFFFFFFFFFFFFFFFFFFFFFFFFFFFFFFFF AND PUSH20 0xFFFFFFFFFFFFFFFFFFFFFFFFFFFFFFFFFFFFFFFF AND EQ PUSH2 0x12E4 JUMPI PUSH1 0x40 MLOAD PUSH32 0x8C379A000000000000000000000000000000000000000000000000000000000 DUP2 MSTORE PUSH1 0x4 ADD PUSH2 0x12DB SWAP1 PUSH2 0x3FE3 JUMP JUMPDEST PUSH1 0x40 MLOAD DUP1 SWAP2 SUB SWAP1 REVERT JUMPDEST DUP1 PUSH1 0x7 ADD PUSH1 0x14 SWAP1 SLOAD SWAP1 PUSH2 0x100 EXP SWAP1 DIV PUSH1 0xFF AND ISZERO PUSH2 0x1336 JUMPI PUSH1 0x40 MLOAD PUSH32 0x8C379A000000000000000000000000000000000000000000000000000000000 DUP2 MSTORE PUSH1 0x4 ADD PUSH2 0x132D SWAP1 PUSH2 0x404F JUMP JUMPDEST PUSH1 0x40 MLOAD DUP1 SWAP2 SUB SWAP1 REVERT JUMPDEST PUSH1 0x1 DUP2 PUSH1 0x7 ADD PUSH1 0x14 PUSH2 0x100 EXP DUP2 SLOAD DUP2 PUSH1 0xFF MUL NOT AND SWAP1 DUP4 ISZERO ISZERO MUL OR SWAP1 SSTORE POP DUP1 PUSH1 0x4 ADD PUSH1 0x0 SWAP1 SLOAD SWAP1 PUSH2 0x100 EXP SWAP1 DIV PUSH20 0xFFFFFFFFFFFFFFFFFFFFFFFFFFFFFFFFFFFFFFFF AND PUSH20 0xFFFFFFFFFFFFFFFFFFFFFFFFFFFFFFFFFFFFFFFF AND PUSH4 0x23B872DD ADDRESS CALLER DUP5 PUSH1 0x0 ADD SLOAD PUSH1 0x40 MLOAD DUP5 PUSH4 0xFFFFFFFF AND PUSH1 0xE0 SHL DUP2 MSTORE PUSH1 0x4 ADD PUSH2 0x13B8 SWAP4 SWAP3 SWAP2 SWAP1 PUSH2 0x3CF2 JUMP JUMPDEST PUSH1 0x0 PUSH1 0x40 MLOAD DUP1 DUP4 SUB DUP2 PUSH1 0x0 DUP8 DUP1 EXTCODESIZE ISZERO DUP1 ISZERO PUSH2 0x13D2 JUMPI PUSH1 0x0 DUP1 REVERT JUMPDEST POP GAS CALL ISZERO DUP1 ISZERO PUSH2 0x13E6 JUMPI RETURNDATASIZE PUSH1 0x0 DUP1 RETURNDATACOPY RETURNDATASIZE PUSH1 0x0 REVERT JUMPDEST POP POP POP POP PUSH32 0xDAEA36F3BD03E8D765478AFD092EBE5AB48DCE17051D09CF6D5876FDD5083D68 DUP3 TIMESTAMP PUSH1 0x40 MLOAD PUSH2 0x141B SWAP3 SWAP2 SWAP1 PUSH2 0x406F JUMP JUMPDEST PUSH1 0x40 MLOAD DUP1 SWAP2 SUB SWAP1 LOG1 POP POP JUMP JUMPDEST PUSH1 0x4 PUSH1 0x20 MSTORE DUP1 PUSH1 0x0 MSTORE PUSH1 0x40 PUSH1 0x0 KECCAK256 PUSH1 0x0 SWAP2 POP SLOAD SWAP1 PUSH2 0x100 EXP SWAP1 DIV PUSH1 0xFF AND DUP2 JUMP JUMPDEST PUSH1 0x0 DUP1 SHL PUSH2 0x145C DUP2 PUSH2 0x1457 PUSH2 0x2AAE JUMP JUMPDEST PUSH2 0x2AB6 JUMP JUMPDEST PUSH1 0x40 MLOAD DUP1 PUSH1 0x60 ADD PUSH1 0x40 MSTORE DUP1 DUP6 DUP2 MSTORE PUSH1 0x20 ADD DUP5 DUP2 MSTORE PUSH1 0x20 ADD DUP4 ISZERO ISZERO DUP2 MSTORE POP PUSH1 0x5 PUSH1 0x0 DUP8 PUSH20 0xFFFFFFFFFFFFFFFFFFFFFFFFFFFFFFFFFFFFFFFF AND PUSH20 0xFFFFFFFFFFFFFFFFFFFFFFFFFFFFFFFFFFFFFFFF AND DUP2 MSTORE PUSH1 0x20 ADD SWAP1 DUP2 MSTORE PUSH1 0x20 ADD PUSH1 0x0 KECCAK256 PUSH1 0x0 DUP3 ADD MLOAD DUP2 PUSH1 0x0 ADD SSTORE PUSH1 0x20 DUP3 ADD MLOAD DUP2 PUSH1 0x1 ADD SSTORE PUSH1 0x40 DUP3 ADD MLOAD DUP2 PUSH1 0x2 ADD PUSH1 0x0 PUSH2 0x100 EXP DUP2 SLOAD DUP2 PUSH1 0xFF MUL NOT AND SWAP1 DUP4 ISZERO ISZERO MUL OR SWAP1 SSTORE POP SWAP1 POP POP PUSH32 0x1CB06435B5F99AFF99488AF742354D648BEC6FCFAB75723907A8562E6CF2954D DUP6 DUP6 DUP5 PUSH1 0x40 MLOAD PUSH2 0x1522 SWAP4 SWAP3 SWAP2 SWAP1 PUSH2 0x4098 JUMP JUMPDEST PUSH1 0x40 MLOAD DUP1 SWAP2 SUB SWAP1 LOG1 POP POP POP POP POP JUMP JUMPDEST PUSH2 0x1539 PUSH2 0x1C1B JUMP JUMPDEST ISZERO PUSH2 0x1579 JUMPI PUSH1 0x40 MLOAD PUSH32 0x8C379A000000000000000000000000000000000000000000000000000000000 DUP2 MSTORE PUSH1 0x4 ADD PUSH2 0x1570 SWAP1 PUSH2 0x3B5F JUMP JUMPDEST PUSH1 0x40 MLOAD DUP1 SWAP2 SUB SWAP1 REVERT JUMPDEST PUSH1 0x6 DUP1 SLOAD SWAP1 POP DUP3 LT PUSH2 0x15C0 JUMPI PUSH1 0x40 MLOAD PUSH32 0x8C379A000000000000000000000000000000000000000000000000000000000 DUP2 MSTORE PUSH1 0x4 ADD PUSH2 0x15B7 SWAP1 PUSH2 0x3BCB JUMP JUMPDEST PUSH1 0x40 MLOAD DUP1 SWAP2 SUB SWAP1 REVERT JUMPDEST PUSH1 0x0 PUSH1 0x6 DUP4 DUP2 SLOAD DUP2 LT PUSH2 0x15D6 JUMPI PUSH2 0x15D5 PUSH2 0x3BEB JUMP JUMPDEST JUMPDEST SWAP1 PUSH1 0x0 MSTORE PUSH1 0x20 PUSH1 0x0 KECCAK256 SWAP1 PUSH1 0x8 MUL ADD SWAP1 POP PUSH1 0x0 PUSH1 0x5 PUSH1 0x0 DUP4 PUSH1 0x5 ADD PUSH1 0x0 SWAP1 SLOAD SWAP1 PUSH2 0x100 EXP SWAP1 DIV PUSH20 0xFFFFFFFFFFFFFFFFFFFFFFFFFFFFFFFFFFFFFFFF AND PUSH20 0xFFFFFFFFFFFFFFFFFFFFFFFFFFFFFFFFFFFFFFFF AND PUSH20 0xFFFFFFFFFFFFFFFFFFFFFFFFFFFFFFFFFFFFFFFF AND DUP2 MSTORE PUSH1 0x20 ADD SWAP1 DUP2 MSTORE PUSH1 0x20 ADD PUSH1 0x0 KECCAK256 PUSH1 0x40 MLOAD DUP1 PUSH1 0x60 ADD PUSH1 0x40 MSTORE SWAP1 DUP2 PUSH1 0x0 DUP3 ADD SLOAD DUP2 MSTORE PUSH1 0x20 ADD PUSH1 0x1 DUP3 ADD SLOAD DUP2 MSTORE PUSH1 0x20 ADD PUSH1 0x2 DUP3 ADD PUSH1 0x0 SWAP1 SLOAD SWAP1 PUSH2 0x100 EXP SWAP1 DIV PUSH1 0xFF AND ISZERO ISZERO ISZERO ISZERO DUP2 MSTORE POP POP SWAP1 POP PUSH1 0x0 PUSH20 0xFFFFFFFFFFFFFFFFFFFFFFFFFFFFFFFFFFFFFFFF AND DUP3 PUSH1 0x5 ADD PUSH1 0x0 SWAP1 SLOAD SWAP1 PUSH2 0x100 EXP SWAP1 DIV PUSH20 0xFFFFFFFFFFFFFFFFFFFFFFFFFFFFFFFFFFFFFFFF AND PUSH20 0xFFFFFFFFFFFFFFFFFFFFFFFFFFFFFFFFFFFFFFFF AND SUB PUSH2 0x16E7 JUMPI CALLVALUE SWAP3 POP PUSH2 0x177C JUMP JUMPDEST PUSH1 0x0 CALLVALUE EQ PUSH2 0x172A JUMPI PUSH1 0x40 MLOAD PUSH32 0x8C379A000000000000000000000000000000000000000000000000000000000 DUP2 MSTORE PUSH1 0x4 ADD PUSH2 0x1721 SWAP1 PUSH2 0x411B JUMP JUMPDEST PUSH1 0x40 MLOAD DUP1 SWAP2 SUB SWAP1 REVERT JUMPDEST PUSH2 0x177B CALLER ADDRESS DUP6 DUP6 PUSH1 0x5 ADD PUSH1 0x0 SWAP1 SLOAD SWAP1 PUSH2 0x100 EXP SWAP1 DIV PUSH20 0xFFFFFFFFFFFFFFFFFFFFFFFFFFFFFFFFFFFFFFFF AND PUSH20 0xFFFFFFFFFFFFFFFFFFFFFFFFFFFFFFFFFFFFFFFF AND PUSH2 0x2DB6 SWAP1 SWAP4 SWAP3 SWAP2 SWAP1 PUSH4 0xFFFFFFFF AND JUMP JUMPDEST JUMPDEST DUP2 PUSH1 0x7 ADD PUSH1 0x14 SWAP1 SLOAD SWAP1 PUSH2 0x100 EXP SWAP1 DIV PUSH1 0xFF AND ISZERO PUSH2 0x17CE JUMPI PUSH1 0x40 MLOAD PUSH32 0x8C379A000000000000000000000000000000000000000000000000000000000 DUP2 MSTORE PUSH1 0x4 ADD PUSH2 0x17C5 SWAP1 PUSH2 0x4187 JUMP JUMPDEST PUSH1 0x40 MLOAD DUP1 SWAP2 SUB SWAP1 REVERT JUMPDEST TIMESTAMP DUP3 PUSH1 0x1 ADD SLOAD GT PUSH2 0x1814 JUMPI PUSH1 0x40 MLOAD PUSH32 0x8C379A000000000000000000000000000000000000000000000000000000000 DUP2 MSTORE PUSH1 0x4 ADD PUSH2 0x180B SWAP1 PUSH2 0x41F3 JUMP JUMPDEST PUSH1 0x40 MLOAD DUP1 SWAP2 SUB SWAP1 REVERT JUMPDEST DUP3 DUP2 PUSH1 0x20 ADD MLOAD DUP4 PUSH1 0x2 ADD SLOAD PUSH2 0x1829 SWAP2 SWAP1 PUSH2 0x4213 JUMP JUMPDEST GT ISZERO DUP1 PUSH2 0x184A JUMPI POP PUSH1 0x0 DUP3 PUSH1 0x3 ADD SLOAD EQ ISZERO DUP1 ISZERO PUSH2 0x1849 JUMPI POP DUP2 PUSH1 0x3 ADD SLOAD DUP4 EQ JUMPDEST JUMPDEST PUSH2 0x1889 JUMPI PUSH1 0x40 MLOAD PUSH32 0x8C379A000000000000000000000000000000000000000000000000000000000 DUP2 MSTORE PUSH1 0x4 ADD PUSH2 0x1880 SWAP1 PUSH2 0x42B5 JUMP JUMPDEST PUSH1 0x40 MLOAD DUP1 SWAP2 SUB SWAP1 REVERT JUMPDEST PUSH1 0x0 PUSH20 0xFFFFFFFFFFFFFFFFFFFFFFFFFFFFFFFFFFFFFFFF AND DUP3 PUSH1 0x6 ADD PUSH1 0x0 SWAP1 SLOAD SWAP1 PUSH2 0x100 EXP SWAP1 DIV PUSH20 0xFFFFFFFFFFFFFFFFFFFFFFFFFFFFFFFFFFFFFFFF AND PUSH20 0xFFFFFFFFFFFFFFFFFFFFFFFFFFFFFFFFFFFFFFFF AND EQ PUSH2 0x1939 JUMPI PUSH2 0x1938 DUP3 PUSH1 0x5 ADD PUSH1 0x0 SWAP1 SLOAD SWAP1 PUSH2 0x100 EXP SWAP1 DIV PUSH20 0xFFFFFFFFFFFFFFFFFFFFFFFFFFFFFFFFFFFFFFFF AND DUP4 PUSH1 0x6 ADD PUSH1 0x0 SWAP1 SLOAD SWAP1 PUSH2 0x100 EXP SWAP1 DIV PUSH20 0xFFFFFFFFFFFFFFFFFFFFFFFFFFFFFFFFFFFFFFFF AND DUP5 PUSH1 0x2 ADD SLOAD PUSH2 0x29FD JUMP JUMPDEST JUMPDEST PUSH1 0x0 DUP3 PUSH1 0x3 ADD SLOAD EQ ISZERO DUP1 ISZERO PUSH2 0x1952 JUMPI POP DUP2 PUSH1 0x3 ADD SLOAD DUP4 LT ISZERO JUMPDEST ISZERO PUSH2 0x1B8B JUMPI PUSH2 0x19D5 DUP3 PUSH1 0x5 ADD PUSH1 0x0 SWAP1 SLOAD SWAP1 PUSH2 0x100 EXP SWAP1 DIV PUSH20 0xFFFFFFFFFFFFFFFFFFFFFFFFFFFFFFFFFFFFFFFF AND DUP4 PUSH1 0x7 ADD PUSH1 0x0 SWAP1 SLOAD SWAP1 PUSH2 0x100 EXP SWAP1 DIV PUSH20 0xFFFFFFFFFFFFFFFFFFFFFFFFFFFFFFFFFFFFFFFF AND PUSH1 0x64 DUP5 PUSH1 0x0 ADD MLOAD PUSH1 0x64 PUSH2 0x19B7 SWAP2 SWAP1 PUSH2 0x3D58 JUMP JUMPDEST DUP7 PUSH1 0x3 ADD SLOAD PUSH2 0x19C6 SWAP2 SWAP1 PUSH2 0x3D8C JUMP JUMPDEST PUSH2 0x19D0 SWAP2 SWAP1 PUSH2 0x3E15 JUMP JUMPDEST PUSH2 0x29FD JUMP JUMPDEST DUP2 PUSH1 0x3 ADD SLOAD DUP4 GT ISZERO PUSH2 0x1A20 JUMPI PUSH2 0x1A1F DUP3 PUSH1 0x5 ADD PUSH1 0x0 SWAP1 SLOAD SWAP1 PUSH2 0x100 EXP SWAP1 DIV PUSH20 0xFFFFFFFFFFFFFFFFFFFFFFFFFFFFFFFFFFFFFFFF AND CALLER DUP6 DUP6 PUSH1 0x3 ADD SLOAD PUSH2 0x1A1A SWAP2 SWAP1 PUSH2 0x3D58 JUMP JUMPDEST PUSH2 0x29FD JUMP JUMPDEST JUMPDEST CALLER DUP3 PUSH1 0x6 ADD PUSH1 0x0 PUSH2 0x100 EXP DUP2 SLOAD DUP2 PUSH20 0xFFFFFFFFFFFFFFFFFFFFFFFFFFFFFFFFFFFFFFFF MUL NOT AND SWAP1 DUP4 PUSH20 0xFFFFFFFFFFFFFFFFFFFFFFFFFFFFFFFFFFFFFFFF AND MUL OR SWAP1 SSTORE POP DUP2 PUSH1 0x3 ADD SLOAD DUP3 PUSH1 0x2 ADD DUP2 SWAP1 SSTORE POP PUSH1 0x1 DUP3 PUSH1 0x7 ADD PUSH1 0x14 PUSH2 0x100 EXP DUP2 SLOAD DUP2 PUSH1 0xFF MUL NOT AND SWAP1 DUP4 ISZERO ISZERO MUL OR SWAP1 SSTORE POP DUP2 PUSH1 0x4 ADD PUSH1 0x0 SWAP1 SLOAD SWAP1 PUSH2 0x100 EXP SWAP1 DIV PUSH20 0xFFFFFFFFFFFFFFFFFFFFFFFFFFFFFFFFFFFFFFFF AND PUSH20 0xFFFFFFFFFFFFFFFFFFFFFFFFFFFFFFFFFFFFFFFF AND PUSH4 0x23B872DD ADDRESS CALLER DUP6 PUSH1 0x0 ADD SLOAD PUSH1 0x40 MLOAD DUP5 PUSH4 0xFFFFFFFF AND PUSH1 0xE0 SHL DUP2 MSTORE PUSH1 0x4 ADD PUSH2 0x1AF2 SWAP4 SWAP3 SWAP2 SWAP1 PUSH2 0x3CF2 JUMP JUMPDEST PUSH1 0x0 PUSH1 0x40 MLOAD DUP1 DUP4 SUB DUP2 PUSH1 0x0 DUP8 DUP1 EXTCODESIZE ISZERO DUP1 ISZERO PUSH2 0x1B0C JUMPI PUSH1 0x0 DUP1 REVERT JUMPDEST POP GAS CALL ISZERO DUP1 ISZERO PUSH2 0x1B20 JUMPI RETURNDATASIZE PUSH1 0x0 DUP1 RETURNDATACOPY RETURNDATASIZE PUSH1 0x0 REVERT JUMPDEST POP POP POP POP PUSH32 0xCE721ECEB3D95B669E16E7226225B0ADCE09F2485BA78F90FC194DAE97B5501C DUP5 CALLER DUP5 PUSH1 0x3 ADD SLOAD PUSH1 0x64 DUP6 PUSH1 0x0 ADD MLOAD DUP8 PUSH1 0x3 ADD SLOAD PUSH2 0x1B62 SWAP2 SWAP1 PUSH2 0x3D8C JUMP JUMPDEST PUSH2 0x1B6C SWAP2 SWAP1 PUSH2 0x3E15 JUMP JUMPDEST TIMESTAMP PUSH1 0x40 MLOAD PUSH2 0x1B7E SWAP6 SWAP5 SWAP4 SWAP3 SWAP2 SWAP1 PUSH2 0x3E46 JUMP JUMPDEST PUSH1 0x40 MLOAD DUP1 SWAP2 SUB SWAP1 LOG1 PUSH2 0x1C15 JUMP JUMPDEST CALLER DUP3 PUSH1 0x6 ADD PUSH1 0x0 PUSH2 0x100 EXP DUP2 SLOAD DUP2 PUSH20 0xFFFFFFFFFFFFFFFFFFFFFFFFFFFFFFFFFFFFFFFF MUL NOT AND SWAP1 DUP4 PUSH20 0xFFFFFFFFFFFFFFFFFFFFFFFFFFFFFFFFFFFFFFFF AND MUL OR SWAP1 SSTORE POP DUP3 DUP3 PUSH1 0x2 ADD DUP2 SWAP1 SSTORE POP PUSH32 0x4DCC013473324698BFBE263FACEC4EA4B1BC43624236542DEABEC62C2122B305 CALLER TIMESTAMP DUP7 DUP7 PUSH1 0x40 MLOAD PUSH2 0x1C0C SWAP5 SWAP4 SWAP3 SWAP2 SWAP1 PUSH2 0x42D5 JUMP JUMPDEST PUSH1 0x40 MLOAD DUP1 SWAP2 SUB SWAP1 LOG1 JUMPDEST POP POP POP POP JUMP JUMPDEST PUSH1 0x0 DUP1 PUSH1 0x0 SWAP1 SLOAD SWAP1 PUSH2 0x100 EXP SWAP1 DIV PUSH1 0xFF AND SWAP1 POP SWAP1 JUMP JUMPDEST PUSH32 0xD6EC3D4E172787E4FBB9572FE6DFF2EBFF47878D0878CD2C913F5C49B4487EA0 DUP2 JUMP JUMPDEST PUSH32 0xD6EC3D4E172787E4FBB9572FE6DFF2EBFF47878D0878CD2C913F5C49B4487EA0 PUSH2 0x1C87 DUP2 PUSH2 0x1C82 PUSH2 0x2AAE JUMP JUMPDEST PUSH2 0x2AB6 JUMP JUMPDEST PUSH1 0x1 PUSH1 0x4 PUSH1 0x0 DUP5 PUSH20 0xFFFFFFFFFFFFFFFFFFFFFFFFFFFFFFFFFFFFFFFF AND PUSH20 0xFFFFFFFFFFFFFFFFFFFFFFFFFFFFFFFFFFFFFFFF AND DUP2 MSTORE PUSH1 0x20 ADD SWAP1 DUP2 MSTORE PUSH1 0x20 ADD PUSH1 0x0 KECCAK256 PUSH1 0x0 PUSH2 0x100 EXP DUP2 SLOAD DUP2 PUSH1 0xFF MUL NOT AND SWAP1 DUP4 ISZERO ISZERO MUL OR SWAP1 SSTORE POP POP POP JUMP JUMPDEST PUSH32 0x65D7A28E3265B37A6474929F336521B332C1681B933F6CB9F3376673440D862A PUSH2 0x1D15 DUP2 PUSH2 0x1D10 PUSH2 0x2AAE JUMP JUMPDEST PUSH2 0x2AB6 JUMP JUMPDEST PUSH2 0x1D1D PUSH2 0x2E3F JUMP JUMPDEST POP JUMP JUMPDEST PUSH1 0x3 PUSH1 0x0 SWAP1 SLOAD SWAP1 PUSH2 0x100 EXP SWAP1 DIV PUSH20 0xFFFFFFFFFFFFFFFFFFFFFFFFFFFFFFFFFFFFFFFF AND DUP2 JUMP JUMPDEST PUSH1 0x0 PUSH1 0x1 PUSH1 0x0 DUP5 DUP2 MSTORE PUSH1 0x20 ADD SWAP1 DUP2 MSTORE PUSH1 0x20 ADD PUSH1 0x0 KECCAK256 PUSH1 0x0 ADD PUSH1 0x0 DUP4 PUSH20 0xFFFFFFFFFFFFFFFFFFFFFFFFFFFFFFFFFFFFFFFF AND PUSH20 0xFFFFFFFFFFFFFFFFFFFFFFFFFFFFFFFFFFFFFFFF AND DUP2 MSTORE PUSH1 0x20 ADD SWAP1 DUP2 MSTORE PUSH1 0x20 ADD PUSH1 0x0 KECCAK256 PUSH1 0x0 SWAP1 SLOAD SWAP1 PUSH2 0x100 EXP SWAP1 DIV PUSH1 0xFF AND SWAP1 POP SWAP3 SWAP2 POP POP JUMP JUMPDEST PUSH32 0xD6EC3D4E172787E4FBB9572FE6DFF2EBFF47878D0878CD2C913F5C49B4487EA0 PUSH2 0x1DE3 DUP2 PUSH2 0x1DDE PUSH2 0x2AAE JUMP JUMPDEST PUSH2 0x2AB6 JUMP JUMPDEST DUP2 PUSH1 0x2 DUP2 SWAP1 SSTORE POP POP POP JUMP JUMPDEST PUSH1 0x0 DUP1 SHL PUSH2 0x1E03 DUP2 PUSH2 0x1DFE PUSH2 0x2AAE JUMP JUMPDEST PUSH2 0x2AB6 JUMP JUMPDEST PUSH1 0x6 DUP1 SLOAD SWAP1 POP DUP3 LT PUSH2 0x1E4A JUMPI PUSH1 0x40 MLOAD PUSH32 0x8C379A000000000000000000000000000000000000000000000000000000000 DUP2 MSTORE PUSH1 0x4 ADD PUSH2 0x1E41 SWAP1 PUSH2 0x3BCB JUMP JUMPDEST PUSH1 0x40 MLOAD DUP1 SWAP2 SUB SWAP1 REVERT JUMPDEST PUSH1 0x0 PUSH1 0x6 DUP4 DUP2 SLOAD DUP2 LT PUSH2 0x1E60 JUMPI PUSH2 0x1E5F PUSH2 0x3BEB JUMP JUMPDEST JUMPDEST SWAP1 PUSH1 0x0 MSTORE PUSH1 0x20 PUSH1 0x0 KECCAK256 SWAP1 PUSH1 0x8 MUL ADD SWAP1 POP PUSH1 0x0 PUSH20 0xFFFFFFFFFFFFFFFFFFFFFFFFFFFFFFFFFFFFFFFF AND DUP2 PUSH1 0x6 ADD PUSH1 0x0 SWAP1 SLOAD SWAP1 PUSH2 0x100 EXP SWAP1 DIV PUSH20 0xFFFFFFFFFFFFFFFFFFFFFFFFFFFFFFFFFFFFFFFF AND PUSH20 0xFFFFFFFFFFFFFFFFFFFFFFFFFFFFFFFFFFFFFFFF AND EQ PUSH2 0x1F03 JUMPI PUSH1 0x40 MLOAD PUSH32 0x8C379A000000000000000000000000000000000000000000000000000000000 DUP2 MSTORE PUSH1 0x4 ADD PUSH2 0x1EFA SWAP1 PUSH2 0x3FE3 JUMP JUMPDEST PUSH1 0x40 MLOAD DUP1 SWAP2 SUB SWAP1 REVERT JUMPDEST DUP1 PUSH1 0x7 ADD PUSH1 0x14 SWAP1 SLOAD SWAP1 PUSH2 0x100 EXP SWAP1 DIV PUSH1 0xFF AND ISZERO PUSH2 0x1F55 JUMPI PUSH1 0x40 MLOAD PUSH32 0x8C379A000000000000000000000000000000000000000000000000000000000 DUP2 MSTORE PUSH1 0x4 ADD PUSH2 0x1F4C SWAP1 PUSH2 0x404F JUMP JUMPDEST PUSH1 0x40 MLOAD DUP1 SWAP2 SUB SWAP1 REVERT JUMPDEST PUSH1 0x1 DUP2 PUSH1 0x7 ADD PUSH1 0x14 PUSH2 0x100 EXP DUP2 SLOAD DUP2 PUSH1 0xFF MUL NOT AND SWAP1 DUP4 ISZERO ISZERO MUL OR SWAP1 SSTORE POP DUP1 PUSH1 0x4 ADD PUSH1 0x0 SWAP1 SLOAD SWAP1 PUSH2 0x100 EXP SWAP1 DIV PUSH20 0xFFFFFFFFFFFFFFFFFFFFFFFFFFFFFFFFFFFFFFFF AND PUSH20 0xFFFFFFFFFFFFFFFFFFFFFFFFFFFFFFFFFFFFFFFF AND PUSH4 0x23B872DD ADDRESS DUP4 PUSH1 0x7 ADD PUSH1 0x0 SWAP1 SLOAD SWAP1 PUSH2 0x100 EXP SWAP1 DIV PUSH20 0xFFFFFFFFFFFFFFFFFFFFFFFFFFFFFFFFFFFFFFFF AND DUP5 PUSH1 0x0 ADD SLOAD PUSH1 0x40 MLOAD DUP5 PUSH4 0xFFFFFFFF AND PUSH1 0xE0 SHL DUP2 MSTORE PUSH1 0x4 ADD PUSH2 0x1FFB SWAP4 SWAP3 SWAP2 SWAP1 PUSH2 0x3CF2 JUMP JUMPDEST PUSH1 0x0 PUSH1 0x40 MLOAD DUP1 DUP4 SUB DUP2 PUSH1 0x0 DUP8 DUP1 EXTCODESIZE ISZERO DUP1 ISZERO PUSH2 0x2015 JUMPI PUSH1 0x0 DUP1 REVERT JUMPDEST POP GAS CALL ISZERO DUP1 ISZERO PUSH2 0x2029 JUMPI RETURNDATASIZE PUSH1 0x0 DUP1 RETURNDATACOPY RETURNDATASIZE PUSH1 0x0 REVERT JUMPDEST POP POP POP POP PUSH32 0xDAEA36F3BD03E8D765478AFD092EBE5AB48DCE17051D09CF6D5876FDD5083D68 DUP4 TIMESTAMP PUSH1 0x40 MLOAD PUSH2 0x205E SWAP3 SWAP2 SWAP1 PUSH2 0x406F JUMP JUMPDEST PUSH1 0x40 MLOAD DUP1 SWAP2 SUB SWAP1 LOG1 POP POP POP JUMP JUMPDEST PUSH1 0x0 DUP1 SHL DUP2 JUMP JUMPDEST PUSH1 0x6 DUP2 DUP2 SLOAD DUP2 LT PUSH2 0x2082 JUMPI PUSH1 0x0 DUP1 REVERT JUMPDEST SWAP1 PUSH1 0x0 MSTORE PUSH1 0x20 PUSH1 0x0 KECCAK256 SWAP1 PUSH1 0x8 MUL ADD PUSH1 0x0 SWAP2 POP SWAP1 POP DUP1 PUSH1 0x0 ADD SLOAD SWAP1 DUP1 PUSH1 0x1 ADD SLOAD SWAP1 DUP1 PUSH1 0x2 ADD SLOAD SWAP1 DUP1 PUSH1 0x3 ADD SLOAD SWAP1 DUP1 PUSH1 0x4 ADD PUSH1 0x0 SWAP1 SLOAD SWAP1 PUSH2 0x100 EXP SWAP1 DIV PUSH20 0xFFFFFFFFFFFFFFFFFFFFFFFFFFFFFFFFFFFFFFFF AND SWAP1 DUP1 PUSH1 0x5 ADD PUSH1 0x0 SWAP1 SLOAD SWAP1 PUSH2 0x100 EXP SWAP1 DIV PUSH20 0xFFFFFFFFFFFFFFFFFFFFFFFFFFFFFFFFFFFFFFFF AND SWAP1 DUP1 PUSH1 0x6 ADD PUSH1 0x0 SWAP1 SLOAD SWAP1 PUSH2 0x100 EXP SWAP1 DIV PUSH20 0xFFFFFFFFFFFFFFFFFFFFFFFFFFFFFFFFFFFFFFFF AND SWAP1 DUP1 PUSH1 0x7 ADD PUSH1 0x0 SWAP1 SLOAD SWAP1 PUSH2 0x100 EXP SWAP1 DIV PUSH20 0xFFFFFFFFFFFFFFFFFFFFFFFFFFFFFFFFFFFFFFFF AND SWAP1 DUP1 PUSH1 0x7 ADD PUSH1 0x14 SWAP1 SLOAD SWAP1 PUSH2 0x100 EXP SWAP1 DIV PUSH1 0xFF AND SWAP1 POP DUP10 JUMP JUMPDEST PUSH32 0xD6EC3D4E172787E4FBB9572FE6DFF2EBFF47878D0878CD2C913F5C49B4487EA0 PUSH2 0x218F DUP2 PUSH2 0x218A PUSH2 0x2AAE JUMP JUMPDEST PUSH2 0x2AB6 JUMP JUMPDEST PUSH1 0x0 PUSH1 0x4 PUSH1 0x0 DUP5 PUSH20 0xFFFFFFFFFFFFFFFFFFFFFFFFFFFFFFFFFFFFFFFF AND PUSH20 0xFFFFFFFFFFFFFFFFFFFFFFFFFFFFFFFFFFFFFFFF AND DUP2 MSTORE PUSH1 0x20 ADD SWAP1 DUP2 MSTORE PUSH1 0x20 ADD PUSH1 0x0 KECCAK256 PUSH1 0x0 PUSH2 0x100 EXP DUP2 SLOAD DUP2 PUSH1 0xFF MUL NOT AND SWAP1 DUP4 ISZERO ISZERO MUL OR SWAP1 SSTORE POP POP POP JUMP JUMPDEST PUSH1 0x0 DUP1 DUP3 SWAP1 POP PUSH1 0x0 DUP2 MLOAD SUB PUSH2 0x2206 JUMPI PUSH1 0x0 DUP1 SHL SWAP2 POP POP PUSH2 0x220F JUMP JUMPDEST PUSH1 0x20 DUP4 ADD MLOAD SWAP2 POP POP JUMPDEST SWAP2 SWAP1 POP JUMP JUMPDEST PUSH2 0x221D DUP3 PUSH2 0xBD5 JUMP JUMPDEST PUSH2 0x222E DUP2 PUSH2 0x2229 PUSH2 0x2AAE JUMP JUMPDEST PUSH2 0x2AB6 JUMP JUMPDEST PUSH2 0x2238 DUP4 DUP4 PUSH2 0x2C33 JUMP JUMPDEST POP POP POP JUMP JUMPDEST PUSH2 0x2245 PUSH2 0x1C1B JUMP JUMPDEST ISZERO PUSH2 0x2285 JUMPI PUSH1 0x40 MLOAD PUSH32 0x8C379A000000000000000000000000000000000000000000000000000000000 DUP2 MSTORE PUSH1 0x4 ADD PUSH2 0x227C SWAP1 PUSH2 0x3B5F JUMP JUMPDEST PUSH1 0x40 MLOAD DUP1 SWAP2 SUB SWAP1 REVERT JUMPDEST PUSH1 0x4 PUSH1 0x0 DUP8 PUSH20 0xFFFFFFFFFFFFFFFFFFFFFFFFFFFFFFFFFFFFFFFF AND PUSH20 0xFFFFFFFFFFFFFFFFFFFFFFFFFFFFFFFFFFFFFFFF AND DUP2 MSTORE PUSH1 0x20 ADD SWAP1 DUP2 MSTORE PUSH1 0x20 ADD PUSH1 0x0 KECCAK256 PUSH1 0x0 SWAP1 SLOAD SWAP1 PUSH2 0x100 EXP SWAP1 DIV PUSH1 0xFF AND PUSH2 0x2311 JUMPI PUSH1 0x40 MLOAD PUSH32 0x8C379A000000000000000000000000000000000000000000000000000000000 DUP2 MSTORE PUSH1 0x4 ADD PUSH2 0x2308 SWAP1 PUSH2 0x4366 JUMP JUMPDEST PUSH1 0x40 MLOAD DUP1 SWAP2 SUB SWAP1 REVERT JUMPDEST PUSH1 0x5 PUSH1 0x0 DUP7 PUSH20 0xFFFFFFFFFFFFFFFFFFFFFFFFFFFFFFFFFFFFFFFF AND PUSH20 0xFFFFFFFFFFFFFFFFFFFFFFFFFFFFFFFFFFFFFFFF AND DUP2 MSTORE PUSH1 0x20 ADD SWAP1 DUP2 MSTORE PUSH1 0x20 ADD PUSH1 0x0 KECCAK256 PUSH1 0x2 ADD PUSH1 0x0 SWAP1 SLOAD SWAP1 PUSH2 0x100 EXP SWAP1 DIV PUSH1 0xFF AND PUSH2 0x23A0 JUMPI PUSH1 0x40 MLOAD PUSH32 0x8C379A000000000000000000000000000000000000000000000000000000000 DUP2 MSTORE PUSH1 0x4 ADD PUSH2 0x2397 SWAP1 PUSH2 0x43D2 JUMP JUMPDEST PUSH1 0x40 MLOAD DUP1 SWAP2 SUB SWAP1 REVERT JUMPDEST CALLER PUSH20 0xFFFFFFFFFFFFFFFFFFFFFFFFFFFFFFFFFFFFFFFF AND DUP7 PUSH20 0xFFFFFFFFFFFFFFFFFFFFFFFFFFFFFFFFFFFFFFFF AND PUSH4 0x6352211E DUP7 PUSH1 0x40 MLOAD DUP3 PUSH4 0xFFFFFFFF AND PUSH1 0xE0 SHL DUP2 MSTORE PUSH1 0x4 ADD PUSH2 0x23F0 SWAP2 SWAP1 PUSH2 0x34F8 JUMP JUMPDEST PUSH1 0x20 PUSH1 0x40 MLOAD DUP1 DUP4 SUB DUP2 DUP7 GAS STATICCALL ISZERO DUP1 ISZERO PUSH2 0x240D JUMPI RETURNDATASIZE PUSH1 0x0 DUP1 RETURNDATACOPY RETURNDATASIZE PUSH1 0x0 REVERT JUMPDEST POP POP POP POP PUSH1 0x40 MLOAD RETURNDATASIZE PUSH1 0x1F NOT PUSH1 0x1F DUP3 ADD AND DUP3 ADD DUP1 PUSH1 0x40 MSTORE POP DUP2 ADD SWAP1 PUSH2 0x2431 SWAP2 SWAP1 PUSH2 0x4407 JUMP JUMPDEST PUSH20 0xFFFFFFFFFFFFFFFFFFFFFFFFFFFFFFFFFFFFFFFF AND EQ PUSH2 0x2487 JUMPI PUSH1 0x40 MLOAD PUSH32 0x8C379A000000000000000000000000000000000000000000000000000000000 DUP2 MSTORE PUSH1 0x4 ADD PUSH2 0x247E SWAP1 PUSH2 0x4480 JUMP JUMPDEST PUSH1 0x40 MLOAD DUP1 SWAP2 SUB SWAP1 REVERT JUMPDEST PUSH1 0x0 DUP3 GT PUSH2 0x24CA JUMPI PUSH1 0x40 MLOAD PUSH32 0x8C379A000000000000000000000000000000000000000000000000000000000 DUP2 MSTORE PUSH1 0x4 ADD PUSH2 0x24C1 SWAP1 PUSH2 0x44EC JUMP JUMPDEST PUSH1 0x40 MLOAD DUP1 SWAP2 SUB SWAP1 REVERT JUMPDEST DUP2 DUP2 LT ISZERO DUP1 PUSH2 0x24D9 JUMPI POP PUSH1 0x0 DUP2 EQ JUMPDEST PUSH2 0x2518 JUMPI PUSH1 0x40 MLOAD PUSH32 0x8C379A000000000000000000000000000000000000000000000000000000000 DUP2 MSTORE PUSH1 0x4 ADD PUSH2 0x250F SWAP1 PUSH2 0x4558 JUMP JUMPDEST PUSH1 0x40 MLOAD DUP1 SWAP2 SUB SWAP1 REVERT JUMPDEST TIMESTAMP PUSH1 0x2 SLOAD PUSH2 0x2526 SWAP2 SWAP1 PUSH2 0x4213 JUMP JUMPDEST DUP4 LT ISZERO PUSH2 0x2568 JUMPI PUSH1 0x40 MLOAD PUSH32 0x8C379A000000000000000000000000000000000000000000000000000000000 DUP2 MSTORE PUSH1 0x4 ADD PUSH2 0x255F SWAP1 PUSH2 0x45C4 JUMP JUMPDEST PUSH1 0x40 MLOAD DUP1 SWAP2 SUB SWAP1 REVERT JUMPDEST DUP6 PUSH20 0xFFFFFFFFFFFFFFFFFFFFFFFFFFFFFFFFFFFFFFFF AND PUSH4 0x23B872DD CALLER ADDRESS DUP8 PUSH1 0x40 MLOAD DUP5 PUSH4 0xFFFFFFFF AND PUSH1 0xE0 SHL DUP2 MSTORE PUSH1 0x4 ADD PUSH2 0x25A5 SWAP4 SWAP3 SWAP2 SWAP1 PUSH2 0x3CF2 JUMP JUMPDEST PUSH1 0x0 PUSH1 0x40 MLOAD DUP1 DUP4 SUB DUP2 PUSH1 0x0 DUP8 DUP1 EXTCODESIZE ISZERO DUP1 ISZERO PUSH2 0x25BF JUMPI PUSH1 0x0 DUP1 REVERT JUMPDEST POP GAS CALL ISZERO DUP1 ISZERO PUSH2 0x25D3 JUMPI RETURNDATASIZE PUSH1 0x0 DUP1 RETURNDATACOPY RETURNDATASIZE PUSH1 0x0 REVERT JUMPDEST POP POP POP POP PUSH1 0x6 PUSH1 0x40 MLOAD DUP1 PUSH2 0x120 ADD PUSH1 0x40 MSTORE DUP1 DUP7 DUP2 MSTORE PUSH1 0x20 ADD DUP6 DUP2 MSTORE PUSH1 0x20 ADD DUP5 DUP2 MSTORE PUSH1 0x20 ADD DUP4 DUP2 MSTORE PUSH1 0x20 ADD DUP9 PUSH20 0xFFFFFFFFFFFFFFFFFFFFFFFFFFFFFFFFFFFFFFFF AND DUP2 MSTORE PUSH1 0x20 ADD DUP8 PUSH20 0xFFFFFFFFFFFFFFFFFFFFFFFFFFFFFFFFFFFFFFFF AND DUP2 MSTORE PUSH1 0x20 ADD PUSH1 0x0 PUSH20 0xFFFFFFFFFFFFFFFFFFFFFFFFFFFFFFFFFFFFFFFF AND DUP2 MSTORE PUSH1 0x20 ADD CALLER PUSH20 0xFFFFFFFFFFFFFFFFFFFFFFFFFFFFFFFFFFFFFFFF AND DUP2 MSTORE PUSH1 0x20 ADD PUSH1 0x0 ISZERO ISZERO DUP2 MSTORE POP SWAP1 DUP1 PUSH1 0x1 DUP2 SLOAD ADD DUP1 DUP3 SSTORE DUP1 SWAP2 POP POP PUSH1 0x1 SWAP1 SUB SWAP1 PUSH1 0x0 MSTORE PUSH1 0x20 PUSH1 0x0 KECCAK256 SWAP1 PUSH1 0x8 MUL ADD PUSH1 0x0 SWAP1 SWAP2 SWAP1 SWAP2 SWAP1 SWAP2 POP PUSH1 0x0 DUP3 ADD MLOAD DUP2 PUSH1 0x0 ADD SSTORE PUSH1 0x20 DUP3 ADD MLOAD DUP2 PUSH1 0x1 ADD SSTORE PUSH1 0x40 DUP3 ADD MLOAD DUP2 PUSH1 0x2 ADD SSTORE PUSH1 0x60 DUP3 ADD MLOAD DUP2 PUSH1 0x3 ADD SSTORE PUSH1 0x80 DUP3 ADD MLOAD DUP2 PUSH1 0x4 ADD PUSH1 0x0 PUSH2 0x100 EXP DUP2 SLOAD DUP2 PUSH20 0xFFFFFFFFFFFFFFFFFFFFFFFFFFFFFFFFFFFFFFFF MUL NOT AND SWAP1 DUP4 PUSH20 0xFFFFFFFFFFFFFFFFFFFFFFFFFFFFFFFFFFFFFFFF AND MUL OR SWAP1 SSTORE POP PUSH1 0xA0 DUP3 ADD MLOAD DUP2 PUSH1 0x5 ADD PUSH1 0x0 PUSH2 0x100 EXP DUP2 SLOAD DUP2 PUSH20 0xFFFFFFFFFFFFFFFFFFFFFFFFFFFFFFFFFFFFFFFF MUL NOT AND SWAP1 DUP4 PUSH20 0xFFFFFFFFFFFFFFFFFFFFFFFFFFFFFFFFFFFFFFFF AND MUL OR SWAP1 SSTORE POP PUSH1 0xC0 DUP3 ADD MLOAD DUP2 PUSH1 0x6 ADD PUSH1 0x0 PUSH2 0x100 EXP DUP2 SLOAD DUP2 PUSH20 0xFFFFFFFFFFFFFFFFFFFFFFFFFFFFFFFFFFFFFFFF MUL NOT AND SWAP1 DUP4 PUSH20 0xFFFFFFFFFFFFFFFFFFFFFFFFFFFFFFFFFFFFFFFF AND MUL OR SWAP1 SSTORE POP PUSH1 0xE0 DUP3 ADD MLOAD DUP2 PUSH1 0x7 ADD PUSH1 0x0 PUSH2 0x100 EXP DUP2 SLOAD DUP2 PUSH20 0xFFFFFFFFFFFFFFFFFFFFFFFFFFFFFFFFFFFFFFFF MUL NOT AND SWAP1 DUP4 PUSH20 0xFFFFFFFFFFFFFFFFFFFFFFFFFFFFFFFFFFFFFFFF AND MUL OR SWAP1 SSTORE POP PUSH2 0x100 DUP3 ADD MLOAD DUP2 PUSH1 0x7 ADD PUSH1 0x14 PUSH2 0x100 EXP DUP2 SLOAD DUP2 PUSH1 0xFF MUL NOT AND SWAP1 DUP4 ISZERO ISZERO MUL OR SWAP1 SSTORE POP POP POP PUSH32 0xC7EC54AEAD4DB4E08AC0929DFD3EFBFF1CEEB2390D1390B6D4B3FF832125A558 PUSH1 0x1 PUSH1 0x6 DUP1 SLOAD SWAP1 POP PUSH2 0x2838 SWAP2 SWAP1 PUSH2 0x3D58 JUMP JUMPDEST DUP8 DUP8 CALLER TIMESTAMP DUP10 DUP10 DUP10 DUP10 PUSH1 0x40 MLOAD PUSH2 0x2855 SWAP10 SWAP9 SWAP8 SWAP7 SWAP6 SWAP5 SWAP4 SWAP3 SWAP2 SWAP1 PUSH2 0x45E4 JUMP JUMPDEST PUSH1 0x40 MLOAD DUP1 SWAP2 SUB SWAP1 LOG1 POP POP POP POP POP POP JUMP JUMPDEST PUSH32 0x65D7A28E3265B37A6474929F336521B332C1681B933F6CB9F3376673440D862A DUP2 JUMP JUMPDEST PUSH1 0x0 DUP1 SHL PUSH2 0x289E DUP2 PUSH2 0x2899 PUSH2 0x2AAE JUMP JUMPDEST PUSH2 0x2AB6 JUMP JUMPDEST PUSH1 0x0 PUSH20 0xFFFFFFFFFFFFFFFFFFFFFFFFFFFFFFFFFFFFFFFF AND DUP4 PUSH20 0xFFFFFFFFFFFFFFFFFFFFFFFFFFFFFFFFFFFFFFFF AND SUB PUSH2 0x2940 JUMPI PUSH1 0x3 PUSH1 0x0 SWAP1 SLOAD SWAP1 PUSH2 0x100 EXP SWAP1 DIV PUSH20 0xFFFFFFFFFFFFFFFFFFFFFFFFFFFFFFFFFFFFFFFF AND PUSH20 0xFFFFFFFFFFFFFFFFFFFFFFFFFFFFFFFFFFFFFFFF AND PUSH2 0x8FC DUP4 SWAP1 DUP2 ISZERO MUL SWAP1 PUSH1 0x40 MLOAD PUSH1 0x0 PUSH1 0x40 MLOAD DUP1 DUP4 SUB DUP2 DUP6 DUP9 DUP9 CALL SWAP4 POP POP POP POP ISZERO DUP1 ISZERO PUSH2 0x293A JUMPI RETURNDATASIZE PUSH1 0x0 DUP1 RETURNDATACOPY RETURNDATASIZE PUSH1 0x0 REVERT JUMPDEST POP PUSH2 0x298E JUMP JUMPDEST PUSH2 0x298D PUSH1 0x3 PUSH1 0x0 SWAP1 SLOAD SWAP1 PUSH2 0x100 EXP SWAP1 DIV PUSH20 0xFFFFFFFFFFFFFFFFFFFFFFFFFFFFFFFFFFFFFFFF AND DUP4 DUP6 PUSH20 0xFFFFFFFFFFFFFFFFFFFFFFFFFFFFFFFFFFFFFFFF AND PUSH2 0x2EE1 SWAP1 SWAP3 SWAP2 SWAP1 PUSH4 0xFFFFFFFF AND JUMP JUMPDEST JUMPDEST POP POP POP JUMP JUMPDEST PUSH1 0x0 PUSH32 0x1FFC9A700000000000000000000000000000000000000000000000000000000 PUSH28 0xFFFFFFFFFFFFFFFFFFFFFFFFFFFFFFFFFFFFFFFFFFFFFFFFFFFFFFFF NOT AND DUP3 PUSH28 0xFFFFFFFFFFFFFFFFFFFFFFFFFFFFFFFFFFFFFFFFFFFFFFFFFFFFFFFF NOT AND EQ SWAP1 POP SWAP2 SWAP1 POP JUMP JUMPDEST PUSH1 0x0 PUSH20 0xFFFFFFFFFFFFFFFFFFFFFFFFFFFFFFFFFFFFFFFF AND DUP4 PUSH20 0xFFFFFFFFFFFFFFFFFFFFFFFFFFFFFFFFFFFFFFFF AND SUB PUSH2 0x2A7D JUMPI DUP2 PUSH20 0xFFFFFFFFFFFFFFFFFFFFFFFFFFFFFFFFFFFFFFFF AND PUSH2 0x8FC DUP3 SWAP1 DUP2 ISZERO MUL SWAP1 PUSH1 0x40 MLOAD PUSH1 0x0 PUSH1 0x40 MLOAD DUP1 DUP4 SUB DUP2 DUP6 DUP9 DUP9 CALL SWAP4 POP POP POP POP ISZERO DUP1 ISZERO PUSH2 0x2A77 JUMPI RETURNDATASIZE PUSH1 0x0 DUP1 RETURNDATACOPY RETURNDATASIZE PUSH1 0x0 REVERT JUMPDEST POP PUSH2 0x2AA9 JUMP JUMPDEST PUSH2 0x2AA8 DUP3 DUP3 DUP6 PUSH20 0xFFFFFFFFFFFFFFFFFFFFFFFFFFFFFFFFFFFFFFFF AND PUSH2 0x2EE1 SWAP1 SWAP3 SWAP2 SWAP1 PUSH4 0xFFFFFFFF AND JUMP JUMPDEST JUMPDEST POP POP POP JUMP JUMPDEST PUSH1 0x0 CALLER SWAP1 POP SWAP1 JUMP JUMPDEST PUSH2 0x2AC0 DUP3 DUP3 PUSH2 0x1D46 JUMP JUMPDEST PUSH2 0x2B4F JUMPI PUSH2 0x2AE5 DUP2 PUSH20 0xFFFFFFFFFFFFFFFFFFFFFFFFFFFFFFFFFFFFFFFF AND PUSH1 0x14 PUSH2 0x2F67 JUMP JUMPDEST PUSH2 0x2AF3 DUP4 PUSH1 0x0 SHR PUSH1 0x20 PUSH2 0x2F67 JUMP JUMPDEST PUSH1 0x40 MLOAD PUSH1 0x20 ADD PUSH2 0x2B04 SWAP3 SWAP2 SWAP1 PUSH2 0x4783 JUMP JUMPDEST PUSH1 0x40 MLOAD PUSH1 0x20 DUP2 DUP4 SUB SUB DUP2 MSTORE SWAP1 PUSH1 0x40 MSTORE PUSH1 0x40 MLOAD PUSH32 0x8C379A000000000000000000000000000000000000000000000000000000000 DUP2 MSTORE PUSH1 0x4 ADD PUSH2 0x2B46 SWAP2 SWAP1 PUSH2 0x47F6 JUMP JUMPDEST PUSH1 0x40 MLOAD DUP1 SWAP2 SUB SWAP1 REVERT JUMPDEST POP POP JUMP JUMPDEST PUSH2 0x2B5D DUP3 DUP3 PUSH2 0x1D46 JUMP JUMPDEST PUSH2 0x2C2F JUMPI PUSH1 0x1 DUP1 PUSH1 0x0 DUP5 DUP2 MSTORE PUSH1 0x20 ADD SWAP1 DUP2 MSTORE PUSH1 0x20 ADD PUSH1 0x0 KECCAK256 PUSH1 0x0 ADD PUSH1 0x0 DUP4 PUSH20 0xFFFFFFFFFFFFFFFFFFFFFFFFFFFFFFFFFFFFFFFF AND PUSH20 0xFFFFFFFFFFFFFFFFFFFFFFFFFFFFFFFFFFFFFFFF AND DUP2 MSTORE PUSH1 0x20 ADD SWAP1 DUP2 MSTORE PUSH1 0x20 ADD PUSH1 0x0 KECCAK256 PUSH1 0x0 PUSH2 0x100 EXP DUP2 SLOAD DUP2 PUSH1 0xFF MUL NOT AND SWAP1 DUP4 ISZERO ISZERO MUL OR SWAP1 SSTORE POP PUSH2 0x2BD4 PUSH2 0x2AAE JUMP JUMPDEST PUSH20 0xFFFFFFFFFFFFFFFFFFFFFFFFFFFFFFFFFFFFFFFF AND DUP2 PUSH20 0xFFFFFFFFFFFFFFFFFFFFFFFFFFFFFFFFFFFFFFFF AND DUP4 PUSH32 0x2F8788117E7EFF1D82E926EC794901D17C78024A50270940304540A733656F0D PUSH1 0x40 MLOAD PUSH1 0x40 MLOAD DUP1 SWAP2 SUB SWAP1 LOG4 JUMPDEST POP POP JUMP JUMPDEST PUSH2 0x2C3D DUP3 DUP3 PUSH2 0x1D46 JUMP JUMPDEST ISZERO PUSH2 0x2D11 JUMPI PUSH1 0x0 PUSH1 0x1 PUSH1 0x0 DUP5 DUP2 MSTORE PUSH1 0x20 ADD SWAP1 DUP2 MSTORE PUSH1 0x20 ADD PUSH1 0x0 KECCAK256 PUSH1 0x0 ADD PUSH1 0x0 DUP4 PUSH20 0xFFFFFFFFFFFFFFFFFFFFFFFFFFFFFFFFFFFFFFFF AND PUSH20 0xFFFFFFFFFFFFFFFFFFFFFFFFFFFFFFFFFFFFFFFF AND DUP2 MSTORE PUSH1 0x20 ADD SWAP1 DUP2 MSTORE PUSH1 0x20 ADD PUSH1 0x0 KECCAK256 PUSH1 0x0 PUSH2 0x100 EXP DUP2 SLOAD DUP2 PUSH1 0xFF MUL NOT AND SWAP1 DUP4 ISZERO ISZERO MUL OR SWAP1 SSTORE POP PUSH2 0x2CB6 PUSH2 0x2AAE JUMP JUMPDEST PUSH20 0xFFFFFFFFFFFFFFFFFFFFFFFFFFFFFFFFFFFFFFFF AND DUP2 PUSH20 0xFFFFFFFFFFFFFFFFFFFFFFFFFFFFFFFFFFFFFFFF AND DUP4 PUSH32 0xF6391F5C32D9C69D2A47EA670B442974B53935D1EDC7FD64EB21E047A839171B PUSH1 0x40 MLOAD PUSH1 0x40 MLOAD DUP1 SWAP2 SUB SWAP1 LOG4 JUMPDEST POP POP JUMP JUMPDEST PUSH2 0x2D1D PUSH2 0x1C1B JUMP JUMPDEST PUSH2 0x2D5C JUMPI PUSH1 0x40 MLOAD PUSH32 0x8C379A000000000000000000000000000000000000000000000000000000000 DUP2 MSTORE PUSH1 0x4 ADD PUSH2 0x2D53 SWAP1 PUSH2 0x4864 JUMP JUMPDEST PUSH1 0x40 MLOAD DUP1 SWAP2 SUB SWAP1 REVERT JUMPDEST PUSH1 0x0 DUP1 PUSH1 0x0 PUSH2 0x100 EXP DUP2 SLOAD DUP2 PUSH1 0xFF MUL NOT AND SWAP1 DUP4 ISZERO ISZERO MUL OR SWAP1 SSTORE POP PUSH32 0x5DB9EE0A495BF2E6FF9C91A7834C1BA4FDD244A5E8AA4E537BD38AEAE4B073AA PUSH2 0x2D9F PUSH2 0x2AAE JUMP JUMPDEST PUSH1 0x40 MLOAD PUSH2 0x2DAC SWAP2 SWAP1 PUSH2 0x4884 JUMP JUMPDEST PUSH1 0x40 MLOAD DUP1 SWAP2 SUB SWAP1 LOG1 JUMP JUMPDEST PUSH2 0x2E39 DUP5 PUSH4 0x23B872DD PUSH1 0xE0 SHL DUP6 DUP6 DUP6 PUSH1 0x40 MLOAD PUSH1 0x24 ADD PUSH2 0x2DD7 SWAP4 SWAP3 SWAP2 SWAP1 PUSH2 0x3CF2 JUMP JUMPDEST PUSH1 0x40 MLOAD PUSH1 0x20 DUP2 DUP4 SUB SUB DUP2 MSTORE SWAP1 PUSH1 0x40 MSTORE SWAP1 PUSH28 0xFFFFFFFFFFFFFFFFFFFFFFFFFFFFFFFFFFFFFFFFFFFFFFFFFFFFFFFF NOT AND PUSH1 0x20 DUP3 ADD DUP1 MLOAD PUSH28 0xFFFFFFFFFFFFFFFFFFFFFFFFFFFFFFFFFFFFFFFFFFFFFFFFFFFFFFFF DUP4 DUP2 DUP4 AND OR DUP4 MSTORE POP POP POP POP PUSH2 0x31A3 JUMP JUMPDEST POP POP POP POP JUMP JUMPDEST PUSH2 0x2E47 PUSH2 0x1C1B JUMP JUMPDEST ISZERO PUSH2 0x2E87 JUMPI PUSH1 0x40 MLOAD PUSH32 0x8C379A000000000000000000000000000000000000000000000000000000000 DUP2 MSTORE PUSH1 0x4 ADD PUSH2 0x2E7E SWAP1 PUSH2 0x3B5F JUMP JUMPDEST PUSH1 0x40 MLOAD DUP1 SWAP2 SUB SWAP1 REVERT JUMPDEST PUSH1 0x1 PUSH1 0x0 DUP1 PUSH2 0x100 EXP DUP2 SLOAD DUP2 PUSH1 0xFF MUL NOT AND SWAP1 DUP4 ISZERO ISZERO MUL OR SWAP1 SSTORE POP PUSH32 0x62E78CEA01BEE320CD4E420270B5EA74000D11B0C9F74754EBDBFC544B05A258 PUSH2 0x2ECA PUSH2 0x2AAE JUMP JUMPDEST PUSH1 0x40 MLOAD PUSH2 0x2ED7 SWAP2 SWAP1 PUSH2 0x4884 JUMP JUMPDEST PUSH1 0x40 MLOAD DUP1 SWAP2 SUB SWAP1 LOG1 JUMP JUMPDEST PUSH2 0x2F62 DUP4 PUSH4 0xA9059CBB PUSH1 0xE0 SHL DUP5 DUP5 PUSH1 0x40 MLOAD PUSH1 0x24 ADD PUSH2 0x2F00 SWAP3 SWAP2 SWAP1 PUSH2 0x489F JUMP JUMPDEST PUSH1 0x40 MLOAD PUSH1 0x20 DUP2 DUP4 SUB SUB DUP2 MSTORE SWAP1 PUSH1 0x40 MSTORE SWAP1 PUSH28 0xFFFFFFFFFFFFFFFFFFFFFFFFFFFFFFFFFFFFFFFFFFFFFFFFFFFFFFFF NOT AND PUSH1 0x20 DUP3 ADD DUP1 MLOAD PUSH28 0xFFFFFFFFFFFFFFFFFFFFFFFFFFFFFFFFFFFFFFFFFFFFFFFFFFFFFFFF DUP4 DUP2 DUP4 AND OR DUP4 MSTORE POP POP POP POP PUSH2 0x31A3 JUMP JUMPDEST POP POP POP JUMP JUMPDEST PUSH1 0x60 PUSH1 0x0 PUSH1 0x2 DUP4 PUSH1 0x2 PUSH2 0x2F7A SWAP2 SWAP1 PUSH2 0x3D8C JUMP JUMPDEST PUSH2 0x2F84 SWAP2 SWAP1 PUSH2 0x4213 JUMP JUMPDEST PUSH8 0xFFFFFFFFFFFFFFFF DUP2 GT ISZERO PUSH2 0x2F9D JUMPI PUSH2 0x2F9C PUSH2 0x38C1 JUMP JUMPDEST JUMPDEST PUSH1 0x40 MLOAD SWAP1 DUP1 DUP3 MSTORE DUP1 PUSH1 0x1F ADD PUSH1 0x1F NOT AND PUSH1 0x20 ADD DUP3 ADD PUSH1 0x40 MSTORE DUP1 ISZERO PUSH2 0x2FCF JUMPI DUP2 PUSH1 0x20 ADD PUSH1 0x1 DUP3 MUL DUP1 CALLDATASIZE DUP4 CALLDATACOPY DUP1 DUP3 ADD SWAP2 POP POP SWAP1 POP JUMPDEST POP SWAP1 POP PUSH32 0x3000000000000000000000000000000000000000000000000000000000000000 DUP2 PUSH1 0x0 DUP2 MLOAD DUP2 LT PUSH2 0x3007 JUMPI PUSH2 0x3006 PUSH2 0x3BEB JUMP JUMPDEST JUMPDEST PUSH1 0x20 ADD ADD SWAP1 PUSH31 0xFFFFFFFFFFFFFFFFFFFFFFFFFFFFFFFFFFFFFFFFFFFFFFFFFFFFFFFFFFFFFF NOT AND SWAP1 DUP2 PUSH1 0x0 BYTE SWAP1 MSTORE8 POP PUSH32 0x7800000000000000000000000000000000000000000000000000000000000000 DUP2 PUSH1 0x1 DUP2 MLOAD DUP2 LT PUSH2 0x306B JUMPI PUSH2 0x306A PUSH2 0x3BEB JUMP JUMPDEST JUMPDEST PUSH1 0x20 ADD ADD SWAP1 PUSH31 0xFFFFFFFFFFFFFFFFFFFFFFFFFFFFFFFFFFFFFFFFFFFFFFFFFFFFFFFFFFFFFF NOT AND SWAP1 DUP2 PUSH1 0x0 BYTE SWAP1 MSTORE8 POP PUSH1 0x0 PUSH1 0x1 DUP5 PUSH1 0x2 PUSH2 0x30AB SWAP2 SWAP1 PUSH2 0x3D8C JUMP JUMPDEST PUSH2 0x30B5 SWAP2 SWAP1 PUSH2 0x4213 JUMP JUMPDEST SWAP1 POP JUMPDEST PUSH1 0x1 DUP2 GT ISZERO PUSH2 0x3155 JUMPI PUSH32 0x3031323334353637383961626364656600000000000000000000000000000000 PUSH1 0xF DUP7 AND PUSH1 0x10 DUP2 LT PUSH2 0x30F7 JUMPI PUSH2 0x30F6 PUSH2 0x3BEB JUMP JUMPDEST JUMPDEST BYTE PUSH1 0xF8 SHL DUP3 DUP3 DUP2 MLOAD DUP2 LT PUSH2 0x310E JUMPI PUSH2 0x310D PUSH2 0x3BEB JUMP JUMPDEST JUMPDEST PUSH1 0x20 ADD ADD SWAP1 PUSH31 0xFFFFFFFFFFFFFFFFFFFFFFFFFFFFFFFFFFFFFFFFFFFFFFFFFFFFFFFFFFFFFF NOT AND SWAP1 DUP2 PUSH1 0x0 BYTE SWAP1 MSTORE8 POP PUSH1 0x4 DUP6 SWAP1 SHR SWAP5 POP DUP1 PUSH2 0x314E SWAP1 PUSH2 0x48C8 JUMP JUMPDEST SWAP1 POP PUSH2 0x30B8 JUMP JUMPDEST POP PUSH1 0x0 DUP5 EQ PUSH2 0x3199 JUMPI PUSH1 0x40 MLOAD PUSH32 0x8C379A000000000000000000000000000000000000000000000000000000000 DUP2 MSTORE PUSH1 0x4 ADD PUSH2 0x3190 SWAP1 PUSH2 0x493D JUMP JUMPDEST PUSH1 0x40 MLOAD DUP1 SWAP2 SUB SWAP1 REVERT JUMPDEST DUP1 SWAP2 POP POP SWAP3 SWAP2 POP POP JUMP JUMPDEST PUSH1 0x0 PUSH2 0x3205 DUP3 PUSH1 0x40 MLOAD DUP1 PUSH1 0x40 ADD PUSH1 0x40 MSTORE DUP1 PUSH1 0x20 DUP2 MSTORE PUSH1 0x20 ADD PUSH32 0x5361666545524332303A206C6F772D6C6576656C2063616C6C206661696C6564 DUP2 MSTORE POP DUP6 PUSH20 0xFFFFFFFFFFFFFFFFFFFFFFFFFFFFFFFFFFFFFFFF AND PUSH2 0x326A SWAP1 SWAP3 SWAP2 SWAP1 PUSH4 0xFFFFFFFF AND JUMP JUMPDEST SWAP1 POP PUSH1 0x0 DUP2 MLOAD GT ISZERO PUSH2 0x3265 JUMPI DUP1 DUP1 PUSH1 0x20 ADD SWAP1 MLOAD DUP2 ADD SWAP1 PUSH2 0x3225 SWAP2 SWAP1 PUSH2 0x4972 JUMP JUMPDEST PUSH2 0x3264 JUMPI PUSH1 0x40 MLOAD PUSH32 0x8C379A000000000000000000000000000000000000000000000000000000000 DUP2 MSTORE PUSH1 0x4 ADD PUSH2 0x325B SWAP1 PUSH2 0x4A11 JUMP JUMPDEST PUSH1 0x40 MLOAD DUP1 SWAP2 SUB SWAP1 REVERT JUMPDEST JUMPDEST POP POP POP JUMP JUMPDEST PUSH1 0x60 PUSH2 0x3279 DUP5 DUP5 PUSH1 0x0 DUP6 PUSH2 0x3282 JUMP JUMPDEST SWAP1 POP SWAP4 SWAP3 POP POP POP JUMP JUMPDEST PUSH1 0x60 DUP3 SELFBALANCE LT ISZERO PUSH2 0x32C7 JUMPI PUSH1 0x40 MLOAD PUSH32 0x8C379A000000000000000000000000000000000000000000000000000000000 DUP2 MSTORE PUSH1 0x4 ADD PUSH2 0x32BE SWAP1 PUSH2 0x4AA3 JUMP JUMPDEST PUSH1 0x40 MLOAD DUP1 SWAP2 SUB SWAP1 REVERT JUMPDEST PUSH2 0x32D0 DUP6 PUSH2 0x3396 JUMP JUMPDEST PUSH2 0x330F JUMPI PUSH1 0x40 MLOAD PUSH32 0x8C379A000000000000000000000000000000000000000000000000000000000 DUP2 MSTORE PUSH1 0x4 ADD PUSH2 0x3306 SWAP1 PUSH2 0x4B0F JUMP JUMPDEST PUSH1 0x40 MLOAD DUP1 SWAP2 SUB SWAP1 REVERT JUMPDEST PUSH1 0x0 DUP1 DUP7 PUSH20 0xFFFFFFFFFFFFFFFFFFFFFFFFFFFFFFFFFFFFFFFF AND DUP6 DUP8 PUSH1 0x40 MLOAD PUSH2 0x3338 SWAP2 SWAP1 PUSH2 0x4B76 JUMP JUMPDEST PUSH1 0x0 PUSH1 0x40 MLOAD DUP1 DUP4 SUB DUP2 DUP6 DUP8 GAS CALL SWAP3 POP POP POP RETURNDATASIZE DUP1 PUSH1 0x0 DUP2 EQ PUSH2 0x3375 JUMPI PUSH1 0x40 MLOAD SWAP2 POP PUSH1 0x1F NOT PUSH1 0x3F RETURNDATASIZE ADD AND DUP3 ADD PUSH1 0x40 MSTORE RETURNDATASIZE DUP3 MSTORE RETURNDATASIZE PUSH1 0x0 PUSH1 0x20 DUP5 ADD RETURNDATACOPY PUSH2 0x337A JUMP JUMPDEST PUSH1 0x60 SWAP2 POP JUMPDEST POP SWAP2 POP SWAP2 POP PUSH2 0x338A DUP3 DUP3 DUP7 PUSH2 0x33A9 JUMP JUMPDEST SWAP3 POP POP POP SWAP5 SWAP4 POP POP POP POP JUMP JUMPDEST PUSH1 0x0 DUP1 DUP3 EXTCODESIZE SWAP1 POP PUSH1 0x0 DUP2 GT SWAP2 POP POP SWAP2 SWAP1 POP JUMP JUMPDEST PUSH1 0x60 DUP4 ISZERO PUSH2 0x33B9 JUMPI DUP3 SWAP1 POP PUSH2 0x3409 JUMP JUMPDEST PUSH1 0x0 DUP4 MLOAD GT ISZERO PUSH2 0x33CC JUMPI DUP3 MLOAD DUP1 DUP5 PUSH1 0x20 ADD REVERT JUMPDEST DUP2 PUSH1 0x40 MLOAD PUSH32 0x8C379A000000000000000000000000000000000000000000000000000000000 DUP2 MSTORE PUSH1 0x4 ADD PUSH2 0x3400 SWAP2 SWAP1 PUSH2 0x47F6 JUMP JUMPDEST PUSH1 0x40 MLOAD DUP1 SWAP2 SUB SWAP1 REVERT JUMPDEST SWAP4 SWAP3 POP POP POP JUMP JUMPDEST PUSH1 0x0 PUSH1 0x40 MLOAD SWAP1 POP SWAP1 JUMP JUMPDEST PUSH1 0x0 DUP1 REVERT JUMPDEST PUSH1 0x0 DUP1 REVERT JUMPDEST PUSH1 0x0 PUSH32 0xFFFFFFFF00000000000000000000000000000000000000000000000000000000 DUP3 AND SWAP1 POP SWAP2 SWAP1 POP JUMP JUMPDEST PUSH2 0x3459 DUP2 PUSH2 0x3424 JUMP JUMPDEST DUP2 EQ PUSH2 0x3464 JUMPI PUSH1 0x0 DUP1 REVERT JUMPDEST POP JUMP JUMPDEST PUSH1 0x0 DUP2 CALLDATALOAD SWAP1 POP PUSH2 0x3476 DUP2 PUSH2 0x3450 JUMP JUMPDEST SWAP3 SWAP2 POP POP JUMP JUMPDEST PUSH1 0x0 PUSH1 0x20 DUP3 DUP5 SUB SLT ISZERO PUSH2 0x3492 JUMPI PUSH2 0x3491 PUSH2 0x341A JUMP JUMPDEST JUMPDEST PUSH1 0x0 PUSH2 0x34A0 DUP5 DUP3 DUP6 ADD PUSH2 0x3467 JUMP JUMPDEST SWAP2 POP POP SWAP3 SWAP2 POP POP JUMP JUMPDEST PUSH1 0x0 DUP2 ISZERO ISZERO SWAP1 POP SWAP2 SWAP1 POP JUMP JUMPDEST PUSH2 0x34BE DUP2 PUSH2 0x34A9 JUMP JUMPDEST DUP3 MSTORE POP POP JUMP JUMPDEST PUSH1 0x0 PUSH1 0x20 DUP3 ADD SWAP1 POP PUSH2 0x34D9 PUSH1 0x0 DUP4 ADD DUP5 PUSH2 0x34B5 JUMP JUMPDEST SWAP3 SWAP2 POP POP JUMP JUMPDEST PUSH1 0x0 DUP2 SWAP1 POP SWAP2 SWAP1 POP JUMP JUMPDEST PUSH2 0x34F2 DUP2 PUSH2 0x34DF JUMP JUMPDEST DUP3 MSTORE POP POP JUMP JUMPDEST PUSH1 0x0 PUSH1 0x20 DUP3 ADD SWAP1 POP PUSH2 0x350D PUSH1 0x0 DUP4 ADD DUP5 PUSH2 0x34E9 JUMP JUMPDEST SWAP3 SWAP2 POP POP JUMP JUMPDEST PUSH2 0x351C DUP2 PUSH2 0x34DF JUMP JUMPDEST DUP2 EQ PUSH2 0x3527 JUMPI PUSH1 0x0 DUP1 REVERT JUMPDEST POP JUMP JUMPDEST PUSH1 0x0 DUP2 CALLDATALOAD SWAP1 POP PUSH2 0x3539 DUP2 PUSH2 0x3513 JUMP JUMPDEST SWAP3 SWAP2 POP POP JUMP JUMPDEST PUSH1 0x0 PUSH1 0x20 DUP3 DUP5 SUB SLT ISZERO PUSH2 0x3555 JUMPI PUSH2 0x3554 PUSH2 0x341A JUMP JUMPDEST JUMPDEST PUSH1 0x0 PUSH2 0x3563 DUP5 DUP3 DUP6 ADD PUSH2 0x352A JUMP JUMPDEST SWAP2 POP POP SWAP3 SWAP2 POP POP JUMP JUMPDEST PUSH1 0x0 DUP2 SWAP1 POP SWAP2 SWAP1 POP JUMP JUMPDEST PUSH2 0x357F DUP2 PUSH2 0x356C JUMP JUMPDEST DUP2 EQ PUSH2 0x358A JUMPI PUSH1 0x0 DUP1 REVERT JUMPDEST POP JUMP JUMPDEST PUSH1 0x0 DUP2 CALLDATALOAD SWAP1 POP PUSH2 0x359C DUP2 PUSH2 0x3576 JUMP JUMPDEST SWAP3 SWAP2 POP POP JUMP JUMPDEST PUSH1 0x0 PUSH1 0x20 DUP3 DUP5 SUB SLT ISZERO PUSH2 0x35B8 JUMPI PUSH2 0x35B7 PUSH2 0x341A JUMP JUMPDEST JUMPDEST PUSH1 0x0 PUSH2 0x35C6 DUP5 DUP3 DUP6 ADD PUSH2 0x358D JUMP JUMPDEST SWAP2 POP POP SWAP3 SWAP2 POP POP JUMP JUMPDEST PUSH2 0x35D8 DUP2 PUSH2 0x356C JUMP JUMPDEST DUP3 MSTORE POP POP JUMP JUMPDEST PUSH1 0x0 PUSH1 0x20 DUP3 ADD SWAP1 POP PUSH2 0x35F3 PUSH1 0x0 DUP4 ADD DUP5 PUSH2 0x35CF JUMP JUMPDEST SWAP3 SWAP2 POP POP JUMP JUMPDEST PUSH1 0x0 PUSH20 0xFFFFFFFFFFFFFFFFFFFFFFFFFFFFFFFFFFFFFFFF DUP3 AND SWAP1 POP SWAP2 SWAP1 POP JUMP JUMPDEST PUSH1 0x0 PUSH2 0x3624 DUP3 PUSH2 0x35F9 JUMP JUMPDEST SWAP1 POP SWAP2 SWAP1 POP JUMP JUMPDEST PUSH2 0x3634 DUP2 PUSH2 0x3619 JUMP JUMPDEST DUP2 EQ PUSH2 0x363F JUMPI PUSH1 0x0 DUP1 REVERT JUMPDEST POP JUMP JUMPDEST PUSH1 0x0 DUP2 CALLDATALOAD SWAP1 POP PUSH2 0x3651 DUP2 PUSH2 0x362B JUMP JUMPDEST SWAP3 SWAP2 POP POP JUMP JUMPDEST PUSH1 0x0 DUP1 PUSH1 0x40 DUP4 DUP6 SUB SLT ISZERO PUSH2 0x366E JUMPI PUSH2 0x366D PUSH2 0x341A JUMP JUMPDEST JUMPDEST PUSH1 0x0 PUSH2 0x367C DUP6 DUP3 DUP7 ADD PUSH2 0x358D JUMP JUMPDEST SWAP3 POP POP PUSH1 0x20 PUSH2 0x368D DUP6 DUP3 DUP7 ADD PUSH2 0x3642 JUMP JUMPDEST SWAP2 POP POP SWAP3 POP SWAP3 SWAP1 POP JUMP JUMPDEST PUSH1 0x0 PUSH1 0x20 DUP3 DUP5 SUB SLT ISZERO PUSH2 0x36AD JUMPI PUSH2 0x36AC PUSH2 0x341A JUMP JUMPDEST JUMPDEST PUSH1 0x0 PUSH2 0x36BB DUP5 DUP3 DUP6 ADD PUSH2 0x3642 JUMP JUMPDEST SWAP2 POP POP SWAP3 SWAP2 POP POP JUMP JUMPDEST PUSH1 0x0 PUSH1 0x60 DUP3 ADD SWAP1 POP PUSH2 0x36D9 PUSH1 0x0 DUP4 ADD DUP7 PUSH2 0x34E9 JUMP JUMPDEST PUSH2 0x36E6 PUSH1 0x20 DUP4 ADD DUP6 PUSH2 0x34E9 JUMP JUMPDEST PUSH2 0x36F3 PUSH1 0x40 DUP4 ADD DUP5 PUSH2 0x34B5 JUMP JUMPDEST SWAP5 SWAP4 POP POP POP POP JUMP JUMPDEST PUSH2 0x3704 DUP2 PUSH2 0x34A9 JUMP JUMPDEST DUP2 EQ PUSH2 0x370F JUMPI PUSH1 0x0 DUP1 REVERT JUMPDEST POP JUMP JUMPDEST PUSH1 0x0 DUP2 CALLDATALOAD SWAP1 POP PUSH2 0x3721 DUP2 PUSH2 0x36FB JUMP JUMPDEST SWAP3 SWAP2 POP POP JUMP JUMPDEST PUSH1 0x0 DUP1 PUSH1 0x0 DUP1 PUSH1 0x80 DUP6 DUP8 SUB SLT ISZERO PUSH2 0x3741 JUMPI PUSH2 0x3740 PUSH2 0x341A JUMP JUMPDEST JUMPDEST PUSH1 0x0 PUSH2 0x374F DUP8 DUP3 DUP9 ADD PUSH2 0x3642 JUMP JUMPDEST SWAP5 POP POP PUSH1 0x20 PUSH2 0x3760 DUP8 DUP3 DUP9 ADD PUSH2 0x352A JUMP JUMPDEST SWAP4 POP POP PUSH1 0x40 PUSH2 0x3771 DUP8 DUP3 DUP9 ADD PUSH2 0x352A JUMP JUMPDEST SWAP3 POP POP PUSH1 0x60 PUSH2 0x3782 DUP8 DUP3 DUP9 ADD PUSH2 0x3712 JUMP JUMPDEST SWAP2 POP POP SWAP3 SWAP6 SWAP2 SWAP5 POP SWAP3 POP JUMP JUMPDEST PUSH1 0x0 DUP1 PUSH1 0x40 DUP4 DUP6 SUB SLT ISZERO PUSH2 0x37A5 JUMPI PUSH2 0x37A4 PUSH2 0x341A JUMP JUMPDEST JUMPDEST PUSH1 0x0 PUSH2 0x37B3 DUP6 DUP3 DUP7 ADD PUSH2 0x352A JUMP JUMPDEST SWAP3 POP POP PUSH1 0x20 PUSH2 0x37C4 DUP6 DUP3 DUP7 ADD PUSH2 0x352A JUMP JUMPDEST SWAP2 POP POP SWAP3 POP SWAP3 SWAP1 POP JUMP JUMPDEST PUSH1 0x0 PUSH2 0x37D9 DUP3 PUSH2 0x35F9 JUMP JUMPDEST SWAP1 POP SWAP2 SWAP1 POP JUMP JUMPDEST PUSH2 0x37E9 DUP2 PUSH2 0x37CE JUMP JUMPDEST DUP3 MSTORE POP POP JUMP JUMPDEST PUSH1 0x0 PUSH1 0x20 DUP3 ADD SWAP1 POP PUSH2 0x3804 PUSH1 0x0 DUP4 ADD DUP5 PUSH2 0x37E0 JUMP JUMPDEST SWAP3 SWAP2 POP POP JUMP JUMPDEST PUSH2 0x3813 DUP2 PUSH2 0x3619 JUMP JUMPDEST DUP3 MSTORE POP POP JUMP JUMPDEST PUSH1 0x0 PUSH2 0x120 DUP3 ADD SWAP1 POP PUSH2 0x382F PUSH1 0x0 DUP4 ADD DUP13 PUSH2 0x34E9 JUMP JUMPDEST PUSH2 0x383C PUSH1 0x20 DUP4 ADD DUP12 PUSH2 0x34E9 JUMP JUMPDEST PUSH2 0x3849 PUSH1 0x40 DUP4 ADD DUP11 PUSH2 0x34E9 JUMP JUMPDEST PUSH2 0x3856 PUSH1 0x60 DUP4 ADD DUP10 PUSH2 0x34E9 JUMP JUMPDEST PUSH2 0x3863 PUSH1 0x80 DUP4 ADD DUP9 PUSH2 0x380A JUMP JUMPDEST PUSH2 0x3870 PUSH1 0xA0 DUP4 ADD DUP8 PUSH2 0x380A JUMP JUMPDEST PUSH2 0x387D PUSH1 0xC0 DUP4 ADD DUP7 PUSH2 0x380A JUMP JUMPDEST PUSH2 0x388A PUSH1 0xE0 DUP4 ADD DUP6 PUSH2 0x380A JUMP JUMPDEST PUSH2 0x3898 PUSH2 0x100 DUP4 ADD DUP5 PUSH2 0x34B5 JUMP JUMPDEST SWAP11 SWAP10 POP POP POP POP POP POP POP POP POP POP JUMP JUMPDEST PUSH1 0x0 DUP1 REVERT JUMPDEST PUSH1 0x0 DUP1 REVERT JUMPDEST PUSH1 0x0 PUSH1 0x1F NOT PUSH1 0x1F DUP4 ADD AND SWAP1 POP SWAP2 SWAP1 POP JUMP JUMPDEST PUSH32 0x4E487B7100000000000000000000000000000000000000000000000000000000 PUSH1 0x0 MSTORE PUSH1 0x41 PUSH1 0x4 MSTORE PUSH1 0x24 PUSH1 0x0 REVERT JUMPDEST PUSH2 0x38F9 DUP3 PUSH2 0x38B0 JUMP JUMPDEST DUP2 ADD DUP2 DUP2 LT PUSH8 0xFFFFFFFFFFFFFFFF DUP3 GT OR ISZERO PUSH2 0x3918 JUMPI PUSH2 0x3917 PUSH2 0x38C1 JUMP JUMPDEST JUMPDEST DUP1 PUSH1 0x40 MSTORE POP POP POP JUMP JUMPDEST PUSH1 0x0 PUSH2 0x392B PUSH2 0x3410 JUMP JUMPDEST SWAP1 POP PUSH2 0x3937 DUP3 DUP3 PUSH2 0x38F0 JUMP JUMPDEST SWAP2 SWAP1 POP JUMP JUMPDEST PUSH1 0x0 PUSH8 0xFFFFFFFFFFFFFFFF DUP3 GT ISZERO PUSH2 0x3957 JUMPI PUSH2 0x3956 PUSH2 0x38C1 JUMP JUMPDEST JUMPDEST PUSH2 0x3960 DUP3 PUSH2 0x38B0 JUMP JUMPDEST SWAP1 POP PUSH1 0x20 DUP2 ADD SWAP1 POP SWAP2 SWAP1 POP JUMP JUMPDEST DUP3 DUP2 DUP4 CALLDATACOPY PUSH1 0x0 DUP4 DUP4 ADD MSTORE POP POP POP JUMP JUMPDEST PUSH1 0x0 PUSH2 0x398F PUSH2 0x398A DUP5 PUSH2 0x393C JUMP JUMPDEST PUSH2 0x3921 JUMP JUMPDEST SWAP1 POP DUP3 DUP2 MSTORE PUSH1 0x20 DUP2 ADD DUP5 DUP5 DUP5 ADD GT ISZERO PUSH2 0x39AB JUMPI PUSH2 0x39AA PUSH2 0x38AB JUMP JUMPDEST JUMPDEST PUSH2 0x39B6 DUP5 DUP3 DUP6 PUSH2 0x396D JUMP JUMPDEST POP SWAP4 SWAP3 POP POP POP JUMP JUMPDEST PUSH1 0x0 DUP3 PUSH1 0x1F DUP4 ADD SLT PUSH2 0x39D3 JUMPI PUSH2 0x39D2 PUSH2 0x38A6 JUMP JUMPDEST JUMPDEST DUP2 CALLDATALOAD PUSH2 0x39E3 DUP5 DUP3 PUSH1 0x20 DUP7 ADD PUSH2 0x397C JUMP JUMPDEST SWAP2 POP POP SWAP3 SWAP2 POP POP JUMP JUMPDEST PUSH1 0x0 PUSH1 0x20 DUP3 DUP5 SUB SLT ISZERO PUSH2 0x3A02 JUMPI PUSH2 0x3A01 PUSH2 0x341A JUMP JUMPDEST JUMPDEST PUSH1 0x0 DUP3 ADD CALLDATALOAD PUSH8 0xFFFFFFFFFFFFFFFF DUP2 GT ISZERO PUSH2 0x3A20 JUMPI PUSH2 0x3A1F PUSH2 0x341F JUMP JUMPDEST JUMPDEST PUSH2 0x3A2C DUP5 DUP3 DUP6 ADD PUSH2 0x39BE JUMP JUMPDEST SWAP2 POP POP SWAP3 SWAP2 POP POP JUMP JUMPDEST PUSH1 0x0 DUP1 PUSH1 0x0 DUP1 PUSH1 0x0 DUP1 PUSH1 0xC0 DUP8 DUP10 SUB SLT ISZERO PUSH2 0x3A52 JUMPI PUSH2 0x3A51 PUSH2 0x341A JUMP JUMPDEST JUMPDEST PUSH1 0x0 PUSH2 0x3A60 DUP10 DUP3 DUP11 ADD PUSH2 0x3642 JUMP JUMPDEST SWAP7 POP POP PUSH1 0x20 PUSH2 0x3A71 DUP10 DUP3 DUP11 ADD PUSH2 0x3642 JUMP JUMPDEST SWAP6 POP POP PUSH1 0x40 PUSH2 0x3A82 DUP10 DUP3 DUP11 ADD PUSH2 0x352A JUMP JUMPDEST SWAP5 POP POP PUSH1 0x60 PUSH2 0x3A93 DUP10 DUP3 DUP11 ADD PUSH2 0x352A JUMP JUMPDEST SWAP4 POP POP PUSH1 0x80 PUSH2 0x3AA4 DUP10 DUP3 DUP11 ADD PUSH2 0x352A JUMP JUMPDEST SWAP3 POP POP PUSH1 0xA0 PUSH2 0x3AB5 DUP10 DUP3 DUP11 ADD PUSH2 0x352A JUMP JUMPDEST SWAP2 POP POP SWAP3 SWAP6 POP SWAP3 SWAP6 POP SWAP3 SWAP6 JUMP JUMPDEST PUSH1 0x0 DUP1 PUSH1 0x40 DUP4 DUP6 SUB SLT ISZERO PUSH2 0x3AD9 JUMPI PUSH2 0x3AD8 PUSH2 0x341A JUMP JUMPDEST JUMPDEST PUSH1 0x0 PUSH2 0x3AE7 DUP6 DUP3 DUP7 ADD PUSH2 0x3642 JUMP JUMPDEST SWAP3 POP POP PUSH1 0x20 PUSH2 0x3AF8 DUP6 DUP3 DUP7 ADD PUSH2 0x352A JUMP JUMPDEST SWAP2 POP POP SWAP3 POP SWAP3 SWAP1 POP JUMP JUMPDEST PUSH1 0x0 DUP3 DUP3 MSTORE PUSH1 0x20 DUP3 ADD SWAP1 POP SWAP3 SWAP2 POP POP JUMP JUMPDEST PUSH32 0x5061757361626C653A2070617573656400000000000000000000000000000000 PUSH1 0x0 DUP3 ADD MSTORE POP JUMP JUMPDEST PUSH1 0x0 PUSH2 0x3B49 PUSH1 0x10 DUP4 PUSH2 0x3B02 JUMP JUMPDEST SWAP2 POP PUSH2 0x3B54 DUP3 PUSH2 0x3B13 JUMP JUMPDEST PUSH1 0x20 DUP3 ADD SWAP1 POP SWAP2 SWAP1 POP JUMP JUMPDEST PUSH1 0x0 PUSH1 0x20 DUP3 ADD SWAP1 POP DUP2 DUP2 SUB PUSH1 0x0 DUP4 ADD MSTORE PUSH2 0x3B78 DUP2 PUSH2 0x3B3C JUMP JUMPDEST SWAP1 POP SWAP2 SWAP1 POP JUMP JUMPDEST PUSH32 0x4F7264657220494420696E76616C696400000000000000000000000000000000 PUSH1 0x0 DUP3 ADD MSTORE POP JUMP JUMPDEST PUSH1 0x0 PUSH2 0x3BB5 PUSH1 0x10 DUP4 PUSH2 0x3B02 JUMP JUMPDEST SWAP2 POP PUSH2 0x3BC0 DUP3 PUSH2 0x3B7F JUMP JUMPDEST PUSH1 0x20 DUP3 ADD SWAP1 POP SWAP2 SWAP1 POP JUMP JUMPDEST PUSH1 0x0 PUSH1 0x20 DUP3 ADD SWAP1 POP DUP2 DUP2 SUB PUSH1 0x0 DUP4 ADD MSTORE PUSH2 0x3BE4 DUP2 PUSH2 0x3BA8 JUMP JUMPDEST SWAP1 POP SWAP2 SWAP1 POP JUMP JUMPDEST PUSH32 0x4E487B7100000000000000000000000000000000000000000000000000000000 PUSH1 0x0 MSTORE PUSH1 0x32 PUSH1 0x4 MSTORE PUSH1 0x24 PUSH1 0x0 REVERT JUMPDEST PUSH32 0x4D757374206265206F776E657200000000000000000000000000000000000000 PUSH1 0x0 DUP3 ADD MSTORE POP JUMP JUMPDEST PUSH1 0x0 PUSH2 0x3C50 PUSH1 0xD DUP4 PUSH2 0x3B02 JUMP JUMPDEST SWAP2 POP PUSH2 0x3C5B DUP3 PUSH2 0x3C1A JUMP JUMPDEST PUSH1 0x20 DUP3 ADD SWAP1 POP SWAP2 SWAP1 POP JUMP JUMPDEST PUSH1 0x0 PUSH1 0x20 DUP3 ADD SWAP1 POP DUP2 DUP2 SUB PUSH1 0x0 DUP4 ADD MSTORE PUSH2 0x3C7F DUP2 PUSH2 0x3C43 JUMP JUMPDEST SWAP1 POP SWAP2 SWAP1 POP JUMP JUMPDEST PUSH32 0x4D7573742062652063616E20636C61696D000000000000000000000000000000 PUSH1 0x0 DUP3 ADD MSTORE POP JUMP JUMPDEST PUSH1 0x0 PUSH2 0x3CBC PUSH1 0x11 DUP4 PUSH2 0x3B02 JUMP JUMPDEST SWAP2 POP PUSH2 0x3CC7 DUP3 PUSH2 0x3C86 JUMP JUMPDEST PUSH1 0x20 DUP3 ADD SWAP1 POP SWAP2 SWAP1 POP JUMP JUMPDEST PUSH1 0x0 PUSH1 0x20 DUP3 ADD SWAP1 POP DUP2 DUP2 SUB PUSH1 0x0 DUP4 ADD MSTORE PUSH2 0x3CEB DUP2 PUSH2 0x3CAF JUMP JUMPDEST SWAP1 POP SWAP2 SWAP1 POP JUMP JUMPDEST PUSH1 0x0 PUSH1 0x60 DUP3 ADD SWAP1 POP PUSH2 0x3D07 PUSH1 0x0 DUP4 ADD DUP7 PUSH2 0x380A JUMP JUMPDEST PUSH2 0x3D14 PUSH1 0x20 DUP4 ADD DUP6 PUSH2 0x380A JUMP JUMPDEST PUSH2 0x3D21 PUSH1 0x40 DUP4 ADD DUP5 PUSH2 0x34E9 JUMP JUMPDEST SWAP5 SWAP4 POP POP POP POP JUMP JUMPDEST PUSH32 0x4E487B7100000000000000000000000000000000000000000000000000000000 PUSH1 0x0 MSTORE PUSH1 0x11 PUSH1 0x4 MSTORE PUSH1 0x24 PUSH1 0x0 REVERT JUMPDEST PUSH1 0x0 PUSH2 0x3D63 DUP3 PUSH2 0x34DF JUMP JUMPDEST SWAP2 POP PUSH2 0x3D6E DUP4 PUSH2 0x34DF JUMP JUMPDEST SWAP3 POP DUP3 DUP3 LT ISZERO PUSH2 0x3D81 JUMPI PUSH2 0x3D80 PUSH2 0x3D29 JUMP JUMPDEST JUMPDEST DUP3 DUP3 SUB SWAP1 POP SWAP3 SWAP2 POP POP JUMP JUMPDEST PUSH1 0x0 PUSH2 0x3D97 DUP3 PUSH2 0x34DF JUMP JUMPDEST SWAP2 POP PUSH2 0x3DA2 DUP4 PUSH2 0x34DF JUMP JUMPDEST SWAP3 POP DUP2 PUSH32 0xFFFFFFFFFFFFFFFFFFFFFFFFFFFFFFFFFFFFFFFFFFFFFFFFFFFFFFFFFFFFFFFF DIV DUP4 GT DUP3 ISZERO ISZERO AND ISZERO PUSH2 0x3DDB JUMPI PUSH2 0x3DDA PUSH2 0x3D29 JUMP JUMPDEST JUMPDEST DUP3 DUP3 MUL SWAP1 POP SWAP3 SWAP2 POP POP JUMP JUMPDEST PUSH32 0x4E487B7100000000000000000000000000000000000000000000000000000000 PUSH1 0x0 MSTORE PUSH1 0x12 PUSH1 0x4 MSTORE PUSH1 0x24 PUSH1 0x0 REVERT JUMPDEST PUSH1 0x0 PUSH2 0x3E20 DUP3 PUSH2 0x34DF JUMP JUMPDEST SWAP2 POP PUSH2 0x3E2B DUP4 PUSH2 0x34DF JUMP JUMPDEST SWAP3 POP DUP3 PUSH2 0x3E3B JUMPI PUSH2 0x3E3A PUSH2 0x3DE6 JUMP JUMPDEST JUMPDEST DUP3 DUP3 DIV SWAP1 POP SWAP3 SWAP2 POP POP JUMP JUMPDEST PUSH1 0x0 PUSH1 0xA0 DUP3 ADD SWAP1 POP PUSH2 0x3E5B PUSH1 0x0 DUP4 ADD DUP9 PUSH2 0x34E9 JUMP JUMPDEST PUSH2 0x3E68 PUSH1 0x20 DUP4 ADD DUP8 PUSH2 0x380A JUMP JUMPDEST PUSH2 0x3E75 PUSH1 0x40 DUP4 ADD DUP7 PUSH2 0x34E9 JUMP JUMPDEST PUSH2 0x3E82 PUSH1 0x60 DUP4 ADD DUP6 PUSH2 0x34E9 JUMP JUMPDEST PUSH2 0x3E8F PUSH1 0x80 DUP4 ADD DUP5 PUSH2 0x34E9 JUMP JUMPDEST SWAP7 SWAP6 POP POP POP POP POP POP JUMP JUMPDEST PUSH32 0x416363657373436F6E74726F6C3A2063616E206F6E6C792072656E6F756E6365 PUSH1 0x0 DUP3 ADD MSTORE PUSH32 0x20726F6C657320666F722073656C660000000000000000000000000000000000 PUSH1 0x20 DUP3 ADD MSTORE POP JUMP JUMPDEST PUSH1 0x0 PUSH2 0x3EF5 PUSH1 0x2F DUP4 PUSH2 0x3B02 JUMP JUMPDEST SWAP2 POP PUSH2 0x3F00 DUP3 PUSH2 0x3E99 JUMP JUMPDEST PUSH1 0x40 DUP3 ADD SWAP1 POP SWAP2 SWAP1 POP JUMP JUMPDEST PUSH1 0x0 PUSH1 0x20 DUP3 ADD SWAP1 POP DUP2 DUP2 SUB PUSH1 0x0 DUP4 ADD MSTORE PUSH2 0x3F24 DUP2 PUSH2 0x3EE8 JUMP JUMPDEST SWAP1 POP SWAP2 SWAP1 POP JUMP JUMPDEST PUSH32 0x4D757374206265206F776E6572206F7264657200000000000000000000000000 PUSH1 0x0 DUP3 ADD MSTORE POP JUMP JUMPDEST PUSH1 0x0 PUSH2 0x3F61 PUSH1 0x13 DUP4 PUSH2 0x3B02 JUMP JUMPDEST SWAP2 POP PUSH2 0x3F6C DUP3 PUSH2 0x3F2B JUMP JUMPDEST PUSH1 0x20 DUP3 ADD SWAP1 POP SWAP2 SWAP1 POP JUMP JUMPDEST PUSH1 0x0 PUSH1 0x20 DUP3 ADD SWAP1 POP DUP2 DUP2 SUB PUSH1 0x0 DUP4 ADD MSTORE PUSH2 0x3F90 DUP2 PUSH2 0x3F54 JUMP JUMPDEST SWAP1 POP SWAP2 SWAP1 POP JUMP JUMPDEST PUSH32 0x4D757374206E6F74206861766520626964657200000000000000000000000000 PUSH1 0x0 DUP3 ADD MSTORE POP JUMP JUMPDEST PUSH1 0x0 PUSH2 0x3FCD PUSH1 0x13 DUP4 PUSH2 0x3B02 JUMP JUMPDEST SWAP2 POP PUSH2 0x3FD8 DUP3 PUSH2 0x3F97 JUMP JUMPDEST PUSH1 0x20 DUP3 ADD SWAP1 POP SWAP2 SWAP1 POP JUMP JUMPDEST PUSH1 0x0 PUSH1 0x20 DUP3 ADD SWAP1 POP DUP2 DUP2 SUB PUSH1 0x0 DUP4 ADD MSTORE PUSH2 0x3FFC DUP2 PUSH2 0x3FC0 JUMP JUMPDEST SWAP1 POP SWAP2 SWAP1 POP JUMP JUMPDEST PUSH32 0x4D757374206265206E6F7420656E646564000000000000000000000000000000 PUSH1 0x0 DUP3 ADD MSTORE POP JUMP JUMPDEST PUSH1 0x0 PUSH2 0x4039 PUSH1 0x11 DUP4 PUSH2 0x3B02 JUMP JUMPDEST SWAP2 POP PUSH2 0x4044 DUP3 PUSH2 0x4003 JUMP JUMPDEST PUSH1 0x20 DUP3 ADD SWAP1 POP SWAP2 SWAP1 POP JUMP JUMPDEST PUSH1 0x0 PUSH1 0x20 DUP3 ADD SWAP1 POP DUP2 DUP2 SUB PUSH1 0x0 DUP4 ADD MSTORE PUSH2 0x4068 DUP2 PUSH2 0x402C JUMP JUMPDEST SWAP1 POP SWAP2 SWAP1 POP JUMP JUMPDEST PUSH1 0x0 PUSH1 0x40 DUP3 ADD SWAP1 POP PUSH2 0x4084 PUSH1 0x0 DUP4 ADD DUP6 PUSH2 0x34E9 JUMP JUMPDEST PUSH2 0x4091 PUSH1 0x20 DUP4 ADD DUP5 PUSH2 0x34E9 JUMP JUMPDEST SWAP4 SWAP3 POP POP POP JUMP JUMPDEST PUSH1 0x0 PUSH1 0x60 DUP3 ADD SWAP1 POP PUSH2 0x40AD PUSH1 0x0 DUP4 ADD DUP7 PUSH2 0x380A JUMP JUMPDEST PUSH2 0x40BA PUSH1 0x20 DUP4 ADD DUP6 PUSH2 0x34E9 JUMP JUMPDEST PUSH2 0x40C7 PUSH1 0x40 DUP4 ADD DUP5 PUSH2 0x34B5 JUMP JUMPDEST SWAP5 SWAP4 POP POP POP POP JUMP JUMPDEST PUSH32 0x496E76616C69642076616C756500000000000000000000000000000000000000 PUSH1 0x0 DUP3 ADD MSTORE POP JUMP JUMPDEST PUSH1 0x0 PUSH2 0x4105 PUSH1 0xD DUP4 PUSH2 0x3B02 JUMP JUMPDEST SWAP2 POP PUSH2 0x4110 DUP3 PUSH2 0x40CF JUMP JUMPDEST PUSH1 0x20 DUP3 ADD SWAP1 POP SWAP2 SWAP1 POP JUMP JUMPDEST PUSH1 0x0 PUSH1 0x20 DUP3 ADD SWAP1 POP DUP2 DUP2 SUB PUSH1 0x0 DUP4 ADD MSTORE PUSH2 0x4134 DUP2 PUSH2 0x40F8 JUMP JUMPDEST SWAP1 POP SWAP2 SWAP1 POP JUMP JUMPDEST PUSH32 0x4F7264657220656E646564000000000000000000000000000000000000000000 PUSH1 0x0 DUP3 ADD MSTORE POP JUMP JUMPDEST PUSH1 0x0 PUSH2 0x4171 PUSH1 0xB DUP4 PUSH2 0x3B02 JUMP JUMPDEST SWAP2 POP PUSH2 0x417C DUP3 PUSH2 0x413B JUMP JUMPDEST PUSH1 0x20 DUP3 ADD SWAP1 POP SWAP2 SWAP1 POP JUMP JUMPDEST PUSH1 0x0 PUSH1 0x20 DUP3 ADD SWAP1 POP DUP2 DUP2 SUB PUSH1 0x0 DUP4 ADD MSTORE PUSH2 0x41A0 DUP2 PUSH2 0x4164 JUMP JUMPDEST SWAP1 POP SWAP2 SWAP1 POP JUMP JUMPDEST PUSH32 0x4269642074696D6520656E646564000000000000000000000000000000000000 PUSH1 0x0 DUP3 ADD MSTORE POP JUMP JUMPDEST PUSH1 0x0 PUSH2 0x41DD PUSH1 0xE DUP4 PUSH2 0x3B02 JUMP JUMPDEST SWAP2 POP PUSH2 0x41E8 DUP3 PUSH2 0x41A7 JUMP JUMPDEST PUSH1 0x20 DUP3 ADD SWAP1 POP SWAP2 SWAP1 POP JUMP JUMPDEST PUSH1 0x0 PUSH1 0x20 DUP3 ADD SWAP1 POP DUP2 DUP2 SUB PUSH1 0x0 DUP4 ADD MSTORE PUSH2 0x420C DUP2 PUSH2 0x41D0 JUMP JUMPDEST SWAP1 POP SWAP2 SWAP1 POP JUMP JUMPDEST PUSH1 0x0 PUSH2 0x421E DUP3 PUSH2 0x34DF JUMP JUMPDEST SWAP2 POP PUSH2 0x4229 DUP4 PUSH2 0x34DF JUMP JUMPDEST SWAP3 POP DUP3 PUSH32 0xFFFFFFFFFFFFFFFFFFFFFFFFFFFFFFFFFFFFFFFFFFFFFFFFFFFFFFFFFFFFFFFF SUB DUP3 GT ISZERO PUSH2 0x425E JUMPI PUSH2 0x425D PUSH2 0x3D29 JUMP JUMPDEST JUMPDEST DUP3 DUP3 ADD SWAP1 POP SWAP3 SWAP2 POP POP JUMP JUMPDEST PUSH32 0x496E76616C69642062696420616D6F756E740000000000000000000000000000 PUSH1 0x0 DUP3 ADD MSTORE POP JUMP JUMPDEST PUSH1 0x0 PUSH2 0x429F PUSH1 0x12 DUP4 PUSH2 0x3B02 JUMP JUMPDEST SWAP2 POP PUSH2 0x42AA DUP3 PUSH2 0x4269 JUMP JUMPDEST PUSH1 0x20 DUP3 ADD SWAP1 POP SWAP2 SWAP1 POP JUMP JUMPDEST PUSH1 0x0 PUSH1 0x20 DUP3 ADD SWAP1 POP DUP2 DUP2 SUB PUSH1 0x0 DUP4 ADD MSTORE PUSH2 0x42CE DUP2 PUSH2 0x4292 JUMP JUMPDEST SWAP1 POP SWAP2 SWAP1 POP JUMP JUMPDEST PUSH1 0x0 PUSH1 0x80 DUP3 ADD SWAP1 POP PUSH2 0x42EA PUSH1 0x0 DUP4 ADD DUP8 PUSH2 0x380A JUMP JUMPDEST PUSH2 0x42F7 PUSH1 0x20 DUP4 ADD DUP7 PUSH2 0x34E9 JUMP JUMPDEST PUSH2 0x4304 PUSH1 0x40 DUP4 ADD DUP6 PUSH2 0x34E9 JUMP JUMPDEST PUSH2 0x4311 PUSH1 0x60 DUP4 ADD DUP5 PUSH2 0x34E9 JUMP JUMPDEST SWAP6 SWAP5 POP POP POP POP POP JUMP JUMPDEST PUSH32 0x4E4654206D75737420626520737570706F727465640000000000000000000000 PUSH1 0x0 DUP3 ADD MSTORE POP JUMP JUMPDEST PUSH1 0x0 PUSH2 0x4350 PUSH1 0x15 DUP4 PUSH2 0x3B02 JUMP JUMPDEST SWAP2 POP PUSH2 0x435B DUP3 PUSH2 0x431A JUMP JUMPDEST PUSH1 0x20 DUP3 ADD SWAP1 POP SWAP2 SWAP1 POP JUMP JUMPDEST PUSH1 0x0 PUSH1 0x20 DUP3 ADD SWAP1 POP DUP2 DUP2 SUB PUSH1 0x0 DUP4 ADD MSTORE PUSH2 0x437F DUP2 PUSH2 0x4343 JUMP JUMPDEST SWAP1 POP SWAP2 SWAP1 POP JUMP JUMPDEST PUSH32 0x43757272656E6379206D75737420626520737570706F72746564000000000000 PUSH1 0x0 DUP3 ADD MSTORE POP JUMP JUMPDEST PUSH1 0x0 PUSH2 0x43BC PUSH1 0x1A DUP4 PUSH2 0x3B02 JUMP JUMPDEST SWAP2 POP PUSH2 0x43C7 DUP3 PUSH2 0x4386 JUMP JUMPDEST PUSH1 0x20 DUP3 ADD SWAP1 POP SWAP2 SWAP1 POP JUMP JUMPDEST PUSH1 0x0 PUSH1 0x20 DUP3 ADD SWAP1 POP DUP2 DUP2 SUB PUSH1 0x0 DUP4 ADD MSTORE PUSH2 0x43EB DUP2 PUSH2 0x43AF JUMP JUMPDEST SWAP1 POP SWAP2 SWAP1 POP JUMP JUMPDEST PUSH1 0x0 DUP2 MLOAD SWAP1 POP PUSH2 0x4401 DUP2 PUSH2 0x362B JUMP JUMPDEST SWAP3 SWAP2 POP POP JUMP JUMPDEST PUSH1 0x0 PUSH1 0x20 DUP3 DUP5 SUB SLT ISZERO PUSH2 0x441D JUMPI PUSH2 0x441C PUSH2 0x341A JUMP JUMPDEST JUMPDEST PUSH1 0x0 PUSH2 0x442B DUP5 DUP3 DUP6 ADD PUSH2 0x43F2 JUMP JUMPDEST SWAP2 POP POP SWAP3 SWAP2 POP POP JUMP JUMPDEST PUSH32 0x4D757374206265206F776E6572206F66204E4654000000000000000000000000 PUSH1 0x0 DUP3 ADD MSTORE POP JUMP JUMPDEST PUSH1 0x0 PUSH2 0x446A PUSH1 0x14 DUP4 PUSH2 0x3B02 JUMP JUMPDEST SWAP2 POP PUSH2 0x4475 DUP3 PUSH2 0x4434 JUMP JUMPDEST PUSH1 0x20 DUP3 ADD SWAP1 POP SWAP2 SWAP1 POP JUMP JUMPDEST PUSH1 0x0 PUSH1 0x20 DUP3 ADD SWAP1 POP DUP2 DUP2 SUB PUSH1 0x0 DUP4 ADD MSTORE PUSH2 0x4499 DUP2 PUSH2 0x445D JUMP JUMPDEST SWAP1 POP SWAP2 SWAP1 POP JUMP JUMPDEST PUSH32 0x507269636520696E76616C696400000000000000000000000000000000000000 PUSH1 0x0 DUP3 ADD MSTORE POP JUMP JUMPDEST PUSH1 0x0 PUSH2 0x44D6 PUSH1 0xD DUP4 PUSH2 0x3B02 JUMP JUMPDEST SWAP2 POP PUSH2 0x44E1 DUP3 PUSH2 0x44A0 JUMP JUMPDEST PUSH1 0x20 DUP3 ADD SWAP1 POP SWAP2 SWAP1 POP JUMP JUMPDEST PUSH1 0x0 PUSH1 0x20 DUP3 ADD SWAP1 POP DUP2 DUP2 SUB PUSH1 0x0 DUP4 ADD MSTORE PUSH2 0x4505 DUP2 PUSH2 0x44C9 JUMP JUMPDEST SWAP1 POP SWAP2 SWAP1 POP JUMP JUMPDEST PUSH32 0x53706F7420707269636520696E76616C69640000000000000000000000000000 PUSH1 0x0 DUP3 ADD MSTORE POP JUMP JUMPDEST PUSH1 0x0 PUSH2 0x4542 PUSH1 0x12 DUP4 PUSH2 0x3B02 JUMP JUMPDEST SWAP2 POP PUSH2 0x454D DUP3 PUSH2 0x450C JUMP JUMPDEST PUSH1 0x20 DUP3 ADD SWAP1 POP SWAP2 SWAP1 POP JUMP JUMPDEST PUSH1 0x0 PUSH1 0x20 DUP3 ADD SWAP1 POP DUP2 DUP2 SUB PUSH1 0x0 DUP4 ADD MSTORE PUSH2 0x4571 DUP2 PUSH2 0x4535 JUMP JUMPDEST SWAP1 POP SWAP2 SWAP1 POP JUMP JUMPDEST PUSH32 0x54696D65456E6420697320696E76616C69640000000000000000000000000000 PUSH1 0x0 DUP3 ADD MSTORE POP JUMP JUMPDEST PUSH1 0x0 PUSH2 0x45AE PUSH1 0x12 DUP4 PUSH2 0x3B02 JUMP JUMPDEST SWAP2 POP PUSH2 0x45B9 DUP3 PUSH2 0x4578 JUMP JUMPDEST PUSH1 0x20 DUP3 ADD SWAP1 POP SWAP2 SWAP1 POP JUMP JUMPDEST PUSH1 0x0 PUSH1 0x20 DUP3 ADD SWAP1 POP DUP2 DUP2 SUB PUSH1 0x0 DUP4 ADD MSTORE PUSH2 0x45DD DUP2 PUSH2 0x45A1 JUMP JUMPDEST SWAP1 POP SWAP2 SWAP1 POP JUMP JUMPDEST PUSH1 0x0 PUSH2 0x120 DUP3 ADD SWAP1 POP PUSH2 0x45FA PUSH1 0x0 DUP4 ADD DUP13 PUSH2 0x34E9 JUMP JUMPDEST PUSH2 0x4607 PUSH1 0x20 DUP4 ADD DUP12 PUSH2 0x380A JUMP JUMPDEST PUSH2 0x4614 PUSH1 0x40 DUP4 ADD DUP11 PUSH2 0x380A JUMP JUMPDEST PUSH2 0x4621 PUSH1 0x60 DUP4 ADD DUP10 PUSH2 0x380A JUMP JUMPDEST PUSH2 0x462E PUSH1 0x80 DUP4 ADD DUP9 PUSH2 0x34E9 JUMP JUMPDEST PUSH2 0x463B PUSH1 0xA0 DUP4 ADD DUP8 PUSH2 0x34E9 JUMP JUMPDEST PUSH2 0x4648 PUSH1 0xC0 DUP4 ADD DUP7 PUSH2 0x34E9 JUMP JUMPDEST PUSH2 0x4655 PUSH1 0xE0 DUP4 ADD DUP6 PUSH2 0x34E9 JUMP JUMPDEST PUSH2 0x4663 PUSH2 0x100 DUP4 ADD DUP5 PUSH2 0x34E9 JUMP JUMPDEST SWAP11 SWAP10 POP POP POP POP POP POP POP POP POP POP JUMP JUMPDEST PUSH1 0x0 DUP2 SWAP1 POP SWAP3 SWAP2 POP POP JUMP JUMPDEST PUSH32 0x416363657373436F6E74726F6C3A206163636F756E7420000000000000000000 PUSH1 0x0 DUP3 ADD MSTORE POP JUMP JUMPDEST PUSH1 0x0 PUSH2 0x46B2 PUSH1 0x17 DUP4 PUSH2 0x4671 JUMP JUMPDEST SWAP2 POP PUSH2 0x46BD DUP3 PUSH2 0x467C JUMP JUMPDEST PUSH1 0x17 DUP3 ADD SWAP1 POP SWAP2 SWAP1 POP JUMP JUMPDEST PUSH1 0x0 DUP2 MLOAD SWAP1 POP SWAP2 SWAP1 POP JUMP JUMPDEST PUSH1 0x0 JUMPDEST DUP4 DUP2 LT ISZERO PUSH2 0x46F1 JUMPI DUP1 DUP3 ADD MLOAD DUP2 DUP5 ADD MSTORE PUSH1 0x20 DUP2 ADD SWAP1 POP PUSH2 0x46D6 JUMP JUMPDEST DUP4 DUP2 GT ISZERO PUSH2 0x4700 JUMPI PUSH1 0x0 DUP5 DUP5 ADD MSTORE JUMPDEST POP POP POP POP JUMP JUMPDEST PUSH1 0x0 PUSH2 0x4711 DUP3 PUSH2 0x46C8 JUMP JUMPDEST PUSH2 0x471B DUP2 DUP6 PUSH2 0x4671 JUMP JUMPDEST SWAP4 POP PUSH2 0x472B DUP2 DUP6 PUSH1 0x20 DUP7 ADD PUSH2 0x46D3 JUMP JUMPDEST DUP1 DUP5 ADD SWAP2 POP POP SWAP3 SWAP2 POP POP JUMP JUMPDEST PUSH32 0x206973206D697373696E6720726F6C6520000000000000000000000000000000 PUSH1 0x0 DUP3 ADD MSTORE POP JUMP JUMPDEST PUSH1 0x0 PUSH2 0x476D PUSH1 0x11 DUP4 PUSH2 0x4671 JUMP JUMPDEST SWAP2 POP PUSH2 0x4778 DUP3 PUSH2 0x4737 JUMP JUMPDEST PUSH1 0x11 DUP3 ADD SWAP1 POP SWAP2 SWAP1 POP JUMP JUMPDEST PUSH1 0x0 PUSH2 0x478E DUP3 PUSH2 0x46A5 JUMP JUMPDEST SWAP2 POP PUSH2 0x479A DUP3 DUP6 PUSH2 0x4706 JUMP JUMPDEST SWAP2 POP PUSH2 0x47A5 DUP3 PUSH2 0x4760 JUMP JUMPDEST SWAP2 POP PUSH2 0x47B1 DUP3 DUP5 PUSH2 0x4706 JUMP JUMPDEST SWAP2 POP DUP2 SWAP1 POP SWAP4 SWAP3 POP POP POP JUMP JUMPDEST PUSH1 0x0 PUSH2 0x47C8 DUP3 PUSH2 0x46C8 JUMP JUMPDEST PUSH2 0x47D2 DUP2 DUP6 PUSH2 0x3B02 JUMP JUMPDEST SWAP4 POP PUSH2 0x47E2 DUP2 DUP6 PUSH1 0x20 DUP7 ADD PUSH2 0x46D3 JUMP JUMPDEST PUSH2 0x47EB DUP2 PUSH2 0x38B0 JUMP JUMPDEST DUP5 ADD SWAP2 POP POP SWAP3 SWAP2 POP POP JUMP JUMPDEST PUSH1 0x0 PUSH1 0x20 DUP3 ADD SWAP1 POP DUP2 DUP2 SUB PUSH1 0x0 DUP4 ADD MSTORE PUSH2 0x4810 DUP2 DUP5 PUSH2 0x47BD JUMP JUMPDEST SWAP1 POP SWAP3 SWAP2 POP POP JUMP JUMPDEST PUSH32 0x5061757361626C653A206E6F7420706175736564000000000000000000000000 PUSH1 0x0 DUP3 ADD MSTORE POP JUMP JUMPDEST PUSH1 0x0 PUSH2 0x484E PUSH1 0x14 DUP4 PUSH2 0x3B02 JUMP JUMPDEST SWAP2 POP PUSH2 0x4859 DUP3 PUSH2 0x4818 JUMP JUMPDEST PUSH1 0x20 DUP3 ADD SWAP1 POP SWAP2 SWAP1 POP JUMP JUMPDEST PUSH1 0x0 PUSH1 0x20 DUP3 ADD SWAP1 POP DUP2 DUP2 SUB PUSH1 0x0 DUP4 ADD MSTORE PUSH2 0x487D DUP2 PUSH2 0x4841 JUMP JUMPDEST SWAP1 POP SWAP2 SWAP1 POP JUMP JUMPDEST PUSH1 0x0 PUSH1 0x20 DUP3 ADD SWAP1 POP PUSH2 0x4899 PUSH1 0x0 DUP4 ADD DUP5 PUSH2 0x380A JUMP JUMPDEST SWAP3 SWAP2 POP POP JUMP JUMPDEST PUSH1 0x0 PUSH1 0x40 DUP3 ADD SWAP1 POP PUSH2 0x48B4 PUSH1 0x0 DUP4 ADD DUP6 PUSH2 0x380A JUMP JUMPDEST PUSH2 0x48C1 PUSH1 0x20 DUP4 ADD DUP5 PUSH2 0x34E9 JUMP JUMPDEST SWAP4 SWAP3 POP POP POP JUMP JUMPDEST PUSH1 0x0 PUSH2 0x48D3 DUP3 PUSH2 0x34DF JUMP JUMPDEST SWAP2 POP PUSH1 0x0 DUP3 SUB PUSH2 0x48E6 JUMPI PUSH2 0x48E5 PUSH2 0x3D29 JUMP JUMPDEST JUMPDEST PUSH1 0x1 DUP3 SUB SWAP1 POP SWAP2 SWAP1 POP JUMP JUMPDEST PUSH32 0x537472696E67733A20686578206C656E67746820696E73756666696369656E74 PUSH1 0x0 DUP3 ADD MSTORE POP JUMP JUMPDEST PUSH1 0x0 PUSH2 0x4927 PUSH1 0x20 DUP4 PUSH2 0x3B02 JUMP JUMPDEST SWAP2 POP PUSH2 0x4932 DUP3 PUSH2 0x48F1 JUMP JUMPDEST PUSH1 0x20 DUP3 ADD SWAP1 POP SWAP2 SWAP1 POP JUMP JUMPDEST PUSH1 0x0 PUSH1 0x20 DUP3 ADD SWAP1 POP DUP2 DUP2 SUB PUSH1 0x0 DUP4 ADD MSTORE PUSH2 0x4956 DUP2 PUSH2 0x491A JUMP JUMPDEST SWAP1 POP SWAP2 SWAP1 POP JUMP JUMPDEST PUSH1 0x0 DUP2 MLOAD SWAP1 POP PUSH2 0x496C DUP2 PUSH2 0x36FB JUMP JUMPDEST SWAP3 SWAP2 POP POP JUMP JUMPDEST PUSH1 0x0 PUSH1 0x20 DUP3 DUP5 SUB SLT ISZERO PUSH2 0x4988 JUMPI PUSH2 0x4987 PUSH2 0x341A JUMP JUMPDEST JUMPDEST PUSH1 0x0 PUSH2 0x4996 DUP5 DUP3 DUP6 ADD PUSH2 0x495D JUMP JUMPDEST SWAP2 POP POP SWAP3 SWAP2 POP POP JUMP JUMPDEST PUSH32 0x5361666545524332303A204552433230206F7065726174696F6E20646964206E PUSH1 0x0 DUP3 ADD MSTORE PUSH32 0x6F74207375636365656400000000000000000000000000000000000000000000 PUSH1 0x20 DUP3 ADD MSTORE POP JUMP JUMPDEST PUSH1 0x0 PUSH2 0x49FB PUSH1 0x2A DUP4 PUSH2 0x3B02 JUMP JUMPDEST SWAP2 POP PUSH2 0x4A06 DUP3 PUSH2 0x499F JUMP JUMPDEST PUSH1 0x40 DUP3 ADD SWAP1 POP SWAP2 SWAP1 POP JUMP JUMPDEST PUSH1 0x0 PUSH1 0x20 DUP3 ADD SWAP1 POP DUP2 DUP2 SUB PUSH1 0x0 DUP4 ADD MSTORE PUSH2 0x4A2A DUP2 PUSH2 0x49EE JUMP JUMPDEST SWAP1 POP SWAP2 SWAP1 POP JUMP JUMPDEST PUSH32 0x416464726573733A20696E73756666696369656E742062616C616E636520666F PUSH1 0x0 DUP3 ADD MSTORE PUSH32 0x722063616C6C0000000000000000000000000000000000000000000000000000 PUSH1 0x20 DUP3 ADD MSTORE POP JUMP JUMPDEST PUSH1 0x0 PUSH2 0x4A8D PUSH1 0x26 DUP4 PUSH2 0x3B02 JUMP JUMPDEST SWAP2 POP PUSH2 0x4A98 DUP3 PUSH2 0x4A31 JUMP JUMPDEST PUSH1 0x40 DUP3 ADD SWAP1 POP SWAP2 SWAP1 POP JUMP JUMPDEST PUSH1 0x0 PUSH1 0x20 DUP3 ADD SWAP1 POP DUP2 DUP2 SUB PUSH1 0x0 DUP4 ADD MSTORE PUSH2 0x4ABC DUP2 PUSH2 0x4A80 JUMP JUMPDEST SWAP1 POP SWAP2 SWAP1 POP JUMP JUMPDEST PUSH32 0x416464726573733A2063616C6C20746F206E6F6E2D636F6E7472616374000000 PUSH1 0x0 DUP3 ADD MSTORE POP JUMP JUMPDEST PUSH1 0x0 PUSH2 0x4AF9 PUSH1 0x1D DUP4 PUSH2 0x3B02 JUMP JUMPDEST SWAP2 POP PUSH2 0x4B04 DUP3 PUSH2 0x4AC3 JUMP JUMPDEST PUSH1 0x20 DUP3 ADD SWAP1 POP SWAP2 SWAP1 POP JUMP JUMPDEST PUSH1 0x0 PUSH1 0x20 DUP3 ADD SWAP1 POP DUP2 DUP2 SUB PUSH1 0x0 DUP4 ADD MSTORE PUSH2 0x4B28 DUP2 PUSH2 0x4AEC JUMP JUMPDEST SWAP1 POP SWAP2 SWAP1 POP JUMP JUMPDEST PUSH1 0x0 DUP2 MLOAD SWAP1 POP SWAP2 SWAP1 POP JUMP JUMPDEST PUSH1 0x0 DUP2 SWAP1 POP SWAP3 SWAP2 POP POP JUMP JUMPDEST PUSH1 0x0 PUSH2 0x4B50 DUP3 PUSH2 0x4B2F JUMP JUMPDEST PUSH2 0x4B5A DUP2 DUP6 PUSH2 0x4B3A JUMP JUMPDEST SWAP4 POP PUSH2 0x4B6A DUP2 DUP6 PUSH1 0x20 DUP7 ADD PUSH2 0x46D3 JUMP JUMPDEST DUP1 DUP5 ADD SWAP2 POP POP SWAP3 SWAP2 POP POP JUMP JUMPDEST PUSH1 0x0 PUSH2 0x4B82 DUP3 DUP5 PUSH2 0x4B45 JUMP JUMPDEST SWAP2 POP DUP2 SWAP1 POP SWAP3 SWAP2 POP POP JUMP INVALID LOG2 PUSH5 0x6970667358 0x22 SLT KECCAK256 0xBA CALLDATASIZE PUSH15 0xCFDD9C66E068FBD46C5F39310129D5 BALANCE SWAP1 0x4E 0xA6 0x4E PUSH28 0x6EACF8322994019364736F6C634300080D0033000000000000000000 "
				},
				"gasEstimates": {
					"creation": {
						"codeDepositCost": "3879000",
						"executionCost": "infinite",
						"totalCost": "infinite"
					},
					"external": {
						"DEFAULT_ADMIN_ROLE()": "380",
						"MARKET_CONFIG()": "375",
						"PAUSER_ROLE()": "417",
						"addSupportedNFT(address)": "infinite",
						"adminCancelOrder(uint256)": "infinite",
						"approveSold(uint256)": "infinite",
						"bid(uint256,uint256)": "infinite",
						"cancelOrder(uint256)": "infinite",
						"claim(uint256)": "infinite",
						"createOrder(address,address,uint256,uint256,uint256,uint256)": "infinite",
						"editSupportedCurrency(address,uint256,uint256,bool)": "infinite",
						"getRoleAdmin(bytes32)": "infinite",
						"grantRole(bytes32,address)": "infinite",
						"hasRole(bytes32,address)": "3207",
						"minTime()": "2498",
						"orders(uint256)": "infinite",
						"owner()": "2559",
						"pause()": "infinite",
						"paused()": "2590",
						"removeSupportedNFT(address)": "infinite",
						"renounceRole(bytes32,address)": "infinite",
						"revokeRole(bytes32,address)": "infinite",
						"setMinTime(uint256)": "infinite",
						"stringToBytes32(string)": "infinite",
						"supportedCurrency(address)": "infinite",
						"supportedNFT(address)": "2890",
						"supportsInterface(bytes4)": "774",
						"unpause()": "infinite",
						"withdraw(address,uint256)": "infinite"
					},
					"internal": {
						"transfer(address,address,uint256)": "infinite"
					}
				},
				"methodIdentifiers": {
					"DEFAULT_ADMIN_ROLE()": "a217fddf",
					"MARKET_CONFIG()": "6325c105",
					"PAUSER_ROLE()": "e63ab1e9",
					"addSupportedNFT(address)": "7b2c3a85",
					"adminCancelOrder(uint256)": "9ae10a1f",
					"approveSold(uint256)": "22ccf3cd",
					"bid(uint256,uint256)": "598647f8",
					"cancelOrder(uint256)": "514fcac7",
					"claim(uint256)": "379607f5",
					"createOrder(address,address,uint256,uint256,uint256,uint256)": "d6d46232",
					"editSupportedCurrency(address,uint256,uint256,bool)": "587f70bf",
					"getRoleAdmin(bytes32)": "248a9ca3",
					"grantRole(bytes32,address)": "2f2ff15d",
					"hasRole(bytes32,address)": "91d14854",
					"minTime()": "1aa43078",
					"orders(uint256)": "a85c38ef",
					"owner()": "8da5cb5b",
					"pause()": "8456cb59",
					"paused()": "5c975abb",
					"removeSupportedNFT(address)": "c8312a54",
					"renounceRole(bytes32,address)": "36568abe",
					"revokeRole(bytes32,address)": "d547741f",
					"setMinTime(uint256)": "93f89a80",
					"stringToBytes32(string)": "cfb51928",
					"supportedCurrency(address)": "3d0cc799",
					"supportedNFT(address)": "566a7ac3",
					"supportsInterface(bytes4)": "01ffc9a7",
					"unpause()": "3f4ba83a",
					"withdraw(address,uint256)": "f3fef3a3"
				}
			},
			"storageLayout": {
				"storage": [
					{
						"astId": 2025,
						"contract": "contracts/SQFITEM/Marketplace.sol:Marketplace",
						"label": "_paused",
						"offset": 0,
						"slot": "0",
						"type": "t_bool"
					},
					{
						"astId": 23,
						"contract": "contracts/SQFITEM/Marketplace.sol:Marketplace",
						"label": "_roles",
						"offset": 0,
						"slot": "1",
						"type": "t_mapping(t_bytes32,t_struct(RoleData)18_storage)"
					},
					{
						"astId": 969,
						"contract": "contracts/SQFITEM/Marketplace.sol:Marketplace",
						"label": "minTime",
						"offset": 0,
						"slot": "2",
						"type": "t_uint256"
					},
					{
						"astId": 971,
						"contract": "contracts/SQFITEM/Marketplace.sol:Marketplace",
						"label": "owner",
						"offset": 0,
						"slot": "3",
						"type": "t_address_payable"
					},
					{
						"astId": 975,
						"contract": "contracts/SQFITEM/Marketplace.sol:Marketplace",
						"label": "supportedNFT",
						"offset": 0,
						"slot": "4",
						"type": "t_mapping(t_address,t_bool)"
					},
					{
						"astId": 987,
						"contract": "contracts/SQFITEM/Marketplace.sol:Marketplace",
						"label": "supportedCurrency",
						"offset": 0,
						"slot": "5",
						"type": "t_mapping(t_address,t_struct(Currency)982_storage)"
					},
					{
						"astId": 1010,
						"contract": "contracts/SQFITEM/Marketplace.sol:Marketplace",
						"label": "orders",
						"offset": 0,
						"slot": "6",
						"type": "t_array(t_struct(Order)1006_storage)dyn_storage"
					}
				],
				"types": {
					"t_address": {
						"encoding": "inplace",
						"label": "address",
						"numberOfBytes": "20"
					},
					"t_address_payable": {
						"encoding": "inplace",
						"label": "address payable",
						"numberOfBytes": "20"
					},
					"t_array(t_struct(Order)1006_storage)dyn_storage": {
						"base": "t_struct(Order)1006_storage",
						"encoding": "dynamic_array",
						"label": "struct Marketplace.Order[]",
						"numberOfBytes": "32"
					},
					"t_bool": {
						"encoding": "inplace",
						"label": "bool",
						"numberOfBytes": "1"
					},
					"t_bytes32": {
						"encoding": "inplace",
						"label": "bytes32",
						"numberOfBytes": "32"
					},
					"t_mapping(t_address,t_bool)": {
						"encoding": "mapping",
						"key": "t_address",
						"label": "mapping(address => bool)",
						"numberOfBytes": "32",
						"value": "t_bool"
					},
					"t_mapping(t_address,t_struct(Currency)982_storage)": {
						"encoding": "mapping",
						"key": "t_address",
						"label": "mapping(address => struct Marketplace.Currency)",
						"numberOfBytes": "32",
						"value": "t_struct(Currency)982_storage"
					},
					"t_mapping(t_bytes32,t_struct(RoleData)18_storage)": {
						"encoding": "mapping",
						"key": "t_bytes32",
						"label": "mapping(bytes32 => struct AccessControl.RoleData)",
						"numberOfBytes": "32",
						"value": "t_struct(RoleData)18_storage"
					},
					"t_struct(Currency)982_storage": {
						"encoding": "inplace",
						"label": "struct Marketplace.Currency",
						"members": [
							{
								"astId": 977,
								"contract": "contracts/SQFITEM/Marketplace.sol:Marketplace",
								"label": "fee",
								"offset": 0,
								"slot": "0",
								"type": "t_uint256"
							},
							{
								"astId": 979,
								"contract": "contracts/SQFITEM/Marketplace.sol:Marketplace",
								"label": "minNextBid",
								"offset": 0,
								"slot": "1",
								"type": "t_uint256"
							},
							{
								"astId": 981,
								"contract": "contracts/SQFITEM/Marketplace.sol:Marketplace",
								"label": "status",
								"offset": 0,
								"slot": "2",
								"type": "t_bool"
							}
						],
						"numberOfBytes": "96"
					},
					"t_struct(Order)1006_storage": {
						"encoding": "inplace",
						"label": "struct Marketplace.Order",
						"members": [
							{
								"astId": 989,
								"contract": "contracts/SQFITEM/Marketplace.sol:Marketplace",
								"label": "nftId",
								"offset": 0,
								"slot": "0",
								"type": "t_uint256"
							},
							{
								"astId": 991,
								"contract": "contracts/SQFITEM/Marketplace.sol:Marketplace",
								"label": "timeEnd",
								"offset": 0,
								"slot": "1",
								"type": "t_uint256"
							},
							{
								"astId": 993,
								"contract": "contracts/SQFITEM/Marketplace.sol:Marketplace",
								"label": "currentPrice",
								"offset": 0,
								"slot": "2",
								"type": "t_uint256"
							},
							{
								"astId": 995,
								"contract": "contracts/SQFITEM/Marketplace.sol:Marketplace",
								"label": "spotPrice",
								"offset": 0,
								"slot": "3",
								"type": "t_uint256"
							},
							{
								"astId": 997,
								"contract": "contracts/SQFITEM/Marketplace.sol:Marketplace",
								"label": "nftContract",
								"offset": 0,
								"slot": "4",
								"type": "t_address"
							},
							{
								"astId": 999,
								"contract": "contracts/SQFITEM/Marketplace.sol:Marketplace",
								"label": "currency",
								"offset": 0,
								"slot": "5",
								"type": "t_address"
							},
							{
								"astId": 1001,
								"contract": "contracts/SQFITEM/Marketplace.sol:Marketplace",
								"label": "lastBid",
								"offset": 0,
								"slot": "6",
								"type": "t_address"
							},
							{
								"astId": 1003,
								"contract": "contracts/SQFITEM/Marketplace.sol:Marketplace",
								"label": "saler",
								"offset": 0,
								"slot": "7",
								"type": "t_address"
							},
							{
								"astId": 1005,
								"contract": "contracts/SQFITEM/Marketplace.sol:Marketplace",
								"label": "isEnd",
								"offset": 20,
								"slot": "7",
								"type": "t_bool"
							}
						],
						"numberOfBytes": "256"
					},
					"t_struct(RoleData)18_storage": {
						"encoding": "inplace",
						"label": "struct AccessControl.RoleData",
						"members": [
							{
								"astId": 15,
								"contract": "contracts/SQFITEM/Marketplace.sol:Marketplace",
								"label": "members",
								"offset": 0,
								"slot": "0",
								"type": "t_mapping(t_address,t_bool)"
							},
							{
								"astId": 17,
								"contract": "contracts/SQFITEM/Marketplace.sol:Marketplace",
								"label": "adminRole",
								"offset": 0,
								"slot": "1",
								"type": "t_bytes32"
							}
						],
						"numberOfBytes": "64"
					},
					"t_uint256": {
						"encoding": "inplace",
						"label": "uint256",
						"numberOfBytes": "32"
					}
				}
			},
			"userdoc": {
				"kind": "user",
				"methods": {},
				"version": 1
			}
		}
	}
}