{
	"contracts/SQFITEM/SQFI_Factory.sol": {
		"SQFIFactory": {
			"abi": [
				{
					"inputs": [
						{
							"internalType": "address",
							"name": "_sqfi",
							"type": "address"
						},
						{
							"internalType": "address",
							"name": "_fee1",
							"type": "address"
						}
					],
					"stateMutability": "nonpayable",
					"type": "constructor"
				},
				{
					"anonymous": false,
					"inputs": [
						{
							"indexed": false,
							"internalType": "address",
							"name": "owner",
							"type": "address"
						},
						{
							"indexed": false,
							"internalType": "uint256",
							"name": "tokenId",
							"type": "uint256"
						},
						{
							"indexed": false,
							"internalType": "address",
							"name": "fee1",
							"type": "address"
						},
						{
							"indexed": false,
							"internalType": "uint256",
							"name": "amount1",
							"type": "uint256"
						}
					],
					"name": "CraftSQFI",
					"type": "event"
				},
				{
					"anonymous": false,
					"inputs": [
						{
							"indexed": false,
							"internalType": "address",
							"name": "currency",
							"type": "address"
						},
						{
							"indexed": false,
							"internalType": "uint256",
							"name": "amount",
							"type": "uint256"
						},
						{
							"indexed": false,
							"internalType": "bool",
							"name": "enable",
							"type": "bool"
						}
					],
					"name": "FeeChange",
					"type": "event"
				},
				{
					"anonymous": false,
					"inputs": [
						{
							"indexed": false,
							"internalType": "address",
							"name": "account",
							"type": "address"
						}
					],
					"name": "Paused",
					"type": "event"
				},
				{
					"anonymous": false,
					"inputs": [
						{
							"indexed": true,
							"internalType": "bytes32",
							"name": "role",
							"type": "bytes32"
						},
						{
							"indexed": true,
							"internalType": "bytes32",
							"name": "previousAdminRole",
							"type": "bytes32"
						},
						{
							"indexed": true,
							"internalType": "bytes32",
							"name": "newAdminRole",
							"type": "bytes32"
						}
					],
					"name": "RoleAdminChanged",
					"type": "event"
				},
				{
					"anonymous": false,
					"inputs": [
						{
							"indexed": true,
							"internalType": "bytes32",
							"name": "role",
							"type": "bytes32"
						},
						{
							"indexed": true,
							"internalType": "address",
							"name": "account",
							"type": "address"
						},
						{
							"indexed": true,
							"internalType": "address",
							"name": "sender",
							"type": "address"
						}
					],
					"name": "RoleGranted",
					"type": "event"
				},
				{
					"anonymous": false,
					"inputs": [
						{
							"indexed": true,
							"internalType": "bytes32",
							"name": "role",
							"type": "bytes32"
						},
						{
							"indexed": true,
							"internalType": "address",
							"name": "account",
							"type": "address"
						},
						{
							"indexed": true,
							"internalType": "address",
							"name": "sender",
							"type": "address"
						}
					],
					"name": "RoleRevoked",
					"type": "event"
				},
				{
					"anonymous": false,
					"inputs": [
						{
							"indexed": false,
							"internalType": "uint256",
							"name": "tokenId",
							"type": "uint256"
						}
					],
					"name": "UncraftSQFI",
					"type": "event"
				},
				{
					"anonymous": false,
					"inputs": [
						{
							"indexed": false,
							"internalType": "address",
							"name": "account",
							"type": "address"
						}
					],
					"name": "Unpaused",
					"type": "event"
				},
				{
					"inputs": [],
					"name": "DEFAULT_ADMIN_ROLE",
					"outputs": [
						{
							"internalType": "bytes32",
							"name": "",
							"type": "bytes32"
						}
					],
					"stateMutability": "view",
					"type": "function"
				},
				{
					"inputs": [],
					"name": "PAUSER_ROLE",
					"outputs": [
						{
							"internalType": "bytes32",
							"name": "",
							"type": "bytes32"
						}
					],
					"stateMutability": "view",
					"type": "function"
				},
				{
					"inputs": [],
					"name": "SQFi",
					"outputs": [
						{
							"internalType": "contract ISQFItem",
							"name": "",
							"type": "address"
						}
					],
					"stateMutability": "view",
					"type": "function"
				},
				{
					"inputs": [],
					"name": "amount1",
					"outputs": [
						{
							"internalType": "uint256",
							"name": "",
							"type": "uint256"
						}
					],
					"stateMutability": "view",
					"type": "function"
				},
				{
					"inputs": [
						{
							"internalType": "bytes32",
							"name": "data",
							"type": "bytes32"
						}
					],
					"name": "bytes32ToAmount16",
					"outputs": [
						{
							"internalType": "uint256[16]",
							"name": "amount",
							"type": "uint256[16]"
						}
					],
					"stateMutability": "pure",
					"type": "function"
				},
				{
					"inputs": [
						{
							"internalType": "string",
							"name": "tokenURI_",
							"type": "string"
						}
					],
					"name": "createSQFI",
					"outputs": [
						{
							"internalType": "uint256",
							"name": "",
							"type": "uint256"
						}
					],
					"stateMutability": "nonpayable",
					"type": "function"
				},
				{
					"inputs": [
						{
							"internalType": "address",
							"name": "_fee1",
							"type": "address"
						},
						{
							"internalType": "uint256",
							"name": "_amount1",
							"type": "uint256"
						}
					],
					"name": "editSupportedFee",
					"outputs": [],
					"stateMutability": "nonpayable",
					"type": "function"
				},
				{
					"inputs": [],
					"name": "fee1",
					"outputs": [
						{
							"internalType": "address",
							"name": "",
							"type": "address"
						}
					],
					"stateMutability": "view",
					"type": "function"
				},
				{
					"inputs": [
						{
							"internalType": "bytes32",
							"name": "role",
							"type": "bytes32"
						}
					],
					"name": "getRoleAdmin",
					"outputs": [
						{
							"internalType": "bytes32",
							"name": "",
							"type": "bytes32"
						}
					],
					"stateMutability": "view",
					"type": "function"
				},
				{
					"inputs": [
						{
							"internalType": "bytes32",
							"name": "role",
							"type": "bytes32"
						},
						{
							"internalType": "address",
							"name": "account",
							"type": "address"
						}
					],
					"name": "grantRole",
					"outputs": [],
					"stateMutability": "nonpayable",
					"type": "function"
				},
				{
					"inputs": [
						{
							"internalType": "bytes32",
							"name": "role",
							"type": "bytes32"
						},
						{
							"internalType": "address",
							"name": "account",
							"type": "address"
						}
					],
					"name": "hasRole",
					"outputs": [
						{
							"internalType": "bool",
							"name": "",
							"type": "bool"
						}
					],
					"stateMutability": "view",
					"type": "function"
				},
				{
					"inputs": [],
					"name": "paused",
					"outputs": [
						{
							"internalType": "bool",
							"name": "",
							"type": "bool"
						}
					],
					"stateMutability": "view",
					"type": "function"
				},
				{
					"inputs": [
						{
							"internalType": "bytes32",
							"name": "role",
							"type": "bytes32"
						},
						{
							"internalType": "address",
							"name": "account",
							"type": "address"
						}
					],
					"name": "renounceRole",
					"outputs": [],
					"stateMutability": "nonpayable",
					"type": "function"
				},
				{
					"inputs": [
						{
							"internalType": "bytes32",
							"name": "role",
							"type": "bytes32"
						},
						{
							"internalType": "address",
							"name": "account",
							"type": "address"
						}
					],
					"name": "revokeRole",
					"outputs": [],
					"stateMutability": "nonpayable",
					"type": "function"
				},
				{
					"inputs": [
						{
							"internalType": "bytes4",
							"name": "interfaceId",
							"type": "bytes4"
						}
					],
					"name": "supportsInterface",
					"outputs": [
						{
							"internalType": "bool",
							"name": "",
							"type": "bool"
						}
					],
					"stateMutability": "view",
					"type": "function"
				},
				{
					"inputs": [
						{
							"internalType": "uint256",
							"name": "tokenId",
							"type": "uint256"
						}
					],
					"name": "uncraft",
					"outputs": [],
					"stateMutability": "nonpayable",
					"type": "function"
				},
				{
					"inputs": [
						{
							"internalType": "address",
							"name": "token",
							"type": "address"
						},
						{
							"internalType": "uint256",
							"name": "amount",
							"type": "uint256"
						}
					],
					"name": "withdraw",
					"outputs": [],
					"stateMutability": "nonpayable",
					"type": "function"
				}
			],
			"devdoc": {
				"kind": "dev",
				"methods": {
					"getRoleAdmin(bytes32)": {
						"details": "Returns the admin role that controls `role`. See {grantRole} and {revokeRole}. To change a role's admin, use {_setRoleAdmin}."
					},
					"grantRole(bytes32,address)": {
						"details": "Grants `role` to `account`. If `account` had not been already granted `role`, emits a {RoleGranted} event. Requirements: - the caller must have ``role``'s admin role."
					},
					"hasRole(bytes32,address)": {
						"details": "Returns `true` if `account` has been granted `role`."
					},
					"paused()": {
						"details": "Returns true if the contract is paused, and false otherwise."
					},
					"renounceRole(bytes32,address)": {
						"details": "Revokes `role` from the calling account. Roles are often managed via {grantRole} and {revokeRole}: this function's purpose is to provide a mechanism for accounts to lose their privileges if they are compromised (such as when a trusted device is misplaced). If the calling account had been granted `role`, emits a {RoleRevoked} event. Requirements: - the caller must be `account`."
					},
					"revokeRole(bytes32,address)": {
						"details": "Revokes `role` from `account`. If `account` had been granted `role`, emits a {RoleRevoked} event. Requirements: - the caller must have ``role``'s admin role."
					},
					"supportsInterface(bytes4)": {
						"details": "See {IERC165-supportsInterface}."
					}
				},
				"version": 1
			},
			"evm": {
				"assembly": "    /* \"contracts/SQFITEM/SQFI_Factory.sol\":239:2398  contract SQFIFactory is Pausable, AccessControl {... */\n  mstore(0x40, 0x80)\n    /* \"contracts/SQFITEM/SQFI_Factory.sol\":501:503  10 */\n  0x0a\n    /* \"contracts/SQFITEM/SQFI_Factory.sol\":476:503  uint256 public amount1 = 10 */\n  0x04\n  sstore\n    /* \"contracts/SQFITEM/SQFI_Factory.sol\":755:977  constructor(... */\n  callvalue\n  dup1\n  iszero\n  tag_1\n  jumpi\n  0x00\n  dup1\n  revert\ntag_1:\n  pop\n  mload(0x40)\n  sub(codesize, bytecodeSize)\n  dup1\n  bytecodeSize\n  dup4\n  codecopy\n  dup2\n  dup2\n  add\n  0x40\n  mstore\n  dup2\n  add\n  swap1\n  tag_2\n  swap2\n  swap1\n  tag_3\n  jump\t// in\ntag_2:\n    /* \"contracts/SQFITEM/Pausable.sol\":927:932  false */\n  0x00\n    /* \"contracts/SQFITEM/Pausable.sol\":917:924  _paused */\n  dup1\n  0x00\n    /* \"contracts/SQFITEM/Pausable.sol\":917:932  _paused = false */\n  0x0100\n  exp\n  dup2\n  sload\n  dup2\n  0xff\n  mul\n  not\n  and\n  swap1\n  dup4\n  iszero\n  iszero\n  mul\n  or\n  swap1\n  sstore\n  pop\n    /* \"contracts/SQFITEM/SQFI_Factory.sol\":845:850  _sqfi */\n  dup2\n    /* \"contracts/SQFITEM/SQFI_Factory.sol\":829:833  SQFi */\n  0x02\n  0x00\n    /* \"contracts/SQFITEM/SQFI_Factory.sol\":829:851  SQFi = ISQFItem(_sqfi) */\n  0x0100\n  exp\n  dup2\n  sload\n  dup2\n  0xffffffffffffffffffffffffffffffffffffffff\n  mul\n  not\n  and\n  swap1\n  dup4\n  0xffffffffffffffffffffffffffffffffffffffff\n  and\n  mul\n  or\n  swap1\n  sstore\n  pop\n    /* \"contracts/SQFITEM/SQFI_Factory.sol\":868:873  _fee1 */\n  dup1\n    /* \"contracts/SQFITEM/SQFI_Factory.sol\":861:865  fee1 */\n  0x03\n  0x00\n    /* \"contracts/SQFITEM/SQFI_Factory.sol\":861:873  fee1 = _fee1 */\n  0x0100\n  exp\n  dup2\n  sload\n  dup2\n  0xffffffffffffffffffffffffffffffffffffffff\n  mul\n  not\n  and\n  swap1\n  dup4\n  0xffffffffffffffffffffffffffffffffffffffff\n  and\n  mul\n  or\n  swap1\n  sstore\n  pop\n    /* \"contracts/SQFITEM/SQFI_Factory.sol\":883:925  _setupRole(DEFAULT_ADMIN_ROLE, msg.sender) */\n  tag_8\n    /* \"contracts/SQFITEM/AccessControl.sol\":1962:1966  0x00 */\n  0x00\n    /* \"contracts/SQFITEM/SQFI_Factory.sol\":894:912  DEFAULT_ADMIN_ROLE */\n  dup1\n  shl\n    /* \"contracts/SQFITEM/SQFI_Factory.sol\":914:924  msg.sender */\n  caller\n    /* \"contracts/SQFITEM/SQFI_Factory.sol\":883:893  _setupRole */\n  shl(0x20, tag_9)\n    /* \"contracts/SQFITEM/SQFI_Factory.sol\":883:925  _setupRole(DEFAULT_ADMIN_ROLE, msg.sender) */\n  0x20\n  shr\n  jump\t// in\ntag_8:\n    /* \"contracts/SQFITEM/SQFI_Factory.sol\":935:970  _setupRole(PAUSER_ROLE, msg.sender) */\n  tag_10\n    /* \"contracts/SQFITEM/SQFI_Factory.sol\":421:445  keccak256(\"PAUSER_ROLE\") */\n  0x65d7a28e3265b37a6474929f336521b332c1681b933f6cb9f3376673440d862a\n    /* \"contracts/SQFITEM/SQFI_Factory.sol\":959:969  msg.sender */\n  caller\n    /* \"contracts/SQFITEM/SQFI_Factory.sol\":935:945  _setupRole */\n  shl(0x20, tag_9)\n    /* \"contracts/SQFITEM/SQFI_Factory.sol\":935:970  _setupRole(PAUSER_ROLE, msg.sender) */\n  0x20\n  shr\n  jump\t// in\ntag_10:\n    /* \"contracts/SQFITEM/SQFI_Factory.sol\":755:977  constructor(... */\n  pop\n  pop\n    /* \"contracts/SQFITEM/SQFI_Factory.sol\":239:2398  contract SQFIFactory is Pausable, AccessControl {... */\n  jump(tag_11)\n    /* \"contracts/SQFITEM/AccessControl.sol\":6049:6159  function _setupRole(bytes32 role, address account) internal virtual {... */\ntag_9:\n    /* \"contracts/SQFITEM/AccessControl.sol\":6127:6152  _grantRole(role, account) */\n  tag_13\n    /* \"contracts/SQFITEM/AccessControl.sol\":6138:6142  role */\n  dup3\n    /* \"contracts/SQFITEM/AccessControl.sol\":6144:6151  account */\n  dup3\n    /* \"contracts/SQFITEM/AccessControl.sol\":6127:6137  _grantRole */\n  shl(0x20, tag_14)\n    /* \"contracts/SQFITEM/AccessControl.sol\":6127:6152  _grantRole(role, account) */\n  0x20\n  shr\n  jump\t// in\ntag_13:\n    /* \"contracts/SQFITEM/AccessControl.sol\":6049:6159  function _setupRole(bytes32 role, address account) internal virtual {... */\n  pop\n  pop\n  jump\t// out\n    /* \"contracts/SQFITEM/AccessControl.sol\":6537:6761  function _grantRole(bytes32 role, address account) private {... */\ntag_14:\n    /* \"contracts/SQFITEM/AccessControl.sol\":6611:6633  hasRole(role, account) */\n  tag_16\n    /* \"contracts/SQFITEM/AccessControl.sol\":6619:6623  role */\n  dup3\n    /* \"contracts/SQFITEM/AccessControl.sol\":6625:6632  account */\n  dup3\n    /* \"contracts/SQFITEM/AccessControl.sol\":6611:6618  hasRole */\n  shl(0x20, tag_17)\n    /* \"contracts/SQFITEM/AccessControl.sol\":6611:6633  hasRole(role, account) */\n  0x20\n  shr\n  jump\t// in\ntag_16:\n    /* \"contracts/SQFITEM/AccessControl.sol\":6606:6755  if (!hasRole(role, account)) {... */\n  tag_18\n  jumpi\n    /* \"contracts/SQFITEM/AccessControl.sol\":6681:6685  true */\n  0x01\n    /* \"contracts/SQFITEM/AccessControl.sol\":6649:6655  _roles */\n  dup1\n    /* \"contracts/SQFITEM/AccessControl.sol\":6649:6661  _roles[role] */\n  0x00\n    /* \"contracts/SQFITEM/AccessControl.sol\":6656:6660  role */\n  dup5\n    /* \"contracts/SQFITEM/AccessControl.sol\":6649:6661  _roles[role] */\n  dup2\n  mstore\n  0x20\n  add\n  swap1\n  dup2\n  mstore\n  0x20\n  add\n  0x00\n  keccak256\n    /* \"contracts/SQFITEM/AccessControl.sol\":6649:6669  _roles[role].members */\n  0x00\n  add\n    /* \"contracts/SQFITEM/AccessControl.sol\":6649:6678  _roles[role].members[account] */\n  0x00\n    /* \"contracts/SQFITEM/AccessControl.sol\":6670:6677  account */\n  dup4\n    /* \"contracts/SQFITEM/AccessControl.sol\":6649:6678  _roles[role].members[account] */\n  0xffffffffffffffffffffffffffffffffffffffff\n  and\n  0xffffffffffffffffffffffffffffffffffffffff\n  and\n  dup2\n  mstore\n  0x20\n  add\n  swap1\n  dup2\n  mstore\n  0x20\n  add\n  0x00\n  keccak256\n  0x00\n    /* \"contracts/SQFITEM/AccessControl.sol\":6649:6685  _roles[role].members[account] = true */\n  0x0100\n  exp\n  dup2\n  sload\n  dup2\n  0xff\n  mul\n  not\n  and\n  swap1\n  dup4\n  iszero\n  iszero\n  mul\n  or\n  swap1\n  sstore\n  pop\n    /* \"contracts/SQFITEM/AccessControl.sol\":6731:6743  _msgSender() */\n  tag_19\n    /* \"contracts/SQFITEM/AccessControl.sol\":6731:6741  _msgSender */\n  shl(0x20, tag_20)\n    /* \"contracts/SQFITEM/AccessControl.sol\":6731:6743  _msgSender() */\n  0x20\n  shr\n  jump\t// in\ntag_19:\n    /* \"contracts/SQFITEM/AccessControl.sol\":6704:6744  RoleGranted(role, account, _msgSender()) */\n  0xffffffffffffffffffffffffffffffffffffffff\n  and\n    /* \"contracts/SQFITEM/AccessControl.sol\":6722:6729  account */\n  dup2\n    /* \"contracts/SQFITEM/AccessControl.sol\":6704:6744  RoleGranted(role, account, _msgSender()) */\n  0xffffffffffffffffffffffffffffffffffffffff\n  and\n    /* \"contracts/SQFITEM/AccessControl.sol\":6716:6720  role */\n  dup4\n    /* \"contracts/SQFITEM/AccessControl.sol\":6704:6744  RoleGranted(role, account, _msgSender()) */\n  0x2f8788117e7eff1d82e926ec794901d17c78024a50270940304540a733656f0d\n  mload(0x40)\n  mload(0x40)\n  dup1\n  swap2\n  sub\n  swap1\n  log4\n    /* \"contracts/SQFITEM/AccessControl.sol\":6606:6755  if (!hasRole(role, account)) {... */\ntag_18:\n    /* \"contracts/SQFITEM/AccessControl.sol\":6537:6761  function _grantRole(bytes32 role, address account) private {... */\n  pop\n  pop\n  jump\t// out\n    /* \"contracts/SQFITEM/AccessControl.sol\":2799:2936  function hasRole(bytes32 role, address account) public view override returns (bool) {... */\ntag_17:\n    /* \"contracts/SQFITEM/AccessControl.sol\":2877:2881  bool */\n  0x00\n    /* \"contracts/SQFITEM/AccessControl.sol\":2900:2906  _roles */\n  0x01\n    /* \"contracts/SQFITEM/AccessControl.sol\":2900:2912  _roles[role] */\n  0x00\n    /* \"contracts/SQFITEM/AccessControl.sol\":2907:2911  role */\n  dup5\n    /* \"contracts/SQFITEM/AccessControl.sol\":2900:2912  _roles[role] */\n  dup2\n  mstore\n  0x20\n  add\n  swap1\n  dup2\n  mstore\n  0x20\n  add\n  0x00\n  keccak256\n    /* \"contracts/SQFITEM/AccessControl.sol\":2900:2920  _roles[role].members */\n  0x00\n  add\n    /* \"contracts/SQFITEM/AccessControl.sol\":2900:2929  _roles[role].members[account] */\n  0x00\n    /* \"contracts/SQFITEM/AccessControl.sol\":2921:2928  account */\n  dup4\n    /* \"contracts/SQFITEM/AccessControl.sol\":2900:2929  _roles[role].members[account] */\n  0xffffffffffffffffffffffffffffffffffffffff\n  and\n  0xffffffffffffffffffffffffffffffffffffffff\n  and\n  dup2\n  mstore\n  0x20\n  add\n  swap1\n  dup2\n  mstore\n  0x20\n  add\n  0x00\n  keccak256\n  0x00\n  swap1\n  sload\n  swap1\n  0x0100\n  exp\n  swap1\n  div\n  0xff\n  and\n    /* \"contracts/SQFITEM/AccessControl.sol\":2893:2929  return _roles[role].members[account] */\n  swap1\n  pop\n    /* \"contracts/SQFITEM/AccessControl.sol\":2799:2936  function hasRole(bytes32 role, address account) public view override returns (bool) {... */\n  swap3\n  swap2\n  pop\n  pop\n  jump\t// out\n    /* \"contracts/SQFITEM/Context.sol\":587:683  function _msgSender() internal view virtual returns (address) {... */\ntag_20:\n    /* \"contracts/SQFITEM/Context.sol\":640:647  address */\n  0x00\n    /* \"contracts/SQFITEM/Context.sol\":666:676  msg.sender */\n  caller\n    /* \"contracts/SQFITEM/Context.sol\":659:676  return msg.sender */\n  swap1\n  pop\n    /* \"contracts/SQFITEM/Context.sol\":587:683  function _msgSender() internal view virtual returns (address) {... */\n  swap1\n  jump\t// out\n    /* \"#utility.yul\":88:205   */\ntag_24:\n    /* \"#utility.yul\":197:198   */\n  0x00\n    /* \"#utility.yul\":194:195   */\n  dup1\n    /* \"#utility.yul\":187:199   */\n  revert\n    /* \"#utility.yul\":334:460   */\ntag_26:\n    /* \"#utility.yul\":371:378   */\n  0x00\n    /* \"#utility.yul\":411:453   */\n  0xffffffffffffffffffffffffffffffffffffffff\n    /* \"#utility.yul\":404:409   */\n  dup3\n    /* \"#utility.yul\":400:454   */\n  and\n    /* \"#utility.yul\":389:454   */\n  swap1\n  pop\n    /* \"#utility.yul\":334:460   */\n  swap2\n  swap1\n  pop\n  jump\t// out\n    /* \"#utility.yul\":466:562   */\ntag_27:\n    /* \"#utility.yul\":503:510   */\n  0x00\n    /* \"#utility.yul\":532:556   */\n  tag_36\n    /* \"#utility.yul\":550:555   */\n  dup3\n    /* \"#utility.yul\":532:556   */\n  tag_26\n  jump\t// in\ntag_36:\n    /* \"#utility.yul\":521:556   */\n  swap1\n  pop\n    /* \"#utility.yul\":466:562   */\n  swap2\n  swap1\n  pop\n  jump\t// out\n    /* \"#utility.yul\":568:690   */\ntag_28:\n    /* \"#utility.yul\":641:665   */\n  tag_38\n    /* \"#utility.yul\":659:664   */\n  dup2\n    /* \"#utility.yul\":641:665   */\n  tag_27\n  jump\t// in\ntag_38:\n    /* \"#utility.yul\":634:639   */\n  dup2\n    /* \"#utility.yul\":631:666   */\n  eq\n    /* \"#utility.yul\":621:684   */\n  tag_39\n  jumpi\n    /* \"#utility.yul\":680:681   */\n  0x00\n    /* \"#utility.yul\":677:678   */\n  dup1\n    /* \"#utility.yul\":670:682   */\n  revert\n    /* \"#utility.yul\":621:684   */\ntag_39:\n    /* \"#utility.yul\":568:690   */\n  pop\n  jump\t// out\n    /* \"#utility.yul\":696:839   */\ntag_29:\n    /* \"#utility.yul\":753:758   */\n  0x00\n    /* \"#utility.yul\":784:790   */\n  dup2\n    /* \"#utility.yul\":778:791   */\n  mload\n    /* \"#utility.yul\":769:791   */\n  swap1\n  pop\n    /* \"#utility.yul\":800:833   */\n  tag_41\n    /* \"#utility.yul\":827:832   */\n  dup2\n    /* \"#utility.yul\":800:833   */\n  tag_28\n  jump\t// in\ntag_41:\n    /* \"#utility.yul\":696:839   */\n  swap3\n  swap2\n  pop\n  pop\n  jump\t// out\n    /* \"#utility.yul\":845:1352   */\ntag_3:\n    /* \"#utility.yul\":924:930   */\n  0x00\n    /* \"#utility.yul\":932:938   */\n  dup1\n    /* \"#utility.yul\":981:983   */\n  0x40\n    /* \"#utility.yul\":969:978   */\n  dup4\n    /* \"#utility.yul\":960:967   */\n  dup6\n    /* \"#utility.yul\":956:979   */\n  sub\n    /* \"#utility.yul\":952:984   */\n  slt\n    /* \"#utility.yul\":949:1068   */\n  iszero\n  tag_43\n  jumpi\n    /* \"#utility.yul\":987:1066   */\n  tag_44\n  tag_24\n  jump\t// in\ntag_44:\n    /* \"#utility.yul\":949:1068   */\ntag_43:\n    /* \"#utility.yul\":1107:1108   */\n  0x00\n    /* \"#utility.yul\":1132:1196   */\n  tag_45\n    /* \"#utility.yul\":1188:1195   */\n  dup6\n    /* \"#utility.yul\":1179:1185   */\n  dup3\n    /* \"#utility.yul\":1168:1177   */\n  dup7\n    /* \"#utility.yul\":1164:1186   */\n  add\n    /* \"#utility.yul\":1132:1196   */\n  tag_29\n  jump\t// in\ntag_45:\n    /* \"#utility.yul\":1122:1196   */\n  swap3\n  pop\n    /* \"#utility.yul\":1078:1206   */\n  pop\n    /* \"#utility.yul\":1245:1247   */\n  0x20\n    /* \"#utility.yul\":1271:1335   */\n  tag_46\n    /* \"#utility.yul\":1327:1334   */\n  dup6\n    /* \"#utility.yul\":1318:1324   */\n  dup3\n    /* \"#utility.yul\":1307:1316   */\n  dup7\n    /* \"#utility.yul\":1303:1325   */\n  add\n    /* \"#utility.yul\":1271:1335   */\n  tag_29\n  jump\t// in\ntag_46:\n    /* \"#utility.yul\":1261:1335   */\n  swap2\n  pop\n    /* \"#utility.yul\":1216:1345   */\n  pop\n    /* \"#utility.yul\":845:1352   */\n  swap3\n  pop\n  swap3\n  swap1\n  pop\n  jump\t// out\n    /* \"contracts/SQFITEM/SQFI_Factory.sol\":239:2398  contract SQFIFactory is Pausable, AccessControl {... */\ntag_11:\n  dataSize(sub_0)\n  dup1\n  dataOffset(sub_0)\n  0x00\n  codecopy\n  0x00\n  return\nstop\n\nsub_0: assembly {\n        /* \"contracts/SQFITEM/SQFI_Factory.sol\":239:2398  contract SQFIFactory is Pausable, AccessControl {... */\n      mstore(0x40, 0x80)\n      callvalue\n      dup1\n      iszero\n      tag_1\n      jumpi\n      0x00\n      dup1\n      revert\n    tag_1:\n      pop\n      jumpi(tag_2, lt(calldatasize, 0x04))\n      shr(0xe0, calldataload(0x00))\n      dup1\n      0x91d14854\n      gt\n      tag_20\n      jumpi\n      dup1\n      0xd547741f\n      gt\n      tag_21\n      jumpi\n      dup1\n      0xd547741f\n      eq\n      tag_15\n      jumpi\n      dup1\n      0xdd23faf3\n      eq\n      tag_16\n      jumpi\n      dup1\n      0xe63ab1e9\n      eq\n      tag_17\n      jumpi\n      dup1\n      0xf3fef3a3\n      eq\n      tag_18\n      jumpi\n      dup1\n      0xf400fde4\n      eq\n      tag_19\n      jumpi\n      jump(tag_2)\n    tag_21:\n      dup1\n      0x91d14854\n      eq\n      tag_11\n      jumpi\n      dup1\n      0x945099bc\n      eq\n      tag_12\n      jumpi\n      dup1\n      0xa217fddf\n      eq\n      tag_13\n      jumpi\n      dup1\n      0xc6098256\n      eq\n      tag_14\n      jumpi\n      jump(tag_2)\n    tag_20:\n      dup1\n      0x36568abe\n      gt\n      tag_22\n      jumpi\n      dup1\n      0x36568abe\n      eq\n      tag_7\n      jumpi\n      dup1\n      0x52c6159f\n      eq\n      tag_8\n      jumpi\n      dup1\n      0x5c975abb\n      eq\n      tag_9\n      jumpi\n      dup1\n      0x841acc5d\n      eq\n      tag_10\n      jumpi\n      jump(tag_2)\n    tag_22:\n      dup1\n      0x01ffc9a7\n      eq\n      tag_3\n      jumpi\n      dup1\n      0x0a1ac657\n      eq\n      tag_4\n      jumpi\n      dup1\n      0x248a9ca3\n      eq\n      tag_5\n      jumpi\n      dup1\n      0x2f2ff15d\n      eq\n      tag_6\n      jumpi\n    tag_2:\n      0x00\n      dup1\n      revert\n        /* \"contracts/SQFITEM/AccessControl.sol\":2510:2712  function supportsInterface(bytes4 interfaceId) public view virtual override returns (bool) {... */\n    tag_3:\n      tag_23\n      0x04\n      dup1\n      calldatasize\n      sub\n      dup2\n      add\n      swap1\n      tag_24\n      swap2\n      swap1\n      tag_25\n      jump\t// in\n    tag_24:\n      tag_26\n      jump\t// in\n    tag_23:\n      mload(0x40)\n      tag_27\n      swap2\n      swap1\n      tag_28\n      jump\t// in\n    tag_27:\n      mload(0x40)\n      dup1\n      swap2\n      sub\n      swap1\n      return\n        /* \"contracts/SQFITEM/SQFI_Factory.sol\":1975:2108  function uncraft(... */\n    tag_4:\n      tag_29\n      0x04\n      dup1\n      calldatasize\n      sub\n      dup2\n      add\n      swap1\n      tag_30\n      swap2\n      swap1\n      tag_31\n      jump\t// in\n    tag_30:\n      tag_32\n      jump\t// in\n    tag_29:\n      stop\n        /* \"contracts/SQFITEM/AccessControl.sol\":3882:4003  function getRoleAdmin(bytes32 role) public view override returns (bytes32) {... */\n    tag_5:\n      tag_33\n      0x04\n      dup1\n      calldatasize\n      sub\n      dup2\n      add\n      swap1\n      tag_34\n      swap2\n      swap1\n      tag_35\n      jump\t// in\n    tag_34:\n      tag_36\n      jump\t// in\n    tag_33:\n      mload(0x40)\n      tag_37\n      swap2\n      swap1\n      tag_38\n      jump\t// in\n    tag_37:\n      mload(0x40)\n      dup1\n      swap2\n      sub\n      swap1\n      return\n        /* \"contracts/SQFITEM/AccessControl.sol\":4253:4398  function grantRole(bytes32 role, address account) public virtual override onlyRole(getRoleAdmin(role)) {... */\n    tag_6:\n      tag_39\n      0x04\n      dup1\n      calldatasize\n      sub\n      dup2\n      add\n      swap1\n      tag_40\n      swap2\n      swap1\n      tag_41\n      jump\t// in\n    tag_40:\n      tag_42\n      jump\t// in\n    tag_39:\n      stop\n        /* \"contracts/SQFITEM/AccessControl.sol\":5270:5484  function renounceRole(bytes32 role, address account) public virtual override {... */\n    tag_7:\n      tag_43\n      0x04\n      dup1\n      calldatasize\n      sub\n      dup2\n      add\n      swap1\n      tag_44\n      swap2\n      swap1\n      tag_41\n      jump\t// in\n    tag_44:\n      tag_45\n      jump\t// in\n    tag_43:\n      stop\n        /* \"contracts/SQFITEM/SQFI_Factory.sol\":357:377  ISQFItem public SQFi */\n    tag_8:\n      tag_46\n      tag_47\n      jump\t// in\n    tag_46:\n      mload(0x40)\n      tag_48\n      swap2\n      swap1\n      tag_49\n      jump\t// in\n    tag_48:\n      mload(0x40)\n      dup1\n      swap2\n      sub\n      swap1\n      return\n        /* \"contracts/SQFITEM/Pausable.sol\":1034:1118  function paused() public view virtual returns (bool) {... */\n    tag_9:\n      tag_50\n      tag_51\n      jump\t// in\n    tag_50:\n      mload(0x40)\n      tag_52\n      swap2\n      swap1\n      tag_28\n      jump\t// in\n    tag_52:\n      mload(0x40)\n      dup1\n      swap2\n      sub\n      swap1\n      return\n        /* \"contracts/SQFITEM/SQFI_Factory.sol\":1479:1969  function createSQFI(... */\n    tag_10:\n      tag_53\n      0x04\n      dup1\n      calldatasize\n      sub\n      dup2\n      add\n      swap1\n      tag_54\n      swap2\n      swap1\n      tag_55\n      jump\t// in\n    tag_54:\n      tag_56\n      jump\t// in\n    tag_53:\n      mload(0x40)\n      tag_57\n      swap2\n      swap1\n      tag_58\n      jump\t// in\n    tag_57:\n      mload(0x40)\n      dup1\n      swap2\n      sub\n      swap1\n      return\n        /* \"contracts/SQFITEM/AccessControl.sol\":2799:2936  function hasRole(bytes32 role, address account) public view override returns (bool) {... */\n    tag_11:\n      tag_59\n      0x04\n      dup1\n      calldatasize\n      sub\n      dup2\n      add\n      swap1\n      tag_60\n      swap2\n      swap1\n      tag_41\n      jump\t// in\n    tag_60:\n      tag_61\n      jump\t// in\n    tag_59:\n      mload(0x40)\n      tag_62\n      swap2\n      swap1\n      tag_28\n      jump\t// in\n    tag_62:\n      mload(0x40)\n      dup1\n      swap2\n      sub\n      swap1\n      return\n        /* \"contracts/SQFITEM/SQFI_Factory.sol\":1299:1473  function editSupportedFee(... */\n    tag_12:\n      tag_63\n      0x04\n      dup1\n      calldatasize\n      sub\n      dup2\n      add\n      swap1\n      tag_64\n      swap2\n      swap1\n      tag_65\n      jump\t// in\n    tag_64:\n      tag_66\n      jump\t// in\n    tag_63:\n      stop\n        /* \"contracts/SQFITEM/AccessControl.sol\":1917:1966  bytes32 public constant DEFAULT_ADMIN_ROLE = 0x00 */\n    tag_13:\n      tag_67\n      tag_68\n      jump\t// in\n    tag_67:\n      mload(0x40)\n      tag_69\n      swap2\n      swap1\n      tag_38\n      jump\t// in\n    tag_69:\n      mload(0x40)\n      dup1\n      swap2\n      sub\n      swap1\n      return\n        /* \"contracts/SQFITEM/SQFI_Factory.sol\":451:470  address public fee1 */\n    tag_14:\n      tag_70\n      tag_71\n      jump\t// in\n    tag_70:\n      mload(0x40)\n      tag_72\n      swap2\n      swap1\n      tag_73\n      jump\t// in\n    tag_72:\n      mload(0x40)\n      dup1\n      swap2\n      sub\n      swap1\n      return\n        /* \"contracts/SQFITEM/AccessControl.sol\":4632:4779  function revokeRole(bytes32 role, address account) public virtual override onlyRole(getRoleAdmin(role)) {... */\n    tag_15:\n      tag_74\n      0x04\n      dup1\n      calldatasize\n      sub\n      dup2\n      add\n      swap1\n      tag_75\n      swap2\n      swap1\n      tag_41\n      jump\t// in\n    tag_75:\n      tag_76\n      jump\t// in\n    tag_74:\n      stop\n        /* \"contracts/SQFITEM/SQFI_Factory.sol\":983:1294  function bytes32ToAmount16(bytes32 data)... */\n    tag_16:\n      tag_77\n      0x04\n      dup1\n      calldatasize\n      sub\n      dup2\n      add\n      swap1\n      tag_78\n      swap2\n      swap1\n      tag_35\n      jump\t// in\n    tag_78:\n      tag_79\n      jump\t// in\n    tag_77:\n      mload(0x40)\n      tag_80\n      swap2\n      swap1\n      tag_81\n      jump\t// in\n    tag_80:\n      mload(0x40)\n      dup1\n      swap2\n      sub\n      swap1\n      return\n        /* \"contracts/SQFITEM/SQFI_Factory.sol\":383:445  bytes32 public constant PAUSER_ROLE = keccak256(\"PAUSER_ROLE\") */\n    tag_17:\n      tag_82\n      tag_83\n      jump\t// in\n    tag_82:\n      mload(0x40)\n      tag_84\n      swap2\n      swap1\n      tag_38\n      jump\t// in\n    tag_84:\n      mload(0x40)\n      dup1\n      swap2\n      sub\n      swap1\n      return\n        /* \"contracts/SQFITEM/SQFI_Factory.sol\":2114:2396  function withdraw(address token, uint256 amount)... */\n    tag_18:\n      tag_85\n      0x04\n      dup1\n      calldatasize\n      sub\n      dup2\n      add\n      swap1\n      tag_86\n      swap2\n      swap1\n      tag_65\n      jump\t// in\n    tag_86:\n      tag_87\n      jump\t// in\n    tag_85:\n      stop\n        /* \"contracts/SQFITEM/SQFI_Factory.sol\":476:503  uint256 public amount1 = 10 */\n    tag_19:\n      tag_88\n      tag_89\n      jump\t// in\n    tag_88:\n      mload(0x40)\n      tag_90\n      swap2\n      swap1\n      tag_58\n      jump\t// in\n    tag_90:\n      mload(0x40)\n      dup1\n      swap2\n      sub\n      swap1\n      return\n        /* \"contracts/SQFITEM/AccessControl.sol\":2510:2712  function supportsInterface(bytes4 interfaceId) public view virtual override returns (bool) {... */\n    tag_26:\n        /* \"contracts/SQFITEM/AccessControl.sol\":2595:2599  bool */\n      0x00\n        /* \"contracts/SQFITEM/AccessControl.sol\":2633:2665  type(IAccessControl).interfaceId */\n      0x7965db0b00000000000000000000000000000000000000000000000000000000\n        /* \"contracts/SQFITEM/AccessControl.sol\":2618:2665  interfaceId == type(IAccessControl).interfaceId */\n      not(0xffffffffffffffffffffffffffffffffffffffffffffffffffffffff)\n      and\n        /* \"contracts/SQFITEM/AccessControl.sol\":2618:2629  interfaceId */\n      dup3\n        /* \"contracts/SQFITEM/AccessControl.sol\":2618:2665  interfaceId == type(IAccessControl).interfaceId */\n      not(0xffffffffffffffffffffffffffffffffffffffffffffffffffffffff)\n      and\n      eq\n        /* \"contracts/SQFITEM/AccessControl.sol\":2618:2705  interfaceId == type(IAccessControl).interfaceId || super.supportsInterface(interfaceId) */\n      dup1\n      tag_92\n      jumpi\n      pop\n        /* \"contracts/SQFITEM/AccessControl.sol\":2669:2705  super.supportsInterface(interfaceId) */\n      tag_93\n        /* \"contracts/SQFITEM/AccessControl.sol\":2693:2704  interfaceId */\n      dup3\n        /* \"contracts/SQFITEM/AccessControl.sol\":2669:2692  super.supportsInterface */\n      tag_94\n        /* \"contracts/SQFITEM/AccessControl.sol\":2669:2705  super.supportsInterface(interfaceId) */\n      jump\t// in\n    tag_93:\n        /* \"contracts/SQFITEM/AccessControl.sol\":2618:2705  interfaceId == type(IAccessControl).interfaceId || super.supportsInterface(interfaceId) */\n    tag_92:\n        /* \"contracts/SQFITEM/AccessControl.sol\":2611:2705  return interfaceId == type(IAccessControl).interfaceId || super.supportsInterface(interfaceId) */\n      swap1\n      pop\n        /* \"contracts/SQFITEM/AccessControl.sol\":2510:2712  function supportsInterface(bytes4 interfaceId) public view virtual override returns (bool) {... */\n      swap2\n      swap1\n      pop\n      jump\t// out\n        /* \"contracts/SQFITEM/SQFI_Factory.sol\":1975:2108  function uncraft(... */\n    tag_32:\n        /* \"contracts/SQFITEM/SQFI_Factory.sol\":2048:2052  SQFi */\n      0x02\n      0x00\n      swap1\n      sload\n      swap1\n      0x0100\n      exp\n      swap1\n      div\n      0xffffffffffffffffffffffffffffffffffffffff\n      and\n        /* \"contracts/SQFITEM/SQFI_Factory.sol\":2048:2057  SQFi.burn */\n      0xffffffffffffffffffffffffffffffffffffffff\n      and\n      0x42966c68\n        /* \"contracts/SQFITEM/SQFI_Factory.sol\":2058:2065  tokenId */\n      dup3\n        /* \"contracts/SQFITEM/SQFI_Factory.sol\":2048:2066  SQFi.burn(tokenId) */\n      mload(0x40)\n      dup3\n      0xffffffff\n      and\n      0xe0\n      shl\n      dup2\n      mstore\n      0x04\n      add\n      tag_96\n      swap2\n      swap1\n      tag_58\n      jump\t// in\n    tag_96:\n      0x00\n      mload(0x40)\n      dup1\n      dup4\n      sub\n      dup2\n      0x00\n      dup8\n      dup1\n      extcodesize\n      iszero\n      dup1\n      iszero\n      tag_97\n      jumpi\n      0x00\n      dup1\n      revert\n    tag_97:\n      pop\n      gas\n      call\n      iszero\n      dup1\n      iszero\n      tag_99\n      jumpi\n      returndatasize\n      0x00\n      dup1\n      returndatacopy\n      revert(0x00, returndatasize)\n    tag_99:\n      pop\n      pop\n      pop\n      pop\n        /* \"contracts/SQFITEM/SQFI_Factory.sol\":2081:2101  UncraftSQFI(tokenId) */\n      0x950dcd4a7087bbf2cee08268e1b26ac45fb310d3ae443d0fe53714b713da45c1\n        /* \"contracts/SQFITEM/SQFI_Factory.sol\":2093:2100  tokenId */\n      dup2\n        /* \"contracts/SQFITEM/SQFI_Factory.sol\":2081:2101  UncraftSQFI(tokenId) */\n      mload(0x40)\n      tag_100\n      swap2\n      swap1\n      tag_58\n      jump\t// in\n    tag_100:\n      mload(0x40)\n      dup1\n      swap2\n      sub\n      swap1\n      log1\n        /* \"contracts/SQFITEM/SQFI_Factory.sol\":1975:2108  function uncraft(... */\n      pop\n      jump\t// out\n        /* \"contracts/SQFITEM/AccessControl.sol\":3882:4003  function getRoleAdmin(bytes32 role) public view override returns (bytes32) {... */\n    tag_36:\n        /* \"contracts/SQFITEM/AccessControl.sol\":3948:3955  bytes32 */\n      0x00\n        /* \"contracts/SQFITEM/AccessControl.sol\":3974:3980  _roles */\n      0x01\n        /* \"contracts/SQFITEM/AccessControl.sol\":3974:3986  _roles[role] */\n      0x00\n        /* \"contracts/SQFITEM/AccessControl.sol\":3981:3985  role */\n      dup4\n        /* \"contracts/SQFITEM/AccessControl.sol\":3974:3986  _roles[role] */\n      dup2\n      mstore\n      0x20\n      add\n      swap1\n      dup2\n      mstore\n      0x20\n      add\n      0x00\n      keccak256\n        /* \"contracts/SQFITEM/AccessControl.sol\":3974:3996  _roles[role].adminRole */\n      0x01\n      add\n      sload\n        /* \"contracts/SQFITEM/AccessControl.sol\":3967:3996  return _roles[role].adminRole */\n      swap1\n      pop\n        /* \"contracts/SQFITEM/AccessControl.sol\":3882:4003  function getRoleAdmin(bytes32 role) public view override returns (bytes32) {... */\n      swap2\n      swap1\n      pop\n      jump\t// out\n        /* \"contracts/SQFITEM/AccessControl.sol\":4253:4398  function grantRole(bytes32 role, address account) public virtual override onlyRole(getRoleAdmin(role)) {... */\n    tag_42:\n        /* \"contracts/SQFITEM/AccessControl.sol\":4336:4354  getRoleAdmin(role) */\n      tag_102\n        /* \"contracts/SQFITEM/AccessControl.sol\":4349:4353  role */\n      dup3\n        /* \"contracts/SQFITEM/AccessControl.sol\":4336:4348  getRoleAdmin */\n      tag_36\n        /* \"contracts/SQFITEM/AccessControl.sol\":4336:4354  getRoleAdmin(role) */\n      jump\t// in\n    tag_102:\n        /* \"contracts/SQFITEM/AccessControl.sol\":2395:2425  _checkRole(role, _msgSender()) */\n      tag_104\n        /* \"contracts/SQFITEM/AccessControl.sol\":2406:2410  role */\n      dup2\n        /* \"contracts/SQFITEM/AccessControl.sol\":2412:2424  _msgSender() */\n      tag_105\n        /* \"contracts/SQFITEM/AccessControl.sol\":2412:2422  _msgSender */\n      tag_106\n        /* \"contracts/SQFITEM/AccessControl.sol\":2412:2424  _msgSender() */\n      jump\t// in\n    tag_105:\n        /* \"contracts/SQFITEM/AccessControl.sol\":2395:2405  _checkRole */\n      tag_107\n        /* \"contracts/SQFITEM/AccessControl.sol\":2395:2425  _checkRole(role, _msgSender()) */\n      jump\t// in\n    tag_104:\n        /* \"contracts/SQFITEM/AccessControl.sol\":4366:4391  _grantRole(role, account) */\n      tag_109\n        /* \"contracts/SQFITEM/AccessControl.sol\":4377:4381  role */\n      dup4\n        /* \"contracts/SQFITEM/AccessControl.sol\":4383:4390  account */\n      dup4\n        /* \"contracts/SQFITEM/AccessControl.sol\":4366:4376  _grantRole */\n      tag_110\n        /* \"contracts/SQFITEM/AccessControl.sol\":4366:4391  _grantRole(role, account) */\n      jump\t// in\n    tag_109:\n        /* \"contracts/SQFITEM/AccessControl.sol\":4253:4398  function grantRole(bytes32 role, address account) public virtual override onlyRole(getRoleAdmin(role)) {... */\n      pop\n      pop\n      pop\n      jump\t// out\n        /* \"contracts/SQFITEM/AccessControl.sol\":5270:5484  function renounceRole(bytes32 role, address account) public virtual override {... */\n    tag_45:\n        /* \"contracts/SQFITEM/AccessControl.sol\":5376:5388  _msgSender() */\n      tag_112\n        /* \"contracts/SQFITEM/AccessControl.sol\":5376:5386  _msgSender */\n      tag_106\n        /* \"contracts/SQFITEM/AccessControl.sol\":5376:5388  _msgSender() */\n      jump\t// in\n    tag_112:\n        /* \"contracts/SQFITEM/AccessControl.sol\":5365:5388  account == _msgSender() */\n      0xffffffffffffffffffffffffffffffffffffffff\n      and\n        /* \"contracts/SQFITEM/AccessControl.sol\":5365:5372  account */\n      dup2\n        /* \"contracts/SQFITEM/AccessControl.sol\":5365:5388  account == _msgSender() */\n      0xffffffffffffffffffffffffffffffffffffffff\n      and\n      eq\n        /* \"contracts/SQFITEM/AccessControl.sol\":5357:5440  require(account == _msgSender(), \"AccessControl: can only renounce roles for self\") */\n      tag_113\n      jumpi\n      mload(0x40)\n      0x08c379a000000000000000000000000000000000000000000000000000000000\n      dup2\n      mstore\n      0x04\n      add\n      tag_114\n      swap1\n      tag_115\n      jump\t// in\n    tag_114:\n      mload(0x40)\n      dup1\n      swap2\n      sub\n      swap1\n      revert\n    tag_113:\n        /* \"contracts/SQFITEM/AccessControl.sol\":5451:5477  _revokeRole(role, account) */\n      tag_116\n        /* \"contracts/SQFITEM/AccessControl.sol\":5463:5467  role */\n      dup3\n        /* \"contracts/SQFITEM/AccessControl.sol\":5469:5476  account */\n      dup3\n        /* \"contracts/SQFITEM/AccessControl.sol\":5451:5462  _revokeRole */\n      tag_117\n        /* \"contracts/SQFITEM/AccessControl.sol\":5451:5477  _revokeRole(role, account) */\n      jump\t// in\n    tag_116:\n        /* \"contracts/SQFITEM/AccessControl.sol\":5270:5484  function renounceRole(bytes32 role, address account) public virtual override {... */\n      pop\n      pop\n      jump\t// out\n        /* \"contracts/SQFITEM/SQFI_Factory.sol\":357:377  ISQFItem public SQFi */\n    tag_47:\n      0x02\n      0x00\n      swap1\n      sload\n      swap1\n      0x0100\n      exp\n      swap1\n      div\n      0xffffffffffffffffffffffffffffffffffffffff\n      and\n      dup2\n      jump\t// out\n        /* \"contracts/SQFITEM/Pausable.sol\":1034:1118  function paused() public view virtual returns (bool) {... */\n    tag_51:\n        /* \"contracts/SQFITEM/Pausable.sol\":1081:1085  bool */\n      0x00\n        /* \"contracts/SQFITEM/Pausable.sol\":1104:1111  _paused */\n      dup1\n      0x00\n      swap1\n      sload\n      swap1\n      0x0100\n      exp\n      swap1\n      div\n      0xff\n      and\n        /* \"contracts/SQFITEM/Pausable.sol\":1097:1111  return _paused */\n      swap1\n      pop\n        /* \"contracts/SQFITEM/Pausable.sol\":1034:1118  function paused() public view virtual returns (bool) {... */\n      swap1\n      jump\t// out\n        /* \"contracts/SQFITEM/SQFI_Factory.sol\":1479:1969  function createSQFI(... */\n    tag_56:\n        /* \"contracts/SQFITEM/SQFI_Factory.sol\":1568:1575  uint256 */\n      0x00\n        /* \"contracts/SQFITEM/Pausable.sol\":1348:1356  paused() */\n      tag_120\n        /* \"contracts/SQFITEM/Pausable.sol\":1348:1354  paused */\n      tag_51\n        /* \"contracts/SQFITEM/Pausable.sol\":1348:1356  paused() */\n      jump\t// in\n    tag_120:\n        /* \"contracts/SQFITEM/Pausable.sol\":1347:1356  !paused() */\n      iszero\n        /* \"contracts/SQFITEM/Pausable.sol\":1339:1377  require(!paused(), \"Pausable: paused\") */\n      tag_121\n      jumpi\n      mload(0x40)\n      0x08c379a000000000000000000000000000000000000000000000000000000000\n      dup2\n      mstore\n      0x04\n      add\n      tag_122\n      swap1\n      tag_123\n      jump\t// in\n    tag_122:\n      mload(0x40)\n      dup1\n      swap2\n      sub\n      swap1\n      revert\n    tag_121:\n        /* \"contracts/SQFITEM/SQFI_Factory.sol\":1732:1747  uint256 tokenId */\n      0x00\n        /* \"contracts/SQFITEM/SQFI_Factory.sol\":1750:1754  SQFi */\n      0x02\n      0x00\n      swap1\n      sload\n      swap1\n      0x0100\n      exp\n      swap1\n      div\n      0xffffffffffffffffffffffffffffffffffffffff\n      and\n        /* \"contracts/SQFITEM/SQFI_Factory.sol\":1750:1763  SQFi.safeMint */\n      0xffffffffffffffffffffffffffffffffffffffff\n      and\n      0xd204c45e\n        /* \"contracts/SQFITEM/SQFI_Factory.sol\":1777:1787  msg.sender */\n      caller\n        /* \"contracts/SQFITEM/SQFI_Factory.sol\":1801:1810  tokenURI_ */\n      dup6\n        /* \"contracts/SQFITEM/SQFI_Factory.sol\":1750:1820  SQFi.safeMint(... */\n      mload(0x40)\n      dup4\n      0xffffffff\n      and\n      0xe0\n      shl\n      dup2\n      mstore\n      0x04\n      add\n      tag_125\n      swap3\n      swap2\n      swap1\n      tag_126\n      jump\t// in\n    tag_125:\n      0x20\n      mload(0x40)\n      dup1\n      dup4\n      sub\n      dup2\n      0x00\n      dup8\n      gas\n      call\n      iszero\n      dup1\n      iszero\n      tag_128\n      jumpi\n      returndatasize\n      0x00\n      dup1\n      returndatacopy\n      revert(0x00, returndatasize)\n    tag_128:\n      pop\n      pop\n      pop\n      pop\n      mload(0x40)\n      returndatasize\n      not(0x1f)\n      0x1f\n      dup3\n      add\n      and\n      dup3\n      add\n      dup1\n      0x40\n      mstore\n      pop\n      dup2\n      add\n      swap1\n      tag_129\n      swap2\n      swap1\n      tag_130\n      jump\t// in\n    tag_129:\n        /* \"contracts/SQFITEM/SQFI_Factory.sol\":1732:1820  uint256 tokenId = SQFi.safeMint(... */\n      swap1\n      pop\n        /* \"contracts/SQFITEM/SQFI_Factory.sol\":1835:1938  CraftSQFI(... */\n      0x9e6e3acb506bf1d2adb1d8565252e575763ee07d1debfcc2c830682895b3137d\n        /* \"contracts/SQFITEM/SQFI_Factory.sol\":1858:1868  msg.sender */\n      caller\n        /* \"contracts/SQFITEM/SQFI_Factory.sol\":1882:1889  tokenId */\n      dup3\n        /* \"contracts/SQFITEM/SQFI_Factory.sol\":1903:1907  fee1 */\n      0x03\n      0x00\n      swap1\n      sload\n      swap1\n      0x0100\n      exp\n      swap1\n      div\n      0xffffffffffffffffffffffffffffffffffffffff\n      and\n        /* \"contracts/SQFITEM/SQFI_Factory.sol\":1921:1928  amount1 */\n      sload(0x04)\n        /* \"contracts/SQFITEM/SQFI_Factory.sol\":1835:1938  CraftSQFI(... */\n      mload(0x40)\n      tag_131\n      swap5\n      swap4\n      swap3\n      swap2\n      swap1\n      tag_132\n      jump\t// in\n    tag_131:\n      mload(0x40)\n      dup1\n      swap2\n      sub\n      swap1\n      log1\n        /* \"contracts/SQFITEM/SQFI_Factory.sol\":1955:1962  tokenId */\n      dup1\n        /* \"contracts/SQFITEM/SQFI_Factory.sol\":1948:1962  return tokenId */\n      swap2\n      pop\n      pop\n        /* \"contracts/SQFITEM/SQFI_Factory.sol\":1479:1969  function createSQFI(... */\n      swap2\n      swap1\n      pop\n      jump\t// out\n        /* \"contracts/SQFITEM/AccessControl.sol\":2799:2936  function hasRole(bytes32 role, address account) public view override returns (bool) {... */\n    tag_61:\n        /* \"contracts/SQFITEM/AccessControl.sol\":2877:2881  bool */\n      0x00\n        /* \"contracts/SQFITEM/AccessControl.sol\":2900:2906  _roles */\n      0x01\n        /* \"contracts/SQFITEM/AccessControl.sol\":2900:2912  _roles[role] */\n      0x00\n        /* \"contracts/SQFITEM/AccessControl.sol\":2907:2911  role */\n      dup5\n        /* \"contracts/SQFITEM/AccessControl.sol\":2900:2912  _roles[role] */\n      dup2\n      mstore\n      0x20\n      add\n      swap1\n      dup2\n      mstore\n      0x20\n      add\n      0x00\n      keccak256\n        /* \"contracts/SQFITEM/AccessControl.sol\":2900:2920  _roles[role].members */\n      0x00\n      add\n        /* \"contracts/SQFITEM/AccessControl.sol\":2900:2929  _roles[role].members[account] */\n      0x00\n        /* \"contracts/SQFITEM/AccessControl.sol\":2921:2928  account */\n      dup4\n        /* \"contracts/SQFITEM/AccessControl.sol\":2900:2929  _roles[role].members[account] */\n      0xffffffffffffffffffffffffffffffffffffffff\n      and\n      0xffffffffffffffffffffffffffffffffffffffff\n      and\n      dup2\n      mstore\n      0x20\n      add\n      swap1\n      dup2\n      mstore\n      0x20\n      add\n      0x00\n      keccak256\n      0x00\n      swap1\n      sload\n      swap1\n      0x0100\n      exp\n      swap1\n      div\n      0xff\n      and\n        /* \"contracts/SQFITEM/AccessControl.sol\":2893:2929  return _roles[role].members[account] */\n      swap1\n      pop\n        /* \"contracts/SQFITEM/AccessControl.sol\":2799:2936  function hasRole(bytes32 role, address account) public view override returns (bool) {... */\n      swap3\n      swap2\n      pop\n      pop\n      jump\t// out\n        /* \"contracts/SQFITEM/SQFI_Factory.sol\":1299:1473  function editSupportedFee(... */\n    tag_66:\n        /* \"contracts/SQFITEM/AccessControl.sol\":1962:1966  0x00 */\n      0x00\n        /* \"contracts/SQFITEM/SQFI_Factory.sol\":1396:1414  DEFAULT_ADMIN_ROLE */\n      dup1\n      shl\n        /* \"contracts/SQFITEM/AccessControl.sol\":2395:2425  _checkRole(role, _msgSender()) */\n      tag_135\n        /* \"contracts/SQFITEM/AccessControl.sol\":2406:2410  role */\n      dup2\n        /* \"contracts/SQFITEM/AccessControl.sol\":2412:2424  _msgSender() */\n      tag_136\n        /* \"contracts/SQFITEM/AccessControl.sol\":2412:2422  _msgSender */\n      tag_106\n        /* \"contracts/SQFITEM/AccessControl.sol\":2412:2424  _msgSender() */\n      jump\t// in\n    tag_136:\n        /* \"contracts/SQFITEM/AccessControl.sol\":2395:2405  _checkRole */\n      tag_107\n        /* \"contracts/SQFITEM/AccessControl.sol\":2395:2425  _checkRole(role, _msgSender()) */\n      jump\t// in\n    tag_135:\n        /* \"contracts/SQFITEM/SQFI_Factory.sol\":1433:1438  _fee1 */\n      dup3\n        /* \"contracts/SQFITEM/SQFI_Factory.sol\":1426:1430  fee1 */\n      0x03\n      0x00\n        /* \"contracts/SQFITEM/SQFI_Factory.sol\":1426:1438  fee1 = _fee1 */\n      0x0100\n      exp\n      dup2\n      sload\n      dup2\n      0xffffffffffffffffffffffffffffffffffffffff\n      mul\n      not\n      and\n      swap1\n      dup4\n      0xffffffffffffffffffffffffffffffffffffffff\n      and\n      mul\n      or\n      swap1\n      sstore\n      pop\n        /* \"contracts/SQFITEM/SQFI_Factory.sol\":1458:1466  _amount1 */\n      dup2\n        /* \"contracts/SQFITEM/SQFI_Factory.sol\":1448:1455  amount1 */\n      0x04\n        /* \"contracts/SQFITEM/SQFI_Factory.sol\":1448:1466  amount1 = _amount1 */\n      dup2\n      swap1\n      sstore\n      pop\n        /* \"contracts/SQFITEM/SQFI_Factory.sol\":1299:1473  function editSupportedFee(... */\n      pop\n      pop\n      pop\n      jump\t// out\n        /* \"contracts/SQFITEM/AccessControl.sol\":1917:1966  bytes32 public constant DEFAULT_ADMIN_ROLE = 0x00 */\n    tag_68:\n        /* \"contracts/SQFITEM/AccessControl.sol\":1962:1966  0x00 */\n      0x00\n        /* \"contracts/SQFITEM/AccessControl.sol\":1917:1966  bytes32 public constant DEFAULT_ADMIN_ROLE = 0x00 */\n      dup1\n      shl\n      dup2\n      jump\t// out\n        /* \"contracts/SQFITEM/SQFI_Factory.sol\":451:470  address public fee1 */\n    tag_71:\n      0x03\n      0x00\n      swap1\n      sload\n      swap1\n      0x0100\n      exp\n      swap1\n      div\n      0xffffffffffffffffffffffffffffffffffffffff\n      and\n      dup2\n      jump\t// out\n        /* \"contracts/SQFITEM/AccessControl.sol\":4632:4779  function revokeRole(bytes32 role, address account) public virtual override onlyRole(getRoleAdmin(role)) {... */\n    tag_76:\n        /* \"contracts/SQFITEM/AccessControl.sol\":4716:4734  getRoleAdmin(role) */\n      tag_138\n        /* \"contracts/SQFITEM/AccessControl.sol\":4729:4733  role */\n      dup3\n        /* \"contracts/SQFITEM/AccessControl.sol\":4716:4728  getRoleAdmin */\n      tag_36\n        /* \"contracts/SQFITEM/AccessControl.sol\":4716:4734  getRoleAdmin(role) */\n      jump\t// in\n    tag_138:\n        /* \"contracts/SQFITEM/AccessControl.sol\":2395:2425  _checkRole(role, _msgSender()) */\n      tag_140\n        /* \"contracts/SQFITEM/AccessControl.sol\":2406:2410  role */\n      dup2\n        /* \"contracts/SQFITEM/AccessControl.sol\":2412:2424  _msgSender() */\n      tag_141\n        /* \"contracts/SQFITEM/AccessControl.sol\":2412:2422  _msgSender */\n      tag_106\n        /* \"contracts/SQFITEM/AccessControl.sol\":2412:2424  _msgSender() */\n      jump\t// in\n    tag_141:\n        /* \"contracts/SQFITEM/AccessControl.sol\":2395:2405  _checkRole */\n      tag_107\n        /* \"contracts/SQFITEM/AccessControl.sol\":2395:2425  _checkRole(role, _msgSender()) */\n      jump\t// in\n    tag_140:\n        /* \"contracts/SQFITEM/AccessControl.sol\":4746:4772  _revokeRole(role, account) */\n      tag_143\n        /* \"contracts/SQFITEM/AccessControl.sol\":4758:4762  role */\n      dup4\n        /* \"contracts/SQFITEM/AccessControl.sol\":4764:4771  account */\n      dup4\n        /* \"contracts/SQFITEM/AccessControl.sol\":4746:4757  _revokeRole */\n      tag_117\n        /* \"contracts/SQFITEM/AccessControl.sol\":4746:4772  _revokeRole(role, account) */\n      jump\t// in\n    tag_143:\n        /* \"contracts/SQFITEM/AccessControl.sol\":4632:4779  function revokeRole(bytes32 role, address account) public virtual override onlyRole(getRoleAdmin(role)) {... */\n      pop\n      pop\n      pop\n      jump\t// out\n        /* \"contracts/SQFITEM/SQFI_Factory.sol\":983:1294  function bytes32ToAmount16(bytes32 data)... */\n    tag_79:\n        /* \"contracts/SQFITEM/SQFI_Factory.sol\":1069:1094  uint256[16] memory amount */\n      tag_144\n      tag_145\n      jump\t// in\n    tag_144:\n        /* \"contracts/SQFITEM/SQFI_Factory.sol\":1115:1122  uint8 i */\n      0x00\n        /* \"contracts/SQFITEM/SQFI_Factory.sol\":1110:1288  for (uint8 i = 0; i < 32; i++) {... */\n    tag_147:\n        /* \"contracts/SQFITEM/SQFI_Factory.sol\":1132:1134  32 */\n      0x20\n        /* \"contracts/SQFITEM/SQFI_Factory.sol\":1128:1129  i */\n      dup2\n        /* \"contracts/SQFITEM/SQFI_Factory.sol\":1128:1134  i < 32 */\n      0xff\n      and\n      lt\n        /* \"contracts/SQFITEM/SQFI_Factory.sol\":1110:1288  for (uint8 i = 0; i < 32; i++) {... */\n      iszero\n      tag_148\n      jumpi\n        /* \"contracts/SQFITEM/SQFI_Factory.sol\":1267:1268  0 */\n      0x00\n        /* \"contracts/SQFITEM/SQFI_Factory.sol\":1262:1263  2 */\n      0x02\n        /* \"contracts/SQFITEM/SQFI_Factory.sol\":1258:1259  i */\n      dup3\n        /* \"contracts/SQFITEM/SQFI_Factory.sol\":1258:1263  i % 2 */\n      tag_150\n      swap2\n      swap1\n      tag_151\n      jump\t// in\n    tag_150:\n        /* \"contracts/SQFITEM/SQFI_Factory.sol\":1258:1268  i % 2 == 0 */\n      0xff\n      and\n      eq\n        /* \"contracts/SQFITEM/SQFI_Factory.sol\":1258:1276  i % 2 == 0 ? 1 : 0 */\n      tag_152\n      jumpi\n        /* \"contracts/SQFITEM/SQFI_Factory.sol\":1275:1276  0 */\n      0x00\n        /* \"contracts/SQFITEM/SQFI_Factory.sol\":1258:1276  i % 2 == 0 ? 1 : 0 */\n      jump(tag_153)\n    tag_152:\n        /* \"contracts/SQFITEM/SQFI_Factory.sol\":1271:1272  1 */\n      0x01\n        /* \"contracts/SQFITEM/SQFI_Factory.sol\":1258:1276  i % 2 == 0 ? 1 : 0 */\n    tag_153:\n        /* \"contracts/SQFITEM/SQFI_Factory.sol\":1252:1255  256 */\n      0x0100\n        /* \"contracts/SQFITEM/SQFI_Factory.sol\":1252:1277  256**(i % 2 == 0 ? 1 : 0) */\n      tag_154\n      swap2\n      swap1\n      tag_155\n      jump\t// in\n    tag_154:\n        /* \"contracts/SQFITEM/SQFI_Factory.sol\":1225:1229  data */\n      dup4\n        /* \"contracts/SQFITEM/SQFI_Factory.sol\":1230:1231  i */\n      dup3\n        /* \"contracts/SQFITEM/SQFI_Factory.sol\":1225:1232  data[i] */\n      0xff\n      and\n      0x20\n      dup2\n      lt\n      tag_156\n      jumpi\n      tag_157\n      tag_158\n      jump\t// in\n    tag_157:\n    tag_156:\n      byte\n      0xf8\n      shl\n        /* \"contracts/SQFITEM/SQFI_Factory.sol\":1219:1233  uint8(data[i]) */\n      0xf8\n      shr\n        /* \"contracts/SQFITEM/SQFI_Factory.sol\":1219:1277  uint8(data[i]) *... */\n      0xff\n      and\n      tag_159\n      swap2\n      swap1\n      tag_160\n      jump\t// in\n    tag_159:\n        /* \"contracts/SQFITEM/SQFI_Factory.sol\":1187:1193  amount */\n      dup3\n        /* \"contracts/SQFITEM/SQFI_Factory.sol\":1198:1199  2 */\n      0x02\n        /* \"contracts/SQFITEM/SQFI_Factory.sol\":1194:1195  i */\n      dup4\n        /* \"contracts/SQFITEM/SQFI_Factory.sol\":1194:1199  i / 2 */\n      tag_161\n      swap2\n      swap1\n      tag_162\n      jump\t// in\n    tag_161:\n        /* \"contracts/SQFITEM/SQFI_Factory.sol\":1187:1200  amount[i / 2] */\n      0xff\n      and\n      0x10\n      dup2\n      lt\n      tag_163\n      jumpi\n      tag_164\n      tag_158\n      jump\t// in\n    tag_164:\n    tag_163:\n      0x20\n      mul\n      add\n      mload\n        /* \"contracts/SQFITEM/SQFI_Factory.sol\":1187:1277  amount[i / 2] +... */\n      tag_165\n      swap2\n      swap1\n      tag_166\n      jump\t// in\n    tag_165:\n        /* \"contracts/SQFITEM/SQFI_Factory.sol\":1155:1161  amount */\n      dup3\n        /* \"contracts/SQFITEM/SQFI_Factory.sol\":1166:1167  2 */\n      0x02\n        /* \"contracts/SQFITEM/SQFI_Factory.sol\":1162:1163  i */\n      dup4\n        /* \"contracts/SQFITEM/SQFI_Factory.sol\":1162:1167  i / 2 */\n      tag_167\n      swap2\n      swap1\n      tag_162\n      jump\t// in\n    tag_167:\n        /* \"contracts/SQFITEM/SQFI_Factory.sol\":1155:1168  amount[i / 2] */\n      0xff\n      and\n      0x10\n      dup2\n      lt\n      tag_168\n      jumpi\n      tag_169\n      tag_158\n      jump\t// in\n    tag_169:\n    tag_168:\n      0x20\n      mul\n      add\n        /* \"contracts/SQFITEM/SQFI_Factory.sol\":1155:1277  amount[i / 2] =... */\n      dup2\n      dup2\n      mstore\n      pop\n      pop\n        /* \"contracts/SQFITEM/SQFI_Factory.sol\":1136:1139  i++ */\n      dup1\n      dup1\n      tag_170\n      swap1\n      tag_171\n      jump\t// in\n    tag_170:\n      swap2\n      pop\n      pop\n        /* \"contracts/SQFITEM/SQFI_Factory.sol\":1110:1288  for (uint8 i = 0; i < 32; i++) {... */\n      jump(tag_147)\n    tag_148:\n      pop\n        /* \"contracts/SQFITEM/SQFI_Factory.sol\":983:1294  function bytes32ToAmount16(bytes32 data)... */\n      swap2\n      swap1\n      pop\n      jump\t// out\n        /* \"contracts/SQFITEM/SQFI_Factory.sol\":383:445  bytes32 public constant PAUSER_ROLE = keccak256(\"PAUSER_ROLE\") */\n    tag_83:\n        /* \"contracts/SQFITEM/SQFI_Factory.sol\":421:445  keccak256(\"PAUSER_ROLE\") */\n      0x65d7a28e3265b37a6474929f336521b332c1681b933f6cb9f3376673440d862a\n        /* \"contracts/SQFITEM/SQFI_Factory.sol\":383:445  bytes32 public constant PAUSER_ROLE = keccak256(\"PAUSER_ROLE\") */\n      dup2\n      jump\t// out\n        /* \"contracts/SQFITEM/SQFI_Factory.sol\":2114:2396  function withdraw(address token, uint256 amount)... */\n    tag_87:\n        /* \"contracts/SQFITEM/AccessControl.sol\":1962:1966  0x00 */\n      0x00\n        /* \"contracts/SQFITEM/SQFI_Factory.sol\":2195:2213  DEFAULT_ADMIN_ROLE */\n      dup1\n      shl\n        /* \"contracts/SQFITEM/AccessControl.sol\":2395:2425  _checkRole(role, _msgSender()) */\n      tag_173\n        /* \"contracts/SQFITEM/AccessControl.sol\":2406:2410  role */\n      dup2\n        /* \"contracts/SQFITEM/AccessControl.sol\":2412:2424  _msgSender() */\n      tag_174\n        /* \"contracts/SQFITEM/AccessControl.sol\":2412:2422  _msgSender */\n      tag_106\n        /* \"contracts/SQFITEM/AccessControl.sol\":2412:2424  _msgSender() */\n      jump\t// in\n    tag_174:\n        /* \"contracts/SQFITEM/AccessControl.sol\":2395:2405  _checkRole */\n      tag_107\n        /* \"contracts/SQFITEM/AccessControl.sol\":2395:2425  _checkRole(role, _msgSender()) */\n      jump\t// in\n    tag_173:\n        /* \"contracts/SQFITEM/SQFI_Factory.sol\":2250:2253  0x0 */\n      0x00\n        /* \"contracts/SQFITEM/SQFI_Factory.sol\":2233:2254  token == address(0x0) */\n      0xffffffffffffffffffffffffffffffffffffffff\n      and\n        /* \"contracts/SQFITEM/SQFI_Factory.sol\":2233:2238  token */\n      dup4\n        /* \"contracts/SQFITEM/SQFI_Factory.sol\":2233:2254  token == address(0x0) */\n      0xffffffffffffffffffffffffffffffffffffffff\n      and\n      sub\n        /* \"contracts/SQFITEM/SQFI_Factory.sol\":2229:2390  if (token == address(0x0)) {... */\n      tag_176\n      jumpi\n        /* \"contracts/SQFITEM/SQFI_Factory.sol\":2278:2288  msg.sender */\n      caller\n        /* \"contracts/SQFITEM/SQFI_Factory.sol\":2270:2298  payable(msg.sender).transfer */\n      0xffffffffffffffffffffffffffffffffffffffff\n      and\n        /* \"contracts/SQFITEM/SQFI_Factory.sol\":2270:2306  payable(msg.sender).transfer(amount) */\n      0x08fc\n        /* \"contracts/SQFITEM/SQFI_Factory.sol\":2299:2305  amount */\n      dup4\n        /* \"contracts/SQFITEM/SQFI_Factory.sol\":2270:2306  payable(msg.sender).transfer(amount) */\n      swap1\n      dup2\n      iszero\n      mul\n      swap1\n      mload(0x40)\n      0x00\n      mload(0x40)\n      dup1\n      dup4\n      sub\n      dup2\n      dup6\n      dup9\n      dup9\n      call\n      swap4\n      pop\n      pop\n      pop\n      pop\n      iszero\n      dup1\n      iszero\n      tag_178\n      jumpi\n      returndatasize\n      0x00\n      dup1\n      returndatacopy\n      revert(0x00, returndatasize)\n    tag_178:\n      pop\n        /* \"contracts/SQFITEM/SQFI_Factory.sol\":2229:2390  if (token == address(0x0)) {... */\n      jump(tag_179)\n    tag_176:\n        /* \"contracts/SQFITEM/SQFI_Factory.sol\":2344:2349  token */\n      dup3\n        /* \"contracts/SQFITEM/SQFI_Factory.sol\":2337:2359  IERC20(token).transfer */\n      0xffffffffffffffffffffffffffffffffffffffff\n      and\n      0xa9059cbb\n        /* \"contracts/SQFITEM/SQFI_Factory.sol\":2360:2370  msg.sender */\n      caller\n        /* \"contracts/SQFITEM/SQFI_Factory.sol\":2372:2378  amount */\n      dup5\n        /* \"contracts/SQFITEM/SQFI_Factory.sol\":2337:2379  IERC20(token).transfer(msg.sender, amount) */\n      mload(0x40)\n      dup4\n      0xffffffff\n      and\n      0xe0\n      shl\n      dup2\n      mstore\n      0x04\n      add\n      tag_180\n      swap3\n      swap2\n      swap1\n      tag_181\n      jump\t// in\n    tag_180:\n      0x20\n      mload(0x40)\n      dup1\n      dup4\n      sub\n      dup2\n      0x00\n      dup8\n      gas\n      call\n      iszero\n      dup1\n      iszero\n      tag_183\n      jumpi\n      returndatasize\n      0x00\n      dup1\n      returndatacopy\n      revert(0x00, returndatasize)\n    tag_183:\n      pop\n      pop\n      pop\n      pop\n      mload(0x40)\n      returndatasize\n      not(0x1f)\n      0x1f\n      dup3\n      add\n      and\n      dup3\n      add\n      dup1\n      0x40\n      mstore\n      pop\n      dup2\n      add\n      swap1\n      tag_184\n      swap2\n      swap1\n      tag_185\n      jump\t// in\n    tag_184:\n      pop\n        /* \"contracts/SQFITEM/SQFI_Factory.sol\":2229:2390  if (token == address(0x0)) {... */\n    tag_179:\n        /* \"contracts/SQFITEM/SQFI_Factory.sol\":2114:2396  function withdraw(address token, uint256 amount)... */\n      pop\n      pop\n      pop\n      jump\t// out\n        /* \"contracts/SQFITEM/SQFI_Factory.sol\":476:503  uint256 public amount1 = 10 */\n    tag_89:\n      sload(0x04)\n      dup2\n      jump\t// out\n        /* \"contracts/SQFITEM/ERC165.sol\":763:918  function supportsInterface(bytes4 interfaceId) public view virtual override returns (bool) {... */\n    tag_94:\n        /* \"contracts/SQFITEM/ERC165.sol\":848:852  bool */\n      0x00\n        /* \"contracts/SQFITEM/ERC165.sol\":886:911  type(IERC165).interfaceId */\n      0x01ffc9a700000000000000000000000000000000000000000000000000000000\n        /* \"contracts/SQFITEM/ERC165.sol\":871:911  interfaceId == type(IERC165).interfaceId */\n      not(0xffffffffffffffffffffffffffffffffffffffffffffffffffffffff)\n      and\n        /* \"contracts/SQFITEM/ERC165.sol\":871:882  interfaceId */\n      dup3\n        /* \"contracts/SQFITEM/ERC165.sol\":871:911  interfaceId == type(IERC165).interfaceId */\n      not(0xffffffffffffffffffffffffffffffffffffffffffffffffffffffff)\n      and\n      eq\n        /* \"contracts/SQFITEM/ERC165.sol\":864:911  return interfaceId == type(IERC165).interfaceId */\n      swap1\n      pop\n        /* \"contracts/SQFITEM/ERC165.sol\":763:918  function supportsInterface(bytes4 interfaceId) public view virtual override returns (bool) {... */\n      swap2\n      swap1\n      pop\n      jump\t// out\n        /* \"contracts/SQFITEM/Context.sol\":587:683  function _msgSender() internal view virtual returns (address) {... */\n    tag_106:\n        /* \"contracts/SQFITEM/Context.sol\":640:647  address */\n      0x00\n        /* \"contracts/SQFITEM/Context.sol\":666:676  msg.sender */\n      caller\n        /* \"contracts/SQFITEM/Context.sol\":659:676  return msg.sender */\n      swap1\n      pop\n        /* \"contracts/SQFITEM/Context.sol\":587:683  function _msgSender() internal view virtual returns (address) {... */\n      swap1\n      jump\t// out\n        /* \"contracts/SQFITEM/AccessControl.sol\":3217:3701  function _checkRole(bytes32 role, address account) internal view {... */\n    tag_107:\n        /* \"contracts/SQFITEM/AccessControl.sol\":3297:3319  hasRole(role, account) */\n      tag_189\n        /* \"contracts/SQFITEM/AccessControl.sol\":3305:3309  role */\n      dup3\n        /* \"contracts/SQFITEM/AccessControl.sol\":3311:3318  account */\n      dup3\n        /* \"contracts/SQFITEM/AccessControl.sol\":3297:3304  hasRole */\n      tag_61\n        /* \"contracts/SQFITEM/AccessControl.sol\":3297:3319  hasRole(role, account) */\n      jump\t// in\n    tag_189:\n        /* \"contracts/SQFITEM/AccessControl.sol\":3292:3695  if (!hasRole(role, account)) {... */\n      tag_190\n      jumpi\n        /* \"contracts/SQFITEM/AccessControl.sol\":3480:3521  Strings.toHexString(uint160(account), 20) */\n      tag_191\n        /* \"contracts/SQFITEM/AccessControl.sol\":3508:3515  account */\n      dup2\n        /* \"contracts/SQFITEM/AccessControl.sol\":3480:3521  Strings.toHexString(uint160(account), 20) */\n      0xffffffffffffffffffffffffffffffffffffffff\n      and\n        /* \"contracts/SQFITEM/AccessControl.sol\":3518:3520  20 */\n      0x14\n        /* \"contracts/SQFITEM/AccessControl.sol\":3480:3499  Strings.toHexString */\n      tag_192\n        /* \"contracts/SQFITEM/AccessControl.sol\":3480:3521  Strings.toHexString(uint160(account), 20) */\n      jump\t// in\n    tag_191:\n        /* \"contracts/SQFITEM/AccessControl.sol\":3592:3630  Strings.toHexString(uint256(role), 32) */\n      tag_193\n        /* \"contracts/SQFITEM/AccessControl.sol\":3620:3624  role */\n      dup4\n        /* \"contracts/SQFITEM/AccessControl.sol\":3612:3625  uint256(role) */\n      0x00\n      shr\n        /* \"contracts/SQFITEM/AccessControl.sol\":3627:3629  32 */\n      0x20\n        /* \"contracts/SQFITEM/AccessControl.sol\":3592:3611  Strings.toHexString */\n      tag_192\n        /* \"contracts/SQFITEM/AccessControl.sol\":3592:3630  Strings.toHexString(uint256(role), 32) */\n      jump\t// in\n    tag_193:\n        /* \"contracts/SQFITEM/AccessControl.sol\":3387:3652  abi.encodePacked(... */\n      add(0x20, mload(0x40))\n      tag_194\n      swap3\n      swap2\n      swap1\n      tag_195\n      jump\t// in\n    tag_194:\n      mload(0x40)\n      0x20\n      dup2\n      dup4\n      sub\n      sub\n      dup2\n      mstore\n      swap1\n      0x40\n      mstore\n        /* \"contracts/SQFITEM/AccessControl.sol\":3335:3684  revert(... */\n      mload(0x40)\n      0x08c379a000000000000000000000000000000000000000000000000000000000\n      dup2\n      mstore\n      0x04\n      add\n      tag_196\n      swap2\n      swap1\n      tag_197\n      jump\t// in\n    tag_196:\n      mload(0x40)\n      dup1\n      swap2\n      sub\n      swap1\n      revert\n        /* \"contracts/SQFITEM/AccessControl.sol\":3292:3695  if (!hasRole(role, account)) {... */\n    tag_190:\n        /* \"contracts/SQFITEM/AccessControl.sol\":3217:3701  function _checkRole(bytes32 role, address account) internal view {... */\n      pop\n      pop\n      jump\t// out\n        /* \"contracts/SQFITEM/AccessControl.sol\":6537:6761  function _grantRole(bytes32 role, address account) private {... */\n    tag_110:\n        /* \"contracts/SQFITEM/AccessControl.sol\":6611:6633  hasRole(role, account) */\n      tag_199\n        /* \"contracts/SQFITEM/AccessControl.sol\":6619:6623  role */\n      dup3\n        /* \"contracts/SQFITEM/AccessControl.sol\":6625:6632  account */\n      dup3\n        /* \"contracts/SQFITEM/AccessControl.sol\":6611:6618  hasRole */\n      tag_61\n        /* \"contracts/SQFITEM/AccessControl.sol\":6611:6633  hasRole(role, account) */\n      jump\t// in\n    tag_199:\n        /* \"contracts/SQFITEM/AccessControl.sol\":6606:6755  if (!hasRole(role, account)) {... */\n      tag_200\n      jumpi\n        /* \"contracts/SQFITEM/AccessControl.sol\":6681:6685  true */\n      0x01\n        /* \"contracts/SQFITEM/AccessControl.sol\":6649:6655  _roles */\n      dup1\n        /* \"contracts/SQFITEM/AccessControl.sol\":6649:6661  _roles[role] */\n      0x00\n        /* \"contracts/SQFITEM/AccessControl.sol\":6656:6660  role */\n      dup5\n        /* \"contracts/SQFITEM/AccessControl.sol\":6649:6661  _roles[role] */\n      dup2\n      mstore\n      0x20\n      add\n      swap1\n      dup2\n      mstore\n      0x20\n      add\n      0x00\n      keccak256\n        /* \"contracts/SQFITEM/AccessControl.sol\":6649:6669  _roles[role].members */\n      0x00\n      add\n        /* \"contracts/SQFITEM/AccessControl.sol\":6649:6678  _roles[role].members[account] */\n      0x00\n        /* \"contracts/SQFITEM/AccessControl.sol\":6670:6677  account */\n      dup4\n        /* \"contracts/SQFITEM/AccessControl.sol\":6649:6678  _roles[role].members[account] */\n      0xffffffffffffffffffffffffffffffffffffffff\n      and\n      0xffffffffffffffffffffffffffffffffffffffff\n      and\n      dup2\n      mstore\n      0x20\n      add\n      swap1\n      dup2\n      mstore\n      0x20\n      add\n      0x00\n      keccak256\n      0x00\n        /* \"contracts/SQFITEM/AccessControl.sol\":6649:6685  _roles[role].members[account] = true */\n      0x0100\n      exp\n      dup2\n      sload\n      dup2\n      0xff\n      mul\n      not\n      and\n      swap1\n      dup4\n      iszero\n      iszero\n      mul\n      or\n      swap1\n      sstore\n      pop\n        /* \"contracts/SQFITEM/AccessControl.sol\":6731:6743  _msgSender() */\n      tag_201\n        /* \"contracts/SQFITEM/AccessControl.sol\":6731:6741  _msgSender */\n      tag_106\n        /* \"contracts/SQFITEM/AccessControl.sol\":6731:6743  _msgSender() */\n      jump\t// in\n    tag_201:\n        /* \"contracts/SQFITEM/AccessControl.sol\":6704:6744  RoleGranted(role, account, _msgSender()) */\n      0xffffffffffffffffffffffffffffffffffffffff\n      and\n        /* \"contracts/SQFITEM/AccessControl.sol\":6722:6729  account */\n      dup2\n        /* \"contracts/SQFITEM/AccessControl.sol\":6704:6744  RoleGranted(role, account, _msgSender()) */\n      0xffffffffffffffffffffffffffffffffffffffff\n      and\n        /* \"contracts/SQFITEM/AccessControl.sol\":6716:6720  role */\n      dup4\n        /* \"contracts/SQFITEM/AccessControl.sol\":6704:6744  RoleGranted(role, account, _msgSender()) */\n      0x2f8788117e7eff1d82e926ec794901d17c78024a50270940304540a733656f0d\n      mload(0x40)\n      mload(0x40)\n      dup1\n      swap2\n      sub\n      swap1\n      log4\n        /* \"contracts/SQFITEM/AccessControl.sol\":6606:6755  if (!hasRole(role, account)) {... */\n    tag_200:\n        /* \"contracts/SQFITEM/AccessControl.sol\":6537:6761  function _grantRole(bytes32 role, address account) private {... */\n      pop\n      pop\n      jump\t// out\n        /* \"contracts/SQFITEM/AccessControl.sol\":6767:6992  function _revokeRole(bytes32 role, address account) private {... */\n    tag_117:\n        /* \"contracts/SQFITEM/AccessControl.sol\":6841:6863  hasRole(role, account) */\n      tag_203\n        /* \"contracts/SQFITEM/AccessControl.sol\":6849:6853  role */\n      dup3\n        /* \"contracts/SQFITEM/AccessControl.sol\":6855:6862  account */\n      dup3\n        /* \"contracts/SQFITEM/AccessControl.sol\":6841:6848  hasRole */\n      tag_61\n        /* \"contracts/SQFITEM/AccessControl.sol\":6841:6863  hasRole(role, account) */\n      jump\t// in\n    tag_203:\n        /* \"contracts/SQFITEM/AccessControl.sol\":6837:6986  if (hasRole(role, account)) {... */\n      iszero\n      tag_204\n      jumpi\n        /* \"contracts/SQFITEM/AccessControl.sol\":6911:6916  false */\n      0x00\n        /* \"contracts/SQFITEM/AccessControl.sol\":6879:6885  _roles */\n      0x01\n        /* \"contracts/SQFITEM/AccessControl.sol\":6879:6891  _roles[role] */\n      0x00\n        /* \"contracts/SQFITEM/AccessControl.sol\":6886:6890  role */\n      dup5\n        /* \"contracts/SQFITEM/AccessControl.sol\":6879:6891  _roles[role] */\n      dup2\n      mstore\n      0x20\n      add\n      swap1\n      dup2\n      mstore\n      0x20\n      add\n      0x00\n      keccak256\n        /* \"contracts/SQFITEM/AccessControl.sol\":6879:6899  _roles[role].members */\n      0x00\n      add\n        /* \"contracts/SQFITEM/AccessControl.sol\":6879:6908  _roles[role].members[account] */\n      0x00\n        /* \"contracts/SQFITEM/AccessControl.sol\":6900:6907  account */\n      dup4\n        /* \"contracts/SQFITEM/AccessControl.sol\":6879:6908  _roles[role].members[account] */\n      0xffffffffffffffffffffffffffffffffffffffff\n      and\n      0xffffffffffffffffffffffffffffffffffffffff\n      and\n      dup2\n      mstore\n      0x20\n      add\n      swap1\n      dup2\n      mstore\n      0x20\n      add\n      0x00\n      keccak256\n      0x00\n        /* \"contracts/SQFITEM/AccessControl.sol\":6879:6916  _roles[role].members[account] = false */\n      0x0100\n      exp\n      dup2\n      sload\n      dup2\n      0xff\n      mul\n      not\n      and\n      swap1\n      dup4\n      iszero\n      iszero\n      mul\n      or\n      swap1\n      sstore\n      pop\n        /* \"contracts/SQFITEM/AccessControl.sol\":6962:6974  _msgSender() */\n      tag_205\n        /* \"contracts/SQFITEM/AccessControl.sol\":6962:6972  _msgSender */\n      tag_106\n        /* \"contracts/SQFITEM/AccessControl.sol\":6962:6974  _msgSender() */\n      jump\t// in\n    tag_205:\n        /* \"contracts/SQFITEM/AccessControl.sol\":6935:6975  RoleRevoked(role, account, _msgSender()) */\n      0xffffffffffffffffffffffffffffffffffffffff\n      and\n        /* \"contracts/SQFITEM/AccessControl.sol\":6953:6960  account */\n      dup2\n        /* \"contracts/SQFITEM/AccessControl.sol\":6935:6975  RoleRevoked(role, account, _msgSender()) */\n      0xffffffffffffffffffffffffffffffffffffffff\n      and\n        /* \"contracts/SQFITEM/AccessControl.sol\":6947:6951  role */\n      dup4\n        /* \"contracts/SQFITEM/AccessControl.sol\":6935:6975  RoleRevoked(role, account, _msgSender()) */\n      0xf6391f5c32d9c69d2a47ea670b442974b53935d1edc7fd64eb21e047a839171b\n      mload(0x40)\n      mload(0x40)\n      dup1\n      swap2\n      sub\n      swap1\n      log4\n        /* \"contracts/SQFITEM/AccessControl.sol\":6837:6986  if (hasRole(role, account)) {... */\n    tag_204:\n        /* \"contracts/SQFITEM/AccessControl.sol\":6767:6992  function _revokeRole(bytes32 role, address account) private {... */\n      pop\n      pop\n      jump\t// out\n        /* \"contracts/SQFITEM/Strings.sol\":1535:1976  function toHexString(uint256 value, uint256 length) internal pure returns (string memory) {... */\n    tag_192:\n        /* \"contracts/SQFITEM/Strings.sol\":1610:1623  string memory */\n      0x60\n        /* \"contracts/SQFITEM/Strings.sol\":1635:1654  bytes memory buffer */\n      0x00\n        /* \"contracts/SQFITEM/Strings.sol\":1680:1681  2 */\n      0x02\n        /* \"contracts/SQFITEM/Strings.sol\":1671:1677  length */\n      dup4\n        /* \"contracts/SQFITEM/Strings.sol\":1667:1668  2 */\n      0x02\n        /* \"contracts/SQFITEM/Strings.sol\":1667:1677  2 * length */\n      tag_207\n      swap2\n      swap1\n      tag_160\n      jump\t// in\n    tag_207:\n        /* \"contracts/SQFITEM/Strings.sol\":1667:1681  2 * length + 2 */\n      tag_208\n      swap2\n      swap1\n      tag_166\n      jump\t// in\n    tag_208:\n        /* \"contracts/SQFITEM/Strings.sol\":1657:1682  new bytes(2 * length + 2) */\n      0xffffffffffffffff\n      dup2\n      gt\n      iszero\n      tag_209\n      jumpi\n      tag_210\n      tag_211\n      jump\t// in\n    tag_210:\n    tag_209:\n      mload(0x40)\n      swap1\n      dup1\n      dup3\n      mstore\n      dup1\n      0x1f\n      add\n      not(0x1f)\n      and\n      0x20\n      add\n      dup3\n      add\n      0x40\n      mstore\n      dup1\n      iszero\n      tag_212\n      jumpi\n      dup2\n      0x20\n      add\n      0x01\n      dup3\n      mul\n      dup1\n      calldatasize\n      dup4\n      calldatacopy\n      dup1\n      dup3\n      add\n      swap2\n      pop\n      pop\n      swap1\n      pop\n    tag_212:\n      pop\n        /* \"contracts/SQFITEM/Strings.sol\":1635:1682  bytes memory buffer = new bytes(2 * length + 2) */\n      swap1\n      pop\n        /* \"contracts/SQFITEM/Strings.sol\":1692:1707  buffer[0] = \"0\" */\n      0x3000000000000000000000000000000000000000000000000000000000000000\n        /* \"contracts/SQFITEM/Strings.sol\":1692:1698  buffer */\n      dup2\n        /* \"contracts/SQFITEM/Strings.sol\":1699:1700  0 */\n      0x00\n        /* \"contracts/SQFITEM/Strings.sol\":1692:1701  buffer[0] */\n      dup2\n      mload\n      dup2\n      lt\n      tag_213\n      jumpi\n      tag_214\n      tag_158\n      jump\t// in\n    tag_214:\n    tag_213:\n      0x20\n      add\n      add\n        /* \"contracts/SQFITEM/Strings.sol\":1692:1707  buffer[0] = \"0\" */\n      swap1\n      not(0xffffffffffffffffffffffffffffffffffffffffffffffffffffffffffffff)\n      and\n      swap1\n      dup2\n      0x00\n      byte\n      swap1\n      mstore8\n      pop\n        /* \"contracts/SQFITEM/Strings.sol\":1717:1732  buffer[1] = \"x\" */\n      0x7800000000000000000000000000000000000000000000000000000000000000\n        /* \"contracts/SQFITEM/Strings.sol\":1717:1723  buffer */\n      dup2\n        /* \"contracts/SQFITEM/Strings.sol\":1724:1725  1 */\n      0x01\n        /* \"contracts/SQFITEM/Strings.sol\":1717:1726  buffer[1] */\n      dup2\n      mload\n      dup2\n      lt\n      tag_215\n      jumpi\n      tag_216\n      tag_158\n      jump\t// in\n    tag_216:\n    tag_215:\n      0x20\n      add\n      add\n        /* \"contracts/SQFITEM/Strings.sol\":1717:1732  buffer[1] = \"x\" */\n      swap1\n      not(0xffffffffffffffffffffffffffffffffffffffffffffffffffffffffffffff)\n      and\n      swap1\n      dup2\n      0x00\n      byte\n      swap1\n      mstore8\n      pop\n        /* \"contracts/SQFITEM/Strings.sol\":1747:1756  uint256 i */\n      0x00\n        /* \"contracts/SQFITEM/Strings.sol\":1772:1773  1 */\n      0x01\n        /* \"contracts/SQFITEM/Strings.sol\":1763:1769  length */\n      dup5\n        /* \"contracts/SQFITEM/Strings.sol\":1759:1760  2 */\n      0x02\n        /* \"contracts/SQFITEM/Strings.sol\":1759:1769  2 * length */\n      tag_220\n      swap2\n      swap1\n      tag_160\n      jump\t// in\n    tag_220:\n        /* \"contracts/SQFITEM/Strings.sol\":1759:1773  2 * length + 1 */\n      tag_221\n      swap2\n      swap1\n      tag_166\n      jump\t// in\n    tag_221:\n        /* \"contracts/SQFITEM/Strings.sol\":1747:1773  uint256 i = 2 * length + 1 */\n      swap1\n      pop\n        /* \"contracts/SQFITEM/Strings.sol\":1742:1874  for (uint256 i = 2 * length + 1; i > 1; --i) {... */\n    tag_217:\n        /* \"contracts/SQFITEM/Strings.sol\":1779:1780  1 */\n      0x01\n        /* \"contracts/SQFITEM/Strings.sol\":1775:1776  i */\n      dup2\n        /* \"contracts/SQFITEM/Strings.sol\":1775:1780  i > 1 */\n      gt\n        /* \"contracts/SQFITEM/Strings.sol\":1742:1874  for (uint256 i = 2 * length + 1; i > 1; --i) {... */\n      iszero\n      tag_218\n      jumpi\n        /* \"contracts/SQFITEM/Strings.sol\":1813:1825  _HEX_SYMBOLS */\n      0x3031323334353637383961626364656600000000000000000000000000000000\n        /* \"contracts/SQFITEM/Strings.sol\":1834:1837  0xf */\n      0x0f\n        /* \"contracts/SQFITEM/Strings.sol\":1826:1831  value */\n      dup7\n        /* \"contracts/SQFITEM/Strings.sol\":1826:1837  value & 0xf */\n      and\n        /* \"contracts/SQFITEM/Strings.sol\":1813:1838  _HEX_SYMBOLS[value & 0xf] */\n      0x10\n      dup2\n      lt\n      tag_222\n      jumpi\n      tag_223\n      tag_158\n      jump\t// in\n    tag_223:\n    tag_222:\n      byte\n      0xf8\n      shl\n        /* \"contracts/SQFITEM/Strings.sol\":1801:1807  buffer */\n      dup3\n        /* \"contracts/SQFITEM/Strings.sol\":1808:1809  i */\n      dup3\n        /* \"contracts/SQFITEM/Strings.sol\":1801:1810  buffer[i] */\n      dup2\n      mload\n      dup2\n      lt\n      tag_224\n      jumpi\n      tag_225\n      tag_158\n      jump\t// in\n    tag_225:\n    tag_224:\n      0x20\n      add\n      add\n        /* \"contracts/SQFITEM/Strings.sol\":1801:1838  buffer[i] = _HEX_SYMBOLS[value & 0xf] */\n      swap1\n      not(0xffffffffffffffffffffffffffffffffffffffffffffffffffffffffffffff)\n      and\n      swap1\n      dup2\n      0x00\n      byte\n      swap1\n      mstore8\n      pop\n        /* \"contracts/SQFITEM/Strings.sol\":1862:1863  4 */\n      0x04\n        /* \"contracts/SQFITEM/Strings.sol\":1852:1863  value >>= 4 */\n      dup6\n      swap1\n      shr\n      swap5\n      pop\n        /* \"contracts/SQFITEM/Strings.sol\":1782:1785  --i */\n      dup1\n      tag_226\n      swap1\n      tag_227\n      jump\t// in\n    tag_226:\n      swap1\n      pop\n        /* \"contracts/SQFITEM/Strings.sol\":1742:1874  for (uint256 i = 2 * length + 1; i > 1; --i) {... */\n      jump(tag_217)\n    tag_218:\n      pop\n        /* \"contracts/SQFITEM/Strings.sol\":1900:1901  0 */\n      0x00\n        /* \"contracts/SQFITEM/Strings.sol\":1891:1896  value */\n      dup5\n        /* \"contracts/SQFITEM/Strings.sol\":1891:1901  value == 0 */\n      eq\n        /* \"contracts/SQFITEM/Strings.sol\":1883:1938  require(value == 0, \"Strings: hex length insufficient\") */\n      tag_228\n      jumpi\n      mload(0x40)\n      0x08c379a000000000000000000000000000000000000000000000000000000000\n      dup2\n      mstore\n      0x04\n      add\n      tag_229\n      swap1\n      tag_230\n      jump\t// in\n    tag_229:\n      mload(0x40)\n      dup1\n      swap2\n      sub\n      swap1\n      revert\n    tag_228:\n        /* \"contracts/SQFITEM/Strings.sol\":1962:1968  buffer */\n      dup1\n        /* \"contracts/SQFITEM/Strings.sol\":1948:1969  return string(buffer) */\n      swap2\n      pop\n      pop\n        /* \"contracts/SQFITEM/Strings.sol\":1535:1976  function toHexString(uint256 value, uint256 length) internal pure returns (string memory) {... */\n      swap3\n      swap2\n      pop\n      pop\n      jump\t// out\n    tag_145:\n      mload(0x40)\n      dup1\n      0x0200\n      add\n      0x40\n      mstore\n      dup1\n      0x10\n      swap1\n      0x20\n      dup3\n      mul\n      dup1\n      calldatasize\n      dup4\n      calldatacopy\n      dup1\n      dup3\n      add\n      swap2\n      pop\n      pop\n      swap1\n      pop\n      pop\n      swap1\n      jump\t// out\n        /* \"#utility.yul\":7:82   */\n    tag_231:\n        /* \"#utility.yul\":40:46   */\n      0x00\n        /* \"#utility.yul\":73:75   */\n      0x40\n        /* \"#utility.yul\":67:76   */\n      mload\n        /* \"#utility.yul\":57:76   */\n      swap1\n      pop\n        /* \"#utility.yul\":7:82   */\n      swap1\n      jump\t// out\n        /* \"#utility.yul\":88:205   */\n    tag_232:\n        /* \"#utility.yul\":197:198   */\n      0x00\n        /* \"#utility.yul\":194:195   */\n      dup1\n        /* \"#utility.yul\":187:199   */\n      revert\n        /* \"#utility.yul\":211:328   */\n    tag_233:\n        /* \"#utility.yul\":320:321   */\n      0x00\n        /* \"#utility.yul\":317:318   */\n      dup1\n        /* \"#utility.yul\":310:322   */\n      revert\n        /* \"#utility.yul\":334:483   */\n    tag_234:\n        /* \"#utility.yul\":370:377   */\n      0x00\n        /* \"#utility.yul\":410:476   */\n      0xffffffff00000000000000000000000000000000000000000000000000000000\n        /* \"#utility.yul\":403:408   */\n      dup3\n        /* \"#utility.yul\":399:477   */\n      and\n        /* \"#utility.yul\":388:477   */\n      swap1\n      pop\n        /* \"#utility.yul\":334:483   */\n      swap2\n      swap1\n      pop\n      jump\t// out\n        /* \"#utility.yul\":489:609   */\n    tag_235:\n        /* \"#utility.yul\":561:584   */\n      tag_304\n        /* \"#utility.yul\":578:583   */\n      dup2\n        /* \"#utility.yul\":561:584   */\n      tag_234\n      jump\t// in\n    tag_304:\n        /* \"#utility.yul\":554:559   */\n      dup2\n        /* \"#utility.yul\":551:585   */\n      eq\n        /* \"#utility.yul\":541:603   */\n      tag_305\n      jumpi\n        /* \"#utility.yul\":599:600   */\n      0x00\n        /* \"#utility.yul\":596:597   */\n      dup1\n        /* \"#utility.yul\":589:601   */\n      revert\n        /* \"#utility.yul\":541:603   */\n    tag_305:\n        /* \"#utility.yul\":489:609   */\n      pop\n      jump\t// out\n        /* \"#utility.yul\":615:752   */\n    tag_236:\n        /* \"#utility.yul\":660:665   */\n      0x00\n        /* \"#utility.yul\":698:704   */\n      dup2\n        /* \"#utility.yul\":685:705   */\n      calldataload\n        /* \"#utility.yul\":676:705   */\n      swap1\n      pop\n        /* \"#utility.yul\":714:746   */\n      tag_307\n        /* \"#utility.yul\":740:745   */\n      dup2\n        /* \"#utility.yul\":714:746   */\n      tag_235\n      jump\t// in\n    tag_307:\n        /* \"#utility.yul\":615:752   */\n      swap3\n      swap2\n      pop\n      pop\n      jump\t// out\n        /* \"#utility.yul\":758:1085   */\n    tag_25:\n        /* \"#utility.yul\":816:822   */\n      0x00\n        /* \"#utility.yul\":865:867   */\n      0x20\n        /* \"#utility.yul\":853:862   */\n      dup3\n        /* \"#utility.yul\":844:851   */\n      dup5\n        /* \"#utility.yul\":840:863   */\n      sub\n        /* \"#utility.yul\":836:868   */\n      slt\n        /* \"#utility.yul\":833:952   */\n      iszero\n      tag_309\n      jumpi\n        /* \"#utility.yul\":871:950   */\n      tag_310\n      tag_232\n      jump\t// in\n    tag_310:\n        /* \"#utility.yul\":833:952   */\n    tag_309:\n        /* \"#utility.yul\":991:992   */\n      0x00\n        /* \"#utility.yul\":1016:1068   */\n      tag_311\n        /* \"#utility.yul\":1060:1067   */\n      dup5\n        /* \"#utility.yul\":1051:1057   */\n      dup3\n        /* \"#utility.yul\":1040:1049   */\n      dup6\n        /* \"#utility.yul\":1036:1058   */\n      add\n        /* \"#utility.yul\":1016:1068   */\n      tag_236\n      jump\t// in\n    tag_311:\n        /* \"#utility.yul\":1006:1068   */\n      swap2\n      pop\n        /* \"#utility.yul\":962:1078   */\n      pop\n        /* \"#utility.yul\":758:1085   */\n      swap3\n      swap2\n      pop\n      pop\n      jump\t// out\n        /* \"#utility.yul\":1091:1181   */\n    tag_237:\n        /* \"#utility.yul\":1125:1132   */\n      0x00\n        /* \"#utility.yul\":1168:1173   */\n      dup2\n        /* \"#utility.yul\":1161:1174   */\n      iszero\n        /* \"#utility.yul\":1154:1175   */\n      iszero\n        /* \"#utility.yul\":1143:1175   */\n      swap1\n      pop\n        /* \"#utility.yul\":1091:1181   */\n      swap2\n      swap1\n      pop\n      jump\t// out\n        /* \"#utility.yul\":1187:1296   */\n    tag_238:\n        /* \"#utility.yul\":1268:1289   */\n      tag_314\n        /* \"#utility.yul\":1283:1288   */\n      dup2\n        /* \"#utility.yul\":1268:1289   */\n      tag_237\n      jump\t// in\n    tag_314:\n        /* \"#utility.yul\":1263:1266   */\n      dup3\n        /* \"#utility.yul\":1256:1290   */\n      mstore\n        /* \"#utility.yul\":1187:1296   */\n      pop\n      pop\n      jump\t// out\n        /* \"#utility.yul\":1302:1512   */\n    tag_28:\n        /* \"#utility.yul\":1389:1393   */\n      0x00\n        /* \"#utility.yul\":1427:1429   */\n      0x20\n        /* \"#utility.yul\":1416:1425   */\n      dup3\n        /* \"#utility.yul\":1412:1430   */\n      add\n        /* \"#utility.yul\":1404:1430   */\n      swap1\n      pop\n        /* \"#utility.yul\":1440:1505   */\n      tag_316\n        /* \"#utility.yul\":1502:1503   */\n      0x00\n        /* \"#utility.yul\":1491:1500   */\n      dup4\n        /* \"#utility.yul\":1487:1504   */\n      add\n        /* \"#utility.yul\":1478:1484   */\n      dup5\n        /* \"#utility.yul\":1440:1505   */\n      tag_238\n      jump\t// in\n    tag_316:\n        /* \"#utility.yul\":1302:1512   */\n      swap3\n      swap2\n      pop\n      pop\n      jump\t// out\n        /* \"#utility.yul\":1518:1595   */\n    tag_239:\n        /* \"#utility.yul\":1555:1562   */\n      0x00\n        /* \"#utility.yul\":1584:1589   */\n      dup2\n        /* \"#utility.yul\":1573:1589   */\n      swap1\n      pop\n        /* \"#utility.yul\":1518:1595   */\n      swap2\n      swap1\n      pop\n      jump\t// out\n        /* \"#utility.yul\":1601:1723   */\n    tag_240:\n        /* \"#utility.yul\":1674:1698   */\n      tag_319\n        /* \"#utility.yul\":1692:1697   */\n      dup2\n        /* \"#utility.yul\":1674:1698   */\n      tag_239\n      jump\t// in\n    tag_319:\n        /* \"#utility.yul\":1667:1672   */\n      dup2\n        /* \"#utility.yul\":1664:1699   */\n      eq\n        /* \"#utility.yul\":1654:1717   */\n      tag_320\n      jumpi\n        /* \"#utility.yul\":1713:1714   */\n      0x00\n        /* \"#utility.yul\":1710:1711   */\n      dup1\n        /* \"#utility.yul\":1703:1715   */\n      revert\n        /* \"#utility.yul\":1654:1717   */\n    tag_320:\n        /* \"#utility.yul\":1601:1723   */\n      pop\n      jump\t// out\n        /* \"#utility.yul\":1729:1868   */\n    tag_241:\n        /* \"#utility.yul\":1775:1780   */\n      0x00\n        /* \"#utility.yul\":1813:1819   */\n      dup2\n        /* \"#utility.yul\":1800:1820   */\n      calldataload\n        /* \"#utility.yul\":1791:1820   */\n      swap1\n      pop\n        /* \"#utility.yul\":1829:1862   */\n      tag_322\n        /* \"#utility.yul\":1856:1861   */\n      dup2\n        /* \"#utility.yul\":1829:1862   */\n      tag_240\n      jump\t// in\n    tag_322:\n        /* \"#utility.yul\":1729:1868   */\n      swap3\n      swap2\n      pop\n      pop\n      jump\t// out\n        /* \"#utility.yul\":1874:2203   */\n    tag_31:\n        /* \"#utility.yul\":1933:1939   */\n      0x00\n        /* \"#utility.yul\":1982:1984   */\n      0x20\n        /* \"#utility.yul\":1970:1979   */\n      dup3\n        /* \"#utility.yul\":1961:1968   */\n      dup5\n        /* \"#utility.yul\":1957:1980   */\n      sub\n        /* \"#utility.yul\":1953:1985   */\n      slt\n        /* \"#utility.yul\":1950:2069   */\n      iszero\n      tag_324\n      jumpi\n        /* \"#utility.yul\":1988:2067   */\n      tag_325\n      tag_232\n      jump\t// in\n    tag_325:\n        /* \"#utility.yul\":1950:2069   */\n    tag_324:\n        /* \"#utility.yul\":2108:2109   */\n      0x00\n        /* \"#utility.yul\":2133:2186   */\n      tag_326\n        /* \"#utility.yul\":2178:2185   */\n      dup5\n        /* \"#utility.yul\":2169:2175   */\n      dup3\n        /* \"#utility.yul\":2158:2167   */\n      dup6\n        /* \"#utility.yul\":2154:2176   */\n      add\n        /* \"#utility.yul\":2133:2186   */\n      tag_241\n      jump\t// in\n    tag_326:\n        /* \"#utility.yul\":2123:2186   */\n      swap2\n      pop\n        /* \"#utility.yul\":2079:2196   */\n      pop\n        /* \"#utility.yul\":1874:2203   */\n      swap3\n      swap2\n      pop\n      pop\n      jump\t// out\n        /* \"#utility.yul\":2209:2286   */\n    tag_242:\n        /* \"#utility.yul\":2246:2253   */\n      0x00\n        /* \"#utility.yul\":2275:2280   */\n      dup2\n        /* \"#utility.yul\":2264:2280   */\n      swap1\n      pop\n        /* \"#utility.yul\":2209:2286   */\n      swap2\n      swap1\n      pop\n      jump\t// out\n        /* \"#utility.yul\":2292:2414   */\n    tag_243:\n        /* \"#utility.yul\":2365:2389   */\n      tag_329\n        /* \"#utility.yul\":2383:2388   */\n      dup2\n        /* \"#utility.yul\":2365:2389   */\n      tag_242\n      jump\t// in\n    tag_329:\n        /* \"#utility.yul\":2358:2363   */\n      dup2\n        /* \"#utility.yul\":2355:2390   */\n      eq\n        /* \"#utility.yul\":2345:2408   */\n      tag_330\n      jumpi\n        /* \"#utility.yul\":2404:2405   */\n      0x00\n        /* \"#utility.yul\":2401:2402   */\n      dup1\n        /* \"#utility.yul\":2394:2406   */\n      revert\n        /* \"#utility.yul\":2345:2408   */\n    tag_330:\n        /* \"#utility.yul\":2292:2414   */\n      pop\n      jump\t// out\n        /* \"#utility.yul\":2420:2559   */\n    tag_244:\n        /* \"#utility.yul\":2466:2471   */\n      0x00\n        /* \"#utility.yul\":2504:2510   */\n      dup2\n        /* \"#utility.yul\":2491:2511   */\n      calldataload\n        /* \"#utility.yul\":2482:2511   */\n      swap1\n      pop\n        /* \"#utility.yul\":2520:2553   */\n      tag_332\n        /* \"#utility.yul\":2547:2552   */\n      dup2\n        /* \"#utility.yul\":2520:2553   */\n      tag_243\n      jump\t// in\n    tag_332:\n        /* \"#utility.yul\":2420:2559   */\n      swap3\n      swap2\n      pop\n      pop\n      jump\t// out\n        /* \"#utility.yul\":2565:2894   */\n    tag_35:\n        /* \"#utility.yul\":2624:2630   */\n      0x00\n        /* \"#utility.yul\":2673:2675   */\n      0x20\n        /* \"#utility.yul\":2661:2670   */\n      dup3\n        /* \"#utility.yul\":2652:2659   */\n      dup5\n        /* \"#utility.yul\":2648:2671   */\n      sub\n        /* \"#utility.yul\":2644:2676   */\n      slt\n        /* \"#utility.yul\":2641:2760   */\n      iszero\n      tag_334\n      jumpi\n        /* \"#utility.yul\":2679:2758   */\n      tag_335\n      tag_232\n      jump\t// in\n    tag_335:\n        /* \"#utility.yul\":2641:2760   */\n    tag_334:\n        /* \"#utility.yul\":2799:2800   */\n      0x00\n        /* \"#utility.yul\":2824:2877   */\n      tag_336\n        /* \"#utility.yul\":2869:2876   */\n      dup5\n        /* \"#utility.yul\":2860:2866   */\n      dup3\n        /* \"#utility.yul\":2849:2858   */\n      dup6\n        /* \"#utility.yul\":2845:2867   */\n      add\n        /* \"#utility.yul\":2824:2877   */\n      tag_244\n      jump\t// in\n    tag_336:\n        /* \"#utility.yul\":2814:2877   */\n      swap2\n      pop\n        /* \"#utility.yul\":2770:2887   */\n      pop\n        /* \"#utility.yul\":2565:2894   */\n      swap3\n      swap2\n      pop\n      pop\n      jump\t// out\n        /* \"#utility.yul\":2900:3018   */\n    tag_245:\n        /* \"#utility.yul\":2987:3011   */\n      tag_338\n        /* \"#utility.yul\":3005:3010   */\n      dup2\n        /* \"#utility.yul\":2987:3011   */\n      tag_242\n      jump\t// in\n    tag_338:\n        /* \"#utility.yul\":2982:2985   */\n      dup3\n        /* \"#utility.yul\":2975:3012   */\n      mstore\n        /* \"#utility.yul\":2900:3018   */\n      pop\n      pop\n      jump\t// out\n        /* \"#utility.yul\":3024:3246   */\n    tag_38:\n        /* \"#utility.yul\":3117:3121   */\n      0x00\n        /* \"#utility.yul\":3155:3157   */\n      0x20\n        /* \"#utility.yul\":3144:3153   */\n      dup3\n        /* \"#utility.yul\":3140:3158   */\n      add\n        /* \"#utility.yul\":3132:3158   */\n      swap1\n      pop\n        /* \"#utility.yul\":3168:3239   */\n      tag_340\n        /* \"#utility.yul\":3236:3237   */\n      0x00\n        /* \"#utility.yul\":3225:3234   */\n      dup4\n        /* \"#utility.yul\":3221:3238   */\n      add\n        /* \"#utility.yul\":3212:3218   */\n      dup5\n        /* \"#utility.yul\":3168:3239   */\n      tag_245\n      jump\t// in\n    tag_340:\n        /* \"#utility.yul\":3024:3246   */\n      swap3\n      swap2\n      pop\n      pop\n      jump\t// out\n        /* \"#utility.yul\":3252:3378   */\n    tag_246:\n        /* \"#utility.yul\":3289:3296   */\n      0x00\n        /* \"#utility.yul\":3329:3371   */\n      0xffffffffffffffffffffffffffffffffffffffff\n        /* \"#utility.yul\":3322:3327   */\n      dup3\n        /* \"#utility.yul\":3318:3372   */\n      and\n        /* \"#utility.yul\":3307:3372   */\n      swap1\n      pop\n        /* \"#utility.yul\":3252:3378   */\n      swap2\n      swap1\n      pop\n      jump\t// out\n        /* \"#utility.yul\":3384:3480   */\n    tag_247:\n        /* \"#utility.yul\":3421:3428   */\n      0x00\n        /* \"#utility.yul\":3450:3474   */\n      tag_343\n        /* \"#utility.yul\":3468:3473   */\n      dup3\n        /* \"#utility.yul\":3450:3474   */\n      tag_246\n      jump\t// in\n    tag_343:\n        /* \"#utility.yul\":3439:3474   */\n      swap1\n      pop\n        /* \"#utility.yul\":3384:3480   */\n      swap2\n      swap1\n      pop\n      jump\t// out\n        /* \"#utility.yul\":3486:3608   */\n    tag_248:\n        /* \"#utility.yul\":3559:3583   */\n      tag_345\n        /* \"#utility.yul\":3577:3582   */\n      dup2\n        /* \"#utility.yul\":3559:3583   */\n      tag_247\n      jump\t// in\n    tag_345:\n        /* \"#utility.yul\":3552:3557   */\n      dup2\n        /* \"#utility.yul\":3549:3584   */\n      eq\n        /* \"#utility.yul\":3539:3602   */\n      tag_346\n      jumpi\n        /* \"#utility.yul\":3598:3599   */\n      0x00\n        /* \"#utility.yul\":3595:3596   */\n      dup1\n        /* \"#utility.yul\":3588:3600   */\n      revert\n        /* \"#utility.yul\":3539:3602   */\n    tag_346:\n        /* \"#utility.yul\":3486:3608   */\n      pop\n      jump\t// out\n        /* \"#utility.yul\":3614:3753   */\n    tag_249:\n        /* \"#utility.yul\":3660:3665   */\n      0x00\n        /* \"#utility.yul\":3698:3704   */\n      dup2\n        /* \"#utility.yul\":3685:3705   */\n      calldataload\n        /* \"#utility.yul\":3676:3705   */\n      swap1\n      pop\n        /* \"#utility.yul\":3714:3747   */\n      tag_348\n        /* \"#utility.yul\":3741:3746   */\n      dup2\n        /* \"#utility.yul\":3714:3747   */\n      tag_248\n      jump\t// in\n    tag_348:\n        /* \"#utility.yul\":3614:3753   */\n      swap3\n      swap2\n      pop\n      pop\n      jump\t// out\n        /* \"#utility.yul\":3759:4233   */\n    tag_41:\n        /* \"#utility.yul\":3827:3833   */\n      0x00\n        /* \"#utility.yul\":3835:3841   */\n      dup1\n        /* \"#utility.yul\":3884:3886   */\n      0x40\n        /* \"#utility.yul\":3872:3881   */\n      dup4\n        /* \"#utility.yul\":3863:3870   */\n      dup6\n        /* \"#utility.yul\":3859:3882   */\n      sub\n        /* \"#utility.yul\":3855:3887   */\n      slt\n        /* \"#utility.yul\":3852:3971   */\n      iszero\n      tag_350\n      jumpi\n        /* \"#utility.yul\":3890:3969   */\n      tag_351\n      tag_232\n      jump\t// in\n    tag_351:\n        /* \"#utility.yul\":3852:3971   */\n    tag_350:\n        /* \"#utility.yul\":4010:4011   */\n      0x00\n        /* \"#utility.yul\":4035:4088   */\n      tag_352\n        /* \"#utility.yul\":4080:4087   */\n      dup6\n        /* \"#utility.yul\":4071:4077   */\n      dup3\n        /* \"#utility.yul\":4060:4069   */\n      dup7\n        /* \"#utility.yul\":4056:4078   */\n      add\n        /* \"#utility.yul\":4035:4088   */\n      tag_244\n      jump\t// in\n    tag_352:\n        /* \"#utility.yul\":4025:4088   */\n      swap3\n      pop\n        /* \"#utility.yul\":3981:4098   */\n      pop\n        /* \"#utility.yul\":4137:4139   */\n      0x20\n        /* \"#utility.yul\":4163:4216   */\n      tag_353\n        /* \"#utility.yul\":4208:4215   */\n      dup6\n        /* \"#utility.yul\":4199:4205   */\n      dup3\n        /* \"#utility.yul\":4188:4197   */\n      dup7\n        /* \"#utility.yul\":4184:4206   */\n      add\n        /* \"#utility.yul\":4163:4216   */\n      tag_249\n      jump\t// in\n    tag_353:\n        /* \"#utility.yul\":4153:4216   */\n      swap2\n      pop\n        /* \"#utility.yul\":4108:4226   */\n      pop\n        /* \"#utility.yul\":3759:4233   */\n      swap3\n      pop\n      swap3\n      swap1\n      pop\n      jump\t// out\n        /* \"#utility.yul\":4239:4299   */\n    tag_250:\n        /* \"#utility.yul\":4267:4270   */\n      0x00\n        /* \"#utility.yul\":4288:4293   */\n      dup2\n        /* \"#utility.yul\":4281:4293   */\n      swap1\n      pop\n        /* \"#utility.yul\":4239:4299   */\n      swap2\n      swap1\n      pop\n      jump\t// out\n        /* \"#utility.yul\":4305:4447   */\n    tag_251:\n        /* \"#utility.yul\":4355:4364   */\n      0x00\n        /* \"#utility.yul\":4388:4441   */\n      tag_356\n        /* \"#utility.yul\":4406:4440   */\n      tag_357\n        /* \"#utility.yul\":4415:4439   */\n      tag_358\n        /* \"#utility.yul\":4433:4438   */\n      dup5\n        /* \"#utility.yul\":4415:4439   */\n      tag_246\n      jump\t// in\n    tag_358:\n        /* \"#utility.yul\":4406:4440   */\n      tag_250\n      jump\t// in\n    tag_357:\n        /* \"#utility.yul\":4388:4441   */\n      tag_246\n      jump\t// in\n    tag_356:\n        /* \"#utility.yul\":4375:4441   */\n      swap1\n      pop\n        /* \"#utility.yul\":4305:4447   */\n      swap2\n      swap1\n      pop\n      jump\t// out\n        /* \"#utility.yul\":4453:4579   */\n    tag_252:\n        /* \"#utility.yul\":4503:4512   */\n      0x00\n        /* \"#utility.yul\":4536:4573   */\n      tag_360\n        /* \"#utility.yul\":4567:4572   */\n      dup3\n        /* \"#utility.yul\":4536:4573   */\n      tag_251\n      jump\t// in\n    tag_360:\n        /* \"#utility.yul\":4523:4573   */\n      swap1\n      pop\n        /* \"#utility.yul\":4453:4579   */\n      swap2\n      swap1\n      pop\n      jump\t// out\n        /* \"#utility.yul\":4585:4727   */\n    tag_253:\n        /* \"#utility.yul\":4651:4660   */\n      0x00\n        /* \"#utility.yul\":4684:4721   */\n      tag_362\n        /* \"#utility.yul\":4715:4720   */\n      dup3\n        /* \"#utility.yul\":4684:4721   */\n      tag_252\n      jump\t// in\n    tag_362:\n        /* \"#utility.yul\":4671:4721   */\n      swap1\n      pop\n        /* \"#utility.yul\":4585:4727   */\n      swap2\n      swap1\n      pop\n      jump\t// out\n        /* \"#utility.yul\":4733:4896   */\n    tag_254:\n        /* \"#utility.yul\":4836:4889   */\n      tag_364\n        /* \"#utility.yul\":4883:4888   */\n      dup2\n        /* \"#utility.yul\":4836:4889   */\n      tag_253\n      jump\t// in\n    tag_364:\n        /* \"#utility.yul\":4831:4834   */\n      dup3\n        /* \"#utility.yul\":4824:4890   */\n      mstore\n        /* \"#utility.yul\":4733:4896   */\n      pop\n      pop\n      jump\t// out\n        /* \"#utility.yul\":4902:5156   */\n    tag_49:\n        /* \"#utility.yul\":5011:5015   */\n      0x00\n        /* \"#utility.yul\":5049:5051   */\n      0x20\n        /* \"#utility.yul\":5038:5047   */\n      dup3\n        /* \"#utility.yul\":5034:5052   */\n      add\n        /* \"#utility.yul\":5026:5052   */\n      swap1\n      pop\n        /* \"#utility.yul\":5062:5149   */\n      tag_366\n        /* \"#utility.yul\":5146:5147   */\n      0x00\n        /* \"#utility.yul\":5135:5144   */\n      dup4\n        /* \"#utility.yul\":5131:5148   */\n      add\n        /* \"#utility.yul\":5122:5128   */\n      dup5\n        /* \"#utility.yul\":5062:5149   */\n      tag_254\n      jump\t// in\n    tag_366:\n        /* \"#utility.yul\":4902:5156   */\n      swap3\n      swap2\n      pop\n      pop\n      jump\t// out\n        /* \"#utility.yul\":5162:5279   */\n    tag_255:\n        /* \"#utility.yul\":5271:5272   */\n      0x00\n        /* \"#utility.yul\":5268:5269   */\n      dup1\n        /* \"#utility.yul\":5261:5273   */\n      revert\n        /* \"#utility.yul\":5285:5402   */\n    tag_256:\n        /* \"#utility.yul\":5394:5395   */\n      0x00\n        /* \"#utility.yul\":5391:5392   */\n      dup1\n        /* \"#utility.yul\":5384:5396   */\n      revert\n        /* \"#utility.yul\":5408:5510   */\n    tag_257:\n        /* \"#utility.yul\":5449:5455   */\n      0x00\n        /* \"#utility.yul\":5500:5502   */\n      0x1f\n        /* \"#utility.yul\":5496:5503   */\n      not\n        /* \"#utility.yul\":5491:5493   */\n      0x1f\n        /* \"#utility.yul\":5484:5489   */\n      dup4\n        /* \"#utility.yul\":5480:5494   */\n      add\n        /* \"#utility.yul\":5476:5504   */\n      and\n        /* \"#utility.yul\":5466:5504   */\n      swap1\n      pop\n        /* \"#utility.yul\":5408:5510   */\n      swap2\n      swap1\n      pop\n      jump\t// out\n        /* \"#utility.yul\":5516:5696   */\n    tag_211:\n        /* \"#utility.yul\":5564:5641   */\n      0x4e487b7100000000000000000000000000000000000000000000000000000000\n        /* \"#utility.yul\":5561:5562   */\n      0x00\n        /* \"#utility.yul\":5554:5642   */\n      mstore\n        /* \"#utility.yul\":5661:5665   */\n      0x41\n        /* \"#utility.yul\":5658:5659   */\n      0x04\n        /* \"#utility.yul\":5651:5666   */\n      mstore\n        /* \"#utility.yul\":5685:5689   */\n      0x24\n        /* \"#utility.yul\":5682:5683   */\n      0x00\n        /* \"#utility.yul\":5675:5690   */\n      revert\n        /* \"#utility.yul\":5702:5983   */\n    tag_258:\n        /* \"#utility.yul\":5785:5812   */\n      tag_372\n        /* \"#utility.yul\":5807:5811   */\n      dup3\n        /* \"#utility.yul\":5785:5812   */\n      tag_257\n      jump\t// in\n    tag_372:\n        /* \"#utility.yul\":5777:5783   */\n      dup2\n        /* \"#utility.yul\":5773:5813   */\n      add\n        /* \"#utility.yul\":5915:5921   */\n      dup2\n        /* \"#utility.yul\":5903:5913   */\n      dup2\n        /* \"#utility.yul\":5900:5922   */\n      lt\n        /* \"#utility.yul\":5879:5897   */\n      0xffffffffffffffff\n        /* \"#utility.yul\":5867:5877   */\n      dup3\n        /* \"#utility.yul\":5864:5898   */\n      gt\n        /* \"#utility.yul\":5861:5923   */\n      or\n        /* \"#utility.yul\":5858:5946   */\n      iszero\n      tag_373\n      jumpi\n        /* \"#utility.yul\":5926:5944   */\n      tag_374\n      tag_211\n      jump\t// in\n    tag_374:\n        /* \"#utility.yul\":5858:5946   */\n    tag_373:\n        /* \"#utility.yul\":5966:5976   */\n      dup1\n        /* \"#utility.yul\":5962:5964   */\n      0x40\n        /* \"#utility.yul\":5955:5977   */\n      mstore\n        /* \"#utility.yul\":5745:5983   */\n      pop\n        /* \"#utility.yul\":5702:5983   */\n      pop\n      pop\n      jump\t// out\n        /* \"#utility.yul\":5989:6118   */\n    tag_259:\n        /* \"#utility.yul\":6023:6029   */\n      0x00\n        /* \"#utility.yul\":6050:6070   */\n      tag_376\n      tag_231\n      jump\t// in\n    tag_376:\n        /* \"#utility.yul\":6040:6070   */\n      swap1\n      pop\n        /* \"#utility.yul\":6079:6112   */\n      tag_377\n        /* \"#utility.yul\":6107:6111   */\n      dup3\n        /* \"#utility.yul\":6099:6105   */\n      dup3\n        /* \"#utility.yul\":6079:6112   */\n      tag_258\n      jump\t// in\n    tag_377:\n        /* \"#utility.yul\":5989:6118   */\n      swap2\n      swap1\n      pop\n      jump\t// out\n        /* \"#utility.yul\":6124:6432   */\n    tag_260:\n        /* \"#utility.yul\":6186:6190   */\n      0x00\n        /* \"#utility.yul\":6276:6294   */\n      0xffffffffffffffff\n        /* \"#utility.yul\":6268:6274   */\n      dup3\n        /* \"#utility.yul\":6265:6295   */\n      gt\n        /* \"#utility.yul\":6262:6318   */\n      iszero\n      tag_379\n      jumpi\n        /* \"#utility.yul\":6298:6316   */\n      tag_380\n      tag_211\n      jump\t// in\n    tag_380:\n        /* \"#utility.yul\":6262:6318   */\n    tag_379:\n        /* \"#utility.yul\":6336:6365   */\n      tag_381\n        /* \"#utility.yul\":6358:6364   */\n      dup3\n        /* \"#utility.yul\":6336:6365   */\n      tag_257\n      jump\t// in\n    tag_381:\n        /* \"#utility.yul\":6328:6365   */\n      swap1\n      pop\n        /* \"#utility.yul\":6420:6424   */\n      0x20\n        /* \"#utility.yul\":6414:6418   */\n      dup2\n        /* \"#utility.yul\":6410:6425   */\n      add\n        /* \"#utility.yul\":6402:6425   */\n      swap1\n      pop\n        /* \"#utility.yul\":6124:6432   */\n      swap2\n      swap1\n      pop\n      jump\t// out\n        /* \"#utility.yul\":6438:6592   */\n    tag_261:\n        /* \"#utility.yul\":6522:6528   */\n      dup3\n        /* \"#utility.yul\":6517:6520   */\n      dup2\n        /* \"#utility.yul\":6512:6515   */\n      dup4\n        /* \"#utility.yul\":6499:6529   */\n      calldatacopy\n        /* \"#utility.yul\":6584:6585   */\n      0x00\n        /* \"#utility.yul\":6575:6581   */\n      dup4\n        /* \"#utility.yul\":6570:6573   */\n      dup4\n        /* \"#utility.yul\":6566:6582   */\n      add\n        /* \"#utility.yul\":6559:6586   */\n      mstore\n        /* \"#utility.yul\":6438:6592   */\n      pop\n      pop\n      pop\n      jump\t// out\n        /* \"#utility.yul\":6598:7010   */\n    tag_262:\n        /* \"#utility.yul\":6676:6681   */\n      0x00\n        /* \"#utility.yul\":6701:6767   */\n      tag_384\n        /* \"#utility.yul\":6717:6766   */\n      tag_385\n        /* \"#utility.yul\":6759:6765   */\n      dup5\n        /* \"#utility.yul\":6717:6766   */\n      tag_260\n      jump\t// in\n    tag_385:\n        /* \"#utility.yul\":6701:6767   */\n      tag_259\n      jump\t// in\n    tag_384:\n        /* \"#utility.yul\":6692:6767   */\n      swap1\n      pop\n        /* \"#utility.yul\":6790:6796   */\n      dup3\n        /* \"#utility.yul\":6783:6788   */\n      dup2\n        /* \"#utility.yul\":6776:6797   */\n      mstore\n        /* \"#utility.yul\":6828:6832   */\n      0x20\n        /* \"#utility.yul\":6821:6826   */\n      dup2\n        /* \"#utility.yul\":6817:6833   */\n      add\n        /* \"#utility.yul\":6866:6869   */\n      dup5\n        /* \"#utility.yul\":6857:6863   */\n      dup5\n        /* \"#utility.yul\":6852:6855   */\n      dup5\n        /* \"#utility.yul\":6848:6864   */\n      add\n        /* \"#utility.yul\":6845:6870   */\n      gt\n        /* \"#utility.yul\":6842:6954   */\n      iszero\n      tag_386\n      jumpi\n        /* \"#utility.yul\":6873:6952   */\n      tag_387\n      tag_256\n      jump\t// in\n    tag_387:\n        /* \"#utility.yul\":6842:6954   */\n    tag_386:\n        /* \"#utility.yul\":6963:7004   */\n      tag_388\n        /* \"#utility.yul\":6997:7003   */\n      dup5\n        /* \"#utility.yul\":6992:6995   */\n      dup3\n        /* \"#utility.yul\":6987:6990   */\n      dup6\n        /* \"#utility.yul\":6963:7004   */\n      tag_261\n      jump\t// in\n    tag_388:\n        /* \"#utility.yul\":6682:7010   */\n      pop\n        /* \"#utility.yul\":6598:7010   */\n      swap4\n      swap3\n      pop\n      pop\n      pop\n      jump\t// out\n        /* \"#utility.yul\":7030:7370   */\n    tag_263:\n        /* \"#utility.yul\":7086:7091   */\n      0x00\n        /* \"#utility.yul\":7135:7138   */\n      dup3\n        /* \"#utility.yul\":7128:7132   */\n      0x1f\n        /* \"#utility.yul\":7120:7126   */\n      dup4\n        /* \"#utility.yul\":7116:7133   */\n      add\n        /* \"#utility.yul\":7112:7139   */\n      slt\n        /* \"#utility.yul\":7102:7224   */\n      tag_390\n      jumpi\n        /* \"#utility.yul\":7143:7222   */\n      tag_391\n      tag_255\n      jump\t// in\n    tag_391:\n        /* \"#utility.yul\":7102:7224   */\n    tag_390:\n        /* \"#utility.yul\":7260:7266   */\n      dup2\n        /* \"#utility.yul\":7247:7267   */\n      calldataload\n        /* \"#utility.yul\":7285:7364   */\n      tag_392\n        /* \"#utility.yul\":7360:7363   */\n      dup5\n        /* \"#utility.yul\":7352:7358   */\n      dup3\n        /* \"#utility.yul\":7345:7349   */\n      0x20\n        /* \"#utility.yul\":7337:7343   */\n      dup7\n        /* \"#utility.yul\":7333:7350   */\n      add\n        /* \"#utility.yul\":7285:7364   */\n      tag_262\n      jump\t// in\n    tag_392:\n        /* \"#utility.yul\":7276:7364   */\n      swap2\n      pop\n        /* \"#utility.yul\":7092:7370   */\n      pop\n        /* \"#utility.yul\":7030:7370   */\n      swap3\n      swap2\n      pop\n      pop\n      jump\t// out\n        /* \"#utility.yul\":7376:7885   */\n    tag_55:\n        /* \"#utility.yul\":7445:7451   */\n      0x00\n        /* \"#utility.yul\":7494:7496   */\n      0x20\n        /* \"#utility.yul\":7482:7491   */\n      dup3\n        /* \"#utility.yul\":7473:7480   */\n      dup5\n        /* \"#utility.yul\":7469:7492   */\n      sub\n        /* \"#utility.yul\":7465:7497   */\n      slt\n        /* \"#utility.yul\":7462:7581   */\n      iszero\n      tag_394\n      jumpi\n        /* \"#utility.yul\":7500:7579   */\n      tag_395\n      tag_232\n      jump\t// in\n    tag_395:\n        /* \"#utility.yul\":7462:7581   */\n    tag_394:\n        /* \"#utility.yul\":7648:7649   */\n      0x00\n        /* \"#utility.yul\":7637:7646   */\n      dup3\n        /* \"#utility.yul\":7633:7650   */\n      add\n        /* \"#utility.yul\":7620:7651   */\n      calldataload\n        /* \"#utility.yul\":7678:7696   */\n      0xffffffffffffffff\n        /* \"#utility.yul\":7670:7676   */\n      dup2\n        /* \"#utility.yul\":7667:7697   */\n      gt\n        /* \"#utility.yul\":7664:7781   */\n      iszero\n      tag_396\n      jumpi\n        /* \"#utility.yul\":7700:7779   */\n      tag_397\n      tag_233\n      jump\t// in\n    tag_397:\n        /* \"#utility.yul\":7664:7781   */\n    tag_396:\n        /* \"#utility.yul\":7805:7868   */\n      tag_398\n        /* \"#utility.yul\":7860:7867   */\n      dup5\n        /* \"#utility.yul\":7851:7857   */\n      dup3\n        /* \"#utility.yul\":7840:7849   */\n      dup6\n        /* \"#utility.yul\":7836:7858   */\n      add\n        /* \"#utility.yul\":7805:7868   */\n      tag_263\n      jump\t// in\n    tag_398:\n        /* \"#utility.yul\":7795:7868   */\n      swap2\n      pop\n        /* \"#utility.yul\":7591:7878   */\n      pop\n        /* \"#utility.yul\":7376:7885   */\n      swap3\n      swap2\n      pop\n      pop\n      jump\t// out\n        /* \"#utility.yul\":7891:8009   */\n    tag_264:\n        /* \"#utility.yul\":7978:8002   */\n      tag_400\n        /* \"#utility.yul\":7996:8001   */\n      dup2\n        /* \"#utility.yul\":7978:8002   */\n      tag_239\n      jump\t// in\n    tag_400:\n        /* \"#utility.yul\":7973:7976   */\n      dup3\n        /* \"#utility.yul\":7966:8003   */\n      mstore\n        /* \"#utility.yul\":7891:8009   */\n      pop\n      pop\n      jump\t// out\n        /* \"#utility.yul\":8015:8237   */\n    tag_58:\n        /* \"#utility.yul\":8108:8112   */\n      0x00\n        /* \"#utility.yul\":8146:8148   */\n      0x20\n        /* \"#utility.yul\":8135:8144   */\n      dup3\n        /* \"#utility.yul\":8131:8149   */\n      add\n        /* \"#utility.yul\":8123:8149   */\n      swap1\n      pop\n        /* \"#utility.yul\":8159:8230   */\n      tag_402\n        /* \"#utility.yul\":8227:8228   */\n      0x00\n        /* \"#utility.yul\":8216:8225   */\n      dup4\n        /* \"#utility.yul\":8212:8229   */\n      add\n        /* \"#utility.yul\":8203:8209   */\n      dup5\n        /* \"#utility.yul\":8159:8230   */\n      tag_264\n      jump\t// in\n    tag_402:\n        /* \"#utility.yul\":8015:8237   */\n      swap3\n      swap2\n      pop\n      pop\n      jump\t// out\n        /* \"#utility.yul\":8243:8717   */\n    tag_65:\n        /* \"#utility.yul\":8311:8317   */\n      0x00\n        /* \"#utility.yul\":8319:8325   */\n      dup1\n        /* \"#utility.yul\":8368:8370   */\n      0x40\n        /* \"#utility.yul\":8356:8365   */\n      dup4\n        /* \"#utility.yul\":8347:8354   */\n      dup6\n        /* \"#utility.yul\":8343:8366   */\n      sub\n        /* \"#utility.yul\":8339:8371   */\n      slt\n        /* \"#utility.yul\":8336:8455   */\n      iszero\n      tag_404\n      jumpi\n        /* \"#utility.yul\":8374:8453   */\n      tag_405\n      tag_232\n      jump\t// in\n    tag_405:\n        /* \"#utility.yul\":8336:8455   */\n    tag_404:\n        /* \"#utility.yul\":8494:8495   */\n      0x00\n        /* \"#utility.yul\":8519:8572   */\n      tag_406\n        /* \"#utility.yul\":8564:8571   */\n      dup6\n        /* \"#utility.yul\":8555:8561   */\n      dup3\n        /* \"#utility.yul\":8544:8553   */\n      dup7\n        /* \"#utility.yul\":8540:8562   */\n      add\n        /* \"#utility.yul\":8519:8572   */\n      tag_249\n      jump\t// in\n    tag_406:\n        /* \"#utility.yul\":8509:8572   */\n      swap3\n      pop\n        /* \"#utility.yul\":8465:8582   */\n      pop\n        /* \"#utility.yul\":8621:8623   */\n      0x20\n        /* \"#utility.yul\":8647:8700   */\n      tag_407\n        /* \"#utility.yul\":8692:8699   */\n      dup6\n        /* \"#utility.yul\":8683:8689   */\n      dup3\n        /* \"#utility.yul\":8672:8681   */\n      dup7\n        /* \"#utility.yul\":8668:8690   */\n      add\n        /* \"#utility.yul\":8647:8700   */\n      tag_241\n      jump\t// in\n    tag_407:\n        /* \"#utility.yul\":8637:8700   */\n      swap2\n      pop\n        /* \"#utility.yul\":8592:8710   */\n      pop\n        /* \"#utility.yul\":8243:8717   */\n      swap3\n      pop\n      swap3\n      swap1\n      pop\n      jump\t// out\n        /* \"#utility.yul\":8723:8841   */\n    tag_265:\n        /* \"#utility.yul\":8810:8834   */\n      tag_409\n        /* \"#utility.yul\":8828:8833   */\n      dup2\n        /* \"#utility.yul\":8810:8834   */\n      tag_247\n      jump\t// in\n    tag_409:\n        /* \"#utility.yul\":8805:8808   */\n      dup3\n        /* \"#utility.yul\":8798:8835   */\n      mstore\n        /* \"#utility.yul\":8723:8841   */\n      pop\n      pop\n      jump\t// out\n        /* \"#utility.yul\":8847:9069   */\n    tag_73:\n        /* \"#utility.yul\":8940:8944   */\n      0x00\n        /* \"#utility.yul\":8978:8980   */\n      0x20\n        /* \"#utility.yul\":8967:8976   */\n      dup3\n        /* \"#utility.yul\":8963:8981   */\n      add\n        /* \"#utility.yul\":8955:8981   */\n      swap1\n      pop\n        /* \"#utility.yul\":8991:9062   */\n      tag_411\n        /* \"#utility.yul\":9059:9060   */\n      0x00\n        /* \"#utility.yul\":9048:9057   */\n      dup4\n        /* \"#utility.yul\":9044:9061   */\n      add\n        /* \"#utility.yul\":9035:9041   */\n      dup5\n        /* \"#utility.yul\":8991:9062   */\n      tag_265\n      jump\t// in\n    tag_411:\n        /* \"#utility.yul\":8847:9069   */\n      swap3\n      swap2\n      pop\n      pop\n      jump\t// out\n        /* \"#utility.yul\":9075:9180   */\n    tag_266:\n        /* \"#utility.yul\":9141:9147   */\n      0x00\n        /* \"#utility.yul\":9169:9173   */\n      0x10\n        /* \"#utility.yul\":9159:9173   */\n      swap1\n      pop\n        /* \"#utility.yul\":9075:9180   */\n      swap2\n      swap1\n      pop\n      jump\t// out\n        /* \"#utility.yul\":9186:9330   */\n    tag_267:\n        /* \"#utility.yul\":9284:9295   */\n      0x00\n        /* \"#utility.yul\":9321:9324   */\n      dup2\n        /* \"#utility.yul\":9306:9324   */\n      swap1\n      pop\n        /* \"#utility.yul\":9186:9330   */\n      swap3\n      swap2\n      pop\n      pop\n      jump\t// out\n        /* \"#utility.yul\":9336:9435   */\n    tag_268:\n        /* \"#utility.yul\":9402:9406   */\n      0x00\n        /* \"#utility.yul\":9425:9428   */\n      dup2\n        /* \"#utility.yul\":9417:9428   */\n      swap1\n      pop\n        /* \"#utility.yul\":9336:9435   */\n      swap2\n      swap1\n      pop\n      jump\t// out\n        /* \"#utility.yul\":9441:9549   */\n    tag_269:\n        /* \"#utility.yul\":9518:9542   */\n      tag_416\n        /* \"#utility.yul\":9536:9541   */\n      dup2\n        /* \"#utility.yul\":9518:9542   */\n      tag_239\n      jump\t// in\n    tag_416:\n        /* \"#utility.yul\":9513:9516   */\n      dup3\n        /* \"#utility.yul\":9506:9543   */\n      mstore\n        /* \"#utility.yul\":9441:9549   */\n      pop\n      pop\n      jump\t// out\n        /* \"#utility.yul\":9555:9734   */\n    tag_270:\n        /* \"#utility.yul\":9624:9634   */\n      0x00\n        /* \"#utility.yul\":9645:9691   */\n      tag_418\n        /* \"#utility.yul\":9687:9690   */\n      dup4\n        /* \"#utility.yul\":9679:9685   */\n      dup4\n        /* \"#utility.yul\":9645:9691   */\n      tag_269\n      jump\t// in\n    tag_418:\n        /* \"#utility.yul\":9723:9727   */\n      0x20\n        /* \"#utility.yul\":9718:9721   */\n      dup4\n        /* \"#utility.yul\":9714:9728   */\n      add\n        /* \"#utility.yul\":9700:9728   */\n      swap1\n      pop\n        /* \"#utility.yul\":9555:9734   */\n      swap3\n      swap2\n      pop\n      pop\n      jump\t// out\n        /* \"#utility.yul\":9740:9852   */\n    tag_271:\n        /* \"#utility.yul\":9809:9813   */\n      0x00\n        /* \"#utility.yul\":9841:9845   */\n      0x20\n        /* \"#utility.yul\":9836:9839   */\n      dup3\n        /* \"#utility.yul\":9832:9846   */\n      add\n        /* \"#utility.yul\":9824:9846   */\n      swap1\n      pop\n        /* \"#utility.yul\":9740:9852   */\n      swap2\n      swap1\n      pop\n      jump\t// out\n        /* \"#utility.yul\":9892:10592   */\n    tag_272:\n        /* \"#utility.yul\":10030:10083   */\n      tag_421\n        /* \"#utility.yul\":10077:10082   */\n      dup2\n        /* \"#utility.yul\":10030:10083   */\n      tag_266\n      jump\t// in\n    tag_421:\n        /* \"#utility.yul\":10099:10184   */\n      tag_422\n        /* \"#utility.yul\":10177:10183   */\n      dup2\n        /* \"#utility.yul\":10172:10175   */\n      dup5\n        /* \"#utility.yul\":10099:10184   */\n      tag_267\n      jump\t// in\n    tag_422:\n        /* \"#utility.yul\":10092:10184   */\n      swap3\n      pop\n        /* \"#utility.yul\":10208:10263   */\n      tag_423\n        /* \"#utility.yul\":10257:10262   */\n      dup3\n        /* \"#utility.yul\":10208:10263   */\n      tag_268\n      jump\t// in\n    tag_423:\n        /* \"#utility.yul\":10286:10293   */\n      dup1\n        /* \"#utility.yul\":10317:10318   */\n      0x00\n        /* \"#utility.yul\":10302:10585   */\n    tag_424:\n        /* \"#utility.yul\":10327:10333   */\n      dup4\n        /* \"#utility.yul\":10324:10325   */\n      dup2\n        /* \"#utility.yul\":10321:10334   */\n      lt\n        /* \"#utility.yul\":10302:10585   */\n      iszero\n      tag_426\n      jumpi\n        /* \"#utility.yul\":10403:10409   */\n      dup2\n        /* \"#utility.yul\":10397:10410   */\n      mload\n        /* \"#utility.yul\":10430:10493   */\n      tag_427\n        /* \"#utility.yul\":10489:10492   */\n      dup8\n        /* \"#utility.yul\":10474:10487   */\n      dup3\n        /* \"#utility.yul\":10430:10493   */\n      tag_270\n      jump\t// in\n    tag_427:\n        /* \"#utility.yul\":10423:10493   */\n      swap7\n      pop\n        /* \"#utility.yul\":10516:10575   */\n      tag_428\n        /* \"#utility.yul\":10568:10574   */\n      dup4\n        /* \"#utility.yul\":10516:10575   */\n      tag_271\n      jump\t// in\n    tag_428:\n        /* \"#utility.yul\":10506:10575   */\n      swap3\n      pop\n        /* \"#utility.yul\":10362:10585   */\n      pop\n        /* \"#utility.yul\":10349:10350   */\n      0x01\n        /* \"#utility.yul\":10346:10347   */\n      dup2\n        /* \"#utility.yul\":10342:10351   */\n      add\n        /* \"#utility.yul\":10337:10351   */\n      swap1\n      pop\n        /* \"#utility.yul\":10302:10585   */\n      jump(tag_424)\n    tag_426:\n        /* \"#utility.yul\":10306:10320   */\n      pop\n        /* \"#utility.yul\":10006:10592   */\n      pop\n      pop\n      pop\n        /* \"#utility.yul\":9892:10592   */\n      pop\n      pop\n      jump\t// out\n        /* \"#utility.yul\":10598:10917   */\n    tag_81:\n        /* \"#utility.yul\":10739:10743   */\n      0x00\n        /* \"#utility.yul\":10777:10780   */\n      0x0200\n        /* \"#utility.yul\":10766:10775   */\n      dup3\n        /* \"#utility.yul\":10762:10781   */\n      add\n        /* \"#utility.yul\":10754:10781   */\n      swap1\n      pop\n        /* \"#utility.yul\":10791:10910   */\n      tag_430\n        /* \"#utility.yul\":10907:10908   */\n      0x00\n        /* \"#utility.yul\":10896:10905   */\n      dup4\n        /* \"#utility.yul\":10892:10909   */\n      add\n        /* \"#utility.yul\":10883:10889   */\n      dup5\n        /* \"#utility.yul\":10791:10910   */\n      tag_272\n      jump\t// in\n    tag_430:\n        /* \"#utility.yul\":10598:10917   */\n      swap3\n      swap2\n      pop\n      pop\n      jump\t// out\n        /* \"#utility.yul\":10923:11092   */\n    tag_273:\n        /* \"#utility.yul\":11007:11018   */\n      0x00\n        /* \"#utility.yul\":11041:11047   */\n      dup3\n        /* \"#utility.yul\":11036:11039   */\n      dup3\n        /* \"#utility.yul\":11029:11048   */\n      mstore\n        /* \"#utility.yul\":11081:11085   */\n      0x20\n        /* \"#utility.yul\":11076:11079   */\n      dup3\n        /* \"#utility.yul\":11072:11086   */\n      add\n        /* \"#utility.yul\":11057:11086   */\n      swap1\n      pop\n        /* \"#utility.yul\":10923:11092   */\n      swap3\n      swap2\n      pop\n      pop\n      jump\t// out\n        /* \"#utility.yul\":11098:11332   */\n    tag_274:\n        /* \"#utility.yul\":11238:11272   */\n      0x416363657373436f6e74726f6c3a2063616e206f6e6c792072656e6f756e6365\n        /* \"#utility.yul\":11234:11235   */\n      0x00\n        /* \"#utility.yul\":11226:11232   */\n      dup3\n        /* \"#utility.yul\":11222:11236   */\n      add\n        /* \"#utility.yul\":11215:11273   */\n      mstore\n        /* \"#utility.yul\":11307:11324   */\n      0x20726f6c657320666f722073656c660000000000000000000000000000000000\n        /* \"#utility.yul\":11302:11304   */\n      0x20\n        /* \"#utility.yul\":11294:11300   */\n      dup3\n        /* \"#utility.yul\":11290:11305   */\n      add\n        /* \"#utility.yul\":11283:11325   */\n      mstore\n        /* \"#utility.yul\":11098:11332   */\n      pop\n      jump\t// out\n        /* \"#utility.yul\":11338:11704   */\n    tag_275:\n        /* \"#utility.yul\":11480:11483   */\n      0x00\n        /* \"#utility.yul\":11501:11568   */\n      tag_434\n        /* \"#utility.yul\":11565:11567   */\n      0x2f\n        /* \"#utility.yul\":11560:11563   */\n      dup4\n        /* \"#utility.yul\":11501:11568   */\n      tag_273\n      jump\t// in\n    tag_434:\n        /* \"#utility.yul\":11494:11568   */\n      swap2\n      pop\n        /* \"#utility.yul\":11577:11670   */\n      tag_435\n        /* \"#utility.yul\":11666:11669   */\n      dup3\n        /* \"#utility.yul\":11577:11670   */\n      tag_274\n      jump\t// in\n    tag_435:\n        /* \"#utility.yul\":11695:11697   */\n      0x40\n        /* \"#utility.yul\":11690:11693   */\n      dup3\n        /* \"#utility.yul\":11686:11698   */\n      add\n        /* \"#utility.yul\":11679:11698   */\n      swap1\n      pop\n        /* \"#utility.yul\":11338:11704   */\n      swap2\n      swap1\n      pop\n      jump\t// out\n        /* \"#utility.yul\":11710:12129   */\n    tag_115:\n        /* \"#utility.yul\":11876:11880   */\n      0x00\n        /* \"#utility.yul\":11914:11916   */\n      0x20\n        /* \"#utility.yul\":11903:11912   */\n      dup3\n        /* \"#utility.yul\":11899:11917   */\n      add\n        /* \"#utility.yul\":11891:11917   */\n      swap1\n      pop\n        /* \"#utility.yul\":11963:11972   */\n      dup2\n        /* \"#utility.yul\":11957:11961   */\n      dup2\n        /* \"#utility.yul\":11953:11973   */\n      sub\n        /* \"#utility.yul\":11949:11950   */\n      0x00\n        /* \"#utility.yul\":11938:11947   */\n      dup4\n        /* \"#utility.yul\":11934:11951   */\n      add\n        /* \"#utility.yul\":11927:11974   */\n      mstore\n        /* \"#utility.yul\":11991:12122   */\n      tag_437\n        /* \"#utility.yul\":12117:12121   */\n      dup2\n        /* \"#utility.yul\":11991:12122   */\n      tag_275\n      jump\t// in\n    tag_437:\n        /* \"#utility.yul\":11983:12122   */\n      swap1\n      pop\n        /* \"#utility.yul\":11710:12129   */\n      swap2\n      swap1\n      pop\n      jump\t// out\n        /* \"#utility.yul\":12135:12301   */\n    tag_276:\n        /* \"#utility.yul\":12275:12293   */\n      0x5061757361626c653a2070617573656400000000000000000000000000000000\n        /* \"#utility.yul\":12271:12272   */\n      0x00\n        /* \"#utility.yul\":12263:12269   */\n      dup3\n        /* \"#utility.yul\":12259:12273   */\n      add\n        /* \"#utility.yul\":12252:12294   */\n      mstore\n        /* \"#utility.yul\":12135:12301   */\n      pop\n      jump\t// out\n        /* \"#utility.yul\":12307:12673   */\n    tag_277:\n        /* \"#utility.yul\":12449:12452   */\n      0x00\n        /* \"#utility.yul\":12470:12537   */\n      tag_440\n        /* \"#utility.yul\":12534:12536   */\n      0x10\n        /* \"#utility.yul\":12529:12532   */\n      dup4\n        /* \"#utility.yul\":12470:12537   */\n      tag_273\n      jump\t// in\n    tag_440:\n        /* \"#utility.yul\":12463:12537   */\n      swap2\n      pop\n        /* \"#utility.yul\":12546:12639   */\n      tag_441\n        /* \"#utility.yul\":12635:12638   */\n      dup3\n        /* \"#utility.yul\":12546:12639   */\n      tag_276\n      jump\t// in\n    tag_441:\n        /* \"#utility.yul\":12664:12666   */\n      0x20\n        /* \"#utility.yul\":12659:12662   */\n      dup3\n        /* \"#utility.yul\":12655:12667   */\n      add\n        /* \"#utility.yul\":12648:12667   */\n      swap1\n      pop\n        /* \"#utility.yul\":12307:12673   */\n      swap2\n      swap1\n      pop\n      jump\t// out\n        /* \"#utility.yul\":12679:13098   */\n    tag_123:\n        /* \"#utility.yul\":12845:12849   */\n      0x00\n        /* \"#utility.yul\":12883:12885   */\n      0x20\n        /* \"#utility.yul\":12872:12881   */\n      dup3\n        /* \"#utility.yul\":12868:12886   */\n      add\n        /* \"#utility.yul\":12860:12886   */\n      swap1\n      pop\n        /* \"#utility.yul\":12932:12941   */\n      dup2\n        /* \"#utility.yul\":12926:12930   */\n      dup2\n        /* \"#utility.yul\":12922:12942   */\n      sub\n        /* \"#utility.yul\":12918:12919   */\n      0x00\n        /* \"#utility.yul\":12907:12916   */\n      dup4\n        /* \"#utility.yul\":12903:12920   */\n      add\n        /* \"#utility.yul\":12896:12943   */\n      mstore\n        /* \"#utility.yul\":12960:13091   */\n      tag_443\n        /* \"#utility.yul\":13086:13090   */\n      dup2\n        /* \"#utility.yul\":12960:13091   */\n      tag_277\n      jump\t// in\n    tag_443:\n        /* \"#utility.yul\":12952:13091   */\n      swap1\n      pop\n        /* \"#utility.yul\":12679:13098   */\n      swap2\n      swap1\n      pop\n      jump\t// out\n        /* \"#utility.yul\":13104:13203   */\n    tag_278:\n        /* \"#utility.yul\":13156:13162   */\n      0x00\n        /* \"#utility.yul\":13190:13195   */\n      dup2\n        /* \"#utility.yul\":13184:13196   */\n      mload\n        /* \"#utility.yul\":13174:13196   */\n      swap1\n      pop\n        /* \"#utility.yul\":13104:13203   */\n      swap2\n      swap1\n      pop\n      jump\t// out\n        /* \"#utility.yul\":13209:13516   */\n    tag_279:\n        /* \"#utility.yul\":13277:13278   */\n      0x00\n        /* \"#utility.yul\":13287:13400   */\n    tag_446:\n        /* \"#utility.yul\":13301:13307   */\n      dup4\n        /* \"#utility.yul\":13298:13299   */\n      dup2\n        /* \"#utility.yul\":13295:13308   */\n      lt\n        /* \"#utility.yul\":13287:13400   */\n      iszero\n      tag_448\n      jumpi\n        /* \"#utility.yul\":13386:13387   */\n      dup1\n        /* \"#utility.yul\":13381:13384   */\n      dup3\n        /* \"#utility.yul\":13377:13388   */\n      add\n        /* \"#utility.yul\":13371:13389   */\n      mload\n        /* \"#utility.yul\":13367:13368   */\n      dup2\n        /* \"#utility.yul\":13362:13365   */\n      dup5\n        /* \"#utility.yul\":13358:13369   */\n      add\n        /* \"#utility.yul\":13351:13390   */\n      mstore\n        /* \"#utility.yul\":13323:13325   */\n      0x20\n        /* \"#utility.yul\":13320:13321   */\n      dup2\n        /* \"#utility.yul\":13316:13326   */\n      add\n        /* \"#utility.yul\":13311:13326   */\n      swap1\n      pop\n        /* \"#utility.yul\":13287:13400   */\n      jump(tag_446)\n    tag_448:\n        /* \"#utility.yul\":13418:13424   */\n      dup4\n        /* \"#utility.yul\":13415:13416   */\n      dup2\n        /* \"#utility.yul\":13412:13425   */\n      gt\n        /* \"#utility.yul\":13409:13510   */\n      iszero\n      tag_449\n      jumpi\n        /* \"#utility.yul\":13498:13499   */\n      0x00\n        /* \"#utility.yul\":13489:13495   */\n      dup5\n        /* \"#utility.yul\":13484:13487   */\n      dup5\n        /* \"#utility.yul\":13480:13496   */\n      add\n        /* \"#utility.yul\":13473:13500   */\n      mstore\n        /* \"#utility.yul\":13409:13510   */\n    tag_449:\n        /* \"#utility.yul\":13258:13516   */\n      pop\n        /* \"#utility.yul\":13209:13516   */\n      pop\n      pop\n      pop\n      jump\t// out\n        /* \"#utility.yul\":13522:13886   */\n    tag_280:\n        /* \"#utility.yul\":13610:13613   */\n      0x00\n        /* \"#utility.yul\":13638:13677   */\n      tag_451\n        /* \"#utility.yul\":13671:13676   */\n      dup3\n        /* \"#utility.yul\":13638:13677   */\n      tag_278\n      jump\t// in\n    tag_451:\n        /* \"#utility.yul\":13693:13764   */\n      tag_452\n        /* \"#utility.yul\":13757:13763   */\n      dup2\n        /* \"#utility.yul\":13752:13755   */\n      dup6\n        /* \"#utility.yul\":13693:13764   */\n      tag_273\n      jump\t// in\n    tag_452:\n        /* \"#utility.yul\":13686:13764   */\n      swap4\n      pop\n        /* \"#utility.yul\":13773:13825   */\n      tag_453\n        /* \"#utility.yul\":13818:13824   */\n      dup2\n        /* \"#utility.yul\":13813:13816   */\n      dup6\n        /* \"#utility.yul\":13806:13810   */\n      0x20\n        /* \"#utility.yul\":13799:13804   */\n      dup7\n        /* \"#utility.yul\":13795:13811   */\n      add\n        /* \"#utility.yul\":13773:13825   */\n      tag_279\n      jump\t// in\n    tag_453:\n        /* \"#utility.yul\":13850:13879   */\n      tag_454\n        /* \"#utility.yul\":13872:13878   */\n      dup2\n        /* \"#utility.yul\":13850:13879   */\n      tag_257\n      jump\t// in\n    tag_454:\n        /* \"#utility.yul\":13845:13848   */\n      dup5\n        /* \"#utility.yul\":13841:13880   */\n      add\n        /* \"#utility.yul\":13834:13880   */\n      swap2\n      pop\n        /* \"#utility.yul\":13614:13886   */\n      pop\n        /* \"#utility.yul\":13522:13886   */\n      swap3\n      swap2\n      pop\n      pop\n      jump\t// out\n        /* \"#utility.yul\":13892:14315   */\n    tag_126:\n        /* \"#utility.yul\":14033:14037   */\n      0x00\n        /* \"#utility.yul\":14071:14073   */\n      0x40\n        /* \"#utility.yul\":14060:14069   */\n      dup3\n        /* \"#utility.yul\":14056:14074   */\n      add\n        /* \"#utility.yul\":14048:14074   */\n      swap1\n      pop\n        /* \"#utility.yul\":14084:14155   */\n      tag_456\n        /* \"#utility.yul\":14152:14153   */\n      0x00\n        /* \"#utility.yul\":14141:14150   */\n      dup4\n        /* \"#utility.yul\":14137:14154   */\n      add\n        /* \"#utility.yul\":14128:14134   */\n      dup6\n        /* \"#utility.yul\":14084:14155   */\n      tag_265\n      jump\t// in\n    tag_456:\n        /* \"#utility.yul\":14202:14211   */\n      dup2\n        /* \"#utility.yul\":14196:14200   */\n      dup2\n        /* \"#utility.yul\":14192:14212   */\n      sub\n        /* \"#utility.yul\":14187:14189   */\n      0x20\n        /* \"#utility.yul\":14176:14185   */\n      dup4\n        /* \"#utility.yul\":14172:14190   */\n      add\n        /* \"#utility.yul\":14165:14213   */\n      mstore\n        /* \"#utility.yul\":14230:14308   */\n      tag_457\n        /* \"#utility.yul\":14303:14307   */\n      dup2\n        /* \"#utility.yul\":14294:14300   */\n      dup5\n        /* \"#utility.yul\":14230:14308   */\n      tag_280\n      jump\t// in\n    tag_457:\n        /* \"#utility.yul\":14222:14308   */\n      swap1\n      pop\n        /* \"#utility.yul\":13892:14315   */\n      swap4\n      swap3\n      pop\n      pop\n      pop\n      jump\t// out\n        /* \"#utility.yul\":14321:14464   */\n    tag_281:\n        /* \"#utility.yul\":14378:14383   */\n      0x00\n        /* \"#utility.yul\":14409:14415   */\n      dup2\n        /* \"#utility.yul\":14403:14416   */\n      mload\n        /* \"#utility.yul\":14394:14416   */\n      swap1\n      pop\n        /* \"#utility.yul\":14425:14458   */\n      tag_459\n        /* \"#utility.yul\":14452:14457   */\n      dup2\n        /* \"#utility.yul\":14425:14458   */\n      tag_240\n      jump\t// in\n    tag_459:\n        /* \"#utility.yul\":14321:14464   */\n      swap3\n      swap2\n      pop\n      pop\n      jump\t// out\n        /* \"#utility.yul\":14470:14821   */\n    tag_130:\n        /* \"#utility.yul\":14540:14546   */\n      0x00\n        /* \"#utility.yul\":14589:14591   */\n      0x20\n        /* \"#utility.yul\":14577:14586   */\n      dup3\n        /* \"#utility.yul\":14568:14575   */\n      dup5\n        /* \"#utility.yul\":14564:14587   */\n      sub\n        /* \"#utility.yul\":14560:14592   */\n      slt\n        /* \"#utility.yul\":14557:14676   */\n      iszero\n      tag_461\n      jumpi\n        /* \"#utility.yul\":14595:14674   */\n      tag_462\n      tag_232\n      jump\t// in\n    tag_462:\n        /* \"#utility.yul\":14557:14676   */\n    tag_461:\n        /* \"#utility.yul\":14715:14716   */\n      0x00\n        /* \"#utility.yul\":14740:14804   */\n      tag_463\n        /* \"#utility.yul\":14796:14803   */\n      dup5\n        /* \"#utility.yul\":14787:14793   */\n      dup3\n        /* \"#utility.yul\":14776:14785   */\n      dup6\n        /* \"#utility.yul\":14772:14794   */\n      add\n        /* \"#utility.yul\":14740:14804   */\n      tag_281\n      jump\t// in\n    tag_463:\n        /* \"#utility.yul\":14730:14804   */\n      swap2\n      pop\n        /* \"#utility.yul\":14686:14814   */\n      pop\n        /* \"#utility.yul\":14470:14821   */\n      swap3\n      swap2\n      pop\n      pop\n      jump\t// out\n        /* \"#utility.yul\":14827:15380   */\n    tag_132:\n        /* \"#utility.yul\":15004:15008   */\n      0x00\n        /* \"#utility.yul\":15042:15045   */\n      0x80\n        /* \"#utility.yul\":15031:15040   */\n      dup3\n        /* \"#utility.yul\":15027:15046   */\n      add\n        /* \"#utility.yul\":15019:15046   */\n      swap1\n      pop\n        /* \"#utility.yul\":15056:15127   */\n      tag_465\n        /* \"#utility.yul\":15124:15125   */\n      0x00\n        /* \"#utility.yul\":15113:15122   */\n      dup4\n        /* \"#utility.yul\":15109:15126   */\n      add\n        /* \"#utility.yul\":15100:15106   */\n      dup8\n        /* \"#utility.yul\":15056:15127   */\n      tag_265\n      jump\t// in\n    tag_465:\n        /* \"#utility.yul\":15137:15209   */\n      tag_466\n        /* \"#utility.yul\":15205:15207   */\n      0x20\n        /* \"#utility.yul\":15194:15203   */\n      dup4\n        /* \"#utility.yul\":15190:15208   */\n      add\n        /* \"#utility.yul\":15181:15187   */\n      dup7\n        /* \"#utility.yul\":15137:15209   */\n      tag_264\n      jump\t// in\n    tag_466:\n        /* \"#utility.yul\":15219:15291   */\n      tag_467\n        /* \"#utility.yul\":15287:15289   */\n      0x40\n        /* \"#utility.yul\":15276:15285   */\n      dup4\n        /* \"#utility.yul\":15272:15290   */\n      add\n        /* \"#utility.yul\":15263:15269   */\n      dup6\n        /* \"#utility.yul\":15219:15291   */\n      tag_265\n      jump\t// in\n    tag_467:\n        /* \"#utility.yul\":15301:15373   */\n      tag_468\n        /* \"#utility.yul\":15369:15371   */\n      0x60\n        /* \"#utility.yul\":15358:15367   */\n      dup4\n        /* \"#utility.yul\":15354:15372   */\n      add\n        /* \"#utility.yul\":15345:15351   */\n      dup5\n        /* \"#utility.yul\":15301:15373   */\n      tag_264\n      jump\t// in\n    tag_468:\n        /* \"#utility.yul\":14827:15380   */\n      swap6\n      swap5\n      pop\n      pop\n      pop\n      pop\n      pop\n      jump\t// out\n        /* \"#utility.yul\":15386:15472   */\n    tag_282:\n        /* \"#utility.yul\":15421:15428   */\n      0x00\n        /* \"#utility.yul\":15461:15465   */\n      0xff\n        /* \"#utility.yul\":15454:15459   */\n      dup3\n        /* \"#utility.yul\":15450:15466   */\n      and\n        /* \"#utility.yul\":15439:15466   */\n      swap1\n      pop\n        /* \"#utility.yul\":15386:15472   */\n      swap2\n      swap1\n      pop\n      jump\t// out\n        /* \"#utility.yul\":15478:15658   */\n    tag_283:\n        /* \"#utility.yul\":15526:15603   */\n      0x4e487b7100000000000000000000000000000000000000000000000000000000\n        /* \"#utility.yul\":15523:15524   */\n      0x00\n        /* \"#utility.yul\":15516:15604   */\n      mstore\n        /* \"#utility.yul\":15623:15627   */\n      0x12\n        /* \"#utility.yul\":15620:15621   */\n      0x04\n        /* \"#utility.yul\":15613:15628   */\n      mstore\n        /* \"#utility.yul\":15647:15651   */\n      0x24\n        /* \"#utility.yul\":15644:15645   */\n      0x00\n        /* \"#utility.yul\":15637:15652   */\n      revert\n        /* \"#utility.yul\":15664:15834   */\n    tag_151:\n        /* \"#utility.yul\":15694:15695   */\n      0x00\n        /* \"#utility.yul\":15711:15729   */\n      tag_472\n        /* \"#utility.yul\":15727:15728   */\n      dup3\n        /* \"#utility.yul\":15711:15729   */\n      tag_282\n      jump\t// in\n    tag_472:\n        /* \"#utility.yul\":15706:15729   */\n      swap2\n      pop\n        /* \"#utility.yul\":15743:15761   */\n      tag_473\n        /* \"#utility.yul\":15759:15760   */\n      dup4\n        /* \"#utility.yul\":15743:15761   */\n      tag_282\n      jump\t// in\n    tag_473:\n        /* \"#utility.yul\":15738:15761   */\n      swap3\n      pop\n        /* \"#utility.yul\":15780:15781   */\n      dup3\n        /* \"#utility.yul\":15770:15805   */\n      tag_474\n      jumpi\n        /* \"#utility.yul\":15785:15803   */\n      tag_475\n      tag_283\n      jump\t// in\n    tag_475:\n        /* \"#utility.yul\":15770:15805   */\n    tag_474:\n        /* \"#utility.yul\":15826:15827   */\n      dup3\n        /* \"#utility.yul\":15823:15824   */\n      dup3\n        /* \"#utility.yul\":15819:15828   */\n      mod\n        /* \"#utility.yul\":15814:15828   */\n      swap1\n      pop\n        /* \"#utility.yul\":15664:15834   */\n      swap3\n      swap2\n      pop\n      pop\n      jump\t// out\n        /* \"#utility.yul\":15840:16020   */\n    tag_284:\n        /* \"#utility.yul\":15888:15965   */\n      0x4e487b7100000000000000000000000000000000000000000000000000000000\n        /* \"#utility.yul\":15885:15886   */\n      0x00\n        /* \"#utility.yul\":15878:15966   */\n      mstore\n        /* \"#utility.yul\":15985:15989   */\n      0x11\n        /* \"#utility.yul\":15982:15983   */\n      0x04\n        /* \"#utility.yul\":15975:15990   */\n      mstore\n        /* \"#utility.yul\":16009:16013   */\n      0x24\n        /* \"#utility.yul\":16006:16007   */\n      0x00\n        /* \"#utility.yul\":15999:16014   */\n      revert\n        /* \"#utility.yul\":16026:16128   */\n    tag_285:\n        /* \"#utility.yul\":16068:16076   */\n      0x00\n        /* \"#utility.yul\":16115:16120   */\n      dup2\n        /* \"#utility.yul\":16112:16113   */\n      0x01\n        /* \"#utility.yul\":16108:16121   */\n      shr\n        /* \"#utility.yul\":16087:16121   */\n      swap1\n      pop\n        /* \"#utility.yul\":16026:16128   */\n      swap2\n      swap1\n      pop\n      jump\t// out\n        /* \"#utility.yul\":16134:16982   */\n    tag_286:\n        /* \"#utility.yul\":16195:16200   */\n      0x00\n        /* \"#utility.yul\":16202:16206   */\n      dup1\n        /* \"#utility.yul\":16226:16232   */\n      dup3\n        /* \"#utility.yul\":16217:16232   */\n      swap2\n      pop\n        /* \"#utility.yul\":16250:16255   */\n      dup4\n        /* \"#utility.yul\":16241:16255   */\n      swap1\n      pop\n        /* \"#utility.yul\":16264:16976   */\n    tag_479:\n        /* \"#utility.yul\":16285:16286   */\n      0x01\n        /* \"#utility.yul\":16275:16283   */\n      dup6\n        /* \"#utility.yul\":16272:16287   */\n      gt\n        /* \"#utility.yul\":16264:16976   */\n      iszero\n      tag_481\n      jumpi\n        /* \"#utility.yul\":16380:16384   */\n      dup1\n        /* \"#utility.yul\":16375:16378   */\n      dup7\n        /* \"#utility.yul\":16371:16385   */\n      div\n        /* \"#utility.yul\":16365:16369   */\n      dup2\n        /* \"#utility.yul\":16362:16386   */\n      gt\n        /* \"#utility.yul\":16359:16409   */\n      iszero\n      tag_482\n      jumpi\n        /* \"#utility.yul\":16389:16407   */\n      tag_483\n      tag_284\n      jump\t// in\n    tag_483:\n        /* \"#utility.yul\":16359:16409   */\n    tag_482:\n        /* \"#utility.yul\":16439:16440   */\n      0x01\n        /* \"#utility.yul\":16429:16437   */\n      dup6\n        /* \"#utility.yul\":16425:16441   */\n      and\n        /* \"#utility.yul\":16422:16873   */\n      iszero\n      tag_484\n      jumpi\n        /* \"#utility.yul\":16854:16858   */\n      dup1\n        /* \"#utility.yul\":16847:16852   */\n      dup3\n        /* \"#utility.yul\":16843:16859   */\n      mul\n        /* \"#utility.yul\":16834:16859   */\n      swap2\n      pop\n        /* \"#utility.yul\":16422:16873   */\n    tag_484:\n        /* \"#utility.yul\":16904:16908   */\n      dup1\n        /* \"#utility.yul\":16898:16902   */\n      dup2\n        /* \"#utility.yul\":16894:16909   */\n      mul\n        /* \"#utility.yul\":16886:16909   */\n      swap1\n      pop\n        /* \"#utility.yul\":16934:16966   */\n      tag_485\n        /* \"#utility.yul\":16957:16965   */\n      dup6\n        /* \"#utility.yul\":16934:16966   */\n      tag_285\n      jump\t// in\n    tag_485:\n        /* \"#utility.yul\":16922:16966   */\n      swap5\n      pop\n        /* \"#utility.yul\":16264:16976   */\n      jump(tag_479)\n    tag_481:\n        /* \"#utility.yul\":16134:16982   */\n      swap5\n      pop\n      swap5\n      swap3\n      pop\n      pop\n      pop\n      jump\t// out\n        /* \"#utility.yul\":16988:18061   */\n    tag_287:\n        /* \"#utility.yul\":17042:17047   */\n      0x00\n        /* \"#utility.yul\":17233:17241   */\n      dup3\n        /* \"#utility.yul\":17223:17263   */\n      tag_487\n      jumpi\n        /* \"#utility.yul\":17254:17255   */\n      0x01\n        /* \"#utility.yul\":17245:17255   */\n      swap1\n      pop\n        /* \"#utility.yul\":17256:17261   */\n      jump(tag_486)\n        /* \"#utility.yul\":17223:17263   */\n    tag_487:\n        /* \"#utility.yul\":17282:17286   */\n      dup2\n        /* \"#utility.yul\":17272:17308   */\n      tag_488\n      jumpi\n        /* \"#utility.yul\":17299:17300   */\n      0x00\n        /* \"#utility.yul\":17290:17300   */\n      swap1\n      pop\n        /* \"#utility.yul\":17301:17306   */\n      jump(tag_486)\n        /* \"#utility.yul\":17272:17308   */\n    tag_488:\n        /* \"#utility.yul\":17368:17372   */\n      dup2\n        /* \"#utility.yul\":17416:17417   */\n      0x01\n        /* \"#utility.yul\":17411:17438   */\n      dup2\n      eq\n      tag_490\n      jumpi\n        /* \"#utility.yul\":17452:17453   */\n      0x02\n        /* \"#utility.yul\":17447:17638   */\n      dup2\n      eq\n      tag_491\n      jumpi\n        /* \"#utility.yul\":17361:17638   */\n      jump(tag_489)\n        /* \"#utility.yul\":17411:17438   */\n    tag_490:\n        /* \"#utility.yul\":17429:17430   */\n      0x01\n        /* \"#utility.yul\":17420:17430   */\n      swap2\n      pop\n        /* \"#utility.yul\":17431:17436   */\n      pop\n      jump(tag_486)\n        /* \"#utility.yul\":17447:17638   */\n    tag_491:\n        /* \"#utility.yul\":17492:17495   */\n      0xff\n        /* \"#utility.yul\":17482:17490   */\n      dup5\n        /* \"#utility.yul\":17479:17496   */\n      gt\n        /* \"#utility.yul\":17476:17519   */\n      iszero\n      tag_492\n      jumpi\n        /* \"#utility.yul\":17499:17517   */\n      tag_493\n      tag_284\n      jump\t// in\n    tag_493:\n        /* \"#utility.yul\":17476:17519   */\n    tag_492:\n        /* \"#utility.yul\":17548:17556   */\n      dup4\n        /* \"#utility.yul\":17545:17546   */\n      0x02\n        /* \"#utility.yul\":17541:17557   */\n      exp\n        /* \"#utility.yul\":17532:17557   */\n      swap2\n      pop\n        /* \"#utility.yul\":17583:17586   */\n      dup5\n        /* \"#utility.yul\":17576:17581   */\n      dup3\n        /* \"#utility.yul\":17573:17587   */\n      gt\n        /* \"#utility.yul\":17570:17610   */\n      iszero\n      tag_494\n      jumpi\n        /* \"#utility.yul\":17590:17608   */\n      tag_495\n      tag_284\n      jump\t// in\n    tag_495:\n        /* \"#utility.yul\":17570:17610   */\n    tag_494:\n        /* \"#utility.yul\":17623:17628   */\n      pop\n      jump(tag_486)\n        /* \"#utility.yul\":17361:17638   */\n    tag_489:\n      pop\n        /* \"#utility.yul\":17747:17749   */\n      0x20\n        /* \"#utility.yul\":17737:17745   */\n      dup4\n        /* \"#utility.yul\":17734:17750   */\n      lt\n        /* \"#utility.yul\":17728:17731   */\n      0x0133\n        /* \"#utility.yul\":17722:17726   */\n      dup4\n        /* \"#utility.yul\":17719:17732   */\n      lt\n        /* \"#utility.yul\":17715:17751   */\n      and\n        /* \"#utility.yul\":17697:17699   */\n      0x4e\n        /* \"#utility.yul\":17687:17695   */\n      dup5\n        /* \"#utility.yul\":17684:17700   */\n      lt\n        /* \"#utility.yul\":17679:17681   */\n      0x0b\n        /* \"#utility.yul\":17673:17677   */\n      dup5\n        /* \"#utility.yul\":17670:17682   */\n      lt\n        /* \"#utility.yul\":17666:17701   */\n      and\n        /* \"#utility.yul\":17650:17761   */\n      or\n        /* \"#utility.yul\":17647:17893   */\n      iszero\n      tag_496\n      jumpi\n        /* \"#utility.yul\":17803:17811   */\n      dup3\n        /* \"#utility.yul\":17797:17801   */\n      dup3\n        /* \"#utility.yul\":17793:17812   */\n      exp\n        /* \"#utility.yul\":17784:17812   */\n      swap1\n      pop\n        /* \"#utility.yul\":17838:17841   */\n      dup4\n        /* \"#utility.yul\":17831:17836   */\n      dup2\n        /* \"#utility.yul\":17828:17842   */\n      gt\n        /* \"#utility.yul\":17825:17865   */\n      iszero\n      tag_497\n      jumpi\n        /* \"#utility.yul\":17845:17863   */\n      tag_498\n      tag_284\n      jump\t// in\n    tag_498:\n        /* \"#utility.yul\":17825:17865   */\n    tag_497:\n        /* \"#utility.yul\":17878:17883   */\n      jump(tag_486)\n        /* \"#utility.yul\":17647:17893   */\n    tag_496:\n        /* \"#utility.yul\":17918:17960   */\n      tag_499\n        /* \"#utility.yul\":17956:17959   */\n      dup5\n        /* \"#utility.yul\":17946:17954   */\n      dup5\n        /* \"#utility.yul\":17940:17944   */\n      dup5\n        /* \"#utility.yul\":17937:17938   */\n      0x01\n        /* \"#utility.yul\":17918:17960   */\n      tag_286\n      jump\t// in\n    tag_499:\n        /* \"#utility.yul\":17903:17960   */\n      swap3\n      pop\n      swap1\n      pop\n        /* \"#utility.yul\":17992:17996   */\n      dup2\n        /* \"#utility.yul\":17987:17990   */\n      dup5\n        /* \"#utility.yul\":17983:17997   */\n      div\n        /* \"#utility.yul\":17976:17981   */\n      dup2\n        /* \"#utility.yul\":17973:17998   */\n      gt\n        /* \"#utility.yul\":17970:18021   */\n      iszero\n      tag_500\n      jumpi\n        /* \"#utility.yul\":18001:18019   */\n      tag_501\n      tag_284\n      jump\t// in\n    tag_501:\n        /* \"#utility.yul\":17970:18021   */\n    tag_500:\n        /* \"#utility.yul\":18050:18054   */\n      dup2\n        /* \"#utility.yul\":18043:18048   */\n      dup2\n        /* \"#utility.yul\":18039:18055   */\n      mul\n        /* \"#utility.yul\":18030:18055   */\n      swap1\n      pop\n        /* \"#utility.yul\":16988:18061   */\n    tag_486:\n      swap4\n      swap3\n      pop\n      pop\n      pop\n      jump\t// out\n        /* \"#utility.yul\":18067:18348   */\n    tag_155:\n        /* \"#utility.yul\":18125:18130   */\n      0x00\n        /* \"#utility.yul\":18149:18172   */\n      tag_503\n        /* \"#utility.yul\":18167:18171   */\n      dup3\n        /* \"#utility.yul\":18149:18172   */\n      tag_239\n      jump\t// in\n    tag_503:\n        /* \"#utility.yul\":18141:18172   */\n      swap2\n      pop\n        /* \"#utility.yul\":18193:18218   */\n      tag_504\n        /* \"#utility.yul\":18209:18217   */\n      dup4\n        /* \"#utility.yul\":18193:18218   */\n      tag_282\n      jump\t// in\n    tag_504:\n        /* \"#utility.yul\":18181:18218   */\n      swap3\n      pop\n        /* \"#utility.yul\":18237:18341   */\n      tag_505\n        /* \"#utility.yul\":18274:18340   */\n      0xffffffffffffffffffffffffffffffffffffffffffffffffffffffffffffffff\n        /* \"#utility.yul\":18264:18272   */\n      dup5\n        /* \"#utility.yul\":18258:18262   */\n      dup5\n        /* \"#utility.yul\":18237:18341   */\n      tag_287\n      jump\t// in\n    tag_505:\n        /* \"#utility.yul\":18228:18341   */\n      swap1\n      pop\n        /* \"#utility.yul\":18067:18348   */\n      swap3\n      swap2\n      pop\n      pop\n      jump\t// out\n        /* \"#utility.yul\":18354:18534   */\n    tag_158:\n        /* \"#utility.yul\":18402:18479   */\n      0x4e487b7100000000000000000000000000000000000000000000000000000000\n        /* \"#utility.yul\":18399:18400   */\n      0x00\n        /* \"#utility.yul\":18392:18480   */\n      mstore\n        /* \"#utility.yul\":18499:18503   */\n      0x32\n        /* \"#utility.yul\":18496:18497   */\n      0x04\n        /* \"#utility.yul\":18489:18504   */\n      mstore\n        /* \"#utility.yul\":18523:18527   */\n      0x24\n        /* \"#utility.yul\":18520:18521   */\n      0x00\n        /* \"#utility.yul\":18513:18528   */\n      revert\n        /* \"#utility.yul\":18540:18888   */\n    tag_160:\n        /* \"#utility.yul\":18580:18587   */\n      0x00\n        /* \"#utility.yul\":18603:18623   */\n      tag_508\n        /* \"#utility.yul\":18621:18622   */\n      dup3\n        /* \"#utility.yul\":18603:18623   */\n      tag_239\n      jump\t// in\n    tag_508:\n        /* \"#utility.yul\":18598:18623   */\n      swap2\n      pop\n        /* \"#utility.yul\":18637:18657   */\n      tag_509\n        /* \"#utility.yul\":18655:18656   */\n      dup4\n        /* \"#utility.yul\":18637:18657   */\n      tag_239\n      jump\t// in\n    tag_509:\n        /* \"#utility.yul\":18632:18657   */\n      swap3\n      pop\n        /* \"#utility.yul\":18825:18826   */\n      dup2\n        /* \"#utility.yul\":18757:18823   */\n      0xffffffffffffffffffffffffffffffffffffffffffffffffffffffffffffffff\n        /* \"#utility.yul\":18753:18827   */\n      div\n        /* \"#utility.yul\":18750:18751   */\n      dup4\n        /* \"#utility.yul\":18747:18828   */\n      gt\n        /* \"#utility.yul\":18742:18743   */\n      dup3\n        /* \"#utility.yul\":18735:18744   */\n      iszero\n        /* \"#utility.yul\":18728:18745   */\n      iszero\n        /* \"#utility.yul\":18724:18829   */\n      and\n        /* \"#utility.yul\":18721:18852   */\n      iszero\n      tag_510\n      jumpi\n        /* \"#utility.yul\":18832:18850   */\n      tag_511\n      tag_284\n      jump\t// in\n    tag_511:\n        /* \"#utility.yul\":18721:18852   */\n    tag_510:\n        /* \"#utility.yul\":18880:18881   */\n      dup3\n        /* \"#utility.yul\":18877:18878   */\n      dup3\n        /* \"#utility.yul\":18873:18882   */\n      mul\n        /* \"#utility.yul\":18862:18882   */\n      swap1\n      pop\n        /* \"#utility.yul\":18540:18888   */\n      swap3\n      swap2\n      pop\n      pop\n      jump\t// out\n        /* \"#utility.yul\":18894:19073   */\n    tag_162:\n        /* \"#utility.yul\":18932:18933   */\n      0x00\n        /* \"#utility.yul\":18949:18967   */\n      tag_513\n        /* \"#utility.yul\":18965:18966   */\n      dup3\n        /* \"#utility.yul\":18949:18967   */\n      tag_282\n      jump\t// in\n    tag_513:\n        /* \"#utility.yul\":18944:18967   */\n      swap2\n      pop\n        /* \"#utility.yul\":18981:18999   */\n      tag_514\n        /* \"#utility.yul\":18997:18998   */\n      dup4\n        /* \"#utility.yul\":18981:18999   */\n      tag_282\n      jump\t// in\n    tag_514:\n        /* \"#utility.yul\":18976:18999   */\n      swap3\n      pop\n        /* \"#utility.yul\":19018:19019   */\n      dup3\n        /* \"#utility.yul\":19008:19043   */\n      tag_515\n      jumpi\n        /* \"#utility.yul\":19023:19041   */\n      tag_516\n      tag_283\n      jump\t// in\n    tag_516:\n        /* \"#utility.yul\":19008:19043   */\n    tag_515:\n        /* \"#utility.yul\":19065:19066   */\n      dup3\n        /* \"#utility.yul\":19062:19063   */\n      dup3\n        /* \"#utility.yul\":19058:19067   */\n      div\n        /* \"#utility.yul\":19053:19067   */\n      swap1\n      pop\n        /* \"#utility.yul\":18894:19073   */\n      swap3\n      swap2\n      pop\n      pop\n      jump\t// out\n        /* \"#utility.yul\":19079:19384   */\n    tag_166:\n        /* \"#utility.yul\":19119:19122   */\n      0x00\n        /* \"#utility.yul\":19138:19158   */\n      tag_518\n        /* \"#utility.yul\":19156:19157   */\n      dup3\n        /* \"#utility.yul\":19138:19158   */\n      tag_239\n      jump\t// in\n    tag_518:\n        /* \"#utility.yul\":19133:19158   */\n      swap2\n      pop\n        /* \"#utility.yul\":19172:19192   */\n      tag_519\n        /* \"#utility.yul\":19190:19191   */\n      dup4\n        /* \"#utility.yul\":19172:19192   */\n      tag_239\n      jump\t// in\n    tag_519:\n        /* \"#utility.yul\":19167:19192   */\n      swap3\n      pop\n        /* \"#utility.yul\":19326:19327   */\n      dup3\n        /* \"#utility.yul\":19258:19324   */\n      0xffffffffffffffffffffffffffffffffffffffffffffffffffffffffffffffff\n        /* \"#utility.yul\":19254:19328   */\n      sub\n        /* \"#utility.yul\":19251:19252   */\n      dup3\n        /* \"#utility.yul\":19248:19329   */\n      gt\n        /* \"#utility.yul\":19245:19352   */\n      iszero\n      tag_520\n      jumpi\n        /* \"#utility.yul\":19332:19350   */\n      tag_521\n      tag_284\n      jump\t// in\n    tag_521:\n        /* \"#utility.yul\":19245:19352   */\n    tag_520:\n        /* \"#utility.yul\":19376:19377   */\n      dup3\n        /* \"#utility.yul\":19373:19374   */\n      dup3\n        /* \"#utility.yul\":19369:19378   */\n      add\n        /* \"#utility.yul\":19362:19378   */\n      swap1\n      pop\n        /* \"#utility.yul\":19079:19384   */\n      swap3\n      swap2\n      pop\n      pop\n      jump\t// out\n        /* \"#utility.yul\":19390:19557   */\n    tag_171:\n        /* \"#utility.yul\":19427:19430   */\n      0x00\n        /* \"#utility.yul\":19450:19472   */\n      tag_523\n        /* \"#utility.yul\":19466:19471   */\n      dup3\n        /* \"#utility.yul\":19450:19472   */\n      tag_282\n      jump\t// in\n    tag_523:\n        /* \"#utility.yul\":19441:19472   */\n      swap2\n      pop\n        /* \"#utility.yul\":19494:19498   */\n      0xff\n        /* \"#utility.yul\":19487:19492   */\n      dup3\n        /* \"#utility.yul\":19484:19499   */\n      sub\n        /* \"#utility.yul\":19481:19522   */\n      tag_524\n      jumpi\n        /* \"#utility.yul\":19502:19520   */\n      tag_525\n      tag_284\n      jump\t// in\n    tag_525:\n        /* \"#utility.yul\":19481:19522   */\n    tag_524:\n        /* \"#utility.yul\":19549:19550   */\n      0x01\n        /* \"#utility.yul\":19542:19547   */\n      dup3\n        /* \"#utility.yul\":19538:19551   */\n      add\n        /* \"#utility.yul\":19531:19551   */\n      swap1\n      pop\n        /* \"#utility.yul\":19390:19557   */\n      swap2\n      swap1\n      pop\n      jump\t// out\n        /* \"#utility.yul\":19563:19895   */\n    tag_181:\n        /* \"#utility.yul\":19684:19688   */\n      0x00\n        /* \"#utility.yul\":19722:19724   */\n      0x40\n        /* \"#utility.yul\":19711:19720   */\n      dup3\n        /* \"#utility.yul\":19707:19725   */\n      add\n        /* \"#utility.yul\":19699:19725   */\n      swap1\n      pop\n        /* \"#utility.yul\":19735:19806   */\n      tag_527\n        /* \"#utility.yul\":19803:19804   */\n      0x00\n        /* \"#utility.yul\":19792:19801   */\n      dup4\n        /* \"#utility.yul\":19788:19805   */\n      add\n        /* \"#utility.yul\":19779:19785   */\n      dup6\n        /* \"#utility.yul\":19735:19806   */\n      tag_265\n      jump\t// in\n    tag_527:\n        /* \"#utility.yul\":19816:19888   */\n      tag_528\n        /* \"#utility.yul\":19884:19886   */\n      0x20\n        /* \"#utility.yul\":19873:19882   */\n      dup4\n        /* \"#utility.yul\":19869:19887   */\n      add\n        /* \"#utility.yul\":19860:19866   */\n      dup5\n        /* \"#utility.yul\":19816:19888   */\n      tag_264\n      jump\t// in\n    tag_528:\n        /* \"#utility.yul\":19563:19895   */\n      swap4\n      swap3\n      pop\n      pop\n      pop\n      jump\t// out\n        /* \"#utility.yul\":19901:20017   */\n    tag_288:\n        /* \"#utility.yul\":19971:19992   */\n      tag_530\n        /* \"#utility.yul\":19986:19991   */\n      dup2\n        /* \"#utility.yul\":19971:19992   */\n      tag_237\n      jump\t// in\n    tag_530:\n        /* \"#utility.yul\":19964:19969   */\n      dup2\n        /* \"#utility.yul\":19961:19993   */\n      eq\n        /* \"#utility.yul\":19951:20011   */\n      tag_531\n      jumpi\n        /* \"#utility.yul\":20007:20008   */\n      0x00\n        /* \"#utility.yul\":20004:20005   */\n      dup1\n        /* \"#utility.yul\":19997:20009   */\n      revert\n        /* \"#utility.yul\":19951:20011   */\n    tag_531:\n        /* \"#utility.yul\":19901:20017   */\n      pop\n      jump\t// out\n        /* \"#utility.yul\":20023:20160   */\n    tag_289:\n        /* \"#utility.yul\":20077:20082   */\n      0x00\n        /* \"#utility.yul\":20108:20114   */\n      dup2\n        /* \"#utility.yul\":20102:20115   */\n      mload\n        /* \"#utility.yul\":20093:20115   */\n      swap1\n      pop\n        /* \"#utility.yul\":20124:20154   */\n      tag_533\n        /* \"#utility.yul\":20148:20153   */\n      dup2\n        /* \"#utility.yul\":20124:20154   */\n      tag_288\n      jump\t// in\n    tag_533:\n        /* \"#utility.yul\":20023:20160   */\n      swap3\n      swap2\n      pop\n      pop\n      jump\t// out\n        /* \"#utility.yul\":20166:20511   */\n    tag_185:\n        /* \"#utility.yul\":20233:20239   */\n      0x00\n        /* \"#utility.yul\":20282:20284   */\n      0x20\n        /* \"#utility.yul\":20270:20279   */\n      dup3\n        /* \"#utility.yul\":20261:20268   */\n      dup5\n        /* \"#utility.yul\":20257:20280   */\n      sub\n        /* \"#utility.yul\":20253:20285   */\n      slt\n        /* \"#utility.yul\":20250:20369   */\n      iszero\n      tag_535\n      jumpi\n        /* \"#utility.yul\":20288:20367   */\n      tag_536\n      tag_232\n      jump\t// in\n    tag_536:\n        /* \"#utility.yul\":20250:20369   */\n    tag_535:\n        /* \"#utility.yul\":20408:20409   */\n      0x00\n        /* \"#utility.yul\":20433:20494   */\n      tag_537\n        /* \"#utility.yul\":20486:20493   */\n      dup5\n        /* \"#utility.yul\":20477:20483   */\n      dup3\n        /* \"#utility.yul\":20466:20475   */\n      dup6\n        /* \"#utility.yul\":20462:20484   */\n      add\n        /* \"#utility.yul\":20433:20494   */\n      tag_289\n      jump\t// in\n    tag_537:\n        /* \"#utility.yul\":20423:20494   */\n      swap2\n      pop\n        /* \"#utility.yul\":20379:20504   */\n      pop\n        /* \"#utility.yul\":20166:20511   */\n      swap3\n      swap2\n      pop\n      pop\n      jump\t// out\n        /* \"#utility.yul\":20517:20665   */\n    tag_290:\n        /* \"#utility.yul\":20619:20630   */\n      0x00\n        /* \"#utility.yul\":20656:20659   */\n      dup2\n        /* \"#utility.yul\":20641:20659   */\n      swap1\n      pop\n        /* \"#utility.yul\":20517:20665   */\n      swap3\n      swap2\n      pop\n      pop\n      jump\t// out\n        /* \"#utility.yul\":20671:20844   */\n    tag_291:\n        /* \"#utility.yul\":20811:20836   */\n      0x416363657373436f6e74726f6c3a206163636f756e7420000000000000000000\n        /* \"#utility.yul\":20807:20808   */\n      0x00\n        /* \"#utility.yul\":20799:20805   */\n      dup3\n        /* \"#utility.yul\":20795:20809   */\n      add\n        /* \"#utility.yul\":20788:20837   */\n      mstore\n        /* \"#utility.yul\":20671:20844   */\n      pop\n      jump\t// out\n        /* \"#utility.yul\":20850:21252   */\n    tag_292:\n        /* \"#utility.yul\":21010:21013   */\n      0x00\n        /* \"#utility.yul\":21031:21116   */\n      tag_541\n        /* \"#utility.yul\":21113:21115   */\n      0x17\n        /* \"#utility.yul\":21108:21111   */\n      dup4\n        /* \"#utility.yul\":21031:21116   */\n      tag_290\n      jump\t// in\n    tag_541:\n        /* \"#utility.yul\":21024:21116   */\n      swap2\n      pop\n        /* \"#utility.yul\":21125:21218   */\n      tag_542\n        /* \"#utility.yul\":21214:21217   */\n      dup3\n        /* \"#utility.yul\":21125:21218   */\n      tag_291\n      jump\t// in\n    tag_542:\n        /* \"#utility.yul\":21243:21245   */\n      0x17\n        /* \"#utility.yul\":21238:21241   */\n      dup3\n        /* \"#utility.yul\":21234:21246   */\n      add\n        /* \"#utility.yul\":21227:21246   */\n      swap1\n      pop\n        /* \"#utility.yul\":20850:21252   */\n      swap2\n      swap1\n      pop\n      jump\t// out\n        /* \"#utility.yul\":21258:21635   */\n    tag_293:\n        /* \"#utility.yul\":21364:21367   */\n      0x00\n        /* \"#utility.yul\":21392:21431   */\n      tag_544\n        /* \"#utility.yul\":21425:21430   */\n      dup3\n        /* \"#utility.yul\":21392:21431   */\n      tag_278\n      jump\t// in\n    tag_544:\n        /* \"#utility.yul\":21447:21536   */\n      tag_545\n        /* \"#utility.yul\":21529:21535   */\n      dup2\n        /* \"#utility.yul\":21524:21527   */\n      dup6\n        /* \"#utility.yul\":21447:21536   */\n      tag_290\n      jump\t// in\n    tag_545:\n        /* \"#utility.yul\":21440:21536   */\n      swap4\n      pop\n        /* \"#utility.yul\":21545:21597   */\n      tag_546\n        /* \"#utility.yul\":21590:21596   */\n      dup2\n        /* \"#utility.yul\":21585:21588   */\n      dup6\n        /* \"#utility.yul\":21578:21582   */\n      0x20\n        /* \"#utility.yul\":21571:21576   */\n      dup7\n        /* \"#utility.yul\":21567:21583   */\n      add\n        /* \"#utility.yul\":21545:21597   */\n      tag_279\n      jump\t// in\n    tag_546:\n        /* \"#utility.yul\":21622:21628   */\n      dup1\n        /* \"#utility.yul\":21617:21620   */\n      dup5\n        /* \"#utility.yul\":21613:21629   */\n      add\n        /* \"#utility.yul\":21606:21629   */\n      swap2\n      pop\n        /* \"#utility.yul\":21368:21635   */\n      pop\n        /* \"#utility.yul\":21258:21635   */\n      swap3\n      swap2\n      pop\n      pop\n      jump\t// out\n        /* \"#utility.yul\":21641:21808   */\n    tag_294:\n        /* \"#utility.yul\":21781:21800   */\n      0x206973206d697373696e6720726f6c6520000000000000000000000000000000\n        /* \"#utility.yul\":21777:21778   */\n      0x00\n        /* \"#utility.yul\":21769:21775   */\n      dup3\n        /* \"#utility.yul\":21765:21779   */\n      add\n        /* \"#utility.yul\":21758:21801   */\n      mstore\n        /* \"#utility.yul\":21641:21808   */\n      pop\n      jump\t// out\n        /* \"#utility.yul\":21814:22216   */\n    tag_295:\n        /* \"#utility.yul\":21974:21977   */\n      0x00\n        /* \"#utility.yul\":21995:22080   */\n      tag_549\n        /* \"#utility.yul\":22077:22079   */\n      0x11\n        /* \"#utility.yul\":22072:22075   */\n      dup4\n        /* \"#utility.yul\":21995:22080   */\n      tag_290\n      jump\t// in\n    tag_549:\n        /* \"#utility.yul\":21988:22080   */\n      swap2\n      pop\n        /* \"#utility.yul\":22089:22182   */\n      tag_550\n        /* \"#utility.yul\":22178:22181   */\n      dup3\n        /* \"#utility.yul\":22089:22182   */\n      tag_294\n      jump\t// in\n    tag_550:\n        /* \"#utility.yul\":22207:22209   */\n      0x11\n        /* \"#utility.yul\":22202:22205   */\n      dup3\n        /* \"#utility.yul\":22198:22210   */\n      add\n        /* \"#utility.yul\":22191:22210   */\n      swap1\n      pop\n        /* \"#utility.yul\":21814:22216   */\n      swap2\n      swap1\n      pop\n      jump\t// out\n        /* \"#utility.yul\":22222:23189   */\n    tag_195:\n        /* \"#utility.yul\":22604:22607   */\n      0x00\n        /* \"#utility.yul\":22626:22774   */\n      tag_552\n        /* \"#utility.yul\":22770:22773   */\n      dup3\n        /* \"#utility.yul\":22626:22774   */\n      tag_292\n      jump\t// in\n    tag_552:\n        /* \"#utility.yul\":22619:22774   */\n      swap2\n      pop\n        /* \"#utility.yul\":22791:22886   */\n      tag_553\n        /* \"#utility.yul\":22882:22885   */\n      dup3\n        /* \"#utility.yul\":22873:22879   */\n      dup6\n        /* \"#utility.yul\":22791:22886   */\n      tag_293\n      jump\t// in\n    tag_553:\n        /* \"#utility.yul\":22784:22886   */\n      swap2\n      pop\n        /* \"#utility.yul\":22903:23051   */\n      tag_554\n        /* \"#utility.yul\":23047:23050   */\n      dup3\n        /* \"#utility.yul\":22903:23051   */\n      tag_295\n      jump\t// in\n    tag_554:\n        /* \"#utility.yul\":22896:23051   */\n      swap2\n      pop\n        /* \"#utility.yul\":23068:23163   */\n      tag_555\n        /* \"#utility.yul\":23159:23162   */\n      dup3\n        /* \"#utility.yul\":23150:23156   */\n      dup5\n        /* \"#utility.yul\":23068:23163   */\n      tag_293\n      jump\t// in\n    tag_555:\n        /* \"#utility.yul\":23061:23163   */\n      swap2\n      pop\n        /* \"#utility.yul\":23180:23183   */\n      dup2\n        /* \"#utility.yul\":23173:23183   */\n      swap1\n      pop\n        /* \"#utility.yul\":22222:23189   */\n      swap4\n      swap3\n      pop\n      pop\n      pop\n      jump\t// out\n        /* \"#utility.yul\":23195:23508   */\n    tag_197:\n        /* \"#utility.yul\":23308:23312   */\n      0x00\n        /* \"#utility.yul\":23346:23348   */\n      0x20\n        /* \"#utility.yul\":23335:23344   */\n      dup3\n        /* \"#utility.yul\":23331:23349   */\n      add\n        /* \"#utility.yul\":23323:23349   */\n      swap1\n      pop\n        /* \"#utility.yul\":23395:23404   */\n      dup2\n        /* \"#utility.yul\":23389:23393   */\n      dup2\n        /* \"#utility.yul\":23385:23405   */\n      sub\n        /* \"#utility.yul\":23381:23382   */\n      0x00\n        /* \"#utility.yul\":23370:23379   */\n      dup4\n        /* \"#utility.yul\":23366:23383   */\n      add\n        /* \"#utility.yul\":23359:23406   */\n      mstore\n        /* \"#utility.yul\":23423:23501   */\n      tag_557\n        /* \"#utility.yul\":23496:23500   */\n      dup2\n        /* \"#utility.yul\":23487:23493   */\n      dup5\n        /* \"#utility.yul\":23423:23501   */\n      tag_280\n      jump\t// in\n    tag_557:\n        /* \"#utility.yul\":23415:23501   */\n      swap1\n      pop\n        /* \"#utility.yul\":23195:23508   */\n      swap3\n      swap2\n      pop\n      pop\n      jump\t// out\n        /* \"#utility.yul\":23514:23685   */\n    tag_227:\n        /* \"#utility.yul\":23553:23556   */\n      0x00\n        /* \"#utility.yul\":23576:23600   */\n      tag_559\n        /* \"#utility.yul\":23594:23599   */\n      dup3\n        /* \"#utility.yul\":23576:23600   */\n      tag_239\n      jump\t// in\n    tag_559:\n        /* \"#utility.yul\":23567:23600   */\n      swap2\n      pop\n        /* \"#utility.yul\":23622:23626   */\n      0x00\n        /* \"#utility.yul\":23615:23620   */\n      dup3\n        /* \"#utility.yul\":23612:23627   */\n      sub\n        /* \"#utility.yul\":23609:23650   */\n      tag_560\n      jumpi\n        /* \"#utility.yul\":23630:23648   */\n      tag_561\n      tag_284\n      jump\t// in\n    tag_561:\n        /* \"#utility.yul\":23609:23650   */\n    tag_560:\n        /* \"#utility.yul\":23677:23678   */\n      0x01\n        /* \"#utility.yul\":23670:23675   */\n      dup3\n        /* \"#utility.yul\":23666:23679   */\n      sub\n        /* \"#utility.yul\":23659:23679   */\n      swap1\n      pop\n        /* \"#utility.yul\":23514:23685   */\n      swap2\n      swap1\n      pop\n      jump\t// out\n        /* \"#utility.yul\":23691:23873   */\n    tag_296:\n        /* \"#utility.yul\":23831:23865   */\n      0x537472696e67733a20686578206c656e67746820696e73756666696369656e74\n        /* \"#utility.yul\":23827:23828   */\n      0x00\n        /* \"#utility.yul\":23819:23825   */\n      dup3\n        /* \"#utility.yul\":23815:23829   */\n      add\n        /* \"#utility.yul\":23808:23866   */\n      mstore\n        /* \"#utility.yul\":23691:23873   */\n      pop\n      jump\t// out\n        /* \"#utility.yul\":23879:24245   */\n    tag_297:\n        /* \"#utility.yul\":24021:24024   */\n      0x00\n        /* \"#utility.yul\":24042:24109   */\n      tag_564\n        /* \"#utility.yul\":24106:24108   */\n      0x20\n        /* \"#utility.yul\":24101:24104   */\n      dup4\n        /* \"#utility.yul\":24042:24109   */\n      tag_273\n      jump\t// in\n    tag_564:\n        /* \"#utility.yul\":24035:24109   */\n      swap2\n      pop\n        /* \"#utility.yul\":24118:24211   */\n      tag_565\n        /* \"#utility.yul\":24207:24210   */\n      dup3\n        /* \"#utility.yul\":24118:24211   */\n      tag_296\n      jump\t// in\n    tag_565:\n        /* \"#utility.yul\":24236:24238   */\n      0x20\n        /* \"#utility.yul\":24231:24234   */\n      dup3\n        /* \"#utility.yul\":24227:24239   */\n      add\n        /* \"#utility.yul\":24220:24239   */\n      swap1\n      pop\n        /* \"#utility.yul\":23879:24245   */\n      swap2\n      swap1\n      pop\n      jump\t// out\n        /* \"#utility.yul\":24251:24670   */\n    tag_230:\n        /* \"#utility.yul\":24417:24421   */\n      0x00\n        /* \"#utility.yul\":24455:24457   */\n      0x20\n        /* \"#utility.yul\":24444:24453   */\n      dup3\n        /* \"#utility.yul\":24440:24458   */\n      add\n        /* \"#utility.yul\":24432:24458   */\n      swap1\n      pop\n        /* \"#utility.yul\":24504:24513   */\n      dup2\n        /* \"#utility.yul\":24498:24502   */\n      dup2\n        /* \"#utility.yul\":24494:24514   */\n      sub\n        /* \"#utility.yul\":24490:24491   */\n      0x00\n        /* \"#utility.yul\":24479:24488   */\n      dup4\n        /* \"#utility.yul\":24475:24492   */\n      add\n        /* \"#utility.yul\":24468:24515   */\n      mstore\n        /* \"#utility.yul\":24532:24663   */\n      tag_567\n        /* \"#utility.yul\":24658:24662   */\n      dup2\n        /* \"#utility.yul\":24532:24663   */\n      tag_297\n      jump\t// in\n    tag_567:\n        /* \"#utility.yul\":24524:24663   */\n      swap1\n      pop\n        /* \"#utility.yul\":24251:24670   */\n      swap2\n      swap1\n      pop\n      jump\t// out\n\n    auxdata: 0xa26469706673582212203085caaa6e050906700c29ca5f3c17144dfad0afb83fd57808f9bbc04ac3e54d64736f6c634300080d0033\n}\n",
				"bytecode": {
					"linkReferences": {},
					"object": "6080604052600a6004553480156200001657600080fd5b50604051620020a8380380620020a883398181016040528101906200003c91906200030b565b60008060006101000a81548160ff02191690831515021790555081600260006101000a81548173ffffffffffffffffffffffffffffffffffffffff021916908373ffffffffffffffffffffffffffffffffffffffff16021790555080600360006101000a81548173ffffffffffffffffffffffffffffffffffffffff021916908373ffffffffffffffffffffffffffffffffffffffff160217905550620000ed6000801b336200012760201b60201c565b6200011f7f65d7a28e3265b37a6474929f336521b332c1681b933f6cb9f3376673440d862a336200012760201b60201c565b505062000352565b6200013982826200013d60201b60201c565b5050565b6200014f82826200022e60201b60201c565b6200022a57600180600084815260200190815260200160002060000160008373ffffffffffffffffffffffffffffffffffffffff1673ffffffffffffffffffffffffffffffffffffffff16815260200190815260200160002060006101000a81548160ff021916908315150217905550620001cf6200029960201b60201c565b73ffffffffffffffffffffffffffffffffffffffff168173ffffffffffffffffffffffffffffffffffffffff16837f2f8788117e7eff1d82e926ec794901d17c78024a50270940304540a733656f0d60405160405180910390a45b5050565b60006001600084815260200190815260200160002060000160008373ffffffffffffffffffffffffffffffffffffffff1673ffffffffffffffffffffffffffffffffffffffff16815260200190815260200160002060009054906101000a900460ff16905092915050565b600033905090565b600080fd5b600073ffffffffffffffffffffffffffffffffffffffff82169050919050565b6000620002d382620002a6565b9050919050565b620002e581620002c6565b8114620002f157600080fd5b50565b6000815190506200030581620002da565b92915050565b60008060408385031215620003255762000324620002a1565b5b60006200033585828601620002f4565b92505060206200034885828601620002f4565b9150509250929050565b611d4680620003626000396000f3fe608060405234801561001057600080fd5b506004361061010b5760003560e01c806391d14854116100a2578063d547741f11610071578063d547741f146102b8578063dd23faf3146102d4578063e63ab1e914610304578063f3fef3a314610322578063f400fde41461033e5761010b565b806391d1485414610230578063945099bc14610260578063a217fddf1461027c578063c60982561461029a5761010b565b806336568abe116100de57806336568abe146101a857806352c6159f146101c45780635c975abb146101e2578063841acc5d146102005761010b565b806301ffc9a7146101105780630a1ac65714610140578063248a9ca31461015c5780632f2ff15d1461018c575b600080fd5b61012a60048036038101906101259190610fe4565b61035c565b604051610137919061102c565b60405180910390f35b61015a6004803603810190610155919061107d565b6103d6565b005b610176600480360381019061017191906110e0565b61049d565b604051610183919061111c565b60405180910390f35b6101a660048036038101906101a19190611195565b6104bd565b005b6101c260048036038101906101bd9190611195565b6104e6565b005b6101cc610569565b6040516101d99190611234565b60405180910390f35b6101ea61058f565b6040516101f7919061102c565b60405180910390f35b61021a60048036038101906102159190611395565b6105a5565b60405161022791906113ed565b60405180910390f35b61024a60048036038101906102459190611195565b6106fd565b604051610257919061102c565b60405180910390f35b61027a60048036038101906102759190611408565b610768565b005b6102846107ca565b604051610291919061111c565b60405180910390f35b6102a26107d1565b6040516102af9190611457565b60405180910390f35b6102d260048036038101906102cd9190611195565b6107f7565b005b6102ee60048036038101906102e991906110e0565b610820565b6040516102fb919061151d565b60405180910390f35b61030c610904565b604051610319919061111c565b60405180910390f35b61033c60048036038101906103379190611408565b610928565b005b610346610a42565b60405161035391906113ed565b60405180910390f35b60007f7965db0b000000000000000000000000000000000000000000000000000000007bffffffffffffffffffffffffffffffffffffffffffffffffffffffff1916827bffffffffffffffffffffffffffffffffffffffffffffffffffffffff191614806103cf57506103ce82610a48565b5b9050919050565b600260009054906101000a900473ffffffffffffffffffffffffffffffffffffffff1673ffffffffffffffffffffffffffffffffffffffff166342966c68826040518263ffffffff1660e01b815260040161043191906113ed565b600060405180830381600087803b15801561044b57600080fd5b505af115801561045f573d6000803e3d6000fd5b505050507f950dcd4a7087bbf2cee08268e1b26ac45fb310d3ae443d0fe53714b713da45c18160405161049291906113ed565b60405180910390a150565b600060016000838152602001908152602001600020600101549050919050565b6104c68261049d565b6104d7816104d2610ab2565b610aba565b6104e18383610b57565b505050565b6104ee610ab2565b73ffffffffffffffffffffffffffffffffffffffff168173ffffffffffffffffffffffffffffffffffffffff161461055b576040517f08c379a0000000000000000000000000000000000000000000000000000000008152600401610552906115bc565b60405180910390fd5b6105658282610c37565b5050565b600260009054906101000a900473ffffffffffffffffffffffffffffffffffffffff1681565b60008060009054906101000a900460ff16905090565b60006105af61058f565b156105ef576040517f08c379a00000000000000000000000000000000000000000000000000000000081526004016105e690611628565b60405180910390fd5b6000600260009054906101000a900473ffffffffffffffffffffffffffffffffffffffff1673ffffffffffffffffffffffffffffffffffffffff1663d204c45e33856040518363ffffffff1660e01b815260040161064e9291906116bf565b6020604051808303816000875af115801561066d573d6000803e3d6000fd5b505050506040513d601f19601f820116820180604052508101906106919190611704565b90507f9e6e3acb506bf1d2adb1d8565252e575763ee07d1debfcc2c830682895b3137d3382600360009054906101000a900473ffffffffffffffffffffffffffffffffffffffff166004546040516106ec9493929190611731565b60405180910390a180915050919050565b60006001600084815260200190815260200160002060000160008373ffffffffffffffffffffffffffffffffffffffff1673ffffffffffffffffffffffffffffffffffffffff16815260200190815260200160002060009054906101000a900460ff16905092915050565b6000801b61077d81610778610ab2565b610aba565b82600360006101000a81548173ffffffffffffffffffffffffffffffffffffffff021916908373ffffffffffffffffffffffffffffffffffffffff16021790555081600481905550505050565b6000801b81565b600360009054906101000a900473ffffffffffffffffffffffffffffffffffffffff1681565b6108008261049d565b6108118161080c610ab2565b610aba565b61081b8383610c37565b505050565b610828610f55565b60005b60208160ff1610156108fe57600060028261084691906117b2565b60ff1614610855576000610858565b60015b6101006108659190611945565b838260ff166020811061087b5761087a611990565b5b1a60f81b60f81c60ff1661088f91906119bf565b8260028361089d9190611a19565b60ff16601081106108b1576108b0611990565b5b60200201516108c09190611a4a565b826002836108ce9190611a19565b60ff16601081106108e2576108e1611990565b5b60200201818152505080806108f690611aa0565b91505061082b565b50919050565b7f65d7a28e3265b37a6474929f336521b332c1681b933f6cb9f3376673440d862a81565b6000801b61093d81610938610ab2565b610aba565b600073ffffffffffffffffffffffffffffffffffffffff168373ffffffffffffffffffffffffffffffffffffffff16036109bd573373ffffffffffffffffffffffffffffffffffffffff166108fc839081150290604051600060405180830381858888f193505050501580156109b7573d6000803e3d6000fd5b50610a3d565b8273ffffffffffffffffffffffffffffffffffffffff1663a9059cbb33846040518363ffffffff1660e01b81526004016109f8929190611ac9565b6020604051808303816000875af1158015610a17573d6000803e3d6000fd5b505050506040513d601f19601f82011682018060405250810190610a3b9190611b1e565b505b505050565b60045481565b60007f01ffc9a7000000000000000000000000000000000000000000000000000000007bffffffffffffffffffffffffffffffffffffffffffffffffffffffff1916827bffffffffffffffffffffffffffffffffffffffffffffffffffffffff1916149050919050565b600033905090565b610ac482826106fd565b610b5357610ae98173ffffffffffffffffffffffffffffffffffffffff166014610d19565b610af78360001c6020610d19565b604051602001610b08929190611c1f565b6040516020818303038152906040526040517f08c379a0000000000000000000000000000000000000000000000000000000008152600401610b4a9190611c59565b60405180910390fd5b5050565b610b6182826106fd565b610c3357600180600084815260200190815260200160002060000160008373ffffffffffffffffffffffffffffffffffffffff1673ffffffffffffffffffffffffffffffffffffffff16815260200190815260200160002060006101000a81548160ff021916908315150217905550610bd8610ab2565b73ffffffffffffffffffffffffffffffffffffffff168173ffffffffffffffffffffffffffffffffffffffff16837f2f8788117e7eff1d82e926ec794901d17c78024a50270940304540a733656f0d60405160405180910390a45b5050565b610c4182826106fd565b15610d155760006001600084815260200190815260200160002060000160008373ffffffffffffffffffffffffffffffffffffffff1673ffffffffffffffffffffffffffffffffffffffff16815260200190815260200160002060006101000a81548160ff021916908315150217905550610cba610ab2565b73ffffffffffffffffffffffffffffffffffffffff168173ffffffffffffffffffffffffffffffffffffffff16837ff6391f5c32d9c69d2a47ea670b442974b53935d1edc7fd64eb21e047a839171b60405160405180910390a45b5050565b606060006002836002610d2c91906119bf565b610d369190611a4a565b67ffffffffffffffff811115610d4f57610d4e61126a565b5b6040519080825280601f01601f191660200182016040528015610d815781602001600182028036833780820191505090505b5090507f300000000000000000000000000000000000000000000000000000000000000081600081518110610db957610db8611990565b5b60200101907effffffffffffffffffffffffffffffffffffffffffffffffffffffffffffff1916908160001a9053507f780000000000000000000000000000000000000000000000000000000000000081600181518110610e1d57610e1c611990565b5b60200101907effffffffffffffffffffffffffffffffffffffffffffffffffffffffffffff1916908160001a90535060006001846002610e5d91906119bf565b610e679190611a4a565b90505b6001811115610f07577f3031323334353637383961626364656600000000000000000000000000000000600f861660108110610ea957610ea8611990565b5b1a60f81b828281518110610ec057610ebf611990565b5b60200101907effffffffffffffffffffffffffffffffffffffffffffffffffffffffffffff1916908160001a905350600485901c945080610f0090611c7b565b9050610e6a565b5060008414610f4b576040517f08c379a0000000000000000000000000000000000000000000000000000000008152600401610f4290611cf0565b60405180910390fd5b8091505092915050565b604051806102000160405280601090602082028036833780820191505090505090565b6000604051905090565b600080fd5b600080fd5b60007fffffffff0000000000000000000000000000000000000000000000000000000082169050919050565b610fc181610f8c565b8114610fcc57600080fd5b50565b600081359050610fde81610fb8565b92915050565b600060208284031215610ffa57610ff9610f82565b5b600061100884828501610fcf565b91505092915050565b60008115159050919050565b61102681611011565b82525050565b6000602082019050611041600083018461101d565b92915050565b6000819050919050565b61105a81611047565b811461106557600080fd5b50565b60008135905061107781611051565b92915050565b60006020828403121561109357611092610f82565b5b60006110a184828501611068565b91505092915050565b6000819050919050565b6110bd816110aa565b81146110c857600080fd5b50565b6000813590506110da816110b4565b92915050565b6000602082840312156110f6576110f5610f82565b5b6000611104848285016110cb565b91505092915050565b611116816110aa565b82525050565b6000602082019050611131600083018461110d565b92915050565b600073ffffffffffffffffffffffffffffffffffffffff82169050919050565b600061116282611137565b9050919050565b61117281611157565b811461117d57600080fd5b50565b60008135905061118f81611169565b92915050565b600080604083850312156111ac576111ab610f82565b5b60006111ba858286016110cb565b92505060206111cb85828601611180565b9150509250929050565b6000819050919050565b60006111fa6111f56111f084611137565b6111d5565b611137565b9050919050565b600061120c826111df565b9050919050565b600061121e82611201565b9050919050565b61122e81611213565b82525050565b60006020820190506112496000830184611225565b92915050565b600080fd5b600080fd5b6000601f19601f8301169050919050565b7f4e487b7100000000000000000000000000000000000000000000000000000000600052604160045260246000fd5b6112a282611259565b810181811067ffffffffffffffff821117156112c1576112c061126a565b5b80604052505050565b60006112d4610f78565b90506112e08282611299565b919050565b600067ffffffffffffffff821115611300576112ff61126a565b5b61130982611259565b9050602081019050919050565b82818337600083830152505050565b6000611338611333846112e5565b6112ca565b90508281526020810184848401111561135457611353611254565b5b61135f848285611316565b509392505050565b600082601f83011261137c5761137b61124f565b5b813561138c848260208601611325565b91505092915050565b6000602082840312156113ab576113aa610f82565b5b600082013567ffffffffffffffff8111156113c9576113c8610f87565b5b6113d584828501611367565b91505092915050565b6113e781611047565b82525050565b600060208201905061140260008301846113de565b92915050565b6000806040838503121561141f5761141e610f82565b5b600061142d85828601611180565b925050602061143e85828601611068565b9150509250929050565b61145181611157565b82525050565b600060208201905061146c6000830184611448565b92915050565b600060109050919050565b600081905092915050565b6000819050919050565b61149b81611047565b82525050565b60006114ad8383611492565b60208301905092915050565b6000602082019050919050565b6114cf81611472565b6114d9818461147d565b92506114e482611488565b8060005b838110156115155781516114fc87826114a1565b9650611507836114b9565b9250506001810190506114e8565b505050505050565b60006102008201905061153360008301846114c6565b92915050565b600082825260208201905092915050565b7f416363657373436f6e74726f6c3a2063616e206f6e6c792072656e6f756e636560008201527f20726f6c657320666f722073656c660000000000000000000000000000000000602082015250565b60006115a6602f83611539565b91506115b18261154a565b604082019050919050565b600060208201905081810360008301526115d581611599565b9050919050565b7f5061757361626c653a2070617573656400000000000000000000000000000000600082015250565b6000611612601083611539565b915061161d826115dc565b602082019050919050565b6000602082019050818103600083015261164181611605565b9050919050565b600081519050919050565b60005b83811015611671578082015181840152602081019050611656565b83811115611680576000848401525b50505050565b600061169182611648565b61169b8185611539565b93506116ab818560208601611653565b6116b481611259565b840191505092915050565b60006040820190506116d46000830185611448565b81810360208301526116e68184611686565b90509392505050565b6000815190506116fe81611051565b92915050565b60006020828403121561171a57611719610f82565b5b6000611728848285016116ef565b91505092915050565b60006080820190506117466000830187611448565b61175360208301866113de565b6117606040830185611448565b61176d60608301846113de565b95945050505050565b600060ff82169050919050565b7f4e487b7100000000000000000000000000000000000000000000000000000000600052601260045260246000fd5b60006117bd82611776565b91506117c883611776565b9250826117d8576117d7611783565b5b828206905092915050565b7f4e487b7100000000000000000000000000000000000000000000000000000000600052601160045260246000fd5b60008160011c9050919050565b6000808291508390505b600185111561186957808604811115611845576118446117e3565b5b60018516156118545780820291505b808102905061186285611812565b9450611829565b94509492505050565b600082611882576001905061193e565b81611890576000905061193e565b81600181146118a657600281146118b0576118df565b600191505061193e565b60ff8411156118c2576118c16117e3565b5b8360020a9150848211156118d9576118d86117e3565b5b5061193e565b5060208310610133831016604e8410600b84101617156119145782820a90508381111561190f5761190e6117e3565b5b61193e565b611921848484600161181f565b92509050818404811115611938576119376117e3565b5b81810290505b9392505050565b600061195082611047565b915061195b83611776565b92506119887fffffffffffffffffffffffffffffffffffffffffffffffffffffffffffffffff8484611872565b905092915050565b7f4e487b7100000000000000000000000000000000000000000000000000000000600052603260045260246000fd5b60006119ca82611047565b91506119d583611047565b9250817fffffffffffffffffffffffffffffffffffffffffffffffffffffffffffffffff0483118215151615611a0e57611a0d6117e3565b5b828202905092915050565b6000611a2482611776565b9150611a2f83611776565b925082611a3f57611a3e611783565b5b828204905092915050565b6000611a5582611047565b9150611a6083611047565b9250827fffffffffffffffffffffffffffffffffffffffffffffffffffffffffffffffff03821115611a9557611a946117e3565b5b828201905092915050565b6000611aab82611776565b915060ff8203611abe57611abd6117e3565b5b600182019050919050565b6000604082019050611ade6000830185611448565b611aeb60208301846113de565b9392505050565b611afb81611011565b8114611b0657600080fd5b50565b600081519050611b1881611af2565b92915050565b600060208284031215611b3457611b33610f82565b5b6000611b4284828501611b09565b91505092915050565b600081905092915050565b7f416363657373436f6e74726f6c3a206163636f756e7420000000000000000000600082015250565b6000611b8c601783611b4b565b9150611b9782611b56565b601782019050919050565b6000611bad82611648565b611bb78185611b4b565b9350611bc7818560208601611653565b80840191505092915050565b7f206973206d697373696e6720726f6c6520000000000000000000000000000000600082015250565b6000611c09601183611b4b565b9150611c1482611bd3565b601182019050919050565b6000611c2a82611b7f565b9150611c368285611ba2565b9150611c4182611bfc565b9150611c4d8284611ba2565b91508190509392505050565b60006020820190508181036000830152611c738184611686565b905092915050565b6000611c8682611047565b915060008203611c9957611c986117e3565b5b600182039050919050565b7f537472696e67733a20686578206c656e67746820696e73756666696369656e74600082015250565b6000611cda602083611539565b9150611ce582611ca4565b602082019050919050565b60006020820190508181036000830152611d0981611ccd565b905091905056fea26469706673582212203085caaa6e050906700c29ca5f3c17144dfad0afb83fd57808f9bbc04ac3e54d64736f6c634300080d0033",
					"opcodes": "PUSH1 0x80 PUSH1 0x40 MSTORE PUSH1 0xA PUSH1 0x4 SSTORE CALLVALUE DUP1 ISZERO PUSH3 0x16 JUMPI PUSH1 0x0 DUP1 REVERT JUMPDEST POP PUSH1 0x40 MLOAD PUSH3 0x20A8 CODESIZE SUB DUP1 PUSH3 0x20A8 DUP4 CODECOPY DUP2 DUP2 ADD PUSH1 0x40 MSTORE DUP2 ADD SWAP1 PUSH3 0x3C SWAP2 SWAP1 PUSH3 0x30B JUMP JUMPDEST PUSH1 0x0 DUP1 PUSH1 0x0 PUSH2 0x100 EXP DUP2 SLOAD DUP2 PUSH1 0xFF MUL NOT AND SWAP1 DUP4 ISZERO ISZERO MUL OR SWAP1 SSTORE POP DUP2 PUSH1 0x2 PUSH1 0x0 PUSH2 0x100 EXP DUP2 SLOAD DUP2 PUSH20 0xFFFFFFFFFFFFFFFFFFFFFFFFFFFFFFFFFFFFFFFF MUL NOT AND SWAP1 DUP4 PUSH20 0xFFFFFFFFFFFFFFFFFFFFFFFFFFFFFFFFFFFFFFFF AND MUL OR SWAP1 SSTORE POP DUP1 PUSH1 0x3 PUSH1 0x0 PUSH2 0x100 EXP DUP2 SLOAD DUP2 PUSH20 0xFFFFFFFFFFFFFFFFFFFFFFFFFFFFFFFFFFFFFFFF MUL NOT AND SWAP1 DUP4 PUSH20 0xFFFFFFFFFFFFFFFFFFFFFFFFFFFFFFFFFFFFFFFF AND MUL OR SWAP1 SSTORE POP PUSH3 0xED PUSH1 0x0 DUP1 SHL CALLER PUSH3 0x127 PUSH1 0x20 SHL PUSH1 0x20 SHR JUMP JUMPDEST PUSH3 0x11F PUSH32 0x65D7A28E3265B37A6474929F336521B332C1681B933F6CB9F3376673440D862A CALLER PUSH3 0x127 PUSH1 0x20 SHL PUSH1 0x20 SHR JUMP JUMPDEST POP POP PUSH3 0x352 JUMP JUMPDEST PUSH3 0x139 DUP3 DUP3 PUSH3 0x13D PUSH1 0x20 SHL PUSH1 0x20 SHR JUMP JUMPDEST POP POP JUMP JUMPDEST PUSH3 0x14F DUP3 DUP3 PUSH3 0x22E PUSH1 0x20 SHL PUSH1 0x20 SHR JUMP JUMPDEST PUSH3 0x22A JUMPI PUSH1 0x1 DUP1 PUSH1 0x0 DUP5 DUP2 MSTORE PUSH1 0x20 ADD SWAP1 DUP2 MSTORE PUSH1 0x20 ADD PUSH1 0x0 KECCAK256 PUSH1 0x0 ADD PUSH1 0x0 DUP4 PUSH20 0xFFFFFFFFFFFFFFFFFFFFFFFFFFFFFFFFFFFFFFFF AND PUSH20 0xFFFFFFFFFFFFFFFFFFFFFFFFFFFFFFFFFFFFFFFF AND DUP2 MSTORE PUSH1 0x20 ADD SWAP1 DUP2 MSTORE PUSH1 0x20 ADD PUSH1 0x0 KECCAK256 PUSH1 0x0 PUSH2 0x100 EXP DUP2 SLOAD DUP2 PUSH1 0xFF MUL NOT AND SWAP1 DUP4 ISZERO ISZERO MUL OR SWAP1 SSTORE POP PUSH3 0x1CF PUSH3 0x299 PUSH1 0x20 SHL PUSH1 0x20 SHR JUMP JUMPDEST PUSH20 0xFFFFFFFFFFFFFFFFFFFFFFFFFFFFFFFFFFFFFFFF AND DUP2 PUSH20 0xFFFFFFFFFFFFFFFFFFFFFFFFFFFFFFFFFFFFFFFF AND DUP4 PUSH32 0x2F8788117E7EFF1D82E926EC794901D17C78024A50270940304540A733656F0D PUSH1 0x40 MLOAD PUSH1 0x40 MLOAD DUP1 SWAP2 SUB SWAP1 LOG4 JUMPDEST POP POP JUMP JUMPDEST PUSH1 0x0 PUSH1 0x1 PUSH1 0x0 DUP5 DUP2 MSTORE PUSH1 0x20 ADD SWAP1 DUP2 MSTORE PUSH1 0x20 ADD PUSH1 0x0 KECCAK256 PUSH1 0x0 ADD PUSH1 0x0 DUP4 PUSH20 0xFFFFFFFFFFFFFFFFFFFFFFFFFFFFFFFFFFFFFFFF AND PUSH20 0xFFFFFFFFFFFFFFFFFFFFFFFFFFFFFFFFFFFFFFFF AND DUP2 MSTORE PUSH1 0x20 ADD SWAP1 DUP2 MSTORE PUSH1 0x20 ADD PUSH1 0x0 KECCAK256 PUSH1 0x0 SWAP1 SLOAD SWAP1 PUSH2 0x100 EXP SWAP1 DIV PUSH1 0xFF AND SWAP1 POP SWAP3 SWAP2 POP POP JUMP JUMPDEST PUSH1 0x0 CALLER SWAP1 POP SWAP1 JUMP JUMPDEST PUSH1 0x0 DUP1 REVERT JUMPDEST PUSH1 0x0 PUSH20 0xFFFFFFFFFFFFFFFFFFFFFFFFFFFFFFFFFFFFFFFF DUP3 AND SWAP1 POP SWAP2 SWAP1 POP JUMP JUMPDEST PUSH1 0x0 PUSH3 0x2D3 DUP3 PUSH3 0x2A6 JUMP JUMPDEST SWAP1 POP SWAP2 SWAP1 POP JUMP JUMPDEST PUSH3 0x2E5 DUP2 PUSH3 0x2C6 JUMP JUMPDEST DUP2 EQ PUSH3 0x2F1 JUMPI PUSH1 0x0 DUP1 REVERT JUMPDEST POP JUMP JUMPDEST PUSH1 0x0 DUP2 MLOAD SWAP1 POP PUSH3 0x305 DUP2 PUSH3 0x2DA JUMP JUMPDEST SWAP3 SWAP2 POP POP JUMP JUMPDEST PUSH1 0x0 DUP1 PUSH1 0x40 DUP4 DUP6 SUB SLT ISZERO PUSH3 0x325 JUMPI PUSH3 0x324 PUSH3 0x2A1 JUMP JUMPDEST JUMPDEST PUSH1 0x0 PUSH3 0x335 DUP6 DUP3 DUP7 ADD PUSH3 0x2F4 JUMP JUMPDEST SWAP3 POP POP PUSH1 0x20 PUSH3 0x348 DUP6 DUP3 DUP7 ADD PUSH3 0x2F4 JUMP JUMPDEST SWAP2 POP POP SWAP3 POP SWAP3 SWAP1 POP JUMP JUMPDEST PUSH2 0x1D46 DUP1 PUSH3 0x362 PUSH1 0x0 CODECOPY PUSH1 0x0 RETURN INVALID PUSH1 0x80 PUSH1 0x40 MSTORE CALLVALUE DUP1 ISZERO PUSH2 0x10 JUMPI PUSH1 0x0 DUP1 REVERT JUMPDEST POP PUSH1 0x4 CALLDATASIZE LT PUSH2 0x10B JUMPI PUSH1 0x0 CALLDATALOAD PUSH1 0xE0 SHR DUP1 PUSH4 0x91D14854 GT PUSH2 0xA2 JUMPI DUP1 PUSH4 0xD547741F GT PUSH2 0x71 JUMPI DUP1 PUSH4 0xD547741F EQ PUSH2 0x2B8 JUMPI DUP1 PUSH4 0xDD23FAF3 EQ PUSH2 0x2D4 JUMPI DUP1 PUSH4 0xE63AB1E9 EQ PUSH2 0x304 JUMPI DUP1 PUSH4 0xF3FEF3A3 EQ PUSH2 0x322 JUMPI DUP1 PUSH4 0xF400FDE4 EQ PUSH2 0x33E JUMPI PUSH2 0x10B JUMP JUMPDEST DUP1 PUSH4 0x91D14854 EQ PUSH2 0x230 JUMPI DUP1 PUSH4 0x945099BC EQ PUSH2 0x260 JUMPI DUP1 PUSH4 0xA217FDDF EQ PUSH2 0x27C JUMPI DUP1 PUSH4 0xC6098256 EQ PUSH2 0x29A JUMPI PUSH2 0x10B JUMP JUMPDEST DUP1 PUSH4 0x36568ABE GT PUSH2 0xDE JUMPI DUP1 PUSH4 0x36568ABE EQ PUSH2 0x1A8 JUMPI DUP1 PUSH4 0x52C6159F EQ PUSH2 0x1C4 JUMPI DUP1 PUSH4 0x5C975ABB EQ PUSH2 0x1E2 JUMPI DUP1 PUSH4 0x841ACC5D EQ PUSH2 0x200 JUMPI PUSH2 0x10B JUMP JUMPDEST DUP1 PUSH4 0x1FFC9A7 EQ PUSH2 0x110 JUMPI DUP1 PUSH4 0xA1AC657 EQ PUSH2 0x140 JUMPI DUP1 PUSH4 0x248A9CA3 EQ PUSH2 0x15C JUMPI DUP1 PUSH4 0x2F2FF15D EQ PUSH2 0x18C JUMPI JUMPDEST PUSH1 0x0 DUP1 REVERT JUMPDEST PUSH2 0x12A PUSH1 0x4 DUP1 CALLDATASIZE SUB DUP2 ADD SWAP1 PUSH2 0x125 SWAP2 SWAP1 PUSH2 0xFE4 JUMP JUMPDEST PUSH2 0x35C JUMP JUMPDEST PUSH1 0x40 MLOAD PUSH2 0x137 SWAP2 SWAP1 PUSH2 0x102C JUMP JUMPDEST PUSH1 0x40 MLOAD DUP1 SWAP2 SUB SWAP1 RETURN JUMPDEST PUSH2 0x15A PUSH1 0x4 DUP1 CALLDATASIZE SUB DUP2 ADD SWAP1 PUSH2 0x155 SWAP2 SWAP1 PUSH2 0x107D JUMP JUMPDEST PUSH2 0x3D6 JUMP JUMPDEST STOP JUMPDEST PUSH2 0x176 PUSH1 0x4 DUP1 CALLDATASIZE SUB DUP2 ADD SWAP1 PUSH2 0x171 SWAP2 SWAP1 PUSH2 0x10E0 JUMP JUMPDEST PUSH2 0x49D JUMP JUMPDEST PUSH1 0x40 MLOAD PUSH2 0x183 SWAP2 SWAP1 PUSH2 0x111C JUMP JUMPDEST PUSH1 0x40 MLOAD DUP1 SWAP2 SUB SWAP1 RETURN JUMPDEST PUSH2 0x1A6 PUSH1 0x4 DUP1 CALLDATASIZE SUB DUP2 ADD SWAP1 PUSH2 0x1A1 SWAP2 SWAP1 PUSH2 0x1195 JUMP JUMPDEST PUSH2 0x4BD JUMP JUMPDEST STOP JUMPDEST PUSH2 0x1C2 PUSH1 0x4 DUP1 CALLDATASIZE SUB DUP2 ADD SWAP1 PUSH2 0x1BD SWAP2 SWAP1 PUSH2 0x1195 JUMP JUMPDEST PUSH2 0x4E6 JUMP JUMPDEST STOP JUMPDEST PUSH2 0x1CC PUSH2 0x569 JUMP JUMPDEST PUSH1 0x40 MLOAD PUSH2 0x1D9 SWAP2 SWAP1 PUSH2 0x1234 JUMP JUMPDEST PUSH1 0x40 MLOAD DUP1 SWAP2 SUB SWAP1 RETURN JUMPDEST PUSH2 0x1EA PUSH2 0x58F JUMP JUMPDEST PUSH1 0x40 MLOAD PUSH2 0x1F7 SWAP2 SWAP1 PUSH2 0x102C JUMP JUMPDEST PUSH1 0x40 MLOAD DUP1 SWAP2 SUB SWAP1 RETURN JUMPDEST PUSH2 0x21A PUSH1 0x4 DUP1 CALLDATASIZE SUB DUP2 ADD SWAP1 PUSH2 0x215 SWAP2 SWAP1 PUSH2 0x1395 JUMP JUMPDEST PUSH2 0x5A5 JUMP JUMPDEST PUSH1 0x40 MLOAD PUSH2 0x227 SWAP2 SWAP1 PUSH2 0x13ED JUMP JUMPDEST PUSH1 0x40 MLOAD DUP1 SWAP2 SUB SWAP1 RETURN JUMPDEST PUSH2 0x24A PUSH1 0x4 DUP1 CALLDATASIZE SUB DUP2 ADD SWAP1 PUSH2 0x245 SWAP2 SWAP1 PUSH2 0x1195 JUMP JUMPDEST PUSH2 0x6FD JUMP JUMPDEST PUSH1 0x40 MLOAD PUSH2 0x257 SWAP2 SWAP1 PUSH2 0x102C JUMP JUMPDEST PUSH1 0x40 MLOAD DUP1 SWAP2 SUB SWAP1 RETURN JUMPDEST PUSH2 0x27A PUSH1 0x4 DUP1 CALLDATASIZE SUB DUP2 ADD SWAP1 PUSH2 0x275 SWAP2 SWAP1 PUSH2 0x1408 JUMP JUMPDEST PUSH2 0x768 JUMP JUMPDEST STOP JUMPDEST PUSH2 0x284 PUSH2 0x7CA JUMP JUMPDEST PUSH1 0x40 MLOAD PUSH2 0x291 SWAP2 SWAP1 PUSH2 0x111C JUMP JUMPDEST PUSH1 0x40 MLOAD DUP1 SWAP2 SUB SWAP1 RETURN JUMPDEST PUSH2 0x2A2 PUSH2 0x7D1 JUMP JUMPDEST PUSH1 0x40 MLOAD PUSH2 0x2AF SWAP2 SWAP1 PUSH2 0x1457 JUMP JUMPDEST PUSH1 0x40 MLOAD DUP1 SWAP2 SUB SWAP1 RETURN JUMPDEST PUSH2 0x2D2 PUSH1 0x4 DUP1 CALLDATASIZE SUB DUP2 ADD SWAP1 PUSH2 0x2CD SWAP2 SWAP1 PUSH2 0x1195 JUMP JUMPDEST PUSH2 0x7F7 JUMP JUMPDEST STOP JUMPDEST PUSH2 0x2EE PUSH1 0x4 DUP1 CALLDATASIZE SUB DUP2 ADD SWAP1 PUSH2 0x2E9 SWAP2 SWAP1 PUSH2 0x10E0 JUMP JUMPDEST PUSH2 0x820 JUMP JUMPDEST PUSH1 0x40 MLOAD PUSH2 0x2FB SWAP2 SWAP1 PUSH2 0x151D JUMP JUMPDEST PUSH1 0x40 MLOAD DUP1 SWAP2 SUB SWAP1 RETURN JUMPDEST PUSH2 0x30C PUSH2 0x904 JUMP JUMPDEST PUSH1 0x40 MLOAD PUSH2 0x319 SWAP2 SWAP1 PUSH2 0x111C JUMP JUMPDEST PUSH1 0x40 MLOAD DUP1 SWAP2 SUB SWAP1 RETURN JUMPDEST PUSH2 0x33C PUSH1 0x4 DUP1 CALLDATASIZE SUB DUP2 ADD SWAP1 PUSH2 0x337 SWAP2 SWAP1 PUSH2 0x1408 JUMP JUMPDEST PUSH2 0x928 JUMP JUMPDEST STOP JUMPDEST PUSH2 0x346 PUSH2 0xA42 JUMP JUMPDEST PUSH1 0x40 MLOAD PUSH2 0x353 SWAP2 SWAP1 PUSH2 0x13ED JUMP JUMPDEST PUSH1 0x40 MLOAD DUP1 SWAP2 SUB SWAP1 RETURN JUMPDEST PUSH1 0x0 PUSH32 0x7965DB0B00000000000000000000000000000000000000000000000000000000 PUSH28 0xFFFFFFFFFFFFFFFFFFFFFFFFFFFFFFFFFFFFFFFFFFFFFFFFFFFFFFFF NOT AND DUP3 PUSH28 0xFFFFFFFFFFFFFFFFFFFFFFFFFFFFFFFFFFFFFFFFFFFFFFFFFFFFFFFF NOT AND EQ DUP1 PUSH2 0x3CF JUMPI POP PUSH2 0x3CE DUP3 PUSH2 0xA48 JUMP JUMPDEST JUMPDEST SWAP1 POP SWAP2 SWAP1 POP JUMP JUMPDEST PUSH1 0x2 PUSH1 0x0 SWAP1 SLOAD SWAP1 PUSH2 0x100 EXP SWAP1 DIV PUSH20 0xFFFFFFFFFFFFFFFFFFFFFFFFFFFFFFFFFFFFFFFF AND PUSH20 0xFFFFFFFFFFFFFFFFFFFFFFFFFFFFFFFFFFFFFFFF AND PUSH4 0x42966C68 DUP3 PUSH1 0x40 MLOAD DUP3 PUSH4 0xFFFFFFFF AND PUSH1 0xE0 SHL DUP2 MSTORE PUSH1 0x4 ADD PUSH2 0x431 SWAP2 SWAP1 PUSH2 0x13ED JUMP JUMPDEST PUSH1 0x0 PUSH1 0x40 MLOAD DUP1 DUP4 SUB DUP2 PUSH1 0x0 DUP8 DUP1 EXTCODESIZE ISZERO DUP1 ISZERO PUSH2 0x44B JUMPI PUSH1 0x0 DUP1 REVERT JUMPDEST POP GAS CALL ISZERO DUP1 ISZERO PUSH2 0x45F JUMPI RETURNDATASIZE PUSH1 0x0 DUP1 RETURNDATACOPY RETURNDATASIZE PUSH1 0x0 REVERT JUMPDEST POP POP POP POP PUSH32 0x950DCD4A7087BBF2CEE08268E1B26AC45FB310D3AE443D0FE53714B713DA45C1 DUP2 PUSH1 0x40 MLOAD PUSH2 0x492 SWAP2 SWAP1 PUSH2 0x13ED JUMP JUMPDEST PUSH1 0x40 MLOAD DUP1 SWAP2 SUB SWAP1 LOG1 POP JUMP JUMPDEST PUSH1 0x0 PUSH1 0x1 PUSH1 0x0 DUP4 DUP2 MSTORE PUSH1 0x20 ADD SWAP1 DUP2 MSTORE PUSH1 0x20 ADD PUSH1 0x0 KECCAK256 PUSH1 0x1 ADD SLOAD SWAP1 POP SWAP2 SWAP1 POP JUMP JUMPDEST PUSH2 0x4C6 DUP3 PUSH2 0x49D JUMP JUMPDEST PUSH2 0x4D7 DUP2 PUSH2 0x4D2 PUSH2 0xAB2 JUMP JUMPDEST PUSH2 0xABA JUMP JUMPDEST PUSH2 0x4E1 DUP4 DUP4 PUSH2 0xB57 JUMP JUMPDEST POP POP POP JUMP JUMPDEST PUSH2 0x4EE PUSH2 0xAB2 JUMP JUMPDEST PUSH20 0xFFFFFFFFFFFFFFFFFFFFFFFFFFFFFFFFFFFFFFFF AND DUP2 PUSH20 0xFFFFFFFFFFFFFFFFFFFFFFFFFFFFFFFFFFFFFFFF AND EQ PUSH2 0x55B JUMPI PUSH1 0x40 MLOAD PUSH32 0x8C379A000000000000000000000000000000000000000000000000000000000 DUP2 MSTORE PUSH1 0x4 ADD PUSH2 0x552 SWAP1 PUSH2 0x15BC JUMP JUMPDEST PUSH1 0x40 MLOAD DUP1 SWAP2 SUB SWAP1 REVERT JUMPDEST PUSH2 0x565 DUP3 DUP3 PUSH2 0xC37 JUMP JUMPDEST POP POP JUMP JUMPDEST PUSH1 0x2 PUSH1 0x0 SWAP1 SLOAD SWAP1 PUSH2 0x100 EXP SWAP1 DIV PUSH20 0xFFFFFFFFFFFFFFFFFFFFFFFFFFFFFFFFFFFFFFFF AND DUP2 JUMP JUMPDEST PUSH1 0x0 DUP1 PUSH1 0x0 SWAP1 SLOAD SWAP1 PUSH2 0x100 EXP SWAP1 DIV PUSH1 0xFF AND SWAP1 POP SWAP1 JUMP JUMPDEST PUSH1 0x0 PUSH2 0x5AF PUSH2 0x58F JUMP JUMPDEST ISZERO PUSH2 0x5EF JUMPI PUSH1 0x40 MLOAD PUSH32 0x8C379A000000000000000000000000000000000000000000000000000000000 DUP2 MSTORE PUSH1 0x4 ADD PUSH2 0x5E6 SWAP1 PUSH2 0x1628 JUMP JUMPDEST PUSH1 0x40 MLOAD DUP1 SWAP2 SUB SWAP1 REVERT JUMPDEST PUSH1 0x0 PUSH1 0x2 PUSH1 0x0 SWAP1 SLOAD SWAP1 PUSH2 0x100 EXP SWAP1 DIV PUSH20 0xFFFFFFFFFFFFFFFFFFFFFFFFFFFFFFFFFFFFFFFF AND PUSH20 0xFFFFFFFFFFFFFFFFFFFFFFFFFFFFFFFFFFFFFFFF AND PUSH4 0xD204C45E CALLER DUP6 PUSH1 0x40 MLOAD DUP4 PUSH4 0xFFFFFFFF AND PUSH1 0xE0 SHL DUP2 MSTORE PUSH1 0x4 ADD PUSH2 0x64E SWAP3 SWAP2 SWAP1 PUSH2 0x16BF JUMP JUMPDEST PUSH1 0x20 PUSH1 0x40 MLOAD DUP1 DUP4 SUB DUP2 PUSH1 0x0 DUP8 GAS CALL ISZERO DUP1 ISZERO PUSH2 0x66D JUMPI RETURNDATASIZE PUSH1 0x0 DUP1 RETURNDATACOPY RETURNDATASIZE PUSH1 0x0 REVERT JUMPDEST POP POP POP POP PUSH1 0x40 MLOAD RETURNDATASIZE PUSH1 0x1F NOT PUSH1 0x1F DUP3 ADD AND DUP3 ADD DUP1 PUSH1 0x40 MSTORE POP DUP2 ADD SWAP1 PUSH2 0x691 SWAP2 SWAP1 PUSH2 0x1704 JUMP JUMPDEST SWAP1 POP PUSH32 0x9E6E3ACB506BF1D2ADB1D8565252E575763EE07D1DEBFCC2C830682895B3137D CALLER DUP3 PUSH1 0x3 PUSH1 0x0 SWAP1 SLOAD SWAP1 PUSH2 0x100 EXP SWAP1 DIV PUSH20 0xFFFFFFFFFFFFFFFFFFFFFFFFFFFFFFFFFFFFFFFF AND PUSH1 0x4 SLOAD PUSH1 0x40 MLOAD PUSH2 0x6EC SWAP5 SWAP4 SWAP3 SWAP2 SWAP1 PUSH2 0x1731 JUMP JUMPDEST PUSH1 0x40 MLOAD DUP1 SWAP2 SUB SWAP1 LOG1 DUP1 SWAP2 POP POP SWAP2 SWAP1 POP JUMP JUMPDEST PUSH1 0x0 PUSH1 0x1 PUSH1 0x0 DUP5 DUP2 MSTORE PUSH1 0x20 ADD SWAP1 DUP2 MSTORE PUSH1 0x20 ADD PUSH1 0x0 KECCAK256 PUSH1 0x0 ADD PUSH1 0x0 DUP4 PUSH20 0xFFFFFFFFFFFFFFFFFFFFFFFFFFFFFFFFFFFFFFFF AND PUSH20 0xFFFFFFFFFFFFFFFFFFFFFFFFFFFFFFFFFFFFFFFF AND DUP2 MSTORE PUSH1 0x20 ADD SWAP1 DUP2 MSTORE PUSH1 0x20 ADD PUSH1 0x0 KECCAK256 PUSH1 0x0 SWAP1 SLOAD SWAP1 PUSH2 0x100 EXP SWAP1 DIV PUSH1 0xFF AND SWAP1 POP SWAP3 SWAP2 POP POP JUMP JUMPDEST PUSH1 0x0 DUP1 SHL PUSH2 0x77D DUP2 PUSH2 0x778 PUSH2 0xAB2 JUMP JUMPDEST PUSH2 0xABA JUMP JUMPDEST DUP3 PUSH1 0x3 PUSH1 0x0 PUSH2 0x100 EXP DUP2 SLOAD DUP2 PUSH20 0xFFFFFFFFFFFFFFFFFFFFFFFFFFFFFFFFFFFFFFFF MUL NOT AND SWAP1 DUP4 PUSH20 0xFFFFFFFFFFFFFFFFFFFFFFFFFFFFFFFFFFFFFFFF AND MUL OR SWAP1 SSTORE POP DUP2 PUSH1 0x4 DUP2 SWAP1 SSTORE POP POP POP POP JUMP JUMPDEST PUSH1 0x0 DUP1 SHL DUP2 JUMP JUMPDEST PUSH1 0x3 PUSH1 0x0 SWAP1 SLOAD SWAP1 PUSH2 0x100 EXP SWAP1 DIV PUSH20 0xFFFFFFFFFFFFFFFFFFFFFFFFFFFFFFFFFFFFFFFF AND DUP2 JUMP JUMPDEST PUSH2 0x800 DUP3 PUSH2 0x49D JUMP JUMPDEST PUSH2 0x811 DUP2 PUSH2 0x80C PUSH2 0xAB2 JUMP JUMPDEST PUSH2 0xABA JUMP JUMPDEST PUSH2 0x81B DUP4 DUP4 PUSH2 0xC37 JUMP JUMPDEST POP POP POP JUMP JUMPDEST PUSH2 0x828 PUSH2 0xF55 JUMP JUMPDEST PUSH1 0x0 JUMPDEST PUSH1 0x20 DUP2 PUSH1 0xFF AND LT ISZERO PUSH2 0x8FE JUMPI PUSH1 0x0 PUSH1 0x2 DUP3 PUSH2 0x846 SWAP2 SWAP1 PUSH2 0x17B2 JUMP JUMPDEST PUSH1 0xFF AND EQ PUSH2 0x855 JUMPI PUSH1 0x0 PUSH2 0x858 JUMP JUMPDEST PUSH1 0x1 JUMPDEST PUSH2 0x100 PUSH2 0x865 SWAP2 SWAP1 PUSH2 0x1945 JUMP JUMPDEST DUP4 DUP3 PUSH1 0xFF AND PUSH1 0x20 DUP2 LT PUSH2 0x87B JUMPI PUSH2 0x87A PUSH2 0x1990 JUMP JUMPDEST JUMPDEST BYTE PUSH1 0xF8 SHL PUSH1 0xF8 SHR PUSH1 0xFF AND PUSH2 0x88F SWAP2 SWAP1 PUSH2 0x19BF JUMP JUMPDEST DUP3 PUSH1 0x2 DUP4 PUSH2 0x89D SWAP2 SWAP1 PUSH2 0x1A19 JUMP JUMPDEST PUSH1 0xFF AND PUSH1 0x10 DUP2 LT PUSH2 0x8B1 JUMPI PUSH2 0x8B0 PUSH2 0x1990 JUMP JUMPDEST JUMPDEST PUSH1 0x20 MUL ADD MLOAD PUSH2 0x8C0 SWAP2 SWAP1 PUSH2 0x1A4A JUMP JUMPDEST DUP3 PUSH1 0x2 DUP4 PUSH2 0x8CE SWAP2 SWAP1 PUSH2 0x1A19 JUMP JUMPDEST PUSH1 0xFF AND PUSH1 0x10 DUP2 LT PUSH2 0x8E2 JUMPI PUSH2 0x8E1 PUSH2 0x1990 JUMP JUMPDEST JUMPDEST PUSH1 0x20 MUL ADD DUP2 DUP2 MSTORE POP POP DUP1 DUP1 PUSH2 0x8F6 SWAP1 PUSH2 0x1AA0 JUMP JUMPDEST SWAP2 POP POP PUSH2 0x82B JUMP JUMPDEST POP SWAP2 SWAP1 POP JUMP JUMPDEST PUSH32 0x65D7A28E3265B37A6474929F336521B332C1681B933F6CB9F3376673440D862A DUP2 JUMP JUMPDEST PUSH1 0x0 DUP1 SHL PUSH2 0x93D DUP2 PUSH2 0x938 PUSH2 0xAB2 JUMP JUMPDEST PUSH2 0xABA JUMP JUMPDEST PUSH1 0x0 PUSH20 0xFFFFFFFFFFFFFFFFFFFFFFFFFFFFFFFFFFFFFFFF AND DUP4 PUSH20 0xFFFFFFFFFFFFFFFFFFFFFFFFFFFFFFFFFFFFFFFF AND SUB PUSH2 0x9BD JUMPI CALLER PUSH20 0xFFFFFFFFFFFFFFFFFFFFFFFFFFFFFFFFFFFFFFFF AND PUSH2 0x8FC DUP4 SWAP1 DUP2 ISZERO MUL SWAP1 PUSH1 0x40 MLOAD PUSH1 0x0 PUSH1 0x40 MLOAD DUP1 DUP4 SUB DUP2 DUP6 DUP9 DUP9 CALL SWAP4 POP POP POP POP ISZERO DUP1 ISZERO PUSH2 0x9B7 JUMPI RETURNDATASIZE PUSH1 0x0 DUP1 RETURNDATACOPY RETURNDATASIZE PUSH1 0x0 REVERT JUMPDEST POP PUSH2 0xA3D JUMP JUMPDEST DUP3 PUSH20 0xFFFFFFFFFFFFFFFFFFFFFFFFFFFFFFFFFFFFFFFF AND PUSH4 0xA9059CBB CALLER DUP5 PUSH1 0x40 MLOAD DUP4 PUSH4 0xFFFFFFFF AND PUSH1 0xE0 SHL DUP2 MSTORE PUSH1 0x4 ADD PUSH2 0x9F8 SWAP3 SWAP2 SWAP1 PUSH2 0x1AC9 JUMP JUMPDEST PUSH1 0x20 PUSH1 0x40 MLOAD DUP1 DUP4 SUB DUP2 PUSH1 0x0 DUP8 GAS CALL ISZERO DUP1 ISZERO PUSH2 0xA17 JUMPI RETURNDATASIZE PUSH1 0x0 DUP1 RETURNDATACOPY RETURNDATASIZE PUSH1 0x0 REVERT JUMPDEST POP POP POP POP PUSH1 0x40 MLOAD RETURNDATASIZE PUSH1 0x1F NOT PUSH1 0x1F DUP3 ADD AND DUP3 ADD DUP1 PUSH1 0x40 MSTORE POP DUP2 ADD SWAP1 PUSH2 0xA3B SWAP2 SWAP1 PUSH2 0x1B1E JUMP JUMPDEST POP JUMPDEST POP POP POP JUMP JUMPDEST PUSH1 0x4 SLOAD DUP2 JUMP JUMPDEST PUSH1 0x0 PUSH32 0x1FFC9A700000000000000000000000000000000000000000000000000000000 PUSH28 0xFFFFFFFFFFFFFFFFFFFFFFFFFFFFFFFFFFFFFFFFFFFFFFFFFFFFFFFF NOT AND DUP3 PUSH28 0xFFFFFFFFFFFFFFFFFFFFFFFFFFFFFFFFFFFFFFFFFFFFFFFFFFFFFFFF NOT AND EQ SWAP1 POP SWAP2 SWAP1 POP JUMP JUMPDEST PUSH1 0x0 CALLER SWAP1 POP SWAP1 JUMP JUMPDEST PUSH2 0xAC4 DUP3 DUP3 PUSH2 0x6FD JUMP JUMPDEST PUSH2 0xB53 JUMPI PUSH2 0xAE9 DUP2 PUSH20 0xFFFFFFFFFFFFFFFFFFFFFFFFFFFFFFFFFFFFFFFF AND PUSH1 0x14 PUSH2 0xD19 JUMP JUMPDEST PUSH2 0xAF7 DUP4 PUSH1 0x0 SHR PUSH1 0x20 PUSH2 0xD19 JUMP JUMPDEST PUSH1 0x40 MLOAD PUSH1 0x20 ADD PUSH2 0xB08 SWAP3 SWAP2 SWAP1 PUSH2 0x1C1F JUMP JUMPDEST PUSH1 0x40 MLOAD PUSH1 0x20 DUP2 DUP4 SUB SUB DUP2 MSTORE SWAP1 PUSH1 0x40 MSTORE PUSH1 0x40 MLOAD PUSH32 0x8C379A000000000000000000000000000000000000000000000000000000000 DUP2 MSTORE PUSH1 0x4 ADD PUSH2 0xB4A SWAP2 SWAP1 PUSH2 0x1C59 JUMP JUMPDEST PUSH1 0x40 MLOAD DUP1 SWAP2 SUB SWAP1 REVERT JUMPDEST POP POP JUMP JUMPDEST PUSH2 0xB61 DUP3 DUP3 PUSH2 0x6FD JUMP JUMPDEST PUSH2 0xC33 JUMPI PUSH1 0x1 DUP1 PUSH1 0x0 DUP5 DUP2 MSTORE PUSH1 0x20 ADD SWAP1 DUP2 MSTORE PUSH1 0x20 ADD PUSH1 0x0 KECCAK256 PUSH1 0x0 ADD PUSH1 0x0 DUP4 PUSH20 0xFFFFFFFFFFFFFFFFFFFFFFFFFFFFFFFFFFFFFFFF AND PUSH20 0xFFFFFFFFFFFFFFFFFFFFFFFFFFFFFFFFFFFFFFFF AND DUP2 MSTORE PUSH1 0x20 ADD SWAP1 DUP2 MSTORE PUSH1 0x20 ADD PUSH1 0x0 KECCAK256 PUSH1 0x0 PUSH2 0x100 EXP DUP2 SLOAD DUP2 PUSH1 0xFF MUL NOT AND SWAP1 DUP4 ISZERO ISZERO MUL OR SWAP1 SSTORE POP PUSH2 0xBD8 PUSH2 0xAB2 JUMP JUMPDEST PUSH20 0xFFFFFFFFFFFFFFFFFFFFFFFFFFFFFFFFFFFFFFFF AND DUP2 PUSH20 0xFFFFFFFFFFFFFFFFFFFFFFFFFFFFFFFFFFFFFFFF AND DUP4 PUSH32 0x2F8788117E7EFF1D82E926EC794901D17C78024A50270940304540A733656F0D PUSH1 0x40 MLOAD PUSH1 0x40 MLOAD DUP1 SWAP2 SUB SWAP1 LOG4 JUMPDEST POP POP JUMP JUMPDEST PUSH2 0xC41 DUP3 DUP3 PUSH2 0x6FD JUMP JUMPDEST ISZERO PUSH2 0xD15 JUMPI PUSH1 0x0 PUSH1 0x1 PUSH1 0x0 DUP5 DUP2 MSTORE PUSH1 0x20 ADD SWAP1 DUP2 MSTORE PUSH1 0x20 ADD PUSH1 0x0 KECCAK256 PUSH1 0x0 ADD PUSH1 0x0 DUP4 PUSH20 0xFFFFFFFFFFFFFFFFFFFFFFFFFFFFFFFFFFFFFFFF AND PUSH20 0xFFFFFFFFFFFFFFFFFFFFFFFFFFFFFFFFFFFFFFFF AND DUP2 MSTORE PUSH1 0x20 ADD SWAP1 DUP2 MSTORE PUSH1 0x20 ADD PUSH1 0x0 KECCAK256 PUSH1 0x0 PUSH2 0x100 EXP DUP2 SLOAD DUP2 PUSH1 0xFF MUL NOT AND SWAP1 DUP4 ISZERO ISZERO MUL OR SWAP1 SSTORE POP PUSH2 0xCBA PUSH2 0xAB2 JUMP JUMPDEST PUSH20 0xFFFFFFFFFFFFFFFFFFFFFFFFFFFFFFFFFFFFFFFF AND DUP2 PUSH20 0xFFFFFFFFFFFFFFFFFFFFFFFFFFFFFFFFFFFFFFFF AND DUP4 PUSH32 0xF6391F5C32D9C69D2A47EA670B442974B53935D1EDC7FD64EB21E047A839171B PUSH1 0x40 MLOAD PUSH1 0x40 MLOAD DUP1 SWAP2 SUB SWAP1 LOG4 JUMPDEST POP POP JUMP JUMPDEST PUSH1 0x60 PUSH1 0x0 PUSH1 0x2 DUP4 PUSH1 0x2 PUSH2 0xD2C SWAP2 SWAP1 PUSH2 0x19BF JUMP JUMPDEST PUSH2 0xD36 SWAP2 SWAP1 PUSH2 0x1A4A JUMP JUMPDEST PUSH8 0xFFFFFFFFFFFFFFFF DUP2 GT ISZERO PUSH2 0xD4F JUMPI PUSH2 0xD4E PUSH2 0x126A JUMP JUMPDEST JUMPDEST PUSH1 0x40 MLOAD SWAP1 DUP1 DUP3 MSTORE DUP1 PUSH1 0x1F ADD PUSH1 0x1F NOT AND PUSH1 0x20 ADD DUP3 ADD PUSH1 0x40 MSTORE DUP1 ISZERO PUSH2 0xD81 JUMPI DUP2 PUSH1 0x20 ADD PUSH1 0x1 DUP3 MUL DUP1 CALLDATASIZE DUP4 CALLDATACOPY DUP1 DUP3 ADD SWAP2 POP POP SWAP1 POP JUMPDEST POP SWAP1 POP PUSH32 0x3000000000000000000000000000000000000000000000000000000000000000 DUP2 PUSH1 0x0 DUP2 MLOAD DUP2 LT PUSH2 0xDB9 JUMPI PUSH2 0xDB8 PUSH2 0x1990 JUMP JUMPDEST JUMPDEST PUSH1 0x20 ADD ADD SWAP1 PUSH31 0xFFFFFFFFFFFFFFFFFFFFFFFFFFFFFFFFFFFFFFFFFFFFFFFFFFFFFFFFFFFFFF NOT AND SWAP1 DUP2 PUSH1 0x0 BYTE SWAP1 MSTORE8 POP PUSH32 0x7800000000000000000000000000000000000000000000000000000000000000 DUP2 PUSH1 0x1 DUP2 MLOAD DUP2 LT PUSH2 0xE1D JUMPI PUSH2 0xE1C PUSH2 0x1990 JUMP JUMPDEST JUMPDEST PUSH1 0x20 ADD ADD SWAP1 PUSH31 0xFFFFFFFFFFFFFFFFFFFFFFFFFFFFFFFFFFFFFFFFFFFFFFFFFFFFFFFFFFFFFF NOT AND SWAP1 DUP2 PUSH1 0x0 BYTE SWAP1 MSTORE8 POP PUSH1 0x0 PUSH1 0x1 DUP5 PUSH1 0x2 PUSH2 0xE5D SWAP2 SWAP1 PUSH2 0x19BF JUMP JUMPDEST PUSH2 0xE67 SWAP2 SWAP1 PUSH2 0x1A4A JUMP JUMPDEST SWAP1 POP JUMPDEST PUSH1 0x1 DUP2 GT ISZERO PUSH2 0xF07 JUMPI PUSH32 0x3031323334353637383961626364656600000000000000000000000000000000 PUSH1 0xF DUP7 AND PUSH1 0x10 DUP2 LT PUSH2 0xEA9 JUMPI PUSH2 0xEA8 PUSH2 0x1990 JUMP JUMPDEST JUMPDEST BYTE PUSH1 0xF8 SHL DUP3 DUP3 DUP2 MLOAD DUP2 LT PUSH2 0xEC0 JUMPI PUSH2 0xEBF PUSH2 0x1990 JUMP JUMPDEST JUMPDEST PUSH1 0x20 ADD ADD SWAP1 PUSH31 0xFFFFFFFFFFFFFFFFFFFFFFFFFFFFFFFFFFFFFFFFFFFFFFFFFFFFFFFFFFFFFF NOT AND SWAP1 DUP2 PUSH1 0x0 BYTE SWAP1 MSTORE8 POP PUSH1 0x4 DUP6 SWAP1 SHR SWAP5 POP DUP1 PUSH2 0xF00 SWAP1 PUSH2 0x1C7B JUMP JUMPDEST SWAP1 POP PUSH2 0xE6A JUMP JUMPDEST POP PUSH1 0x0 DUP5 EQ PUSH2 0xF4B JUMPI PUSH1 0x40 MLOAD PUSH32 0x8C379A000000000000000000000000000000000000000000000000000000000 DUP2 MSTORE PUSH1 0x4 ADD PUSH2 0xF42 SWAP1 PUSH2 0x1CF0 JUMP JUMPDEST PUSH1 0x40 MLOAD DUP1 SWAP2 SUB SWAP1 REVERT JUMPDEST DUP1 SWAP2 POP POP SWAP3 SWAP2 POP POP JUMP JUMPDEST PUSH1 0x40 MLOAD DUP1 PUSH2 0x200 ADD PUSH1 0x40 MSTORE DUP1 PUSH1 0x10 SWAP1 PUSH1 0x20 DUP3 MUL DUP1 CALLDATASIZE DUP4 CALLDATACOPY DUP1 DUP3 ADD SWAP2 POP POP SWAP1 POP POP SWAP1 JUMP JUMPDEST PUSH1 0x0 PUSH1 0x40 MLOAD SWAP1 POP SWAP1 JUMP JUMPDEST PUSH1 0x0 DUP1 REVERT JUMPDEST PUSH1 0x0 DUP1 REVERT JUMPDEST PUSH1 0x0 PUSH32 0xFFFFFFFF00000000000000000000000000000000000000000000000000000000 DUP3 AND SWAP1 POP SWAP2 SWAP1 POP JUMP JUMPDEST PUSH2 0xFC1 DUP2 PUSH2 0xF8C JUMP JUMPDEST DUP2 EQ PUSH2 0xFCC JUMPI PUSH1 0x0 DUP1 REVERT JUMPDEST POP JUMP JUMPDEST PUSH1 0x0 DUP2 CALLDATALOAD SWAP1 POP PUSH2 0xFDE DUP2 PUSH2 0xFB8 JUMP JUMPDEST SWAP3 SWAP2 POP POP JUMP JUMPDEST PUSH1 0x0 PUSH1 0x20 DUP3 DUP5 SUB SLT ISZERO PUSH2 0xFFA JUMPI PUSH2 0xFF9 PUSH2 0xF82 JUMP JUMPDEST JUMPDEST PUSH1 0x0 PUSH2 0x1008 DUP5 DUP3 DUP6 ADD PUSH2 0xFCF JUMP JUMPDEST SWAP2 POP POP SWAP3 SWAP2 POP POP JUMP JUMPDEST PUSH1 0x0 DUP2 ISZERO ISZERO SWAP1 POP SWAP2 SWAP1 POP JUMP JUMPDEST PUSH2 0x1026 DUP2 PUSH2 0x1011 JUMP JUMPDEST DUP3 MSTORE POP POP JUMP JUMPDEST PUSH1 0x0 PUSH1 0x20 DUP3 ADD SWAP1 POP PUSH2 0x1041 PUSH1 0x0 DUP4 ADD DUP5 PUSH2 0x101D JUMP JUMPDEST SWAP3 SWAP2 POP POP JUMP JUMPDEST PUSH1 0x0 DUP2 SWAP1 POP SWAP2 SWAP1 POP JUMP JUMPDEST PUSH2 0x105A DUP2 PUSH2 0x1047 JUMP JUMPDEST DUP2 EQ PUSH2 0x1065 JUMPI PUSH1 0x0 DUP1 REVERT JUMPDEST POP JUMP JUMPDEST PUSH1 0x0 DUP2 CALLDATALOAD SWAP1 POP PUSH2 0x1077 DUP2 PUSH2 0x1051 JUMP JUMPDEST SWAP3 SWAP2 POP POP JUMP JUMPDEST PUSH1 0x0 PUSH1 0x20 DUP3 DUP5 SUB SLT ISZERO PUSH2 0x1093 JUMPI PUSH2 0x1092 PUSH2 0xF82 JUMP JUMPDEST JUMPDEST PUSH1 0x0 PUSH2 0x10A1 DUP5 DUP3 DUP6 ADD PUSH2 0x1068 JUMP JUMPDEST SWAP2 POP POP SWAP3 SWAP2 POP POP JUMP JUMPDEST PUSH1 0x0 DUP2 SWAP1 POP SWAP2 SWAP1 POP JUMP JUMPDEST PUSH2 0x10BD DUP2 PUSH2 0x10AA JUMP JUMPDEST DUP2 EQ PUSH2 0x10C8 JUMPI PUSH1 0x0 DUP1 REVERT JUMPDEST POP JUMP JUMPDEST PUSH1 0x0 DUP2 CALLDATALOAD SWAP1 POP PUSH2 0x10DA DUP2 PUSH2 0x10B4 JUMP JUMPDEST SWAP3 SWAP2 POP POP JUMP JUMPDEST PUSH1 0x0 PUSH1 0x20 DUP3 DUP5 SUB SLT ISZERO PUSH2 0x10F6 JUMPI PUSH2 0x10F5 PUSH2 0xF82 JUMP JUMPDEST JUMPDEST PUSH1 0x0 PUSH2 0x1104 DUP5 DUP3 DUP6 ADD PUSH2 0x10CB JUMP JUMPDEST SWAP2 POP POP SWAP3 SWAP2 POP POP JUMP JUMPDEST PUSH2 0x1116 DUP2 PUSH2 0x10AA JUMP JUMPDEST DUP3 MSTORE POP POP JUMP JUMPDEST PUSH1 0x0 PUSH1 0x20 DUP3 ADD SWAP1 POP PUSH2 0x1131 PUSH1 0x0 DUP4 ADD DUP5 PUSH2 0x110D JUMP JUMPDEST SWAP3 SWAP2 POP POP JUMP JUMPDEST PUSH1 0x0 PUSH20 0xFFFFFFFFFFFFFFFFFFFFFFFFFFFFFFFFFFFFFFFF DUP3 AND SWAP1 POP SWAP2 SWAP1 POP JUMP JUMPDEST PUSH1 0x0 PUSH2 0x1162 DUP3 PUSH2 0x1137 JUMP JUMPDEST SWAP1 POP SWAP2 SWAP1 POP JUMP JUMPDEST PUSH2 0x1172 DUP2 PUSH2 0x1157 JUMP JUMPDEST DUP2 EQ PUSH2 0x117D JUMPI PUSH1 0x0 DUP1 REVERT JUMPDEST POP JUMP JUMPDEST PUSH1 0x0 DUP2 CALLDATALOAD SWAP1 POP PUSH2 0x118F DUP2 PUSH2 0x1169 JUMP JUMPDEST SWAP3 SWAP2 POP POP JUMP JUMPDEST PUSH1 0x0 DUP1 PUSH1 0x40 DUP4 DUP6 SUB SLT ISZERO PUSH2 0x11AC JUMPI PUSH2 0x11AB PUSH2 0xF82 JUMP JUMPDEST JUMPDEST PUSH1 0x0 PUSH2 0x11BA DUP6 DUP3 DUP7 ADD PUSH2 0x10CB JUMP JUMPDEST SWAP3 POP POP PUSH1 0x20 PUSH2 0x11CB DUP6 DUP3 DUP7 ADD PUSH2 0x1180 JUMP JUMPDEST SWAP2 POP POP SWAP3 POP SWAP3 SWAP1 POP JUMP JUMPDEST PUSH1 0x0 DUP2 SWAP1 POP SWAP2 SWAP1 POP JUMP JUMPDEST PUSH1 0x0 PUSH2 0x11FA PUSH2 0x11F5 PUSH2 0x11F0 DUP5 PUSH2 0x1137 JUMP JUMPDEST PUSH2 0x11D5 JUMP JUMPDEST PUSH2 0x1137 JUMP JUMPDEST SWAP1 POP SWAP2 SWAP1 POP JUMP JUMPDEST PUSH1 0x0 PUSH2 0x120C DUP3 PUSH2 0x11DF JUMP JUMPDEST SWAP1 POP SWAP2 SWAP1 POP JUMP JUMPDEST PUSH1 0x0 PUSH2 0x121E DUP3 PUSH2 0x1201 JUMP JUMPDEST SWAP1 POP SWAP2 SWAP1 POP JUMP JUMPDEST PUSH2 0x122E DUP2 PUSH2 0x1213 JUMP JUMPDEST DUP3 MSTORE POP POP JUMP JUMPDEST PUSH1 0x0 PUSH1 0x20 DUP3 ADD SWAP1 POP PUSH2 0x1249 PUSH1 0x0 DUP4 ADD DUP5 PUSH2 0x1225 JUMP JUMPDEST SWAP3 SWAP2 POP POP JUMP JUMPDEST PUSH1 0x0 DUP1 REVERT JUMPDEST PUSH1 0x0 DUP1 REVERT JUMPDEST PUSH1 0x0 PUSH1 0x1F NOT PUSH1 0x1F DUP4 ADD AND SWAP1 POP SWAP2 SWAP1 POP JUMP JUMPDEST PUSH32 0x4E487B7100000000000000000000000000000000000000000000000000000000 PUSH1 0x0 MSTORE PUSH1 0x41 PUSH1 0x4 MSTORE PUSH1 0x24 PUSH1 0x0 REVERT JUMPDEST PUSH2 0x12A2 DUP3 PUSH2 0x1259 JUMP JUMPDEST DUP2 ADD DUP2 DUP2 LT PUSH8 0xFFFFFFFFFFFFFFFF DUP3 GT OR ISZERO PUSH2 0x12C1 JUMPI PUSH2 0x12C0 PUSH2 0x126A JUMP JUMPDEST JUMPDEST DUP1 PUSH1 0x40 MSTORE POP POP POP JUMP JUMPDEST PUSH1 0x0 PUSH2 0x12D4 PUSH2 0xF78 JUMP JUMPDEST SWAP1 POP PUSH2 0x12E0 DUP3 DUP3 PUSH2 0x1299 JUMP JUMPDEST SWAP2 SWAP1 POP JUMP JUMPDEST PUSH1 0x0 PUSH8 0xFFFFFFFFFFFFFFFF DUP3 GT ISZERO PUSH2 0x1300 JUMPI PUSH2 0x12FF PUSH2 0x126A JUMP JUMPDEST JUMPDEST PUSH2 0x1309 DUP3 PUSH2 0x1259 JUMP JUMPDEST SWAP1 POP PUSH1 0x20 DUP2 ADD SWAP1 POP SWAP2 SWAP1 POP JUMP JUMPDEST DUP3 DUP2 DUP4 CALLDATACOPY PUSH1 0x0 DUP4 DUP4 ADD MSTORE POP POP POP JUMP JUMPDEST PUSH1 0x0 PUSH2 0x1338 PUSH2 0x1333 DUP5 PUSH2 0x12E5 JUMP JUMPDEST PUSH2 0x12CA JUMP JUMPDEST SWAP1 POP DUP3 DUP2 MSTORE PUSH1 0x20 DUP2 ADD DUP5 DUP5 DUP5 ADD GT ISZERO PUSH2 0x1354 JUMPI PUSH2 0x1353 PUSH2 0x1254 JUMP JUMPDEST JUMPDEST PUSH2 0x135F DUP5 DUP3 DUP6 PUSH2 0x1316 JUMP JUMPDEST POP SWAP4 SWAP3 POP POP POP JUMP JUMPDEST PUSH1 0x0 DUP3 PUSH1 0x1F DUP4 ADD SLT PUSH2 0x137C JUMPI PUSH2 0x137B PUSH2 0x124F JUMP JUMPDEST JUMPDEST DUP2 CALLDATALOAD PUSH2 0x138C DUP5 DUP3 PUSH1 0x20 DUP7 ADD PUSH2 0x1325 JUMP JUMPDEST SWAP2 POP POP SWAP3 SWAP2 POP POP JUMP JUMPDEST PUSH1 0x0 PUSH1 0x20 DUP3 DUP5 SUB SLT ISZERO PUSH2 0x13AB JUMPI PUSH2 0x13AA PUSH2 0xF82 JUMP JUMPDEST JUMPDEST PUSH1 0x0 DUP3 ADD CALLDATALOAD PUSH8 0xFFFFFFFFFFFFFFFF DUP2 GT ISZERO PUSH2 0x13C9 JUMPI PUSH2 0x13C8 PUSH2 0xF87 JUMP JUMPDEST JUMPDEST PUSH2 0x13D5 DUP5 DUP3 DUP6 ADD PUSH2 0x1367 JUMP JUMPDEST SWAP2 POP POP SWAP3 SWAP2 POP POP JUMP JUMPDEST PUSH2 0x13E7 DUP2 PUSH2 0x1047 JUMP JUMPDEST DUP3 MSTORE POP POP JUMP JUMPDEST PUSH1 0x0 PUSH1 0x20 DUP3 ADD SWAP1 POP PUSH2 0x1402 PUSH1 0x0 DUP4 ADD DUP5 PUSH2 0x13DE JUMP JUMPDEST SWAP3 SWAP2 POP POP JUMP JUMPDEST PUSH1 0x0 DUP1 PUSH1 0x40 DUP4 DUP6 SUB SLT ISZERO PUSH2 0x141F JUMPI PUSH2 0x141E PUSH2 0xF82 JUMP JUMPDEST JUMPDEST PUSH1 0x0 PUSH2 0x142D DUP6 DUP3 DUP7 ADD PUSH2 0x1180 JUMP JUMPDEST SWAP3 POP POP PUSH1 0x20 PUSH2 0x143E DUP6 DUP3 DUP7 ADD PUSH2 0x1068 JUMP JUMPDEST SWAP2 POP POP SWAP3 POP SWAP3 SWAP1 POP JUMP JUMPDEST PUSH2 0x1451 DUP2 PUSH2 0x1157 JUMP JUMPDEST DUP3 MSTORE POP POP JUMP JUMPDEST PUSH1 0x0 PUSH1 0x20 DUP3 ADD SWAP1 POP PUSH2 0x146C PUSH1 0x0 DUP4 ADD DUP5 PUSH2 0x1448 JUMP JUMPDEST SWAP3 SWAP2 POP POP JUMP JUMPDEST PUSH1 0x0 PUSH1 0x10 SWAP1 POP SWAP2 SWAP1 POP JUMP JUMPDEST PUSH1 0x0 DUP2 SWAP1 POP SWAP3 SWAP2 POP POP JUMP JUMPDEST PUSH1 0x0 DUP2 SWAP1 POP SWAP2 SWAP1 POP JUMP JUMPDEST PUSH2 0x149B DUP2 PUSH2 0x1047 JUMP JUMPDEST DUP3 MSTORE POP POP JUMP JUMPDEST PUSH1 0x0 PUSH2 0x14AD DUP4 DUP4 PUSH2 0x1492 JUMP JUMPDEST PUSH1 0x20 DUP4 ADD SWAP1 POP SWAP3 SWAP2 POP POP JUMP JUMPDEST PUSH1 0x0 PUSH1 0x20 DUP3 ADD SWAP1 POP SWAP2 SWAP1 POP JUMP JUMPDEST PUSH2 0x14CF DUP2 PUSH2 0x1472 JUMP JUMPDEST PUSH2 0x14D9 DUP2 DUP5 PUSH2 0x147D JUMP JUMPDEST SWAP3 POP PUSH2 0x14E4 DUP3 PUSH2 0x1488 JUMP JUMPDEST DUP1 PUSH1 0x0 JUMPDEST DUP4 DUP2 LT ISZERO PUSH2 0x1515 JUMPI DUP2 MLOAD PUSH2 0x14FC DUP8 DUP3 PUSH2 0x14A1 JUMP JUMPDEST SWAP7 POP PUSH2 0x1507 DUP4 PUSH2 0x14B9 JUMP JUMPDEST SWAP3 POP POP PUSH1 0x1 DUP2 ADD SWAP1 POP PUSH2 0x14E8 JUMP JUMPDEST POP POP POP POP POP POP JUMP JUMPDEST PUSH1 0x0 PUSH2 0x200 DUP3 ADD SWAP1 POP PUSH2 0x1533 PUSH1 0x0 DUP4 ADD DUP5 PUSH2 0x14C6 JUMP JUMPDEST SWAP3 SWAP2 POP POP JUMP JUMPDEST PUSH1 0x0 DUP3 DUP3 MSTORE PUSH1 0x20 DUP3 ADD SWAP1 POP SWAP3 SWAP2 POP POP JUMP JUMPDEST PUSH32 0x416363657373436F6E74726F6C3A2063616E206F6E6C792072656E6F756E6365 PUSH1 0x0 DUP3 ADD MSTORE PUSH32 0x20726F6C657320666F722073656C660000000000000000000000000000000000 PUSH1 0x20 DUP3 ADD MSTORE POP JUMP JUMPDEST PUSH1 0x0 PUSH2 0x15A6 PUSH1 0x2F DUP4 PUSH2 0x1539 JUMP JUMPDEST SWAP2 POP PUSH2 0x15B1 DUP3 PUSH2 0x154A JUMP JUMPDEST PUSH1 0x40 DUP3 ADD SWAP1 POP SWAP2 SWAP1 POP JUMP JUMPDEST PUSH1 0x0 PUSH1 0x20 DUP3 ADD SWAP1 POP DUP2 DUP2 SUB PUSH1 0x0 DUP4 ADD MSTORE PUSH2 0x15D5 DUP2 PUSH2 0x1599 JUMP JUMPDEST SWAP1 POP SWAP2 SWAP1 POP JUMP JUMPDEST PUSH32 0x5061757361626C653A2070617573656400000000000000000000000000000000 PUSH1 0x0 DUP3 ADD MSTORE POP JUMP JUMPDEST PUSH1 0x0 PUSH2 0x1612 PUSH1 0x10 DUP4 PUSH2 0x1539 JUMP JUMPDEST SWAP2 POP PUSH2 0x161D DUP3 PUSH2 0x15DC JUMP JUMPDEST PUSH1 0x20 DUP3 ADD SWAP1 POP SWAP2 SWAP1 POP JUMP JUMPDEST PUSH1 0x0 PUSH1 0x20 DUP3 ADD SWAP1 POP DUP2 DUP2 SUB PUSH1 0x0 DUP4 ADD MSTORE PUSH2 0x1641 DUP2 PUSH2 0x1605 JUMP JUMPDEST SWAP1 POP SWAP2 SWAP1 POP JUMP JUMPDEST PUSH1 0x0 DUP2 MLOAD SWAP1 POP SWAP2 SWAP1 POP JUMP JUMPDEST PUSH1 0x0 JUMPDEST DUP4 DUP2 LT ISZERO PUSH2 0x1671 JUMPI DUP1 DUP3 ADD MLOAD DUP2 DUP5 ADD MSTORE PUSH1 0x20 DUP2 ADD SWAP1 POP PUSH2 0x1656 JUMP JUMPDEST DUP4 DUP2 GT ISZERO PUSH2 0x1680 JUMPI PUSH1 0x0 DUP5 DUP5 ADD MSTORE JUMPDEST POP POP POP POP JUMP JUMPDEST PUSH1 0x0 PUSH2 0x1691 DUP3 PUSH2 0x1648 JUMP JUMPDEST PUSH2 0x169B DUP2 DUP6 PUSH2 0x1539 JUMP JUMPDEST SWAP4 POP PUSH2 0x16AB DUP2 DUP6 PUSH1 0x20 DUP7 ADD PUSH2 0x1653 JUMP JUMPDEST PUSH2 0x16B4 DUP2 PUSH2 0x1259 JUMP JUMPDEST DUP5 ADD SWAP2 POP POP SWAP3 SWAP2 POP POP JUMP JUMPDEST PUSH1 0x0 PUSH1 0x40 DUP3 ADD SWAP1 POP PUSH2 0x16D4 PUSH1 0x0 DUP4 ADD DUP6 PUSH2 0x1448 JUMP JUMPDEST DUP2 DUP2 SUB PUSH1 0x20 DUP4 ADD MSTORE PUSH2 0x16E6 DUP2 DUP5 PUSH2 0x1686 JUMP JUMPDEST SWAP1 POP SWAP4 SWAP3 POP POP POP JUMP JUMPDEST PUSH1 0x0 DUP2 MLOAD SWAP1 POP PUSH2 0x16FE DUP2 PUSH2 0x1051 JUMP JUMPDEST SWAP3 SWAP2 POP POP JUMP JUMPDEST PUSH1 0x0 PUSH1 0x20 DUP3 DUP5 SUB SLT ISZERO PUSH2 0x171A JUMPI PUSH2 0x1719 PUSH2 0xF82 JUMP JUMPDEST JUMPDEST PUSH1 0x0 PUSH2 0x1728 DUP5 DUP3 DUP6 ADD PUSH2 0x16EF JUMP JUMPDEST SWAP2 POP POP SWAP3 SWAP2 POP POP JUMP JUMPDEST PUSH1 0x0 PUSH1 0x80 DUP3 ADD SWAP1 POP PUSH2 0x1746 PUSH1 0x0 DUP4 ADD DUP8 PUSH2 0x1448 JUMP JUMPDEST PUSH2 0x1753 PUSH1 0x20 DUP4 ADD DUP7 PUSH2 0x13DE JUMP JUMPDEST PUSH2 0x1760 PUSH1 0x40 DUP4 ADD DUP6 PUSH2 0x1448 JUMP JUMPDEST PUSH2 0x176D PUSH1 0x60 DUP4 ADD DUP5 PUSH2 0x13DE JUMP JUMPDEST SWAP6 SWAP5 POP POP POP POP POP JUMP JUMPDEST PUSH1 0x0 PUSH1 0xFF DUP3 AND SWAP1 POP SWAP2 SWAP1 POP JUMP JUMPDEST PUSH32 0x4E487B7100000000000000000000000000000000000000000000000000000000 PUSH1 0x0 MSTORE PUSH1 0x12 PUSH1 0x4 MSTORE PUSH1 0x24 PUSH1 0x0 REVERT JUMPDEST PUSH1 0x0 PUSH2 0x17BD DUP3 PUSH2 0x1776 JUMP JUMPDEST SWAP2 POP PUSH2 0x17C8 DUP4 PUSH2 0x1776 JUMP JUMPDEST SWAP3 POP DUP3 PUSH2 0x17D8 JUMPI PUSH2 0x17D7 PUSH2 0x1783 JUMP JUMPDEST JUMPDEST DUP3 DUP3 MOD SWAP1 POP SWAP3 SWAP2 POP POP JUMP JUMPDEST PUSH32 0x4E487B7100000000000000000000000000000000000000000000000000000000 PUSH1 0x0 MSTORE PUSH1 0x11 PUSH1 0x4 MSTORE PUSH1 0x24 PUSH1 0x0 REVERT JUMPDEST PUSH1 0x0 DUP2 PUSH1 0x1 SHR SWAP1 POP SWAP2 SWAP1 POP JUMP JUMPDEST PUSH1 0x0 DUP1 DUP3 SWAP2 POP DUP4 SWAP1 POP JUMPDEST PUSH1 0x1 DUP6 GT ISZERO PUSH2 0x1869 JUMPI DUP1 DUP7 DIV DUP2 GT ISZERO PUSH2 0x1845 JUMPI PUSH2 0x1844 PUSH2 0x17E3 JUMP JUMPDEST JUMPDEST PUSH1 0x1 DUP6 AND ISZERO PUSH2 0x1854 JUMPI DUP1 DUP3 MUL SWAP2 POP JUMPDEST DUP1 DUP2 MUL SWAP1 POP PUSH2 0x1862 DUP6 PUSH2 0x1812 JUMP JUMPDEST SWAP5 POP PUSH2 0x1829 JUMP JUMPDEST SWAP5 POP SWAP5 SWAP3 POP POP POP JUMP JUMPDEST PUSH1 0x0 DUP3 PUSH2 0x1882 JUMPI PUSH1 0x1 SWAP1 POP PUSH2 0x193E JUMP JUMPDEST DUP2 PUSH2 0x1890 JUMPI PUSH1 0x0 SWAP1 POP PUSH2 0x193E JUMP JUMPDEST DUP2 PUSH1 0x1 DUP2 EQ PUSH2 0x18A6 JUMPI PUSH1 0x2 DUP2 EQ PUSH2 0x18B0 JUMPI PUSH2 0x18DF JUMP JUMPDEST PUSH1 0x1 SWAP2 POP POP PUSH2 0x193E JUMP JUMPDEST PUSH1 0xFF DUP5 GT ISZERO PUSH2 0x18C2 JUMPI PUSH2 0x18C1 PUSH2 0x17E3 JUMP JUMPDEST JUMPDEST DUP4 PUSH1 0x2 EXP SWAP2 POP DUP5 DUP3 GT ISZERO PUSH2 0x18D9 JUMPI PUSH2 0x18D8 PUSH2 0x17E3 JUMP JUMPDEST JUMPDEST POP PUSH2 0x193E JUMP JUMPDEST POP PUSH1 0x20 DUP4 LT PUSH2 0x133 DUP4 LT AND PUSH1 0x4E DUP5 LT PUSH1 0xB DUP5 LT AND OR ISZERO PUSH2 0x1914 JUMPI DUP3 DUP3 EXP SWAP1 POP DUP4 DUP2 GT ISZERO PUSH2 0x190F JUMPI PUSH2 0x190E PUSH2 0x17E3 JUMP JUMPDEST JUMPDEST PUSH2 0x193E JUMP JUMPDEST PUSH2 0x1921 DUP5 DUP5 DUP5 PUSH1 0x1 PUSH2 0x181F JUMP JUMPDEST SWAP3 POP SWAP1 POP DUP2 DUP5 DIV DUP2 GT ISZERO PUSH2 0x1938 JUMPI PUSH2 0x1937 PUSH2 0x17E3 JUMP JUMPDEST JUMPDEST DUP2 DUP2 MUL SWAP1 POP JUMPDEST SWAP4 SWAP3 POP POP POP JUMP JUMPDEST PUSH1 0x0 PUSH2 0x1950 DUP3 PUSH2 0x1047 JUMP JUMPDEST SWAP2 POP PUSH2 0x195B DUP4 PUSH2 0x1776 JUMP JUMPDEST SWAP3 POP PUSH2 0x1988 PUSH32 0xFFFFFFFFFFFFFFFFFFFFFFFFFFFFFFFFFFFFFFFFFFFFFFFFFFFFFFFFFFFFFFFF DUP5 DUP5 PUSH2 0x1872 JUMP JUMPDEST SWAP1 POP SWAP3 SWAP2 POP POP JUMP JUMPDEST PUSH32 0x4E487B7100000000000000000000000000000000000000000000000000000000 PUSH1 0x0 MSTORE PUSH1 0x32 PUSH1 0x4 MSTORE PUSH1 0x24 PUSH1 0x0 REVERT JUMPDEST PUSH1 0x0 PUSH2 0x19CA DUP3 PUSH2 0x1047 JUMP JUMPDEST SWAP2 POP PUSH2 0x19D5 DUP4 PUSH2 0x1047 JUMP JUMPDEST SWAP3 POP DUP2 PUSH32 0xFFFFFFFFFFFFFFFFFFFFFFFFFFFFFFFFFFFFFFFFFFFFFFFFFFFFFFFFFFFFFFFF DIV DUP4 GT DUP3 ISZERO ISZERO AND ISZERO PUSH2 0x1A0E JUMPI PUSH2 0x1A0D PUSH2 0x17E3 JUMP JUMPDEST JUMPDEST DUP3 DUP3 MUL SWAP1 POP SWAP3 SWAP2 POP POP JUMP JUMPDEST PUSH1 0x0 PUSH2 0x1A24 DUP3 PUSH2 0x1776 JUMP JUMPDEST SWAP2 POP PUSH2 0x1A2F DUP4 PUSH2 0x1776 JUMP JUMPDEST SWAP3 POP DUP3 PUSH2 0x1A3F JUMPI PUSH2 0x1A3E PUSH2 0x1783 JUMP JUMPDEST JUMPDEST DUP3 DUP3 DIV SWAP1 POP SWAP3 SWAP2 POP POP JUMP JUMPDEST PUSH1 0x0 PUSH2 0x1A55 DUP3 PUSH2 0x1047 JUMP JUMPDEST SWAP2 POP PUSH2 0x1A60 DUP4 PUSH2 0x1047 JUMP JUMPDEST SWAP3 POP DUP3 PUSH32 0xFFFFFFFFFFFFFFFFFFFFFFFFFFFFFFFFFFFFFFFFFFFFFFFFFFFFFFFFFFFFFFFF SUB DUP3 GT ISZERO PUSH2 0x1A95 JUMPI PUSH2 0x1A94 PUSH2 0x17E3 JUMP JUMPDEST JUMPDEST DUP3 DUP3 ADD SWAP1 POP SWAP3 SWAP2 POP POP JUMP JUMPDEST PUSH1 0x0 PUSH2 0x1AAB DUP3 PUSH2 0x1776 JUMP JUMPDEST SWAP2 POP PUSH1 0xFF DUP3 SUB PUSH2 0x1ABE JUMPI PUSH2 0x1ABD PUSH2 0x17E3 JUMP JUMPDEST JUMPDEST PUSH1 0x1 DUP3 ADD SWAP1 POP SWAP2 SWAP1 POP JUMP JUMPDEST PUSH1 0x0 PUSH1 0x40 DUP3 ADD SWAP1 POP PUSH2 0x1ADE PUSH1 0x0 DUP4 ADD DUP6 PUSH2 0x1448 JUMP JUMPDEST PUSH2 0x1AEB PUSH1 0x20 DUP4 ADD DUP5 PUSH2 0x13DE JUMP JUMPDEST SWAP4 SWAP3 POP POP POP JUMP JUMPDEST PUSH2 0x1AFB DUP2 PUSH2 0x1011 JUMP JUMPDEST DUP2 EQ PUSH2 0x1B06 JUMPI PUSH1 0x0 DUP1 REVERT JUMPDEST POP JUMP JUMPDEST PUSH1 0x0 DUP2 MLOAD SWAP1 POP PUSH2 0x1B18 DUP2 PUSH2 0x1AF2 JUMP JUMPDEST SWAP3 SWAP2 POP POP JUMP JUMPDEST PUSH1 0x0 PUSH1 0x20 DUP3 DUP5 SUB SLT ISZERO PUSH2 0x1B34 JUMPI PUSH2 0x1B33 PUSH2 0xF82 JUMP JUMPDEST JUMPDEST PUSH1 0x0 PUSH2 0x1B42 DUP5 DUP3 DUP6 ADD PUSH2 0x1B09 JUMP JUMPDEST SWAP2 POP POP SWAP3 SWAP2 POP POP JUMP JUMPDEST PUSH1 0x0 DUP2 SWAP1 POP SWAP3 SWAP2 POP POP JUMP JUMPDEST PUSH32 0x416363657373436F6E74726F6C3A206163636F756E7420000000000000000000 PUSH1 0x0 DUP3 ADD MSTORE POP JUMP JUMPDEST PUSH1 0x0 PUSH2 0x1B8C PUSH1 0x17 DUP4 PUSH2 0x1B4B JUMP JUMPDEST SWAP2 POP PUSH2 0x1B97 DUP3 PUSH2 0x1B56 JUMP JUMPDEST PUSH1 0x17 DUP3 ADD SWAP1 POP SWAP2 SWAP1 POP JUMP JUMPDEST PUSH1 0x0 PUSH2 0x1BAD DUP3 PUSH2 0x1648 JUMP JUMPDEST PUSH2 0x1BB7 DUP2 DUP6 PUSH2 0x1B4B JUMP JUMPDEST SWAP4 POP PUSH2 0x1BC7 DUP2 DUP6 PUSH1 0x20 DUP7 ADD PUSH2 0x1653 JUMP JUMPDEST DUP1 DUP5 ADD SWAP2 POP POP SWAP3 SWAP2 POP POP JUMP JUMPDEST PUSH32 0x206973206D697373696E6720726F6C6520000000000000000000000000000000 PUSH1 0x0 DUP3 ADD MSTORE POP JUMP JUMPDEST PUSH1 0x0 PUSH2 0x1C09 PUSH1 0x11 DUP4 PUSH2 0x1B4B JUMP JUMPDEST SWAP2 POP PUSH2 0x1C14 DUP3 PUSH2 0x1BD3 JUMP JUMPDEST PUSH1 0x11 DUP3 ADD SWAP1 POP SWAP2 SWAP1 POP JUMP JUMPDEST PUSH1 0x0 PUSH2 0x1C2A DUP3 PUSH2 0x1B7F JUMP JUMPDEST SWAP2 POP PUSH2 0x1C36 DUP3 DUP6 PUSH2 0x1BA2 JUMP JUMPDEST SWAP2 POP PUSH2 0x1C41 DUP3 PUSH2 0x1BFC JUMP JUMPDEST SWAP2 POP PUSH2 0x1C4D DUP3 DUP5 PUSH2 0x1BA2 JUMP JUMPDEST SWAP2 POP DUP2 SWAP1 POP SWAP4 SWAP3 POP POP POP JUMP JUMPDEST PUSH1 0x0 PUSH1 0x20 DUP3 ADD SWAP1 POP DUP2 DUP2 SUB PUSH1 0x0 DUP4 ADD MSTORE PUSH2 0x1C73 DUP2 DUP5 PUSH2 0x1686 JUMP JUMPDEST SWAP1 POP SWAP3 SWAP2 POP POP JUMP JUMPDEST PUSH1 0x0 PUSH2 0x1C86 DUP3 PUSH2 0x1047 JUMP JUMPDEST SWAP2 POP PUSH1 0x0 DUP3 SUB PUSH2 0x1C99 JUMPI PUSH2 0x1C98 PUSH2 0x17E3 JUMP JUMPDEST JUMPDEST PUSH1 0x1 DUP3 SUB SWAP1 POP SWAP2 SWAP1 POP JUMP JUMPDEST PUSH32 0x537472696E67733A20686578206C656E67746820696E73756666696369656E74 PUSH1 0x0 DUP3 ADD MSTORE POP JUMP JUMPDEST PUSH1 0x0 PUSH2 0x1CDA PUSH1 0x20 DUP4 PUSH2 0x1539 JUMP JUMPDEST SWAP2 POP PUSH2 0x1CE5 DUP3 PUSH2 0x1CA4 JUMP JUMPDEST PUSH1 0x20 DUP3 ADD SWAP1 POP SWAP2 SWAP1 POP JUMP JUMPDEST PUSH1 0x0 PUSH1 0x20 DUP3 ADD SWAP1 POP DUP2 DUP2 SUB PUSH1 0x0 DUP4 ADD MSTORE PUSH2 0x1D09 DUP2 PUSH2 0x1CCD JUMP JUMPDEST SWAP1 POP SWAP2 SWAP1 POP JUMP INVALID LOG2 PUSH5 0x6970667358 0x22 SLT KECCAK256 ADDRESS DUP6 0xCA 0xAA PUSH15 0x50906700C29CA5F3C17144DFAD0AF 0xB8 EXTCODEHASH 0xD5 PUSH25 0x8F9BBC04AC3E54D64736F6C634300080D0033000000000000 "
				},
				"gasEstimates": {
					"creation": {
						"codeDepositCost": "1498800",
						"executionCost": "infinite",
						"totalCost": "infinite"
					},
					"external": {
						"DEFAULT_ADMIN_ROLE()": "402",
						"PAUSER_ROLE()": "395",
						"SQFi()": "infinite",
						"amount1()": "2539",
						"bytes32ToAmount16(bytes32)": "infinite",
						"createSQFI(string)": "infinite",
						"editSupportedFee(address,uint256)": "infinite",
						"fee1()": "2603",
						"getRoleAdmin(bytes32)": "infinite",
						"grantRole(bytes32,address)": "infinite",
						"hasRole(bytes32,address)": "3163",
						"paused()": "2546",
						"renounceRole(bytes32,address)": "infinite",
						"revokeRole(bytes32,address)": "infinite",
						"supportsInterface(bytes4)": "751",
						"uncraft(uint256)": "infinite",
						"withdraw(address,uint256)": "infinite"
					}
				},
				"methodIdentifiers": {
					"DEFAULT_ADMIN_ROLE()": "a217fddf",
					"PAUSER_ROLE()": "e63ab1e9",
					"SQFi()": "52c6159f",
					"amount1()": "f400fde4",
					"bytes32ToAmount16(bytes32)": "dd23faf3",
					"createSQFI(string)": "841acc5d",
					"editSupportedFee(address,uint256)": "945099bc",
					"fee1()": "c6098256",
					"getRoleAdmin(bytes32)": "248a9ca3",
					"grantRole(bytes32,address)": "2f2ff15d",
					"hasRole(bytes32,address)": "91d14854",
					"paused()": "5c975abb",
					"renounceRole(bytes32,address)": "36568abe",
					"revokeRole(bytes32,address)": "d547741f",
					"supportsInterface(bytes4)": "01ffc9a7",
					"uncraft(uint256)": "0a1ac657",
					"withdraw(address,uint256)": "f3fef3a3"
				}
			},
			"storageLayout": {
				"storage": [
					{
						"astId": 946,
						"contract": "contracts/SQFITEM/SQFI_Factory.sol:SQFIFactory",
						"label": "_paused",
						"offset": 0,
						"slot": "0",
						"type": "t_bool"
					},
					{
						"astId": 24,
						"contract": "contracts/SQFITEM/SQFI_Factory.sol:SQFIFactory",
						"label": "_roles",
						"offset": 0,
						"slot": "1",
						"type": "t_mapping(t_bytes32,t_struct(RoleData)19_storage)"
					},
					{
						"astId": 1043,
						"contract": "contracts/SQFITEM/SQFI_Factory.sol:SQFIFactory",
						"label": "SQFi",
						"offset": 0,
						"slot": "2",
						"type": "t_contract(ISQFItem)840"
					},
					{
						"astId": 1050,
						"contract": "contracts/SQFITEM/SQFI_Factory.sol:SQFIFactory",
						"label": "fee1",
						"offset": 0,
						"slot": "3",
						"type": "t_address"
					},
					{
						"astId": 1053,
						"contract": "contracts/SQFITEM/SQFI_Factory.sol:SQFIFactory",
						"label": "amount1",
						"offset": 0,
						"slot": "4",
						"type": "t_uint256"
					}
				],
				"types": {
					"t_address": {
						"encoding": "inplace",
						"label": "address",
						"numberOfBytes": "20"
					},
					"t_bool": {
						"encoding": "inplace",
						"label": "bool",
						"numberOfBytes": "1"
					},
					"t_bytes32": {
						"encoding": "inplace",
						"label": "bytes32",
						"numberOfBytes": "32"
					},
					"t_contract(ISQFItem)840": {
						"encoding": "inplace",
						"label": "contract ISQFItem",
						"numberOfBytes": "20"
					},
					"t_mapping(t_address,t_bool)": {
						"encoding": "mapping",
						"key": "t_address",
						"label": "mapping(address => bool)",
						"numberOfBytes": "32",
						"value": "t_bool"
					},
					"t_mapping(t_bytes32,t_struct(RoleData)19_storage)": {
						"encoding": "mapping",
						"key": "t_bytes32",
						"label": "mapping(bytes32 => struct AccessControl.RoleData)",
						"numberOfBytes": "32",
						"value": "t_struct(RoleData)19_storage"
					},
					"t_struct(RoleData)19_storage": {
						"encoding": "inplace",
						"label": "struct AccessControl.RoleData",
						"members": [
							{
								"astId": 16,
								"contract": "contracts/SQFITEM/SQFI_Factory.sol:SQFIFactory",
								"label": "members",
								"offset": 0,
								"slot": "0",
								"type": "t_mapping(t_address,t_bool)"
							},
							{
								"astId": 18,
								"contract": "contracts/SQFITEM/SQFI_Factory.sol:SQFIFactory",
								"label": "adminRole",
								"offset": 0,
								"slot": "1",
								"type": "t_bytes32"
							}
						],
						"numberOfBytes": "64"
					},
					"t_uint256": {
						"encoding": "inplace",
						"label": "uint256",
						"numberOfBytes": "32"
					}
				}
			},
			"userdoc": {
				"kind": "user",
				"methods": {},
				"version": 1
			}
		}
	}
}