{
	"contracts/SQFITEM/SQFI_Factory.sol": {
		"ParagonFactory": {
			"abi": [
				{
					"inputs": [
						{
							"internalType": "address",
							"name": "_sqfi",
							"type": "address"
						},
						{
							"internalType": "address",
							"name": "_fee1",
							"type": "address"
						}
					],
					"stateMutability": "nonpayable",
					"type": "constructor"
				},
				{
					"anonymous": false,
					"inputs": [
						{
							"indexed": false,
							"internalType": "address",
							"name": "owner",
							"type": "address"
						},
						{
							"indexed": false,
							"internalType": "uint256",
							"name": "tokenId",
							"type": "uint256"
						},
						{
							"indexed": false,
							"internalType": "address",
							"name": "fee1",
							"type": "address"
						},
						{
							"indexed": false,
							"internalType": "uint256",
							"name": "amount1",
							"type": "uint256"
						}
					],
					"name": "CraftSQFI",
					"type": "event"
				},
				{
					"anonymous": false,
					"inputs": [
						{
							"indexed": false,
							"internalType": "address",
							"name": "currency",
							"type": "address"
						},
						{
							"indexed": false,
							"internalType": "uint256",
							"name": "amount",
							"type": "uint256"
						},
						{
							"indexed": false,
							"internalType": "bool",
							"name": "enable",
							"type": "bool"
						}
					],
					"name": "FeeChange",
					"type": "event"
				},
				{
					"anonymous": false,
					"inputs": [
						{
							"indexed": false,
							"internalType": "address",
							"name": "account",
							"type": "address"
						}
					],
					"name": "Paused",
					"type": "event"
				},
				{
					"anonymous": false,
					"inputs": [
						{
							"indexed": true,
							"internalType": "bytes32",
							"name": "role",
							"type": "bytes32"
						},
						{
							"indexed": true,
							"internalType": "bytes32",
							"name": "previousAdminRole",
							"type": "bytes32"
						},
						{
							"indexed": true,
							"internalType": "bytes32",
							"name": "newAdminRole",
							"type": "bytes32"
						}
					],
					"name": "RoleAdminChanged",
					"type": "event"
				},
				{
					"anonymous": false,
					"inputs": [
						{
							"indexed": true,
							"internalType": "bytes32",
							"name": "role",
							"type": "bytes32"
						},
						{
							"indexed": true,
							"internalType": "address",
							"name": "account",
							"type": "address"
						},
						{
							"indexed": true,
							"internalType": "address",
							"name": "sender",
							"type": "address"
						}
					],
					"name": "RoleGranted",
					"type": "event"
				},
				{
					"anonymous": false,
					"inputs": [
						{
							"indexed": true,
							"internalType": "bytes32",
							"name": "role",
							"type": "bytes32"
						},
						{
							"indexed": true,
							"internalType": "address",
							"name": "account",
							"type": "address"
						},
						{
							"indexed": true,
							"internalType": "address",
							"name": "sender",
							"type": "address"
						}
					],
					"name": "RoleRevoked",
					"type": "event"
				},
				{
					"anonymous": false,
					"inputs": [
						{
							"indexed": false,
							"internalType": "uint256",
							"name": "tokenId",
							"type": "uint256"
						}
					],
					"name": "UncraftSQFI",
					"type": "event"
				},
				{
					"anonymous": false,
					"inputs": [
						{
							"indexed": false,
							"internalType": "address",
							"name": "account",
							"type": "address"
						}
					],
					"name": "Unpaused",
					"type": "event"
				},
				{
					"inputs": [],
					"name": "DEFAULT_ADMIN_ROLE",
					"outputs": [
						{
							"internalType": "bytes32",
							"name": "",
							"type": "bytes32"
						}
					],
					"stateMutability": "view",
					"type": "function"
				},
				{
					"inputs": [],
					"name": "PAUSER_ROLE",
					"outputs": [
						{
							"internalType": "bytes32",
							"name": "",
							"type": "bytes32"
						}
					],
					"stateMutability": "view",
					"type": "function"
				},
				{
					"inputs": [],
					"name": "SQFi",
					"outputs": [
						{
							"internalType": "contract ISQFItem",
							"name": "",
							"type": "address"
						}
					],
					"stateMutability": "view",
					"type": "function"
				},
				{
					"inputs": [],
					"name": "amount1",
					"outputs": [
						{
							"internalType": "uint256",
							"name": "",
							"type": "uint256"
						}
					],
					"stateMutability": "view",
					"type": "function"
				},
				{
					"inputs": [
						{
							"internalType": "bytes32",
							"name": "data",
							"type": "bytes32"
						}
					],
					"name": "bytes32ToAmount16",
					"outputs": [
						{
							"internalType": "uint256[16]",
							"name": "amount",
							"type": "uint256[16]"
						}
					],
					"stateMutability": "pure",
					"type": "function"
				},
				{
					"inputs": [
						{
							"internalType": "string",
							"name": "tokenURI_",
							"type": "string"
						}
					],
					"name": "createSQFI",
					"outputs": [
						{
							"internalType": "uint256",
							"name": "",
							"type": "uint256"
						}
					],
					"stateMutability": "nonpayable",
					"type": "function"
				},
				{
					"inputs": [
						{
							"internalType": "uint256",
							"name": "_min",
							"type": "uint256"
						},
						{
							"internalType": "uint256",
							"name": "_max",
							"type": "uint256"
						}
					],
					"name": "editSQFI",
					"outputs": [],
					"stateMutability": "nonpayable",
					"type": "function"
				},
				{
					"inputs": [
						{
							"internalType": "address",
							"name": "_fee1",
							"type": "address"
						},
						{
							"internalType": "uint256",
							"name": "_amount1",
							"type": "uint256"
						}
					],
					"name": "editSupportedFee",
					"outputs": [],
					"stateMutability": "nonpayable",
					"type": "function"
				},
				{
					"inputs": [
						{
							"internalType": "uint256",
							"name": "percent",
							"type": "uint256"
						}
					],
					"name": "editUncraftBurnPercent",
					"outputs": [],
					"stateMutability": "nonpayable",
					"type": "function"
				},
				{
					"inputs": [],
					"name": "fee1",
					"outputs": [
						{
							"internalType": "address",
							"name": "",
							"type": "address"
						}
					],
					"stateMutability": "view",
					"type": "function"
				},
				{
					"inputs": [
						{
							"internalType": "bytes32",
							"name": "role",
							"type": "bytes32"
						}
					],
					"name": "getRoleAdmin",
					"outputs": [
						{
							"internalType": "bytes32",
							"name": "",
							"type": "bytes32"
						}
					],
					"stateMutability": "view",
					"type": "function"
				},
				{
					"inputs": [
						{
							"internalType": "bytes32",
							"name": "role",
							"type": "bytes32"
						},
						{
							"internalType": "address",
							"name": "account",
							"type": "address"
						}
					],
					"name": "grantRole",
					"outputs": [],
					"stateMutability": "nonpayable",
					"type": "function"
				},
				{
					"inputs": [
						{
							"internalType": "bytes32",
							"name": "role",
							"type": "bytes32"
						},
						{
							"internalType": "address",
							"name": "account",
							"type": "address"
						}
					],
					"name": "hasRole",
					"outputs": [
						{
							"internalType": "bool",
							"name": "",
							"type": "bool"
						}
					],
					"stateMutability": "view",
					"type": "function"
				},
				{
					"inputs": [],
					"name": "maxSQFI",
					"outputs": [
						{
							"internalType": "uint256",
							"name": "",
							"type": "uint256"
						}
					],
					"stateMutability": "view",
					"type": "function"
				},
				{
					"inputs": [],
					"name": "minSQFI",
					"outputs": [
						{
							"internalType": "uint256",
							"name": "",
							"type": "uint256"
						}
					],
					"stateMutability": "view",
					"type": "function"
				},
				{
					"inputs": [],
					"name": "paused",
					"outputs": [
						{
							"internalType": "bool",
							"name": "",
							"type": "bool"
						}
					],
					"stateMutability": "view",
					"type": "function"
				},
				{
					"inputs": [
						{
							"internalType": "bytes32",
							"name": "role",
							"type": "bytes32"
						},
						{
							"internalType": "address",
							"name": "account",
							"type": "address"
						}
					],
					"name": "renounceRole",
					"outputs": [],
					"stateMutability": "nonpayable",
					"type": "function"
				},
				{
					"inputs": [
						{
							"internalType": "bytes32",
							"name": "role",
							"type": "bytes32"
						},
						{
							"internalType": "address",
							"name": "account",
							"type": "address"
						}
					],
					"name": "revokeRole",
					"outputs": [],
					"stateMutability": "nonpayable",
					"type": "function"
				},
				{
					"inputs": [
						{
							"internalType": "uint256",
							"name": "",
							"type": "uint256"
						}
					],
					"name": "runePower",
					"outputs": [
						{
							"internalType": "uint256",
							"name": "",
							"type": "uint256"
						}
					],
					"stateMutability": "view",
					"type": "function"
				},
				{
					"inputs": [
						{
							"internalType": "bytes4",
							"name": "interfaceId",
							"type": "bytes4"
						}
					],
					"name": "supportsInterface",
					"outputs": [
						{
							"internalType": "bool",
							"name": "",
							"type": "bool"
						}
					],
					"stateMutability": "view",
					"type": "function"
				},
				{
					"inputs": [
						{
							"internalType": "uint256",
							"name": "tokenId",
							"type": "uint256"
						}
					],
					"name": "uncraft",
					"outputs": [],
					"stateMutability": "nonpayable",
					"type": "function"
				},
				{
					"inputs": [],
					"name": "uncraftBurnPercent",
					"outputs": [
						{
							"internalType": "uint256",
							"name": "",
							"type": "uint256"
						}
					],
					"stateMutability": "view",
					"type": "function"
				},
				{
					"inputs": [
						{
							"internalType": "address",
							"name": "token",
							"type": "address"
						},
						{
							"internalType": "uint256",
							"name": "amount",
							"type": "uint256"
						}
					],
					"name": "withdraw",
					"outputs": [],
					"stateMutability": "nonpayable",
					"type": "function"
				}
			],
			"devdoc": {
				"kind": "dev",
				"methods": {
					"getRoleAdmin(bytes32)": {
						"details": "Returns the admin role that controls `role`. See {grantRole} and {revokeRole}. To change a role's admin, use {_setRoleAdmin}."
					},
					"grantRole(bytes32,address)": {
						"details": "Grants `role` to `account`. If `account` had not been already granted `role`, emits a {RoleGranted} event. Requirements: - the caller must have ``role``'s admin role."
					},
					"hasRole(bytes32,address)": {
						"details": "Returns `true` if `account` has been granted `role`."
					},
					"paused()": {
						"details": "Returns true if the contract is paused, and false otherwise."
					},
					"renounceRole(bytes32,address)": {
						"details": "Revokes `role` from the calling account. Roles are often managed via {grantRole} and {revokeRole}: this function's purpose is to provide a mechanism for accounts to lose their privileges if they are compromised (such as when a trusted device is misplaced). If the calling account had been granted `role`, emits a {RoleRevoked} event. Requirements: - the caller must be `account`."
					},
					"revokeRole(bytes32,address)": {
						"details": "Revokes `role` from `account`. If `account` had been granted `role`, emits a {RoleRevoked} event. Requirements: - the caller must have ``role``'s admin role."
					},
					"supportsInterface(bytes4)": {
						"details": "See {IERC165-supportsInterface}."
					}
				},
				"version": 1
			},
			"evm": {
				"assembly": "    /* \"contracts/SQFITEM/SQFI_Factory.sol\":292:5112  contract ParagonFactory is Pausable, AccessControl {... */\n  mstore(0x40, 0x80)\n    /* \"contracts/SQFITEM/SQFI_Factory.sol\":599:601  10 */\n  0x0a\n    /* \"contracts/SQFITEM/SQFI_Factory.sol\":563:601  uint256 public uncraftBurnPercent = 10 */\n  0x03\n  sstore\n    /* \"contracts/SQFITEM/SQFI_Factory.sol\":632:635  200 */\n  0xc8\n    /* \"contracts/SQFITEM/SQFI_Factory.sol\":607:635  uint256 public minSQFI = 200 */\n  0x04\n  sstore\n    /* \"contracts/SQFITEM/SQFI_Factory.sol\":666:670  2000 */\n  0x07d0\n    /* \"contracts/SQFITEM/SQFI_Factory.sol\":641:670  uint256 public maxSQFI = 2000 */\n  0x05\n  sstore\n    /* \"contracts/SQFITEM/SQFI_Factory.sol\":676:882  uint256[16] public runePower = [... */\n  mload(0x40)\n  dup1\n  0x0180\n  add\n  0x40\n  mstore\n  dup1\n    /* \"contracts/SQFITEM/SQFI_Factory.sol\":717:718  1 */\n  0x01\n    /* \"contracts/SQFITEM/SQFI_Factory.sol\":676:882  uint256[16] public runePower = [... */\n  0xffffff\n  and\n  dup2\n  mstore\n  0x20\n  add\n    /* \"contracts/SQFITEM/SQFI_Factory.sol\":728:730  15 */\n  0x0f\n    /* \"contracts/SQFITEM/SQFI_Factory.sol\":676:882  uint256[16] public runePower = [... */\n  0xffffff\n  and\n  dup2\n  mstore\n  0x20\n  add\n    /* \"contracts/SQFITEM/SQFI_Factory.sol\":740:742  50 */\n  0x32\n    /* \"contracts/SQFITEM/SQFI_Factory.sol\":676:882  uint256[16] public runePower = [... */\n  0xffffff\n  and\n  dup2\n  mstore\n  0x20\n  add\n    /* \"contracts/SQFITEM/SQFI_Factory.sol\":752:755  180 */\n  0xb4\n    /* \"contracts/SQFITEM/SQFI_Factory.sol\":676:882  uint256[16] public runePower = [... */\n  0xffffff\n  and\n  dup2\n  mstore\n  0x20\n  add\n    /* \"contracts/SQFITEM/SQFI_Factory.sol\":765:768  630 */\n  0x0276\n    /* \"contracts/SQFITEM/SQFI_Factory.sol\":676:882  uint256[16] public runePower = [... */\n  0xffffff\n  and\n  dup2\n  mstore\n  0x20\n  add\n    /* \"contracts/SQFITEM/SQFI_Factory.sol\":778:782  2200 */\n  0x0898\n    /* \"contracts/SQFITEM/SQFI_Factory.sol\":676:882  uint256[16] public runePower = [... */\n  0xffffff\n  and\n  dup2\n  mstore\n  0x20\n  add\n    /* \"contracts/SQFITEM/SQFI_Factory.sol\":792:796  7800 */\n  0x1e78\n    /* \"contracts/SQFITEM/SQFI_Factory.sol\":676:882  uint256[16] public runePower = [... */\n  0xffffff\n  and\n  dup2\n  mstore\n  0x20\n  add\n    /* \"contracts/SQFITEM/SQFI_Factory.sol\":806:811  28220 */\n  0x6e3c\n    /* \"contracts/SQFITEM/SQFI_Factory.sol\":676:882  uint256[16] public runePower = [... */\n  0xffffff\n  and\n  dup2\n  mstore\n  0x20\n  add\n    /* \"contracts/SQFITEM/SQFI_Factory.sol\":821:827  105800 */\n  0x019d48\n    /* \"contracts/SQFITEM/SQFI_Factory.sol\":676:882  uint256[16] public runePower = [... */\n  0xffffff\n  and\n  dup2\n  mstore\n  0x20\n  add\n    /* \"contracts/SQFITEM/SQFI_Factory.sol\":837:843  259200 */\n  0x03f480\n    /* \"contracts/SQFITEM/SQFI_Factory.sol\":676:882  uint256[16] public runePower = [... */\n  0xffffff\n  and\n  dup2\n  mstore\n  0x20\n  add\n    /* \"contracts/SQFITEM/SQFI_Factory.sol\":853:859  665000 */\n  0x0a25a8\n    /* \"contracts/SQFITEM/SQFI_Factory.sol\":676:882  uint256[16] public runePower = [... */\n  0xffffff\n  and\n  dup2\n  mstore\n  0x20\n  add\n    /* \"contracts/SQFITEM/SQFI_Factory.sol\":869:876  2200000 */\n  0x2191c0\n    /* \"contracts/SQFITEM/SQFI_Factory.sol\":676:882  uint256[16] public runePower = [... */\n  0xffffff\n  and\n  dup2\n  mstore\n  pop\n  0x06\n  swap1\n  0x0c\n  tag_1\n  swap3\n  swap2\n  swap1\n  tag_2\n  jump\t// in\ntag_1:\n  pop\n    /* \"contracts/SQFITEM/SQFI_Factory.sol\":967:973  100e18 */\n  0x056bc75e2d63100000\n    /* \"contracts/SQFITEM/SQFI_Factory.sol\":942:973  uint256 public amount1 = 100e18 */\n  0x17\n  sstore\n    /* \"contracts/SQFITEM/SQFI_Factory.sol\":1317:1709  constructor(... */\n  callvalue\n  dup1\n  iszero\n  tag_3\n  jumpi\n  0x00\n  dup1\n  revert\ntag_3:\n  pop\n  mload(0x40)\n  sub(codesize, bytecodeSize)\n  dup1\n  bytecodeSize\n  dup4\n  codecopy\n  dup2\n  dup2\n  add\n  0x40\n  mstore\n  dup2\n  add\n  swap1\n  tag_4\n  swap2\n  swap1\n  tag_5\n  jump\t// in\ntag_4:\n    /* \"contracts/SQFITEM/Pausable.sol\":927:932  false */\n  0x00\n    /* \"contracts/SQFITEM/Pausable.sol\":917:924  _paused */\n  dup1\n  0x00\n    /* \"contracts/SQFITEM/Pausable.sol\":917:932  _paused = false */\n  0x0100\n  exp\n  dup2\n  sload\n  dup2\n  0xff\n  mul\n  not\n  and\n  swap1\n  dup4\n  iszero\n  iszero\n  mul\n  or\n  swap1\n  sstore\n  pop\n    /* \"contracts/SQFITEM/SQFI_Factory.sol\":1552:1557  _sqfi */\n  dup2\n    /* \"contracts/SQFITEM/SQFI_Factory.sol\":1536:1540  SQFi */\n  0x02\n  0x00\n    /* \"contracts/SQFITEM/SQFI_Factory.sol\":1536:1558  SQFi = ISQFItem(_sqfi) */\n  0x0100\n  exp\n  dup2\n  sload\n  dup2\n  0xffffffffffffffffffffffffffffffffffffffff\n  mul\n  not\n  and\n  swap1\n  dup4\n  0xffffffffffffffffffffffffffffffffffffffff\n  and\n  mul\n  or\n  swap1\n  sstore\n  pop\n    /* \"contracts/SQFITEM/SQFI_Factory.sol\":1575:1580  _fee1 */\n  dup1\n    /* \"contracts/SQFITEM/SQFI_Factory.sol\":1568:1572  fee1 */\n  0x16\n  0x00\n    /* \"contracts/SQFITEM/SQFI_Factory.sol\":1568:1580  fee1 = _fee1 */\n  0x0100\n  exp\n  dup2\n  sload\n  dup2\n  0xffffffffffffffffffffffffffffffffffffffff\n  mul\n  not\n  and\n  swap1\n  dup4\n  0xffffffffffffffffffffffffffffffffffffffff\n  and\n  mul\n  or\n  swap1\n  sstore\n  pop\n    /* \"contracts/SQFITEM/SQFI_Factory.sol\":1615:1657  _setupRole(DEFAULT_ADMIN_ROLE, msg.sender) */\n  tag_10\n    /* \"contracts/SQFITEM/AccessControl.sol\":1962:1966  0x00 */\n  0x00\n    /* \"contracts/SQFITEM/SQFI_Factory.sol\":1626:1644  DEFAULT_ADMIN_ROLE */\n  dup1\n  shl\n    /* \"contracts/SQFITEM/SQFI_Factory.sol\":1646:1656  msg.sender */\n  caller\n    /* \"contracts/SQFITEM/SQFI_Factory.sol\":1615:1625  _setupRole */\n  shl(0x20, tag_11)\n    /* \"contracts/SQFITEM/SQFI_Factory.sol\":1615:1657  _setupRole(DEFAULT_ADMIN_ROLE, msg.sender) */\n  0x20\n  shr\n  jump\t// in\ntag_10:\n    /* \"contracts/SQFITEM/SQFI_Factory.sol\":1667:1702  _setupRole(PAUSER_ROLE, msg.sender) */\n  tag_12\n    /* \"contracts/SQFITEM/SQFI_Factory.sol\":533:557  keccak256(\"PAUSER_ROLE\") */\n  0x65d7a28e3265b37a6474929f336521b332c1681b933f6cb9f3376673440d862a\n    /* \"contracts/SQFITEM/SQFI_Factory.sol\":1691:1701  msg.sender */\n  caller\n    /* \"contracts/SQFITEM/SQFI_Factory.sol\":1667:1677  _setupRole */\n  shl(0x20, tag_11)\n    /* \"contracts/SQFITEM/SQFI_Factory.sol\":1667:1702  _setupRole(PAUSER_ROLE, msg.sender) */\n  0x20\n  shr\n  jump\t// in\ntag_12:\n    /* \"contracts/SQFITEM/SQFI_Factory.sol\":1317:1709  constructor(... */\n  pop\n  pop\n    /* \"contracts/SQFITEM/SQFI_Factory.sol\":292:5112  contract ParagonFactory is Pausable, AccessControl {... */\n  jump(tag_13)\n    /* \"contracts/SQFITEM/AccessControl.sol\":6049:6159  function _setupRole(bytes32 role, address account) internal virtual {... */\ntag_11:\n    /* \"contracts/SQFITEM/AccessControl.sol\":6127:6152  _grantRole(role, account) */\n  tag_15\n    /* \"contracts/SQFITEM/AccessControl.sol\":6138:6142  role */\n  dup3\n    /* \"contracts/SQFITEM/AccessControl.sol\":6144:6151  account */\n  dup3\n    /* \"contracts/SQFITEM/AccessControl.sol\":6127:6137  _grantRole */\n  shl(0x20, tag_16)\n    /* \"contracts/SQFITEM/AccessControl.sol\":6127:6152  _grantRole(role, account) */\n  0x20\n  shr\n  jump\t// in\ntag_15:\n    /* \"contracts/SQFITEM/AccessControl.sol\":6049:6159  function _setupRole(bytes32 role, address account) internal virtual {... */\n  pop\n  pop\n  jump\t// out\n    /* \"contracts/SQFITEM/AccessControl.sol\":6537:6761  function _grantRole(bytes32 role, address account) private {... */\ntag_16:\n    /* \"contracts/SQFITEM/AccessControl.sol\":6611:6633  hasRole(role, account) */\n  tag_18\n    /* \"contracts/SQFITEM/AccessControl.sol\":6619:6623  role */\n  dup3\n    /* \"contracts/SQFITEM/AccessControl.sol\":6625:6632  account */\n  dup3\n    /* \"contracts/SQFITEM/AccessControl.sol\":6611:6618  hasRole */\n  shl(0x20, tag_19)\n    /* \"contracts/SQFITEM/AccessControl.sol\":6611:6633  hasRole(role, account) */\n  0x20\n  shr\n  jump\t// in\ntag_18:\n    /* \"contracts/SQFITEM/AccessControl.sol\":6606:6755  if (!hasRole(role, account)) {... */\n  tag_20\n  jumpi\n    /* \"contracts/SQFITEM/AccessControl.sol\":6681:6685  true */\n  0x01\n    /* \"contracts/SQFITEM/AccessControl.sol\":6649:6655  _roles */\n  dup1\n    /* \"contracts/SQFITEM/AccessControl.sol\":6649:6661  _roles[role] */\n  0x00\n    /* \"contracts/SQFITEM/AccessControl.sol\":6656:6660  role */\n  dup5\n    /* \"contracts/SQFITEM/AccessControl.sol\":6649:6661  _roles[role] */\n  dup2\n  mstore\n  0x20\n  add\n  swap1\n  dup2\n  mstore\n  0x20\n  add\n  0x00\n  keccak256\n    /* \"contracts/SQFITEM/AccessControl.sol\":6649:6669  _roles[role].members */\n  0x00\n  add\n    /* \"contracts/SQFITEM/AccessControl.sol\":6649:6678  _roles[role].members[account] */\n  0x00\n    /* \"contracts/SQFITEM/AccessControl.sol\":6670:6677  account */\n  dup4\n    /* \"contracts/SQFITEM/AccessControl.sol\":6649:6678  _roles[role].members[account] */\n  0xffffffffffffffffffffffffffffffffffffffff\n  and\n  0xffffffffffffffffffffffffffffffffffffffff\n  and\n  dup2\n  mstore\n  0x20\n  add\n  swap1\n  dup2\n  mstore\n  0x20\n  add\n  0x00\n  keccak256\n  0x00\n    /* \"contracts/SQFITEM/AccessControl.sol\":6649:6685  _roles[role].members[account] = true */\n  0x0100\n  exp\n  dup2\n  sload\n  dup2\n  0xff\n  mul\n  not\n  and\n  swap1\n  dup4\n  iszero\n  iszero\n  mul\n  or\n  swap1\n  sstore\n  pop\n    /* \"contracts/SQFITEM/AccessControl.sol\":6731:6743  _msgSender() */\n  tag_21\n    /* \"contracts/SQFITEM/AccessControl.sol\":6731:6741  _msgSender */\n  shl(0x20, tag_22)\n    /* \"contracts/SQFITEM/AccessControl.sol\":6731:6743  _msgSender() */\n  0x20\n  shr\n  jump\t// in\ntag_21:\n    /* \"contracts/SQFITEM/AccessControl.sol\":6704:6744  RoleGranted(role, account, _msgSender()) */\n  0xffffffffffffffffffffffffffffffffffffffff\n  and\n    /* \"contracts/SQFITEM/AccessControl.sol\":6722:6729  account */\n  dup2\n    /* \"contracts/SQFITEM/AccessControl.sol\":6704:6744  RoleGranted(role, account, _msgSender()) */\n  0xffffffffffffffffffffffffffffffffffffffff\n  and\n    /* \"contracts/SQFITEM/AccessControl.sol\":6716:6720  role */\n  dup4\n    /* \"contracts/SQFITEM/AccessControl.sol\":6704:6744  RoleGranted(role, account, _msgSender()) */\n  0x2f8788117e7eff1d82e926ec794901d17c78024a50270940304540a733656f0d\n  mload(0x40)\n  mload(0x40)\n  dup1\n  swap2\n  sub\n  swap1\n  log4\n    /* \"contracts/SQFITEM/AccessControl.sol\":6606:6755  if (!hasRole(role, account)) {... */\ntag_20:\n    /* \"contracts/SQFITEM/AccessControl.sol\":6537:6761  function _grantRole(bytes32 role, address account) private {... */\n  pop\n  pop\n  jump\t// out\n    /* \"contracts/SQFITEM/AccessControl.sol\":2799:2936  function hasRole(bytes32 role, address account) public view override returns (bool) {... */\ntag_19:\n    /* \"contracts/SQFITEM/AccessControl.sol\":2877:2881  bool */\n  0x00\n    /* \"contracts/SQFITEM/AccessControl.sol\":2900:2906  _roles */\n  0x01\n    /* \"contracts/SQFITEM/AccessControl.sol\":2900:2912  _roles[role] */\n  0x00\n    /* \"contracts/SQFITEM/AccessControl.sol\":2907:2911  role */\n  dup5\n    /* \"contracts/SQFITEM/AccessControl.sol\":2900:2912  _roles[role] */\n  dup2\n  mstore\n  0x20\n  add\n  swap1\n  dup2\n  mstore\n  0x20\n  add\n  0x00\n  keccak256\n    /* \"contracts/SQFITEM/AccessControl.sol\":2900:2920  _roles[role].members */\n  0x00\n  add\n    /* \"contracts/SQFITEM/AccessControl.sol\":2900:2929  _roles[role].members[account] */\n  0x00\n    /* \"contracts/SQFITEM/AccessControl.sol\":2921:2928  account */\n  dup4\n    /* \"contracts/SQFITEM/AccessControl.sol\":2900:2929  _roles[role].members[account] */\n  0xffffffffffffffffffffffffffffffffffffffff\n  and\n  0xffffffffffffffffffffffffffffffffffffffff\n  and\n  dup2\n  mstore\n  0x20\n  add\n  swap1\n  dup2\n  mstore\n  0x20\n  add\n  0x00\n  keccak256\n  0x00\n  swap1\n  sload\n  swap1\n  0x0100\n  exp\n  swap1\n  div\n  0xff\n  and\n    /* \"contracts/SQFITEM/AccessControl.sol\":2893:2929  return _roles[role].members[account] */\n  swap1\n  pop\n    /* \"contracts/SQFITEM/AccessControl.sol\":2799:2936  function hasRole(bytes32 role, address account) public view override returns (bool) {... */\n  swap3\n  swap2\n  pop\n  pop\n  jump\t// out\n    /* \"contracts/SQFITEM/Context.sol\":587:683  function _msgSender() internal view virtual returns (address) {... */\ntag_22:\n    /* \"contracts/SQFITEM/Context.sol\":640:647  address */\n  0x00\n    /* \"contracts/SQFITEM/Context.sol\":666:676  msg.sender */\n  caller\n    /* \"contracts/SQFITEM/Context.sol\":659:676  return msg.sender */\n  swap1\n  pop\n    /* \"contracts/SQFITEM/Context.sol\":587:683  function _msgSender() internal view virtual returns (address) {... */\n  swap1\n  jump\t// out\n    /* \"contracts/SQFITEM/SQFI_Factory.sol\":292:5112  contract ParagonFactory is Pausable, AccessControl {... */\ntag_2:\n  dup3\n  0x10\n  dup2\n  add\n  swap3\n  dup3\n  iszero\n  tag_25\n  jumpi\n  swap2\n  0x20\n  mul\n  dup3\n  add\ntag_26:\n  dup3\n  dup2\n  gt\n  iszero\n  tag_27\n  jumpi\n  dup3\n  mload\n  dup3\n  swap1\n  0xffffff\n  and\n  swap1\n  sstore\n  swap2\n  0x20\n  add\n  swap2\n  swap1\n  0x01\n  add\n  swap1\n  jump(tag_26)\ntag_27:\ntag_25:\n  pop\n  swap1\n  pop\n  tag_28\n  swap2\n  swap1\n  tag_29\n  jump\t// in\ntag_28:\n  pop\n  swap1\n  jump\t// out\ntag_29:\ntag_30:\n  dup1\n  dup3\n  gt\n  iszero\n  tag_31\n  jumpi\n  0x00\n  dup2\n  0x00\n  swap1\n  sstore\n  pop\n  0x01\n  add\n  jump(tag_30)\ntag_31:\n  pop\n  swap1\n  jump\t// out\n    /* \"#utility.yul\":88:205   */\ntag_33:\n    /* \"#utility.yul\":197:198   */\n  0x00\n    /* \"#utility.yul\":194:195   */\n  dup1\n    /* \"#utility.yul\":187:199   */\n  revert\n    /* \"#utility.yul\":334:460   */\ntag_35:\n    /* \"#utility.yul\":371:378   */\n  0x00\n    /* \"#utility.yul\":411:453   */\n  0xffffffffffffffffffffffffffffffffffffffff\n    /* \"#utility.yul\":404:409   */\n  dup3\n    /* \"#utility.yul\":400:454   */\n  and\n    /* \"#utility.yul\":389:454   */\n  swap1\n  pop\n    /* \"#utility.yul\":334:460   */\n  swap2\n  swap1\n  pop\n  jump\t// out\n    /* \"#utility.yul\":466:562   */\ntag_36:\n    /* \"#utility.yul\":503:510   */\n  0x00\n    /* \"#utility.yul\":532:556   */\n  tag_45\n    /* \"#utility.yul\":550:555   */\n  dup3\n    /* \"#utility.yul\":532:556   */\n  tag_35\n  jump\t// in\ntag_45:\n    /* \"#utility.yul\":521:556   */\n  swap1\n  pop\n    /* \"#utility.yul\":466:562   */\n  swap2\n  swap1\n  pop\n  jump\t// out\n    /* \"#utility.yul\":568:690   */\ntag_37:\n    /* \"#utility.yul\":641:665   */\n  tag_47\n    /* \"#utility.yul\":659:664   */\n  dup2\n    /* \"#utility.yul\":641:665   */\n  tag_36\n  jump\t// in\ntag_47:\n    /* \"#utility.yul\":634:639   */\n  dup2\n    /* \"#utility.yul\":631:666   */\n  eq\n    /* \"#utility.yul\":621:684   */\n  tag_48\n  jumpi\n    /* \"#utility.yul\":680:681   */\n  0x00\n    /* \"#utility.yul\":677:678   */\n  dup1\n    /* \"#utility.yul\":670:682   */\n  revert\n    /* \"#utility.yul\":621:684   */\ntag_48:\n    /* \"#utility.yul\":568:690   */\n  pop\n  jump\t// out\n    /* \"#utility.yul\":696:839   */\ntag_38:\n    /* \"#utility.yul\":753:758   */\n  0x00\n    /* \"#utility.yul\":784:790   */\n  dup2\n    /* \"#utility.yul\":778:791   */\n  mload\n    /* \"#utility.yul\":769:791   */\n  swap1\n  pop\n    /* \"#utility.yul\":800:833   */\n  tag_50\n    /* \"#utility.yul\":827:832   */\n  dup2\n    /* \"#utility.yul\":800:833   */\n  tag_37\n  jump\t// in\ntag_50:\n    /* \"#utility.yul\":696:839   */\n  swap3\n  swap2\n  pop\n  pop\n  jump\t// out\n    /* \"#utility.yul\":845:1352   */\ntag_5:\n    /* \"#utility.yul\":924:930   */\n  0x00\n    /* \"#utility.yul\":932:938   */\n  dup1\n    /* \"#utility.yul\":981:983   */\n  0x40\n    /* \"#utility.yul\":969:978   */\n  dup4\n    /* \"#utility.yul\":960:967   */\n  dup6\n    /* \"#utility.yul\":956:979   */\n  sub\n    /* \"#utility.yul\":952:984   */\n  slt\n    /* \"#utility.yul\":949:1068   */\n  iszero\n  tag_52\n  jumpi\n    /* \"#utility.yul\":987:1066   */\n  tag_53\n  tag_33\n  jump\t// in\ntag_53:\n    /* \"#utility.yul\":949:1068   */\ntag_52:\n    /* \"#utility.yul\":1107:1108   */\n  0x00\n    /* \"#utility.yul\":1132:1196   */\n  tag_54\n    /* \"#utility.yul\":1188:1195   */\n  dup6\n    /* \"#utility.yul\":1179:1185   */\n  dup3\n    /* \"#utility.yul\":1168:1177   */\n  dup7\n    /* \"#utility.yul\":1164:1186   */\n  add\n    /* \"#utility.yul\":1132:1196   */\n  tag_38\n  jump\t// in\ntag_54:\n    /* \"#utility.yul\":1122:1196   */\n  swap3\n  pop\n    /* \"#utility.yul\":1078:1206   */\n  pop\n    /* \"#utility.yul\":1245:1247   */\n  0x20\n    /* \"#utility.yul\":1271:1335   */\n  tag_55\n    /* \"#utility.yul\":1327:1334   */\n  dup6\n    /* \"#utility.yul\":1318:1324   */\n  dup3\n    /* \"#utility.yul\":1307:1316   */\n  dup7\n    /* \"#utility.yul\":1303:1325   */\n  add\n    /* \"#utility.yul\":1271:1335   */\n  tag_38\n  jump\t// in\ntag_55:\n    /* \"#utility.yul\":1261:1335   */\n  swap2\n  pop\n    /* \"#utility.yul\":1216:1345   */\n  pop\n    /* \"#utility.yul\":845:1352   */\n  swap3\n  pop\n  swap3\n  swap1\n  pop\n  jump\t// out\n    /* \"contracts/SQFITEM/SQFI_Factory.sol\":292:5112  contract ParagonFactory is Pausable, AccessControl {... */\ntag_13:\n  dataSize(sub_0)\n  dup1\n  dataOffset(sub_0)\n  0x00\n  codecopy\n  0x00\n  return\nstop\n\nsub_0: assembly {\n        /* \"contracts/SQFITEM/SQFI_Factory.sol\":292:5112  contract ParagonFactory is Pausable, AccessControl {... */\n      mstore(0x40, 0x80)\n      callvalue\n      dup1\n      iszero\n      tag_1\n      jumpi\n      0x00\n      dup1\n      revert\n    tag_1:\n      pop\n      jumpi(tag_2, lt(calldatasize, 0x04))\n      shr(0xe0, calldataload(0x00))\n      dup1\n      0x841acc5d\n      gt\n      tag_26\n      jumpi\n      dup1\n      0xd547741f\n      gt\n      tag_27\n      jumpi\n      dup1\n      0xd547741f\n      eq\n      tag_20\n      jumpi\n      dup1\n      0xdd23faf3\n      eq\n      tag_21\n      jumpi\n      dup1\n      0xe63ab1e9\n      eq\n      tag_22\n      jumpi\n      dup1\n      0xeb47536a\n      eq\n      tag_23\n      jumpi\n      dup1\n      0xf3fef3a3\n      eq\n      tag_24\n      jumpi\n      dup1\n      0xf400fde4\n      eq\n      tag_25\n      jumpi\n      jump(tag_2)\n    tag_27:\n      dup1\n      0x841acc5d\n      eq\n      tag_14\n      jumpi\n      dup1\n      0x91d14854\n      eq\n      tag_15\n      jumpi\n      dup1\n      0x945099bc\n      eq\n      tag_16\n      jumpi\n      dup1\n      0xa217fddf\n      eq\n      tag_17\n      jumpi\n      dup1\n      0xac6b182d\n      eq\n      tag_18\n      jumpi\n      dup1\n      0xc6098256\n      eq\n      tag_19\n      jumpi\n      jump(tag_2)\n    tag_26:\n      dup1\n      0x2f2ff15d\n      gt\n      tag_28\n      jumpi\n      dup1\n      0x2f2ff15d\n      eq\n      tag_8\n      jumpi\n      dup1\n      0x36568abe\n      eq\n      tag_9\n      jumpi\n      dup1\n      0x51d64e64\n      eq\n      tag_10\n      jumpi\n      dup1\n      0x52c6159f\n      eq\n      tag_11\n      jumpi\n      dup1\n      0x5c975abb\n      eq\n      tag_12\n      jumpi\n      dup1\n      0x683b0ee5\n      eq\n      tag_13\n      jumpi\n      jump(tag_2)\n    tag_28:\n      dup1\n      0x01ffc9a7\n      eq\n      tag_3\n      jumpi\n      dup1\n      0x09c9985c\n      eq\n      tag_4\n      jumpi\n      dup1\n      0x0a1ac657\n      eq\n      tag_5\n      jumpi\n      dup1\n      0x13e6b93b\n      eq\n      tag_6\n      jumpi\n      dup1\n      0x248a9ca3\n      eq\n      tag_7\n      jumpi\n    tag_2:\n      0x00\n      dup1\n      revert\n        /* \"contracts/SQFITEM/AccessControl.sol\":2510:2712  function supportsInterface(bytes4 interfaceId) public view virtual override returns (bool) {... */\n    tag_3:\n      tag_29\n      0x04\n      dup1\n      calldatasize\n      sub\n      dup2\n      add\n      swap1\n      tag_30\n      swap2\n      swap1\n      tag_31\n      jump\t// in\n    tag_30:\n      tag_32\n      jump\t// in\n    tag_29:\n      mload(0x40)\n      tag_33\n      swap2\n      swap1\n      tag_34\n      jump\t// in\n    tag_33:\n      mload(0x40)\n      dup1\n      swap2\n      sub\n      swap1\n      return\n        /* \"contracts/SQFITEM/SQFI_Factory.sol\":563:601  uint256 public uncraftBurnPercent = 10 */\n    tag_4:\n      tag_35\n      tag_36\n      jump\t// in\n    tag_35:\n      mload(0x40)\n      tag_37\n      swap2\n      swap1\n      tag_38\n      jump\t// in\n    tag_37:\n      mload(0x40)\n      dup1\n      swap2\n      sub\n      swap1\n      return\n        /* \"contracts/SQFITEM/SQFI_Factory.sol\":4519:4822  function uncraft(... */\n    tag_5:\n      tag_39\n      0x04\n      dup1\n      calldatasize\n      sub\n      dup2\n      add\n      swap1\n      tag_40\n      swap2\n      swap1\n      tag_41\n      jump\t// in\n    tag_40:\n      tag_42\n      jump\t// in\n    tag_39:\n      stop\n        /* \"contracts/SQFITEM/SQFI_Factory.sol\":641:670  uint256 public maxSQFI = 2000 */\n    tag_6:\n      tag_43\n      tag_44\n      jump\t// in\n    tag_43:\n      mload(0x40)\n      tag_45\n      swap2\n      swap1\n      tag_38\n      jump\t// in\n    tag_45:\n      mload(0x40)\n      dup1\n      swap2\n      sub\n      swap1\n      return\n        /* \"contracts/SQFITEM/AccessControl.sol\":3882:4003  function getRoleAdmin(bytes32 role) public view override returns (bytes32) {... */\n    tag_7:\n      tag_46\n      0x04\n      dup1\n      calldatasize\n      sub\n      dup2\n      add\n      swap1\n      tag_47\n      swap2\n      swap1\n      tag_48\n      jump\t// in\n    tag_47:\n      tag_49\n      jump\t// in\n    tag_46:\n      mload(0x40)\n      tag_50\n      swap2\n      swap1\n      tag_51\n      jump\t// in\n    tag_50:\n      mload(0x40)\n      dup1\n      swap2\n      sub\n      swap1\n      return\n        /* \"contracts/SQFITEM/AccessControl.sol\":4253:4398  function grantRole(bytes32 role, address account) public virtual override onlyRole(getRoleAdmin(role)) {... */\n    tag_8:\n      tag_52\n      0x04\n      dup1\n      calldatasize\n      sub\n      dup2\n      add\n      swap1\n      tag_53\n      swap2\n      swap1\n      tag_54\n      jump\t// in\n    tag_53:\n      tag_55\n      jump\t// in\n    tag_52:\n      stop\n        /* \"contracts/SQFITEM/AccessControl.sol\":5270:5484  function renounceRole(bytes32 role, address account) public virtual override {... */\n    tag_9:\n      tag_56\n      0x04\n      dup1\n      calldatasize\n      sub\n      dup2\n      add\n      swap1\n      tag_57\n      swap2\n      swap1\n      tag_54\n      jump\t// in\n    tag_57:\n      tag_58\n      jump\t// in\n    tag_56:\n      stop\n        /* \"contracts/SQFITEM/SQFI_Factory.sol\":1715:1872  function editSQFI(uint256 _min, uint256 _max)... */\n    tag_10:\n      tag_59\n      0x04\n      dup1\n      calldatasize\n      sub\n      dup2\n      add\n      swap1\n      tag_60\n      swap2\n      swap1\n      tag_61\n      jump\t// in\n    tag_60:\n      tag_62\n      jump\t// in\n    tag_59:\n      stop\n        /* \"contracts/SQFITEM/SQFI_Factory.sol\":413:433  ISQFItem public SQFi */\n    tag_11:\n      tag_63\n      tag_64\n      jump\t// in\n    tag_63:\n      mload(0x40)\n      tag_65\n      swap2\n      swap1\n      tag_66\n      jump\t// in\n    tag_65:\n      mload(0x40)\n      dup1\n      swap2\n      sub\n      swap1\n      return\n        /* \"contracts/SQFITEM/Pausable.sol\":1034:1118  function paused() public view virtual returns (bool) {... */\n    tag_12:\n      tag_67\n      tag_68\n      jump\t// in\n    tag_67:\n      mload(0x40)\n      tag_69\n      swap2\n      swap1\n      tag_34\n      jump\t// in\n    tag_69:\n      mload(0x40)\n      dup1\n      swap2\n      sub\n      swap1\n      return\n        /* \"contracts/SQFITEM/SQFI_Factory.sol\":607:635  uint256 public minSQFI = 200 */\n    tag_13:\n      tag_70\n      tag_71\n      jump\t// in\n    tag_70:\n      mload(0x40)\n      tag_72\n      swap2\n      swap1\n      tag_38\n      jump\t// in\n    tag_72:\n      mload(0x40)\n      dup1\n      swap2\n      sub\n      swap1\n      return\n        /* \"contracts/SQFITEM/SQFI_Factory.sol\":2868:4446  function createSQFI(... */\n    tag_14:\n      tag_73\n      0x04\n      dup1\n      calldatasize\n      sub\n      dup2\n      add\n      swap1\n      tag_74\n      swap2\n      swap1\n      tag_75\n      jump\t// in\n    tag_74:\n      tag_76\n      jump\t// in\n    tag_73:\n      mload(0x40)\n      tag_77\n      swap2\n      swap1\n      tag_38\n      jump\t// in\n    tag_77:\n      mload(0x40)\n      dup1\n      swap2\n      sub\n      swap1\n      return\n        /* \"contracts/SQFITEM/AccessControl.sol\":2799:2936  function hasRole(bytes32 role, address account) public view override returns (bool) {... */\n    tag_15:\n      tag_78\n      0x04\n      dup1\n      calldatasize\n      sub\n      dup2\n      add\n      swap1\n      tag_79\n      swap2\n      swap1\n      tag_54\n      jump\t// in\n    tag_79:\n      tag_80\n      jump\t// in\n    tag_78:\n      mload(0x40)\n      tag_81\n      swap2\n      swap1\n      tag_34\n      jump\t// in\n    tag_81:\n      mload(0x40)\n      dup1\n      swap2\n      sub\n      swap1\n      return\n        /* \"contracts/SQFITEM/SQFI_Factory.sol\":2578:2862  function editSupportedFee(... */\n    tag_16:\n      tag_82\n      0x04\n      dup1\n      calldatasize\n      sub\n      dup2\n      add\n      swap1\n      tag_83\n      swap2\n      swap1\n      tag_84\n      jump\t// in\n    tag_83:\n      tag_85\n      jump\t// in\n    tag_82:\n      stop\n        /* \"contracts/SQFITEM/AccessControl.sol\":1917:1966  bytes32 public constant DEFAULT_ADMIN_ROLE = 0x00 */\n    tag_17:\n      tag_86\n      tag_87\n      jump\t// in\n    tag_86:\n      mload(0x40)\n      tag_88\n      swap2\n      swap1\n      tag_51\n      jump\t// in\n    tag_88:\n      mload(0x40)\n      dup1\n      swap2\n      sub\n      swap1\n      return\n        /* \"contracts/SQFITEM/SQFI_Factory.sol\":676:882  uint256[16] public runePower = [... */\n    tag_18:\n      tag_89\n      0x04\n      dup1\n      calldatasize\n      sub\n      dup2\n      add\n      swap1\n      tag_90\n      swap2\n      swap1\n      tag_41\n      jump\t// in\n    tag_90:\n      tag_91\n      jump\t// in\n    tag_89:\n      mload(0x40)\n      tag_92\n      swap2\n      swap1\n      tag_38\n      jump\t// in\n    tag_92:\n      mload(0x40)\n      dup1\n      swap2\n      sub\n      swap1\n      return\n        /* \"contracts/SQFITEM/SQFI_Factory.sol\":889:908  address public fee1 */\n    tag_19:\n      tag_93\n      tag_94\n      jump\t// in\n    tag_93:\n      mload(0x40)\n      tag_95\n      swap2\n      swap1\n      tag_96\n      jump\t// in\n    tag_95:\n      mload(0x40)\n      dup1\n      swap2\n      sub\n      swap1\n      return\n        /* \"contracts/SQFITEM/AccessControl.sol\":4632:4779  function revokeRole(bytes32 role, address account) public virtual override onlyRole(getRoleAdmin(role)) {... */\n    tag_20:\n      tag_97\n      0x04\n      dup1\n      calldatasize\n      sub\n      dup2\n      add\n      swap1\n      tag_98\n      swap2\n      swap1\n      tag_54\n      jump\t// in\n    tag_98:\n      tag_99\n      jump\t// in\n    tag_97:\n      stop\n        /* \"contracts/SQFITEM/SQFI_Factory.sol\":2092:2403  function bytes32ToAmount16(bytes32 data)... */\n    tag_21:\n      tag_100\n      0x04\n      dup1\n      calldatasize\n      sub\n      dup2\n      add\n      swap1\n      tag_101\n      swap2\n      swap1\n      tag_48\n      jump\t// in\n    tag_101:\n      tag_102\n      jump\t// in\n    tag_100:\n      mload(0x40)\n      tag_103\n      swap2\n      swap1\n      tag_104\n      jump\t// in\n    tag_103:\n      mload(0x40)\n      dup1\n      swap2\n      sub\n      swap1\n      return\n        /* \"contracts/SQFITEM/SQFI_Factory.sol\":495:557  bytes32 public constant PAUSER_ROLE = keccak256(\"PAUSER_ROLE\") */\n    tag_22:\n      tag_105\n      tag_106\n      jump\t// in\n    tag_105:\n      mload(0x40)\n      tag_107\n      swap2\n      swap1\n      tag_51\n      jump\t// in\n    tag_107:\n      mload(0x40)\n      dup1\n      swap2\n      sub\n      swap1\n      return\n        /* \"contracts/SQFITEM/SQFI_Factory.sol\":1878:2086  function editUncraftBurnPercent(uint256 percent)... */\n    tag_23:\n      tag_108\n      0x04\n      dup1\n      calldatasize\n      sub\n      dup2\n      add\n      swap1\n      tag_109\n      swap2\n      swap1\n      tag_41\n      jump\t// in\n    tag_109:\n      tag_110\n      jump\t// in\n    tag_108:\n      stop\n        /* \"contracts/SQFITEM/SQFI_Factory.sol\":4828:5110  function withdraw(address token, uint256 amount)... */\n    tag_24:\n      tag_111\n      0x04\n      dup1\n      calldatasize\n      sub\n      dup2\n      add\n      swap1\n      tag_112\n      swap2\n      swap1\n      tag_84\n      jump\t// in\n    tag_112:\n      tag_113\n      jump\t// in\n    tag_111:\n      stop\n        /* \"contracts/SQFITEM/SQFI_Factory.sol\":942:973  uint256 public amount1 = 100e18 */\n    tag_25:\n      tag_114\n      tag_115\n      jump\t// in\n    tag_114:\n      mload(0x40)\n      tag_116\n      swap2\n      swap1\n      tag_38\n      jump\t// in\n    tag_116:\n      mload(0x40)\n      dup1\n      swap2\n      sub\n      swap1\n      return\n        /* \"contracts/SQFITEM/AccessControl.sol\":2510:2712  function supportsInterface(bytes4 interfaceId) public view virtual override returns (bool) {... */\n    tag_32:\n        /* \"contracts/SQFITEM/AccessControl.sol\":2595:2599  bool */\n      0x00\n        /* \"contracts/SQFITEM/AccessControl.sol\":2633:2665  type(IAccessControl).interfaceId */\n      0x7965db0b00000000000000000000000000000000000000000000000000000000\n        /* \"contracts/SQFITEM/AccessControl.sol\":2618:2665  interfaceId == type(IAccessControl).interfaceId */\n      not(0xffffffffffffffffffffffffffffffffffffffffffffffffffffffff)\n      and\n        /* \"contracts/SQFITEM/AccessControl.sol\":2618:2629  interfaceId */\n      dup3\n        /* \"contracts/SQFITEM/AccessControl.sol\":2618:2665  interfaceId == type(IAccessControl).interfaceId */\n      not(0xffffffffffffffffffffffffffffffffffffffffffffffffffffffff)\n      and\n      eq\n        /* \"contracts/SQFITEM/AccessControl.sol\":2618:2705  interfaceId == type(IAccessControl).interfaceId || super.supportsInterface(interfaceId) */\n      dup1\n      tag_118\n      jumpi\n      pop\n        /* \"contracts/SQFITEM/AccessControl.sol\":2669:2705  super.supportsInterface(interfaceId) */\n      tag_119\n        /* \"contracts/SQFITEM/AccessControl.sol\":2693:2704  interfaceId */\n      dup3\n        /* \"contracts/SQFITEM/AccessControl.sol\":2669:2692  super.supportsInterface */\n      tag_120\n        /* \"contracts/SQFITEM/AccessControl.sol\":2669:2705  super.supportsInterface(interfaceId) */\n      jump\t// in\n    tag_119:\n        /* \"contracts/SQFITEM/AccessControl.sol\":2618:2705  interfaceId == type(IAccessControl).interfaceId || super.supportsInterface(interfaceId) */\n    tag_118:\n        /* \"contracts/SQFITEM/AccessControl.sol\":2611:2705  return interfaceId == type(IAccessControl).interfaceId || super.supportsInterface(interfaceId) */\n      swap1\n      pop\n        /* \"contracts/SQFITEM/AccessControl.sol\":2510:2712  function supportsInterface(bytes4 interfaceId) public view virtual override returns (bool) {... */\n      swap2\n      swap1\n      pop\n      jump\t// out\n        /* \"contracts/SQFITEM/SQFI_Factory.sol\":563:601  uint256 public uncraftBurnPercent = 10 */\n    tag_36:\n      sload(0x03)\n      dup2\n      jump\t// out\n        /* \"contracts/SQFITEM/SQFI_Factory.sol\":4519:4822  function uncraft(... */\n    tag_42:\n        /* \"contracts/SQFITEM/SQFI_Factory.sol\":4593:4606  address owner */\n      0x00\n        /* \"contracts/SQFITEM/SQFI_Factory.sol\":4607:4619  uint8 status */\n      dup1\n        /* \"contracts/SQFITEM/SQFI_Factory.sol\":4621:4643  string memory tokenURI */\n      0x00\n        /* \"contracts/SQFITEM/SQFI_Factory.sol\":4648:4652  SQFi */\n      0x02\n      0x00\n      swap1\n      sload\n      swap1\n      0x0100\n      exp\n      swap1\n      div\n      0xffffffffffffffffffffffffffffffffffffffff\n      and\n        /* \"contracts/SQFITEM/SQFI_Factory.sol\":4648:4674  SQFi... */\n      0xffffffffffffffffffffffffffffffffffffffff\n      and\n      0xfd2e997e\n        /* \"contracts/SQFITEM/SQFI_Factory.sol\":4675:4682  tokenId */\n      dup6\n        /* \"contracts/SQFITEM/SQFI_Factory.sol\":4648:4683  SQFi... */\n      mload(0x40)\n      dup3\n      0xffffffff\n      and\n      0xe0\n      shl\n      dup2\n      mstore\n      0x04\n      add\n      tag_122\n      swap2\n      swap1\n      tag_38\n      jump\t// in\n    tag_122:\n      0x00\n      mload(0x40)\n      dup1\n      dup4\n      sub\n      dup2\n      0x00\n      dup8\n      gas\n      call\n      iszero\n      dup1\n      iszero\n      tag_124\n      jumpi\n      returndatasize\n      0x00\n      dup1\n      returndatacopy\n      revert(0x00, returndatasize)\n    tag_124:\n      pop\n      pop\n      pop\n      pop\n      mload(0x40)\n      returndatasize\n      0x00\n      dup3\n      returndatacopy\n      returndatasize\n      not(0x1f)\n      0x1f\n      dup3\n      add\n      and\n      dup3\n      add\n      dup1\n      0x40\n      mstore\n      pop\n      dup2\n      add\n      swap1\n      tag_125\n      swap2\n      swap1\n      tag_126\n      jump\t// in\n    tag_125:\n        /* \"contracts/SQFITEM/SQFI_Factory.sol\":4592:4683  (address owner,uint8 status, string memory tokenURI ) = SQFi... */\n      swap3\n      pop\n      swap3\n      pop\n      swap3\n      pop\n        /* \"contracts/SQFITEM/SQFI_Factory.sol\":4762:4766  SQFi */\n      0x02\n      0x00\n      swap1\n      sload\n      swap1\n      0x0100\n      exp\n      swap1\n      div\n      0xffffffffffffffffffffffffffffffffffffffff\n      and\n        /* \"contracts/SQFITEM/SQFI_Factory.sol\":4762:4771  SQFi.burn */\n      0xffffffffffffffffffffffffffffffffffffffff\n      and\n      0x42966c68\n        /* \"contracts/SQFITEM/SQFI_Factory.sol\":4772:4779  tokenId */\n      dup6\n        /* \"contracts/SQFITEM/SQFI_Factory.sol\":4762:4780  SQFi.burn(tokenId) */\n      mload(0x40)\n      dup3\n      0xffffffff\n      and\n      0xe0\n      shl\n      dup2\n      mstore\n      0x04\n      add\n      tag_127\n      swap2\n      swap1\n      tag_38\n      jump\t// in\n    tag_127:\n      0x00\n      mload(0x40)\n      dup1\n      dup4\n      sub\n      dup2\n      0x00\n      dup8\n      dup1\n      extcodesize\n      iszero\n      dup1\n      iszero\n      tag_128\n      jumpi\n      0x00\n      dup1\n      revert\n    tag_128:\n      pop\n      gas\n      call\n      iszero\n      dup1\n      iszero\n      tag_130\n      jumpi\n      returndatasize\n      0x00\n      dup1\n      returndatacopy\n      revert(0x00, returndatasize)\n    tag_130:\n      pop\n      pop\n      pop\n      pop\n        /* \"contracts/SQFITEM/SQFI_Factory.sol\":4795:4815  UncraftSQFI(tokenId) */\n      0x950dcd4a7087bbf2cee08268e1b26ac45fb310d3ae443d0fe53714b713da45c1\n        /* \"contracts/SQFITEM/SQFI_Factory.sol\":4807:4814  tokenId */\n      dup5\n        /* \"contracts/SQFITEM/SQFI_Factory.sol\":4795:4815  UncraftSQFI(tokenId) */\n      mload(0x40)\n      tag_131\n      swap2\n      swap1\n      tag_38\n      jump\t// in\n    tag_131:\n      mload(0x40)\n      dup1\n      swap2\n      sub\n      swap1\n      log1\n        /* \"contracts/SQFITEM/SQFI_Factory.sol\":4582:4822  {... */\n      pop\n      pop\n      pop\n        /* \"contracts/SQFITEM/SQFI_Factory.sol\":4519:4822  function uncraft(... */\n      pop\n      jump\t// out\n        /* \"contracts/SQFITEM/SQFI_Factory.sol\":641:670  uint256 public maxSQFI = 2000 */\n    tag_44:\n      sload(0x05)\n      dup2\n      jump\t// out\n        /* \"contracts/SQFITEM/AccessControl.sol\":3882:4003  function getRoleAdmin(bytes32 role) public view override returns (bytes32) {... */\n    tag_49:\n        /* \"contracts/SQFITEM/AccessControl.sol\":3948:3955  bytes32 */\n      0x00\n        /* \"contracts/SQFITEM/AccessControl.sol\":3974:3980  _roles */\n      0x01\n        /* \"contracts/SQFITEM/AccessControl.sol\":3974:3986  _roles[role] */\n      0x00\n        /* \"contracts/SQFITEM/AccessControl.sol\":3981:3985  role */\n      dup4\n        /* \"contracts/SQFITEM/AccessControl.sol\":3974:3986  _roles[role] */\n      dup2\n      mstore\n      0x20\n      add\n      swap1\n      dup2\n      mstore\n      0x20\n      add\n      0x00\n      keccak256\n        /* \"contracts/SQFITEM/AccessControl.sol\":3974:3996  _roles[role].adminRole */\n      0x01\n      add\n      sload\n        /* \"contracts/SQFITEM/AccessControl.sol\":3967:3996  return _roles[role].adminRole */\n      swap1\n      pop\n        /* \"contracts/SQFITEM/AccessControl.sol\":3882:4003  function getRoleAdmin(bytes32 role) public view override returns (bytes32) {... */\n      swap2\n      swap1\n      pop\n      jump\t// out\n        /* \"contracts/SQFITEM/AccessControl.sol\":4253:4398  function grantRole(bytes32 role, address account) public virtual override onlyRole(getRoleAdmin(role)) {... */\n    tag_55:\n        /* \"contracts/SQFITEM/AccessControl.sol\":4336:4354  getRoleAdmin(role) */\n      tag_133\n        /* \"contracts/SQFITEM/AccessControl.sol\":4349:4353  role */\n      dup3\n        /* \"contracts/SQFITEM/AccessControl.sol\":4336:4348  getRoleAdmin */\n      tag_49\n        /* \"contracts/SQFITEM/AccessControl.sol\":4336:4354  getRoleAdmin(role) */\n      jump\t// in\n    tag_133:\n        /* \"contracts/SQFITEM/AccessControl.sol\":2395:2425  _checkRole(role, _msgSender()) */\n      tag_135\n        /* \"contracts/SQFITEM/AccessControl.sol\":2406:2410  role */\n      dup2\n        /* \"contracts/SQFITEM/AccessControl.sol\":2412:2424  _msgSender() */\n      tag_136\n        /* \"contracts/SQFITEM/AccessControl.sol\":2412:2422  _msgSender */\n      tag_137\n        /* \"contracts/SQFITEM/AccessControl.sol\":2412:2424  _msgSender() */\n      jump\t// in\n    tag_136:\n        /* \"contracts/SQFITEM/AccessControl.sol\":2395:2405  _checkRole */\n      tag_138\n        /* \"contracts/SQFITEM/AccessControl.sol\":2395:2425  _checkRole(role, _msgSender()) */\n      jump\t// in\n    tag_135:\n        /* \"contracts/SQFITEM/AccessControl.sol\":4366:4391  _grantRole(role, account) */\n      tag_140\n        /* \"contracts/SQFITEM/AccessControl.sol\":4377:4381  role */\n      dup4\n        /* \"contracts/SQFITEM/AccessControl.sol\":4383:4390  account */\n      dup4\n        /* \"contracts/SQFITEM/AccessControl.sol\":4366:4376  _grantRole */\n      tag_141\n        /* \"contracts/SQFITEM/AccessControl.sol\":4366:4391  _grantRole(role, account) */\n      jump\t// in\n    tag_140:\n        /* \"contracts/SQFITEM/AccessControl.sol\":4253:4398  function grantRole(bytes32 role, address account) public virtual override onlyRole(getRoleAdmin(role)) {... */\n      pop\n      pop\n      pop\n      jump\t// out\n        /* \"contracts/SQFITEM/AccessControl.sol\":5270:5484  function renounceRole(bytes32 role, address account) public virtual override {... */\n    tag_58:\n        /* \"contracts/SQFITEM/AccessControl.sol\":5376:5388  _msgSender() */\n      tag_143\n        /* \"contracts/SQFITEM/AccessControl.sol\":5376:5386  _msgSender */\n      tag_137\n        /* \"contracts/SQFITEM/AccessControl.sol\":5376:5388  _msgSender() */\n      jump\t// in\n    tag_143:\n        /* \"contracts/SQFITEM/AccessControl.sol\":5365:5388  account == _msgSender() */\n      0xffffffffffffffffffffffffffffffffffffffff\n      and\n        /* \"contracts/SQFITEM/AccessControl.sol\":5365:5372  account */\n      dup2\n        /* \"contracts/SQFITEM/AccessControl.sol\":5365:5388  account == _msgSender() */\n      0xffffffffffffffffffffffffffffffffffffffff\n      and\n      eq\n        /* \"contracts/SQFITEM/AccessControl.sol\":5357:5440  require(account == _msgSender(), \"AccessControl: can only renounce roles for self\") */\n      tag_144\n      jumpi\n      mload(0x40)\n      0x08c379a000000000000000000000000000000000000000000000000000000000\n      dup2\n      mstore\n      0x04\n      add\n      tag_145\n      swap1\n      tag_146\n      jump\t// in\n    tag_145:\n      mload(0x40)\n      dup1\n      swap2\n      sub\n      swap1\n      revert\n    tag_144:\n        /* \"contracts/SQFITEM/AccessControl.sol\":5451:5477  _revokeRole(role, account) */\n      tag_147\n        /* \"contracts/SQFITEM/AccessControl.sol\":5463:5467  role */\n      dup3\n        /* \"contracts/SQFITEM/AccessControl.sol\":5469:5476  account */\n      dup3\n        /* \"contracts/SQFITEM/AccessControl.sol\":5451:5462  _revokeRole */\n      tag_148\n        /* \"contracts/SQFITEM/AccessControl.sol\":5451:5477  _revokeRole(role, account) */\n      jump\t// in\n    tag_147:\n        /* \"contracts/SQFITEM/AccessControl.sol\":5270:5484  function renounceRole(bytes32 role, address account) public virtual override {... */\n      pop\n      pop\n      jump\t// out\n        /* \"contracts/SQFITEM/SQFI_Factory.sol\":1715:1872  function editSQFI(uint256 _min, uint256 _max)... */\n    tag_62:\n        /* \"contracts/SQFITEM/AccessControl.sol\":1962:1966  0x00 */\n      0x00\n        /* \"contracts/SQFITEM/SQFI_Factory.sol\":1793:1811  DEFAULT_ADMIN_ROLE */\n      dup1\n      shl\n        /* \"contracts/SQFITEM/AccessControl.sol\":2395:2425  _checkRole(role, _msgSender()) */\n      tag_150\n        /* \"contracts/SQFITEM/AccessControl.sol\":2406:2410  role */\n      dup2\n        /* \"contracts/SQFITEM/AccessControl.sol\":2412:2424  _msgSender() */\n      tag_151\n        /* \"contracts/SQFITEM/AccessControl.sol\":2412:2422  _msgSender */\n      tag_137\n        /* \"contracts/SQFITEM/AccessControl.sol\":2412:2424  _msgSender() */\n      jump\t// in\n    tag_151:\n        /* \"contracts/SQFITEM/AccessControl.sol\":2395:2405  _checkRole */\n      tag_138\n        /* \"contracts/SQFITEM/AccessControl.sol\":2395:2425  _checkRole(role, _msgSender()) */\n      jump\t// in\n    tag_150:\n        /* \"contracts/SQFITEM/SQFI_Factory.sol\":1837:1841  _min */\n      dup3\n        /* \"contracts/SQFITEM/SQFI_Factory.sol\":1827:1834  minSQFI */\n      0x04\n        /* \"contracts/SQFITEM/SQFI_Factory.sol\":1827:1841  minSQFI = _min */\n      dup2\n      swap1\n      sstore\n      pop\n        /* \"contracts/SQFITEM/SQFI_Factory.sol\":1861:1865  _max */\n      dup2\n        /* \"contracts/SQFITEM/SQFI_Factory.sol\":1851:1858  maxSQFI */\n      0x05\n        /* \"contracts/SQFITEM/SQFI_Factory.sol\":1851:1865  maxSQFI = _max */\n      dup2\n      swap1\n      sstore\n      pop\n        /* \"contracts/SQFITEM/SQFI_Factory.sol\":1715:1872  function editSQFI(uint256 _min, uint256 _max)... */\n      pop\n      pop\n      pop\n      jump\t// out\n        /* \"contracts/SQFITEM/SQFI_Factory.sol\":413:433  ISQFItem public SQFi */\n    tag_64:\n      0x02\n      0x00\n      swap1\n      sload\n      swap1\n      0x0100\n      exp\n      swap1\n      div\n      0xffffffffffffffffffffffffffffffffffffffff\n      and\n      dup2\n      jump\t// out\n        /* \"contracts/SQFITEM/Pausable.sol\":1034:1118  function paused() public view virtual returns (bool) {... */\n    tag_68:\n        /* \"contracts/SQFITEM/Pausable.sol\":1081:1085  bool */\n      0x00\n        /* \"contracts/SQFITEM/Pausable.sol\":1104:1111  _paused */\n      dup1\n      0x00\n      swap1\n      sload\n      swap1\n      0x0100\n      exp\n      swap1\n      div\n      0xff\n      and\n        /* \"contracts/SQFITEM/Pausable.sol\":1097:1111  return _paused */\n      swap1\n      pop\n        /* \"contracts/SQFITEM/Pausable.sol\":1034:1118  function paused() public view virtual returns (bool) {... */\n      swap1\n      jump\t// out\n        /* \"contracts/SQFITEM/SQFI_Factory.sol\":607:635  uint256 public minSQFI = 200 */\n    tag_71:\n      sload(0x04)\n      dup2\n      jump\t// out\n        /* \"contracts/SQFITEM/SQFI_Factory.sol\":2868:4446  function createSQFI(... */\n    tag_76:\n        /* \"contracts/SQFITEM/SQFI_Factory.sol\":3048:3055  uint256 */\n      0x00\n        /* \"contracts/SQFITEM/Pausable.sol\":1348:1356  paused() */\n      tag_155\n        /* \"contracts/SQFITEM/Pausable.sol\":1348:1354  paused */\n      tag_68\n        /* \"contracts/SQFITEM/Pausable.sol\":1348:1356  paused() */\n      jump\t// in\n    tag_155:\n        /* \"contracts/SQFITEM/Pausable.sol\":1347:1356  !paused() */\n      iszero\n        /* \"contracts/SQFITEM/Pausable.sol\":1339:1377  require(!paused(), \"Pausable: paused\") */\n      tag_156\n      jumpi\n      mload(0x40)\n      0x08c379a000000000000000000000000000000000000000000000000000000000\n      dup2\n      mstore\n      0x04\n      add\n      tag_157\n      swap1\n      tag_158\n      jump\t// in\n    tag_157:\n      mload(0x40)\n      dup1\n      swap2\n      sub\n      swap1\n      revert\n    tag_156:\n        /* \"contracts/SQFITEM/SQFI_Factory.sol\":3081:3082  0 */\n      0x00\n        /* \"contracts/SQFITEM/SQFI_Factory.sol\":3071:3078  amount1 */\n      sload(0x17)\n        /* \"contracts/SQFITEM/SQFI_Factory.sol\":3071:3082  amount1 > 0 */\n      gt\n        /* \"contracts/SQFITEM/SQFI_Factory.sol\":3071:3106  amount1 > 0 && fee1 != address(0x0) */\n      dup1\n      iszero\n      tag_160\n      jumpi\n      pop\n        /* \"contracts/SQFITEM/SQFI_Factory.sol\":3102:3105  0x0 */\n      0x00\n        /* \"contracts/SQFITEM/SQFI_Factory.sol\":3086:3106  fee1 != address(0x0) */\n      0xffffffffffffffffffffffffffffffffffffffff\n      and\n        /* \"contracts/SQFITEM/SQFI_Factory.sol\":3086:3090  fee1 */\n      0x16\n      0x00\n      swap1\n      sload\n      swap1\n      0x0100\n      exp\n      swap1\n      div\n      0xffffffffffffffffffffffffffffffffffffffff\n      and\n        /* \"contracts/SQFITEM/SQFI_Factory.sol\":3086:3106  fee1 != address(0x0) */\n      0xffffffffffffffffffffffffffffffffffffffff\n      and\n      eq\n      iszero\n        /* \"contracts/SQFITEM/SQFI_Factory.sol\":3071:3106  amount1 > 0 && fee1 != address(0x0) */\n    tag_160:\n        /* \"contracts/SQFITEM/SQFI_Factory.sol\":3067:3194  if (amount1 > 0 && fee1 != address(0x0)) {... */\n      iszero\n      tag_161\n      jumpi\n        /* \"contracts/SQFITEM/SQFI_Factory.sol\":3129:3133  fee1 */\n      0x16\n      0x00\n      swap1\n      sload\n      swap1\n      0x0100\n      exp\n      swap1\n      div\n      0xffffffffffffffffffffffffffffffffffffffff\n      and\n        /* \"contracts/SQFITEM/SQFI_Factory.sol\":3122:3147  IERC20(fee1).transferFrom */\n      0xffffffffffffffffffffffffffffffffffffffff\n      and\n      0x23b872dd\n        /* \"contracts/SQFITEM/SQFI_Factory.sol\":3148:3158  msg.sender */\n      caller\n        /* \"contracts/SQFITEM/SQFI_Factory.sol\":3168:3172  this */\n      address\n        /* \"contracts/SQFITEM/SQFI_Factory.sol\":3175:3182  amount1 */\n      sload(0x17)\n        /* \"contracts/SQFITEM/SQFI_Factory.sol\":3122:3183  IERC20(fee1).transferFrom(msg.sender, address(this), amount1) */\n      mload(0x40)\n      dup5\n      0xffffffff\n      and\n      0xe0\n      shl\n      dup2\n      mstore\n      0x04\n      add\n      tag_162\n      swap4\n      swap3\n      swap2\n      swap1\n      tag_163\n      jump\t// in\n    tag_162:\n      0x20\n      mload(0x40)\n      dup1\n      dup4\n      sub\n      dup2\n      0x00\n      dup8\n      gas\n      call\n      iszero\n      dup1\n      iszero\n      tag_165\n      jumpi\n      returndatasize\n      0x00\n      dup1\n      returndatacopy\n      revert(0x00, returndatasize)\n    tag_165:\n      pop\n      pop\n      pop\n      pop\n      mload(0x40)\n      returndatasize\n      not(0x1f)\n      0x1f\n      dup3\n      add\n      and\n      dup3\n      add\n      dup1\n      0x40\n      mstore\n      pop\n      dup2\n      add\n      swap1\n      tag_166\n      swap2\n      swap1\n      tag_167\n      jump\t// in\n    tag_166:\n      pop\n        /* \"contracts/SQFITEM/SQFI_Factory.sol\":3067:3194  if (amount1 > 0 && fee1 != address(0x0)) {... */\n    tag_161:\n        /* \"contracts/SQFITEM/SQFI_Factory.sol\":4006:4021  uint256 tokenId */\n      0x00\n        /* \"contracts/SQFITEM/SQFI_Factory.sol\":4024:4028  SQFi */\n      0x02\n      0x00\n      swap1\n      sload\n      swap1\n      0x0100\n      exp\n      swap1\n      div\n      0xffffffffffffffffffffffffffffffffffffffff\n      and\n        /* \"contracts/SQFITEM/SQFI_Factory.sol\":4024:4037  SQFi.safeMint */\n      0xffffffffffffffffffffffffffffffffffffffff\n      and\n      0xd204c45e\n        /* \"contracts/SQFITEM/SQFI_Factory.sol\":4051:4061  msg.sender */\n      caller\n        /* \"contracts/SQFITEM/SQFI_Factory.sol\":4075:4084  tokenURI_ */\n      dup6\n        /* \"contracts/SQFITEM/SQFI_Factory.sol\":4024:4173  SQFi.safeMint(... */\n      mload(0x40)\n      dup4\n      0xffffffff\n      and\n      0xe0\n      shl\n      dup2\n      mstore\n      0x04\n      add\n      tag_168\n      swap3\n      swap2\n      swap1\n      tag_169\n      jump\t// in\n    tag_168:\n      0x20\n      mload(0x40)\n      dup1\n      dup4\n      sub\n      dup2\n      0x00\n      dup8\n      gas\n      call\n      iszero\n      dup1\n      iszero\n      tag_171\n      jumpi\n      returndatasize\n      0x00\n      dup1\n      returndatacopy\n      revert(0x00, returndatasize)\n    tag_171:\n      pop\n      pop\n      pop\n      pop\n      mload(0x40)\n      returndatasize\n      not(0x1f)\n      0x1f\n      dup3\n      add\n      and\n      dup3\n      add\n      dup1\n      0x40\n      mstore\n      pop\n      dup2\n      add\n      swap1\n      tag_172\n      swap2\n      swap1\n      tag_173\n      jump\t// in\n    tag_172:\n        /* \"contracts/SQFITEM/SQFI_Factory.sol\":4006:4173  uint256 tokenId = SQFi.safeMint(... */\n      swap1\n      pop\n        /* \"contracts/SQFITEM/SQFI_Factory.sol\":4188:4415  CraftSQFI(... */\n      0x9e6e3acb506bf1d2adb1d8565252e575763ee07d1debfcc2c830682895b3137d\n        /* \"contracts/SQFITEM/SQFI_Factory.sol\":4291:4301  msg.sender */\n      caller\n        /* \"contracts/SQFITEM/SQFI_Factory.sol\":4315:4322  tokenId */\n      dup3\n        /* \"contracts/SQFITEM/SQFI_Factory.sol\":4336:4340  fee1 */\n      0x16\n      0x00\n      swap1\n      sload\n      swap1\n      0x0100\n      exp\n      swap1\n      div\n      0xffffffffffffffffffffffffffffffffffffffff\n      and\n        /* \"contracts/SQFITEM/SQFI_Factory.sol\":4375:4382  amount1 */\n      sload(0x17)\n        /* \"contracts/SQFITEM/SQFI_Factory.sol\":4188:4415  CraftSQFI(... */\n      mload(0x40)\n      tag_174\n      swap5\n      swap4\n      swap3\n      swap2\n      swap1\n      tag_175\n      jump\t// in\n    tag_174:\n      mload(0x40)\n      dup1\n      swap2\n      sub\n      swap1\n      log1\n        /* \"contracts/SQFITEM/SQFI_Factory.sol\":4432:4439  tokenId */\n      dup1\n        /* \"contracts/SQFITEM/SQFI_Factory.sol\":4425:4439  return tokenId */\n      swap2\n      pop\n      pop\n        /* \"contracts/SQFITEM/SQFI_Factory.sol\":2868:4446  function createSQFI(... */\n      swap2\n      swap1\n      pop\n      jump\t// out\n        /* \"contracts/SQFITEM/AccessControl.sol\":2799:2936  function hasRole(bytes32 role, address account) public view override returns (bool) {... */\n    tag_80:\n        /* \"contracts/SQFITEM/AccessControl.sol\":2877:2881  bool */\n      0x00\n        /* \"contracts/SQFITEM/AccessControl.sol\":2900:2906  _roles */\n      0x01\n        /* \"contracts/SQFITEM/AccessControl.sol\":2900:2912  _roles[role] */\n      0x00\n        /* \"contracts/SQFITEM/AccessControl.sol\":2907:2911  role */\n      dup5\n        /* \"contracts/SQFITEM/AccessControl.sol\":2900:2912  _roles[role] */\n      dup2\n      mstore\n      0x20\n      add\n      swap1\n      dup2\n      mstore\n      0x20\n      add\n      0x00\n      keccak256\n        /* \"contracts/SQFITEM/AccessControl.sol\":2900:2920  _roles[role].members */\n      0x00\n      add\n        /* \"contracts/SQFITEM/AccessControl.sol\":2900:2929  _roles[role].members[account] */\n      0x00\n        /* \"contracts/SQFITEM/AccessControl.sol\":2921:2928  account */\n      dup4\n        /* \"contracts/SQFITEM/AccessControl.sol\":2900:2929  _roles[role].members[account] */\n      0xffffffffffffffffffffffffffffffffffffffff\n      and\n      0xffffffffffffffffffffffffffffffffffffffff\n      and\n      dup2\n      mstore\n      0x20\n      add\n      swap1\n      dup2\n      mstore\n      0x20\n      add\n      0x00\n      keccak256\n      0x00\n      swap1\n      sload\n      swap1\n      0x0100\n      exp\n      swap1\n      div\n      0xff\n      and\n        /* \"contracts/SQFITEM/AccessControl.sol\":2893:2929  return _roles[role].members[account] */\n      swap1\n      pop\n        /* \"contracts/SQFITEM/AccessControl.sol\":2799:2936  function hasRole(bytes32 role, address account) public view override returns (bool) {... */\n      swap3\n      swap2\n      pop\n      pop\n      jump\t// out\n        /* \"contracts/SQFITEM/SQFI_Factory.sol\":2578:2862  function editSupportedFee(... */\n    tag_85:\n        /* \"contracts/SQFITEM/AccessControl.sol\":1962:1966  0x00 */\n      0x00\n        /* \"contracts/SQFITEM/SQFI_Factory.sol\":2729:2747  DEFAULT_ADMIN_ROLE */\n      dup1\n      shl\n        /* \"contracts/SQFITEM/AccessControl.sol\":2395:2425  _checkRole(role, _msgSender()) */\n      tag_178\n        /* \"contracts/SQFITEM/AccessControl.sol\":2406:2410  role */\n      dup2\n        /* \"contracts/SQFITEM/AccessControl.sol\":2412:2424  _msgSender() */\n      tag_179\n        /* \"contracts/SQFITEM/AccessControl.sol\":2412:2422  _msgSender */\n      tag_137\n        /* \"contracts/SQFITEM/AccessControl.sol\":2412:2424  _msgSender() */\n      jump\t// in\n    tag_179:\n        /* \"contracts/SQFITEM/AccessControl.sol\":2395:2405  _checkRole */\n      tag_138\n        /* \"contracts/SQFITEM/AccessControl.sol\":2395:2425  _checkRole(role, _msgSender()) */\n      jump\t// in\n    tag_178:\n        /* \"contracts/SQFITEM/SQFI_Factory.sol\":2766:2771  _fee1 */\n      dup3\n        /* \"contracts/SQFITEM/SQFI_Factory.sol\":2759:2763  fee1 */\n      0x16\n      0x00\n        /* \"contracts/SQFITEM/SQFI_Factory.sol\":2759:2771  fee1 = _fee1 */\n      0x0100\n      exp\n      dup2\n      sload\n      dup2\n      0xffffffffffffffffffffffffffffffffffffffff\n      mul\n      not\n      and\n      swap1\n      dup4\n      0xffffffffffffffffffffffffffffffffffffffff\n      and\n      mul\n      or\n      swap1\n      sstore\n      pop\n        /* \"contracts/SQFITEM/SQFI_Factory.sol\":2816:2824  _amount1 */\n      dup2\n        /* \"contracts/SQFITEM/SQFI_Factory.sol\":2806:2813  amount1 */\n      0x17\n        /* \"contracts/SQFITEM/SQFI_Factory.sol\":2806:2824  amount1 = _amount1 */\n      dup2\n      swap1\n      sstore\n      pop\n        /* \"contracts/SQFITEM/SQFI_Factory.sol\":2578:2862  function editSupportedFee(... */\n      pop\n      pop\n      pop\n      jump\t// out\n        /* \"contracts/SQFITEM/AccessControl.sol\":1917:1966  bytes32 public constant DEFAULT_ADMIN_ROLE = 0x00 */\n    tag_87:\n        /* \"contracts/SQFITEM/AccessControl.sol\":1962:1966  0x00 */\n      0x00\n        /* \"contracts/SQFITEM/AccessControl.sol\":1917:1966  bytes32 public constant DEFAULT_ADMIN_ROLE = 0x00 */\n      dup1\n      shl\n      dup2\n      jump\t// out\n        /* \"contracts/SQFITEM/SQFI_Factory.sol\":676:882  uint256[16] public runePower = [... */\n    tag_91:\n      0x06\n      dup2\n      0x10\n      dup2\n      lt\n      tag_181\n      jumpi\n      0x00\n      dup1\n      revert\n    tag_181:\n      add\n      0x00\n      swap2\n      pop\n      swap1\n      pop\n      sload\n      dup2\n      jump\t// out\n        /* \"contracts/SQFITEM/SQFI_Factory.sol\":889:908  address public fee1 */\n    tag_94:\n      0x16\n      0x00\n      swap1\n      sload\n      swap1\n      0x0100\n      exp\n      swap1\n      div\n      0xffffffffffffffffffffffffffffffffffffffff\n      and\n      dup2\n      jump\t// out\n        /* \"contracts/SQFITEM/AccessControl.sol\":4632:4779  function revokeRole(bytes32 role, address account) public virtual override onlyRole(getRoleAdmin(role)) {... */\n    tag_99:\n        /* \"contracts/SQFITEM/AccessControl.sol\":4716:4734  getRoleAdmin(role) */\n      tag_183\n        /* \"contracts/SQFITEM/AccessControl.sol\":4729:4733  role */\n      dup3\n        /* \"contracts/SQFITEM/AccessControl.sol\":4716:4728  getRoleAdmin */\n      tag_49\n        /* \"contracts/SQFITEM/AccessControl.sol\":4716:4734  getRoleAdmin(role) */\n      jump\t// in\n    tag_183:\n        /* \"contracts/SQFITEM/AccessControl.sol\":2395:2425  _checkRole(role, _msgSender()) */\n      tag_185\n        /* \"contracts/SQFITEM/AccessControl.sol\":2406:2410  role */\n      dup2\n        /* \"contracts/SQFITEM/AccessControl.sol\":2412:2424  _msgSender() */\n      tag_186\n        /* \"contracts/SQFITEM/AccessControl.sol\":2412:2422  _msgSender */\n      tag_137\n        /* \"contracts/SQFITEM/AccessControl.sol\":2412:2424  _msgSender() */\n      jump\t// in\n    tag_186:\n        /* \"contracts/SQFITEM/AccessControl.sol\":2395:2405  _checkRole */\n      tag_138\n        /* \"contracts/SQFITEM/AccessControl.sol\":2395:2425  _checkRole(role, _msgSender()) */\n      jump\t// in\n    tag_185:\n        /* \"contracts/SQFITEM/AccessControl.sol\":4746:4772  _revokeRole(role, account) */\n      tag_188\n        /* \"contracts/SQFITEM/AccessControl.sol\":4758:4762  role */\n      dup4\n        /* \"contracts/SQFITEM/AccessControl.sol\":4764:4771  account */\n      dup4\n        /* \"contracts/SQFITEM/AccessControl.sol\":4746:4757  _revokeRole */\n      tag_148\n        /* \"contracts/SQFITEM/AccessControl.sol\":4746:4772  _revokeRole(role, account) */\n      jump\t// in\n    tag_188:\n        /* \"contracts/SQFITEM/AccessControl.sol\":4632:4779  function revokeRole(bytes32 role, address account) public virtual override onlyRole(getRoleAdmin(role)) {... */\n      pop\n      pop\n      pop\n      jump\t// out\n        /* \"contracts/SQFITEM/SQFI_Factory.sol\":2092:2403  function bytes32ToAmount16(bytes32 data)... */\n    tag_102:\n        /* \"contracts/SQFITEM/SQFI_Factory.sol\":2178:2203  uint256[16] memory amount */\n      tag_189\n      tag_190\n      jump\t// in\n    tag_189:\n        /* \"contracts/SQFITEM/SQFI_Factory.sol\":2224:2231  uint8 i */\n      0x00\n        /* \"contracts/SQFITEM/SQFI_Factory.sol\":2219:2397  for (uint8 i = 0; i < 32; i++) {... */\n    tag_192:\n        /* \"contracts/SQFITEM/SQFI_Factory.sol\":2241:2243  32 */\n      0x20\n        /* \"contracts/SQFITEM/SQFI_Factory.sol\":2237:2238  i */\n      dup2\n        /* \"contracts/SQFITEM/SQFI_Factory.sol\":2237:2243  i < 32 */\n      0xff\n      and\n      lt\n        /* \"contracts/SQFITEM/SQFI_Factory.sol\":2219:2397  for (uint8 i = 0; i < 32; i++) {... */\n      iszero\n      tag_193\n      jumpi\n        /* \"contracts/SQFITEM/SQFI_Factory.sol\":2376:2377  0 */\n      0x00\n        /* \"contracts/SQFITEM/SQFI_Factory.sol\":2371:2372  2 */\n      0x02\n        /* \"contracts/SQFITEM/SQFI_Factory.sol\":2367:2368  i */\n      dup3\n        /* \"contracts/SQFITEM/SQFI_Factory.sol\":2367:2372  i % 2 */\n      tag_195\n      swap2\n      swap1\n      tag_196\n      jump\t// in\n    tag_195:\n        /* \"contracts/SQFITEM/SQFI_Factory.sol\":2367:2377  i % 2 == 0 */\n      0xff\n      and\n      eq\n        /* \"contracts/SQFITEM/SQFI_Factory.sol\":2367:2385  i % 2 == 0 ? 1 : 0 */\n      tag_197\n      jumpi\n        /* \"contracts/SQFITEM/SQFI_Factory.sol\":2384:2385  0 */\n      0x00\n        /* \"contracts/SQFITEM/SQFI_Factory.sol\":2367:2385  i % 2 == 0 ? 1 : 0 */\n      jump(tag_198)\n    tag_197:\n        /* \"contracts/SQFITEM/SQFI_Factory.sol\":2380:2381  1 */\n      0x01\n        /* \"contracts/SQFITEM/SQFI_Factory.sol\":2367:2385  i % 2 == 0 ? 1 : 0 */\n    tag_198:\n        /* \"contracts/SQFITEM/SQFI_Factory.sol\":2361:2364  256 */\n      0x0100\n        /* \"contracts/SQFITEM/SQFI_Factory.sol\":2361:2386  256**(i % 2 == 0 ? 1 : 0) */\n      tag_199\n      swap2\n      swap1\n      tag_200\n      jump\t// in\n    tag_199:\n        /* \"contracts/SQFITEM/SQFI_Factory.sol\":2334:2338  data */\n      dup4\n        /* \"contracts/SQFITEM/SQFI_Factory.sol\":2339:2340  i */\n      dup3\n        /* \"contracts/SQFITEM/SQFI_Factory.sol\":2334:2341  data[i] */\n      0xff\n      and\n      0x20\n      dup2\n      lt\n      tag_201\n      jumpi\n      tag_202\n      tag_203\n      jump\t// in\n    tag_202:\n    tag_201:\n      byte\n      0xf8\n      shl\n        /* \"contracts/SQFITEM/SQFI_Factory.sol\":2328:2342  uint8(data[i]) */\n      0xf8\n      shr\n        /* \"contracts/SQFITEM/SQFI_Factory.sol\":2328:2386  uint8(data[i]) *... */\n      0xff\n      and\n      tag_204\n      swap2\n      swap1\n      tag_205\n      jump\t// in\n    tag_204:\n        /* \"contracts/SQFITEM/SQFI_Factory.sol\":2296:2302  amount */\n      dup3\n        /* \"contracts/SQFITEM/SQFI_Factory.sol\":2307:2308  2 */\n      0x02\n        /* \"contracts/SQFITEM/SQFI_Factory.sol\":2303:2304  i */\n      dup4\n        /* \"contracts/SQFITEM/SQFI_Factory.sol\":2303:2308  i / 2 */\n      tag_206\n      swap2\n      swap1\n      tag_207\n      jump\t// in\n    tag_206:\n        /* \"contracts/SQFITEM/SQFI_Factory.sol\":2296:2309  amount[i / 2] */\n      0xff\n      and\n      0x10\n      dup2\n      lt\n      tag_208\n      jumpi\n      tag_209\n      tag_203\n      jump\t// in\n    tag_209:\n    tag_208:\n      0x20\n      mul\n      add\n      mload\n        /* \"contracts/SQFITEM/SQFI_Factory.sol\":2296:2386  amount[i / 2] +... */\n      tag_210\n      swap2\n      swap1\n      tag_211\n      jump\t// in\n    tag_210:\n        /* \"contracts/SQFITEM/SQFI_Factory.sol\":2264:2270  amount */\n      dup3\n        /* \"contracts/SQFITEM/SQFI_Factory.sol\":2275:2276  2 */\n      0x02\n        /* \"contracts/SQFITEM/SQFI_Factory.sol\":2271:2272  i */\n      dup4\n        /* \"contracts/SQFITEM/SQFI_Factory.sol\":2271:2276  i / 2 */\n      tag_212\n      swap2\n      swap1\n      tag_207\n      jump\t// in\n    tag_212:\n        /* \"contracts/SQFITEM/SQFI_Factory.sol\":2264:2277  amount[i / 2] */\n      0xff\n      and\n      0x10\n      dup2\n      lt\n      tag_213\n      jumpi\n      tag_214\n      tag_203\n      jump\t// in\n    tag_214:\n    tag_213:\n      0x20\n      mul\n      add\n        /* \"contracts/SQFITEM/SQFI_Factory.sol\":2264:2386  amount[i / 2] =... */\n      dup2\n      dup2\n      mstore\n      pop\n      pop\n        /* \"contracts/SQFITEM/SQFI_Factory.sol\":2245:2248  i++ */\n      dup1\n      dup1\n      tag_215\n      swap1\n      tag_216\n      jump\t// in\n    tag_215:\n      swap2\n      pop\n      pop\n        /* \"contracts/SQFITEM/SQFI_Factory.sol\":2219:2397  for (uint8 i = 0; i < 32; i++) {... */\n      jump(tag_192)\n    tag_193:\n      pop\n        /* \"contracts/SQFITEM/SQFI_Factory.sol\":2092:2403  function bytes32ToAmount16(bytes32 data)... */\n      swap2\n      swap1\n      pop\n      jump\t// out\n        /* \"contracts/SQFITEM/SQFI_Factory.sol\":495:557  bytes32 public constant PAUSER_ROLE = keccak256(\"PAUSER_ROLE\") */\n    tag_106:\n        /* \"contracts/SQFITEM/SQFI_Factory.sol\":533:557  keccak256(\"PAUSER_ROLE\") */\n      0x65d7a28e3265b37a6474929f336521b332c1681b933f6cb9f3376673440d862a\n        /* \"contracts/SQFITEM/SQFI_Factory.sol\":495:557  bytes32 public constant PAUSER_ROLE = keccak256(\"PAUSER_ROLE\") */\n      dup2\n      jump\t// out\n        /* \"contracts/SQFITEM/SQFI_Factory.sol\":1878:2086  function editUncraftBurnPercent(uint256 percent)... */\n    tag_110:\n        /* \"contracts/SQFITEM/AccessControl.sol\":1962:1966  0x00 */\n      0x00\n        /* \"contracts/SQFITEM/SQFI_Factory.sol\":1959:1977  DEFAULT_ADMIN_ROLE */\n      dup1\n      shl\n        /* \"contracts/SQFITEM/AccessControl.sol\":2395:2425  _checkRole(role, _msgSender()) */\n      tag_218\n        /* \"contracts/SQFITEM/AccessControl.sol\":2406:2410  role */\n      dup2\n        /* \"contracts/SQFITEM/AccessControl.sol\":2412:2424  _msgSender() */\n      tag_219\n        /* \"contracts/SQFITEM/AccessControl.sol\":2412:2422  _msgSender */\n      tag_137\n        /* \"contracts/SQFITEM/AccessControl.sol\":2412:2424  _msgSender() */\n      jump\t// in\n    tag_219:\n        /* \"contracts/SQFITEM/AccessControl.sol\":2395:2405  _checkRole */\n      tag_138\n        /* \"contracts/SQFITEM/AccessControl.sol\":2395:2425  _checkRole(role, _msgSender()) */\n      jump\t// in\n    tag_218:\n        /* \"contracts/SQFITEM/SQFI_Factory.sol\":2012:2015  100 */\n      0x64\n        /* \"contracts/SQFITEM/SQFI_Factory.sol\":2001:2008  percent */\n      dup3\n        /* \"contracts/SQFITEM/SQFI_Factory.sol\":2001:2015  percent <= 100 */\n      gt\n      iszero\n        /* \"contracts/SQFITEM/SQFI_Factory.sol\":1993:2041  require(percent <= 100, \"Must be valid percent\") */\n      tag_221\n      jumpi\n      mload(0x40)\n      0x08c379a000000000000000000000000000000000000000000000000000000000\n      dup2\n      mstore\n      0x04\n      add\n      tag_222\n      swap1\n      tag_223\n      jump\t// in\n    tag_222:\n      mload(0x40)\n      dup1\n      swap2\n      sub\n      swap1\n      revert\n    tag_221:\n        /* \"contracts/SQFITEM/SQFI_Factory.sol\":2072:2079  percent */\n      dup2\n        /* \"contracts/SQFITEM/SQFI_Factory.sol\":2051:2069  uncraftBurnPercent */\n      0x03\n        /* \"contracts/SQFITEM/SQFI_Factory.sol\":2051:2079  uncraftBurnPercent = percent */\n      dup2\n      swap1\n      sstore\n      pop\n        /* \"contracts/SQFITEM/SQFI_Factory.sol\":1878:2086  function editUncraftBurnPercent(uint256 percent)... */\n      pop\n      pop\n      jump\t// out\n        /* \"contracts/SQFITEM/SQFI_Factory.sol\":4828:5110  function withdraw(address token, uint256 amount)... */\n    tag_113:\n        /* \"contracts/SQFITEM/AccessControl.sol\":1962:1966  0x00 */\n      0x00\n        /* \"contracts/SQFITEM/SQFI_Factory.sol\":4909:4927  DEFAULT_ADMIN_ROLE */\n      dup1\n      shl\n        /* \"contracts/SQFITEM/AccessControl.sol\":2395:2425  _checkRole(role, _msgSender()) */\n      tag_225\n        /* \"contracts/SQFITEM/AccessControl.sol\":2406:2410  role */\n      dup2\n        /* \"contracts/SQFITEM/AccessControl.sol\":2412:2424  _msgSender() */\n      tag_226\n        /* \"contracts/SQFITEM/AccessControl.sol\":2412:2422  _msgSender */\n      tag_137\n        /* \"contracts/SQFITEM/AccessControl.sol\":2412:2424  _msgSender() */\n      jump\t// in\n    tag_226:\n        /* \"contracts/SQFITEM/AccessControl.sol\":2395:2405  _checkRole */\n      tag_138\n        /* \"contracts/SQFITEM/AccessControl.sol\":2395:2425  _checkRole(role, _msgSender()) */\n      jump\t// in\n    tag_225:\n        /* \"contracts/SQFITEM/SQFI_Factory.sol\":4964:4967  0x0 */\n      0x00\n        /* \"contracts/SQFITEM/SQFI_Factory.sol\":4947:4968  token == address(0x0) */\n      0xffffffffffffffffffffffffffffffffffffffff\n      and\n        /* \"contracts/SQFITEM/SQFI_Factory.sol\":4947:4952  token */\n      dup4\n        /* \"contracts/SQFITEM/SQFI_Factory.sol\":4947:4968  token == address(0x0) */\n      0xffffffffffffffffffffffffffffffffffffffff\n      and\n      sub\n        /* \"contracts/SQFITEM/SQFI_Factory.sol\":4943:5104  if (token == address(0x0)) {... */\n      tag_228\n      jumpi\n        /* \"contracts/SQFITEM/SQFI_Factory.sol\":4992:5002  msg.sender */\n      caller\n        /* \"contracts/SQFITEM/SQFI_Factory.sol\":4984:5012  payable(msg.sender).transfer */\n      0xffffffffffffffffffffffffffffffffffffffff\n      and\n        /* \"contracts/SQFITEM/SQFI_Factory.sol\":4984:5020  payable(msg.sender).transfer(amount) */\n      0x08fc\n        /* \"contracts/SQFITEM/SQFI_Factory.sol\":5013:5019  amount */\n      dup4\n        /* \"contracts/SQFITEM/SQFI_Factory.sol\":4984:5020  payable(msg.sender).transfer(amount) */\n      swap1\n      dup2\n      iszero\n      mul\n      swap1\n      mload(0x40)\n      0x00\n      mload(0x40)\n      dup1\n      dup4\n      sub\n      dup2\n      dup6\n      dup9\n      dup9\n      call\n      swap4\n      pop\n      pop\n      pop\n      pop\n      iszero\n      dup1\n      iszero\n      tag_230\n      jumpi\n      returndatasize\n      0x00\n      dup1\n      returndatacopy\n      revert(0x00, returndatasize)\n    tag_230:\n      pop\n        /* \"contracts/SQFITEM/SQFI_Factory.sol\":4943:5104  if (token == address(0x0)) {... */\n      jump(tag_231)\n    tag_228:\n        /* \"contracts/SQFITEM/SQFI_Factory.sol\":5058:5063  token */\n      dup3\n        /* \"contracts/SQFITEM/SQFI_Factory.sol\":5051:5073  IERC20(token).transfer */\n      0xffffffffffffffffffffffffffffffffffffffff\n      and\n      0xa9059cbb\n        /* \"contracts/SQFITEM/SQFI_Factory.sol\":5074:5084  msg.sender */\n      caller\n        /* \"contracts/SQFITEM/SQFI_Factory.sol\":5086:5092  amount */\n      dup5\n        /* \"contracts/SQFITEM/SQFI_Factory.sol\":5051:5093  IERC20(token).transfer(msg.sender, amount) */\n      mload(0x40)\n      dup4\n      0xffffffff\n      and\n      0xe0\n      shl\n      dup2\n      mstore\n      0x04\n      add\n      tag_232\n      swap3\n      swap2\n      swap1\n      tag_233\n      jump\t// in\n    tag_232:\n      0x20\n      mload(0x40)\n      dup1\n      dup4\n      sub\n      dup2\n      0x00\n      dup8\n      gas\n      call\n      iszero\n      dup1\n      iszero\n      tag_235\n      jumpi\n      returndatasize\n      0x00\n      dup1\n      returndatacopy\n      revert(0x00, returndatasize)\n    tag_235:\n      pop\n      pop\n      pop\n      pop\n      mload(0x40)\n      returndatasize\n      not(0x1f)\n      0x1f\n      dup3\n      add\n      and\n      dup3\n      add\n      dup1\n      0x40\n      mstore\n      pop\n      dup2\n      add\n      swap1\n      tag_236\n      swap2\n      swap1\n      tag_167\n      jump\t// in\n    tag_236:\n      pop\n        /* \"contracts/SQFITEM/SQFI_Factory.sol\":4943:5104  if (token == address(0x0)) {... */\n    tag_231:\n        /* \"contracts/SQFITEM/SQFI_Factory.sol\":4828:5110  function withdraw(address token, uint256 amount)... */\n      pop\n      pop\n      pop\n      jump\t// out\n        /* \"contracts/SQFITEM/SQFI_Factory.sol\":942:973  uint256 public amount1 = 100e18 */\n    tag_115:\n      sload(0x17)\n      dup2\n      jump\t// out\n        /* \"contracts/SQFITEM/ERC165.sol\":763:918  function supportsInterface(bytes4 interfaceId) public view virtual override returns (bool) {... */\n    tag_120:\n        /* \"contracts/SQFITEM/ERC165.sol\":848:852  bool */\n      0x00\n        /* \"contracts/SQFITEM/ERC165.sol\":886:911  type(IERC165).interfaceId */\n      0x01ffc9a700000000000000000000000000000000000000000000000000000000\n        /* \"contracts/SQFITEM/ERC165.sol\":871:911  interfaceId == type(IERC165).interfaceId */\n      not(0xffffffffffffffffffffffffffffffffffffffffffffffffffffffff)\n      and\n        /* \"contracts/SQFITEM/ERC165.sol\":871:882  interfaceId */\n      dup3\n        /* \"contracts/SQFITEM/ERC165.sol\":871:911  interfaceId == type(IERC165).interfaceId */\n      not(0xffffffffffffffffffffffffffffffffffffffffffffffffffffffff)\n      and\n      eq\n        /* \"contracts/SQFITEM/ERC165.sol\":864:911  return interfaceId == type(IERC165).interfaceId */\n      swap1\n      pop\n        /* \"contracts/SQFITEM/ERC165.sol\":763:918  function supportsInterface(bytes4 interfaceId) public view virtual override returns (bool) {... */\n      swap2\n      swap1\n      pop\n      jump\t// out\n        /* \"contracts/SQFITEM/Context.sol\":587:683  function _msgSender() internal view virtual returns (address) {... */\n    tag_137:\n        /* \"contracts/SQFITEM/Context.sol\":640:647  address */\n      0x00\n        /* \"contracts/SQFITEM/Context.sol\":666:676  msg.sender */\n      caller\n        /* \"contracts/SQFITEM/Context.sol\":659:676  return msg.sender */\n      swap1\n      pop\n        /* \"contracts/SQFITEM/Context.sol\":587:683  function _msgSender() internal view virtual returns (address) {... */\n      swap1\n      jump\t// out\n        /* \"contracts/SQFITEM/AccessControl.sol\":3217:3701  function _checkRole(bytes32 role, address account) internal view {... */\n    tag_138:\n        /* \"contracts/SQFITEM/AccessControl.sol\":3297:3319  hasRole(role, account) */\n      tag_240\n        /* \"contracts/SQFITEM/AccessControl.sol\":3305:3309  role */\n      dup3\n        /* \"contracts/SQFITEM/AccessControl.sol\":3311:3318  account */\n      dup3\n        /* \"contracts/SQFITEM/AccessControl.sol\":3297:3304  hasRole */\n      tag_80\n        /* \"contracts/SQFITEM/AccessControl.sol\":3297:3319  hasRole(role, account) */\n      jump\t// in\n    tag_240:\n        /* \"contracts/SQFITEM/AccessControl.sol\":3292:3695  if (!hasRole(role, account)) {... */\n      tag_241\n      jumpi\n        /* \"contracts/SQFITEM/AccessControl.sol\":3480:3521  Strings.toHexString(uint160(account), 20) */\n      tag_242\n        /* \"contracts/SQFITEM/AccessControl.sol\":3508:3515  account */\n      dup2\n        /* \"contracts/SQFITEM/AccessControl.sol\":3480:3521  Strings.toHexString(uint160(account), 20) */\n      0xffffffffffffffffffffffffffffffffffffffff\n      and\n        /* \"contracts/SQFITEM/AccessControl.sol\":3518:3520  20 */\n      0x14\n        /* \"contracts/SQFITEM/AccessControl.sol\":3480:3499  Strings.toHexString */\n      tag_243\n        /* \"contracts/SQFITEM/AccessControl.sol\":3480:3521  Strings.toHexString(uint160(account), 20) */\n      jump\t// in\n    tag_242:\n        /* \"contracts/SQFITEM/AccessControl.sol\":3592:3630  Strings.toHexString(uint256(role), 32) */\n      tag_244\n        /* \"contracts/SQFITEM/AccessControl.sol\":3620:3624  role */\n      dup4\n        /* \"contracts/SQFITEM/AccessControl.sol\":3612:3625  uint256(role) */\n      0x00\n      shr\n        /* \"contracts/SQFITEM/AccessControl.sol\":3627:3629  32 */\n      0x20\n        /* \"contracts/SQFITEM/AccessControl.sol\":3592:3611  Strings.toHexString */\n      tag_243\n        /* \"contracts/SQFITEM/AccessControl.sol\":3592:3630  Strings.toHexString(uint256(role), 32) */\n      jump\t// in\n    tag_244:\n        /* \"contracts/SQFITEM/AccessControl.sol\":3387:3652  abi.encodePacked(... */\n      add(0x20, mload(0x40))\n      tag_245\n      swap3\n      swap2\n      swap1\n      tag_246\n      jump\t// in\n    tag_245:\n      mload(0x40)\n      0x20\n      dup2\n      dup4\n      sub\n      sub\n      dup2\n      mstore\n      swap1\n      0x40\n      mstore\n        /* \"contracts/SQFITEM/AccessControl.sol\":3335:3684  revert(... */\n      mload(0x40)\n      0x08c379a000000000000000000000000000000000000000000000000000000000\n      dup2\n      mstore\n      0x04\n      add\n      tag_247\n      swap2\n      swap1\n      tag_248\n      jump\t// in\n    tag_247:\n      mload(0x40)\n      dup1\n      swap2\n      sub\n      swap1\n      revert\n        /* \"contracts/SQFITEM/AccessControl.sol\":3292:3695  if (!hasRole(role, account)) {... */\n    tag_241:\n        /* \"contracts/SQFITEM/AccessControl.sol\":3217:3701  function _checkRole(bytes32 role, address account) internal view {... */\n      pop\n      pop\n      jump\t// out\n        /* \"contracts/SQFITEM/AccessControl.sol\":6537:6761  function _grantRole(bytes32 role, address account) private {... */\n    tag_141:\n        /* \"contracts/SQFITEM/AccessControl.sol\":6611:6633  hasRole(role, account) */\n      tag_250\n        /* \"contracts/SQFITEM/AccessControl.sol\":6619:6623  role */\n      dup3\n        /* \"contracts/SQFITEM/AccessControl.sol\":6625:6632  account */\n      dup3\n        /* \"contracts/SQFITEM/AccessControl.sol\":6611:6618  hasRole */\n      tag_80\n        /* \"contracts/SQFITEM/AccessControl.sol\":6611:6633  hasRole(role, account) */\n      jump\t// in\n    tag_250:\n        /* \"contracts/SQFITEM/AccessControl.sol\":6606:6755  if (!hasRole(role, account)) {... */\n      tag_251\n      jumpi\n        /* \"contracts/SQFITEM/AccessControl.sol\":6681:6685  true */\n      0x01\n        /* \"contracts/SQFITEM/AccessControl.sol\":6649:6655  _roles */\n      dup1\n        /* \"contracts/SQFITEM/AccessControl.sol\":6649:6661  _roles[role] */\n      0x00\n        /* \"contracts/SQFITEM/AccessControl.sol\":6656:6660  role */\n      dup5\n        /* \"contracts/SQFITEM/AccessControl.sol\":6649:6661  _roles[role] */\n      dup2\n      mstore\n      0x20\n      add\n      swap1\n      dup2\n      mstore\n      0x20\n      add\n      0x00\n      keccak256\n        /* \"contracts/SQFITEM/AccessControl.sol\":6649:6669  _roles[role].members */\n      0x00\n      add\n        /* \"contracts/SQFITEM/AccessControl.sol\":6649:6678  _roles[role].members[account] */\n      0x00\n        /* \"contracts/SQFITEM/AccessControl.sol\":6670:6677  account */\n      dup4\n        /* \"contracts/SQFITEM/AccessControl.sol\":6649:6678  _roles[role].members[account] */\n      0xffffffffffffffffffffffffffffffffffffffff\n      and\n      0xffffffffffffffffffffffffffffffffffffffff\n      and\n      dup2\n      mstore\n      0x20\n      add\n      swap1\n      dup2\n      mstore\n      0x20\n      add\n      0x00\n      keccak256\n      0x00\n        /* \"contracts/SQFITEM/AccessControl.sol\":6649:6685  _roles[role].members[account] = true */\n      0x0100\n      exp\n      dup2\n      sload\n      dup2\n      0xff\n      mul\n      not\n      and\n      swap1\n      dup4\n      iszero\n      iszero\n      mul\n      or\n      swap1\n      sstore\n      pop\n        /* \"contracts/SQFITEM/AccessControl.sol\":6731:6743  _msgSender() */\n      tag_252\n        /* \"contracts/SQFITEM/AccessControl.sol\":6731:6741  _msgSender */\n      tag_137\n        /* \"contracts/SQFITEM/AccessControl.sol\":6731:6743  _msgSender() */\n      jump\t// in\n    tag_252:\n        /* \"contracts/SQFITEM/AccessControl.sol\":6704:6744  RoleGranted(role, account, _msgSender()) */\n      0xffffffffffffffffffffffffffffffffffffffff\n      and\n        /* \"contracts/SQFITEM/AccessControl.sol\":6722:6729  account */\n      dup2\n        /* \"contracts/SQFITEM/AccessControl.sol\":6704:6744  RoleGranted(role, account, _msgSender()) */\n      0xffffffffffffffffffffffffffffffffffffffff\n      and\n        /* \"contracts/SQFITEM/AccessControl.sol\":6716:6720  role */\n      dup4\n        /* \"contracts/SQFITEM/AccessControl.sol\":6704:6744  RoleGranted(role, account, _msgSender()) */\n      0x2f8788117e7eff1d82e926ec794901d17c78024a50270940304540a733656f0d\n      mload(0x40)\n      mload(0x40)\n      dup1\n      swap2\n      sub\n      swap1\n      log4\n        /* \"contracts/SQFITEM/AccessControl.sol\":6606:6755  if (!hasRole(role, account)) {... */\n    tag_251:\n        /* \"contracts/SQFITEM/AccessControl.sol\":6537:6761  function _grantRole(bytes32 role, address account) private {... */\n      pop\n      pop\n      jump\t// out\n        /* \"contracts/SQFITEM/AccessControl.sol\":6767:6992  function _revokeRole(bytes32 role, address account) private {... */\n    tag_148:\n        /* \"contracts/SQFITEM/AccessControl.sol\":6841:6863  hasRole(role, account) */\n      tag_254\n        /* \"contracts/SQFITEM/AccessControl.sol\":6849:6853  role */\n      dup3\n        /* \"contracts/SQFITEM/AccessControl.sol\":6855:6862  account */\n      dup3\n        /* \"contracts/SQFITEM/AccessControl.sol\":6841:6848  hasRole */\n      tag_80\n        /* \"contracts/SQFITEM/AccessControl.sol\":6841:6863  hasRole(role, account) */\n      jump\t// in\n    tag_254:\n        /* \"contracts/SQFITEM/AccessControl.sol\":6837:6986  if (hasRole(role, account)) {... */\n      iszero\n      tag_255\n      jumpi\n        /* \"contracts/SQFITEM/AccessControl.sol\":6911:6916  false */\n      0x00\n        /* \"contracts/SQFITEM/AccessControl.sol\":6879:6885  _roles */\n      0x01\n        /* \"contracts/SQFITEM/AccessControl.sol\":6879:6891  _roles[role] */\n      0x00\n        /* \"contracts/SQFITEM/AccessControl.sol\":6886:6890  role */\n      dup5\n        /* \"contracts/SQFITEM/AccessControl.sol\":6879:6891  _roles[role] */\n      dup2\n      mstore\n      0x20\n      add\n      swap1\n      dup2\n      mstore\n      0x20\n      add\n      0x00\n      keccak256\n        /* \"contracts/SQFITEM/AccessControl.sol\":6879:6899  _roles[role].members */\n      0x00\n      add\n        /* \"contracts/SQFITEM/AccessControl.sol\":6879:6908  _roles[role].members[account] */\n      0x00\n        /* \"contracts/SQFITEM/AccessControl.sol\":6900:6907  account */\n      dup4\n        /* \"contracts/SQFITEM/AccessControl.sol\":6879:6908  _roles[role].members[account] */\n      0xffffffffffffffffffffffffffffffffffffffff\n      and\n      0xffffffffffffffffffffffffffffffffffffffff\n      and\n      dup2\n      mstore\n      0x20\n      add\n      swap1\n      dup2\n      mstore\n      0x20\n      add\n      0x00\n      keccak256\n      0x00\n        /* \"contracts/SQFITEM/AccessControl.sol\":6879:6916  _roles[role].members[account] = false */\n      0x0100\n      exp\n      dup2\n      sload\n      dup2\n      0xff\n      mul\n      not\n      and\n      swap1\n      dup4\n      iszero\n      iszero\n      mul\n      or\n      swap1\n      sstore\n      pop\n        /* \"contracts/SQFITEM/AccessControl.sol\":6962:6974  _msgSender() */\n      tag_256\n        /* \"contracts/SQFITEM/AccessControl.sol\":6962:6972  _msgSender */\n      tag_137\n        /* \"contracts/SQFITEM/AccessControl.sol\":6962:6974  _msgSender() */\n      jump\t// in\n    tag_256:\n        /* \"contracts/SQFITEM/AccessControl.sol\":6935:6975  RoleRevoked(role, account, _msgSender()) */\n      0xffffffffffffffffffffffffffffffffffffffff\n      and\n        /* \"contracts/SQFITEM/AccessControl.sol\":6953:6960  account */\n      dup2\n        /* \"contracts/SQFITEM/AccessControl.sol\":6935:6975  RoleRevoked(role, account, _msgSender()) */\n      0xffffffffffffffffffffffffffffffffffffffff\n      and\n        /* \"contracts/SQFITEM/AccessControl.sol\":6947:6951  role */\n      dup4\n        /* \"contracts/SQFITEM/AccessControl.sol\":6935:6975  RoleRevoked(role, account, _msgSender()) */\n      0xf6391f5c32d9c69d2a47ea670b442974b53935d1edc7fd64eb21e047a839171b\n      mload(0x40)\n      mload(0x40)\n      dup1\n      swap2\n      sub\n      swap1\n      log4\n        /* \"contracts/SQFITEM/AccessControl.sol\":6837:6986  if (hasRole(role, account)) {... */\n    tag_255:\n        /* \"contracts/SQFITEM/AccessControl.sol\":6767:6992  function _revokeRole(bytes32 role, address account) private {... */\n      pop\n      pop\n      jump\t// out\n        /* \"contracts/SQFITEM/Strings.sol\":1535:1976  function toHexString(uint256 value, uint256 length) internal pure returns (string memory) {... */\n    tag_243:\n        /* \"contracts/SQFITEM/Strings.sol\":1610:1623  string memory */\n      0x60\n        /* \"contracts/SQFITEM/Strings.sol\":1635:1654  bytes memory buffer */\n      0x00\n        /* \"contracts/SQFITEM/Strings.sol\":1680:1681  2 */\n      0x02\n        /* \"contracts/SQFITEM/Strings.sol\":1671:1677  length */\n      dup4\n        /* \"contracts/SQFITEM/Strings.sol\":1667:1668  2 */\n      0x02\n        /* \"contracts/SQFITEM/Strings.sol\":1667:1677  2 * length */\n      tag_258\n      swap2\n      swap1\n      tag_205\n      jump\t// in\n    tag_258:\n        /* \"contracts/SQFITEM/Strings.sol\":1667:1681  2 * length + 2 */\n      tag_259\n      swap2\n      swap1\n      tag_211\n      jump\t// in\n    tag_259:\n        /* \"contracts/SQFITEM/Strings.sol\":1657:1682  new bytes(2 * length + 2) */\n      0xffffffffffffffff\n      dup2\n      gt\n      iszero\n      tag_260\n      jumpi\n      tag_261\n      tag_262\n      jump\t// in\n    tag_261:\n    tag_260:\n      mload(0x40)\n      swap1\n      dup1\n      dup3\n      mstore\n      dup1\n      0x1f\n      add\n      not(0x1f)\n      and\n      0x20\n      add\n      dup3\n      add\n      0x40\n      mstore\n      dup1\n      iszero\n      tag_263\n      jumpi\n      dup2\n      0x20\n      add\n      0x01\n      dup3\n      mul\n      dup1\n      calldatasize\n      dup4\n      calldatacopy\n      dup1\n      dup3\n      add\n      swap2\n      pop\n      pop\n      swap1\n      pop\n    tag_263:\n      pop\n        /* \"contracts/SQFITEM/Strings.sol\":1635:1682  bytes memory buffer = new bytes(2 * length + 2) */\n      swap1\n      pop\n        /* \"contracts/SQFITEM/Strings.sol\":1692:1707  buffer[0] = \"0\" */\n      0x3000000000000000000000000000000000000000000000000000000000000000\n        /* \"contracts/SQFITEM/Strings.sol\":1692:1698  buffer */\n      dup2\n        /* \"contracts/SQFITEM/Strings.sol\":1699:1700  0 */\n      0x00\n        /* \"contracts/SQFITEM/Strings.sol\":1692:1701  buffer[0] */\n      dup2\n      mload\n      dup2\n      lt\n      tag_264\n      jumpi\n      tag_265\n      tag_203\n      jump\t// in\n    tag_265:\n    tag_264:\n      0x20\n      add\n      add\n        /* \"contracts/SQFITEM/Strings.sol\":1692:1707  buffer[0] = \"0\" */\n      swap1\n      not(0xffffffffffffffffffffffffffffffffffffffffffffffffffffffffffffff)\n      and\n      swap1\n      dup2\n      0x00\n      byte\n      swap1\n      mstore8\n      pop\n        /* \"contracts/SQFITEM/Strings.sol\":1717:1732  buffer[1] = \"x\" */\n      0x7800000000000000000000000000000000000000000000000000000000000000\n        /* \"contracts/SQFITEM/Strings.sol\":1717:1723  buffer */\n      dup2\n        /* \"contracts/SQFITEM/Strings.sol\":1724:1725  1 */\n      0x01\n        /* \"contracts/SQFITEM/Strings.sol\":1717:1726  buffer[1] */\n      dup2\n      mload\n      dup2\n      lt\n      tag_266\n      jumpi\n      tag_267\n      tag_203\n      jump\t// in\n    tag_267:\n    tag_266:\n      0x20\n      add\n      add\n        /* \"contracts/SQFITEM/Strings.sol\":1717:1732  buffer[1] = \"x\" */\n      swap1\n      not(0xffffffffffffffffffffffffffffffffffffffffffffffffffffffffffffff)\n      and\n      swap1\n      dup2\n      0x00\n      byte\n      swap1\n      mstore8\n      pop\n        /* \"contracts/SQFITEM/Strings.sol\":1747:1756  uint256 i */\n      0x00\n        /* \"contracts/SQFITEM/Strings.sol\":1772:1773  1 */\n      0x01\n        /* \"contracts/SQFITEM/Strings.sol\":1763:1769  length */\n      dup5\n        /* \"contracts/SQFITEM/Strings.sol\":1759:1760  2 */\n      0x02\n        /* \"contracts/SQFITEM/Strings.sol\":1759:1769  2 * length */\n      tag_271\n      swap2\n      swap1\n      tag_205\n      jump\t// in\n    tag_271:\n        /* \"contracts/SQFITEM/Strings.sol\":1759:1773  2 * length + 1 */\n      tag_272\n      swap2\n      swap1\n      tag_211\n      jump\t// in\n    tag_272:\n        /* \"contracts/SQFITEM/Strings.sol\":1747:1773  uint256 i = 2 * length + 1 */\n      swap1\n      pop\n        /* \"contracts/SQFITEM/Strings.sol\":1742:1874  for (uint256 i = 2 * length + 1; i > 1; --i) {... */\n    tag_268:\n        /* \"contracts/SQFITEM/Strings.sol\":1779:1780  1 */\n      0x01\n        /* \"contracts/SQFITEM/Strings.sol\":1775:1776  i */\n      dup2\n        /* \"contracts/SQFITEM/Strings.sol\":1775:1780  i > 1 */\n      gt\n        /* \"contracts/SQFITEM/Strings.sol\":1742:1874  for (uint256 i = 2 * length + 1; i > 1; --i) {... */\n      iszero\n      tag_269\n      jumpi\n        /* \"contracts/SQFITEM/Strings.sol\":1813:1825  _HEX_SYMBOLS */\n      0x3031323334353637383961626364656600000000000000000000000000000000\n        /* \"contracts/SQFITEM/Strings.sol\":1834:1837  0xf */\n      0x0f\n        /* \"contracts/SQFITEM/Strings.sol\":1826:1831  value */\n      dup7\n        /* \"contracts/SQFITEM/Strings.sol\":1826:1837  value & 0xf */\n      and\n        /* \"contracts/SQFITEM/Strings.sol\":1813:1838  _HEX_SYMBOLS[value & 0xf] */\n      0x10\n      dup2\n      lt\n      tag_273\n      jumpi\n      tag_274\n      tag_203\n      jump\t// in\n    tag_274:\n    tag_273:\n      byte\n      0xf8\n      shl\n        /* \"contracts/SQFITEM/Strings.sol\":1801:1807  buffer */\n      dup3\n        /* \"contracts/SQFITEM/Strings.sol\":1808:1809  i */\n      dup3\n        /* \"contracts/SQFITEM/Strings.sol\":1801:1810  buffer[i] */\n      dup2\n      mload\n      dup2\n      lt\n      tag_275\n      jumpi\n      tag_276\n      tag_203\n      jump\t// in\n    tag_276:\n    tag_275:\n      0x20\n      add\n      add\n        /* \"contracts/SQFITEM/Strings.sol\":1801:1838  buffer[i] = _HEX_SYMBOLS[value & 0xf] */\n      swap1\n      not(0xffffffffffffffffffffffffffffffffffffffffffffffffffffffffffffff)\n      and\n      swap1\n      dup2\n      0x00\n      byte\n      swap1\n      mstore8\n      pop\n        /* \"contracts/SQFITEM/Strings.sol\":1862:1863  4 */\n      0x04\n        /* \"contracts/SQFITEM/Strings.sol\":1852:1863  value >>= 4 */\n      dup6\n      swap1\n      shr\n      swap5\n      pop\n        /* \"contracts/SQFITEM/Strings.sol\":1782:1785  --i */\n      dup1\n      tag_277\n      swap1\n      tag_278\n      jump\t// in\n    tag_277:\n      swap1\n      pop\n        /* \"contracts/SQFITEM/Strings.sol\":1742:1874  for (uint256 i = 2 * length + 1; i > 1; --i) {... */\n      jump(tag_268)\n    tag_269:\n      pop\n        /* \"contracts/SQFITEM/Strings.sol\":1900:1901  0 */\n      0x00\n        /* \"contracts/SQFITEM/Strings.sol\":1891:1896  value */\n      dup5\n        /* \"contracts/SQFITEM/Strings.sol\":1891:1901  value == 0 */\n      eq\n        /* \"contracts/SQFITEM/Strings.sol\":1883:1938  require(value == 0, \"Strings: hex length insufficient\") */\n      tag_279\n      jumpi\n      mload(0x40)\n      0x08c379a000000000000000000000000000000000000000000000000000000000\n      dup2\n      mstore\n      0x04\n      add\n      tag_280\n      swap1\n      tag_281\n      jump\t// in\n    tag_280:\n      mload(0x40)\n      dup1\n      swap2\n      sub\n      swap1\n      revert\n    tag_279:\n        /* \"contracts/SQFITEM/Strings.sol\":1962:1968  buffer */\n      dup1\n        /* \"contracts/SQFITEM/Strings.sol\":1948:1969  return string(buffer) */\n      swap2\n      pop\n      pop\n        /* \"contracts/SQFITEM/Strings.sol\":1535:1976  function toHexString(uint256 value, uint256 length) internal pure returns (string memory) {... */\n      swap3\n      swap2\n      pop\n      pop\n      jump\t// out\n    tag_190:\n      mload(0x40)\n      dup1\n      0x0200\n      add\n      0x40\n      mstore\n      dup1\n      0x10\n      swap1\n      0x20\n      dup3\n      mul\n      dup1\n      calldatasize\n      dup4\n      calldatacopy\n      dup1\n      dup3\n      add\n      swap2\n      pop\n      pop\n      swap1\n      pop\n      pop\n      swap1\n      jump\t// out\n        /* \"#utility.yul\":7:82   */\n    tag_282:\n        /* \"#utility.yul\":40:46   */\n      0x00\n        /* \"#utility.yul\":73:75   */\n      0x40\n        /* \"#utility.yul\":67:76   */\n      mload\n        /* \"#utility.yul\":57:76   */\n      swap1\n      pop\n        /* \"#utility.yul\":7:82   */\n      swap1\n      jump\t// out\n        /* \"#utility.yul\":88:205   */\n    tag_283:\n        /* \"#utility.yul\":197:198   */\n      0x00\n        /* \"#utility.yul\":194:195   */\n      dup1\n        /* \"#utility.yul\":187:199   */\n      revert\n        /* \"#utility.yul\":211:328   */\n    tag_284:\n        /* \"#utility.yul\":320:321   */\n      0x00\n        /* \"#utility.yul\":317:318   */\n      dup1\n        /* \"#utility.yul\":310:322   */\n      revert\n        /* \"#utility.yul\":334:483   */\n    tag_285:\n        /* \"#utility.yul\":370:377   */\n      0x00\n        /* \"#utility.yul\":410:476   */\n      0xffffffff00000000000000000000000000000000000000000000000000000000\n        /* \"#utility.yul\":403:408   */\n      dup3\n        /* \"#utility.yul\":399:477   */\n      and\n        /* \"#utility.yul\":388:477   */\n      swap1\n      pop\n        /* \"#utility.yul\":334:483   */\n      swap2\n      swap1\n      pop\n      jump\t// out\n        /* \"#utility.yul\":489:609   */\n    tag_286:\n        /* \"#utility.yul\":561:584   */\n      tag_362\n        /* \"#utility.yul\":578:583   */\n      dup2\n        /* \"#utility.yul\":561:584   */\n      tag_285\n      jump\t// in\n    tag_362:\n        /* \"#utility.yul\":554:559   */\n      dup2\n        /* \"#utility.yul\":551:585   */\n      eq\n        /* \"#utility.yul\":541:603   */\n      tag_363\n      jumpi\n        /* \"#utility.yul\":599:600   */\n      0x00\n        /* \"#utility.yul\":596:597   */\n      dup1\n        /* \"#utility.yul\":589:601   */\n      revert\n        /* \"#utility.yul\":541:603   */\n    tag_363:\n        /* \"#utility.yul\":489:609   */\n      pop\n      jump\t// out\n        /* \"#utility.yul\":615:752   */\n    tag_287:\n        /* \"#utility.yul\":660:665   */\n      0x00\n        /* \"#utility.yul\":698:704   */\n      dup2\n        /* \"#utility.yul\":685:705   */\n      calldataload\n        /* \"#utility.yul\":676:705   */\n      swap1\n      pop\n        /* \"#utility.yul\":714:746   */\n      tag_365\n        /* \"#utility.yul\":740:745   */\n      dup2\n        /* \"#utility.yul\":714:746   */\n      tag_286\n      jump\t// in\n    tag_365:\n        /* \"#utility.yul\":615:752   */\n      swap3\n      swap2\n      pop\n      pop\n      jump\t// out\n        /* \"#utility.yul\":758:1085   */\n    tag_31:\n        /* \"#utility.yul\":816:822   */\n      0x00\n        /* \"#utility.yul\":865:867   */\n      0x20\n        /* \"#utility.yul\":853:862   */\n      dup3\n        /* \"#utility.yul\":844:851   */\n      dup5\n        /* \"#utility.yul\":840:863   */\n      sub\n        /* \"#utility.yul\":836:868   */\n      slt\n        /* \"#utility.yul\":833:952   */\n      iszero\n      tag_367\n      jumpi\n        /* \"#utility.yul\":871:950   */\n      tag_368\n      tag_283\n      jump\t// in\n    tag_368:\n        /* \"#utility.yul\":833:952   */\n    tag_367:\n        /* \"#utility.yul\":991:992   */\n      0x00\n        /* \"#utility.yul\":1016:1068   */\n      tag_369\n        /* \"#utility.yul\":1060:1067   */\n      dup5\n        /* \"#utility.yul\":1051:1057   */\n      dup3\n        /* \"#utility.yul\":1040:1049   */\n      dup6\n        /* \"#utility.yul\":1036:1058   */\n      add\n        /* \"#utility.yul\":1016:1068   */\n      tag_287\n      jump\t// in\n    tag_369:\n        /* \"#utility.yul\":1006:1068   */\n      swap2\n      pop\n        /* \"#utility.yul\":962:1078   */\n      pop\n        /* \"#utility.yul\":758:1085   */\n      swap3\n      swap2\n      pop\n      pop\n      jump\t// out\n        /* \"#utility.yul\":1091:1181   */\n    tag_288:\n        /* \"#utility.yul\":1125:1132   */\n      0x00\n        /* \"#utility.yul\":1168:1173   */\n      dup2\n        /* \"#utility.yul\":1161:1174   */\n      iszero\n        /* \"#utility.yul\":1154:1175   */\n      iszero\n        /* \"#utility.yul\":1143:1175   */\n      swap1\n      pop\n        /* \"#utility.yul\":1091:1181   */\n      swap2\n      swap1\n      pop\n      jump\t// out\n        /* \"#utility.yul\":1187:1296   */\n    tag_289:\n        /* \"#utility.yul\":1268:1289   */\n      tag_372\n        /* \"#utility.yul\":1283:1288   */\n      dup2\n        /* \"#utility.yul\":1268:1289   */\n      tag_288\n      jump\t// in\n    tag_372:\n        /* \"#utility.yul\":1263:1266   */\n      dup3\n        /* \"#utility.yul\":1256:1290   */\n      mstore\n        /* \"#utility.yul\":1187:1296   */\n      pop\n      pop\n      jump\t// out\n        /* \"#utility.yul\":1302:1512   */\n    tag_34:\n        /* \"#utility.yul\":1389:1393   */\n      0x00\n        /* \"#utility.yul\":1427:1429   */\n      0x20\n        /* \"#utility.yul\":1416:1425   */\n      dup3\n        /* \"#utility.yul\":1412:1430   */\n      add\n        /* \"#utility.yul\":1404:1430   */\n      swap1\n      pop\n        /* \"#utility.yul\":1440:1505   */\n      tag_374\n        /* \"#utility.yul\":1502:1503   */\n      0x00\n        /* \"#utility.yul\":1491:1500   */\n      dup4\n        /* \"#utility.yul\":1487:1504   */\n      add\n        /* \"#utility.yul\":1478:1484   */\n      dup5\n        /* \"#utility.yul\":1440:1505   */\n      tag_289\n      jump\t// in\n    tag_374:\n        /* \"#utility.yul\":1302:1512   */\n      swap3\n      swap2\n      pop\n      pop\n      jump\t// out\n        /* \"#utility.yul\":1518:1595   */\n    tag_290:\n        /* \"#utility.yul\":1555:1562   */\n      0x00\n        /* \"#utility.yul\":1584:1589   */\n      dup2\n        /* \"#utility.yul\":1573:1589   */\n      swap1\n      pop\n        /* \"#utility.yul\":1518:1595   */\n      swap2\n      swap1\n      pop\n      jump\t// out\n        /* \"#utility.yul\":1601:1719   */\n    tag_291:\n        /* \"#utility.yul\":1688:1712   */\n      tag_377\n        /* \"#utility.yul\":1706:1711   */\n      dup2\n        /* \"#utility.yul\":1688:1712   */\n      tag_290\n      jump\t// in\n    tag_377:\n        /* \"#utility.yul\":1683:1686   */\n      dup3\n        /* \"#utility.yul\":1676:1713   */\n      mstore\n        /* \"#utility.yul\":1601:1719   */\n      pop\n      pop\n      jump\t// out\n        /* \"#utility.yul\":1725:1947   */\n    tag_38:\n        /* \"#utility.yul\":1818:1822   */\n      0x00\n        /* \"#utility.yul\":1856:1858   */\n      0x20\n        /* \"#utility.yul\":1845:1854   */\n      dup3\n        /* \"#utility.yul\":1841:1859   */\n      add\n        /* \"#utility.yul\":1833:1859   */\n      swap1\n      pop\n        /* \"#utility.yul\":1869:1940   */\n      tag_379\n        /* \"#utility.yul\":1937:1938   */\n      0x00\n        /* \"#utility.yul\":1926:1935   */\n      dup4\n        /* \"#utility.yul\":1922:1939   */\n      add\n        /* \"#utility.yul\":1913:1919   */\n      dup5\n        /* \"#utility.yul\":1869:1940   */\n      tag_291\n      jump\t// in\n    tag_379:\n        /* \"#utility.yul\":1725:1947   */\n      swap3\n      swap2\n      pop\n      pop\n      jump\t// out\n        /* \"#utility.yul\":1953:2075   */\n    tag_292:\n        /* \"#utility.yul\":2026:2050   */\n      tag_381\n        /* \"#utility.yul\":2044:2049   */\n      dup2\n        /* \"#utility.yul\":2026:2050   */\n      tag_290\n      jump\t// in\n    tag_381:\n        /* \"#utility.yul\":2019:2024   */\n      dup2\n        /* \"#utility.yul\":2016:2051   */\n      eq\n        /* \"#utility.yul\":2006:2069   */\n      tag_382\n      jumpi\n        /* \"#utility.yul\":2065:2066   */\n      0x00\n        /* \"#utility.yul\":2062:2063   */\n      dup1\n        /* \"#utility.yul\":2055:2067   */\n      revert\n        /* \"#utility.yul\":2006:2069   */\n    tag_382:\n        /* \"#utility.yul\":1953:2075   */\n      pop\n      jump\t// out\n        /* \"#utility.yul\":2081:2220   */\n    tag_293:\n        /* \"#utility.yul\":2127:2132   */\n      0x00\n        /* \"#utility.yul\":2165:2171   */\n      dup2\n        /* \"#utility.yul\":2152:2172   */\n      calldataload\n        /* \"#utility.yul\":2143:2172   */\n      swap1\n      pop\n        /* \"#utility.yul\":2181:2214   */\n      tag_384\n        /* \"#utility.yul\":2208:2213   */\n      dup2\n        /* \"#utility.yul\":2181:2214   */\n      tag_292\n      jump\t// in\n    tag_384:\n        /* \"#utility.yul\":2081:2220   */\n      swap3\n      swap2\n      pop\n      pop\n      jump\t// out\n        /* \"#utility.yul\":2226:2555   */\n    tag_41:\n        /* \"#utility.yul\":2285:2291   */\n      0x00\n        /* \"#utility.yul\":2334:2336   */\n      0x20\n        /* \"#utility.yul\":2322:2331   */\n      dup3\n        /* \"#utility.yul\":2313:2320   */\n      dup5\n        /* \"#utility.yul\":2309:2332   */\n      sub\n        /* \"#utility.yul\":2305:2337   */\n      slt\n        /* \"#utility.yul\":2302:2421   */\n      iszero\n      tag_386\n      jumpi\n        /* \"#utility.yul\":2340:2419   */\n      tag_387\n      tag_283\n      jump\t// in\n    tag_387:\n        /* \"#utility.yul\":2302:2421   */\n    tag_386:\n        /* \"#utility.yul\":2460:2461   */\n      0x00\n        /* \"#utility.yul\":2485:2538   */\n      tag_388\n        /* \"#utility.yul\":2530:2537   */\n      dup5\n        /* \"#utility.yul\":2521:2527   */\n      dup3\n        /* \"#utility.yul\":2510:2519   */\n      dup6\n        /* \"#utility.yul\":2506:2528   */\n      add\n        /* \"#utility.yul\":2485:2538   */\n      tag_293\n      jump\t// in\n    tag_388:\n        /* \"#utility.yul\":2475:2538   */\n      swap2\n      pop\n        /* \"#utility.yul\":2431:2548   */\n      pop\n        /* \"#utility.yul\":2226:2555   */\n      swap3\n      swap2\n      pop\n      pop\n      jump\t// out\n        /* \"#utility.yul\":2561:2638   */\n    tag_294:\n        /* \"#utility.yul\":2598:2605   */\n      0x00\n        /* \"#utility.yul\":2627:2632   */\n      dup2\n        /* \"#utility.yul\":2616:2632   */\n      swap1\n      pop\n        /* \"#utility.yul\":2561:2638   */\n      swap2\n      swap1\n      pop\n      jump\t// out\n        /* \"#utility.yul\":2644:2766   */\n    tag_295:\n        /* \"#utility.yul\":2717:2741   */\n      tag_391\n        /* \"#utility.yul\":2735:2740   */\n      dup2\n        /* \"#utility.yul\":2717:2741   */\n      tag_294\n      jump\t// in\n    tag_391:\n        /* \"#utility.yul\":2710:2715   */\n      dup2\n        /* \"#utility.yul\":2707:2742   */\n      eq\n        /* \"#utility.yul\":2697:2760   */\n      tag_392\n      jumpi\n        /* \"#utility.yul\":2756:2757   */\n      0x00\n        /* \"#utility.yul\":2753:2754   */\n      dup1\n        /* \"#utility.yul\":2746:2758   */\n      revert\n        /* \"#utility.yul\":2697:2760   */\n    tag_392:\n        /* \"#utility.yul\":2644:2766   */\n      pop\n      jump\t// out\n        /* \"#utility.yul\":2772:2911   */\n    tag_296:\n        /* \"#utility.yul\":2818:2823   */\n      0x00\n        /* \"#utility.yul\":2856:2862   */\n      dup2\n        /* \"#utility.yul\":2843:2863   */\n      calldataload\n        /* \"#utility.yul\":2834:2863   */\n      swap1\n      pop\n        /* \"#utility.yul\":2872:2905   */\n      tag_394\n        /* \"#utility.yul\":2899:2904   */\n      dup2\n        /* \"#utility.yul\":2872:2905   */\n      tag_295\n      jump\t// in\n    tag_394:\n        /* \"#utility.yul\":2772:2911   */\n      swap3\n      swap2\n      pop\n      pop\n      jump\t// out\n        /* \"#utility.yul\":2917:3246   */\n    tag_48:\n        /* \"#utility.yul\":2976:2982   */\n      0x00\n        /* \"#utility.yul\":3025:3027   */\n      0x20\n        /* \"#utility.yul\":3013:3022   */\n      dup3\n        /* \"#utility.yul\":3004:3011   */\n      dup5\n        /* \"#utility.yul\":3000:3023   */\n      sub\n        /* \"#utility.yul\":2996:3028   */\n      slt\n        /* \"#utility.yul\":2993:3112   */\n      iszero\n      tag_396\n      jumpi\n        /* \"#utility.yul\":3031:3110   */\n      tag_397\n      tag_283\n      jump\t// in\n    tag_397:\n        /* \"#utility.yul\":2993:3112   */\n    tag_396:\n        /* \"#utility.yul\":3151:3152   */\n      0x00\n        /* \"#utility.yul\":3176:3229   */\n      tag_398\n        /* \"#utility.yul\":3221:3228   */\n      dup5\n        /* \"#utility.yul\":3212:3218   */\n      dup3\n        /* \"#utility.yul\":3201:3210   */\n      dup6\n        /* \"#utility.yul\":3197:3219   */\n      add\n        /* \"#utility.yul\":3176:3229   */\n      tag_296\n      jump\t// in\n    tag_398:\n        /* \"#utility.yul\":3166:3229   */\n      swap2\n      pop\n        /* \"#utility.yul\":3122:3239   */\n      pop\n        /* \"#utility.yul\":2917:3246   */\n      swap3\n      swap2\n      pop\n      pop\n      jump\t// out\n        /* \"#utility.yul\":3252:3370   */\n    tag_297:\n        /* \"#utility.yul\":3339:3363   */\n      tag_400\n        /* \"#utility.yul\":3357:3362   */\n      dup2\n        /* \"#utility.yul\":3339:3363   */\n      tag_294\n      jump\t// in\n    tag_400:\n        /* \"#utility.yul\":3334:3337   */\n      dup3\n        /* \"#utility.yul\":3327:3364   */\n      mstore\n        /* \"#utility.yul\":3252:3370   */\n      pop\n      pop\n      jump\t// out\n        /* \"#utility.yul\":3376:3598   */\n    tag_51:\n        /* \"#utility.yul\":3469:3473   */\n      0x00\n        /* \"#utility.yul\":3507:3509   */\n      0x20\n        /* \"#utility.yul\":3496:3505   */\n      dup3\n        /* \"#utility.yul\":3492:3510   */\n      add\n        /* \"#utility.yul\":3484:3510   */\n      swap1\n      pop\n        /* \"#utility.yul\":3520:3591   */\n      tag_402\n        /* \"#utility.yul\":3588:3589   */\n      0x00\n        /* \"#utility.yul\":3577:3586   */\n      dup4\n        /* \"#utility.yul\":3573:3590   */\n      add\n        /* \"#utility.yul\":3564:3570   */\n      dup5\n        /* \"#utility.yul\":3520:3591   */\n      tag_297\n      jump\t// in\n    tag_402:\n        /* \"#utility.yul\":3376:3598   */\n      swap3\n      swap2\n      pop\n      pop\n      jump\t// out\n        /* \"#utility.yul\":3604:3730   */\n    tag_298:\n        /* \"#utility.yul\":3641:3648   */\n      0x00\n        /* \"#utility.yul\":3681:3723   */\n      0xffffffffffffffffffffffffffffffffffffffff\n        /* \"#utility.yul\":3674:3679   */\n      dup3\n        /* \"#utility.yul\":3670:3724   */\n      and\n        /* \"#utility.yul\":3659:3724   */\n      swap1\n      pop\n        /* \"#utility.yul\":3604:3730   */\n      swap2\n      swap1\n      pop\n      jump\t// out\n        /* \"#utility.yul\":3736:3832   */\n    tag_299:\n        /* \"#utility.yul\":3773:3780   */\n      0x00\n        /* \"#utility.yul\":3802:3826   */\n      tag_405\n        /* \"#utility.yul\":3820:3825   */\n      dup3\n        /* \"#utility.yul\":3802:3826   */\n      tag_298\n      jump\t// in\n    tag_405:\n        /* \"#utility.yul\":3791:3826   */\n      swap1\n      pop\n        /* \"#utility.yul\":3736:3832   */\n      swap2\n      swap1\n      pop\n      jump\t// out\n        /* \"#utility.yul\":3838:3960   */\n    tag_300:\n        /* \"#utility.yul\":3911:3935   */\n      tag_407\n        /* \"#utility.yul\":3929:3934   */\n      dup2\n        /* \"#utility.yul\":3911:3935   */\n      tag_299\n      jump\t// in\n    tag_407:\n        /* \"#utility.yul\":3904:3909   */\n      dup2\n        /* \"#utility.yul\":3901:3936   */\n      eq\n        /* \"#utility.yul\":3891:3954   */\n      tag_408\n      jumpi\n        /* \"#utility.yul\":3950:3951   */\n      0x00\n        /* \"#utility.yul\":3947:3948   */\n      dup1\n        /* \"#utility.yul\":3940:3952   */\n      revert\n        /* \"#utility.yul\":3891:3954   */\n    tag_408:\n        /* \"#utility.yul\":3838:3960   */\n      pop\n      jump\t// out\n        /* \"#utility.yul\":3966:4105   */\n    tag_301:\n        /* \"#utility.yul\":4012:4017   */\n      0x00\n        /* \"#utility.yul\":4050:4056   */\n      dup2\n        /* \"#utility.yul\":4037:4057   */\n      calldataload\n        /* \"#utility.yul\":4028:4057   */\n      swap1\n      pop\n        /* \"#utility.yul\":4066:4099   */\n      tag_410\n        /* \"#utility.yul\":4093:4098   */\n      dup2\n        /* \"#utility.yul\":4066:4099   */\n      tag_300\n      jump\t// in\n    tag_410:\n        /* \"#utility.yul\":3966:4105   */\n      swap3\n      swap2\n      pop\n      pop\n      jump\t// out\n        /* \"#utility.yul\":4111:4585   */\n    tag_54:\n        /* \"#utility.yul\":4179:4185   */\n      0x00\n        /* \"#utility.yul\":4187:4193   */\n      dup1\n        /* \"#utility.yul\":4236:4238   */\n      0x40\n        /* \"#utility.yul\":4224:4233   */\n      dup4\n        /* \"#utility.yul\":4215:4222   */\n      dup6\n        /* \"#utility.yul\":4211:4234   */\n      sub\n        /* \"#utility.yul\":4207:4239   */\n      slt\n        /* \"#utility.yul\":4204:4323   */\n      iszero\n      tag_412\n      jumpi\n        /* \"#utility.yul\":4242:4321   */\n      tag_413\n      tag_283\n      jump\t// in\n    tag_413:\n        /* \"#utility.yul\":4204:4323   */\n    tag_412:\n        /* \"#utility.yul\":4362:4363   */\n      0x00\n        /* \"#utility.yul\":4387:4440   */\n      tag_414\n        /* \"#utility.yul\":4432:4439   */\n      dup6\n        /* \"#utility.yul\":4423:4429   */\n      dup3\n        /* \"#utility.yul\":4412:4421   */\n      dup7\n        /* \"#utility.yul\":4408:4430   */\n      add\n        /* \"#utility.yul\":4387:4440   */\n      tag_296\n      jump\t// in\n    tag_414:\n        /* \"#utility.yul\":4377:4440   */\n      swap3\n      pop\n        /* \"#utility.yul\":4333:4450   */\n      pop\n        /* \"#utility.yul\":4489:4491   */\n      0x20\n        /* \"#utility.yul\":4515:4568   */\n      tag_415\n        /* \"#utility.yul\":4560:4567   */\n      dup6\n        /* \"#utility.yul\":4551:4557   */\n      dup3\n        /* \"#utility.yul\":4540:4549   */\n      dup7\n        /* \"#utility.yul\":4536:4558   */\n      add\n        /* \"#utility.yul\":4515:4568   */\n      tag_301\n      jump\t// in\n    tag_415:\n        /* \"#utility.yul\":4505:4568   */\n      swap2\n      pop\n        /* \"#utility.yul\":4460:4578   */\n      pop\n        /* \"#utility.yul\":4111:4585   */\n      swap3\n      pop\n      swap3\n      swap1\n      pop\n      jump\t// out\n        /* \"#utility.yul\":4591:5065   */\n    tag_61:\n        /* \"#utility.yul\":4659:4665   */\n      0x00\n        /* \"#utility.yul\":4667:4673   */\n      dup1\n        /* \"#utility.yul\":4716:4718   */\n      0x40\n        /* \"#utility.yul\":4704:4713   */\n      dup4\n        /* \"#utility.yul\":4695:4702   */\n      dup6\n        /* \"#utility.yul\":4691:4714   */\n      sub\n        /* \"#utility.yul\":4687:4719   */\n      slt\n        /* \"#utility.yul\":4684:4803   */\n      iszero\n      tag_417\n      jumpi\n        /* \"#utility.yul\":4722:4801   */\n      tag_418\n      tag_283\n      jump\t// in\n    tag_418:\n        /* \"#utility.yul\":4684:4803   */\n    tag_417:\n        /* \"#utility.yul\":4842:4843   */\n      0x00\n        /* \"#utility.yul\":4867:4920   */\n      tag_419\n        /* \"#utility.yul\":4912:4919   */\n      dup6\n        /* \"#utility.yul\":4903:4909   */\n      dup3\n        /* \"#utility.yul\":4892:4901   */\n      dup7\n        /* \"#utility.yul\":4888:4910   */\n      add\n        /* \"#utility.yul\":4867:4920   */\n      tag_293\n      jump\t// in\n    tag_419:\n        /* \"#utility.yul\":4857:4920   */\n      swap3\n      pop\n        /* \"#utility.yul\":4813:4930   */\n      pop\n        /* \"#utility.yul\":4969:4971   */\n      0x20\n        /* \"#utility.yul\":4995:5048   */\n      tag_420\n        /* \"#utility.yul\":5040:5047   */\n      dup6\n        /* \"#utility.yul\":5031:5037   */\n      dup3\n        /* \"#utility.yul\":5020:5029   */\n      dup7\n        /* \"#utility.yul\":5016:5038   */\n      add\n        /* \"#utility.yul\":4995:5048   */\n      tag_293\n      jump\t// in\n    tag_420:\n        /* \"#utility.yul\":4985:5048   */\n      swap2\n      pop\n        /* \"#utility.yul\":4940:5058   */\n      pop\n        /* \"#utility.yul\":4591:5065   */\n      swap3\n      pop\n      swap3\n      swap1\n      pop\n      jump\t// out\n        /* \"#utility.yul\":5071:5131   */\n    tag_302:\n        /* \"#utility.yul\":5099:5102   */\n      0x00\n        /* \"#utility.yul\":5120:5125   */\n      dup2\n        /* \"#utility.yul\":5113:5125   */\n      swap1\n      pop\n        /* \"#utility.yul\":5071:5131   */\n      swap2\n      swap1\n      pop\n      jump\t// out\n        /* \"#utility.yul\":5137:5279   */\n    tag_303:\n        /* \"#utility.yul\":5187:5196   */\n      0x00\n        /* \"#utility.yul\":5220:5273   */\n      tag_423\n        /* \"#utility.yul\":5238:5272   */\n      tag_424\n        /* \"#utility.yul\":5247:5271   */\n      tag_425\n        /* \"#utility.yul\":5265:5270   */\n      dup5\n        /* \"#utility.yul\":5247:5271   */\n      tag_298\n      jump\t// in\n    tag_425:\n        /* \"#utility.yul\":5238:5272   */\n      tag_302\n      jump\t// in\n    tag_424:\n        /* \"#utility.yul\":5220:5273   */\n      tag_298\n      jump\t// in\n    tag_423:\n        /* \"#utility.yul\":5207:5273   */\n      swap1\n      pop\n        /* \"#utility.yul\":5137:5279   */\n      swap2\n      swap1\n      pop\n      jump\t// out\n        /* \"#utility.yul\":5285:5411   */\n    tag_304:\n        /* \"#utility.yul\":5335:5344   */\n      0x00\n        /* \"#utility.yul\":5368:5405   */\n      tag_427\n        /* \"#utility.yul\":5399:5404   */\n      dup3\n        /* \"#utility.yul\":5368:5405   */\n      tag_303\n      jump\t// in\n    tag_427:\n        /* \"#utility.yul\":5355:5405   */\n      swap1\n      pop\n        /* \"#utility.yul\":5285:5411   */\n      swap2\n      swap1\n      pop\n      jump\t// out\n        /* \"#utility.yul\":5417:5559   */\n    tag_305:\n        /* \"#utility.yul\":5483:5492   */\n      0x00\n        /* \"#utility.yul\":5516:5553   */\n      tag_429\n        /* \"#utility.yul\":5547:5552   */\n      dup3\n        /* \"#utility.yul\":5516:5553   */\n      tag_304\n      jump\t// in\n    tag_429:\n        /* \"#utility.yul\":5503:5553   */\n      swap1\n      pop\n        /* \"#utility.yul\":5417:5559   */\n      swap2\n      swap1\n      pop\n      jump\t// out\n        /* \"#utility.yul\":5565:5728   */\n    tag_306:\n        /* \"#utility.yul\":5668:5721   */\n      tag_431\n        /* \"#utility.yul\":5715:5720   */\n      dup2\n        /* \"#utility.yul\":5668:5721   */\n      tag_305\n      jump\t// in\n    tag_431:\n        /* \"#utility.yul\":5663:5666   */\n      dup3\n        /* \"#utility.yul\":5656:5722   */\n      mstore\n        /* \"#utility.yul\":5565:5728   */\n      pop\n      pop\n      jump\t// out\n        /* \"#utility.yul\":5734:5988   */\n    tag_66:\n        /* \"#utility.yul\":5843:5847   */\n      0x00\n        /* \"#utility.yul\":5881:5883   */\n      0x20\n        /* \"#utility.yul\":5870:5879   */\n      dup3\n        /* \"#utility.yul\":5866:5884   */\n      add\n        /* \"#utility.yul\":5858:5884   */\n      swap1\n      pop\n        /* \"#utility.yul\":5894:5981   */\n      tag_433\n        /* \"#utility.yul\":5978:5979   */\n      0x00\n        /* \"#utility.yul\":5967:5976   */\n      dup4\n        /* \"#utility.yul\":5963:5980   */\n      add\n        /* \"#utility.yul\":5954:5960   */\n      dup5\n        /* \"#utility.yul\":5894:5981   */\n      tag_306\n      jump\t// in\n    tag_433:\n        /* \"#utility.yul\":5734:5988   */\n      swap3\n      swap2\n      pop\n      pop\n      jump\t// out\n        /* \"#utility.yul\":5994:6111   */\n    tag_307:\n        /* \"#utility.yul\":6103:6104   */\n      0x00\n        /* \"#utility.yul\":6100:6101   */\n      dup1\n        /* \"#utility.yul\":6093:6105   */\n      revert\n        /* \"#utility.yul\":6117:6234   */\n    tag_308:\n        /* \"#utility.yul\":6226:6227   */\n      0x00\n        /* \"#utility.yul\":6223:6224   */\n      dup1\n        /* \"#utility.yul\":6216:6228   */\n      revert\n        /* \"#utility.yul\":6240:6342   */\n    tag_309:\n        /* \"#utility.yul\":6281:6287   */\n      0x00\n        /* \"#utility.yul\":6332:6334   */\n      0x1f\n        /* \"#utility.yul\":6328:6335   */\n      not\n        /* \"#utility.yul\":6323:6325   */\n      0x1f\n        /* \"#utility.yul\":6316:6321   */\n      dup4\n        /* \"#utility.yul\":6312:6326   */\n      add\n        /* \"#utility.yul\":6308:6336   */\n      and\n        /* \"#utility.yul\":6298:6336   */\n      swap1\n      pop\n        /* \"#utility.yul\":6240:6342   */\n      swap2\n      swap1\n      pop\n      jump\t// out\n        /* \"#utility.yul\":6348:6528   */\n    tag_262:\n        /* \"#utility.yul\":6396:6473   */\n      0x4e487b7100000000000000000000000000000000000000000000000000000000\n        /* \"#utility.yul\":6393:6394   */\n      0x00\n        /* \"#utility.yul\":6386:6474   */\n      mstore\n        /* \"#utility.yul\":6493:6497   */\n      0x41\n        /* \"#utility.yul\":6490:6491   */\n      0x04\n        /* \"#utility.yul\":6483:6498   */\n      mstore\n        /* \"#utility.yul\":6517:6521   */\n      0x24\n        /* \"#utility.yul\":6514:6515   */\n      0x00\n        /* \"#utility.yul\":6507:6522   */\n      revert\n        /* \"#utility.yul\":6534:6815   */\n    tag_310:\n        /* \"#utility.yul\":6617:6644   */\n      tag_439\n        /* \"#utility.yul\":6639:6643   */\n      dup3\n        /* \"#utility.yul\":6617:6644   */\n      tag_309\n      jump\t// in\n    tag_439:\n        /* \"#utility.yul\":6609:6615   */\n      dup2\n        /* \"#utility.yul\":6605:6645   */\n      add\n        /* \"#utility.yul\":6747:6753   */\n      dup2\n        /* \"#utility.yul\":6735:6745   */\n      dup2\n        /* \"#utility.yul\":6732:6754   */\n      lt\n        /* \"#utility.yul\":6711:6729   */\n      0xffffffffffffffff\n        /* \"#utility.yul\":6699:6709   */\n      dup3\n        /* \"#utility.yul\":6696:6730   */\n      gt\n        /* \"#utility.yul\":6693:6755   */\n      or\n        /* \"#utility.yul\":6690:6778   */\n      iszero\n      tag_440\n      jumpi\n        /* \"#utility.yul\":6758:6776   */\n      tag_441\n      tag_262\n      jump\t// in\n    tag_441:\n        /* \"#utility.yul\":6690:6778   */\n    tag_440:\n        /* \"#utility.yul\":6798:6808   */\n      dup1\n        /* \"#utility.yul\":6794:6796   */\n      0x40\n        /* \"#utility.yul\":6787:6809   */\n      mstore\n        /* \"#utility.yul\":6577:6815   */\n      pop\n        /* \"#utility.yul\":6534:6815   */\n      pop\n      pop\n      jump\t// out\n        /* \"#utility.yul\":6821:6950   */\n    tag_311:\n        /* \"#utility.yul\":6855:6861   */\n      0x00\n        /* \"#utility.yul\":6882:6902   */\n      tag_443\n      tag_282\n      jump\t// in\n    tag_443:\n        /* \"#utility.yul\":6872:6902   */\n      swap1\n      pop\n        /* \"#utility.yul\":6911:6944   */\n      tag_444\n        /* \"#utility.yul\":6939:6943   */\n      dup3\n        /* \"#utility.yul\":6931:6937   */\n      dup3\n        /* \"#utility.yul\":6911:6944   */\n      tag_310\n      jump\t// in\n    tag_444:\n        /* \"#utility.yul\":6821:6950   */\n      swap2\n      swap1\n      pop\n      jump\t// out\n        /* \"#utility.yul\":6956:7264   */\n    tag_312:\n        /* \"#utility.yul\":7018:7022   */\n      0x00\n        /* \"#utility.yul\":7108:7126   */\n      0xffffffffffffffff\n        /* \"#utility.yul\":7100:7106   */\n      dup3\n        /* \"#utility.yul\":7097:7127   */\n      gt\n        /* \"#utility.yul\":7094:7150   */\n      iszero\n      tag_446\n      jumpi\n        /* \"#utility.yul\":7130:7148   */\n      tag_447\n      tag_262\n      jump\t// in\n    tag_447:\n        /* \"#utility.yul\":7094:7150   */\n    tag_446:\n        /* \"#utility.yul\":7168:7197   */\n      tag_448\n        /* \"#utility.yul\":7190:7196   */\n      dup3\n        /* \"#utility.yul\":7168:7197   */\n      tag_309\n      jump\t// in\n    tag_448:\n        /* \"#utility.yul\":7160:7197   */\n      swap1\n      pop\n        /* \"#utility.yul\":7252:7256   */\n      0x20\n        /* \"#utility.yul\":7246:7250   */\n      dup2\n        /* \"#utility.yul\":7242:7257   */\n      add\n        /* \"#utility.yul\":7234:7257   */\n      swap1\n      pop\n        /* \"#utility.yul\":6956:7264   */\n      swap2\n      swap1\n      pop\n      jump\t// out\n        /* \"#utility.yul\":7270:7424   */\n    tag_313:\n        /* \"#utility.yul\":7354:7360   */\n      dup3\n        /* \"#utility.yul\":7349:7352   */\n      dup2\n        /* \"#utility.yul\":7344:7347   */\n      dup4\n        /* \"#utility.yul\":7331:7361   */\n      calldatacopy\n        /* \"#utility.yul\":7416:7417   */\n      0x00\n        /* \"#utility.yul\":7407:7413   */\n      dup4\n        /* \"#utility.yul\":7402:7405   */\n      dup4\n        /* \"#utility.yul\":7398:7414   */\n      add\n        /* \"#utility.yul\":7391:7418   */\n      mstore\n        /* \"#utility.yul\":7270:7424   */\n      pop\n      pop\n      pop\n      jump\t// out\n        /* \"#utility.yul\":7430:7842   */\n    tag_314:\n        /* \"#utility.yul\":7508:7513   */\n      0x00\n        /* \"#utility.yul\":7533:7599   */\n      tag_451\n        /* \"#utility.yul\":7549:7598   */\n      tag_452\n        /* \"#utility.yul\":7591:7597   */\n      dup5\n        /* \"#utility.yul\":7549:7598   */\n      tag_312\n      jump\t// in\n    tag_452:\n        /* \"#utility.yul\":7533:7599   */\n      tag_311\n      jump\t// in\n    tag_451:\n        /* \"#utility.yul\":7524:7599   */\n      swap1\n      pop\n        /* \"#utility.yul\":7622:7628   */\n      dup3\n        /* \"#utility.yul\":7615:7620   */\n      dup2\n        /* \"#utility.yul\":7608:7629   */\n      mstore\n        /* \"#utility.yul\":7660:7664   */\n      0x20\n        /* \"#utility.yul\":7653:7658   */\n      dup2\n        /* \"#utility.yul\":7649:7665   */\n      add\n        /* \"#utility.yul\":7698:7701   */\n      dup5\n        /* \"#utility.yul\":7689:7695   */\n      dup5\n        /* \"#utility.yul\":7684:7687   */\n      dup5\n        /* \"#utility.yul\":7680:7696   */\n      add\n        /* \"#utility.yul\":7677:7702   */\n      gt\n        /* \"#utility.yul\":7674:7786   */\n      iszero\n      tag_453\n      jumpi\n        /* \"#utility.yul\":7705:7784   */\n      tag_454\n      tag_308\n      jump\t// in\n    tag_454:\n        /* \"#utility.yul\":7674:7786   */\n    tag_453:\n        /* \"#utility.yul\":7795:7836   */\n      tag_455\n        /* \"#utility.yul\":7829:7835   */\n      dup5\n        /* \"#utility.yul\":7824:7827   */\n      dup3\n        /* \"#utility.yul\":7819:7822   */\n      dup6\n        /* \"#utility.yul\":7795:7836   */\n      tag_313\n      jump\t// in\n    tag_455:\n        /* \"#utility.yul\":7514:7842   */\n      pop\n        /* \"#utility.yul\":7430:7842   */\n      swap4\n      swap3\n      pop\n      pop\n      pop\n      jump\t// out\n        /* \"#utility.yul\":7862:8202   */\n    tag_315:\n        /* \"#utility.yul\":7918:7923   */\n      0x00\n        /* \"#utility.yul\":7967:7970   */\n      dup3\n        /* \"#utility.yul\":7960:7964   */\n      0x1f\n        /* \"#utility.yul\":7952:7958   */\n      dup4\n        /* \"#utility.yul\":7948:7965   */\n      add\n        /* \"#utility.yul\":7944:7971   */\n      slt\n        /* \"#utility.yul\":7934:8056   */\n      tag_457\n      jumpi\n        /* \"#utility.yul\":7975:8054   */\n      tag_458\n      tag_307\n      jump\t// in\n    tag_458:\n        /* \"#utility.yul\":7934:8056   */\n    tag_457:\n        /* \"#utility.yul\":8092:8098   */\n      dup2\n        /* \"#utility.yul\":8079:8099   */\n      calldataload\n        /* \"#utility.yul\":8117:8196   */\n      tag_459\n        /* \"#utility.yul\":8192:8195   */\n      dup5\n        /* \"#utility.yul\":8184:8190   */\n      dup3\n        /* \"#utility.yul\":8177:8181   */\n      0x20\n        /* \"#utility.yul\":8169:8175   */\n      dup7\n        /* \"#utility.yul\":8165:8182   */\n      add\n        /* \"#utility.yul\":8117:8196   */\n      tag_314\n      jump\t// in\n    tag_459:\n        /* \"#utility.yul\":8108:8196   */\n      swap2\n      pop\n        /* \"#utility.yul\":7924:8202   */\n      pop\n        /* \"#utility.yul\":7862:8202   */\n      swap3\n      swap2\n      pop\n      pop\n      jump\t// out\n        /* \"#utility.yul\":8208:8717   */\n    tag_75:\n        /* \"#utility.yul\":8277:8283   */\n      0x00\n        /* \"#utility.yul\":8326:8328   */\n      0x20\n        /* \"#utility.yul\":8314:8323   */\n      dup3\n        /* \"#utility.yul\":8305:8312   */\n      dup5\n        /* \"#utility.yul\":8301:8324   */\n      sub\n        /* \"#utility.yul\":8297:8329   */\n      slt\n        /* \"#utility.yul\":8294:8413   */\n      iszero\n      tag_461\n      jumpi\n        /* \"#utility.yul\":8332:8411   */\n      tag_462\n      tag_283\n      jump\t// in\n    tag_462:\n        /* \"#utility.yul\":8294:8413   */\n    tag_461:\n        /* \"#utility.yul\":8480:8481   */\n      0x00\n        /* \"#utility.yul\":8469:8478   */\n      dup3\n        /* \"#utility.yul\":8465:8482   */\n      add\n        /* \"#utility.yul\":8452:8483   */\n      calldataload\n        /* \"#utility.yul\":8510:8528   */\n      0xffffffffffffffff\n        /* \"#utility.yul\":8502:8508   */\n      dup2\n        /* \"#utility.yul\":8499:8529   */\n      gt\n        /* \"#utility.yul\":8496:8613   */\n      iszero\n      tag_463\n      jumpi\n        /* \"#utility.yul\":8532:8611   */\n      tag_464\n      tag_284\n      jump\t// in\n    tag_464:\n        /* \"#utility.yul\":8496:8613   */\n    tag_463:\n        /* \"#utility.yul\":8637:8700   */\n      tag_465\n        /* \"#utility.yul\":8692:8699   */\n      dup5\n        /* \"#utility.yul\":8683:8689   */\n      dup3\n        /* \"#utility.yul\":8672:8681   */\n      dup6\n        /* \"#utility.yul\":8668:8690   */\n      add\n        /* \"#utility.yul\":8637:8700   */\n      tag_315\n      jump\t// in\n    tag_465:\n        /* \"#utility.yul\":8627:8700   */\n      swap2\n      pop\n        /* \"#utility.yul\":8423:8710   */\n      pop\n        /* \"#utility.yul\":8208:8717   */\n      swap3\n      swap2\n      pop\n      pop\n      jump\t// out\n        /* \"#utility.yul\":8723:9197   */\n    tag_84:\n        /* \"#utility.yul\":8791:8797   */\n      0x00\n        /* \"#utility.yul\":8799:8805   */\n      dup1\n        /* \"#utility.yul\":8848:8850   */\n      0x40\n        /* \"#utility.yul\":8836:8845   */\n      dup4\n        /* \"#utility.yul\":8827:8834   */\n      dup6\n        /* \"#utility.yul\":8823:8846   */\n      sub\n        /* \"#utility.yul\":8819:8851   */\n      slt\n        /* \"#utility.yul\":8816:8935   */\n      iszero\n      tag_467\n      jumpi\n        /* \"#utility.yul\":8854:8933   */\n      tag_468\n      tag_283\n      jump\t// in\n    tag_468:\n        /* \"#utility.yul\":8816:8935   */\n    tag_467:\n        /* \"#utility.yul\":8974:8975   */\n      0x00\n        /* \"#utility.yul\":8999:9052   */\n      tag_469\n        /* \"#utility.yul\":9044:9051   */\n      dup6\n        /* \"#utility.yul\":9035:9041   */\n      dup3\n        /* \"#utility.yul\":9024:9033   */\n      dup7\n        /* \"#utility.yul\":9020:9042   */\n      add\n        /* \"#utility.yul\":8999:9052   */\n      tag_301\n      jump\t// in\n    tag_469:\n        /* \"#utility.yul\":8989:9052   */\n      swap3\n      pop\n        /* \"#utility.yul\":8945:9062   */\n      pop\n        /* \"#utility.yul\":9101:9103   */\n      0x20\n        /* \"#utility.yul\":9127:9180   */\n      tag_470\n        /* \"#utility.yul\":9172:9179   */\n      dup6\n        /* \"#utility.yul\":9163:9169   */\n      dup3\n        /* \"#utility.yul\":9152:9161   */\n      dup7\n        /* \"#utility.yul\":9148:9170   */\n      add\n        /* \"#utility.yul\":9127:9180   */\n      tag_293\n      jump\t// in\n    tag_470:\n        /* \"#utility.yul\":9117:9180   */\n      swap2\n      pop\n        /* \"#utility.yul\":9072:9190   */\n      pop\n        /* \"#utility.yul\":8723:9197   */\n      swap3\n      pop\n      swap3\n      swap1\n      pop\n      jump\t// out\n        /* \"#utility.yul\":9203:9321   */\n    tag_316:\n        /* \"#utility.yul\":9290:9314   */\n      tag_472\n        /* \"#utility.yul\":9308:9313   */\n      dup2\n        /* \"#utility.yul\":9290:9314   */\n      tag_299\n      jump\t// in\n    tag_472:\n        /* \"#utility.yul\":9285:9288   */\n      dup3\n        /* \"#utility.yul\":9278:9315   */\n      mstore\n        /* \"#utility.yul\":9203:9321   */\n      pop\n      pop\n      jump\t// out\n        /* \"#utility.yul\":9327:9549   */\n    tag_96:\n        /* \"#utility.yul\":9420:9424   */\n      0x00\n        /* \"#utility.yul\":9458:9460   */\n      0x20\n        /* \"#utility.yul\":9447:9456   */\n      dup3\n        /* \"#utility.yul\":9443:9461   */\n      add\n        /* \"#utility.yul\":9435:9461   */\n      swap1\n      pop\n        /* \"#utility.yul\":9471:9542   */\n      tag_474\n        /* \"#utility.yul\":9539:9540   */\n      0x00\n        /* \"#utility.yul\":9528:9537   */\n      dup4\n        /* \"#utility.yul\":9524:9541   */\n      add\n        /* \"#utility.yul\":9515:9521   */\n      dup5\n        /* \"#utility.yul\":9471:9542   */\n      tag_316\n      jump\t// in\n    tag_474:\n        /* \"#utility.yul\":9327:9549   */\n      swap3\n      swap2\n      pop\n      pop\n      jump\t// out\n        /* \"#utility.yul\":9555:9660   */\n    tag_317:\n        /* \"#utility.yul\":9621:9627   */\n      0x00\n        /* \"#utility.yul\":9649:9653   */\n      0x10\n        /* \"#utility.yul\":9639:9653   */\n      swap1\n      pop\n        /* \"#utility.yul\":9555:9660   */\n      swap2\n      swap1\n      pop\n      jump\t// out\n        /* \"#utility.yul\":9666:9810   */\n    tag_318:\n        /* \"#utility.yul\":9764:9775   */\n      0x00\n        /* \"#utility.yul\":9801:9804   */\n      dup2\n        /* \"#utility.yul\":9786:9804   */\n      swap1\n      pop\n        /* \"#utility.yul\":9666:9810   */\n      swap3\n      swap2\n      pop\n      pop\n      jump\t// out\n        /* \"#utility.yul\":9816:9915   */\n    tag_319:\n        /* \"#utility.yul\":9882:9886   */\n      0x00\n        /* \"#utility.yul\":9905:9908   */\n      dup2\n        /* \"#utility.yul\":9897:9908   */\n      swap1\n      pop\n        /* \"#utility.yul\":9816:9915   */\n      swap2\n      swap1\n      pop\n      jump\t// out\n        /* \"#utility.yul\":9921:10029   */\n    tag_320:\n        /* \"#utility.yul\":9998:10022   */\n      tag_479\n        /* \"#utility.yul\":10016:10021   */\n      dup2\n        /* \"#utility.yul\":9998:10022   */\n      tag_290\n      jump\t// in\n    tag_479:\n        /* \"#utility.yul\":9993:9996   */\n      dup3\n        /* \"#utility.yul\":9986:10023   */\n      mstore\n        /* \"#utility.yul\":9921:10029   */\n      pop\n      pop\n      jump\t// out\n        /* \"#utility.yul\":10035:10214   */\n    tag_321:\n        /* \"#utility.yul\":10104:10114   */\n      0x00\n        /* \"#utility.yul\":10125:10171   */\n      tag_481\n        /* \"#utility.yul\":10167:10170   */\n      dup4\n        /* \"#utility.yul\":10159:10165   */\n      dup4\n        /* \"#utility.yul\":10125:10171   */\n      tag_320\n      jump\t// in\n    tag_481:\n        /* \"#utility.yul\":10203:10207   */\n      0x20\n        /* \"#utility.yul\":10198:10201   */\n      dup4\n        /* \"#utility.yul\":10194:10208   */\n      add\n        /* \"#utility.yul\":10180:10208   */\n      swap1\n      pop\n        /* \"#utility.yul\":10035:10214   */\n      swap3\n      swap2\n      pop\n      pop\n      jump\t// out\n        /* \"#utility.yul\":10220:10332   */\n    tag_322:\n        /* \"#utility.yul\":10289:10293   */\n      0x00\n        /* \"#utility.yul\":10321:10325   */\n      0x20\n        /* \"#utility.yul\":10316:10319   */\n      dup3\n        /* \"#utility.yul\":10312:10326   */\n      add\n        /* \"#utility.yul\":10304:10326   */\n      swap1\n      pop\n        /* \"#utility.yul\":10220:10332   */\n      swap2\n      swap1\n      pop\n      jump\t// out\n        /* \"#utility.yul\":10372:11072   */\n    tag_323:\n        /* \"#utility.yul\":10510:10563   */\n      tag_484\n        /* \"#utility.yul\":10557:10562   */\n      dup2\n        /* \"#utility.yul\":10510:10563   */\n      tag_317\n      jump\t// in\n    tag_484:\n        /* \"#utility.yul\":10579:10664   */\n      tag_485\n        /* \"#utility.yul\":10657:10663   */\n      dup2\n        /* \"#utility.yul\":10652:10655   */\n      dup5\n        /* \"#utility.yul\":10579:10664   */\n      tag_318\n      jump\t// in\n    tag_485:\n        /* \"#utility.yul\":10572:10664   */\n      swap3\n      pop\n        /* \"#utility.yul\":10688:10743   */\n      tag_486\n        /* \"#utility.yul\":10737:10742   */\n      dup3\n        /* \"#utility.yul\":10688:10743   */\n      tag_319\n      jump\t// in\n    tag_486:\n        /* \"#utility.yul\":10766:10773   */\n      dup1\n        /* \"#utility.yul\":10797:10798   */\n      0x00\n        /* \"#utility.yul\":10782:11065   */\n    tag_487:\n        /* \"#utility.yul\":10807:10813   */\n      dup4\n        /* \"#utility.yul\":10804:10805   */\n      dup2\n        /* \"#utility.yul\":10801:10814   */\n      lt\n        /* \"#utility.yul\":10782:11065   */\n      iszero\n      tag_489\n      jumpi\n        /* \"#utility.yul\":10883:10889   */\n      dup2\n        /* \"#utility.yul\":10877:10890   */\n      mload\n        /* \"#utility.yul\":10910:10973   */\n      tag_490\n        /* \"#utility.yul\":10969:10972   */\n      dup8\n        /* \"#utility.yul\":10954:10967   */\n      dup3\n        /* \"#utility.yul\":10910:10973   */\n      tag_321\n      jump\t// in\n    tag_490:\n        /* \"#utility.yul\":10903:10973   */\n      swap7\n      pop\n        /* \"#utility.yul\":10996:11055   */\n      tag_491\n        /* \"#utility.yul\":11048:11054   */\n      dup4\n        /* \"#utility.yul\":10996:11055   */\n      tag_322\n      jump\t// in\n    tag_491:\n        /* \"#utility.yul\":10986:11055   */\n      swap3\n      pop\n        /* \"#utility.yul\":10842:11065   */\n      pop\n        /* \"#utility.yul\":10829:10830   */\n      0x01\n        /* \"#utility.yul\":10826:10827   */\n      dup2\n        /* \"#utility.yul\":10822:10831   */\n      add\n        /* \"#utility.yul\":10817:10831   */\n      swap1\n      pop\n        /* \"#utility.yul\":10782:11065   */\n      jump(tag_487)\n    tag_489:\n        /* \"#utility.yul\":10786:10800   */\n      pop\n        /* \"#utility.yul\":10486:11072   */\n      pop\n      pop\n      pop\n        /* \"#utility.yul\":10372:11072   */\n      pop\n      pop\n      jump\t// out\n        /* \"#utility.yul\":11078:11397   */\n    tag_104:\n        /* \"#utility.yul\":11219:11223   */\n      0x00\n        /* \"#utility.yul\":11257:11260   */\n      0x0200\n        /* \"#utility.yul\":11246:11255   */\n      dup3\n        /* \"#utility.yul\":11242:11261   */\n      add\n        /* \"#utility.yul\":11234:11261   */\n      swap1\n      pop\n        /* \"#utility.yul\":11271:11390   */\n      tag_493\n        /* \"#utility.yul\":11387:11388   */\n      0x00\n        /* \"#utility.yul\":11376:11385   */\n      dup4\n        /* \"#utility.yul\":11372:11389   */\n      add\n        /* \"#utility.yul\":11363:11369   */\n      dup5\n        /* \"#utility.yul\":11271:11390   */\n      tag_323\n      jump\t// in\n    tag_493:\n        /* \"#utility.yul\":11078:11397   */\n      swap3\n      swap2\n      pop\n      pop\n      jump\t// out\n        /* \"#utility.yul\":11403:11546   */\n    tag_324:\n        /* \"#utility.yul\":11460:11465   */\n      0x00\n        /* \"#utility.yul\":11491:11497   */\n      dup2\n        /* \"#utility.yul\":11485:11498   */\n      mload\n        /* \"#utility.yul\":11476:11498   */\n      swap1\n      pop\n        /* \"#utility.yul\":11507:11540   */\n      tag_495\n        /* \"#utility.yul\":11534:11539   */\n      dup2\n        /* \"#utility.yul\":11507:11540   */\n      tag_300\n      jump\t// in\n    tag_495:\n        /* \"#utility.yul\":11403:11546   */\n      swap3\n      swap2\n      pop\n      pop\n      jump\t// out\n        /* \"#utility.yul\":11552:11638   */\n    tag_325:\n        /* \"#utility.yul\":11587:11594   */\n      0x00\n        /* \"#utility.yul\":11627:11631   */\n      0xff\n        /* \"#utility.yul\":11620:11625   */\n      dup3\n        /* \"#utility.yul\":11616:11632   */\n      and\n        /* \"#utility.yul\":11605:11632   */\n      swap1\n      pop\n        /* \"#utility.yul\":11552:11638   */\n      swap2\n      swap1\n      pop\n      jump\t// out\n        /* \"#utility.yul\":11644:11762   */\n    tag_326:\n        /* \"#utility.yul\":11715:11737   */\n      tag_498\n        /* \"#utility.yul\":11731:11736   */\n      dup2\n        /* \"#utility.yul\":11715:11737   */\n      tag_325\n      jump\t// in\n    tag_498:\n        /* \"#utility.yul\":11708:11713   */\n      dup2\n        /* \"#utility.yul\":11705:11738   */\n      eq\n        /* \"#utility.yul\":11695:11756   */\n      tag_499\n      jumpi\n        /* \"#utility.yul\":11752:11753   */\n      0x00\n        /* \"#utility.yul\":11749:11750   */\n      dup1\n        /* \"#utility.yul\":11742:11754   */\n      revert\n        /* \"#utility.yul\":11695:11756   */\n    tag_499:\n        /* \"#utility.yul\":11644:11762   */\n      pop\n      jump\t// out\n        /* \"#utility.yul\":11768:11907   */\n    tag_327:\n        /* \"#utility.yul\":11823:11828   */\n      0x00\n        /* \"#utility.yul\":11854:11860   */\n      dup2\n        /* \"#utility.yul\":11848:11861   */\n      mload\n        /* \"#utility.yul\":11839:11861   */\n      swap1\n      pop\n        /* \"#utility.yul\":11870:11901   */\n      tag_501\n        /* \"#utility.yul\":11895:11900   */\n      dup2\n        /* \"#utility.yul\":11870:11901   */\n      tag_326\n      jump\t// in\n    tag_501:\n        /* \"#utility.yul\":11768:11907   */\n      swap3\n      swap2\n      pop\n      pop\n      jump\t// out\n        /* \"#utility.yul\":11913:12220   */\n    tag_328:\n        /* \"#utility.yul\":11981:11982   */\n      0x00\n        /* \"#utility.yul\":11991:12104   */\n    tag_503:\n        /* \"#utility.yul\":12005:12011   */\n      dup4\n        /* \"#utility.yul\":12002:12003   */\n      dup2\n        /* \"#utility.yul\":11999:12012   */\n      lt\n        /* \"#utility.yul\":11991:12104   */\n      iszero\n      tag_505\n      jumpi\n        /* \"#utility.yul\":12090:12091   */\n      dup1\n        /* \"#utility.yul\":12085:12088   */\n      dup3\n        /* \"#utility.yul\":12081:12092   */\n      add\n        /* \"#utility.yul\":12075:12093   */\n      mload\n        /* \"#utility.yul\":12071:12072   */\n      dup2\n        /* \"#utility.yul\":12066:12069   */\n      dup5\n        /* \"#utility.yul\":12062:12073   */\n      add\n        /* \"#utility.yul\":12055:12094   */\n      mstore\n        /* \"#utility.yul\":12027:12029   */\n      0x20\n        /* \"#utility.yul\":12024:12025   */\n      dup2\n        /* \"#utility.yul\":12020:12030   */\n      add\n        /* \"#utility.yul\":12015:12030   */\n      swap1\n      pop\n        /* \"#utility.yul\":11991:12104   */\n      jump(tag_503)\n    tag_505:\n        /* \"#utility.yul\":12122:12128   */\n      dup4\n        /* \"#utility.yul\":12119:12120   */\n      dup2\n        /* \"#utility.yul\":12116:12129   */\n      gt\n        /* \"#utility.yul\":12113:12214   */\n      iszero\n      tag_506\n      jumpi\n        /* \"#utility.yul\":12202:12203   */\n      0x00\n        /* \"#utility.yul\":12193:12199   */\n      dup5\n        /* \"#utility.yul\":12188:12191   */\n      dup5\n        /* \"#utility.yul\":12184:12200   */\n      add\n        /* \"#utility.yul\":12177:12204   */\n      mstore\n        /* \"#utility.yul\":12113:12214   */\n    tag_506:\n        /* \"#utility.yul\":11962:12220   */\n      pop\n        /* \"#utility.yul\":11913:12220   */\n      pop\n      pop\n      pop\n      jump\t// out\n        /* \"#utility.yul\":12226:12647   */\n    tag_329:\n        /* \"#utility.yul\":12315:12320   */\n      0x00\n        /* \"#utility.yul\":12340:12406   */\n      tag_508\n        /* \"#utility.yul\":12356:12405   */\n      tag_509\n        /* \"#utility.yul\":12398:12404   */\n      dup5\n        /* \"#utility.yul\":12356:12405   */\n      tag_312\n      jump\t// in\n    tag_509:\n        /* \"#utility.yul\":12340:12406   */\n      tag_311\n      jump\t// in\n    tag_508:\n        /* \"#utility.yul\":12331:12406   */\n      swap1\n      pop\n        /* \"#utility.yul\":12429:12435   */\n      dup3\n        /* \"#utility.yul\":12422:12427   */\n      dup2\n        /* \"#utility.yul\":12415:12436   */\n      mstore\n        /* \"#utility.yul\":12467:12471   */\n      0x20\n        /* \"#utility.yul\":12460:12465   */\n      dup2\n        /* \"#utility.yul\":12456:12472   */\n      add\n        /* \"#utility.yul\":12505:12508   */\n      dup5\n        /* \"#utility.yul\":12496:12502   */\n      dup5\n        /* \"#utility.yul\":12491:12494   */\n      dup5\n        /* \"#utility.yul\":12487:12503   */\n      add\n        /* \"#utility.yul\":12484:12509   */\n      gt\n        /* \"#utility.yul\":12481:12593   */\n      iszero\n      tag_510\n      jumpi\n        /* \"#utility.yul\":12512:12591   */\n      tag_511\n      tag_308\n      jump\t// in\n    tag_511:\n        /* \"#utility.yul\":12481:12593   */\n    tag_510:\n        /* \"#utility.yul\":12602:12641   */\n      tag_512\n        /* \"#utility.yul\":12634:12640   */\n      dup5\n        /* \"#utility.yul\":12629:12632   */\n      dup3\n        /* \"#utility.yul\":12624:12627   */\n      dup6\n        /* \"#utility.yul\":12602:12641   */\n      tag_328\n      jump\t// in\n    tag_512:\n        /* \"#utility.yul\":12321:12647   */\n      pop\n        /* \"#utility.yul\":12226:12647   */\n      swap4\n      swap3\n      pop\n      pop\n      pop\n      jump\t// out\n        /* \"#utility.yul\":12667:13022   */\n    tag_330:\n        /* \"#utility.yul\":12734:12739   */\n      0x00\n        /* \"#utility.yul\":12783:12786   */\n      dup3\n        /* \"#utility.yul\":12776:12780   */\n      0x1f\n        /* \"#utility.yul\":12768:12774   */\n      dup4\n        /* \"#utility.yul\":12764:12781   */\n      add\n        /* \"#utility.yul\":12760:12787   */\n      slt\n        /* \"#utility.yul\":12750:12872   */\n      tag_514\n      jumpi\n        /* \"#utility.yul\":12791:12870   */\n      tag_515\n      tag_307\n      jump\t// in\n    tag_515:\n        /* \"#utility.yul\":12750:12872   */\n    tag_514:\n        /* \"#utility.yul\":12901:12907   */\n      dup2\n        /* \"#utility.yul\":12895:12908   */\n      mload\n        /* \"#utility.yul\":12926:13016   */\n      tag_516\n        /* \"#utility.yul\":13012:13015   */\n      dup5\n        /* \"#utility.yul\":13004:13010   */\n      dup3\n        /* \"#utility.yul\":12997:13001   */\n      0x20\n        /* \"#utility.yul\":12989:12995   */\n      dup7\n        /* \"#utility.yul\":12985:13002   */\n      add\n        /* \"#utility.yul\":12926:13016   */\n      tag_329\n      jump\t// in\n    tag_516:\n        /* \"#utility.yul\":12917:13016   */\n      swap2\n      pop\n        /* \"#utility.yul\":12740:13022   */\n      pop\n        /* \"#utility.yul\":12667:13022   */\n      swap3\n      swap2\n      pop\n      pop\n      jump\t// out\n        /* \"#utility.yul\":13028:13860   */\n    tag_126:\n        /* \"#utility.yul\":13124:13130   */\n      0x00\n        /* \"#utility.yul\":13132:13138   */\n      dup1\n        /* \"#utility.yul\":13140:13146   */\n      0x00\n        /* \"#utility.yul\":13189:13191   */\n      0x60\n        /* \"#utility.yul\":13177:13186   */\n      dup5\n        /* \"#utility.yul\":13168:13175   */\n      dup7\n        /* \"#utility.yul\":13164:13187   */\n      sub\n        /* \"#utility.yul\":13160:13192   */\n      slt\n        /* \"#utility.yul\":13157:13276   */\n      iszero\n      tag_518\n      jumpi\n        /* \"#utility.yul\":13195:13274   */\n      tag_519\n      tag_283\n      jump\t// in\n    tag_519:\n        /* \"#utility.yul\":13157:13276   */\n    tag_518:\n        /* \"#utility.yul\":13315:13316   */\n      0x00\n        /* \"#utility.yul\":13340:13404   */\n      tag_520\n        /* \"#utility.yul\":13396:13403   */\n      dup7\n        /* \"#utility.yul\":13387:13393   */\n      dup3\n        /* \"#utility.yul\":13376:13385   */\n      dup8\n        /* \"#utility.yul\":13372:13394   */\n      add\n        /* \"#utility.yul\":13340:13404   */\n      tag_324\n      jump\t// in\n    tag_520:\n        /* \"#utility.yul\":13330:13404   */\n      swap4\n      pop\n        /* \"#utility.yul\":13286:13414   */\n      pop\n        /* \"#utility.yul\":13453:13455   */\n      0x20\n        /* \"#utility.yul\":13479:13541   */\n      tag_521\n        /* \"#utility.yul\":13533:13540   */\n      dup7\n        /* \"#utility.yul\":13524:13530   */\n      dup3\n        /* \"#utility.yul\":13513:13522   */\n      dup8\n        /* \"#utility.yul\":13509:13531   */\n      add\n        /* \"#utility.yul\":13479:13541   */\n      tag_327\n      jump\t// in\n    tag_521:\n        /* \"#utility.yul\":13469:13541   */\n      swap3\n      pop\n        /* \"#utility.yul\":13424:13551   */\n      pop\n        /* \"#utility.yul\":13611:13613   */\n      0x40\n        /* \"#utility.yul\":13600:13609   */\n      dup5\n        /* \"#utility.yul\":13596:13614   */\n      add\n        /* \"#utility.yul\":13590:13615   */\n      mload\n        /* \"#utility.yul\":13642:13660   */\n      0xffffffffffffffff\n        /* \"#utility.yul\":13634:13640   */\n      dup2\n        /* \"#utility.yul\":13631:13661   */\n      gt\n        /* \"#utility.yul\":13628:13745   */\n      iszero\n      tag_522\n      jumpi\n        /* \"#utility.yul\":13664:13743   */\n      tag_523\n      tag_284\n      jump\t// in\n    tag_523:\n        /* \"#utility.yul\":13628:13745   */\n    tag_522:\n        /* \"#utility.yul\":13769:13843   */\n      tag_524\n        /* \"#utility.yul\":13835:13842   */\n      dup7\n        /* \"#utility.yul\":13826:13832   */\n      dup3\n        /* \"#utility.yul\":13815:13824   */\n      dup8\n        /* \"#utility.yul\":13811:13833   */\n      add\n        /* \"#utility.yul\":13769:13843   */\n      tag_330\n      jump\t// in\n    tag_524:\n        /* \"#utility.yul\":13759:13843   */\n      swap2\n      pop\n        /* \"#utility.yul\":13561:13853   */\n      pop\n        /* \"#utility.yul\":13028:13860   */\n      swap3\n      pop\n      swap3\n      pop\n      swap3\n      jump\t// out\n        /* \"#utility.yul\":13866:14035   */\n    tag_331:\n        /* \"#utility.yul\":13950:13961   */\n      0x00\n        /* \"#utility.yul\":13984:13990   */\n      dup3\n        /* \"#utility.yul\":13979:13982   */\n      dup3\n        /* \"#utility.yul\":13972:13991   */\n      mstore\n        /* \"#utility.yul\":14024:14028   */\n      0x20\n        /* \"#utility.yul\":14019:14022   */\n      dup3\n        /* \"#utility.yul\":14015:14029   */\n      add\n        /* \"#utility.yul\":14000:14029   */\n      swap1\n      pop\n        /* \"#utility.yul\":13866:14035   */\n      swap3\n      swap2\n      pop\n      pop\n      jump\t// out\n        /* \"#utility.yul\":14041:14275   */\n    tag_332:\n        /* \"#utility.yul\":14181:14215   */\n      0x416363657373436f6e74726f6c3a2063616e206f6e6c792072656e6f756e6365\n        /* \"#utility.yul\":14177:14178   */\n      0x00\n        /* \"#utility.yul\":14169:14175   */\n      dup3\n        /* \"#utility.yul\":14165:14179   */\n      add\n        /* \"#utility.yul\":14158:14216   */\n      mstore\n        /* \"#utility.yul\":14250:14267   */\n      0x20726f6c657320666f722073656c660000000000000000000000000000000000\n        /* \"#utility.yul\":14245:14247   */\n      0x20\n        /* \"#utility.yul\":14237:14243   */\n      dup3\n        /* \"#utility.yul\":14233:14248   */\n      add\n        /* \"#utility.yul\":14226:14268   */\n      mstore\n        /* \"#utility.yul\":14041:14275   */\n      pop\n      jump\t// out\n        /* \"#utility.yul\":14281:14647   */\n    tag_333:\n        /* \"#utility.yul\":14423:14426   */\n      0x00\n        /* \"#utility.yul\":14444:14511   */\n      tag_528\n        /* \"#utility.yul\":14508:14510   */\n      0x2f\n        /* \"#utility.yul\":14503:14506   */\n      dup4\n        /* \"#utility.yul\":14444:14511   */\n      tag_331\n      jump\t// in\n    tag_528:\n        /* \"#utility.yul\":14437:14511   */\n      swap2\n      pop\n        /* \"#utility.yul\":14520:14613   */\n      tag_529\n        /* \"#utility.yul\":14609:14612   */\n      dup3\n        /* \"#utility.yul\":14520:14613   */\n      tag_332\n      jump\t// in\n    tag_529:\n        /* \"#utility.yul\":14638:14640   */\n      0x40\n        /* \"#utility.yul\":14633:14636   */\n      dup3\n        /* \"#utility.yul\":14629:14641   */\n      add\n        /* \"#utility.yul\":14622:14641   */\n      swap1\n      pop\n        /* \"#utility.yul\":14281:14647   */\n      swap2\n      swap1\n      pop\n      jump\t// out\n        /* \"#utility.yul\":14653:15072   */\n    tag_146:\n        /* \"#utility.yul\":14819:14823   */\n      0x00\n        /* \"#utility.yul\":14857:14859   */\n      0x20\n        /* \"#utility.yul\":14846:14855   */\n      dup3\n        /* \"#utility.yul\":14842:14860   */\n      add\n        /* \"#utility.yul\":14834:14860   */\n      swap1\n      pop\n        /* \"#utility.yul\":14906:14915   */\n      dup2\n        /* \"#utility.yul\":14900:14904   */\n      dup2\n        /* \"#utility.yul\":14896:14916   */\n      sub\n        /* \"#utility.yul\":14892:14893   */\n      0x00\n        /* \"#utility.yul\":14881:14890   */\n      dup4\n        /* \"#utility.yul\":14877:14894   */\n      add\n        /* \"#utility.yul\":14870:14917   */\n      mstore\n        /* \"#utility.yul\":14934:15065   */\n      tag_531\n        /* \"#utility.yul\":15060:15064   */\n      dup2\n        /* \"#utility.yul\":14934:15065   */\n      tag_333\n      jump\t// in\n    tag_531:\n        /* \"#utility.yul\":14926:15065   */\n      swap1\n      pop\n        /* \"#utility.yul\":14653:15072   */\n      swap2\n      swap1\n      pop\n      jump\t// out\n        /* \"#utility.yul\":15078:15244   */\n    tag_334:\n        /* \"#utility.yul\":15218:15236   */\n      0x5061757361626c653a2070617573656400000000000000000000000000000000\n        /* \"#utility.yul\":15214:15215   */\n      0x00\n        /* \"#utility.yul\":15206:15212   */\n      dup3\n        /* \"#utility.yul\":15202:15216   */\n      add\n        /* \"#utility.yul\":15195:15237   */\n      mstore\n        /* \"#utility.yul\":15078:15244   */\n      pop\n      jump\t// out\n        /* \"#utility.yul\":15250:15616   */\n    tag_335:\n        /* \"#utility.yul\":15392:15395   */\n      0x00\n        /* \"#utility.yul\":15413:15480   */\n      tag_534\n        /* \"#utility.yul\":15477:15479   */\n      0x10\n        /* \"#utility.yul\":15472:15475   */\n      dup4\n        /* \"#utility.yul\":15413:15480   */\n      tag_331\n      jump\t// in\n    tag_534:\n        /* \"#utility.yul\":15406:15480   */\n      swap2\n      pop\n        /* \"#utility.yul\":15489:15582   */\n      tag_535\n        /* \"#utility.yul\":15578:15581   */\n      dup3\n        /* \"#utility.yul\":15489:15582   */\n      tag_334\n      jump\t// in\n    tag_535:\n        /* \"#utility.yul\":15607:15609   */\n      0x20\n        /* \"#utility.yul\":15602:15605   */\n      dup3\n        /* \"#utility.yul\":15598:15610   */\n      add\n        /* \"#utility.yul\":15591:15610   */\n      swap1\n      pop\n        /* \"#utility.yul\":15250:15616   */\n      swap2\n      swap1\n      pop\n      jump\t// out\n        /* \"#utility.yul\":15622:16041   */\n    tag_158:\n        /* \"#utility.yul\":15788:15792   */\n      0x00\n        /* \"#utility.yul\":15826:15828   */\n      0x20\n        /* \"#utility.yul\":15815:15824   */\n      dup3\n        /* \"#utility.yul\":15811:15829   */\n      add\n        /* \"#utility.yul\":15803:15829   */\n      swap1\n      pop\n        /* \"#utility.yul\":15875:15884   */\n      dup2\n        /* \"#utility.yul\":15869:15873   */\n      dup2\n        /* \"#utility.yul\":15865:15885   */\n      sub\n        /* \"#utility.yul\":15861:15862   */\n      0x00\n        /* \"#utility.yul\":15850:15859   */\n      dup4\n        /* \"#utility.yul\":15846:15863   */\n      add\n        /* \"#utility.yul\":15839:15886   */\n      mstore\n        /* \"#utility.yul\":15903:16034   */\n      tag_537\n        /* \"#utility.yul\":16029:16033   */\n      dup2\n        /* \"#utility.yul\":15903:16034   */\n      tag_335\n      jump\t// in\n    tag_537:\n        /* \"#utility.yul\":15895:16034   */\n      swap1\n      pop\n        /* \"#utility.yul\":15622:16041   */\n      swap2\n      swap1\n      pop\n      jump\t// out\n        /* \"#utility.yul\":16047:16489   */\n    tag_163:\n        /* \"#utility.yul\":16196:16200   */\n      0x00\n        /* \"#utility.yul\":16234:16236   */\n      0x60\n        /* \"#utility.yul\":16223:16232   */\n      dup3\n        /* \"#utility.yul\":16219:16237   */\n      add\n        /* \"#utility.yul\":16211:16237   */\n      swap1\n      pop\n        /* \"#utility.yul\":16247:16318   */\n      tag_539\n        /* \"#utility.yul\":16315:16316   */\n      0x00\n        /* \"#utility.yul\":16304:16313   */\n      dup4\n        /* \"#utility.yul\":16300:16317   */\n      add\n        /* \"#utility.yul\":16291:16297   */\n      dup7\n        /* \"#utility.yul\":16247:16318   */\n      tag_316\n      jump\t// in\n    tag_539:\n        /* \"#utility.yul\":16328:16400   */\n      tag_540\n        /* \"#utility.yul\":16396:16398   */\n      0x20\n        /* \"#utility.yul\":16385:16394   */\n      dup4\n        /* \"#utility.yul\":16381:16399   */\n      add\n        /* \"#utility.yul\":16372:16378   */\n      dup6\n        /* \"#utility.yul\":16328:16400   */\n      tag_316\n      jump\t// in\n    tag_540:\n        /* \"#utility.yul\":16410:16482   */\n      tag_541\n        /* \"#utility.yul\":16478:16480   */\n      0x40\n        /* \"#utility.yul\":16467:16476   */\n      dup4\n        /* \"#utility.yul\":16463:16481   */\n      add\n        /* \"#utility.yul\":16454:16460   */\n      dup5\n        /* \"#utility.yul\":16410:16482   */\n      tag_291\n      jump\t// in\n    tag_541:\n        /* \"#utility.yul\":16047:16489   */\n      swap5\n      swap4\n      pop\n      pop\n      pop\n      pop\n      jump\t// out\n        /* \"#utility.yul\":16495:16611   */\n    tag_336:\n        /* \"#utility.yul\":16565:16586   */\n      tag_543\n        /* \"#utility.yul\":16580:16585   */\n      dup2\n        /* \"#utility.yul\":16565:16586   */\n      tag_288\n      jump\t// in\n    tag_543:\n        /* \"#utility.yul\":16558:16563   */\n      dup2\n        /* \"#utility.yul\":16555:16587   */\n      eq\n        /* \"#utility.yul\":16545:16605   */\n      tag_544\n      jumpi\n        /* \"#utility.yul\":16601:16602   */\n      0x00\n        /* \"#utility.yul\":16598:16599   */\n      dup1\n        /* \"#utility.yul\":16591:16603   */\n      revert\n        /* \"#utility.yul\":16545:16605   */\n    tag_544:\n        /* \"#utility.yul\":16495:16611   */\n      pop\n      jump\t// out\n        /* \"#utility.yul\":16617:16754   */\n    tag_337:\n        /* \"#utility.yul\":16671:16676   */\n      0x00\n        /* \"#utility.yul\":16702:16708   */\n      dup2\n        /* \"#utility.yul\":16696:16709   */\n      mload\n        /* \"#utility.yul\":16687:16709   */\n      swap1\n      pop\n        /* \"#utility.yul\":16718:16748   */\n      tag_546\n        /* \"#utility.yul\":16742:16747   */\n      dup2\n        /* \"#utility.yul\":16718:16748   */\n      tag_336\n      jump\t// in\n    tag_546:\n        /* \"#utility.yul\":16617:16754   */\n      swap3\n      swap2\n      pop\n      pop\n      jump\t// out\n        /* \"#utility.yul\":16760:17105   */\n    tag_167:\n        /* \"#utility.yul\":16827:16833   */\n      0x00\n        /* \"#utility.yul\":16876:16878   */\n      0x20\n        /* \"#utility.yul\":16864:16873   */\n      dup3\n        /* \"#utility.yul\":16855:16862   */\n      dup5\n        /* \"#utility.yul\":16851:16874   */\n      sub\n        /* \"#utility.yul\":16847:16879   */\n      slt\n        /* \"#utility.yul\":16844:16963   */\n      iszero\n      tag_548\n      jumpi\n        /* \"#utility.yul\":16882:16961   */\n      tag_549\n      tag_283\n      jump\t// in\n    tag_549:\n        /* \"#utility.yul\":16844:16963   */\n    tag_548:\n        /* \"#utility.yul\":17002:17003   */\n      0x00\n        /* \"#utility.yul\":17027:17088   */\n      tag_550\n        /* \"#utility.yul\":17080:17087   */\n      dup5\n        /* \"#utility.yul\":17071:17077   */\n      dup3\n        /* \"#utility.yul\":17060:17069   */\n      dup6\n        /* \"#utility.yul\":17056:17078   */\n      add\n        /* \"#utility.yul\":17027:17088   */\n      tag_337\n      jump\t// in\n    tag_550:\n        /* \"#utility.yul\":17017:17088   */\n      swap2\n      pop\n        /* \"#utility.yul\":16973:17098   */\n      pop\n        /* \"#utility.yul\":16760:17105   */\n      swap3\n      swap2\n      pop\n      pop\n      jump\t// out\n        /* \"#utility.yul\":17111:17210   */\n    tag_338:\n        /* \"#utility.yul\":17163:17169   */\n      0x00\n        /* \"#utility.yul\":17197:17202   */\n      dup2\n        /* \"#utility.yul\":17191:17203   */\n      mload\n        /* \"#utility.yul\":17181:17203   */\n      swap1\n      pop\n        /* \"#utility.yul\":17111:17210   */\n      swap2\n      swap1\n      pop\n      jump\t// out\n        /* \"#utility.yul\":17216:17580   */\n    tag_339:\n        /* \"#utility.yul\":17304:17307   */\n      0x00\n        /* \"#utility.yul\":17332:17371   */\n      tag_553\n        /* \"#utility.yul\":17365:17370   */\n      dup3\n        /* \"#utility.yul\":17332:17371   */\n      tag_338\n      jump\t// in\n    tag_553:\n        /* \"#utility.yul\":17387:17458   */\n      tag_554\n        /* \"#utility.yul\":17451:17457   */\n      dup2\n        /* \"#utility.yul\":17446:17449   */\n      dup6\n        /* \"#utility.yul\":17387:17458   */\n      tag_331\n      jump\t// in\n    tag_554:\n        /* \"#utility.yul\":17380:17458   */\n      swap4\n      pop\n        /* \"#utility.yul\":17467:17519   */\n      tag_555\n        /* \"#utility.yul\":17512:17518   */\n      dup2\n        /* \"#utility.yul\":17507:17510   */\n      dup6\n        /* \"#utility.yul\":17500:17504   */\n      0x20\n        /* \"#utility.yul\":17493:17498   */\n      dup7\n        /* \"#utility.yul\":17489:17505   */\n      add\n        /* \"#utility.yul\":17467:17519   */\n      tag_328\n      jump\t// in\n    tag_555:\n        /* \"#utility.yul\":17544:17573   */\n      tag_556\n        /* \"#utility.yul\":17566:17572   */\n      dup2\n        /* \"#utility.yul\":17544:17573   */\n      tag_309\n      jump\t// in\n    tag_556:\n        /* \"#utility.yul\":17539:17542   */\n      dup5\n        /* \"#utility.yul\":17535:17574   */\n      add\n        /* \"#utility.yul\":17528:17574   */\n      swap2\n      pop\n        /* \"#utility.yul\":17308:17580   */\n      pop\n        /* \"#utility.yul\":17216:17580   */\n      swap3\n      swap2\n      pop\n      pop\n      jump\t// out\n        /* \"#utility.yul\":17586:18009   */\n    tag_169:\n        /* \"#utility.yul\":17727:17731   */\n      0x00\n        /* \"#utility.yul\":17765:17767   */\n      0x40\n        /* \"#utility.yul\":17754:17763   */\n      dup3\n        /* \"#utility.yul\":17750:17768   */\n      add\n        /* \"#utility.yul\":17742:17768   */\n      swap1\n      pop\n        /* \"#utility.yul\":17778:17849   */\n      tag_558\n        /* \"#utility.yul\":17846:17847   */\n      0x00\n        /* \"#utility.yul\":17835:17844   */\n      dup4\n        /* \"#utility.yul\":17831:17848   */\n      add\n        /* \"#utility.yul\":17822:17828   */\n      dup6\n        /* \"#utility.yul\":17778:17849   */\n      tag_316\n      jump\t// in\n    tag_558:\n        /* \"#utility.yul\":17896:17905   */\n      dup2\n        /* \"#utility.yul\":17890:17894   */\n      dup2\n        /* \"#utility.yul\":17886:17906   */\n      sub\n        /* \"#utility.yul\":17881:17883   */\n      0x20\n        /* \"#utility.yul\":17870:17879   */\n      dup4\n        /* \"#utility.yul\":17866:17884   */\n      add\n        /* \"#utility.yul\":17859:17907   */\n      mstore\n        /* \"#utility.yul\":17924:18002   */\n      tag_559\n        /* \"#utility.yul\":17997:18001   */\n      dup2\n        /* \"#utility.yul\":17988:17994   */\n      dup5\n        /* \"#utility.yul\":17924:18002   */\n      tag_339\n      jump\t// in\n    tag_559:\n        /* \"#utility.yul\":17916:18002   */\n      swap1\n      pop\n        /* \"#utility.yul\":17586:18009   */\n      swap4\n      swap3\n      pop\n      pop\n      pop\n      jump\t// out\n        /* \"#utility.yul\":18015:18158   */\n    tag_340:\n        /* \"#utility.yul\":18072:18077   */\n      0x00\n        /* \"#utility.yul\":18103:18109   */\n      dup2\n        /* \"#utility.yul\":18097:18110   */\n      mload\n        /* \"#utility.yul\":18088:18110   */\n      swap1\n      pop\n        /* \"#utility.yul\":18119:18152   */\n      tag_561\n        /* \"#utility.yul\":18146:18151   */\n      dup2\n        /* \"#utility.yul\":18119:18152   */\n      tag_292\n      jump\t// in\n    tag_561:\n        /* \"#utility.yul\":18015:18158   */\n      swap3\n      swap2\n      pop\n      pop\n      jump\t// out\n        /* \"#utility.yul\":18164:18515   */\n    tag_173:\n        /* \"#utility.yul\":18234:18240   */\n      0x00\n        /* \"#utility.yul\":18283:18285   */\n      0x20\n        /* \"#utility.yul\":18271:18280   */\n      dup3\n        /* \"#utility.yul\":18262:18269   */\n      dup5\n        /* \"#utility.yul\":18258:18281   */\n      sub\n        /* \"#utility.yul\":18254:18286   */\n      slt\n        /* \"#utility.yul\":18251:18370   */\n      iszero\n      tag_563\n      jumpi\n        /* \"#utility.yul\":18289:18368   */\n      tag_564\n      tag_283\n      jump\t// in\n    tag_564:\n        /* \"#utility.yul\":18251:18370   */\n    tag_563:\n        /* \"#utility.yul\":18409:18410   */\n      0x00\n        /* \"#utility.yul\":18434:18498   */\n      tag_565\n        /* \"#utility.yul\":18490:18497   */\n      dup5\n        /* \"#utility.yul\":18481:18487   */\n      dup3\n        /* \"#utility.yul\":18470:18479   */\n      dup6\n        /* \"#utility.yul\":18466:18488   */\n      add\n        /* \"#utility.yul\":18434:18498   */\n      tag_340\n      jump\t// in\n    tag_565:\n        /* \"#utility.yul\":18424:18498   */\n      swap2\n      pop\n        /* \"#utility.yul\":18380:18508   */\n      pop\n        /* \"#utility.yul\":18164:18515   */\n      swap3\n      swap2\n      pop\n      pop\n      jump\t// out\n        /* \"#utility.yul\":18521:19074   */\n    tag_175:\n        /* \"#utility.yul\":18698:18702   */\n      0x00\n        /* \"#utility.yul\":18736:18739   */\n      0x80\n        /* \"#utility.yul\":18725:18734   */\n      dup3\n        /* \"#utility.yul\":18721:18740   */\n      add\n        /* \"#utility.yul\":18713:18740   */\n      swap1\n      pop\n        /* \"#utility.yul\":18750:18821   */\n      tag_567\n        /* \"#utility.yul\":18818:18819   */\n      0x00\n        /* \"#utility.yul\":18807:18816   */\n      dup4\n        /* \"#utility.yul\":18803:18820   */\n      add\n        /* \"#utility.yul\":18794:18800   */\n      dup8\n        /* \"#utility.yul\":18750:18821   */\n      tag_316\n      jump\t// in\n    tag_567:\n        /* \"#utility.yul\":18831:18903   */\n      tag_568\n        /* \"#utility.yul\":18899:18901   */\n      0x20\n        /* \"#utility.yul\":18888:18897   */\n      dup4\n        /* \"#utility.yul\":18884:18902   */\n      add\n        /* \"#utility.yul\":18875:18881   */\n      dup7\n        /* \"#utility.yul\":18831:18903   */\n      tag_291\n      jump\t// in\n    tag_568:\n        /* \"#utility.yul\":18913:18985   */\n      tag_569\n        /* \"#utility.yul\":18981:18983   */\n      0x40\n        /* \"#utility.yul\":18970:18979   */\n      dup4\n        /* \"#utility.yul\":18966:18984   */\n      add\n        /* \"#utility.yul\":18957:18963   */\n      dup6\n        /* \"#utility.yul\":18913:18985   */\n      tag_316\n      jump\t// in\n    tag_569:\n        /* \"#utility.yul\":18995:19067   */\n      tag_570\n        /* \"#utility.yul\":19063:19065   */\n      0x60\n        /* \"#utility.yul\":19052:19061   */\n      dup4\n        /* \"#utility.yul\":19048:19066   */\n      add\n        /* \"#utility.yul\":19039:19045   */\n      dup5\n        /* \"#utility.yul\":18995:19067   */\n      tag_291\n      jump\t// in\n    tag_570:\n        /* \"#utility.yul\":18521:19074   */\n      swap6\n      swap5\n      pop\n      pop\n      pop\n      pop\n      pop\n      jump\t// out\n        /* \"#utility.yul\":19080:19260   */\n    tag_341:\n        /* \"#utility.yul\":19128:19205   */\n      0x4e487b7100000000000000000000000000000000000000000000000000000000\n        /* \"#utility.yul\":19125:19126   */\n      0x00\n        /* \"#utility.yul\":19118:19206   */\n      mstore\n        /* \"#utility.yul\":19225:19229   */\n      0x12\n        /* \"#utility.yul\":19222:19223   */\n      0x04\n        /* \"#utility.yul\":19215:19230   */\n      mstore\n        /* \"#utility.yul\":19249:19253   */\n      0x24\n        /* \"#utility.yul\":19246:19247   */\n      0x00\n        /* \"#utility.yul\":19239:19254   */\n      revert\n        /* \"#utility.yul\":19266:19436   */\n    tag_196:\n        /* \"#utility.yul\":19296:19297   */\n      0x00\n        /* \"#utility.yul\":19313:19331   */\n      tag_573\n        /* \"#utility.yul\":19329:19330   */\n      dup3\n        /* \"#utility.yul\":19313:19331   */\n      tag_325\n      jump\t// in\n    tag_573:\n        /* \"#utility.yul\":19308:19331   */\n      swap2\n      pop\n        /* \"#utility.yul\":19345:19363   */\n      tag_574\n        /* \"#utility.yul\":19361:19362   */\n      dup4\n        /* \"#utility.yul\":19345:19363   */\n      tag_325\n      jump\t// in\n    tag_574:\n        /* \"#utility.yul\":19340:19363   */\n      swap3\n      pop\n        /* \"#utility.yul\":19382:19383   */\n      dup3\n        /* \"#utility.yul\":19372:19407   */\n      tag_575\n      jumpi\n        /* \"#utility.yul\":19387:19405   */\n      tag_576\n      tag_341\n      jump\t// in\n    tag_576:\n        /* \"#utility.yul\":19372:19407   */\n    tag_575:\n        /* \"#utility.yul\":19428:19429   */\n      dup3\n        /* \"#utility.yul\":19425:19426   */\n      dup3\n        /* \"#utility.yul\":19421:19430   */\n      mod\n        /* \"#utility.yul\":19416:19430   */\n      swap1\n      pop\n        /* \"#utility.yul\":19266:19436   */\n      swap3\n      swap2\n      pop\n      pop\n      jump\t// out\n        /* \"#utility.yul\":19442:19622   */\n    tag_342:\n        /* \"#utility.yul\":19490:19567   */\n      0x4e487b7100000000000000000000000000000000000000000000000000000000\n        /* \"#utility.yul\":19487:19488   */\n      0x00\n        /* \"#utility.yul\":19480:19568   */\n      mstore\n        /* \"#utility.yul\":19587:19591   */\n      0x11\n        /* \"#utility.yul\":19584:19585   */\n      0x04\n        /* \"#utility.yul\":19577:19592   */\n      mstore\n        /* \"#utility.yul\":19611:19615   */\n      0x24\n        /* \"#utility.yul\":19608:19609   */\n      0x00\n        /* \"#utility.yul\":19601:19616   */\n      revert\n        /* \"#utility.yul\":19628:19730   */\n    tag_343:\n        /* \"#utility.yul\":19670:19678   */\n      0x00\n        /* \"#utility.yul\":19717:19722   */\n      dup2\n        /* \"#utility.yul\":19714:19715   */\n      0x01\n        /* \"#utility.yul\":19710:19723   */\n      shr\n        /* \"#utility.yul\":19689:19723   */\n      swap1\n      pop\n        /* \"#utility.yul\":19628:19730   */\n      swap2\n      swap1\n      pop\n      jump\t// out\n        /* \"#utility.yul\":19736:20584   */\n    tag_344:\n        /* \"#utility.yul\":19797:19802   */\n      0x00\n        /* \"#utility.yul\":19804:19808   */\n      dup1\n        /* \"#utility.yul\":19828:19834   */\n      dup3\n        /* \"#utility.yul\":19819:19834   */\n      swap2\n      pop\n        /* \"#utility.yul\":19852:19857   */\n      dup4\n        /* \"#utility.yul\":19843:19857   */\n      swap1\n      pop\n        /* \"#utility.yul\":19866:20578   */\n    tag_580:\n        /* \"#utility.yul\":19887:19888   */\n      0x01\n        /* \"#utility.yul\":19877:19885   */\n      dup6\n        /* \"#utility.yul\":19874:19889   */\n      gt\n        /* \"#utility.yul\":19866:20578   */\n      iszero\n      tag_582\n      jumpi\n        /* \"#utility.yul\":19982:19986   */\n      dup1\n        /* \"#utility.yul\":19977:19980   */\n      dup7\n        /* \"#utility.yul\":19973:19987   */\n      div\n        /* \"#utility.yul\":19967:19971   */\n      dup2\n        /* \"#utility.yul\":19964:19988   */\n      gt\n        /* \"#utility.yul\":19961:20011   */\n      iszero\n      tag_583\n      jumpi\n        /* \"#utility.yul\":19991:20009   */\n      tag_584\n      tag_342\n      jump\t// in\n    tag_584:\n        /* \"#utility.yul\":19961:20011   */\n    tag_583:\n        /* \"#utility.yul\":20041:20042   */\n      0x01\n        /* \"#utility.yul\":20031:20039   */\n      dup6\n        /* \"#utility.yul\":20027:20043   */\n      and\n        /* \"#utility.yul\":20024:20475   */\n      iszero\n      tag_585\n      jumpi\n        /* \"#utility.yul\":20456:20460   */\n      dup1\n        /* \"#utility.yul\":20449:20454   */\n      dup3\n        /* \"#utility.yul\":20445:20461   */\n      mul\n        /* \"#utility.yul\":20436:20461   */\n      swap2\n      pop\n        /* \"#utility.yul\":20024:20475   */\n    tag_585:\n        /* \"#utility.yul\":20506:20510   */\n      dup1\n        /* \"#utility.yul\":20500:20504   */\n      dup2\n        /* \"#utility.yul\":20496:20511   */\n      mul\n        /* \"#utility.yul\":20488:20511   */\n      swap1\n      pop\n        /* \"#utility.yul\":20536:20568   */\n      tag_586\n        /* \"#utility.yul\":20559:20567   */\n      dup6\n        /* \"#utility.yul\":20536:20568   */\n      tag_343\n      jump\t// in\n    tag_586:\n        /* \"#utility.yul\":20524:20568   */\n      swap5\n      pop\n        /* \"#utility.yul\":19866:20578   */\n      jump(tag_580)\n    tag_582:\n        /* \"#utility.yul\":19736:20584   */\n      swap5\n      pop\n      swap5\n      swap3\n      pop\n      pop\n      pop\n      jump\t// out\n        /* \"#utility.yul\":20590:21663   */\n    tag_345:\n        /* \"#utility.yul\":20644:20649   */\n      0x00\n        /* \"#utility.yul\":20835:20843   */\n      dup3\n        /* \"#utility.yul\":20825:20865   */\n      tag_588\n      jumpi\n        /* \"#utility.yul\":20856:20857   */\n      0x01\n        /* \"#utility.yul\":20847:20857   */\n      swap1\n      pop\n        /* \"#utility.yul\":20858:20863   */\n      jump(tag_587)\n        /* \"#utility.yul\":20825:20865   */\n    tag_588:\n        /* \"#utility.yul\":20884:20888   */\n      dup2\n        /* \"#utility.yul\":20874:20910   */\n      tag_589\n      jumpi\n        /* \"#utility.yul\":20901:20902   */\n      0x00\n        /* \"#utility.yul\":20892:20902   */\n      swap1\n      pop\n        /* \"#utility.yul\":20903:20908   */\n      jump(tag_587)\n        /* \"#utility.yul\":20874:20910   */\n    tag_589:\n        /* \"#utility.yul\":20970:20974   */\n      dup2\n        /* \"#utility.yul\":21018:21019   */\n      0x01\n        /* \"#utility.yul\":21013:21040   */\n      dup2\n      eq\n      tag_591\n      jumpi\n        /* \"#utility.yul\":21054:21055   */\n      0x02\n        /* \"#utility.yul\":21049:21240   */\n      dup2\n      eq\n      tag_592\n      jumpi\n        /* \"#utility.yul\":20963:21240   */\n      jump(tag_590)\n        /* \"#utility.yul\":21013:21040   */\n    tag_591:\n        /* \"#utility.yul\":21031:21032   */\n      0x01\n        /* \"#utility.yul\":21022:21032   */\n      swap2\n      pop\n        /* \"#utility.yul\":21033:21038   */\n      pop\n      jump(tag_587)\n        /* \"#utility.yul\":21049:21240   */\n    tag_592:\n        /* \"#utility.yul\":21094:21097   */\n      0xff\n        /* \"#utility.yul\":21084:21092   */\n      dup5\n        /* \"#utility.yul\":21081:21098   */\n      gt\n        /* \"#utility.yul\":21078:21121   */\n      iszero\n      tag_593\n      jumpi\n        /* \"#utility.yul\":21101:21119   */\n      tag_594\n      tag_342\n      jump\t// in\n    tag_594:\n        /* \"#utility.yul\":21078:21121   */\n    tag_593:\n        /* \"#utility.yul\":21150:21158   */\n      dup4\n        /* \"#utility.yul\":21147:21148   */\n      0x02\n        /* \"#utility.yul\":21143:21159   */\n      exp\n        /* \"#utility.yul\":21134:21159   */\n      swap2\n      pop\n        /* \"#utility.yul\":21185:21188   */\n      dup5\n        /* \"#utility.yul\":21178:21183   */\n      dup3\n        /* \"#utility.yul\":21175:21189   */\n      gt\n        /* \"#utility.yul\":21172:21212   */\n      iszero\n      tag_595\n      jumpi\n        /* \"#utility.yul\":21192:21210   */\n      tag_596\n      tag_342\n      jump\t// in\n    tag_596:\n        /* \"#utility.yul\":21172:21212   */\n    tag_595:\n        /* \"#utility.yul\":21225:21230   */\n      pop\n      jump(tag_587)\n        /* \"#utility.yul\":20963:21240   */\n    tag_590:\n      pop\n        /* \"#utility.yul\":21349:21351   */\n      0x20\n        /* \"#utility.yul\":21339:21347   */\n      dup4\n        /* \"#utility.yul\":21336:21352   */\n      lt\n        /* \"#utility.yul\":21330:21333   */\n      0x0133\n        /* \"#utility.yul\":21324:21328   */\n      dup4\n        /* \"#utility.yul\":21321:21334   */\n      lt\n        /* \"#utility.yul\":21317:21353   */\n      and\n        /* \"#utility.yul\":21299:21301   */\n      0x4e\n        /* \"#utility.yul\":21289:21297   */\n      dup5\n        /* \"#utility.yul\":21286:21302   */\n      lt\n        /* \"#utility.yul\":21281:21283   */\n      0x0b\n        /* \"#utility.yul\":21275:21279   */\n      dup5\n        /* \"#utility.yul\":21272:21284   */\n      lt\n        /* \"#utility.yul\":21268:21303   */\n      and\n        /* \"#utility.yul\":21252:21363   */\n      or\n        /* \"#utility.yul\":21249:21495   */\n      iszero\n      tag_597\n      jumpi\n        /* \"#utility.yul\":21405:21413   */\n      dup3\n        /* \"#utility.yul\":21399:21403   */\n      dup3\n        /* \"#utility.yul\":21395:21414   */\n      exp\n        /* \"#utility.yul\":21386:21414   */\n      swap1\n      pop\n        /* \"#utility.yul\":21440:21443   */\n      dup4\n        /* \"#utility.yul\":21433:21438   */\n      dup2\n        /* \"#utility.yul\":21430:21444   */\n      gt\n        /* \"#utility.yul\":21427:21467   */\n      iszero\n      tag_598\n      jumpi\n        /* \"#utility.yul\":21447:21465   */\n      tag_599\n      tag_342\n      jump\t// in\n    tag_599:\n        /* \"#utility.yul\":21427:21467   */\n    tag_598:\n        /* \"#utility.yul\":21480:21485   */\n      jump(tag_587)\n        /* \"#utility.yul\":21249:21495   */\n    tag_597:\n        /* \"#utility.yul\":21520:21562   */\n      tag_600\n        /* \"#utility.yul\":21558:21561   */\n      dup5\n        /* \"#utility.yul\":21548:21556   */\n      dup5\n        /* \"#utility.yul\":21542:21546   */\n      dup5\n        /* \"#utility.yul\":21539:21540   */\n      0x01\n        /* \"#utility.yul\":21520:21562   */\n      tag_344\n      jump\t// in\n    tag_600:\n        /* \"#utility.yul\":21505:21562   */\n      swap3\n      pop\n      swap1\n      pop\n        /* \"#utility.yul\":21594:21598   */\n      dup2\n        /* \"#utility.yul\":21589:21592   */\n      dup5\n        /* \"#utility.yul\":21585:21599   */\n      div\n        /* \"#utility.yul\":21578:21583   */\n      dup2\n        /* \"#utility.yul\":21575:21600   */\n      gt\n        /* \"#utility.yul\":21572:21623   */\n      iszero\n      tag_601\n      jumpi\n        /* \"#utility.yul\":21603:21621   */\n      tag_602\n      tag_342\n      jump\t// in\n    tag_602:\n        /* \"#utility.yul\":21572:21623   */\n    tag_601:\n        /* \"#utility.yul\":21652:21656   */\n      dup2\n        /* \"#utility.yul\":21645:21650   */\n      dup2\n        /* \"#utility.yul\":21641:21657   */\n      mul\n        /* \"#utility.yul\":21632:21657   */\n      swap1\n      pop\n        /* \"#utility.yul\":20590:21663   */\n    tag_587:\n      swap4\n      swap3\n      pop\n      pop\n      pop\n      jump\t// out\n        /* \"#utility.yul\":21669:21950   */\n    tag_200:\n        /* \"#utility.yul\":21727:21732   */\n      0x00\n        /* \"#utility.yul\":21751:21774   */\n      tag_604\n        /* \"#utility.yul\":21769:21773   */\n      dup3\n        /* \"#utility.yul\":21751:21774   */\n      tag_290\n      jump\t// in\n    tag_604:\n        /* \"#utility.yul\":21743:21774   */\n      swap2\n      pop\n        /* \"#utility.yul\":21795:21820   */\n      tag_605\n        /* \"#utility.yul\":21811:21819   */\n      dup4\n        /* \"#utility.yul\":21795:21820   */\n      tag_325\n      jump\t// in\n    tag_605:\n        /* \"#utility.yul\":21783:21820   */\n      swap3\n      pop\n        /* \"#utility.yul\":21839:21943   */\n      tag_606\n        /* \"#utility.yul\":21876:21942   */\n      0xffffffffffffffffffffffffffffffffffffffffffffffffffffffffffffffff\n        /* \"#utility.yul\":21866:21874   */\n      dup5\n        /* \"#utility.yul\":21860:21864   */\n      dup5\n        /* \"#utility.yul\":21839:21943   */\n      tag_345\n      jump\t// in\n    tag_606:\n        /* \"#utility.yul\":21830:21943   */\n      swap1\n      pop\n        /* \"#utility.yul\":21669:21950   */\n      swap3\n      swap2\n      pop\n      pop\n      jump\t// out\n        /* \"#utility.yul\":21956:22136   */\n    tag_203:\n        /* \"#utility.yul\":22004:22081   */\n      0x4e487b7100000000000000000000000000000000000000000000000000000000\n        /* \"#utility.yul\":22001:22002   */\n      0x00\n        /* \"#utility.yul\":21994:22082   */\n      mstore\n        /* \"#utility.yul\":22101:22105   */\n      0x32\n        /* \"#utility.yul\":22098:22099   */\n      0x04\n        /* \"#utility.yul\":22091:22106   */\n      mstore\n        /* \"#utility.yul\":22125:22129   */\n      0x24\n        /* \"#utility.yul\":22122:22123   */\n      0x00\n        /* \"#utility.yul\":22115:22130   */\n      revert\n        /* \"#utility.yul\":22142:22490   */\n    tag_205:\n        /* \"#utility.yul\":22182:22189   */\n      0x00\n        /* \"#utility.yul\":22205:22225   */\n      tag_609\n        /* \"#utility.yul\":22223:22224   */\n      dup3\n        /* \"#utility.yul\":22205:22225   */\n      tag_290\n      jump\t// in\n    tag_609:\n        /* \"#utility.yul\":22200:22225   */\n      swap2\n      pop\n        /* \"#utility.yul\":22239:22259   */\n      tag_610\n        /* \"#utility.yul\":22257:22258   */\n      dup4\n        /* \"#utility.yul\":22239:22259   */\n      tag_290\n      jump\t// in\n    tag_610:\n        /* \"#utility.yul\":22234:22259   */\n      swap3\n      pop\n        /* \"#utility.yul\":22427:22428   */\n      dup2\n        /* \"#utility.yul\":22359:22425   */\n      0xffffffffffffffffffffffffffffffffffffffffffffffffffffffffffffffff\n        /* \"#utility.yul\":22355:22429   */\n      div\n        /* \"#utility.yul\":22352:22353   */\n      dup4\n        /* \"#utility.yul\":22349:22430   */\n      gt\n        /* \"#utility.yul\":22344:22345   */\n      dup3\n        /* \"#utility.yul\":22337:22346   */\n      iszero\n        /* \"#utility.yul\":22330:22347   */\n      iszero\n        /* \"#utility.yul\":22326:22431   */\n      and\n        /* \"#utility.yul\":22323:22454   */\n      iszero\n      tag_611\n      jumpi\n        /* \"#utility.yul\":22434:22452   */\n      tag_612\n      tag_342\n      jump\t// in\n    tag_612:\n        /* \"#utility.yul\":22323:22454   */\n    tag_611:\n        /* \"#utility.yul\":22482:22483   */\n      dup3\n        /* \"#utility.yul\":22479:22480   */\n      dup3\n        /* \"#utility.yul\":22475:22484   */\n      mul\n        /* \"#utility.yul\":22464:22484   */\n      swap1\n      pop\n        /* \"#utility.yul\":22142:22490   */\n      swap3\n      swap2\n      pop\n      pop\n      jump\t// out\n        /* \"#utility.yul\":22496:22675   */\n    tag_207:\n        /* \"#utility.yul\":22534:22535   */\n      0x00\n        /* \"#utility.yul\":22551:22569   */\n      tag_614\n        /* \"#utility.yul\":22567:22568   */\n      dup3\n        /* \"#utility.yul\":22551:22569   */\n      tag_325\n      jump\t// in\n    tag_614:\n        /* \"#utility.yul\":22546:22569   */\n      swap2\n      pop\n        /* \"#utility.yul\":22583:22601   */\n      tag_615\n        /* \"#utility.yul\":22599:22600   */\n      dup4\n        /* \"#utility.yul\":22583:22601   */\n      tag_325\n      jump\t// in\n    tag_615:\n        /* \"#utility.yul\":22578:22601   */\n      swap3\n      pop\n        /* \"#utility.yul\":22620:22621   */\n      dup3\n        /* \"#utility.yul\":22610:22645   */\n      tag_616\n      jumpi\n        /* \"#utility.yul\":22625:22643   */\n      tag_617\n      tag_341\n      jump\t// in\n    tag_617:\n        /* \"#utility.yul\":22610:22645   */\n    tag_616:\n        /* \"#utility.yul\":22667:22668   */\n      dup3\n        /* \"#utility.yul\":22664:22665   */\n      dup3\n        /* \"#utility.yul\":22660:22669   */\n      div\n        /* \"#utility.yul\":22655:22669   */\n      swap1\n      pop\n        /* \"#utility.yul\":22496:22675   */\n      swap3\n      swap2\n      pop\n      pop\n      jump\t// out\n        /* \"#utility.yul\":22681:22986   */\n    tag_211:\n        /* \"#utility.yul\":22721:22724   */\n      0x00\n        /* \"#utility.yul\":22740:22760   */\n      tag_619\n        /* \"#utility.yul\":22758:22759   */\n      dup3\n        /* \"#utility.yul\":22740:22760   */\n      tag_290\n      jump\t// in\n    tag_619:\n        /* \"#utility.yul\":22735:22760   */\n      swap2\n      pop\n        /* \"#utility.yul\":22774:22794   */\n      tag_620\n        /* \"#utility.yul\":22792:22793   */\n      dup4\n        /* \"#utility.yul\":22774:22794   */\n      tag_290\n      jump\t// in\n    tag_620:\n        /* \"#utility.yul\":22769:22794   */\n      swap3\n      pop\n        /* \"#utility.yul\":22928:22929   */\n      dup3\n        /* \"#utility.yul\":22860:22926   */\n      0xffffffffffffffffffffffffffffffffffffffffffffffffffffffffffffffff\n        /* \"#utility.yul\":22856:22930   */\n      sub\n        /* \"#utility.yul\":22853:22854   */\n      dup3\n        /* \"#utility.yul\":22850:22931   */\n      gt\n        /* \"#utility.yul\":22847:22954   */\n      iszero\n      tag_621\n      jumpi\n        /* \"#utility.yul\":22934:22952   */\n      tag_622\n      tag_342\n      jump\t// in\n    tag_622:\n        /* \"#utility.yul\":22847:22954   */\n    tag_621:\n        /* \"#utility.yul\":22978:22979   */\n      dup3\n        /* \"#utility.yul\":22975:22976   */\n      dup3\n        /* \"#utility.yul\":22971:22980   */\n      add\n        /* \"#utility.yul\":22964:22980   */\n      swap1\n      pop\n        /* \"#utility.yul\":22681:22986   */\n      swap3\n      swap2\n      pop\n      pop\n      jump\t// out\n        /* \"#utility.yul\":22992:23159   */\n    tag_216:\n        /* \"#utility.yul\":23029:23032   */\n      0x00\n        /* \"#utility.yul\":23052:23074   */\n      tag_624\n        /* \"#utility.yul\":23068:23073   */\n      dup3\n        /* \"#utility.yul\":23052:23074   */\n      tag_325\n      jump\t// in\n    tag_624:\n        /* \"#utility.yul\":23043:23074   */\n      swap2\n      pop\n        /* \"#utility.yul\":23096:23100   */\n      0xff\n        /* \"#utility.yul\":23089:23094   */\n      dup3\n        /* \"#utility.yul\":23086:23101   */\n      sub\n        /* \"#utility.yul\":23083:23124   */\n      tag_625\n      jumpi\n        /* \"#utility.yul\":23104:23122   */\n      tag_626\n      tag_342\n      jump\t// in\n    tag_626:\n        /* \"#utility.yul\":23083:23124   */\n    tag_625:\n        /* \"#utility.yul\":23151:23152   */\n      0x01\n        /* \"#utility.yul\":23144:23149   */\n      dup3\n        /* \"#utility.yul\":23140:23153   */\n      add\n        /* \"#utility.yul\":23133:23153   */\n      swap1\n      pop\n        /* \"#utility.yul\":22992:23159   */\n      swap2\n      swap1\n      pop\n      jump\t// out\n        /* \"#utility.yul\":23165:23336   */\n    tag_346:\n        /* \"#utility.yul\":23305:23328   */\n      0x4d7573742062652076616c69642070657263656e740000000000000000000000\n        /* \"#utility.yul\":23301:23302   */\n      0x00\n        /* \"#utility.yul\":23293:23299   */\n      dup3\n        /* \"#utility.yul\":23289:23303   */\n      add\n        /* \"#utility.yul\":23282:23329   */\n      mstore\n        /* \"#utility.yul\":23165:23336   */\n      pop\n      jump\t// out\n        /* \"#utility.yul\":23342:23708   */\n    tag_347:\n        /* \"#utility.yul\":23484:23487   */\n      0x00\n        /* \"#utility.yul\":23505:23572   */\n      tag_629\n        /* \"#utility.yul\":23569:23571   */\n      0x15\n        /* \"#utility.yul\":23564:23567   */\n      dup4\n        /* \"#utility.yul\":23505:23572   */\n      tag_331\n      jump\t// in\n    tag_629:\n        /* \"#utility.yul\":23498:23572   */\n      swap2\n      pop\n        /* \"#utility.yul\":23581:23674   */\n      tag_630\n        /* \"#utility.yul\":23670:23673   */\n      dup3\n        /* \"#utility.yul\":23581:23674   */\n      tag_346\n      jump\t// in\n    tag_630:\n        /* \"#utility.yul\":23699:23701   */\n      0x20\n        /* \"#utility.yul\":23694:23697   */\n      dup3\n        /* \"#utility.yul\":23690:23702   */\n      add\n        /* \"#utility.yul\":23683:23702   */\n      swap1\n      pop\n        /* \"#utility.yul\":23342:23708   */\n      swap2\n      swap1\n      pop\n      jump\t// out\n        /* \"#utility.yul\":23714:24133   */\n    tag_223:\n        /* \"#utility.yul\":23880:23884   */\n      0x00\n        /* \"#utility.yul\":23918:23920   */\n      0x20\n        /* \"#utility.yul\":23907:23916   */\n      dup3\n        /* \"#utility.yul\":23903:23921   */\n      add\n        /* \"#utility.yul\":23895:23921   */\n      swap1\n      pop\n        /* \"#utility.yul\":23967:23976   */\n      dup2\n        /* \"#utility.yul\":23961:23965   */\n      dup2\n        /* \"#utility.yul\":23957:23977   */\n      sub\n        /* \"#utility.yul\":23953:23954   */\n      0x00\n        /* \"#utility.yul\":23942:23951   */\n      dup4\n        /* \"#utility.yul\":23938:23955   */\n      add\n        /* \"#utility.yul\":23931:23978   */\n      mstore\n        /* \"#utility.yul\":23995:24126   */\n      tag_632\n        /* \"#utility.yul\":24121:24125   */\n      dup2\n        /* \"#utility.yul\":23995:24126   */\n      tag_347\n      jump\t// in\n    tag_632:\n        /* \"#utility.yul\":23987:24126   */\n      swap1\n      pop\n        /* \"#utility.yul\":23714:24133   */\n      swap2\n      swap1\n      pop\n      jump\t// out\n        /* \"#utility.yul\":24139:24471   */\n    tag_233:\n        /* \"#utility.yul\":24260:24264   */\n      0x00\n        /* \"#utility.yul\":24298:24300   */\n      0x40\n        /* \"#utility.yul\":24287:24296   */\n      dup3\n        /* \"#utility.yul\":24283:24301   */\n      add\n        /* \"#utility.yul\":24275:24301   */\n      swap1\n      pop\n        /* \"#utility.yul\":24311:24382   */\n      tag_634\n        /* \"#utility.yul\":24379:24380   */\n      0x00\n        /* \"#utility.yul\":24368:24377   */\n      dup4\n        /* \"#utility.yul\":24364:24381   */\n      add\n        /* \"#utility.yul\":24355:24361   */\n      dup6\n        /* \"#utility.yul\":24311:24382   */\n      tag_316\n      jump\t// in\n    tag_634:\n        /* \"#utility.yul\":24392:24464   */\n      tag_635\n        /* \"#utility.yul\":24460:24462   */\n      0x20\n        /* \"#utility.yul\":24449:24458   */\n      dup4\n        /* \"#utility.yul\":24445:24463   */\n      add\n        /* \"#utility.yul\":24436:24442   */\n      dup5\n        /* \"#utility.yul\":24392:24464   */\n      tag_291\n      jump\t// in\n    tag_635:\n        /* \"#utility.yul\":24139:24471   */\n      swap4\n      swap3\n      pop\n      pop\n      pop\n      jump\t// out\n        /* \"#utility.yul\":24477:24625   */\n    tag_348:\n        /* \"#utility.yul\":24579:24590   */\n      0x00\n        /* \"#utility.yul\":24616:24619   */\n      dup2\n        /* \"#utility.yul\":24601:24619   */\n      swap1\n      pop\n        /* \"#utility.yul\":24477:24625   */\n      swap3\n      swap2\n      pop\n      pop\n      jump\t// out\n        /* \"#utility.yul\":24631:24804   */\n    tag_349:\n        /* \"#utility.yul\":24771:24796   */\n      0x416363657373436f6e74726f6c3a206163636f756e7420000000000000000000\n        /* \"#utility.yul\":24767:24768   */\n      0x00\n        /* \"#utility.yul\":24759:24765   */\n      dup3\n        /* \"#utility.yul\":24755:24769   */\n      add\n        /* \"#utility.yul\":24748:24797   */\n      mstore\n        /* \"#utility.yul\":24631:24804   */\n      pop\n      jump\t// out\n        /* \"#utility.yul\":24810:25212   */\n    tag_350:\n        /* \"#utility.yul\":24970:24973   */\n      0x00\n        /* \"#utility.yul\":24991:25076   */\n      tag_639\n        /* \"#utility.yul\":25073:25075   */\n      0x17\n        /* \"#utility.yul\":25068:25071   */\n      dup4\n        /* \"#utility.yul\":24991:25076   */\n      tag_348\n      jump\t// in\n    tag_639:\n        /* \"#utility.yul\":24984:25076   */\n      swap2\n      pop\n        /* \"#utility.yul\":25085:25178   */\n      tag_640\n        /* \"#utility.yul\":25174:25177   */\n      dup3\n        /* \"#utility.yul\":25085:25178   */\n      tag_349\n      jump\t// in\n    tag_640:\n        /* \"#utility.yul\":25203:25205   */\n      0x17\n        /* \"#utility.yul\":25198:25201   */\n      dup3\n        /* \"#utility.yul\":25194:25206   */\n      add\n        /* \"#utility.yul\":25187:25206   */\n      swap1\n      pop\n        /* \"#utility.yul\":24810:25212   */\n      swap2\n      swap1\n      pop\n      jump\t// out\n        /* \"#utility.yul\":25218:25595   */\n    tag_351:\n        /* \"#utility.yul\":25324:25327   */\n      0x00\n        /* \"#utility.yul\":25352:25391   */\n      tag_642\n        /* \"#utility.yul\":25385:25390   */\n      dup3\n        /* \"#utility.yul\":25352:25391   */\n      tag_338\n      jump\t// in\n    tag_642:\n        /* \"#utility.yul\":25407:25496   */\n      tag_643\n        /* \"#utility.yul\":25489:25495   */\n      dup2\n        /* \"#utility.yul\":25484:25487   */\n      dup6\n        /* \"#utility.yul\":25407:25496   */\n      tag_348\n      jump\t// in\n    tag_643:\n        /* \"#utility.yul\":25400:25496   */\n      swap4\n      pop\n        /* \"#utility.yul\":25505:25557   */\n      tag_644\n        /* \"#utility.yul\":25550:25556   */\n      dup2\n        /* \"#utility.yul\":25545:25548   */\n      dup6\n        /* \"#utility.yul\":25538:25542   */\n      0x20\n        /* \"#utility.yul\":25531:25536   */\n      dup7\n        /* \"#utility.yul\":25527:25543   */\n      add\n        /* \"#utility.yul\":25505:25557   */\n      tag_328\n      jump\t// in\n    tag_644:\n        /* \"#utility.yul\":25582:25588   */\n      dup1\n        /* \"#utility.yul\":25577:25580   */\n      dup5\n        /* \"#utility.yul\":25573:25589   */\n      add\n        /* \"#utility.yul\":25566:25589   */\n      swap2\n      pop\n        /* \"#utility.yul\":25328:25595   */\n      pop\n        /* \"#utility.yul\":25218:25595   */\n      swap3\n      swap2\n      pop\n      pop\n      jump\t// out\n        /* \"#utility.yul\":25601:25768   */\n    tag_352:\n        /* \"#utility.yul\":25741:25760   */\n      0x206973206d697373696e6720726f6c6520000000000000000000000000000000\n        /* \"#utility.yul\":25737:25738   */\n      0x00\n        /* \"#utility.yul\":25729:25735   */\n      dup3\n        /* \"#utility.yul\":25725:25739   */\n      add\n        /* \"#utility.yul\":25718:25761   */\n      mstore\n        /* \"#utility.yul\":25601:25768   */\n      pop\n      jump\t// out\n        /* \"#utility.yul\":25774:26176   */\n    tag_353:\n        /* \"#utility.yul\":25934:25937   */\n      0x00\n        /* \"#utility.yul\":25955:26040   */\n      tag_647\n        /* \"#utility.yul\":26037:26039   */\n      0x11\n        /* \"#utility.yul\":26032:26035   */\n      dup4\n        /* \"#utility.yul\":25955:26040   */\n      tag_348\n      jump\t// in\n    tag_647:\n        /* \"#utility.yul\":25948:26040   */\n      swap2\n      pop\n        /* \"#utility.yul\":26049:26142   */\n      tag_648\n        /* \"#utility.yul\":26138:26141   */\n      dup3\n        /* \"#utility.yul\":26049:26142   */\n      tag_352\n      jump\t// in\n    tag_648:\n        /* \"#utility.yul\":26167:26169   */\n      0x11\n        /* \"#utility.yul\":26162:26165   */\n      dup3\n        /* \"#utility.yul\":26158:26170   */\n      add\n        /* \"#utility.yul\":26151:26170   */\n      swap1\n      pop\n        /* \"#utility.yul\":25774:26176   */\n      swap2\n      swap1\n      pop\n      jump\t// out\n        /* \"#utility.yul\":26182:27149   */\n    tag_246:\n        /* \"#utility.yul\":26564:26567   */\n      0x00\n        /* \"#utility.yul\":26586:26734   */\n      tag_650\n        /* \"#utility.yul\":26730:26733   */\n      dup3\n        /* \"#utility.yul\":26586:26734   */\n      tag_350\n      jump\t// in\n    tag_650:\n        /* \"#utility.yul\":26579:26734   */\n      swap2\n      pop\n        /* \"#utility.yul\":26751:26846   */\n      tag_651\n        /* \"#utility.yul\":26842:26845   */\n      dup3\n        /* \"#utility.yul\":26833:26839   */\n      dup6\n        /* \"#utility.yul\":26751:26846   */\n      tag_351\n      jump\t// in\n    tag_651:\n        /* \"#utility.yul\":26744:26846   */\n      swap2\n      pop\n        /* \"#utility.yul\":26863:27011   */\n      tag_652\n        /* \"#utility.yul\":27007:27010   */\n      dup3\n        /* \"#utility.yul\":26863:27011   */\n      tag_353\n      jump\t// in\n    tag_652:\n        /* \"#utility.yul\":26856:27011   */\n      swap2\n      pop\n        /* \"#utility.yul\":27028:27123   */\n      tag_653\n        /* \"#utility.yul\":27119:27122   */\n      dup3\n        /* \"#utility.yul\":27110:27116   */\n      dup5\n        /* \"#utility.yul\":27028:27123   */\n      tag_351\n      jump\t// in\n    tag_653:\n        /* \"#utility.yul\":27021:27123   */\n      swap2\n      pop\n        /* \"#utility.yul\":27140:27143   */\n      dup2\n        /* \"#utility.yul\":27133:27143   */\n      swap1\n      pop\n        /* \"#utility.yul\":26182:27149   */\n      swap4\n      swap3\n      pop\n      pop\n      pop\n      jump\t// out\n        /* \"#utility.yul\":27155:27468   */\n    tag_248:\n        /* \"#utility.yul\":27268:27272   */\n      0x00\n        /* \"#utility.yul\":27306:27308   */\n      0x20\n        /* \"#utility.yul\":27295:27304   */\n      dup3\n        /* \"#utility.yul\":27291:27309   */\n      add\n        /* \"#utility.yul\":27283:27309   */\n      swap1\n      pop\n        /* \"#utility.yul\":27355:27364   */\n      dup2\n        /* \"#utility.yul\":27349:27353   */\n      dup2\n        /* \"#utility.yul\":27345:27365   */\n      sub\n        /* \"#utility.yul\":27341:27342   */\n      0x00\n        /* \"#utility.yul\":27330:27339   */\n      dup4\n        /* \"#utility.yul\":27326:27343   */\n      add\n        /* \"#utility.yul\":27319:27366   */\n      mstore\n        /* \"#utility.yul\":27383:27461   */\n      tag_655\n        /* \"#utility.yul\":27456:27460   */\n      dup2\n        /* \"#utility.yul\":27447:27453   */\n      dup5\n        /* \"#utility.yul\":27383:27461   */\n      tag_339\n      jump\t// in\n    tag_655:\n        /* \"#utility.yul\":27375:27461   */\n      swap1\n      pop\n        /* \"#utility.yul\":27155:27468   */\n      swap3\n      swap2\n      pop\n      pop\n      jump\t// out\n        /* \"#utility.yul\":27474:27645   */\n    tag_278:\n        /* \"#utility.yul\":27513:27516   */\n      0x00\n        /* \"#utility.yul\":27536:27560   */\n      tag_657\n        /* \"#utility.yul\":27554:27559   */\n      dup3\n        /* \"#utility.yul\":27536:27560   */\n      tag_290\n      jump\t// in\n    tag_657:\n        /* \"#utility.yul\":27527:27560   */\n      swap2\n      pop\n        /* \"#utility.yul\":27582:27586   */\n      0x00\n        /* \"#utility.yul\":27575:27580   */\n      dup3\n        /* \"#utility.yul\":27572:27587   */\n      sub\n        /* \"#utility.yul\":27569:27610   */\n      tag_658\n      jumpi\n        /* \"#utility.yul\":27590:27608   */\n      tag_659\n      tag_342\n      jump\t// in\n    tag_659:\n        /* \"#utility.yul\":27569:27610   */\n    tag_658:\n        /* \"#utility.yul\":27637:27638   */\n      0x01\n        /* \"#utility.yul\":27630:27635   */\n      dup3\n        /* \"#utility.yul\":27626:27639   */\n      sub\n        /* \"#utility.yul\":27619:27639   */\n      swap1\n      pop\n        /* \"#utility.yul\":27474:27645   */\n      swap2\n      swap1\n      pop\n      jump\t// out\n        /* \"#utility.yul\":27651:27833   */\n    tag_354:\n        /* \"#utility.yul\":27791:27825   */\n      0x537472696e67733a20686578206c656e67746820696e73756666696369656e74\n        /* \"#utility.yul\":27787:27788   */\n      0x00\n        /* \"#utility.yul\":27779:27785   */\n      dup3\n        /* \"#utility.yul\":27775:27789   */\n      add\n        /* \"#utility.yul\":27768:27826   */\n      mstore\n        /* \"#utility.yul\":27651:27833   */\n      pop\n      jump\t// out\n        /* \"#utility.yul\":27839:28205   */\n    tag_355:\n        /* \"#utility.yul\":27981:27984   */\n      0x00\n        /* \"#utility.yul\":28002:28069   */\n      tag_662\n        /* \"#utility.yul\":28066:28068   */\n      0x20\n        /* \"#utility.yul\":28061:28064   */\n      dup4\n        /* \"#utility.yul\":28002:28069   */\n      tag_331\n      jump\t// in\n    tag_662:\n        /* \"#utility.yul\":27995:28069   */\n      swap2\n      pop\n        /* \"#utility.yul\":28078:28171   */\n      tag_663\n        /* \"#utility.yul\":28167:28170   */\n      dup3\n        /* \"#utility.yul\":28078:28171   */\n      tag_354\n      jump\t// in\n    tag_663:\n        /* \"#utility.yul\":28196:28198   */\n      0x20\n        /* \"#utility.yul\":28191:28194   */\n      dup3\n        /* \"#utility.yul\":28187:28199   */\n      add\n        /* \"#utility.yul\":28180:28199   */\n      swap1\n      pop\n        /* \"#utility.yul\":27839:28205   */\n      swap2\n      swap1\n      pop\n      jump\t// out\n        /* \"#utility.yul\":28211:28630   */\n    tag_281:\n        /* \"#utility.yul\":28377:28381   */\n      0x00\n        /* \"#utility.yul\":28415:28417   */\n      0x20\n        /* \"#utility.yul\":28404:28413   */\n      dup3\n        /* \"#utility.yul\":28400:28418   */\n      add\n        /* \"#utility.yul\":28392:28418   */\n      swap1\n      pop\n        /* \"#utility.yul\":28464:28473   */\n      dup2\n        /* \"#utility.yul\":28458:28462   */\n      dup2\n        /* \"#utility.yul\":28454:28474   */\n      sub\n        /* \"#utility.yul\":28450:28451   */\n      0x00\n        /* \"#utility.yul\":28439:28448   */\n      dup4\n        /* \"#utility.yul\":28435:28452   */\n      add\n        /* \"#utility.yul\":28428:28475   */\n      mstore\n        /* \"#utility.yul\":28492:28623   */\n      tag_665\n        /* \"#utility.yul\":28618:28622   */\n      dup2\n        /* \"#utility.yul\":28492:28623   */\n      tag_355\n      jump\t// in\n    tag_665:\n        /* \"#utility.yul\":28484:28623   */\n      swap1\n      pop\n        /* \"#utility.yul\":28211:28630   */\n      swap2\n      swap1\n      pop\n      jump\t// out\n\n    auxdata: 0xa26469706673582212204f065cedc823b99faa6f0e34bc39f38d470a959bd737eb0644962965672ac84264736f6c634300080d0033\n}\n",
				"bytecode": {
					"linkReferences": {},
					"object": "6080604052600a60035560c86004556107d0600555604051806101800160405280600162ffffff168152602001600f62ffffff168152602001603262ffffff16815260200160b462ffffff16815260200161027662ffffff16815260200161089862ffffff168152602001611e7862ffffff168152602001616e3c62ffffff16815260200162019d4862ffffff1681526020016203f48062ffffff168152602001620a25a862ffffff168152602001622191c062ffffff16815250600690600c620000cc92919062000372565b5068056bc75e2d63100000601755348015620000e757600080fd5b50604051620027613803806200276183398181016040528101906200010d919062000447565b60008060006101000a81548160ff02191690831515021790555081600260006101000a81548173ffffffffffffffffffffffffffffffffffffffff021916908373ffffffffffffffffffffffffffffffffffffffff16021790555080601660006101000a81548173ffffffffffffffffffffffffffffffffffffffff021916908373ffffffffffffffffffffffffffffffffffffffff160217905550620001be6000801b33620001f860201b60201c565b620001f07f65d7a28e3265b37a6474929f336521b332c1681b933f6cb9f3376673440d862a33620001f860201b60201c565b50506200048e565b6200020a82826200020e60201b60201c565b5050565b620002208282620002ff60201b60201c565b620002fb57600180600084815260200190815260200160002060000160008373ffffffffffffffffffffffffffffffffffffffff1673ffffffffffffffffffffffffffffffffffffffff16815260200190815260200160002060006101000a81548160ff021916908315150217905550620002a06200036a60201b60201c565b73ffffffffffffffffffffffffffffffffffffffff168173ffffffffffffffffffffffffffffffffffffffff16837f2f8788117e7eff1d82e926ec794901d17c78024a50270940304540a733656f0d60405160405180910390a45b5050565b60006001600084815260200190815260200160002060000160008373ffffffffffffffffffffffffffffffffffffffff1673ffffffffffffffffffffffffffffffffffffffff16815260200190815260200160002060009054906101000a900460ff16905092915050565b600033905090565b8260108101928215620003ab579160200282015b82811115620003aa578251829062ffffff1690559160200191906001019062000386565b5b509050620003ba9190620003be565b5090565b5b80821115620003d9576000816000905550600101620003bf565b5090565b600080fd5b600073ffffffffffffffffffffffffffffffffffffffff82169050919050565b60006200040f82620003e2565b9050919050565b620004218162000402565b81146200042d57600080fd5b50565b600081519050620004418162000416565b92915050565b60008060408385031215620004615762000460620003dd565b5b6000620004718582860162000430565b9250506020620004848582860162000430565b9150509250929050565b6122c3806200049e6000396000f3fe608060405234801561001057600080fd5b506004361061014d5760003560e01c8063841acc5d116100c3578063d547741f1161007c578063d547741f146103a0578063dd23faf3146103bc578063e63ab1e9146103ec578063eb47536a1461040a578063f3fef3a314610426578063f400fde4146104425761014d565b8063841acc5d146102b857806391d14854146102e8578063945099bc14610318578063a217fddf14610334578063ac6b182d14610352578063c6098256146103825761014d565b80632f2ff15d116101155780632f2ff15d1461020a57806336568abe1461022657806351d64e641461024257806352c6159f1461025e5780635c975abb1461027c578063683b0ee51461029a5761014d565b806301ffc9a71461015257806309c9985c146101825780630a1ac657146101a057806313e6b93b146101bc578063248a9ca3146101da575b600080fd5b61016c6004803603810190610167919061135e565b610460565b60405161017991906113a6565b60405180910390f35b61018a6104da565b60405161019791906113da565b60405180910390f35b6101ba60048036038101906101b59190611421565b6104e0565b005b6101c4610658565b6040516101d191906113da565b60405180910390f35b6101f460048036038101906101ef9190611484565b61065e565b60405161020191906114c0565b60405180910390f35b610224600480360381019061021f9190611539565b61067e565b005b610240600480360381019061023b9190611539565b6106a7565b005b61025c60048036038101906102579190611579565b61072a565b005b610266610752565b6040516102739190611618565b60405180910390f35b610284610778565b60405161029191906113a6565b60405180910390f35b6102a261078e565b6040516102af91906113da565b60405180910390f35b6102d260048036038101906102cd9190611779565b610794565b6040516102df91906113da565b60405180910390f35b61030260048036038101906102fd9190611539565b6109f8565b60405161030f91906113a6565b60405180910390f35b610332600480360381019061032d91906117c2565b610a63565b005b61033c610ac5565b60405161034991906114c0565b60405180910390f35b61036c60048036038101906103679190611421565b610acc565b60405161037991906113da565b60405180910390f35b61038a610ae7565b6040516103979190611811565b60405180910390f35b6103ba60048036038101906103b59190611539565b610b0d565b005b6103d660048036038101906103d19190611484565b610b36565b6040516103e391906118d7565b60405180910390f35b6103f4610c1a565b60405161040191906114c0565b60405180910390f35b610424600480360381019061041f9190611421565b610c3e565b005b610440600480360381019061043b91906117c2565b610ca2565b005b61044a610dbc565b60405161045791906113da565b60405180910390f35b60007f7965db0b000000000000000000000000000000000000000000000000000000007bffffffffffffffffffffffffffffffffffffffffffffffffffffffff1916827bffffffffffffffffffffffffffffffffffffffffffffffffffffffff191614806104d357506104d282610dc2565b5b9050919050565b60035481565b6000806000600260009054906101000a900473ffffffffffffffffffffffffffffffffffffffff1673ffffffffffffffffffffffffffffffffffffffff1663fd2e997e856040518263ffffffff1660e01b815260040161054091906113da565b6000604051808303816000875af115801561055f573d6000803e3d6000fd5b505050506040513d6000823e3d601f19601f8201168201806040525081019061058891906119e4565b925092509250600260009054906101000a900473ffffffffffffffffffffffffffffffffffffffff1673ffffffffffffffffffffffffffffffffffffffff166342966c68856040518263ffffffff1660e01b81526004016105e991906113da565b600060405180830381600087803b15801561060357600080fd5b505af1158015610617573d6000803e3d6000fd5b505050507f950dcd4a7087bbf2cee08268e1b26ac45fb310d3ae443d0fe53714b713da45c18460405161064a91906113da565b60405180910390a150505050565b60055481565b600060016000838152602001908152602001600020600101549050919050565b6106878261065e565b61069881610693610e2c565b610e34565b6106a28383610ed1565b505050565b6106af610e2c565b73ffffffffffffffffffffffffffffffffffffffff168173ffffffffffffffffffffffffffffffffffffffff161461071c576040517f08c379a000000000000000000000000000000000000000000000000000000000815260040161071390611ad6565b60405180910390fd5b6107268282610fb1565b5050565b6000801b61073f8161073a610e2c565b610e34565b8260048190555081600581905550505050565b600260009054906101000a900473ffffffffffffffffffffffffffffffffffffffff1681565b60008060009054906101000a900460ff16905090565b60045481565b600061079e610778565b156107de576040517f08c379a00000000000000000000000000000000000000000000000000000000081526004016107d590611b42565b60405180910390fd5b600060175411801561083f5750600073ffffffffffffffffffffffffffffffffffffffff16601660009054906101000a900473ffffffffffffffffffffffffffffffffffffffff1673ffffffffffffffffffffffffffffffffffffffff1614155b156108ea57601660009054906101000a900473ffffffffffffffffffffffffffffffffffffffff1673ffffffffffffffffffffffffffffffffffffffff166323b872dd33306017546040518463ffffffff1660e01b81526004016108a593929190611b62565b6020604051808303816000875af11580156108c4573d6000803e3d6000fd5b505050506040513d601f19601f820116820180604052508101906108e89190611bc5565b505b6000600260009054906101000a900473ffffffffffffffffffffffffffffffffffffffff1673ffffffffffffffffffffffffffffffffffffffff1663d204c45e33856040518363ffffffff1660e01b8152600401610949929190611c36565b6020604051808303816000875af1158015610968573d6000803e3d6000fd5b505050506040513d601f19601f8201168201806040525081019061098c9190611c7b565b90507f9e6e3acb506bf1d2adb1d8565252e575763ee07d1debfcc2c830682895b3137d3382601660009054906101000a900473ffffffffffffffffffffffffffffffffffffffff166017546040516109e79493929190611ca8565b60405180910390a180915050919050565b60006001600084815260200190815260200160002060000160008373ffffffffffffffffffffffffffffffffffffffff1673ffffffffffffffffffffffffffffffffffffffff16815260200190815260200160002060009054906101000a900460ff16905092915050565b6000801b610a7881610a73610e2c565b610e34565b82601660006101000a81548173ffffffffffffffffffffffffffffffffffffffff021916908373ffffffffffffffffffffffffffffffffffffffff16021790555081601781905550505050565b6000801b81565b60068160108110610adc57600080fd5b016000915090505481565b601660009054906101000a900473ffffffffffffffffffffffffffffffffffffffff1681565b610b168261065e565b610b2781610b22610e2c565b610e34565b610b318383610fb1565b505050565b610b3e6112cf565b60005b60208160ff161015610c14576000600282610b5c9190611d1c565b60ff1614610b6b576000610b6e565b60015b610100610b7b9190611eaf565b838260ff1660208110610b9157610b90611efa565b5b1a60f81b60f81c60ff16610ba59190611f29565b82600283610bb39190611f83565b60ff1660108110610bc757610bc6611efa565b5b6020020151610bd69190611fb4565b82600283610be49190611f83565b60ff1660108110610bf857610bf7611efa565b5b6020020181815250508080610c0c9061200a565b915050610b41565b50919050565b7f65d7a28e3265b37a6474929f336521b332c1681b933f6cb9f3376673440d862a81565b6000801b610c5381610c4e610e2c565b610e34565b6064821115610c97576040517f08c379a0000000000000000000000000000000000000000000000000000000008152600401610c8e9061207f565b60405180910390fd5b816003819055505050565b6000801b610cb781610cb2610e2c565b610e34565b600073ffffffffffffffffffffffffffffffffffffffff168373ffffffffffffffffffffffffffffffffffffffff1603610d37573373ffffffffffffffffffffffffffffffffffffffff166108fc839081150290604051600060405180830381858888f19350505050158015610d31573d6000803e3d6000fd5b50610db7565b8273ffffffffffffffffffffffffffffffffffffffff1663a9059cbb33846040518363ffffffff1660e01b8152600401610d7292919061209f565b6020604051808303816000875af1158015610d91573d6000803e3d6000fd5b505050506040513d601f19601f82011682018060405250810190610db59190611bc5565b505b505050565b60175481565b60007f01ffc9a7000000000000000000000000000000000000000000000000000000007bffffffffffffffffffffffffffffffffffffffffffffffffffffffff1916827bffffffffffffffffffffffffffffffffffffffffffffffffffffffff1916149050919050565b600033905090565b610e3e82826109f8565b610ecd57610e638173ffffffffffffffffffffffffffffffffffffffff166014611093565b610e718360001c6020611093565b604051602001610e8292919061219c565b6040516020818303038152906040526040517f08c379a0000000000000000000000000000000000000000000000000000000008152600401610ec491906121d6565b60405180910390fd5b5050565b610edb82826109f8565b610fad57600180600084815260200190815260200160002060000160008373ffffffffffffffffffffffffffffffffffffffff1673ffffffffffffffffffffffffffffffffffffffff16815260200190815260200160002060006101000a81548160ff021916908315150217905550610f52610e2c565b73ffffffffffffffffffffffffffffffffffffffff168173ffffffffffffffffffffffffffffffffffffffff16837f2f8788117e7eff1d82e926ec794901d17c78024a50270940304540a733656f0d60405160405180910390a45b5050565b610fbb82826109f8565b1561108f5760006001600084815260200190815260200160002060000160008373ffffffffffffffffffffffffffffffffffffffff1673ffffffffffffffffffffffffffffffffffffffff16815260200190815260200160002060006101000a81548160ff021916908315150217905550611034610e2c565b73ffffffffffffffffffffffffffffffffffffffff168173ffffffffffffffffffffffffffffffffffffffff16837ff6391f5c32d9c69d2a47ea670b442974b53935d1edc7fd64eb21e047a839171b60405160405180910390a45b5050565b6060600060028360026110a69190611f29565b6110b09190611fb4565b67ffffffffffffffff8111156110c9576110c861164e565b5b6040519080825280601f01601f1916602001820160405280156110fb5781602001600182028036833780820191505090505b5090507f30000000000000000000000000000000000000000000000000000000000000008160008151811061113357611132611efa565b5b60200101907effffffffffffffffffffffffffffffffffffffffffffffffffffffffffffff1916908160001a9053507f78000000000000000000000000000000000000000000000000000000000000008160018151811061119757611196611efa565b5b60200101907effffffffffffffffffffffffffffffffffffffffffffffffffffffffffffff1916908160001a905350600060018460026111d79190611f29565b6111e19190611fb4565b90505b6001811115611281577f3031323334353637383961626364656600000000000000000000000000000000600f86166010811061122357611222611efa565b5b1a60f81b82828151811061123a57611239611efa565b5b60200101907effffffffffffffffffffffffffffffffffffffffffffffffffffffffffffff1916908160001a905350600485901c94508061127a906121f8565b90506111e4565b50600084146112c5576040517f08c379a00000000000000000000000000000000000000000000000000000000081526004016112bc9061226d565b60405180910390fd5b8091505092915050565b604051806102000160405280601090602082028036833780820191505090505090565b6000604051905090565b600080fd5b600080fd5b60007fffffffff0000000000000000000000000000000000000000000000000000000082169050919050565b61133b81611306565b811461134657600080fd5b50565b60008135905061135881611332565b92915050565b600060208284031215611374576113736112fc565b5b600061138284828501611349565b91505092915050565b60008115159050919050565b6113a08161138b565b82525050565b60006020820190506113bb6000830184611397565b92915050565b6000819050919050565b6113d4816113c1565b82525050565b60006020820190506113ef60008301846113cb565b92915050565b6113fe816113c1565b811461140957600080fd5b50565b60008135905061141b816113f5565b92915050565b600060208284031215611437576114366112fc565b5b60006114458482850161140c565b91505092915050565b6000819050919050565b6114618161144e565b811461146c57600080fd5b50565b60008135905061147e81611458565b92915050565b60006020828403121561149a576114996112fc565b5b60006114a88482850161146f565b91505092915050565b6114ba8161144e565b82525050565b60006020820190506114d560008301846114b1565b92915050565b600073ffffffffffffffffffffffffffffffffffffffff82169050919050565b6000611506826114db565b9050919050565b611516816114fb565b811461152157600080fd5b50565b6000813590506115338161150d565b92915050565b600080604083850312156115505761154f6112fc565b5b600061155e8582860161146f565b925050602061156f85828601611524565b9150509250929050565b600080604083850312156115905761158f6112fc565b5b600061159e8582860161140c565b92505060206115af8582860161140c565b9150509250929050565b6000819050919050565b60006115de6115d96115d4846114db565b6115b9565b6114db565b9050919050565b60006115f0826115c3565b9050919050565b6000611602826115e5565b9050919050565b611612816115f7565b82525050565b600060208201905061162d6000830184611609565b92915050565b600080fd5b600080fd5b6000601f19601f8301169050919050565b7f4e487b7100000000000000000000000000000000000000000000000000000000600052604160045260246000fd5b6116868261163d565b810181811067ffffffffffffffff821117156116a5576116a461164e565b5b80604052505050565b60006116b86112f2565b90506116c4828261167d565b919050565b600067ffffffffffffffff8211156116e4576116e361164e565b5b6116ed8261163d565b9050602081019050919050565b82818337600083830152505050565b600061171c611717846116c9565b6116ae565b90508281526020810184848401111561173857611737611638565b5b6117438482856116fa565b509392505050565b600082601f8301126117605761175f611633565b5b8135611770848260208601611709565b91505092915050565b60006020828403121561178f5761178e6112fc565b5b600082013567ffffffffffffffff8111156117ad576117ac611301565b5b6117b98482850161174b565b91505092915050565b600080604083850312156117d9576117d86112fc565b5b60006117e785828601611524565b92505060206117f88582860161140c565b9150509250929050565b61180b816114fb565b82525050565b60006020820190506118266000830184611802565b92915050565b600060109050919050565b600081905092915050565b6000819050919050565b611855816113c1565b82525050565b6000611867838361184c565b60208301905092915050565b6000602082019050919050565b6118898161182c565b6118938184611837565b925061189e82611842565b8060005b838110156118cf5781516118b6878261185b565b96506118c183611873565b9250506001810190506118a2565b505050505050565b6000610200820190506118ed6000830184611880565b92915050565b6000815190506119028161150d565b92915050565b600060ff82169050919050565b61191e81611908565b811461192957600080fd5b50565b60008151905061193b81611915565b92915050565b60005b8381101561195f578082015181840152602081019050611944565b8381111561196e576000848401525b50505050565b6000611987611982846116c9565b6116ae565b9050828152602081018484840111156119a3576119a2611638565b5b6119ae848285611941565b509392505050565b600082601f8301126119cb576119ca611633565b5b81516119db848260208601611974565b91505092915050565b6000806000606084860312156119fd576119fc6112fc565b5b6000611a0b868287016118f3565b9350506020611a1c8682870161192c565b925050604084015167ffffffffffffffff811115611a3d57611a3c611301565b5b611a49868287016119b6565b9150509250925092565b600082825260208201905092915050565b7f416363657373436f6e74726f6c3a2063616e206f6e6c792072656e6f756e636560008201527f20726f6c657320666f722073656c660000000000000000000000000000000000602082015250565b6000611ac0602f83611a53565b9150611acb82611a64565b604082019050919050565b60006020820190508181036000830152611aef81611ab3565b9050919050565b7f5061757361626c653a2070617573656400000000000000000000000000000000600082015250565b6000611b2c601083611a53565b9150611b3782611af6565b602082019050919050565b60006020820190508181036000830152611b5b81611b1f565b9050919050565b6000606082019050611b776000830186611802565b611b846020830185611802565b611b9160408301846113cb565b949350505050565b611ba28161138b565b8114611bad57600080fd5b50565b600081519050611bbf81611b99565b92915050565b600060208284031215611bdb57611bda6112fc565b5b6000611be984828501611bb0565b91505092915050565b600081519050919050565b6000611c0882611bf2565b611c128185611a53565b9350611c22818560208601611941565b611c2b8161163d565b840191505092915050565b6000604082019050611c4b6000830185611802565b8181036020830152611c5d8184611bfd565b90509392505050565b600081519050611c75816113f5565b92915050565b600060208284031215611c9157611c906112fc565b5b6000611c9f84828501611c66565b91505092915050565b6000608082019050611cbd6000830187611802565b611cca60208301866113cb565b611cd76040830185611802565b611ce460608301846113cb565b95945050505050565b7f4e487b7100000000000000000000000000000000000000000000000000000000600052601260045260246000fd5b6000611d2782611908565b9150611d3283611908565b925082611d4257611d41611ced565b5b828206905092915050565b7f4e487b7100000000000000000000000000000000000000000000000000000000600052601160045260246000fd5b60008160011c9050919050565b6000808291508390505b6001851115611dd357808604811115611daf57611dae611d4d565b5b6001851615611dbe5780820291505b8081029050611dcc85611d7c565b9450611d93565b94509492505050565b600082611dec5760019050611ea8565b81611dfa5760009050611ea8565b8160018114611e105760028114611e1a57611e49565b6001915050611ea8565b60ff841115611e2c57611e2b611d4d565b5b8360020a915084821115611e4357611e42611d4d565b5b50611ea8565b5060208310610133831016604e8410600b8410161715611e7e5782820a905083811115611e7957611e78611d4d565b5b611ea8565b611e8b8484846001611d89565b92509050818404811115611ea257611ea1611d4d565b5b81810290505b9392505050565b6000611eba826113c1565b9150611ec583611908565b9250611ef27fffffffffffffffffffffffffffffffffffffffffffffffffffffffffffffffff8484611ddc565b905092915050565b7f4e487b7100000000000000000000000000000000000000000000000000000000600052603260045260246000fd5b6000611f34826113c1565b9150611f3f836113c1565b9250817fffffffffffffffffffffffffffffffffffffffffffffffffffffffffffffffff0483118215151615611f7857611f77611d4d565b5b828202905092915050565b6000611f8e82611908565b9150611f9983611908565b925082611fa957611fa8611ced565b5b828204905092915050565b6000611fbf826113c1565b9150611fca836113c1565b9250827fffffffffffffffffffffffffffffffffffffffffffffffffffffffffffffffff03821115611fff57611ffe611d4d565b5b828201905092915050565b600061201582611908565b915060ff820361202857612027611d4d565b5b600182019050919050565b7f4d7573742062652076616c69642070657263656e740000000000000000000000600082015250565b6000612069601583611a53565b915061207482612033565b602082019050919050565b600060208201905081810360008301526120988161205c565b9050919050565b60006040820190506120b46000830185611802565b6120c160208301846113cb565b9392505050565b600081905092915050565b7f416363657373436f6e74726f6c3a206163636f756e7420000000000000000000600082015250565b60006121096017836120c8565b9150612114826120d3565b601782019050919050565b600061212a82611bf2565b61213481856120c8565b9350612144818560208601611941565b80840191505092915050565b7f206973206d697373696e6720726f6c6520000000000000000000000000000000600082015250565b60006121866011836120c8565b915061219182612150565b601182019050919050565b60006121a7826120fc565b91506121b3828561211f565b91506121be82612179565b91506121ca828461211f565b91508190509392505050565b600060208201905081810360008301526121f08184611bfd565b905092915050565b6000612203826113c1565b91506000820361221657612215611d4d565b5b600182039050919050565b7f537472696e67733a20686578206c656e67746820696e73756666696369656e74600082015250565b6000612257602083611a53565b915061226282612221565b602082019050919050565b600060208201905081810360008301526122868161224a565b905091905056fea26469706673582212204f065cedc823b99faa6f0e34bc39f38d470a959bd737eb0644962965672ac84264736f6c634300080d0033",
					"opcodes": "PUSH1 0x80 PUSH1 0x40 MSTORE PUSH1 0xA PUSH1 0x3 SSTORE PUSH1 0xC8 PUSH1 0x4 SSTORE PUSH2 0x7D0 PUSH1 0x5 SSTORE PUSH1 0x40 MLOAD DUP1 PUSH2 0x180 ADD PUSH1 0x40 MSTORE DUP1 PUSH1 0x1 PUSH3 0xFFFFFF AND DUP2 MSTORE PUSH1 0x20 ADD PUSH1 0xF PUSH3 0xFFFFFF AND DUP2 MSTORE PUSH1 0x20 ADD PUSH1 0x32 PUSH3 0xFFFFFF AND DUP2 MSTORE PUSH1 0x20 ADD PUSH1 0xB4 PUSH3 0xFFFFFF AND DUP2 MSTORE PUSH1 0x20 ADD PUSH2 0x276 PUSH3 0xFFFFFF AND DUP2 MSTORE PUSH1 0x20 ADD PUSH2 0x898 PUSH3 0xFFFFFF AND DUP2 MSTORE PUSH1 0x20 ADD PUSH2 0x1E78 PUSH3 0xFFFFFF AND DUP2 MSTORE PUSH1 0x20 ADD PUSH2 0x6E3C PUSH3 0xFFFFFF AND DUP2 MSTORE PUSH1 0x20 ADD PUSH3 0x19D48 PUSH3 0xFFFFFF AND DUP2 MSTORE PUSH1 0x20 ADD PUSH3 0x3F480 PUSH3 0xFFFFFF AND DUP2 MSTORE PUSH1 0x20 ADD PUSH3 0xA25A8 PUSH3 0xFFFFFF AND DUP2 MSTORE PUSH1 0x20 ADD PUSH3 0x2191C0 PUSH3 0xFFFFFF AND DUP2 MSTORE POP PUSH1 0x6 SWAP1 PUSH1 0xC PUSH3 0xCC SWAP3 SWAP2 SWAP1 PUSH3 0x372 JUMP JUMPDEST POP PUSH9 0x56BC75E2D63100000 PUSH1 0x17 SSTORE CALLVALUE DUP1 ISZERO PUSH3 0xE7 JUMPI PUSH1 0x0 DUP1 REVERT JUMPDEST POP PUSH1 0x40 MLOAD PUSH3 0x2761 CODESIZE SUB DUP1 PUSH3 0x2761 DUP4 CODECOPY DUP2 DUP2 ADD PUSH1 0x40 MSTORE DUP2 ADD SWAP1 PUSH3 0x10D SWAP2 SWAP1 PUSH3 0x447 JUMP JUMPDEST PUSH1 0x0 DUP1 PUSH1 0x0 PUSH2 0x100 EXP DUP2 SLOAD DUP2 PUSH1 0xFF MUL NOT AND SWAP1 DUP4 ISZERO ISZERO MUL OR SWAP1 SSTORE POP DUP2 PUSH1 0x2 PUSH1 0x0 PUSH2 0x100 EXP DUP2 SLOAD DUP2 PUSH20 0xFFFFFFFFFFFFFFFFFFFFFFFFFFFFFFFFFFFFFFFF MUL NOT AND SWAP1 DUP4 PUSH20 0xFFFFFFFFFFFFFFFFFFFFFFFFFFFFFFFFFFFFFFFF AND MUL OR SWAP1 SSTORE POP DUP1 PUSH1 0x16 PUSH1 0x0 PUSH2 0x100 EXP DUP2 SLOAD DUP2 PUSH20 0xFFFFFFFFFFFFFFFFFFFFFFFFFFFFFFFFFFFFFFFF MUL NOT AND SWAP1 DUP4 PUSH20 0xFFFFFFFFFFFFFFFFFFFFFFFFFFFFFFFFFFFFFFFF AND MUL OR SWAP1 SSTORE POP PUSH3 0x1BE PUSH1 0x0 DUP1 SHL CALLER PUSH3 0x1F8 PUSH1 0x20 SHL PUSH1 0x20 SHR JUMP JUMPDEST PUSH3 0x1F0 PUSH32 0x65D7A28E3265B37A6474929F336521B332C1681B933F6CB9F3376673440D862A CALLER PUSH3 0x1F8 PUSH1 0x20 SHL PUSH1 0x20 SHR JUMP JUMPDEST POP POP PUSH3 0x48E JUMP JUMPDEST PUSH3 0x20A DUP3 DUP3 PUSH3 0x20E PUSH1 0x20 SHL PUSH1 0x20 SHR JUMP JUMPDEST POP POP JUMP JUMPDEST PUSH3 0x220 DUP3 DUP3 PUSH3 0x2FF PUSH1 0x20 SHL PUSH1 0x20 SHR JUMP JUMPDEST PUSH3 0x2FB JUMPI PUSH1 0x1 DUP1 PUSH1 0x0 DUP5 DUP2 MSTORE PUSH1 0x20 ADD SWAP1 DUP2 MSTORE PUSH1 0x20 ADD PUSH1 0x0 KECCAK256 PUSH1 0x0 ADD PUSH1 0x0 DUP4 PUSH20 0xFFFFFFFFFFFFFFFFFFFFFFFFFFFFFFFFFFFFFFFF AND PUSH20 0xFFFFFFFFFFFFFFFFFFFFFFFFFFFFFFFFFFFFFFFF AND DUP2 MSTORE PUSH1 0x20 ADD SWAP1 DUP2 MSTORE PUSH1 0x20 ADD PUSH1 0x0 KECCAK256 PUSH1 0x0 PUSH2 0x100 EXP DUP2 SLOAD DUP2 PUSH1 0xFF MUL NOT AND SWAP1 DUP4 ISZERO ISZERO MUL OR SWAP1 SSTORE POP PUSH3 0x2A0 PUSH3 0x36A PUSH1 0x20 SHL PUSH1 0x20 SHR JUMP JUMPDEST PUSH20 0xFFFFFFFFFFFFFFFFFFFFFFFFFFFFFFFFFFFFFFFF AND DUP2 PUSH20 0xFFFFFFFFFFFFFFFFFFFFFFFFFFFFFFFFFFFFFFFF AND DUP4 PUSH32 0x2F8788117E7EFF1D82E926EC794901D17C78024A50270940304540A733656F0D PUSH1 0x40 MLOAD PUSH1 0x40 MLOAD DUP1 SWAP2 SUB SWAP1 LOG4 JUMPDEST POP POP JUMP JUMPDEST PUSH1 0x0 PUSH1 0x1 PUSH1 0x0 DUP5 DUP2 MSTORE PUSH1 0x20 ADD SWAP1 DUP2 MSTORE PUSH1 0x20 ADD PUSH1 0x0 KECCAK256 PUSH1 0x0 ADD PUSH1 0x0 DUP4 PUSH20 0xFFFFFFFFFFFFFFFFFFFFFFFFFFFFFFFFFFFFFFFF AND PUSH20 0xFFFFFFFFFFFFFFFFFFFFFFFFFFFFFFFFFFFFFFFF AND DUP2 MSTORE PUSH1 0x20 ADD SWAP1 DUP2 MSTORE PUSH1 0x20 ADD PUSH1 0x0 KECCAK256 PUSH1 0x0 SWAP1 SLOAD SWAP1 PUSH2 0x100 EXP SWAP1 DIV PUSH1 0xFF AND SWAP1 POP SWAP3 SWAP2 POP POP JUMP JUMPDEST PUSH1 0x0 CALLER SWAP1 POP SWAP1 JUMP JUMPDEST DUP3 PUSH1 0x10 DUP2 ADD SWAP3 DUP3 ISZERO PUSH3 0x3AB JUMPI SWAP2 PUSH1 0x20 MUL DUP3 ADD JUMPDEST DUP3 DUP2 GT ISZERO PUSH3 0x3AA JUMPI DUP3 MLOAD DUP3 SWAP1 PUSH3 0xFFFFFF AND SWAP1 SSTORE SWAP2 PUSH1 0x20 ADD SWAP2 SWAP1 PUSH1 0x1 ADD SWAP1 PUSH3 0x386 JUMP JUMPDEST JUMPDEST POP SWAP1 POP PUSH3 0x3BA SWAP2 SWAP1 PUSH3 0x3BE JUMP JUMPDEST POP SWAP1 JUMP JUMPDEST JUMPDEST DUP1 DUP3 GT ISZERO PUSH3 0x3D9 JUMPI PUSH1 0x0 DUP2 PUSH1 0x0 SWAP1 SSTORE POP PUSH1 0x1 ADD PUSH3 0x3BF JUMP JUMPDEST POP SWAP1 JUMP JUMPDEST PUSH1 0x0 DUP1 REVERT JUMPDEST PUSH1 0x0 PUSH20 0xFFFFFFFFFFFFFFFFFFFFFFFFFFFFFFFFFFFFFFFF DUP3 AND SWAP1 POP SWAP2 SWAP1 POP JUMP JUMPDEST PUSH1 0x0 PUSH3 0x40F DUP3 PUSH3 0x3E2 JUMP JUMPDEST SWAP1 POP SWAP2 SWAP1 POP JUMP JUMPDEST PUSH3 0x421 DUP2 PUSH3 0x402 JUMP JUMPDEST DUP2 EQ PUSH3 0x42D JUMPI PUSH1 0x0 DUP1 REVERT JUMPDEST POP JUMP JUMPDEST PUSH1 0x0 DUP2 MLOAD SWAP1 POP PUSH3 0x441 DUP2 PUSH3 0x416 JUMP JUMPDEST SWAP3 SWAP2 POP POP JUMP JUMPDEST PUSH1 0x0 DUP1 PUSH1 0x40 DUP4 DUP6 SUB SLT ISZERO PUSH3 0x461 JUMPI PUSH3 0x460 PUSH3 0x3DD JUMP JUMPDEST JUMPDEST PUSH1 0x0 PUSH3 0x471 DUP6 DUP3 DUP7 ADD PUSH3 0x430 JUMP JUMPDEST SWAP3 POP POP PUSH1 0x20 PUSH3 0x484 DUP6 DUP3 DUP7 ADD PUSH3 0x430 JUMP JUMPDEST SWAP2 POP POP SWAP3 POP SWAP3 SWAP1 POP JUMP JUMPDEST PUSH2 0x22C3 DUP1 PUSH3 0x49E PUSH1 0x0 CODECOPY PUSH1 0x0 RETURN INVALID PUSH1 0x80 PUSH1 0x40 MSTORE CALLVALUE DUP1 ISZERO PUSH2 0x10 JUMPI PUSH1 0x0 DUP1 REVERT JUMPDEST POP PUSH1 0x4 CALLDATASIZE LT PUSH2 0x14D JUMPI PUSH1 0x0 CALLDATALOAD PUSH1 0xE0 SHR DUP1 PUSH4 0x841ACC5D GT PUSH2 0xC3 JUMPI DUP1 PUSH4 0xD547741F GT PUSH2 0x7C JUMPI DUP1 PUSH4 0xD547741F EQ PUSH2 0x3A0 JUMPI DUP1 PUSH4 0xDD23FAF3 EQ PUSH2 0x3BC JUMPI DUP1 PUSH4 0xE63AB1E9 EQ PUSH2 0x3EC JUMPI DUP1 PUSH4 0xEB47536A EQ PUSH2 0x40A JUMPI DUP1 PUSH4 0xF3FEF3A3 EQ PUSH2 0x426 JUMPI DUP1 PUSH4 0xF400FDE4 EQ PUSH2 0x442 JUMPI PUSH2 0x14D JUMP JUMPDEST DUP1 PUSH4 0x841ACC5D EQ PUSH2 0x2B8 JUMPI DUP1 PUSH4 0x91D14854 EQ PUSH2 0x2E8 JUMPI DUP1 PUSH4 0x945099BC EQ PUSH2 0x318 JUMPI DUP1 PUSH4 0xA217FDDF EQ PUSH2 0x334 JUMPI DUP1 PUSH4 0xAC6B182D EQ PUSH2 0x352 JUMPI DUP1 PUSH4 0xC6098256 EQ PUSH2 0x382 JUMPI PUSH2 0x14D JUMP JUMPDEST DUP1 PUSH4 0x2F2FF15D GT PUSH2 0x115 JUMPI DUP1 PUSH4 0x2F2FF15D EQ PUSH2 0x20A JUMPI DUP1 PUSH4 0x36568ABE EQ PUSH2 0x226 JUMPI DUP1 PUSH4 0x51D64E64 EQ PUSH2 0x242 JUMPI DUP1 PUSH4 0x52C6159F EQ PUSH2 0x25E JUMPI DUP1 PUSH4 0x5C975ABB EQ PUSH2 0x27C JUMPI DUP1 PUSH4 0x683B0EE5 EQ PUSH2 0x29A JUMPI PUSH2 0x14D JUMP JUMPDEST DUP1 PUSH4 0x1FFC9A7 EQ PUSH2 0x152 JUMPI DUP1 PUSH4 0x9C9985C EQ PUSH2 0x182 JUMPI DUP1 PUSH4 0xA1AC657 EQ PUSH2 0x1A0 JUMPI DUP1 PUSH4 0x13E6B93B EQ PUSH2 0x1BC JUMPI DUP1 PUSH4 0x248A9CA3 EQ PUSH2 0x1DA JUMPI JUMPDEST PUSH1 0x0 DUP1 REVERT JUMPDEST PUSH2 0x16C PUSH1 0x4 DUP1 CALLDATASIZE SUB DUP2 ADD SWAP1 PUSH2 0x167 SWAP2 SWAP1 PUSH2 0x135E JUMP JUMPDEST PUSH2 0x460 JUMP JUMPDEST PUSH1 0x40 MLOAD PUSH2 0x179 SWAP2 SWAP1 PUSH2 0x13A6 JUMP JUMPDEST PUSH1 0x40 MLOAD DUP1 SWAP2 SUB SWAP1 RETURN JUMPDEST PUSH2 0x18A PUSH2 0x4DA JUMP JUMPDEST PUSH1 0x40 MLOAD PUSH2 0x197 SWAP2 SWAP1 PUSH2 0x13DA JUMP JUMPDEST PUSH1 0x40 MLOAD DUP1 SWAP2 SUB SWAP1 RETURN JUMPDEST PUSH2 0x1BA PUSH1 0x4 DUP1 CALLDATASIZE SUB DUP2 ADD SWAP1 PUSH2 0x1B5 SWAP2 SWAP1 PUSH2 0x1421 JUMP JUMPDEST PUSH2 0x4E0 JUMP JUMPDEST STOP JUMPDEST PUSH2 0x1C4 PUSH2 0x658 JUMP JUMPDEST PUSH1 0x40 MLOAD PUSH2 0x1D1 SWAP2 SWAP1 PUSH2 0x13DA JUMP JUMPDEST PUSH1 0x40 MLOAD DUP1 SWAP2 SUB SWAP1 RETURN JUMPDEST PUSH2 0x1F4 PUSH1 0x4 DUP1 CALLDATASIZE SUB DUP2 ADD SWAP1 PUSH2 0x1EF SWAP2 SWAP1 PUSH2 0x1484 JUMP JUMPDEST PUSH2 0x65E JUMP JUMPDEST PUSH1 0x40 MLOAD PUSH2 0x201 SWAP2 SWAP1 PUSH2 0x14C0 JUMP JUMPDEST PUSH1 0x40 MLOAD DUP1 SWAP2 SUB SWAP1 RETURN JUMPDEST PUSH2 0x224 PUSH1 0x4 DUP1 CALLDATASIZE SUB DUP2 ADD SWAP1 PUSH2 0x21F SWAP2 SWAP1 PUSH2 0x1539 JUMP JUMPDEST PUSH2 0x67E JUMP JUMPDEST STOP JUMPDEST PUSH2 0x240 PUSH1 0x4 DUP1 CALLDATASIZE SUB DUP2 ADD SWAP1 PUSH2 0x23B SWAP2 SWAP1 PUSH2 0x1539 JUMP JUMPDEST PUSH2 0x6A7 JUMP JUMPDEST STOP JUMPDEST PUSH2 0x25C PUSH1 0x4 DUP1 CALLDATASIZE SUB DUP2 ADD SWAP1 PUSH2 0x257 SWAP2 SWAP1 PUSH2 0x1579 JUMP JUMPDEST PUSH2 0x72A JUMP JUMPDEST STOP JUMPDEST PUSH2 0x266 PUSH2 0x752 JUMP JUMPDEST PUSH1 0x40 MLOAD PUSH2 0x273 SWAP2 SWAP1 PUSH2 0x1618 JUMP JUMPDEST PUSH1 0x40 MLOAD DUP1 SWAP2 SUB SWAP1 RETURN JUMPDEST PUSH2 0x284 PUSH2 0x778 JUMP JUMPDEST PUSH1 0x40 MLOAD PUSH2 0x291 SWAP2 SWAP1 PUSH2 0x13A6 JUMP JUMPDEST PUSH1 0x40 MLOAD DUP1 SWAP2 SUB SWAP1 RETURN JUMPDEST PUSH2 0x2A2 PUSH2 0x78E JUMP JUMPDEST PUSH1 0x40 MLOAD PUSH2 0x2AF SWAP2 SWAP1 PUSH2 0x13DA JUMP JUMPDEST PUSH1 0x40 MLOAD DUP1 SWAP2 SUB SWAP1 RETURN JUMPDEST PUSH2 0x2D2 PUSH1 0x4 DUP1 CALLDATASIZE SUB DUP2 ADD SWAP1 PUSH2 0x2CD SWAP2 SWAP1 PUSH2 0x1779 JUMP JUMPDEST PUSH2 0x794 JUMP JUMPDEST PUSH1 0x40 MLOAD PUSH2 0x2DF SWAP2 SWAP1 PUSH2 0x13DA JUMP JUMPDEST PUSH1 0x40 MLOAD DUP1 SWAP2 SUB SWAP1 RETURN JUMPDEST PUSH2 0x302 PUSH1 0x4 DUP1 CALLDATASIZE SUB DUP2 ADD SWAP1 PUSH2 0x2FD SWAP2 SWAP1 PUSH2 0x1539 JUMP JUMPDEST PUSH2 0x9F8 JUMP JUMPDEST PUSH1 0x40 MLOAD PUSH2 0x30F SWAP2 SWAP1 PUSH2 0x13A6 JUMP JUMPDEST PUSH1 0x40 MLOAD DUP1 SWAP2 SUB SWAP1 RETURN JUMPDEST PUSH2 0x332 PUSH1 0x4 DUP1 CALLDATASIZE SUB DUP2 ADD SWAP1 PUSH2 0x32D SWAP2 SWAP1 PUSH2 0x17C2 JUMP JUMPDEST PUSH2 0xA63 JUMP JUMPDEST STOP JUMPDEST PUSH2 0x33C PUSH2 0xAC5 JUMP JUMPDEST PUSH1 0x40 MLOAD PUSH2 0x349 SWAP2 SWAP1 PUSH2 0x14C0 JUMP JUMPDEST PUSH1 0x40 MLOAD DUP1 SWAP2 SUB SWAP1 RETURN JUMPDEST PUSH2 0x36C PUSH1 0x4 DUP1 CALLDATASIZE SUB DUP2 ADD SWAP1 PUSH2 0x367 SWAP2 SWAP1 PUSH2 0x1421 JUMP JUMPDEST PUSH2 0xACC JUMP JUMPDEST PUSH1 0x40 MLOAD PUSH2 0x379 SWAP2 SWAP1 PUSH2 0x13DA JUMP JUMPDEST PUSH1 0x40 MLOAD DUP1 SWAP2 SUB SWAP1 RETURN JUMPDEST PUSH2 0x38A PUSH2 0xAE7 JUMP JUMPDEST PUSH1 0x40 MLOAD PUSH2 0x397 SWAP2 SWAP1 PUSH2 0x1811 JUMP JUMPDEST PUSH1 0x40 MLOAD DUP1 SWAP2 SUB SWAP1 RETURN JUMPDEST PUSH2 0x3BA PUSH1 0x4 DUP1 CALLDATASIZE SUB DUP2 ADD SWAP1 PUSH2 0x3B5 SWAP2 SWAP1 PUSH2 0x1539 JUMP JUMPDEST PUSH2 0xB0D JUMP JUMPDEST STOP JUMPDEST PUSH2 0x3D6 PUSH1 0x4 DUP1 CALLDATASIZE SUB DUP2 ADD SWAP1 PUSH2 0x3D1 SWAP2 SWAP1 PUSH2 0x1484 JUMP JUMPDEST PUSH2 0xB36 JUMP JUMPDEST PUSH1 0x40 MLOAD PUSH2 0x3E3 SWAP2 SWAP1 PUSH2 0x18D7 JUMP JUMPDEST PUSH1 0x40 MLOAD DUP1 SWAP2 SUB SWAP1 RETURN JUMPDEST PUSH2 0x3F4 PUSH2 0xC1A JUMP JUMPDEST PUSH1 0x40 MLOAD PUSH2 0x401 SWAP2 SWAP1 PUSH2 0x14C0 JUMP JUMPDEST PUSH1 0x40 MLOAD DUP1 SWAP2 SUB SWAP1 RETURN JUMPDEST PUSH2 0x424 PUSH1 0x4 DUP1 CALLDATASIZE SUB DUP2 ADD SWAP1 PUSH2 0x41F SWAP2 SWAP1 PUSH2 0x1421 JUMP JUMPDEST PUSH2 0xC3E JUMP JUMPDEST STOP JUMPDEST PUSH2 0x440 PUSH1 0x4 DUP1 CALLDATASIZE SUB DUP2 ADD SWAP1 PUSH2 0x43B SWAP2 SWAP1 PUSH2 0x17C2 JUMP JUMPDEST PUSH2 0xCA2 JUMP JUMPDEST STOP JUMPDEST PUSH2 0x44A PUSH2 0xDBC JUMP JUMPDEST PUSH1 0x40 MLOAD PUSH2 0x457 SWAP2 SWAP1 PUSH2 0x13DA JUMP JUMPDEST PUSH1 0x40 MLOAD DUP1 SWAP2 SUB SWAP1 RETURN JUMPDEST PUSH1 0x0 PUSH32 0x7965DB0B00000000000000000000000000000000000000000000000000000000 PUSH28 0xFFFFFFFFFFFFFFFFFFFFFFFFFFFFFFFFFFFFFFFFFFFFFFFFFFFFFFFF NOT AND DUP3 PUSH28 0xFFFFFFFFFFFFFFFFFFFFFFFFFFFFFFFFFFFFFFFFFFFFFFFFFFFFFFFF NOT AND EQ DUP1 PUSH2 0x4D3 JUMPI POP PUSH2 0x4D2 DUP3 PUSH2 0xDC2 JUMP JUMPDEST JUMPDEST SWAP1 POP SWAP2 SWAP1 POP JUMP JUMPDEST PUSH1 0x3 SLOAD DUP2 JUMP JUMPDEST PUSH1 0x0 DUP1 PUSH1 0x0 PUSH1 0x2 PUSH1 0x0 SWAP1 SLOAD SWAP1 PUSH2 0x100 EXP SWAP1 DIV PUSH20 0xFFFFFFFFFFFFFFFFFFFFFFFFFFFFFFFFFFFFFFFF AND PUSH20 0xFFFFFFFFFFFFFFFFFFFFFFFFFFFFFFFFFFFFFFFF AND PUSH4 0xFD2E997E DUP6 PUSH1 0x40 MLOAD DUP3 PUSH4 0xFFFFFFFF AND PUSH1 0xE0 SHL DUP2 MSTORE PUSH1 0x4 ADD PUSH2 0x540 SWAP2 SWAP1 PUSH2 0x13DA JUMP JUMPDEST PUSH1 0x0 PUSH1 0x40 MLOAD DUP1 DUP4 SUB DUP2 PUSH1 0x0 DUP8 GAS CALL ISZERO DUP1 ISZERO PUSH2 0x55F JUMPI RETURNDATASIZE PUSH1 0x0 DUP1 RETURNDATACOPY RETURNDATASIZE PUSH1 0x0 REVERT JUMPDEST POP POP POP POP PUSH1 0x40 MLOAD RETURNDATASIZE PUSH1 0x0 DUP3 RETURNDATACOPY RETURNDATASIZE PUSH1 0x1F NOT PUSH1 0x1F DUP3 ADD AND DUP3 ADD DUP1 PUSH1 0x40 MSTORE POP DUP2 ADD SWAP1 PUSH2 0x588 SWAP2 SWAP1 PUSH2 0x19E4 JUMP JUMPDEST SWAP3 POP SWAP3 POP SWAP3 POP PUSH1 0x2 PUSH1 0x0 SWAP1 SLOAD SWAP1 PUSH2 0x100 EXP SWAP1 DIV PUSH20 0xFFFFFFFFFFFFFFFFFFFFFFFFFFFFFFFFFFFFFFFF AND PUSH20 0xFFFFFFFFFFFFFFFFFFFFFFFFFFFFFFFFFFFFFFFF AND PUSH4 0x42966C68 DUP6 PUSH1 0x40 MLOAD DUP3 PUSH4 0xFFFFFFFF AND PUSH1 0xE0 SHL DUP2 MSTORE PUSH1 0x4 ADD PUSH2 0x5E9 SWAP2 SWAP1 PUSH2 0x13DA JUMP JUMPDEST PUSH1 0x0 PUSH1 0x40 MLOAD DUP1 DUP4 SUB DUP2 PUSH1 0x0 DUP8 DUP1 EXTCODESIZE ISZERO DUP1 ISZERO PUSH2 0x603 JUMPI PUSH1 0x0 DUP1 REVERT JUMPDEST POP GAS CALL ISZERO DUP1 ISZERO PUSH2 0x617 JUMPI RETURNDATASIZE PUSH1 0x0 DUP1 RETURNDATACOPY RETURNDATASIZE PUSH1 0x0 REVERT JUMPDEST POP POP POP POP PUSH32 0x950DCD4A7087BBF2CEE08268E1B26AC45FB310D3AE443D0FE53714B713DA45C1 DUP5 PUSH1 0x40 MLOAD PUSH2 0x64A SWAP2 SWAP1 PUSH2 0x13DA JUMP JUMPDEST PUSH1 0x40 MLOAD DUP1 SWAP2 SUB SWAP1 LOG1 POP POP POP POP JUMP JUMPDEST PUSH1 0x5 SLOAD DUP2 JUMP JUMPDEST PUSH1 0x0 PUSH1 0x1 PUSH1 0x0 DUP4 DUP2 MSTORE PUSH1 0x20 ADD SWAP1 DUP2 MSTORE PUSH1 0x20 ADD PUSH1 0x0 KECCAK256 PUSH1 0x1 ADD SLOAD SWAP1 POP SWAP2 SWAP1 POP JUMP JUMPDEST PUSH2 0x687 DUP3 PUSH2 0x65E JUMP JUMPDEST PUSH2 0x698 DUP2 PUSH2 0x693 PUSH2 0xE2C JUMP JUMPDEST PUSH2 0xE34 JUMP JUMPDEST PUSH2 0x6A2 DUP4 DUP4 PUSH2 0xED1 JUMP JUMPDEST POP POP POP JUMP JUMPDEST PUSH2 0x6AF PUSH2 0xE2C JUMP JUMPDEST PUSH20 0xFFFFFFFFFFFFFFFFFFFFFFFFFFFFFFFFFFFFFFFF AND DUP2 PUSH20 0xFFFFFFFFFFFFFFFFFFFFFFFFFFFFFFFFFFFFFFFF AND EQ PUSH2 0x71C JUMPI PUSH1 0x40 MLOAD PUSH32 0x8C379A000000000000000000000000000000000000000000000000000000000 DUP2 MSTORE PUSH1 0x4 ADD PUSH2 0x713 SWAP1 PUSH2 0x1AD6 JUMP JUMPDEST PUSH1 0x40 MLOAD DUP1 SWAP2 SUB SWAP1 REVERT JUMPDEST PUSH2 0x726 DUP3 DUP3 PUSH2 0xFB1 JUMP JUMPDEST POP POP JUMP JUMPDEST PUSH1 0x0 DUP1 SHL PUSH2 0x73F DUP2 PUSH2 0x73A PUSH2 0xE2C JUMP JUMPDEST PUSH2 0xE34 JUMP JUMPDEST DUP3 PUSH1 0x4 DUP2 SWAP1 SSTORE POP DUP2 PUSH1 0x5 DUP2 SWAP1 SSTORE POP POP POP POP JUMP JUMPDEST PUSH1 0x2 PUSH1 0x0 SWAP1 SLOAD SWAP1 PUSH2 0x100 EXP SWAP1 DIV PUSH20 0xFFFFFFFFFFFFFFFFFFFFFFFFFFFFFFFFFFFFFFFF AND DUP2 JUMP JUMPDEST PUSH1 0x0 DUP1 PUSH1 0x0 SWAP1 SLOAD SWAP1 PUSH2 0x100 EXP SWAP1 DIV PUSH1 0xFF AND SWAP1 POP SWAP1 JUMP JUMPDEST PUSH1 0x4 SLOAD DUP2 JUMP JUMPDEST PUSH1 0x0 PUSH2 0x79E PUSH2 0x778 JUMP JUMPDEST ISZERO PUSH2 0x7DE JUMPI PUSH1 0x40 MLOAD PUSH32 0x8C379A000000000000000000000000000000000000000000000000000000000 DUP2 MSTORE PUSH1 0x4 ADD PUSH2 0x7D5 SWAP1 PUSH2 0x1B42 JUMP JUMPDEST PUSH1 0x40 MLOAD DUP1 SWAP2 SUB SWAP1 REVERT JUMPDEST PUSH1 0x0 PUSH1 0x17 SLOAD GT DUP1 ISZERO PUSH2 0x83F JUMPI POP PUSH1 0x0 PUSH20 0xFFFFFFFFFFFFFFFFFFFFFFFFFFFFFFFFFFFFFFFF AND PUSH1 0x16 PUSH1 0x0 SWAP1 SLOAD SWAP1 PUSH2 0x100 EXP SWAP1 DIV PUSH20 0xFFFFFFFFFFFFFFFFFFFFFFFFFFFFFFFFFFFFFFFF AND PUSH20 0xFFFFFFFFFFFFFFFFFFFFFFFFFFFFFFFFFFFFFFFF AND EQ ISZERO JUMPDEST ISZERO PUSH2 0x8EA JUMPI PUSH1 0x16 PUSH1 0x0 SWAP1 SLOAD SWAP1 PUSH2 0x100 EXP SWAP1 DIV PUSH20 0xFFFFFFFFFFFFFFFFFFFFFFFFFFFFFFFFFFFFFFFF AND PUSH20 0xFFFFFFFFFFFFFFFFFFFFFFFFFFFFFFFFFFFFFFFF AND PUSH4 0x23B872DD CALLER ADDRESS PUSH1 0x17 SLOAD PUSH1 0x40 MLOAD DUP5 PUSH4 0xFFFFFFFF AND PUSH1 0xE0 SHL DUP2 MSTORE PUSH1 0x4 ADD PUSH2 0x8A5 SWAP4 SWAP3 SWAP2 SWAP1 PUSH2 0x1B62 JUMP JUMPDEST PUSH1 0x20 PUSH1 0x40 MLOAD DUP1 DUP4 SUB DUP2 PUSH1 0x0 DUP8 GAS CALL ISZERO DUP1 ISZERO PUSH2 0x8C4 JUMPI RETURNDATASIZE PUSH1 0x0 DUP1 RETURNDATACOPY RETURNDATASIZE PUSH1 0x0 REVERT JUMPDEST POP POP POP POP PUSH1 0x40 MLOAD RETURNDATASIZE PUSH1 0x1F NOT PUSH1 0x1F DUP3 ADD AND DUP3 ADD DUP1 PUSH1 0x40 MSTORE POP DUP2 ADD SWAP1 PUSH2 0x8E8 SWAP2 SWAP1 PUSH2 0x1BC5 JUMP JUMPDEST POP JUMPDEST PUSH1 0x0 PUSH1 0x2 PUSH1 0x0 SWAP1 SLOAD SWAP1 PUSH2 0x100 EXP SWAP1 DIV PUSH20 0xFFFFFFFFFFFFFFFFFFFFFFFFFFFFFFFFFFFFFFFF AND PUSH20 0xFFFFFFFFFFFFFFFFFFFFFFFFFFFFFFFFFFFFFFFF AND PUSH4 0xD204C45E CALLER DUP6 PUSH1 0x40 MLOAD DUP4 PUSH4 0xFFFFFFFF AND PUSH1 0xE0 SHL DUP2 MSTORE PUSH1 0x4 ADD PUSH2 0x949 SWAP3 SWAP2 SWAP1 PUSH2 0x1C36 JUMP JUMPDEST PUSH1 0x20 PUSH1 0x40 MLOAD DUP1 DUP4 SUB DUP2 PUSH1 0x0 DUP8 GAS CALL ISZERO DUP1 ISZERO PUSH2 0x968 JUMPI RETURNDATASIZE PUSH1 0x0 DUP1 RETURNDATACOPY RETURNDATASIZE PUSH1 0x0 REVERT JUMPDEST POP POP POP POP PUSH1 0x40 MLOAD RETURNDATASIZE PUSH1 0x1F NOT PUSH1 0x1F DUP3 ADD AND DUP3 ADD DUP1 PUSH1 0x40 MSTORE POP DUP2 ADD SWAP1 PUSH2 0x98C SWAP2 SWAP1 PUSH2 0x1C7B JUMP JUMPDEST SWAP1 POP PUSH32 0x9E6E3ACB506BF1D2ADB1D8565252E575763EE07D1DEBFCC2C830682895B3137D CALLER DUP3 PUSH1 0x16 PUSH1 0x0 SWAP1 SLOAD SWAP1 PUSH2 0x100 EXP SWAP1 DIV PUSH20 0xFFFFFFFFFFFFFFFFFFFFFFFFFFFFFFFFFFFFFFFF AND PUSH1 0x17 SLOAD PUSH1 0x40 MLOAD PUSH2 0x9E7 SWAP5 SWAP4 SWAP3 SWAP2 SWAP1 PUSH2 0x1CA8 JUMP JUMPDEST PUSH1 0x40 MLOAD DUP1 SWAP2 SUB SWAP1 LOG1 DUP1 SWAP2 POP POP SWAP2 SWAP1 POP JUMP JUMPDEST PUSH1 0x0 PUSH1 0x1 PUSH1 0x0 DUP5 DUP2 MSTORE PUSH1 0x20 ADD SWAP1 DUP2 MSTORE PUSH1 0x20 ADD PUSH1 0x0 KECCAK256 PUSH1 0x0 ADD PUSH1 0x0 DUP4 PUSH20 0xFFFFFFFFFFFFFFFFFFFFFFFFFFFFFFFFFFFFFFFF AND PUSH20 0xFFFFFFFFFFFFFFFFFFFFFFFFFFFFFFFFFFFFFFFF AND DUP2 MSTORE PUSH1 0x20 ADD SWAP1 DUP2 MSTORE PUSH1 0x20 ADD PUSH1 0x0 KECCAK256 PUSH1 0x0 SWAP1 SLOAD SWAP1 PUSH2 0x100 EXP SWAP1 DIV PUSH1 0xFF AND SWAP1 POP SWAP3 SWAP2 POP POP JUMP JUMPDEST PUSH1 0x0 DUP1 SHL PUSH2 0xA78 DUP2 PUSH2 0xA73 PUSH2 0xE2C JUMP JUMPDEST PUSH2 0xE34 JUMP JUMPDEST DUP3 PUSH1 0x16 PUSH1 0x0 PUSH2 0x100 EXP DUP2 SLOAD DUP2 PUSH20 0xFFFFFFFFFFFFFFFFFFFFFFFFFFFFFFFFFFFFFFFF MUL NOT AND SWAP1 DUP4 PUSH20 0xFFFFFFFFFFFFFFFFFFFFFFFFFFFFFFFFFFFFFFFF AND MUL OR SWAP1 SSTORE POP DUP2 PUSH1 0x17 DUP2 SWAP1 SSTORE POP POP POP POP JUMP JUMPDEST PUSH1 0x0 DUP1 SHL DUP2 JUMP JUMPDEST PUSH1 0x6 DUP2 PUSH1 0x10 DUP2 LT PUSH2 0xADC JUMPI PUSH1 0x0 DUP1 REVERT JUMPDEST ADD PUSH1 0x0 SWAP2 POP SWAP1 POP SLOAD DUP2 JUMP JUMPDEST PUSH1 0x16 PUSH1 0x0 SWAP1 SLOAD SWAP1 PUSH2 0x100 EXP SWAP1 DIV PUSH20 0xFFFFFFFFFFFFFFFFFFFFFFFFFFFFFFFFFFFFFFFF AND DUP2 JUMP JUMPDEST PUSH2 0xB16 DUP3 PUSH2 0x65E JUMP JUMPDEST PUSH2 0xB27 DUP2 PUSH2 0xB22 PUSH2 0xE2C JUMP JUMPDEST PUSH2 0xE34 JUMP JUMPDEST PUSH2 0xB31 DUP4 DUP4 PUSH2 0xFB1 JUMP JUMPDEST POP POP POP JUMP JUMPDEST PUSH2 0xB3E PUSH2 0x12CF JUMP JUMPDEST PUSH1 0x0 JUMPDEST PUSH1 0x20 DUP2 PUSH1 0xFF AND LT ISZERO PUSH2 0xC14 JUMPI PUSH1 0x0 PUSH1 0x2 DUP3 PUSH2 0xB5C SWAP2 SWAP1 PUSH2 0x1D1C JUMP JUMPDEST PUSH1 0xFF AND EQ PUSH2 0xB6B JUMPI PUSH1 0x0 PUSH2 0xB6E JUMP JUMPDEST PUSH1 0x1 JUMPDEST PUSH2 0x100 PUSH2 0xB7B SWAP2 SWAP1 PUSH2 0x1EAF JUMP JUMPDEST DUP4 DUP3 PUSH1 0xFF AND PUSH1 0x20 DUP2 LT PUSH2 0xB91 JUMPI PUSH2 0xB90 PUSH2 0x1EFA JUMP JUMPDEST JUMPDEST BYTE PUSH1 0xF8 SHL PUSH1 0xF8 SHR PUSH1 0xFF AND PUSH2 0xBA5 SWAP2 SWAP1 PUSH2 0x1F29 JUMP JUMPDEST DUP3 PUSH1 0x2 DUP4 PUSH2 0xBB3 SWAP2 SWAP1 PUSH2 0x1F83 JUMP JUMPDEST PUSH1 0xFF AND PUSH1 0x10 DUP2 LT PUSH2 0xBC7 JUMPI PUSH2 0xBC6 PUSH2 0x1EFA JUMP JUMPDEST JUMPDEST PUSH1 0x20 MUL ADD MLOAD PUSH2 0xBD6 SWAP2 SWAP1 PUSH2 0x1FB4 JUMP JUMPDEST DUP3 PUSH1 0x2 DUP4 PUSH2 0xBE4 SWAP2 SWAP1 PUSH2 0x1F83 JUMP JUMPDEST PUSH1 0xFF AND PUSH1 0x10 DUP2 LT PUSH2 0xBF8 JUMPI PUSH2 0xBF7 PUSH2 0x1EFA JUMP JUMPDEST JUMPDEST PUSH1 0x20 MUL ADD DUP2 DUP2 MSTORE POP POP DUP1 DUP1 PUSH2 0xC0C SWAP1 PUSH2 0x200A JUMP JUMPDEST SWAP2 POP POP PUSH2 0xB41 JUMP JUMPDEST POP SWAP2 SWAP1 POP JUMP JUMPDEST PUSH32 0x65D7A28E3265B37A6474929F336521B332C1681B933F6CB9F3376673440D862A DUP2 JUMP JUMPDEST PUSH1 0x0 DUP1 SHL PUSH2 0xC53 DUP2 PUSH2 0xC4E PUSH2 0xE2C JUMP JUMPDEST PUSH2 0xE34 JUMP JUMPDEST PUSH1 0x64 DUP3 GT ISZERO PUSH2 0xC97 JUMPI PUSH1 0x40 MLOAD PUSH32 0x8C379A000000000000000000000000000000000000000000000000000000000 DUP2 MSTORE PUSH1 0x4 ADD PUSH2 0xC8E SWAP1 PUSH2 0x207F JUMP JUMPDEST PUSH1 0x40 MLOAD DUP1 SWAP2 SUB SWAP1 REVERT JUMPDEST DUP2 PUSH1 0x3 DUP2 SWAP1 SSTORE POP POP POP JUMP JUMPDEST PUSH1 0x0 DUP1 SHL PUSH2 0xCB7 DUP2 PUSH2 0xCB2 PUSH2 0xE2C JUMP JUMPDEST PUSH2 0xE34 JUMP JUMPDEST PUSH1 0x0 PUSH20 0xFFFFFFFFFFFFFFFFFFFFFFFFFFFFFFFFFFFFFFFF AND DUP4 PUSH20 0xFFFFFFFFFFFFFFFFFFFFFFFFFFFFFFFFFFFFFFFF AND SUB PUSH2 0xD37 JUMPI CALLER PUSH20 0xFFFFFFFFFFFFFFFFFFFFFFFFFFFFFFFFFFFFFFFF AND PUSH2 0x8FC DUP4 SWAP1 DUP2 ISZERO MUL SWAP1 PUSH1 0x40 MLOAD PUSH1 0x0 PUSH1 0x40 MLOAD DUP1 DUP4 SUB DUP2 DUP6 DUP9 DUP9 CALL SWAP4 POP POP POP POP ISZERO DUP1 ISZERO PUSH2 0xD31 JUMPI RETURNDATASIZE PUSH1 0x0 DUP1 RETURNDATACOPY RETURNDATASIZE PUSH1 0x0 REVERT JUMPDEST POP PUSH2 0xDB7 JUMP JUMPDEST DUP3 PUSH20 0xFFFFFFFFFFFFFFFFFFFFFFFFFFFFFFFFFFFFFFFF AND PUSH4 0xA9059CBB CALLER DUP5 PUSH1 0x40 MLOAD DUP4 PUSH4 0xFFFFFFFF AND PUSH1 0xE0 SHL DUP2 MSTORE PUSH1 0x4 ADD PUSH2 0xD72 SWAP3 SWAP2 SWAP1 PUSH2 0x209F JUMP JUMPDEST PUSH1 0x20 PUSH1 0x40 MLOAD DUP1 DUP4 SUB DUP2 PUSH1 0x0 DUP8 GAS CALL ISZERO DUP1 ISZERO PUSH2 0xD91 JUMPI RETURNDATASIZE PUSH1 0x0 DUP1 RETURNDATACOPY RETURNDATASIZE PUSH1 0x0 REVERT JUMPDEST POP POP POP POP PUSH1 0x40 MLOAD RETURNDATASIZE PUSH1 0x1F NOT PUSH1 0x1F DUP3 ADD AND DUP3 ADD DUP1 PUSH1 0x40 MSTORE POP DUP2 ADD SWAP1 PUSH2 0xDB5 SWAP2 SWAP1 PUSH2 0x1BC5 JUMP JUMPDEST POP JUMPDEST POP POP POP JUMP JUMPDEST PUSH1 0x17 SLOAD DUP2 JUMP JUMPDEST PUSH1 0x0 PUSH32 0x1FFC9A700000000000000000000000000000000000000000000000000000000 PUSH28 0xFFFFFFFFFFFFFFFFFFFFFFFFFFFFFFFFFFFFFFFFFFFFFFFFFFFFFFFF NOT AND DUP3 PUSH28 0xFFFFFFFFFFFFFFFFFFFFFFFFFFFFFFFFFFFFFFFFFFFFFFFFFFFFFFFF NOT AND EQ SWAP1 POP SWAP2 SWAP1 POP JUMP JUMPDEST PUSH1 0x0 CALLER SWAP1 POP SWAP1 JUMP JUMPDEST PUSH2 0xE3E DUP3 DUP3 PUSH2 0x9F8 JUMP JUMPDEST PUSH2 0xECD JUMPI PUSH2 0xE63 DUP2 PUSH20 0xFFFFFFFFFFFFFFFFFFFFFFFFFFFFFFFFFFFFFFFF AND PUSH1 0x14 PUSH2 0x1093 JUMP JUMPDEST PUSH2 0xE71 DUP4 PUSH1 0x0 SHR PUSH1 0x20 PUSH2 0x1093 JUMP JUMPDEST PUSH1 0x40 MLOAD PUSH1 0x20 ADD PUSH2 0xE82 SWAP3 SWAP2 SWAP1 PUSH2 0x219C JUMP JUMPDEST PUSH1 0x40 MLOAD PUSH1 0x20 DUP2 DUP4 SUB SUB DUP2 MSTORE SWAP1 PUSH1 0x40 MSTORE PUSH1 0x40 MLOAD PUSH32 0x8C379A000000000000000000000000000000000000000000000000000000000 DUP2 MSTORE PUSH1 0x4 ADD PUSH2 0xEC4 SWAP2 SWAP1 PUSH2 0x21D6 JUMP JUMPDEST PUSH1 0x40 MLOAD DUP1 SWAP2 SUB SWAP1 REVERT JUMPDEST POP POP JUMP JUMPDEST PUSH2 0xEDB DUP3 DUP3 PUSH2 0x9F8 JUMP JUMPDEST PUSH2 0xFAD JUMPI PUSH1 0x1 DUP1 PUSH1 0x0 DUP5 DUP2 MSTORE PUSH1 0x20 ADD SWAP1 DUP2 MSTORE PUSH1 0x20 ADD PUSH1 0x0 KECCAK256 PUSH1 0x0 ADD PUSH1 0x0 DUP4 PUSH20 0xFFFFFFFFFFFFFFFFFFFFFFFFFFFFFFFFFFFFFFFF AND PUSH20 0xFFFFFFFFFFFFFFFFFFFFFFFFFFFFFFFFFFFFFFFF AND DUP2 MSTORE PUSH1 0x20 ADD SWAP1 DUP2 MSTORE PUSH1 0x20 ADD PUSH1 0x0 KECCAK256 PUSH1 0x0 PUSH2 0x100 EXP DUP2 SLOAD DUP2 PUSH1 0xFF MUL NOT AND SWAP1 DUP4 ISZERO ISZERO MUL OR SWAP1 SSTORE POP PUSH2 0xF52 PUSH2 0xE2C JUMP JUMPDEST PUSH20 0xFFFFFFFFFFFFFFFFFFFFFFFFFFFFFFFFFFFFFFFF AND DUP2 PUSH20 0xFFFFFFFFFFFFFFFFFFFFFFFFFFFFFFFFFFFFFFFF AND DUP4 PUSH32 0x2F8788117E7EFF1D82E926EC794901D17C78024A50270940304540A733656F0D PUSH1 0x40 MLOAD PUSH1 0x40 MLOAD DUP1 SWAP2 SUB SWAP1 LOG4 JUMPDEST POP POP JUMP JUMPDEST PUSH2 0xFBB DUP3 DUP3 PUSH2 0x9F8 JUMP JUMPDEST ISZERO PUSH2 0x108F JUMPI PUSH1 0x0 PUSH1 0x1 PUSH1 0x0 DUP5 DUP2 MSTORE PUSH1 0x20 ADD SWAP1 DUP2 MSTORE PUSH1 0x20 ADD PUSH1 0x0 KECCAK256 PUSH1 0x0 ADD PUSH1 0x0 DUP4 PUSH20 0xFFFFFFFFFFFFFFFFFFFFFFFFFFFFFFFFFFFFFFFF AND PUSH20 0xFFFFFFFFFFFFFFFFFFFFFFFFFFFFFFFFFFFFFFFF AND DUP2 MSTORE PUSH1 0x20 ADD SWAP1 DUP2 MSTORE PUSH1 0x20 ADD PUSH1 0x0 KECCAK256 PUSH1 0x0 PUSH2 0x100 EXP DUP2 SLOAD DUP2 PUSH1 0xFF MUL NOT AND SWAP1 DUP4 ISZERO ISZERO MUL OR SWAP1 SSTORE POP PUSH2 0x1034 PUSH2 0xE2C JUMP JUMPDEST PUSH20 0xFFFFFFFFFFFFFFFFFFFFFFFFFFFFFFFFFFFFFFFF AND DUP2 PUSH20 0xFFFFFFFFFFFFFFFFFFFFFFFFFFFFFFFFFFFFFFFF AND DUP4 PUSH32 0xF6391F5C32D9C69D2A47EA670B442974B53935D1EDC7FD64EB21E047A839171B PUSH1 0x40 MLOAD PUSH1 0x40 MLOAD DUP1 SWAP2 SUB SWAP1 LOG4 JUMPDEST POP POP JUMP JUMPDEST PUSH1 0x60 PUSH1 0x0 PUSH1 0x2 DUP4 PUSH1 0x2 PUSH2 0x10A6 SWAP2 SWAP1 PUSH2 0x1F29 JUMP JUMPDEST PUSH2 0x10B0 SWAP2 SWAP1 PUSH2 0x1FB4 JUMP JUMPDEST PUSH8 0xFFFFFFFFFFFFFFFF DUP2 GT ISZERO PUSH2 0x10C9 JUMPI PUSH2 0x10C8 PUSH2 0x164E JUMP JUMPDEST JUMPDEST PUSH1 0x40 MLOAD SWAP1 DUP1 DUP3 MSTORE DUP1 PUSH1 0x1F ADD PUSH1 0x1F NOT AND PUSH1 0x20 ADD DUP3 ADD PUSH1 0x40 MSTORE DUP1 ISZERO PUSH2 0x10FB JUMPI DUP2 PUSH1 0x20 ADD PUSH1 0x1 DUP3 MUL DUP1 CALLDATASIZE DUP4 CALLDATACOPY DUP1 DUP3 ADD SWAP2 POP POP SWAP1 POP JUMPDEST POP SWAP1 POP PUSH32 0x3000000000000000000000000000000000000000000000000000000000000000 DUP2 PUSH1 0x0 DUP2 MLOAD DUP2 LT PUSH2 0x1133 JUMPI PUSH2 0x1132 PUSH2 0x1EFA JUMP JUMPDEST JUMPDEST PUSH1 0x20 ADD ADD SWAP1 PUSH31 0xFFFFFFFFFFFFFFFFFFFFFFFFFFFFFFFFFFFFFFFFFFFFFFFFFFFFFFFFFFFFFF NOT AND SWAP1 DUP2 PUSH1 0x0 BYTE SWAP1 MSTORE8 POP PUSH32 0x7800000000000000000000000000000000000000000000000000000000000000 DUP2 PUSH1 0x1 DUP2 MLOAD DUP2 LT PUSH2 0x1197 JUMPI PUSH2 0x1196 PUSH2 0x1EFA JUMP JUMPDEST JUMPDEST PUSH1 0x20 ADD ADD SWAP1 PUSH31 0xFFFFFFFFFFFFFFFFFFFFFFFFFFFFFFFFFFFFFFFFFFFFFFFFFFFFFFFFFFFFFF NOT AND SWAP1 DUP2 PUSH1 0x0 BYTE SWAP1 MSTORE8 POP PUSH1 0x0 PUSH1 0x1 DUP5 PUSH1 0x2 PUSH2 0x11D7 SWAP2 SWAP1 PUSH2 0x1F29 JUMP JUMPDEST PUSH2 0x11E1 SWAP2 SWAP1 PUSH2 0x1FB4 JUMP JUMPDEST SWAP1 POP JUMPDEST PUSH1 0x1 DUP2 GT ISZERO PUSH2 0x1281 JUMPI PUSH32 0x3031323334353637383961626364656600000000000000000000000000000000 PUSH1 0xF DUP7 AND PUSH1 0x10 DUP2 LT PUSH2 0x1223 JUMPI PUSH2 0x1222 PUSH2 0x1EFA JUMP JUMPDEST JUMPDEST BYTE PUSH1 0xF8 SHL DUP3 DUP3 DUP2 MLOAD DUP2 LT PUSH2 0x123A JUMPI PUSH2 0x1239 PUSH2 0x1EFA JUMP JUMPDEST JUMPDEST PUSH1 0x20 ADD ADD SWAP1 PUSH31 0xFFFFFFFFFFFFFFFFFFFFFFFFFFFFFFFFFFFFFFFFFFFFFFFFFFFFFFFFFFFFFF NOT AND SWAP1 DUP2 PUSH1 0x0 BYTE SWAP1 MSTORE8 POP PUSH1 0x4 DUP6 SWAP1 SHR SWAP5 POP DUP1 PUSH2 0x127A SWAP1 PUSH2 0x21F8 JUMP JUMPDEST SWAP1 POP PUSH2 0x11E4 JUMP JUMPDEST POP PUSH1 0x0 DUP5 EQ PUSH2 0x12C5 JUMPI PUSH1 0x40 MLOAD PUSH32 0x8C379A000000000000000000000000000000000000000000000000000000000 DUP2 MSTORE PUSH1 0x4 ADD PUSH2 0x12BC SWAP1 PUSH2 0x226D JUMP JUMPDEST PUSH1 0x40 MLOAD DUP1 SWAP2 SUB SWAP1 REVERT JUMPDEST DUP1 SWAP2 POP POP SWAP3 SWAP2 POP POP JUMP JUMPDEST PUSH1 0x40 MLOAD DUP1 PUSH2 0x200 ADD PUSH1 0x40 MSTORE DUP1 PUSH1 0x10 SWAP1 PUSH1 0x20 DUP3 MUL DUP1 CALLDATASIZE DUP4 CALLDATACOPY DUP1 DUP3 ADD SWAP2 POP POP SWAP1 POP POP SWAP1 JUMP JUMPDEST PUSH1 0x0 PUSH1 0x40 MLOAD SWAP1 POP SWAP1 JUMP JUMPDEST PUSH1 0x0 DUP1 REVERT JUMPDEST PUSH1 0x0 DUP1 REVERT JUMPDEST PUSH1 0x0 PUSH32 0xFFFFFFFF00000000000000000000000000000000000000000000000000000000 DUP3 AND SWAP1 POP SWAP2 SWAP1 POP JUMP JUMPDEST PUSH2 0x133B DUP2 PUSH2 0x1306 JUMP JUMPDEST DUP2 EQ PUSH2 0x1346 JUMPI PUSH1 0x0 DUP1 REVERT JUMPDEST POP JUMP JUMPDEST PUSH1 0x0 DUP2 CALLDATALOAD SWAP1 POP PUSH2 0x1358 DUP2 PUSH2 0x1332 JUMP JUMPDEST SWAP3 SWAP2 POP POP JUMP JUMPDEST PUSH1 0x0 PUSH1 0x20 DUP3 DUP5 SUB SLT ISZERO PUSH2 0x1374 JUMPI PUSH2 0x1373 PUSH2 0x12FC JUMP JUMPDEST JUMPDEST PUSH1 0x0 PUSH2 0x1382 DUP5 DUP3 DUP6 ADD PUSH2 0x1349 JUMP JUMPDEST SWAP2 POP POP SWAP3 SWAP2 POP POP JUMP JUMPDEST PUSH1 0x0 DUP2 ISZERO ISZERO SWAP1 POP SWAP2 SWAP1 POP JUMP JUMPDEST PUSH2 0x13A0 DUP2 PUSH2 0x138B JUMP JUMPDEST DUP3 MSTORE POP POP JUMP JUMPDEST PUSH1 0x0 PUSH1 0x20 DUP3 ADD SWAP1 POP PUSH2 0x13BB PUSH1 0x0 DUP4 ADD DUP5 PUSH2 0x1397 JUMP JUMPDEST SWAP3 SWAP2 POP POP JUMP JUMPDEST PUSH1 0x0 DUP2 SWAP1 POP SWAP2 SWAP1 POP JUMP JUMPDEST PUSH2 0x13D4 DUP2 PUSH2 0x13C1 JUMP JUMPDEST DUP3 MSTORE POP POP JUMP JUMPDEST PUSH1 0x0 PUSH1 0x20 DUP3 ADD SWAP1 POP PUSH2 0x13EF PUSH1 0x0 DUP4 ADD DUP5 PUSH2 0x13CB JUMP JUMPDEST SWAP3 SWAP2 POP POP JUMP JUMPDEST PUSH2 0x13FE DUP2 PUSH2 0x13C1 JUMP JUMPDEST DUP2 EQ PUSH2 0x1409 JUMPI PUSH1 0x0 DUP1 REVERT JUMPDEST POP JUMP JUMPDEST PUSH1 0x0 DUP2 CALLDATALOAD SWAP1 POP PUSH2 0x141B DUP2 PUSH2 0x13F5 JUMP JUMPDEST SWAP3 SWAP2 POP POP JUMP JUMPDEST PUSH1 0x0 PUSH1 0x20 DUP3 DUP5 SUB SLT ISZERO PUSH2 0x1437 JUMPI PUSH2 0x1436 PUSH2 0x12FC JUMP JUMPDEST JUMPDEST PUSH1 0x0 PUSH2 0x1445 DUP5 DUP3 DUP6 ADD PUSH2 0x140C JUMP JUMPDEST SWAP2 POP POP SWAP3 SWAP2 POP POP JUMP JUMPDEST PUSH1 0x0 DUP2 SWAP1 POP SWAP2 SWAP1 POP JUMP JUMPDEST PUSH2 0x1461 DUP2 PUSH2 0x144E JUMP JUMPDEST DUP2 EQ PUSH2 0x146C JUMPI PUSH1 0x0 DUP1 REVERT JUMPDEST POP JUMP JUMPDEST PUSH1 0x0 DUP2 CALLDATALOAD SWAP1 POP PUSH2 0x147E DUP2 PUSH2 0x1458 JUMP JUMPDEST SWAP3 SWAP2 POP POP JUMP JUMPDEST PUSH1 0x0 PUSH1 0x20 DUP3 DUP5 SUB SLT ISZERO PUSH2 0x149A JUMPI PUSH2 0x1499 PUSH2 0x12FC JUMP JUMPDEST JUMPDEST PUSH1 0x0 PUSH2 0x14A8 DUP5 DUP3 DUP6 ADD PUSH2 0x146F JUMP JUMPDEST SWAP2 POP POP SWAP3 SWAP2 POP POP JUMP JUMPDEST PUSH2 0x14BA DUP2 PUSH2 0x144E JUMP JUMPDEST DUP3 MSTORE POP POP JUMP JUMPDEST PUSH1 0x0 PUSH1 0x20 DUP3 ADD SWAP1 POP PUSH2 0x14D5 PUSH1 0x0 DUP4 ADD DUP5 PUSH2 0x14B1 JUMP JUMPDEST SWAP3 SWAP2 POP POP JUMP JUMPDEST PUSH1 0x0 PUSH20 0xFFFFFFFFFFFFFFFFFFFFFFFFFFFFFFFFFFFFFFFF DUP3 AND SWAP1 POP SWAP2 SWAP1 POP JUMP JUMPDEST PUSH1 0x0 PUSH2 0x1506 DUP3 PUSH2 0x14DB JUMP JUMPDEST SWAP1 POP SWAP2 SWAP1 POP JUMP JUMPDEST PUSH2 0x1516 DUP2 PUSH2 0x14FB JUMP JUMPDEST DUP2 EQ PUSH2 0x1521 JUMPI PUSH1 0x0 DUP1 REVERT JUMPDEST POP JUMP JUMPDEST PUSH1 0x0 DUP2 CALLDATALOAD SWAP1 POP PUSH2 0x1533 DUP2 PUSH2 0x150D JUMP JUMPDEST SWAP3 SWAP2 POP POP JUMP JUMPDEST PUSH1 0x0 DUP1 PUSH1 0x40 DUP4 DUP6 SUB SLT ISZERO PUSH2 0x1550 JUMPI PUSH2 0x154F PUSH2 0x12FC JUMP JUMPDEST JUMPDEST PUSH1 0x0 PUSH2 0x155E DUP6 DUP3 DUP7 ADD PUSH2 0x146F JUMP JUMPDEST SWAP3 POP POP PUSH1 0x20 PUSH2 0x156F DUP6 DUP3 DUP7 ADD PUSH2 0x1524 JUMP JUMPDEST SWAP2 POP POP SWAP3 POP SWAP3 SWAP1 POP JUMP JUMPDEST PUSH1 0x0 DUP1 PUSH1 0x40 DUP4 DUP6 SUB SLT ISZERO PUSH2 0x1590 JUMPI PUSH2 0x158F PUSH2 0x12FC JUMP JUMPDEST JUMPDEST PUSH1 0x0 PUSH2 0x159E DUP6 DUP3 DUP7 ADD PUSH2 0x140C JUMP JUMPDEST SWAP3 POP POP PUSH1 0x20 PUSH2 0x15AF DUP6 DUP3 DUP7 ADD PUSH2 0x140C JUMP JUMPDEST SWAP2 POP POP SWAP3 POP SWAP3 SWAP1 POP JUMP JUMPDEST PUSH1 0x0 DUP2 SWAP1 POP SWAP2 SWAP1 POP JUMP JUMPDEST PUSH1 0x0 PUSH2 0x15DE PUSH2 0x15D9 PUSH2 0x15D4 DUP5 PUSH2 0x14DB JUMP JUMPDEST PUSH2 0x15B9 JUMP JUMPDEST PUSH2 0x14DB JUMP JUMPDEST SWAP1 POP SWAP2 SWAP1 POP JUMP JUMPDEST PUSH1 0x0 PUSH2 0x15F0 DUP3 PUSH2 0x15C3 JUMP JUMPDEST SWAP1 POP SWAP2 SWAP1 POP JUMP JUMPDEST PUSH1 0x0 PUSH2 0x1602 DUP3 PUSH2 0x15E5 JUMP JUMPDEST SWAP1 POP SWAP2 SWAP1 POP JUMP JUMPDEST PUSH2 0x1612 DUP2 PUSH2 0x15F7 JUMP JUMPDEST DUP3 MSTORE POP POP JUMP JUMPDEST PUSH1 0x0 PUSH1 0x20 DUP3 ADD SWAP1 POP PUSH2 0x162D PUSH1 0x0 DUP4 ADD DUP5 PUSH2 0x1609 JUMP JUMPDEST SWAP3 SWAP2 POP POP JUMP JUMPDEST PUSH1 0x0 DUP1 REVERT JUMPDEST PUSH1 0x0 DUP1 REVERT JUMPDEST PUSH1 0x0 PUSH1 0x1F NOT PUSH1 0x1F DUP4 ADD AND SWAP1 POP SWAP2 SWAP1 POP JUMP JUMPDEST PUSH32 0x4E487B7100000000000000000000000000000000000000000000000000000000 PUSH1 0x0 MSTORE PUSH1 0x41 PUSH1 0x4 MSTORE PUSH1 0x24 PUSH1 0x0 REVERT JUMPDEST PUSH2 0x1686 DUP3 PUSH2 0x163D JUMP JUMPDEST DUP2 ADD DUP2 DUP2 LT PUSH8 0xFFFFFFFFFFFFFFFF DUP3 GT OR ISZERO PUSH2 0x16A5 JUMPI PUSH2 0x16A4 PUSH2 0x164E JUMP JUMPDEST JUMPDEST DUP1 PUSH1 0x40 MSTORE POP POP POP JUMP JUMPDEST PUSH1 0x0 PUSH2 0x16B8 PUSH2 0x12F2 JUMP JUMPDEST SWAP1 POP PUSH2 0x16C4 DUP3 DUP3 PUSH2 0x167D JUMP JUMPDEST SWAP2 SWAP1 POP JUMP JUMPDEST PUSH1 0x0 PUSH8 0xFFFFFFFFFFFFFFFF DUP3 GT ISZERO PUSH2 0x16E4 JUMPI PUSH2 0x16E3 PUSH2 0x164E JUMP JUMPDEST JUMPDEST PUSH2 0x16ED DUP3 PUSH2 0x163D JUMP JUMPDEST SWAP1 POP PUSH1 0x20 DUP2 ADD SWAP1 POP SWAP2 SWAP1 POP JUMP JUMPDEST DUP3 DUP2 DUP4 CALLDATACOPY PUSH1 0x0 DUP4 DUP4 ADD MSTORE POP POP POP JUMP JUMPDEST PUSH1 0x0 PUSH2 0x171C PUSH2 0x1717 DUP5 PUSH2 0x16C9 JUMP JUMPDEST PUSH2 0x16AE JUMP JUMPDEST SWAP1 POP DUP3 DUP2 MSTORE PUSH1 0x20 DUP2 ADD DUP5 DUP5 DUP5 ADD GT ISZERO PUSH2 0x1738 JUMPI PUSH2 0x1737 PUSH2 0x1638 JUMP JUMPDEST JUMPDEST PUSH2 0x1743 DUP5 DUP3 DUP6 PUSH2 0x16FA JUMP JUMPDEST POP SWAP4 SWAP3 POP POP POP JUMP JUMPDEST PUSH1 0x0 DUP3 PUSH1 0x1F DUP4 ADD SLT PUSH2 0x1760 JUMPI PUSH2 0x175F PUSH2 0x1633 JUMP JUMPDEST JUMPDEST DUP2 CALLDATALOAD PUSH2 0x1770 DUP5 DUP3 PUSH1 0x20 DUP7 ADD PUSH2 0x1709 JUMP JUMPDEST SWAP2 POP POP SWAP3 SWAP2 POP POP JUMP JUMPDEST PUSH1 0x0 PUSH1 0x20 DUP3 DUP5 SUB SLT ISZERO PUSH2 0x178F JUMPI PUSH2 0x178E PUSH2 0x12FC JUMP JUMPDEST JUMPDEST PUSH1 0x0 DUP3 ADD CALLDATALOAD PUSH8 0xFFFFFFFFFFFFFFFF DUP2 GT ISZERO PUSH2 0x17AD JUMPI PUSH2 0x17AC PUSH2 0x1301 JUMP JUMPDEST JUMPDEST PUSH2 0x17B9 DUP5 DUP3 DUP6 ADD PUSH2 0x174B JUMP JUMPDEST SWAP2 POP POP SWAP3 SWAP2 POP POP JUMP JUMPDEST PUSH1 0x0 DUP1 PUSH1 0x40 DUP4 DUP6 SUB SLT ISZERO PUSH2 0x17D9 JUMPI PUSH2 0x17D8 PUSH2 0x12FC JUMP JUMPDEST JUMPDEST PUSH1 0x0 PUSH2 0x17E7 DUP6 DUP3 DUP7 ADD PUSH2 0x1524 JUMP JUMPDEST SWAP3 POP POP PUSH1 0x20 PUSH2 0x17F8 DUP6 DUP3 DUP7 ADD PUSH2 0x140C JUMP JUMPDEST SWAP2 POP POP SWAP3 POP SWAP3 SWAP1 POP JUMP JUMPDEST PUSH2 0x180B DUP2 PUSH2 0x14FB JUMP JUMPDEST DUP3 MSTORE POP POP JUMP JUMPDEST PUSH1 0x0 PUSH1 0x20 DUP3 ADD SWAP1 POP PUSH2 0x1826 PUSH1 0x0 DUP4 ADD DUP5 PUSH2 0x1802 JUMP JUMPDEST SWAP3 SWAP2 POP POP JUMP JUMPDEST PUSH1 0x0 PUSH1 0x10 SWAP1 POP SWAP2 SWAP1 POP JUMP JUMPDEST PUSH1 0x0 DUP2 SWAP1 POP SWAP3 SWAP2 POP POP JUMP JUMPDEST PUSH1 0x0 DUP2 SWAP1 POP SWAP2 SWAP1 POP JUMP JUMPDEST PUSH2 0x1855 DUP2 PUSH2 0x13C1 JUMP JUMPDEST DUP3 MSTORE POP POP JUMP JUMPDEST PUSH1 0x0 PUSH2 0x1867 DUP4 DUP4 PUSH2 0x184C JUMP JUMPDEST PUSH1 0x20 DUP4 ADD SWAP1 POP SWAP3 SWAP2 POP POP JUMP JUMPDEST PUSH1 0x0 PUSH1 0x20 DUP3 ADD SWAP1 POP SWAP2 SWAP1 POP JUMP JUMPDEST PUSH2 0x1889 DUP2 PUSH2 0x182C JUMP JUMPDEST PUSH2 0x1893 DUP2 DUP5 PUSH2 0x1837 JUMP JUMPDEST SWAP3 POP PUSH2 0x189E DUP3 PUSH2 0x1842 JUMP JUMPDEST DUP1 PUSH1 0x0 JUMPDEST DUP4 DUP2 LT ISZERO PUSH2 0x18CF JUMPI DUP2 MLOAD PUSH2 0x18B6 DUP8 DUP3 PUSH2 0x185B JUMP JUMPDEST SWAP7 POP PUSH2 0x18C1 DUP4 PUSH2 0x1873 JUMP JUMPDEST SWAP3 POP POP PUSH1 0x1 DUP2 ADD SWAP1 POP PUSH2 0x18A2 JUMP JUMPDEST POP POP POP POP POP POP JUMP JUMPDEST PUSH1 0x0 PUSH2 0x200 DUP3 ADD SWAP1 POP PUSH2 0x18ED PUSH1 0x0 DUP4 ADD DUP5 PUSH2 0x1880 JUMP JUMPDEST SWAP3 SWAP2 POP POP JUMP JUMPDEST PUSH1 0x0 DUP2 MLOAD SWAP1 POP PUSH2 0x1902 DUP2 PUSH2 0x150D JUMP JUMPDEST SWAP3 SWAP2 POP POP JUMP JUMPDEST PUSH1 0x0 PUSH1 0xFF DUP3 AND SWAP1 POP SWAP2 SWAP1 POP JUMP JUMPDEST PUSH2 0x191E DUP2 PUSH2 0x1908 JUMP JUMPDEST DUP2 EQ PUSH2 0x1929 JUMPI PUSH1 0x0 DUP1 REVERT JUMPDEST POP JUMP JUMPDEST PUSH1 0x0 DUP2 MLOAD SWAP1 POP PUSH2 0x193B DUP2 PUSH2 0x1915 JUMP JUMPDEST SWAP3 SWAP2 POP POP JUMP JUMPDEST PUSH1 0x0 JUMPDEST DUP4 DUP2 LT ISZERO PUSH2 0x195F JUMPI DUP1 DUP3 ADD MLOAD DUP2 DUP5 ADD MSTORE PUSH1 0x20 DUP2 ADD SWAP1 POP PUSH2 0x1944 JUMP JUMPDEST DUP4 DUP2 GT ISZERO PUSH2 0x196E JUMPI PUSH1 0x0 DUP5 DUP5 ADD MSTORE JUMPDEST POP POP POP POP JUMP JUMPDEST PUSH1 0x0 PUSH2 0x1987 PUSH2 0x1982 DUP5 PUSH2 0x16C9 JUMP JUMPDEST PUSH2 0x16AE JUMP JUMPDEST SWAP1 POP DUP3 DUP2 MSTORE PUSH1 0x20 DUP2 ADD DUP5 DUP5 DUP5 ADD GT ISZERO PUSH2 0x19A3 JUMPI PUSH2 0x19A2 PUSH2 0x1638 JUMP JUMPDEST JUMPDEST PUSH2 0x19AE DUP5 DUP3 DUP6 PUSH2 0x1941 JUMP JUMPDEST POP SWAP4 SWAP3 POP POP POP JUMP JUMPDEST PUSH1 0x0 DUP3 PUSH1 0x1F DUP4 ADD SLT PUSH2 0x19CB JUMPI PUSH2 0x19CA PUSH2 0x1633 JUMP JUMPDEST JUMPDEST DUP2 MLOAD PUSH2 0x19DB DUP5 DUP3 PUSH1 0x20 DUP7 ADD PUSH2 0x1974 JUMP JUMPDEST SWAP2 POP POP SWAP3 SWAP2 POP POP JUMP JUMPDEST PUSH1 0x0 DUP1 PUSH1 0x0 PUSH1 0x60 DUP5 DUP7 SUB SLT ISZERO PUSH2 0x19FD JUMPI PUSH2 0x19FC PUSH2 0x12FC JUMP JUMPDEST JUMPDEST PUSH1 0x0 PUSH2 0x1A0B DUP7 DUP3 DUP8 ADD PUSH2 0x18F3 JUMP JUMPDEST SWAP4 POP POP PUSH1 0x20 PUSH2 0x1A1C DUP7 DUP3 DUP8 ADD PUSH2 0x192C JUMP JUMPDEST SWAP3 POP POP PUSH1 0x40 DUP5 ADD MLOAD PUSH8 0xFFFFFFFFFFFFFFFF DUP2 GT ISZERO PUSH2 0x1A3D JUMPI PUSH2 0x1A3C PUSH2 0x1301 JUMP JUMPDEST JUMPDEST PUSH2 0x1A49 DUP7 DUP3 DUP8 ADD PUSH2 0x19B6 JUMP JUMPDEST SWAP2 POP POP SWAP3 POP SWAP3 POP SWAP3 JUMP JUMPDEST PUSH1 0x0 DUP3 DUP3 MSTORE PUSH1 0x20 DUP3 ADD SWAP1 POP SWAP3 SWAP2 POP POP JUMP JUMPDEST PUSH32 0x416363657373436F6E74726F6C3A2063616E206F6E6C792072656E6F756E6365 PUSH1 0x0 DUP3 ADD MSTORE PUSH32 0x20726F6C657320666F722073656C660000000000000000000000000000000000 PUSH1 0x20 DUP3 ADD MSTORE POP JUMP JUMPDEST PUSH1 0x0 PUSH2 0x1AC0 PUSH1 0x2F DUP4 PUSH2 0x1A53 JUMP JUMPDEST SWAP2 POP PUSH2 0x1ACB DUP3 PUSH2 0x1A64 JUMP JUMPDEST PUSH1 0x40 DUP3 ADD SWAP1 POP SWAP2 SWAP1 POP JUMP JUMPDEST PUSH1 0x0 PUSH1 0x20 DUP3 ADD SWAP1 POP DUP2 DUP2 SUB PUSH1 0x0 DUP4 ADD MSTORE PUSH2 0x1AEF DUP2 PUSH2 0x1AB3 JUMP JUMPDEST SWAP1 POP SWAP2 SWAP1 POP JUMP JUMPDEST PUSH32 0x5061757361626C653A2070617573656400000000000000000000000000000000 PUSH1 0x0 DUP3 ADD MSTORE POP JUMP JUMPDEST PUSH1 0x0 PUSH2 0x1B2C PUSH1 0x10 DUP4 PUSH2 0x1A53 JUMP JUMPDEST SWAP2 POP PUSH2 0x1B37 DUP3 PUSH2 0x1AF6 JUMP JUMPDEST PUSH1 0x20 DUP3 ADD SWAP1 POP SWAP2 SWAP1 POP JUMP JUMPDEST PUSH1 0x0 PUSH1 0x20 DUP3 ADD SWAP1 POP DUP2 DUP2 SUB PUSH1 0x0 DUP4 ADD MSTORE PUSH2 0x1B5B DUP2 PUSH2 0x1B1F JUMP JUMPDEST SWAP1 POP SWAP2 SWAP1 POP JUMP JUMPDEST PUSH1 0x0 PUSH1 0x60 DUP3 ADD SWAP1 POP PUSH2 0x1B77 PUSH1 0x0 DUP4 ADD DUP7 PUSH2 0x1802 JUMP JUMPDEST PUSH2 0x1B84 PUSH1 0x20 DUP4 ADD DUP6 PUSH2 0x1802 JUMP JUMPDEST PUSH2 0x1B91 PUSH1 0x40 DUP4 ADD DUP5 PUSH2 0x13CB JUMP JUMPDEST SWAP5 SWAP4 POP POP POP POP JUMP JUMPDEST PUSH2 0x1BA2 DUP2 PUSH2 0x138B JUMP JUMPDEST DUP2 EQ PUSH2 0x1BAD JUMPI PUSH1 0x0 DUP1 REVERT JUMPDEST POP JUMP JUMPDEST PUSH1 0x0 DUP2 MLOAD SWAP1 POP PUSH2 0x1BBF DUP2 PUSH2 0x1B99 JUMP JUMPDEST SWAP3 SWAP2 POP POP JUMP JUMPDEST PUSH1 0x0 PUSH1 0x20 DUP3 DUP5 SUB SLT ISZERO PUSH2 0x1BDB JUMPI PUSH2 0x1BDA PUSH2 0x12FC JUMP JUMPDEST JUMPDEST PUSH1 0x0 PUSH2 0x1BE9 DUP5 DUP3 DUP6 ADD PUSH2 0x1BB0 JUMP JUMPDEST SWAP2 POP POP SWAP3 SWAP2 POP POP JUMP JUMPDEST PUSH1 0x0 DUP2 MLOAD SWAP1 POP SWAP2 SWAP1 POP JUMP JUMPDEST PUSH1 0x0 PUSH2 0x1C08 DUP3 PUSH2 0x1BF2 JUMP JUMPDEST PUSH2 0x1C12 DUP2 DUP6 PUSH2 0x1A53 JUMP JUMPDEST SWAP4 POP PUSH2 0x1C22 DUP2 DUP6 PUSH1 0x20 DUP7 ADD PUSH2 0x1941 JUMP JUMPDEST PUSH2 0x1C2B DUP2 PUSH2 0x163D JUMP JUMPDEST DUP5 ADD SWAP2 POP POP SWAP3 SWAP2 POP POP JUMP JUMPDEST PUSH1 0x0 PUSH1 0x40 DUP3 ADD SWAP1 POP PUSH2 0x1C4B PUSH1 0x0 DUP4 ADD DUP6 PUSH2 0x1802 JUMP JUMPDEST DUP2 DUP2 SUB PUSH1 0x20 DUP4 ADD MSTORE PUSH2 0x1C5D DUP2 DUP5 PUSH2 0x1BFD JUMP JUMPDEST SWAP1 POP SWAP4 SWAP3 POP POP POP JUMP JUMPDEST PUSH1 0x0 DUP2 MLOAD SWAP1 POP PUSH2 0x1C75 DUP2 PUSH2 0x13F5 JUMP JUMPDEST SWAP3 SWAP2 POP POP JUMP JUMPDEST PUSH1 0x0 PUSH1 0x20 DUP3 DUP5 SUB SLT ISZERO PUSH2 0x1C91 JUMPI PUSH2 0x1C90 PUSH2 0x12FC JUMP JUMPDEST JUMPDEST PUSH1 0x0 PUSH2 0x1C9F DUP5 DUP3 DUP6 ADD PUSH2 0x1C66 JUMP JUMPDEST SWAP2 POP POP SWAP3 SWAP2 POP POP JUMP JUMPDEST PUSH1 0x0 PUSH1 0x80 DUP3 ADD SWAP1 POP PUSH2 0x1CBD PUSH1 0x0 DUP4 ADD DUP8 PUSH2 0x1802 JUMP JUMPDEST PUSH2 0x1CCA PUSH1 0x20 DUP4 ADD DUP7 PUSH2 0x13CB JUMP JUMPDEST PUSH2 0x1CD7 PUSH1 0x40 DUP4 ADD DUP6 PUSH2 0x1802 JUMP JUMPDEST PUSH2 0x1CE4 PUSH1 0x60 DUP4 ADD DUP5 PUSH2 0x13CB JUMP JUMPDEST SWAP6 SWAP5 POP POP POP POP POP JUMP JUMPDEST PUSH32 0x4E487B7100000000000000000000000000000000000000000000000000000000 PUSH1 0x0 MSTORE PUSH1 0x12 PUSH1 0x4 MSTORE PUSH1 0x24 PUSH1 0x0 REVERT JUMPDEST PUSH1 0x0 PUSH2 0x1D27 DUP3 PUSH2 0x1908 JUMP JUMPDEST SWAP2 POP PUSH2 0x1D32 DUP4 PUSH2 0x1908 JUMP JUMPDEST SWAP3 POP DUP3 PUSH2 0x1D42 JUMPI PUSH2 0x1D41 PUSH2 0x1CED JUMP JUMPDEST JUMPDEST DUP3 DUP3 MOD SWAP1 POP SWAP3 SWAP2 POP POP JUMP JUMPDEST PUSH32 0x4E487B7100000000000000000000000000000000000000000000000000000000 PUSH1 0x0 MSTORE PUSH1 0x11 PUSH1 0x4 MSTORE PUSH1 0x24 PUSH1 0x0 REVERT JUMPDEST PUSH1 0x0 DUP2 PUSH1 0x1 SHR SWAP1 POP SWAP2 SWAP1 POP JUMP JUMPDEST PUSH1 0x0 DUP1 DUP3 SWAP2 POP DUP4 SWAP1 POP JUMPDEST PUSH1 0x1 DUP6 GT ISZERO PUSH2 0x1DD3 JUMPI DUP1 DUP7 DIV DUP2 GT ISZERO PUSH2 0x1DAF JUMPI PUSH2 0x1DAE PUSH2 0x1D4D JUMP JUMPDEST JUMPDEST PUSH1 0x1 DUP6 AND ISZERO PUSH2 0x1DBE JUMPI DUP1 DUP3 MUL SWAP2 POP JUMPDEST DUP1 DUP2 MUL SWAP1 POP PUSH2 0x1DCC DUP6 PUSH2 0x1D7C JUMP JUMPDEST SWAP5 POP PUSH2 0x1D93 JUMP JUMPDEST SWAP5 POP SWAP5 SWAP3 POP POP POP JUMP JUMPDEST PUSH1 0x0 DUP3 PUSH2 0x1DEC JUMPI PUSH1 0x1 SWAP1 POP PUSH2 0x1EA8 JUMP JUMPDEST DUP2 PUSH2 0x1DFA JUMPI PUSH1 0x0 SWAP1 POP PUSH2 0x1EA8 JUMP JUMPDEST DUP2 PUSH1 0x1 DUP2 EQ PUSH2 0x1E10 JUMPI PUSH1 0x2 DUP2 EQ PUSH2 0x1E1A JUMPI PUSH2 0x1E49 JUMP JUMPDEST PUSH1 0x1 SWAP2 POP POP PUSH2 0x1EA8 JUMP JUMPDEST PUSH1 0xFF DUP5 GT ISZERO PUSH2 0x1E2C JUMPI PUSH2 0x1E2B PUSH2 0x1D4D JUMP JUMPDEST JUMPDEST DUP4 PUSH1 0x2 EXP SWAP2 POP DUP5 DUP3 GT ISZERO PUSH2 0x1E43 JUMPI PUSH2 0x1E42 PUSH2 0x1D4D JUMP JUMPDEST JUMPDEST POP PUSH2 0x1EA8 JUMP JUMPDEST POP PUSH1 0x20 DUP4 LT PUSH2 0x133 DUP4 LT AND PUSH1 0x4E DUP5 LT PUSH1 0xB DUP5 LT AND OR ISZERO PUSH2 0x1E7E JUMPI DUP3 DUP3 EXP SWAP1 POP DUP4 DUP2 GT ISZERO PUSH2 0x1E79 JUMPI PUSH2 0x1E78 PUSH2 0x1D4D JUMP JUMPDEST JUMPDEST PUSH2 0x1EA8 JUMP JUMPDEST PUSH2 0x1E8B DUP5 DUP5 DUP5 PUSH1 0x1 PUSH2 0x1D89 JUMP JUMPDEST SWAP3 POP SWAP1 POP DUP2 DUP5 DIV DUP2 GT ISZERO PUSH2 0x1EA2 JUMPI PUSH2 0x1EA1 PUSH2 0x1D4D JUMP JUMPDEST JUMPDEST DUP2 DUP2 MUL SWAP1 POP JUMPDEST SWAP4 SWAP3 POP POP POP JUMP JUMPDEST PUSH1 0x0 PUSH2 0x1EBA DUP3 PUSH2 0x13C1 JUMP JUMPDEST SWAP2 POP PUSH2 0x1EC5 DUP4 PUSH2 0x1908 JUMP JUMPDEST SWAP3 POP PUSH2 0x1EF2 PUSH32 0xFFFFFFFFFFFFFFFFFFFFFFFFFFFFFFFFFFFFFFFFFFFFFFFFFFFFFFFFFFFFFFFF DUP5 DUP5 PUSH2 0x1DDC JUMP JUMPDEST SWAP1 POP SWAP3 SWAP2 POP POP JUMP JUMPDEST PUSH32 0x4E487B7100000000000000000000000000000000000000000000000000000000 PUSH1 0x0 MSTORE PUSH1 0x32 PUSH1 0x4 MSTORE PUSH1 0x24 PUSH1 0x0 REVERT JUMPDEST PUSH1 0x0 PUSH2 0x1F34 DUP3 PUSH2 0x13C1 JUMP JUMPDEST SWAP2 POP PUSH2 0x1F3F DUP4 PUSH2 0x13C1 JUMP JUMPDEST SWAP3 POP DUP2 PUSH32 0xFFFFFFFFFFFFFFFFFFFFFFFFFFFFFFFFFFFFFFFFFFFFFFFFFFFFFFFFFFFFFFFF DIV DUP4 GT DUP3 ISZERO ISZERO AND ISZERO PUSH2 0x1F78 JUMPI PUSH2 0x1F77 PUSH2 0x1D4D JUMP JUMPDEST JUMPDEST DUP3 DUP3 MUL SWAP1 POP SWAP3 SWAP2 POP POP JUMP JUMPDEST PUSH1 0x0 PUSH2 0x1F8E DUP3 PUSH2 0x1908 JUMP JUMPDEST SWAP2 POP PUSH2 0x1F99 DUP4 PUSH2 0x1908 JUMP JUMPDEST SWAP3 POP DUP3 PUSH2 0x1FA9 JUMPI PUSH2 0x1FA8 PUSH2 0x1CED JUMP JUMPDEST JUMPDEST DUP3 DUP3 DIV SWAP1 POP SWAP3 SWAP2 POP POP JUMP JUMPDEST PUSH1 0x0 PUSH2 0x1FBF DUP3 PUSH2 0x13C1 JUMP JUMPDEST SWAP2 POP PUSH2 0x1FCA DUP4 PUSH2 0x13C1 JUMP JUMPDEST SWAP3 POP DUP3 PUSH32 0xFFFFFFFFFFFFFFFFFFFFFFFFFFFFFFFFFFFFFFFFFFFFFFFFFFFFFFFFFFFFFFFF SUB DUP3 GT ISZERO PUSH2 0x1FFF JUMPI PUSH2 0x1FFE PUSH2 0x1D4D JUMP JUMPDEST JUMPDEST DUP3 DUP3 ADD SWAP1 POP SWAP3 SWAP2 POP POP JUMP JUMPDEST PUSH1 0x0 PUSH2 0x2015 DUP3 PUSH2 0x1908 JUMP JUMPDEST SWAP2 POP PUSH1 0xFF DUP3 SUB PUSH2 0x2028 JUMPI PUSH2 0x2027 PUSH2 0x1D4D JUMP JUMPDEST JUMPDEST PUSH1 0x1 DUP3 ADD SWAP1 POP SWAP2 SWAP1 POP JUMP JUMPDEST PUSH32 0x4D7573742062652076616C69642070657263656E740000000000000000000000 PUSH1 0x0 DUP3 ADD MSTORE POP JUMP JUMPDEST PUSH1 0x0 PUSH2 0x2069 PUSH1 0x15 DUP4 PUSH2 0x1A53 JUMP JUMPDEST SWAP2 POP PUSH2 0x2074 DUP3 PUSH2 0x2033 JUMP JUMPDEST PUSH1 0x20 DUP3 ADD SWAP1 POP SWAP2 SWAP1 POP JUMP JUMPDEST PUSH1 0x0 PUSH1 0x20 DUP3 ADD SWAP1 POP DUP2 DUP2 SUB PUSH1 0x0 DUP4 ADD MSTORE PUSH2 0x2098 DUP2 PUSH2 0x205C JUMP JUMPDEST SWAP1 POP SWAP2 SWAP1 POP JUMP JUMPDEST PUSH1 0x0 PUSH1 0x40 DUP3 ADD SWAP1 POP PUSH2 0x20B4 PUSH1 0x0 DUP4 ADD DUP6 PUSH2 0x1802 JUMP JUMPDEST PUSH2 0x20C1 PUSH1 0x20 DUP4 ADD DUP5 PUSH2 0x13CB JUMP JUMPDEST SWAP4 SWAP3 POP POP POP JUMP JUMPDEST PUSH1 0x0 DUP2 SWAP1 POP SWAP3 SWAP2 POP POP JUMP JUMPDEST PUSH32 0x416363657373436F6E74726F6C3A206163636F756E7420000000000000000000 PUSH1 0x0 DUP3 ADD MSTORE POP JUMP JUMPDEST PUSH1 0x0 PUSH2 0x2109 PUSH1 0x17 DUP4 PUSH2 0x20C8 JUMP JUMPDEST SWAP2 POP PUSH2 0x2114 DUP3 PUSH2 0x20D3 JUMP JUMPDEST PUSH1 0x17 DUP3 ADD SWAP1 POP SWAP2 SWAP1 POP JUMP JUMPDEST PUSH1 0x0 PUSH2 0x212A DUP3 PUSH2 0x1BF2 JUMP JUMPDEST PUSH2 0x2134 DUP2 DUP6 PUSH2 0x20C8 JUMP JUMPDEST SWAP4 POP PUSH2 0x2144 DUP2 DUP6 PUSH1 0x20 DUP7 ADD PUSH2 0x1941 JUMP JUMPDEST DUP1 DUP5 ADD SWAP2 POP POP SWAP3 SWAP2 POP POP JUMP JUMPDEST PUSH32 0x206973206D697373696E6720726F6C6520000000000000000000000000000000 PUSH1 0x0 DUP3 ADD MSTORE POP JUMP JUMPDEST PUSH1 0x0 PUSH2 0x2186 PUSH1 0x11 DUP4 PUSH2 0x20C8 JUMP JUMPDEST SWAP2 POP PUSH2 0x2191 DUP3 PUSH2 0x2150 JUMP JUMPDEST PUSH1 0x11 DUP3 ADD SWAP1 POP SWAP2 SWAP1 POP JUMP JUMPDEST PUSH1 0x0 PUSH2 0x21A7 DUP3 PUSH2 0x20FC JUMP JUMPDEST SWAP2 POP PUSH2 0x21B3 DUP3 DUP6 PUSH2 0x211F JUMP JUMPDEST SWAP2 POP PUSH2 0x21BE DUP3 PUSH2 0x2179 JUMP JUMPDEST SWAP2 POP PUSH2 0x21CA DUP3 DUP5 PUSH2 0x211F JUMP JUMPDEST SWAP2 POP DUP2 SWAP1 POP SWAP4 SWAP3 POP POP POP JUMP JUMPDEST PUSH1 0x0 PUSH1 0x20 DUP3 ADD SWAP1 POP DUP2 DUP2 SUB PUSH1 0x0 DUP4 ADD MSTORE PUSH2 0x21F0 DUP2 DUP5 PUSH2 0x1BFD JUMP JUMPDEST SWAP1 POP SWAP3 SWAP2 POP POP JUMP JUMPDEST PUSH1 0x0 PUSH2 0x2203 DUP3 PUSH2 0x13C1 JUMP JUMPDEST SWAP2 POP PUSH1 0x0 DUP3 SUB PUSH2 0x2216 JUMPI PUSH2 0x2215 PUSH2 0x1D4D JUMP JUMPDEST JUMPDEST PUSH1 0x1 DUP3 SUB SWAP1 POP SWAP2 SWAP1 POP JUMP JUMPDEST PUSH32 0x537472696E67733A20686578206C656E67746820696E73756666696369656E74 PUSH1 0x0 DUP3 ADD MSTORE POP JUMP JUMPDEST PUSH1 0x0 PUSH2 0x2257 PUSH1 0x20 DUP4 PUSH2 0x1A53 JUMP JUMPDEST SWAP2 POP PUSH2 0x2262 DUP3 PUSH2 0x2221 JUMP JUMPDEST PUSH1 0x20 DUP3 ADD SWAP1 POP SWAP2 SWAP1 POP JUMP JUMPDEST PUSH1 0x0 PUSH1 0x20 DUP3 ADD SWAP1 POP DUP2 DUP2 SUB PUSH1 0x0 DUP4 ADD MSTORE PUSH2 0x2286 DUP2 PUSH2 0x224A JUMP JUMPDEST SWAP1 POP SWAP2 SWAP1 POP JUMP INVALID LOG2 PUSH5 0x6970667358 0x22 SLT KECCAK256 0x4F MOD 0x5C 0xED 0xC8 0x23 0xB9 SWAP16 0xAA PUSH16 0xE34BC39F38D470A959BD737EB064496 0x29 PUSH6 0x672AC8426473 PUSH16 0x6C634300080D00330000000000000000 "
				},
				"gasEstimates": {
					"creation": {
						"codeDepositCost": "1779800",
						"executionCost": "infinite",
						"totalCost": "infinite"
					},
					"external": {
						"DEFAULT_ADMIN_ROLE()": "424",
						"PAUSER_ROLE()": "395",
						"SQFi()": "infinite",
						"amount1()": "2561",
						"bytes32ToAmount16(bytes32)": "infinite",
						"createSQFI(string)": "infinite",
						"editSQFI(uint256,uint256)": "infinite",
						"editSupportedFee(address,uint256)": "infinite",
						"editUncraftBurnPercent(uint256)": "infinite",
						"fee1()": "2647",
						"getRoleAdmin(bytes32)": "infinite",
						"grantRole(bytes32,address)": "infinite",
						"hasRole(bytes32,address)": "3185",
						"maxSQFI()": "2519",
						"minSQFI()": "2562",
						"paused()": "2590",
						"renounceRole(bytes32,address)": "infinite",
						"revokeRole(bytes32,address)": "infinite",
						"runePower(uint256)": "infinite",
						"supportsInterface(bytes4)": "751",
						"uncraft(uint256)": "infinite",
						"uncraftBurnPercent()": "2475",
						"withdraw(address,uint256)": "infinite"
					}
				},
				"methodIdentifiers": {
					"DEFAULT_ADMIN_ROLE()": "a217fddf",
					"PAUSER_ROLE()": "e63ab1e9",
					"SQFi()": "52c6159f",
					"amount1()": "f400fde4",
					"bytes32ToAmount16(bytes32)": "dd23faf3",
					"createSQFI(string)": "841acc5d",
					"editSQFI(uint256,uint256)": "51d64e64",
					"editSupportedFee(address,uint256)": "945099bc",
					"editUncraftBurnPercent(uint256)": "eb47536a",
					"fee1()": "c6098256",
					"getRoleAdmin(bytes32)": "248a9ca3",
					"grantRole(bytes32,address)": "2f2ff15d",
					"hasRole(bytes32,address)": "91d14854",
					"maxSQFI()": "13e6b93b",
					"minSQFI()": "683b0ee5",
					"paused()": "5c975abb",
					"renounceRole(bytes32,address)": "36568abe",
					"revokeRole(bytes32,address)": "d547741f",
					"runePower(uint256)": "ac6b182d",
					"supportsInterface(bytes4)": "01ffc9a7",
					"uncraft(uint256)": "0a1ac657",
					"uncraftBurnPercent()": "09c9985c",
					"withdraw(address,uint256)": "f3fef3a3"
				}
			},
			"storageLayout": {
				"storage": [
					{
						"astId": 961,
						"contract": "contracts/SQFITEM/SQFI_Factory.sol:ParagonFactory",
						"label": "_paused",
						"offset": 0,
						"slot": "0",
						"type": "t_bool"
					},
					{
						"astId": 24,
						"contract": "contracts/SQFITEM/SQFI_Factory.sol:ParagonFactory",
						"label": "_roles",
						"offset": 0,
						"slot": "1",
						"type": "t_mapping(t_bytes32,t_struct(RoleData)19_storage)"
					},
					{
						"astId": 1058,
						"contract": "contracts/SQFITEM/SQFI_Factory.sol:ParagonFactory",
						"label": "SQFi",
						"offset": 0,
						"slot": "2",
						"type": "t_contract(ISQFItem)855"
					},
					{
						"astId": 1066,
						"contract": "contracts/SQFITEM/SQFI_Factory.sol:ParagonFactory",
						"label": "uncraftBurnPercent",
						"offset": 0,
						"slot": "3",
						"type": "t_uint256"
					},
					{
						"astId": 1069,
						"contract": "contracts/SQFITEM/SQFI_Factory.sol:ParagonFactory",
						"label": "minSQFI",
						"offset": 0,
						"slot": "4",
						"type": "t_uint256"
					},
					{
						"astId": 1072,
						"contract": "contracts/SQFITEM/SQFI_Factory.sol:ParagonFactory",
						"label": "maxSQFI",
						"offset": 0,
						"slot": "5",
						"type": "t_uint256"
					},
					{
						"astId": 1089,
						"contract": "contracts/SQFITEM/SQFI_Factory.sol:ParagonFactory",
						"label": "runePower",
						"offset": 0,
						"slot": "6",
						"type": "t_array(t_uint256)16_storage"
					},
					{
						"astId": 1091,
						"contract": "contracts/SQFITEM/SQFI_Factory.sol:ParagonFactory",
						"label": "fee1",
						"offset": 0,
						"slot": "22",
						"type": "t_address"
					},
					{
						"astId": 1094,
						"contract": "contracts/SQFITEM/SQFI_Factory.sol:ParagonFactory",
						"label": "amount1",
						"offset": 0,
						"slot": "23",
						"type": "t_uint256"
					}
				],
				"types": {
					"t_address": {
						"encoding": "inplace",
						"label": "address",
						"numberOfBytes": "20"
					},
					"t_array(t_uint256)16_storage": {
						"base": "t_uint256",
						"encoding": "inplace",
						"label": "uint256[16]",
						"numberOfBytes": "512"
					},
					"t_bool": {
						"encoding": "inplace",
						"label": "bool",
						"numberOfBytes": "1"
					},
					"t_bytes32": {
						"encoding": "inplace",
						"label": "bytes32",
						"numberOfBytes": "32"
					},
					"t_contract(ISQFItem)855": {
						"encoding": "inplace",
						"label": "contract ISQFItem",
						"numberOfBytes": "20"
					},
					"t_mapping(t_address,t_bool)": {
						"encoding": "mapping",
						"key": "t_address",
						"label": "mapping(address => bool)",
						"numberOfBytes": "32",
						"value": "t_bool"
					},
					"t_mapping(t_bytes32,t_struct(RoleData)19_storage)": {
						"encoding": "mapping",
						"key": "t_bytes32",
						"label": "mapping(bytes32 => struct AccessControl.RoleData)",
						"numberOfBytes": "32",
						"value": "t_struct(RoleData)19_storage"
					},
					"t_struct(RoleData)19_storage": {
						"encoding": "inplace",
						"label": "struct AccessControl.RoleData",
						"members": [
							{
								"astId": 16,
								"contract": "contracts/SQFITEM/SQFI_Factory.sol:ParagonFactory",
								"label": "members",
								"offset": 0,
								"slot": "0",
								"type": "t_mapping(t_address,t_bool)"
							},
							{
								"astId": 18,
								"contract": "contracts/SQFITEM/SQFI_Factory.sol:ParagonFactory",
								"label": "adminRole",
								"offset": 0,
								"slot": "1",
								"type": "t_bytes32"
							}
						],
						"numberOfBytes": "64"
					},
					"t_uint256": {
						"encoding": "inplace",
						"label": "uint256",
						"numberOfBytes": "32"
					}
				}
			},
			"userdoc": {
				"kind": "user",
				"methods": {},
				"version": 1
			}
		}
	}
}